{
	"AuctionContract.sol": {
		"VickreyAuctionHouse": {
			"abi": [
				{
					"inputs": [
						{
							"internalType": "address",
							"name": "classNFTAddress",
							"type": "address"
						}
					],
					"stateMutability": "nonpayable",
					"type": "constructor"
				},
				{
					"inputs": [],
					"name": "AuctionActive",
					"type": "error"
				},
				{
					"inputs": [],
					"name": "InvalidCommitment",
					"type": "error"
				},
				{
					"inputs": [],
					"name": "NFTNotEscrowed",
					"type": "error"
				},
				{
					"inputs": [],
					"name": "NoActiveAuction",
					"type": "error"
				},
				{
					"inputs": [],
					"name": "NotEnded",
					"type": "error"
				},
				{
					"inputs": [],
					"name": "NotFinalizable",
					"type": "error"
				},
				{
					"inputs": [],
					"name": "NotInCommitPhase",
					"type": "error"
				},
				{
					"inputs": [],
					"name": "NotInRevealPhase",
					"type": "error"
				},
				{
					"inputs": [],
					"name": "NotSeller",
					"type": "error"
				},
				{
					"inputs": [],
					"name": "NotWinner",
					"type": "error"
				},
				{
					"inputs": [],
					"name": "PaymentClosed",
					"type": "error"
				},
				{
					"inputs": [],
					"name": "RevealAlreadyDone",
					"type": "error"
				},
				{
					"inputs": [],
					"name": "WrongPayment",
					"type": "error"
				},
				{
					"anonymous": false,
					"inputs": [
						{
							"indexed": true,
							"internalType": "uint256",
							"name": "id",
							"type": "uint256"
						},
						{
							"indexed": true,
							"internalType": "address",
							"name": "seller",
							"type": "address"
						},
						{
							"indexed": true,
							"internalType": "address",
							"name": "nft",
							"type": "address"
						},
						{
							"indexed": false,
							"internalType": "uint256",
							"name": "tokenId",
							"type": "uint256"
						},
						{
							"indexed": false,
							"internalType": "uint256",
							"name": "reservePrice",
							"type": "uint256"
						},
						{
							"indexed": false,
							"internalType": "uint256",
							"name": "depositPrice",
							"type": "uint256"
						},
						{
							"indexed": false,
							"internalType": "uint256",
							"name": "startStamp",
							"type": "uint256"
						},
						{
							"indexed": false,
							"internalType": "uint64",
							"name": "commitEnd",
							"type": "uint64"
						},
						{
							"indexed": false,
							"internalType": "uint64",
							"name": "revealEnd",
							"type": "uint64"
						},
						{
							"indexed": false,
							"internalType": "uint64",
							"name": "settleDuration",
							"type": "uint64"
						}
					],
					"name": "AuctionStarted",
					"type": "event"
				},
				{
					"anonymous": false,
					"inputs": [
						{
							"indexed": true,
							"internalType": "uint256",
							"name": "id",
							"type": "uint256"
						},
						{
							"indexed": true,
							"internalType": "address",
							"name": "bidder",
							"type": "address"
						}
					],
					"name": "BidCommitted",
					"type": "event"
				},
				{
					"anonymous": false,
					"inputs": [
						{
							"indexed": true,
							"internalType": "uint256",
							"name": "id",
							"type": "uint256"
						},
						{
							"indexed": true,
							"internalType": "address",
							"name": "bidder",
							"type": "address"
						},
						{
							"indexed": false,
							"internalType": "uint256",
							"name": "amount",
							"type": "uint256"
						}
					],
					"name": "BidRevealed",
					"type": "event"
				},
				{
					"anonymous": false,
					"inputs": [
						{
							"indexed": true,
							"internalType": "uint256",
							"name": "id",
							"type": "uint256"
						},
						{
							"indexed": false,
							"internalType": "address",
							"name": "winner",
							"type": "address"
						},
						{
							"indexed": false,
							"internalType": "uint256",
							"name": "highest",
							"type": "uint256"
						},
						{
							"indexed": false,
							"internalType": "uint256",
							"name": "second",
							"type": "uint256"
						},
						{
							"indexed": false,
							"internalType": "uint256",
							"name": "clearingPrice",
							"type": "uint256"
						}
					],
					"name": "Finalized",
					"type": "event"
				},
				{
					"anonymous": false,
					"inputs": [
						{
							"indexed": true,
							"internalType": "uint256",
							"name": "id",
							"type": "uint256"
						}
					],
					"name": "SellerReclaimed",
					"type": "event"
				},
				{
					"anonymous": false,
					"inputs": [
						{
							"indexed": true,
							"internalType": "uint256",
							"name": "id",
							"type": "uint256"
						}
					],
					"name": "Unsold",
					"type": "event"
				},
				{
					"anonymous": false,
					"inputs": [
						{
							"indexed": true,
							"internalType": "uint256",
							"name": "id",
							"type": "uint256"
						},
						{
							"indexed": true,
							"internalType": "address",
							"name": "winner",
							"type": "address"
						},
						{
							"indexed": false,
							"internalType": "uint256",
							"name": "price",
							"type": "uint256"
						}
					],
					"name": "WinnerPaidAndClaimed",
					"type": "event"
				},
				{
					"inputs": [],
					"name": "MAX_DEPOSIT_PRICE",
					"outputs": [
						{
							"internalType": "uint256",
							"name": "",
							"type": "uint256"
						}
					],
					"stateMutability": "view",
					"type": "function"
				},
				{
					"inputs": [],
					"name": "MAX_DURATION",
					"outputs": [
						{
							"internalType": "uint256",
							"name": "",
							"type": "uint256"
						}
					],
					"stateMutability": "view",
					"type": "function"
				},
				{
					"inputs": [],
					"name": "MAX_PRICE",
					"outputs": [
						{
							"internalType": "uint256",
							"name": "",
							"type": "uint256"
						}
					],
					"stateMutability": "view",
					"type": "function"
				},
				{
					"inputs": [],
					"name": "auctionId",
					"outputs": [
						{
							"internalType": "uint256",
							"name": "",
							"type": "uint256"
						}
					],
					"stateMutability": "view",
					"type": "function"
				},
				{
					"inputs": [],
					"name": "classNFT",
					"outputs": [
						{
							"internalType": "contract IERC721",
							"name": "",
							"type": "address"
						}
					],
					"stateMutability": "view",
					"type": "function"
				},
				{
					"inputs": [
						{
							"internalType": "bytes32",
							"name": "commitment",
							"type": "bytes32"
						}
					],
					"name": "commitBid",
					"outputs": [],
					"stateMutability": "nonpayable",
					"type": "function"
				},
				{
					"inputs": [
						{
							"internalType": "uint256",
							"name": "id",
							"type": "uint256"
						}
					],
					"name": "currentPhase",
					"outputs": [
						{
							"internalType": "string",
							"name": "",
							"type": "string"
						}
					],
					"stateMutability": "view",
					"type": "function"
				},
				{
					"inputs": [],
					"name": "finalize",
					"outputs": [],
					"stateMutability": "nonpayable",
					"type": "function"
				},
				{
					"inputs": [
						{
							"internalType": "uint256",
							"name": "id",
							"type": "uint256"
						},
						{
							"internalType": "address",
							"name": "bidder",
							"type": "address"
						}
					],
					"name": "getCommitTime",
					"outputs": [
						{
							"internalType": "uint64",
							"name": "",
							"type": "uint64"
						}
					],
					"stateMutability": "view",
					"type": "function"
				},
				{
					"inputs": [
						{
							"internalType": "uint256",
							"name": "id",
							"type": "uint256"
						},
						{
							"internalType": "address",
							"name": "bidder",
							"type": "address"
						}
					],
					"name": "getCommitment",
					"outputs": [
						{
							"internalType": "bytes32",
							"name": "",
							"type": "bytes32"
						}
					],
					"stateMutability": "view",
					"type": "function"
				},
				{
					"inputs": [
						{
							"internalType": "uint256",
							"name": "id",
							"type": "uint256"
						},
						{
							"internalType": "address",
							"name": "bidder",
							"type": "address"
						}
					],
					"name": "getRevealedAmount",
					"outputs": [
						{
							"internalType": "uint256",
							"name": "",
							"type": "uint256"
						}
					],
					"stateMutability": "view",
					"type": "function"
				},
				{
					"inputs": [
						{
							"internalType": "uint256",
							"name": "id",
							"type": "uint256"
						}
					],
					"name": "getTimes",
					"outputs": [
						{
							"internalType": "uint64",
							"name": "commitEnd",
							"type": "uint64"
						},
						{
							"internalType": "uint64",
							"name": "revealEnd",
							"type": "uint64"
						},
						{
							"internalType": "uint64",
							"name": "settleDeadline",
							"type": "uint64"
						}
					],
					"stateMutability": "view",
					"type": "function"
				},
				{
					"inputs": [
						{
							"internalType": "uint256",
							"name": "id",
							"type": "uint256"
						}
					],
					"name": "getWinnerInfo",
					"outputs": [
						{
							"internalType": "address",
							"name": "winner",
							"type": "address"
						},
						{
							"internalType": "uint256",
							"name": "price",
							"type": "uint256"
						},
						{
							"internalType": "uint64",
							"name": "payDeadline",
							"type": "uint64"
						}
					],
					"stateMutability": "view",
					"type": "function"
				},
				{
					"inputs": [],
					"name": "payAndClaim",
					"outputs": [],
					"stateMutability": "payable",
					"type": "function"
				},
				{
					"inputs": [
						{
							"internalType": "uint256",
							"name": "amount",
							"type": "uint256"
						},
						{
							"internalType": "bytes32",
							"name": "salt",
							"type": "bytes32"
						}
					],
					"name": "revealBid",
					"outputs": [],
					"stateMutability": "nonpayable",
					"type": "function"
				},
				{
					"inputs": [],
					"name": "sellerReclaimIfUnpaid",
					"outputs": [],
					"stateMutability": "nonpayable",
					"type": "function"
				},
				{
					"inputs": [
						{
							"internalType": "uint256",
							"name": "tokenId",
							"type": "uint256"
						},
						{
							"internalType": "uint256",
							"name": "reservePrice",
							"type": "uint256"
						},
						{
							"internalType": "uint64",
							"name": "commitDurationSeconds",
							"type": "uint64"
						},
						{
							"internalType": "uint64",
							"name": "revealDurationSeconds",
							"type": "uint64"
						},
						{
							"internalType": "uint64",
							"name": "settleDurationSeconds",
							"type": "uint64"
						}
					],
					"name": "startAuction",
					"outputs": [],
					"stateMutability": "nonpayable",
					"type": "function"
				}
			],
			"devdoc": {
				"kind": "dev",
				"methods": {
					"commitBid(bytes32)": {
						"params": {
							"commitment": "keccak256(abi.encodePacked(amount, salt))"
						}
					},
					"revealBid(uint256,bytes32)": {
						"params": {
							"amount": "Bid amount in wei.",
							"salt": "The random secret used in commit."
						}
					},
					"startAuction(uint256,uint256,uint64,uint64,uint64)": {
						"params": {
							"commitDurationSeconds": "Commit phase duration in seconds.",
							"reservePrice": "Minimum acceptable price (wei).",
							"revealDurationSeconds": "Reveal phase duration in seconds.",
							"tokenId": "Token id in the fixed ClassNFT."
						}
					}
				},
				"version": 1
			},
			"evm": {
				"assembly": "    /* \"AuctionContract.sol\":695:14700  contract VickreyAuctionHouse {... */\n  mstore(0x40, 0xa0)\n    /* \"AuctionContract.sol\":1487:1488  1 */\n  0x01\n    /* \"AuctionContract.sol\":1539:1577  uint256 private _status = _NOT_ENTERED */\n  0x00\n  sstore\n    /* \"AuctionContract.sol\":3496:3647  constructor(address classNFTAddress) {... */\n  callvalue\n  dup1\n  iszero\n  tag_1\n  jumpi\n  revert(0x00, 0x00)\ntag_1:\n  pop\n  mload(0x40)\n  sub(codesize, bytecodeSize)\n  dup1\n  bytecodeSize\n  dup4\n  codecopy\n  dup2\n  dup2\n  add\n  0x40\n  mstore\n  dup2\n  add\n  swap1\n  tag_2\n  swap2\n  swap1\n  tag_3\n  jump\t// in\ntag_2:\n    /* \"AuctionContract.sol\":3579:3580  0 */\n  0x00\n    /* \"AuctionContract.sol\":3552:3581  classNFTAddress != address(0) */\n  0xffffffffffffffffffffffffffffffffffffffff\n  and\n    /* \"AuctionContract.sol\":3552:3567  classNFTAddress */\n  dup2\n    /* \"AuctionContract.sol\":3552:3581  classNFTAddress != address(0) */\n  0xffffffffffffffffffffffffffffffffffffffff\n  and\n  sub\n    /* \"AuctionContract.sol\":3544:3593  require(classNFTAddress != address(0), \"bad NFT\") */\n  tag_6\n  jumpi\n  mload(0x40)\n  0x08c379a000000000000000000000000000000000000000000000000000000000\n  dup2\n  mstore\n  0x04\n  add\n  tag_7\n  swap1\n  tag_8\n  jump\t// in\ntag_7:\n  mload(0x40)\n  dup1\n  swap2\n  sub\n  swap1\n  revert\ntag_6:\n    /* \"AuctionContract.sol\":3623:3638  classNFTAddress */\n  dup1\n    /* \"AuctionContract.sol\":3604:3639  classNFT = IERC721(classNFTAddress) */\n  0xffffffffffffffffffffffffffffffffffffffff\n  and\n  0x80\n  dup2\n  0xffffffffffffffffffffffffffffffffffffffff\n  and\n  dup2\n  mstore\n  pop\n  pop\n    /* \"AuctionContract.sol\":3496:3647  constructor(address classNFTAddress) {... */\n  pop\n    /* \"AuctionContract.sol\":695:14700  contract VickreyAuctionHouse {... */\n  jump(tag_9)\n    /* \"#utility.yul\":88:205   */\ntag_11:\n    /* \"#utility.yul\":197:198   */\n  0x00\n    /* \"#utility.yul\":194:195   */\n  0x00\n    /* \"#utility.yul\":187:199   */\n  revert\n    /* \"#utility.yul\":334:460   */\ntag_13:\n    /* \"#utility.yul\":371:378   */\n  0x00\n    /* \"#utility.yul\":411:453   */\n  0xffffffffffffffffffffffffffffffffffffffff\n    /* \"#utility.yul\":404:409   */\n  dup3\n    /* \"#utility.yul\":400:454   */\n  and\n    /* \"#utility.yul\":389:454   */\n  swap1\n  pop\n    /* \"#utility.yul\":334:460   */\n  swap2\n  swap1\n  pop\n  jump\t// out\n    /* \"#utility.yul\":466:562   */\ntag_14:\n    /* \"#utility.yul\":503:510   */\n  0x00\n    /* \"#utility.yul\":532:556   */\n  tag_26\n    /* \"#utility.yul\":550:555   */\n  dup3\n    /* \"#utility.yul\":532:556   */\n  tag_13\n  jump\t// in\ntag_26:\n    /* \"#utility.yul\":521:556   */\n  swap1\n  pop\n    /* \"#utility.yul\":466:562   */\n  swap2\n  swap1\n  pop\n  jump\t// out\n    /* \"#utility.yul\":568:690   */\ntag_15:\n    /* \"#utility.yul\":641:665   */\n  tag_28\n    /* \"#utility.yul\":659:664   */\n  dup2\n    /* \"#utility.yul\":641:665   */\n  tag_14\n  jump\t// in\ntag_28:\n    /* \"#utility.yul\":634:639   */\n  dup2\n    /* \"#utility.yul\":631:666   */\n  eq\n    /* \"#utility.yul\":621:684   */\n  tag_29\n  jumpi\n    /* \"#utility.yul\":680:681   */\n  0x00\n    /* \"#utility.yul\":677:678   */\n  0x00\n    /* \"#utility.yul\":670:682   */\n  revert\n    /* \"#utility.yul\":621:684   */\ntag_29:\n    /* \"#utility.yul\":568:690   */\n  pop\n  jump\t// out\n    /* \"#utility.yul\":696:839   */\ntag_16:\n    /* \"#utility.yul\":753:758   */\n  0x00\n    /* \"#utility.yul\":784:790   */\n  dup2\n    /* \"#utility.yul\":778:791   */\n  mload\n    /* \"#utility.yul\":769:791   */\n  swap1\n  pop\n    /* \"#utility.yul\":800:833   */\n  tag_31\n    /* \"#utility.yul\":827:832   */\n  dup2\n    /* \"#utility.yul\":800:833   */\n  tag_15\n  jump\t// in\ntag_31:\n    /* \"#utility.yul\":696:839   */\n  swap3\n  swap2\n  pop\n  pop\n  jump\t// out\n    /* \"#utility.yul\":845:1196   */\ntag_3:\n    /* \"#utility.yul\":915:921   */\n  0x00\n    /* \"#utility.yul\":964:966   */\n  0x20\n    /* \"#utility.yul\":952:961   */\n  dup3\n    /* \"#utility.yul\":943:950   */\n  dup5\n    /* \"#utility.yul\":939:962   */\n  sub\n    /* \"#utility.yul\":935:967   */\n  slt\n    /* \"#utility.yul\":932:1051   */\n  iszero\n  tag_33\n  jumpi\n    /* \"#utility.yul\":970:1049   */\n  tag_34\n  tag_11\n  jump\t// in\ntag_34:\n    /* \"#utility.yul\":932:1051   */\ntag_33:\n    /* \"#utility.yul\":1090:1091   */\n  0x00\n    /* \"#utility.yul\":1115:1179   */\n  tag_35\n    /* \"#utility.yul\":1171:1178   */\n  dup5\n    /* \"#utility.yul\":1162:1168   */\n  dup3\n    /* \"#utility.yul\":1151:1160   */\n  dup6\n    /* \"#utility.yul\":1147:1169   */\n  add\n    /* \"#utility.yul\":1115:1179   */\n  tag_16\n  jump\t// in\ntag_35:\n    /* \"#utility.yul\":1105:1179   */\n  swap2\n  pop\n    /* \"#utility.yul\":1061:1189   */\n  pop\n    /* \"#utility.yul\":845:1196   */\n  swap3\n  swap2\n  pop\n  pop\n  jump\t// out\n    /* \"#utility.yul\":1202:1371   */\ntag_17:\n    /* \"#utility.yul\":1286:1297   */\n  0x00\n    /* \"#utility.yul\":1320:1326   */\n  dup3\n    /* \"#utility.yul\":1315:1318   */\n  dup3\n    /* \"#utility.yul\":1308:1327   */\n  mstore\n    /* \"#utility.yul\":1360:1364   */\n  0x20\n    /* \"#utility.yul\":1355:1358   */\n  dup3\n    /* \"#utility.yul\":1351:1365   */\n  add\n    /* \"#utility.yul\":1336:1365   */\n  swap1\n  pop\n    /* \"#utility.yul\":1202:1371   */\n  swap3\n  swap2\n  pop\n  pop\n  jump\t// out\n    /* \"#utility.yul\":1377:1534   */\ntag_18:\n    /* \"#utility.yul\":1517:1526   */\n  0x626164204e465400000000000000000000000000000000000000000000000000\n    /* \"#utility.yul\":1513:1514   */\n  0x00\n    /* \"#utility.yul\":1505:1511   */\n  dup3\n    /* \"#utility.yul\":1501:1515   */\n  add\n    /* \"#utility.yul\":1494:1527   */\n  mstore\n    /* \"#utility.yul\":1377:1534   */\n  pop\n  jump\t// out\n    /* \"#utility.yul\":1540:1905   */\ntag_19:\n    /* \"#utility.yul\":1682:1685   */\n  0x00\n    /* \"#utility.yul\":1703:1769   */\n  tag_39\n    /* \"#utility.yul\":1767:1768   */\n  0x07\n    /* \"#utility.yul\":1762:1765   */\n  dup4\n    /* \"#utility.yul\":1703:1769   */\n  tag_17\n  jump\t// in\ntag_39:\n    /* \"#utility.yul\":1696:1769   */\n  swap2\n  pop\n    /* \"#utility.yul\":1778:1871   */\n  tag_40\n    /* \"#utility.yul\":1867:1870   */\n  dup3\n    /* \"#utility.yul\":1778:1871   */\n  tag_18\n  jump\t// in\ntag_40:\n    /* \"#utility.yul\":1896:1898   */\n  0x20\n    /* \"#utility.yul\":1891:1894   */\n  dup3\n    /* \"#utility.yul\":1887:1899   */\n  add\n    /* \"#utility.yul\":1880:1899   */\n  swap1\n  pop\n    /* \"#utility.yul\":1540:1905   */\n  swap2\n  swap1\n  pop\n  jump\t// out\n    /* \"#utility.yul\":1911:2330   */\ntag_8:\n    /* \"#utility.yul\":2077:2081   */\n  0x00\n    /* \"#utility.yul\":2115:2117   */\n  0x20\n    /* \"#utility.yul\":2104:2113   */\n  dup3\n    /* \"#utility.yul\":2100:2118   */\n  add\n    /* \"#utility.yul\":2092:2118   */\n  swap1\n  pop\n    /* \"#utility.yul\":2164:2173   */\n  dup2\n    /* \"#utility.yul\":2158:2162   */\n  dup2\n    /* \"#utility.yul\":2154:2174   */\n  sub\n    /* \"#utility.yul\":2150:2151   */\n  0x00\n    /* \"#utility.yul\":2139:2148   */\n  dup4\n    /* \"#utility.yul\":2135:2152   */\n  add\n    /* \"#utility.yul\":2128:2175   */\n  mstore\n    /* \"#utility.yul\":2192:2323   */\n  tag_42\n    /* \"#utility.yul\":2318:2322   */\n  dup2\n    /* \"#utility.yul\":2192:2323   */\n  tag_19\n  jump\t// in\ntag_42:\n    /* \"#utility.yul\":2184:2323   */\n  swap1\n  pop\n    /* \"#utility.yul\":1911:2330   */\n  swap2\n  swap1\n  pop\n  jump\t// out\n    /* \"AuctionContract.sol\":695:14700  contract VickreyAuctionHouse {... */\ntag_9:\n  mload(0x80)\n  codecopy(0x00, dataOffset(sub_0), dataSize(sub_0))\n  0x00\n  assignImmutable(\"0x840881693295f1213bc621234bc18aa1727c90c9e1416799df22e18f9c7c029b\")\n  return(0x00, dataSize(sub_0))\nstop\n\nsub_0: assembly {\n        /* \"AuctionContract.sol\":695:14700  contract VickreyAuctionHouse {... */\n      mstore(0x40, 0x80)\n      jumpi(tag_1, lt(calldatasize, 0x04))\n      shr(0xe0, calldataload(0x00))\n      dup1\n      0x86a2cc27\n      gt\n      tag_19\n      jumpi\n      dup1\n      0xb1724b46\n      gt\n      tag_20\n      jumpi\n      dup1\n      0xb1724b46\n      eq\n      tag_14\n      jumpi\n      dup1\n      0xb1fb6405\n      eq\n      tag_15\n      jumpi\n      dup1\n      0xcdf91dae\n      eq\n      tag_16\n      jumpi\n      dup1\n      0xd3aa699e\n      eq\n      tag_17\n      jumpi\n      dup1\n      0xe9906f2e\n      eq\n      tag_18\n      jumpi\n      jump(tag_1)\n    tag_20:\n      dup1\n      0x86a2cc27\n      eq\n      tag_10\n      jumpi\n      dup1\n      0x894da478\n      eq\n      tag_11\n      jumpi\n      dup1\n      0x89fb2682\n      eq\n      tag_12\n      jumpi\n      dup1\n      0x8f3708e8\n      eq\n      tag_13\n      jumpi\n      jump(tag_1)\n    tag_19:\n      dup1\n      0x5e7721f7\n      gt\n      tag_21\n      jumpi\n      dup1\n      0x5e7721f7\n      eq\n      tag_6\n      jumpi\n      dup1\n      0x62c5424a\n      eq\n      tag_7\n      jumpi\n      dup1\n      0x6b1da364\n      eq\n      tag_8\n      jumpi\n      dup1\n      0x813abc2d\n      eq\n      tag_9\n      jumpi\n      jump(tag_1)\n    tag_21:\n      dup1\n      0x01c11d96\n      eq\n      tag_2\n      jumpi\n      dup1\n      0x10782f8f\n      eq\n      tag_3\n      jumpi\n      dup1\n      0x4bb278f3\n      eq\n      tag_4\n      jumpi\n      dup1\n      0x5df6ff9d\n      eq\n      tag_5\n      jumpi\n    tag_1:\n      revert(0x00, 0x00)\n        /* \"AuctionContract.sol\":1251:1291  uint256 public constant MAX_PRICE = 1e27 */\n    tag_2:\n      callvalue\n      dup1\n      iszero\n      tag_22\n      jumpi\n      revert(0x00, 0x00)\n    tag_22:\n      pop\n      tag_23\n      tag_24\n      jump\t// in\n    tag_23:\n      mload(0x40)\n      tag_25\n      swap2\n      swap1\n      tag_26\n      jump\t// in\n    tag_25:\n      mload(0x40)\n      dup1\n      swap2\n      sub\n      swap1\n      return\n        /* \"AuctionContract.sol\":3139:3163  uint256 public auctionId */\n    tag_3:\n      callvalue\n      dup1\n      iszero\n      tag_27\n      jumpi\n      revert(0x00, 0x00)\n    tag_27:\n      pop\n      tag_28\n      tag_29\n      jump\t// in\n    tag_28:\n      mload(0x40)\n      tag_30\n      swap2\n      swap1\n      tag_26\n      jump\t// in\n    tag_30:\n      mload(0x40)\n      dup1\n      swap2\n      sub\n      swap1\n      return\n        /* \"AuctionContract.sol\":10787:11861  function finalize() external {... */\n    tag_4:\n      callvalue\n      dup1\n      iszero\n      tag_31\n      jumpi\n      revert(0x00, 0x00)\n    tag_31:\n      pop\n      tag_32\n      tag_33\n      jump\t// in\n    tag_32:\n      stop\n        /* \"AuctionContract.sol\":12887:13322  function sellerReclaimIfUnpaid() external {... */\n    tag_5:\n      callvalue\n      dup1\n      iszero\n      tag_34\n      jumpi\n      revert(0x00, 0x00)\n    tag_34:\n      pop\n      tag_35\n      tag_36\n      jump\t// in\n    tag_35:\n      stop\n        /* \"AuctionContract.sol\":3302:3335  IERC721 public immutable classNFT */\n    tag_6:\n      callvalue\n      dup1\n      iszero\n      tag_37\n      jumpi\n      revert(0x00, 0x00)\n    tag_37:\n      pop\n      tag_38\n      tag_39\n      jump\t// in\n    tag_38:\n      mload(0x40)\n      tag_40\n      swap2\n      swap1\n      tag_41\n      jump\t// in\n    tag_40:\n      mload(0x40)\n      dup1\n      swap2\n      sub\n      swap1\n      return\n        /* \"AuctionContract.sol\":9080:10614  function revealBid(uint256 amount, bytes32 salt) external {... */\n    tag_7:\n      callvalue\n      dup1\n      iszero\n      tag_42\n      jumpi\n      revert(0x00, 0x00)\n    tag_42:\n      pop\n      tag_43\n      0x04\n      dup1\n      calldatasize\n      sub\n      dup2\n      add\n      swap1\n      tag_44\n      swap2\n      swap1\n      tag_45\n      jump\t// in\n    tag_44:\n      tag_46\n      jump\t// in\n    tag_43:\n      stop\n        /* \"AuctionContract.sol\":5031:5268  function getWinnerInfo(uint256 id) external view returns (address winner, uint256 price, uint64 payDeadline) {... */\n    tag_8:\n      callvalue\n      dup1\n      iszero\n      tag_47\n      jumpi\n      revert(0x00, 0x00)\n    tag_47:\n      pop\n      tag_48\n      0x04\n      dup1\n      calldatasize\n      sub\n      dup2\n      add\n      swap1\n      tag_49\n      swap2\n      swap1\n      tag_50\n      jump\t// in\n    tag_49:\n      tag_51\n      jump\t// in\n    tag_48:\n      mload(0x40)\n      tag_52\n      swap4\n      swap3\n      swap2\n      swap1\n      tag_53\n      jump\t// in\n    tag_52:\n      mload(0x40)\n      dup1\n      swap2\n      sub\n      swap1\n      return\n        /* \"AuctionContract.sol\":14510:14697  function getRevealedAmount(uint256 id, address bidder) external view returns (uint256) {... */\n    tag_9:\n      callvalue\n      dup1\n      iszero\n      tag_54\n      jumpi\n      revert(0x00, 0x00)\n    tag_54:\n      pop\n      tag_55\n      0x04\n      dup1\n      calldatasize\n      sub\n      dup2\n      add\n      swap1\n      tag_56\n      swap2\n      swap1\n      tag_57\n      jump\t// in\n    tag_56:\n      tag_58\n      jump\t// in\n    tag_55:\n      mload(0x40)\n      tag_59\n      swap2\n      swap1\n      tag_26\n      jump\t// in\n    tag_59:\n      mload(0x40)\n      dup1\n      swap2\n      sub\n      swap1\n      return\n        /* \"AuctionContract.sol\":8140:8921  function commitBid(bytes32 commitment) external {... */\n    tag_10:\n      callvalue\n      dup1\n      iszero\n      tag_60\n      jumpi\n      revert(0x00, 0x00)\n    tag_60:\n      pop\n      tag_61\n      0x04\n      dup1\n      calldatasize\n      sub\n      dup2\n      add\n      swap1\n      tag_62\n      swap2\n      swap1\n      tag_63\n      jump\t// in\n    tag_62:\n      tag_64\n      jump\t// in\n    tag_61:\n      stop\n        /* \"AuctionContract.sol\":5963:7964  function startAuction(... */\n    tag_11:\n      callvalue\n      dup1\n      iszero\n      tag_65\n      jumpi\n      revert(0x00, 0x00)\n    tag_65:\n      pop\n      tag_66\n      0x04\n      dup1\n      calldatasize\n      sub\n      dup2\n      add\n      swap1\n      tag_67\n      swap2\n      swap1\n      tag_68\n      jump\t// in\n    tag_67:\n      tag_69\n      jump\t// in\n    tag_66:\n      stop\n        /* \"AuctionContract.sol\":14136:14316  function getCommitment(uint256 id, address bidder) external view returns (bytes32) {... */\n    tag_12:\n      callvalue\n      dup1\n      iszero\n      tag_70\n      jumpi\n      revert(0x00, 0x00)\n    tag_70:\n      pop\n      tag_71\n      0x04\n      dup1\n      calldatasize\n      sub\n      dup2\n      add\n      swap1\n      tag_72\n      swap2\n      swap1\n      tag_57\n      jump\t// in\n    tag_72:\n      tag_73\n      jump\t// in\n    tag_71:\n      mload(0x40)\n      tag_74\n      swap2\n      swap1\n      tag_75\n      jump\t// in\n    tag_74:\n      mload(0x40)\n      dup1\n      swap2\n      sub\n      swap1\n      return\n        /* \"AuctionContract.sol\":14324:14502  function getCommitTime(uint256 id, address bidder) external view returns (uint64) {... */\n    tag_13:\n      callvalue\n      dup1\n      iszero\n      tag_76\n      jumpi\n      revert(0x00, 0x00)\n    tag_76:\n      pop\n      tag_77\n      0x04\n      dup1\n      calldatasize\n      sub\n      dup2\n      add\n      swap1\n      tag_78\n      swap2\n      swap1\n      tag_57\n      jump\t// in\n    tag_78:\n      tag_79\n      jump\t// in\n    tag_77:\n      mload(0x40)\n      tag_80\n      swap2\n      swap1\n      tag_81\n      jump\t// in\n    tag_80:\n      mload(0x40)\n      dup1\n      swap2\n      sub\n      swap1\n      return\n        /* \"AuctionContract.sol\":1186:1232  uint256 public constant MAX_DURATION = 2592000 */\n    tag_14:\n      callvalue\n      dup1\n      iszero\n      tag_82\n      jumpi\n      revert(0x00, 0x00)\n    tag_82:\n      pop\n      tag_83\n      tag_84\n      jump\t// in\n    tag_83:\n      mload(0x40)\n      tag_85\n      swap2\n      swap1\n      tag_26\n      jump\t// in\n    tag_85:\n      mload(0x40)\n      dup1\n      swap2\n      sub\n      swap1\n      return\n        /* \"AuctionContract.sol\":4511:5023  function currentPhase(uint256 id) public view returns (string memory) {... */\n    tag_15:\n      callvalue\n      dup1\n      iszero\n      tag_86\n      jumpi\n      revert(0x00, 0x00)\n    tag_86:\n      pop\n      tag_87\n      0x04\n      dup1\n      calldatasize\n      sub\n      dup2\n      add\n      swap1\n      tag_88\n      swap2\n      swap1\n      tag_50\n      jump\t// in\n    tag_88:\n      tag_89\n      jump\t// in\n    tag_87:\n      mload(0x40)\n      tag_90\n      swap2\n      swap1\n      tag_91\n      jump\t// in\n    tag_90:\n      mload(0x40)\n      dup1\n      swap2\n      sub\n      swap1\n      return\n        /* \"AuctionContract.sol\":1319:1373  uint256 public constant MAX_DEPOSIT_PRICE = 0.01 ether */\n    tag_16:\n      callvalue\n      dup1\n      iszero\n      tag_92\n      jumpi\n      revert(0x00, 0x00)\n    tag_92:\n      pop\n      tag_93\n      tag_94\n      jump\t// in\n    tag_93:\n      mload(0x40)\n      tag_95\n      swap2\n      swap1\n      tag_26\n      jump\t// in\n    tag_95:\n      mload(0x40)\n      dup1\n      swap2\n      sub\n      swap1\n      return\n        /* \"AuctionContract.sol\":5312:5544  function getTimes(uint256 id) external view returns (uint64 commitEnd, uint64 revealEnd, uint64 settleDeadline) {... */\n    tag_17:\n      callvalue\n      dup1\n      iszero\n      tag_96\n      jumpi\n      revert(0x00, 0x00)\n    tag_96:\n      pop\n      tag_97\n      0x04\n      dup1\n      calldatasize\n      sub\n      dup2\n      add\n      swap1\n      tag_98\n      swap2\n      swap1\n      tag_50\n      jump\t// in\n    tag_98:\n      tag_99\n      jump\t// in\n    tag_97:\n      mload(0x40)\n      tag_100\n      swap4\n      swap3\n      swap2\n      swap1\n      tag_101\n      jump\t// in\n    tag_100:\n      mload(0x40)\n      dup1\n      swap2\n      sub\n      swap1\n      return\n        /* \"AuctionContract.sol\":11960:12768  function payAndClaim() external payable nonReentrant {... */\n    tag_18:\n      tag_102\n      tag_103\n      jump\t// in\n    tag_102:\n      stop\n        /* \"AuctionContract.sol\":1251:1291  uint256 public constant MAX_PRICE = 1e27 */\n    tag_24:\n        /* \"AuctionContract.sol\":1287:1291  1e27 */\n      0x033b2e3c9fd0803ce8000000\n        /* \"AuctionContract.sol\":1251:1291  uint256 public constant MAX_PRICE = 1e27 */\n      dup2\n      jump\t// out\n        /* \"AuctionContract.sol\":3139:3163  uint256 public auctionId */\n    tag_29:\n      sload(0x01)\n      dup2\n      jump\t// out\n        /* \"AuctionContract.sol\":10787:11861  function finalize() external {... */\n    tag_33:\n        /* \"AuctionContract.sol\":10827:10844  Auction storage A */\n      0x00\n        /* \"AuctionContract.sol\":10847:10870  _requireActiveAuction() */\n      tag_105\n        /* \"AuctionContract.sol\":10847:10868  _requireActiveAuction */\n      tag_106\n        /* \"AuctionContract.sol\":10847:10870  _requireActiveAuction() */\n      jump\t// in\n    tag_105:\n        /* \"AuctionContract.sol\":10827:10870  Auction storage A = _requireActiveAuction() */\n      swap1\n      pop\n        /* \"AuctionContract.sol\":10936:10937  A */\n      dup1\n        /* \"AuctionContract.sol\":10936:10947  A.revealEnd */\n      0x05\n      add\n      0x10\n      swap1\n      sload\n      swap1\n      0x0100\n      exp\n      swap1\n      div\n      0xffffffffffffffff\n      and\n        /* \"AuctionContract.sol\":10918:10947  block.timestamp < A.revealEnd */\n      0xffffffffffffffff\n      and\n        /* \"AuctionContract.sol\":10918:10933  block.timestamp */\n      timestamp\n        /* \"AuctionContract.sol\":10918:10947  block.timestamp < A.revealEnd */\n      lt\n        /* \"AuctionContract.sol\":10914:10972  if (block.timestamp < A.revealEnd) revert NotFinalizable() */\n      iszero\n      tag_107\n      jumpi\n        /* \"AuctionContract.sol\":10956:10972  NotFinalizable() */\n      mload(0x40)\n      0xe8f46600000000000000000000000000000000000000000000000000000000\n      dup2\n      mstore\n      0x04\n      add\n      mload(0x40)\n      dup1\n      swap2\n      sub\n      swap1\n      revert\n        /* \"AuctionContract.sol\":10914:10972  if (block.timestamp < A.revealEnd) revert NotFinalizable() */\n    tag_107:\n        /* \"AuctionContract.sol\":10992:10993  A */\n      dup1\n        /* \"AuctionContract.sol\":10992:11003  A.finalized */\n      0x0a\n      add\n      0x00\n      swap1\n      sload\n      swap1\n      0x0100\n      exp\n      swap1\n      div\n      0xff\n      and\n        /* \"AuctionContract.sol\":10991:11003  !A.finalized */\n      iszero\n        /* \"AuctionContract.sol\":10983:11025  require(!A.finalized, \"already finalized\") */\n      tag_108\n      jumpi\n      mload(0x40)\n      0x08c379a000000000000000000000000000000000000000000000000000000000\n      dup2\n      mstore\n      0x04\n      add\n      tag_109\n      swap1\n      tag_110\n      jump\t// in\n    tag_109:\n      mload(0x40)\n      dup1\n      swap2\n      sub\n      swap1\n      revert\n    tag_108:\n        /* \"AuctionContract.sol\":11069:11070  0 */\n      0x00\n        /* \"AuctionContract.sol\":11042:11071  A.highestBidder == address(0) */\n      0xffffffffffffffffffffffffffffffffffffffff\n      and\n        /* \"AuctionContract.sol\":11042:11043  A */\n      dup2\n        /* \"AuctionContract.sol\":11042:11057  A.highestBidder */\n      0x06\n      add\n      0x08\n      swap1\n      sload\n      swap1\n      0x0100\n      exp\n      swap1\n      div\n      0xffffffffffffffffffffffffffffffffffffffff\n      and\n        /* \"AuctionContract.sol\":11042:11071  A.highestBidder == address(0) */\n      0xffffffffffffffffffffffffffffffffffffffff\n      and\n      sub\n        /* \"AuctionContract.sol\":11038:11383  if (A.highestBidder == address(0)) {... */\n      tag_111\n      jumpi\n        /* \"AuctionContract.sol\":11174:11178  true */\n      0x01\n        /* \"AuctionContract.sol\":11160:11161  A */\n      dup2\n        /* \"AuctionContract.sol\":11160:11171  A.finalized */\n      0x0a\n      add\n      0x00\n        /* \"AuctionContract.sol\":11160:11178  A.finalized = true */\n      0x0100\n      exp\n      dup2\n      sload\n      dup2\n      0xff\n      mul\n      not\n      and\n      swap1\n      dup4\n      iszero\n      iszero\n      mul\n      or\n      swap1\n      sstore\n      pop\n        /* \"AuctionContract.sol\":11205:11209  true */\n      0x01\n        /* \"AuctionContract.sol\":11193:11194  A */\n      dup2\n        /* \"AuctionContract.sol\":11193:11202  A.settled */\n      0x0a\n      add\n      0x01\n        /* \"AuctionContract.sol\":11193:11209  A.settled = true */\n      0x0100\n      exp\n      dup2\n      sload\n      dup2\n      0xff\n      mul\n      not\n      and\n      swap1\n      dup4\n      iszero\n      iszero\n      mul\n      or\n      swap1\n      sstore\n      pop\n        /* \"AuctionContract.sol\":11242:11243  0 */\n      0x00\n        /* \"AuctionContract.sol\":11224:11225  A */\n      dup2\n        /* \"AuctionContract.sol\":11224:11239  A.clearingPrice */\n      0x09\n      add\n        /* \"AuctionContract.sol\":11224:11243  A.clearingPrice = 0 */\n      dup2\n      swap1\n      sstore\n      pop\n        /* \"AuctionContract.sol\":11258:11313  _safeTransferNFT(A, address(this), A.seller, A.tokenId) */\n      tag_112\n        /* \"AuctionContract.sol\":11275:11276  A */\n      dup2\n        /* \"AuctionContract.sol\":11286:11290  this */\n      address\n        /* \"AuctionContract.sol\":11293:11294  A */\n      dup4\n        /* \"AuctionContract.sol\":11293:11301  A.seller */\n      0x02\n      add\n      0x00\n      swap1\n      sload\n      swap1\n      0x0100\n      exp\n      swap1\n      div\n      0xffffffffffffffffffffffffffffffffffffffff\n      and\n        /* \"AuctionContract.sol\":11303:11304  A */\n      dup5\n        /* \"AuctionContract.sol\":11303:11312  A.tokenId */\n      0x01\n      add\n      sload\n        /* \"AuctionContract.sol\":11258:11274  _safeTransferNFT */\n      tag_113\n        /* \"AuctionContract.sol\":11258:11313  _safeTransferNFT(A, address(this), A.seller, A.tokenId) */\n      jump\t// in\n    tag_112:\n        /* \"AuctionContract.sol\":11340:11349  auctionId */\n      sload(0x01)\n        /* \"AuctionContract.sol\":11333:11350  Unsold(auctionId) */\n      0xa761d07fdb0a6897f18726f15d43008d6c30ce08e44a91775cfd2ef3b61cdad0\n      mload(0x40)\n      mload(0x40)\n      dup1\n      swap2\n      sub\n      swap1\n      log2\n        /* \"AuctionContract.sol\":11365:11372  return; */\n      pop\n      jump(tag_104)\n        /* \"AuctionContract.sol\":11038:11383  if (A.highestBidder == address(0)) {... */\n    tag_111:\n        /* \"AuctionContract.sol\":11437:11453  uint256 clearing */\n      0x00\n        /* \"AuctionContract.sol\":11456:11457  A */\n      dup2\n        /* \"AuctionContract.sol\":11456:11467  A.secondBid */\n      0x08\n      add\n      sload\n        /* \"AuctionContract.sol\":11437:11467  uint256 clearing = A.secondBid */\n      swap1\n      pop\n        /* \"AuctionContract.sol\":11493:11494  A */\n      dup2\n        /* \"AuctionContract.sol\":11493:11507  A.reservePrice */\n      0x03\n      add\n      sload\n        /* \"AuctionContract.sol\":11482:11490  clearing */\n      dup2\n        /* \"AuctionContract.sol\":11482:11507  clearing < A.reservePrice */\n      lt\n        /* \"AuctionContract.sol\":11478:11534  if (clearing < A.reservePrice) clearing = A.reservePrice */\n      iszero\n      tag_114\n      jumpi\n        /* \"AuctionContract.sol\":11520:11521  A */\n      dup2\n        /* \"AuctionContract.sol\":11520:11534  A.reservePrice */\n      0x03\n      add\n      sload\n        /* \"AuctionContract.sol\":11509:11534  clearing = A.reservePrice */\n      swap1\n      pop\n        /* \"AuctionContract.sol\":11478:11534  if (clearing < A.reservePrice) clearing = A.reservePrice */\n    tag_114:\n        /* \"AuctionContract.sol\":11565:11573  clearing */\n      dup1\n        /* \"AuctionContract.sol\":11547:11548  A */\n      dup3\n        /* \"AuctionContract.sol\":11547:11562  A.clearingPrice */\n      0x09\n      add\n        /* \"AuctionContract.sol\":11547:11573  A.clearingPrice = clearing */\n      dup2\n      swap1\n      sstore\n      pop\n        /* \"AuctionContract.sol\":11598:11602  true */\n      0x01\n        /* \"AuctionContract.sol\":11584:11585  A */\n      dup3\n        /* \"AuctionContract.sol\":11584:11595  A.finalized */\n      0x0a\n      add\n      0x00\n        /* \"AuctionContract.sol\":11584:11602  A.finalized = true */\n      0x0100\n      exp\n      dup2\n      sload\n      dup2\n      0xff\n      mul\n      not\n      and\n      swap1\n      dup4\n      iszero\n      iszero\n      mul\n      or\n      swap1\n      sstore\n      pop\n        /* \"AuctionContract.sol\":11745:11746  A */\n      dup2\n        /* \"AuctionContract.sol\":11745:11761  A.settleDuration */\n      0x05\n      add\n      0x18\n      swap1\n      sload\n      swap1\n      0x0100\n      exp\n      swap1\n      div\n      0xffffffffffffffff\n      and\n        /* \"AuctionContract.sol\":11726:11741  block.timestamp */\n      timestamp\n        /* \"AuctionContract.sol\":11719:11761  uint64(block.timestamp) + A.settleDuration */\n      tag_115\n      swap2\n      swap1\n      tag_116\n      jump\t// in\n    tag_115:\n        /* \"AuctionContract.sol\":11700:11701  A */\n      dup3\n        /* \"AuctionContract.sol\":11700:11716  A.settleDeadline */\n      0x06\n      add\n      0x00\n        /* \"AuctionContract.sol\":11700:11761  A.settleDeadline = uint64(block.timestamp) + A.settleDuration */\n      0x0100\n      exp\n      dup2\n      sload\n      dup2\n      0xffffffffffffffff\n      mul\n      not\n      and\n      swap1\n      dup4\n      0xffffffffffffffff\n      and\n      mul\n      or\n      swap1\n      sstore\n      pop\n        /* \"AuctionContract.sol\":11789:11798  auctionId */\n      sload(0x01)\n        /* \"AuctionContract.sol\":11779:11853  Finalized(auctionId, A.highestBidder, A.highestBid, A.secondBid, clearing) */\n      0x5ab4254a16d8f1486e035342f3b6736a5efdc0b79886e7525b374bb0ec9ebee1\n        /* \"AuctionContract.sol\":11800:11801  A */\n      dup4\n        /* \"AuctionContract.sol\":11800:11815  A.highestBidder */\n      0x06\n      add\n      0x08\n      swap1\n      sload\n      swap1\n      0x0100\n      exp\n      swap1\n      div\n      0xffffffffffffffffffffffffffffffffffffffff\n      and\n        /* \"AuctionContract.sol\":11817:11818  A */\n      dup5\n        /* \"AuctionContract.sol\":11817:11829  A.highestBid */\n      0x07\n      add\n      sload\n        /* \"AuctionContract.sol\":11831:11832  A */\n      dup6\n        /* \"AuctionContract.sol\":11831:11842  A.secondBid */\n      0x08\n      add\n      sload\n        /* \"AuctionContract.sol\":11844:11852  clearing */\n      dup6\n        /* \"AuctionContract.sol\":11779:11853  Finalized(auctionId, A.highestBidder, A.highestBid, A.secondBid, clearing) */\n      mload(0x40)\n      tag_117\n      swap5\n      swap4\n      swap3\n      swap2\n      swap1\n      tag_118\n      jump\t// in\n    tag_117:\n      mload(0x40)\n      dup1\n      swap2\n      sub\n      swap1\n      log2\n        /* \"AuctionContract.sol\":10816:11861  {... */\n      pop\n      pop\n        /* \"AuctionContract.sol\":10787:11861  function finalize() external {... */\n    tag_104:\n      jump\t// out\n        /* \"AuctionContract.sol\":12887:13322  function sellerReclaimIfUnpaid() external {... */\n    tag_36:\n        /* \"AuctionContract.sol\":12940:12957  Auction storage A */\n      0x00\n        /* \"AuctionContract.sol\":12960:12983  _requireActiveAuction() */\n      tag_120\n        /* \"AuctionContract.sol\":12960:12981  _requireActiveAuction */\n      tag_106\n        /* \"AuctionContract.sol\":12960:12983  _requireActiveAuction() */\n      jump\t// in\n    tag_120:\n        /* \"AuctionContract.sol\":12940:12983  Auction storage A = _requireActiveAuction() */\n      swap1\n      pop\n        /* \"AuctionContract.sol\":12999:13000  A */\n      dup1\n        /* \"AuctionContract.sol\":12999:13010  A.finalized */\n      0x0a\n      add\n      0x00\n      swap1\n      sload\n      swap1\n      0x0100\n      exp\n      swap1\n      div\n      0xff\n      and\n        /* \"AuctionContract.sol\":12998:13010  !A.finalized */\n      iszero\n        /* \"AuctionContract.sol\":12998:13023  !A.finalized || A.settled */\n      dup1\n      tag_121\n      jumpi\n      pop\n        /* \"AuctionContract.sol\":13014:13015  A */\n      dup1\n        /* \"AuctionContract.sol\":13014:13023  A.settled */\n      0x0a\n      add\n      0x01\n      swap1\n      sload\n      swap1\n      0x0100\n      exp\n      swap1\n      div\n      0xff\n      and\n        /* \"AuctionContract.sol\":12998:13023  !A.finalized || A.settled */\n    tag_121:\n        /* \"AuctionContract.sol\":12994:13042  if (!A.finalized || A.settled) revert NotEnded() */\n      iszero\n      tag_122\n      jumpi\n        /* \"AuctionContract.sol\":13032:13042  NotEnded() */\n      mload(0x40)\n      0xd3018d1800000000000000000000000000000000000000000000000000000000\n      dup2\n      mstore\n      0x04\n      add\n      mload(0x40)\n      dup1\n      swap2\n      sub\n      swap1\n      revert\n        /* \"AuctionContract.sol\":12994:13042  if (!A.finalized || A.settled) revert NotEnded() */\n    tag_122:\n        /* \"AuctionContract.sol\":13071:13072  A */\n      dup1\n        /* \"AuctionContract.sol\":13071:13079  A.seller */\n      0x02\n      add\n      0x00\n      swap1\n      sload\n      swap1\n      0x0100\n      exp\n      swap1\n      div\n      0xffffffffffffffffffffffffffffffffffffffff\n      and\n        /* \"AuctionContract.sol\":13057:13079  msg.sender != A.seller */\n      0xffffffffffffffffffffffffffffffffffffffff\n      and\n        /* \"AuctionContract.sol\":13057:13067  msg.sender */\n      caller\n        /* \"AuctionContract.sol\":13057:13079  msg.sender != A.seller */\n      0xffffffffffffffffffffffffffffffffffffffff\n      and\n      eq\n        /* \"AuctionContract.sol\":13053:13099  if (msg.sender != A.seller) revert NotSeller() */\n      tag_123\n      jumpi\n        /* \"AuctionContract.sol\":13088:13099  NotSeller() */\n      mload(0x40)\n      0x5ec8235100000000000000000000000000000000000000000000000000000000\n      dup2\n      mstore\n      0x04\n      add\n      mload(0x40)\n      dup1\n      swap2\n      sub\n      swap1\n      revert\n        /* \"AuctionContract.sol\":13053:13099  if (msg.sender != A.seller) revert NotSeller() */\n    tag_123:\n        /* \"AuctionContract.sol\":13136:13137  A */\n      dup1\n        /* \"AuctionContract.sol\":13136:13152  A.settleDeadline */\n      0x06\n      add\n      0x00\n      swap1\n      sload\n      swap1\n      0x0100\n      exp\n      swap1\n      div\n      0xffffffffffffffff\n      and\n        /* \"AuctionContract.sol\":13118:13152  block.timestamp > A.settleDeadline */\n      0xffffffffffffffff\n      and\n        /* \"AuctionContract.sol\":13118:13133  block.timestamp */\n      timestamp\n        /* \"AuctionContract.sol\":13118:13152  block.timestamp > A.settleDeadline */\n      gt\n        /* \"AuctionContract.sol\":13110:13177  require(block.timestamp > A.settleDeadline, \"still payable window\") */\n      tag_124\n      jumpi\n      mload(0x40)\n      0x08c379a000000000000000000000000000000000000000000000000000000000\n      dup2\n      mstore\n      0x04\n      add\n      tag_125\n      swap1\n      tag_126\n      jump\t// in\n    tag_125:\n      mload(0x40)\n      dup1\n      swap2\n      sub\n      swap1\n      revert\n    tag_124:\n        /* \"AuctionContract.sol\":13202:13206  true */\n      0x01\n        /* \"AuctionContract.sol\":13190:13191  A */\n      dup2\n        /* \"AuctionContract.sol\":13190:13199  A.settled */\n      0x0a\n      add\n      0x01\n        /* \"AuctionContract.sol\":13190:13206  A.settled = true */\n      0x0100\n      exp\n      dup2\n      sload\n      dup2\n      0xff\n      mul\n      not\n      and\n      swap1\n      dup4\n      iszero\n      iszero\n      mul\n      or\n      swap1\n      sstore\n      pop\n        /* \"AuctionContract.sol\":13217:13272  _safeTransferNFT(A, address(this), A.seller, A.tokenId) */\n      tag_127\n        /* \"AuctionContract.sol\":13234:13235  A */\n      dup2\n        /* \"AuctionContract.sol\":13245:13249  this */\n      address\n        /* \"AuctionContract.sol\":13252:13253  A */\n      dup4\n        /* \"AuctionContract.sol\":13252:13260  A.seller */\n      0x02\n      add\n      0x00\n      swap1\n      sload\n      swap1\n      0x0100\n      exp\n      swap1\n      div\n      0xffffffffffffffffffffffffffffffffffffffff\n      and\n        /* \"AuctionContract.sol\":13262:13263  A */\n      dup5\n        /* \"AuctionContract.sol\":13262:13271  A.tokenId */\n      0x01\n      add\n      sload\n        /* \"AuctionContract.sol\":13217:13233  _safeTransferNFT */\n      tag_113\n        /* \"AuctionContract.sol\":13217:13272  _safeTransferNFT(A, address(this), A.seller, A.tokenId) */\n      jump\t// in\n    tag_127:\n        /* \"AuctionContract.sol\":13304:13313  auctionId */\n      sload(0x01)\n        /* \"AuctionContract.sol\":13288:13314  SellerReclaimed(auctionId) */\n      0x55c90d9726ff7562e2dda9743c070ab007dd986e4c0a42bcf578362c435a4d89\n      mload(0x40)\n      mload(0x40)\n      dup1\n      swap2\n      sub\n      swap1\n      log2\n        /* \"AuctionContract.sol\":12929:13322  {... */\n      pop\n        /* \"AuctionContract.sol\":12887:13322  function sellerReclaimIfUnpaid() external {... */\n      jump\t// out\n        /* \"AuctionContract.sol\":3302:3335  IERC721 public immutable classNFT */\n    tag_39:\n      immutable(\"0x840881693295f1213bc621234bc18aa1727c90c9e1416799df22e18f9c7c029b\")\n      dup2\n      jump\t// out\n        /* \"AuctionContract.sol\":9080:10614  function revealBid(uint256 amount, bytes32 salt) external {... */\n    tag_46:\n        /* \"AuctionContract.sol\":9149:9166  Auction storage A */\n      0x00\n        /* \"AuctionContract.sol\":9169:9192  _requireActiveAuction() */\n      tag_129\n        /* \"AuctionContract.sol\":9169:9190  _requireActiveAuction */\n      tag_106\n        /* \"AuctionContract.sol\":9169:9192  _requireActiveAuction() */\n      jump\t// in\n    tag_129:\n        /* \"AuctionContract.sol\":9149:9192  Auction storage A = _requireActiveAuction() */\n      swap1\n      pop\n        /* \"AuctionContract.sol\":9203:9212  uint256 t */\n      0x00\n        /* \"AuctionContract.sol\":9215:9230  block.timestamp */\n      timestamp\n        /* \"AuctionContract.sol\":9203:9230  uint256 t = block.timestamp */\n      swap1\n      pop\n        /* \"AuctionContract.sol\":9249:9250  A */\n      dup2\n        /* \"AuctionContract.sol\":9249:9260  A.commitEnd */\n      0x05\n      add\n      0x08\n      swap1\n      sload\n      swap1\n      0x0100\n      exp\n      swap1\n      div\n      0xffffffffffffffff\n      and\n        /* \"AuctionContract.sol\":9245:9260  t < A.commitEnd */\n      0xffffffffffffffff\n      and\n        /* \"AuctionContract.sol\":9245:9246  t */\n      dup2\n        /* \"AuctionContract.sol\":9245:9260  t < A.commitEnd */\n      lt\n        /* \"AuctionContract.sol\":9245:9280  t < A.commitEnd || t >= A.revealEnd */\n      dup1\n      tag_130\n      jumpi\n      pop\n        /* \"AuctionContract.sol\":9269:9270  A */\n      dup2\n        /* \"AuctionContract.sol\":9269:9280  A.revealEnd */\n      0x05\n      add\n      0x10\n      swap1\n      sload\n      swap1\n      0x0100\n      exp\n      swap1\n      div\n      0xffffffffffffffff\n      and\n        /* \"AuctionContract.sol\":9264:9280  t >= A.revealEnd */\n      0xffffffffffffffff\n      and\n        /* \"AuctionContract.sol\":9264:9265  t */\n      dup2\n        /* \"AuctionContract.sol\":9264:9280  t >= A.revealEnd */\n      lt\n      iszero\n        /* \"AuctionContract.sol\":9245:9280  t < A.commitEnd || t >= A.revealEnd */\n    tag_130:\n        /* \"AuctionContract.sol\":9241:9307  if (t < A.commitEnd || t >= A.revealEnd) revert NotInRevealPhase() */\n      iszero\n      tag_131\n      jumpi\n        /* \"AuctionContract.sol\":9289:9307  NotInRevealPhase() */\n      mload(0x40)\n      0x74683d7100000000000000000000000000000000000000000000000000000000\n      dup2\n      mstore\n      0x04\n      add\n      mload(0x40)\n      dup1\n      swap2\n      sub\n      swap1\n      revert\n        /* \"AuctionContract.sol\":9241:9307  if (t < A.commitEnd || t >= A.revealEnd) revert NotInRevealPhase() */\n    tag_131:\n        /* \"AuctionContract.sol\":9356:9357  0 */\n      0x00\n        /* \"AuctionContract.sol\":9324:9325  A */\n      dup3\n        /* \"AuctionContract.sol\":9324:9340  A.revealedAmount */\n      0x0e\n      add\n        /* \"AuctionContract.sol\":9324:9352  A.revealedAmount[msg.sender] */\n      0x00\n        /* \"AuctionContract.sol\":9341:9351  msg.sender */\n      caller\n        /* \"AuctionContract.sol\":9324:9352  A.revealedAmount[msg.sender] */\n      0xffffffffffffffffffffffffffffffffffffffff\n      and\n      0xffffffffffffffffffffffffffffffffffffffff\n      and\n      dup2\n      mstore\n      0x20\n      add\n      swap1\n      dup2\n      mstore\n      0x20\n      add\n      0x00\n      keccak256\n      sload\n        /* \"AuctionContract.sol\":9324:9357  A.revealedAmount[msg.sender] != 0 */\n      eq\n        /* \"AuctionContract.sol\":9320:9385  if (A.revealedAmount[msg.sender] != 0) revert RevealAlreadyDone() */\n      tag_132\n      jumpi\n        /* \"AuctionContract.sol\":9366:9385  RevealAlreadyDone() */\n      mload(0x40)\n      0x157330ee00000000000000000000000000000000000000000000000000000000\n      dup2\n      mstore\n      0x04\n      add\n      mload(0x40)\n      dup1\n      swap2\n      sub\n      swap1\n      revert\n        /* \"AuctionContract.sol\":9320:9385  if (A.revealedAmount[msg.sender] != 0) revert RevealAlreadyDone() */\n    tag_132:\n        /* \"AuctionContract.sol\":9398:9407  bytes32 c */\n      0x00\n        /* \"AuctionContract.sol\":9410:9411  A */\n      dup3\n        /* \"AuctionContract.sol\":9410:9423  A.commitments */\n      0x0b\n      add\n        /* \"AuctionContract.sol\":9410:9435  A.commitments[msg.sender] */\n      0x00\n        /* \"AuctionContract.sol\":9424:9434  msg.sender */\n      caller\n        /* \"AuctionContract.sol\":9410:9435  A.commitments[msg.sender] */\n      0xffffffffffffffffffffffffffffffffffffffff\n      and\n      0xffffffffffffffffffffffffffffffffffffffff\n      and\n      dup2\n      mstore\n      0x20\n      add\n      swap1\n      dup2\n      mstore\n      0x20\n      add\n      0x00\n      keccak256\n      sload\n        /* \"AuctionContract.sol\":9398:9435  bytes32 c = A.commitments[msg.sender] */\n      swap1\n      pop\n        /* \"AuctionContract.sol\":9463:9464  0 */\n      0x00\n        /* \"AuctionContract.sol\":9455:9465  bytes32(0) */\n      0x00\n      shl\n        /* \"AuctionContract.sol\":9450:9451  c */\n      dup2\n        /* \"AuctionContract.sol\":9450:9465  c == bytes32(0) */\n      sub\n        /* \"AuctionContract.sol\":9446:9493  if (c == bytes32(0)) revert InvalidCommitment() */\n      tag_133\n      jumpi\n        /* \"AuctionContract.sol\":9474:9493  InvalidCommitment() */\n      mload(0x40)\n      0xc06789fa00000000000000000000000000000000000000000000000000000000\n      dup2\n      mstore\n      0x04\n      add\n      mload(0x40)\n      dup1\n      swap2\n      sub\n      swap1\n      revert\n        /* \"AuctionContract.sol\":9446:9493  if (c == bytes32(0)) revert InvalidCommitment() */\n    tag_133:\n        /* \"AuctionContract.sol\":9553:9554  c */\n      dup1\n        /* \"AuctionContract.sol\":9535:9541  amount */\n      dup6\n        /* \"AuctionContract.sol\":9543:9547  salt */\n      dup6\n        /* \"AuctionContract.sol\":9518:9548  abi.encodePacked(amount, salt) */\n      add(0x20, mload(0x40))\n      tag_134\n      swap3\n      swap2\n      swap1\n      tag_135\n      jump\t// in\n    tag_134:\n      mload(0x40)\n      0x20\n      dup2\n      dup4\n      sub\n      sub\n      dup2\n      mstore\n      swap1\n      0x40\n      mstore\n        /* \"AuctionContract.sol\":9508:9549  keccak256(abi.encodePacked(amount, salt)) */\n      dup1\n      mload\n      swap1\n      0x20\n      add\n      keccak256\n        /* \"AuctionContract.sol\":9508:9554  keccak256(abi.encodePacked(amount, salt)) != c */\n      eq\n        /* \"AuctionContract.sol\":9504:9582  if (keccak256(abi.encodePacked(amount, salt)) != c) revert InvalidCommitment() */\n      tag_136\n      jumpi\n        /* \"AuctionContract.sol\":9563:9582  InvalidCommitment() */\n      mload(0x40)\n      0xc06789fa00000000000000000000000000000000000000000000000000000000\n      dup2\n      mstore\n      0x04\n      add\n      mload(0x40)\n      dup1\n      swap2\n      sub\n      swap1\n      revert\n        /* \"AuctionContract.sol\":9504:9582  if (keccak256(abi.encodePacked(amount, salt)) != c) revert InvalidCommitment() */\n    tag_136:\n        /* \"AuctionContract.sol\":9691:9697  amount */\n      dup5\n        /* \"AuctionContract.sol\":9660:9661  A */\n      dup4\n        /* \"AuctionContract.sol\":9660:9676  A.revealedAmount */\n      0x0e\n      add\n        /* \"AuctionContract.sol\":9660:9688  A.revealedAmount[msg.sender] */\n      0x00\n        /* \"AuctionContract.sol\":9677:9687  msg.sender */\n      caller\n        /* \"AuctionContract.sol\":9660:9688  A.revealedAmount[msg.sender] */\n      0xffffffffffffffffffffffffffffffffffffffff\n      and\n      0xffffffffffffffffffffffffffffffffffffffff\n      and\n      dup2\n      mstore\n      0x20\n      add\n      swap1\n      dup2\n      mstore\n      0x20\n      add\n      0x00\n      keccak256\n        /* \"AuctionContract.sol\":9660:9697  A.revealedAmount[msg.sender] = amount */\n      dup2\n      swap1\n      sstore\n      pop\n        /* \"AuctionContract.sol\":9769:9770  A */\n      dup3\n        /* \"AuctionContract.sol\":9769:9783  A.reservePrice */\n      0x03\n      add\n      sload\n        /* \"AuctionContract.sol\":9759:9765  amount */\n      dup6\n        /* \"AuctionContract.sol\":9759:9783  amount >= A.reservePrice */\n      lt\n        /* \"AuctionContract.sol\":9755:10549  if (amount >= A.reservePrice) {... */\n      tag_137\n      jumpi\n        /* \"AuctionContract.sol\":9988:9989  A */\n      dup3\n        /* \"AuctionContract.sol\":9988:10000  A.highestBid */\n      0x07\n      add\n      sload\n        /* \"AuctionContract.sol\":9979:9985  amount */\n      dup6\n        /* \"AuctionContract.sol\":9979:10000  amount > A.highestBid */\n      gt\n        /* \"AuctionContract.sol\":9979:10105  amount > A.highestBid ||... */\n      dup1\n      tag_138\n      jumpi\n      pop\n        /* \"AuctionContract.sol\":10032:10033  A */\n      dup3\n        /* \"AuctionContract.sol\":10032:10044  A.highestBid */\n      0x07\n      add\n      sload\n        /* \"AuctionContract.sol\":10022:10028  amount */\n      dup6\n        /* \"AuctionContract.sol\":10022:10044  amount == A.highestBid */\n      eq\n        /* \"AuctionContract.sol\":10022:10104  amount == A.highestBid && A.commitTime[msg.sender] < A.commitTime[A.highestBidder] */\n      dup1\n      iszero\n      tag_139\n      jumpi\n      pop\n        /* \"AuctionContract.sol\":10075:10076  A */\n      dup3\n        /* \"AuctionContract.sol\":10075:10087  A.commitTime */\n      0x0c\n      add\n        /* \"AuctionContract.sol\":10075:10104  A.commitTime[A.highestBidder] */\n      0x00\n        /* \"AuctionContract.sol\":10088:10089  A */\n      dup5\n        /* \"AuctionContract.sol\":10088:10103  A.highestBidder */\n      0x06\n      add\n      0x08\n      swap1\n      sload\n      swap1\n      0x0100\n      exp\n      swap1\n      div\n      0xffffffffffffffffffffffffffffffffffffffff\n      and\n        /* \"AuctionContract.sol\":10075:10104  A.commitTime[A.highestBidder] */\n      0xffffffffffffffffffffffffffffffffffffffff\n      and\n      0xffffffffffffffffffffffffffffffffffffffff\n      and\n      dup2\n      mstore\n      0x20\n      add\n      swap1\n      dup2\n      mstore\n      0x20\n      add\n      0x00\n      keccak256\n      0x00\n      swap1\n      sload\n      swap1\n      0x0100\n      exp\n      swap1\n      div\n      0xffffffffffffffff\n      and\n        /* \"AuctionContract.sol\":10048:10104  A.commitTime[msg.sender] < A.commitTime[A.highestBidder] */\n      0xffffffffffffffff\n      and\n        /* \"AuctionContract.sol\":10048:10049  A */\n      dup4\n        /* \"AuctionContract.sol\":10048:10060  A.commitTime */\n      0x0c\n      add\n        /* \"AuctionContract.sol\":10048:10072  A.commitTime[msg.sender] */\n      0x00\n        /* \"AuctionContract.sol\":10061:10071  msg.sender */\n      caller\n        /* \"AuctionContract.sol\":10048:10072  A.commitTime[msg.sender] */\n      0xffffffffffffffffffffffffffffffffffffffff\n      and\n      0xffffffffffffffffffffffffffffffffffffffff\n      and\n      dup2\n      mstore\n      0x20\n      add\n      swap1\n      dup2\n      mstore\n      0x20\n      add\n      0x00\n      keccak256\n      0x00\n      swap1\n      sload\n      swap1\n      0x0100\n      exp\n      swap1\n      div\n      0xffffffffffffffff\n      and\n        /* \"AuctionContract.sol\":10048:10104  A.commitTime[msg.sender] < A.commitTime[A.highestBidder] */\n      0xffffffffffffffff\n      and\n      lt\n        /* \"AuctionContract.sol\":10022:10104  amount == A.highestBid && A.commitTime[msg.sender] < A.commitTime[A.highestBidder] */\n    tag_139:\n        /* \"AuctionContract.sol\":9979:10105  amount > A.highestBid ||... */\n    tag_138:\n        /* \"AuctionContract.sol\":9957:10538  if (... */\n      iszero\n      tag_140\n      jumpi\n        /* \"AuctionContract.sol\":10230:10231  0 */\n      0x00\n        /* \"AuctionContract.sol\":10203:10232  A.highestBidder != address(0) */\n      0xffffffffffffffffffffffffffffffffffffffff\n      and\n        /* \"AuctionContract.sol\":10203:10204  A */\n      dup4\n        /* \"AuctionContract.sol\":10203:10218  A.highestBidder */\n      0x06\n      add\n      0x08\n      swap1\n      sload\n      swap1\n      0x0100\n      exp\n      swap1\n      div\n      0xffffffffffffffffffffffffffffffffffffffff\n      and\n        /* \"AuctionContract.sol\":10203:10232  A.highestBidder != address(0) */\n      0xffffffffffffffffffffffffffffffffffffffff\n      and\n      eq\n        /* \"AuctionContract.sol\":10199:10303  if (A.highestBidder != address(0)) {... */\n      tag_141\n      jumpi\n        /* \"AuctionContract.sol\":10271:10272  A */\n      dup3\n        /* \"AuctionContract.sol\":10271:10283  A.highestBid */\n      0x07\n      add\n      sload\n        /* \"AuctionContract.sol\":10257:10258  A */\n      dup4\n        /* \"AuctionContract.sol\":10257:10268  A.secondBid */\n      0x08\n      add\n        /* \"AuctionContract.sol\":10257:10283  A.secondBid = A.highestBid */\n      dup2\n      swap1\n      sstore\n      pop\n        /* \"AuctionContract.sol\":10199:10303  if (A.highestBidder != address(0)) {... */\n    tag_141:\n        /* \"AuctionContract.sol\":10336:10342  amount */\n      dup5\n        /* \"AuctionContract.sol\":10321:10322  A */\n      dup4\n        /* \"AuctionContract.sol\":10321:10333  A.highestBid */\n      0x07\n      add\n        /* \"AuctionContract.sol\":10321:10342  A.highestBid = amount */\n      dup2\n      swap1\n      sstore\n      pop\n        /* \"AuctionContract.sol\":10379:10389  msg.sender */\n      caller\n        /* \"AuctionContract.sol\":10361:10362  A */\n      dup4\n        /* \"AuctionContract.sol\":10361:10376  A.highestBidder */\n      0x06\n      add\n      0x08\n        /* \"AuctionContract.sol\":10361:10389  A.highestBidder = msg.sender */\n      0x0100\n      exp\n      dup2\n      sload\n      dup2\n      0xffffffffffffffffffffffffffffffffffffffff\n      mul\n      not\n      and\n      swap1\n      dup4\n      0xffffffffffffffffffffffffffffffffffffffff\n      and\n      mul\n      or\n      swap1\n      sstore\n      pop\n        /* \"AuctionContract.sol\":9957:10538  if (... */\n      jump(tag_142)\n    tag_140:\n        /* \"AuctionContract.sol\":10424:10425  A */\n      dup3\n        /* \"AuctionContract.sol\":10424:10435  A.secondBid */\n      0x08\n      add\n      sload\n        /* \"AuctionContract.sol\":10415:10421  amount */\n      dup6\n        /* \"AuctionContract.sol\":10415:10435  amount > A.secondBid */\n      gt\n        /* \"AuctionContract.sol\":10411:10538  if (amount > A.secondBid) {... */\n      iszero\n      tag_143\n      jumpi\n        /* \"AuctionContract.sol\":10516:10522  amount */\n      dup5\n        /* \"AuctionContract.sol\":10502:10503  A */\n      dup4\n        /* \"AuctionContract.sol\":10502:10513  A.secondBid */\n      0x08\n      add\n        /* \"AuctionContract.sol\":10502:10522  A.secondBid = amount */\n      dup2\n      swap1\n      sstore\n      pop\n        /* \"AuctionContract.sol\":10411:10538  if (amount > A.secondBid) {... */\n    tag_143:\n        /* \"AuctionContract.sol\":9957:10538  if (... */\n    tag_142:\n        /* \"AuctionContract.sol\":9755:10549  if (amount >= A.reservePrice) {... */\n    tag_137:\n        /* \"AuctionContract.sol\":10587:10597  msg.sender */\n      caller\n        /* \"AuctionContract.sol\":10564:10606  BidRevealed(auctionId, msg.sender, amount) */\n      0xffffffffffffffffffffffffffffffffffffffff\n      and\n        /* \"AuctionContract.sol\":10576:10585  auctionId */\n      sload(0x01)\n        /* \"AuctionContract.sol\":10564:10606  BidRevealed(auctionId, msg.sender, amount) */\n      0x86d2fbc9069d34216ebc65b38ce840528d3f8cac0c86d2aaa7ab6a9db8bc35d3\n        /* \"AuctionContract.sol\":10599:10605  amount */\n      dup8\n        /* \"AuctionContract.sol\":10564:10606  BidRevealed(auctionId, msg.sender, amount) */\n      mload(0x40)\n      tag_144\n      swap2\n      swap1\n      tag_26\n      jump\t// in\n    tag_144:\n      mload(0x40)\n      dup1\n      swap2\n      sub\n      swap1\n      log3\n        /* \"AuctionContract.sol\":9138:10614  {... */\n      pop\n      pop\n      pop\n        /* \"AuctionContract.sol\":9080:10614  function revealBid(uint256 amount, bytes32 salt) external {... */\n      pop\n      pop\n      jump\t// out\n        /* \"AuctionContract.sol\":5031:5268  function getWinnerInfo(uint256 id) external view returns (address winner, uint256 price, uint64 payDeadline) {... */\n    tag_51:\n        /* \"AuctionContract.sol\":5089:5103  address winner */\n      0x00\n        /* \"AuctionContract.sol\":5105:5118  uint256 price */\n      0x00\n        /* \"AuctionContract.sol\":5120:5138  uint64 payDeadline */\n      0x00\n        /* \"AuctionContract.sol\":5151:5168  Auction storage A */\n      0x00\n        /* \"AuctionContract.sol\":5171:5190  _requireAuction(id) */\n      tag_146\n        /* \"AuctionContract.sol\":5187:5189  id */\n      dup6\n        /* \"AuctionContract.sol\":5171:5186  _requireAuction */\n      tag_147\n        /* \"AuctionContract.sol\":5171:5190  _requireAuction(id) */\n      jump\t// in\n    tag_146:\n        /* \"AuctionContract.sol\":5151:5190  Auction storage A = _requireAuction(id) */\n      swap1\n      pop\n        /* \"AuctionContract.sol\":5209:5210  A */\n      dup1\n        /* \"AuctionContract.sol\":5209:5224  A.highestBidder */\n      0x06\n      add\n      0x08\n      swap1\n      sload\n      swap1\n      0x0100\n      exp\n      swap1\n      div\n      0xffffffffffffffffffffffffffffffffffffffff\n      and\n        /* \"AuctionContract.sol\":5226:5227  A */\n      dup2\n        /* \"AuctionContract.sol\":5226:5241  A.clearingPrice */\n      0x09\n      add\n      sload\n        /* \"AuctionContract.sol\":5243:5244  A */\n      dup3\n        /* \"AuctionContract.sol\":5243:5259  A.settleDeadline */\n      0x06\n      add\n      0x00\n      swap1\n      sload\n      swap1\n      0x0100\n      exp\n      swap1\n      div\n      0xffffffffffffffff\n      and\n        /* \"AuctionContract.sol\":5201:5260  return (A.highestBidder, A.clearingPrice, A.settleDeadline) */\n      swap4\n      pop\n      swap4\n      pop\n      swap4\n      pop\n      pop\n        /* \"AuctionContract.sol\":5031:5268  function getWinnerInfo(uint256 id) external view returns (address winner, uint256 price, uint64 payDeadline) {... */\n      swap2\n      swap4\n      swap1\n      swap3\n      pop\n      jump\t// out\n        /* \"AuctionContract.sol\":14510:14697  function getRevealedAmount(uint256 id, address bidder) external view returns (uint256) {... */\n    tag_58:\n        /* \"AuctionContract.sol\":14588:14595  uint256 */\n      0x00\n        /* \"AuctionContract.sol\":14608:14625  Auction storage A */\n      0x00\n        /* \"AuctionContract.sol\":14628:14647  _requireAuction(id) */\n      tag_149\n        /* \"AuctionContract.sol\":14644:14646  id */\n      dup5\n        /* \"AuctionContract.sol\":14628:14643  _requireAuction */\n      tag_147\n        /* \"AuctionContract.sol\":14628:14647  _requireAuction(id) */\n      jump\t// in\n    tag_149:\n        /* \"AuctionContract.sol\":14608:14647  Auction storage A = _requireAuction(id) */\n      swap1\n      pop\n        /* \"AuctionContract.sol\":14665:14666  A */\n      dup1\n        /* \"AuctionContract.sol\":14665:14681  A.revealedAmount */\n      0x0e\n      add\n        /* \"AuctionContract.sol\":14665:14689  A.revealedAmount[bidder] */\n      0x00\n        /* \"AuctionContract.sol\":14682:14688  bidder */\n      dup5\n        /* \"AuctionContract.sol\":14665:14689  A.revealedAmount[bidder] */\n      0xffffffffffffffffffffffffffffffffffffffff\n      and\n      0xffffffffffffffffffffffffffffffffffffffff\n      and\n      dup2\n      mstore\n      0x20\n      add\n      swap1\n      dup2\n      mstore\n      0x20\n      add\n      0x00\n      keccak256\n      sload\n        /* \"AuctionContract.sol\":14658:14689  return A.revealedAmount[bidder] */\n      swap2\n      pop\n      pop\n        /* \"AuctionContract.sol\":14510:14697  function getRevealedAmount(uint256 id, address bidder) external view returns (uint256) {... */\n      swap3\n      swap2\n      pop\n      pop\n      jump\t// out\n        /* \"AuctionContract.sol\":8140:8921  function commitBid(bytes32 commitment) external {... */\n    tag_64:\n        /* \"AuctionContract.sol\":8199:8216  Auction storage A */\n      0x00\n        /* \"AuctionContract.sol\":8219:8242  _requireActiveAuction() */\n      tag_151\n        /* \"AuctionContract.sol\":8219:8240  _requireActiveAuction */\n      tag_106\n        /* \"AuctionContract.sol\":8219:8242  _requireActiveAuction() */\n      jump\t// in\n    tag_151:\n        /* \"AuctionContract.sol\":8199:8242  Auction storage A = _requireActiveAuction() */\n      swap1\n      pop\n        /* \"AuctionContract.sol\":8326:8327  A */\n      dup1\n        /* \"AuctionContract.sol\":8326:8337  A.commitEnd */\n      0x05\n      add\n      0x08\n      swap1\n      sload\n      swap1\n      0x0100\n      exp\n      swap1\n      div\n      0xffffffffffffffff\n      and\n        /* \"AuctionContract.sol\":8307:8337  block.timestamp >= A.commitEnd */\n      0xffffffffffffffff\n      and\n        /* \"AuctionContract.sol\":8307:8322  block.timestamp */\n      timestamp\n        /* \"AuctionContract.sol\":8307:8337  block.timestamp >= A.commitEnd */\n      lt\n      iszero\n        /* \"AuctionContract.sol\":8307:8371  block.timestamp >= A.commitEnd || block.timestamp < A.startStamp */\n      dup1\n      tag_152\n      jumpi\n      pop\n        /* \"AuctionContract.sol\":8359:8360  A */\n      dup1\n        /* \"AuctionContract.sol\":8359:8371  A.startStamp */\n      0x05\n      add\n      0x00\n      swap1\n      sload\n      swap1\n      0x0100\n      exp\n      swap1\n      div\n      0xffffffffffffffff\n      and\n        /* \"AuctionContract.sol\":8341:8371  block.timestamp < A.startStamp */\n      0xffffffffffffffff\n      and\n        /* \"AuctionContract.sol\":8341:8356  block.timestamp */\n      timestamp\n        /* \"AuctionContract.sol\":8341:8371  block.timestamp < A.startStamp */\n      lt\n        /* \"AuctionContract.sol\":8307:8371  block.timestamp >= A.commitEnd || block.timestamp < A.startStamp */\n    tag_152:\n        /* \"AuctionContract.sol\":8303:8398  if (block.timestamp >= A.commitEnd || block.timestamp < A.startStamp) revert NotInCommitPhase() */\n      iszero\n      tag_153\n      jumpi\n        /* \"AuctionContract.sol\":8380:8398  NotInCommitPhase() */\n      mload(0x40)\n      0xabfb7dc300000000000000000000000000000000000000000000000000000000\n      dup2\n      mstore\n      0x04\n      add\n      mload(0x40)\n      dup1\n      swap2\n      sub\n      swap1\n      revert\n        /* \"AuctionContract.sol\":8303:8398  if (block.timestamp >= A.commitEnd || block.timestamp < A.startStamp) revert NotInCommitPhase() */\n    tag_153:\n        /* \"AuctionContract.sol\":8514:8515  0 */\n      0x00\n        /* \"AuctionContract.sol\":8506:8516  bytes32(0) */\n      0x00\n      shl\n        /* \"AuctionContract.sol\":8477:8478  A */\n      dup2\n        /* \"AuctionContract.sol\":8477:8490  A.commitments */\n      0x0b\n      add\n        /* \"AuctionContract.sol\":8477:8502  A.commitments[msg.sender] */\n      0x00\n        /* \"AuctionContract.sol\":8491:8501  msg.sender */\n      caller\n        /* \"AuctionContract.sol\":8477:8502  A.commitments[msg.sender] */\n      0xffffffffffffffffffffffffffffffffffffffff\n      and\n      0xffffffffffffffffffffffffffffffffffffffff\n      and\n      dup2\n      mstore\n      0x20\n      add\n      swap1\n      dup2\n      mstore\n      0x20\n      add\n      0x00\n      keccak256\n      sload\n        /* \"AuctionContract.sol\":8477:8516  A.commitments[msg.sender] == bytes32(0) */\n      sub\n        /* \"AuctionContract.sol\":8473:8680  if (A.commitments[msg.sender] == bytes32(0)) {... */\n      tag_154\n      jumpi\n        /* \"AuctionContract.sol\":8620:8621  0 */\n      0x00\n        /* \"AuctionContract.sol\":8612:8622  bytes32(0) */\n      0x00\n      shl\n        /* \"AuctionContract.sol\":8584:8585  A */\n      dup2\n        /* \"AuctionContract.sol\":8584:8597  A.commitments */\n      0x0b\n      add\n        /* \"AuctionContract.sol\":8584:8609  A.commitments[msg.sender] */\n      0x00\n        /* \"AuctionContract.sol\":8598:8608  msg.sender */\n      caller\n        /* \"AuctionContract.sol\":8584:8609  A.commitments[msg.sender] */\n      0xffffffffffffffffffffffffffffffffffffffff\n      and\n      0xffffffffffffffffffffffffffffffffffffffff\n      and\n      dup2\n      mstore\n      0x20\n      add\n      swap1\n      dup2\n      mstore\n      0x20\n      add\n      0x00\n      keccak256\n        /* \"AuctionContract.sol\":8584:8622  A.commitments[msg.sender] = bytes32(0) */\n      dup2\n      swap1\n      sstore\n      pop\n        /* \"AuctionContract.sol\":8667:8668  0 */\n      0x00\n        /* \"AuctionContract.sol\":8637:8638  A */\n      dup2\n        /* \"AuctionContract.sol\":8637:8652  A.depositAmount */\n      0x0d\n      add\n        /* \"AuctionContract.sol\":8637:8664  A.depositAmount[msg.sender] */\n      0x00\n        /* \"AuctionContract.sol\":8653:8663  msg.sender */\n      caller\n        /* \"AuctionContract.sol\":8637:8664  A.depositAmount[msg.sender] */\n      0xffffffffffffffffffffffffffffffffffffffff\n      and\n      0xffffffffffffffffffffffffffffffffffffffff\n      and\n      dup2\n      mstore\n      0x20\n      add\n      swap1\n      dup2\n      mstore\n      0x20\n      add\n      0x00\n      keccak256\n        /* \"AuctionContract.sol\":8637:8668  A.depositAmount[msg.sender] = 0 */\n      dup2\n      swap1\n      sstore\n      pop\n        /* \"AuctionContract.sol\":8473:8680  if (A.commitments[msg.sender] == bytes32(0)) {... */\n    tag_154:\n        /* \"AuctionContract.sol\":8746:8756  commitment */\n      dup2\n        /* \"AuctionContract.sol\":8718:8719  A */\n      dup2\n        /* \"AuctionContract.sol\":8718:8731  A.commitments */\n      0x0b\n      add\n        /* \"AuctionContract.sol\":8718:8743  A.commitments[msg.sender] */\n      0x00\n        /* \"AuctionContract.sol\":8732:8742  msg.sender */\n      caller\n        /* \"AuctionContract.sol\":8718:8743  A.commitments[msg.sender] */\n      0xffffffffffffffffffffffffffffffffffffffff\n      and\n      0xffffffffffffffffffffffffffffffffffffffff\n      and\n      dup2\n      mstore\n      0x20\n      add\n      swap1\n      dup2\n      mstore\n      0x20\n      add\n      0x00\n      keccak256\n        /* \"AuctionContract.sol\":8718:8756  A.commitments[msg.sender] = commitment */\n      dup2\n      swap1\n      sstore\n      pop\n        /* \"AuctionContract.sol\":8844:8859  block.timestamp */\n      timestamp\n        /* \"AuctionContract.sol\":8810:8811  A */\n      dup2\n        /* \"AuctionContract.sol\":8810:8822  A.commitTime */\n      0x0c\n      add\n        /* \"AuctionContract.sol\":8810:8834  A.commitTime[msg.sender] */\n      0x00\n        /* \"AuctionContract.sol\":8823:8833  msg.sender */\n      caller\n        /* \"AuctionContract.sol\":8810:8834  A.commitTime[msg.sender] */\n      0xffffffffffffffffffffffffffffffffffffffff\n      and\n      0xffffffffffffffffffffffffffffffffffffffff\n      and\n      dup2\n      mstore\n      0x20\n      add\n      swap1\n      dup2\n      mstore\n      0x20\n      add\n      0x00\n      keccak256\n      0x00\n        /* \"AuctionContract.sol\":8810:8860  A.commitTime[msg.sender] = uint64(block.timestamp) */\n      0x0100\n      exp\n      dup2\n      sload\n      dup2\n      0xffffffffffffffff\n      mul\n      not\n      and\n      swap1\n      dup4\n      0xffffffffffffffff\n      and\n      mul\n      or\n      swap1\n      sstore\n      pop\n        /* \"AuctionContract.sol\":8902:8912  msg.sender */\n      caller\n        /* \"AuctionContract.sol\":8878:8913  BidCommitted(auctionId, msg.sender) */\n      0xffffffffffffffffffffffffffffffffffffffff\n      and\n        /* \"AuctionContract.sol\":8891:8900  auctionId */\n      sload(0x01)\n        /* \"AuctionContract.sol\":8878:8913  BidCommitted(auctionId, msg.sender) */\n      0x0934ea4de468dcd0d9a335c5f97aa77955310c29631c93fbd01d95a00242ec41\n      mload(0x40)\n      mload(0x40)\n      dup1\n      swap2\n      sub\n      swap1\n      log3\n        /* \"AuctionContract.sol\":8188:8921  {... */\n      pop\n        /* \"AuctionContract.sol\":8140:8921  function commitBid(bytes32 commitment) external {... */\n      pop\n      jump\t// out\n        /* \"AuctionContract.sol\":5963:7964  function startAuction(... */\n    tag_69:\n        /* \"AuctionContract.sol\":6273:6274  0 */\n      0x00\n        /* \"AuctionContract.sol\":6260:6269  auctionId */\n      sload(0x01)\n        /* \"AuctionContract.sol\":6260:6274  auctionId != 0 */\n      eq\n        /* \"AuctionContract.sol\":6256:6406  if (auctionId != 0) {... */\n      tag_156\n      jumpi\n        /* \"AuctionContract.sol\":6291:6311  Auction storage prev */\n      0x00\n        /* \"AuctionContract.sol\":6314:6323  _auctions */\n      0x02\n        /* \"AuctionContract.sol\":6314:6334  _auctions[auctionId] */\n      0x00\n        /* \"AuctionContract.sol\":6324:6333  auctionId */\n      sload(0x01)\n        /* \"AuctionContract.sol\":6314:6334  _auctions[auctionId] */\n      dup2\n      mstore\n      0x20\n      add\n      swap1\n      dup2\n      mstore\n      0x20\n      add\n      0x00\n      keccak256\n        /* \"AuctionContract.sol\":6291:6334  Auction storage prev = _auctions[auctionId] */\n      swap1\n      pop\n        /* \"AuctionContract.sol\":6357:6361  prev */\n      dup1\n        /* \"AuctionContract.sol\":6357:6369  prev.settled */\n      0x0a\n      add\n      0x01\n      swap1\n      sload\n      swap1\n      0x0100\n      exp\n      swap1\n      div\n      0xff\n      and\n        /* \"AuctionContract.sol\":6349:6394  require(prev.settled, \"previous not settled\") */\n      tag_157\n      jumpi\n      mload(0x40)\n      0x08c379a000000000000000000000000000000000000000000000000000000000\n      dup2\n      mstore\n      0x04\n      add\n      tag_158\n      swap1\n      tag_159\n      jump\t// in\n    tag_158:\n      mload(0x40)\n      dup1\n      swap2\n      sub\n      swap1\n      revert\n    tag_157:\n        /* \"AuctionContract.sol\":6276:6406  {... */\n      pop\n        /* \"AuctionContract.sol\":6256:6406  if (auctionId != 0) {... */\n    tag_156:\n        /* \"AuctionContract.sol\":6475:6476  0 */\n      0x00\n        /* \"AuctionContract.sol\":6451:6472  commitDurationSeconds */\n      dup4\n        /* \"AuctionContract.sol\":6451:6476  commitDurationSeconds > 0 */\n      0xffffffffffffffff\n      and\n      gt\n        /* \"AuctionContract.sol\":6451:6516  commitDurationSeconds > 0 && commitDurationSeconds < MAX_DURATION */\n      dup1\n      iszero\n      tag_160\n      jumpi\n      pop\n        /* \"AuctionContract.sol\":1225:1232  2592000 */\n      0x278d00\n        /* \"AuctionContract.sol\":6480:6501  commitDurationSeconds */\n      dup4\n        /* \"AuctionContract.sol\":6480:6516  commitDurationSeconds < MAX_DURATION */\n      0xffffffffffffffff\n      and\n      lt\n        /* \"AuctionContract.sol\":6451:6516  commitDurationSeconds > 0 && commitDurationSeconds < MAX_DURATION */\n    tag_160:\n        /* \"AuctionContract.sol\":6443:6549  require(commitDurationSeconds > 0 && commitDurationSeconds < MAX_DURATION, \"CONFIG: bad commit durations\") */\n      tag_161\n      jumpi\n      mload(0x40)\n      0x08c379a000000000000000000000000000000000000000000000000000000000\n      dup2\n      mstore\n      0x04\n      add\n      tag_162\n      swap1\n      tag_163\n      jump\t// in\n    tag_162:\n      mload(0x40)\n      dup1\n      swap2\n      sub\n      swap1\n      revert\n    tag_161:\n        /* \"AuctionContract.sol\":6592:6593  0 */\n      0x00\n        /* \"AuctionContract.sol\":6568:6589  revealDurationSeconds */\n      dup3\n        /* \"AuctionContract.sol\":6568:6593  revealDurationSeconds > 0 */\n      0xffffffffffffffff\n      and\n      gt\n        /* \"AuctionContract.sol\":6568:6633  revealDurationSeconds > 0 && revealDurationSeconds < MAX_DURATION */\n      dup1\n      iszero\n      tag_164\n      jumpi\n      pop\n        /* \"AuctionContract.sol\":1225:1232  2592000 */\n      0x278d00\n        /* \"AuctionContract.sol\":6597:6618  revealDurationSeconds */\n      dup3\n        /* \"AuctionContract.sol\":6597:6633  revealDurationSeconds < MAX_DURATION */\n      0xffffffffffffffff\n      and\n      lt\n        /* \"AuctionContract.sol\":6568:6633  revealDurationSeconds > 0 && revealDurationSeconds < MAX_DURATION */\n    tag_164:\n        /* \"AuctionContract.sol\":6560:6666  require(revealDurationSeconds > 0 && revealDurationSeconds < MAX_DURATION, \"CONFIG: bad reveal durations\") */\n      tag_165\n      jumpi\n      mload(0x40)\n      0x08c379a000000000000000000000000000000000000000000000000000000000\n      dup2\n      mstore\n      0x04\n      add\n      tag_166\n      swap1\n      tag_167\n      jump\t// in\n    tag_166:\n      mload(0x40)\n      dup1\n      swap2\n      sub\n      swap1\n      revert\n    tag_165:\n        /* \"AuctionContract.sol\":6701:6702  0 */\n      0x00\n        /* \"AuctionContract.sol\":6685:6697  reservePrice */\n      dup5\n        /* \"AuctionContract.sol\":6685:6702  reservePrice >= 0 */\n      lt\n      iszero\n        /* \"AuctionContract.sol\":6685:6730  reservePrice >= 0 && reservePrice < MAX_PRICE */\n      dup1\n      iszero\n      tag_168\n      jumpi\n      pop\n        /* \"AuctionContract.sol\":1287:1291  1e27 */\n      0x033b2e3c9fd0803ce8000000\n        /* \"AuctionContract.sol\":6706:6718  reservePrice */\n      dup5\n        /* \"AuctionContract.sol\":6706:6730  reservePrice < MAX_PRICE */\n      lt\n        /* \"AuctionContract.sol\":6685:6730  reservePrice >= 0 && reservePrice < MAX_PRICE */\n    tag_168:\n        /* \"AuctionContract.sol\":6677:6760  require(reservePrice >= 0 && reservePrice < MAX_PRICE, \"CONFIG: bad reserve price\") */\n      tag_169\n      jumpi\n      mload(0x40)\n      0x08c379a000000000000000000000000000000000000000000000000000000000\n      dup2\n      mstore\n      0x04\n      add\n      tag_170\n      swap1\n      tag_171\n      jump\t// in\n    tag_170:\n      mload(0x40)\n      dup1\n      swap2\n      sub\n      swap1\n      revert\n    tag_169:\n        /* \"AuctionContract.sol\":6858:6868  msg.sender */\n      caller\n        /* \"AuctionContract.sol\":6829:6868  classNFT.ownerOf(tokenId) == msg.sender */\n      0xffffffffffffffffffffffffffffffffffffffff\n      and\n        /* \"AuctionContract.sol\":6829:6837  classNFT */\n      immutable(\"0x840881693295f1213bc621234bc18aa1727c90c9e1416799df22e18f9c7c029b\")\n        /* \"AuctionContract.sol\":6829:6845  classNFT.ownerOf */\n      0xffffffffffffffffffffffffffffffffffffffff\n      and\n      0x6352211e\n        /* \"AuctionContract.sol\":6846:6853  tokenId */\n      dup8\n        /* \"AuctionContract.sol\":6829:6854  classNFT.ownerOf(tokenId) */\n      mload(0x40)\n      dup3\n      0xffffffff\n      and\n      0xe0\n      shl\n      dup2\n      mstore\n      0x04\n      add\n      tag_172\n      swap2\n      swap1\n      tag_26\n      jump\t// in\n    tag_172:\n      0x20\n      mload(0x40)\n      dup1\n      dup4\n      sub\n      dup2\n      dup7\n      gas\n      staticcall\n      iszero\n      dup1\n      iszero\n      tag_174\n      jumpi\n      returndatacopy(0x00, 0x00, returndatasize)\n      revert(0x00, returndatasize)\n    tag_174:\n      pop\n      pop\n      pop\n      pop\n      mload(0x40)\n      returndatasize\n      not(0x1f)\n      0x1f\n      dup3\n      add\n      and\n      dup3\n      add\n      dup1\n      0x40\n      mstore\n      pop\n      dup2\n      add\n      swap1\n      tag_175\n      swap2\n      swap1\n      tag_176\n      jump\t// in\n    tag_175:\n        /* \"AuctionContract.sol\":6829:6868  classNFT.ownerOf(tokenId) == msg.sender */\n      0xffffffffffffffffffffffffffffffffffffffff\n      and\n      eq\n        /* \"AuctionContract.sol\":6821:6887  require(classNFT.ownerOf(tokenId) == msg.sender, \"NFT: not owner\") */\n      tag_177\n      jumpi\n      mload(0x40)\n      0x08c379a000000000000000000000000000000000000000000000000000000000\n      dup2\n      mstore\n      0x04\n      add\n      tag_178\n      swap1\n      tag_179\n      jump\t// in\n    tag_178:\n      mload(0x40)\n      dup1\n      swap2\n      sub\n      swap1\n      revert\n    tag_177:\n        /* \"AuctionContract.sol\":7020:7024  this */\n      address\n        /* \"AuctionContract.sol\":6979:7025  classNFT.getApproved(tokenId) == address(this) */\n      0xffffffffffffffffffffffffffffffffffffffff\n      and\n        /* \"AuctionContract.sol\":6979:6987  classNFT */\n      immutable(\"0x840881693295f1213bc621234bc18aa1727c90c9e1416799df22e18f9c7c029b\")\n        /* \"AuctionContract.sol\":6979:6999  classNFT.getApproved */\n      0xffffffffffffffffffffffffffffffffffffffff\n      and\n      0x081812fc\n        /* \"AuctionContract.sol\":7000:7007  tokenId */\n      dup8\n        /* \"AuctionContract.sol\":6979:7008  classNFT.getApproved(tokenId) */\n      mload(0x40)\n      dup3\n      0xffffffff\n      and\n      0xe0\n      shl\n      dup2\n      mstore\n      0x04\n      add\n      tag_180\n      swap2\n      swap1\n      tag_26\n      jump\t// in\n    tag_180:\n      0x20\n      mload(0x40)\n      dup1\n      dup4\n      sub\n      dup2\n      dup7\n      gas\n      staticcall\n      iszero\n      dup1\n      iszero\n      tag_182\n      jumpi\n      returndatacopy(0x00, 0x00, returndatasize)\n      revert(0x00, returndatasize)\n    tag_182:\n      pop\n      pop\n      pop\n      pop\n      mload(0x40)\n      returndatasize\n      not(0x1f)\n      0x1f\n      dup3\n      add\n      and\n      dup3\n      add\n      dup1\n      0x40\n      mstore\n      pop\n      dup2\n      add\n      swap1\n      tag_183\n      swap2\n      swap1\n      tag_176\n      jump\t// in\n    tag_183:\n        /* \"AuctionContract.sol\":6979:7025  classNFT.getApproved(tokenId) == address(this) */\n      0xffffffffffffffffffffffffffffffffffffffff\n      and\n      eq\n        /* \"AuctionContract.sol\":6979:7081  classNFT.getApproved(tokenId) == address(this) || classNFT.isApprovedForAll(msg.sender, address(this)) */\n      dup1\n      tag_184\n      jumpi\n      pop\n        /* \"AuctionContract.sol\":7029:7037  classNFT */\n      immutable(\"0x840881693295f1213bc621234bc18aa1727c90c9e1416799df22e18f9c7c029b\")\n        /* \"AuctionContract.sol\":7029:7054  classNFT.isApprovedForAll */\n      0xffffffffffffffffffffffffffffffffffffffff\n      and\n      0xe985e9c5\n        /* \"AuctionContract.sol\":7055:7065  msg.sender */\n      caller\n        /* \"AuctionContract.sol\":7075:7079  this */\n      address\n        /* \"AuctionContract.sol\":7029:7081  classNFT.isApprovedForAll(msg.sender, address(this)) */\n      mload(0x40)\n      dup4\n      0xffffffff\n      and\n      0xe0\n      shl\n      dup2\n      mstore\n      0x04\n      add\n      tag_185\n      swap3\n      swap2\n      swap1\n      tag_186\n      jump\t// in\n    tag_185:\n      0x20\n      mload(0x40)\n      dup1\n      dup4\n      sub\n      dup2\n      dup7\n      gas\n      staticcall\n      iszero\n      dup1\n      iszero\n      tag_188\n      jumpi\n      returndatacopy(0x00, 0x00, returndatasize)\n      revert(0x00, returndatasize)\n    tag_188:\n      pop\n      pop\n      pop\n      pop\n      mload(0x40)\n      returndatasize\n      not(0x1f)\n      0x1f\n      dup3\n      add\n      and\n      dup3\n      add\n      dup1\n      0x40\n      mstore\n      pop\n      dup2\n      add\n      swap1\n      tag_189\n      swap2\n      swap1\n      tag_190\n      jump\t// in\n    tag_189:\n        /* \"AuctionContract.sol\":6979:7081  classNFT.getApproved(tokenId) == address(this) || classNFT.isApprovedForAll(msg.sender, address(this)) */\n    tag_184:\n        /* \"AuctionContract.sol\":6957:7126  require(... */\n      tag_191\n      jumpi\n      mload(0x40)\n      0x08c379a000000000000000000000000000000000000000000000000000000000\n      dup2\n      mstore\n      0x04\n      add\n      tag_192\n      swap1\n      tag_193\n      jump\t// in\n    tag_192:\n      mload(0x40)\n      dup1\n      swap2\n      sub\n      swap1\n      revert\n    tag_191:\n        /* \"AuctionContract.sol\":7137:7145  classNFT */\n      immutable(\"0x840881693295f1213bc621234bc18aa1727c90c9e1416799df22e18f9c7c029b\")\n        /* \"AuctionContract.sol\":7137:7158  classNFT.transferFrom */\n      0xffffffffffffffffffffffffffffffffffffffff\n      and\n      0x23b872dd\n        /* \"AuctionContract.sol\":7159:7169  msg.sender */\n      caller\n        /* \"AuctionContract.sol\":7179:7183  this */\n      address\n        /* \"AuctionContract.sol\":7186:7193  tokenId */\n      dup9\n        /* \"AuctionContract.sol\":7137:7194  classNFT.transferFrom(msg.sender, address(this), tokenId) */\n      mload(0x40)\n      dup5\n      0xffffffff\n      and\n      0xe0\n      shl\n      dup2\n      mstore\n      0x04\n      add\n      tag_194\n      swap4\n      swap3\n      swap2\n      swap1\n      tag_195\n      jump\t// in\n    tag_194:\n      0x00\n      mload(0x40)\n      dup1\n      dup4\n      sub\n      dup2\n      0x00\n      dup8\n      dup1\n      extcodesize\n      iszero\n      dup1\n      iszero\n      tag_196\n      jumpi\n      revert(0x00, 0x00)\n    tag_196:\n      pop\n      gas\n      call\n      iszero\n      dup1\n      iszero\n      tag_198\n      jumpi\n      returndatacopy(0x00, 0x00, returndatasize)\n      revert(0x00, returndatasize)\n    tag_198:\n      pop\n      pop\n      pop\n      pop\n        /* \"AuctionContract.sol\":7247:7248  1 */\n      0x01\n        /* \"AuctionContract.sol\":7234:7243  auctionId */\n      dup1\n      0x00\n        /* \"AuctionContract.sol\":7234:7248  auctionId += 1 */\n      dup3\n      dup3\n      sload\n      tag_199\n      swap2\n      swap1\n      tag_200\n      jump\t// in\n    tag_199:\n      swap3\n      pop\n      pop\n      dup2\n      swap1\n      sstore\n      pop\n        /* \"AuctionContract.sol\":7259:7276  Auction storage A */\n      0x00\n        /* \"AuctionContract.sol\":7279:7288  _auctions */\n      0x02\n        /* \"AuctionContract.sol\":7279:7299  _auctions[auctionId] */\n      0x00\n        /* \"AuctionContract.sol\":7289:7298  auctionId */\n      sload(0x01)\n        /* \"AuctionContract.sol\":7279:7299  _auctions[auctionId] */\n      dup2\n      mstore\n      0x20\n      add\n      swap1\n      dup2\n      mstore\n      0x20\n      add\n      0x00\n      keccak256\n        /* \"AuctionContract.sol\":7259:7299  Auction storage A = _auctions[auctionId] */\n      swap1\n      pop\n        /* \"AuctionContract.sol\":7318:7326  classNFT */\n      immutable(\"0x840881693295f1213bc621234bc18aa1727c90c9e1416799df22e18f9c7c029b\")\n        /* \"AuctionContract.sol\":7310:7311  A */\n      dup2\n        /* \"AuctionContract.sol\":7310:7315  A.nft */\n      0x00\n      add\n      0x00\n        /* \"AuctionContract.sol\":7310:7326  A.nft = classNFT */\n      0x0100\n      exp\n      dup2\n      sload\n      dup2\n      0xffffffffffffffffffffffffffffffffffffffff\n      mul\n      not\n      and\n      swap1\n      dup4\n      0xffffffffffffffffffffffffffffffffffffffff\n      and\n      mul\n      or\n      swap1\n      sstore\n      pop\n        /* \"AuctionContract.sol\":7349:7356  tokenId */\n      dup6\n        /* \"AuctionContract.sol\":7337:7338  A */\n      dup2\n        /* \"AuctionContract.sol\":7337:7346  A.tokenId */\n      0x01\n      add\n        /* \"AuctionContract.sol\":7337:7356  A.tokenId = tokenId */\n      dup2\n      swap1\n      sstore\n      pop\n        /* \"AuctionContract.sol\":7378:7388  msg.sender */\n      caller\n        /* \"AuctionContract.sol\":7367:7368  A */\n      dup2\n        /* \"AuctionContract.sol\":7367:7375  A.seller */\n      0x02\n      add\n      0x00\n        /* \"AuctionContract.sol\":7367:7388  A.seller = msg.sender */\n      0x0100\n      exp\n      dup2\n      sload\n      dup2\n      0xffffffffffffffffffffffffffffffffffffffff\n      mul\n      not\n      and\n      swap1\n      dup4\n      0xffffffffffffffffffffffffffffffffffffffff\n      and\n      mul\n      or\n      swap1\n      sstore\n      pop\n        /* \"AuctionContract.sol\":7416:7428  reservePrice */\n      dup5\n        /* \"AuctionContract.sol\":7399:7400  A */\n      dup2\n        /* \"AuctionContract.sol\":7399:7413  A.reservePrice */\n      0x03\n      add\n        /* \"AuctionContract.sol\":7399:7428  A.reservePrice = reservePrice */\n      dup2\n      swap1\n      sstore\n      pop\n        /* \"AuctionContract.sol\":7441:7453  uint64 nowTs */\n      0x00\n        /* \"AuctionContract.sol\":7463:7478  block.timestamp */\n      timestamp\n        /* \"AuctionContract.sol\":7441:7479  uint64 nowTs = uint64(block.timestamp) */\n      swap1\n      pop\n        /* \"AuctionContract.sol\":7505:7510  nowTs */\n      dup1\n        /* \"AuctionContract.sol\":7490:7491  A */\n      dup3\n        /* \"AuctionContract.sol\":7490:7502  A.startStamp */\n      0x05\n      add\n      0x00\n        /* \"AuctionContract.sol\":7490:7510  A.startStamp = nowTs */\n      0x0100\n      exp\n      dup2\n      sload\n      dup2\n      0xffffffffffffffff\n      mul\n      not\n      and\n      swap1\n      dup4\n      0xffffffffffffffff\n      and\n      mul\n      or\n      swap1\n      sstore\n      pop\n        /* \"AuctionContract.sol\":7543:7564  commitDurationSeconds */\n      dup5\n        /* \"AuctionContract.sol\":7535:7540  nowTs */\n      dup2\n        /* \"AuctionContract.sol\":7535:7564  nowTs + commitDurationSeconds */\n      tag_201\n      swap2\n      swap1\n      tag_116\n      jump\t// in\n    tag_201:\n        /* \"AuctionContract.sol\":7521:7522  A */\n      dup3\n        /* \"AuctionContract.sol\":7521:7532  A.commitEnd */\n      0x05\n      add\n      0x08\n        /* \"AuctionContract.sol\":7521:7564  A.commitEnd = nowTs + commitDurationSeconds */\n      0x0100\n      exp\n      dup2\n      sload\n      dup2\n      0xffffffffffffffff\n      mul\n      not\n      and\n      swap1\n      dup4\n      0xffffffffffffffff\n      and\n      mul\n      or\n      swap1\n      sstore\n      pop\n        /* \"AuctionContract.sol\":7603:7624  revealDurationSeconds */\n      dup4\n        /* \"AuctionContract.sol\":7589:7590  A */\n      dup3\n        /* \"AuctionContract.sol\":7589:7600  A.commitEnd */\n      0x05\n      add\n      0x08\n      swap1\n      sload\n      swap1\n      0x0100\n      exp\n      swap1\n      div\n      0xffffffffffffffff\n      and\n        /* \"AuctionContract.sol\":7589:7624  A.commitEnd + revealDurationSeconds */\n      tag_202\n      swap2\n      swap1\n      tag_116\n      jump\t// in\n    tag_202:\n        /* \"AuctionContract.sol\":7575:7576  A */\n      dup3\n        /* \"AuctionContract.sol\":7575:7586  A.revealEnd */\n      0x05\n      add\n      0x10\n        /* \"AuctionContract.sol\":7575:7624  A.revealEnd = A.commitEnd + revealDurationSeconds */\n      0x0100\n      exp\n      dup2\n      sload\n      dup2\n      0xffffffffffffffff\n      mul\n      not\n      and\n      swap1\n      dup4\n      0xffffffffffffffff\n      and\n      mul\n      or\n      swap1\n      sstore\n      pop\n        /* \"AuctionContract.sol\":7654:7675  settleDurationSeconds */\n      dup3\n        /* \"AuctionContract.sol\":7635:7636  A */\n      dup3\n        /* \"AuctionContract.sol\":7635:7651  A.settleDuration */\n      0x05\n      add\n      0x18\n        /* \"AuctionContract.sol\":7635:7675  A.settleDuration = settleDurationSeconds */\n      0x0100\n      exp\n      dup2\n      sload\n      dup2\n      0xffffffffffffffff\n      mul\n      not\n      and\n      swap1\n      dup4\n      0xffffffffffffffff\n      and\n      mul\n      or\n      swap1\n      sstore\n      pop\n        /* \"AuctionContract.sol\":1363:1373  0.01 ether */\n      0x2386f26fc10000\n        /* \"AuctionContract.sol\":7721:7723  10 */\n      0x0a\n        /* \"AuctionContract.sol\":7706:7718  reservePrice */\n      dup8\n        /* \"AuctionContract.sol\":7706:7723  reservePrice / 10 */\n      tag_203\n      swap2\n      swap1\n      tag_204\n      jump\t// in\n    tag_203:\n        /* \"AuctionContract.sol\":7705:7744  (reservePrice / 10) < MAX_DEPOSIT_PRICE */\n      lt\n        /* \"AuctionContract.sol\":7705:7784  (reservePrice / 10) < MAX_DEPOSIT_PRICE ? (reservePrice / 10):MAX_DEPOSIT_PRICE */\n      tag_205\n      jumpi\n        /* \"AuctionContract.sol\":1363:1373  0.01 ether */\n      0x2386f26fc10000\n        /* \"AuctionContract.sol\":7705:7784  (reservePrice / 10) < MAX_DEPOSIT_PRICE ? (reservePrice / 10):MAX_DEPOSIT_PRICE */\n      jump(tag_206)\n    tag_205:\n        /* \"AuctionContract.sol\":7763:7765  10 */\n      0x0a\n        /* \"AuctionContract.sol\":7748:7760  reservePrice */\n      dup7\n        /* \"AuctionContract.sol\":7748:7765  reservePrice / 10 */\n      tag_207\n      swap2\n      swap1\n      tag_204\n      jump\t// in\n    tag_207:\n        /* \"AuctionContract.sol\":7705:7784  (reservePrice / 10) < MAX_DEPOSIT_PRICE ? (reservePrice / 10):MAX_DEPOSIT_PRICE */\n    tag_206:\n        /* \"AuctionContract.sol\":7686:7687  A */\n      dup3\n        /* \"AuctionContract.sol\":7686:7700  A.depositPrice */\n      0x04\n      add\n        /* \"AuctionContract.sol\":7686:7785  A.depositPrice =  ((reservePrice / 10) < MAX_DEPOSIT_PRICE ? (reservePrice / 10):MAX_DEPOSIT_PRICE) */\n      dup2\n      swap1\n      sstore\n      pop\n        /* \"AuctionContract.sol\":7849:7857  classNFT */\n      immutable(\"0x840881693295f1213bc621234bc18aa1727c90c9e1416799df22e18f9c7c029b\")\n        /* \"AuctionContract.sol\":7803:7956  AuctionStarted(auctionId, msg.sender, address(classNFT), tokenId, reservePrice, A.depositPrice, A.startStamp, A.commitEnd, A.revealEnd, A.settleDuration) */\n      0xffffffffffffffffffffffffffffffffffffffff\n      and\n        /* \"AuctionContract.sol\":7829:7839  msg.sender */\n      caller\n        /* \"AuctionContract.sol\":7803:7956  AuctionStarted(auctionId, msg.sender, address(classNFT), tokenId, reservePrice, A.depositPrice, A.startStamp, A.commitEnd, A.revealEnd, A.settleDuration) */\n      0xffffffffffffffffffffffffffffffffffffffff\n      and\n        /* \"AuctionContract.sol\":7818:7827  auctionId */\n      sload(0x01)\n        /* \"AuctionContract.sol\":7803:7956  AuctionStarted(auctionId, msg.sender, address(classNFT), tokenId, reservePrice, A.depositPrice, A.startStamp, A.commitEnd, A.revealEnd, A.settleDuration) */\n      0x086b19d6a6b02147fc1e9f2538ae5b1ff124ee6827666573f5f59710a6bd5ebb\n        /* \"AuctionContract.sol\":7860:7867  tokenId */\n      dup11\n        /* \"AuctionContract.sol\":7869:7881  reservePrice */\n      dup11\n        /* \"AuctionContract.sol\":7883:7884  A */\n      dup8\n        /* \"AuctionContract.sol\":7883:7897  A.depositPrice */\n      0x04\n      add\n      sload\n        /* \"AuctionContract.sol\":7899:7900  A */\n      dup9\n        /* \"AuctionContract.sol\":7899:7911  A.startStamp */\n      0x05\n      add\n      0x00\n      swap1\n      sload\n      swap1\n      0x0100\n      exp\n      swap1\n      div\n      0xffffffffffffffff\n      and\n        /* \"AuctionContract.sol\":7913:7914  A */\n      dup10\n        /* \"AuctionContract.sol\":7913:7924  A.commitEnd */\n      0x05\n      add\n      0x08\n      swap1\n      sload\n      swap1\n      0x0100\n      exp\n      swap1\n      div\n      0xffffffffffffffff\n      and\n        /* \"AuctionContract.sol\":7926:7927  A */\n      dup11\n        /* \"AuctionContract.sol\":7926:7937  A.revealEnd */\n      0x05\n      add\n      0x10\n      swap1\n      sload\n      swap1\n      0x0100\n      exp\n      swap1\n      div\n      0xffffffffffffffff\n      and\n        /* \"AuctionContract.sol\":7939:7940  A */\n      dup12\n        /* \"AuctionContract.sol\":7939:7955  A.settleDuration */\n      0x05\n      add\n      0x18\n      swap1\n      sload\n      swap1\n      0x0100\n      exp\n      swap1\n      div\n      0xffffffffffffffff\n      and\n        /* \"AuctionContract.sol\":7803:7956  AuctionStarted(auctionId, msg.sender, address(classNFT), tokenId, reservePrice, A.depositPrice, A.startStamp, A.commitEnd, A.revealEnd, A.settleDuration) */\n      mload(0x40)\n      tag_208\n      swap8\n      swap7\n      swap6\n      swap5\n      swap4\n      swap3\n      swap2\n      swap1\n      tag_209\n      jump\t// in\n    tag_208:\n      mload(0x40)\n      dup1\n      swap2\n      sub\n      swap1\n      log4\n        /* \"AuctionContract.sol\":6175:7964  {... */\n      pop\n      pop\n        /* \"AuctionContract.sol\":5963:7964  function startAuction(... */\n      pop\n      pop\n      pop\n      pop\n      pop\n      jump\t// out\n        /* \"AuctionContract.sol\":14136:14316  function getCommitment(uint256 id, address bidder) external view returns (bytes32) {... */\n    tag_73:\n        /* \"AuctionContract.sol\":14210:14217  bytes32 */\n      0x00\n        /* \"AuctionContract.sol\":14230:14247  Auction storage A */\n      0x00\n        /* \"AuctionContract.sol\":14250:14269  _requireAuction(id) */\n      tag_211\n        /* \"AuctionContract.sol\":14266:14268  id */\n      dup5\n        /* \"AuctionContract.sol\":14250:14265  _requireAuction */\n      tag_147\n        /* \"AuctionContract.sol\":14250:14269  _requireAuction(id) */\n      jump\t// in\n    tag_211:\n        /* \"AuctionContract.sol\":14230:14269  Auction storage A = _requireAuction(id) */\n      swap1\n      pop\n        /* \"AuctionContract.sol\":14287:14288  A */\n      dup1\n        /* \"AuctionContract.sol\":14287:14300  A.commitments */\n      0x0b\n      add\n        /* \"AuctionContract.sol\":14287:14308  A.commitments[bidder] */\n      0x00\n        /* \"AuctionContract.sol\":14301:14307  bidder */\n      dup5\n        /* \"AuctionContract.sol\":14287:14308  A.commitments[bidder] */\n      0xffffffffffffffffffffffffffffffffffffffff\n      and\n      0xffffffffffffffffffffffffffffffffffffffff\n      and\n      dup2\n      mstore\n      0x20\n      add\n      swap1\n      dup2\n      mstore\n      0x20\n      add\n      0x00\n      keccak256\n      sload\n        /* \"AuctionContract.sol\":14280:14308  return A.commitments[bidder] */\n      swap2\n      pop\n      pop\n        /* \"AuctionContract.sol\":14136:14316  function getCommitment(uint256 id, address bidder) external view returns (bytes32) {... */\n      swap3\n      swap2\n      pop\n      pop\n      jump\t// out\n        /* \"AuctionContract.sol\":14324:14502  function getCommitTime(uint256 id, address bidder) external view returns (uint64) {... */\n    tag_79:\n        /* \"AuctionContract.sol\":14398:14404  uint64 */\n      0x00\n        /* \"AuctionContract.sol\":14417:14434  Auction storage A */\n      0x00\n        /* \"AuctionContract.sol\":14437:14456  _requireAuction(id) */\n      tag_213\n        /* \"AuctionContract.sol\":14453:14455  id */\n      dup5\n        /* \"AuctionContract.sol\":14437:14452  _requireAuction */\n      tag_147\n        /* \"AuctionContract.sol\":14437:14456  _requireAuction(id) */\n      jump\t// in\n    tag_213:\n        /* \"AuctionContract.sol\":14417:14456  Auction storage A = _requireAuction(id) */\n      swap1\n      pop\n        /* \"AuctionContract.sol\":14474:14475  A */\n      dup1\n        /* \"AuctionContract.sol\":14474:14486  A.commitTime */\n      0x0c\n      add\n        /* \"AuctionContract.sol\":14474:14494  A.commitTime[bidder] */\n      0x00\n        /* \"AuctionContract.sol\":14487:14493  bidder */\n      dup5\n        /* \"AuctionContract.sol\":14474:14494  A.commitTime[bidder] */\n      0xffffffffffffffffffffffffffffffffffffffff\n      and\n      0xffffffffffffffffffffffffffffffffffffffff\n      and\n      dup2\n      mstore\n      0x20\n      add\n      swap1\n      dup2\n      mstore\n      0x20\n      add\n      0x00\n      keccak256\n      0x00\n      swap1\n      sload\n      swap1\n      0x0100\n      exp\n      swap1\n      div\n      0xffffffffffffffff\n      and\n        /* \"AuctionContract.sol\":14467:14494  return A.commitTime[bidder] */\n      swap2\n      pop\n      pop\n        /* \"AuctionContract.sol\":14324:14502  function getCommitTime(uint256 id, address bidder) external view returns (uint64) {... */\n      swap3\n      swap2\n      pop\n      pop\n      jump\t// out\n        /* \"AuctionContract.sol\":1186:1232  uint256 public constant MAX_DURATION = 2592000 */\n    tag_84:\n        /* \"AuctionContract.sol\":1225:1232  2592000 */\n      0x278d00\n        /* \"AuctionContract.sol\":1186:1232  uint256 public constant MAX_DURATION = 2592000 */\n      dup2\n      jump\t// out\n        /* \"AuctionContract.sol\":4511:5023  function currentPhase(uint256 id) public view returns (string memory) {... */\n    tag_89:\n        /* \"AuctionContract.sol\":4566:4579  string memory */\n      0x60\n        /* \"AuctionContract.sol\":4592:4609  Auction storage A */\n      0x00\n        /* \"AuctionContract.sol\":4612:4631  _requireAuction(id) */\n      tag_215\n        /* \"AuctionContract.sol\":4628:4630  id */\n      dup4\n        /* \"AuctionContract.sol\":4612:4627  _requireAuction */\n      tag_147\n        /* \"AuctionContract.sol\":4612:4631  _requireAuction(id) */\n      jump\t// in\n    tag_215:\n        /* \"AuctionContract.sol\":4592:4631  Auction storage A = _requireAuction(id) */\n      swap1\n      pop\n        /* \"AuctionContract.sol\":4642:4651  uint256 t */\n      0x00\n        /* \"AuctionContract.sol\":4654:4669  block.timestamp */\n      timestamp\n        /* \"AuctionContract.sol\":4642:4669  uint256 t = block.timestamp */\n      swap1\n      pop\n        /* \"AuctionContract.sol\":4688:4689  A */\n      dup2\n        /* \"AuctionContract.sol\":4688:4699  A.commitEnd */\n      0x05\n      add\n      0x08\n      swap1\n      sload\n      swap1\n      0x0100\n      exp\n      swap1\n      div\n      0xffffffffffffffff\n      and\n        /* \"AuctionContract.sol\":4684:4699  t < A.commitEnd */\n      0xffffffffffffffff\n      and\n        /* \"AuctionContract.sol\":4684:4685  t */\n      dup2\n        /* \"AuctionContract.sol\":4684:4699  t < A.commitEnd */\n      lt\n        /* \"AuctionContract.sol\":4680:4716  if (t < A.commitEnd) return \"COMMIT\" */\n      iszero\n      tag_216\n      jumpi\n        /* \"AuctionContract.sol\":4701:4716  return \"COMMIT\" */\n      mload(0x40)\n      dup1\n      0x40\n      add\n      0x40\n      mstore\n      dup1\n      0x06\n      dup2\n      mstore\n      0x20\n      add\n      0x434f4d4d49540000000000000000000000000000000000000000000000000000\n      dup2\n      mstore\n      pop\n      swap3\n      pop\n      pop\n      pop\n      jump(tag_214)\n        /* \"AuctionContract.sol\":4680:4716  if (t < A.commitEnd) return \"COMMIT\" */\n    tag_216:\n        /* \"AuctionContract.sol\":4735:4736  A */\n      dup2\n        /* \"AuctionContract.sol\":4735:4746  A.revealEnd */\n      0x05\n      add\n      0x10\n      swap1\n      sload\n      swap1\n      0x0100\n      exp\n      swap1\n      div\n      0xffffffffffffffff\n      and\n        /* \"AuctionContract.sol\":4731:4746  t < A.revealEnd */\n      0xffffffffffffffff\n      and\n        /* \"AuctionContract.sol\":4731:4732  t */\n      dup2\n        /* \"AuctionContract.sol\":4731:4746  t < A.revealEnd */\n      lt\n        /* \"AuctionContract.sol\":4727:4763  if (t < A.revealEnd) return \"REVEAL\" */\n      iszero\n      tag_217\n      jumpi\n        /* \"AuctionContract.sol\":4748:4763  return \"REVEAL\" */\n      mload(0x40)\n      dup1\n      0x40\n      add\n      0x40\n      mstore\n      dup1\n      0x06\n      dup2\n      mstore\n      0x20\n      add\n      0x52455645414c0000000000000000000000000000000000000000000000000000\n      dup2\n      mstore\n      pop\n      swap3\n      pop\n      pop\n      pop\n      jump(tag_214)\n        /* \"AuctionContract.sol\":4727:4763  if (t < A.revealEnd) return \"REVEAL\" */\n    tag_217:\n        /* \"AuctionContract.sol\":4779:4780  A */\n      dup2\n        /* \"AuctionContract.sol\":4779:4790  A.finalized */\n      0x0a\n      add\n      0x00\n      swap1\n      sload\n      swap1\n      0x0100\n      exp\n      swap1\n      div\n      0xff\n      and\n        /* \"AuctionContract.sol\":4774:4817  if (!A.finalized) return \"FINALIZE_PENDING\" */\n      tag_218\n      jumpi\n        /* \"AuctionContract.sol\":4792:4817  return \"FINALIZE_PENDING\" */\n      mload(0x40)\n      dup1\n      0x40\n      add\n      0x40\n      mstore\n      dup1\n      0x10\n      dup2\n      mstore\n      0x20\n      add\n      0x46494e414c495a455f50454e44494e4700000000000000000000000000000000\n      dup2\n      mstore\n      pop\n      swap3\n      pop\n      pop\n      pop\n      jump(tag_214)\n        /* \"AuctionContract.sol\":4774:4817  if (!A.finalized) return \"FINALIZE_PENDING\" */\n    tag_218:\n        /* \"AuctionContract.sol\":4832:4833  A */\n      dup2\n        /* \"AuctionContract.sol\":4832:4843  A.finalized */\n      0x0a\n      add\n      0x00\n      swap1\n      sload\n      swap1\n      0x0100\n      exp\n      swap1\n      div\n      0xff\n      and\n        /* \"AuctionContract.sol\":4832:4857  A.finalized && !A.settled */\n      dup1\n      iszero\n      tag_219\n      jumpi\n      pop\n        /* \"AuctionContract.sol\":4848:4849  A */\n      dup2\n        /* \"AuctionContract.sol\":4848:4857  A.settled */\n      0x0a\n      add\n      0x01\n      swap1\n      sload\n      swap1\n      0x0100\n      exp\n      swap1\n      div\n      0xff\n      and\n        /* \"AuctionContract.sol\":4847:4857  !A.settled */\n      iszero\n        /* \"AuctionContract.sol\":4832:4857  A.finalized && !A.settled */\n    tag_219:\n        /* \"AuctionContract.sol\":4832:4890  A.finalized && !A.settled && A.highestBidder != address(0) */\n      dup1\n      iszero\n      tag_220\n      jumpi\n      pop\n        /* \"AuctionContract.sol\":4888:4889  0 */\n      0x00\n        /* \"AuctionContract.sol\":4861:4890  A.highestBidder != address(0) */\n      0xffffffffffffffffffffffffffffffffffffffff\n      and\n        /* \"AuctionContract.sol\":4861:4862  A */\n      dup3\n        /* \"AuctionContract.sol\":4861:4876  A.highestBidder */\n      0x06\n      add\n      0x08\n      swap1\n      sload\n      swap1\n      0x0100\n      exp\n      swap1\n      div\n      0xffffffffffffffffffffffffffffffffffffffff\n      and\n        /* \"AuctionContract.sol\":4861:4890  A.highestBidder != address(0) */\n      0xffffffffffffffffffffffffffffffffffffffff\n      and\n      eq\n      iszero\n        /* \"AuctionContract.sol\":4832:4890  A.finalized && !A.settled && A.highestBidder != address(0) */\n    tag_220:\n        /* \"AuctionContract.sol\":4832:4915  A.finalized && !A.settled && A.highestBidder != address(0) && t <= A.settleDeadline */\n      dup1\n      iszero\n      tag_221\n      jumpi\n      pop\n        /* \"AuctionContract.sol\":4899:4900  A */\n      dup2\n        /* \"AuctionContract.sol\":4899:4915  A.settleDeadline */\n      0x06\n      add\n      0x00\n      swap1\n      sload\n      swap1\n      0x0100\n      exp\n      swap1\n      div\n      0xffffffffffffffff\n      and\n        /* \"AuctionContract.sol\":4894:4915  t <= A.settleDeadline */\n      0xffffffffffffffff\n      and\n        /* \"AuctionContract.sol\":4894:4895  t */\n      dup2\n        /* \"AuctionContract.sol\":4894:4915  t <= A.settleDeadline */\n      gt\n      iszero\n        /* \"AuctionContract.sol\":4832:4915  A.finalized && !A.settled && A.highestBidder != address(0) && t <= A.settleDeadline */\n    tag_221:\n        /* \"AuctionContract.sol\":4828:4939  if (A.finalized && !A.settled && A.highestBidder != address(0) && t <= A.settleDeadline) return \"AWAIT_PAYMENT\" */\n      iszero\n      tag_222\n      jumpi\n        /* \"AuctionContract.sol\":4917:4939  return \"AWAIT_PAYMENT\" */\n      mload(0x40)\n      dup1\n      0x40\n      add\n      0x40\n      mstore\n      dup1\n      0x0d\n      dup2\n      mstore\n      0x20\n      add\n      0x41574149545f5041594d454e5400000000000000000000000000000000000000\n      dup2\n      mstore\n      pop\n      swap3\n      pop\n      pop\n      pop\n      jump(tag_214)\n        /* \"AuctionContract.sol\":4828:4939  if (A.finalized && !A.settled && A.highestBidder != address(0) && t <= A.settleDeadline) return \"AWAIT_PAYMENT\" */\n    tag_222:\n        /* \"AuctionContract.sol\":4955:4956  A */\n      dup2\n        /* \"AuctionContract.sol\":4955:4964  A.settled */\n      0x0a\n      add\n      0x01\n      swap1\n      sload\n      swap1\n      0x0100\n      exp\n      swap1\n      div\n      0xff\n      and\n        /* \"AuctionContract.sol\":4950:4990  if (!A.settled) return \"SETTLEMENT_OPEN\" */\n      tag_223\n      jumpi\n        /* \"AuctionContract.sol\":4966:4990  return \"SETTLEMENT_OPEN\" */\n      mload(0x40)\n      dup1\n      0x40\n      add\n      0x40\n      mstore\n      dup1\n      0x0f\n      dup2\n      mstore\n      0x20\n      add\n      0x534554544c454d454e545f4f50454e0000000000000000000000000000000000\n      dup2\n      mstore\n      pop\n      swap3\n      pop\n      pop\n      pop\n      jump(tag_214)\n        /* \"AuctionContract.sol\":4950:4990  if (!A.settled) return \"SETTLEMENT_OPEN\" */\n    tag_223:\n        /* \"AuctionContract.sol\":5001:5015  return \"ENDED\" */\n      mload(0x40)\n      dup1\n      0x40\n      add\n      0x40\n      mstore\n      dup1\n      0x05\n      dup2\n      mstore\n      0x20\n      add\n      0x454e444544000000000000000000000000000000000000000000000000000000\n      dup2\n      mstore\n      pop\n      swap3\n      pop\n      pop\n      pop\n        /* \"AuctionContract.sol\":4511:5023  function currentPhase(uint256 id) public view returns (string memory) {... */\n    tag_214:\n      swap2\n      swap1\n      pop\n      jump\t// out\n        /* \"AuctionContract.sol\":1319:1373  uint256 public constant MAX_DEPOSIT_PRICE = 0.01 ether */\n    tag_94:\n        /* \"AuctionContract.sol\":1363:1373  0.01 ether */\n      0x2386f26fc10000\n        /* \"AuctionContract.sol\":1319:1373  uint256 public constant MAX_DEPOSIT_PRICE = 0.01 ether */\n      dup2\n      jump\t// out\n        /* \"AuctionContract.sol\":5312:5544  function getTimes(uint256 id) external view returns (uint64 commitEnd, uint64 revealEnd, uint64 settleDeadline) {... */\n    tag_99:\n        /* \"AuctionContract.sol\":5365:5381  uint64 commitEnd */\n      0x00\n        /* \"AuctionContract.sol\":5383:5399  uint64 revealEnd */\n      0x00\n        /* \"AuctionContract.sol\":5401:5422  uint64 settleDeadline */\n      0x00\n        /* \"AuctionContract.sol\":5435:5452  Auction storage A */\n      0x00\n        /* \"AuctionContract.sol\":5455:5474  _requireAuction(id) */\n      tag_225\n        /* \"AuctionContract.sol\":5471:5473  id */\n      dup6\n        /* \"AuctionContract.sol\":5455:5470  _requireAuction */\n      tag_147\n        /* \"AuctionContract.sol\":5455:5474  _requireAuction(id) */\n      jump\t// in\n    tag_225:\n        /* \"AuctionContract.sol\":5435:5474  Auction storage A = _requireAuction(id) */\n      swap1\n      pop\n        /* \"AuctionContract.sol\":5493:5494  A */\n      dup1\n        /* \"AuctionContract.sol\":5493:5504  A.commitEnd */\n      0x05\n      add\n      0x08\n      swap1\n      sload\n      swap1\n      0x0100\n      exp\n      swap1\n      div\n      0xffffffffffffffff\n      and\n        /* \"AuctionContract.sol\":5506:5507  A */\n      dup2\n        /* \"AuctionContract.sol\":5506:5517  A.revealEnd */\n      0x05\n      add\n      0x10\n      swap1\n      sload\n      swap1\n      0x0100\n      exp\n      swap1\n      div\n      0xffffffffffffffff\n      and\n        /* \"AuctionContract.sol\":5519:5520  A */\n      dup3\n        /* \"AuctionContract.sol\":5519:5535  A.settleDeadline */\n      0x06\n      add\n      0x00\n      swap1\n      sload\n      swap1\n      0x0100\n      exp\n      swap1\n      div\n      0xffffffffffffffff\n      and\n        /* \"AuctionContract.sol\":5485:5536  return (A.commitEnd, A.revealEnd, A.settleDeadline) */\n      swap4\n      pop\n      swap4\n      pop\n      swap4\n      pop\n      pop\n        /* \"AuctionContract.sol\":5312:5544  function getTimes(uint256 id) external view returns (uint64 commitEnd, uint64 revealEnd, uint64 settleDeadline) {... */\n      swap2\n      swap4\n      swap1\n      swap3\n      pop\n      jump\t// out\n        /* \"AuctionContract.sol\":11960:12768  function payAndClaim() external payable nonReentrant {... */\n    tag_103:\n        /* \"AuctionContract.sol\":1531:1532  2 */\n      0x02\n        /* \"AuctionContract.sol\":1627:1634  _status */\n      sload(0x00)\n        /* \"AuctionContract.sol\":1627:1646  _status != _ENTERED */\n      sub\n        /* \"AuctionContract.sol\":1619:1661  require(_status != _ENTERED, \"REENTRANCY\") */\n      tag_227\n      jumpi\n      mload(0x40)\n      0x08c379a000000000000000000000000000000000000000000000000000000000\n      dup2\n      mstore\n      0x04\n      add\n      tag_228\n      swap1\n      tag_229\n      jump\t// in\n    tag_228:\n      mload(0x40)\n      dup1\n      swap2\n      sub\n      swap1\n      revert\n    tag_227:\n        /* \"AuctionContract.sol\":1531:1532  2 */\n      0x02\n        /* \"AuctionContract.sol\":1672:1679  _status */\n      0x00\n        /* \"AuctionContract.sol\":1672:1690  _status = _ENTERED */\n      dup2\n      swap1\n      sstore\n      pop\n        /* \"AuctionContract.sol\":12024:12041  Auction storage A */\n      0x00\n        /* \"AuctionContract.sol\":12044:12067  _requireActiveAuction() */\n      tag_231\n        /* \"AuctionContract.sol\":12044:12065  _requireActiveAuction */\n      tag_106\n        /* \"AuctionContract.sol\":12044:12067  _requireActiveAuction() */\n      jump\t// in\n    tag_231:\n        /* \"AuctionContract.sol\":12024:12067  Auction storage A = _requireActiveAuction() */\n      swap1\n      pop\n        /* \"AuctionContract.sol\":12121:12122  A */\n      dup1\n        /* \"AuctionContract.sol\":12121:12132  A.finalized */\n      0x0a\n      add\n      0x00\n      swap1\n      sload\n      swap1\n      0x0100\n      exp\n      swap1\n      div\n      0xff\n      and\n        /* \"AuctionContract.sol\":12120:12132  !A.finalized */\n      iszero\n        /* \"AuctionContract.sol\":12120:12153  !A.finalized || A.settled == true */\n      dup1\n      tag_232\n      jumpi\n      pop\n        /* \"AuctionContract.sol\":12149:12153  true */\n      0x01\n        /* \"AuctionContract.sol\":12136:12153  A.settled == true */\n      iszero\n      iszero\n        /* \"AuctionContract.sol\":12136:12137  A */\n      dup2\n        /* \"AuctionContract.sol\":12136:12145  A.settled */\n      0x0a\n      add\n      0x01\n      swap1\n      sload\n      swap1\n      0x0100\n      exp\n      swap1\n      div\n      0xff\n      and\n        /* \"AuctionContract.sol\":12136:12153  A.settled == true */\n      iszero\n      iszero\n      eq\n        /* \"AuctionContract.sol\":12120:12153  !A.finalized || A.settled == true */\n    tag_232:\n        /* \"AuctionContract.sol\":12116:12172  if (!A.finalized || A.settled == true) revert NotEnded() */\n      iszero\n      tag_233\n      jumpi\n        /* \"AuctionContract.sol\":12162:12172  NotEnded() */\n      mload(0x40)\n      0xd3018d1800000000000000000000000000000000000000000000000000000000\n      dup2\n      mstore\n      0x04\n      add\n      mload(0x40)\n      dup1\n      swap2\n      sub\n      swap1\n      revert\n        /* \"AuctionContract.sol\":12116:12172  if (!A.finalized || A.settled == true) revert NotEnded() */\n    tag_233:\n        /* \"AuctionContract.sol\":12206:12216  msg.sender */\n      caller\n        /* \"AuctionContract.sol\":12187:12216  A.highestBidder != msg.sender */\n      0xffffffffffffffffffffffffffffffffffffffff\n      and\n        /* \"AuctionContract.sol\":12187:12188  A */\n      dup2\n        /* \"AuctionContract.sol\":12187:12202  A.highestBidder */\n      0x06\n      add\n      0x08\n      swap1\n      sload\n      swap1\n      0x0100\n      exp\n      swap1\n      div\n      0xffffffffffffffffffffffffffffffffffffffff\n      and\n        /* \"AuctionContract.sol\":12187:12216  A.highestBidder != msg.sender */\n      0xffffffffffffffffffffffffffffffffffffffff\n      and\n      eq\n        /* \"AuctionContract.sol\":12183:12236  if (A.highestBidder != msg.sender) revert NotWinner() */\n      tag_234\n      jumpi\n        /* \"AuctionContract.sol\":12225:12236  NotWinner() */\n      mload(0x40)\n      0x618c724200000000000000000000000000000000000000000000000000000000\n      dup2\n      mstore\n      0x04\n      add\n      mload(0x40)\n      dup1\n      swap2\n      sub\n      swap1\n      revert\n        /* \"AuctionContract.sol\":12183:12236  if (A.highestBidder != msg.sender) revert NotWinner() */\n    tag_234:\n        /* \"AuctionContract.sol\":12269:12270  A */\n      dup1\n        /* \"AuctionContract.sol\":12269:12285  A.settleDeadline */\n      0x06\n      add\n      0x00\n      swap1\n      sload\n      swap1\n      0x0100\n      exp\n      swap1\n      div\n      0xffffffffffffffff\n      and\n        /* \"AuctionContract.sol\":12251:12285  block.timestamp > A.settleDeadline */\n      0xffffffffffffffff\n      and\n        /* \"AuctionContract.sol\":12251:12266  block.timestamp */\n      timestamp\n        /* \"AuctionContract.sol\":12251:12285  block.timestamp > A.settleDeadline */\n      gt\n        /* \"AuctionContract.sol\":12247:12309  if (block.timestamp > A.settleDeadline) revert PaymentClosed() */\n      iszero\n      tag_235\n      jumpi\n        /* \"AuctionContract.sol\":12294:12309  PaymentClosed() */\n      mload(0x40)\n      0x58459e8800000000000000000000000000000000000000000000000000000000\n      dup2\n      mstore\n      0x04\n      add\n      mload(0x40)\n      dup1\n      swap2\n      sub\n      swap1\n      revert\n        /* \"AuctionContract.sol\":12247:12309  if (block.timestamp > A.settleDeadline) revert PaymentClosed() */\n    tag_235:\n        /* \"AuctionContract.sol\":12337:12338  A */\n      dup1\n        /* \"AuctionContract.sol\":12337:12352  A.clearingPrice */\n      0x09\n      add\n      sload\n        /* \"AuctionContract.sol\":12324:12333  msg.value */\n      callvalue\n        /* \"AuctionContract.sol\":12324:12352  msg.value != A.clearingPrice */\n      eq\n        /* \"AuctionContract.sol\":12320:12375  if (msg.value != A.clearingPrice) revert WrongPayment() */\n      tag_236\n      jumpi\n        /* \"AuctionContract.sol\":12361:12375  WrongPayment() */\n      mload(0x40)\n      0x788a686f00000000000000000000000000000000000000000000000000000000\n      dup2\n      mstore\n      0x04\n      add\n      mload(0x40)\n      dup1\n      swap2\n      sub\n      swap1\n      revert\n        /* \"AuctionContract.sol\":12320:12375  if (msg.value != A.clearingPrice) revert WrongPayment() */\n    tag_236:\n        /* \"AuctionContract.sol\":12420:12424  true */\n      0x01\n        /* \"AuctionContract.sol\":12408:12409  A */\n      dup2\n        /* \"AuctionContract.sol\":12408:12417  A.settled */\n      0x0a\n      add\n      0x01\n        /* \"AuctionContract.sol\":12408:12424  A.settled = true */\n      0x0100\n      exp\n      dup2\n      sload\n      dup2\n      0xff\n      mul\n      not\n      and\n      swap1\n      dup4\n      iszero\n      iszero\n      mul\n      or\n      swap1\n      sstore\n      pop\n        /* \"AuctionContract.sol\":12489:12496  bool ok */\n      0x00\n        /* \"AuctionContract.sol\":12502:12503  A */\n      dup2\n        /* \"AuctionContract.sol\":12502:12510  A.seller */\n      0x02\n      add\n      0x00\n      swap1\n      sload\n      swap1\n      0x0100\n      exp\n      swap1\n      div\n      0xffffffffffffffffffffffffffffffffffffffff\n      and\n        /* \"AuctionContract.sol\":12502:12515  A.seller.call */\n      0xffffffffffffffffffffffffffffffffffffffff\n      and\n        /* \"AuctionContract.sol\":12523:12532  msg.value */\n      callvalue\n        /* \"AuctionContract.sol\":12502:12537  A.seller.call{value: msg.value}(\"\") */\n      mload(0x40)\n      tag_237\n      swap1\n      tag_238\n      jump\t// in\n    tag_237:\n      0x00\n      mload(0x40)\n      dup1\n      dup4\n      sub\n      dup2\n      dup6\n      dup8\n      gas\n      call\n      swap3\n      pop\n      pop\n      pop\n      returndatasize\n      dup1\n      0x00\n      dup2\n      eq\n      tag_241\n      jumpi\n      mload(0x40)\n      swap2\n      pop\n      and(add(returndatasize, 0x3f), not(0x1f))\n      dup3\n      add\n      0x40\n      mstore\n      returndatasize\n      dup3\n      mstore\n      returndatasize\n      0x00\n      0x20\n      dup5\n      add\n      returndatacopy\n      jump(tag_240)\n    tag_241:\n      0x60\n      swap2\n      pop\n    tag_240:\n      pop\n        /* \"AuctionContract.sol\":12488:12537  (bool ok, ) = A.seller.call{value: msg.value}(\"\") */\n      pop\n      swap1\n      pop\n        /* \"AuctionContract.sol\":12556:12558  ok */\n      dup1\n        /* \"AuctionContract.sol\":12548:12580  require(ok, \"pay seller failed\") */\n      tag_242\n      jumpi\n      mload(0x40)\n      0x08c379a000000000000000000000000000000000000000000000000000000000\n      dup2\n      mstore\n      0x04\n      add\n      tag_243\n      swap1\n      tag_244\n      jump\t// in\n    tag_243:\n      mload(0x40)\n      dup1\n      swap2\n      sub\n      swap1\n      revert\n    tag_242:\n        /* \"AuctionContract.sol\":12631:12688  _safeTransferNFT(A, address(this), msg.sender, A.tokenId) */\n      tag_245\n        /* \"AuctionContract.sol\":12648:12649  A */\n      dup3\n        /* \"AuctionContract.sol\":12659:12663  this */\n      address\n        /* \"AuctionContract.sol\":12666:12676  msg.sender */\n      caller\n        /* \"AuctionContract.sol\":12678:12679  A */\n      dup6\n        /* \"AuctionContract.sol\":12678:12687  A.tokenId */\n      0x01\n      add\n      sload\n        /* \"AuctionContract.sol\":12631:12647  _safeTransferNFT */\n      tag_113\n        /* \"AuctionContract.sol\":12631:12688  _safeTransferNFT(A, address(this), msg.sender, A.tokenId) */\n      jump\t// in\n    tag_245:\n        /* \"AuctionContract.sol\":12738:12748  msg.sender */\n      caller\n        /* \"AuctionContract.sol\":12706:12760  WinnerPaidAndClaimed(auctionId, msg.sender, msg.value) */\n      0xffffffffffffffffffffffffffffffffffffffff\n      and\n        /* \"AuctionContract.sol\":12727:12736  auctionId */\n      sload(0x01)\n        /* \"AuctionContract.sol\":12706:12760  WinnerPaidAndClaimed(auctionId, msg.sender, msg.value) */\n      0xd33ef6ab06e6bf8672161aa6abe1ec1791c393d62213ebd89c67f611e538e575\n        /* \"AuctionContract.sol\":12750:12759  msg.value */\n      callvalue\n        /* \"AuctionContract.sol\":12706:12760  WinnerPaidAndClaimed(auctionId, msg.sender, msg.value) */\n      mload(0x40)\n      tag_246\n      swap2\n      swap1\n      tag_26\n      jump\t// in\n    tag_246:\n      mload(0x40)\n      dup1\n      swap2\n      sub\n      swap1\n      log3\n        /* \"AuctionContract.sol\":12013:12768  {... */\n      pop\n      pop\n        /* \"AuctionContract.sol\":1487:1488  1 */\n      0x01\n        /* \"AuctionContract.sol\":1713:1720  _status */\n      0x00\n        /* \"AuctionContract.sol\":1713:1735  _status = _NOT_ENTERED */\n      dup2\n      swap1\n      sstore\n      pop\n        /* \"AuctionContract.sol\":11960:12768  function payAndClaim() external payable nonReentrant {... */\n      jump\t// out\n        /* \"AuctionContract.sol\":13561:13742  function _requireActiveAuction() internal view returns (Auction storage A) {... */\n    tag_106:\n        /* \"AuctionContract.sol\":13617:13634  Auction storage A */\n      0x00\n        /* \"AuctionContract.sol\":13651:13660  _auctions */\n      0x02\n        /* \"AuctionContract.sol\":13651:13671  _auctions[auctionId] */\n      0x00\n        /* \"AuctionContract.sol\":13661:13670  auctionId */\n      sload(0x01)\n        /* \"AuctionContract.sol\":13651:13671  _auctions[auctionId] */\n      dup2\n      mstore\n      0x20\n      add\n      swap1\n      dup2\n      mstore\n      0x20\n      add\n      0x00\n      keccak256\n        /* \"AuctionContract.sol\":13647:13671  A = _auctions[auctionId] */\n      swap1\n      pop\n        /* \"AuctionContract.sol\":13706:13707  0 */\n      0x00\n        /* \"AuctionContract.sol\":13686:13708  A.seller == address(0) */\n      0xffffffffffffffffffffffffffffffffffffffff\n      and\n        /* \"AuctionContract.sol\":13686:13687  A */\n      dup2\n        /* \"AuctionContract.sol\":13686:13694  A.seller */\n      0x02\n      add\n      0x00\n      swap1\n      sload\n      swap1\n      0x0100\n      exp\n      swap1\n      div\n      0xffffffffffffffffffffffffffffffffffffffff\n      and\n        /* \"AuctionContract.sol\":13686:13708  A.seller == address(0) */\n      0xffffffffffffffffffffffffffffffffffffffff\n      and\n      sub\n        /* \"AuctionContract.sol\":13682:13734  if (A.seller == address(0)) revert NoActiveAuction() */\n      tag_248\n      jumpi\n        /* \"AuctionContract.sol\":13717:13734  NoActiveAuction() */\n      mload(0x40)\n      0x568ca25700000000000000000000000000000000000000000000000000000000\n      dup2\n      mstore\n      0x04\n      add\n      mload(0x40)\n      dup1\n      swap2\n      sub\n      swap1\n      revert\n        /* \"AuctionContract.sol\":13682:13734  if (A.seller == address(0)) revert NoActiveAuction() */\n    tag_248:\n        /* \"AuctionContract.sol\":13561:13742  function _requireActiveAuction() internal view returns (Auction storage A) {... */\n      swap1\n      jump\t// out\n        /* \"AuctionContract.sol\":13750:14071  function _safeTransferNFT(Auction storage A, address from, address to, uint256 tokenId) internal {... */\n    tag_113:\n        /* \"AuctionContract.sol\":14026:14027  A */\n      dup4\n        /* \"AuctionContract.sol\":14026:14031  A.nft */\n      0x00\n      add\n      0x00\n      swap1\n      sload\n      swap1\n      0x0100\n      exp\n      swap1\n      div\n      0xffffffffffffffffffffffffffffffffffffffff\n      and\n        /* \"AuctionContract.sol\":14026:14044  A.nft.transferFrom */\n      0xffffffffffffffffffffffffffffffffffffffff\n      and\n      0x23b872dd\n        /* \"AuctionContract.sol\":14045:14049  from */\n      dup5\n        /* \"AuctionContract.sol\":14051:14053  to */\n      dup5\n        /* \"AuctionContract.sol\":14055:14062  tokenId */\n      dup5\n        /* \"AuctionContract.sol\":14026:14063  A.nft.transferFrom(from, to, tokenId) */\n      mload(0x40)\n      dup5\n      0xffffffff\n      and\n      0xe0\n      shl\n      dup2\n      mstore\n      0x04\n      add\n      tag_250\n      swap4\n      swap3\n      swap2\n      swap1\n      tag_195\n      jump\t// in\n    tag_250:\n      0x00\n      mload(0x40)\n      dup1\n      dup4\n      sub\n      dup2\n      0x00\n      dup8\n      dup1\n      extcodesize\n      iszero\n      dup1\n      iszero\n      tag_251\n      jumpi\n      revert(0x00, 0x00)\n    tag_251:\n      pop\n      gas\n      call\n      iszero\n      dup1\n      iszero\n      tag_253\n      jumpi\n      returndatacopy(0x00, 0x00, returndatasize)\n      revert(0x00, returndatasize)\n    tag_253:\n      pop\n      pop\n      pop\n      pop\n        /* \"AuctionContract.sol\":13750:14071  function _safeTransferNFT(Auction storage A, address from, address to, uint256 tokenId) internal {... */\n      pop\n      pop\n      pop\n      pop\n      jump\t// out\n        /* \"AuctionContract.sol\":13375:13553  function _requireAuction(uint256 id) internal view returns (Auction storage A) {... */\n    tag_147:\n        /* \"AuctionContract.sol\":13435:13452  Auction storage A */\n      0x00\n        /* \"AuctionContract.sol\":13469:13478  _auctions */\n      0x02\n        /* \"AuctionContract.sol\":13469:13482  _auctions[id] */\n      0x00\n        /* \"AuctionContract.sol\":13479:13481  id */\n      dup4\n        /* \"AuctionContract.sol\":13469:13482  _auctions[id] */\n      dup2\n      mstore\n      0x20\n      add\n      swap1\n      dup2\n      mstore\n      0x20\n      add\n      0x00\n      keccak256\n        /* \"AuctionContract.sol\":13465:13482  A = _auctions[id] */\n      swap1\n      pop\n        /* \"AuctionContract.sol\":13517:13518  0 */\n      0x00\n        /* \"AuctionContract.sol\":13497:13519  A.seller == address(0) */\n      0xffffffffffffffffffffffffffffffffffffffff\n      and\n        /* \"AuctionContract.sol\":13497:13498  A */\n      dup2\n        /* \"AuctionContract.sol\":13497:13505  A.seller */\n      0x02\n      add\n      0x00\n      swap1\n      sload\n      swap1\n      0x0100\n      exp\n      swap1\n      div\n      0xffffffffffffffffffffffffffffffffffffffff\n      and\n        /* \"AuctionContract.sol\":13497:13519  A.seller == address(0) */\n      0xffffffffffffffffffffffffffffffffffffffff\n      and\n      sub\n        /* \"AuctionContract.sol\":13493:13545  if (A.seller == address(0)) revert NoActiveAuction() */\n      tag_255\n      jumpi\n        /* \"AuctionContract.sol\":13528:13545  NoActiveAuction() */\n      mload(0x40)\n      0x568ca25700000000000000000000000000000000000000000000000000000000\n      dup2\n      mstore\n      0x04\n      add\n      mload(0x40)\n      dup1\n      swap2\n      sub\n      swap1\n      revert\n        /* \"AuctionContract.sol\":13493:13545  if (A.seller == address(0)) revert NoActiveAuction() */\n    tag_255:\n        /* \"AuctionContract.sol\":13375:13553  function _requireAuction(uint256 id) internal view returns (Auction storage A) {... */\n      swap2\n      swap1\n      pop\n      jump\t// out\n        /* \"#utility.yul\":7:84   */\n    tag_256:\n        /* \"#utility.yul\":44:51   */\n      0x00\n        /* \"#utility.yul\":73:78   */\n      dup2\n        /* \"#utility.yul\":62:78   */\n      swap1\n      pop\n        /* \"#utility.yul\":7:84   */\n      swap2\n      swap1\n      pop\n      jump\t// out\n        /* \"#utility.yul\":90:208   */\n    tag_257:\n        /* \"#utility.yul\":177:201   */\n      tag_324\n        /* \"#utility.yul\":195:200   */\n      dup2\n        /* \"#utility.yul\":177:201   */\n      tag_256\n      jump\t// in\n    tag_324:\n        /* \"#utility.yul\":172:175   */\n      dup3\n        /* \"#utility.yul\":165:202   */\n      mstore\n        /* \"#utility.yul\":90:208   */\n      pop\n      pop\n      jump\t// out\n        /* \"#utility.yul\":214:436   */\n    tag_26:\n        /* \"#utility.yul\":307:311   */\n      0x00\n        /* \"#utility.yul\":345:347   */\n      0x20\n        /* \"#utility.yul\":334:343   */\n      dup3\n        /* \"#utility.yul\":330:348   */\n      add\n        /* \"#utility.yul\":322:348   */\n      swap1\n      pop\n        /* \"#utility.yul\":358:429   */\n      tag_326\n        /* \"#utility.yul\":426:427   */\n      0x00\n        /* \"#utility.yul\":415:424   */\n      dup4\n        /* \"#utility.yul\":411:428   */\n      add\n        /* \"#utility.yul\":402:408   */\n      dup5\n        /* \"#utility.yul\":358:429   */\n      tag_257\n      jump\t// in\n    tag_326:\n        /* \"#utility.yul\":214:436   */\n      swap3\n      swap2\n      pop\n      pop\n      jump\t// out\n        /* \"#utility.yul\":442:568   */\n    tag_258:\n        /* \"#utility.yul\":479:486   */\n      0x00\n        /* \"#utility.yul\":519:561   */\n      0xffffffffffffffffffffffffffffffffffffffff\n        /* \"#utility.yul\":512:517   */\n      dup3\n        /* \"#utility.yul\":508:562   */\n      and\n        /* \"#utility.yul\":497:562   */\n      swap1\n      pop\n        /* \"#utility.yul\":442:568   */\n      swap2\n      swap1\n      pop\n      jump\t// out\n        /* \"#utility.yul\":574:634   */\n    tag_259:\n        /* \"#utility.yul\":602:605   */\n      0x00\n        /* \"#utility.yul\":623:628   */\n      dup2\n        /* \"#utility.yul\":616:628   */\n      swap1\n      pop\n        /* \"#utility.yul\":574:634   */\n      swap2\n      swap1\n      pop\n      jump\t// out\n        /* \"#utility.yul\":640:782   */\n    tag_260:\n        /* \"#utility.yul\":690:699   */\n      0x00\n        /* \"#utility.yul\":723:776   */\n      tag_330\n        /* \"#utility.yul\":741:775   */\n      tag_331\n        /* \"#utility.yul\":750:774   */\n      tag_332\n        /* \"#utility.yul\":768:773   */\n      dup5\n        /* \"#utility.yul\":750:774   */\n      tag_258\n      jump\t// in\n    tag_332:\n        /* \"#utility.yul\":741:775   */\n      tag_259\n      jump\t// in\n    tag_331:\n        /* \"#utility.yul\":723:776   */\n      tag_258\n      jump\t// in\n    tag_330:\n        /* \"#utility.yul\":710:776   */\n      swap1\n      pop\n        /* \"#utility.yul\":640:782   */\n      swap2\n      swap1\n      pop\n      jump\t// out\n        /* \"#utility.yul\":788:914   */\n    tag_261:\n        /* \"#utility.yul\":838:847   */\n      0x00\n        /* \"#utility.yul\":871:908   */\n      tag_334\n        /* \"#utility.yul\":902:907   */\n      dup3\n        /* \"#utility.yul\":871:908   */\n      tag_260\n      jump\t// in\n    tag_334:\n        /* \"#utility.yul\":858:908   */\n      swap1\n      pop\n        /* \"#utility.yul\":788:914   */\n      swap2\n      swap1\n      pop\n      jump\t// out\n        /* \"#utility.yul\":920:1060   */\n    tag_262:\n        /* \"#utility.yul\":984:993   */\n      0x00\n        /* \"#utility.yul\":1017:1054   */\n      tag_336\n        /* \"#utility.yul\":1048:1053   */\n      dup3\n        /* \"#utility.yul\":1017:1054   */\n      tag_261\n      jump\t// in\n    tag_336:\n        /* \"#utility.yul\":1004:1054   */\n      swap1\n      pop\n        /* \"#utility.yul\":920:1060   */\n      swap2\n      swap1\n      pop\n      jump\t// out\n        /* \"#utility.yul\":1066:1225   */\n    tag_263:\n        /* \"#utility.yul\":1167:1218   */\n      tag_338\n        /* \"#utility.yul\":1212:1217   */\n      dup2\n        /* \"#utility.yul\":1167:1218   */\n      tag_262\n      jump\t// in\n    tag_338:\n        /* \"#utility.yul\":1162:1165   */\n      dup3\n        /* \"#utility.yul\":1155:1219   */\n      mstore\n        /* \"#utility.yul\":1066:1225   */\n      pop\n      pop\n      jump\t// out\n        /* \"#utility.yul\":1231:1481   */\n    tag_41:\n        /* \"#utility.yul\":1338:1342   */\n      0x00\n        /* \"#utility.yul\":1376:1378   */\n      0x20\n        /* \"#utility.yul\":1365:1374   */\n      dup3\n        /* \"#utility.yul\":1361:1379   */\n      add\n        /* \"#utility.yul\":1353:1379   */\n      swap1\n      pop\n        /* \"#utility.yul\":1389:1474   */\n      tag_340\n        /* \"#utility.yul\":1471:1472   */\n      0x00\n        /* \"#utility.yul\":1460:1469   */\n      dup4\n        /* \"#utility.yul\":1456:1473   */\n      add\n        /* \"#utility.yul\":1447:1453   */\n      dup5\n        /* \"#utility.yul\":1389:1474   */\n      tag_263\n      jump\t// in\n    tag_340:\n        /* \"#utility.yul\":1231:1481   */\n      swap3\n      swap2\n      pop\n      pop\n      jump\t// out\n        /* \"#utility.yul\":1568:1685   */\n    tag_265:\n        /* \"#utility.yul\":1677:1678   */\n      0x00\n        /* \"#utility.yul\":1674:1675   */\n      0x00\n        /* \"#utility.yul\":1667:1679   */\n      revert\n        /* \"#utility.yul\":1814:1936   */\n    tag_267:\n        /* \"#utility.yul\":1887:1911   */\n      tag_345\n        /* \"#utility.yul\":1905:1910   */\n      dup2\n        /* \"#utility.yul\":1887:1911   */\n      tag_256\n      jump\t// in\n    tag_345:\n        /* \"#utility.yul\":1880:1885   */\n      dup2\n        /* \"#utility.yul\":1877:1912   */\n      eq\n        /* \"#utility.yul\":1867:1930   */\n      tag_346\n      jumpi\n        /* \"#utility.yul\":1926:1927   */\n      0x00\n        /* \"#utility.yul\":1923:1924   */\n      0x00\n        /* \"#utility.yul\":1916:1928   */\n      revert\n        /* \"#utility.yul\":1867:1930   */\n    tag_346:\n        /* \"#utility.yul\":1814:1936   */\n      pop\n      jump\t// out\n        /* \"#utility.yul\":1942:2081   */\n    tag_268:\n        /* \"#utility.yul\":1988:1993   */\n      0x00\n        /* \"#utility.yul\":2026:2032   */\n      dup2\n        /* \"#utility.yul\":2013:2033   */\n      calldataload\n        /* \"#utility.yul\":2004:2033   */\n      swap1\n      pop\n        /* \"#utility.yul\":2042:2075   */\n      tag_348\n        /* \"#utility.yul\":2069:2074   */\n      dup2\n        /* \"#utility.yul\":2042:2075   */\n      tag_267\n      jump\t// in\n    tag_348:\n        /* \"#utility.yul\":1942:2081   */\n      swap3\n      swap2\n      pop\n      pop\n      jump\t// out\n        /* \"#utility.yul\":2087:2164   */\n    tag_269:\n        /* \"#utility.yul\":2124:2131   */\n      0x00\n        /* \"#utility.yul\":2153:2158   */\n      dup2\n        /* \"#utility.yul\":2142:2158   */\n      swap1\n      pop\n        /* \"#utility.yul\":2087:2164   */\n      swap2\n      swap1\n      pop\n      jump\t// out\n        /* \"#utility.yul\":2170:2292   */\n    tag_270:\n        /* \"#utility.yul\":2243:2267   */\n      tag_351\n        /* \"#utility.yul\":2261:2266   */\n      dup2\n        /* \"#utility.yul\":2243:2267   */\n      tag_269\n      jump\t// in\n    tag_351:\n        /* \"#utility.yul\":2236:2241   */\n      dup2\n        /* \"#utility.yul\":2233:2268   */\n      eq\n        /* \"#utility.yul\":2223:2286   */\n      tag_352\n      jumpi\n        /* \"#utility.yul\":2282:2283   */\n      0x00\n        /* \"#utility.yul\":2279:2280   */\n      0x00\n        /* \"#utility.yul\":2272:2284   */\n      revert\n        /* \"#utility.yul\":2223:2286   */\n    tag_352:\n        /* \"#utility.yul\":2170:2292   */\n      pop\n      jump\t// out\n        /* \"#utility.yul\":2298:2437   */\n    tag_271:\n        /* \"#utility.yul\":2344:2349   */\n      0x00\n        /* \"#utility.yul\":2382:2388   */\n      dup2\n        /* \"#utility.yul\":2369:2389   */\n      calldataload\n        /* \"#utility.yul\":2360:2389   */\n      swap1\n      pop\n        /* \"#utility.yul\":2398:2431   */\n      tag_354\n        /* \"#utility.yul\":2425:2430   */\n      dup2\n        /* \"#utility.yul\":2398:2431   */\n      tag_270\n      jump\t// in\n    tag_354:\n        /* \"#utility.yul\":2298:2437   */\n      swap3\n      swap2\n      pop\n      pop\n      jump\t// out\n        /* \"#utility.yul\":2443:2917   */\n    tag_45:\n        /* \"#utility.yul\":2511:2517   */\n      0x00\n        /* \"#utility.yul\":2519:2525   */\n      0x00\n        /* \"#utility.yul\":2568:2570   */\n      0x40\n        /* \"#utility.yul\":2556:2565   */\n      dup4\n        /* \"#utility.yul\":2547:2554   */\n      dup6\n        /* \"#utility.yul\":2543:2566   */\n      sub\n        /* \"#utility.yul\":2539:2571   */\n      slt\n        /* \"#utility.yul\":2536:2655   */\n      iszero\n      tag_356\n      jumpi\n        /* \"#utility.yul\":2574:2653   */\n      tag_357\n      tag_265\n      jump\t// in\n    tag_357:\n        /* \"#utility.yul\":2536:2655   */\n    tag_356:\n        /* \"#utility.yul\":2694:2695   */\n      0x00\n        /* \"#utility.yul\":2719:2772   */\n      tag_358\n        /* \"#utility.yul\":2764:2771   */\n      dup6\n        /* \"#utility.yul\":2755:2761   */\n      dup3\n        /* \"#utility.yul\":2744:2753   */\n      dup7\n        /* \"#utility.yul\":2740:2762   */\n      add\n        /* \"#utility.yul\":2719:2772   */\n      tag_268\n      jump\t// in\n    tag_358:\n        /* \"#utility.yul\":2709:2772   */\n      swap3\n      pop\n        /* \"#utility.yul\":2665:2782   */\n      pop\n        /* \"#utility.yul\":2821:2823   */\n      0x20\n        /* \"#utility.yul\":2847:2900   */\n      tag_359\n        /* \"#utility.yul\":2892:2899   */\n      dup6\n        /* \"#utility.yul\":2883:2889   */\n      dup3\n        /* \"#utility.yul\":2872:2881   */\n      dup7\n        /* \"#utility.yul\":2868:2890   */\n      add\n        /* \"#utility.yul\":2847:2900   */\n      tag_271\n      jump\t// in\n    tag_359:\n        /* \"#utility.yul\":2837:2900   */\n      swap2\n      pop\n        /* \"#utility.yul\":2792:2910   */\n      pop\n        /* \"#utility.yul\":2443:2917   */\n      swap3\n      pop\n      swap3\n      swap1\n      pop\n      jump\t// out\n        /* \"#utility.yul\":2923:3252   */\n    tag_50:\n        /* \"#utility.yul\":2982:2988   */\n      0x00\n        /* \"#utility.yul\":3031:3033   */\n      0x20\n        /* \"#utility.yul\":3019:3028   */\n      dup3\n        /* \"#utility.yul\":3010:3017   */\n      dup5\n        /* \"#utility.yul\":3006:3029   */\n      sub\n        /* \"#utility.yul\":3002:3034   */\n      slt\n        /* \"#utility.yul\":2999:3118   */\n      iszero\n      tag_361\n      jumpi\n        /* \"#utility.yul\":3037:3116   */\n      tag_362\n      tag_265\n      jump\t// in\n    tag_362:\n        /* \"#utility.yul\":2999:3118   */\n    tag_361:\n        /* \"#utility.yul\":3157:3158   */\n      0x00\n        /* \"#utility.yul\":3182:3235   */\n      tag_363\n        /* \"#utility.yul\":3227:3234   */\n      dup5\n        /* \"#utility.yul\":3218:3224   */\n      dup3\n        /* \"#utility.yul\":3207:3216   */\n      dup6\n        /* \"#utility.yul\":3203:3225   */\n      add\n        /* \"#utility.yul\":3182:3235   */\n      tag_268\n      jump\t// in\n    tag_363:\n        /* \"#utility.yul\":3172:3235   */\n      swap2\n      pop\n        /* \"#utility.yul\":3128:3245   */\n      pop\n        /* \"#utility.yul\":2923:3252   */\n      swap3\n      swap2\n      pop\n      pop\n      jump\t// out\n        /* \"#utility.yul\":3258:3354   */\n    tag_272:\n        /* \"#utility.yul\":3295:3302   */\n      0x00\n        /* \"#utility.yul\":3324:3348   */\n      tag_365\n        /* \"#utility.yul\":3342:3347   */\n      dup3\n        /* \"#utility.yul\":3324:3348   */\n      tag_258\n      jump\t// in\n    tag_365:\n        /* \"#utility.yul\":3313:3348   */\n      swap1\n      pop\n        /* \"#utility.yul\":3258:3354   */\n      swap2\n      swap1\n      pop\n      jump\t// out\n        /* \"#utility.yul\":3360:3478   */\n    tag_273:\n        /* \"#utility.yul\":3447:3471   */\n      tag_367\n        /* \"#utility.yul\":3465:3470   */\n      dup2\n        /* \"#utility.yul\":3447:3471   */\n      tag_272\n      jump\t// in\n    tag_367:\n        /* \"#utility.yul\":3442:3445   */\n      dup3\n        /* \"#utility.yul\":3435:3472   */\n      mstore\n        /* \"#utility.yul\":3360:3478   */\n      pop\n      pop\n      jump\t// out\n        /* \"#utility.yul\":3484:3585   */\n    tag_274:\n        /* \"#utility.yul\":3520:3527   */\n      0x00\n        /* \"#utility.yul\":3560:3578   */\n      0xffffffffffffffff\n        /* \"#utility.yul\":3553:3558   */\n      dup3\n        /* \"#utility.yul\":3549:3579   */\n      and\n        /* \"#utility.yul\":3538:3579   */\n      swap1\n      pop\n        /* \"#utility.yul\":3484:3585   */\n      swap2\n      swap1\n      pop\n      jump\t// out\n        /* \"#utility.yul\":3591:3706   */\n    tag_275:\n        /* \"#utility.yul\":3676:3699   */\n      tag_370\n        /* \"#utility.yul\":3693:3698   */\n      dup2\n        /* \"#utility.yul\":3676:3699   */\n      tag_274\n      jump\t// in\n    tag_370:\n        /* \"#utility.yul\":3671:3674   */\n      dup3\n        /* \"#utility.yul\":3664:3700   */\n      mstore\n        /* \"#utility.yul\":3591:3706   */\n      pop\n      pop\n      jump\t// out\n        /* \"#utility.yul\":3712:4150   */\n    tag_53:\n        /* \"#utility.yul\":3859:3863   */\n      0x00\n        /* \"#utility.yul\":3897:3899   */\n      0x60\n        /* \"#utility.yul\":3886:3895   */\n      dup3\n        /* \"#utility.yul\":3882:3900   */\n      add\n        /* \"#utility.yul\":3874:3900   */\n      swap1\n      pop\n        /* \"#utility.yul\":3910:3981   */\n      tag_372\n        /* \"#utility.yul\":3978:3979   */\n      0x00\n        /* \"#utility.yul\":3967:3976   */\n      dup4\n        /* \"#utility.yul\":3963:3980   */\n      add\n        /* \"#utility.yul\":3954:3960   */\n      dup7\n        /* \"#utility.yul\":3910:3981   */\n      tag_273\n      jump\t// in\n    tag_372:\n        /* \"#utility.yul\":3991:4063   */\n      tag_373\n        /* \"#utility.yul\":4059:4061   */\n      0x20\n        /* \"#utility.yul\":4048:4057   */\n      dup4\n        /* \"#utility.yul\":4044:4062   */\n      add\n        /* \"#utility.yul\":4035:4041   */\n      dup6\n        /* \"#utility.yul\":3991:4063   */\n      tag_257\n      jump\t// in\n    tag_373:\n        /* \"#utility.yul\":4073:4143   */\n      tag_374\n        /* \"#utility.yul\":4139:4141   */\n      0x40\n        /* \"#utility.yul\":4128:4137   */\n      dup4\n        /* \"#utility.yul\":4124:4142   */\n      add\n        /* \"#utility.yul\":4115:4121   */\n      dup5\n        /* \"#utility.yul\":4073:4143   */\n      tag_275\n      jump\t// in\n    tag_374:\n        /* \"#utility.yul\":3712:4150   */\n      swap5\n      swap4\n      pop\n      pop\n      pop\n      pop\n      jump\t// out\n        /* \"#utility.yul\":4156:4278   */\n    tag_276:\n        /* \"#utility.yul\":4229:4253   */\n      tag_376\n        /* \"#utility.yul\":4247:4252   */\n      dup2\n        /* \"#utility.yul\":4229:4253   */\n      tag_272\n      jump\t// in\n    tag_376:\n        /* \"#utility.yul\":4222:4227   */\n      dup2\n        /* \"#utility.yul\":4219:4254   */\n      eq\n        /* \"#utility.yul\":4209:4272   */\n      tag_377\n      jumpi\n        /* \"#utility.yul\":4268:4269   */\n      0x00\n        /* \"#utility.yul\":4265:4266   */\n      0x00\n        /* \"#utility.yul\":4258:4270   */\n      revert\n        /* \"#utility.yul\":4209:4272   */\n    tag_377:\n        /* \"#utility.yul\":4156:4278   */\n      pop\n      jump\t// out\n        /* \"#utility.yul\":4284:4423   */\n    tag_277:\n        /* \"#utility.yul\":4330:4335   */\n      0x00\n        /* \"#utility.yul\":4368:4374   */\n      dup2\n        /* \"#utility.yul\":4355:4375   */\n      calldataload\n        /* \"#utility.yul\":4346:4375   */\n      swap1\n      pop\n        /* \"#utility.yul\":4384:4417   */\n      tag_379\n        /* \"#utility.yul\":4411:4416   */\n      dup2\n        /* \"#utility.yul\":4384:4417   */\n      tag_276\n      jump\t// in\n    tag_379:\n        /* \"#utility.yul\":4284:4423   */\n      swap3\n      swap2\n      pop\n      pop\n      jump\t// out\n        /* \"#utility.yul\":4429:4903   */\n    tag_57:\n        /* \"#utility.yul\":4497:4503   */\n      0x00\n        /* \"#utility.yul\":4505:4511   */\n      0x00\n        /* \"#utility.yul\":4554:4556   */\n      0x40\n        /* \"#utility.yul\":4542:4551   */\n      dup4\n        /* \"#utility.yul\":4533:4540   */\n      dup6\n        /* \"#utility.yul\":4529:4552   */\n      sub\n        /* \"#utility.yul\":4525:4557   */\n      slt\n        /* \"#utility.yul\":4522:4641   */\n      iszero\n      tag_381\n      jumpi\n        /* \"#utility.yul\":4560:4639   */\n      tag_382\n      tag_265\n      jump\t// in\n    tag_382:\n        /* \"#utility.yul\":4522:4641   */\n    tag_381:\n        /* \"#utility.yul\":4680:4681   */\n      0x00\n        /* \"#utility.yul\":4705:4758   */\n      tag_383\n        /* \"#utility.yul\":4750:4757   */\n      dup6\n        /* \"#utility.yul\":4741:4747   */\n      dup3\n        /* \"#utility.yul\":4730:4739   */\n      dup7\n        /* \"#utility.yul\":4726:4748   */\n      add\n        /* \"#utility.yul\":4705:4758   */\n      tag_268\n      jump\t// in\n    tag_383:\n        /* \"#utility.yul\":4695:4758   */\n      swap3\n      pop\n        /* \"#utility.yul\":4651:4768   */\n      pop\n        /* \"#utility.yul\":4807:4809   */\n      0x20\n        /* \"#utility.yul\":4833:4886   */\n      tag_384\n        /* \"#utility.yul\":4878:4885   */\n      dup6\n        /* \"#utility.yul\":4869:4875   */\n      dup3\n        /* \"#utility.yul\":4858:4867   */\n      dup7\n        /* \"#utility.yul\":4854:4876   */\n      add\n        /* \"#utility.yul\":4833:4886   */\n      tag_277\n      jump\t// in\n    tag_384:\n        /* \"#utility.yul\":4823:4886   */\n      swap2\n      pop\n        /* \"#utility.yul\":4778:4896   */\n      pop\n        /* \"#utility.yul\":4429:4903   */\n      swap3\n      pop\n      swap3\n      swap1\n      pop\n      jump\t// out\n        /* \"#utility.yul\":4909:5238   */\n    tag_63:\n        /* \"#utility.yul\":4968:4974   */\n      0x00\n        /* \"#utility.yul\":5017:5019   */\n      0x20\n        /* \"#utility.yul\":5005:5014   */\n      dup3\n        /* \"#utility.yul\":4996:5003   */\n      dup5\n        /* \"#utility.yul\":4992:5015   */\n      sub\n        /* \"#utility.yul\":4988:5020   */\n      slt\n        /* \"#utility.yul\":4985:5104   */\n      iszero\n      tag_386\n      jumpi\n        /* \"#utility.yul\":5023:5102   */\n      tag_387\n      tag_265\n      jump\t// in\n    tag_387:\n        /* \"#utility.yul\":4985:5104   */\n    tag_386:\n        /* \"#utility.yul\":5143:5144   */\n      0x00\n        /* \"#utility.yul\":5168:5221   */\n      tag_388\n        /* \"#utility.yul\":5213:5220   */\n      dup5\n        /* \"#utility.yul\":5204:5210   */\n      dup3\n        /* \"#utility.yul\":5193:5202   */\n      dup6\n        /* \"#utility.yul\":5189:5211   */\n      add\n        /* \"#utility.yul\":5168:5221   */\n      tag_271\n      jump\t// in\n    tag_388:\n        /* \"#utility.yul\":5158:5221   */\n      swap2\n      pop\n        /* \"#utility.yul\":5114:5231   */\n      pop\n        /* \"#utility.yul\":4909:5238   */\n      swap3\n      swap2\n      pop\n      pop\n      jump\t// out\n        /* \"#utility.yul\":5244:5364   */\n    tag_278:\n        /* \"#utility.yul\":5316:5339   */\n      tag_390\n        /* \"#utility.yul\":5333:5338   */\n      dup2\n        /* \"#utility.yul\":5316:5339   */\n      tag_274\n      jump\t// in\n    tag_390:\n        /* \"#utility.yul\":5309:5314   */\n      dup2\n        /* \"#utility.yul\":5306:5340   */\n      eq\n        /* \"#utility.yul\":5296:5358   */\n      tag_391\n      jumpi\n        /* \"#utility.yul\":5354:5355   */\n      0x00\n        /* \"#utility.yul\":5351:5352   */\n      0x00\n        /* \"#utility.yul\":5344:5356   */\n      revert\n        /* \"#utility.yul\":5296:5358   */\n    tag_391:\n        /* \"#utility.yul\":5244:5364   */\n      pop\n      jump\t// out\n        /* \"#utility.yul\":5370:5507   */\n    tag_279:\n        /* \"#utility.yul\":5415:5420   */\n      0x00\n        /* \"#utility.yul\":5453:5459   */\n      dup2\n        /* \"#utility.yul\":5440:5460   */\n      calldataload\n        /* \"#utility.yul\":5431:5460   */\n      swap1\n      pop\n        /* \"#utility.yul\":5469:5501   */\n      tag_393\n        /* \"#utility.yul\":5495:5500   */\n      dup2\n        /* \"#utility.yul\":5469:5501   */\n      tag_278\n      jump\t// in\n    tag_393:\n        /* \"#utility.yul\":5370:5507   */\n      swap3\n      swap2\n      pop\n      pop\n      jump\t// out\n        /* \"#utility.yul\":5513:6418   */\n    tag_68:\n        /* \"#utility.yul\":5605:5611   */\n      0x00\n        /* \"#utility.yul\":5613:5619   */\n      0x00\n        /* \"#utility.yul\":5621:5627   */\n      0x00\n        /* \"#utility.yul\":5629:5635   */\n      0x00\n        /* \"#utility.yul\":5637:5643   */\n      0x00\n        /* \"#utility.yul\":5686:5689   */\n      0xa0\n        /* \"#utility.yul\":5674:5683   */\n      dup7\n        /* \"#utility.yul\":5665:5672   */\n      dup9\n        /* \"#utility.yul\":5661:5684   */\n      sub\n        /* \"#utility.yul\":5657:5690   */\n      slt\n        /* \"#utility.yul\":5654:5774   */\n      iszero\n      tag_395\n      jumpi\n        /* \"#utility.yul\":5693:5772   */\n      tag_396\n      tag_265\n      jump\t// in\n    tag_396:\n        /* \"#utility.yul\":5654:5774   */\n    tag_395:\n        /* \"#utility.yul\":5813:5814   */\n      0x00\n        /* \"#utility.yul\":5838:5891   */\n      tag_397\n        /* \"#utility.yul\":5883:5890   */\n      dup9\n        /* \"#utility.yul\":5874:5880   */\n      dup3\n        /* \"#utility.yul\":5863:5872   */\n      dup10\n        /* \"#utility.yul\":5859:5881   */\n      add\n        /* \"#utility.yul\":5838:5891   */\n      tag_268\n      jump\t// in\n    tag_397:\n        /* \"#utility.yul\":5828:5891   */\n      swap6\n      pop\n        /* \"#utility.yul\":5784:5901   */\n      pop\n        /* \"#utility.yul\":5940:5942   */\n      0x20\n        /* \"#utility.yul\":5966:6019   */\n      tag_398\n        /* \"#utility.yul\":6011:6018   */\n      dup9\n        /* \"#utility.yul\":6002:6008   */\n      dup3\n        /* \"#utility.yul\":5991:6000   */\n      dup10\n        /* \"#utility.yul\":5987:6009   */\n      add\n        /* \"#utility.yul\":5966:6019   */\n      tag_268\n      jump\t// in\n    tag_398:\n        /* \"#utility.yul\":5956:6019   */\n      swap5\n      pop\n        /* \"#utility.yul\":5911:6029   */\n      pop\n        /* \"#utility.yul\":6068:6070   */\n      0x40\n        /* \"#utility.yul\":6094:6146   */\n      tag_399\n        /* \"#utility.yul\":6138:6145   */\n      dup9\n        /* \"#utility.yul\":6129:6135   */\n      dup3\n        /* \"#utility.yul\":6118:6127   */\n      dup10\n        /* \"#utility.yul\":6114:6136   */\n      add\n        /* \"#utility.yul\":6094:6146   */\n      tag_279\n      jump\t// in\n    tag_399:\n        /* \"#utility.yul\":6084:6146   */\n      swap4\n      pop\n        /* \"#utility.yul\":6039:6156   */\n      pop\n        /* \"#utility.yul\":6195:6197   */\n      0x60\n        /* \"#utility.yul\":6221:6273   */\n      tag_400\n        /* \"#utility.yul\":6265:6272   */\n      dup9\n        /* \"#utility.yul\":6256:6262   */\n      dup3\n        /* \"#utility.yul\":6245:6254   */\n      dup10\n        /* \"#utility.yul\":6241:6263   */\n      add\n        /* \"#utility.yul\":6221:6273   */\n      tag_279\n      jump\t// in\n    tag_400:\n        /* \"#utility.yul\":6211:6273   */\n      swap3\n      pop\n        /* \"#utility.yul\":6166:6283   */\n      pop\n        /* \"#utility.yul\":6322:6325   */\n      0x80\n        /* \"#utility.yul\":6349:6401   */\n      tag_401\n        /* \"#utility.yul\":6393:6400   */\n      dup9\n        /* \"#utility.yul\":6384:6390   */\n      dup3\n        /* \"#utility.yul\":6373:6382   */\n      dup10\n        /* \"#utility.yul\":6369:6391   */\n      add\n        /* \"#utility.yul\":6349:6401   */\n      tag_279\n      jump\t// in\n    tag_401:\n        /* \"#utility.yul\":6339:6401   */\n      swap2\n      pop\n        /* \"#utility.yul\":6293:6411   */\n      pop\n        /* \"#utility.yul\":5513:6418   */\n      swap3\n      swap6\n      pop\n      swap3\n      swap6\n      swap1\n      swap4\n      pop\n      jump\t// out\n        /* \"#utility.yul\":6424:6542   */\n    tag_280:\n        /* \"#utility.yul\":6511:6535   */\n      tag_403\n        /* \"#utility.yul\":6529:6534   */\n      dup2\n        /* \"#utility.yul\":6511:6535   */\n      tag_269\n      jump\t// in\n    tag_403:\n        /* \"#utility.yul\":6506:6509   */\n      dup3\n        /* \"#utility.yul\":6499:6536   */\n      mstore\n        /* \"#utility.yul\":6424:6542   */\n      pop\n      pop\n      jump\t// out\n        /* \"#utility.yul\":6548:6770   */\n    tag_75:\n        /* \"#utility.yul\":6641:6645   */\n      0x00\n        /* \"#utility.yul\":6679:6681   */\n      0x20\n        /* \"#utility.yul\":6668:6677   */\n      dup3\n        /* \"#utility.yul\":6664:6682   */\n      add\n        /* \"#utility.yul\":6656:6682   */\n      swap1\n      pop\n        /* \"#utility.yul\":6692:6763   */\n      tag_405\n        /* \"#utility.yul\":6760:6761   */\n      0x00\n        /* \"#utility.yul\":6749:6758   */\n      dup4\n        /* \"#utility.yul\":6745:6762   */\n      add\n        /* \"#utility.yul\":6736:6742   */\n      dup5\n        /* \"#utility.yul\":6692:6763   */\n      tag_280\n      jump\t// in\n    tag_405:\n        /* \"#utility.yul\":6548:6770   */\n      swap3\n      swap2\n      pop\n      pop\n      jump\t// out\n        /* \"#utility.yul\":6776:6994   */\n    tag_81:\n        /* \"#utility.yul\":6867:6871   */\n      0x00\n        /* \"#utility.yul\":6905:6907   */\n      0x20\n        /* \"#utility.yul\":6894:6903   */\n      dup3\n        /* \"#utility.yul\":6890:6908   */\n      add\n        /* \"#utility.yul\":6882:6908   */\n      swap1\n      pop\n        /* \"#utility.yul\":6918:6987   */\n      tag_407\n        /* \"#utility.yul\":6984:6985   */\n      0x00\n        /* \"#utility.yul\":6973:6982   */\n      dup4\n        /* \"#utility.yul\":6969:6986   */\n      add\n        /* \"#utility.yul\":6960:6966   */\n      dup5\n        /* \"#utility.yul\":6918:6987   */\n      tag_275\n      jump\t// in\n    tag_407:\n        /* \"#utility.yul\":6776:6994   */\n      swap3\n      swap2\n      pop\n      pop\n      jump\t// out\n        /* \"#utility.yul\":7000:7099   */\n    tag_281:\n        /* \"#utility.yul\":7052:7058   */\n      0x00\n        /* \"#utility.yul\":7086:7091   */\n      dup2\n        /* \"#utility.yul\":7080:7092   */\n      mload\n        /* \"#utility.yul\":7070:7092   */\n      swap1\n      pop\n        /* \"#utility.yul\":7000:7099   */\n      swap2\n      swap1\n      pop\n      jump\t// out\n        /* \"#utility.yul\":7105:7274   */\n    tag_282:\n        /* \"#utility.yul\":7189:7200   */\n      0x00\n        /* \"#utility.yul\":7223:7229   */\n      dup3\n        /* \"#utility.yul\":7218:7221   */\n      dup3\n        /* \"#utility.yul\":7211:7230   */\n      mstore\n        /* \"#utility.yul\":7263:7267   */\n      0x20\n        /* \"#utility.yul\":7258:7261   */\n      dup3\n        /* \"#utility.yul\":7254:7268   */\n      add\n        /* \"#utility.yul\":7239:7268   */\n      swap1\n      pop\n        /* \"#utility.yul\":7105:7274   */\n      swap3\n      swap2\n      pop\n      pop\n      jump\t// out\n        /* \"#utility.yul\":7280:7419   */\n    tag_283:\n        /* \"#utility.yul\":7369:7375   */\n      dup3\n        /* \"#utility.yul\":7364:7367   */\n      dup2\n        /* \"#utility.yul\":7359:7362   */\n      dup4\n        /* \"#utility.yul\":7353:7376   */\n      mcopy\n        /* \"#utility.yul\":7410:7411   */\n      0x00\n        /* \"#utility.yul\":7401:7407   */\n      dup4\n        /* \"#utility.yul\":7396:7399   */\n      dup4\n        /* \"#utility.yul\":7392:7408   */\n      add\n        /* \"#utility.yul\":7385:7412   */\n      mstore\n        /* \"#utility.yul\":7280:7419   */\n      pop\n      pop\n      pop\n      jump\t// out\n        /* \"#utility.yul\":7425:7527   */\n    tag_284:\n        /* \"#utility.yul\":7466:7472   */\n      0x00\n        /* \"#utility.yul\":7517:7519   */\n      0x1f\n        /* \"#utility.yul\":7513:7520   */\n      not\n        /* \"#utility.yul\":7508:7510   */\n      0x1f\n        /* \"#utility.yul\":7501:7506   */\n      dup4\n        /* \"#utility.yul\":7497:7511   */\n      add\n        /* \"#utility.yul\":7493:7521   */\n      and\n        /* \"#utility.yul\":7483:7521   */\n      swap1\n      pop\n        /* \"#utility.yul\":7425:7527   */\n      swap2\n      swap1\n      pop\n      jump\t// out\n        /* \"#utility.yul\":7533:7910   */\n    tag_285:\n        /* \"#utility.yul\":7621:7624   */\n      0x00\n        /* \"#utility.yul\":7649:7688   */\n      tag_413\n        /* \"#utility.yul\":7682:7687   */\n      dup3\n        /* \"#utility.yul\":7649:7688   */\n      tag_281\n      jump\t// in\n    tag_413:\n        /* \"#utility.yul\":7704:7775   */\n      tag_414\n        /* \"#utility.yul\":7768:7774   */\n      dup2\n        /* \"#utility.yul\":7763:7766   */\n      dup6\n        /* \"#utility.yul\":7704:7775   */\n      tag_282\n      jump\t// in\n    tag_414:\n        /* \"#utility.yul\":7697:7775   */\n      swap4\n      pop\n        /* \"#utility.yul\":7784:7849   */\n      tag_415\n        /* \"#utility.yul\":7842:7848   */\n      dup2\n        /* \"#utility.yul\":7837:7840   */\n      dup6\n        /* \"#utility.yul\":7830:7834   */\n      0x20\n        /* \"#utility.yul\":7823:7828   */\n      dup7\n        /* \"#utility.yul\":7819:7835   */\n      add\n        /* \"#utility.yul\":7784:7849   */\n      tag_283\n      jump\t// in\n    tag_415:\n        /* \"#utility.yul\":7874:7903   */\n      tag_416\n        /* \"#utility.yul\":7896:7902   */\n      dup2\n        /* \"#utility.yul\":7874:7903   */\n      tag_284\n      jump\t// in\n    tag_416:\n        /* \"#utility.yul\":7869:7872   */\n      dup5\n        /* \"#utility.yul\":7865:7904   */\n      add\n        /* \"#utility.yul\":7858:7904   */\n      swap2\n      pop\n        /* \"#utility.yul\":7625:7910   */\n      pop\n        /* \"#utility.yul\":7533:7910   */\n      swap3\n      swap2\n      pop\n      pop\n      jump\t// out\n        /* \"#utility.yul\":7916:8229   */\n    tag_91:\n        /* \"#utility.yul\":8029:8033   */\n      0x00\n        /* \"#utility.yul\":8067:8069   */\n      0x20\n        /* \"#utility.yul\":8056:8065   */\n      dup3\n        /* \"#utility.yul\":8052:8070   */\n      add\n        /* \"#utility.yul\":8044:8070   */\n      swap1\n      pop\n        /* \"#utility.yul\":8116:8125   */\n      dup2\n        /* \"#utility.yul\":8110:8114   */\n      dup2\n        /* \"#utility.yul\":8106:8126   */\n      sub\n        /* \"#utility.yul\":8102:8103   */\n      0x00\n        /* \"#utility.yul\":8091:8100   */\n      dup4\n        /* \"#utility.yul\":8087:8104   */\n      add\n        /* \"#utility.yul\":8080:8127   */\n      mstore\n        /* \"#utility.yul\":8144:8222   */\n      tag_418\n        /* \"#utility.yul\":8217:8221   */\n      dup2\n        /* \"#utility.yul\":8208:8214   */\n      dup5\n        /* \"#utility.yul\":8144:8222   */\n      tag_285\n      jump\t// in\n    tag_418:\n        /* \"#utility.yul\":8136:8222   */\n      swap1\n      pop\n        /* \"#utility.yul\":7916:8229   */\n      swap3\n      swap2\n      pop\n      pop\n      jump\t// out\n        /* \"#utility.yul\":8235:8665   */\n    tag_101:\n        /* \"#utility.yul\":8378:8382   */\n      0x00\n        /* \"#utility.yul\":8416:8418   */\n      0x60\n        /* \"#utility.yul\":8405:8414   */\n      dup3\n        /* \"#utility.yul\":8401:8419   */\n      add\n        /* \"#utility.yul\":8393:8419   */\n      swap1\n      pop\n        /* \"#utility.yul\":8429:8498   */\n      tag_420\n        /* \"#utility.yul\":8495:8496   */\n      0x00\n        /* \"#utility.yul\":8484:8493   */\n      dup4\n        /* \"#utility.yul\":8480:8497   */\n      add\n        /* \"#utility.yul\":8471:8477   */\n      dup7\n        /* \"#utility.yul\":8429:8498   */\n      tag_275\n      jump\t// in\n    tag_420:\n        /* \"#utility.yul\":8508:8578   */\n      tag_421\n        /* \"#utility.yul\":8574:8576   */\n      0x20\n        /* \"#utility.yul\":8563:8572   */\n      dup4\n        /* \"#utility.yul\":8559:8577   */\n      add\n        /* \"#utility.yul\":8550:8556   */\n      dup6\n        /* \"#utility.yul\":8508:8578   */\n      tag_275\n      jump\t// in\n    tag_421:\n        /* \"#utility.yul\":8588:8658   */\n      tag_422\n        /* \"#utility.yul\":8654:8656   */\n      0x40\n        /* \"#utility.yul\":8643:8652   */\n      dup4\n        /* \"#utility.yul\":8639:8657   */\n      add\n        /* \"#utility.yul\":8630:8636   */\n      dup5\n        /* \"#utility.yul\":8588:8658   */\n      tag_275\n      jump\t// in\n    tag_422:\n        /* \"#utility.yul\":8235:8665   */\n      swap5\n      swap4\n      pop\n      pop\n      pop\n      pop\n      jump\t// out\n        /* \"#utility.yul\":8671:8838   */\n    tag_286:\n        /* \"#utility.yul\":8811:8830   */\n      0x616c72656164792066696e616c697a6564000000000000000000000000000000\n        /* \"#utility.yul\":8807:8808   */\n      0x00\n        /* \"#utility.yul\":8799:8805   */\n      dup3\n        /* \"#utility.yul\":8795:8809   */\n      add\n        /* \"#utility.yul\":8788:8831   */\n      mstore\n        /* \"#utility.yul\":8671:8838   */\n      pop\n      jump\t// out\n        /* \"#utility.yul\":8844:9210   */\n    tag_287:\n        /* \"#utility.yul\":8986:8989   */\n      0x00\n        /* \"#utility.yul\":9007:9074   */\n      tag_425\n        /* \"#utility.yul\":9071:9073   */\n      0x11\n        /* \"#utility.yul\":9066:9069   */\n      dup4\n        /* \"#utility.yul\":9007:9074   */\n      tag_282\n      jump\t// in\n    tag_425:\n        /* \"#utility.yul\":9000:9074   */\n      swap2\n      pop\n        /* \"#utility.yul\":9083:9176   */\n      tag_426\n        /* \"#utility.yul\":9172:9175   */\n      dup3\n        /* \"#utility.yul\":9083:9176   */\n      tag_286\n      jump\t// in\n    tag_426:\n        /* \"#utility.yul\":9201:9203   */\n      0x20\n        /* \"#utility.yul\":9196:9199   */\n      dup3\n        /* \"#utility.yul\":9192:9204   */\n      add\n        /* \"#utility.yul\":9185:9204   */\n      swap1\n      pop\n        /* \"#utility.yul\":8844:9210   */\n      swap2\n      swap1\n      pop\n      jump\t// out\n        /* \"#utility.yul\":9216:9635   */\n    tag_110:\n        /* \"#utility.yul\":9382:9386   */\n      0x00\n        /* \"#utility.yul\":9420:9422   */\n      0x20\n        /* \"#utility.yul\":9409:9418   */\n      dup3\n        /* \"#utility.yul\":9405:9423   */\n      add\n        /* \"#utility.yul\":9397:9423   */\n      swap1\n      pop\n        /* \"#utility.yul\":9469:9478   */\n      dup2\n        /* \"#utility.yul\":9463:9467   */\n      dup2\n        /* \"#utility.yul\":9459:9479   */\n      sub\n        /* \"#utility.yul\":9455:9456   */\n      0x00\n        /* \"#utility.yul\":9444:9453   */\n      dup4\n        /* \"#utility.yul\":9440:9457   */\n      add\n        /* \"#utility.yul\":9433:9480   */\n      mstore\n        /* \"#utility.yul\":9497:9628   */\n      tag_428\n        /* \"#utility.yul\":9623:9627   */\n      dup2\n        /* \"#utility.yul\":9497:9628   */\n      tag_287\n      jump\t// in\n    tag_428:\n        /* \"#utility.yul\":9489:9628   */\n      swap1\n      pop\n        /* \"#utility.yul\":9216:9635   */\n      swap2\n      swap1\n      pop\n      jump\t// out\n        /* \"#utility.yul\":9641:9821   */\n    tag_288:\n        /* \"#utility.yul\":9689:9766   */\n      0x4e487b7100000000000000000000000000000000000000000000000000000000\n        /* \"#utility.yul\":9686:9687   */\n      0x00\n        /* \"#utility.yul\":9679:9767   */\n      mstore\n        /* \"#utility.yul\":9786:9790   */\n      0x11\n        /* \"#utility.yul\":9783:9784   */\n      0x04\n        /* \"#utility.yul\":9776:9791   */\n      mstore\n        /* \"#utility.yul\":9810:9814   */\n      0x24\n        /* \"#utility.yul\":9807:9808   */\n      0x00\n        /* \"#utility.yul\":9800:9815   */\n      revert\n        /* \"#utility.yul\":9827:10032   */\n    tag_116:\n        /* \"#utility.yul\":9866:9869   */\n      0x00\n        /* \"#utility.yul\":9885:9904   */\n      tag_431\n        /* \"#utility.yul\":9902:9903   */\n      dup3\n        /* \"#utility.yul\":9885:9904   */\n      tag_274\n      jump\t// in\n    tag_431:\n        /* \"#utility.yul\":9880:9904   */\n      swap2\n      pop\n        /* \"#utility.yul\":9918:9937   */\n      tag_432\n        /* \"#utility.yul\":9935:9936   */\n      dup4\n        /* \"#utility.yul\":9918:9937   */\n      tag_274\n      jump\t// in\n    tag_432:\n        /* \"#utility.yul\":9913:9937   */\n      swap3\n      pop\n        /* \"#utility.yul\":9960:9961   */\n      dup3\n        /* \"#utility.yul\":9957:9958   */\n      dup3\n        /* \"#utility.yul\":9953:9962   */\n      add\n        /* \"#utility.yul\":9946:9962   */\n      swap1\n      pop\n        /* \"#utility.yul\":9983:10001   */\n      0xffffffffffffffff\n        /* \"#utility.yul\":9978:9981   */\n      dup2\n        /* \"#utility.yul\":9975:10002   */\n      gt\n        /* \"#utility.yul\":9972:10025   */\n      iszero\n      tag_433\n      jumpi\n        /* \"#utility.yul\":10005:10023   */\n      tag_434\n      tag_288\n      jump\t// in\n    tag_434:\n        /* \"#utility.yul\":9972:10025   */\n    tag_433:\n        /* \"#utility.yul\":9827:10032   */\n      swap3\n      swap2\n      pop\n      pop\n      jump\t// out\n        /* \"#utility.yul\":10038:10591   */\n    tag_118:\n        /* \"#utility.yul\":10215:10219   */\n      0x00\n        /* \"#utility.yul\":10253:10256   */\n      0x80\n        /* \"#utility.yul\":10242:10251   */\n      dup3\n        /* \"#utility.yul\":10238:10257   */\n      add\n        /* \"#utility.yul\":10230:10257   */\n      swap1\n      pop\n        /* \"#utility.yul\":10267:10338   */\n      tag_436\n        /* \"#utility.yul\":10335:10336   */\n      0x00\n        /* \"#utility.yul\":10324:10333   */\n      dup4\n        /* \"#utility.yul\":10320:10337   */\n      add\n        /* \"#utility.yul\":10311:10317   */\n      dup8\n        /* \"#utility.yul\":10267:10338   */\n      tag_273\n      jump\t// in\n    tag_436:\n        /* \"#utility.yul\":10348:10420   */\n      tag_437\n        /* \"#utility.yul\":10416:10418   */\n      0x20\n        /* \"#utility.yul\":10405:10414   */\n      dup4\n        /* \"#utility.yul\":10401:10419   */\n      add\n        /* \"#utility.yul\":10392:10398   */\n      dup7\n        /* \"#utility.yul\":10348:10420   */\n      tag_257\n      jump\t// in\n    tag_437:\n        /* \"#utility.yul\":10430:10502   */\n      tag_438\n        /* \"#utility.yul\":10498:10500   */\n      0x40\n        /* \"#utility.yul\":10487:10496   */\n      dup4\n        /* \"#utility.yul\":10483:10501   */\n      add\n        /* \"#utility.yul\":10474:10480   */\n      dup6\n        /* \"#utility.yul\":10430:10502   */\n      tag_257\n      jump\t// in\n    tag_438:\n        /* \"#utility.yul\":10512:10584   */\n      tag_439\n        /* \"#utility.yul\":10580:10582   */\n      0x60\n        /* \"#utility.yul\":10569:10578   */\n      dup4\n        /* \"#utility.yul\":10565:10583   */\n      add\n        /* \"#utility.yul\":10556:10562   */\n      dup5\n        /* \"#utility.yul\":10512:10584   */\n      tag_257\n      jump\t// in\n    tag_439:\n        /* \"#utility.yul\":10038:10591   */\n      swap6\n      swap5\n      pop\n      pop\n      pop\n      pop\n      pop\n      jump\t// out\n        /* \"#utility.yul\":10597:10767   */\n    tag_289:\n        /* \"#utility.yul\":10737:10759   */\n      0x7374696c6c2070617961626c652077696e646f77000000000000000000000000\n        /* \"#utility.yul\":10733:10734   */\n      0x00\n        /* \"#utility.yul\":10725:10731   */\n      dup3\n        /* \"#utility.yul\":10721:10735   */\n      add\n        /* \"#utility.yul\":10714:10760   */\n      mstore\n        /* \"#utility.yul\":10597:10767   */\n      pop\n      jump\t// out\n        /* \"#utility.yul\":10773:11139   */\n    tag_290:\n        /* \"#utility.yul\":10915:10918   */\n      0x00\n        /* \"#utility.yul\":10936:11003   */\n      tag_442\n        /* \"#utility.yul\":11000:11002   */\n      0x14\n        /* \"#utility.yul\":10995:10998   */\n      dup4\n        /* \"#utility.yul\":10936:11003   */\n      tag_282\n      jump\t// in\n    tag_442:\n        /* \"#utility.yul\":10929:11003   */\n      swap2\n      pop\n        /* \"#utility.yul\":11012:11105   */\n      tag_443\n        /* \"#utility.yul\":11101:11104   */\n      dup3\n        /* \"#utility.yul\":11012:11105   */\n      tag_289\n      jump\t// in\n    tag_443:\n        /* \"#utility.yul\":11130:11132   */\n      0x20\n        /* \"#utility.yul\":11125:11128   */\n      dup3\n        /* \"#utility.yul\":11121:11133   */\n      add\n        /* \"#utility.yul\":11114:11133   */\n      swap1\n      pop\n        /* \"#utility.yul\":10773:11139   */\n      swap2\n      swap1\n      pop\n      jump\t// out\n        /* \"#utility.yul\":11145:11564   */\n    tag_126:\n        /* \"#utility.yul\":11311:11315   */\n      0x00\n        /* \"#utility.yul\":11349:11351   */\n      0x20\n        /* \"#utility.yul\":11338:11347   */\n      dup3\n        /* \"#utility.yul\":11334:11352   */\n      add\n        /* \"#utility.yul\":11326:11352   */\n      swap1\n      pop\n        /* \"#utility.yul\":11398:11407   */\n      dup2\n        /* \"#utility.yul\":11392:11396   */\n      dup2\n        /* \"#utility.yul\":11388:11408   */\n      sub\n        /* \"#utility.yul\":11384:11385   */\n      0x00\n        /* \"#utility.yul\":11373:11382   */\n      dup4\n        /* \"#utility.yul\":11369:11386   */\n      add\n        /* \"#utility.yul\":11362:11409   */\n      mstore\n        /* \"#utility.yul\":11426:11557   */\n      tag_445\n        /* \"#utility.yul\":11552:11556   */\n      dup2\n        /* \"#utility.yul\":11426:11557   */\n      tag_290\n      jump\t// in\n    tag_445:\n        /* \"#utility.yul\":11418:11557   */\n      swap1\n      pop\n        /* \"#utility.yul\":11145:11564   */\n      swap2\n      swap1\n      pop\n      jump\t// out\n        /* \"#utility.yul\":11570:11649   */\n    tag_291:\n        /* \"#utility.yul\":11609:11616   */\n      0x00\n        /* \"#utility.yul\":11638:11643   */\n      dup2\n        /* \"#utility.yul\":11627:11643   */\n      swap1\n      pop\n        /* \"#utility.yul\":11570:11649   */\n      swap2\n      swap1\n      pop\n      jump\t// out\n        /* \"#utility.yul\":11655:11812   */\n    tag_292:\n        /* \"#utility.yul\":11760:11805   */\n      tag_448\n        /* \"#utility.yul\":11780:11804   */\n      tag_449\n        /* \"#utility.yul\":11798:11803   */\n      dup3\n        /* \"#utility.yul\":11780:11804   */\n      tag_256\n      jump\t// in\n    tag_449:\n        /* \"#utility.yul\":11760:11805   */\n      tag_291\n      jump\t// in\n    tag_448:\n        /* \"#utility.yul\":11755:11758   */\n      dup3\n        /* \"#utility.yul\":11748:11806   */\n      mstore\n        /* \"#utility.yul\":11655:11812   */\n      pop\n      pop\n      jump\t// out\n        /* \"#utility.yul\":11818:11897   */\n    tag_293:\n        /* \"#utility.yul\":11857:11864   */\n      0x00\n        /* \"#utility.yul\":11886:11891   */\n      dup2\n        /* \"#utility.yul\":11875:11891   */\n      swap1\n      pop\n        /* \"#utility.yul\":11818:11897   */\n      swap2\n      swap1\n      pop\n      jump\t// out\n        /* \"#utility.yul\":11903:12060   */\n    tag_294:\n        /* \"#utility.yul\":12008:12053   */\n      tag_452\n        /* \"#utility.yul\":12028:12052   */\n      tag_453\n        /* \"#utility.yul\":12046:12051   */\n      dup3\n        /* \"#utility.yul\":12028:12052   */\n      tag_269\n      jump\t// in\n    tag_453:\n        /* \"#utility.yul\":12008:12053   */\n      tag_293\n      jump\t// in\n    tag_452:\n        /* \"#utility.yul\":12003:12006   */\n      dup3\n        /* \"#utility.yul\":11996:12054   */\n      mstore\n        /* \"#utility.yul\":11903:12060   */\n      pop\n      pop\n      jump\t// out\n        /* \"#utility.yul\":12066:12463   */\n    tag_135:\n        /* \"#utility.yul\":12206:12209   */\n      0x00\n        /* \"#utility.yul\":12221:12296   */\n      tag_455\n        /* \"#utility.yul\":12292:12295   */\n      dup3\n        /* \"#utility.yul\":12283:12289   */\n      dup6\n        /* \"#utility.yul\":12221:12296   */\n      tag_292\n      jump\t// in\n    tag_455:\n        /* \"#utility.yul\":12321:12323   */\n      0x20\n        /* \"#utility.yul\":12316:12319   */\n      dup3\n        /* \"#utility.yul\":12312:12324   */\n      add\n        /* \"#utility.yul\":12305:12324   */\n      swap2\n      pop\n        /* \"#utility.yul\":12334:12409   */\n      tag_456\n        /* \"#utility.yul\":12405:12408   */\n      dup3\n        /* \"#utility.yul\":12396:12402   */\n      dup5\n        /* \"#utility.yul\":12334:12409   */\n      tag_294\n      jump\t// in\n    tag_456:\n        /* \"#utility.yul\":12434:12436   */\n      0x20\n        /* \"#utility.yul\":12429:12432   */\n      dup3\n        /* \"#utility.yul\":12425:12437   */\n      add\n        /* \"#utility.yul\":12418:12437   */\n      swap2\n      pop\n        /* \"#utility.yul\":12454:12457   */\n      dup2\n        /* \"#utility.yul\":12447:12457   */\n      swap1\n      pop\n        /* \"#utility.yul\":12066:12463   */\n      swap4\n      swap3\n      pop\n      pop\n      pop\n      jump\t// out\n        /* \"#utility.yul\":12469:12639   */\n    tag_295:\n        /* \"#utility.yul\":12609:12631   */\n      0x70726576696f7573206e6f7420736574746c6564000000000000000000000000\n        /* \"#utility.yul\":12605:12606   */\n      0x00\n        /* \"#utility.yul\":12597:12603   */\n      dup3\n        /* \"#utility.yul\":12593:12607   */\n      add\n        /* \"#utility.yul\":12586:12632   */\n      mstore\n        /* \"#utility.yul\":12469:12639   */\n      pop\n      jump\t// out\n        /* \"#utility.yul\":12645:13011   */\n    tag_296:\n        /* \"#utility.yul\":12787:12790   */\n      0x00\n        /* \"#utility.yul\":12808:12875   */\n      tag_459\n        /* \"#utility.yul\":12872:12874   */\n      0x14\n        /* \"#utility.yul\":12867:12870   */\n      dup4\n        /* \"#utility.yul\":12808:12875   */\n      tag_282\n      jump\t// in\n    tag_459:\n        /* \"#utility.yul\":12801:12875   */\n      swap2\n      pop\n        /* \"#utility.yul\":12884:12977   */\n      tag_460\n        /* \"#utility.yul\":12973:12976   */\n      dup3\n        /* \"#utility.yul\":12884:12977   */\n      tag_295\n      jump\t// in\n    tag_460:\n        /* \"#utility.yul\":13002:13004   */\n      0x20\n        /* \"#utility.yul\":12997:13000   */\n      dup3\n        /* \"#utility.yul\":12993:13005   */\n      add\n        /* \"#utility.yul\":12986:13005   */\n      swap1\n      pop\n        /* \"#utility.yul\":12645:13011   */\n      swap2\n      swap1\n      pop\n      jump\t// out\n        /* \"#utility.yul\":13017:13436   */\n    tag_159:\n        /* \"#utility.yul\":13183:13187   */\n      0x00\n        /* \"#utility.yul\":13221:13223   */\n      0x20\n        /* \"#utility.yul\":13210:13219   */\n      dup3\n        /* \"#utility.yul\":13206:13224   */\n      add\n        /* \"#utility.yul\":13198:13224   */\n      swap1\n      pop\n        /* \"#utility.yul\":13270:13279   */\n      dup2\n        /* \"#utility.yul\":13264:13268   */\n      dup2\n        /* \"#utility.yul\":13260:13280   */\n      sub\n        /* \"#utility.yul\":13256:13257   */\n      0x00\n        /* \"#utility.yul\":13245:13254   */\n      dup4\n        /* \"#utility.yul\":13241:13258   */\n      add\n        /* \"#utility.yul\":13234:13281   */\n      mstore\n        /* \"#utility.yul\":13298:13429   */\n      tag_462\n        /* \"#utility.yul\":13424:13428   */\n      dup2\n        /* \"#utility.yul\":13298:13429   */\n      tag_296\n      jump\t// in\n    tag_462:\n        /* \"#utility.yul\":13290:13429   */\n      swap1\n      pop\n        /* \"#utility.yul\":13017:13436   */\n      swap2\n      swap1\n      pop\n      jump\t// out\n        /* \"#utility.yul\":13442:13620   */\n    tag_297:\n        /* \"#utility.yul\":13582:13612   */\n      0x434f4e4649473a2062616420636f6d6d6974206475726174696f6e7300000000\n        /* \"#utility.yul\":13578:13579   */\n      0x00\n        /* \"#utility.yul\":13570:13576   */\n      dup3\n        /* \"#utility.yul\":13566:13580   */\n      add\n        /* \"#utility.yul\":13559:13613   */\n      mstore\n        /* \"#utility.yul\":13442:13620   */\n      pop\n      jump\t// out\n        /* \"#utility.yul\":13626:13992   */\n    tag_298:\n        /* \"#utility.yul\":13768:13771   */\n      0x00\n        /* \"#utility.yul\":13789:13856   */\n      tag_465\n        /* \"#utility.yul\":13853:13855   */\n      0x1c\n        /* \"#utility.yul\":13848:13851   */\n      dup4\n        /* \"#utility.yul\":13789:13856   */\n      tag_282\n      jump\t// in\n    tag_465:\n        /* \"#utility.yul\":13782:13856   */\n      swap2\n      pop\n        /* \"#utility.yul\":13865:13958   */\n      tag_466\n        /* \"#utility.yul\":13954:13957   */\n      dup3\n        /* \"#utility.yul\":13865:13958   */\n      tag_297\n      jump\t// in\n    tag_466:\n        /* \"#utility.yul\":13983:13985   */\n      0x20\n        /* \"#utility.yul\":13978:13981   */\n      dup3\n        /* \"#utility.yul\":13974:13986   */\n      add\n        /* \"#utility.yul\":13967:13986   */\n      swap1\n      pop\n        /* \"#utility.yul\":13626:13992   */\n      swap2\n      swap1\n      pop\n      jump\t// out\n        /* \"#utility.yul\":13998:14417   */\n    tag_163:\n        /* \"#utility.yul\":14164:14168   */\n      0x00\n        /* \"#utility.yul\":14202:14204   */\n      0x20\n        /* \"#utility.yul\":14191:14200   */\n      dup3\n        /* \"#utility.yul\":14187:14205   */\n      add\n        /* \"#utility.yul\":14179:14205   */\n      swap1\n      pop\n        /* \"#utility.yul\":14251:14260   */\n      dup2\n        /* \"#utility.yul\":14245:14249   */\n      dup2\n        /* \"#utility.yul\":14241:14261   */\n      sub\n        /* \"#utility.yul\":14237:14238   */\n      0x00\n        /* \"#utility.yul\":14226:14235   */\n      dup4\n        /* \"#utility.yul\":14222:14239   */\n      add\n        /* \"#utility.yul\":14215:14262   */\n      mstore\n        /* \"#utility.yul\":14279:14410   */\n      tag_468\n        /* \"#utility.yul\":14405:14409   */\n      dup2\n        /* \"#utility.yul\":14279:14410   */\n      tag_298\n      jump\t// in\n    tag_468:\n        /* \"#utility.yul\":14271:14410   */\n      swap1\n      pop\n        /* \"#utility.yul\":13998:14417   */\n      swap2\n      swap1\n      pop\n      jump\t// out\n        /* \"#utility.yul\":14423:14601   */\n    tag_299:\n        /* \"#utility.yul\":14563:14593   */\n      0x434f4e4649473a206261642072657665616c206475726174696f6e7300000000\n        /* \"#utility.yul\":14559:14560   */\n      0x00\n        /* \"#utility.yul\":14551:14557   */\n      dup3\n        /* \"#utility.yul\":14547:14561   */\n      add\n        /* \"#utility.yul\":14540:14594   */\n      mstore\n        /* \"#utility.yul\":14423:14601   */\n      pop\n      jump\t// out\n        /* \"#utility.yul\":14607:14973   */\n    tag_300:\n        /* \"#utility.yul\":14749:14752   */\n      0x00\n        /* \"#utility.yul\":14770:14837   */\n      tag_471\n        /* \"#utility.yul\":14834:14836   */\n      0x1c\n        /* \"#utility.yul\":14829:14832   */\n      dup4\n        /* \"#utility.yul\":14770:14837   */\n      tag_282\n      jump\t// in\n    tag_471:\n        /* \"#utility.yul\":14763:14837   */\n      swap2\n      pop\n        /* \"#utility.yul\":14846:14939   */\n      tag_472\n        /* \"#utility.yul\":14935:14938   */\n      dup3\n        /* \"#utility.yul\":14846:14939   */\n      tag_299\n      jump\t// in\n    tag_472:\n        /* \"#utility.yul\":14964:14966   */\n      0x20\n        /* \"#utility.yul\":14959:14962   */\n      dup3\n        /* \"#utility.yul\":14955:14967   */\n      add\n        /* \"#utility.yul\":14948:14967   */\n      swap1\n      pop\n        /* \"#utility.yul\":14607:14973   */\n      swap2\n      swap1\n      pop\n      jump\t// out\n        /* \"#utility.yul\":14979:15398   */\n    tag_167:\n        /* \"#utility.yul\":15145:15149   */\n      0x00\n        /* \"#utility.yul\":15183:15185   */\n      0x20\n        /* \"#utility.yul\":15172:15181   */\n      dup3\n        /* \"#utility.yul\":15168:15186   */\n      add\n        /* \"#utility.yul\":15160:15186   */\n      swap1\n      pop\n        /* \"#utility.yul\":15232:15241   */\n      dup2\n        /* \"#utility.yul\":15226:15230   */\n      dup2\n        /* \"#utility.yul\":15222:15242   */\n      sub\n        /* \"#utility.yul\":15218:15219   */\n      0x00\n        /* \"#utility.yul\":15207:15216   */\n      dup4\n        /* \"#utility.yul\":15203:15220   */\n      add\n        /* \"#utility.yul\":15196:15243   */\n      mstore\n        /* \"#utility.yul\":15260:15391   */\n      tag_474\n        /* \"#utility.yul\":15386:15390   */\n      dup2\n        /* \"#utility.yul\":15260:15391   */\n      tag_300\n      jump\t// in\n    tag_474:\n        /* \"#utility.yul\":15252:15391   */\n      swap1\n      pop\n        /* \"#utility.yul\":14979:15398   */\n      swap2\n      swap1\n      pop\n      jump\t// out\n        /* \"#utility.yul\":15404:15579   */\n    tag_301:\n        /* \"#utility.yul\":15544:15571   */\n      0x434f4e4649473a20626164207265736572766520707269636500000000000000\n        /* \"#utility.yul\":15540:15541   */\n      0x00\n        /* \"#utility.yul\":15532:15538   */\n      dup3\n        /* \"#utility.yul\":15528:15542   */\n      add\n        /* \"#utility.yul\":15521:15572   */\n      mstore\n        /* \"#utility.yul\":15404:15579   */\n      pop\n      jump\t// out\n        /* \"#utility.yul\":15585:15951   */\n    tag_302:\n        /* \"#utility.yul\":15727:15730   */\n      0x00\n        /* \"#utility.yul\":15748:15815   */\n      tag_477\n        /* \"#utility.yul\":15812:15814   */\n      0x19\n        /* \"#utility.yul\":15807:15810   */\n      dup4\n        /* \"#utility.yul\":15748:15815   */\n      tag_282\n      jump\t// in\n    tag_477:\n        /* \"#utility.yul\":15741:15815   */\n      swap2\n      pop\n        /* \"#utility.yul\":15824:15917   */\n      tag_478\n        /* \"#utility.yul\":15913:15916   */\n      dup3\n        /* \"#utility.yul\":15824:15917   */\n      tag_301\n      jump\t// in\n    tag_478:\n        /* \"#utility.yul\":15942:15944   */\n      0x20\n        /* \"#utility.yul\":15937:15940   */\n      dup3\n        /* \"#utility.yul\":15933:15945   */\n      add\n        /* \"#utility.yul\":15926:15945   */\n      swap1\n      pop\n        /* \"#utility.yul\":15585:15951   */\n      swap2\n      swap1\n      pop\n      jump\t// out\n        /* \"#utility.yul\":15957:16376   */\n    tag_171:\n        /* \"#utility.yul\":16123:16127   */\n      0x00\n        /* \"#utility.yul\":16161:16163   */\n      0x20\n        /* \"#utility.yul\":16150:16159   */\n      dup3\n        /* \"#utility.yul\":16146:16164   */\n      add\n        /* \"#utility.yul\":16138:16164   */\n      swap1\n      pop\n        /* \"#utility.yul\":16210:16219   */\n      dup2\n        /* \"#utility.yul\":16204:16208   */\n      dup2\n        /* \"#utility.yul\":16200:16220   */\n      sub\n        /* \"#utility.yul\":16196:16197   */\n      0x00\n        /* \"#utility.yul\":16185:16194   */\n      dup4\n        /* \"#utility.yul\":16181:16198   */\n      add\n        /* \"#utility.yul\":16174:16221   */\n      mstore\n        /* \"#utility.yul\":16238:16369   */\n      tag_480\n        /* \"#utility.yul\":16364:16368   */\n      dup2\n        /* \"#utility.yul\":16238:16369   */\n      tag_302\n      jump\t// in\n    tag_480:\n        /* \"#utility.yul\":16230:16369   */\n      swap1\n      pop\n        /* \"#utility.yul\":15957:16376   */\n      swap2\n      swap1\n      pop\n      jump\t// out\n        /* \"#utility.yul\":16382:16525   */\n    tag_303:\n        /* \"#utility.yul\":16439:16444   */\n      0x00\n        /* \"#utility.yul\":16470:16476   */\n      dup2\n        /* \"#utility.yul\":16464:16477   */\n      mload\n        /* \"#utility.yul\":16455:16477   */\n      swap1\n      pop\n        /* \"#utility.yul\":16486:16519   */\n      tag_482\n        /* \"#utility.yul\":16513:16518   */\n      dup2\n        /* \"#utility.yul\":16486:16519   */\n      tag_276\n      jump\t// in\n    tag_482:\n        /* \"#utility.yul\":16382:16525   */\n      swap3\n      swap2\n      pop\n      pop\n      jump\t// out\n        /* \"#utility.yul\":16531:16882   */\n    tag_176:\n        /* \"#utility.yul\":16601:16607   */\n      0x00\n        /* \"#utility.yul\":16650:16652   */\n      0x20\n        /* \"#utility.yul\":16638:16647   */\n      dup3\n        /* \"#utility.yul\":16629:16636   */\n      dup5\n        /* \"#utility.yul\":16625:16648   */\n      sub\n        /* \"#utility.yul\":16621:16653   */\n      slt\n        /* \"#utility.yul\":16618:16737   */\n      iszero\n      tag_484\n      jumpi\n        /* \"#utility.yul\":16656:16735   */\n      tag_485\n      tag_265\n      jump\t// in\n    tag_485:\n        /* \"#utility.yul\":16618:16737   */\n    tag_484:\n        /* \"#utility.yul\":16776:16777   */\n      0x00\n        /* \"#utility.yul\":16801:16865   */\n      tag_486\n        /* \"#utility.yul\":16857:16864   */\n      dup5\n        /* \"#utility.yul\":16848:16854   */\n      dup3\n        /* \"#utility.yul\":16837:16846   */\n      dup6\n        /* \"#utility.yul\":16833:16855   */\n      add\n        /* \"#utility.yul\":16801:16865   */\n      tag_303\n      jump\t// in\n    tag_486:\n        /* \"#utility.yul\":16791:16865   */\n      swap2\n      pop\n        /* \"#utility.yul\":16747:16875   */\n      pop\n        /* \"#utility.yul\":16531:16882   */\n      swap3\n      swap2\n      pop\n      pop\n      jump\t// out\n        /* \"#utility.yul\":16888:17052   */\n    tag_304:\n        /* \"#utility.yul\":17028:17044   */\n      0x4e46543a206e6f74206f776e6572000000000000000000000000000000000000\n        /* \"#utility.yul\":17024:17025   */\n      0x00\n        /* \"#utility.yul\":17016:17022   */\n      dup3\n        /* \"#utility.yul\":17012:17026   */\n      add\n        /* \"#utility.yul\":17005:17045   */\n      mstore\n        /* \"#utility.yul\":16888:17052   */\n      pop\n      jump\t// out\n        /* \"#utility.yul\":17058:17424   */\n    tag_305:\n        /* \"#utility.yul\":17200:17203   */\n      0x00\n        /* \"#utility.yul\":17221:17288   */\n      tag_489\n        /* \"#utility.yul\":17285:17287   */\n      0x0e\n        /* \"#utility.yul\":17280:17283   */\n      dup4\n        /* \"#utility.yul\":17221:17288   */\n      tag_282\n      jump\t// in\n    tag_489:\n        /* \"#utility.yul\":17214:17288   */\n      swap2\n      pop\n        /* \"#utility.yul\":17297:17390   */\n      tag_490\n        /* \"#utility.yul\":17386:17389   */\n      dup3\n        /* \"#utility.yul\":17297:17390   */\n      tag_304\n      jump\t// in\n    tag_490:\n        /* \"#utility.yul\":17415:17417   */\n      0x20\n        /* \"#utility.yul\":17410:17413   */\n      dup3\n        /* \"#utility.yul\":17406:17418   */\n      add\n        /* \"#utility.yul\":17399:17418   */\n      swap1\n      pop\n        /* \"#utility.yul\":17058:17424   */\n      swap2\n      swap1\n      pop\n      jump\t// out\n        /* \"#utility.yul\":17430:17849   */\n    tag_179:\n        /* \"#utility.yul\":17596:17600   */\n      0x00\n        /* \"#utility.yul\":17634:17636   */\n      0x20\n        /* \"#utility.yul\":17623:17632   */\n      dup3\n        /* \"#utility.yul\":17619:17637   */\n      add\n        /* \"#utility.yul\":17611:17637   */\n      swap1\n      pop\n        /* \"#utility.yul\":17683:17692   */\n      dup2\n        /* \"#utility.yul\":17677:17681   */\n      dup2\n        /* \"#utility.yul\":17673:17693   */\n      sub\n        /* \"#utility.yul\":17669:17670   */\n      0x00\n        /* \"#utility.yul\":17658:17667   */\n      dup4\n        /* \"#utility.yul\":17654:17671   */\n      add\n        /* \"#utility.yul\":17647:17694   */\n      mstore\n        /* \"#utility.yul\":17711:17842   */\n      tag_492\n        /* \"#utility.yul\":17837:17841   */\n      dup2\n        /* \"#utility.yul\":17711:17842   */\n      tag_305\n      jump\t// in\n    tag_492:\n        /* \"#utility.yul\":17703:17842   */\n      swap1\n      pop\n        /* \"#utility.yul\":17430:17849   */\n      swap2\n      swap1\n      pop\n      jump\t// out\n        /* \"#utility.yul\":17855:18187   */\n    tag_186:\n        /* \"#utility.yul\":17976:17980   */\n      0x00\n        /* \"#utility.yul\":18014:18016   */\n      0x40\n        /* \"#utility.yul\":18003:18012   */\n      dup3\n        /* \"#utility.yul\":17999:18017   */\n      add\n        /* \"#utility.yul\":17991:18017   */\n      swap1\n      pop\n        /* \"#utility.yul\":18027:18098   */\n      tag_494\n        /* \"#utility.yul\":18095:18096   */\n      0x00\n        /* \"#utility.yul\":18084:18093   */\n      dup4\n        /* \"#utility.yul\":18080:18097   */\n      add\n        /* \"#utility.yul\":18071:18077   */\n      dup6\n        /* \"#utility.yul\":18027:18098   */\n      tag_273\n      jump\t// in\n    tag_494:\n        /* \"#utility.yul\":18108:18180   */\n      tag_495\n        /* \"#utility.yul\":18176:18178   */\n      0x20\n        /* \"#utility.yul\":18165:18174   */\n      dup4\n        /* \"#utility.yul\":18161:18179   */\n      add\n        /* \"#utility.yul\":18152:18158   */\n      dup5\n        /* \"#utility.yul\":18108:18180   */\n      tag_273\n      jump\t// in\n    tag_495:\n        /* \"#utility.yul\":17855:18187   */\n      swap4\n      swap3\n      pop\n      pop\n      pop\n      jump\t// out\n        /* \"#utility.yul\":18193:18283   */\n    tag_306:\n        /* \"#utility.yul\":18227:18234   */\n      0x00\n        /* \"#utility.yul\":18270:18275   */\n      dup2\n        /* \"#utility.yul\":18263:18276   */\n      iszero\n        /* \"#utility.yul\":18256:18277   */\n      iszero\n        /* \"#utility.yul\":18245:18277   */\n      swap1\n      pop\n        /* \"#utility.yul\":18193:18283   */\n      swap2\n      swap1\n      pop\n      jump\t// out\n        /* \"#utility.yul\":18289:18405   */\n    tag_307:\n        /* \"#utility.yul\":18359:18380   */\n      tag_498\n        /* \"#utility.yul\":18374:18379   */\n      dup2\n        /* \"#utility.yul\":18359:18380   */\n      tag_306\n      jump\t// in\n    tag_498:\n        /* \"#utility.yul\":18352:18357   */\n      dup2\n        /* \"#utility.yul\":18349:18381   */\n      eq\n        /* \"#utility.yul\":18339:18399   */\n      tag_499\n      jumpi\n        /* \"#utility.yul\":18395:18396   */\n      0x00\n        /* \"#utility.yul\":18392:18393   */\n      0x00\n        /* \"#utility.yul\":18385:18397   */\n      revert\n        /* \"#utility.yul\":18339:18399   */\n    tag_499:\n        /* \"#utility.yul\":18289:18405   */\n      pop\n      jump\t// out\n        /* \"#utility.yul\":18411:18548   */\n    tag_308:\n        /* \"#utility.yul\":18465:18470   */\n      0x00\n        /* \"#utility.yul\":18496:18502   */\n      dup2\n        /* \"#utility.yul\":18490:18503   */\n      mload\n        /* \"#utility.yul\":18481:18503   */\n      swap1\n      pop\n        /* \"#utility.yul\":18512:18542   */\n      tag_501\n        /* \"#utility.yul\":18536:18541   */\n      dup2\n        /* \"#utility.yul\":18512:18542   */\n      tag_307\n      jump\t// in\n    tag_501:\n        /* \"#utility.yul\":18411:18548   */\n      swap3\n      swap2\n      pop\n      pop\n      jump\t// out\n        /* \"#utility.yul\":18554:18899   */\n    tag_190:\n        /* \"#utility.yul\":18621:18627   */\n      0x00\n        /* \"#utility.yul\":18670:18672   */\n      0x20\n        /* \"#utility.yul\":18658:18667   */\n      dup3\n        /* \"#utility.yul\":18649:18656   */\n      dup5\n        /* \"#utility.yul\":18645:18668   */\n      sub\n        /* \"#utility.yul\":18641:18673   */\n      slt\n        /* \"#utility.yul\":18638:18757   */\n      iszero\n      tag_503\n      jumpi\n        /* \"#utility.yul\":18676:18755   */\n      tag_504\n      tag_265\n      jump\t// in\n    tag_504:\n        /* \"#utility.yul\":18638:18757   */\n    tag_503:\n        /* \"#utility.yul\":18796:18797   */\n      0x00\n        /* \"#utility.yul\":18821:18882   */\n      tag_505\n        /* \"#utility.yul\":18874:18881   */\n      dup5\n        /* \"#utility.yul\":18865:18871   */\n      dup3\n        /* \"#utility.yul\":18854:18863   */\n      dup6\n        /* \"#utility.yul\":18850:18872   */\n      add\n        /* \"#utility.yul\":18821:18882   */\n      tag_308\n      jump\t// in\n    tag_505:\n        /* \"#utility.yul\":18811:18882   */\n      swap2\n      pop\n        /* \"#utility.yul\":18767:18892   */\n      pop\n        /* \"#utility.yul\":18554:18899   */\n      swap3\n      swap2\n      pop\n      pop\n      jump\t// out\n        /* \"#utility.yul\":18905:19072   */\n    tag_309:\n        /* \"#utility.yul\":19045:19064   */\n      0x4e46543a206e6f7420617070726f766564000000000000000000000000000000\n        /* \"#utility.yul\":19041:19042   */\n      0x00\n        /* \"#utility.yul\":19033:19039   */\n      dup3\n        /* \"#utility.yul\":19029:19043   */\n      add\n        /* \"#utility.yul\":19022:19065   */\n      mstore\n        /* \"#utility.yul\":18905:19072   */\n      pop\n      jump\t// out\n        /* \"#utility.yul\":19078:19444   */\n    tag_310:\n        /* \"#utility.yul\":19220:19223   */\n      0x00\n        /* \"#utility.yul\":19241:19308   */\n      tag_508\n        /* \"#utility.yul\":19305:19307   */\n      0x11\n        /* \"#utility.yul\":19300:19303   */\n      dup4\n        /* \"#utility.yul\":19241:19308   */\n      tag_282\n      jump\t// in\n    tag_508:\n        /* \"#utility.yul\":19234:19308   */\n      swap2\n      pop\n        /* \"#utility.yul\":19317:19410   */\n      tag_509\n        /* \"#utility.yul\":19406:19409   */\n      dup3\n        /* \"#utility.yul\":19317:19410   */\n      tag_309\n      jump\t// in\n    tag_509:\n        /* \"#utility.yul\":19435:19437   */\n      0x20\n        /* \"#utility.yul\":19430:19433   */\n      dup3\n        /* \"#utility.yul\":19426:19438   */\n      add\n        /* \"#utility.yul\":19419:19438   */\n      swap1\n      pop\n        /* \"#utility.yul\":19078:19444   */\n      swap2\n      swap1\n      pop\n      jump\t// out\n        /* \"#utility.yul\":19450:19869   */\n    tag_193:\n        /* \"#utility.yul\":19616:19620   */\n      0x00\n        /* \"#utility.yul\":19654:19656   */\n      0x20\n        /* \"#utility.yul\":19643:19652   */\n      dup3\n        /* \"#utility.yul\":19639:19657   */\n      add\n        /* \"#utility.yul\":19631:19657   */\n      swap1\n      pop\n        /* \"#utility.yul\":19703:19712   */\n      dup2\n        /* \"#utility.yul\":19697:19701   */\n      dup2\n        /* \"#utility.yul\":19693:19713   */\n      sub\n        /* \"#utility.yul\":19689:19690   */\n      0x00\n        /* \"#utility.yul\":19678:19687   */\n      dup4\n        /* \"#utility.yul\":19674:19691   */\n      add\n        /* \"#utility.yul\":19667:19714   */\n      mstore\n        /* \"#utility.yul\":19731:19862   */\n      tag_511\n        /* \"#utility.yul\":19857:19861   */\n      dup2\n        /* \"#utility.yul\":19731:19862   */\n      tag_310\n      jump\t// in\n    tag_511:\n        /* \"#utility.yul\":19723:19862   */\n      swap1\n      pop\n        /* \"#utility.yul\":19450:19869   */\n      swap2\n      swap1\n      pop\n      jump\t// out\n        /* \"#utility.yul\":19875:20317   */\n    tag_195:\n        /* \"#utility.yul\":20024:20028   */\n      0x00\n        /* \"#utility.yul\":20062:20064   */\n      0x60\n        /* \"#utility.yul\":20051:20060   */\n      dup3\n        /* \"#utility.yul\":20047:20065   */\n      add\n        /* \"#utility.yul\":20039:20065   */\n      swap1\n      pop\n        /* \"#utility.yul\":20075:20146   */\n      tag_513\n        /* \"#utility.yul\":20143:20144   */\n      0x00\n        /* \"#utility.yul\":20132:20141   */\n      dup4\n        /* \"#utility.yul\":20128:20145   */\n      add\n        /* \"#utility.yul\":20119:20125   */\n      dup7\n        /* \"#utility.yul\":20075:20146   */\n      tag_273\n      jump\t// in\n    tag_513:\n        /* \"#utility.yul\":20156:20228   */\n      tag_514\n        /* \"#utility.yul\":20224:20226   */\n      0x20\n        /* \"#utility.yul\":20213:20222   */\n      dup4\n        /* \"#utility.yul\":20209:20227   */\n      add\n        /* \"#utility.yul\":20200:20206   */\n      dup6\n        /* \"#utility.yul\":20156:20228   */\n      tag_273\n      jump\t// in\n    tag_514:\n        /* \"#utility.yul\":20238:20310   */\n      tag_515\n        /* \"#utility.yul\":20306:20308   */\n      0x40\n        /* \"#utility.yul\":20295:20304   */\n      dup4\n        /* \"#utility.yul\":20291:20309   */\n      add\n        /* \"#utility.yul\":20282:20288   */\n      dup5\n        /* \"#utility.yul\":20238:20310   */\n      tag_257\n      jump\t// in\n    tag_515:\n        /* \"#utility.yul\":19875:20317   */\n      swap5\n      swap4\n      pop\n      pop\n      pop\n      pop\n      jump\t// out\n        /* \"#utility.yul\":20323:20514   */\n    tag_200:\n        /* \"#utility.yul\":20363:20366   */\n      0x00\n        /* \"#utility.yul\":20382:20402   */\n      tag_517\n        /* \"#utility.yul\":20400:20401   */\n      dup3\n        /* \"#utility.yul\":20382:20402   */\n      tag_256\n      jump\t// in\n    tag_517:\n        /* \"#utility.yul\":20377:20402   */\n      swap2\n      pop\n        /* \"#utility.yul\":20416:20436   */\n      tag_518\n        /* \"#utility.yul\":20434:20435   */\n      dup4\n        /* \"#utility.yul\":20416:20436   */\n      tag_256\n      jump\t// in\n    tag_518:\n        /* \"#utility.yul\":20411:20436   */\n      swap3\n      pop\n        /* \"#utility.yul\":20459:20460   */\n      dup3\n        /* \"#utility.yul\":20456:20457   */\n      dup3\n        /* \"#utility.yul\":20452:20461   */\n      add\n        /* \"#utility.yul\":20445:20461   */\n      swap1\n      pop\n        /* \"#utility.yul\":20480:20483   */\n      dup1\n        /* \"#utility.yul\":20477:20478   */\n      dup3\n        /* \"#utility.yul\":20474:20484   */\n      gt\n        /* \"#utility.yul\":20471:20507   */\n      iszero\n      tag_519\n      jumpi\n        /* \"#utility.yul\":20487:20505   */\n      tag_520\n      tag_288\n      jump\t// in\n    tag_520:\n        /* \"#utility.yul\":20471:20507   */\n    tag_519:\n        /* \"#utility.yul\":20323:20514   */\n      swap3\n      swap2\n      pop\n      pop\n      jump\t// out\n        /* \"#utility.yul\":20520:20700   */\n    tag_311:\n        /* \"#utility.yul\":20568:20645   */\n      0x4e487b7100000000000000000000000000000000000000000000000000000000\n        /* \"#utility.yul\":20565:20566   */\n      0x00\n        /* \"#utility.yul\":20558:20646   */\n      mstore\n        /* \"#utility.yul\":20665:20669   */\n      0x12\n        /* \"#utility.yul\":20662:20663   */\n      0x04\n        /* \"#utility.yul\":20655:20670   */\n      mstore\n        /* \"#utility.yul\":20689:20693   */\n      0x24\n        /* \"#utility.yul\":20686:20687   */\n      0x00\n        /* \"#utility.yul\":20679:20694   */\n      revert\n        /* \"#utility.yul\":20706:20891   */\n    tag_204:\n        /* \"#utility.yul\":20746:20747   */\n      0x00\n        /* \"#utility.yul\":20763:20783   */\n      tag_523\n        /* \"#utility.yul\":20781:20782   */\n      dup3\n        /* \"#utility.yul\":20763:20783   */\n      tag_256\n      jump\t// in\n    tag_523:\n        /* \"#utility.yul\":20758:20783   */\n      swap2\n      pop\n        /* \"#utility.yul\":20797:20817   */\n      tag_524\n        /* \"#utility.yul\":20815:20816   */\n      dup4\n        /* \"#utility.yul\":20797:20817   */\n      tag_256\n      jump\t// in\n    tag_524:\n        /* \"#utility.yul\":20792:20817   */\n      swap3\n      pop\n        /* \"#utility.yul\":20836:20837   */\n      dup3\n        /* \"#utility.yul\":20826:20861   */\n      tag_525\n      jumpi\n        /* \"#utility.yul\":20841:20859   */\n      tag_526\n      tag_311\n      jump\t// in\n    tag_526:\n        /* \"#utility.yul\":20826:20861   */\n    tag_525:\n        /* \"#utility.yul\":20883:20884   */\n      dup3\n        /* \"#utility.yul\":20880:20881   */\n      dup3\n        /* \"#utility.yul\":20876:20885   */\n      div\n        /* \"#utility.yul\":20871:20885   */\n      swap1\n      pop\n        /* \"#utility.yul\":20706:20891   */\n      swap3\n      swap2\n      pop\n      pop\n      jump\t// out\n        /* \"#utility.yul\":20897:21037   */\n    tag_312:\n        /* \"#utility.yul\":20946:20955   */\n      0x00\n        /* \"#utility.yul\":20979:21031   */\n      tag_528\n        /* \"#utility.yul\":20997:21030   */\n      tag_529\n        /* \"#utility.yul\":21006:21029   */\n      tag_530\n        /* \"#utility.yul\":21023:21028   */\n      dup5\n        /* \"#utility.yul\":21006:21029   */\n      tag_274\n      jump\t// in\n    tag_530:\n        /* \"#utility.yul\":20997:21030   */\n      tag_259\n      jump\t// in\n    tag_529:\n        /* \"#utility.yul\":20979:21031   */\n      tag_256\n      jump\t// in\n    tag_528:\n        /* \"#utility.yul\":20966:21031   */\n      swap1\n      pop\n        /* \"#utility.yul\":20897:21037   */\n      swap2\n      swap1\n      pop\n      jump\t// out\n        /* \"#utility.yul\":21043:21172   */\n    tag_313:\n        /* \"#utility.yul\":21129:21165   */\n      tag_532\n        /* \"#utility.yul\":21159:21164   */\n      dup2\n        /* \"#utility.yul\":21129:21165   */\n      tag_312\n      jump\t// in\n    tag_532:\n        /* \"#utility.yul\":21124:21127   */\n      dup3\n        /* \"#utility.yul\":21117:21166   */\n      mstore\n        /* \"#utility.yul\":21043:21172   */\n      pop\n      pop\n      jump\t// out\n        /* \"#utility.yul\":21178:22050   */\n    tag_209:\n        /* \"#utility.yul\":21432:21436   */\n      0x00\n        /* \"#utility.yul\":21470:21473   */\n      0xe0\n        /* \"#utility.yul\":21459:21468   */\n      dup3\n        /* \"#utility.yul\":21455:21474   */\n      add\n        /* \"#utility.yul\":21447:21474   */\n      swap1\n      pop\n        /* \"#utility.yul\":21484:21555   */\n      tag_534\n        /* \"#utility.yul\":21552:21553   */\n      0x00\n        /* \"#utility.yul\":21541:21550   */\n      dup4\n        /* \"#utility.yul\":21537:21554   */\n      add\n        /* \"#utility.yul\":21528:21534   */\n      dup11\n        /* \"#utility.yul\":21484:21555   */\n      tag_257\n      jump\t// in\n    tag_534:\n        /* \"#utility.yul\":21565:21637   */\n      tag_535\n        /* \"#utility.yul\":21633:21635   */\n      0x20\n        /* \"#utility.yul\":21622:21631   */\n      dup4\n        /* \"#utility.yul\":21618:21636   */\n      add\n        /* \"#utility.yul\":21609:21615   */\n      dup10\n        /* \"#utility.yul\":21565:21637   */\n      tag_257\n      jump\t// in\n    tag_535:\n        /* \"#utility.yul\":21647:21719   */\n      tag_536\n        /* \"#utility.yul\":21715:21717   */\n      0x40\n        /* \"#utility.yul\":21704:21713   */\n      dup4\n        /* \"#utility.yul\":21700:21718   */\n      add\n        /* \"#utility.yul\":21691:21697   */\n      dup9\n        /* \"#utility.yul\":21647:21719   */\n      tag_257\n      jump\t// in\n    tag_536:\n        /* \"#utility.yul\":21729:21800   */\n      tag_537\n        /* \"#utility.yul\":21796:21798   */\n      0x60\n        /* \"#utility.yul\":21785:21794   */\n      dup4\n        /* \"#utility.yul\":21781:21799   */\n      add\n        /* \"#utility.yul\":21772:21778   */\n      dup8\n        /* \"#utility.yul\":21729:21800   */\n      tag_313\n      jump\t// in\n    tag_537:\n        /* \"#utility.yul\":21810:21881   */\n      tag_538\n        /* \"#utility.yul\":21876:21879   */\n      0x80\n        /* \"#utility.yul\":21865:21874   */\n      dup4\n        /* \"#utility.yul\":21861:21880   */\n      add\n        /* \"#utility.yul\":21852:21858   */\n      dup7\n        /* \"#utility.yul\":21810:21881   */\n      tag_275\n      jump\t// in\n    tag_538:\n        /* \"#utility.yul\":21891:21962   */\n      tag_539\n        /* \"#utility.yul\":21957:21960   */\n      0xa0\n        /* \"#utility.yul\":21946:21955   */\n      dup4\n        /* \"#utility.yul\":21942:21961   */\n      add\n        /* \"#utility.yul\":21933:21939   */\n      dup6\n        /* \"#utility.yul\":21891:21962   */\n      tag_275\n      jump\t// in\n    tag_539:\n        /* \"#utility.yul\":21972:22043   */\n      tag_540\n        /* \"#utility.yul\":22038:22041   */\n      0xc0\n        /* \"#utility.yul\":22027:22036   */\n      dup4\n        /* \"#utility.yul\":22023:22042   */\n      add\n        /* \"#utility.yul\":22014:22020   */\n      dup5\n        /* \"#utility.yul\":21972:22043   */\n      tag_275\n      jump\t// in\n    tag_540:\n        /* \"#utility.yul\":21178:22050   */\n      swap9\n      swap8\n      pop\n      pop\n      pop\n      pop\n      pop\n      pop\n      pop\n      pop\n      jump\t// out\n        /* \"#utility.yul\":22056:22216   */\n    tag_314:\n        /* \"#utility.yul\":22196:22208   */\n      0x5245454e5452414e435900000000000000000000000000000000000000000000\n        /* \"#utility.yul\":22192:22193   */\n      0x00\n        /* \"#utility.yul\":22184:22190   */\n      dup3\n        /* \"#utility.yul\":22180:22194   */\n      add\n        /* \"#utility.yul\":22173:22209   */\n      mstore\n        /* \"#utility.yul\":22056:22216   */\n      pop\n      jump\t// out\n        /* \"#utility.yul\":22222:22588   */\n    tag_315:\n        /* \"#utility.yul\":22364:22367   */\n      0x00\n        /* \"#utility.yul\":22385:22452   */\n      tag_543\n        /* \"#utility.yul\":22449:22451   */\n      0x0a\n        /* \"#utility.yul\":22444:22447   */\n      dup4\n        /* \"#utility.yul\":22385:22452   */\n      tag_282\n      jump\t// in\n    tag_543:\n        /* \"#utility.yul\":22378:22452   */\n      swap2\n      pop\n        /* \"#utility.yul\":22461:22554   */\n      tag_544\n        /* \"#utility.yul\":22550:22553   */\n      dup3\n        /* \"#utility.yul\":22461:22554   */\n      tag_314\n      jump\t// in\n    tag_544:\n        /* \"#utility.yul\":22579:22581   */\n      0x20\n        /* \"#utility.yul\":22574:22577   */\n      dup3\n        /* \"#utility.yul\":22570:22582   */\n      add\n        /* \"#utility.yul\":22563:22582   */\n      swap1\n      pop\n        /* \"#utility.yul\":22222:22588   */\n      swap2\n      swap1\n      pop\n      jump\t// out\n        /* \"#utility.yul\":22594:23013   */\n    tag_229:\n        /* \"#utility.yul\":22760:22764   */\n      0x00\n        /* \"#utility.yul\":22798:22800   */\n      0x20\n        /* \"#utility.yul\":22787:22796   */\n      dup3\n        /* \"#utility.yul\":22783:22801   */\n      add\n        /* \"#utility.yul\":22775:22801   */\n      swap1\n      pop\n        /* \"#utility.yul\":22847:22856   */\n      dup2\n        /* \"#utility.yul\":22841:22845   */\n      dup2\n        /* \"#utility.yul\":22837:22857   */\n      sub\n        /* \"#utility.yul\":22833:22834   */\n      0x00\n        /* \"#utility.yul\":22822:22831   */\n      dup4\n        /* \"#utility.yul\":22818:22835   */\n      add\n        /* \"#utility.yul\":22811:22858   */\n      mstore\n        /* \"#utility.yul\":22875:23006   */\n      tag_546\n        /* \"#utility.yul\":23001:23005   */\n      dup2\n        /* \"#utility.yul\":22875:23006   */\n      tag_315\n      jump\t// in\n    tag_546:\n        /* \"#utility.yul\":22867:23006   */\n      swap1\n      pop\n        /* \"#utility.yul\":22594:23013   */\n      swap2\n      swap1\n      pop\n      jump\t// out\n        /* \"#utility.yul\":23019:23166   */\n    tag_316:\n        /* \"#utility.yul\":23120:23131   */\n      0x00\n        /* \"#utility.yul\":23157:23160   */\n      dup2\n        /* \"#utility.yul\":23142:23160   */\n      swap1\n      pop\n        /* \"#utility.yul\":23019:23166   */\n      swap3\n      swap2\n      pop\n      pop\n      jump\t// out\n        /* \"#utility.yul\":23172:23286   */\n    tag_317:\n      pop\n      jump\t// out\n        /* \"#utility.yul\":23292:23690   */\n    tag_318:\n        /* \"#utility.yul\":23451:23454   */\n      0x00\n        /* \"#utility.yul\":23472:23555   */\n      tag_550\n        /* \"#utility.yul\":23553:23554   */\n      0x00\n        /* \"#utility.yul\":23548:23551   */\n      dup4\n        /* \"#utility.yul\":23472:23555   */\n      tag_316\n      jump\t// in\n    tag_550:\n        /* \"#utility.yul\":23465:23555   */\n      swap2\n      pop\n        /* \"#utility.yul\":23564:23657   */\n      tag_551\n        /* \"#utility.yul\":23653:23656   */\n      dup3\n        /* \"#utility.yul\":23564:23657   */\n      tag_317\n      jump\t// in\n    tag_551:\n        /* \"#utility.yul\":23682:23683   */\n      0x00\n        /* \"#utility.yul\":23677:23680   */\n      dup3\n        /* \"#utility.yul\":23673:23684   */\n      add\n        /* \"#utility.yul\":23666:23684   */\n      swap1\n      pop\n        /* \"#utility.yul\":23292:23690   */\n      swap2\n      swap1\n      pop\n      jump\t// out\n        /* \"#utility.yul\":23696:24075   */\n    tag_238:\n        /* \"#utility.yul\":23880:23883   */\n      0x00\n        /* \"#utility.yul\":23902:24049   */\n      tag_553\n        /* \"#utility.yul\":24045:24048   */\n      dup3\n        /* \"#utility.yul\":23902:24049   */\n      tag_318\n      jump\t// in\n    tag_553:\n        /* \"#utility.yul\":23895:24049   */\n      swap2\n      pop\n        /* \"#utility.yul\":24066:24069   */\n      dup2\n        /* \"#utility.yul\":24059:24069   */\n      swap1\n      pop\n        /* \"#utility.yul\":23696:24075   */\n      swap2\n      swap1\n      pop\n      jump\t// out\n        /* \"#utility.yul\":24081:24248   */\n    tag_319:\n        /* \"#utility.yul\":24221:24240   */\n      0x7061792073656c6c6572206661696c6564000000000000000000000000000000\n        /* \"#utility.yul\":24217:24218   */\n      0x00\n        /* \"#utility.yul\":24209:24215   */\n      dup3\n        /* \"#utility.yul\":24205:24219   */\n      add\n        /* \"#utility.yul\":24198:24241   */\n      mstore\n        /* \"#utility.yul\":24081:24248   */\n      pop\n      jump\t// out\n        /* \"#utility.yul\":24254:24620   */\n    tag_320:\n        /* \"#utility.yul\":24396:24399   */\n      0x00\n        /* \"#utility.yul\":24417:24484   */\n      tag_556\n        /* \"#utility.yul\":24481:24483   */\n      0x11\n        /* \"#utility.yul\":24476:24479   */\n      dup4\n        /* \"#utility.yul\":24417:24484   */\n      tag_282\n      jump\t// in\n    tag_556:\n        /* \"#utility.yul\":24410:24484   */\n      swap2\n      pop\n        /* \"#utility.yul\":24493:24586   */\n      tag_557\n        /* \"#utility.yul\":24582:24585   */\n      dup3\n        /* \"#utility.yul\":24493:24586   */\n      tag_319\n      jump\t// in\n    tag_557:\n        /* \"#utility.yul\":24611:24613   */\n      0x20\n        /* \"#utility.yul\":24606:24609   */\n      dup3\n        /* \"#utility.yul\":24602:24614   */\n      add\n        /* \"#utility.yul\":24595:24614   */\n      swap1\n      pop\n        /* \"#utility.yul\":24254:24620   */\n      swap2\n      swap1\n      pop\n      jump\t// out\n        /* \"#utility.yul\":24626:25045   */\n    tag_244:\n        /* \"#utility.yul\":24792:24796   */\n      0x00\n        /* \"#utility.yul\":24830:24832   */\n      0x20\n        /* \"#utility.yul\":24819:24828   */\n      dup3\n        /* \"#utility.yul\":24815:24833   */\n      add\n        /* \"#utility.yul\":24807:24833   */\n      swap1\n      pop\n        /* \"#utility.yul\":24879:24888   */\n      dup2\n        /* \"#utility.yul\":24873:24877   */\n      dup2\n        /* \"#utility.yul\":24869:24889   */\n      sub\n        /* \"#utility.yul\":24865:24866   */\n      0x00\n        /* \"#utility.yul\":24854:24863   */\n      dup4\n        /* \"#utility.yul\":24850:24867   */\n      add\n        /* \"#utility.yul\":24843:24890   */\n      mstore\n        /* \"#utility.yul\":24907:25038   */\n      tag_559\n        /* \"#utility.yul\":25033:25037   */\n      dup2\n        /* \"#utility.yul\":24907:25038   */\n      tag_320\n      jump\t// in\n    tag_559:\n        /* \"#utility.yul\":24899:25038   */\n      swap1\n      pop\n        /* \"#utility.yul\":24626:25045   */\n      swap2\n      swap1\n      pop\n      jump\t// out\n\n    auxdata: 0xa2646970667358221220de921d90ae991527e893c0151b4cf99aa602bb044dba22d9599a2019a75167c064736f6c634300081e0033\n}\n",
				"bytecode": {
					"linkReferences": {},
					"object": "60a060405260015f55348015610013575f5ffd5b50604051612f1b380380612f1b8339818101604052810190610035919061013b565b5f73ffffffffffffffffffffffffffffffffffffffff168173ffffffffffffffffffffffffffffffffffffffff16036100a3576040517f08c379a000000000000000000000000000000000000000000000000000000000815260040161009a906101c0565b60405180910390fd5b8073ffffffffffffffffffffffffffffffffffffffff1660808173ffffffffffffffffffffffffffffffffffffffff1681525050506101de565b5f5ffd5b5f73ffffffffffffffffffffffffffffffffffffffff82169050919050565b5f61010a826100e1565b9050919050565b61011a81610100565b8114610124575f5ffd5b50565b5f8151905061013581610111565b92915050565b5f602082840312156101505761014f6100dd565b5b5f61015d84828501610127565b91505092915050565b5f82825260208201905092915050565b7f626164204e4654000000000000000000000000000000000000000000000000005f82015250565b5f6101aa600783610166565b91506101b582610176565b602082019050919050565b5f6020820190508181035f8301526101d78161019e565b9050919050565b608051612cfb6102205f395f8181610896015281816111d8015281816112dd015281816113920152818161146c0152818161152401526116f30152612cfb5ff3fe6080604052600436106100fd575f3560e01c806386a2cc2711610094578063b1724b4611610063578063b1724b4614610315578063b1fb64051461033f578063cdf91dae1461037b578063d3aa699e146103a5578063e9906f2e146103e3576100fd565b806386a2cc271461024d578063894da4781461027557806389fb26821461029d5780638f3708e8146102d9576100fd565b80635e7721f7116100d05780635e7721f71461018157806362c5424a146101ab5780636b1da364146101d3578063813abc2d14610211576100fd565b806301c11d961461010157806310782f8f1461012b5780634bb278f3146101555780635df6ff9d1461016b575b5f5ffd5b34801561010c575f5ffd5b506101156103ed565b604051610122919061210f565b60405180910390f35b348015610136575f5ffd5b5061013f6103fd565b60405161014c919061210f565b60405180910390f35b348015610160575f5ffd5b50610169610403565b005b348015610176575f5ffd5b5061017f6106ba565b005b34801561018c575f5ffd5b50610195610894565b6040516101a291906121a2565b60405180910390f35b3480156101b6575f5ffd5b506101d160048036038101906101cc919061221c565b6108b8565b005b3480156101de575f5ffd5b506101f960048036038101906101f4919061225a565b610d1d565b604051610208939291906122c7565b60405180910390f35b34801561021c575f5ffd5b5061023760048036038101906102329190612326565b610d7c565b604051610244919061210f565b60405180910390f35b348015610258575f5ffd5b50610273600480360381019061026e9190612364565b610dd2565b005b348015610280575f5ffd5b5061029b600480360381019061029691906123b9565b61102b565b005b3480156102a8575f5ffd5b506102c360048036038101906102be9190612326565b6117f1565b6040516102d0919061243f565b60405180910390f35b3480156102e4575f5ffd5b506102ff60048036038101906102fa9190612326565b611847565b60405161030c9190612458565b60405180910390f35b348015610320575f5ffd5b506103296118b0565b604051610336919061210f565b60405180910390f35b34801561034a575f5ffd5b506103656004803603810190610360919061225a565b6118b7565b60405161037291906124e1565b60405180910390f35b348015610386575f5ffd5b5061038f611b7d565b60405161039c919061210f565b60405180910390f35b3480156103b0575f5ffd5b506103cb60048036038101906103c6919061225a565b611b88565b6040516103da93929190612501565b60405180910390f35b6103eb611bef565b005b6b033b2e3c9fd0803ce800000081565b60015481565b5f61040c611f23565b90508060050160109054906101000a900467ffffffffffffffff1667ffffffffffffffff16421015610469576040517ee8f46600000000000000000000000000000000000000000000000000000000815260040160405180910390fd5b80600a015f9054906101000a900460ff16156104ba576040517f08c379a00000000000000000000000000000000000000000000000000000000081526004016104b190612580565b60405180910390fd5b5f73ffffffffffffffffffffffffffffffffffffffff168160060160089054906101000a900473ffffffffffffffffffffffffffffffffffffffff1673ffffffffffffffffffffffffffffffffffffffff16036105bb57600181600a015f6101000a81548160ff021916908315150217905550600181600a0160016101000a81548160ff0219169083151502179055505f81600901819055506105868130836002015f9054906101000a900473ffffffffffffffffffffffffffffffffffffffff168460010154611fc4565b6001547fa761d07fdb0a6897f18726f15d43008d6c30ce08e44a91775cfd2ef3b61cdad060405160405180910390a2506106b8565b5f8160080154905081600301548110156105d757816003015490505b808260090181905550600182600a015f6101000a81548160ff0219169083151502179055508160050160189054906101000a900467ffffffffffffffff164261062091906125cb565b826006015f6101000a81548167ffffffffffffffff021916908367ffffffffffffffff1602179055506001547f5ab4254a16d8f1486e035342f3b6736a5efdc0b79886e7525b374bb0ec9ebee18360060160089054906101000a900473ffffffffffffffffffffffffffffffffffffffff1684600701548560080154856040516106ad9493929190612606565b60405180910390a250505b565b5f6106c3611f23565b905080600a015f9054906101000a900460ff1615806106f0575080600a0160019054906101000a900460ff165b15610727576040517fd3018d1800000000000000000000000000000000000000000000000000000000815260040160405180910390fd5b806002015f9054906101000a900473ffffffffffffffffffffffffffffffffffffffff1673ffffffffffffffffffffffffffffffffffffffff163373ffffffffffffffffffffffffffffffffffffffff16146107af576040517f5ec8235100000000000000000000000000000000000000000000000000000000815260040160405180910390fd5b806006015f9054906101000a900467ffffffffffffffff1667ffffffffffffffff164211610812576040517f08c379a000000000000000000000000000000000000000000000000000000000815260040161080990612693565b60405180910390fd5b600181600a0160016101000a81548160ff0219169083151502179055506108628130836002015f9054906101000a900473ffffffffffffffffffffffffffffffffffffffff168460010154611fc4565b6001547f55c90d9726ff7562e2dda9743c070ab007dd986e4c0a42bcf578362c435a4d8960405160405180910390a250565b7f000000000000000000000000000000000000000000000000000000000000000081565b5f6108c1611f23565b90505f4290508160050160089054906101000a900467ffffffffffffffff1667ffffffffffffffff1681108061091957508160050160109054906101000a900467ffffffffffffffff1667ffffffffffffffff168110155b15610950576040517f74683d7100000000000000000000000000000000000000000000000000000000815260040160405180910390fd5b5f82600e015f3373ffffffffffffffffffffffffffffffffffffffff1673ffffffffffffffffffffffffffffffffffffffff1681526020019081526020015f2054146109c8576040517f157330ee00000000000000000000000000000000000000000000000000000000815260040160405180910390fd5b5f82600b015f3373ffffffffffffffffffffffffffffffffffffffff1673ffffffffffffffffffffffffffffffffffffffff1681526020019081526020015f205490505f5f1b8103610a46576040517fc06789fa00000000000000000000000000000000000000000000000000000000815260040160405180910390fd5b808585604051602001610a5a9291906126f1565b6040516020818303038152906040528051906020012014610aa7576040517fc06789fa00000000000000000000000000000000000000000000000000000000815260040160405180910390fd5b8483600e015f3373ffffffffffffffffffffffffffffffffffffffff1673ffffffffffffffffffffffffffffffffffffffff1681526020019081526020015f208190555082600301548510610cc5578260070154851180610bf25750826007015485148015610bf1575082600c015f8460060160089054906101000a900473ffffffffffffffffffffffffffffffffffffffff1673ffffffffffffffffffffffffffffffffffffffff1673ffffffffffffffffffffffffffffffffffffffff1681526020019081526020015f205f9054906101000a900467ffffffffffffffff1667ffffffffffffffff1683600c015f3373ffffffffffffffffffffffffffffffffffffffff1673ffffffffffffffffffffffffffffffffffffffff1681526020019081526020015f205f9054906101000a900467ffffffffffffffff1667ffffffffffffffff16105b5b15610cad575f73ffffffffffffffffffffffffffffffffffffffff168360060160089054906101000a900473ffffffffffffffffffffffffffffffffffffffff1673ffffffffffffffffffffffffffffffffffffffff1614610c5c57826007015483600801819055505b848360070181905550338360060160086101000a81548173ffffffffffffffffffffffffffffffffffffffff021916908373ffffffffffffffffffffffffffffffffffffffff160217905550610cc4565b8260080154851115610cc3578483600801819055505b5b5b3373ffffffffffffffffffffffffffffffffffffffff166001547f86d2fbc9069d34216ebc65b38ce840528d3f8cac0c86d2aaa7ab6a9db8bc35d387604051610d0e919061210f565b60405180910390a35050505050565b5f5f5f5f610d2a85612056565b90508060060160089054906101000a900473ffffffffffffffffffffffffffffffffffffffff168160090154826006015f9054906101000a900467ffffffffffffffff16935093509350509193909250565b5f5f610d8784612056565b905080600e015f8473ffffffffffffffffffffffffffffffffffffffff1673ffffffffffffffffffffffffffffffffffffffff1681526020019081526020015f205491505092915050565b5f610ddb611f23565b90508060050160089054906101000a900467ffffffffffffffff1667ffffffffffffffff1642101580610e2e5750806005015f9054906101000a900467ffffffffffffffff1667ffffffffffffffff1642105b15610e65576040517fabfb7dc300000000000000000000000000000000000000000000000000000000815260040160405180910390fd5b5f5f1b81600b015f3373ffffffffffffffffffffffffffffffffffffffff1673ffffffffffffffffffffffffffffffffffffffff1681526020019081526020015f205403610f38575f5f1b81600b015f3373ffffffffffffffffffffffffffffffffffffffff1673ffffffffffffffffffffffffffffffffffffffff1681526020019081526020015f20819055505f81600d015f3373ffffffffffffffffffffffffffffffffffffffff1673ffffffffffffffffffffffffffffffffffffffff1681526020019081526020015f20819055505b8181600b015f3373ffffffffffffffffffffffffffffffffffffffff1673ffffffffffffffffffffffffffffffffffffffff1681526020019081526020015f20819055504281600c015f3373ffffffffffffffffffffffffffffffffffffffff1673ffffffffffffffffffffffffffffffffffffffff1681526020019081526020015f205f6101000a81548167ffffffffffffffff021916908367ffffffffffffffff1602179055503373ffffffffffffffffffffffffffffffffffffffff166001547f0934ea4de468dcd0d9a335c5f97aa77955310c29631c93fbd01d95a00242ec4160405160405180910390a35050565b5f6001541461109d575f60025f60015481526020019081526020015f20905080600a0160019054906101000a900460ff1661109b576040517f08c379a000000000000000000000000000000000000000000000000000000000815260040161109290612766565b60405180910390fd5b505b5f8367ffffffffffffffff161180156110c2575062278d008367ffffffffffffffff16105b611101576040517f08c379a00000000000000000000000000000000000000000000000000000000081526004016110f8906127ce565b60405180910390fd5b5f8267ffffffffffffffff16118015611126575062278d008267ffffffffffffffff16105b611165576040517f08c379a000000000000000000000000000000000000000000000000000000000815260040161115c90612836565b60405180910390fd5b5f841015801561118057506b033b2e3c9fd0803ce800000084105b6111bf576040517f08c379a00000000000000000000000000000000000000000000000000000000081526004016111b69061289e565b60405180910390fd5b3373ffffffffffffffffffffffffffffffffffffffff167f000000000000000000000000000000000000000000000000000000000000000073ffffffffffffffffffffffffffffffffffffffff16636352211e876040518263ffffffff1660e01b815260040161122f919061210f565b602060405180830381865afa15801561124a573d5f5f3e3d5ffd5b505050506040513d601f19601f8201168201806040525081019061126e91906128d0565b73ffffffffffffffffffffffffffffffffffffffff16146112c4576040517f08c379a00000000000000000000000000000000000000000000000000000000081526004016112bb90612945565b60405180910390fd5b3073ffffffffffffffffffffffffffffffffffffffff167f000000000000000000000000000000000000000000000000000000000000000073ffffffffffffffffffffffffffffffffffffffff1663081812fc876040518263ffffffff1660e01b8152600401611334919061210f565b602060405180830381865afa15801561134f573d5f5f3e3d5ffd5b505050506040513d601f19601f8201168201806040525081019061137391906128d0565b73ffffffffffffffffffffffffffffffffffffffff16148061142b57507f000000000000000000000000000000000000000000000000000000000000000073ffffffffffffffffffffffffffffffffffffffff1663e985e9c533306040518363ffffffff1660e01b81526004016113eb929190612963565b602060405180830381865afa158015611406573d5f5f3e3d5ffd5b505050506040513d601f19601f8201168201806040525081019061142a91906129bf565b5b61146a576040517f08c379a000000000000000000000000000000000000000000000000000000000815260040161146190612a34565b60405180910390fd5b7f000000000000000000000000000000000000000000000000000000000000000073ffffffffffffffffffffffffffffffffffffffff166323b872dd3330886040518463ffffffff1660e01b81526004016114c793929190612a52565b5f604051808303815f87803b1580156114de575f5ffd5b505af11580156114f0573d5f5f3e3d5ffd5b505050506001805f8282546115059190612a87565b925050819055505f60025f60015481526020019081526020015f2090507f0000000000000000000000000000000000000000000000000000000000000000815f015f6101000a81548173ffffffffffffffffffffffffffffffffffffffff021916908373ffffffffffffffffffffffffffffffffffffffff16021790555085816001018190555033816002015f6101000a81548173ffffffffffffffffffffffffffffffffffffffff021916908373ffffffffffffffffffffffffffffffffffffffff1602179055508481600301819055505f42905080826005015f6101000a81548167ffffffffffffffff021916908367ffffffffffffffff160217905550848161161191906125cb565b8260050160086101000a81548167ffffffffffffffff021916908367ffffffffffffffff160217905550838260050160089054906101000a900467ffffffffffffffff1661165f91906125cb565b8260050160106101000a81548167ffffffffffffffff021916908367ffffffffffffffff160217905550828260050160186101000a81548167ffffffffffffffff021916908367ffffffffffffffff160217905550662386f26fc10000600a876116c99190612ae7565b106116db57662386f26fc100006116e9565b600a866116e89190612ae7565b5b82600401819055507f000000000000000000000000000000000000000000000000000000000000000073ffffffffffffffffffffffffffffffffffffffff163373ffffffffffffffffffffffffffffffffffffffff166001547f086b19d6a6b02147fc1e9f2538ae5b1ff124ee6827666573f5f59710a6bd5ebb8a8a8760040154886005015f9054906101000a900467ffffffffffffffff168960050160089054906101000a900467ffffffffffffffff168a60050160109054906101000a900467ffffffffffffffff168b60050160189054906101000a900467ffffffffffffffff166040516117e09796959493929190612b47565b60405180910390a450505050505050565b5f5f6117fc84612056565b905080600b015f8473ffffffffffffffffffffffffffffffffffffffff1673ffffffffffffffffffffffffffffffffffffffff1681526020019081526020015f205491505092915050565b5f5f61185284612056565b905080600c015f8473ffffffffffffffffffffffffffffffffffffffff1673ffffffffffffffffffffffffffffffffffffffff1681526020019081526020015f205f9054906101000a900467ffffffffffffffff1691505092915050565b62278d0081565b60605f6118c383612056565b90505f4290508160050160089054906101000a900467ffffffffffffffff1667ffffffffffffffff16811015611932576040518060400160405280600681526020017f434f4d4d4954000000000000000000000000000000000000000000000000000081525092505050611b78565b8160050160109054906101000a900467ffffffffffffffff1667ffffffffffffffff1681101561199b576040518060400160405280600681526020017f52455645414c000000000000000000000000000000000000000000000000000081525092505050611b78565b81600a015f9054906101000a900460ff166119ef576040518060400160405280601081526020017f46494e414c495a455f50454e44494e470000000000000000000000000000000081525092505050611b78565b81600a015f9054906101000a900460ff168015611a1b575081600a0160019054906101000a900460ff16155b8015611a7757505f73ffffffffffffffffffffffffffffffffffffffff168260060160089054906101000a900473ffffffffffffffffffffffffffffffffffffffff1673ffffffffffffffffffffffffffffffffffffffff1614155b8015611aa45750816006015f9054906101000a900467ffffffffffffffff1667ffffffffffffffff168111155b15611ae8576040518060400160405280600d81526020017f41574149545f5041594d454e540000000000000000000000000000000000000081525092505050611b78565b81600a0160019054906101000a900460ff16611b3d576040518060400160405280600f81526020017f534554544c454d454e545f4f50454e000000000000000000000000000000000081525092505050611b78565b6040518060400160405280600581526020017f454e444544000000000000000000000000000000000000000000000000000000815250925050505b919050565b662386f26fc1000081565b5f5f5f5f611b9585612056565b90508060050160089054906101000a900467ffffffffffffffff168160050160109054906101000a900467ffffffffffffffff16826006015f9054906101000a900467ffffffffffffffff16935093509350509193909250565b60025f5403611c33576040517f08c379a0000000000000000000000000000000000000000000000000000000008152600401611c2a90612bfe565b60405180910390fd5b60025f819055505f611c43611f23565b905080600a015f9054906101000a900460ff161580611c7757506001151581600a0160019054906101000a900460ff161515145b15611cae576040517fd3018d1800000000000000000000000000000000000000000000000000000000815260040160405180910390fd5b3373ffffffffffffffffffffffffffffffffffffffff168160060160089054906101000a900473ffffffffffffffffffffffffffffffffffffffff1673ffffffffffffffffffffffffffffffffffffffff1614611d37576040517f618c724200000000000000000000000000000000000000000000000000000000815260040160405180910390fd5b806006015f9054906101000a900467ffffffffffffffff1667ffffffffffffffff16421115611d92576040517f58459e8800000000000000000000000000000000000000000000000000000000815260040160405180910390fd5b80600901543414611dcf576040517f788a686f00000000000000000000000000000000000000000000000000000000815260040160405180910390fd5b600181600a0160016101000a81548160ff0219169083151502179055505f816002015f9054906101000a900473ffffffffffffffffffffffffffffffffffffffff1673ffffffffffffffffffffffffffffffffffffffff1634604051611e3490612c49565b5f6040518083038185875af1925050503d805f8114611e6e576040519150601f19603f3d011682016040523d82523d5f602084013e611e73565b606091505b5050905080611eb7576040517f08c379a0000000000000000000000000000000000000000000000000000000008152600401611eae90612ca7565b60405180910390fd5b611ec78230338560010154611fc4565b3373ffffffffffffffffffffffffffffffffffffffff166001547fd33ef6ab06e6bf8672161aa6abe1ec1791c393d62213ebd89c67f611e538e57534604051611f10919061210f565b60405180910390a3505060015f81905550565b5f60025f60015481526020019081526020015f2090505f73ffffffffffffffffffffffffffffffffffffffff16816002015f9054906101000a900473ffffffffffffffffffffffffffffffffffffffff1673ffffffffffffffffffffffffffffffffffffffff1603611fc1576040517f568ca25700000000000000000000000000000000000000000000000000000000815260040160405180910390fd5b90565b835f015f9054906101000a900473ffffffffffffffffffffffffffffffffffffffff1673ffffffffffffffffffffffffffffffffffffffff166323b872dd8484846040518463ffffffff1660e01b815260040161202393929190612a52565b5f604051808303815f87803b15801561203a575f5ffd5b505af115801561204c573d5f5f3e3d5ffd5b5050505050505050565b5f60025f8381526020019081526020015f2090505f73ffffffffffffffffffffffffffffffffffffffff16816002015f9054906101000a900473ffffffffffffffffffffffffffffffffffffffff1673ffffffffffffffffffffffffffffffffffffffff16036120f2576040517f568ca25700000000000000000000000000000000000000000000000000000000815260040160405180910390fd5b919050565b5f819050919050565b612109816120f7565b82525050565b5f6020820190506121225f830184612100565b92915050565b5f73ffffffffffffffffffffffffffffffffffffffff82169050919050565b5f819050919050565b5f61216a61216561216084612128565b612147565b612128565b9050919050565b5f61217b82612150565b9050919050565b5f61218c82612171565b9050919050565b61219c81612182565b82525050565b5f6020820190506121b55f830184612193565b92915050565b5f5ffd5b6121c8816120f7565b81146121d2575f5ffd5b50565b5f813590506121e3816121bf565b92915050565b5f819050919050565b6121fb816121e9565b8114612205575f5ffd5b50565b5f81359050612216816121f2565b92915050565b5f5f60408385031215612232576122316121bb565b5b5f61223f858286016121d5565b925050602061225085828601612208565b9150509250929050565b5f6020828403121561226f5761226e6121bb565b5b5f61227c848285016121d5565b91505092915050565b5f61228f82612128565b9050919050565b61229f81612285565b82525050565b5f67ffffffffffffffff82169050919050565b6122c1816122a5565b82525050565b5f6060820190506122da5f830186612296565b6122e76020830185612100565b6122f460408301846122b8565b949350505050565b61230581612285565b811461230f575f5ffd5b50565b5f81359050612320816122fc565b92915050565b5f5f6040838503121561233c5761233b6121bb565b5b5f612349858286016121d5565b925050602061235a85828601612312565b9150509250929050565b5f60208284031215612379576123786121bb565b5b5f61238684828501612208565b91505092915050565b612398816122a5565b81146123a2575f5ffd5b50565b5f813590506123b38161238f565b92915050565b5f5f5f5f5f60a086880312156123d2576123d16121bb565b5b5f6123df888289016121d5565b95505060206123f0888289016121d5565b9450506040612401888289016123a5565b9350506060612412888289016123a5565b9250506080612423888289016123a5565b9150509295509295909350565b612439816121e9565b82525050565b5f6020820190506124525f830184612430565b92915050565b5f60208201905061246b5f8301846122b8565b92915050565b5f81519050919050565b5f82825260208201905092915050565b8281835e5f83830152505050565b5f601f19601f8301169050919050565b5f6124b382612471565b6124bd818561247b565b93506124cd81856020860161248b565b6124d681612499565b840191505092915050565b5f6020820190508181035f8301526124f981846124a9565b905092915050565b5f6060820190506125145f8301866122b8565b61252160208301856122b8565b61252e60408301846122b8565b949350505050565b7f616c72656164792066696e616c697a65640000000000000000000000000000005f82015250565b5f61256a60118361247b565b915061257582612536565b602082019050919050565b5f6020820190508181035f8301526125978161255e565b9050919050565b7f4e487b71000000000000000000000000000000000000000000000000000000005f52601160045260245ffd5b5f6125d5826122a5565b91506125e0836122a5565b9250828201905067ffffffffffffffff811115612600576125ff61259e565b5b92915050565b5f6080820190506126195f830187612296565b6126266020830186612100565b6126336040830185612100565b6126406060830184612100565b95945050505050565b7f7374696c6c2070617961626c652077696e646f770000000000000000000000005f82015250565b5f61267d60148361247b565b915061268882612649565b602082019050919050565b5f6020820190508181035f8301526126aa81612671565b9050919050565b5f819050919050565b6126cb6126c6826120f7565b6126b1565b82525050565b5f819050919050565b6126eb6126e6826121e9565b6126d1565b82525050565b5f6126fc82856126ba565b60208201915061270c82846126da565b6020820191508190509392505050565b7f70726576696f7573206e6f7420736574746c65640000000000000000000000005f82015250565b5f61275060148361247b565b915061275b8261271c565b602082019050919050565b5f6020820190508181035f83015261277d81612744565b9050919050565b7f434f4e4649473a2062616420636f6d6d6974206475726174696f6e73000000005f82015250565b5f6127b8601c8361247b565b91506127c382612784565b602082019050919050565b5f6020820190508181035f8301526127e5816127ac565b9050919050565b7f434f4e4649473a206261642072657665616c206475726174696f6e73000000005f82015250565b5f612820601c8361247b565b915061282b826127ec565b602082019050919050565b5f6020820190508181035f83015261284d81612814565b9050919050565b7f434f4e4649473a206261642072657365727665207072696365000000000000005f82015250565b5f61288860198361247b565b915061289382612854565b602082019050919050565b5f6020820190508181035f8301526128b58161287c565b9050919050565b5f815190506128ca816122fc565b92915050565b5f602082840312156128e5576128e46121bb565b5b5f6128f2848285016128bc565b91505092915050565b7f4e46543a206e6f74206f776e65720000000000000000000000000000000000005f82015250565b5f61292f600e8361247b565b915061293a826128fb565b602082019050919050565b5f6020820190508181035f83015261295c81612923565b9050919050565b5f6040820190506129765f830185612296565b6129836020830184612296565b9392505050565b5f8115159050919050565b61299e8161298a565b81146129a8575f5ffd5b50565b5f815190506129b981612995565b92915050565b5f602082840312156129d4576129d36121bb565b5b5f6129e1848285016129ab565b91505092915050565b7f4e46543a206e6f7420617070726f7665640000000000000000000000000000005f82015250565b5f612a1e60118361247b565b9150612a29826129ea565b602082019050919050565b5f6020820190508181035f830152612a4b81612a12565b9050919050565b5f606082019050612a655f830186612296565b612a726020830185612296565b612a7f6040830184612100565b949350505050565b5f612a91826120f7565b9150612a9c836120f7565b9250828201905080821115612ab457612ab361259e565b5b92915050565b7f4e487b71000000000000000000000000000000000000000000000000000000005f52601260045260245ffd5b5f612af1826120f7565b9150612afc836120f7565b925082612b0c57612b0b612aba565b5b828204905092915050565b5f612b31612b2c612b27846122a5565b612147565b6120f7565b9050919050565b612b4181612b17565b82525050565b5f60e082019050612b5a5f83018a612100565b612b676020830189612100565b612b746040830188612100565b612b816060830187612b38565b612b8e60808301866122b8565b612b9b60a08301856122b8565b612ba860c08301846122b8565b98975050505050505050565b7f5245454e5452414e4359000000000000000000000000000000000000000000005f82015250565b5f612be8600a8361247b565b9150612bf382612bb4565b602082019050919050565b5f6020820190508181035f830152612c1581612bdc565b9050919050565b5f81905092915050565b50565b5f612c345f83612c1c565b9150612c3f82612c26565b5f82019050919050565b5f612c5382612c29565b9150819050919050565b7f7061792073656c6c6572206661696c65640000000000000000000000000000005f82015250565b5f612c9160118361247b565b9150612c9c82612c5d565b602082019050919050565b5f6020820190508181035f830152612cbe81612c85565b905091905056fea2646970667358221220de921d90ae991527e893c0151b4cf99aa602bb044dba22d9599a2019a75167c064736f6c634300081e0033",
					"opcodes": "PUSH1 0xA0 PUSH1 0x40 MSTORE PUSH1 0x1 PUSH0 SSTORE CALLVALUE DUP1 ISZERO PUSH2 0x13 JUMPI PUSH0 PUSH0 REVERT JUMPDEST POP PUSH1 0x40 MLOAD PUSH2 0x2F1B CODESIZE SUB DUP1 PUSH2 0x2F1B DUP4 CODECOPY DUP2 DUP2 ADD PUSH1 0x40 MSTORE DUP2 ADD SWAP1 PUSH2 0x35 SWAP2 SWAP1 PUSH2 0x13B JUMP JUMPDEST PUSH0 PUSH20 0xFFFFFFFFFFFFFFFFFFFFFFFFFFFFFFFFFFFFFFFF AND DUP2 PUSH20 0xFFFFFFFFFFFFFFFFFFFFFFFFFFFFFFFFFFFFFFFF AND SUB PUSH2 0xA3 JUMPI PUSH1 0x40 MLOAD PUSH32 0x8C379A000000000000000000000000000000000000000000000000000000000 DUP2 MSTORE PUSH1 0x4 ADD PUSH2 0x9A SWAP1 PUSH2 0x1C0 JUMP JUMPDEST PUSH1 0x40 MLOAD DUP1 SWAP2 SUB SWAP1 REVERT JUMPDEST DUP1 PUSH20 0xFFFFFFFFFFFFFFFFFFFFFFFFFFFFFFFFFFFFFFFF AND PUSH1 0x80 DUP2 PUSH20 0xFFFFFFFFFFFFFFFFFFFFFFFFFFFFFFFFFFFFFFFF AND DUP2 MSTORE POP POP POP PUSH2 0x1DE JUMP JUMPDEST PUSH0 PUSH0 REVERT JUMPDEST PUSH0 PUSH20 0xFFFFFFFFFFFFFFFFFFFFFFFFFFFFFFFFFFFFFFFF DUP3 AND SWAP1 POP SWAP2 SWAP1 POP JUMP JUMPDEST PUSH0 PUSH2 0x10A DUP3 PUSH2 0xE1 JUMP JUMPDEST SWAP1 POP SWAP2 SWAP1 POP JUMP JUMPDEST PUSH2 0x11A DUP2 PUSH2 0x100 JUMP JUMPDEST DUP2 EQ PUSH2 0x124 JUMPI PUSH0 PUSH0 REVERT JUMPDEST POP JUMP JUMPDEST PUSH0 DUP2 MLOAD SWAP1 POP PUSH2 0x135 DUP2 PUSH2 0x111 JUMP JUMPDEST SWAP3 SWAP2 POP POP JUMP JUMPDEST PUSH0 PUSH1 0x20 DUP3 DUP5 SUB SLT ISZERO PUSH2 0x150 JUMPI PUSH2 0x14F PUSH2 0xDD JUMP JUMPDEST JUMPDEST PUSH0 PUSH2 0x15D DUP5 DUP3 DUP6 ADD PUSH2 0x127 JUMP JUMPDEST SWAP2 POP POP SWAP3 SWAP2 POP POP JUMP JUMPDEST PUSH0 DUP3 DUP3 MSTORE PUSH1 0x20 DUP3 ADD SWAP1 POP SWAP3 SWAP2 POP POP JUMP JUMPDEST PUSH32 0x626164204E465400000000000000000000000000000000000000000000000000 PUSH0 DUP3 ADD MSTORE POP JUMP JUMPDEST PUSH0 PUSH2 0x1AA PUSH1 0x7 DUP4 PUSH2 0x166 JUMP JUMPDEST SWAP2 POP PUSH2 0x1B5 DUP3 PUSH2 0x176 JUMP JUMPDEST PUSH1 0x20 DUP3 ADD SWAP1 POP SWAP2 SWAP1 POP JUMP JUMPDEST PUSH0 PUSH1 0x20 DUP3 ADD SWAP1 POP DUP2 DUP2 SUB PUSH0 DUP4 ADD MSTORE PUSH2 0x1D7 DUP2 PUSH2 0x19E JUMP JUMPDEST SWAP1 POP SWAP2 SWAP1 POP JUMP JUMPDEST PUSH1 0x80 MLOAD PUSH2 0x2CFB PUSH2 0x220 PUSH0 CODECOPY PUSH0 DUP2 DUP2 PUSH2 0x896 ADD MSTORE DUP2 DUP2 PUSH2 0x11D8 ADD MSTORE DUP2 DUP2 PUSH2 0x12DD ADD MSTORE DUP2 DUP2 PUSH2 0x1392 ADD MSTORE DUP2 DUP2 PUSH2 0x146C ADD MSTORE DUP2 DUP2 PUSH2 0x1524 ADD MSTORE PUSH2 0x16F3 ADD MSTORE PUSH2 0x2CFB PUSH0 RETURN INVALID PUSH1 0x80 PUSH1 0x40 MSTORE PUSH1 0x4 CALLDATASIZE LT PUSH2 0xFD JUMPI PUSH0 CALLDATALOAD PUSH1 0xE0 SHR DUP1 PUSH4 0x86A2CC27 GT PUSH2 0x94 JUMPI DUP1 PUSH4 0xB1724B46 GT PUSH2 0x63 JUMPI DUP1 PUSH4 0xB1724B46 EQ PUSH2 0x315 JUMPI DUP1 PUSH4 0xB1FB6405 EQ PUSH2 0x33F JUMPI DUP1 PUSH4 0xCDF91DAE EQ PUSH2 0x37B JUMPI DUP1 PUSH4 0xD3AA699E EQ PUSH2 0x3A5 JUMPI DUP1 PUSH4 0xE9906F2E EQ PUSH2 0x3E3 JUMPI PUSH2 0xFD JUMP JUMPDEST DUP1 PUSH4 0x86A2CC27 EQ PUSH2 0x24D JUMPI DUP1 PUSH4 0x894DA478 EQ PUSH2 0x275 JUMPI DUP1 PUSH4 0x89FB2682 EQ PUSH2 0x29D JUMPI DUP1 PUSH4 0x8F3708E8 EQ PUSH2 0x2D9 JUMPI PUSH2 0xFD JUMP JUMPDEST DUP1 PUSH4 0x5E7721F7 GT PUSH2 0xD0 JUMPI DUP1 PUSH4 0x5E7721F7 EQ PUSH2 0x181 JUMPI DUP1 PUSH4 0x62C5424A EQ PUSH2 0x1AB JUMPI DUP1 PUSH4 0x6B1DA364 EQ PUSH2 0x1D3 JUMPI DUP1 PUSH4 0x813ABC2D EQ PUSH2 0x211 JUMPI PUSH2 0xFD JUMP JUMPDEST DUP1 PUSH4 0x1C11D96 EQ PUSH2 0x101 JUMPI DUP1 PUSH4 0x10782F8F EQ PUSH2 0x12B JUMPI DUP1 PUSH4 0x4BB278F3 EQ PUSH2 0x155 JUMPI DUP1 PUSH4 0x5DF6FF9D EQ PUSH2 0x16B JUMPI JUMPDEST PUSH0 PUSH0 REVERT JUMPDEST CALLVALUE DUP1 ISZERO PUSH2 0x10C JUMPI PUSH0 PUSH0 REVERT JUMPDEST POP PUSH2 0x115 PUSH2 0x3ED JUMP JUMPDEST PUSH1 0x40 MLOAD PUSH2 0x122 SWAP2 SWAP1 PUSH2 0x210F JUMP JUMPDEST PUSH1 0x40 MLOAD DUP1 SWAP2 SUB SWAP1 RETURN JUMPDEST CALLVALUE DUP1 ISZERO PUSH2 0x136 JUMPI PUSH0 PUSH0 REVERT JUMPDEST POP PUSH2 0x13F PUSH2 0x3FD JUMP JUMPDEST PUSH1 0x40 MLOAD PUSH2 0x14C SWAP2 SWAP1 PUSH2 0x210F JUMP JUMPDEST PUSH1 0x40 MLOAD DUP1 SWAP2 SUB SWAP1 RETURN JUMPDEST CALLVALUE DUP1 ISZERO PUSH2 0x160 JUMPI PUSH0 PUSH0 REVERT JUMPDEST POP PUSH2 0x169 PUSH2 0x403 JUMP JUMPDEST STOP JUMPDEST CALLVALUE DUP1 ISZERO PUSH2 0x176 JUMPI PUSH0 PUSH0 REVERT JUMPDEST POP PUSH2 0x17F PUSH2 0x6BA JUMP JUMPDEST STOP JUMPDEST CALLVALUE DUP1 ISZERO PUSH2 0x18C JUMPI PUSH0 PUSH0 REVERT JUMPDEST POP PUSH2 0x195 PUSH2 0x894 JUMP JUMPDEST PUSH1 0x40 MLOAD PUSH2 0x1A2 SWAP2 SWAP1 PUSH2 0x21A2 JUMP JUMPDEST PUSH1 0x40 MLOAD DUP1 SWAP2 SUB SWAP1 RETURN JUMPDEST CALLVALUE DUP1 ISZERO PUSH2 0x1B6 JUMPI PUSH0 PUSH0 REVERT JUMPDEST POP PUSH2 0x1D1 PUSH1 0x4 DUP1 CALLDATASIZE SUB DUP2 ADD SWAP1 PUSH2 0x1CC SWAP2 SWAP1 PUSH2 0x221C JUMP JUMPDEST PUSH2 0x8B8 JUMP JUMPDEST STOP JUMPDEST CALLVALUE DUP1 ISZERO PUSH2 0x1DE JUMPI PUSH0 PUSH0 REVERT JUMPDEST POP PUSH2 0x1F9 PUSH1 0x4 DUP1 CALLDATASIZE SUB DUP2 ADD SWAP1 PUSH2 0x1F4 SWAP2 SWAP1 PUSH2 0x225A JUMP JUMPDEST PUSH2 0xD1D JUMP JUMPDEST PUSH1 0x40 MLOAD PUSH2 0x208 SWAP4 SWAP3 SWAP2 SWAP1 PUSH2 0x22C7 JUMP JUMPDEST PUSH1 0x40 MLOAD DUP1 SWAP2 SUB SWAP1 RETURN JUMPDEST CALLVALUE DUP1 ISZERO PUSH2 0x21C JUMPI PUSH0 PUSH0 REVERT JUMPDEST POP PUSH2 0x237 PUSH1 0x4 DUP1 CALLDATASIZE SUB DUP2 ADD SWAP1 PUSH2 0x232 SWAP2 SWAP1 PUSH2 0x2326 JUMP JUMPDEST PUSH2 0xD7C JUMP JUMPDEST PUSH1 0x40 MLOAD PUSH2 0x244 SWAP2 SWAP1 PUSH2 0x210F JUMP JUMPDEST PUSH1 0x40 MLOAD DUP1 SWAP2 SUB SWAP1 RETURN JUMPDEST CALLVALUE DUP1 ISZERO PUSH2 0x258 JUMPI PUSH0 PUSH0 REVERT JUMPDEST POP PUSH2 0x273 PUSH1 0x4 DUP1 CALLDATASIZE SUB DUP2 ADD SWAP1 PUSH2 0x26E SWAP2 SWAP1 PUSH2 0x2364 JUMP JUMPDEST PUSH2 0xDD2 JUMP JUMPDEST STOP JUMPDEST CALLVALUE DUP1 ISZERO PUSH2 0x280 JUMPI PUSH0 PUSH0 REVERT JUMPDEST POP PUSH2 0x29B PUSH1 0x4 DUP1 CALLDATASIZE SUB DUP2 ADD SWAP1 PUSH2 0x296 SWAP2 SWAP1 PUSH2 0x23B9 JUMP JUMPDEST PUSH2 0x102B JUMP JUMPDEST STOP JUMPDEST CALLVALUE DUP1 ISZERO PUSH2 0x2A8 JUMPI PUSH0 PUSH0 REVERT JUMPDEST POP PUSH2 0x2C3 PUSH1 0x4 DUP1 CALLDATASIZE SUB DUP2 ADD SWAP1 PUSH2 0x2BE SWAP2 SWAP1 PUSH2 0x2326 JUMP JUMPDEST PUSH2 0x17F1 JUMP JUMPDEST PUSH1 0x40 MLOAD PUSH2 0x2D0 SWAP2 SWAP1 PUSH2 0x243F JUMP JUMPDEST PUSH1 0x40 MLOAD DUP1 SWAP2 SUB SWAP1 RETURN JUMPDEST CALLVALUE DUP1 ISZERO PUSH2 0x2E4 JUMPI PUSH0 PUSH0 REVERT JUMPDEST POP PUSH2 0x2FF PUSH1 0x4 DUP1 CALLDATASIZE SUB DUP2 ADD SWAP1 PUSH2 0x2FA SWAP2 SWAP1 PUSH2 0x2326 JUMP JUMPDEST PUSH2 0x1847 JUMP JUMPDEST PUSH1 0x40 MLOAD PUSH2 0x30C SWAP2 SWAP1 PUSH2 0x2458 JUMP JUMPDEST PUSH1 0x40 MLOAD DUP1 SWAP2 SUB SWAP1 RETURN JUMPDEST CALLVALUE DUP1 ISZERO PUSH2 0x320 JUMPI PUSH0 PUSH0 REVERT JUMPDEST POP PUSH2 0x329 PUSH2 0x18B0 JUMP JUMPDEST PUSH1 0x40 MLOAD PUSH2 0x336 SWAP2 SWAP1 PUSH2 0x210F JUMP JUMPDEST PUSH1 0x40 MLOAD DUP1 SWAP2 SUB SWAP1 RETURN JUMPDEST CALLVALUE DUP1 ISZERO PUSH2 0x34A JUMPI PUSH0 PUSH0 REVERT JUMPDEST POP PUSH2 0x365 PUSH1 0x4 DUP1 CALLDATASIZE SUB DUP2 ADD SWAP1 PUSH2 0x360 SWAP2 SWAP1 PUSH2 0x225A JUMP JUMPDEST PUSH2 0x18B7 JUMP JUMPDEST PUSH1 0x40 MLOAD PUSH2 0x372 SWAP2 SWAP1 PUSH2 0x24E1 JUMP JUMPDEST PUSH1 0x40 MLOAD DUP1 SWAP2 SUB SWAP1 RETURN JUMPDEST CALLVALUE DUP1 ISZERO PUSH2 0x386 JUMPI PUSH0 PUSH0 REVERT JUMPDEST POP PUSH2 0x38F PUSH2 0x1B7D JUMP JUMPDEST PUSH1 0x40 MLOAD PUSH2 0x39C SWAP2 SWAP1 PUSH2 0x210F JUMP JUMPDEST PUSH1 0x40 MLOAD DUP1 SWAP2 SUB SWAP1 RETURN JUMPDEST CALLVALUE DUP1 ISZERO PUSH2 0x3B0 JUMPI PUSH0 PUSH0 REVERT JUMPDEST POP PUSH2 0x3CB PUSH1 0x4 DUP1 CALLDATASIZE SUB DUP2 ADD SWAP1 PUSH2 0x3C6 SWAP2 SWAP1 PUSH2 0x225A JUMP JUMPDEST PUSH2 0x1B88 JUMP JUMPDEST PUSH1 0x40 MLOAD PUSH2 0x3DA SWAP4 SWAP3 SWAP2 SWAP1 PUSH2 0x2501 JUMP JUMPDEST PUSH1 0x40 MLOAD DUP1 SWAP2 SUB SWAP1 RETURN JUMPDEST PUSH2 0x3EB PUSH2 0x1BEF JUMP JUMPDEST STOP JUMPDEST PUSH12 0x33B2E3C9FD0803CE8000000 DUP2 JUMP JUMPDEST PUSH1 0x1 SLOAD DUP2 JUMP JUMPDEST PUSH0 PUSH2 0x40C PUSH2 0x1F23 JUMP JUMPDEST SWAP1 POP DUP1 PUSH1 0x5 ADD PUSH1 0x10 SWAP1 SLOAD SWAP1 PUSH2 0x100 EXP SWAP1 DIV PUSH8 0xFFFFFFFFFFFFFFFF AND PUSH8 0xFFFFFFFFFFFFFFFF AND TIMESTAMP LT ISZERO PUSH2 0x469 JUMPI PUSH1 0x40 MLOAD PUSH31 0xE8F46600000000000000000000000000000000000000000000000000000000 DUP2 MSTORE PUSH1 0x4 ADD PUSH1 0x40 MLOAD DUP1 SWAP2 SUB SWAP1 REVERT JUMPDEST DUP1 PUSH1 0xA ADD PUSH0 SWAP1 SLOAD SWAP1 PUSH2 0x100 EXP SWAP1 DIV PUSH1 0xFF AND ISZERO PUSH2 0x4BA JUMPI PUSH1 0x40 MLOAD PUSH32 0x8C379A000000000000000000000000000000000000000000000000000000000 DUP2 MSTORE PUSH1 0x4 ADD PUSH2 0x4B1 SWAP1 PUSH2 0x2580 JUMP JUMPDEST PUSH1 0x40 MLOAD DUP1 SWAP2 SUB SWAP1 REVERT JUMPDEST PUSH0 PUSH20 0xFFFFFFFFFFFFFFFFFFFFFFFFFFFFFFFFFFFFFFFF AND DUP2 PUSH1 0x6 ADD PUSH1 0x8 SWAP1 SLOAD SWAP1 PUSH2 0x100 EXP SWAP1 DIV PUSH20 0xFFFFFFFFFFFFFFFFFFFFFFFFFFFFFFFFFFFFFFFF AND PUSH20 0xFFFFFFFFFFFFFFFFFFFFFFFFFFFFFFFFFFFFFFFF AND SUB PUSH2 0x5BB JUMPI PUSH1 0x1 DUP2 PUSH1 0xA ADD PUSH0 PUSH2 0x100 EXP DUP2 SLOAD DUP2 PUSH1 0xFF MUL NOT AND SWAP1 DUP4 ISZERO ISZERO MUL OR SWAP1 SSTORE POP PUSH1 0x1 DUP2 PUSH1 0xA ADD PUSH1 0x1 PUSH2 0x100 EXP DUP2 SLOAD DUP2 PUSH1 0xFF MUL NOT AND SWAP1 DUP4 ISZERO ISZERO MUL OR SWAP1 SSTORE POP PUSH0 DUP2 PUSH1 0x9 ADD DUP2 SWAP1 SSTORE POP PUSH2 0x586 DUP2 ADDRESS DUP4 PUSH1 0x2 ADD PUSH0 SWAP1 SLOAD SWAP1 PUSH2 0x100 EXP SWAP1 DIV PUSH20 0xFFFFFFFFFFFFFFFFFFFFFFFFFFFFFFFFFFFFFFFF AND DUP5 PUSH1 0x1 ADD SLOAD PUSH2 0x1FC4 JUMP JUMPDEST PUSH1 0x1 SLOAD PUSH32 0xA761D07FDB0A6897F18726F15D43008D6C30CE08E44A91775CFD2EF3B61CDAD0 PUSH1 0x40 MLOAD PUSH1 0x40 MLOAD DUP1 SWAP2 SUB SWAP1 LOG2 POP PUSH2 0x6B8 JUMP JUMPDEST PUSH0 DUP2 PUSH1 0x8 ADD SLOAD SWAP1 POP DUP2 PUSH1 0x3 ADD SLOAD DUP2 LT ISZERO PUSH2 0x5D7 JUMPI DUP2 PUSH1 0x3 ADD SLOAD SWAP1 POP JUMPDEST DUP1 DUP3 PUSH1 0x9 ADD DUP2 SWAP1 SSTORE POP PUSH1 0x1 DUP3 PUSH1 0xA ADD PUSH0 PUSH2 0x100 EXP DUP2 SLOAD DUP2 PUSH1 0xFF MUL NOT AND SWAP1 DUP4 ISZERO ISZERO MUL OR SWAP1 SSTORE POP DUP2 PUSH1 0x5 ADD PUSH1 0x18 SWAP1 SLOAD SWAP1 PUSH2 0x100 EXP SWAP1 DIV PUSH8 0xFFFFFFFFFFFFFFFF AND TIMESTAMP PUSH2 0x620 SWAP2 SWAP1 PUSH2 0x25CB JUMP JUMPDEST DUP3 PUSH1 0x6 ADD PUSH0 PUSH2 0x100 EXP DUP2 SLOAD DUP2 PUSH8 0xFFFFFFFFFFFFFFFF MUL NOT AND SWAP1 DUP4 PUSH8 0xFFFFFFFFFFFFFFFF AND MUL OR SWAP1 SSTORE POP PUSH1 0x1 SLOAD PUSH32 0x5AB4254A16D8F1486E035342F3B6736A5EFDC0B79886E7525B374BB0EC9EBEE1 DUP4 PUSH1 0x6 ADD PUSH1 0x8 SWAP1 SLOAD SWAP1 PUSH2 0x100 EXP SWAP1 DIV PUSH20 0xFFFFFFFFFFFFFFFFFFFFFFFFFFFFFFFFFFFFFFFF AND DUP5 PUSH1 0x7 ADD SLOAD DUP6 PUSH1 0x8 ADD SLOAD DUP6 PUSH1 0x40 MLOAD PUSH2 0x6AD SWAP5 SWAP4 SWAP3 SWAP2 SWAP1 PUSH2 0x2606 JUMP JUMPDEST PUSH1 0x40 MLOAD DUP1 SWAP2 SUB SWAP1 LOG2 POP POP JUMPDEST JUMP JUMPDEST PUSH0 PUSH2 0x6C3 PUSH2 0x1F23 JUMP JUMPDEST SWAP1 POP DUP1 PUSH1 0xA ADD PUSH0 SWAP1 SLOAD SWAP1 PUSH2 0x100 EXP SWAP1 DIV PUSH1 0xFF AND ISZERO DUP1 PUSH2 0x6F0 JUMPI POP DUP1 PUSH1 0xA ADD PUSH1 0x1 SWAP1 SLOAD SWAP1 PUSH2 0x100 EXP SWAP1 DIV PUSH1 0xFF AND JUMPDEST ISZERO PUSH2 0x727 JUMPI PUSH1 0x40 MLOAD PUSH32 0xD3018D1800000000000000000000000000000000000000000000000000000000 DUP2 MSTORE PUSH1 0x4 ADD PUSH1 0x40 MLOAD DUP1 SWAP2 SUB SWAP1 REVERT JUMPDEST DUP1 PUSH1 0x2 ADD PUSH0 SWAP1 SLOAD SWAP1 PUSH2 0x100 EXP SWAP1 DIV PUSH20 0xFFFFFFFFFFFFFFFFFFFFFFFFFFFFFFFFFFFFFFFF AND PUSH20 0xFFFFFFFFFFFFFFFFFFFFFFFFFFFFFFFFFFFFFFFF AND CALLER PUSH20 0xFFFFFFFFFFFFFFFFFFFFFFFFFFFFFFFFFFFFFFFF AND EQ PUSH2 0x7AF JUMPI PUSH1 0x40 MLOAD PUSH32 0x5EC8235100000000000000000000000000000000000000000000000000000000 DUP2 MSTORE PUSH1 0x4 ADD PUSH1 0x40 MLOAD DUP1 SWAP2 SUB SWAP1 REVERT JUMPDEST DUP1 PUSH1 0x6 ADD PUSH0 SWAP1 SLOAD SWAP1 PUSH2 0x100 EXP SWAP1 DIV PUSH8 0xFFFFFFFFFFFFFFFF AND PUSH8 0xFFFFFFFFFFFFFFFF AND TIMESTAMP GT PUSH2 0x812 JUMPI PUSH1 0x40 MLOAD PUSH32 0x8C379A000000000000000000000000000000000000000000000000000000000 DUP2 MSTORE PUSH1 0x4 ADD PUSH2 0x809 SWAP1 PUSH2 0x2693 JUMP JUMPDEST PUSH1 0x40 MLOAD DUP1 SWAP2 SUB SWAP1 REVERT JUMPDEST PUSH1 0x1 DUP2 PUSH1 0xA ADD PUSH1 0x1 PUSH2 0x100 EXP DUP2 SLOAD DUP2 PUSH1 0xFF MUL NOT AND SWAP1 DUP4 ISZERO ISZERO MUL OR SWAP1 SSTORE POP PUSH2 0x862 DUP2 ADDRESS DUP4 PUSH1 0x2 ADD PUSH0 SWAP1 SLOAD SWAP1 PUSH2 0x100 EXP SWAP1 DIV PUSH20 0xFFFFFFFFFFFFFFFFFFFFFFFFFFFFFFFFFFFFFFFF AND DUP5 PUSH1 0x1 ADD SLOAD PUSH2 0x1FC4 JUMP JUMPDEST PUSH1 0x1 SLOAD PUSH32 0x55C90D9726FF7562E2DDA9743C070AB007DD986E4C0A42BCF578362C435A4D89 PUSH1 0x40 MLOAD PUSH1 0x40 MLOAD DUP1 SWAP2 SUB SWAP1 LOG2 POP JUMP JUMPDEST PUSH32 0x0 DUP2 JUMP JUMPDEST PUSH0 PUSH2 0x8C1 PUSH2 0x1F23 JUMP JUMPDEST SWAP1 POP PUSH0 TIMESTAMP SWAP1 POP DUP2 PUSH1 0x5 ADD PUSH1 0x8 SWAP1 SLOAD SWAP1 PUSH2 0x100 EXP SWAP1 DIV PUSH8 0xFFFFFFFFFFFFFFFF AND PUSH8 0xFFFFFFFFFFFFFFFF AND DUP2 LT DUP1 PUSH2 0x919 JUMPI POP DUP2 PUSH1 0x5 ADD PUSH1 0x10 SWAP1 SLOAD SWAP1 PUSH2 0x100 EXP SWAP1 DIV PUSH8 0xFFFFFFFFFFFFFFFF AND PUSH8 0xFFFFFFFFFFFFFFFF AND DUP2 LT ISZERO JUMPDEST ISZERO PUSH2 0x950 JUMPI PUSH1 0x40 MLOAD PUSH32 0x74683D7100000000000000000000000000000000000000000000000000000000 DUP2 MSTORE PUSH1 0x4 ADD PUSH1 0x40 MLOAD DUP1 SWAP2 SUB SWAP1 REVERT JUMPDEST PUSH0 DUP3 PUSH1 0xE ADD PUSH0 CALLER PUSH20 0xFFFFFFFFFFFFFFFFFFFFFFFFFFFFFFFFFFFFFFFF AND PUSH20 0xFFFFFFFFFFFFFFFFFFFFFFFFFFFFFFFFFFFFFFFF AND DUP2 MSTORE PUSH1 0x20 ADD SWAP1 DUP2 MSTORE PUSH1 0x20 ADD PUSH0 KECCAK256 SLOAD EQ PUSH2 0x9C8 JUMPI PUSH1 0x40 MLOAD PUSH32 0x157330EE00000000000000000000000000000000000000000000000000000000 DUP2 MSTORE PUSH1 0x4 ADD PUSH1 0x40 MLOAD DUP1 SWAP2 SUB SWAP1 REVERT JUMPDEST PUSH0 DUP3 PUSH1 0xB ADD PUSH0 CALLER PUSH20 0xFFFFFFFFFFFFFFFFFFFFFFFFFFFFFFFFFFFFFFFF AND PUSH20 0xFFFFFFFFFFFFFFFFFFFFFFFFFFFFFFFFFFFFFFFF AND DUP2 MSTORE PUSH1 0x20 ADD SWAP1 DUP2 MSTORE PUSH1 0x20 ADD PUSH0 KECCAK256 SLOAD SWAP1 POP PUSH0 PUSH0 SHL DUP2 SUB PUSH2 0xA46 JUMPI PUSH1 0x40 MLOAD PUSH32 0xC06789FA00000000000000000000000000000000000000000000000000000000 DUP2 MSTORE PUSH1 0x4 ADD PUSH1 0x40 MLOAD DUP1 SWAP2 SUB SWAP1 REVERT JUMPDEST DUP1 DUP6 DUP6 PUSH1 0x40 MLOAD PUSH1 0x20 ADD PUSH2 0xA5A SWAP3 SWAP2 SWAP1 PUSH2 0x26F1 JUMP JUMPDEST PUSH1 0x40 MLOAD PUSH1 0x20 DUP2 DUP4 SUB SUB DUP2 MSTORE SWAP1 PUSH1 0x40 MSTORE DUP1 MLOAD SWAP1 PUSH1 0x20 ADD KECCAK256 EQ PUSH2 0xAA7 JUMPI PUSH1 0x40 MLOAD PUSH32 0xC06789FA00000000000000000000000000000000000000000000000000000000 DUP2 MSTORE PUSH1 0x4 ADD PUSH1 0x40 MLOAD DUP1 SWAP2 SUB SWAP1 REVERT JUMPDEST DUP5 DUP4 PUSH1 0xE ADD PUSH0 CALLER PUSH20 0xFFFFFFFFFFFFFFFFFFFFFFFFFFFFFFFFFFFFFFFF AND PUSH20 0xFFFFFFFFFFFFFFFFFFFFFFFFFFFFFFFFFFFFFFFF AND DUP2 MSTORE PUSH1 0x20 ADD SWAP1 DUP2 MSTORE PUSH1 0x20 ADD PUSH0 KECCAK256 DUP2 SWAP1 SSTORE POP DUP3 PUSH1 0x3 ADD SLOAD DUP6 LT PUSH2 0xCC5 JUMPI DUP3 PUSH1 0x7 ADD SLOAD DUP6 GT DUP1 PUSH2 0xBF2 JUMPI POP DUP3 PUSH1 0x7 ADD SLOAD DUP6 EQ DUP1 ISZERO PUSH2 0xBF1 JUMPI POP DUP3 PUSH1 0xC ADD PUSH0 DUP5 PUSH1 0x6 ADD PUSH1 0x8 SWAP1 SLOAD SWAP1 PUSH2 0x100 EXP SWAP1 DIV PUSH20 0xFFFFFFFFFFFFFFFFFFFFFFFFFFFFFFFFFFFFFFFF AND PUSH20 0xFFFFFFFFFFFFFFFFFFFFFFFFFFFFFFFFFFFFFFFF AND PUSH20 0xFFFFFFFFFFFFFFFFFFFFFFFFFFFFFFFFFFFFFFFF AND DUP2 MSTORE PUSH1 0x20 ADD SWAP1 DUP2 MSTORE PUSH1 0x20 ADD PUSH0 KECCAK256 PUSH0 SWAP1 SLOAD SWAP1 PUSH2 0x100 EXP SWAP1 DIV PUSH8 0xFFFFFFFFFFFFFFFF AND PUSH8 0xFFFFFFFFFFFFFFFF AND DUP4 PUSH1 0xC ADD PUSH0 CALLER PUSH20 0xFFFFFFFFFFFFFFFFFFFFFFFFFFFFFFFFFFFFFFFF AND PUSH20 0xFFFFFFFFFFFFFFFFFFFFFFFFFFFFFFFFFFFFFFFF AND DUP2 MSTORE PUSH1 0x20 ADD SWAP1 DUP2 MSTORE PUSH1 0x20 ADD PUSH0 KECCAK256 PUSH0 SWAP1 SLOAD SWAP1 PUSH2 0x100 EXP SWAP1 DIV PUSH8 0xFFFFFFFFFFFFFFFF AND PUSH8 0xFFFFFFFFFFFFFFFF AND LT JUMPDEST JUMPDEST ISZERO PUSH2 0xCAD JUMPI PUSH0 PUSH20 0xFFFFFFFFFFFFFFFFFFFFFFFFFFFFFFFFFFFFFFFF AND DUP4 PUSH1 0x6 ADD PUSH1 0x8 SWAP1 SLOAD SWAP1 PUSH2 0x100 EXP SWAP1 DIV PUSH20 0xFFFFFFFFFFFFFFFFFFFFFFFFFFFFFFFFFFFFFFFF AND PUSH20 0xFFFFFFFFFFFFFFFFFFFFFFFFFFFFFFFFFFFFFFFF AND EQ PUSH2 0xC5C JUMPI DUP3 PUSH1 0x7 ADD SLOAD DUP4 PUSH1 0x8 ADD DUP2 SWAP1 SSTORE POP JUMPDEST DUP5 DUP4 PUSH1 0x7 ADD DUP2 SWAP1 SSTORE POP CALLER DUP4 PUSH1 0x6 ADD PUSH1 0x8 PUSH2 0x100 EXP DUP2 SLOAD DUP2 PUSH20 0xFFFFFFFFFFFFFFFFFFFFFFFFFFFFFFFFFFFFFFFF MUL NOT AND SWAP1 DUP4 PUSH20 0xFFFFFFFFFFFFFFFFFFFFFFFFFFFFFFFFFFFFFFFF AND MUL OR SWAP1 SSTORE POP PUSH2 0xCC4 JUMP JUMPDEST DUP3 PUSH1 0x8 ADD SLOAD DUP6 GT ISZERO PUSH2 0xCC3 JUMPI DUP5 DUP4 PUSH1 0x8 ADD DUP2 SWAP1 SSTORE POP JUMPDEST JUMPDEST JUMPDEST CALLER PUSH20 0xFFFFFFFFFFFFFFFFFFFFFFFFFFFFFFFFFFFFFFFF AND PUSH1 0x1 SLOAD PUSH32 0x86D2FBC9069D34216EBC65B38CE840528D3F8CAC0C86D2AAA7AB6A9DB8BC35D3 DUP8 PUSH1 0x40 MLOAD PUSH2 0xD0E SWAP2 SWAP1 PUSH2 0x210F JUMP JUMPDEST PUSH1 0x40 MLOAD DUP1 SWAP2 SUB SWAP1 LOG3 POP POP POP POP POP JUMP JUMPDEST PUSH0 PUSH0 PUSH0 PUSH0 PUSH2 0xD2A DUP6 PUSH2 0x2056 JUMP JUMPDEST SWAP1 POP DUP1 PUSH1 0x6 ADD PUSH1 0x8 SWAP1 SLOAD SWAP1 PUSH2 0x100 EXP SWAP1 DIV PUSH20 0xFFFFFFFFFFFFFFFFFFFFFFFFFFFFFFFFFFFFFFFF AND DUP2 PUSH1 0x9 ADD SLOAD DUP3 PUSH1 0x6 ADD PUSH0 SWAP1 SLOAD SWAP1 PUSH2 0x100 EXP SWAP1 DIV PUSH8 0xFFFFFFFFFFFFFFFF AND SWAP4 POP SWAP4 POP SWAP4 POP POP SWAP2 SWAP4 SWAP1 SWAP3 POP JUMP JUMPDEST PUSH0 PUSH0 PUSH2 0xD87 DUP5 PUSH2 0x2056 JUMP JUMPDEST SWAP1 POP DUP1 PUSH1 0xE ADD PUSH0 DUP5 PUSH20 0xFFFFFFFFFFFFFFFFFFFFFFFFFFFFFFFFFFFFFFFF AND PUSH20 0xFFFFFFFFFFFFFFFFFFFFFFFFFFFFFFFFFFFFFFFF AND DUP2 MSTORE PUSH1 0x20 ADD SWAP1 DUP2 MSTORE PUSH1 0x20 ADD PUSH0 KECCAK256 SLOAD SWAP2 POP POP SWAP3 SWAP2 POP POP JUMP JUMPDEST PUSH0 PUSH2 0xDDB PUSH2 0x1F23 JUMP JUMPDEST SWAP1 POP DUP1 PUSH1 0x5 ADD PUSH1 0x8 SWAP1 SLOAD SWAP1 PUSH2 0x100 EXP SWAP1 DIV PUSH8 0xFFFFFFFFFFFFFFFF AND PUSH8 0xFFFFFFFFFFFFFFFF AND TIMESTAMP LT ISZERO DUP1 PUSH2 0xE2E JUMPI POP DUP1 PUSH1 0x5 ADD PUSH0 SWAP1 SLOAD SWAP1 PUSH2 0x100 EXP SWAP1 DIV PUSH8 0xFFFFFFFFFFFFFFFF AND PUSH8 0xFFFFFFFFFFFFFFFF AND TIMESTAMP LT JUMPDEST ISZERO PUSH2 0xE65 JUMPI PUSH1 0x40 MLOAD PUSH32 0xABFB7DC300000000000000000000000000000000000000000000000000000000 DUP2 MSTORE PUSH1 0x4 ADD PUSH1 0x40 MLOAD DUP1 SWAP2 SUB SWAP1 REVERT JUMPDEST PUSH0 PUSH0 SHL DUP2 PUSH1 0xB ADD PUSH0 CALLER PUSH20 0xFFFFFFFFFFFFFFFFFFFFFFFFFFFFFFFFFFFFFFFF AND PUSH20 0xFFFFFFFFFFFFFFFFFFFFFFFFFFFFFFFFFFFFFFFF AND DUP2 MSTORE PUSH1 0x20 ADD SWAP1 DUP2 MSTORE PUSH1 0x20 ADD PUSH0 KECCAK256 SLOAD SUB PUSH2 0xF38 JUMPI PUSH0 PUSH0 SHL DUP2 PUSH1 0xB ADD PUSH0 CALLER PUSH20 0xFFFFFFFFFFFFFFFFFFFFFFFFFFFFFFFFFFFFFFFF AND PUSH20 0xFFFFFFFFFFFFFFFFFFFFFFFFFFFFFFFFFFFFFFFF AND DUP2 MSTORE PUSH1 0x20 ADD SWAP1 DUP2 MSTORE PUSH1 0x20 ADD PUSH0 KECCAK256 DUP2 SWAP1 SSTORE POP PUSH0 DUP2 PUSH1 0xD ADD PUSH0 CALLER PUSH20 0xFFFFFFFFFFFFFFFFFFFFFFFFFFFFFFFFFFFFFFFF AND PUSH20 0xFFFFFFFFFFFFFFFFFFFFFFFFFFFFFFFFFFFFFFFF AND DUP2 MSTORE PUSH1 0x20 ADD SWAP1 DUP2 MSTORE PUSH1 0x20 ADD PUSH0 KECCAK256 DUP2 SWAP1 SSTORE POP JUMPDEST DUP2 DUP2 PUSH1 0xB ADD PUSH0 CALLER PUSH20 0xFFFFFFFFFFFFFFFFFFFFFFFFFFFFFFFFFFFFFFFF AND PUSH20 0xFFFFFFFFFFFFFFFFFFFFFFFFFFFFFFFFFFFFFFFF AND DUP2 MSTORE PUSH1 0x20 ADD SWAP1 DUP2 MSTORE PUSH1 0x20 ADD PUSH0 KECCAK256 DUP2 SWAP1 SSTORE POP TIMESTAMP DUP2 PUSH1 0xC ADD PUSH0 CALLER PUSH20 0xFFFFFFFFFFFFFFFFFFFFFFFFFFFFFFFFFFFFFFFF AND PUSH20 0xFFFFFFFFFFFFFFFFFFFFFFFFFFFFFFFFFFFFFFFF AND DUP2 MSTORE PUSH1 0x20 ADD SWAP1 DUP2 MSTORE PUSH1 0x20 ADD PUSH0 KECCAK256 PUSH0 PUSH2 0x100 EXP DUP2 SLOAD DUP2 PUSH8 0xFFFFFFFFFFFFFFFF MUL NOT AND SWAP1 DUP4 PUSH8 0xFFFFFFFFFFFFFFFF AND MUL OR SWAP1 SSTORE POP CALLER PUSH20 0xFFFFFFFFFFFFFFFFFFFFFFFFFFFFFFFFFFFFFFFF AND PUSH1 0x1 SLOAD PUSH32 0x934EA4DE468DCD0D9A335C5F97AA77955310C29631C93FBD01D95A00242EC41 PUSH1 0x40 MLOAD PUSH1 0x40 MLOAD DUP1 SWAP2 SUB SWAP1 LOG3 POP POP JUMP JUMPDEST PUSH0 PUSH1 0x1 SLOAD EQ PUSH2 0x109D JUMPI PUSH0 PUSH1 0x2 PUSH0 PUSH1 0x1 SLOAD DUP2 MSTORE PUSH1 0x20 ADD SWAP1 DUP2 MSTORE PUSH1 0x20 ADD PUSH0 KECCAK256 SWAP1 POP DUP1 PUSH1 0xA ADD PUSH1 0x1 SWAP1 SLOAD SWAP1 PUSH2 0x100 EXP SWAP1 DIV PUSH1 0xFF AND PUSH2 0x109B JUMPI PUSH1 0x40 MLOAD PUSH32 0x8C379A000000000000000000000000000000000000000000000000000000000 DUP2 MSTORE PUSH1 0x4 ADD PUSH2 0x1092 SWAP1 PUSH2 0x2766 JUMP JUMPDEST PUSH1 0x40 MLOAD DUP1 SWAP2 SUB SWAP1 REVERT JUMPDEST POP JUMPDEST PUSH0 DUP4 PUSH8 0xFFFFFFFFFFFFFFFF AND GT DUP1 ISZERO PUSH2 0x10C2 JUMPI POP PUSH3 0x278D00 DUP4 PUSH8 0xFFFFFFFFFFFFFFFF AND LT JUMPDEST PUSH2 0x1101 JUMPI PUSH1 0x40 MLOAD PUSH32 0x8C379A000000000000000000000000000000000000000000000000000000000 DUP2 MSTORE PUSH1 0x4 ADD PUSH2 0x10F8 SWAP1 PUSH2 0x27CE JUMP JUMPDEST PUSH1 0x40 MLOAD DUP1 SWAP2 SUB SWAP1 REVERT JUMPDEST PUSH0 DUP3 PUSH8 0xFFFFFFFFFFFFFFFF AND GT DUP1 ISZERO PUSH2 0x1126 JUMPI POP PUSH3 0x278D00 DUP3 PUSH8 0xFFFFFFFFFFFFFFFF AND LT JUMPDEST PUSH2 0x1165 JUMPI PUSH1 0x40 MLOAD PUSH32 0x8C379A000000000000000000000000000000000000000000000000000000000 DUP2 MSTORE PUSH1 0x4 ADD PUSH2 0x115C SWAP1 PUSH2 0x2836 JUMP JUMPDEST PUSH1 0x40 MLOAD DUP1 SWAP2 SUB SWAP1 REVERT JUMPDEST PUSH0 DUP5 LT ISZERO DUP1 ISZERO PUSH2 0x1180 JUMPI POP PUSH12 0x33B2E3C9FD0803CE8000000 DUP5 LT JUMPDEST PUSH2 0x11BF JUMPI PUSH1 0x40 MLOAD PUSH32 0x8C379A000000000000000000000000000000000000000000000000000000000 DUP2 MSTORE PUSH1 0x4 ADD PUSH2 0x11B6 SWAP1 PUSH2 0x289E JUMP JUMPDEST PUSH1 0x40 MLOAD DUP1 SWAP2 SUB SWAP1 REVERT JUMPDEST CALLER PUSH20 0xFFFFFFFFFFFFFFFFFFFFFFFFFFFFFFFFFFFFFFFF AND PUSH32 0x0 PUSH20 0xFFFFFFFFFFFFFFFFFFFFFFFFFFFFFFFFFFFFFFFF AND PUSH4 0x6352211E DUP8 PUSH1 0x40 MLOAD DUP3 PUSH4 0xFFFFFFFF AND PUSH1 0xE0 SHL DUP2 MSTORE PUSH1 0x4 ADD PUSH2 0x122F SWAP2 SWAP1 PUSH2 0x210F JUMP JUMPDEST PUSH1 0x20 PUSH1 0x40 MLOAD DUP1 DUP4 SUB DUP2 DUP7 GAS STATICCALL ISZERO DUP1 ISZERO PUSH2 0x124A JUMPI RETURNDATASIZE PUSH0 PUSH0 RETURNDATACOPY RETURNDATASIZE PUSH0 REVERT JUMPDEST POP POP POP POP PUSH1 0x40 MLOAD RETURNDATASIZE PUSH1 0x1F NOT PUSH1 0x1F DUP3 ADD AND DUP3 ADD DUP1 PUSH1 0x40 MSTORE POP DUP2 ADD SWAP1 PUSH2 0x126E SWAP2 SWAP1 PUSH2 0x28D0 JUMP JUMPDEST PUSH20 0xFFFFFFFFFFFFFFFFFFFFFFFFFFFFFFFFFFFFFFFF AND EQ PUSH2 0x12C4 JUMPI PUSH1 0x40 MLOAD PUSH32 0x8C379A000000000000000000000000000000000000000000000000000000000 DUP2 MSTORE PUSH1 0x4 ADD PUSH2 0x12BB SWAP1 PUSH2 0x2945 JUMP JUMPDEST PUSH1 0x40 MLOAD DUP1 SWAP2 SUB SWAP1 REVERT JUMPDEST ADDRESS PUSH20 0xFFFFFFFFFFFFFFFFFFFFFFFFFFFFFFFFFFFFFFFF AND PUSH32 0x0 PUSH20 0xFFFFFFFFFFFFFFFFFFFFFFFFFFFFFFFFFFFFFFFF AND PUSH4 0x81812FC DUP8 PUSH1 0x40 MLOAD DUP3 PUSH4 0xFFFFFFFF AND PUSH1 0xE0 SHL DUP2 MSTORE PUSH1 0x4 ADD PUSH2 0x1334 SWAP2 SWAP1 PUSH2 0x210F JUMP JUMPDEST PUSH1 0x20 PUSH1 0x40 MLOAD DUP1 DUP4 SUB DUP2 DUP7 GAS STATICCALL ISZERO DUP1 ISZERO PUSH2 0x134F JUMPI RETURNDATASIZE PUSH0 PUSH0 RETURNDATACOPY RETURNDATASIZE PUSH0 REVERT JUMPDEST POP POP POP POP PUSH1 0x40 MLOAD RETURNDATASIZE PUSH1 0x1F NOT PUSH1 0x1F DUP3 ADD AND DUP3 ADD DUP1 PUSH1 0x40 MSTORE POP DUP2 ADD SWAP1 PUSH2 0x1373 SWAP2 SWAP1 PUSH2 0x28D0 JUMP JUMPDEST PUSH20 0xFFFFFFFFFFFFFFFFFFFFFFFFFFFFFFFFFFFFFFFF AND EQ DUP1 PUSH2 0x142B JUMPI POP PUSH32 0x0 PUSH20 0xFFFFFFFFFFFFFFFFFFFFFFFFFFFFFFFFFFFFFFFF AND PUSH4 0xE985E9C5 CALLER ADDRESS PUSH1 0x40 MLOAD DUP4 PUSH4 0xFFFFFFFF AND PUSH1 0xE0 SHL DUP2 MSTORE PUSH1 0x4 ADD PUSH2 0x13EB SWAP3 SWAP2 SWAP1 PUSH2 0x2963 JUMP JUMPDEST PUSH1 0x20 PUSH1 0x40 MLOAD DUP1 DUP4 SUB DUP2 DUP7 GAS STATICCALL ISZERO DUP1 ISZERO PUSH2 0x1406 JUMPI RETURNDATASIZE PUSH0 PUSH0 RETURNDATACOPY RETURNDATASIZE PUSH0 REVERT JUMPDEST POP POP POP POP PUSH1 0x40 MLOAD RETURNDATASIZE PUSH1 0x1F NOT PUSH1 0x1F DUP3 ADD AND DUP3 ADD DUP1 PUSH1 0x40 MSTORE POP DUP2 ADD SWAP1 PUSH2 0x142A SWAP2 SWAP1 PUSH2 0x29BF JUMP JUMPDEST JUMPDEST PUSH2 0x146A JUMPI PUSH1 0x40 MLOAD PUSH32 0x8C379A000000000000000000000000000000000000000000000000000000000 DUP2 MSTORE PUSH1 0x4 ADD PUSH2 0x1461 SWAP1 PUSH2 0x2A34 JUMP JUMPDEST PUSH1 0x40 MLOAD DUP1 SWAP2 SUB SWAP1 REVERT JUMPDEST PUSH32 0x0 PUSH20 0xFFFFFFFFFFFFFFFFFFFFFFFFFFFFFFFFFFFFFFFF AND PUSH4 0x23B872DD CALLER ADDRESS DUP9 PUSH1 0x40 MLOAD DUP5 PUSH4 0xFFFFFFFF AND PUSH1 0xE0 SHL DUP2 MSTORE PUSH1 0x4 ADD PUSH2 0x14C7 SWAP4 SWAP3 SWAP2 SWAP1 PUSH2 0x2A52 JUMP JUMPDEST PUSH0 PUSH1 0x40 MLOAD DUP1 DUP4 SUB DUP2 PUSH0 DUP8 DUP1 EXTCODESIZE ISZERO DUP1 ISZERO PUSH2 0x14DE JUMPI PUSH0 PUSH0 REVERT JUMPDEST POP GAS CALL ISZERO DUP1 ISZERO PUSH2 0x14F0 JUMPI RETURNDATASIZE PUSH0 PUSH0 RETURNDATACOPY RETURNDATASIZE PUSH0 REVERT JUMPDEST POP POP POP POP PUSH1 0x1 DUP1 PUSH0 DUP3 DUP3 SLOAD PUSH2 0x1505 SWAP2 SWAP1 PUSH2 0x2A87 JUMP JUMPDEST SWAP3 POP POP DUP2 SWAP1 SSTORE POP PUSH0 PUSH1 0x2 PUSH0 PUSH1 0x1 SLOAD DUP2 MSTORE PUSH1 0x20 ADD SWAP1 DUP2 MSTORE PUSH1 0x20 ADD PUSH0 KECCAK256 SWAP1 POP PUSH32 0x0 DUP2 PUSH0 ADD PUSH0 PUSH2 0x100 EXP DUP2 SLOAD DUP2 PUSH20 0xFFFFFFFFFFFFFFFFFFFFFFFFFFFFFFFFFFFFFFFF MUL NOT AND SWAP1 DUP4 PUSH20 0xFFFFFFFFFFFFFFFFFFFFFFFFFFFFFFFFFFFFFFFF AND MUL OR SWAP1 SSTORE POP DUP6 DUP2 PUSH1 0x1 ADD DUP2 SWAP1 SSTORE POP CALLER DUP2 PUSH1 0x2 ADD PUSH0 PUSH2 0x100 EXP DUP2 SLOAD DUP2 PUSH20 0xFFFFFFFFFFFFFFFFFFFFFFFFFFFFFFFFFFFFFFFF MUL NOT AND SWAP1 DUP4 PUSH20 0xFFFFFFFFFFFFFFFFFFFFFFFFFFFFFFFFFFFFFFFF AND MUL OR SWAP1 SSTORE POP DUP5 DUP2 PUSH1 0x3 ADD DUP2 SWAP1 SSTORE POP PUSH0 TIMESTAMP SWAP1 POP DUP1 DUP3 PUSH1 0x5 ADD PUSH0 PUSH2 0x100 EXP DUP2 SLOAD DUP2 PUSH8 0xFFFFFFFFFFFFFFFF MUL NOT AND SWAP1 DUP4 PUSH8 0xFFFFFFFFFFFFFFFF AND MUL OR SWAP1 SSTORE POP DUP5 DUP2 PUSH2 0x1611 SWAP2 SWAP1 PUSH2 0x25CB JUMP JUMPDEST DUP3 PUSH1 0x5 ADD PUSH1 0x8 PUSH2 0x100 EXP DUP2 SLOAD DUP2 PUSH8 0xFFFFFFFFFFFFFFFF MUL NOT AND SWAP1 DUP4 PUSH8 0xFFFFFFFFFFFFFFFF AND MUL OR SWAP1 SSTORE POP DUP4 DUP3 PUSH1 0x5 ADD PUSH1 0x8 SWAP1 SLOAD SWAP1 PUSH2 0x100 EXP SWAP1 DIV PUSH8 0xFFFFFFFFFFFFFFFF AND PUSH2 0x165F SWAP2 SWAP1 PUSH2 0x25CB JUMP JUMPDEST DUP3 PUSH1 0x5 ADD PUSH1 0x10 PUSH2 0x100 EXP DUP2 SLOAD DUP2 PUSH8 0xFFFFFFFFFFFFFFFF MUL NOT AND SWAP1 DUP4 PUSH8 0xFFFFFFFFFFFFFFFF AND MUL OR SWAP1 SSTORE POP DUP3 DUP3 PUSH1 0x5 ADD PUSH1 0x18 PUSH2 0x100 EXP DUP2 SLOAD DUP2 PUSH8 0xFFFFFFFFFFFFFFFF MUL NOT AND SWAP1 DUP4 PUSH8 0xFFFFFFFFFFFFFFFF AND MUL OR SWAP1 SSTORE POP PUSH7 0x2386F26FC10000 PUSH1 0xA DUP8 PUSH2 0x16C9 SWAP2 SWAP1 PUSH2 0x2AE7 JUMP JUMPDEST LT PUSH2 0x16DB JUMPI PUSH7 0x2386F26FC10000 PUSH2 0x16E9 JUMP JUMPDEST PUSH1 0xA DUP7 PUSH2 0x16E8 SWAP2 SWAP1 PUSH2 0x2AE7 JUMP JUMPDEST JUMPDEST DUP3 PUSH1 0x4 ADD DUP2 SWAP1 SSTORE POP PUSH32 0x0 PUSH20 0xFFFFFFFFFFFFFFFFFFFFFFFFFFFFFFFFFFFFFFFF AND CALLER PUSH20 0xFFFFFFFFFFFFFFFFFFFFFFFFFFFFFFFFFFFFFFFF AND PUSH1 0x1 SLOAD PUSH32 0x86B19D6A6B02147FC1E9F2538AE5B1FF124EE6827666573F5F59710A6BD5EBB DUP11 DUP11 DUP8 PUSH1 0x4 ADD SLOAD DUP9 PUSH1 0x5 ADD PUSH0 SWAP1 SLOAD SWAP1 PUSH2 0x100 EXP SWAP1 DIV PUSH8 0xFFFFFFFFFFFFFFFF AND DUP10 PUSH1 0x5 ADD PUSH1 0x8 SWAP1 SLOAD SWAP1 PUSH2 0x100 EXP SWAP1 DIV PUSH8 0xFFFFFFFFFFFFFFFF AND DUP11 PUSH1 0x5 ADD PUSH1 0x10 SWAP1 SLOAD SWAP1 PUSH2 0x100 EXP SWAP1 DIV PUSH8 0xFFFFFFFFFFFFFFFF AND DUP12 PUSH1 0x5 ADD PUSH1 0x18 SWAP1 SLOAD SWAP1 PUSH2 0x100 EXP SWAP1 DIV PUSH8 0xFFFFFFFFFFFFFFFF AND PUSH1 0x40 MLOAD PUSH2 0x17E0 SWAP8 SWAP7 SWAP6 SWAP5 SWAP4 SWAP3 SWAP2 SWAP1 PUSH2 0x2B47 JUMP JUMPDEST PUSH1 0x40 MLOAD DUP1 SWAP2 SUB SWAP1 LOG4 POP POP POP POP POP POP POP JUMP JUMPDEST PUSH0 PUSH0 PUSH2 0x17FC DUP5 PUSH2 0x2056 JUMP JUMPDEST SWAP1 POP DUP1 PUSH1 0xB ADD PUSH0 DUP5 PUSH20 0xFFFFFFFFFFFFFFFFFFFFFFFFFFFFFFFFFFFFFFFF AND PUSH20 0xFFFFFFFFFFFFFFFFFFFFFFFFFFFFFFFFFFFFFFFF AND DUP2 MSTORE PUSH1 0x20 ADD SWAP1 DUP2 MSTORE PUSH1 0x20 ADD PUSH0 KECCAK256 SLOAD SWAP2 POP POP SWAP3 SWAP2 POP POP JUMP JUMPDEST PUSH0 PUSH0 PUSH2 0x1852 DUP5 PUSH2 0x2056 JUMP JUMPDEST SWAP1 POP DUP1 PUSH1 0xC ADD PUSH0 DUP5 PUSH20 0xFFFFFFFFFFFFFFFFFFFFFFFFFFFFFFFFFFFFFFFF AND PUSH20 0xFFFFFFFFFFFFFFFFFFFFFFFFFFFFFFFFFFFFFFFF AND DUP2 MSTORE PUSH1 0x20 ADD SWAP1 DUP2 MSTORE PUSH1 0x20 ADD PUSH0 KECCAK256 PUSH0 SWAP1 SLOAD SWAP1 PUSH2 0x100 EXP SWAP1 DIV PUSH8 0xFFFFFFFFFFFFFFFF AND SWAP2 POP POP SWAP3 SWAP2 POP POP JUMP JUMPDEST PUSH3 0x278D00 DUP2 JUMP JUMPDEST PUSH1 0x60 PUSH0 PUSH2 0x18C3 DUP4 PUSH2 0x2056 JUMP JUMPDEST SWAP1 POP PUSH0 TIMESTAMP SWAP1 POP DUP2 PUSH1 0x5 ADD PUSH1 0x8 SWAP1 SLOAD SWAP1 PUSH2 0x100 EXP SWAP1 DIV PUSH8 0xFFFFFFFFFFFFFFFF AND PUSH8 0xFFFFFFFFFFFFFFFF AND DUP2 LT ISZERO PUSH2 0x1932 JUMPI PUSH1 0x40 MLOAD DUP1 PUSH1 0x40 ADD PUSH1 0x40 MSTORE DUP1 PUSH1 0x6 DUP2 MSTORE PUSH1 0x20 ADD PUSH32 0x434F4D4D49540000000000000000000000000000000000000000000000000000 DUP2 MSTORE POP SWAP3 POP POP POP PUSH2 0x1B78 JUMP JUMPDEST DUP2 PUSH1 0x5 ADD PUSH1 0x10 SWAP1 SLOAD SWAP1 PUSH2 0x100 EXP SWAP1 DIV PUSH8 0xFFFFFFFFFFFFFFFF AND PUSH8 0xFFFFFFFFFFFFFFFF AND DUP2 LT ISZERO PUSH2 0x199B JUMPI PUSH1 0x40 MLOAD DUP1 PUSH1 0x40 ADD PUSH1 0x40 MSTORE DUP1 PUSH1 0x6 DUP2 MSTORE PUSH1 0x20 ADD PUSH32 0x52455645414C0000000000000000000000000000000000000000000000000000 DUP2 MSTORE POP SWAP3 POP POP POP PUSH2 0x1B78 JUMP JUMPDEST DUP2 PUSH1 0xA ADD PUSH0 SWAP1 SLOAD SWAP1 PUSH2 0x100 EXP SWAP1 DIV PUSH1 0xFF AND PUSH2 0x19EF JUMPI PUSH1 0x40 MLOAD DUP1 PUSH1 0x40 ADD PUSH1 0x40 MSTORE DUP1 PUSH1 0x10 DUP2 MSTORE PUSH1 0x20 ADD PUSH32 0x46494E414C495A455F50454E44494E4700000000000000000000000000000000 DUP2 MSTORE POP SWAP3 POP POP POP PUSH2 0x1B78 JUMP JUMPDEST DUP2 PUSH1 0xA ADD PUSH0 SWAP1 SLOAD SWAP1 PUSH2 0x100 EXP SWAP1 DIV PUSH1 0xFF AND DUP1 ISZERO PUSH2 0x1A1B JUMPI POP DUP2 PUSH1 0xA ADD PUSH1 0x1 SWAP1 SLOAD SWAP1 PUSH2 0x100 EXP SWAP1 DIV PUSH1 0xFF AND ISZERO JUMPDEST DUP1 ISZERO PUSH2 0x1A77 JUMPI POP PUSH0 PUSH20 0xFFFFFFFFFFFFFFFFFFFFFFFFFFFFFFFFFFFFFFFF AND DUP3 PUSH1 0x6 ADD PUSH1 0x8 SWAP1 SLOAD SWAP1 PUSH2 0x100 EXP SWAP1 DIV PUSH20 0xFFFFFFFFFFFFFFFFFFFFFFFFFFFFFFFFFFFFFFFF AND PUSH20 0xFFFFFFFFFFFFFFFFFFFFFFFFFFFFFFFFFFFFFFFF AND EQ ISZERO JUMPDEST DUP1 ISZERO PUSH2 0x1AA4 JUMPI POP DUP2 PUSH1 0x6 ADD PUSH0 SWAP1 SLOAD SWAP1 PUSH2 0x100 EXP SWAP1 DIV PUSH8 0xFFFFFFFFFFFFFFFF AND PUSH8 0xFFFFFFFFFFFFFFFF AND DUP2 GT ISZERO JUMPDEST ISZERO PUSH2 0x1AE8 JUMPI PUSH1 0x40 MLOAD DUP1 PUSH1 0x40 ADD PUSH1 0x40 MSTORE DUP1 PUSH1 0xD DUP2 MSTORE PUSH1 0x20 ADD PUSH32 0x41574149545F5041594D454E5400000000000000000000000000000000000000 DUP2 MSTORE POP SWAP3 POP POP POP PUSH2 0x1B78 JUMP JUMPDEST DUP2 PUSH1 0xA ADD PUSH1 0x1 SWAP1 SLOAD SWAP1 PUSH2 0x100 EXP SWAP1 DIV PUSH1 0xFF AND PUSH2 0x1B3D JUMPI PUSH1 0x40 MLOAD DUP1 PUSH1 0x40 ADD PUSH1 0x40 MSTORE DUP1 PUSH1 0xF DUP2 MSTORE PUSH1 0x20 ADD PUSH32 0x534554544C454D454E545F4F50454E0000000000000000000000000000000000 DUP2 MSTORE POP SWAP3 POP POP POP PUSH2 0x1B78 JUMP JUMPDEST PUSH1 0x40 MLOAD DUP1 PUSH1 0x40 ADD PUSH1 0x40 MSTORE DUP1 PUSH1 0x5 DUP2 MSTORE PUSH1 0x20 ADD PUSH32 0x454E444544000000000000000000000000000000000000000000000000000000 DUP2 MSTORE POP SWAP3 POP POP POP JUMPDEST SWAP2 SWAP1 POP JUMP JUMPDEST PUSH7 0x2386F26FC10000 DUP2 JUMP JUMPDEST PUSH0 PUSH0 PUSH0 PUSH0 PUSH2 0x1B95 DUP6 PUSH2 0x2056 JUMP JUMPDEST SWAP1 POP DUP1 PUSH1 0x5 ADD PUSH1 0x8 SWAP1 SLOAD SWAP1 PUSH2 0x100 EXP SWAP1 DIV PUSH8 0xFFFFFFFFFFFFFFFF AND DUP2 PUSH1 0x5 ADD PUSH1 0x10 SWAP1 SLOAD SWAP1 PUSH2 0x100 EXP SWAP1 DIV PUSH8 0xFFFFFFFFFFFFFFFF AND DUP3 PUSH1 0x6 ADD PUSH0 SWAP1 SLOAD SWAP1 PUSH2 0x100 EXP SWAP1 DIV PUSH8 0xFFFFFFFFFFFFFFFF AND SWAP4 POP SWAP4 POP SWAP4 POP POP SWAP2 SWAP4 SWAP1 SWAP3 POP JUMP JUMPDEST PUSH1 0x2 PUSH0 SLOAD SUB PUSH2 0x1C33 JUMPI PUSH1 0x40 MLOAD PUSH32 0x8C379A000000000000000000000000000000000000000000000000000000000 DUP2 MSTORE PUSH1 0x4 ADD PUSH2 0x1C2A SWAP1 PUSH2 0x2BFE JUMP JUMPDEST PUSH1 0x40 MLOAD DUP1 SWAP2 SUB SWAP1 REVERT JUMPDEST PUSH1 0x2 PUSH0 DUP2 SWAP1 SSTORE POP PUSH0 PUSH2 0x1C43 PUSH2 0x1F23 JUMP JUMPDEST SWAP1 POP DUP1 PUSH1 0xA ADD PUSH0 SWAP1 SLOAD SWAP1 PUSH2 0x100 EXP SWAP1 DIV PUSH1 0xFF AND ISZERO DUP1 PUSH2 0x1C77 JUMPI POP PUSH1 0x1 ISZERO ISZERO DUP2 PUSH1 0xA ADD PUSH1 0x1 SWAP1 SLOAD SWAP1 PUSH2 0x100 EXP SWAP1 DIV PUSH1 0xFF AND ISZERO ISZERO EQ JUMPDEST ISZERO PUSH2 0x1CAE JUMPI PUSH1 0x40 MLOAD PUSH32 0xD3018D1800000000000000000000000000000000000000000000000000000000 DUP2 MSTORE PUSH1 0x4 ADD PUSH1 0x40 MLOAD DUP1 SWAP2 SUB SWAP1 REVERT JUMPDEST CALLER PUSH20 0xFFFFFFFFFFFFFFFFFFFFFFFFFFFFFFFFFFFFFFFF AND DUP2 PUSH1 0x6 ADD PUSH1 0x8 SWAP1 SLOAD SWAP1 PUSH2 0x100 EXP SWAP1 DIV PUSH20 0xFFFFFFFFFFFFFFFFFFFFFFFFFFFFFFFFFFFFFFFF AND PUSH20 0xFFFFFFFFFFFFFFFFFFFFFFFFFFFFFFFFFFFFFFFF AND EQ PUSH2 0x1D37 JUMPI PUSH1 0x40 MLOAD PUSH32 0x618C724200000000000000000000000000000000000000000000000000000000 DUP2 MSTORE PUSH1 0x4 ADD PUSH1 0x40 MLOAD DUP1 SWAP2 SUB SWAP1 REVERT JUMPDEST DUP1 PUSH1 0x6 ADD PUSH0 SWAP1 SLOAD SWAP1 PUSH2 0x100 EXP SWAP1 DIV PUSH8 0xFFFFFFFFFFFFFFFF AND PUSH8 0xFFFFFFFFFFFFFFFF AND TIMESTAMP GT ISZERO PUSH2 0x1D92 JUMPI PUSH1 0x40 MLOAD PUSH32 0x58459E8800000000000000000000000000000000000000000000000000000000 DUP2 MSTORE PUSH1 0x4 ADD PUSH1 0x40 MLOAD DUP1 SWAP2 SUB SWAP1 REVERT JUMPDEST DUP1 PUSH1 0x9 ADD SLOAD CALLVALUE EQ PUSH2 0x1DCF JUMPI PUSH1 0x40 MLOAD PUSH32 0x788A686F00000000000000000000000000000000000000000000000000000000 DUP2 MSTORE PUSH1 0x4 ADD PUSH1 0x40 MLOAD DUP1 SWAP2 SUB SWAP1 REVERT JUMPDEST PUSH1 0x1 DUP2 PUSH1 0xA ADD PUSH1 0x1 PUSH2 0x100 EXP DUP2 SLOAD DUP2 PUSH1 0xFF MUL NOT AND SWAP1 DUP4 ISZERO ISZERO MUL OR SWAP1 SSTORE POP PUSH0 DUP2 PUSH1 0x2 ADD PUSH0 SWAP1 SLOAD SWAP1 PUSH2 0x100 EXP SWAP1 DIV PUSH20 0xFFFFFFFFFFFFFFFFFFFFFFFFFFFFFFFFFFFFFFFF AND PUSH20 0xFFFFFFFFFFFFFFFFFFFFFFFFFFFFFFFFFFFFFFFF AND CALLVALUE PUSH1 0x40 MLOAD PUSH2 0x1E34 SWAP1 PUSH2 0x2C49 JUMP JUMPDEST PUSH0 PUSH1 0x40 MLOAD DUP1 DUP4 SUB DUP2 DUP6 DUP8 GAS CALL SWAP3 POP POP POP RETURNDATASIZE DUP1 PUSH0 DUP2 EQ PUSH2 0x1E6E JUMPI PUSH1 0x40 MLOAD SWAP2 POP PUSH1 0x1F NOT PUSH1 0x3F RETURNDATASIZE ADD AND DUP3 ADD PUSH1 0x40 MSTORE RETURNDATASIZE DUP3 MSTORE RETURNDATASIZE PUSH0 PUSH1 0x20 DUP5 ADD RETURNDATACOPY PUSH2 0x1E73 JUMP JUMPDEST PUSH1 0x60 SWAP2 POP JUMPDEST POP POP SWAP1 POP DUP1 PUSH2 0x1EB7 JUMPI PUSH1 0x40 MLOAD PUSH32 0x8C379A000000000000000000000000000000000000000000000000000000000 DUP2 MSTORE PUSH1 0x4 ADD PUSH2 0x1EAE SWAP1 PUSH2 0x2CA7 JUMP JUMPDEST PUSH1 0x40 MLOAD DUP1 SWAP2 SUB SWAP1 REVERT JUMPDEST PUSH2 0x1EC7 DUP3 ADDRESS CALLER DUP6 PUSH1 0x1 ADD SLOAD PUSH2 0x1FC4 JUMP JUMPDEST CALLER PUSH20 0xFFFFFFFFFFFFFFFFFFFFFFFFFFFFFFFFFFFFFFFF AND PUSH1 0x1 SLOAD PUSH32 0xD33EF6AB06E6BF8672161AA6ABE1EC1791C393D62213EBD89C67F611E538E575 CALLVALUE PUSH1 0x40 MLOAD PUSH2 0x1F10 SWAP2 SWAP1 PUSH2 0x210F JUMP JUMPDEST PUSH1 0x40 MLOAD DUP1 SWAP2 SUB SWAP1 LOG3 POP POP PUSH1 0x1 PUSH0 DUP2 SWAP1 SSTORE POP JUMP JUMPDEST PUSH0 PUSH1 0x2 PUSH0 PUSH1 0x1 SLOAD DUP2 MSTORE PUSH1 0x20 ADD SWAP1 DUP2 MSTORE PUSH1 0x20 ADD PUSH0 KECCAK256 SWAP1 POP PUSH0 PUSH20 0xFFFFFFFFFFFFFFFFFFFFFFFFFFFFFFFFFFFFFFFF AND DUP2 PUSH1 0x2 ADD PUSH0 SWAP1 SLOAD SWAP1 PUSH2 0x100 EXP SWAP1 DIV PUSH20 0xFFFFFFFFFFFFFFFFFFFFFFFFFFFFFFFFFFFFFFFF AND PUSH20 0xFFFFFFFFFFFFFFFFFFFFFFFFFFFFFFFFFFFFFFFF AND SUB PUSH2 0x1FC1 JUMPI PUSH1 0x40 MLOAD PUSH32 0x568CA25700000000000000000000000000000000000000000000000000000000 DUP2 MSTORE PUSH1 0x4 ADD PUSH1 0x40 MLOAD DUP1 SWAP2 SUB SWAP1 REVERT JUMPDEST SWAP1 JUMP JUMPDEST DUP4 PUSH0 ADD PUSH0 SWAP1 SLOAD SWAP1 PUSH2 0x100 EXP SWAP1 DIV PUSH20 0xFFFFFFFFFFFFFFFFFFFFFFFFFFFFFFFFFFFFFFFF AND PUSH20 0xFFFFFFFFFFFFFFFFFFFFFFFFFFFFFFFFFFFFFFFF AND PUSH4 0x23B872DD DUP5 DUP5 DUP5 PUSH1 0x40 MLOAD DUP5 PUSH4 0xFFFFFFFF AND PUSH1 0xE0 SHL DUP2 MSTORE PUSH1 0x4 ADD PUSH2 0x2023 SWAP4 SWAP3 SWAP2 SWAP1 PUSH2 0x2A52 JUMP JUMPDEST PUSH0 PUSH1 0x40 MLOAD DUP1 DUP4 SUB DUP2 PUSH0 DUP8 DUP1 EXTCODESIZE ISZERO DUP1 ISZERO PUSH2 0x203A JUMPI PUSH0 PUSH0 REVERT JUMPDEST POP GAS CALL ISZERO DUP1 ISZERO PUSH2 0x204C JUMPI RETURNDATASIZE PUSH0 PUSH0 RETURNDATACOPY RETURNDATASIZE PUSH0 REVERT JUMPDEST POP POP POP POP POP POP POP POP JUMP JUMPDEST PUSH0 PUSH1 0x2 PUSH0 DUP4 DUP2 MSTORE PUSH1 0x20 ADD SWAP1 DUP2 MSTORE PUSH1 0x20 ADD PUSH0 KECCAK256 SWAP1 POP PUSH0 PUSH20 0xFFFFFFFFFFFFFFFFFFFFFFFFFFFFFFFFFFFFFFFF AND DUP2 PUSH1 0x2 ADD PUSH0 SWAP1 SLOAD SWAP1 PUSH2 0x100 EXP SWAP1 DIV PUSH20 0xFFFFFFFFFFFFFFFFFFFFFFFFFFFFFFFFFFFFFFFF AND PUSH20 0xFFFFFFFFFFFFFFFFFFFFFFFFFFFFFFFFFFFFFFFF AND SUB PUSH2 0x20F2 JUMPI PUSH1 0x40 MLOAD PUSH32 0x568CA25700000000000000000000000000000000000000000000000000000000 DUP2 MSTORE PUSH1 0x4 ADD PUSH1 0x40 MLOAD DUP1 SWAP2 SUB SWAP1 REVERT JUMPDEST SWAP2 SWAP1 POP JUMP JUMPDEST PUSH0 DUP2 SWAP1 POP SWAP2 SWAP1 POP JUMP JUMPDEST PUSH2 0x2109 DUP2 PUSH2 0x20F7 JUMP JUMPDEST DUP3 MSTORE POP POP JUMP JUMPDEST PUSH0 PUSH1 0x20 DUP3 ADD SWAP1 POP PUSH2 0x2122 PUSH0 DUP4 ADD DUP5 PUSH2 0x2100 JUMP JUMPDEST SWAP3 SWAP2 POP POP JUMP JUMPDEST PUSH0 PUSH20 0xFFFFFFFFFFFFFFFFFFFFFFFFFFFFFFFFFFFFFFFF DUP3 AND SWAP1 POP SWAP2 SWAP1 POP JUMP JUMPDEST PUSH0 DUP2 SWAP1 POP SWAP2 SWAP1 POP JUMP JUMPDEST PUSH0 PUSH2 0x216A PUSH2 0x2165 PUSH2 0x2160 DUP5 PUSH2 0x2128 JUMP JUMPDEST PUSH2 0x2147 JUMP JUMPDEST PUSH2 0x2128 JUMP JUMPDEST SWAP1 POP SWAP2 SWAP1 POP JUMP JUMPDEST PUSH0 PUSH2 0x217B DUP3 PUSH2 0x2150 JUMP JUMPDEST SWAP1 POP SWAP2 SWAP1 POP JUMP JUMPDEST PUSH0 PUSH2 0x218C DUP3 PUSH2 0x2171 JUMP JUMPDEST SWAP1 POP SWAP2 SWAP1 POP JUMP JUMPDEST PUSH2 0x219C DUP2 PUSH2 0x2182 JUMP JUMPDEST DUP3 MSTORE POP POP JUMP JUMPDEST PUSH0 PUSH1 0x20 DUP3 ADD SWAP1 POP PUSH2 0x21B5 PUSH0 DUP4 ADD DUP5 PUSH2 0x2193 JUMP JUMPDEST SWAP3 SWAP2 POP POP JUMP JUMPDEST PUSH0 PUSH0 REVERT JUMPDEST PUSH2 0x21C8 DUP2 PUSH2 0x20F7 JUMP JUMPDEST DUP2 EQ PUSH2 0x21D2 JUMPI PUSH0 PUSH0 REVERT JUMPDEST POP JUMP JUMPDEST PUSH0 DUP2 CALLDATALOAD SWAP1 POP PUSH2 0x21E3 DUP2 PUSH2 0x21BF JUMP JUMPDEST SWAP3 SWAP2 POP POP JUMP JUMPDEST PUSH0 DUP2 SWAP1 POP SWAP2 SWAP1 POP JUMP JUMPDEST PUSH2 0x21FB DUP2 PUSH2 0x21E9 JUMP JUMPDEST DUP2 EQ PUSH2 0x2205 JUMPI PUSH0 PUSH0 REVERT JUMPDEST POP JUMP JUMPDEST PUSH0 DUP2 CALLDATALOAD SWAP1 POP PUSH2 0x2216 DUP2 PUSH2 0x21F2 JUMP JUMPDEST SWAP3 SWAP2 POP POP JUMP JUMPDEST PUSH0 PUSH0 PUSH1 0x40 DUP4 DUP6 SUB SLT ISZERO PUSH2 0x2232 JUMPI PUSH2 0x2231 PUSH2 0x21BB JUMP JUMPDEST JUMPDEST PUSH0 PUSH2 0x223F DUP6 DUP3 DUP7 ADD PUSH2 0x21D5 JUMP JUMPDEST SWAP3 POP POP PUSH1 0x20 PUSH2 0x2250 DUP6 DUP3 DUP7 ADD PUSH2 0x2208 JUMP JUMPDEST SWAP2 POP POP SWAP3 POP SWAP3 SWAP1 POP JUMP JUMPDEST PUSH0 PUSH1 0x20 DUP3 DUP5 SUB SLT ISZERO PUSH2 0x226F JUMPI PUSH2 0x226E PUSH2 0x21BB JUMP JUMPDEST JUMPDEST PUSH0 PUSH2 0x227C DUP5 DUP3 DUP6 ADD PUSH2 0x21D5 JUMP JUMPDEST SWAP2 POP POP SWAP3 SWAP2 POP POP JUMP JUMPDEST PUSH0 PUSH2 0x228F DUP3 PUSH2 0x2128 JUMP JUMPDEST SWAP1 POP SWAP2 SWAP1 POP JUMP JUMPDEST PUSH2 0x229F DUP2 PUSH2 0x2285 JUMP JUMPDEST DUP3 MSTORE POP POP JUMP JUMPDEST PUSH0 PUSH8 0xFFFFFFFFFFFFFFFF DUP3 AND SWAP1 POP SWAP2 SWAP1 POP JUMP JUMPDEST PUSH2 0x22C1 DUP2 PUSH2 0x22A5 JUMP JUMPDEST DUP3 MSTORE POP POP JUMP JUMPDEST PUSH0 PUSH1 0x60 DUP3 ADD SWAP1 POP PUSH2 0x22DA PUSH0 DUP4 ADD DUP7 PUSH2 0x2296 JUMP JUMPDEST PUSH2 0x22E7 PUSH1 0x20 DUP4 ADD DUP6 PUSH2 0x2100 JUMP JUMPDEST PUSH2 0x22F4 PUSH1 0x40 DUP4 ADD DUP5 PUSH2 0x22B8 JUMP JUMPDEST SWAP5 SWAP4 POP POP POP POP JUMP JUMPDEST PUSH2 0x2305 DUP2 PUSH2 0x2285 JUMP JUMPDEST DUP2 EQ PUSH2 0x230F JUMPI PUSH0 PUSH0 REVERT JUMPDEST POP JUMP JUMPDEST PUSH0 DUP2 CALLDATALOAD SWAP1 POP PUSH2 0x2320 DUP2 PUSH2 0x22FC JUMP JUMPDEST SWAP3 SWAP2 POP POP JUMP JUMPDEST PUSH0 PUSH0 PUSH1 0x40 DUP4 DUP6 SUB SLT ISZERO PUSH2 0x233C JUMPI PUSH2 0x233B PUSH2 0x21BB JUMP JUMPDEST JUMPDEST PUSH0 PUSH2 0x2349 DUP6 DUP3 DUP7 ADD PUSH2 0x21D5 JUMP JUMPDEST SWAP3 POP POP PUSH1 0x20 PUSH2 0x235A DUP6 DUP3 DUP7 ADD PUSH2 0x2312 JUMP JUMPDEST SWAP2 POP POP SWAP3 POP SWAP3 SWAP1 POP JUMP JUMPDEST PUSH0 PUSH1 0x20 DUP3 DUP5 SUB SLT ISZERO PUSH2 0x2379 JUMPI PUSH2 0x2378 PUSH2 0x21BB JUMP JUMPDEST JUMPDEST PUSH0 PUSH2 0x2386 DUP5 DUP3 DUP6 ADD PUSH2 0x2208 JUMP JUMPDEST SWAP2 POP POP SWAP3 SWAP2 POP POP JUMP JUMPDEST PUSH2 0x2398 DUP2 PUSH2 0x22A5 JUMP JUMPDEST DUP2 EQ PUSH2 0x23A2 JUMPI PUSH0 PUSH0 REVERT JUMPDEST POP JUMP JUMPDEST PUSH0 DUP2 CALLDATALOAD SWAP1 POP PUSH2 0x23B3 DUP2 PUSH2 0x238F JUMP JUMPDEST SWAP3 SWAP2 POP POP JUMP JUMPDEST PUSH0 PUSH0 PUSH0 PUSH0 PUSH0 PUSH1 0xA0 DUP7 DUP9 SUB SLT ISZERO PUSH2 0x23D2 JUMPI PUSH2 0x23D1 PUSH2 0x21BB JUMP JUMPDEST JUMPDEST PUSH0 PUSH2 0x23DF DUP9 DUP3 DUP10 ADD PUSH2 0x21D5 JUMP JUMPDEST SWAP6 POP POP PUSH1 0x20 PUSH2 0x23F0 DUP9 DUP3 DUP10 ADD PUSH2 0x21D5 JUMP JUMPDEST SWAP5 POP POP PUSH1 0x40 PUSH2 0x2401 DUP9 DUP3 DUP10 ADD PUSH2 0x23A5 JUMP JUMPDEST SWAP4 POP POP PUSH1 0x60 PUSH2 0x2412 DUP9 DUP3 DUP10 ADD PUSH2 0x23A5 JUMP JUMPDEST SWAP3 POP POP PUSH1 0x80 PUSH2 0x2423 DUP9 DUP3 DUP10 ADD PUSH2 0x23A5 JUMP JUMPDEST SWAP2 POP POP SWAP3 SWAP6 POP SWAP3 SWAP6 SWAP1 SWAP4 POP JUMP JUMPDEST PUSH2 0x2439 DUP2 PUSH2 0x21E9 JUMP JUMPDEST DUP3 MSTORE POP POP JUMP JUMPDEST PUSH0 PUSH1 0x20 DUP3 ADD SWAP1 POP PUSH2 0x2452 PUSH0 DUP4 ADD DUP5 PUSH2 0x2430 JUMP JUMPDEST SWAP3 SWAP2 POP POP JUMP JUMPDEST PUSH0 PUSH1 0x20 DUP3 ADD SWAP1 POP PUSH2 0x246B PUSH0 DUP4 ADD DUP5 PUSH2 0x22B8 JUMP JUMPDEST SWAP3 SWAP2 POP POP JUMP JUMPDEST PUSH0 DUP2 MLOAD SWAP1 POP SWAP2 SWAP1 POP JUMP JUMPDEST PUSH0 DUP3 DUP3 MSTORE PUSH1 0x20 DUP3 ADD SWAP1 POP SWAP3 SWAP2 POP POP JUMP JUMPDEST DUP3 DUP2 DUP4 MCOPY PUSH0 DUP4 DUP4 ADD MSTORE POP POP POP JUMP JUMPDEST PUSH0 PUSH1 0x1F NOT PUSH1 0x1F DUP4 ADD AND SWAP1 POP SWAP2 SWAP1 POP JUMP JUMPDEST PUSH0 PUSH2 0x24B3 DUP3 PUSH2 0x2471 JUMP JUMPDEST PUSH2 0x24BD DUP2 DUP6 PUSH2 0x247B JUMP JUMPDEST SWAP4 POP PUSH2 0x24CD DUP2 DUP6 PUSH1 0x20 DUP7 ADD PUSH2 0x248B JUMP JUMPDEST PUSH2 0x24D6 DUP2 PUSH2 0x2499 JUMP JUMPDEST DUP5 ADD SWAP2 POP POP SWAP3 SWAP2 POP POP JUMP JUMPDEST PUSH0 PUSH1 0x20 DUP3 ADD SWAP1 POP DUP2 DUP2 SUB PUSH0 DUP4 ADD MSTORE PUSH2 0x24F9 DUP2 DUP5 PUSH2 0x24A9 JUMP JUMPDEST SWAP1 POP SWAP3 SWAP2 POP POP JUMP JUMPDEST PUSH0 PUSH1 0x60 DUP3 ADD SWAP1 POP PUSH2 0x2514 PUSH0 DUP4 ADD DUP7 PUSH2 0x22B8 JUMP JUMPDEST PUSH2 0x2521 PUSH1 0x20 DUP4 ADD DUP6 PUSH2 0x22B8 JUMP JUMPDEST PUSH2 0x252E PUSH1 0x40 DUP4 ADD DUP5 PUSH2 0x22B8 JUMP JUMPDEST SWAP5 SWAP4 POP POP POP POP JUMP JUMPDEST PUSH32 0x616C72656164792066696E616C697A6564000000000000000000000000000000 PUSH0 DUP3 ADD MSTORE POP JUMP JUMPDEST PUSH0 PUSH2 0x256A PUSH1 0x11 DUP4 PUSH2 0x247B JUMP JUMPDEST SWAP2 POP PUSH2 0x2575 DUP3 PUSH2 0x2536 JUMP JUMPDEST PUSH1 0x20 DUP3 ADD SWAP1 POP SWAP2 SWAP1 POP JUMP JUMPDEST PUSH0 PUSH1 0x20 DUP3 ADD SWAP1 POP DUP2 DUP2 SUB PUSH0 DUP4 ADD MSTORE PUSH2 0x2597 DUP2 PUSH2 0x255E JUMP JUMPDEST SWAP1 POP SWAP2 SWAP1 POP JUMP JUMPDEST PUSH32 0x4E487B7100000000000000000000000000000000000000000000000000000000 PUSH0 MSTORE PUSH1 0x11 PUSH1 0x4 MSTORE PUSH1 0x24 PUSH0 REVERT JUMPDEST PUSH0 PUSH2 0x25D5 DUP3 PUSH2 0x22A5 JUMP JUMPDEST SWAP2 POP PUSH2 0x25E0 DUP4 PUSH2 0x22A5 JUMP JUMPDEST SWAP3 POP DUP3 DUP3 ADD SWAP1 POP PUSH8 0xFFFFFFFFFFFFFFFF DUP2 GT ISZERO PUSH2 0x2600 JUMPI PUSH2 0x25FF PUSH2 0x259E JUMP JUMPDEST JUMPDEST SWAP3 SWAP2 POP POP JUMP JUMPDEST PUSH0 PUSH1 0x80 DUP3 ADD SWAP1 POP PUSH2 0x2619 PUSH0 DUP4 ADD DUP8 PUSH2 0x2296 JUMP JUMPDEST PUSH2 0x2626 PUSH1 0x20 DUP4 ADD DUP7 PUSH2 0x2100 JUMP JUMPDEST PUSH2 0x2633 PUSH1 0x40 DUP4 ADD DUP6 PUSH2 0x2100 JUMP JUMPDEST PUSH2 0x2640 PUSH1 0x60 DUP4 ADD DUP5 PUSH2 0x2100 JUMP JUMPDEST SWAP6 SWAP5 POP POP POP POP POP JUMP JUMPDEST PUSH32 0x7374696C6C2070617961626C652077696E646F77000000000000000000000000 PUSH0 DUP3 ADD MSTORE POP JUMP JUMPDEST PUSH0 PUSH2 0x267D PUSH1 0x14 DUP4 PUSH2 0x247B JUMP JUMPDEST SWAP2 POP PUSH2 0x2688 DUP3 PUSH2 0x2649 JUMP JUMPDEST PUSH1 0x20 DUP3 ADD SWAP1 POP SWAP2 SWAP1 POP JUMP JUMPDEST PUSH0 PUSH1 0x20 DUP3 ADD SWAP1 POP DUP2 DUP2 SUB PUSH0 DUP4 ADD MSTORE PUSH2 0x26AA DUP2 PUSH2 0x2671 JUMP JUMPDEST SWAP1 POP SWAP2 SWAP1 POP JUMP JUMPDEST PUSH0 DUP2 SWAP1 POP SWAP2 SWAP1 POP JUMP JUMPDEST PUSH2 0x26CB PUSH2 0x26C6 DUP3 PUSH2 0x20F7 JUMP JUMPDEST PUSH2 0x26B1 JUMP JUMPDEST DUP3 MSTORE POP POP JUMP JUMPDEST PUSH0 DUP2 SWAP1 POP SWAP2 SWAP1 POP JUMP JUMPDEST PUSH2 0x26EB PUSH2 0x26E6 DUP3 PUSH2 0x21E9 JUMP JUMPDEST PUSH2 0x26D1 JUMP JUMPDEST DUP3 MSTORE POP POP JUMP JUMPDEST PUSH0 PUSH2 0x26FC DUP3 DUP6 PUSH2 0x26BA JUMP JUMPDEST PUSH1 0x20 DUP3 ADD SWAP2 POP PUSH2 0x270C DUP3 DUP5 PUSH2 0x26DA JUMP JUMPDEST PUSH1 0x20 DUP3 ADD SWAP2 POP DUP2 SWAP1 POP SWAP4 SWAP3 POP POP POP JUMP JUMPDEST PUSH32 0x70726576696F7573206E6F7420736574746C6564000000000000000000000000 PUSH0 DUP3 ADD MSTORE POP JUMP JUMPDEST PUSH0 PUSH2 0x2750 PUSH1 0x14 DUP4 PUSH2 0x247B JUMP JUMPDEST SWAP2 POP PUSH2 0x275B DUP3 PUSH2 0x271C JUMP JUMPDEST PUSH1 0x20 DUP3 ADD SWAP1 POP SWAP2 SWAP1 POP JUMP JUMPDEST PUSH0 PUSH1 0x20 DUP3 ADD SWAP1 POP DUP2 DUP2 SUB PUSH0 DUP4 ADD MSTORE PUSH2 0x277D DUP2 PUSH2 0x2744 JUMP JUMPDEST SWAP1 POP SWAP2 SWAP1 POP JUMP JUMPDEST PUSH32 0x434F4E4649473A2062616420636F6D6D6974206475726174696F6E7300000000 PUSH0 DUP3 ADD MSTORE POP JUMP JUMPDEST PUSH0 PUSH2 0x27B8 PUSH1 0x1C DUP4 PUSH2 0x247B JUMP JUMPDEST SWAP2 POP PUSH2 0x27C3 DUP3 PUSH2 0x2784 JUMP JUMPDEST PUSH1 0x20 DUP3 ADD SWAP1 POP SWAP2 SWAP1 POP JUMP JUMPDEST PUSH0 PUSH1 0x20 DUP3 ADD SWAP1 POP DUP2 DUP2 SUB PUSH0 DUP4 ADD MSTORE PUSH2 0x27E5 DUP2 PUSH2 0x27AC JUMP JUMPDEST SWAP1 POP SWAP2 SWAP1 POP JUMP JUMPDEST PUSH32 0x434F4E4649473A206261642072657665616C206475726174696F6E7300000000 PUSH0 DUP3 ADD MSTORE POP JUMP JUMPDEST PUSH0 PUSH2 0x2820 PUSH1 0x1C DUP4 PUSH2 0x247B JUMP JUMPDEST SWAP2 POP PUSH2 0x282B DUP3 PUSH2 0x27EC JUMP JUMPDEST PUSH1 0x20 DUP3 ADD SWAP1 POP SWAP2 SWAP1 POP JUMP JUMPDEST PUSH0 PUSH1 0x20 DUP3 ADD SWAP1 POP DUP2 DUP2 SUB PUSH0 DUP4 ADD MSTORE PUSH2 0x284D DUP2 PUSH2 0x2814 JUMP JUMPDEST SWAP1 POP SWAP2 SWAP1 POP JUMP JUMPDEST PUSH32 0x434F4E4649473A20626164207265736572766520707269636500000000000000 PUSH0 DUP3 ADD MSTORE POP JUMP JUMPDEST PUSH0 PUSH2 0x2888 PUSH1 0x19 DUP4 PUSH2 0x247B JUMP JUMPDEST SWAP2 POP PUSH2 0x2893 DUP3 PUSH2 0x2854 JUMP JUMPDEST PUSH1 0x20 DUP3 ADD SWAP1 POP SWAP2 SWAP1 POP JUMP JUMPDEST PUSH0 PUSH1 0x20 DUP3 ADD SWAP1 POP DUP2 DUP2 SUB PUSH0 DUP4 ADD MSTORE PUSH2 0x28B5 DUP2 PUSH2 0x287C JUMP JUMPDEST SWAP1 POP SWAP2 SWAP1 POP JUMP JUMPDEST PUSH0 DUP2 MLOAD SWAP1 POP PUSH2 0x28CA DUP2 PUSH2 0x22FC JUMP JUMPDEST SWAP3 SWAP2 POP POP JUMP JUMPDEST PUSH0 PUSH1 0x20 DUP3 DUP5 SUB SLT ISZERO PUSH2 0x28E5 JUMPI PUSH2 0x28E4 PUSH2 0x21BB JUMP JUMPDEST JUMPDEST PUSH0 PUSH2 0x28F2 DUP5 DUP3 DUP6 ADD PUSH2 0x28BC JUMP JUMPDEST SWAP2 POP POP SWAP3 SWAP2 POP POP JUMP JUMPDEST PUSH32 0x4E46543A206E6F74206F776E6572000000000000000000000000000000000000 PUSH0 DUP3 ADD MSTORE POP JUMP JUMPDEST PUSH0 PUSH2 0x292F PUSH1 0xE DUP4 PUSH2 0x247B JUMP JUMPDEST SWAP2 POP PUSH2 0x293A DUP3 PUSH2 0x28FB JUMP JUMPDEST PUSH1 0x20 DUP3 ADD SWAP1 POP SWAP2 SWAP1 POP JUMP JUMPDEST PUSH0 PUSH1 0x20 DUP3 ADD SWAP1 POP DUP2 DUP2 SUB PUSH0 DUP4 ADD MSTORE PUSH2 0x295C DUP2 PUSH2 0x2923 JUMP JUMPDEST SWAP1 POP SWAP2 SWAP1 POP JUMP JUMPDEST PUSH0 PUSH1 0x40 DUP3 ADD SWAP1 POP PUSH2 0x2976 PUSH0 DUP4 ADD DUP6 PUSH2 0x2296 JUMP JUMPDEST PUSH2 0x2983 PUSH1 0x20 DUP4 ADD DUP5 PUSH2 0x2296 JUMP JUMPDEST SWAP4 SWAP3 POP POP POP JUMP JUMPDEST PUSH0 DUP2 ISZERO ISZERO SWAP1 POP SWAP2 SWAP1 POP JUMP JUMPDEST PUSH2 0x299E DUP2 PUSH2 0x298A JUMP JUMPDEST DUP2 EQ PUSH2 0x29A8 JUMPI PUSH0 PUSH0 REVERT JUMPDEST POP JUMP JUMPDEST PUSH0 DUP2 MLOAD SWAP1 POP PUSH2 0x29B9 DUP2 PUSH2 0x2995 JUMP JUMPDEST SWAP3 SWAP2 POP POP JUMP JUMPDEST PUSH0 PUSH1 0x20 DUP3 DUP5 SUB SLT ISZERO PUSH2 0x29D4 JUMPI PUSH2 0x29D3 PUSH2 0x21BB JUMP JUMPDEST JUMPDEST PUSH0 PUSH2 0x29E1 DUP5 DUP3 DUP6 ADD PUSH2 0x29AB JUMP JUMPDEST SWAP2 POP POP SWAP3 SWAP2 POP POP JUMP JUMPDEST PUSH32 0x4E46543A206E6F7420617070726F766564000000000000000000000000000000 PUSH0 DUP3 ADD MSTORE POP JUMP JUMPDEST PUSH0 PUSH2 0x2A1E PUSH1 0x11 DUP4 PUSH2 0x247B JUMP JUMPDEST SWAP2 POP PUSH2 0x2A29 DUP3 PUSH2 0x29EA JUMP JUMPDEST PUSH1 0x20 DUP3 ADD SWAP1 POP SWAP2 SWAP1 POP JUMP JUMPDEST PUSH0 PUSH1 0x20 DUP3 ADD SWAP1 POP DUP2 DUP2 SUB PUSH0 DUP4 ADD MSTORE PUSH2 0x2A4B DUP2 PUSH2 0x2A12 JUMP JUMPDEST SWAP1 POP SWAP2 SWAP1 POP JUMP JUMPDEST PUSH0 PUSH1 0x60 DUP3 ADD SWAP1 POP PUSH2 0x2A65 PUSH0 DUP4 ADD DUP7 PUSH2 0x2296 JUMP JUMPDEST PUSH2 0x2A72 PUSH1 0x20 DUP4 ADD DUP6 PUSH2 0x2296 JUMP JUMPDEST PUSH2 0x2A7F PUSH1 0x40 DUP4 ADD DUP5 PUSH2 0x2100 JUMP JUMPDEST SWAP5 SWAP4 POP POP POP POP JUMP JUMPDEST PUSH0 PUSH2 0x2A91 DUP3 PUSH2 0x20F7 JUMP JUMPDEST SWAP2 POP PUSH2 0x2A9C DUP4 PUSH2 0x20F7 JUMP JUMPDEST SWAP3 POP DUP3 DUP3 ADD SWAP1 POP DUP1 DUP3 GT ISZERO PUSH2 0x2AB4 JUMPI PUSH2 0x2AB3 PUSH2 0x259E JUMP JUMPDEST JUMPDEST SWAP3 SWAP2 POP POP JUMP JUMPDEST PUSH32 0x4E487B7100000000000000000000000000000000000000000000000000000000 PUSH0 MSTORE PUSH1 0x12 PUSH1 0x4 MSTORE PUSH1 0x24 PUSH0 REVERT JUMPDEST PUSH0 PUSH2 0x2AF1 DUP3 PUSH2 0x20F7 JUMP JUMPDEST SWAP2 POP PUSH2 0x2AFC DUP4 PUSH2 0x20F7 JUMP JUMPDEST SWAP3 POP DUP3 PUSH2 0x2B0C JUMPI PUSH2 0x2B0B PUSH2 0x2ABA JUMP JUMPDEST JUMPDEST DUP3 DUP3 DIV SWAP1 POP SWAP3 SWAP2 POP POP JUMP JUMPDEST PUSH0 PUSH2 0x2B31 PUSH2 0x2B2C PUSH2 0x2B27 DUP5 PUSH2 0x22A5 JUMP JUMPDEST PUSH2 0x2147 JUMP JUMPDEST PUSH2 0x20F7 JUMP JUMPDEST SWAP1 POP SWAP2 SWAP1 POP JUMP JUMPDEST PUSH2 0x2B41 DUP2 PUSH2 0x2B17 JUMP JUMPDEST DUP3 MSTORE POP POP JUMP JUMPDEST PUSH0 PUSH1 0xE0 DUP3 ADD SWAP1 POP PUSH2 0x2B5A PUSH0 DUP4 ADD DUP11 PUSH2 0x2100 JUMP JUMPDEST PUSH2 0x2B67 PUSH1 0x20 DUP4 ADD DUP10 PUSH2 0x2100 JUMP JUMPDEST PUSH2 0x2B74 PUSH1 0x40 DUP4 ADD DUP9 PUSH2 0x2100 JUMP JUMPDEST PUSH2 0x2B81 PUSH1 0x60 DUP4 ADD DUP8 PUSH2 0x2B38 JUMP JUMPDEST PUSH2 0x2B8E PUSH1 0x80 DUP4 ADD DUP7 PUSH2 0x22B8 JUMP JUMPDEST PUSH2 0x2B9B PUSH1 0xA0 DUP4 ADD DUP6 PUSH2 0x22B8 JUMP JUMPDEST PUSH2 0x2BA8 PUSH1 0xC0 DUP4 ADD DUP5 PUSH2 0x22B8 JUMP JUMPDEST SWAP9 SWAP8 POP POP POP POP POP POP POP POP JUMP JUMPDEST PUSH32 0x5245454E5452414E435900000000000000000000000000000000000000000000 PUSH0 DUP3 ADD MSTORE POP JUMP JUMPDEST PUSH0 PUSH2 0x2BE8 PUSH1 0xA DUP4 PUSH2 0x247B JUMP JUMPDEST SWAP2 POP PUSH2 0x2BF3 DUP3 PUSH2 0x2BB4 JUMP JUMPDEST PUSH1 0x20 DUP3 ADD SWAP1 POP SWAP2 SWAP1 POP JUMP JUMPDEST PUSH0 PUSH1 0x20 DUP3 ADD SWAP1 POP DUP2 DUP2 SUB PUSH0 DUP4 ADD MSTORE PUSH2 0x2C15 DUP2 PUSH2 0x2BDC JUMP JUMPDEST SWAP1 POP SWAP2 SWAP1 POP JUMP JUMPDEST PUSH0 DUP2 SWAP1 POP SWAP3 SWAP2 POP POP JUMP JUMPDEST POP JUMP JUMPDEST PUSH0 PUSH2 0x2C34 PUSH0 DUP4 PUSH2 0x2C1C JUMP JUMPDEST SWAP2 POP PUSH2 0x2C3F DUP3 PUSH2 0x2C26 JUMP JUMPDEST PUSH0 DUP3 ADD SWAP1 POP SWAP2 SWAP1 POP JUMP JUMPDEST PUSH0 PUSH2 0x2C53 DUP3 PUSH2 0x2C29 JUMP JUMPDEST SWAP2 POP DUP2 SWAP1 POP SWAP2 SWAP1 POP JUMP JUMPDEST PUSH32 0x7061792073656C6C6572206661696C6564000000000000000000000000000000 PUSH0 DUP3 ADD MSTORE POP JUMP JUMPDEST PUSH0 PUSH2 0x2C91 PUSH1 0x11 DUP4 PUSH2 0x247B JUMP JUMPDEST SWAP2 POP PUSH2 0x2C9C DUP3 PUSH2 0x2C5D JUMP JUMPDEST PUSH1 0x20 DUP3 ADD SWAP1 POP SWAP2 SWAP1 POP JUMP JUMPDEST PUSH0 PUSH1 0x20 DUP3 ADD SWAP1 POP DUP2 DUP2 SUB PUSH0 DUP4 ADD MSTORE PUSH2 0x2CBE DUP2 PUSH2 0x2C85 JUMP JUMPDEST SWAP1 POP SWAP2 SWAP1 POP JUMP INVALID LOG2 PUSH5 0x6970667358 0x22 SLT KECCAK256 0xDE SWAP3 SAR SWAP1 0xAE SWAP10 ISZERO 0x27 0xE8 SWAP4 0xC0 ISZERO SHL 0x4C EXTDELEGATECALL SWAP11 0xA6 MUL 0xBB DIV 0x4D 0xBA 0x22 0xD9 MSIZE SWAP11 KECCAK256 NOT 0xA7 MLOAD PUSH8 0xC064736F6C634300 ADDMOD 0x1E STOP CALLER "
				},
				"gasEstimates": {
					"creation": {
						"codeDepositCost": "2303000",
						"executionCost": "infinite",
						"totalCost": "infinite"
					},
					"external": {
						"MAX_DEPOSIT_PRICE()": "391",
						"MAX_DURATION()": "347",
						"MAX_PRICE()": "349",
						"auctionId()": "2471",
						"classNFT()": "infinite",
						"commitBid(bytes32)": "71861",
						"currentPhase(uint256)": "infinite",
						"finalize()": "infinite",
						"getCommitTime(uint256,address)": "5440",
						"getCommitment(uint256,address)": "5377",
						"getRevealedAmount(uint256,address)": "infinite",
						"getTimes(uint256)": "infinite",
						"getWinnerInfo(uint256)": "infinite",
						"payAndClaim()": "infinite",
						"revealBid(uint256,bytes32)": "infinite",
						"sellerReclaimIfUnpaid()": "infinite",
						"startAuction(uint256,uint256,uint64,uint64,uint64)": "infinite"
					},
					"internal": {
						"_requireActiveAuction()": "infinite",
						"_requireAuction(uint256)": "infinite",
						"_safeTransferNFT(struct VickreyAuctionHouse.Auction storage pointer,address,address,uint256)": "infinite"
					}
				},
				"methodIdentifiers": {
					"MAX_DEPOSIT_PRICE()": "cdf91dae",
					"MAX_DURATION()": "b1724b46",
					"MAX_PRICE()": "01c11d96",
					"auctionId()": "10782f8f",
					"classNFT()": "5e7721f7",
					"commitBid(bytes32)": "86a2cc27",
					"currentPhase(uint256)": "b1fb6405",
					"finalize()": "4bb278f3",
					"getCommitTime(uint256,address)": "8f3708e8",
					"getCommitment(uint256,address)": "89fb2682",
					"getRevealedAmount(uint256,address)": "813abc2d",
					"getTimes(uint256)": "d3aa699e",
					"getWinnerInfo(uint256)": "6b1da364",
					"payAndClaim()": "e9906f2e",
					"revealBid(uint256,bytes32)": "62c5424a",
					"sellerReclaimIfUnpaid()": "5df6ff9d",
					"startAuction(uint256,uint256,uint64,uint64,uint64)": "894da478"
				}
			},
			"storageLayout": {
				"storage": [
					{
						"astId": 79,
						"contract": "AuctionContract.sol:VickreyAuctionHouse",
						"label": "_status",
						"offset": 0,
						"slot": "0",
						"type": "t_uint256"
					},
					{
						"astId": 150,
						"contract": "AuctionContract.sol:VickreyAuctionHouse",
						"label": "auctionId",
						"offset": 0,
						"slot": "1",
						"type": "t_uint256"
					},
					{
						"astId": 155,
						"contract": "AuctionContract.sol:VickreyAuctionHouse",
						"label": "_auctions",
						"offset": 0,
						"slot": "2",
						"type": "t_mapping(t_uint256,t_struct(Auction)148_storage)"
					}
				],
				"types": {
					"t_address": {
						"encoding": "inplace",
						"label": "address",
						"numberOfBytes": "20"
					},
					"t_bool": {
						"encoding": "inplace",
						"label": "bool",
						"numberOfBytes": "1"
					},
					"t_bytes32": {
						"encoding": "inplace",
						"label": "bytes32",
						"numberOfBytes": "32"
					},
					"t_contract(IERC721)35": {
						"encoding": "inplace",
						"label": "contract IERC721",
						"numberOfBytes": "20"
					},
					"t_mapping(t_address,t_bytes32)": {
						"encoding": "mapping",
						"key": "t_address",
						"label": "mapping(address => bytes32)",
						"numberOfBytes": "32",
						"value": "t_bytes32"
					},
					"t_mapping(t_address,t_uint256)": {
						"encoding": "mapping",
						"key": "t_address",
						"label": "mapping(address => uint256)",
						"numberOfBytes": "32",
						"value": "t_uint256"
					},
					"t_mapping(t_address,t_uint64)": {
						"encoding": "mapping",
						"key": "t_address",
						"label": "mapping(address => uint64)",
						"numberOfBytes": "32",
						"value": "t_uint64"
					},
					"t_mapping(t_uint256,t_struct(Auction)148_storage)": {
						"encoding": "mapping",
						"key": "t_uint256",
						"label": "mapping(uint256 => struct VickreyAuctionHouse.Auction)",
						"numberOfBytes": "32",
						"value": "t_struct(Auction)148_storage"
					},
					"t_struct(Auction)148_storage": {
						"encoding": "inplace",
						"label": "struct VickreyAuctionHouse.Auction",
						"members": [
							{
								"astId": 101,
								"contract": "AuctionContract.sol:VickreyAuctionHouse",
								"label": "nft",
								"offset": 0,
								"slot": "0",
								"type": "t_contract(IERC721)35"
							},
							{
								"astId": 103,
								"contract": "AuctionContract.sol:VickreyAuctionHouse",
								"label": "tokenId",
								"offset": 0,
								"slot": "1",
								"type": "t_uint256"
							},
							{
								"astId": 105,
								"contract": "AuctionContract.sol:VickreyAuctionHouse",
								"label": "seller",
								"offset": 0,
								"slot": "2",
								"type": "t_address"
							},
							{
								"astId": 107,
								"contract": "AuctionContract.sol:VickreyAuctionHouse",
								"label": "reservePrice",
								"offset": 0,
								"slot": "3",
								"type": "t_uint256"
							},
							{
								"astId": 109,
								"contract": "AuctionContract.sol:VickreyAuctionHouse",
								"label": "depositPrice",
								"offset": 0,
								"slot": "4",
								"type": "t_uint256"
							},
							{
								"astId": 111,
								"contract": "AuctionContract.sol:VickreyAuctionHouse",
								"label": "startStamp",
								"offset": 0,
								"slot": "5",
								"type": "t_uint64"
							},
							{
								"astId": 113,
								"contract": "AuctionContract.sol:VickreyAuctionHouse",
								"label": "commitEnd",
								"offset": 8,
								"slot": "5",
								"type": "t_uint64"
							},
							{
								"astId": 115,
								"contract": "AuctionContract.sol:VickreyAuctionHouse",
								"label": "revealEnd",
								"offset": 16,
								"slot": "5",
								"type": "t_uint64"
							},
							{
								"astId": 117,
								"contract": "AuctionContract.sol:VickreyAuctionHouse",
								"label": "settleDuration",
								"offset": 24,
								"slot": "5",
								"type": "t_uint64"
							},
							{
								"astId": 119,
								"contract": "AuctionContract.sol:VickreyAuctionHouse",
								"label": "settleDeadline",
								"offset": 0,
								"slot": "6",
								"type": "t_uint64"
							},
							{
								"astId": 121,
								"contract": "AuctionContract.sol:VickreyAuctionHouse",
								"label": "highestBidder",
								"offset": 8,
								"slot": "6",
								"type": "t_address"
							},
							{
								"astId": 123,
								"contract": "AuctionContract.sol:VickreyAuctionHouse",
								"label": "highestBid",
								"offset": 0,
								"slot": "7",
								"type": "t_uint256"
							},
							{
								"astId": 125,
								"contract": "AuctionContract.sol:VickreyAuctionHouse",
								"label": "secondBid",
								"offset": 0,
								"slot": "8",
								"type": "t_uint256"
							},
							{
								"astId": 127,
								"contract": "AuctionContract.sol:VickreyAuctionHouse",
								"label": "clearingPrice",
								"offset": 0,
								"slot": "9",
								"type": "t_uint256"
							},
							{
								"astId": 129,
								"contract": "AuctionContract.sol:VickreyAuctionHouse",
								"label": "finalized",
								"offset": 0,
								"slot": "10",
								"type": "t_bool"
							},
							{
								"astId": 131,
								"contract": "AuctionContract.sol:VickreyAuctionHouse",
								"label": "settled",
								"offset": 1,
								"slot": "10",
								"type": "t_bool"
							},
							{
								"astId": 135,
								"contract": "AuctionContract.sol:VickreyAuctionHouse",
								"label": "commitments",
								"offset": 0,
								"slot": "11",
								"type": "t_mapping(t_address,t_bytes32)"
							},
							{
								"astId": 139,
								"contract": "AuctionContract.sol:VickreyAuctionHouse",
								"label": "commitTime",
								"offset": 0,
								"slot": "12",
								"type": "t_mapping(t_address,t_uint64)"
							},
							{
								"astId": 143,
								"contract": "AuctionContract.sol:VickreyAuctionHouse",
								"label": "depositAmount",
								"offset": 0,
								"slot": "13",
								"type": "t_mapping(t_address,t_uint256)"
							},
							{
								"astId": 147,
								"contract": "AuctionContract.sol:VickreyAuctionHouse",
								"label": "revealedAmount",
								"offset": 0,
								"slot": "14",
								"type": "t_mapping(t_address,t_uint256)"
							}
						],
						"numberOfBytes": "480"
					},
					"t_uint256": {
						"encoding": "inplace",
						"label": "uint256",
						"numberOfBytes": "32"
					},
					"t_uint64": {
						"encoding": "inplace",
						"label": "uint64",
						"numberOfBytes": "8"
					}
				}
			},
			"userdoc": {
				"kind": "user",
				"methods": {
					"commitBid(bytes32)": {
						"notice": "Commit a bid hash during commit phase. One (the last) commit is valid per address"
					},
					"finalize()": {
						"notice": "Finalize result after reveal ends: compute clearing price or mark unsold.         Sets a payment deadline for the winner to pay and claim."
					},
					"payAndClaim()": {
						"notice": "Winner pays the clearing price and claims the NFT; seller receives funds."
					},
					"revealBid(uint256,bytes32)": {
						"notice": "Reveal your bid during reveal phase."
					},
					"sellerReclaimIfUnpaid()": {
						"notice": "If winner未在截止前付款，卖家可取回NFT，标记本轮结束（流拍处理）。"
					},
					"startAuction(uint256,uint256,uint64,uint64,uint64)": {
						"notice": "Start a new auction. Seller must own the NFT and approve this contract; NFT is escrowed in."
					}
				},
				"version": 1
			}
		}
	}
}