{
	"AuctionContract.sol": {
		"VickreyAuctionHouse": {
			"abi": [
				{
					"inputs": [],
					"name": "AuctionActive",
					"type": "error"
				},
				{
					"inputs": [],
					"name": "ExactDepositRequired",
					"type": "error"
				},
				{
					"inputs": [],
					"name": "InvalidCommitment",
					"type": "error"
				},
				{
					"inputs": [],
					"name": "InvalidRevealedPrice",
					"type": "error"
				},
				{
					"inputs": [],
					"name": "NFTNotEscrowed",
					"type": "error"
				},
				{
					"inputs": [],
					"name": "NoActiveAuction",
					"type": "error"
				},
				{
					"inputs": [],
					"name": "NoClaimable",
					"type": "error"
				},
				{
					"inputs": [],
					"name": "NoDeposit",
					"type": "error"
				},
				{
					"inputs": [],
					"name": "NoEthAllowed",
					"type": "error"
				},
				{
					"inputs": [],
					"name": "NotEnded",
					"type": "error"
				},
				{
					"inputs": [],
					"name": "NotFinalizable",
					"type": "error"
				},
				{
					"inputs": [],
					"name": "NotInCommitPhase",
					"type": "error"
				},
				{
					"inputs": [],
					"name": "NotInRevealPhase",
					"type": "error"
				},
				{
					"inputs": [],
					"name": "NotSeller",
					"type": "error"
				},
				{
					"inputs": [],
					"name": "NotWinner",
					"type": "error"
				},
				{
					"inputs": [],
					"name": "PaymentClosed",
					"type": "error"
				},
				{
					"inputs": [],
					"name": "RevealAlreadyDone",
					"type": "error"
				},
				{
					"inputs": [],
					"name": "SellerCannotBid",
					"type": "error"
				},
				{
					"inputs": [],
					"name": "WithdrawFailed",
					"type": "error"
				},
				{
					"inputs": [],
					"name": "WrongPayment",
					"type": "error"
				},
				{
					"anonymous": false,
					"inputs": [
						{
							"indexed": true,
							"internalType": "uint256",
							"name": "id",
							"type": "uint256"
						},
						{
							"indexed": true,
							"internalType": "address",
							"name": "seller",
							"type": "address"
						},
						{
							"indexed": false,
							"internalType": "address",
							"name": "nft",
							"type": "address"
						},
						{
							"indexed": false,
							"internalType": "uint256",
							"name": "tokenId",
							"type": "uint256"
						},
						{
							"indexed": false,
							"internalType": "uint256",
							"name": "reservePrice",
							"type": "uint256"
						},
						{
							"indexed": false,
							"internalType": "uint256",
							"name": "depositPrice",
							"type": "uint256"
						},
						{
							"indexed": false,
							"internalType": "uint256",
							"name": "startStamp",
							"type": "uint256"
						},
						{
							"indexed": false,
							"internalType": "uint64",
							"name": "commitEnd",
							"type": "uint64"
						},
						{
							"indexed": false,
							"internalType": "uint64",
							"name": "revealEnd",
							"type": "uint64"
						},
						{
							"indexed": false,
							"internalType": "uint64",
							"name": "settleDuration",
							"type": "uint64"
						}
					],
					"name": "AuctionStarted",
					"type": "event"
				},
				{
					"anonymous": false,
					"inputs": [
						{
							"indexed": true,
							"internalType": "uint256",
							"name": "id",
							"type": "uint256"
						},
						{
							"indexed": true,
							"internalType": "address",
							"name": "bidder",
							"type": "address"
						}
					],
					"name": "BidCommitted",
					"type": "event"
				},
				{
					"anonymous": false,
					"inputs": [
						{
							"indexed": true,
							"internalType": "uint256",
							"name": "id",
							"type": "uint256"
						},
						{
							"indexed": true,
							"internalType": "address",
							"name": "bidder",
							"type": "address"
						},
						{
							"indexed": false,
							"internalType": "uint256",
							"name": "amount",
							"type": "uint256"
						}
					],
					"name": "BidRevealed",
					"type": "event"
				},
				{
					"anonymous": false,
					"inputs": [
						{
							"indexed": true,
							"internalType": "uint256",
							"name": "id",
							"type": "uint256"
						},
						{
							"indexed": false,
							"internalType": "address",
							"name": "winner",
							"type": "address"
						},
						{
							"indexed": false,
							"internalType": "uint256",
							"name": "highest",
							"type": "uint256"
						},
						{
							"indexed": false,
							"internalType": "uint256",
							"name": "second",
							"type": "uint256"
						},
						{
							"indexed": false,
							"internalType": "uint256",
							"name": "clearingPrice",
							"type": "uint256"
						}
					],
					"name": "Finalized",
					"type": "event"
				},
				{
					"anonymous": false,
					"inputs": [
						{
							"indexed": true,
							"internalType": "uint256",
							"name": "id",
							"type": "uint256"
						}
					],
					"name": "SellerReclaimed",
					"type": "event"
				},
				{
					"anonymous": false,
					"inputs": [
						{
							"indexed": true,
							"internalType": "uint256",
							"name": "id",
							"type": "uint256"
						}
					],
					"name": "Unsold",
					"type": "event"
				},
				{
					"anonymous": false,
					"inputs": [
						{
							"indexed": true,
							"internalType": "uint256",
							"name": "id",
							"type": "uint256"
						},
						{
							"indexed": true,
							"internalType": "address",
							"name": "winner",
							"type": "address"
						},
						{
							"indexed": false,
							"internalType": "uint256",
							"name": "price",
							"type": "uint256"
						}
					],
					"name": "WinnerPaidAndClaimed",
					"type": "event"
				},
				{
					"anonymous": false,
					"inputs": [
						{
							"indexed": true,
							"internalType": "uint256",
							"name": "id",
							"type": "uint256"
						},
						{
							"indexed": true,
							"internalType": "address",
							"name": "bidder",
							"type": "address"
						}
					],
					"name": "WithDrawnDeposit",
					"type": "event"
				},
				{
					"inputs": [],
					"name": "MAX_DURATION",
					"outputs": [
						{
							"internalType": "uint256",
							"name": "",
							"type": "uint256"
						}
					],
					"stateMutability": "view",
					"type": "function"
				},
				{
					"inputs": [],
					"name": "MAX_PRICE",
					"outputs": [
						{
							"internalType": "uint256",
							"name": "",
							"type": "uint256"
						}
					],
					"stateMutability": "view",
					"type": "function"
				},
				{
					"inputs": [],
					"name": "auctionId",
					"outputs": [
						{
							"internalType": "uint256",
							"name": "",
							"type": "uint256"
						}
					],
					"stateMutability": "view",
					"type": "function"
				},
				{
					"inputs": [],
					"name": "classNFT",
					"outputs": [
						{
							"internalType": "contract IERC721",
							"name": "",
							"type": "address"
						}
					],
					"stateMutability": "view",
					"type": "function"
				},
				{
					"inputs": [
						{
							"internalType": "bytes32",
							"name": "commitment",
							"type": "bytes32"
						}
					],
					"name": "commitBid",
					"outputs": [],
					"stateMutability": "payable",
					"type": "function"
				},
				{
					"inputs": [
						{
							"internalType": "uint256",
							"name": "id",
							"type": "uint256"
						}
					],
					"name": "currentPhase",
					"outputs": [
						{
							"internalType": "string",
							"name": "",
							"type": "string"
						}
					],
					"stateMutability": "view",
					"type": "function"
				},
				{
					"inputs": [],
					"name": "finalize",
					"outputs": [],
					"stateMutability": "nonpayable",
					"type": "function"
				},
				{
					"inputs": [
						{
							"internalType": "uint256",
							"name": "id",
							"type": "uint256"
						},
						{
							"internalType": "address",
							"name": "bidder",
							"type": "address"
						}
					],
					"name": "getCommitSeq",
					"outputs": [
						{
							"internalType": "uint64",
							"name": "",
							"type": "uint64"
						}
					],
					"stateMutability": "view",
					"type": "function"
				},
				{
					"inputs": [
						{
							"internalType": "uint256",
							"name": "id",
							"type": "uint256"
						},
						{
							"internalType": "address",
							"name": "bidder",
							"type": "address"
						}
					],
					"name": "getCommitment",
					"outputs": [
						{
							"internalType": "bytes32",
							"name": "",
							"type": "bytes32"
						}
					],
					"stateMutability": "view",
					"type": "function"
				},
				{
					"inputs": [
						{
							"internalType": "uint256",
							"name": "id",
							"type": "uint256"
						},
						{
							"internalType": "address",
							"name": "bidder",
							"type": "address"
						}
					],
					"name": "getDepositAmount",
					"outputs": [
						{
							"internalType": "uint256",
							"name": "",
							"type": "uint256"
						}
					],
					"stateMutability": "view",
					"type": "function"
				},
				{
					"inputs": [
						{
							"internalType": "uint256",
							"name": "id",
							"type": "uint256"
						},
						{
							"internalType": "address",
							"name": "bidder",
							"type": "address"
						}
					],
					"name": "getRevealedAmount",
					"outputs": [
						{
							"internalType": "uint256",
							"name": "",
							"type": "uint256"
						}
					],
					"stateMutability": "view",
					"type": "function"
				},
				{
					"inputs": [
						{
							"internalType": "uint256",
							"name": "id",
							"type": "uint256"
						}
					],
					"name": "getTimes",
					"outputs": [
						{
							"internalType": "uint64",
							"name": "startStamp",
							"type": "uint64"
						},
						{
							"internalType": "uint64",
							"name": "commitEnd",
							"type": "uint64"
						},
						{
							"internalType": "uint64",
							"name": "revealEnd",
							"type": "uint64"
						},
						{
							"internalType": "uint64",
							"name": "settleDeadline",
							"type": "uint64"
						}
					],
					"stateMutability": "view",
					"type": "function"
				},
				{
					"inputs": [
						{
							"internalType": "uint256",
							"name": "id",
							"type": "uint256"
						}
					],
					"name": "getWinnerInfo",
					"outputs": [
						{
							"internalType": "address",
							"name": "winner",
							"type": "address"
						},
						{
							"internalType": "uint256",
							"name": "price",
							"type": "uint256"
						},
						{
							"internalType": "uint64",
							"name": "payDeadline",
							"type": "uint64"
						}
					],
					"stateMutability": "view",
					"type": "function"
				},
				{
					"inputs": [
						{
							"internalType": "address",
							"name": "",
							"type": "address"
						},
						{
							"internalType": "address",
							"name": "",
							"type": "address"
						},
						{
							"internalType": "uint256",
							"name": "",
							"type": "uint256"
						},
						{
							"internalType": "bytes",
							"name": "",
							"type": "bytes"
						}
					],
					"name": "onERC721Received",
					"outputs": [
						{
							"internalType": "bytes4",
							"name": "",
							"type": "bytes4"
						}
					],
					"stateMutability": "pure",
					"type": "function"
				},
				{
					"inputs": [
						{
							"internalType": "uint256",
							"name": "id",
							"type": "uint256"
						}
					],
					"name": "payAndClaim",
					"outputs": [],
					"stateMutability": "payable",
					"type": "function"
				},
				{
					"inputs": [],
					"name": "payAndClaim",
					"outputs": [],
					"stateMutability": "payable",
					"type": "function"
				},
				{
					"inputs": [
						{
							"internalType": "uint256",
							"name": "amount",
							"type": "uint256"
						},
						{
							"internalType": "bytes32",
							"name": "salt",
							"type": "bytes32"
						}
					],
					"name": "revealBid",
					"outputs": [],
					"stateMutability": "nonpayable",
					"type": "function"
				},
				{
					"inputs": [
						{
							"internalType": "uint256",
							"name": "id",
							"type": "uint256"
						}
					],
					"name": "sellerReclaimNFT",
					"outputs": [],
					"stateMutability": "nonpayable",
					"type": "function"
				},
				{
					"inputs": [
						{
							"internalType": "uint256",
							"name": "tokenId",
							"type": "uint256"
						},
						{
							"internalType": "uint256",
							"name": "reservePrice",
							"type": "uint256"
						},
						{
							"internalType": "uint64",
							"name": "commitDurationSeconds",
							"type": "uint64"
						},
						{
							"internalType": "uint64",
							"name": "revealDurationSeconds",
							"type": "uint64"
						},
						{
							"internalType": "uint64",
							"name": "settleDurationSeconds",
							"type": "uint64"
						}
					],
					"name": "startAuction",
					"outputs": [],
					"stateMutability": "nonpayable",
					"type": "function"
				},
				{
					"inputs": [
						{
							"internalType": "uint256",
							"name": "id",
							"type": "uint256"
						}
					],
					"name": "withdrawDeposits",
					"outputs": [],
					"stateMutability": "nonpayable",
					"type": "function"
				},
				{
					"inputs": [],
					"name": "withdrawDeposits",
					"outputs": [],
					"stateMutability": "nonpayable",
					"type": "function"
				}
			],
			"devdoc": {
				"kind": "dev",
				"methods": {
					"commitBid(bytes32)": {
						"params": {
							"commitment": "keccak256(abi.encodePacked(amount, salt))"
						}
					},
					"revealBid(uint256,bytes32)": {
						"params": {
							"amount": "Bid amount in wei.",
							"salt": "The random secret used in commit."
						}
					},
					"startAuction(uint256,uint256,uint64,uint64,uint64)": {
						"params": {
							"commitDurationSeconds": "Commit phase duration in seconds.",
							"reservePrice": "Minimum acceptable price (wei).",
							"revealDurationSeconds": "Reveal phase duration in seconds.",
							"tokenId": "Token id in the fixed ClassNFT."
						}
					}
				},
				"version": 1
			},
			"evm": {
				"assembly": "    /* \"AuctionContract.sol\":831:19437  contract VickreyAuctionHouse {... */\n  mstore(0x40, 0xa0)\n    /* \"AuctionContract.sol\":1832:1833  1 */\n  0x01\n    /* \"AuctionContract.sol\":1884:1922  uint256 private _status = _NOT_ENTERED */\n  0x00\n  sstore\n    /* \"AuctionContract.sol\":3901:3943  0x1546Bd67237122754D3F0cB761c139f81388b210 */\n  0x1546bd67237122754d3f0cb761c139f81388b210\n    /* \"AuctionContract.sol\":3857:3944  IERC721 public immutable classNFT = IERC721(0x1546Bd67237122754D3F0cB761c139f81388b210) */\n  0xffffffffffffffffffffffffffffffffffffffff\n  and\n  0x80\n  swap1\n  0xffffffffffffffffffffffffffffffffffffffff\n  and\n  dup2\n  mstore\n  pop\n    /* \"AuctionContract.sol\":831:19437  contract VickreyAuctionHouse {... */\n  callvalue\n  dup1\n  iszero\n  tag_1\n  jumpi\n  revert(0x00, 0x00)\ntag_1:\n  pop\n  mload(0x80)\n  codecopy(0x00, dataOffset(sub_0), dataSize(sub_0))\n  0x00\n  assignImmutable(\"0xa882a7942f9c31b62f61719affd7835f08bca3f855f990bbc994d54b51d095ca\")\n  return(0x00, dataSize(sub_0))\nstop\n\nsub_0: assembly {\n        /* \"AuctionContract.sol\":831:19437  contract VickreyAuctionHouse {... */\n      mstore(0x40, 0x80)\n      jumpi(tag_1, lt(calldatasize, 0x04))\n      shr(0xe0, calldataload(0x00))\n      dup1\n      0x86a2cc27\n      gt\n      tag_23\n      jumpi\n      dup1\n      0xb1fb6405\n      gt\n      tag_24\n      jumpi\n      dup1\n      0xb1fb6405\n      eq\n      tag_17\n      jumpi\n      dup1\n      0xc8f97366\n      eq\n      tag_18\n      jumpi\n      dup1\n      0xd3851f4c\n      eq\n      tag_19\n      jumpi\n      dup1\n      0xd3aa699e\n      eq\n      tag_20\n      jumpi\n      dup1\n      0xde75a5c0\n      eq\n      tag_21\n      jumpi\n      dup1\n      0xe9906f2e\n      eq\n      tag_22\n      jumpi\n      jump(tag_1)\n    tag_24:\n      dup1\n      0x86a2cc27\n      eq\n      tag_12\n      jumpi\n      dup1\n      0x894da478\n      eq\n      tag_13\n      jumpi\n      dup1\n      0x89fb2682\n      eq\n      tag_14\n      jumpi\n      dup1\n      0xa0743f22\n      eq\n      tag_15\n      jumpi\n      dup1\n      0xb1724b46\n      eq\n      tag_16\n      jumpi\n      jump(tag_1)\n    tag_23:\n      dup1\n      0x62c5424a\n      gt\n      tag_25\n      jumpi\n      dup1\n      0x62c5424a\n      eq\n      tag_7\n      jumpi\n      dup1\n      0x6b1da364\n      eq\n      tag_8\n      jumpi\n      dup1\n      0x71d946b4\n      eq\n      tag_9\n      jumpi\n      dup1\n      0x7cf2ed22\n      eq\n      tag_10\n      jumpi\n      dup1\n      0x813abc2d\n      eq\n      tag_11\n      jumpi\n      jump(tag_1)\n    tag_25:\n      dup1\n      0x01c11d96\n      eq\n      tag_2\n      jumpi\n      dup1\n      0x10782f8f\n      eq\n      tag_3\n      jumpi\n      dup1\n      0x150b7a02\n      eq\n      tag_4\n      jumpi\n      dup1\n      0x4bb278f3\n      eq\n      tag_5\n      jumpi\n      dup1\n      0x5e7721f7\n      eq\n      tag_6\n      jumpi\n    tag_1:\n      revert(0x00, 0x00)\n        /* \"AuctionContract.sol\":1593:1633  uint256 public constant MAX_PRICE = 1e27 */\n    tag_2:\n      callvalue\n      dup1\n      iszero\n      tag_26\n      jumpi\n      revert(0x00, 0x00)\n    tag_26:\n      pop\n      tag_27\n      tag_28\n      jump\t// in\n    tag_27:\n      mload(0x40)\n      tag_29\n      swap2\n      swap1\n      tag_30\n      jump\t// in\n    tag_29:\n      mload(0x40)\n      dup1\n      swap2\n      sub\n      swap1\n      return\n        /* \"AuctionContract.sol\":3694:3718  uint256 public auctionId */\n    tag_3:\n      callvalue\n      dup1\n      iszero\n      tag_31\n      jumpi\n      revert(0x00, 0x00)\n    tag_31:\n      pop\n      tag_32\n      tag_33\n      jump\t// in\n    tag_32:\n      mload(0x40)\n      tag_34\n      swap2\n      swap1\n      tag_30\n      jump\t// in\n    tag_34:\n      mload(0x40)\n      dup1\n      swap2\n      sub\n      swap1\n      return\n        /* \"AuctionContract.sol\":2096:2263  function onERC721Received(address, address, uint256, bytes calldata) external pure returns (bytes4) {... */\n    tag_4:\n      callvalue\n      dup1\n      iszero\n      tag_35\n      jumpi\n      revert(0x00, 0x00)\n    tag_35:\n      pop\n      tag_36\n      0x04\n      dup1\n      calldatasize\n      sub\n      dup2\n      add\n      swap1\n      tag_37\n      swap2\n      swap1\n      tag_38\n      jump\t// in\n    tag_37:\n      tag_39\n      jump\t// in\n    tag_36:\n      mload(0x40)\n      tag_40\n      swap2\n      swap1\n      tag_41\n      jump\t// in\n    tag_40:\n      mload(0x40)\n      dup1\n      swap2\n      sub\n      swap1\n      return\n        /* \"AuctionContract.sol\":10492:12501  function finalize() external {... */\n    tag_5:\n      callvalue\n      dup1\n      iszero\n      tag_42\n      jumpi\n      revert(0x00, 0x00)\n    tag_42:\n      pop\n      tag_43\n      tag_44\n      jump\t// in\n    tag_43:\n      stop\n        /* \"AuctionContract.sol\":3857:3944  IERC721 public immutable classNFT = IERC721(0x1546Bd67237122754D3F0cB761c139f81388b210) */\n    tag_6:\n      callvalue\n      dup1\n      iszero\n      tag_45\n      jumpi\n      revert(0x00, 0x00)\n    tag_45:\n      pop\n      tag_46\n      tag_47\n      jump\t// in\n    tag_46:\n      mload(0x40)\n      tag_48\n      swap2\n      swap1\n      tag_49\n      jump\t// in\n    tag_48:\n      mload(0x40)\n      dup1\n      swap2\n      sub\n      swap1\n      return\n        /* \"AuctionContract.sol\":8591:10319  function revealBid(uint256 amount, bytes32 salt) external {... */\n    tag_7:\n      callvalue\n      dup1\n      iszero\n      tag_50\n      jumpi\n      revert(0x00, 0x00)\n    tag_50:\n      pop\n      tag_51\n      0x04\n      dup1\n      calldatasize\n      sub\n      dup2\n      add\n      swap1\n      tag_52\n      swap2\n      swap1\n      tag_53\n      jump\t// in\n    tag_52:\n      tag_54\n      jump\t// in\n    tag_51:\n      stop\n        /* \"AuctionContract.sol\":18744:19123  function getWinnerInfo(uint256 id) external view returns (address winner, uint256 price, uint64 payDeadline) {... */\n    tag_8:\n      callvalue\n      dup1\n      iszero\n      tag_55\n      jumpi\n      revert(0x00, 0x00)\n    tag_55:\n      pop\n      tag_56\n      0x04\n      dup1\n      calldatasize\n      sub\n      dup2\n      add\n      swap1\n      tag_57\n      swap2\n      swap1\n      tag_58\n      jump\t// in\n    tag_57:\n      tag_59\n      jump\t// in\n    tag_56:\n      mload(0x40)\n      tag_60\n      swap4\n      swap3\n      swap2\n      swap1\n      tag_61\n      jump\t// in\n    tag_60:\n      mload(0x40)\n      dup1\n      swap2\n      sub\n      swap1\n      return\n        /* \"AuctionContract.sol\":15911:16385  function withdrawDeposits(uint256 id) external nonReentrant{... */\n    tag_9:\n      callvalue\n      dup1\n      iszero\n      tag_62\n      jumpi\n      revert(0x00, 0x00)\n    tag_62:\n      pop\n      tag_63\n      0x04\n      dup1\n      calldatasize\n      sub\n      dup2\n      add\n      swap1\n      tag_64\n      swap2\n      swap1\n      tag_58\n      jump\t// in\n    tag_64:\n      tag_65\n      jump\t// in\n    tag_63:\n      stop\n        /* \"AuctionContract.sol\":15428:15903  function withdrawDeposits() external nonReentrant{... */\n    tag_10:\n      callvalue\n      dup1\n      iszero\n      tag_66\n      jumpi\n      revert(0x00, 0x00)\n    tag_66:\n      pop\n      tag_67\n      tag_68\n      jump\t// in\n    tag_67:\n      stop\n        /* \"AuctionContract.sol\":18029:18218  function getRevealedAmount(uint256 id, address bidder) external view returns (uint256) {... */\n    tag_11:\n      callvalue\n      dup1\n      iszero\n      tag_69\n      jumpi\n      revert(0x00, 0x00)\n    tag_69:\n      pop\n      tag_70\n      0x04\n      dup1\n      calldatasize\n      sub\n      dup2\n      add\n      swap1\n      tag_71\n      swap2\n      swap1\n      tag_72\n      jump\t// in\n    tag_71:\n      tag_73\n      jump\t// in\n    tag_70:\n      mload(0x40)\n      tag_74\n      swap2\n      swap1\n      tag_30\n      jump\t// in\n    tag_74:\n      mload(0x40)\n      dup1\n      swap2\n      sub\n      swap1\n      return\n        /* \"AuctionContract.sol\":7490:8432  function commitBid(bytes32 commitment) external payable{... */\n    tag_12:\n      tag_75\n      0x04\n      dup1\n      calldatasize\n      sub\n      dup2\n      add\n      swap1\n      tag_76\n      swap2\n      swap1\n      tag_77\n      jump\t// in\n    tag_76:\n      tag_78\n      jump\t// in\n    tag_75:\n      stop\n        /* \"AuctionContract.sol\":5372:7314  function startAuction(... */\n    tag_13:\n      callvalue\n      dup1\n      iszero\n      tag_79\n      jumpi\n      revert(0x00, 0x00)\n    tag_79:\n      pop\n      tag_80\n      0x04\n      dup1\n      calldatasize\n      sub\n      dup2\n      add\n      swap1\n      tag_81\n      swap2\n      swap1\n      tag_82\n      jump\t// in\n    tag_81:\n      tag_83\n      jump\t// in\n    tag_80:\n      stop\n        /* \"AuctionContract.sol\":17447:17634  function getCommitment(uint256 id, address bidder) external view returns (bytes32) {... */\n    tag_14:\n      callvalue\n      dup1\n      iszero\n      tag_84\n      jumpi\n      revert(0x00, 0x00)\n    tag_84:\n      pop\n      tag_85\n      0x04\n      dup1\n      calldatasize\n      sub\n      dup2\n      add\n      swap1\n      tag_86\n      swap2\n      swap1\n      tag_72\n      jump\t// in\n    tag_86:\n      tag_87\n      jump\t// in\n    tag_85:\n      mload(0x40)\n      tag_88\n      swap2\n      swap1\n      tag_89\n      jump\t// in\n    tag_88:\n      mload(0x40)\n      dup1\n      swap2\n      sub\n      swap1\n      return\n        /* \"AuctionContract.sol\":13590:14561  function payAndClaim(uint256 id) external payable nonReentrant {... */\n    tag_15:\n      tag_90\n      0x04\n      dup1\n      calldatasize\n      sub\n      dup2\n      add\n      swap1\n      tag_91\n      swap2\n      swap1\n      tag_58\n      jump\t// in\n    tag_91:\n      tag_92\n      jump\t// in\n    tag_90:\n      stop\n        /* \"AuctionContract.sol\":1528:1574  uint256 public constant MAX_DURATION = 2592000 */\n    tag_16:\n      callvalue\n      dup1\n      iszero\n      tag_93\n      jumpi\n      revert(0x00, 0x00)\n    tag_93:\n      pop\n      tag_94\n      tag_95\n      jump\t// in\n    tag_94:\n      mload(0x40)\n      tag_96\n      swap2\n      swap1\n      tag_30\n      jump\t// in\n    tag_96:\n      mload(0x40)\n      dup1\n      swap2\n      sub\n      swap1\n      return\n        /* \"AuctionContract.sol\":18226:18736  function currentPhase(uint256 id) public view returns (string memory) {... */\n    tag_17:\n      callvalue\n      dup1\n      iszero\n      tag_97\n      jumpi\n      revert(0x00, 0x00)\n    tag_97:\n      pop\n      tag_98\n      0x04\n      dup1\n      calldatasize\n      sub\n      dup2\n      add\n      swap1\n      tag_99\n      swap2\n      swap1\n      tag_58\n      jump\t// in\n    tag_99:\n      tag_100\n      jump\t// in\n    tag_98:\n      mload(0x40)\n      tag_101\n      swap2\n      swap1\n      tag_102\n      jump\t// in\n    tag_101:\n      mload(0x40)\n      dup1\n      swap2\n      sub\n      swap1\n      return\n        /* \"AuctionContract.sol\":14668:15420  function sellerReclaimNFT(uint256 id) external nonReentrant {... */\n    tag_18:\n      callvalue\n      dup1\n      iszero\n      tag_103\n      jumpi\n      revert(0x00, 0x00)\n    tag_103:\n      pop\n      tag_104\n      0x04\n      dup1\n      calldatasize\n      sub\n      dup2\n      add\n      swap1\n      tag_105\n      swap2\n      swap1\n      tag_58\n      jump\t// in\n    tag_105:\n      tag_106\n      jump\t// in\n    tag_104:\n      stop\n        /* \"AuctionContract.sol\":17642:17826  function getCommitSeq(uint256 id, address bidder) external view returns (uint64) {... */\n    tag_19:\n      callvalue\n      dup1\n      iszero\n      tag_107\n      jumpi\n      revert(0x00, 0x00)\n    tag_107:\n      pop\n      tag_108\n      0x04\n      dup1\n      calldatasize\n      sub\n      dup2\n      add\n      swap1\n      tag_109\n      swap2\n      swap1\n      tag_72\n      jump\t// in\n    tag_109:\n      tag_110\n      jump\t// in\n    tag_108:\n      mload(0x40)\n      tag_111\n      swap2\n      swap1\n      tag_112\n      jump\t// in\n    tag_111:\n      mload(0x40)\n      dup1\n      swap2\n      sub\n      swap1\n      return\n        /* \"AuctionContract.sol\":19167:19432  function getTimes(uint256 id) external view returns (uint64 startStamp, uint64 commitEnd, uint64 revealEnd, uint64 settleDeadline) {... */\n    tag_20:\n      callvalue\n      dup1\n      iszero\n      tag_113\n      jumpi\n      revert(0x00, 0x00)\n    tag_113:\n      pop\n      tag_114\n      0x04\n      dup1\n      calldatasize\n      sub\n      dup2\n      add\n      swap1\n      tag_115\n      swap2\n      swap1\n      tag_58\n      jump\t// in\n    tag_115:\n      tag_116\n      jump\t// in\n    tag_114:\n      mload(0x40)\n      tag_117\n      swap5\n      swap4\n      swap3\n      swap2\n      swap1\n      tag_118\n      jump\t// in\n    tag_117:\n      mload(0x40)\n      dup1\n      swap2\n      sub\n      swap1\n      return\n        /* \"AuctionContract.sol\":17834:18021  function getDepositAmount(uint256 id, address bidder) external view returns (uint256) {... */\n    tag_21:\n      callvalue\n      dup1\n      iszero\n      tag_119\n      jumpi\n      revert(0x00, 0x00)\n    tag_119:\n      pop\n      tag_120\n      0x04\n      dup1\n      calldatasize\n      sub\n      dup2\n      add\n      swap1\n      tag_121\n      swap2\n      swap1\n      tag_72\n      jump\t// in\n    tag_121:\n      tag_122\n      jump\t// in\n    tag_120:\n      mload(0x40)\n      tag_123\n      swap2\n      swap1\n      tag_30\n      jump\t// in\n    tag_123:\n      mload(0x40)\n      dup1\n      swap2\n      sub\n      swap1\n      return\n        /* \"AuctionContract.sol\":12714:13551  function payAndClaim() external payable nonReentrant {... */\n    tag_22:\n      tag_124\n      tag_125\n      jump\t// in\n    tag_124:\n      stop\n        /* \"AuctionContract.sol\":1593:1633  uint256 public constant MAX_PRICE = 1e27 */\n    tag_28:\n        /* \"AuctionContract.sol\":1629:1633  1e27 */\n      0x033b2e3c9fd0803ce8000000\n        /* \"AuctionContract.sol\":1593:1633  uint256 public constant MAX_PRICE = 1e27 */\n      dup2\n      jump\t// out\n        /* \"AuctionContract.sol\":3694:3718  uint256 public auctionId */\n    tag_33:\n      sload(0x01)\n      dup2\n      jump\t// out\n        /* \"AuctionContract.sol\":2096:2263  function onERC721Received(address, address, uint256, bytes calldata) external pure returns (bytes4) {... */\n    tag_39:\n        /* \"AuctionContract.sol\":2188:2194  bytes4 */\n      0x00\n        /* \"AuctionContract.sol\":2214:2255  IERC721Receiver.onERC721Received.selector */\n      shl(0xe0, 0x150b7a02)\n        /* \"AuctionContract.sol\":2207:2255  return IERC721Receiver.onERC721Received.selector */\n      swap1\n      pop\n        /* \"AuctionContract.sol\":2096:2263  function onERC721Received(address, address, uint256, bytes calldata) external pure returns (bytes4) {... */\n      swap6\n      swap5\n      pop\n      pop\n      pop\n      pop\n      pop\n      jump\t// out\n        /* \"AuctionContract.sol\":10492:12501  function finalize() external {... */\n    tag_44:\n        /* \"AuctionContract.sol\":10532:10549  Auction storage A */\n      0x00\n        /* \"AuctionContract.sol\":10552:10575  _requireActiveAuction() */\n      tag_128\n        /* \"AuctionContract.sol\":10552:10573  _requireActiveAuction */\n      tag_129\n        /* \"AuctionContract.sol\":10552:10575  _requireActiveAuction() */\n      jump\t// in\n    tag_128:\n        /* \"AuctionContract.sol\":10532:10575  Auction storage A = _requireActiveAuction() */\n      swap1\n      pop\n        /* \"AuctionContract.sol\":10608:10609  A */\n      dup1\n        /* \"AuctionContract.sol\":10608:10619  A.revealEnd */\n      0x05\n      add\n      0x10\n      swap1\n      sload\n      swap1\n      0x0100\n      exp\n      swap1\n      div\n      0xffffffffffffffff\n      and\n        /* \"AuctionContract.sol\":10590:10619  block.timestamp < A.revealEnd */\n      0xffffffffffffffff\n      and\n        /* \"AuctionContract.sol\":10590:10605  block.timestamp */\n      timestamp\n        /* \"AuctionContract.sol\":10590:10619  block.timestamp < A.revealEnd */\n      lt\n        /* \"AuctionContract.sol\":10586:10644  if (block.timestamp < A.revealEnd) revert NotFinalizable() */\n      iszero\n      tag_130\n      jumpi\n        /* \"AuctionContract.sol\":10628:10644  NotFinalizable() */\n      mload(0x40)\n      0xe8f46600000000000000000000000000000000000000000000000000000000\n      dup2\n      mstore\n      0x04\n      add\n      mload(0x40)\n      dup1\n      swap2\n      sub\n      swap1\n      revert\n        /* \"AuctionContract.sol\":10586:10644  if (block.timestamp < A.revealEnd) revert NotFinalizable() */\n    tag_130:\n        /* \"AuctionContract.sol\":10664:10665  A */\n      dup1\n        /* \"AuctionContract.sol\":10664:10675  A.finalized */\n      0x02\n      add\n      0x14\n      swap1\n      sload\n      swap1\n      0x0100\n      exp\n      swap1\n      div\n      0xff\n      and\n        /* \"AuctionContract.sol\":10663:10675  !A.finalized */\n      iszero\n        /* \"AuctionContract.sol\":10655:10697  require(!A.finalized, \"already finalized\") */\n      tag_131\n      jumpi\n      mload(0x40)\n      0x08c379a000000000000000000000000000000000000000000000000000000000\n      dup2\n      mstore\n      0x04\n      add\n      tag_132\n      swap1\n      tag_133\n      jump\t// in\n    tag_132:\n      mload(0x40)\n      dup1\n      swap2\n      sub\n      swap1\n      revert\n    tag_131:\n        /* \"AuctionContract.sol\":10740:10744  true */\n      0x01\n        /* \"AuctionContract.sol\":10726:10727  A */\n      dup2\n        /* \"AuctionContract.sol\":10726:10737  A.finalized */\n      0x02\n      add\n      0x14\n        /* \"AuctionContract.sol\":10726:10744  A.finalized = true */\n      0x0100\n      exp\n      dup2\n      sload\n      dup2\n      0xff\n      mul\n      not\n      and\n      swap1\n      dup4\n      iszero\n      iszero\n      mul\n      or\n      swap1\n      sstore\n      pop\n        /* \"AuctionContract.sol\":10856:10857  0 */\n      0x00\n        /* \"AuctionContract.sol\":10829:10858  A.highestBidder == address(0) */\n      0xffffffffffffffffffffffffffffffffffffffff\n      and\n        /* \"AuctionContract.sol\":10829:10830  A */\n      dup2\n        /* \"AuctionContract.sol\":10829:10844  A.highestBidder */\n      0x02\n      add\n      0x00\n      swap1\n      sload\n      swap1\n      0x0100\n      exp\n      swap1\n      div\n      0xffffffffffffffffffffffffffffffffffffffff\n      and\n        /* \"AuctionContract.sol\":10829:10858  A.highestBidder == address(0) */\n      0xffffffffffffffffffffffffffffffffffffffff\n      and\n      sub\n        /* \"AuctionContract.sol\":10825:11138  if (A.highestBidder == address(0)) {... */\n      tag_134\n      jumpi\n        /* \"AuctionContract.sol\":10893:10894  0 */\n      0x00\n        /* \"AuctionContract.sol\":10875:10876  A */\n      dup2\n        /* \"AuctionContract.sol\":10875:10890  A.clearingPrice */\n      0x09\n      add\n        /* \"AuctionContract.sol\":10875:10894  A.clearingPrice = 0 */\n      dup2\n      swap1\n      sstore\n      pop\n        /* \"AuctionContract.sol\":10921:10925  true */\n      0x01\n        /* \"AuctionContract.sol\":10909:10910  A */\n      dup2\n        /* \"AuctionContract.sol\":10909:10918  A.settled */\n      0x02\n      add\n      0x15\n        /* \"AuctionContract.sol\":10909:10925  A.settled = true */\n      0x0100\n      exp\n      dup2\n      sload\n      dup2\n      0xff\n      mul\n      not\n      and\n      swap1\n      dup4\n      iszero\n      iszero\n      mul\n      or\n      swap1\n      sstore\n      pop\n        /* \"AuctionContract.sol\":10940:10992  _safeTransferNFT(address(this), A.seller, A.tokenId) */\n      tag_135\n        /* \"AuctionContract.sol\":10965:10969  this */\n      address\n        /* \"AuctionContract.sol\":10972:10973  A */\n      dup3\n        /* \"AuctionContract.sol\":10972:10980  A.seller */\n      0x01\n      add\n      0x00\n      swap1\n      sload\n      swap1\n      0x0100\n      exp\n      swap1\n      div\n      0xffffffffffffffffffffffffffffffffffffffff\n      and\n        /* \"AuctionContract.sol\":10982:10983  A */\n      dup4\n        /* \"AuctionContract.sol\":10982:10991  A.tokenId */\n      0x00\n      add\n      sload\n        /* \"AuctionContract.sol\":10940:10956  _safeTransferNFT */\n      tag_136\n        /* \"AuctionContract.sol\":10940:10992  _safeTransferNFT(address(this), A.seller, A.tokenId) */\n      jump\t// in\n    tag_135:\n        /* \"AuctionContract.sol\":11095:11104  auctionId */\n      sload(0x01)\n        /* \"AuctionContract.sol\":11088:11105  Unsold(auctionId) */\n      0xa761d07fdb0a6897f18726f15d43008d6c30ce08e44a91775cfd2ef3b61cdad0\n      mload(0x40)\n      mload(0x40)\n      dup1\n      swap2\n      sub\n      swap1\n      log2\n        /* \"AuctionContract.sol\":11120:11127  return; */\n      pop\n      jump(tag_127)\n        /* \"AuctionContract.sol\":10825:11138  if (A.highestBidder == address(0)) {... */\n    tag_134:\n        /* \"AuctionContract.sol\":11212:11229  uint256 dealPrice */\n      0x00\n        /* \"AuctionContract.sol\":11247:11248  A */\n      dup2\n        /* \"AuctionContract.sol\":11247:11261  A.reservePrice */\n      0x03\n      add\n      sload\n        /* \"AuctionContract.sol\":11233:11234  A */\n      dup3\n        /* \"AuctionContract.sol\":11233:11244  A.secondBid */\n      0x08\n      add\n      sload\n        /* \"AuctionContract.sol\":11233:11261  A.secondBid < A.reservePrice */\n      lt\n        /* \"AuctionContract.sol\":11232:11291  (A.secondBid < A.reservePrice) ? A.reservePrice:A.secondBid */\n      tag_137\n      jumpi\n        /* \"AuctionContract.sol\":11280:11281  A */\n      dup2\n        /* \"AuctionContract.sol\":11280:11291  A.secondBid */\n      0x08\n      add\n      sload\n        /* \"AuctionContract.sol\":11232:11291  (A.secondBid < A.reservePrice) ? A.reservePrice:A.secondBid */\n      jump(tag_138)\n    tag_137:\n        /* \"AuctionContract.sol\":11265:11266  A */\n      dup2\n        /* \"AuctionContract.sol\":11265:11279  A.reservePrice */\n      0x03\n      add\n      sload\n        /* \"AuctionContract.sol\":11232:11291  (A.secondBid < A.reservePrice) ? A.reservePrice:A.secondBid */\n    tag_138:\n        /* \"AuctionContract.sol\":11212:11291  uint256 dealPrice = (A.secondBid < A.reservePrice) ? A.reservePrice:A.secondBid */\n      swap1\n      pop\n        /* \"AuctionContract.sol\":11349:11370  uint256 winnerDeposit */\n      0x00\n        /* \"AuctionContract.sol\":11373:11374  A */\n      dup3\n        /* \"AuctionContract.sol\":11373:11382  A.bidders */\n      0x0a\n      add\n        /* \"AuctionContract.sol\":11373:11399  A.bidders[A.highestBidder] */\n      0x00\n        /* \"AuctionContract.sol\":11383:11384  A */\n      dup5\n        /* \"AuctionContract.sol\":11383:11398  A.highestBidder */\n      0x02\n      add\n      0x00\n      swap1\n      sload\n      swap1\n      0x0100\n      exp\n      swap1\n      div\n      0xffffffffffffffffffffffffffffffffffffffff\n      and\n        /* \"AuctionContract.sol\":11373:11399  A.bidders[A.highestBidder] */\n      0xffffffffffffffffffffffffffffffffffffffff\n      and\n      0xffffffffffffffffffffffffffffffffffffffff\n      and\n      dup2\n      mstore\n      0x20\n      add\n      swap1\n      dup2\n      mstore\n      0x20\n      add\n      0x00\n      keccak256\n        /* \"AuctionContract.sol\":11373:11407  A.bidders[A.highestBidder].deposit */\n      0x02\n      add\n      sload\n        /* \"AuctionContract.sol\":11349:11407  uint256 winnerDeposit = A.bidders[A.highestBidder].deposit */\n      swap1\n      pop\n        /* \"AuctionContract.sol\":11418:11439  uint256 sellerDeposit */\n      0x00\n        /* \"AuctionContract.sol\":11442:11443  A */\n      dup4\n        /* \"AuctionContract.sol\":11442:11451  A.bidders */\n      0x0a\n      add\n        /* \"AuctionContract.sol\":11442:11461  A.bidders[A.seller] */\n      0x00\n        /* \"AuctionContract.sol\":11452:11453  A */\n      dup6\n        /* \"AuctionContract.sol\":11452:11460  A.seller */\n      0x01\n      add\n      0x00\n      swap1\n      sload\n      swap1\n      0x0100\n      exp\n      swap1\n      div\n      0xffffffffffffffffffffffffffffffffffffffff\n      and\n        /* \"AuctionContract.sol\":11442:11461  A.bidders[A.seller] */\n      0xffffffffffffffffffffffffffffffffffffffff\n      and\n      0xffffffffffffffffffffffffffffffffffffffff\n      and\n      dup2\n      mstore\n      0x20\n      add\n      swap1\n      dup2\n      mstore\n      0x20\n      add\n      0x00\n      keccak256\n        /* \"AuctionContract.sol\":11442:11469  A.bidders[A.seller].deposit */\n      0x02\n      add\n      sload\n        /* \"AuctionContract.sol\":11418:11469  uint256 sellerDeposit = A.bidders[A.seller].deposit */\n      swap1\n      pop\n        /* \"AuctionContract.sol\":11555:11568  winnerDeposit */\n      dup2\n        /* \"AuctionContract.sol\":11542:11551  dealPrice */\n      dup4\n        /* \"AuctionContract.sol\":11542:11568  dealPrice >= winnerDeposit */\n      lt\n        /* \"AuctionContract.sol\":11539:12139  if(dealPrice >= winnerDeposit){... */\n      tag_139\n      jumpi\n        /* \"AuctionContract.sol\":11584:11600  uint256 clearing */\n      0x00\n        /* \"AuctionContract.sol\":11615:11628  winnerDeposit */\n      dup3\n        /* \"AuctionContract.sol\":11603:11612  dealPrice */\n      dup5\n        /* \"AuctionContract.sol\":11603:11628  dealPrice - winnerDeposit */\n      tag_140\n      swap2\n      swap1\n      tag_141\n      jump\t// in\n    tag_140:\n        /* \"AuctionContract.sol\":11584:11628  uint256 clearing = dealPrice - winnerDeposit */\n      swap1\n      pop\n        /* \"AuctionContract.sol\":11661:11669  clearing */\n      dup1\n        /* \"AuctionContract.sol\":11643:11644  A */\n      dup6\n        /* \"AuctionContract.sol\":11643:11658  A.clearingPrice */\n      0x09\n      add\n        /* \"AuctionContract.sol\":11643:11669  A.clearingPrice = clearing */\n      dup2\n      swap1\n      sstore\n      pop\n        /* \"AuctionContract.sol\":11750:11761  uint256 pay */\n      0x00\n        /* \"AuctionContract.sol\":11764:11777  winnerDeposit */\n      dup4\n        /* \"AuctionContract.sol\":11750:11777  uint256 pay = winnerDeposit */\n      swap1\n      pop\n        /* \"AuctionContract.sol\":11808:11809  0 */\n      0x00\n        /* \"AuctionContract.sol\":11792:11809  winnerDeposit = 0 */\n      swap4\n      pop\n        /* \"AuctionContract.sol\":11840:11843  pay */\n      dup1\n        /* \"AuctionContract.sol\":11824:11843  sellerDeposit = pay */\n      swap3\n      pop\n        /* \"AuctionContract.sol\":11569:11855  {... */\n      pop\n      pop\n        /* \"AuctionContract.sol\":11539:12139  if(dealPrice >= winnerDeposit){... */\n      jump(tag_142)\n    tag_139:\n        /* \"AuctionContract.sol\":11936:11949  winnerDeposit */\n      dup2\n        /* \"AuctionContract.sol\":11924:11933  dealPrice */\n      dup4\n        /* \"AuctionContract.sol\":11924:11949  dealPrice < winnerDeposit */\n      lt\n        /* \"AuctionContract.sol\":11920:12139  if (dealPrice < winnerDeposit){... */\n      iszero\n      tag_143\n      jumpi\n        /* \"AuctionContract.sol\":11965:11983  uint256 toWithdraw */\n      0x00\n        /* \"AuctionContract.sol\":12002:12011  dealPrice */\n      dup4\n        /* \"AuctionContract.sol\":11986:11999  winnerDeposit */\n      dup4\n        /* \"AuctionContract.sol\":11986:12011  winnerDeposit - dealPrice */\n      tag_144\n      swap2\n      swap1\n      tag_141\n      jump\t// in\n    tag_144:\n        /* \"AuctionContract.sol\":11965:12011  uint256 toWithdraw = winnerDeposit - dealPrice */\n      swap1\n      pop\n        /* \"AuctionContract.sol\":12044:12045  0 */\n      0x00\n        /* \"AuctionContract.sol\":12026:12027  A */\n      dup6\n        /* \"AuctionContract.sol\":12026:12041  A.clearingPrice */\n      0x09\n      add\n        /* \"AuctionContract.sol\":12026:12045  A.clearingPrice = 0 */\n      dup2\n      swap1\n      sstore\n      pop\n        /* \"AuctionContract.sol\":12076:12086  toWithdraw */\n      dup1\n        /* \"AuctionContract.sol\":12060:12086  winnerDeposit = toWithdraw */\n      swap3\n      pop\n        /* \"AuctionContract.sol\":12118:12127  dealPrice */\n      dup4\n        /* \"AuctionContract.sol\":12101:12127  sellerDeposit += dealPrice */\n      dup3\n      tag_145\n      swap2\n      swap1\n      tag_146\n      jump\t// in\n    tag_145:\n      swap2\n      pop\n        /* \"AuctionContract.sol\":11950:12139  {... */\n      pop\n        /* \"AuctionContract.sol\":11920:12139  if (dealPrice < winnerDeposit){... */\n    tag_143:\n        /* \"AuctionContract.sol\":11539:12139  if(dealPrice >= winnerDeposit){... */\n    tag_142:\n        /* \"AuctionContract.sol\":12222:12235  winnerDeposit */\n      dup2\n        /* \"AuctionContract.sol\":12185:12186  A */\n      dup5\n        /* \"AuctionContract.sol\":12185:12194  A.bidders */\n      0x0a\n      add\n        /* \"AuctionContract.sol\":12185:12211  A.bidders[A.highestBidder] */\n      0x00\n        /* \"AuctionContract.sol\":12195:12196  A */\n      dup7\n        /* \"AuctionContract.sol\":12195:12210  A.highestBidder */\n      0x02\n      add\n      0x00\n      swap1\n      sload\n      swap1\n      0x0100\n      exp\n      swap1\n      div\n      0xffffffffffffffffffffffffffffffffffffffff\n      and\n        /* \"AuctionContract.sol\":12185:12211  A.bidders[A.highestBidder] */\n      0xffffffffffffffffffffffffffffffffffffffff\n      and\n      0xffffffffffffffffffffffffffffffffffffffff\n      and\n      dup2\n      mstore\n      0x20\n      add\n      swap1\n      dup2\n      mstore\n      0x20\n      add\n      0x00\n      keccak256\n        /* \"AuctionContract.sol\":12185:12219  A.bidders[A.highestBidder].deposit */\n      0x02\n      add\n        /* \"AuctionContract.sol\":12185:12235  A.bidders[A.highestBidder].deposit = winnerDeposit */\n      dup2\n      swap1\n      sstore\n      pop\n        /* \"AuctionContract.sol\":12276:12289  sellerDeposit */\n      dup1\n        /* \"AuctionContract.sol\":12246:12247  A */\n      dup5\n        /* \"AuctionContract.sol\":12246:12255  A.bidders */\n      0x0a\n      add\n        /* \"AuctionContract.sol\":12246:12265  A.bidders[A.seller] */\n      0x00\n        /* \"AuctionContract.sol\":12256:12257  A */\n      dup7\n        /* \"AuctionContract.sol\":12256:12264  A.seller */\n      0x01\n      add\n      0x00\n      swap1\n      sload\n      swap1\n      0x0100\n      exp\n      swap1\n      div\n      0xffffffffffffffffffffffffffffffffffffffff\n      and\n        /* \"AuctionContract.sol\":12246:12265  A.bidders[A.seller] */\n      0xffffffffffffffffffffffffffffffffffffffff\n      and\n      0xffffffffffffffffffffffffffffffffffffffff\n      and\n      dup2\n      mstore\n      0x20\n      add\n      swap1\n      dup2\n      mstore\n      0x20\n      add\n      0x00\n      keccak256\n        /* \"AuctionContract.sol\":12246:12273  A.bidders[A.seller].deposit */\n      0x02\n      add\n        /* \"AuctionContract.sol\":12246:12289  A.bidders[A.seller].deposit = sellerDeposit */\n      dup2\n      swap1\n      sstore\n      pop\n        /* \"AuctionContract.sol\":12378:12379  A */\n      dup4\n        /* \"AuctionContract.sol\":12378:12394  A.settleDuration */\n      0x06\n      add\n      0x00\n      swap1\n      sload\n      swap1\n      0x0100\n      exp\n      swap1\n      div\n      0xffffffffffffffff\n      and\n        /* \"AuctionContract.sol\":12359:12374  block.timestamp */\n      timestamp\n        /* \"AuctionContract.sol\":12352:12394  uint64(block.timestamp) + A.settleDuration */\n      tag_147\n      swap2\n      swap1\n      tag_148\n      jump\t// in\n    tag_147:\n        /* \"AuctionContract.sol\":12333:12334  A */\n      dup5\n        /* \"AuctionContract.sol\":12333:12349  A.settleDeadline */\n      0x06\n      add\n      0x08\n        /* \"AuctionContract.sol\":12333:12394  A.settleDeadline = uint64(block.timestamp) + A.settleDuration */\n      0x0100\n      exp\n      dup2\n      sload\n      dup2\n      0xffffffffffffffff\n      mul\n      not\n      and\n      swap1\n      dup4\n      0xffffffffffffffff\n      and\n      mul\n      or\n      swap1\n      sstore\n      pop\n        /* \"AuctionContract.sol\":12422:12431  auctionId */\n      sload(0x01)\n        /* \"AuctionContract.sol\":12412:12493  Finalized(auctionId, A.highestBidder, A.highestBid, A.secondBid, A.clearingPrice) */\n      0x5ab4254a16d8f1486e035342f3b6736a5efdc0b79886e7525b374bb0ec9ebee1\n        /* \"AuctionContract.sol\":12433:12434  A */\n      dup6\n        /* \"AuctionContract.sol\":12433:12448  A.highestBidder */\n      0x02\n      add\n      0x00\n      swap1\n      sload\n      swap1\n      0x0100\n      exp\n      swap1\n      div\n      0xffffffffffffffffffffffffffffffffffffffff\n      and\n        /* \"AuctionContract.sol\":12450:12451  A */\n      dup7\n        /* \"AuctionContract.sol\":12450:12462  A.highestBid */\n      0x07\n      add\n      sload\n        /* \"AuctionContract.sol\":12464:12465  A */\n      dup8\n        /* \"AuctionContract.sol\":12464:12475  A.secondBid */\n      0x08\n      add\n      sload\n        /* \"AuctionContract.sol\":12477:12478  A */\n      dup9\n        /* \"AuctionContract.sol\":12477:12492  A.clearingPrice */\n      0x09\n      add\n      sload\n        /* \"AuctionContract.sol\":12412:12493  Finalized(auctionId, A.highestBidder, A.highestBid, A.secondBid, A.clearingPrice) */\n      mload(0x40)\n      tag_149\n      swap5\n      swap4\n      swap3\n      swap2\n      swap1\n      tag_150\n      jump\t// in\n    tag_149:\n      mload(0x40)\n      dup1\n      swap2\n      sub\n      swap1\n      log2\n        /* \"AuctionContract.sol\":10521:12501  {... */\n      pop\n      pop\n      pop\n      pop\n        /* \"AuctionContract.sol\":10492:12501  function finalize() external {... */\n    tag_127:\n      jump\t// out\n        /* \"AuctionContract.sol\":3857:3944  IERC721 public immutable classNFT = IERC721(0x1546Bd67237122754D3F0cB761c139f81388b210) */\n    tag_47:\n      immutable(\"0xa882a7942f9c31b62f61719affd7835f08bca3f855f990bbc994d54b51d095ca\")\n      dup2\n      jump\t// out\n        /* \"AuctionContract.sol\":8591:10319  function revealBid(uint256 amount, bytes32 salt) external {... */\n    tag_54:\n        /* \"AuctionContract.sol\":8660:8677  Auction storage A */\n      0x00\n        /* \"AuctionContract.sol\":8680:8703  _requireActiveAuction() */\n      tag_152\n        /* \"AuctionContract.sol\":8680:8701  _requireActiveAuction */\n      tag_129\n        /* \"AuctionContract.sol\":8680:8703  _requireActiveAuction() */\n      jump\t// in\n    tag_152:\n        /* \"AuctionContract.sol\":8660:8703  Auction storage A = _requireActiveAuction() */\n      swap1\n      pop\n        /* \"AuctionContract.sol\":8714:8723  uint256 t */\n      0x00\n        /* \"AuctionContract.sol\":8726:8741  block.timestamp */\n      timestamp\n        /* \"AuctionContract.sol\":8714:8741  uint256 t = block.timestamp */\n      swap1\n      pop\n        /* \"AuctionContract.sol\":8760:8761  A */\n      dup2\n        /* \"AuctionContract.sol\":8760:8771  A.commitEnd */\n      0x05\n      add\n      0x08\n      swap1\n      sload\n      swap1\n      0x0100\n      exp\n      swap1\n      div\n      0xffffffffffffffff\n      and\n        /* \"AuctionContract.sol\":8756:8771  t < A.commitEnd */\n      0xffffffffffffffff\n      and\n        /* \"AuctionContract.sol\":8756:8757  t */\n      dup2\n        /* \"AuctionContract.sol\":8756:8771  t < A.commitEnd */\n      lt\n        /* \"AuctionContract.sol\":8756:8791  t < A.commitEnd || t >= A.revealEnd */\n      dup1\n      tag_153\n      jumpi\n      pop\n        /* \"AuctionContract.sol\":8780:8781  A */\n      dup2\n        /* \"AuctionContract.sol\":8780:8791  A.revealEnd */\n      0x05\n      add\n      0x10\n      swap1\n      sload\n      swap1\n      0x0100\n      exp\n      swap1\n      div\n      0xffffffffffffffff\n      and\n        /* \"AuctionContract.sol\":8775:8791  t >= A.revealEnd */\n      0xffffffffffffffff\n      and\n        /* \"AuctionContract.sol\":8775:8776  t */\n      dup2\n        /* \"AuctionContract.sol\":8775:8791  t >= A.revealEnd */\n      lt\n      iszero\n        /* \"AuctionContract.sol\":8756:8791  t < A.commitEnd || t >= A.revealEnd */\n    tag_153:\n        /* \"AuctionContract.sol\":8752:8818  if (t < A.commitEnd || t >= A.revealEnd) revert NotInRevealPhase() */\n      iszero\n      tag_154\n      jumpi\n        /* \"AuctionContract.sol\":8800:8818  NotInRevealPhase() */\n      mload(0x40)\n      0x74683d7100000000000000000000000000000000000000000000000000000000\n      dup2\n      mstore\n      0x04\n      add\n      mload(0x40)\n      dup1\n      swap2\n      sub\n      swap1\n      revert\n        /* \"AuctionContract.sol\":8752:8818  if (t < A.commitEnd || t >= A.revealEnd) revert NotInRevealPhase() */\n    tag_154:\n        /* \"AuctionContract.sol\":8869:8870  0 */\n      0x00\n        /* \"AuctionContract.sol\":8835:8836  A */\n      dup3\n        /* \"AuctionContract.sol\":8835:8844  A.bidders */\n      0x0a\n      add\n        /* \"AuctionContract.sol\":8835:8856  A.bidders[msg.sender] */\n      0x00\n        /* \"AuctionContract.sol\":8845:8855  msg.sender */\n      caller\n        /* \"AuctionContract.sol\":8835:8856  A.bidders[msg.sender] */\n      0xffffffffffffffffffffffffffffffffffffffff\n      and\n      0xffffffffffffffffffffffffffffffffffffffff\n      and\n      dup2\n      mstore\n      0x20\n      add\n      swap1\n      dup2\n      mstore\n      0x20\n      add\n      0x00\n      keccak256\n        /* \"AuctionContract.sol\":8835:8865  A.bidders[msg.sender].revealed */\n      0x03\n      add\n      sload\n        /* \"AuctionContract.sol\":8835:8870  A.bidders[msg.sender].revealed != 0 */\n      eq\n        /* \"AuctionContract.sol\":8831:8898  if (A.bidders[msg.sender].revealed != 0) revert RevealAlreadyDone() */\n      tag_155\n      jumpi\n        /* \"AuctionContract.sol\":8879:8898  RevealAlreadyDone() */\n      mload(0x40)\n      0x157330ee00000000000000000000000000000000000000000000000000000000\n      dup2\n      mstore\n      0x04\n      add\n      mload(0x40)\n      dup1\n      swap2\n      sub\n      swap1\n      revert\n        /* \"AuctionContract.sol\":8831:8898  if (A.bidders[msg.sender].revealed != 0) revert RevealAlreadyDone() */\n    tag_155:\n        /* \"AuctionContract.sol\":8947:8956  bytes32 c */\n      0x00\n        /* \"AuctionContract.sol\":8959:8960  A */\n      dup3\n        /* \"AuctionContract.sol\":8959:8968  A.bidders */\n      0x0a\n      add\n        /* \"AuctionContract.sol\":8959:8980  A.bidders[msg.sender] */\n      0x00\n        /* \"AuctionContract.sol\":8969:8979  msg.sender */\n      caller\n        /* \"AuctionContract.sol\":8959:8980  A.bidders[msg.sender] */\n      0xffffffffffffffffffffffffffffffffffffffff\n      and\n      0xffffffffffffffffffffffffffffffffffffffff\n      and\n      dup2\n      mstore\n      0x20\n      add\n      swap1\n      dup2\n      mstore\n      0x20\n      add\n      0x00\n      keccak256\n        /* \"AuctionContract.sol\":8959:8991  A.bidders[msg.sender].commitment */\n      0x00\n      add\n      sload\n        /* \"AuctionContract.sol\":8947:8991  bytes32 c = A.bidders[msg.sender].commitment */\n      swap1\n      pop\n        /* \"AuctionContract.sol\":9019:9020  0 */\n      0x00\n        /* \"AuctionContract.sol\":9011:9021  bytes32(0) */\n      0x00\n      shl\n        /* \"AuctionContract.sol\":9006:9007  c */\n      dup2\n        /* \"AuctionContract.sol\":9006:9021  c == bytes32(0) */\n      sub\n        /* \"AuctionContract.sol\":9002:9049  if (c == bytes32(0)) revert InvalidCommitment() */\n      tag_156\n      jumpi\n        /* \"AuctionContract.sol\":9030:9049  InvalidCommitment() */\n      mload(0x40)\n      0xc06789fa00000000000000000000000000000000000000000000000000000000\n      dup2\n      mstore\n      0x04\n      add\n      mload(0x40)\n      dup1\n      swap2\n      sub\n      swap1\n      revert\n        /* \"AuctionContract.sol\":9002:9049  if (c == bytes32(0)) revert InvalidCommitment() */\n    tag_156:\n        /* \"AuctionContract.sol\":9109:9110  c */\n      dup1\n        /* \"AuctionContract.sol\":9091:9097  amount */\n      dup6\n        /* \"AuctionContract.sol\":9099:9103  salt */\n      dup6\n        /* \"AuctionContract.sol\":9074:9104  abi.encodePacked(amount, salt) */\n      add(0x20, mload(0x40))\n      tag_157\n      swap3\n      swap2\n      swap1\n      tag_158\n      jump\t// in\n    tag_157:\n      mload(0x40)\n      0x20\n      dup2\n      dup4\n      sub\n      sub\n      dup2\n      mstore\n      swap1\n      0x40\n      mstore\n        /* \"AuctionContract.sol\":9064:9105  keccak256(abi.encodePacked(amount, salt)) */\n      dup1\n      mload\n      swap1\n      0x20\n      add\n      keccak256\n        /* \"AuctionContract.sol\":9064:9110  keccak256(abi.encodePacked(amount, salt)) != c */\n      eq\n        /* \"AuctionContract.sol\":9060:9138  if (keccak256(abi.encodePacked(amount, salt)) != c) revert InvalidCommitment() */\n      tag_159\n      jumpi\n        /* \"AuctionContract.sol\":9119:9138  InvalidCommitment() */\n      mload(0x40)\n      0xc06789fa00000000000000000000000000000000000000000000000000000000\n      dup2\n      mstore\n      0x04\n      add\n      mload(0x40)\n      dup1\n      swap2\n      sub\n      swap1\n      revert\n        /* \"AuctionContract.sol\":9060:9138  if (keccak256(abi.encodePacked(amount, salt)) != c) revert InvalidCommitment() */\n    tag_159:\n        /* \"AuctionContract.sol\":9249:9255  amount */\n      dup5\n        /* \"AuctionContract.sol\":9216:9217  A */\n      dup4\n        /* \"AuctionContract.sol\":9216:9225  A.bidders */\n      0x0a\n      add\n        /* \"AuctionContract.sol\":9216:9237  A.bidders[msg.sender] */\n      0x00\n        /* \"AuctionContract.sol\":9226:9236  msg.sender */\n      caller\n        /* \"AuctionContract.sol\":9216:9237  A.bidders[msg.sender] */\n      0xffffffffffffffffffffffffffffffffffffffff\n      and\n      0xffffffffffffffffffffffffffffffffffffffff\n      and\n      dup2\n      mstore\n      0x20\n      add\n      swap1\n      dup2\n      mstore\n      0x20\n      add\n      0x00\n      keccak256\n        /* \"AuctionContract.sol\":9216:9246  A.bidders[msg.sender].revealed */\n      0x03\n      add\n        /* \"AuctionContract.sol\":9216:9255  A.bidders[msg.sender].revealed = amount */\n      dup2\n      swap1\n      sstore\n      pop\n        /* \"AuctionContract.sol\":9326:9327  A */\n      dup3\n        /* \"AuctionContract.sol\":9326:9340  A.reservePrice */\n      0x03\n      add\n      sload\n        /* \"AuctionContract.sol\":9317:9323  amount */\n      dup6\n        /* \"AuctionContract.sol\":9317:9340  amount < A.reservePrice */\n      lt\n        /* \"AuctionContract.sol\":9313:9371  if (amount < A.reservePrice) revert InvalidRevealedPrice() */\n      iszero\n      tag_160\n      jumpi\n        /* \"AuctionContract.sol\":9349:9371  InvalidRevealedPrice() */\n      mload(0x40)\n      0x6b317d5600000000000000000000000000000000000000000000000000000000\n      dup2\n      mstore\n      0x04\n      add\n      mload(0x40)\n      dup1\n      swap2\n      sub\n      swap1\n      revert\n        /* \"AuctionContract.sol\":9313:9371  if (amount < A.reservePrice) revert InvalidRevealedPrice() */\n    tag_160:\n        /* \"AuctionContract.sol\":9611:9612  A */\n      dup3\n        /* \"AuctionContract.sol\":9611:9623  A.highestBid */\n      0x07\n      add\n      sload\n        /* \"AuctionContract.sol\":9602:9608  amount */\n      dup6\n        /* \"AuctionContract.sol\":9602:9623  amount > A.highestBid */\n      gt\n        /* \"AuctionContract.sol\":9598:10254  if (amount > A.highestBid) {... */\n      iszero\n      tag_161\n      jumpi\n        /* \"AuctionContract.sol\":9726:9727  0 */\n      0x00\n        /* \"AuctionContract.sol\":9699:9728  A.highestBidder != address(0) */\n      0xffffffffffffffffffffffffffffffffffffffff\n      and\n        /* \"AuctionContract.sol\":9699:9700  A */\n      dup4\n        /* \"AuctionContract.sol\":9699:9714  A.highestBidder */\n      0x02\n      add\n      0x00\n      swap1\n      sload\n      swap1\n      0x0100\n      exp\n      swap1\n      div\n      0xffffffffffffffffffffffffffffffffffffffff\n      and\n        /* \"AuctionContract.sol\":9699:9728  A.highestBidder != address(0) */\n      0xffffffffffffffffffffffffffffffffffffffff\n      and\n      eq\n        /* \"AuctionContract.sol\":9695:9791  if (A.highestBidder != address(0)) {... */\n      tag_162\n      jumpi\n        /* \"AuctionContract.sol\":9763:9764  A */\n      dup3\n        /* \"AuctionContract.sol\":9763:9775  A.highestBid */\n      0x07\n      add\n      sload\n        /* \"AuctionContract.sol\":9749:9750  A */\n      dup4\n        /* \"AuctionContract.sol\":9749:9760  A.secondBid */\n      0x08\n      add\n        /* \"AuctionContract.sol\":9749:9775  A.secondBid = A.highestBid */\n      dup2\n      swap1\n      sstore\n      pop\n        /* \"AuctionContract.sol\":9695:9791  if (A.highestBidder != address(0)) {... */\n    tag_162:\n        /* \"AuctionContract.sol\":9820:9826  amount */\n      dup5\n        /* \"AuctionContract.sol\":9805:9806  A */\n      dup4\n        /* \"AuctionContract.sol\":9805:9817  A.highestBid */\n      0x07\n      add\n        /* \"AuctionContract.sol\":9805:9826  A.highestBid = amount */\n      dup2\n      swap1\n      sstore\n      pop\n        /* \"AuctionContract.sol\":9859:9869  msg.sender */\n      caller\n        /* \"AuctionContract.sol\":9841:9842  A */\n      dup4\n        /* \"AuctionContract.sol\":9841:9856  A.highestBidder */\n      0x02\n      add\n      0x00\n        /* \"AuctionContract.sol\":9841:9869  A.highestBidder = msg.sender */\n      0x0100\n      exp\n      dup2\n      sload\n      dup2\n      0xffffffffffffffffffffffffffffffffffffffff\n      mul\n      not\n      and\n      swap1\n      dup4\n      0xffffffffffffffffffffffffffffffffffffffff\n      and\n      mul\n      or\n      swap1\n      sstore\n      pop\n        /* \"AuctionContract.sol\":9598:10254  if (amount > A.highestBid) {... */\n      jump(tag_163)\n    tag_161:\n        /* \"AuctionContract.sol\":9901:9902  A */\n      dup3\n        /* \"AuctionContract.sol\":9901:9913  A.highestBid */\n      0x07\n      add\n      sload\n        /* \"AuctionContract.sol\":9891:9897  amount */\n      dup6\n        /* \"AuctionContract.sol\":9891:9913  amount == A.highestBid */\n      eq\n        /* \"AuctionContract.sol\":9891:9987  amount == A.highestBid && A.bidders[msg.sender].commitSeq < A.bidders[A.highestBidder].commitSeq */\n      dup1\n      iszero\n      tag_164\n      jumpi\n      pop\n        /* \"AuctionContract.sol\":9951:9952  A */\n      dup3\n        /* \"AuctionContract.sol\":9951:9960  A.bidders */\n      0x0a\n      add\n        /* \"AuctionContract.sol\":9951:9977  A.bidders[A.highestBidder] */\n      0x00\n        /* \"AuctionContract.sol\":9961:9962  A */\n      dup5\n        /* \"AuctionContract.sol\":9961:9976  A.highestBidder */\n      0x02\n      add\n      0x00\n      swap1\n      sload\n      swap1\n      0x0100\n      exp\n      swap1\n      div\n      0xffffffffffffffffffffffffffffffffffffffff\n      and\n        /* \"AuctionContract.sol\":9951:9977  A.bidders[A.highestBidder] */\n      0xffffffffffffffffffffffffffffffffffffffff\n      and\n      0xffffffffffffffffffffffffffffffffffffffff\n      and\n      dup2\n      mstore\n      0x20\n      add\n      swap1\n      dup2\n      mstore\n      0x20\n      add\n      0x00\n      keccak256\n        /* \"AuctionContract.sol\":9951:9987  A.bidders[A.highestBidder].commitSeq */\n      0x01\n      add\n      0x00\n      swap1\n      sload\n      swap1\n      0x0100\n      exp\n      swap1\n      div\n      0xffffffffffffffff\n      and\n        /* \"AuctionContract.sol\":9917:9987  A.bidders[msg.sender].commitSeq < A.bidders[A.highestBidder].commitSeq */\n      0xffffffffffffffff\n      and\n        /* \"AuctionContract.sol\":9917:9918  A */\n      dup4\n        /* \"AuctionContract.sol\":9917:9926  A.bidders */\n      0x0a\n      add\n        /* \"AuctionContract.sol\":9917:9938  A.bidders[msg.sender] */\n      0x00\n        /* \"AuctionContract.sol\":9927:9937  msg.sender */\n      caller\n        /* \"AuctionContract.sol\":9917:9938  A.bidders[msg.sender] */\n      0xffffffffffffffffffffffffffffffffffffffff\n      and\n      0xffffffffffffffffffffffffffffffffffffffff\n      and\n      dup2\n      mstore\n      0x20\n      add\n      swap1\n      dup2\n      mstore\n      0x20\n      add\n      0x00\n      keccak256\n        /* \"AuctionContract.sol\":9917:9948  A.bidders[msg.sender].commitSeq */\n      0x01\n      add\n      0x00\n      swap1\n      sload\n      swap1\n      0x0100\n      exp\n      swap1\n      div\n      0xffffffffffffffff\n      and\n        /* \"AuctionContract.sol\":9917:9987  A.bidders[msg.sender].commitSeq < A.bidders[A.highestBidder].commitSeq */\n      0xffffffffffffffff\n      and\n      lt\n        /* \"AuctionContract.sol\":9891:9987  amount == A.highestBid && A.bidders[msg.sender].commitSeq < A.bidders[A.highestBidder].commitSeq */\n    tag_164:\n        /* \"AuctionContract.sol\":9887:10254  if (amount == A.highestBid && A.bidders[msg.sender].commitSeq < A.bidders[A.highestBidder].commitSeq) {... */\n      iszero\n      tag_165\n      jumpi\n        /* \"AuctionContract.sol\":10073:10079  amount */\n      dup5\n        /* \"AuctionContract.sol\":10058:10059  A */\n      dup4\n        /* \"AuctionContract.sol\":10058:10070  A.highestBid */\n      0x07\n      add\n        /* \"AuctionContract.sol\":10058:10079  A.highestBid = amount */\n      dup2\n      swap1\n      sstore\n      pop\n        /* \"AuctionContract.sol\":10112:10122  msg.sender */\n      caller\n        /* \"AuctionContract.sol\":10094:10095  A */\n      dup4\n        /* \"AuctionContract.sol\":10094:10109  A.highestBidder */\n      0x02\n      add\n      0x00\n        /* \"AuctionContract.sol\":10094:10122  A.highestBidder = msg.sender */\n      0x0100\n      exp\n      dup2\n      sload\n      dup2\n      0xffffffffffffffffffffffffffffffffffffffff\n      mul\n      not\n      and\n      swap1\n      dup4\n      0xffffffffffffffffffffffffffffffffffffffff\n      and\n      mul\n      or\n      swap1\n      sstore\n      pop\n        /* \"AuctionContract.sol\":9887:10254  if (amount == A.highestBid && A.bidders[msg.sender].commitSeq < A.bidders[A.highestBidder].commitSeq) {... */\n      jump(tag_166)\n    tag_165:\n        /* \"AuctionContract.sol\":10153:10154  A */\n      dup3\n        /* \"AuctionContract.sol\":10153:10164  A.secondBid */\n      0x08\n      add\n      sload\n        /* \"AuctionContract.sol\":10144:10150  amount */\n      dup6\n        /* \"AuctionContract.sol\":10144:10164  amount > A.secondBid */\n      gt\n        /* \"AuctionContract.sol\":10140:10254  if (amount > A.secondBid) {... */\n      iszero\n      tag_167\n      jumpi\n        /* \"AuctionContract.sol\":10236:10242  amount */\n      dup5\n        /* \"AuctionContract.sol\":10222:10223  A */\n      dup4\n        /* \"AuctionContract.sol\":10222:10233  A.secondBid */\n      0x08\n      add\n        /* \"AuctionContract.sol\":10222:10242  A.secondBid = amount */\n      dup2\n      swap1\n      sstore\n      pop\n        /* \"AuctionContract.sol\":10140:10254  if (amount > A.secondBid) {... */\n    tag_167:\n        /* \"AuctionContract.sol\":9887:10254  if (amount == A.highestBid && A.bidders[msg.sender].commitSeq < A.bidders[A.highestBidder].commitSeq) {... */\n    tag_166:\n        /* \"AuctionContract.sol\":9598:10254  if (amount > A.highestBid) {... */\n    tag_163:\n        /* \"AuctionContract.sol\":10292:10302  msg.sender */\n      caller\n        /* \"AuctionContract.sol\":10269:10311  BidRevealed(auctionId, msg.sender, amount) */\n      0xffffffffffffffffffffffffffffffffffffffff\n      and\n        /* \"AuctionContract.sol\":10281:10290  auctionId */\n      sload(0x01)\n        /* \"AuctionContract.sol\":10269:10311  BidRevealed(auctionId, msg.sender, amount) */\n      0x86d2fbc9069d34216ebc65b38ce840528d3f8cac0c86d2aaa7ab6a9db8bc35d3\n        /* \"AuctionContract.sol\":10304:10310  amount */\n      dup8\n        /* \"AuctionContract.sol\":10269:10311  BidRevealed(auctionId, msg.sender, amount) */\n      mload(0x40)\n      tag_168\n      swap2\n      swap1\n      tag_30\n      jump\t// in\n    tag_168:\n      mload(0x40)\n      dup1\n      swap2\n      sub\n      swap1\n      log3\n        /* \"AuctionContract.sol\":8649:10319  {... */\n      pop\n      pop\n      pop\n        /* \"AuctionContract.sol\":8591:10319  function revealBid(uint256 amount, bytes32 salt) external {... */\n      pop\n      pop\n      jump\t// out\n        /* \"AuctionContract.sol\":18744:19123  function getWinnerInfo(uint256 id) external view returns (address winner, uint256 price, uint64 payDeadline) {... */\n    tag_59:\n        /* \"AuctionContract.sol\":18802:18816  address winner */\n      0x00\n        /* \"AuctionContract.sol\":18818:18831  uint256 price */\n      0x00\n        /* \"AuctionContract.sol\":18833:18851  uint64 payDeadline */\n      0x00\n        /* \"AuctionContract.sol\":18864:18881  Auction storage A */\n      0x00\n        /* \"AuctionContract.sol\":18884:18903  _requireAuction(id) */\n      tag_170\n        /* \"AuctionContract.sol\":18900:18902  id */\n      dup6\n        /* \"AuctionContract.sol\":18884:18899  _requireAuction */\n      tag_171\n        /* \"AuctionContract.sol\":18884:18903  _requireAuction(id) */\n      jump\t// in\n    tag_170:\n        /* \"AuctionContract.sol\":18864:18903  Auction storage A = _requireAuction(id) */\n      swap1\n      pop\n        /* \"AuctionContract.sol\":19064:19065  A */\n      dup1\n        /* \"AuctionContract.sol\":19064:19079  A.highestBidder */\n      0x02\n      add\n      0x00\n      swap1\n      sload\n      swap1\n      0x0100\n      exp\n      swap1\n      div\n      0xffffffffffffffffffffffffffffffffffffffff\n      and\n        /* \"AuctionContract.sol\":19081:19082  A */\n      dup2\n        /* \"AuctionContract.sol\":19081:19096  A.clearingPrice */\n      0x09\n      add\n      sload\n        /* \"AuctionContract.sol\":19098:19099  A */\n      dup3\n        /* \"AuctionContract.sol\":19098:19114  A.settleDeadline */\n      0x06\n      add\n      0x08\n      swap1\n      sload\n      swap1\n      0x0100\n      exp\n      swap1\n      div\n      0xffffffffffffffff\n      and\n        /* \"AuctionContract.sol\":19056:19115  return (A.highestBidder, A.clearingPrice, A.settleDeadline) */\n      swap4\n      pop\n      swap4\n      pop\n      swap4\n      pop\n      pop\n        /* \"AuctionContract.sol\":18744:19123  function getWinnerInfo(uint256 id) external view returns (address winner, uint256 price, uint64 payDeadline) {... */\n      swap2\n      swap4\n      swap1\n      swap3\n      pop\n      jump\t// out\n        /* \"AuctionContract.sol\":15911:16385  function withdrawDeposits(uint256 id) external nonReentrant{... */\n    tag_65:\n        /* \"AuctionContract.sol\":1876:1877  2 */\n      0x02\n        /* \"AuctionContract.sol\":1972:1979  _status */\n      sload(0x00)\n        /* \"AuctionContract.sol\":1972:1991  _status != _ENTERED */\n      sub\n        /* \"AuctionContract.sol\":1964:2006  require(_status != _ENTERED, \"REENTRANCY\") */\n      tag_173\n      jumpi\n      mload(0x40)\n      0x08c379a000000000000000000000000000000000000000000000000000000000\n      dup2\n      mstore\n      0x04\n      add\n      tag_174\n      swap1\n      tag_175\n      jump\t// in\n    tag_174:\n      mload(0x40)\n      dup1\n      swap2\n      sub\n      swap1\n      revert\n    tag_173:\n        /* \"AuctionContract.sol\":1876:1877  2 */\n      0x02\n        /* \"AuctionContract.sol\":2017:2024  _status */\n      0x00\n        /* \"AuctionContract.sol\":2017:2035  _status = _ENTERED */\n      dup2\n      swap1\n      sstore\n      pop\n        /* \"AuctionContract.sol\":15981:15998  Auction storage A */\n      0x00\n        /* \"AuctionContract.sol\":16001:16020  _requireAuction(id) */\n      tag_177\n        /* \"AuctionContract.sol\":16017:16019  id */\n      dup3\n        /* \"AuctionContract.sol\":16001:16016  _requireAuction */\n      tag_171\n        /* \"AuctionContract.sol\":16001:16020  _requireAuction(id) */\n      jump\t// in\n    tag_177:\n        /* \"AuctionContract.sol\":15981:16020  Auction storage A = _requireAuction(id) */\n      swap1\n      pop\n        /* \"AuctionContract.sol\":16036:16037  A */\n      dup1\n        /* \"AuctionContract.sol\":16036:16047  A.finalized */\n      0x02\n      add\n      0x14\n      swap1\n      sload\n      swap1\n      0x0100\n      exp\n      swap1\n      div\n      0xff\n      and\n        /* \"AuctionContract.sol\":16031:16066  if (!A.finalized) revert NotEnded() */\n      tag_178\n      jumpi\n        /* \"AuctionContract.sol\":16056:16066  NotEnded() */\n      mload(0x40)\n      0xd3018d1800000000000000000000000000000000000000000000000000000000\n      dup2\n      mstore\n      0x04\n      add\n      mload(0x40)\n      dup1\n      swap2\n      sub\n      swap1\n      revert\n        /* \"AuctionContract.sol\":16031:16066  if (!A.finalized) revert NotEnded() */\n    tag_178:\n        /* \"AuctionContract.sol\":16079:16093  uint256 amount */\n      0x00\n        /* \"AuctionContract.sol\":16096:16097  A */\n      dup2\n        /* \"AuctionContract.sol\":16096:16105  A.bidders */\n      0x0a\n      add\n        /* \"AuctionContract.sol\":16096:16117  A.bidders[msg.sender] */\n      0x00\n        /* \"AuctionContract.sol\":16106:16116  msg.sender */\n      caller\n        /* \"AuctionContract.sol\":16096:16117  A.bidders[msg.sender] */\n      0xffffffffffffffffffffffffffffffffffffffff\n      and\n      0xffffffffffffffffffffffffffffffffffffffff\n      and\n      dup2\n      mstore\n      0x20\n      add\n      swap1\n      dup2\n      mstore\n      0x20\n      add\n      0x00\n      keccak256\n        /* \"AuctionContract.sol\":16096:16125  A.bidders[msg.sender].deposit */\n      0x02\n      add\n      sload\n        /* \"AuctionContract.sol\":16079:16125  uint256 amount = A.bidders[msg.sender].deposit */\n      swap1\n      pop\n        /* \"AuctionContract.sol\":16150:16151  0 */\n      0x00\n        /* \"AuctionContract.sol\":16140:16146  amount */\n      dup2\n        /* \"AuctionContract.sol\":16140:16151  amount == 0 */\n      sub\n        /* \"AuctionContract.sol\":16136:16171  if (amount == 0) revert NoDeposit() */\n      tag_179\n      jumpi\n        /* \"AuctionContract.sol\":16160:16171  NoDeposit() */\n      mload(0x40)\n      0x3a6a68b100000000000000000000000000000000000000000000000000000000\n      dup2\n      mstore\n      0x04\n      add\n      mload(0x40)\n      dup1\n      swap2\n      sub\n      swap1\n      revert\n        /* \"AuctionContract.sol\":16136:16171  if (amount == 0) revert NoDeposit() */\n    tag_179:\n        /* \"AuctionContract.sol\":16216:16217  0 */\n      0x00\n        /* \"AuctionContract.sol\":16184:16185  A */\n      dup3\n        /* \"AuctionContract.sol\":16184:16193  A.bidders */\n      0x0a\n      add\n        /* \"AuctionContract.sol\":16184:16205  A.bidders[msg.sender] */\n      0x00\n        /* \"AuctionContract.sol\":16194:16204  msg.sender */\n      caller\n        /* \"AuctionContract.sol\":16184:16205  A.bidders[msg.sender] */\n      0xffffffffffffffffffffffffffffffffffffffff\n      and\n      0xffffffffffffffffffffffffffffffffffffffff\n      and\n      dup2\n      mstore\n      0x20\n      add\n      swap1\n      dup2\n      mstore\n      0x20\n      add\n      0x00\n      keccak256\n        /* \"AuctionContract.sol\":16184:16213  A.bidders[msg.sender].deposit */\n      0x02\n      add\n        /* \"AuctionContract.sol\":16184:16217  A.bidders[msg.sender].deposit = 0 */\n      dup2\n      swap1\n      sstore\n      pop\n        /* \"AuctionContract.sol\":16229:16236  bool ok */\n      0x00\n        /* \"AuctionContract.sol\":16242:16252  msg.sender */\n      caller\n        /* \"AuctionContract.sol\":16242:16257  msg.sender.call */\n      0xffffffffffffffffffffffffffffffffffffffff\n      and\n        /* \"AuctionContract.sol\":16265:16271  amount */\n      dup3\n        /* \"AuctionContract.sol\":16242:16276  msg.sender.call{value: amount}(\"\") */\n      mload(0x40)\n      tag_180\n      swap1\n      tag_181\n      jump\t// in\n    tag_180:\n      0x00\n      mload(0x40)\n      dup1\n      dup4\n      sub\n      dup2\n      dup6\n      dup8\n      gas\n      call\n      swap3\n      pop\n      pop\n      pop\n      returndatasize\n      dup1\n      0x00\n      dup2\n      eq\n      tag_184\n      jumpi\n      mload(0x40)\n      swap2\n      pop\n      and(add(returndatasize, 0x3f), not(0x1f))\n      dup3\n      add\n      0x40\n      mstore\n      returndatasize\n      dup3\n      mstore\n      returndatasize\n      0x00\n      0x20\n      dup5\n      add\n      returndatacopy\n      jump(tag_183)\n    tag_184:\n      0x60\n      swap2\n      pop\n    tag_183:\n      pop\n        /* \"AuctionContract.sol\":16228:16276  (bool ok, ) = msg.sender.call{value: amount}(\"\") */\n      pop\n      swap1\n      pop\n        /* \"AuctionContract.sol\":16291:16293  ok */\n      dup1\n        /* \"AuctionContract.sol\":16287:16319  if(!ok)  revert WithdrawFailed() */\n      tag_185\n      jumpi\n        /* \"AuctionContract.sol\":16303:16319  WithdrawFailed() */\n      mload(0x40)\n      0x750b219c00000000000000000000000000000000000000000000000000000000\n      dup2\n      mstore\n      0x04\n      add\n      mload(0x40)\n      dup1\n      swap2\n      sub\n      swap1\n      revert\n        /* \"AuctionContract.sol\":16287:16319  if(!ok)  revert WithdrawFailed() */\n    tag_185:\n        /* \"AuctionContract.sol\":16366:16376  msg.sender */\n      caller\n        /* \"AuctionContract.sol\":16345:16377  WithDrawnDeposit(id, msg.sender) */\n      0xffffffffffffffffffffffffffffffffffffffff\n      and\n        /* \"AuctionContract.sol\":16362:16364  id */\n      dup5\n        /* \"AuctionContract.sol\":16345:16377  WithDrawnDeposit(id, msg.sender) */\n      0x47f74a265269aa6e5423fbcd9a74b3c8771a0c3a9c7cdfb7ebe375b288c06b4e\n      mload(0x40)\n      mload(0x40)\n      dup1\n      swap2\n      sub\n      swap1\n      log3\n        /* \"AuctionContract.sol\":15970:16385  {... */\n      pop\n      pop\n      pop\n        /* \"AuctionContract.sol\":1832:1833  1 */\n      0x01\n        /* \"AuctionContract.sol\":2058:2065  _status */\n      0x00\n        /* \"AuctionContract.sol\":2058:2080  _status = _NOT_ENTERED */\n      dup2\n      swap1\n      sstore\n      pop\n        /* \"AuctionContract.sol\":15911:16385  function withdrawDeposits(uint256 id) external nonReentrant{... */\n      pop\n      jump\t// out\n        /* \"AuctionContract.sol\":15428:15903  function withdrawDeposits() external nonReentrant{... */\n    tag_68:\n        /* \"AuctionContract.sol\":1876:1877  2 */\n      0x02\n        /* \"AuctionContract.sol\":1972:1979  _status */\n      sload(0x00)\n        /* \"AuctionContract.sol\":1972:1991  _status != _ENTERED */\n      sub\n        /* \"AuctionContract.sol\":1964:2006  require(_status != _ENTERED, \"REENTRANCY\") */\n      tag_187\n      jumpi\n      mload(0x40)\n      0x08c379a000000000000000000000000000000000000000000000000000000000\n      dup2\n      mstore\n      0x04\n      add\n      tag_188\n      swap1\n      tag_175\n      jump\t// in\n    tag_188:\n      mload(0x40)\n      dup1\n      swap2\n      sub\n      swap1\n      revert\n    tag_187:\n        /* \"AuctionContract.sol\":1876:1877  2 */\n      0x02\n        /* \"AuctionContract.sol\":2017:2024  _status */\n      0x00\n        /* \"AuctionContract.sol\":2017:2035  _status = _ENTERED */\n      dup2\n      swap1\n      sstore\n      pop\n        /* \"AuctionContract.sol\":15488:15505  Auction storage A */\n      0x00\n        /* \"AuctionContract.sol\":15508:15531  _requireActiveAuction() */\n      tag_190\n        /* \"AuctionContract.sol\":15508:15529  _requireActiveAuction */\n      tag_129\n        /* \"AuctionContract.sol\":15508:15531  _requireActiveAuction() */\n      jump\t// in\n    tag_190:\n        /* \"AuctionContract.sol\":15488:15531  Auction storage A = _requireActiveAuction() */\n      swap1\n      pop\n        /* \"AuctionContract.sol\":15547:15548  A */\n      dup1\n        /* \"AuctionContract.sol\":15547:15558  A.finalized */\n      0x02\n      add\n      0x14\n      swap1\n      sload\n      swap1\n      0x0100\n      exp\n      swap1\n      div\n      0xff\n      and\n        /* \"AuctionContract.sol\":15542:15577  if (!A.finalized) revert NotEnded() */\n      tag_191\n      jumpi\n        /* \"AuctionContract.sol\":15567:15577  NotEnded() */\n      mload(0x40)\n      0xd3018d1800000000000000000000000000000000000000000000000000000000\n      dup2\n      mstore\n      0x04\n      add\n      mload(0x40)\n      dup1\n      swap2\n      sub\n      swap1\n      revert\n        /* \"AuctionContract.sol\":15542:15577  if (!A.finalized) revert NotEnded() */\n    tag_191:\n        /* \"AuctionContract.sol\":15590:15604  uint256 amount */\n      0x00\n        /* \"AuctionContract.sol\":15607:15608  A */\n      dup2\n        /* \"AuctionContract.sol\":15607:15616  A.bidders */\n      0x0a\n      add\n        /* \"AuctionContract.sol\":15607:15628  A.bidders[msg.sender] */\n      0x00\n        /* \"AuctionContract.sol\":15617:15627  msg.sender */\n      caller\n        /* \"AuctionContract.sol\":15607:15628  A.bidders[msg.sender] */\n      0xffffffffffffffffffffffffffffffffffffffff\n      and\n      0xffffffffffffffffffffffffffffffffffffffff\n      and\n      dup2\n      mstore\n      0x20\n      add\n      swap1\n      dup2\n      mstore\n      0x20\n      add\n      0x00\n      keccak256\n        /* \"AuctionContract.sol\":15607:15636  A.bidders[msg.sender].deposit */\n      0x02\n      add\n      sload\n        /* \"AuctionContract.sol\":15590:15636  uint256 amount = A.bidders[msg.sender].deposit */\n      swap1\n      pop\n        /* \"AuctionContract.sol\":15661:15662  0 */\n      0x00\n        /* \"AuctionContract.sol\":15651:15657  amount */\n      dup2\n        /* \"AuctionContract.sol\":15651:15662  amount == 0 */\n      sub\n        /* \"AuctionContract.sol\":15647:15682  if (amount == 0) revert NoDeposit() */\n      tag_192\n      jumpi\n        /* \"AuctionContract.sol\":15671:15682  NoDeposit() */\n      mload(0x40)\n      0x3a6a68b100000000000000000000000000000000000000000000000000000000\n      dup2\n      mstore\n      0x04\n      add\n      mload(0x40)\n      dup1\n      swap2\n      sub\n      swap1\n      revert\n        /* \"AuctionContract.sol\":15647:15682  if (amount == 0) revert NoDeposit() */\n    tag_192:\n        /* \"AuctionContract.sol\":15727:15728  0 */\n      0x00\n        /* \"AuctionContract.sol\":15695:15696  A */\n      dup3\n        /* \"AuctionContract.sol\":15695:15704  A.bidders */\n      0x0a\n      add\n        /* \"AuctionContract.sol\":15695:15716  A.bidders[msg.sender] */\n      0x00\n        /* \"AuctionContract.sol\":15705:15715  msg.sender */\n      caller\n        /* \"AuctionContract.sol\":15695:15716  A.bidders[msg.sender] */\n      0xffffffffffffffffffffffffffffffffffffffff\n      and\n      0xffffffffffffffffffffffffffffffffffffffff\n      and\n      dup2\n      mstore\n      0x20\n      add\n      swap1\n      dup2\n      mstore\n      0x20\n      add\n      0x00\n      keccak256\n        /* \"AuctionContract.sol\":15695:15724  A.bidders[msg.sender].deposit */\n      0x02\n      add\n        /* \"AuctionContract.sol\":15695:15728  A.bidders[msg.sender].deposit = 0 */\n      dup2\n      swap1\n      sstore\n      pop\n        /* \"AuctionContract.sol\":15740:15747  bool ok */\n      0x00\n        /* \"AuctionContract.sol\":15753:15763  msg.sender */\n      caller\n        /* \"AuctionContract.sol\":15753:15768  msg.sender.call */\n      0xffffffffffffffffffffffffffffffffffffffff\n      and\n        /* \"AuctionContract.sol\":15776:15782  amount */\n      dup3\n        /* \"AuctionContract.sol\":15753:15787  msg.sender.call{value: amount}(\"\") */\n      mload(0x40)\n      tag_193\n      swap1\n      tag_181\n      jump\t// in\n    tag_193:\n      0x00\n      mload(0x40)\n      dup1\n      dup4\n      sub\n      dup2\n      dup6\n      dup8\n      gas\n      call\n      swap3\n      pop\n      pop\n      pop\n      returndatasize\n      dup1\n      0x00\n      dup2\n      eq\n      tag_196\n      jumpi\n      mload(0x40)\n      swap2\n      pop\n      and(add(returndatasize, 0x3f), not(0x1f))\n      dup3\n      add\n      0x40\n      mstore\n      returndatasize\n      dup3\n      mstore\n      returndatasize\n      0x00\n      0x20\n      dup5\n      add\n      returndatacopy\n      jump(tag_195)\n    tag_196:\n      0x60\n      swap2\n      pop\n    tag_195:\n      pop\n        /* \"AuctionContract.sol\":15739:15787  (bool ok, ) = msg.sender.call{value: amount}(\"\") */\n      pop\n      swap1\n      pop\n        /* \"AuctionContract.sol\":15802:15804  ok */\n      dup1\n        /* \"AuctionContract.sol\":15798:15830  if(!ok)  revert WithdrawFailed() */\n      tag_197\n      jumpi\n        /* \"AuctionContract.sol\":15814:15830  WithdrawFailed() */\n      mload(0x40)\n      0x750b219c00000000000000000000000000000000000000000000000000000000\n      dup2\n      mstore\n      0x04\n      add\n      mload(0x40)\n      dup1\n      swap2\n      sub\n      swap1\n      revert\n        /* \"AuctionContract.sol\":15798:15830  if(!ok)  revert WithdrawFailed() */\n    tag_197:\n        /* \"AuctionContract.sol\":15884:15894  msg.sender */\n      caller\n        /* \"AuctionContract.sol\":15856:15895  WithDrawnDeposit(auctionId, msg.sender) */\n      0xffffffffffffffffffffffffffffffffffffffff\n      and\n        /* \"AuctionContract.sol\":15873:15882  auctionId */\n      sload(0x01)\n        /* \"AuctionContract.sol\":15856:15895  WithDrawnDeposit(auctionId, msg.sender) */\n      0x47f74a265269aa6e5423fbcd9a74b3c8771a0c3a9c7cdfb7ebe375b288c06b4e\n      mload(0x40)\n      mload(0x40)\n      dup1\n      swap2\n      sub\n      swap1\n      log3\n        /* \"AuctionContract.sol\":15477:15903  {... */\n      pop\n      pop\n      pop\n        /* \"AuctionContract.sol\":1832:1833  1 */\n      0x01\n        /* \"AuctionContract.sol\":2058:2065  _status */\n      0x00\n        /* \"AuctionContract.sol\":2058:2080  _status = _NOT_ENTERED */\n      dup2\n      swap1\n      sstore\n      pop\n        /* \"AuctionContract.sol\":15428:15903  function withdrawDeposits() external nonReentrant{... */\n      jump\t// out\n        /* \"AuctionContract.sol\":18029:18218  function getRevealedAmount(uint256 id, address bidder) external view returns (uint256) {... */\n    tag_73:\n        /* \"AuctionContract.sol\":18107:18114  uint256 */\n      0x00\n        /* \"AuctionContract.sol\":18127:18144  Auction storage A */\n      0x00\n        /* \"AuctionContract.sol\":18147:18166  _requireAuction(id) */\n      tag_199\n        /* \"AuctionContract.sol\":18163:18165  id */\n      dup5\n        /* \"AuctionContract.sol\":18147:18162  _requireAuction */\n      tag_171\n        /* \"AuctionContract.sol\":18147:18166  _requireAuction(id) */\n      jump\t// in\n    tag_199:\n        /* \"AuctionContract.sol\":18127:18166  Auction storage A = _requireAuction(id) */\n      swap1\n      pop\n        /* \"AuctionContract.sol\":18184:18185  A */\n      dup1\n        /* \"AuctionContract.sol\":18184:18193  A.bidders */\n      0x0a\n      add\n        /* \"AuctionContract.sol\":18184:18201  A.bidders[bidder] */\n      0x00\n        /* \"AuctionContract.sol\":18194:18200  bidder */\n      dup5\n        /* \"AuctionContract.sol\":18184:18201  A.bidders[bidder] */\n      0xffffffffffffffffffffffffffffffffffffffff\n      and\n      0xffffffffffffffffffffffffffffffffffffffff\n      and\n      dup2\n      mstore\n      0x20\n      add\n      swap1\n      dup2\n      mstore\n      0x20\n      add\n      0x00\n      keccak256\n        /* \"AuctionContract.sol\":18184:18210  A.bidders[bidder].revealed */\n      0x03\n      add\n      sload\n        /* \"AuctionContract.sol\":18177:18210  return A.bidders[bidder].revealed */\n      swap2\n      pop\n      pop\n        /* \"AuctionContract.sol\":18029:18218  function getRevealedAmount(uint256 id, address bidder) external view returns (uint256) {... */\n      swap3\n      swap2\n      pop\n      pop\n      jump\t// out\n        /* \"AuctionContract.sol\":7490:8432  function commitBid(bytes32 commitment) external payable{... */\n    tag_78:\n        /* \"AuctionContract.sol\":7556:7573  Auction storage A */\n      0x00\n        /* \"AuctionContract.sol\":7576:7599  _requireActiveAuction() */\n      tag_201\n        /* \"AuctionContract.sol\":7576:7597  _requireActiveAuction */\n      tag_129\n        /* \"AuctionContract.sol\":7576:7599  _requireActiveAuction() */\n      jump\t// in\n    tag_201:\n        /* \"AuctionContract.sol\":7556:7599  Auction storage A = _requireActiveAuction() */\n      swap1\n      pop\n        /* \"AuctionContract.sol\":7683:7684  A */\n      dup1\n        /* \"AuctionContract.sol\":7683:7694  A.commitEnd */\n      0x05\n      add\n      0x08\n      swap1\n      sload\n      swap1\n      0x0100\n      exp\n      swap1\n      div\n      0xffffffffffffffff\n      and\n        /* \"AuctionContract.sol\":7664:7694  block.timestamp >= A.commitEnd */\n      0xffffffffffffffff\n      and\n        /* \"AuctionContract.sol\":7664:7679  block.timestamp */\n      timestamp\n        /* \"AuctionContract.sol\":7664:7694  block.timestamp >= A.commitEnd */\n      lt\n      iszero\n        /* \"AuctionContract.sol\":7664:7728  block.timestamp >= A.commitEnd || block.timestamp < A.startStamp */\n      dup1\n      tag_202\n      jumpi\n      pop\n        /* \"AuctionContract.sol\":7716:7717  A */\n      dup1\n        /* \"AuctionContract.sol\":7716:7728  A.startStamp */\n      0x05\n      add\n      0x00\n      swap1\n      sload\n      swap1\n      0x0100\n      exp\n      swap1\n      div\n      0xffffffffffffffff\n      and\n        /* \"AuctionContract.sol\":7698:7728  block.timestamp < A.startStamp */\n      0xffffffffffffffff\n      and\n        /* \"AuctionContract.sol\":7698:7713  block.timestamp */\n      timestamp\n        /* \"AuctionContract.sol\":7698:7728  block.timestamp < A.startStamp */\n      lt\n        /* \"AuctionContract.sol\":7664:7728  block.timestamp >= A.commitEnd || block.timestamp < A.startStamp */\n    tag_202:\n        /* \"AuctionContract.sol\":7660:7755  if (block.timestamp >= A.commitEnd || block.timestamp < A.startStamp) revert NotInCommitPhase() */\n      iszero\n      tag_203\n      jumpi\n        /* \"AuctionContract.sol\":7737:7755  NotInCommitPhase() */\n      mload(0x40)\n      0xabfb7dc300000000000000000000000000000000000000000000000000000000\n      dup2\n      mstore\n      0x04\n      add\n      mload(0x40)\n      dup1\n      swap2\n      sub\n      swap1\n      revert\n        /* \"AuctionContract.sol\":7660:7755  if (block.timestamp >= A.commitEnd || block.timestamp < A.startStamp) revert NotInCommitPhase() */\n    tag_203:\n        /* \"AuctionContract.sol\":7823:7824  0 */\n      0x00\n        /* \"AuctionContract.sol\":7815:7825  bytes32(0) */\n      0x00\n      shl\n        /* \"AuctionContract.sol\":7801:7811  commitment */\n      dup3\n        /* \"AuctionContract.sol\":7801:7825  commitment == bytes32(0) */\n      sub\n        /* \"AuctionContract.sol\":7797:7853  if (commitment == bytes32(0)) revert InvalidCommitment() */\n      tag_204\n      jumpi\n        /* \"AuctionContract.sol\":7834:7853  InvalidCommitment() */\n      mload(0x40)\n      0xc06789fa00000000000000000000000000000000000000000000000000000000\n      dup2\n      mstore\n      0x04\n      add\n      mload(0x40)\n      dup1\n      swap2\n      sub\n      swap1\n      revert\n        /* \"AuctionContract.sol\":7797:7853  if (commitment == bytes32(0)) revert InvalidCommitment() */\n    tag_204:\n        /* \"AuctionContract.sol\":7920:7921  A */\n      dup1\n        /* \"AuctionContract.sol\":7920:7928  A.seller */\n      0x01\n      add\n      0x00\n      swap1\n      sload\n      swap1\n      0x0100\n      exp\n      swap1\n      div\n      0xffffffffffffffffffffffffffffffffffffffff\n      and\n        /* \"AuctionContract.sol\":7906:7928  msg.sender == A.seller */\n      0xffffffffffffffffffffffffffffffffffffffff\n      and\n        /* \"AuctionContract.sol\":7906:7916  msg.sender */\n      caller\n        /* \"AuctionContract.sol\":7906:7928  msg.sender == A.seller */\n      0xffffffffffffffffffffffffffffffffffffffff\n      and\n      sub\n        /* \"AuctionContract.sol\":7902:7954  if (msg.sender == A.seller) revert SellerCannotBid() */\n      tag_205\n      jumpi\n        /* \"AuctionContract.sol\":7937:7954  SellerCannotBid() */\n      mload(0x40)\n      0xef02588900000000000000000000000000000000000000000000000000000000\n      dup2\n      mstore\n      0x04\n      add\n      mload(0x40)\n      dup1\n      swap2\n      sub\n      swap1\n      revert\n        /* \"AuctionContract.sol\":7902:7954  if (msg.sender == A.seller) revert SellerCannotBid() */\n    tag_205:\n        /* \"AuctionContract.sol\":8048:8049  A */\n      dup1\n        /* \"AuctionContract.sol\":8048:8062  A.depositPrice */\n      0x04\n      add\n      sload\n        /* \"AuctionContract.sol\":8035:8044  msg.value */\n      callvalue\n        /* \"AuctionContract.sol\":8035:8062  msg.value != A.depositPrice */\n      eq\n        /* \"AuctionContract.sol\":8031:8093  if (msg.value != A.depositPrice) revert ExactDepositRequired() */\n      tag_206\n      jumpi\n        /* \"AuctionContract.sol\":8071:8093  ExactDepositRequired() */\n      mload(0x40)\n      0x603e3d3600000000000000000000000000000000000000000000000000000000\n      dup2\n      mstore\n      0x04\n      add\n      mload(0x40)\n      dup1\n      swap2\n      sub\n      swap1\n      revert\n        /* \"AuctionContract.sol\":8031:8093  if (msg.value != A.depositPrice) revert ExactDepositRequired() */\n    tag_206:\n        /* \"AuctionContract.sol\":8137:8138  A */\n      dup1\n        /* \"AuctionContract.sol\":8137:8151  A.depositPrice */\n      0x04\n      add\n      sload\n        /* \"AuctionContract.sol\":8104:8105  A */\n      dup2\n        /* \"AuctionContract.sol\":8104:8113  A.bidders */\n      0x0a\n      add\n        /* \"AuctionContract.sol\":8104:8125  A.bidders[msg.sender] */\n      0x00\n        /* \"AuctionContract.sol\":8114:8124  msg.sender */\n      caller\n        /* \"AuctionContract.sol\":8104:8125  A.bidders[msg.sender] */\n      0xffffffffffffffffffffffffffffffffffffffff\n      and\n      0xffffffffffffffffffffffffffffffffffffffff\n      and\n      dup2\n      mstore\n      0x20\n      add\n      swap1\n      dup2\n      mstore\n      0x20\n      add\n      0x00\n      keccak256\n        /* \"AuctionContract.sol\":8104:8133  A.bidders[msg.sender].deposit */\n      0x02\n      add\n      0x00\n        /* \"AuctionContract.sol\":8104:8151  A.bidders[msg.sender].deposit += A.depositPrice */\n      dup3\n      dup3\n      sload\n      tag_207\n      swap2\n      swap1\n      tag_146\n      jump\t// in\n    tag_207:\n      swap3\n      pop\n      pop\n      dup2\n      swap1\n      sstore\n      pop\n        /* \"AuctionContract.sol\":8221:8222  1 */\n      0x01\n        /* \"AuctionContract.sol\":8199:8200  A */\n      dup2\n        /* \"AuctionContract.sol\":8199:8217  A.commitSeqCounter */\n      0x05\n      add\n      0x18\n        /* \"AuctionContract.sol\":8199:8222  A.commitSeqCounter += 1 */\n      dup3\n      dup3\n      dup3\n      swap1\n      sload\n      swap1\n      0x0100\n      exp\n      swap1\n      div\n      0xffffffffffffffff\n      and\n      tag_208\n      swap2\n      swap1\n      tag_148\n      jump\t// in\n    tag_208:\n      swap3\n      pop\n      0x0100\n      exp\n      dup2\n      sload\n      dup2\n      0xffffffffffffffff\n      mul\n      not\n      and\n      swap1\n      dup4\n      0xffffffffffffffff\n      and\n      mul\n      or\n      swap1\n      sstore\n      pop\n        /* \"AuctionContract.sol\":8267:8268  A */\n      dup1\n        /* \"AuctionContract.sol\":8267:8285  A.commitSeqCounter */\n      0x05\n      add\n      0x18\n      swap1\n      sload\n      swap1\n      0x0100\n      exp\n      swap1\n      div\n      0xffffffffffffffff\n      and\n        /* \"AuctionContract.sol\":8233:8234  A */\n      dup2\n        /* \"AuctionContract.sol\":8233:8242  A.bidders */\n      0x0a\n      add\n        /* \"AuctionContract.sol\":8233:8254  A.bidders[msg.sender] */\n      0x00\n        /* \"AuctionContract.sol\":8243:8253  msg.sender */\n      caller\n        /* \"AuctionContract.sol\":8233:8254  A.bidders[msg.sender] */\n      0xffffffffffffffffffffffffffffffffffffffff\n      and\n      0xffffffffffffffffffffffffffffffffffffffff\n      and\n      dup2\n      mstore\n      0x20\n      add\n      swap1\n      dup2\n      mstore\n      0x20\n      add\n      0x00\n      keccak256\n        /* \"AuctionContract.sol\":8233:8264  A.bidders[msg.sender].commitSeq */\n      0x01\n      add\n      0x00\n        /* \"AuctionContract.sol\":8233:8285  A.bidders[msg.sender].commitSeq = A.commitSeqCounter */\n      0x0100\n      exp\n      dup2\n      sload\n      dup2\n      0xffffffffffffffff\n      mul\n      not\n      and\n      swap1\n      dup4\n      0xffffffffffffffff\n      and\n      mul\n      or\n      swap1\n      sstore\n      pop\n        /* \"AuctionContract.sol\":8361:8371  commitment */\n      dup2\n        /* \"AuctionContract.sol\":8326:8327  A */\n      dup2\n        /* \"AuctionContract.sol\":8326:8335  A.bidders */\n      0x0a\n      add\n        /* \"AuctionContract.sol\":8326:8347  A.bidders[msg.sender] */\n      0x00\n        /* \"AuctionContract.sol\":8336:8346  msg.sender */\n      caller\n        /* \"AuctionContract.sol\":8326:8347  A.bidders[msg.sender] */\n      0xffffffffffffffffffffffffffffffffffffffff\n      and\n      0xffffffffffffffffffffffffffffffffffffffff\n      and\n      dup2\n      mstore\n      0x20\n      add\n      swap1\n      dup2\n      mstore\n      0x20\n      add\n      0x00\n      keccak256\n        /* \"AuctionContract.sol\":8326:8358  A.bidders[msg.sender].commitment */\n      0x00\n      add\n        /* \"AuctionContract.sol\":8326:8371  A.bidders[msg.sender].commitment = commitment */\n      dup2\n      swap1\n      sstore\n      pop\n        /* \"AuctionContract.sol\":8413:8423  msg.sender */\n      caller\n        /* \"AuctionContract.sol\":8389:8424  BidCommitted(auctionId, msg.sender) */\n      0xffffffffffffffffffffffffffffffffffffffff\n      and\n        /* \"AuctionContract.sol\":8402:8411  auctionId */\n      sload(0x01)\n        /* \"AuctionContract.sol\":8389:8424  BidCommitted(auctionId, msg.sender) */\n      0x0934ea4de468dcd0d9a335c5f97aa77955310c29631c93fbd01d95a00242ec41\n      mload(0x40)\n      mload(0x40)\n      dup1\n      swap2\n      sub\n      swap1\n      log3\n        /* \"AuctionContract.sol\":7545:8432  {... */\n      pop\n        /* \"AuctionContract.sol\":7490:8432  function commitBid(bytes32 commitment) external payable{... */\n      pop\n      jump\t// out\n        /* \"AuctionContract.sol\":5372:7314  function startAuction(... */\n    tag_83:\n        /* \"AuctionContract.sol\":5682:5683  0 */\n      0x00\n        /* \"AuctionContract.sol\":5669:5678  auctionId */\n      sload(0x01)\n        /* \"AuctionContract.sol\":5669:5683  auctionId != 0 */\n      eq\n        /* \"AuctionContract.sol\":5665:5813  if (auctionId != 0) {... */\n      tag_210\n      jumpi\n        /* \"AuctionContract.sol\":5700:5720  Auction storage prev */\n      0x00\n        /* \"AuctionContract.sol\":5723:5732  _auctions */\n      0x02\n        /* \"AuctionContract.sol\":5723:5743  _auctions[auctionId] */\n      0x00\n        /* \"AuctionContract.sol\":5733:5742  auctionId */\n      sload(0x01)\n        /* \"AuctionContract.sol\":5723:5743  _auctions[auctionId] */\n      dup2\n      mstore\n      0x20\n      add\n      swap1\n      dup2\n      mstore\n      0x20\n      add\n      0x00\n      keccak256\n        /* \"AuctionContract.sol\":5700:5743  Auction storage prev = _auctions[auctionId] */\n      swap1\n      pop\n        /* \"AuctionContract.sol\":5766:5770  prev */\n      dup1\n        /* \"AuctionContract.sol\":5766:5778  prev.settled */\n      0x02\n      add\n      0x15\n      swap1\n      sload\n      swap1\n      0x0100\n      exp\n      swap1\n      div\n      0xff\n      and\n        /* \"AuctionContract.sol\":5758:5801  require(prev.settled, \"previous not ended\") */\n      tag_211\n      jumpi\n      mload(0x40)\n      0x08c379a000000000000000000000000000000000000000000000000000000000\n      dup2\n      mstore\n      0x04\n      add\n      tag_212\n      swap1\n      tag_213\n      jump\t// in\n    tag_212:\n      mload(0x40)\n      dup1\n      swap2\n      sub\n      swap1\n      revert\n    tag_211:\n        /* \"AuctionContract.sol\":5685:5813  {... */\n      pop\n        /* \"AuctionContract.sol\":5665:5813  if (auctionId != 0) {... */\n    tag_210:\n        /* \"AuctionContract.sol\":5882:5883  0 */\n      0x00\n        /* \"AuctionContract.sol\":5858:5879  commitDurationSeconds */\n      dup4\n        /* \"AuctionContract.sol\":5858:5883  commitDurationSeconds > 0 */\n      0xffffffffffffffff\n      and\n      gt\n        /* \"AuctionContract.sol\":5858:5923  commitDurationSeconds > 0 && commitDurationSeconds < MAX_DURATION */\n      dup1\n      iszero\n      tag_214\n      jumpi\n      pop\n        /* \"AuctionContract.sol\":1567:1574  2592000 */\n      0x278d00\n        /* \"AuctionContract.sol\":5887:5908  commitDurationSeconds */\n      dup4\n        /* \"AuctionContract.sol\":5887:5923  commitDurationSeconds < MAX_DURATION */\n      0xffffffffffffffff\n      and\n      lt\n        /* \"AuctionContract.sol\":5858:5923  commitDurationSeconds > 0 && commitDurationSeconds < MAX_DURATION */\n    tag_214:\n        /* \"AuctionContract.sol\":5850:5956  require(commitDurationSeconds > 0 && commitDurationSeconds < MAX_DURATION, \"CONFIG: bad commit durations\") */\n      tag_215\n      jumpi\n      mload(0x40)\n      0x08c379a000000000000000000000000000000000000000000000000000000000\n      dup2\n      mstore\n      0x04\n      add\n      tag_216\n      swap1\n      tag_217\n      jump\t// in\n    tag_216:\n      mload(0x40)\n      dup1\n      swap2\n      sub\n      swap1\n      revert\n    tag_215:\n        /* \"AuctionContract.sol\":5999:6000  0 */\n      0x00\n        /* \"AuctionContract.sol\":5975:5996  revealDurationSeconds */\n      dup3\n        /* \"AuctionContract.sol\":5975:6000  revealDurationSeconds > 0 */\n      0xffffffffffffffff\n      and\n      gt\n        /* \"AuctionContract.sol\":5975:6040  revealDurationSeconds > 0 && revealDurationSeconds < MAX_DURATION */\n      dup1\n      iszero\n      tag_218\n      jumpi\n      pop\n        /* \"AuctionContract.sol\":1567:1574  2592000 */\n      0x278d00\n        /* \"AuctionContract.sol\":6004:6025  revealDurationSeconds */\n      dup3\n        /* \"AuctionContract.sol\":6004:6040  revealDurationSeconds < MAX_DURATION */\n      0xffffffffffffffff\n      and\n      lt\n        /* \"AuctionContract.sol\":5975:6040  revealDurationSeconds > 0 && revealDurationSeconds < MAX_DURATION */\n    tag_218:\n        /* \"AuctionContract.sol\":5967:6073  require(revealDurationSeconds > 0 && revealDurationSeconds < MAX_DURATION, \"CONFIG: bad reveal durations\") */\n      tag_219\n      jumpi\n      mload(0x40)\n      0x08c379a000000000000000000000000000000000000000000000000000000000\n      dup2\n      mstore\n      0x04\n      add\n      tag_220\n      swap1\n      tag_221\n      jump\t// in\n    tag_220:\n      mload(0x40)\n      dup1\n      swap2\n      sub\n      swap1\n      revert\n    tag_219:\n        /* \"AuctionContract.sol\":6116:6117  0 */\n      0x00\n        /* \"AuctionContract.sol\":6092:6113  settleDurationSeconds */\n      dup2\n        /* \"AuctionContract.sol\":6092:6117  settleDurationSeconds > 0 */\n      0xffffffffffffffff\n      and\n      gt\n        /* \"AuctionContract.sol\":6092:6157  settleDurationSeconds > 0 && settleDurationSeconds < MAX_DURATION */\n      dup1\n      iszero\n      tag_222\n      jumpi\n      pop\n        /* \"AuctionContract.sol\":1567:1574  2592000 */\n      0x278d00\n        /* \"AuctionContract.sol\":6121:6142  settleDurationSeconds */\n      dup2\n        /* \"AuctionContract.sol\":6121:6157  settleDurationSeconds < MAX_DURATION */\n      0xffffffffffffffff\n      and\n      lt\n        /* \"AuctionContract.sol\":6092:6157  settleDurationSeconds > 0 && settleDurationSeconds < MAX_DURATION */\n    tag_222:\n        /* \"AuctionContract.sol\":6084:6190  require(settleDurationSeconds > 0 && settleDurationSeconds < MAX_DURATION, \"CONFIG: bad settle durations\") */\n      tag_223\n      jumpi\n      mload(0x40)\n      0x08c379a000000000000000000000000000000000000000000000000000000000\n      dup2\n      mstore\n      0x04\n      add\n      tag_224\n      swap1\n      tag_225\n      jump\t// in\n    tag_224:\n      mload(0x40)\n      dup1\n      swap2\n      sub\n      swap1\n      revert\n    tag_223:\n        /* \"AuctionContract.sol\":6224:6225  0 */\n      0x00\n        /* \"AuctionContract.sol\":6209:6221  reservePrice */\n      dup5\n        /* \"AuctionContract.sol\":6209:6225  reservePrice > 0 */\n      gt\n        /* \"AuctionContract.sol\":6209:6253  reservePrice > 0 && reservePrice < MAX_PRICE */\n      dup1\n      iszero\n      tag_226\n      jumpi\n      pop\n        /* \"AuctionContract.sol\":1629:1633  1e27 */\n      0x033b2e3c9fd0803ce8000000\n        /* \"AuctionContract.sol\":6229:6241  reservePrice */\n      dup5\n        /* \"AuctionContract.sol\":6229:6253  reservePrice < MAX_PRICE */\n      lt\n        /* \"AuctionContract.sol\":6209:6253  reservePrice > 0 && reservePrice < MAX_PRICE */\n    tag_226:\n        /* \"AuctionContract.sol\":6201:6283  require(reservePrice > 0 && reservePrice < MAX_PRICE, \"CONFIG: bad reserve price\") */\n      tag_227\n      jumpi\n      mload(0x40)\n      0x08c379a000000000000000000000000000000000000000000000000000000000\n      dup2\n      mstore\n      0x04\n      add\n      tag_228\n      swap1\n      tag_229\n      jump\t// in\n    tag_228:\n      mload(0x40)\n      dup1\n      swap2\n      sub\n      swap1\n      revert\n    tag_227:\n        /* \"AuctionContract.sol\":6356:6366  msg.sender */\n      caller\n        /* \"AuctionContract.sol\":6327:6366  classNFT.ownerOf(tokenId) == msg.sender */\n      0xffffffffffffffffffffffffffffffffffffffff\n      and\n        /* \"AuctionContract.sol\":6327:6335  classNFT */\n      immutable(\"0xa882a7942f9c31b62f61719affd7835f08bca3f855f990bbc994d54b51d095ca\")\n        /* \"AuctionContract.sol\":6327:6343  classNFT.ownerOf */\n      0xffffffffffffffffffffffffffffffffffffffff\n      and\n      0x6352211e\n        /* \"AuctionContract.sol\":6344:6351  tokenId */\n      dup8\n        /* \"AuctionContract.sol\":6327:6352  classNFT.ownerOf(tokenId) */\n      mload(0x40)\n      dup3\n      0xffffffff\n      and\n      0xe0\n      shl\n      dup2\n      mstore\n      0x04\n      add\n      tag_230\n      swap2\n      swap1\n      tag_30\n      jump\t// in\n    tag_230:\n      0x20\n      mload(0x40)\n      dup1\n      dup4\n      sub\n      dup2\n      dup7\n      gas\n      staticcall\n      iszero\n      dup1\n      iszero\n      tag_232\n      jumpi\n      returndatacopy(0x00, 0x00, returndatasize)\n      revert(0x00, returndatasize)\n    tag_232:\n      pop\n      pop\n      pop\n      pop\n      mload(0x40)\n      returndatasize\n      not(0x1f)\n      0x1f\n      dup3\n      add\n      and\n      dup3\n      add\n      dup1\n      0x40\n      mstore\n      pop\n      dup2\n      add\n      swap1\n      tag_233\n      swap2\n      swap1\n      tag_234\n      jump\t// in\n    tag_233:\n        /* \"AuctionContract.sol\":6327:6366  classNFT.ownerOf(tokenId) == msg.sender */\n      0xffffffffffffffffffffffffffffffffffffffff\n      and\n      eq\n        /* \"AuctionContract.sol\":6319:6380  require(classNFT.ownerOf(tokenId) == msg.sender, \"not owner\") */\n      tag_235\n      jumpi\n      mload(0x40)\n      0x08c379a000000000000000000000000000000000000000000000000000000000\n      dup2\n      mstore\n      0x04\n      add\n      tag_236\n      swap1\n      tag_237\n      jump\t// in\n    tag_236:\n      mload(0x40)\n      dup1\n      swap2\n      sub\n      swap1\n      revert\n    tag_235:\n        /* \"AuctionContract.sol\":6467:6519  _safeTransferNFT(msg.sender, address(this), tokenId) */\n      tag_238\n        /* \"AuctionContract.sol\":6484:6494  msg.sender */\n      caller\n        /* \"AuctionContract.sol\":6504:6508  this */\n      address\n        /* \"AuctionContract.sol\":6511:6518  tokenId */\n      dup8\n        /* \"AuctionContract.sol\":6467:6483  _safeTransferNFT */\n      tag_136\n        /* \"AuctionContract.sol\":6467:6519  _safeTransferNFT(msg.sender, address(this), tokenId) */\n      jump\t// in\n    tag_238:\n        /* \"AuctionContract.sol\":6572:6573  1 */\n      0x01\n        /* \"AuctionContract.sol\":6559:6568  auctionId */\n      dup1\n      0x00\n        /* \"AuctionContract.sol\":6559:6573  auctionId += 1 */\n      dup3\n      dup3\n      sload\n      tag_239\n      swap2\n      swap1\n      tag_146\n      jump\t// in\n    tag_239:\n      swap3\n      pop\n      pop\n      dup2\n      swap1\n      sstore\n      pop\n        /* \"AuctionContract.sol\":6584:6601  Auction storage A */\n      0x00\n        /* \"AuctionContract.sol\":6604:6613  _auctions */\n      0x02\n        /* \"AuctionContract.sol\":6604:6624  _auctions[auctionId] */\n      0x00\n        /* \"AuctionContract.sol\":6614:6623  auctionId */\n      sload(0x01)\n        /* \"AuctionContract.sol\":6604:6624  _auctions[auctionId] */\n      dup2\n      mstore\n      0x20\n      add\n      swap1\n      dup2\n      mstore\n      0x20\n      add\n      0x00\n      keccak256\n        /* \"AuctionContract.sol\":6584:6624  Auction storage A = _auctions[auctionId] */\n      swap1\n      pop\n        /* \"AuctionContract.sol\":6677:6684  tokenId */\n      dup6\n        /* \"AuctionContract.sol\":6665:6666  A */\n      dup2\n        /* \"AuctionContract.sol\":6665:6674  A.tokenId */\n      0x00\n      add\n        /* \"AuctionContract.sol\":6665:6684  A.tokenId = tokenId */\n      dup2\n      swap1\n      sstore\n      pop\n        /* \"AuctionContract.sol\":6706:6716  msg.sender */\n      caller\n        /* \"AuctionContract.sol\":6695:6696  A */\n      dup2\n        /* \"AuctionContract.sol\":6695:6703  A.seller */\n      0x01\n      add\n      0x00\n        /* \"AuctionContract.sol\":6695:6716  A.seller = msg.sender */\n      0x0100\n      exp\n      dup2\n      sload\n      dup2\n      0xffffffffffffffffffffffffffffffffffffffff\n      mul\n      not\n      and\n      swap1\n      dup4\n      0xffffffffffffffffffffffffffffffffffffffff\n      and\n      mul\n      or\n      swap1\n      sstore\n      pop\n        /* \"AuctionContract.sol\":6744:6756  reservePrice */\n      dup5\n        /* \"AuctionContract.sol\":6727:6728  A */\n      dup2\n        /* \"AuctionContract.sol\":6727:6741  A.reservePrice */\n      0x03\n      add\n        /* \"AuctionContract.sol\":6727:6756  A.reservePrice = reservePrice */\n      dup2\n      swap1\n      sstore\n      pop\n        /* \"AuctionContract.sol\":1629:1633  1e27 */\n      0x033b2e3c9fd0803ce8000000\n        /* \"AuctionContract.sol\":6842:6843  2 */\n      0x02\n        /* \"AuctionContract.sol\":6827:6839  reservePrice */\n      dup7\n        /* \"AuctionContract.sol\":6827:6843  reservePrice / 2 */\n      tag_240\n      swap2\n      swap1\n      tag_241\n      jump\t// in\n    tag_240:\n        /* \"AuctionContract.sol\":6826:6856  (reservePrice / 2) < MAX_PRICE */\n      lt\n        /* \"AuctionContract.sol\":6826:6887  (reservePrice / 2) < MAX_PRICE ? (reservePrice / 2):MAX_PRICE */\n      tag_242\n      jumpi\n        /* \"AuctionContract.sol\":1629:1633  1e27 */\n      0x033b2e3c9fd0803ce8000000\n        /* \"AuctionContract.sol\":6826:6887  (reservePrice / 2) < MAX_PRICE ? (reservePrice / 2):MAX_PRICE */\n      jump(tag_243)\n    tag_242:\n        /* \"AuctionContract.sol\":6875:6876  2 */\n      0x02\n        /* \"AuctionContract.sol\":6860:6872  reservePrice */\n      dup6\n        /* \"AuctionContract.sol\":6860:6876  reservePrice / 2 */\n      tag_244\n      swap2\n      swap1\n      tag_241\n      jump\t// in\n    tag_244:\n        /* \"AuctionContract.sol\":6826:6887  (reservePrice / 2) < MAX_PRICE ? (reservePrice / 2):MAX_PRICE */\n    tag_243:\n        /* \"AuctionContract.sol\":6807:6808  A */\n      dup2\n        /* \"AuctionContract.sol\":6807:6821  A.depositPrice */\n      0x04\n      add\n        /* \"AuctionContract.sol\":6807:6888  A.depositPrice =  ((reservePrice / 2) < MAX_PRICE ? (reservePrice / 2):MAX_PRICE) */\n      dup2\n      swap1\n      sstore\n      pop\n        /* \"AuctionContract.sol\":6901:6913  uint64 nowTs */\n      0x00\n        /* \"AuctionContract.sol\":6923:6938  block.timestamp */\n      timestamp\n        /* \"AuctionContract.sol\":6901:6939  uint64 nowTs = uint64(block.timestamp) */\n      swap1\n      pop\n        /* \"AuctionContract.sol\":6965:6970  nowTs */\n      dup1\n        /* \"AuctionContract.sol\":6950:6951  A */\n      dup3\n        /* \"AuctionContract.sol\":6950:6962  A.startStamp */\n      0x05\n      add\n      0x00\n        /* \"AuctionContract.sol\":6950:6970  A.startStamp = nowTs */\n      0x0100\n      exp\n      dup2\n      sload\n      dup2\n      0xffffffffffffffff\n      mul\n      not\n      and\n      swap1\n      dup4\n      0xffffffffffffffff\n      and\n      mul\n      or\n      swap1\n      sstore\n      pop\n        /* \"AuctionContract.sol\":7003:7024  commitDurationSeconds */\n      dup5\n        /* \"AuctionContract.sol\":6995:7000  nowTs */\n      dup2\n        /* \"AuctionContract.sol\":6995:7024  nowTs + commitDurationSeconds */\n      tag_245\n      swap2\n      swap1\n      tag_148\n      jump\t// in\n    tag_245:\n        /* \"AuctionContract.sol\":6981:6982  A */\n      dup3\n        /* \"AuctionContract.sol\":6981:6992  A.commitEnd */\n      0x05\n      add\n      0x08\n        /* \"AuctionContract.sol\":6981:7024  A.commitEnd = nowTs + commitDurationSeconds */\n      0x0100\n      exp\n      dup2\n      sload\n      dup2\n      0xffffffffffffffff\n      mul\n      not\n      and\n      swap1\n      dup4\n      0xffffffffffffffff\n      and\n      mul\n      or\n      swap1\n      sstore\n      pop\n        /* \"AuctionContract.sol\":7063:7084  revealDurationSeconds */\n      dup4\n        /* \"AuctionContract.sol\":7049:7050  A */\n      dup3\n        /* \"AuctionContract.sol\":7049:7060  A.commitEnd */\n      0x05\n      add\n      0x08\n      swap1\n      sload\n      swap1\n      0x0100\n      exp\n      swap1\n      div\n      0xffffffffffffffff\n      and\n        /* \"AuctionContract.sol\":7049:7084  A.commitEnd + revealDurationSeconds */\n      tag_246\n      swap2\n      swap1\n      tag_148\n      jump\t// in\n    tag_246:\n        /* \"AuctionContract.sol\":7035:7036  A */\n      dup3\n        /* \"AuctionContract.sol\":7035:7046  A.revealEnd */\n      0x05\n      add\n      0x10\n        /* \"AuctionContract.sol\":7035:7084  A.revealEnd = A.commitEnd + revealDurationSeconds */\n      0x0100\n      exp\n      dup2\n      sload\n      dup2\n      0xffffffffffffffff\n      mul\n      not\n      and\n      swap1\n      dup4\n      0xffffffffffffffff\n      and\n      mul\n      or\n      swap1\n      sstore\n      pop\n        /* \"AuctionContract.sol\":7114:7135  settleDurationSeconds */\n      dup3\n        /* \"AuctionContract.sol\":7095:7096  A */\n      dup3\n        /* \"AuctionContract.sol\":7095:7111  A.settleDuration */\n      0x06\n      add\n      0x00\n        /* \"AuctionContract.sol\":7095:7135  A.settleDuration = settleDurationSeconds */\n      0x0100\n      exp\n      dup2\n      sload\n      dup2\n      0xffffffffffffffff\n      mul\n      not\n      and\n      swap1\n      dup4\n      0xffffffffffffffff\n      and\n      mul\n      or\n      swap1\n      sstore\n      pop\n        /* \"AuctionContract.sol\":7179:7189  msg.sender */\n      caller\n        /* \"AuctionContract.sol\":7153:7306  AuctionStarted(auctionId, msg.sender, address(classNFT), tokenId, reservePrice, A.depositPrice, A.startStamp, A.commitEnd, A.revealEnd, A.settleDuration) */\n      0xffffffffffffffffffffffffffffffffffffffff\n      and\n        /* \"AuctionContract.sol\":7168:7177  auctionId */\n      sload(0x01)\n        /* \"AuctionContract.sol\":7153:7306  AuctionStarted(auctionId, msg.sender, address(classNFT), tokenId, reservePrice, A.depositPrice, A.startStamp, A.commitEnd, A.revealEnd, A.settleDuration) */\n      0x086b19d6a6b02147fc1e9f2538ae5b1ff124ee6827666573f5f59710a6bd5ebb\n        /* \"AuctionContract.sol\":7199:7207  classNFT */\n      immutable(\"0xa882a7942f9c31b62f61719affd7835f08bca3f855f990bbc994d54b51d095ca\")\n        /* \"AuctionContract.sol\":7210:7217  tokenId */\n      dup11\n        /* \"AuctionContract.sol\":7219:7231  reservePrice */\n      dup11\n        /* \"AuctionContract.sol\":7233:7234  A */\n      dup8\n        /* \"AuctionContract.sol\":7233:7247  A.depositPrice */\n      0x04\n      add\n      sload\n        /* \"AuctionContract.sol\":7249:7250  A */\n      dup9\n        /* \"AuctionContract.sol\":7249:7261  A.startStamp */\n      0x05\n      add\n      0x00\n      swap1\n      sload\n      swap1\n      0x0100\n      exp\n      swap1\n      div\n      0xffffffffffffffff\n      and\n        /* \"AuctionContract.sol\":7263:7264  A */\n      dup10\n        /* \"AuctionContract.sol\":7263:7274  A.commitEnd */\n      0x05\n      add\n      0x08\n      swap1\n      sload\n      swap1\n      0x0100\n      exp\n      swap1\n      div\n      0xffffffffffffffff\n      and\n        /* \"AuctionContract.sol\":7276:7277  A */\n      dup11\n        /* \"AuctionContract.sol\":7276:7287  A.revealEnd */\n      0x05\n      add\n      0x10\n      swap1\n      sload\n      swap1\n      0x0100\n      exp\n      swap1\n      div\n      0xffffffffffffffff\n      and\n        /* \"AuctionContract.sol\":7289:7290  A */\n      dup12\n        /* \"AuctionContract.sol\":7289:7305  A.settleDuration */\n      0x06\n      add\n      0x00\n      swap1\n      sload\n      swap1\n      0x0100\n      exp\n      swap1\n      div\n      0xffffffffffffffff\n      and\n        /* \"AuctionContract.sol\":7153:7306  AuctionStarted(auctionId, msg.sender, address(classNFT), tokenId, reservePrice, A.depositPrice, A.startStamp, A.commitEnd, A.revealEnd, A.settleDuration) */\n      mload(0x40)\n      tag_247\n      swap9\n      swap8\n      swap7\n      swap6\n      swap5\n      swap4\n      swap3\n      swap2\n      swap1\n      tag_248\n      jump\t// in\n    tag_247:\n      mload(0x40)\n      dup1\n      swap2\n      sub\n      swap1\n      log3\n        /* \"AuctionContract.sol\":5584:7314  {... */\n      pop\n      pop\n        /* \"AuctionContract.sol\":5372:7314  function startAuction(... */\n      pop\n      pop\n      pop\n      pop\n      pop\n      jump\t// out\n        /* \"AuctionContract.sol\":17447:17634  function getCommitment(uint256 id, address bidder) external view returns (bytes32) {... */\n    tag_87:\n        /* \"AuctionContract.sol\":17521:17528  bytes32 */\n      0x00\n        /* \"AuctionContract.sol\":17541:17558  Auction storage A */\n      0x00\n        /* \"AuctionContract.sol\":17561:17580  _requireAuction(id) */\n      tag_250\n        /* \"AuctionContract.sol\":17577:17579  id */\n      dup5\n        /* \"AuctionContract.sol\":17561:17576  _requireAuction */\n      tag_171\n        /* \"AuctionContract.sol\":17561:17580  _requireAuction(id) */\n      jump\t// in\n    tag_250:\n        /* \"AuctionContract.sol\":17541:17580  Auction storage A = _requireAuction(id) */\n      swap1\n      pop\n        /* \"AuctionContract.sol\":17598:17599  A */\n      dup1\n        /* \"AuctionContract.sol\":17598:17607  A.bidders */\n      0x0a\n      add\n        /* \"AuctionContract.sol\":17598:17615  A.bidders[bidder] */\n      0x00\n        /* \"AuctionContract.sol\":17608:17614  bidder */\n      dup5\n        /* \"AuctionContract.sol\":17598:17615  A.bidders[bidder] */\n      0xffffffffffffffffffffffffffffffffffffffff\n      and\n      0xffffffffffffffffffffffffffffffffffffffff\n      and\n      dup2\n      mstore\n      0x20\n      add\n      swap1\n      dup2\n      mstore\n      0x20\n      add\n      0x00\n      keccak256\n        /* \"AuctionContract.sol\":17598:17626  A.bidders[bidder].commitment */\n      0x00\n      add\n      sload\n        /* \"AuctionContract.sol\":17591:17626  return A.bidders[bidder].commitment */\n      swap2\n      pop\n      pop\n        /* \"AuctionContract.sol\":17447:17634  function getCommitment(uint256 id, address bidder) external view returns (bytes32) {... */\n      swap3\n      swap2\n      pop\n      pop\n      jump\t// out\n        /* \"AuctionContract.sol\":13590:14561  function payAndClaim(uint256 id) external payable nonReentrant {... */\n    tag_92:\n        /* \"AuctionContract.sol\":1876:1877  2 */\n      0x02\n        /* \"AuctionContract.sol\":1972:1979  _status */\n      sload(0x00)\n        /* \"AuctionContract.sol\":1972:1991  _status != _ENTERED */\n      sub\n        /* \"AuctionContract.sol\":1964:2006  require(_status != _ENTERED, \"REENTRANCY\") */\n      tag_252\n      jumpi\n      mload(0x40)\n      0x08c379a000000000000000000000000000000000000000000000000000000000\n      dup2\n      mstore\n      0x04\n      add\n      tag_253\n      swap1\n      tag_175\n      jump\t// in\n    tag_253:\n      mload(0x40)\n      dup1\n      swap2\n      sub\n      swap1\n      revert\n    tag_252:\n        /* \"AuctionContract.sol\":1876:1877  2 */\n      0x02\n        /* \"AuctionContract.sol\":2017:2024  _status */\n      0x00\n        /* \"AuctionContract.sol\":2017:2035  _status = _ENTERED */\n      dup2\n      swap1\n      sstore\n      pop\n        /* \"AuctionContract.sol\":13664:13681  Auction storage A */\n      0x00\n        /* \"AuctionContract.sol\":13684:13703  _requireAuction(id) */\n      tag_255\n        /* \"AuctionContract.sol\":13700:13702  id */\n      dup3\n        /* \"AuctionContract.sol\":13684:13699  _requireAuction */\n      tag_171\n        /* \"AuctionContract.sol\":13684:13703  _requireAuction(id) */\n      jump\t// in\n    tag_255:\n        /* \"AuctionContract.sol\":13664:13703  Auction storage A = _requireAuction(id) */\n      swap1\n      pop\n        /* \"AuctionContract.sol\":13719:13720  A */\n      dup1\n        /* \"AuctionContract.sol\":13719:13730  A.finalized */\n      0x02\n      add\n      0x14\n      swap1\n      sload\n      swap1\n      0x0100\n      exp\n      swap1\n      div\n      0xff\n      and\n        /* \"AuctionContract.sol\":13714:13749  if (!A.finalized) revert NotEnded() */\n      tag_256\n      jumpi\n        /* \"AuctionContract.sol\":13739:13749  NotEnded() */\n      mload(0x40)\n      0xd3018d1800000000000000000000000000000000000000000000000000000000\n      dup2\n      mstore\n      0x04\n      add\n      mload(0x40)\n      dup1\n      swap2\n      sub\n      swap1\n      revert\n        /* \"AuctionContract.sol\":13714:13749  if (!A.finalized) revert NotEnded() */\n    tag_256:\n        /* \"AuctionContract.sol\":13783:13793  msg.sender */\n      caller\n        /* \"AuctionContract.sol\":13764:13793  A.highestBidder != msg.sender */\n      0xffffffffffffffffffffffffffffffffffffffff\n      and\n        /* \"AuctionContract.sol\":13764:13765  A */\n      dup2\n        /* \"AuctionContract.sol\":13764:13779  A.highestBidder */\n      0x02\n      add\n      0x00\n      swap1\n      sload\n      swap1\n      0x0100\n      exp\n      swap1\n      div\n      0xffffffffffffffffffffffffffffffffffffffff\n      and\n        /* \"AuctionContract.sol\":13764:13793  A.highestBidder != msg.sender */\n      0xffffffffffffffffffffffffffffffffffffffff\n      and\n      eq\n        /* \"AuctionContract.sol\":13760:13813  if (A.highestBidder != msg.sender) revert NotWinner() */\n      tag_257\n      jumpi\n        /* \"AuctionContract.sol\":13802:13813  NotWinner() */\n      mload(0x40)\n      0x618c724200000000000000000000000000000000000000000000000000000000\n      dup2\n      mstore\n      0x04\n      add\n      mload(0x40)\n      dup1\n      swap2\n      sub\n      swap1\n      revert\n        /* \"AuctionContract.sol\":13760:13813  if (A.highestBidder != msg.sender) revert NotWinner() */\n    tag_257:\n        /* \"AuctionContract.sol\":13828:13829  A */\n      dup1\n        /* \"AuctionContract.sol\":13828:13837  A.settled */\n      0x02\n      add\n      0x15\n      swap1\n      sload\n      swap1\n      0x0100\n      exp\n      swap1\n      div\n      0xff\n      and\n        /* \"AuctionContract.sol\":13824:13859  if (A.settled) revert NoClaimable() */\n      iszero\n      tag_258\n      jumpi\n        /* \"AuctionContract.sol\":13846:13859  NoClaimable() */\n      mload(0x40)\n      0x44a5ddcc00000000000000000000000000000000000000000000000000000000\n      dup2\n      mstore\n      0x04\n      add\n      mload(0x40)\n      dup1\n      swap2\n      sub\n      swap1\n      revert\n        /* \"AuctionContract.sol\":13824:13859  if (A.settled) revert NoClaimable() */\n    tag_258:\n        /* \"AuctionContract.sol\":14027:14028  A */\n      dup1\n        /* \"AuctionContract.sol\":14027:14043  A.settleDeadline */\n      0x06\n      add\n      0x08\n      swap1\n      sload\n      swap1\n      0x0100\n      exp\n      swap1\n      div\n      0xffffffffffffffff\n      and\n        /* \"AuctionContract.sol\":14009:14043  block.timestamp > A.settleDeadline */\n      0xffffffffffffffff\n      and\n        /* \"AuctionContract.sol\":14009:14024  block.timestamp */\n      timestamp\n        /* \"AuctionContract.sol\":14009:14043  block.timestamp > A.settleDeadline */\n      gt\n        /* \"AuctionContract.sol\":14009:14067  block.timestamp > A.settleDeadline && A.clearingPrice != 0 */\n      dup1\n      iszero\n      tag_259\n      jumpi\n      pop\n        /* \"AuctionContract.sol\":14066:14067  0 */\n      0x00\n        /* \"AuctionContract.sol\":14047:14048  A */\n      dup2\n        /* \"AuctionContract.sol\":14047:14062  A.clearingPrice */\n      0x09\n      add\n      sload\n        /* \"AuctionContract.sol\":14047:14067  A.clearingPrice != 0 */\n      eq\n      iszero\n        /* \"AuctionContract.sol\":14009:14067  block.timestamp > A.settleDeadline && A.clearingPrice != 0 */\n    tag_259:\n        /* \"AuctionContract.sol\":14005:14091  if (block.timestamp > A.settleDeadline && A.clearingPrice != 0) revert PaymentClosed() */\n      iszero\n      tag_260\n      jumpi\n        /* \"AuctionContract.sol\":14076:14091  PaymentClosed() */\n      mload(0x40)\n      0x58459e8800000000000000000000000000000000000000000000000000000000\n      dup2\n      mstore\n      0x04\n      add\n      mload(0x40)\n      dup1\n      swap2\n      sub\n      swap1\n      revert\n        /* \"AuctionContract.sol\":14005:14091  if (block.timestamp > A.settleDeadline && A.clearingPrice != 0) revert PaymentClosed() */\n    tag_260:\n        /* \"AuctionContract.sol\":14119:14120  A */\n      dup1\n        /* \"AuctionContract.sol\":14119:14134  A.clearingPrice */\n      0x09\n      add\n      sload\n        /* \"AuctionContract.sol\":14106:14115  msg.value */\n      callvalue\n        /* \"AuctionContract.sol\":14106:14134  msg.value != A.clearingPrice */\n      eq\n        /* \"AuctionContract.sol\":14102:14157  if (msg.value != A.clearingPrice) revert WrongPayment() */\n      tag_261\n      jumpi\n        /* \"AuctionContract.sol\":14143:14157  WrongPayment() */\n      mload(0x40)\n      0x788a686f00000000000000000000000000000000000000000000000000000000\n      dup2\n      mstore\n      0x04\n      add\n      mload(0x40)\n      dup1\n      swap2\n      sub\n      swap1\n      revert\n        /* \"AuctionContract.sol\":14102:14157  if (msg.value != A.clearingPrice) revert WrongPayment() */\n    tag_261:\n        /* \"AuctionContract.sol\":14252:14253  0 */\n      0x00\n        /* \"AuctionContract.sol\":14233:14234  A */\n      dup2\n        /* \"AuctionContract.sol\":14233:14248  A.clearingPrice */\n      0x09\n      add\n      sload\n        /* \"AuctionContract.sol\":14233:14253  A.clearingPrice != 0 */\n      eq\n        /* \"AuctionContract.sol\":14229:14355  if (A.clearingPrice != 0){... */\n      tag_262\n      jumpi\n        /* \"AuctionContract.sol\":14287:14288  0 */\n      0x00\n        /* \"AuctionContract.sol\":14269:14270  A */\n      dup2\n        /* \"AuctionContract.sol\":14269:14284  A.clearingPrice */\n      0x09\n      add\n        /* \"AuctionContract.sol\":14269:14288  A.clearingPrice = 0 */\n      dup2\n      swap1\n      sstore\n      pop\n        /* \"AuctionContract.sol\":14334:14343  msg.value */\n      callvalue\n        /* \"AuctionContract.sol\":14303:14304  A */\n      dup2\n        /* \"AuctionContract.sol\":14303:14312  A.bidders */\n      0x0a\n      add\n        /* \"AuctionContract.sol\":14303:14322  A.bidders[A.seller] */\n      0x00\n        /* \"AuctionContract.sol\":14313:14314  A */\n      dup4\n        /* \"AuctionContract.sol\":14313:14321  A.seller */\n      0x01\n      add\n      0x00\n      swap1\n      sload\n      swap1\n      0x0100\n      exp\n      swap1\n      div\n      0xffffffffffffffffffffffffffffffffffffffff\n      and\n        /* \"AuctionContract.sol\":14303:14322  A.bidders[A.seller] */\n      0xffffffffffffffffffffffffffffffffffffffff\n      and\n      0xffffffffffffffffffffffffffffffffffffffff\n      and\n      dup2\n      mstore\n      0x20\n      add\n      swap1\n      dup2\n      mstore\n      0x20\n      add\n      0x00\n      keccak256\n        /* \"AuctionContract.sol\":14303:14330  A.bidders[A.seller].deposit */\n      0x02\n      add\n      0x00\n        /* \"AuctionContract.sol\":14303:14343  A.bidders[A.seller].deposit += msg.value */\n      dup3\n      dup3\n      sload\n      tag_263\n      swap2\n      swap1\n      tag_146\n      jump\t// in\n    tag_263:\n      swap3\n      pop\n      pop\n      dup2\n      swap1\n      sstore\n      pop\n        /* \"AuctionContract.sol\":14229:14355  if (A.clearingPrice != 0){... */\n    tag_262:\n        /* \"AuctionContract.sol\":14414:14418  true */\n      0x01\n        /* \"AuctionContract.sol\":14402:14403  A */\n      dup2\n        /* \"AuctionContract.sol\":14402:14411  A.settled */\n      0x02\n      add\n      0x15\n        /* \"AuctionContract.sol\":14402:14418  A.settled = true */\n      0x0100\n      exp\n      dup2\n      sload\n      dup2\n      0xff\n      mul\n      not\n      and\n      swap1\n      dup4\n      iszero\n      iszero\n      mul\n      or\n      swap1\n      sstore\n      pop\n        /* \"AuctionContract.sol\":14429:14488  _safeTransferNFT(address(this), A.highestBidder, A.tokenId) */\n      tag_264\n        /* \"AuctionContract.sol\":14454:14458  this */\n      address\n        /* \"AuctionContract.sol\":14461:14462  A */\n      dup3\n        /* \"AuctionContract.sol\":14461:14476  A.highestBidder */\n      0x02\n      add\n      0x00\n      swap1\n      sload\n      swap1\n      0x0100\n      exp\n      swap1\n      div\n      0xffffffffffffffffffffffffffffffffffffffff\n      and\n        /* \"AuctionContract.sol\":14478:14479  A */\n      dup4\n        /* \"AuctionContract.sol\":14478:14487  A.tokenId */\n      0x00\n      add\n      sload\n        /* \"AuctionContract.sol\":14429:14445  _safeTransferNFT */\n      tag_136\n        /* \"AuctionContract.sol\":14429:14488  _safeTransferNFT(address(this), A.highestBidder, A.tokenId) */\n      jump\t// in\n    tag_264:\n        /* \"AuctionContract.sol\":14531:14541  msg.sender */\n      caller\n        /* \"AuctionContract.sol\":14506:14553  WinnerPaidAndClaimed(id, msg.sender, msg.value) */\n      0xffffffffffffffffffffffffffffffffffffffff\n      and\n        /* \"AuctionContract.sol\":14527:14529  id */\n      dup3\n        /* \"AuctionContract.sol\":14506:14553  WinnerPaidAndClaimed(id, msg.sender, msg.value) */\n      0xd33ef6ab06e6bf8672161aa6abe1ec1791c393d62213ebd89c67f611e538e575\n        /* \"AuctionContract.sol\":14543:14552  msg.value */\n      callvalue\n        /* \"AuctionContract.sol\":14506:14553  WinnerPaidAndClaimed(id, msg.sender, msg.value) */\n      mload(0x40)\n      tag_265\n      swap2\n      swap1\n      tag_30\n      jump\t// in\n    tag_265:\n      mload(0x40)\n      dup1\n      swap2\n      sub\n      swap1\n      log3\n        /* \"AuctionContract.sol\":13653:14561  {... */\n      pop\n        /* \"AuctionContract.sol\":1832:1833  1 */\n      0x01\n        /* \"AuctionContract.sol\":2058:2065  _status */\n      0x00\n        /* \"AuctionContract.sol\":2058:2080  _status = _NOT_ENTERED */\n      dup2\n      swap1\n      sstore\n      pop\n        /* \"AuctionContract.sol\":13590:14561  function payAndClaim(uint256 id) external payable nonReentrant {... */\n      pop\n      jump\t// out\n        /* \"AuctionContract.sol\":1528:1574  uint256 public constant MAX_DURATION = 2592000 */\n    tag_95:\n        /* \"AuctionContract.sol\":1567:1574  2592000 */\n      0x278d00\n        /* \"AuctionContract.sol\":1528:1574  uint256 public constant MAX_DURATION = 2592000 */\n      dup2\n      jump\t// out\n        /* \"AuctionContract.sol\":18226:18736  function currentPhase(uint256 id) public view returns (string memory) {... */\n    tag_100:\n        /* \"AuctionContract.sol\":18281:18294  string memory */\n      0x60\n        /* \"AuctionContract.sol\":18307:18324  Auction storage A */\n      0x00\n        /* \"AuctionContract.sol\":18327:18346  _requireAuction(id) */\n      tag_267\n        /* \"AuctionContract.sol\":18343:18345  id */\n      dup4\n        /* \"AuctionContract.sol\":18327:18342  _requireAuction */\n      tag_171\n        /* \"AuctionContract.sol\":18327:18346  _requireAuction(id) */\n      jump\t// in\n    tag_267:\n        /* \"AuctionContract.sol\":18307:18346  Auction storage A = _requireAuction(id) */\n      swap1\n      pop\n        /* \"AuctionContract.sol\":18357:18366  uint256 t */\n      0x00\n        /* \"AuctionContract.sol\":18369:18384  block.timestamp */\n      timestamp\n        /* \"AuctionContract.sol\":18357:18384  uint256 t = block.timestamp */\n      swap1\n      pop\n        /* \"AuctionContract.sol\":18403:18404  A */\n      dup2\n        /* \"AuctionContract.sol\":18403:18415  A.startStamp */\n      0x05\n      add\n      0x00\n      swap1\n      sload\n      swap1\n      0x0100\n      exp\n      swap1\n      div\n      0xffffffffffffffff\n      and\n        /* \"AuctionContract.sol\":18399:18415  t < A.startStamp */\n      0xffffffffffffffff\n      and\n        /* \"AuctionContract.sol\":18399:18400  t */\n      dup2\n        /* \"AuctionContract.sol\":18399:18415  t < A.startStamp */\n      lt\n        /* \"AuctionContract.sol\":18395:18433  if (t < A.startStamp) return \"PENDING\" */\n      iszero\n      tag_268\n      jumpi\n        /* \"AuctionContract.sol\":18417:18433  return \"PENDING\" */\n      mload(0x40)\n      dup1\n      0x40\n      add\n      0x40\n      mstore\n      dup1\n      0x07\n      dup2\n      mstore\n      0x20\n      add\n      0x50454e44494e4700000000000000000000000000000000000000000000000000\n      dup2\n      mstore\n      pop\n      swap3\n      pop\n      pop\n      pop\n      jump(tag_266)\n        /* \"AuctionContract.sol\":18395:18433  if (t < A.startStamp) return \"PENDING\" */\n    tag_268:\n        /* \"AuctionContract.sol\":18452:18453  A */\n      dup2\n        /* \"AuctionContract.sol\":18452:18463  A.commitEnd */\n      0x05\n      add\n      0x08\n      swap1\n      sload\n      swap1\n      0x0100\n      exp\n      swap1\n      div\n      0xffffffffffffffff\n      and\n        /* \"AuctionContract.sol\":18448:18463  t < A.commitEnd */\n      0xffffffffffffffff\n      and\n        /* \"AuctionContract.sol\":18448:18449  t */\n      dup2\n        /* \"AuctionContract.sol\":18448:18463  t < A.commitEnd */\n      lt\n        /* \"AuctionContract.sol\":18444:18480  if (t < A.commitEnd) return \"COMMIT\" */\n      iszero\n      tag_269\n      jumpi\n        /* \"AuctionContract.sol\":18465:18480  return \"COMMIT\" */\n      mload(0x40)\n      dup1\n      0x40\n      add\n      0x40\n      mstore\n      dup1\n      0x06\n      dup2\n      mstore\n      0x20\n      add\n      0x434f4d4d49540000000000000000000000000000000000000000000000000000\n      dup2\n      mstore\n      pop\n      swap3\n      pop\n      pop\n      pop\n      jump(tag_266)\n        /* \"AuctionContract.sol\":18444:18480  if (t < A.commitEnd) return \"COMMIT\" */\n    tag_269:\n        /* \"AuctionContract.sol\":18499:18500  A */\n      dup2\n        /* \"AuctionContract.sol\":18499:18510  A.revealEnd */\n      0x05\n      add\n      0x10\n      swap1\n      sload\n      swap1\n      0x0100\n      exp\n      swap1\n      div\n      0xffffffffffffffff\n      and\n        /* \"AuctionContract.sol\":18495:18510  t < A.revealEnd */\n      0xffffffffffffffff\n      and\n        /* \"AuctionContract.sol\":18495:18496  t */\n      dup2\n        /* \"AuctionContract.sol\":18495:18510  t < A.revealEnd */\n      lt\n        /* \"AuctionContract.sol\":18491:18527  if (t < A.revealEnd) return \"REVEAL\" */\n      iszero\n      tag_270\n      jumpi\n        /* \"AuctionContract.sol\":18512:18527  return \"REVEAL\" */\n      mload(0x40)\n      dup1\n      0x40\n      add\n      0x40\n      mstore\n      dup1\n      0x06\n      dup2\n      mstore\n      0x20\n      add\n      0x52455645414c0000000000000000000000000000000000000000000000000000\n      dup2\n      mstore\n      pop\n      swap3\n      pop\n      pop\n      pop\n      jump(tag_266)\n        /* \"AuctionContract.sol\":18491:18527  if (t < A.revealEnd) return \"REVEAL\" */\n    tag_270:\n        /* \"AuctionContract.sol\":18543:18544  A */\n      dup2\n        /* \"AuctionContract.sol\":18543:18554  A.finalized */\n      0x02\n      add\n      0x14\n      swap1\n      sload\n      swap1\n      0x0100\n      exp\n      swap1\n      div\n      0xff\n      and\n        /* \"AuctionContract.sol\":18538:18581  if (!A.finalized) return \"FINALIZE_PENDING\" */\n      tag_271\n      jumpi\n        /* \"AuctionContract.sol\":18556:18581  return \"FINALIZE_PENDING\" */\n      mload(0x40)\n      dup1\n      0x40\n      add\n      0x40\n      mstore\n      dup1\n      0x10\n      dup2\n      mstore\n      0x20\n      add\n      0x46494e414c495a455f50454e44494e4700000000000000000000000000000000\n      dup2\n      mstore\n      pop\n      swap3\n      pop\n      pop\n      pop\n      jump(tag_266)\n        /* \"AuctionContract.sol\":18538:18581  if (!A.finalized) return \"FINALIZE_PENDING\" */\n    tag_271:\n        /* \"AuctionContract.sol\":18596:18597  A */\n      dup2\n        /* \"AuctionContract.sol\":18596:18607  A.finalized */\n      0x02\n      add\n      0x14\n      swap1\n      sload\n      swap1\n      0x0100\n      exp\n      swap1\n      div\n      0xff\n      and\n        /* \"AuctionContract.sol\":18596:18621  A.finalized && !A.settled */\n      dup1\n      iszero\n      tag_272\n      jumpi\n      pop\n        /* \"AuctionContract.sol\":18612:18613  A */\n      dup2\n        /* \"AuctionContract.sol\":18612:18621  A.settled */\n      0x02\n      add\n      0x15\n      swap1\n      sload\n      swap1\n      0x0100\n      exp\n      swap1\n      div\n      0xff\n      and\n        /* \"AuctionContract.sol\":18611:18621  !A.settled */\n      iszero\n        /* \"AuctionContract.sol\":18596:18621  A.finalized && !A.settled */\n    tag_272:\n        /* \"AuctionContract.sol\":18596:18654  A.finalized && !A.settled && A.highestBidder != address(0) */\n      dup1\n      iszero\n      tag_273\n      jumpi\n      pop\n        /* \"AuctionContract.sol\":18652:18653  0 */\n      0x00\n        /* \"AuctionContract.sol\":18625:18654  A.highestBidder != address(0) */\n      0xffffffffffffffffffffffffffffffffffffffff\n      and\n        /* \"AuctionContract.sol\":18625:18626  A */\n      dup3\n        /* \"AuctionContract.sol\":18625:18640  A.highestBidder */\n      0x02\n      add\n      0x00\n      swap1\n      sload\n      swap1\n      0x0100\n      exp\n      swap1\n      div\n      0xffffffffffffffffffffffffffffffffffffffff\n      and\n        /* \"AuctionContract.sol\":18625:18654  A.highestBidder != address(0) */\n      0xffffffffffffffffffffffffffffffffffffffff\n      and\n      eq\n      iszero\n        /* \"AuctionContract.sol\":18596:18654  A.finalized && !A.settled && A.highestBidder != address(0) */\n    tag_273:\n        /* \"AuctionContract.sol\":18596:18679  A.finalized && !A.settled && A.highestBidder != address(0) && t <= A.settleDeadline */\n      dup1\n      iszero\n      tag_274\n      jumpi\n      pop\n        /* \"AuctionContract.sol\":18663:18664  A */\n      dup2\n        /* \"AuctionContract.sol\":18663:18679  A.settleDeadline */\n      0x06\n      add\n      0x08\n      swap1\n      sload\n      swap1\n      0x0100\n      exp\n      swap1\n      div\n      0xffffffffffffffff\n      and\n        /* \"AuctionContract.sol\":18658:18679  t <= A.settleDeadline */\n      0xffffffffffffffff\n      and\n        /* \"AuctionContract.sol\":18658:18659  t */\n      dup2\n        /* \"AuctionContract.sol\":18658:18679  t <= A.settleDeadline */\n      gt\n      iszero\n        /* \"AuctionContract.sol\":18596:18679  A.finalized && !A.settled && A.highestBidder != address(0) && t <= A.settleDeadline */\n    tag_274:\n        /* \"AuctionContract.sol\":18592:18703  if (A.finalized && !A.settled && A.highestBidder != address(0) && t <= A.settleDeadline) return \"AWAIT_PAYMENT\" */\n      iszero\n      tag_275\n      jumpi\n        /* \"AuctionContract.sol\":18681:18703  return \"AWAIT_PAYMENT\" */\n      mload(0x40)\n      dup1\n      0x40\n      add\n      0x40\n      mstore\n      dup1\n      0x0d\n      dup2\n      mstore\n      0x20\n      add\n      0x41574149545f5041594d454e5400000000000000000000000000000000000000\n      dup2\n      mstore\n      pop\n      swap3\n      pop\n      pop\n      pop\n      jump(tag_266)\n        /* \"AuctionContract.sol\":18592:18703  if (A.finalized && !A.settled && A.highestBidder != address(0) && t <= A.settleDeadline) return \"AWAIT_PAYMENT\" */\n    tag_275:\n        /* \"AuctionContract.sol\":18714:18728  return \"ENDED\" */\n      mload(0x40)\n      dup1\n      0x40\n      add\n      0x40\n      mstore\n      dup1\n      0x05\n      dup2\n      mstore\n      0x20\n      add\n      0x454e444544000000000000000000000000000000000000000000000000000000\n      dup2\n      mstore\n      pop\n      swap3\n      pop\n      pop\n      pop\n        /* \"AuctionContract.sol\":18226:18736  function currentPhase(uint256 id) public view returns (string memory) {... */\n    tag_266:\n      swap2\n      swap1\n      pop\n      jump\t// out\n        /* \"AuctionContract.sol\":14668:15420  function sellerReclaimNFT(uint256 id) external nonReentrant {... */\n    tag_106:\n        /* \"AuctionContract.sol\":1876:1877  2 */\n      0x02\n        /* \"AuctionContract.sol\":1972:1979  _status */\n      sload(0x00)\n        /* \"AuctionContract.sol\":1972:1991  _status != _ENTERED */\n      sub\n        /* \"AuctionContract.sol\":1964:2006  require(_status != _ENTERED, \"REENTRANCY\") */\n      tag_277\n      jumpi\n      mload(0x40)\n      0x08c379a000000000000000000000000000000000000000000000000000000000\n      dup2\n      mstore\n      0x04\n      add\n      tag_278\n      swap1\n      tag_175\n      jump\t// in\n    tag_278:\n      mload(0x40)\n      dup1\n      swap2\n      sub\n      swap1\n      revert\n    tag_277:\n        /* \"AuctionContract.sol\":1876:1877  2 */\n      0x02\n        /* \"AuctionContract.sol\":2017:2024  _status */\n      0x00\n        /* \"AuctionContract.sol\":2017:2035  _status = _ENTERED */\n      dup2\n      swap1\n      sstore\n      pop\n        /* \"AuctionContract.sol\":14739:14756  Auction storage A */\n      0x00\n        /* \"AuctionContract.sol\":14759:14778  _requireAuction(id) */\n      tag_280\n        /* \"AuctionContract.sol\":14775:14777  id */\n      dup3\n        /* \"AuctionContract.sol\":14759:14774  _requireAuction */\n      tag_171\n        /* \"AuctionContract.sol\":14759:14778  _requireAuction(id) */\n      jump\t// in\n    tag_280:\n        /* \"AuctionContract.sol\":14739:14778  Auction storage A = _requireAuction(id) */\n      swap1\n      pop\n        /* \"AuctionContract.sol\":14794:14795  A */\n      dup1\n        /* \"AuctionContract.sol\":14794:14805  A.finalized */\n      0x02\n      add\n      0x14\n      swap1\n      sload\n      swap1\n      0x0100\n      exp\n      swap1\n      div\n      0xff\n      and\n        /* \"AuctionContract.sol\":14789:14824  if (!A.finalized) revert NotEnded() */\n      tag_281\n      jumpi\n        /* \"AuctionContract.sol\":14814:14824  NotEnded() */\n      mload(0x40)\n      0xd3018d1800000000000000000000000000000000000000000000000000000000\n      dup2\n      mstore\n      0x04\n      add\n      mload(0x40)\n      dup1\n      swap2\n      sub\n      swap1\n      revert\n        /* \"AuctionContract.sol\":14789:14824  if (!A.finalized) revert NotEnded() */\n    tag_281:\n        /* \"AuctionContract.sol\":14858:14859  A */\n      dup1\n        /* \"AuctionContract.sol\":14858:14874  A.settleDeadline */\n      0x06\n      add\n      0x08\n      swap1\n      sload\n      swap1\n      0x0100\n      exp\n      swap1\n      div\n      0xffffffffffffffff\n      and\n        /* \"AuctionContract.sol\":14839:14874  block.timestamp <= A.settleDeadline */\n      0xffffffffffffffff\n      and\n        /* \"AuctionContract.sol\":14839:14854  block.timestamp */\n      timestamp\n        /* \"AuctionContract.sol\":14839:14874  block.timestamp <= A.settleDeadline */\n      gt\n        /* \"AuctionContract.sol\":14835:14893  if (block.timestamp <= A.settleDeadline) revert NotEnded() */\n      tag_282\n      jumpi\n        /* \"AuctionContract.sol\":14883:14893  NotEnded() */\n      mload(0x40)\n      0xd3018d1800000000000000000000000000000000000000000000000000000000\n      dup2\n      mstore\n      0x04\n      add\n      mload(0x40)\n      dup1\n      swap2\n      sub\n      swap1\n      revert\n        /* \"AuctionContract.sol\":14835:14893  if (block.timestamp <= A.settleDeadline) revert NotEnded() */\n    tag_282:\n        /* \"AuctionContract.sol\":14922:14923  A */\n      dup1\n        /* \"AuctionContract.sol\":14922:14930  A.seller */\n      0x01\n      add\n      0x00\n      swap1\n      sload\n      swap1\n      0x0100\n      exp\n      swap1\n      div\n      0xffffffffffffffffffffffffffffffffffffffff\n      and\n        /* \"AuctionContract.sol\":14908:14930  msg.sender != A.seller */\n      0xffffffffffffffffffffffffffffffffffffffff\n      and\n        /* \"AuctionContract.sol\":14908:14918  msg.sender */\n      caller\n        /* \"AuctionContract.sol\":14908:14930  msg.sender != A.seller */\n      0xffffffffffffffffffffffffffffffffffffffff\n      and\n      eq\n        /* \"AuctionContract.sol\":14904:14952  if (msg.sender != A.seller) revert NoClaimable() */\n      tag_283\n      jumpi\n        /* \"AuctionContract.sol\":14939:14952  NoClaimable() */\n      mload(0x40)\n      0x44a5ddcc00000000000000000000000000000000000000000000000000000000\n      dup2\n      mstore\n      0x04\n      add\n      mload(0x40)\n      dup1\n      swap2\n      sub\n      swap1\n      revert\n        /* \"AuctionContract.sol\":14904:14952  if (msg.sender != A.seller) revert NoClaimable() */\n    tag_283:\n        /* \"AuctionContract.sol\":14967:14968  A */\n      dup1\n        /* \"AuctionContract.sol\":14967:14976  A.settled */\n      0x02\n      add\n      0x15\n      swap1\n      sload\n      swap1\n      0x0100\n      exp\n      swap1\n      div\n      0xff\n      and\n        /* \"AuctionContract.sol\":14963:14998  if (A.settled) revert NoClaimable() */\n      iszero\n      tag_284\n      jumpi\n        /* \"AuctionContract.sol\":14985:14998  NoClaimable() */\n      mload(0x40)\n      0x44a5ddcc00000000000000000000000000000000000000000000000000000000\n      dup2\n      mstore\n      0x04\n      add\n      mload(0x40)\n      dup1\n      swap2\n      sub\n      swap1\n      revert\n        /* \"AuctionContract.sol\":14963:14998  if (A.settled) revert NoClaimable() */\n    tag_284:\n        /* \"AuctionContract.sol\":15054:15058  true */\n      0x01\n        /* \"AuctionContract.sol\":15042:15043  A */\n      dup2\n        /* \"AuctionContract.sol\":15042:15051  A.settled */\n      0x02\n      add\n      0x15\n        /* \"AuctionContract.sol\":15042:15058  A.settled = true */\n      0x0100\n      exp\n      dup2\n      sload\n      dup2\n      0xff\n      mul\n      not\n      and\n      swap1\n      dup4\n      iszero\n      iszero\n      mul\n      or\n      swap1\n      sstore\n      pop\n        /* \"AuctionContract.sol\":15069:15121  _safeTransferNFT(address(this), A.seller, A.tokenId) */\n      tag_285\n        /* \"AuctionContract.sol\":15094:15098  this */\n      address\n        /* \"AuctionContract.sol\":15101:15102  A */\n      dup3\n        /* \"AuctionContract.sol\":15101:15109  A.seller */\n      0x01\n      add\n      0x00\n      swap1\n      sload\n      swap1\n      0x0100\n      exp\n      swap1\n      div\n      0xffffffffffffffffffffffffffffffffffffffff\n      and\n        /* \"AuctionContract.sol\":15111:15112  A */\n      dup4\n        /* \"AuctionContract.sol\":15111:15120  A.tokenId */\n      0x00\n      add\n      sload\n        /* \"AuctionContract.sol\":15069:15085  _safeTransferNFT */\n      tag_136\n        /* \"AuctionContract.sol\":15069:15121  _safeTransferNFT(address(this), A.seller, A.tokenId) */\n      jump\t// in\n    tag_285:\n        /* \"AuctionContract.sol\":15174:15188  uint256 amount */\n      0x00\n        /* \"AuctionContract.sol\":15191:15192  A */\n      dup2\n        /* \"AuctionContract.sol\":15191:15200  A.bidders */\n      0x0a\n      add\n        /* \"AuctionContract.sol\":15191:15217  A.bidders[A.highestBidder] */\n      0x00\n        /* \"AuctionContract.sol\":15201:15202  A */\n      dup4\n        /* \"AuctionContract.sol\":15201:15216  A.highestBidder */\n      0x02\n      add\n      0x00\n      swap1\n      sload\n      swap1\n      0x0100\n      exp\n      swap1\n      div\n      0xffffffffffffffffffffffffffffffffffffffff\n      and\n        /* \"AuctionContract.sol\":15191:15217  A.bidders[A.highestBidder] */\n      0xffffffffffffffffffffffffffffffffffffffff\n      and\n      0xffffffffffffffffffffffffffffffffffffffff\n      and\n      dup2\n      mstore\n      0x20\n      add\n      swap1\n      dup2\n      mstore\n      0x20\n      add\n      0x00\n      keccak256\n        /* \"AuctionContract.sol\":15191:15225  A.bidders[A.highestBidder].deposit */\n      0x02\n      add\n      sload\n        /* \"AuctionContract.sol\":15174:15225  uint256 amount = A.bidders[A.highestBidder].deposit */\n      swap1\n      pop\n        /* \"AuctionContract.sol\":15273:15274  0 */\n      0x00\n        /* \"AuctionContract.sol\":15236:15237  A */\n      dup3\n        /* \"AuctionContract.sol\":15236:15245  A.bidders */\n      0x0a\n      add\n        /* \"AuctionContract.sol\":15236:15262  A.bidders[A.highestBidder] */\n      0x00\n        /* \"AuctionContract.sol\":15246:15247  A */\n      dup5\n        /* \"AuctionContract.sol\":15246:15261  A.highestBidder */\n      0x02\n      add\n      0x00\n      swap1\n      sload\n      swap1\n      0x0100\n      exp\n      swap1\n      div\n      0xffffffffffffffffffffffffffffffffffffffff\n      and\n        /* \"AuctionContract.sol\":15236:15262  A.bidders[A.highestBidder] */\n      0xffffffffffffffffffffffffffffffffffffffff\n      and\n      0xffffffffffffffffffffffffffffffffffffffff\n      and\n      dup2\n      mstore\n      0x20\n      add\n      swap1\n      dup2\n      mstore\n      0x20\n      add\n      0x00\n      keccak256\n        /* \"AuctionContract.sol\":15236:15270  A.bidders[A.highestBidder].deposit */\n      0x02\n      add\n        /* \"AuctionContract.sol\":15236:15274  A.bidders[A.highestBidder].deposit = 0 */\n      dup2\n      swap1\n      sstore\n      pop\n        /* \"AuctionContract.sol\":15286:15293  bool ok */\n      0x00\n        /* \"AuctionContract.sol\":15299:15309  msg.sender */\n      caller\n        /* \"AuctionContract.sol\":15299:15314  msg.sender.call */\n      0xffffffffffffffffffffffffffffffffffffffff\n      and\n        /* \"AuctionContract.sol\":15322:15328  amount */\n      dup3\n        /* \"AuctionContract.sol\":15299:15333  msg.sender.call{value: amount}(\"\") */\n      mload(0x40)\n      tag_286\n      swap1\n      tag_181\n      jump\t// in\n    tag_286:\n      0x00\n      mload(0x40)\n      dup1\n      dup4\n      sub\n      dup2\n      dup6\n      dup8\n      gas\n      call\n      swap3\n      pop\n      pop\n      pop\n      returndatasize\n      dup1\n      0x00\n      dup2\n      eq\n      tag_289\n      jumpi\n      mload(0x40)\n      swap2\n      pop\n      and(add(returndatasize, 0x3f), not(0x1f))\n      dup3\n      add\n      0x40\n      mstore\n      returndatasize\n      dup3\n      mstore\n      returndatasize\n      0x00\n      0x20\n      dup5\n      add\n      returndatacopy\n      jump(tag_288)\n    tag_289:\n      0x60\n      swap2\n      pop\n    tag_288:\n      pop\n        /* \"AuctionContract.sol\":15285:15333  (bool ok, ) = msg.sender.call{value: amount}(\"\") */\n      pop\n      swap1\n      pop\n        /* \"AuctionContract.sol\":15348:15350  ok */\n      dup1\n        /* \"AuctionContract.sol\":15344:15375  if(!ok) revert WithdrawFailed() */\n      tag_290\n      jumpi\n        /* \"AuctionContract.sol\":15359:15375  WithdrawFailed() */\n      mload(0x40)\n      0x750b219c00000000000000000000000000000000000000000000000000000000\n      dup2\n      mstore\n      0x04\n      add\n      mload(0x40)\n      dup1\n      swap2\n      sub\n      swap1\n      revert\n        /* \"AuctionContract.sol\":15344:15375  if(!ok) revert WithdrawFailed() */\n    tag_290:\n        /* \"AuctionContract.sol\":15409:15411  id */\n      dup4\n        /* \"AuctionContract.sol\":15393:15412  SellerReclaimed(id) */\n      0x55c90d9726ff7562e2dda9743c070ab007dd986e4c0a42bcf578362c435a4d89\n      mload(0x40)\n      mload(0x40)\n      dup1\n      swap2\n      sub\n      swap1\n      log2\n        /* \"AuctionContract.sol\":14728:15420  {... */\n      pop\n      pop\n      pop\n        /* \"AuctionContract.sol\":1832:1833  1 */\n      0x01\n        /* \"AuctionContract.sol\":2058:2065  _status */\n      0x00\n        /* \"AuctionContract.sol\":2058:2080  _status = _NOT_ENTERED */\n      dup2\n      swap1\n      sstore\n      pop\n        /* \"AuctionContract.sol\":14668:15420  function sellerReclaimNFT(uint256 id) external nonReentrant {... */\n      pop\n      jump\t// out\n        /* \"AuctionContract.sol\":17642:17826  function getCommitSeq(uint256 id, address bidder) external view returns (uint64) {... */\n    tag_110:\n        /* \"AuctionContract.sol\":17715:17721  uint64 */\n      0x00\n        /* \"AuctionContract.sol\":17734:17751  Auction storage A */\n      0x00\n        /* \"AuctionContract.sol\":17754:17773  _requireAuction(id) */\n      tag_292\n        /* \"AuctionContract.sol\":17770:17772  id */\n      dup5\n        /* \"AuctionContract.sol\":17754:17769  _requireAuction */\n      tag_171\n        /* \"AuctionContract.sol\":17754:17773  _requireAuction(id) */\n      jump\t// in\n    tag_292:\n        /* \"AuctionContract.sol\":17734:17773  Auction storage A = _requireAuction(id) */\n      swap1\n      pop\n        /* \"AuctionContract.sol\":17791:17792  A */\n      dup1\n        /* \"AuctionContract.sol\":17791:17800  A.bidders */\n      0x0a\n      add\n        /* \"AuctionContract.sol\":17791:17808  A.bidders[bidder] */\n      0x00\n        /* \"AuctionContract.sol\":17801:17807  bidder */\n      dup5\n        /* \"AuctionContract.sol\":17791:17808  A.bidders[bidder] */\n      0xffffffffffffffffffffffffffffffffffffffff\n      and\n      0xffffffffffffffffffffffffffffffffffffffff\n      and\n      dup2\n      mstore\n      0x20\n      add\n      swap1\n      dup2\n      mstore\n      0x20\n      add\n      0x00\n      keccak256\n        /* \"AuctionContract.sol\":17791:17818  A.bidders[bidder].commitSeq */\n      0x01\n      add\n      0x00\n      swap1\n      sload\n      swap1\n      0x0100\n      exp\n      swap1\n      div\n      0xffffffffffffffff\n      and\n        /* \"AuctionContract.sol\":17784:17818  return A.bidders[bidder].commitSeq */\n      swap2\n      pop\n      pop\n        /* \"AuctionContract.sol\":17642:17826  function getCommitSeq(uint256 id, address bidder) external view returns (uint64) {... */\n      swap3\n      swap2\n      pop\n      pop\n      jump\t// out\n        /* \"AuctionContract.sol\":19167:19432  function getTimes(uint256 id) external view returns (uint64 startStamp, uint64 commitEnd, uint64 revealEnd, uint64 settleDeadline) {... */\n    tag_116:\n        /* \"AuctionContract.sol\":19220:19237  uint64 startStamp */\n      0x00\n        /* \"AuctionContract.sol\":19239:19255  uint64 commitEnd */\n      0x00\n        /* \"AuctionContract.sol\":19257:19273  uint64 revealEnd */\n      0x00\n        /* \"AuctionContract.sol\":19275:19296  uint64 settleDeadline */\n      0x00\n        /* \"AuctionContract.sol\":19309:19326  Auction storage A */\n      0x00\n        /* \"AuctionContract.sol\":19329:19348  _requireAuction(id) */\n      tag_294\n        /* \"AuctionContract.sol\":19345:19347  id */\n      dup7\n        /* \"AuctionContract.sol\":19329:19344  _requireAuction */\n      tag_171\n        /* \"AuctionContract.sol\":19329:19348  _requireAuction(id) */\n      jump\t// in\n    tag_294:\n        /* \"AuctionContract.sol\":19309:19348  Auction storage A = _requireAuction(id) */\n      swap1\n      pop\n        /* \"AuctionContract.sol\":19367:19368  A */\n      dup1\n        /* \"AuctionContract.sol\":19367:19379  A.startStamp */\n      0x05\n      add\n      0x00\n      swap1\n      sload\n      swap1\n      0x0100\n      exp\n      swap1\n      div\n      0xffffffffffffffff\n      and\n        /* \"AuctionContract.sol\":19381:19382  A */\n      dup2\n        /* \"AuctionContract.sol\":19381:19392  A.commitEnd */\n      0x05\n      add\n      0x08\n      swap1\n      sload\n      swap1\n      0x0100\n      exp\n      swap1\n      div\n      0xffffffffffffffff\n      and\n        /* \"AuctionContract.sol\":19394:19395  A */\n      dup3\n        /* \"AuctionContract.sol\":19394:19405  A.revealEnd */\n      0x05\n      add\n      0x10\n      swap1\n      sload\n      swap1\n      0x0100\n      exp\n      swap1\n      div\n      0xffffffffffffffff\n      and\n        /* \"AuctionContract.sol\":19407:19408  A */\n      dup4\n        /* \"AuctionContract.sol\":19407:19423  A.settleDeadline */\n      0x06\n      add\n      0x08\n      swap1\n      sload\n      swap1\n      0x0100\n      exp\n      swap1\n      div\n      0xffffffffffffffff\n      and\n        /* \"AuctionContract.sol\":19359:19424  return (A.startStamp, A.commitEnd, A.revealEnd, A.settleDeadline) */\n      swap5\n      pop\n      swap5\n      pop\n      swap5\n      pop\n      swap5\n      pop\n      pop\n        /* \"AuctionContract.sol\":19167:19432  function getTimes(uint256 id) external view returns (uint64 startStamp, uint64 commitEnd, uint64 revealEnd, uint64 settleDeadline) {... */\n      swap2\n      swap4\n      pop\n      swap2\n      swap4\n      jump\t// out\n        /* \"AuctionContract.sol\":17834:18021  function getDepositAmount(uint256 id, address bidder) external view returns (uint256) {... */\n    tag_122:\n        /* \"AuctionContract.sol\":17911:17918  uint256 */\n      0x00\n        /* \"AuctionContract.sol\":17931:17948  Auction storage A */\n      0x00\n        /* \"AuctionContract.sol\":17951:17970  _requireAuction(id) */\n      tag_296\n        /* \"AuctionContract.sol\":17967:17969  id */\n      dup5\n        /* \"AuctionContract.sol\":17951:17966  _requireAuction */\n      tag_171\n        /* \"AuctionContract.sol\":17951:17970  _requireAuction(id) */\n      jump\t// in\n    tag_296:\n        /* \"AuctionContract.sol\":17931:17970  Auction storage A = _requireAuction(id) */\n      swap1\n      pop\n        /* \"AuctionContract.sol\":17988:17989  A */\n      dup1\n        /* \"AuctionContract.sol\":17988:17997  A.bidders */\n      0x0a\n      add\n        /* \"AuctionContract.sol\":17988:18005  A.bidders[bidder] */\n      0x00\n        /* \"AuctionContract.sol\":17998:18004  bidder */\n      dup5\n        /* \"AuctionContract.sol\":17988:18005  A.bidders[bidder] */\n      0xffffffffffffffffffffffffffffffffffffffff\n      and\n      0xffffffffffffffffffffffffffffffffffffffff\n      and\n      dup2\n      mstore\n      0x20\n      add\n      swap1\n      dup2\n      mstore\n      0x20\n      add\n      0x00\n      keccak256\n        /* \"AuctionContract.sol\":17988:18013  A.bidders[bidder].deposit */\n      0x02\n      add\n      sload\n        /* \"AuctionContract.sol\":17981:18013  return A.bidders[bidder].deposit */\n      swap2\n      pop\n      pop\n        /* \"AuctionContract.sol\":17834:18021  function getDepositAmount(uint256 id, address bidder) external view returns (uint256) {... */\n      swap3\n      swap2\n      pop\n      pop\n      jump\t// out\n        /* \"AuctionContract.sol\":12714:13551  function payAndClaim() external payable nonReentrant {... */\n    tag_125:\n        /* \"AuctionContract.sol\":1876:1877  2 */\n      0x02\n        /* \"AuctionContract.sol\":1972:1979  _status */\n      sload(0x00)\n        /* \"AuctionContract.sol\":1972:1991  _status != _ENTERED */\n      sub\n        /* \"AuctionContract.sol\":1964:2006  require(_status != _ENTERED, \"REENTRANCY\") */\n      tag_298\n      jumpi\n      mload(0x40)\n      0x08c379a000000000000000000000000000000000000000000000000000000000\n      dup2\n      mstore\n      0x04\n      add\n      tag_299\n      swap1\n      tag_175\n      jump\t// in\n    tag_299:\n      mload(0x40)\n      dup1\n      swap2\n      sub\n      swap1\n      revert\n    tag_298:\n        /* \"AuctionContract.sol\":1876:1877  2 */\n      0x02\n        /* \"AuctionContract.sol\":2017:2024  _status */\n      0x00\n        /* \"AuctionContract.sol\":2017:2035  _status = _ENTERED */\n      dup2\n      swap1\n      sstore\n      pop\n        /* \"AuctionContract.sol\":12778:12795  Auction storage A */\n      0x00\n        /* \"AuctionContract.sol\":12798:12821  _requireActiveAuction() */\n      tag_301\n        /* \"AuctionContract.sol\":12798:12819  _requireActiveAuction */\n      tag_129\n        /* \"AuctionContract.sol\":12798:12821  _requireActiveAuction() */\n      jump\t// in\n    tag_301:\n        /* \"AuctionContract.sol\":12778:12821  Auction storage A = _requireActiveAuction() */\n      swap1\n      pop\n        /* \"AuctionContract.sol\":12837:12838  A */\n      dup1\n        /* \"AuctionContract.sol\":12837:12848  A.finalized */\n      0x02\n      add\n      0x14\n      swap1\n      sload\n      swap1\n      0x0100\n      exp\n      swap1\n      div\n      0xff\n      and\n        /* \"AuctionContract.sol\":12832:12867  if (!A.finalized) revert NotEnded() */\n      tag_302\n      jumpi\n        /* \"AuctionContract.sol\":12857:12867  NotEnded() */\n      mload(0x40)\n      0xd3018d1800000000000000000000000000000000000000000000000000000000\n      dup2\n      mstore\n      0x04\n      add\n      mload(0x40)\n      dup1\n      swap2\n      sub\n      swap1\n      revert\n        /* \"AuctionContract.sol\":12832:12867  if (!A.finalized) revert NotEnded() */\n    tag_302:\n        /* \"AuctionContract.sol\":12901:12911  msg.sender */\n      caller\n        /* \"AuctionContract.sol\":12882:12911  A.highestBidder != msg.sender */\n      0xffffffffffffffffffffffffffffffffffffffff\n      and\n        /* \"AuctionContract.sol\":12882:12883  A */\n      dup2\n        /* \"AuctionContract.sol\":12882:12897  A.highestBidder */\n      0x02\n      add\n      0x00\n      swap1\n      sload\n      swap1\n      0x0100\n      exp\n      swap1\n      div\n      0xffffffffffffffffffffffffffffffffffffffff\n      and\n        /* \"AuctionContract.sol\":12882:12911  A.highestBidder != msg.sender */\n      0xffffffffffffffffffffffffffffffffffffffff\n      and\n      eq\n        /* \"AuctionContract.sol\":12878:12931  if (A.highestBidder != msg.sender) revert NotWinner() */\n      tag_303\n      jumpi\n        /* \"AuctionContract.sol\":12920:12931  NotWinner() */\n      mload(0x40)\n      0x618c724200000000000000000000000000000000000000000000000000000000\n      dup2\n      mstore\n      0x04\n      add\n      mload(0x40)\n      dup1\n      swap2\n      sub\n      swap1\n      revert\n        /* \"AuctionContract.sol\":12878:12931  if (A.highestBidder != msg.sender) revert NotWinner() */\n    tag_303:\n        /* \"AuctionContract.sol\":12946:12947  A */\n      dup1\n        /* \"AuctionContract.sol\":12946:12955  A.settled */\n      0x02\n      add\n      0x15\n      swap1\n      sload\n      swap1\n      0x0100\n      exp\n      swap1\n      div\n      0xff\n      and\n        /* \"AuctionContract.sol\":12942:12977  if (A.settled) revert NoClaimable() */\n      iszero\n      tag_304\n      jumpi\n        /* \"AuctionContract.sol\":12964:12977  NoClaimable() */\n      mload(0x40)\n      0x44a5ddcc00000000000000000000000000000000000000000000000000000000\n      dup2\n      mstore\n      0x04\n      add\n      mload(0x40)\n      dup1\n      swap2\n      sub\n      swap1\n      revert\n        /* \"AuctionContract.sol\":12942:12977  if (A.settled) revert NoClaimable() */\n    tag_304:\n        /* \"AuctionContract.sol\":13010:13011  A */\n      dup1\n        /* \"AuctionContract.sol\":13010:13026  A.settleDeadline */\n      0x06\n      add\n      0x08\n      swap1\n      sload\n      swap1\n      0x0100\n      exp\n      swap1\n      div\n      0xffffffffffffffff\n      and\n        /* \"AuctionContract.sol\":12992:13026  block.timestamp > A.settleDeadline */\n      0xffffffffffffffff\n      and\n        /* \"AuctionContract.sol\":12992:13007  block.timestamp */\n      timestamp\n        /* \"AuctionContract.sol\":12992:13026  block.timestamp > A.settleDeadline */\n      gt\n        /* \"AuctionContract.sol\":12992:13050  block.timestamp > A.settleDeadline && A.clearingPrice != 0 */\n      dup1\n      iszero\n      tag_305\n      jumpi\n      pop\n        /* \"AuctionContract.sol\":13049:13050  0 */\n      0x00\n        /* \"AuctionContract.sol\":13030:13031  A */\n      dup2\n        /* \"AuctionContract.sol\":13030:13045  A.clearingPrice */\n      0x09\n      add\n      sload\n        /* \"AuctionContract.sol\":13030:13050  A.clearingPrice != 0 */\n      eq\n      iszero\n        /* \"AuctionContract.sol\":12992:13050  block.timestamp > A.settleDeadline && A.clearingPrice != 0 */\n    tag_305:\n        /* \"AuctionContract.sol\":12988:13074  if (block.timestamp > A.settleDeadline && A.clearingPrice != 0) revert PaymentClosed() */\n      iszero\n      tag_306\n      jumpi\n        /* \"AuctionContract.sol\":13059:13074  PaymentClosed() */\n      mload(0x40)\n      0x58459e8800000000000000000000000000000000000000000000000000000000\n      dup2\n      mstore\n      0x04\n      add\n      mload(0x40)\n      dup1\n      swap2\n      sub\n      swap1\n      revert\n        /* \"AuctionContract.sol\":12988:13074  if (block.timestamp > A.settleDeadline && A.clearingPrice != 0) revert PaymentClosed() */\n    tag_306:\n        /* \"AuctionContract.sol\":13102:13103  A */\n      dup1\n        /* \"AuctionContract.sol\":13102:13117  A.clearingPrice */\n      0x09\n      add\n      sload\n        /* \"AuctionContract.sol\":13089:13098  msg.value */\n      callvalue\n        /* \"AuctionContract.sol\":13089:13117  msg.value != A.clearingPrice */\n      eq\n        /* \"AuctionContract.sol\":13085:13140  if (msg.value != A.clearingPrice) revert WrongPayment() */\n      tag_307\n      jumpi\n        /* \"AuctionContract.sol\":13126:13140  WrongPayment() */\n      mload(0x40)\n      0x788a686f00000000000000000000000000000000000000000000000000000000\n      dup2\n      mstore\n      0x04\n      add\n      mload(0x40)\n      dup1\n      swap2\n      sub\n      swap1\n      revert\n        /* \"AuctionContract.sol\":13085:13140  if (msg.value != A.clearingPrice) revert WrongPayment() */\n    tag_307:\n        /* \"AuctionContract.sol\":13235:13236  0 */\n      0x00\n        /* \"AuctionContract.sol\":13216:13217  A */\n      dup2\n        /* \"AuctionContract.sol\":13216:13231  A.clearingPrice */\n      0x09\n      add\n      sload\n        /* \"AuctionContract.sol\":13216:13236  A.clearingPrice != 0 */\n      eq\n        /* \"AuctionContract.sol\":13212:13338  if (A.clearingPrice != 0){... */\n      tag_308\n      jumpi\n        /* \"AuctionContract.sol\":13270:13271  0 */\n      0x00\n        /* \"AuctionContract.sol\":13252:13253  A */\n      dup2\n        /* \"AuctionContract.sol\":13252:13267  A.clearingPrice */\n      0x09\n      add\n        /* \"AuctionContract.sol\":13252:13271  A.clearingPrice = 0 */\n      dup2\n      swap1\n      sstore\n      pop\n        /* \"AuctionContract.sol\":13317:13326  msg.value */\n      callvalue\n        /* \"AuctionContract.sol\":13286:13287  A */\n      dup2\n        /* \"AuctionContract.sol\":13286:13295  A.bidders */\n      0x0a\n      add\n        /* \"AuctionContract.sol\":13286:13305  A.bidders[A.seller] */\n      0x00\n        /* \"AuctionContract.sol\":13296:13297  A */\n      dup4\n        /* \"AuctionContract.sol\":13296:13304  A.seller */\n      0x01\n      add\n      0x00\n      swap1\n      sload\n      swap1\n      0x0100\n      exp\n      swap1\n      div\n      0xffffffffffffffffffffffffffffffffffffffff\n      and\n        /* \"AuctionContract.sol\":13286:13305  A.bidders[A.seller] */\n      0xffffffffffffffffffffffffffffffffffffffff\n      and\n      0xffffffffffffffffffffffffffffffffffffffff\n      and\n      dup2\n      mstore\n      0x20\n      add\n      swap1\n      dup2\n      mstore\n      0x20\n      add\n      0x00\n      keccak256\n        /* \"AuctionContract.sol\":13286:13313  A.bidders[A.seller].deposit */\n      0x02\n      add\n      0x00\n        /* \"AuctionContract.sol\":13286:13326  A.bidders[A.seller].deposit += msg.value */\n      dup3\n      dup3\n      sload\n      tag_309\n      swap2\n      swap1\n      tag_146\n      jump\t// in\n    tag_309:\n      swap3\n      pop\n      pop\n      dup2\n      swap1\n      sstore\n      pop\n        /* \"AuctionContract.sol\":13212:13338  if (A.clearingPrice != 0){... */\n    tag_308:\n        /* \"AuctionContract.sol\":13397:13401  true */\n      0x01\n        /* \"AuctionContract.sol\":13385:13386  A */\n      dup2\n        /* \"AuctionContract.sol\":13385:13394  A.settled */\n      0x02\n      add\n      0x15\n        /* \"AuctionContract.sol\":13385:13401  A.settled = true */\n      0x0100\n      exp\n      dup2\n      sload\n      dup2\n      0xff\n      mul\n      not\n      and\n      swap1\n      dup4\n      iszero\n      iszero\n      mul\n      or\n      swap1\n      sstore\n      pop\n        /* \"AuctionContract.sol\":13412:13471  _safeTransferNFT(address(this), A.highestBidder, A.tokenId) */\n      tag_310\n        /* \"AuctionContract.sol\":13437:13441  this */\n      address\n        /* \"AuctionContract.sol\":13444:13445  A */\n      dup3\n        /* \"AuctionContract.sol\":13444:13459  A.highestBidder */\n      0x02\n      add\n      0x00\n      swap1\n      sload\n      swap1\n      0x0100\n      exp\n      swap1\n      div\n      0xffffffffffffffffffffffffffffffffffffffff\n      and\n        /* \"AuctionContract.sol\":13461:13462  A */\n      dup4\n        /* \"AuctionContract.sol\":13461:13470  A.tokenId */\n      0x00\n      add\n      sload\n        /* \"AuctionContract.sol\":13412:13428  _safeTransferNFT */\n      tag_136\n        /* \"AuctionContract.sol\":13412:13471  _safeTransferNFT(address(this), A.highestBidder, A.tokenId) */\n      jump\t// in\n    tag_310:\n        /* \"AuctionContract.sol\":13521:13531  msg.sender */\n      caller\n        /* \"AuctionContract.sol\":13489:13543  WinnerPaidAndClaimed(auctionId, msg.sender, msg.value) */\n      0xffffffffffffffffffffffffffffffffffffffff\n      and\n        /* \"AuctionContract.sol\":13510:13519  auctionId */\n      sload(0x01)\n        /* \"AuctionContract.sol\":13489:13543  WinnerPaidAndClaimed(auctionId, msg.sender, msg.value) */\n      0xd33ef6ab06e6bf8672161aa6abe1ec1791c393d62213ebd89c67f611e538e575\n        /* \"AuctionContract.sol\":13533:13542  msg.value */\n      callvalue\n        /* \"AuctionContract.sol\":13489:13543  WinnerPaidAndClaimed(auctionId, msg.sender, msg.value) */\n      mload(0x40)\n      tag_311\n      swap2\n      swap1\n      tag_30\n      jump\t// in\n    tag_311:\n      mload(0x40)\n      dup1\n      swap2\n      sub\n      swap1\n      log3\n        /* \"AuctionContract.sol\":12767:13551  {... */\n      pop\n        /* \"AuctionContract.sol\":1832:1833  1 */\n      0x01\n        /* \"AuctionContract.sol\":2058:2065  _status */\n      0x00\n        /* \"AuctionContract.sol\":2058:2080  _status = _NOT_ENTERED */\n      dup2\n      swap1\n      sstore\n      pop\n        /* \"AuctionContract.sol\":12714:13551  function payAndClaim() external payable nonReentrant {... */\n      jump\t// out\n        /* \"AuctionContract.sol\":16624:16805  function _requireActiveAuction() internal view returns (Auction storage A) {... */\n    tag_129:\n        /* \"AuctionContract.sol\":16680:16697  Auction storage A */\n      0x00\n        /* \"AuctionContract.sol\":16714:16723  _auctions */\n      0x02\n        /* \"AuctionContract.sol\":16714:16734  _auctions[auctionId] */\n      0x00\n        /* \"AuctionContract.sol\":16724:16733  auctionId */\n      sload(0x01)\n        /* \"AuctionContract.sol\":16714:16734  _auctions[auctionId] */\n      dup2\n      mstore\n      0x20\n      add\n      swap1\n      dup2\n      mstore\n      0x20\n      add\n      0x00\n      keccak256\n        /* \"AuctionContract.sol\":16710:16734  A = _auctions[auctionId] */\n      swap1\n      pop\n        /* \"AuctionContract.sol\":16769:16770  0 */\n      0x00\n        /* \"AuctionContract.sol\":16749:16771  A.seller == address(0) */\n      0xffffffffffffffffffffffffffffffffffffffff\n      and\n        /* \"AuctionContract.sol\":16749:16750  A */\n      dup2\n        /* \"AuctionContract.sol\":16749:16757  A.seller */\n      0x01\n      add\n      0x00\n      swap1\n      sload\n      swap1\n      0x0100\n      exp\n      swap1\n      div\n      0xffffffffffffffffffffffffffffffffffffffff\n      and\n        /* \"AuctionContract.sol\":16749:16771  A.seller == address(0) */\n      0xffffffffffffffffffffffffffffffffffffffff\n      and\n      sub\n        /* \"AuctionContract.sol\":16745:16797  if (A.seller == address(0)) revert NoActiveAuction() */\n      tag_313\n      jumpi\n        /* \"AuctionContract.sol\":16780:16797  NoActiveAuction() */\n      mload(0x40)\n      0x568ca25700000000000000000000000000000000000000000000000000000000\n      dup2\n      mstore\n      0x04\n      add\n      mload(0x40)\n      dup1\n      swap2\n      sub\n      swap1\n      revert\n        /* \"AuctionContract.sol\":16745:16797  if (A.seller == address(0)) revert NoActiveAuction() */\n    tag_313:\n        /* \"AuctionContract.sol\":16624:16805  function _requireActiveAuction() internal view returns (Auction storage A) {... */\n      swap1\n      jump\t// out\n        /* \"AuctionContract.sol\":16914:17382  function _safeTransferNFT(address from, address to, uint256 tokenId) internal {... */\n    tag_136:\n        /* \"AuctionContract.sol\":17040:17044  from */\n      dup3\n        /* \"AuctionContract.sol\":17011:17044  classNFT.ownerOf(tokenId) == from */\n      0xffffffffffffffffffffffffffffffffffffffff\n      and\n        /* \"AuctionContract.sol\":17011:17019  classNFT */\n      immutable(\"0xa882a7942f9c31b62f61719affd7835f08bca3f855f990bbc994d54b51d095ca\")\n        /* \"AuctionContract.sol\":17011:17027  classNFT.ownerOf */\n      0xffffffffffffffffffffffffffffffffffffffff\n      and\n      0x6352211e\n        /* \"AuctionContract.sol\":17028:17035  tokenId */\n      dup4\n        /* \"AuctionContract.sol\":17011:17036  classNFT.ownerOf(tokenId) */\n      mload(0x40)\n      dup3\n      0xffffffff\n      and\n      0xe0\n      shl\n      dup2\n      mstore\n      0x04\n      add\n      tag_315\n      swap2\n      swap1\n      tag_30\n      jump\t// in\n    tag_315:\n      0x20\n      mload(0x40)\n      dup1\n      dup4\n      sub\n      dup2\n      dup7\n      gas\n      staticcall\n      iszero\n      dup1\n      iszero\n      tag_317\n      jumpi\n      returndatacopy(0x00, 0x00, returndatasize)\n      revert(0x00, returndatasize)\n    tag_317:\n      pop\n      pop\n      pop\n      pop\n      mload(0x40)\n      returndatasize\n      not(0x1f)\n      0x1f\n      dup3\n      add\n      and\n      dup3\n      add\n      dup1\n      0x40\n      mstore\n      pop\n      dup2\n      add\n      swap1\n      tag_318\n      swap2\n      swap1\n      tag_234\n      jump\t// in\n    tag_318:\n        /* \"AuctionContract.sol\":17011:17044  classNFT.ownerOf(tokenId) == from */\n      0xffffffffffffffffffffffffffffffffffffffff\n      and\n      eq\n        /* \"AuctionContract.sol\":17003:17063  require(classNFT.ownerOf(tokenId) == from, \"NFT: not owner\") */\n      tag_319\n      jumpi\n      mload(0x40)\n      0x08c379a000000000000000000000000000000000000000000000000000000000\n      dup2\n      mstore\n      0x04\n      add\n      tag_320\n      swap1\n      tag_321\n      jump\t// in\n    tag_320:\n      mload(0x40)\n      dup1\n      swap2\n      sub\n      swap1\n      revert\n    tag_319:\n        /* \"AuctionContract.sol\":17092:17096  this */\n      address\n        /* \"AuctionContract.sol\":17078:17097  to == address(this) */\n      0xffffffffffffffffffffffffffffffffffffffff\n      and\n        /* \"AuctionContract.sol\":17078:17080  to */\n      dup3\n        /* \"AuctionContract.sol\":17078:17097  to == address(this) */\n      0xffffffffffffffffffffffffffffffffffffffff\n      and\n      sub\n        /* \"AuctionContract.sol\":17074:17318  if (to == address(this)) {... */\n      tag_322\n      jumpi\n        /* \"AuctionContract.sol\":17181:17185  this */\n      address\n        /* \"AuctionContract.sol\":17140:17186  classNFT.getApproved(tokenId) == address(this) */\n      0xffffffffffffffffffffffffffffffffffffffff\n      and\n        /* \"AuctionContract.sol\":17140:17148  classNFT */\n      immutable(\"0xa882a7942f9c31b62f61719affd7835f08bca3f855f990bbc994d54b51d095ca\")\n        /* \"AuctionContract.sol\":17140:17160  classNFT.getApproved */\n      0xffffffffffffffffffffffffffffffffffffffff\n      and\n      0x081812fc\n        /* \"AuctionContract.sol\":17161:17168  tokenId */\n      dup4\n        /* \"AuctionContract.sol\":17140:17169  classNFT.getApproved(tokenId) */\n      mload(0x40)\n      dup3\n      0xffffffff\n      and\n      0xe0\n      shl\n      dup2\n      mstore\n      0x04\n      add\n      tag_323\n      swap2\n      swap1\n      tag_30\n      jump\t// in\n    tag_323:\n      0x20\n      mload(0x40)\n      dup1\n      dup4\n      sub\n      dup2\n      dup7\n      gas\n      staticcall\n      iszero\n      dup1\n      iszero\n      tag_325\n      jumpi\n      returndatacopy(0x00, 0x00, returndatasize)\n      revert(0x00, returndatasize)\n    tag_325:\n      pop\n      pop\n      pop\n      pop\n      mload(0x40)\n      returndatasize\n      not(0x1f)\n      0x1f\n      dup3\n      add\n      and\n      dup3\n      add\n      dup1\n      0x40\n      mstore\n      pop\n      dup2\n      add\n      swap1\n      tag_326\n      swap2\n      swap1\n      tag_234\n      jump\t// in\n    tag_326:\n        /* \"AuctionContract.sol\":17140:17186  classNFT.getApproved(tokenId) == address(this) */\n      0xffffffffffffffffffffffffffffffffffffffff\n      and\n      eq\n        /* \"AuctionContract.sol\":17140:17253  classNFT.getApproved(tokenId) == address(this) ||... */\n      dup1\n      tag_327\n      jumpi\n      pop\n        /* \"AuctionContract.sol\":17207:17215  classNFT */\n      immutable(\"0xa882a7942f9c31b62f61719affd7835f08bca3f855f990bbc994d54b51d095ca\")\n        /* \"AuctionContract.sol\":17207:17232  classNFT.isApprovedForAll */\n      0xffffffffffffffffffffffffffffffffffffffff\n      and\n      0xe985e9c5\n        /* \"AuctionContract.sol\":17233:17237  from */\n      dup5\n        /* \"AuctionContract.sol\":17247:17251  this */\n      address\n        /* \"AuctionContract.sol\":17207:17253  classNFT.isApprovedForAll(from, address(this)) */\n      mload(0x40)\n      dup4\n      0xffffffff\n      and\n      0xe0\n      shl\n      dup2\n      mstore\n      0x04\n      add\n      tag_328\n      swap3\n      swap2\n      swap1\n      tag_329\n      jump\t// in\n    tag_328:\n      0x20\n      mload(0x40)\n      dup1\n      dup4\n      sub\n      dup2\n      dup7\n      gas\n      staticcall\n      iszero\n      dup1\n      iszero\n      tag_331\n      jumpi\n      returndatacopy(0x00, 0x00, returndatasize)\n      revert(0x00, returndatasize)\n    tag_331:\n      pop\n      pop\n      pop\n      pop\n      mload(0x40)\n      returndatasize\n      not(0x1f)\n      0x1f\n      dup3\n      add\n      and\n      dup3\n      add\n      dup1\n      0x40\n      mstore\n      pop\n      dup2\n      add\n      swap1\n      tag_332\n      swap2\n      swap1\n      tag_333\n      jump\t// in\n    tag_332:\n        /* \"AuctionContract.sol\":17140:17253  classNFT.getApproved(tokenId) == address(this) ||... */\n    tag_327:\n        /* \"AuctionContract.sol\":17114:17306  require(... */\n      tag_334\n      jumpi\n      mload(0x40)\n      0x08c379a000000000000000000000000000000000000000000000000000000000\n      dup2\n      mstore\n      0x04\n      add\n      tag_335\n      swap1\n      tag_336\n      jump\t// in\n    tag_335:\n      mload(0x40)\n      dup1\n      swap2\n      sub\n      swap1\n      revert\n    tag_334:\n        /* \"AuctionContract.sol\":17074:17318  if (to == address(this)) {... */\n    tag_322:\n        /* \"AuctionContract.sol\":17330:17338  classNFT */\n      immutable(\"0xa882a7942f9c31b62f61719affd7835f08bca3f855f990bbc994d54b51d095ca\")\n        /* \"AuctionContract.sol\":17330:17355  classNFT.safeTransferFrom */\n      0xffffffffffffffffffffffffffffffffffffffff\n      and\n      0x42842e0e\n        /* \"AuctionContract.sol\":17356:17360  from */\n      dup5\n        /* \"AuctionContract.sol\":17362:17364  to */\n      dup5\n        /* \"AuctionContract.sol\":17366:17373  tokenId */\n      dup5\n        /* \"AuctionContract.sol\":17330:17374  classNFT.safeTransferFrom(from, to, tokenId) */\n      mload(0x40)\n      dup5\n      0xffffffff\n      and\n      0xe0\n      shl\n      dup2\n      mstore\n      0x04\n      add\n      tag_337\n      swap4\n      swap3\n      swap2\n      swap1\n      tag_338\n      jump\t// in\n    tag_337:\n      0x00\n      mload(0x40)\n      dup1\n      dup4\n      sub\n      dup2\n      0x00\n      dup8\n      dup1\n      extcodesize\n      iszero\n      dup1\n      iszero\n      tag_339\n      jumpi\n      revert(0x00, 0x00)\n    tag_339:\n      pop\n      gas\n      call\n      iszero\n      dup1\n      iszero\n      tag_341\n      jumpi\n      returndatacopy(0x00, 0x00, returndatasize)\n      revert(0x00, returndatasize)\n    tag_341:\n      pop\n      pop\n      pop\n      pop\n        /* \"AuctionContract.sol\":16914:17382  function _safeTransferNFT(address from, address to, uint256 tokenId) internal {... */\n      pop\n      pop\n      pop\n      jump\t// out\n        /* \"AuctionContract.sol\":16438:16616  function _requireAuction(uint256 id) internal view returns (Auction storage A) {... */\n    tag_171:\n        /* \"AuctionContract.sol\":16498:16515  Auction storage A */\n      0x00\n        /* \"AuctionContract.sol\":16532:16541  _auctions */\n      0x02\n        /* \"AuctionContract.sol\":16532:16545  _auctions[id] */\n      0x00\n        /* \"AuctionContract.sol\":16542:16544  id */\n      dup4\n        /* \"AuctionContract.sol\":16532:16545  _auctions[id] */\n      dup2\n      mstore\n      0x20\n      add\n      swap1\n      dup2\n      mstore\n      0x20\n      add\n      0x00\n      keccak256\n        /* \"AuctionContract.sol\":16528:16545  A = _auctions[id] */\n      swap1\n      pop\n        /* \"AuctionContract.sol\":16580:16581  0 */\n      0x00\n        /* \"AuctionContract.sol\":16560:16582  A.seller == address(0) */\n      0xffffffffffffffffffffffffffffffffffffffff\n      and\n        /* \"AuctionContract.sol\":16560:16561  A */\n      dup2\n        /* \"AuctionContract.sol\":16560:16568  A.seller */\n      0x01\n      add\n      0x00\n      swap1\n      sload\n      swap1\n      0x0100\n      exp\n      swap1\n      div\n      0xffffffffffffffffffffffffffffffffffffffff\n      and\n        /* \"AuctionContract.sol\":16560:16582  A.seller == address(0) */\n      0xffffffffffffffffffffffffffffffffffffffff\n      and\n      sub\n        /* \"AuctionContract.sol\":16556:16608  if (A.seller == address(0)) revert NoActiveAuction() */\n      tag_343\n      jumpi\n        /* \"AuctionContract.sol\":16591:16608  NoActiveAuction() */\n      mload(0x40)\n      0x568ca25700000000000000000000000000000000000000000000000000000000\n      dup2\n      mstore\n      0x04\n      add\n      mload(0x40)\n      dup1\n      swap2\n      sub\n      swap1\n      revert\n        /* \"AuctionContract.sol\":16556:16608  if (A.seller == address(0)) revert NoActiveAuction() */\n    tag_343:\n        /* \"AuctionContract.sol\":16438:16616  function _requireAuction(uint256 id) internal view returns (Auction storage A) {... */\n      swap2\n      swap1\n      pop\n      jump\t// out\n        /* \"#utility.yul\":7:84   */\n    tag_344:\n        /* \"#utility.yul\":44:51   */\n      0x00\n        /* \"#utility.yul\":73:78   */\n      dup2\n        /* \"#utility.yul\":62:78   */\n      swap1\n      pop\n        /* \"#utility.yul\":7:84   */\n      swap2\n      swap1\n      pop\n      jump\t// out\n        /* \"#utility.yul\":90:208   */\n    tag_345:\n        /* \"#utility.yul\":177:201   */\n      tag_418\n        /* \"#utility.yul\":195:200   */\n      dup2\n        /* \"#utility.yul\":177:201   */\n      tag_344\n      jump\t// in\n    tag_418:\n        /* \"#utility.yul\":172:175   */\n      dup3\n        /* \"#utility.yul\":165:202   */\n      mstore\n        /* \"#utility.yul\":90:208   */\n      pop\n      pop\n      jump\t// out\n        /* \"#utility.yul\":214:436   */\n    tag_30:\n        /* \"#utility.yul\":307:311   */\n      0x00\n        /* \"#utility.yul\":345:347   */\n      0x20\n        /* \"#utility.yul\":334:343   */\n      dup3\n        /* \"#utility.yul\":330:348   */\n      add\n        /* \"#utility.yul\":322:348   */\n      swap1\n      pop\n        /* \"#utility.yul\":358:429   */\n      tag_420\n        /* \"#utility.yul\":426:427   */\n      0x00\n        /* \"#utility.yul\":415:424   */\n      dup4\n        /* \"#utility.yul\":411:428   */\n      add\n        /* \"#utility.yul\":402:408   */\n      dup5\n        /* \"#utility.yul\":358:429   */\n      tag_345\n      jump\t// in\n    tag_420:\n        /* \"#utility.yul\":214:436   */\n      swap3\n      swap2\n      pop\n      pop\n      jump\t// out\n        /* \"#utility.yul\":523:640   */\n    tag_347:\n        /* \"#utility.yul\":632:633   */\n      0x00\n        /* \"#utility.yul\":629:630   */\n      0x00\n        /* \"#utility.yul\":622:634   */\n      revert\n        /* \"#utility.yul\":646:763   */\n    tag_348:\n        /* \"#utility.yul\":755:756   */\n      0x00\n        /* \"#utility.yul\":752:753   */\n      0x00\n        /* \"#utility.yul\":745:757   */\n      revert\n        /* \"#utility.yul\":769:895   */\n    tag_349:\n        /* \"#utility.yul\":806:813   */\n      0x00\n        /* \"#utility.yul\":846:888   */\n      0xffffffffffffffffffffffffffffffffffffffff\n        /* \"#utility.yul\":839:844   */\n      dup3\n        /* \"#utility.yul\":835:889   */\n      and\n        /* \"#utility.yul\":824:889   */\n      swap1\n      pop\n        /* \"#utility.yul\":769:895   */\n      swap2\n      swap1\n      pop\n      jump\t// out\n        /* \"#utility.yul\":901:997   */\n    tag_350:\n        /* \"#utility.yul\":938:945   */\n      0x00\n        /* \"#utility.yul\":967:991   */\n      tag_426\n        /* \"#utility.yul\":985:990   */\n      dup3\n        /* \"#utility.yul\":967:991   */\n      tag_349\n      jump\t// in\n    tag_426:\n        /* \"#utility.yul\":956:991   */\n      swap1\n      pop\n        /* \"#utility.yul\":901:997   */\n      swap2\n      swap1\n      pop\n      jump\t// out\n        /* \"#utility.yul\":1003:1125   */\n    tag_351:\n        /* \"#utility.yul\":1076:1100   */\n      tag_428\n        /* \"#utility.yul\":1094:1099   */\n      dup2\n        /* \"#utility.yul\":1076:1100   */\n      tag_350\n      jump\t// in\n    tag_428:\n        /* \"#utility.yul\":1069:1074   */\n      dup2\n        /* \"#utility.yul\":1066:1101   */\n      eq\n        /* \"#utility.yul\":1056:1119   */\n      tag_429\n      jumpi\n        /* \"#utility.yul\":1115:1116   */\n      0x00\n        /* \"#utility.yul\":1112:1113   */\n      0x00\n        /* \"#utility.yul\":1105:1117   */\n      revert\n        /* \"#utility.yul\":1056:1119   */\n    tag_429:\n        /* \"#utility.yul\":1003:1125   */\n      pop\n      jump\t// out\n        /* \"#utility.yul\":1131:1270   */\n    tag_352:\n        /* \"#utility.yul\":1177:1182   */\n      0x00\n        /* \"#utility.yul\":1215:1221   */\n      dup2\n        /* \"#utility.yul\":1202:1222   */\n      calldataload\n        /* \"#utility.yul\":1193:1222   */\n      swap1\n      pop\n        /* \"#utility.yul\":1231:1264   */\n      tag_431\n        /* \"#utility.yul\":1258:1263   */\n      dup2\n        /* \"#utility.yul\":1231:1264   */\n      tag_351\n      jump\t// in\n    tag_431:\n        /* \"#utility.yul\":1131:1270   */\n      swap3\n      swap2\n      pop\n      pop\n      jump\t// out\n        /* \"#utility.yul\":1276:1398   */\n    tag_353:\n        /* \"#utility.yul\":1349:1373   */\n      tag_433\n        /* \"#utility.yul\":1367:1372   */\n      dup2\n        /* \"#utility.yul\":1349:1373   */\n      tag_344\n      jump\t// in\n    tag_433:\n        /* \"#utility.yul\":1342:1347   */\n      dup2\n        /* \"#utility.yul\":1339:1374   */\n      eq\n        /* \"#utility.yul\":1329:1392   */\n      tag_434\n      jumpi\n        /* \"#utility.yul\":1388:1389   */\n      0x00\n        /* \"#utility.yul\":1385:1386   */\n      0x00\n        /* \"#utility.yul\":1378:1390   */\n      revert\n        /* \"#utility.yul\":1329:1392   */\n    tag_434:\n        /* \"#utility.yul\":1276:1398   */\n      pop\n      jump\t// out\n        /* \"#utility.yul\":1404:1543   */\n    tag_354:\n        /* \"#utility.yul\":1450:1455   */\n      0x00\n        /* \"#utility.yul\":1488:1494   */\n      dup2\n        /* \"#utility.yul\":1475:1495   */\n      calldataload\n        /* \"#utility.yul\":1466:1495   */\n      swap1\n      pop\n        /* \"#utility.yul\":1504:1537   */\n      tag_436\n        /* \"#utility.yul\":1531:1536   */\n      dup2\n        /* \"#utility.yul\":1504:1537   */\n      tag_353\n      jump\t// in\n    tag_436:\n        /* \"#utility.yul\":1404:1543   */\n      swap3\n      swap2\n      pop\n      pop\n      jump\t// out\n        /* \"#utility.yul\":1549:1666   */\n    tag_355:\n        /* \"#utility.yul\":1658:1659   */\n      0x00\n        /* \"#utility.yul\":1655:1656   */\n      0x00\n        /* \"#utility.yul\":1648:1660   */\n      revert\n        /* \"#utility.yul\":1672:1789   */\n    tag_356:\n        /* \"#utility.yul\":1781:1782   */\n      0x00\n        /* \"#utility.yul\":1778:1779   */\n      0x00\n        /* \"#utility.yul\":1771:1783   */\n      revert\n        /* \"#utility.yul\":1795:1912   */\n    tag_357:\n        /* \"#utility.yul\":1904:1905   */\n      0x00\n        /* \"#utility.yul\":1901:1902   */\n      0x00\n        /* \"#utility.yul\":1894:1906   */\n      revert\n        /* \"#utility.yul\":1931:2483   */\n    tag_358:\n        /* \"#utility.yul\":1988:1996   */\n      0x00\n        /* \"#utility.yul\":1998:2004   */\n      0x00\n        /* \"#utility.yul\":2048:2051   */\n      dup4\n        /* \"#utility.yul\":2041:2045   */\n      0x1f\n        /* \"#utility.yul\":2033:2039   */\n      dup5\n        /* \"#utility.yul\":2029:2046   */\n      add\n        /* \"#utility.yul\":2025:2052   */\n      slt\n        /* \"#utility.yul\":2015:2137   */\n      tag_441\n      jumpi\n        /* \"#utility.yul\":2056:2135   */\n      tag_442\n      tag_355\n      jump\t// in\n    tag_442:\n        /* \"#utility.yul\":2015:2137   */\n    tag_441:\n        /* \"#utility.yul\":2169:2175   */\n      dup3\n        /* \"#utility.yul\":2156:2176   */\n      calldataload\n        /* \"#utility.yul\":2146:2176   */\n      swap1\n      pop\n        /* \"#utility.yul\":2199:2217   */\n      0xffffffffffffffff\n        /* \"#utility.yul\":2191:2197   */\n      dup2\n        /* \"#utility.yul\":2188:2218   */\n      gt\n        /* \"#utility.yul\":2185:2302   */\n      iszero\n      tag_443\n      jumpi\n        /* \"#utility.yul\":2221:2300   */\n      tag_444\n      tag_356\n      jump\t// in\n    tag_444:\n        /* \"#utility.yul\":2185:2302   */\n    tag_443:\n        /* \"#utility.yul\":2335:2339   */\n      0x20\n        /* \"#utility.yul\":2327:2333   */\n      dup4\n        /* \"#utility.yul\":2323:2340   */\n      add\n        /* \"#utility.yul\":2311:2340   */\n      swap2\n      pop\n        /* \"#utility.yul\":2389:2392   */\n      dup4\n        /* \"#utility.yul\":2381:2385   */\n      0x01\n        /* \"#utility.yul\":2373:2379   */\n      dup3\n        /* \"#utility.yul\":2369:2386   */\n      mul\n        /* \"#utility.yul\":2359:2367   */\n      dup4\n        /* \"#utility.yul\":2355:2387   */\n      add\n        /* \"#utility.yul\":2352:2393   */\n      gt\n        /* \"#utility.yul\":2349:2477   */\n      iszero\n      tag_445\n      jumpi\n        /* \"#utility.yul\":2396:2475   */\n      tag_446\n      tag_357\n      jump\t// in\n    tag_446:\n        /* \"#utility.yul\":2349:2477   */\n    tag_445:\n        /* \"#utility.yul\":1931:2483   */\n      swap3\n      pop\n      swap3\n      swap1\n      pop\n      jump\t// out\n        /* \"#utility.yul\":2489:3452   */\n    tag_38:\n        /* \"#utility.yul\":2586:2592   */\n      0x00\n        /* \"#utility.yul\":2594:2600   */\n      0x00\n        /* \"#utility.yul\":2602:2608   */\n      0x00\n        /* \"#utility.yul\":2610:2616   */\n      0x00\n        /* \"#utility.yul\":2618:2624   */\n      0x00\n        /* \"#utility.yul\":2667:2670   */\n      0x80\n        /* \"#utility.yul\":2655:2664   */\n      dup7\n        /* \"#utility.yul\":2646:2653   */\n      dup9\n        /* \"#utility.yul\":2642:2665   */\n      sub\n        /* \"#utility.yul\":2638:2671   */\n      slt\n        /* \"#utility.yul\":2635:2755   */\n      iszero\n      tag_448\n      jumpi\n        /* \"#utility.yul\":2674:2753   */\n      tag_449\n      tag_347\n      jump\t// in\n    tag_449:\n        /* \"#utility.yul\":2635:2755   */\n    tag_448:\n        /* \"#utility.yul\":2794:2795   */\n      0x00\n        /* \"#utility.yul\":2819:2872   */\n      tag_450\n        /* \"#utility.yul\":2864:2871   */\n      dup9\n        /* \"#utility.yul\":2855:2861   */\n      dup3\n        /* \"#utility.yul\":2844:2853   */\n      dup10\n        /* \"#utility.yul\":2840:2862   */\n      add\n        /* \"#utility.yul\":2819:2872   */\n      tag_352\n      jump\t// in\n    tag_450:\n        /* \"#utility.yul\":2809:2872   */\n      swap6\n      pop\n        /* \"#utility.yul\":2765:2882   */\n      pop\n        /* \"#utility.yul\":2921:2923   */\n      0x20\n        /* \"#utility.yul\":2947:3000   */\n      tag_451\n        /* \"#utility.yul\":2992:2999   */\n      dup9\n        /* \"#utility.yul\":2983:2989   */\n      dup3\n        /* \"#utility.yul\":2972:2981   */\n      dup10\n        /* \"#utility.yul\":2968:2990   */\n      add\n        /* \"#utility.yul\":2947:3000   */\n      tag_352\n      jump\t// in\n    tag_451:\n        /* \"#utility.yul\":2937:3000   */\n      swap5\n      pop\n        /* \"#utility.yul\":2892:3010   */\n      pop\n        /* \"#utility.yul\":3049:3051   */\n      0x40\n        /* \"#utility.yul\":3075:3128   */\n      tag_452\n        /* \"#utility.yul\":3120:3127   */\n      dup9\n        /* \"#utility.yul\":3111:3117   */\n      dup3\n        /* \"#utility.yul\":3100:3109   */\n      dup10\n        /* \"#utility.yul\":3096:3118   */\n      add\n        /* \"#utility.yul\":3075:3128   */\n      tag_354\n      jump\t// in\n    tag_452:\n        /* \"#utility.yul\":3065:3128   */\n      swap4\n      pop\n        /* \"#utility.yul\":3020:3138   */\n      pop\n        /* \"#utility.yul\":3205:3207   */\n      0x60\n        /* \"#utility.yul\":3194:3203   */\n      dup7\n        /* \"#utility.yul\":3190:3208   */\n      add\n        /* \"#utility.yul\":3177:3209   */\n      calldataload\n        /* \"#utility.yul\":3236:3254   */\n      0xffffffffffffffff\n        /* \"#utility.yul\":3228:3234   */\n      dup2\n        /* \"#utility.yul\":3225:3255   */\n      gt\n        /* \"#utility.yul\":3222:3339   */\n      iszero\n      tag_453\n      jumpi\n        /* \"#utility.yul\":3258:3337   */\n      tag_454\n      tag_348\n      jump\t// in\n    tag_454:\n        /* \"#utility.yul\":3222:3339   */\n    tag_453:\n        /* \"#utility.yul\":3371:3435   */\n      tag_455\n        /* \"#utility.yul\":3427:3434   */\n      dup9\n        /* \"#utility.yul\":3418:3424   */\n      dup3\n        /* \"#utility.yul\":3407:3416   */\n      dup10\n        /* \"#utility.yul\":3403:3425   */\n      add\n        /* \"#utility.yul\":3371:3435   */\n      tag_358\n      jump\t// in\n    tag_455:\n        /* \"#utility.yul\":3353:3435   */\n      swap3\n      pop\n      swap3\n      pop\n        /* \"#utility.yul\":3148:3445   */\n      pop\n        /* \"#utility.yul\":2489:3452   */\n      swap3\n      swap6\n      pop\n      swap3\n      swap6\n      swap1\n      swap4\n      pop\n      jump\t// out\n        /* \"#utility.yul\":3458:3607   */\n    tag_359:\n        /* \"#utility.yul\":3494:3501   */\n      0x00\n        /* \"#utility.yul\":3534:3600   */\n      0xffffffff00000000000000000000000000000000000000000000000000000000\n        /* \"#utility.yul\":3527:3532   */\n      dup3\n        /* \"#utility.yul\":3523:3601   */\n      and\n        /* \"#utility.yul\":3512:3601   */\n      swap1\n      pop\n        /* \"#utility.yul\":3458:3607   */\n      swap2\n      swap1\n      pop\n      jump\t// out\n        /* \"#utility.yul\":3613:3728   */\n    tag_360:\n        /* \"#utility.yul\":3698:3721   */\n      tag_458\n        /* \"#utility.yul\":3715:3720   */\n      dup2\n        /* \"#utility.yul\":3698:3721   */\n      tag_359\n      jump\t// in\n    tag_458:\n        /* \"#utility.yul\":3693:3696   */\n      dup3\n        /* \"#utility.yul\":3686:3722   */\n      mstore\n        /* \"#utility.yul\":3613:3728   */\n      pop\n      pop\n      jump\t// out\n        /* \"#utility.yul\":3734:3952   */\n    tag_41:\n        /* \"#utility.yul\":3825:3829   */\n      0x00\n        /* \"#utility.yul\":3863:3865   */\n      0x20\n        /* \"#utility.yul\":3852:3861   */\n      dup3\n        /* \"#utility.yul\":3848:3866   */\n      add\n        /* \"#utility.yul\":3840:3866   */\n      swap1\n      pop\n        /* \"#utility.yul\":3876:3945   */\n      tag_460\n        /* \"#utility.yul\":3942:3943   */\n      0x00\n        /* \"#utility.yul\":3931:3940   */\n      dup4\n        /* \"#utility.yul\":3927:3944   */\n      add\n        /* \"#utility.yul\":3918:3924   */\n      dup5\n        /* \"#utility.yul\":3876:3945   */\n      tag_360\n      jump\t// in\n    tag_460:\n        /* \"#utility.yul\":3734:3952   */\n      swap3\n      swap2\n      pop\n      pop\n      jump\t// out\n        /* \"#utility.yul\":3958:4018   */\n    tag_361:\n        /* \"#utility.yul\":3986:3989   */\n      0x00\n        /* \"#utility.yul\":4007:4012   */\n      dup2\n        /* \"#utility.yul\":4000:4012   */\n      swap1\n      pop\n        /* \"#utility.yul\":3958:4018   */\n      swap2\n      swap1\n      pop\n      jump\t// out\n        /* \"#utility.yul\":4024:4166   */\n    tag_362:\n        /* \"#utility.yul\":4074:4083   */\n      0x00\n        /* \"#utility.yul\":4107:4160   */\n      tag_463\n        /* \"#utility.yul\":4125:4159   */\n      tag_464\n        /* \"#utility.yul\":4134:4158   */\n      tag_465\n        /* \"#utility.yul\":4152:4157   */\n      dup5\n        /* \"#utility.yul\":4134:4158   */\n      tag_349\n      jump\t// in\n    tag_465:\n        /* \"#utility.yul\":4125:4159   */\n      tag_361\n      jump\t// in\n    tag_464:\n        /* \"#utility.yul\":4107:4160   */\n      tag_349\n      jump\t// in\n    tag_463:\n        /* \"#utility.yul\":4094:4160   */\n      swap1\n      pop\n        /* \"#utility.yul\":4024:4166   */\n      swap2\n      swap1\n      pop\n      jump\t// out\n        /* \"#utility.yul\":4172:4298   */\n    tag_363:\n        /* \"#utility.yul\":4222:4231   */\n      0x00\n        /* \"#utility.yul\":4255:4292   */\n      tag_467\n        /* \"#utility.yul\":4286:4291   */\n      dup3\n        /* \"#utility.yul\":4255:4292   */\n      tag_362\n      jump\t// in\n    tag_467:\n        /* \"#utility.yul\":4242:4292   */\n      swap1\n      pop\n        /* \"#utility.yul\":4172:4298   */\n      swap2\n      swap1\n      pop\n      jump\t// out\n        /* \"#utility.yul\":4304:4444   */\n    tag_364:\n        /* \"#utility.yul\":4368:4377   */\n      0x00\n        /* \"#utility.yul\":4401:4438   */\n      tag_469\n        /* \"#utility.yul\":4432:4437   */\n      dup3\n        /* \"#utility.yul\":4401:4438   */\n      tag_363\n      jump\t// in\n    tag_469:\n        /* \"#utility.yul\":4388:4438   */\n      swap1\n      pop\n        /* \"#utility.yul\":4304:4444   */\n      swap2\n      swap1\n      pop\n      jump\t// out\n        /* \"#utility.yul\":4450:4609   */\n    tag_365:\n        /* \"#utility.yul\":4551:4602   */\n      tag_471\n        /* \"#utility.yul\":4596:4601   */\n      dup2\n        /* \"#utility.yul\":4551:4602   */\n      tag_364\n      jump\t// in\n    tag_471:\n        /* \"#utility.yul\":4546:4549   */\n      dup3\n        /* \"#utility.yul\":4539:4603   */\n      mstore\n        /* \"#utility.yul\":4450:4609   */\n      pop\n      pop\n      jump\t// out\n        /* \"#utility.yul\":4615:4865   */\n    tag_49:\n        /* \"#utility.yul\":4722:4726   */\n      0x00\n        /* \"#utility.yul\":4760:4762   */\n      0x20\n        /* \"#utility.yul\":4749:4758   */\n      dup3\n        /* \"#utility.yul\":4745:4763   */\n      add\n        /* \"#utility.yul\":4737:4763   */\n      swap1\n      pop\n        /* \"#utility.yul\":4773:4858   */\n      tag_473\n        /* \"#utility.yul\":4855:4856   */\n      0x00\n        /* \"#utility.yul\":4844:4853   */\n      dup4\n        /* \"#utility.yul\":4840:4857   */\n      add\n        /* \"#utility.yul\":4831:4837   */\n      dup5\n        /* \"#utility.yul\":4773:4858   */\n      tag_365\n      jump\t// in\n    tag_473:\n        /* \"#utility.yul\":4615:4865   */\n      swap3\n      swap2\n      pop\n      pop\n      jump\t// out\n        /* \"#utility.yul\":4871:4948   */\n    tag_366:\n        /* \"#utility.yul\":4908:4915   */\n      0x00\n        /* \"#utility.yul\":4937:4942   */\n      dup2\n        /* \"#utility.yul\":4926:4942   */\n      swap1\n      pop\n        /* \"#utility.yul\":4871:4948   */\n      swap2\n      swap1\n      pop\n      jump\t// out\n        /* \"#utility.yul\":4954:5076   */\n    tag_367:\n        /* \"#utility.yul\":5027:5051   */\n      tag_476\n        /* \"#utility.yul\":5045:5050   */\n      dup2\n        /* \"#utility.yul\":5027:5051   */\n      tag_366\n      jump\t// in\n    tag_476:\n        /* \"#utility.yul\":5020:5025   */\n      dup2\n        /* \"#utility.yul\":5017:5052   */\n      eq\n        /* \"#utility.yul\":5007:5070   */\n      tag_477\n      jumpi\n        /* \"#utility.yul\":5066:5067   */\n      0x00\n        /* \"#utility.yul\":5063:5064   */\n      0x00\n        /* \"#utility.yul\":5056:5068   */\n      revert\n        /* \"#utility.yul\":5007:5070   */\n    tag_477:\n        /* \"#utility.yul\":4954:5076   */\n      pop\n      jump\t// out\n        /* \"#utility.yul\":5082:5221   */\n    tag_368:\n        /* \"#utility.yul\":5128:5133   */\n      0x00\n        /* \"#utility.yul\":5166:5172   */\n      dup2\n        /* \"#utility.yul\":5153:5173   */\n      calldataload\n        /* \"#utility.yul\":5144:5173   */\n      swap1\n      pop\n        /* \"#utility.yul\":5182:5215   */\n      tag_479\n        /* \"#utility.yul\":5209:5214   */\n      dup2\n        /* \"#utility.yul\":5182:5215   */\n      tag_367\n      jump\t// in\n    tag_479:\n        /* \"#utility.yul\":5082:5221   */\n      swap3\n      swap2\n      pop\n      pop\n      jump\t// out\n        /* \"#utility.yul\":5227:5701   */\n    tag_53:\n        /* \"#utility.yul\":5295:5301   */\n      0x00\n        /* \"#utility.yul\":5303:5309   */\n      0x00\n        /* \"#utility.yul\":5352:5354   */\n      0x40\n        /* \"#utility.yul\":5340:5349   */\n      dup4\n        /* \"#utility.yul\":5331:5338   */\n      dup6\n        /* \"#utility.yul\":5327:5350   */\n      sub\n        /* \"#utility.yul\":5323:5355   */\n      slt\n        /* \"#utility.yul\":5320:5439   */\n      iszero\n      tag_481\n      jumpi\n        /* \"#utility.yul\":5358:5437   */\n      tag_482\n      tag_347\n      jump\t// in\n    tag_482:\n        /* \"#utility.yul\":5320:5439   */\n    tag_481:\n        /* \"#utility.yul\":5478:5479   */\n      0x00\n        /* \"#utility.yul\":5503:5556   */\n      tag_483\n        /* \"#utility.yul\":5548:5555   */\n      dup6\n        /* \"#utility.yul\":5539:5545   */\n      dup3\n        /* \"#utility.yul\":5528:5537   */\n      dup7\n        /* \"#utility.yul\":5524:5546   */\n      add\n        /* \"#utility.yul\":5503:5556   */\n      tag_354\n      jump\t// in\n    tag_483:\n        /* \"#utility.yul\":5493:5556   */\n      swap3\n      pop\n        /* \"#utility.yul\":5449:5566   */\n      pop\n        /* \"#utility.yul\":5605:5607   */\n      0x20\n        /* \"#utility.yul\":5631:5684   */\n      tag_484\n        /* \"#utility.yul\":5676:5683   */\n      dup6\n        /* \"#utility.yul\":5667:5673   */\n      dup3\n        /* \"#utility.yul\":5656:5665   */\n      dup7\n        /* \"#utility.yul\":5652:5674   */\n      add\n        /* \"#utility.yul\":5631:5684   */\n      tag_368\n      jump\t// in\n    tag_484:\n        /* \"#utility.yul\":5621:5684   */\n      swap2\n      pop\n        /* \"#utility.yul\":5576:5694   */\n      pop\n        /* \"#utility.yul\":5227:5701   */\n      swap3\n      pop\n      swap3\n      swap1\n      pop\n      jump\t// out\n        /* \"#utility.yul\":5707:6036   */\n    tag_58:\n        /* \"#utility.yul\":5766:5772   */\n      0x00\n        /* \"#utility.yul\":5815:5817   */\n      0x20\n        /* \"#utility.yul\":5803:5812   */\n      dup3\n        /* \"#utility.yul\":5794:5801   */\n      dup5\n        /* \"#utility.yul\":5790:5813   */\n      sub\n        /* \"#utility.yul\":5786:5818   */\n      slt\n        /* \"#utility.yul\":5783:5902   */\n      iszero\n      tag_486\n      jumpi\n        /* \"#utility.yul\":5821:5900   */\n      tag_487\n      tag_347\n      jump\t// in\n    tag_487:\n        /* \"#utility.yul\":5783:5902   */\n    tag_486:\n        /* \"#utility.yul\":5941:5942   */\n      0x00\n        /* \"#utility.yul\":5966:6019   */\n      tag_488\n        /* \"#utility.yul\":6011:6018   */\n      dup5\n        /* \"#utility.yul\":6002:6008   */\n      dup3\n        /* \"#utility.yul\":5991:6000   */\n      dup6\n        /* \"#utility.yul\":5987:6009   */\n      add\n        /* \"#utility.yul\":5966:6019   */\n      tag_354\n      jump\t// in\n    tag_488:\n        /* \"#utility.yul\":5956:6019   */\n      swap2\n      pop\n        /* \"#utility.yul\":5912:6029   */\n      pop\n        /* \"#utility.yul\":5707:6036   */\n      swap3\n      swap2\n      pop\n      pop\n      jump\t// out\n        /* \"#utility.yul\":6042:6160   */\n    tag_369:\n        /* \"#utility.yul\":6129:6153   */\n      tag_490\n        /* \"#utility.yul\":6147:6152   */\n      dup2\n        /* \"#utility.yul\":6129:6153   */\n      tag_350\n      jump\t// in\n    tag_490:\n        /* \"#utility.yul\":6124:6127   */\n      dup3\n        /* \"#utility.yul\":6117:6154   */\n      mstore\n        /* \"#utility.yul\":6042:6160   */\n      pop\n      pop\n      jump\t// out\n        /* \"#utility.yul\":6166:6267   */\n    tag_370:\n        /* \"#utility.yul\":6202:6209   */\n      0x00\n        /* \"#utility.yul\":6242:6260   */\n      0xffffffffffffffff\n        /* \"#utility.yul\":6235:6240   */\n      dup3\n        /* \"#utility.yul\":6231:6261   */\n      and\n        /* \"#utility.yul\":6220:6261   */\n      swap1\n      pop\n        /* \"#utility.yul\":6166:6267   */\n      swap2\n      swap1\n      pop\n      jump\t// out\n        /* \"#utility.yul\":6273:6388   */\n    tag_371:\n        /* \"#utility.yul\":6358:6381   */\n      tag_493\n        /* \"#utility.yul\":6375:6380   */\n      dup2\n        /* \"#utility.yul\":6358:6381   */\n      tag_370\n      jump\t// in\n    tag_493:\n        /* \"#utility.yul\":6353:6356   */\n      dup3\n        /* \"#utility.yul\":6346:6382   */\n      mstore\n        /* \"#utility.yul\":6273:6388   */\n      pop\n      pop\n      jump\t// out\n        /* \"#utility.yul\":6394:6832   */\n    tag_61:\n        /* \"#utility.yul\":6541:6545   */\n      0x00\n        /* \"#utility.yul\":6579:6581   */\n      0x60\n        /* \"#utility.yul\":6568:6577   */\n      dup3\n        /* \"#utility.yul\":6564:6582   */\n      add\n        /* \"#utility.yul\":6556:6582   */\n      swap1\n      pop\n        /* \"#utility.yul\":6592:6663   */\n      tag_495\n        /* \"#utility.yul\":6660:6661   */\n      0x00\n        /* \"#utility.yul\":6649:6658   */\n      dup4\n        /* \"#utility.yul\":6645:6662   */\n      add\n        /* \"#utility.yul\":6636:6642   */\n      dup7\n        /* \"#utility.yul\":6592:6663   */\n      tag_369\n      jump\t// in\n    tag_495:\n        /* \"#utility.yul\":6673:6745   */\n      tag_496\n        /* \"#utility.yul\":6741:6743   */\n      0x20\n        /* \"#utility.yul\":6730:6739   */\n      dup4\n        /* \"#utility.yul\":6726:6744   */\n      add\n        /* \"#utility.yul\":6717:6723   */\n      dup6\n        /* \"#utility.yul\":6673:6745   */\n      tag_345\n      jump\t// in\n    tag_496:\n        /* \"#utility.yul\":6755:6825   */\n      tag_497\n        /* \"#utility.yul\":6821:6823   */\n      0x40\n        /* \"#utility.yul\":6810:6819   */\n      dup4\n        /* \"#utility.yul\":6806:6824   */\n      add\n        /* \"#utility.yul\":6797:6803   */\n      dup5\n        /* \"#utility.yul\":6755:6825   */\n      tag_371\n      jump\t// in\n    tag_497:\n        /* \"#utility.yul\":6394:6832   */\n      swap5\n      swap4\n      pop\n      pop\n      pop\n      pop\n      jump\t// out\n        /* \"#utility.yul\":6838:7312   */\n    tag_72:\n        /* \"#utility.yul\":6906:6912   */\n      0x00\n        /* \"#utility.yul\":6914:6920   */\n      0x00\n        /* \"#utility.yul\":6963:6965   */\n      0x40\n        /* \"#utility.yul\":6951:6960   */\n      dup4\n        /* \"#utility.yul\":6942:6949   */\n      dup6\n        /* \"#utility.yul\":6938:6961   */\n      sub\n        /* \"#utility.yul\":6934:6966   */\n      slt\n        /* \"#utility.yul\":6931:7050   */\n      iszero\n      tag_499\n      jumpi\n        /* \"#utility.yul\":6969:7048   */\n      tag_500\n      tag_347\n      jump\t// in\n    tag_500:\n        /* \"#utility.yul\":6931:7050   */\n    tag_499:\n        /* \"#utility.yul\":7089:7090   */\n      0x00\n        /* \"#utility.yul\":7114:7167   */\n      tag_501\n        /* \"#utility.yul\":7159:7166   */\n      dup6\n        /* \"#utility.yul\":7150:7156   */\n      dup3\n        /* \"#utility.yul\":7139:7148   */\n      dup7\n        /* \"#utility.yul\":7135:7157   */\n      add\n        /* \"#utility.yul\":7114:7167   */\n      tag_354\n      jump\t// in\n    tag_501:\n        /* \"#utility.yul\":7104:7167   */\n      swap3\n      pop\n        /* \"#utility.yul\":7060:7177   */\n      pop\n        /* \"#utility.yul\":7216:7218   */\n      0x20\n        /* \"#utility.yul\":7242:7295   */\n      tag_502\n        /* \"#utility.yul\":7287:7294   */\n      dup6\n        /* \"#utility.yul\":7278:7284   */\n      dup3\n        /* \"#utility.yul\":7267:7276   */\n      dup7\n        /* \"#utility.yul\":7263:7285   */\n      add\n        /* \"#utility.yul\":7242:7295   */\n      tag_352\n      jump\t// in\n    tag_502:\n        /* \"#utility.yul\":7232:7295   */\n      swap2\n      pop\n        /* \"#utility.yul\":7187:7305   */\n      pop\n        /* \"#utility.yul\":6838:7312   */\n      swap3\n      pop\n      swap3\n      swap1\n      pop\n      jump\t// out\n        /* \"#utility.yul\":7318:7647   */\n    tag_77:\n        /* \"#utility.yul\":7377:7383   */\n      0x00\n        /* \"#utility.yul\":7426:7428   */\n      0x20\n        /* \"#utility.yul\":7414:7423   */\n      dup3\n        /* \"#utility.yul\":7405:7412   */\n      dup5\n        /* \"#utility.yul\":7401:7424   */\n      sub\n        /* \"#utility.yul\":7397:7429   */\n      slt\n        /* \"#utility.yul\":7394:7513   */\n      iszero\n      tag_504\n      jumpi\n        /* \"#utility.yul\":7432:7511   */\n      tag_505\n      tag_347\n      jump\t// in\n    tag_505:\n        /* \"#utility.yul\":7394:7513   */\n    tag_504:\n        /* \"#utility.yul\":7552:7553   */\n      0x00\n        /* \"#utility.yul\":7577:7630   */\n      tag_506\n        /* \"#utility.yul\":7622:7629   */\n      dup5\n        /* \"#utility.yul\":7613:7619   */\n      dup3\n        /* \"#utility.yul\":7602:7611   */\n      dup6\n        /* \"#utility.yul\":7598:7620   */\n      add\n        /* \"#utility.yul\":7577:7630   */\n      tag_368\n      jump\t// in\n    tag_506:\n        /* \"#utility.yul\":7567:7630   */\n      swap2\n      pop\n        /* \"#utility.yul\":7523:7640   */\n      pop\n        /* \"#utility.yul\":7318:7647   */\n      swap3\n      swap2\n      pop\n      pop\n      jump\t// out\n        /* \"#utility.yul\":7653:7773   */\n    tag_372:\n        /* \"#utility.yul\":7725:7748   */\n      tag_508\n        /* \"#utility.yul\":7742:7747   */\n      dup2\n        /* \"#utility.yul\":7725:7748   */\n      tag_370\n      jump\t// in\n    tag_508:\n        /* \"#utility.yul\":7718:7723   */\n      dup2\n        /* \"#utility.yul\":7715:7749   */\n      eq\n        /* \"#utility.yul\":7705:7767   */\n      tag_509\n      jumpi\n        /* \"#utility.yul\":7763:7764   */\n      0x00\n        /* \"#utility.yul\":7760:7761   */\n      0x00\n        /* \"#utility.yul\":7753:7765   */\n      revert\n        /* \"#utility.yul\":7705:7767   */\n    tag_509:\n        /* \"#utility.yul\":7653:7773   */\n      pop\n      jump\t// out\n        /* \"#utility.yul\":7779:7916   */\n    tag_373:\n        /* \"#utility.yul\":7824:7829   */\n      0x00\n        /* \"#utility.yul\":7862:7868   */\n      dup2\n        /* \"#utility.yul\":7849:7869   */\n      calldataload\n        /* \"#utility.yul\":7840:7869   */\n      swap1\n      pop\n        /* \"#utility.yul\":7878:7910   */\n      tag_511\n        /* \"#utility.yul\":7904:7909   */\n      dup2\n        /* \"#utility.yul\":7878:7910   */\n      tag_372\n      jump\t// in\n    tag_511:\n        /* \"#utility.yul\":7779:7916   */\n      swap3\n      swap2\n      pop\n      pop\n      jump\t// out\n        /* \"#utility.yul\":7922:8827   */\n    tag_82:\n        /* \"#utility.yul\":8014:8020   */\n      0x00\n        /* \"#utility.yul\":8022:8028   */\n      0x00\n        /* \"#utility.yul\":8030:8036   */\n      0x00\n        /* \"#utility.yul\":8038:8044   */\n      0x00\n        /* \"#utility.yul\":8046:8052   */\n      0x00\n        /* \"#utility.yul\":8095:8098   */\n      0xa0\n        /* \"#utility.yul\":8083:8092   */\n      dup7\n        /* \"#utility.yul\":8074:8081   */\n      dup9\n        /* \"#utility.yul\":8070:8093   */\n      sub\n        /* \"#utility.yul\":8066:8099   */\n      slt\n        /* \"#utility.yul\":8063:8183   */\n      iszero\n      tag_513\n      jumpi\n        /* \"#utility.yul\":8102:8181   */\n      tag_514\n      tag_347\n      jump\t// in\n    tag_514:\n        /* \"#utility.yul\":8063:8183   */\n    tag_513:\n        /* \"#utility.yul\":8222:8223   */\n      0x00\n        /* \"#utility.yul\":8247:8300   */\n      tag_515\n        /* \"#utility.yul\":8292:8299   */\n      dup9\n        /* \"#utility.yul\":8283:8289   */\n      dup3\n        /* \"#utility.yul\":8272:8281   */\n      dup10\n        /* \"#utility.yul\":8268:8290   */\n      add\n        /* \"#utility.yul\":8247:8300   */\n      tag_354\n      jump\t// in\n    tag_515:\n        /* \"#utility.yul\":8237:8300   */\n      swap6\n      pop\n        /* \"#utility.yul\":8193:8310   */\n      pop\n        /* \"#utility.yul\":8349:8351   */\n      0x20\n        /* \"#utility.yul\":8375:8428   */\n      tag_516\n        /* \"#utility.yul\":8420:8427   */\n      dup9\n        /* \"#utility.yul\":8411:8417   */\n      dup3\n        /* \"#utility.yul\":8400:8409   */\n      dup10\n        /* \"#utility.yul\":8396:8418   */\n      add\n        /* \"#utility.yul\":8375:8428   */\n      tag_354\n      jump\t// in\n    tag_516:\n        /* \"#utility.yul\":8365:8428   */\n      swap5\n      pop\n        /* \"#utility.yul\":8320:8438   */\n      pop\n        /* \"#utility.yul\":8477:8479   */\n      0x40\n        /* \"#utility.yul\":8503:8555   */\n      tag_517\n        /* \"#utility.yul\":8547:8554   */\n      dup9\n        /* \"#utility.yul\":8538:8544   */\n      dup3\n        /* \"#utility.yul\":8527:8536   */\n      dup10\n        /* \"#utility.yul\":8523:8545   */\n      add\n        /* \"#utility.yul\":8503:8555   */\n      tag_373\n      jump\t// in\n    tag_517:\n        /* \"#utility.yul\":8493:8555   */\n      swap4\n      pop\n        /* \"#utility.yul\":8448:8565   */\n      pop\n        /* \"#utility.yul\":8604:8606   */\n      0x60\n        /* \"#utility.yul\":8630:8682   */\n      tag_518\n        /* \"#utility.yul\":8674:8681   */\n      dup9\n        /* \"#utility.yul\":8665:8671   */\n      dup3\n        /* \"#utility.yul\":8654:8663   */\n      dup10\n        /* \"#utility.yul\":8650:8672   */\n      add\n        /* \"#utility.yul\":8630:8682   */\n      tag_373\n      jump\t// in\n    tag_518:\n        /* \"#utility.yul\":8620:8682   */\n      swap3\n      pop\n        /* \"#utility.yul\":8575:8692   */\n      pop\n        /* \"#utility.yul\":8731:8734   */\n      0x80\n        /* \"#utility.yul\":8758:8810   */\n      tag_519\n        /* \"#utility.yul\":8802:8809   */\n      dup9\n        /* \"#utility.yul\":8793:8799   */\n      dup3\n        /* \"#utility.yul\":8782:8791   */\n      dup10\n        /* \"#utility.yul\":8778:8800   */\n      add\n        /* \"#utility.yul\":8758:8810   */\n      tag_373\n      jump\t// in\n    tag_519:\n        /* \"#utility.yul\":8748:8810   */\n      swap2\n      pop\n        /* \"#utility.yul\":8702:8820   */\n      pop\n        /* \"#utility.yul\":7922:8827   */\n      swap3\n      swap6\n      pop\n      swap3\n      swap6\n      swap1\n      swap4\n      pop\n      jump\t// out\n        /* \"#utility.yul\":8833:8951   */\n    tag_374:\n        /* \"#utility.yul\":8920:8944   */\n      tag_521\n        /* \"#utility.yul\":8938:8943   */\n      dup2\n        /* \"#utility.yul\":8920:8944   */\n      tag_366\n      jump\t// in\n    tag_521:\n        /* \"#utility.yul\":8915:8918   */\n      dup3\n        /* \"#utility.yul\":8908:8945   */\n      mstore\n        /* \"#utility.yul\":8833:8951   */\n      pop\n      pop\n      jump\t// out\n        /* \"#utility.yul\":8957:9179   */\n    tag_89:\n        /* \"#utility.yul\":9050:9054   */\n      0x00\n        /* \"#utility.yul\":9088:9090   */\n      0x20\n        /* \"#utility.yul\":9077:9086   */\n      dup3\n        /* \"#utility.yul\":9073:9091   */\n      add\n        /* \"#utility.yul\":9065:9091   */\n      swap1\n      pop\n        /* \"#utility.yul\":9101:9172   */\n      tag_523\n        /* \"#utility.yul\":9169:9170   */\n      0x00\n        /* \"#utility.yul\":9158:9167   */\n      dup4\n        /* \"#utility.yul\":9154:9171   */\n      add\n        /* \"#utility.yul\":9145:9151   */\n      dup5\n        /* \"#utility.yul\":9101:9172   */\n      tag_374\n      jump\t// in\n    tag_523:\n        /* \"#utility.yul\":8957:9179   */\n      swap3\n      swap2\n      pop\n      pop\n      jump\t// out\n        /* \"#utility.yul\":9185:9284   */\n    tag_375:\n        /* \"#utility.yul\":9237:9243   */\n      0x00\n        /* \"#utility.yul\":9271:9276   */\n      dup2\n        /* \"#utility.yul\":9265:9277   */\n      mload\n        /* \"#utility.yul\":9255:9277   */\n      swap1\n      pop\n        /* \"#utility.yul\":9185:9284   */\n      swap2\n      swap1\n      pop\n      jump\t// out\n        /* \"#utility.yul\":9290:9459   */\n    tag_376:\n        /* \"#utility.yul\":9374:9385   */\n      0x00\n        /* \"#utility.yul\":9408:9414   */\n      dup3\n        /* \"#utility.yul\":9403:9406   */\n      dup3\n        /* \"#utility.yul\":9396:9415   */\n      mstore\n        /* \"#utility.yul\":9448:9452   */\n      0x20\n        /* \"#utility.yul\":9443:9446   */\n      dup3\n        /* \"#utility.yul\":9439:9453   */\n      add\n        /* \"#utility.yul\":9424:9453   */\n      swap1\n      pop\n        /* \"#utility.yul\":9290:9459   */\n      swap3\n      swap2\n      pop\n      pop\n      jump\t// out\n        /* \"#utility.yul\":9465:9604   */\n    tag_377:\n        /* \"#utility.yul\":9554:9560   */\n      dup3\n        /* \"#utility.yul\":9549:9552   */\n      dup2\n        /* \"#utility.yul\":9544:9547   */\n      dup4\n        /* \"#utility.yul\":9538:9561   */\n      mcopy\n        /* \"#utility.yul\":9595:9596   */\n      0x00\n        /* \"#utility.yul\":9586:9592   */\n      dup4\n        /* \"#utility.yul\":9581:9584   */\n      dup4\n        /* \"#utility.yul\":9577:9593   */\n      add\n        /* \"#utility.yul\":9570:9597   */\n      mstore\n        /* \"#utility.yul\":9465:9604   */\n      pop\n      pop\n      pop\n      jump\t// out\n        /* \"#utility.yul\":9610:9712   */\n    tag_378:\n        /* \"#utility.yul\":9651:9657   */\n      0x00\n        /* \"#utility.yul\":9702:9704   */\n      0x1f\n        /* \"#utility.yul\":9698:9705   */\n      not\n        /* \"#utility.yul\":9693:9695   */\n      0x1f\n        /* \"#utility.yul\":9686:9691   */\n      dup4\n        /* \"#utility.yul\":9682:9696   */\n      add\n        /* \"#utility.yul\":9678:9706   */\n      and\n        /* \"#utility.yul\":9668:9706   */\n      swap1\n      pop\n        /* \"#utility.yul\":9610:9712   */\n      swap2\n      swap1\n      pop\n      jump\t// out\n        /* \"#utility.yul\":9718:10095   */\n    tag_379:\n        /* \"#utility.yul\":9806:9809   */\n      0x00\n        /* \"#utility.yul\":9834:9873   */\n      tag_529\n        /* \"#utility.yul\":9867:9872   */\n      dup3\n        /* \"#utility.yul\":9834:9873   */\n      tag_375\n      jump\t// in\n    tag_529:\n        /* \"#utility.yul\":9889:9960   */\n      tag_530\n        /* \"#utility.yul\":9953:9959   */\n      dup2\n        /* \"#utility.yul\":9948:9951   */\n      dup6\n        /* \"#utility.yul\":9889:9960   */\n      tag_376\n      jump\t// in\n    tag_530:\n        /* \"#utility.yul\":9882:9960   */\n      swap4\n      pop\n        /* \"#utility.yul\":9969:10034   */\n      tag_531\n        /* \"#utility.yul\":10027:10033   */\n      dup2\n        /* \"#utility.yul\":10022:10025   */\n      dup6\n        /* \"#utility.yul\":10015:10019   */\n      0x20\n        /* \"#utility.yul\":10008:10013   */\n      dup7\n        /* \"#utility.yul\":10004:10020   */\n      add\n        /* \"#utility.yul\":9969:10034   */\n      tag_377\n      jump\t// in\n    tag_531:\n        /* \"#utility.yul\":10059:10088   */\n      tag_532\n        /* \"#utility.yul\":10081:10087   */\n      dup2\n        /* \"#utility.yul\":10059:10088   */\n      tag_378\n      jump\t// in\n    tag_532:\n        /* \"#utility.yul\":10054:10057   */\n      dup5\n        /* \"#utility.yul\":10050:10089   */\n      add\n        /* \"#utility.yul\":10043:10089   */\n      swap2\n      pop\n        /* \"#utility.yul\":9810:10095   */\n      pop\n        /* \"#utility.yul\":9718:10095   */\n      swap3\n      swap2\n      pop\n      pop\n      jump\t// out\n        /* \"#utility.yul\":10101:10414   */\n    tag_102:\n        /* \"#utility.yul\":10214:10218   */\n      0x00\n        /* \"#utility.yul\":10252:10254   */\n      0x20\n        /* \"#utility.yul\":10241:10250   */\n      dup3\n        /* \"#utility.yul\":10237:10255   */\n      add\n        /* \"#utility.yul\":10229:10255   */\n      swap1\n      pop\n        /* \"#utility.yul\":10301:10310   */\n      dup2\n        /* \"#utility.yul\":10295:10299   */\n      dup2\n        /* \"#utility.yul\":10291:10311   */\n      sub\n        /* \"#utility.yul\":10287:10288   */\n      0x00\n        /* \"#utility.yul\":10276:10285   */\n      dup4\n        /* \"#utility.yul\":10272:10289   */\n      add\n        /* \"#utility.yul\":10265:10312   */\n      mstore\n        /* \"#utility.yul\":10329:10407   */\n      tag_534\n        /* \"#utility.yul\":10402:10406   */\n      dup2\n        /* \"#utility.yul\":10393:10399   */\n      dup5\n        /* \"#utility.yul\":10329:10407   */\n      tag_379\n      jump\t// in\n    tag_534:\n        /* \"#utility.yul\":10321:10407   */\n      swap1\n      pop\n        /* \"#utility.yul\":10101:10414   */\n      swap3\n      swap2\n      pop\n      pop\n      jump\t// out\n        /* \"#utility.yul\":10420:10638   */\n    tag_112:\n        /* \"#utility.yul\":10511:10515   */\n      0x00\n        /* \"#utility.yul\":10549:10551   */\n      0x20\n        /* \"#utility.yul\":10538:10547   */\n      dup3\n        /* \"#utility.yul\":10534:10552   */\n      add\n        /* \"#utility.yul\":10526:10552   */\n      swap1\n      pop\n        /* \"#utility.yul\":10562:10631   */\n      tag_536\n        /* \"#utility.yul\":10628:10629   */\n      0x00\n        /* \"#utility.yul\":10617:10626   */\n      dup4\n        /* \"#utility.yul\":10613:10630   */\n      add\n        /* \"#utility.yul\":10604:10610   */\n      dup5\n        /* \"#utility.yul\":10562:10631   */\n      tag_371\n      jump\t// in\n    tag_536:\n        /* \"#utility.yul\":10420:10638   */\n      swap3\n      swap2\n      pop\n      pop\n      jump\t// out\n        /* \"#utility.yul\":10644:11181   */\n    tag_118:\n        /* \"#utility.yul\":10813:10817   */\n      0x00\n        /* \"#utility.yul\":10851:10854   */\n      0x80\n        /* \"#utility.yul\":10840:10849   */\n      dup3\n        /* \"#utility.yul\":10836:10855   */\n      add\n        /* \"#utility.yul\":10828:10855   */\n      swap1\n      pop\n        /* \"#utility.yul\":10865:10934   */\n      tag_538\n        /* \"#utility.yul\":10931:10932   */\n      0x00\n        /* \"#utility.yul\":10920:10929   */\n      dup4\n        /* \"#utility.yul\":10916:10933   */\n      add\n        /* \"#utility.yul\":10907:10913   */\n      dup8\n        /* \"#utility.yul\":10865:10934   */\n      tag_371\n      jump\t// in\n    tag_538:\n        /* \"#utility.yul\":10944:11014   */\n      tag_539\n        /* \"#utility.yul\":11010:11012   */\n      0x20\n        /* \"#utility.yul\":10999:11008   */\n      dup4\n        /* \"#utility.yul\":10995:11013   */\n      add\n        /* \"#utility.yul\":10986:10992   */\n      dup7\n        /* \"#utility.yul\":10944:11014   */\n      tag_371\n      jump\t// in\n    tag_539:\n        /* \"#utility.yul\":11024:11094   */\n      tag_540\n        /* \"#utility.yul\":11090:11092   */\n      0x40\n        /* \"#utility.yul\":11079:11088   */\n      dup4\n        /* \"#utility.yul\":11075:11093   */\n      add\n        /* \"#utility.yul\":11066:11072   */\n      dup6\n        /* \"#utility.yul\":11024:11094   */\n      tag_371\n      jump\t// in\n    tag_540:\n        /* \"#utility.yul\":11104:11174   */\n      tag_541\n        /* \"#utility.yul\":11170:11172   */\n      0x60\n        /* \"#utility.yul\":11159:11168   */\n      dup4\n        /* \"#utility.yul\":11155:11173   */\n      add\n        /* \"#utility.yul\":11146:11152   */\n      dup5\n        /* \"#utility.yul\":11104:11174   */\n      tag_371\n      jump\t// in\n    tag_541:\n        /* \"#utility.yul\":10644:11181   */\n      swap6\n      swap5\n      pop\n      pop\n      pop\n      pop\n      pop\n      jump\t// out\n        /* \"#utility.yul\":11187:11354   */\n    tag_380:\n        /* \"#utility.yul\":11327:11346   */\n      0x616c72656164792066696e616c697a6564000000000000000000000000000000\n        /* \"#utility.yul\":11323:11324   */\n      0x00\n        /* \"#utility.yul\":11315:11321   */\n      dup3\n        /* \"#utility.yul\":11311:11325   */\n      add\n        /* \"#utility.yul\":11304:11347   */\n      mstore\n        /* \"#utility.yul\":11187:11354   */\n      pop\n      jump\t// out\n        /* \"#utility.yul\":11360:11726   */\n    tag_381:\n        /* \"#utility.yul\":11502:11505   */\n      0x00\n        /* \"#utility.yul\":11523:11590   */\n      tag_544\n        /* \"#utility.yul\":11587:11589   */\n      0x11\n        /* \"#utility.yul\":11582:11585   */\n      dup4\n        /* \"#utility.yul\":11523:11590   */\n      tag_376\n      jump\t// in\n    tag_544:\n        /* \"#utility.yul\":11516:11590   */\n      swap2\n      pop\n        /* \"#utility.yul\":11599:11692   */\n      tag_545\n        /* \"#utility.yul\":11688:11691   */\n      dup3\n        /* \"#utility.yul\":11599:11692   */\n      tag_380\n      jump\t// in\n    tag_545:\n        /* \"#utility.yul\":11717:11719   */\n      0x20\n        /* \"#utility.yul\":11712:11715   */\n      dup3\n        /* \"#utility.yul\":11708:11720   */\n      add\n        /* \"#utility.yul\":11701:11720   */\n      swap1\n      pop\n        /* \"#utility.yul\":11360:11726   */\n      swap2\n      swap1\n      pop\n      jump\t// out\n        /* \"#utility.yul\":11732:12151   */\n    tag_133:\n        /* \"#utility.yul\":11898:11902   */\n      0x00\n        /* \"#utility.yul\":11936:11938   */\n      0x20\n        /* \"#utility.yul\":11925:11934   */\n      dup3\n        /* \"#utility.yul\":11921:11939   */\n      add\n        /* \"#utility.yul\":11913:11939   */\n      swap1\n      pop\n        /* \"#utility.yul\":11985:11994   */\n      dup2\n        /* \"#utility.yul\":11979:11983   */\n      dup2\n        /* \"#utility.yul\":11975:11995   */\n      sub\n        /* \"#utility.yul\":11971:11972   */\n      0x00\n        /* \"#utility.yul\":11960:11969   */\n      dup4\n        /* \"#utility.yul\":11956:11973   */\n      add\n        /* \"#utility.yul\":11949:11996   */\n      mstore\n        /* \"#utility.yul\":12013:12144   */\n      tag_547\n        /* \"#utility.yul\":12139:12143   */\n      dup2\n        /* \"#utility.yul\":12013:12144   */\n      tag_381\n      jump\t// in\n    tag_547:\n        /* \"#utility.yul\":12005:12144   */\n      swap1\n      pop\n        /* \"#utility.yul\":11732:12151   */\n      swap2\n      swap1\n      pop\n      jump\t// out\n        /* \"#utility.yul\":12157:12337   */\n    tag_382:\n        /* \"#utility.yul\":12205:12282   */\n      0x4e487b7100000000000000000000000000000000000000000000000000000000\n        /* \"#utility.yul\":12202:12203   */\n      0x00\n        /* \"#utility.yul\":12195:12283   */\n      mstore\n        /* \"#utility.yul\":12302:12306   */\n      0x11\n        /* \"#utility.yul\":12299:12300   */\n      0x04\n        /* \"#utility.yul\":12292:12307   */\n      mstore\n        /* \"#utility.yul\":12326:12330   */\n      0x24\n        /* \"#utility.yul\":12323:12324   */\n      0x00\n        /* \"#utility.yul\":12316:12331   */\n      revert\n        /* \"#utility.yul\":12343:12537   */\n    tag_141:\n        /* \"#utility.yul\":12383:12387   */\n      0x00\n        /* \"#utility.yul\":12403:12423   */\n      tag_550\n        /* \"#utility.yul\":12421:12422   */\n      dup3\n        /* \"#utility.yul\":12403:12423   */\n      tag_344\n      jump\t// in\n    tag_550:\n        /* \"#utility.yul\":12398:12423   */\n      swap2\n      pop\n        /* \"#utility.yul\":12437:12457   */\n      tag_551\n        /* \"#utility.yul\":12455:12456   */\n      dup4\n        /* \"#utility.yul\":12437:12457   */\n      tag_344\n      jump\t// in\n    tag_551:\n        /* \"#utility.yul\":12432:12457   */\n      swap3\n      pop\n        /* \"#utility.yul\":12481:12482   */\n      dup3\n        /* \"#utility.yul\":12478:12479   */\n      dup3\n        /* \"#utility.yul\":12474:12483   */\n      sub\n        /* \"#utility.yul\":12466:12483   */\n      swap1\n      pop\n        /* \"#utility.yul\":12505:12506   */\n      dup2\n        /* \"#utility.yul\":12499:12503   */\n      dup2\n        /* \"#utility.yul\":12496:12507   */\n      gt\n        /* \"#utility.yul\":12493:12530   */\n      iszero\n      tag_552\n      jumpi\n        /* \"#utility.yul\":12510:12528   */\n      tag_553\n      tag_382\n      jump\t// in\n    tag_553:\n        /* \"#utility.yul\":12493:12530   */\n    tag_552:\n        /* \"#utility.yul\":12343:12537   */\n      swap3\n      swap2\n      pop\n      pop\n      jump\t// out\n        /* \"#utility.yul\":12543:12734   */\n    tag_146:\n        /* \"#utility.yul\":12583:12586   */\n      0x00\n        /* \"#utility.yul\":12602:12622   */\n      tag_555\n        /* \"#utility.yul\":12620:12621   */\n      dup3\n        /* \"#utility.yul\":12602:12622   */\n      tag_344\n      jump\t// in\n    tag_555:\n        /* \"#utility.yul\":12597:12622   */\n      swap2\n      pop\n        /* \"#utility.yul\":12636:12656   */\n      tag_556\n        /* \"#utility.yul\":12654:12655   */\n      dup4\n        /* \"#utility.yul\":12636:12656   */\n      tag_344\n      jump\t// in\n    tag_556:\n        /* \"#utility.yul\":12631:12656   */\n      swap3\n      pop\n        /* \"#utility.yul\":12679:12680   */\n      dup3\n        /* \"#utility.yul\":12676:12677   */\n      dup3\n        /* \"#utility.yul\":12672:12681   */\n      add\n        /* \"#utility.yul\":12665:12681   */\n      swap1\n      pop\n        /* \"#utility.yul\":12700:12703   */\n      dup1\n        /* \"#utility.yul\":12697:12698   */\n      dup3\n        /* \"#utility.yul\":12694:12704   */\n      gt\n        /* \"#utility.yul\":12691:12727   */\n      iszero\n      tag_557\n      jumpi\n        /* \"#utility.yul\":12707:12725   */\n      tag_558\n      tag_382\n      jump\t// in\n    tag_558:\n        /* \"#utility.yul\":12691:12727   */\n    tag_557:\n        /* \"#utility.yul\":12543:12734   */\n      swap3\n      swap2\n      pop\n      pop\n      jump\t// out\n        /* \"#utility.yul\":12740:12945   */\n    tag_148:\n        /* \"#utility.yul\":12779:12782   */\n      0x00\n        /* \"#utility.yul\":12798:12817   */\n      tag_560\n        /* \"#utility.yul\":12815:12816   */\n      dup3\n        /* \"#utility.yul\":12798:12817   */\n      tag_370\n      jump\t// in\n    tag_560:\n        /* \"#utility.yul\":12793:12817   */\n      swap2\n      pop\n        /* \"#utility.yul\":12831:12850   */\n      tag_561\n        /* \"#utility.yul\":12848:12849   */\n      dup4\n        /* \"#utility.yul\":12831:12850   */\n      tag_370\n      jump\t// in\n    tag_561:\n        /* \"#utility.yul\":12826:12850   */\n      swap3\n      pop\n        /* \"#utility.yul\":12873:12874   */\n      dup3\n        /* \"#utility.yul\":12870:12871   */\n      dup3\n        /* \"#utility.yul\":12866:12875   */\n      add\n        /* \"#utility.yul\":12859:12875   */\n      swap1\n      pop\n        /* \"#utility.yul\":12896:12914   */\n      0xffffffffffffffff\n        /* \"#utility.yul\":12891:12894   */\n      dup2\n        /* \"#utility.yul\":12888:12915   */\n      gt\n        /* \"#utility.yul\":12885:12938   */\n      iszero\n      tag_562\n      jumpi\n        /* \"#utility.yul\":12918:12936   */\n      tag_563\n      tag_382\n      jump\t// in\n    tag_563:\n        /* \"#utility.yul\":12885:12938   */\n    tag_562:\n        /* \"#utility.yul\":12740:12945   */\n      swap3\n      swap2\n      pop\n      pop\n      jump\t// out\n        /* \"#utility.yul\":12951:13504   */\n    tag_150:\n        /* \"#utility.yul\":13128:13132   */\n      0x00\n        /* \"#utility.yul\":13166:13169   */\n      0x80\n        /* \"#utility.yul\":13155:13164   */\n      dup3\n        /* \"#utility.yul\":13151:13170   */\n      add\n        /* \"#utility.yul\":13143:13170   */\n      swap1\n      pop\n        /* \"#utility.yul\":13180:13251   */\n      tag_565\n        /* \"#utility.yul\":13248:13249   */\n      0x00\n        /* \"#utility.yul\":13237:13246   */\n      dup4\n        /* \"#utility.yul\":13233:13250   */\n      add\n        /* \"#utility.yul\":13224:13230   */\n      dup8\n        /* \"#utility.yul\":13180:13251   */\n      tag_369\n      jump\t// in\n    tag_565:\n        /* \"#utility.yul\":13261:13333   */\n      tag_566\n        /* \"#utility.yul\":13329:13331   */\n      0x20\n        /* \"#utility.yul\":13318:13327   */\n      dup4\n        /* \"#utility.yul\":13314:13332   */\n      add\n        /* \"#utility.yul\":13305:13311   */\n      dup7\n        /* \"#utility.yul\":13261:13333   */\n      tag_345\n      jump\t// in\n    tag_566:\n        /* \"#utility.yul\":13343:13415   */\n      tag_567\n        /* \"#utility.yul\":13411:13413   */\n      0x40\n        /* \"#utility.yul\":13400:13409   */\n      dup4\n        /* \"#utility.yul\":13396:13414   */\n      add\n        /* \"#utility.yul\":13387:13393   */\n      dup6\n        /* \"#utility.yul\":13343:13415   */\n      tag_345\n      jump\t// in\n    tag_567:\n        /* \"#utility.yul\":13425:13497   */\n      tag_568\n        /* \"#utility.yul\":13493:13495   */\n      0x60\n        /* \"#utility.yul\":13482:13491   */\n      dup4\n        /* \"#utility.yul\":13478:13496   */\n      add\n        /* \"#utility.yul\":13469:13475   */\n      dup5\n        /* \"#utility.yul\":13425:13497   */\n      tag_345\n      jump\t// in\n    tag_568:\n        /* \"#utility.yul\":12951:13504   */\n      swap6\n      swap5\n      pop\n      pop\n      pop\n      pop\n      pop\n      jump\t// out\n        /* \"#utility.yul\":13510:13589   */\n    tag_383:\n        /* \"#utility.yul\":13549:13556   */\n      0x00\n        /* \"#utility.yul\":13578:13583   */\n      dup2\n        /* \"#utility.yul\":13567:13583   */\n      swap1\n      pop\n        /* \"#utility.yul\":13510:13589   */\n      swap2\n      swap1\n      pop\n      jump\t// out\n        /* \"#utility.yul\":13595:13752   */\n    tag_384:\n        /* \"#utility.yul\":13700:13745   */\n      tag_571\n        /* \"#utility.yul\":13720:13744   */\n      tag_572\n        /* \"#utility.yul\":13738:13743   */\n      dup3\n        /* \"#utility.yul\":13720:13744   */\n      tag_344\n      jump\t// in\n    tag_572:\n        /* \"#utility.yul\":13700:13745   */\n      tag_383\n      jump\t// in\n    tag_571:\n        /* \"#utility.yul\":13695:13698   */\n      dup3\n        /* \"#utility.yul\":13688:13746   */\n      mstore\n        /* \"#utility.yul\":13595:13752   */\n      pop\n      pop\n      jump\t// out\n        /* \"#utility.yul\":13758:13837   */\n    tag_385:\n        /* \"#utility.yul\":13797:13804   */\n      0x00\n        /* \"#utility.yul\":13826:13831   */\n      dup2\n        /* \"#utility.yul\":13815:13831   */\n      swap1\n      pop\n        /* \"#utility.yul\":13758:13837   */\n      swap2\n      swap1\n      pop\n      jump\t// out\n        /* \"#utility.yul\":13843:14000   */\n    tag_386:\n        /* \"#utility.yul\":13948:13993   */\n      tag_575\n        /* \"#utility.yul\":13968:13992   */\n      tag_576\n        /* \"#utility.yul\":13986:13991   */\n      dup3\n        /* \"#utility.yul\":13968:13992   */\n      tag_366\n      jump\t// in\n    tag_576:\n        /* \"#utility.yul\":13948:13993   */\n      tag_385\n      jump\t// in\n    tag_575:\n        /* \"#utility.yul\":13943:13946   */\n      dup3\n        /* \"#utility.yul\":13936:13994   */\n      mstore\n        /* \"#utility.yul\":13843:14000   */\n      pop\n      pop\n      jump\t// out\n        /* \"#utility.yul\":14006:14403   */\n    tag_158:\n        /* \"#utility.yul\":14146:14149   */\n      0x00\n        /* \"#utility.yul\":14161:14236   */\n      tag_578\n        /* \"#utility.yul\":14232:14235   */\n      dup3\n        /* \"#utility.yul\":14223:14229   */\n      dup6\n        /* \"#utility.yul\":14161:14236   */\n      tag_384\n      jump\t// in\n    tag_578:\n        /* \"#utility.yul\":14261:14263   */\n      0x20\n        /* \"#utility.yul\":14256:14259   */\n      dup3\n        /* \"#utility.yul\":14252:14264   */\n      add\n        /* \"#utility.yul\":14245:14264   */\n      swap2\n      pop\n        /* \"#utility.yul\":14274:14349   */\n      tag_579\n        /* \"#utility.yul\":14345:14348   */\n      dup3\n        /* \"#utility.yul\":14336:14342   */\n      dup5\n        /* \"#utility.yul\":14274:14349   */\n      tag_386\n      jump\t// in\n    tag_579:\n        /* \"#utility.yul\":14374:14376   */\n      0x20\n        /* \"#utility.yul\":14369:14372   */\n      dup3\n        /* \"#utility.yul\":14365:14377   */\n      add\n        /* \"#utility.yul\":14358:14377   */\n      swap2\n      pop\n        /* \"#utility.yul\":14394:14397   */\n      dup2\n        /* \"#utility.yul\":14387:14397   */\n      swap1\n      pop\n        /* \"#utility.yul\":14006:14403   */\n      swap4\n      swap3\n      pop\n      pop\n      pop\n      jump\t// out\n        /* \"#utility.yul\":14409:14569   */\n    tag_387:\n        /* \"#utility.yul\":14549:14561   */\n      0x5245454e5452414e435900000000000000000000000000000000000000000000\n        /* \"#utility.yul\":14545:14546   */\n      0x00\n        /* \"#utility.yul\":14537:14543   */\n      dup3\n        /* \"#utility.yul\":14533:14547   */\n      add\n        /* \"#utility.yul\":14526:14562   */\n      mstore\n        /* \"#utility.yul\":14409:14569   */\n      pop\n      jump\t// out\n        /* \"#utility.yul\":14575:14941   */\n    tag_388:\n        /* \"#utility.yul\":14717:14720   */\n      0x00\n        /* \"#utility.yul\":14738:14805   */\n      tag_582\n        /* \"#utility.yul\":14802:14804   */\n      0x0a\n        /* \"#utility.yul\":14797:14800   */\n      dup4\n        /* \"#utility.yul\":14738:14805   */\n      tag_376\n      jump\t// in\n    tag_582:\n        /* \"#utility.yul\":14731:14805   */\n      swap2\n      pop\n        /* \"#utility.yul\":14814:14907   */\n      tag_583\n        /* \"#utility.yul\":14903:14906   */\n      dup3\n        /* \"#utility.yul\":14814:14907   */\n      tag_387\n      jump\t// in\n    tag_583:\n        /* \"#utility.yul\":14932:14934   */\n      0x20\n        /* \"#utility.yul\":14927:14930   */\n      dup3\n        /* \"#utility.yul\":14923:14935   */\n      add\n        /* \"#utility.yul\":14916:14935   */\n      swap1\n      pop\n        /* \"#utility.yul\":14575:14941   */\n      swap2\n      swap1\n      pop\n      jump\t// out\n        /* \"#utility.yul\":14947:15366   */\n    tag_175:\n        /* \"#utility.yul\":15113:15117   */\n      0x00\n        /* \"#utility.yul\":15151:15153   */\n      0x20\n        /* \"#utility.yul\":15140:15149   */\n      dup3\n        /* \"#utility.yul\":15136:15154   */\n      add\n        /* \"#utility.yul\":15128:15154   */\n      swap1\n      pop\n        /* \"#utility.yul\":15200:15209   */\n      dup2\n        /* \"#utility.yul\":15194:15198   */\n      dup2\n        /* \"#utility.yul\":15190:15210   */\n      sub\n        /* \"#utility.yul\":15186:15187   */\n      0x00\n        /* \"#utility.yul\":15175:15184   */\n      dup4\n        /* \"#utility.yul\":15171:15188   */\n      add\n        /* \"#utility.yul\":15164:15211   */\n      mstore\n        /* \"#utility.yul\":15228:15359   */\n      tag_585\n        /* \"#utility.yul\":15354:15358   */\n      dup2\n        /* \"#utility.yul\":15228:15359   */\n      tag_388\n      jump\t// in\n    tag_585:\n        /* \"#utility.yul\":15220:15359   */\n      swap1\n      pop\n        /* \"#utility.yul\":14947:15366   */\n      swap2\n      swap1\n      pop\n      jump\t// out\n        /* \"#utility.yul\":15372:15519   */\n    tag_389:\n        /* \"#utility.yul\":15473:15484   */\n      0x00\n        /* \"#utility.yul\":15510:15513   */\n      dup2\n        /* \"#utility.yul\":15495:15513   */\n      swap1\n      pop\n        /* \"#utility.yul\":15372:15519   */\n      swap3\n      swap2\n      pop\n      pop\n      jump\t// out\n        /* \"#utility.yul\":15525:15639   */\n    tag_390:\n      pop\n      jump\t// out\n        /* \"#utility.yul\":15645:16043   */\n    tag_391:\n        /* \"#utility.yul\":15804:15807   */\n      0x00\n        /* \"#utility.yul\":15825:15908   */\n      tag_589\n        /* \"#utility.yul\":15906:15907   */\n      0x00\n        /* \"#utility.yul\":15901:15904   */\n      dup4\n        /* \"#utility.yul\":15825:15908   */\n      tag_389\n      jump\t// in\n    tag_589:\n        /* \"#utility.yul\":15818:15908   */\n      swap2\n      pop\n        /* \"#utility.yul\":15917:16010   */\n      tag_590\n        /* \"#utility.yul\":16006:16009   */\n      dup3\n        /* \"#utility.yul\":15917:16010   */\n      tag_390\n      jump\t// in\n    tag_590:\n        /* \"#utility.yul\":16035:16036   */\n      0x00\n        /* \"#utility.yul\":16030:16033   */\n      dup3\n        /* \"#utility.yul\":16026:16037   */\n      add\n        /* \"#utility.yul\":16019:16037   */\n      swap1\n      pop\n        /* \"#utility.yul\":15645:16043   */\n      swap2\n      swap1\n      pop\n      jump\t// out\n        /* \"#utility.yul\":16049:16428   */\n    tag_181:\n        /* \"#utility.yul\":16233:16236   */\n      0x00\n        /* \"#utility.yul\":16255:16402   */\n      tag_592\n        /* \"#utility.yul\":16398:16401   */\n      dup3\n        /* \"#utility.yul\":16255:16402   */\n      tag_391\n      jump\t// in\n    tag_592:\n        /* \"#utility.yul\":16248:16402   */\n      swap2\n      pop\n        /* \"#utility.yul\":16419:16422   */\n      dup2\n        /* \"#utility.yul\":16412:16422   */\n      swap1\n      pop\n        /* \"#utility.yul\":16049:16428   */\n      swap2\n      swap1\n      pop\n      jump\t// out\n        /* \"#utility.yul\":16434:16602   */\n    tag_392:\n        /* \"#utility.yul\":16574:16594   */\n      0x70726576696f7573206e6f7420656e6465640000000000000000000000000000\n        /* \"#utility.yul\":16570:16571   */\n      0x00\n        /* \"#utility.yul\":16562:16568   */\n      dup3\n        /* \"#utility.yul\":16558:16572   */\n      add\n        /* \"#utility.yul\":16551:16595   */\n      mstore\n        /* \"#utility.yul\":16434:16602   */\n      pop\n      jump\t// out\n        /* \"#utility.yul\":16608:16974   */\n    tag_393:\n        /* \"#utility.yul\":16750:16753   */\n      0x00\n        /* \"#utility.yul\":16771:16838   */\n      tag_595\n        /* \"#utility.yul\":16835:16837   */\n      0x12\n        /* \"#utility.yul\":16830:16833   */\n      dup4\n        /* \"#utility.yul\":16771:16838   */\n      tag_376\n      jump\t// in\n    tag_595:\n        /* \"#utility.yul\":16764:16838   */\n      swap2\n      pop\n        /* \"#utility.yul\":16847:16940   */\n      tag_596\n        /* \"#utility.yul\":16936:16939   */\n      dup3\n        /* \"#utility.yul\":16847:16940   */\n      tag_392\n      jump\t// in\n    tag_596:\n        /* \"#utility.yul\":16965:16967   */\n      0x20\n        /* \"#utility.yul\":16960:16963   */\n      dup3\n        /* \"#utility.yul\":16956:16968   */\n      add\n        /* \"#utility.yul\":16949:16968   */\n      swap1\n      pop\n        /* \"#utility.yul\":16608:16974   */\n      swap2\n      swap1\n      pop\n      jump\t// out\n        /* \"#utility.yul\":16980:17399   */\n    tag_213:\n        /* \"#utility.yul\":17146:17150   */\n      0x00\n        /* \"#utility.yul\":17184:17186   */\n      0x20\n        /* \"#utility.yul\":17173:17182   */\n      dup3\n        /* \"#utility.yul\":17169:17187   */\n      add\n        /* \"#utility.yul\":17161:17187   */\n      swap1\n      pop\n        /* \"#utility.yul\":17233:17242   */\n      dup2\n        /* \"#utility.yul\":17227:17231   */\n      dup2\n        /* \"#utility.yul\":17223:17243   */\n      sub\n        /* \"#utility.yul\":17219:17220   */\n      0x00\n        /* \"#utility.yul\":17208:17217   */\n      dup4\n        /* \"#utility.yul\":17204:17221   */\n      add\n        /* \"#utility.yul\":17197:17244   */\n      mstore\n        /* \"#utility.yul\":17261:17392   */\n      tag_598\n        /* \"#utility.yul\":17387:17391   */\n      dup2\n        /* \"#utility.yul\":17261:17392   */\n      tag_393\n      jump\t// in\n    tag_598:\n        /* \"#utility.yul\":17253:17392   */\n      swap1\n      pop\n        /* \"#utility.yul\":16980:17399   */\n      swap2\n      swap1\n      pop\n      jump\t// out\n        /* \"#utility.yul\":17405:17583   */\n    tag_394:\n        /* \"#utility.yul\":17545:17575   */\n      0x434f4e4649473a2062616420636f6d6d6974206475726174696f6e7300000000\n        /* \"#utility.yul\":17541:17542   */\n      0x00\n        /* \"#utility.yul\":17533:17539   */\n      dup3\n        /* \"#utility.yul\":17529:17543   */\n      add\n        /* \"#utility.yul\":17522:17576   */\n      mstore\n        /* \"#utility.yul\":17405:17583   */\n      pop\n      jump\t// out\n        /* \"#utility.yul\":17589:17955   */\n    tag_395:\n        /* \"#utility.yul\":17731:17734   */\n      0x00\n        /* \"#utility.yul\":17752:17819   */\n      tag_601\n        /* \"#utility.yul\":17816:17818   */\n      0x1c\n        /* \"#utility.yul\":17811:17814   */\n      dup4\n        /* \"#utility.yul\":17752:17819   */\n      tag_376\n      jump\t// in\n    tag_601:\n        /* \"#utility.yul\":17745:17819   */\n      swap2\n      pop\n        /* \"#utility.yul\":17828:17921   */\n      tag_602\n        /* \"#utility.yul\":17917:17920   */\n      dup3\n        /* \"#utility.yul\":17828:17921   */\n      tag_394\n      jump\t// in\n    tag_602:\n        /* \"#utility.yul\":17946:17948   */\n      0x20\n        /* \"#utility.yul\":17941:17944   */\n      dup3\n        /* \"#utility.yul\":17937:17949   */\n      add\n        /* \"#utility.yul\":17930:17949   */\n      swap1\n      pop\n        /* \"#utility.yul\":17589:17955   */\n      swap2\n      swap1\n      pop\n      jump\t// out\n        /* \"#utility.yul\":17961:18380   */\n    tag_217:\n        /* \"#utility.yul\":18127:18131   */\n      0x00\n        /* \"#utility.yul\":18165:18167   */\n      0x20\n        /* \"#utility.yul\":18154:18163   */\n      dup3\n        /* \"#utility.yul\":18150:18168   */\n      add\n        /* \"#utility.yul\":18142:18168   */\n      swap1\n      pop\n        /* \"#utility.yul\":18214:18223   */\n      dup2\n        /* \"#utility.yul\":18208:18212   */\n      dup2\n        /* \"#utility.yul\":18204:18224   */\n      sub\n        /* \"#utility.yul\":18200:18201   */\n      0x00\n        /* \"#utility.yul\":18189:18198   */\n      dup4\n        /* \"#utility.yul\":18185:18202   */\n      add\n        /* \"#utility.yul\":18178:18225   */\n      mstore\n        /* \"#utility.yul\":18242:18373   */\n      tag_604\n        /* \"#utility.yul\":18368:18372   */\n      dup2\n        /* \"#utility.yul\":18242:18373   */\n      tag_395\n      jump\t// in\n    tag_604:\n        /* \"#utility.yul\":18234:18373   */\n      swap1\n      pop\n        /* \"#utility.yul\":17961:18380   */\n      swap2\n      swap1\n      pop\n      jump\t// out\n        /* \"#utility.yul\":18386:18564   */\n    tag_396:\n        /* \"#utility.yul\":18526:18556   */\n      0x434f4e4649473a206261642072657665616c206475726174696f6e7300000000\n        /* \"#utility.yul\":18522:18523   */\n      0x00\n        /* \"#utility.yul\":18514:18520   */\n      dup3\n        /* \"#utility.yul\":18510:18524   */\n      add\n        /* \"#utility.yul\":18503:18557   */\n      mstore\n        /* \"#utility.yul\":18386:18564   */\n      pop\n      jump\t// out\n        /* \"#utility.yul\":18570:18936   */\n    tag_397:\n        /* \"#utility.yul\":18712:18715   */\n      0x00\n        /* \"#utility.yul\":18733:18800   */\n      tag_607\n        /* \"#utility.yul\":18797:18799   */\n      0x1c\n        /* \"#utility.yul\":18792:18795   */\n      dup4\n        /* \"#utility.yul\":18733:18800   */\n      tag_376\n      jump\t// in\n    tag_607:\n        /* \"#utility.yul\":18726:18800   */\n      swap2\n      pop\n        /* \"#utility.yul\":18809:18902   */\n      tag_608\n        /* \"#utility.yul\":18898:18901   */\n      dup3\n        /* \"#utility.yul\":18809:18902   */\n      tag_396\n      jump\t// in\n    tag_608:\n        /* \"#utility.yul\":18927:18929   */\n      0x20\n        /* \"#utility.yul\":18922:18925   */\n      dup3\n        /* \"#utility.yul\":18918:18930   */\n      add\n        /* \"#utility.yul\":18911:18930   */\n      swap1\n      pop\n        /* \"#utility.yul\":18570:18936   */\n      swap2\n      swap1\n      pop\n      jump\t// out\n        /* \"#utility.yul\":18942:19361   */\n    tag_221:\n        /* \"#utility.yul\":19108:19112   */\n      0x00\n        /* \"#utility.yul\":19146:19148   */\n      0x20\n        /* \"#utility.yul\":19135:19144   */\n      dup3\n        /* \"#utility.yul\":19131:19149   */\n      add\n        /* \"#utility.yul\":19123:19149   */\n      swap1\n      pop\n        /* \"#utility.yul\":19195:19204   */\n      dup2\n        /* \"#utility.yul\":19189:19193   */\n      dup2\n        /* \"#utility.yul\":19185:19205   */\n      sub\n        /* \"#utility.yul\":19181:19182   */\n      0x00\n        /* \"#utility.yul\":19170:19179   */\n      dup4\n        /* \"#utility.yul\":19166:19183   */\n      add\n        /* \"#utility.yul\":19159:19206   */\n      mstore\n        /* \"#utility.yul\":19223:19354   */\n      tag_610\n        /* \"#utility.yul\":19349:19353   */\n      dup2\n        /* \"#utility.yul\":19223:19354   */\n      tag_397\n      jump\t// in\n    tag_610:\n        /* \"#utility.yul\":19215:19354   */\n      swap1\n      pop\n        /* \"#utility.yul\":18942:19361   */\n      swap2\n      swap1\n      pop\n      jump\t// out\n        /* \"#utility.yul\":19367:19545   */\n    tag_398:\n        /* \"#utility.yul\":19507:19537   */\n      0x434f4e4649473a2062616420736574746c65206475726174696f6e7300000000\n        /* \"#utility.yul\":19503:19504   */\n      0x00\n        /* \"#utility.yul\":19495:19501   */\n      dup3\n        /* \"#utility.yul\":19491:19505   */\n      add\n        /* \"#utility.yul\":19484:19538   */\n      mstore\n        /* \"#utility.yul\":19367:19545   */\n      pop\n      jump\t// out\n        /* \"#utility.yul\":19551:19917   */\n    tag_399:\n        /* \"#utility.yul\":19693:19696   */\n      0x00\n        /* \"#utility.yul\":19714:19781   */\n      tag_613\n        /* \"#utility.yul\":19778:19780   */\n      0x1c\n        /* \"#utility.yul\":19773:19776   */\n      dup4\n        /* \"#utility.yul\":19714:19781   */\n      tag_376\n      jump\t// in\n    tag_613:\n        /* \"#utility.yul\":19707:19781   */\n      swap2\n      pop\n        /* \"#utility.yul\":19790:19883   */\n      tag_614\n        /* \"#utility.yul\":19879:19882   */\n      dup3\n        /* \"#utility.yul\":19790:19883   */\n      tag_398\n      jump\t// in\n    tag_614:\n        /* \"#utility.yul\":19908:19910   */\n      0x20\n        /* \"#utility.yul\":19903:19906   */\n      dup3\n        /* \"#utility.yul\":19899:19911   */\n      add\n        /* \"#utility.yul\":19892:19911   */\n      swap1\n      pop\n        /* \"#utility.yul\":19551:19917   */\n      swap2\n      swap1\n      pop\n      jump\t// out\n        /* \"#utility.yul\":19923:20342   */\n    tag_225:\n        /* \"#utility.yul\":20089:20093   */\n      0x00\n        /* \"#utility.yul\":20127:20129   */\n      0x20\n        /* \"#utility.yul\":20116:20125   */\n      dup3\n        /* \"#utility.yul\":20112:20130   */\n      add\n        /* \"#utility.yul\":20104:20130   */\n      swap1\n      pop\n        /* \"#utility.yul\":20176:20185   */\n      dup2\n        /* \"#utility.yul\":20170:20174   */\n      dup2\n        /* \"#utility.yul\":20166:20186   */\n      sub\n        /* \"#utility.yul\":20162:20163   */\n      0x00\n        /* \"#utility.yul\":20151:20160   */\n      dup4\n        /* \"#utility.yul\":20147:20164   */\n      add\n        /* \"#utility.yul\":20140:20187   */\n      mstore\n        /* \"#utility.yul\":20204:20335   */\n      tag_616\n        /* \"#utility.yul\":20330:20334   */\n      dup2\n        /* \"#utility.yul\":20204:20335   */\n      tag_399\n      jump\t// in\n    tag_616:\n        /* \"#utility.yul\":20196:20335   */\n      swap1\n      pop\n        /* \"#utility.yul\":19923:20342   */\n      swap2\n      swap1\n      pop\n      jump\t// out\n        /* \"#utility.yul\":20348:20523   */\n    tag_400:\n        /* \"#utility.yul\":20488:20515   */\n      0x434f4e4649473a20626164207265736572766520707269636500000000000000\n        /* \"#utility.yul\":20484:20485   */\n      0x00\n        /* \"#utility.yul\":20476:20482   */\n      dup3\n        /* \"#utility.yul\":20472:20486   */\n      add\n        /* \"#utility.yul\":20465:20516   */\n      mstore\n        /* \"#utility.yul\":20348:20523   */\n      pop\n      jump\t// out\n        /* \"#utility.yul\":20529:20895   */\n    tag_401:\n        /* \"#utility.yul\":20671:20674   */\n      0x00\n        /* \"#utility.yul\":20692:20759   */\n      tag_619\n        /* \"#utility.yul\":20756:20758   */\n      0x19\n        /* \"#utility.yul\":20751:20754   */\n      dup4\n        /* \"#utility.yul\":20692:20759   */\n      tag_376\n      jump\t// in\n    tag_619:\n        /* \"#utility.yul\":20685:20759   */\n      swap2\n      pop\n        /* \"#utility.yul\":20768:20861   */\n      tag_620\n        /* \"#utility.yul\":20857:20860   */\n      dup3\n        /* \"#utility.yul\":20768:20861   */\n      tag_400\n      jump\t// in\n    tag_620:\n        /* \"#utility.yul\":20886:20888   */\n      0x20\n        /* \"#utility.yul\":20881:20884   */\n      dup3\n        /* \"#utility.yul\":20877:20889   */\n      add\n        /* \"#utility.yul\":20870:20889   */\n      swap1\n      pop\n        /* \"#utility.yul\":20529:20895   */\n      swap2\n      swap1\n      pop\n      jump\t// out\n        /* \"#utility.yul\":20901:21320   */\n    tag_229:\n        /* \"#utility.yul\":21067:21071   */\n      0x00\n        /* \"#utility.yul\":21105:21107   */\n      0x20\n        /* \"#utility.yul\":21094:21103   */\n      dup3\n        /* \"#utility.yul\":21090:21108   */\n      add\n        /* \"#utility.yul\":21082:21108   */\n      swap1\n      pop\n        /* \"#utility.yul\":21154:21163   */\n      dup2\n        /* \"#utility.yul\":21148:21152   */\n      dup2\n        /* \"#utility.yul\":21144:21164   */\n      sub\n        /* \"#utility.yul\":21140:21141   */\n      0x00\n        /* \"#utility.yul\":21129:21138   */\n      dup4\n        /* \"#utility.yul\":21125:21142   */\n      add\n        /* \"#utility.yul\":21118:21165   */\n      mstore\n        /* \"#utility.yul\":21182:21313   */\n      tag_622\n        /* \"#utility.yul\":21308:21312   */\n      dup2\n        /* \"#utility.yul\":21182:21313   */\n      tag_401\n      jump\t// in\n    tag_622:\n        /* \"#utility.yul\":21174:21313   */\n      swap1\n      pop\n        /* \"#utility.yul\":20901:21320   */\n      swap2\n      swap1\n      pop\n      jump\t// out\n        /* \"#utility.yul\":21326:21469   */\n    tag_402:\n        /* \"#utility.yul\":21383:21388   */\n      0x00\n        /* \"#utility.yul\":21414:21420   */\n      dup2\n        /* \"#utility.yul\":21408:21421   */\n      mload\n        /* \"#utility.yul\":21399:21421   */\n      swap1\n      pop\n        /* \"#utility.yul\":21430:21463   */\n      tag_624\n        /* \"#utility.yul\":21457:21462   */\n      dup2\n        /* \"#utility.yul\":21430:21463   */\n      tag_351\n      jump\t// in\n    tag_624:\n        /* \"#utility.yul\":21326:21469   */\n      swap3\n      swap2\n      pop\n      pop\n      jump\t// out\n        /* \"#utility.yul\":21475:21826   */\n    tag_234:\n        /* \"#utility.yul\":21545:21551   */\n      0x00\n        /* \"#utility.yul\":21594:21596   */\n      0x20\n        /* \"#utility.yul\":21582:21591   */\n      dup3\n        /* \"#utility.yul\":21573:21580   */\n      dup5\n        /* \"#utility.yul\":21569:21592   */\n      sub\n        /* \"#utility.yul\":21565:21597   */\n      slt\n        /* \"#utility.yul\":21562:21681   */\n      iszero\n      tag_626\n      jumpi\n        /* \"#utility.yul\":21600:21679   */\n      tag_627\n      tag_347\n      jump\t// in\n    tag_627:\n        /* \"#utility.yul\":21562:21681   */\n    tag_626:\n        /* \"#utility.yul\":21720:21721   */\n      0x00\n        /* \"#utility.yul\":21745:21809   */\n      tag_628\n        /* \"#utility.yul\":21801:21808   */\n      dup5\n        /* \"#utility.yul\":21792:21798   */\n      dup3\n        /* \"#utility.yul\":21781:21790   */\n      dup6\n        /* \"#utility.yul\":21777:21799   */\n      add\n        /* \"#utility.yul\":21745:21809   */\n      tag_402\n      jump\t// in\n    tag_628:\n        /* \"#utility.yul\":21735:21809   */\n      swap2\n      pop\n        /* \"#utility.yul\":21691:21819   */\n      pop\n        /* \"#utility.yul\":21475:21826   */\n      swap3\n      swap2\n      pop\n      pop\n      jump\t// out\n        /* \"#utility.yul\":21832:21991   */\n    tag_403:\n        /* \"#utility.yul\":21972:21983   */\n      0x6e6f74206f776e65720000000000000000000000000000000000000000000000\n        /* \"#utility.yul\":21968:21969   */\n      0x00\n        /* \"#utility.yul\":21960:21966   */\n      dup3\n        /* \"#utility.yul\":21956:21970   */\n      add\n        /* \"#utility.yul\":21949:21984   */\n      mstore\n        /* \"#utility.yul\":21832:21991   */\n      pop\n      jump\t// out\n        /* \"#utility.yul\":21997:22362   */\n    tag_404:\n        /* \"#utility.yul\":22139:22142   */\n      0x00\n        /* \"#utility.yul\":22160:22226   */\n      tag_631\n        /* \"#utility.yul\":22224:22225   */\n      0x09\n        /* \"#utility.yul\":22219:22222   */\n      dup4\n        /* \"#utility.yul\":22160:22226   */\n      tag_376\n      jump\t// in\n    tag_631:\n        /* \"#utility.yul\":22153:22226   */\n      swap2\n      pop\n        /* \"#utility.yul\":22235:22328   */\n      tag_632\n        /* \"#utility.yul\":22324:22327   */\n      dup3\n        /* \"#utility.yul\":22235:22328   */\n      tag_403\n      jump\t// in\n    tag_632:\n        /* \"#utility.yul\":22353:22355   */\n      0x20\n        /* \"#utility.yul\":22348:22351   */\n      dup3\n        /* \"#utility.yul\":22344:22356   */\n      add\n        /* \"#utility.yul\":22337:22356   */\n      swap1\n      pop\n        /* \"#utility.yul\":21997:22362   */\n      swap2\n      swap1\n      pop\n      jump\t// out\n        /* \"#utility.yul\":22368:22787   */\n    tag_237:\n        /* \"#utility.yul\":22534:22538   */\n      0x00\n        /* \"#utility.yul\":22572:22574   */\n      0x20\n        /* \"#utility.yul\":22561:22570   */\n      dup3\n        /* \"#utility.yul\":22557:22575   */\n      add\n        /* \"#utility.yul\":22549:22575   */\n      swap1\n      pop\n        /* \"#utility.yul\":22621:22630   */\n      dup2\n        /* \"#utility.yul\":22615:22619   */\n      dup2\n        /* \"#utility.yul\":22611:22631   */\n      sub\n        /* \"#utility.yul\":22607:22608   */\n      0x00\n        /* \"#utility.yul\":22596:22605   */\n      dup4\n        /* \"#utility.yul\":22592:22609   */\n      add\n        /* \"#utility.yul\":22585:22632   */\n      mstore\n        /* \"#utility.yul\":22649:22780   */\n      tag_634\n        /* \"#utility.yul\":22775:22779   */\n      dup2\n        /* \"#utility.yul\":22649:22780   */\n      tag_404\n      jump\t// in\n    tag_634:\n        /* \"#utility.yul\":22641:22780   */\n      swap1\n      pop\n        /* \"#utility.yul\":22368:22787   */\n      swap2\n      swap1\n      pop\n      jump\t// out\n        /* \"#utility.yul\":22793:22973   */\n    tag_405:\n        /* \"#utility.yul\":22841:22918   */\n      0x4e487b7100000000000000000000000000000000000000000000000000000000\n        /* \"#utility.yul\":22838:22839   */\n      0x00\n        /* \"#utility.yul\":22831:22919   */\n      mstore\n        /* \"#utility.yul\":22938:22942   */\n      0x12\n        /* \"#utility.yul\":22935:22936   */\n      0x04\n        /* \"#utility.yul\":22928:22943   */\n      mstore\n        /* \"#utility.yul\":22962:22966   */\n      0x24\n        /* \"#utility.yul\":22959:22960   */\n      0x00\n        /* \"#utility.yul\":22952:22967   */\n      revert\n        /* \"#utility.yul\":22979:23164   */\n    tag_241:\n        /* \"#utility.yul\":23019:23020   */\n      0x00\n        /* \"#utility.yul\":23036:23056   */\n      tag_637\n        /* \"#utility.yul\":23054:23055   */\n      dup3\n        /* \"#utility.yul\":23036:23056   */\n      tag_344\n      jump\t// in\n    tag_637:\n        /* \"#utility.yul\":23031:23056   */\n      swap2\n      pop\n        /* \"#utility.yul\":23070:23090   */\n      tag_638\n        /* \"#utility.yul\":23088:23089   */\n      dup4\n        /* \"#utility.yul\":23070:23090   */\n      tag_344\n      jump\t// in\n    tag_638:\n        /* \"#utility.yul\":23065:23090   */\n      swap3\n      pop\n        /* \"#utility.yul\":23109:23110   */\n      dup3\n        /* \"#utility.yul\":23099:23134   */\n      tag_639\n      jumpi\n        /* \"#utility.yul\":23114:23132   */\n      tag_640\n      tag_405\n      jump\t// in\n    tag_640:\n        /* \"#utility.yul\":23099:23134   */\n    tag_639:\n        /* \"#utility.yul\":23156:23157   */\n      dup3\n        /* \"#utility.yul\":23153:23154   */\n      dup3\n        /* \"#utility.yul\":23149:23158   */\n      div\n        /* \"#utility.yul\":23144:23158   */\n      swap1\n      pop\n        /* \"#utility.yul\":22979:23164   */\n      swap3\n      swap2\n      pop\n      pop\n      jump\t// out\n        /* \"#utility.yul\":23170:23310   */\n    tag_406:\n        /* \"#utility.yul\":23219:23228   */\n      0x00\n        /* \"#utility.yul\":23252:23304   */\n      tag_642\n        /* \"#utility.yul\":23270:23303   */\n      tag_643\n        /* \"#utility.yul\":23279:23302   */\n      tag_644\n        /* \"#utility.yul\":23296:23301   */\n      dup5\n        /* \"#utility.yul\":23279:23302   */\n      tag_370\n      jump\t// in\n    tag_644:\n        /* \"#utility.yul\":23270:23303   */\n      tag_361\n      jump\t// in\n    tag_643:\n        /* \"#utility.yul\":23252:23304   */\n      tag_344\n      jump\t// in\n    tag_642:\n        /* \"#utility.yul\":23239:23304   */\n      swap1\n      pop\n        /* \"#utility.yul\":23170:23310   */\n      swap2\n      swap1\n      pop\n      jump\t// out\n        /* \"#utility.yul\":23316:23445   */\n    tag_407:\n        /* \"#utility.yul\":23402:23438   */\n      tag_646\n        /* \"#utility.yul\":23432:23437   */\n      dup2\n        /* \"#utility.yul\":23402:23438   */\n      tag_406\n      jump\t// in\n    tag_646:\n        /* \"#utility.yul\":23397:23400   */\n      dup3\n        /* \"#utility.yul\":23390:23439   */\n      mstore\n        /* \"#utility.yul\":23316:23445   */\n      pop\n      pop\n      jump\t// out\n        /* \"#utility.yul\":23451:24434   */\n    tag_248:\n        /* \"#utility.yul\":23733:23737   */\n      0x00\n        /* \"#utility.yul\":23771:23774   */\n      0x0100\n        /* \"#utility.yul\":23760:23769   */\n      dup3\n        /* \"#utility.yul\":23756:23775   */\n      add\n        /* \"#utility.yul\":23748:23775   */\n      swap1\n      pop\n        /* \"#utility.yul\":23785:23856   */\n      tag_648\n        /* \"#utility.yul\":23853:23854   */\n      0x00\n        /* \"#utility.yul\":23842:23851   */\n      dup4\n        /* \"#utility.yul\":23838:23855   */\n      add\n        /* \"#utility.yul\":23829:23835   */\n      dup12\n        /* \"#utility.yul\":23785:23856   */\n      tag_369\n      jump\t// in\n    tag_648:\n        /* \"#utility.yul\":23866:23938   */\n      tag_649\n        /* \"#utility.yul\":23934:23936   */\n      0x20\n        /* \"#utility.yul\":23923:23932   */\n      dup4\n        /* \"#utility.yul\":23919:23937   */\n      add\n        /* \"#utility.yul\":23910:23916   */\n      dup11\n        /* \"#utility.yul\":23866:23938   */\n      tag_345\n      jump\t// in\n    tag_649:\n        /* \"#utility.yul\":23948:24020   */\n      tag_650\n        /* \"#utility.yul\":24016:24018   */\n      0x40\n        /* \"#utility.yul\":24005:24014   */\n      dup4\n        /* \"#utility.yul\":24001:24019   */\n      add\n        /* \"#utility.yul\":23992:23998   */\n      dup10\n        /* \"#utility.yul\":23948:24020   */\n      tag_345\n      jump\t// in\n    tag_650:\n        /* \"#utility.yul\":24030:24102   */\n      tag_651\n        /* \"#utility.yul\":24098:24100   */\n      0x60\n        /* \"#utility.yul\":24087:24096   */\n      dup4\n        /* \"#utility.yul\":24083:24101   */\n      add\n        /* \"#utility.yul\":24074:24080   */\n      dup9\n        /* \"#utility.yul\":24030:24102   */\n      tag_345\n      jump\t// in\n    tag_651:\n        /* \"#utility.yul\":24112:24184   */\n      tag_652\n        /* \"#utility.yul\":24179:24182   */\n      0x80\n        /* \"#utility.yul\":24168:24177   */\n      dup4\n        /* \"#utility.yul\":24164:24183   */\n      add\n        /* \"#utility.yul\":24155:24161   */\n      dup8\n        /* \"#utility.yul\":24112:24184   */\n      tag_407\n      jump\t// in\n    tag_652:\n        /* \"#utility.yul\":24194:24265   */\n      tag_653\n        /* \"#utility.yul\":24260:24263   */\n      0xa0\n        /* \"#utility.yul\":24249:24258   */\n      dup4\n        /* \"#utility.yul\":24245:24264   */\n      add\n        /* \"#utility.yul\":24236:24242   */\n      dup7\n        /* \"#utility.yul\":24194:24265   */\n      tag_371\n      jump\t// in\n    tag_653:\n        /* \"#utility.yul\":24275:24346   */\n      tag_654\n        /* \"#utility.yul\":24341:24344   */\n      0xc0\n        /* \"#utility.yul\":24330:24339   */\n      dup4\n        /* \"#utility.yul\":24326:24345   */\n      add\n        /* \"#utility.yul\":24317:24323   */\n      dup6\n        /* \"#utility.yul\":24275:24346   */\n      tag_371\n      jump\t// in\n    tag_654:\n        /* \"#utility.yul\":24356:24427   */\n      tag_655\n        /* \"#utility.yul\":24422:24425   */\n      0xe0\n        /* \"#utility.yul\":24411:24420   */\n      dup4\n        /* \"#utility.yul\":24407:24426   */\n      add\n        /* \"#utility.yul\":24398:24404   */\n      dup5\n        /* \"#utility.yul\":24356:24427   */\n      tag_371\n      jump\t// in\n    tag_655:\n        /* \"#utility.yul\":23451:24434   */\n      swap10\n      swap9\n      pop\n      pop\n      pop\n      pop\n      pop\n      pop\n      pop\n      pop\n      pop\n      jump\t// out\n        /* \"#utility.yul\":24440:24604   */\n    tag_408:\n        /* \"#utility.yul\":24580:24596   */\n      0x4e46543a206e6f74206f776e6572000000000000000000000000000000000000\n        /* \"#utility.yul\":24576:24577   */\n      0x00\n        /* \"#utility.yul\":24568:24574   */\n      dup3\n        /* \"#utility.yul\":24564:24578   */\n      add\n        /* \"#utility.yul\":24557:24597   */\n      mstore\n        /* \"#utility.yul\":24440:24604   */\n      pop\n      jump\t// out\n        /* \"#utility.yul\":24610:24976   */\n    tag_409:\n        /* \"#utility.yul\":24752:24755   */\n      0x00\n        /* \"#utility.yul\":24773:24840   */\n      tag_658\n        /* \"#utility.yul\":24837:24839   */\n      0x0e\n        /* \"#utility.yul\":24832:24835   */\n      dup4\n        /* \"#utility.yul\":24773:24840   */\n      tag_376\n      jump\t// in\n    tag_658:\n        /* \"#utility.yul\":24766:24840   */\n      swap2\n      pop\n        /* \"#utility.yul\":24849:24942   */\n      tag_659\n        /* \"#utility.yul\":24938:24941   */\n      dup3\n        /* \"#utility.yul\":24849:24942   */\n      tag_408\n      jump\t// in\n    tag_659:\n        /* \"#utility.yul\":24967:24969   */\n      0x20\n        /* \"#utility.yul\":24962:24965   */\n      dup3\n        /* \"#utility.yul\":24958:24970   */\n      add\n        /* \"#utility.yul\":24951:24970   */\n      swap1\n      pop\n        /* \"#utility.yul\":24610:24976   */\n      swap2\n      swap1\n      pop\n      jump\t// out\n        /* \"#utility.yul\":24982:25401   */\n    tag_321:\n        /* \"#utility.yul\":25148:25152   */\n      0x00\n        /* \"#utility.yul\":25186:25188   */\n      0x20\n        /* \"#utility.yul\":25175:25184   */\n      dup3\n        /* \"#utility.yul\":25171:25189   */\n      add\n        /* \"#utility.yul\":25163:25189   */\n      swap1\n      pop\n        /* \"#utility.yul\":25235:25244   */\n      dup2\n        /* \"#utility.yul\":25229:25233   */\n      dup2\n        /* \"#utility.yul\":25225:25245   */\n      sub\n        /* \"#utility.yul\":25221:25222   */\n      0x00\n        /* \"#utility.yul\":25210:25219   */\n      dup4\n        /* \"#utility.yul\":25206:25223   */\n      add\n        /* \"#utility.yul\":25199:25246   */\n      mstore\n        /* \"#utility.yul\":25263:25394   */\n      tag_661\n        /* \"#utility.yul\":25389:25393   */\n      dup2\n        /* \"#utility.yul\":25263:25394   */\n      tag_409\n      jump\t// in\n    tag_661:\n        /* \"#utility.yul\":25255:25394   */\n      swap1\n      pop\n        /* \"#utility.yul\":24982:25401   */\n      swap2\n      swap1\n      pop\n      jump\t// out\n        /* \"#utility.yul\":25407:25739   */\n    tag_329:\n        /* \"#utility.yul\":25528:25532   */\n      0x00\n        /* \"#utility.yul\":25566:25568   */\n      0x40\n        /* \"#utility.yul\":25555:25564   */\n      dup3\n        /* \"#utility.yul\":25551:25569   */\n      add\n        /* \"#utility.yul\":25543:25569   */\n      swap1\n      pop\n        /* \"#utility.yul\":25579:25650   */\n      tag_663\n        /* \"#utility.yul\":25647:25648   */\n      0x00\n        /* \"#utility.yul\":25636:25645   */\n      dup4\n        /* \"#utility.yul\":25632:25649   */\n      add\n        /* \"#utility.yul\":25623:25629   */\n      dup6\n        /* \"#utility.yul\":25579:25650   */\n      tag_369\n      jump\t// in\n    tag_663:\n        /* \"#utility.yul\":25660:25732   */\n      tag_664\n        /* \"#utility.yul\":25728:25730   */\n      0x20\n        /* \"#utility.yul\":25717:25726   */\n      dup4\n        /* \"#utility.yul\":25713:25731   */\n      add\n        /* \"#utility.yul\":25704:25710   */\n      dup5\n        /* \"#utility.yul\":25660:25732   */\n      tag_369\n      jump\t// in\n    tag_664:\n        /* \"#utility.yul\":25407:25739   */\n      swap4\n      swap3\n      pop\n      pop\n      pop\n      jump\t// out\n        /* \"#utility.yul\":25745:25835   */\n    tag_410:\n        /* \"#utility.yul\":25779:25786   */\n      0x00\n        /* \"#utility.yul\":25822:25827   */\n      dup2\n        /* \"#utility.yul\":25815:25828   */\n      iszero\n        /* \"#utility.yul\":25808:25829   */\n      iszero\n        /* \"#utility.yul\":25797:25829   */\n      swap1\n      pop\n        /* \"#utility.yul\":25745:25835   */\n      swap2\n      swap1\n      pop\n      jump\t// out\n        /* \"#utility.yul\":25841:25957   */\n    tag_411:\n        /* \"#utility.yul\":25911:25932   */\n      tag_667\n        /* \"#utility.yul\":25926:25931   */\n      dup2\n        /* \"#utility.yul\":25911:25932   */\n      tag_410\n      jump\t// in\n    tag_667:\n        /* \"#utility.yul\":25904:25909   */\n      dup2\n        /* \"#utility.yul\":25901:25933   */\n      eq\n        /* \"#utility.yul\":25891:25951   */\n      tag_668\n      jumpi\n        /* \"#utility.yul\":25947:25948   */\n      0x00\n        /* \"#utility.yul\":25944:25945   */\n      0x00\n        /* \"#utility.yul\":25937:25949   */\n      revert\n        /* \"#utility.yul\":25891:25951   */\n    tag_668:\n        /* \"#utility.yul\":25841:25957   */\n      pop\n      jump\t// out\n        /* \"#utility.yul\":25963:26100   */\n    tag_412:\n        /* \"#utility.yul\":26017:26022   */\n      0x00\n        /* \"#utility.yul\":26048:26054   */\n      dup2\n        /* \"#utility.yul\":26042:26055   */\n      mload\n        /* \"#utility.yul\":26033:26055   */\n      swap1\n      pop\n        /* \"#utility.yul\":26064:26094   */\n      tag_670\n        /* \"#utility.yul\":26088:26093   */\n      dup2\n        /* \"#utility.yul\":26064:26094   */\n      tag_411\n      jump\t// in\n    tag_670:\n        /* \"#utility.yul\":25963:26100   */\n      swap3\n      swap2\n      pop\n      pop\n      jump\t// out\n        /* \"#utility.yul\":26106:26451   */\n    tag_333:\n        /* \"#utility.yul\":26173:26179   */\n      0x00\n        /* \"#utility.yul\":26222:26224   */\n      0x20\n        /* \"#utility.yul\":26210:26219   */\n      dup3\n        /* \"#utility.yul\":26201:26208   */\n      dup5\n        /* \"#utility.yul\":26197:26220   */\n      sub\n        /* \"#utility.yul\":26193:26225   */\n      slt\n        /* \"#utility.yul\":26190:26309   */\n      iszero\n      tag_672\n      jumpi\n        /* \"#utility.yul\":26228:26307   */\n      tag_673\n      tag_347\n      jump\t// in\n    tag_673:\n        /* \"#utility.yul\":26190:26309   */\n    tag_672:\n        /* \"#utility.yul\":26348:26349   */\n      0x00\n        /* \"#utility.yul\":26373:26434   */\n      tag_674\n        /* \"#utility.yul\":26426:26433   */\n      dup5\n        /* \"#utility.yul\":26417:26423   */\n      dup3\n        /* \"#utility.yul\":26406:26415   */\n      dup6\n        /* \"#utility.yul\":26402:26424   */\n      add\n        /* \"#utility.yul\":26373:26434   */\n      tag_412\n      jump\t// in\n    tag_674:\n        /* \"#utility.yul\":26363:26434   */\n      swap2\n      pop\n        /* \"#utility.yul\":26319:26444   */\n      pop\n        /* \"#utility.yul\":26106:26451   */\n      swap3\n      swap2\n      pop\n      pop\n      jump\t// out\n        /* \"#utility.yul\":26457:26624   */\n    tag_413:\n        /* \"#utility.yul\":26597:26616   */\n      0x4e46543a206e6f7420617070726f766564000000000000000000000000000000\n        /* \"#utility.yul\":26593:26594   */\n      0x00\n        /* \"#utility.yul\":26585:26591   */\n      dup3\n        /* \"#utility.yul\":26581:26595   */\n      add\n        /* \"#utility.yul\":26574:26617   */\n      mstore\n        /* \"#utility.yul\":26457:26624   */\n      pop\n      jump\t// out\n        /* \"#utility.yul\":26630:26996   */\n    tag_414:\n        /* \"#utility.yul\":26772:26775   */\n      0x00\n        /* \"#utility.yul\":26793:26860   */\n      tag_677\n        /* \"#utility.yul\":26857:26859   */\n      0x11\n        /* \"#utility.yul\":26852:26855   */\n      dup4\n        /* \"#utility.yul\":26793:26860   */\n      tag_376\n      jump\t// in\n    tag_677:\n        /* \"#utility.yul\":26786:26860   */\n      swap2\n      pop\n        /* \"#utility.yul\":26869:26962   */\n      tag_678\n        /* \"#utility.yul\":26958:26961   */\n      dup3\n        /* \"#utility.yul\":26869:26962   */\n      tag_413\n      jump\t// in\n    tag_678:\n        /* \"#utility.yul\":26987:26989   */\n      0x20\n        /* \"#utility.yul\":26982:26985   */\n      dup3\n        /* \"#utility.yul\":26978:26990   */\n      add\n        /* \"#utility.yul\":26971:26990   */\n      swap1\n      pop\n        /* \"#utility.yul\":26630:26996   */\n      swap2\n      swap1\n      pop\n      jump\t// out\n        /* \"#utility.yul\":27002:27421   */\n    tag_336:\n        /* \"#utility.yul\":27168:27172   */\n      0x00\n        /* \"#utility.yul\":27206:27208   */\n      0x20\n        /* \"#utility.yul\":27195:27204   */\n      dup3\n        /* \"#utility.yul\":27191:27209   */\n      add\n        /* \"#utility.yul\":27183:27209   */\n      swap1\n      pop\n        /* \"#utility.yul\":27255:27264   */\n      dup2\n        /* \"#utility.yul\":27249:27253   */\n      dup2\n        /* \"#utility.yul\":27245:27265   */\n      sub\n        /* \"#utility.yul\":27241:27242   */\n      0x00\n        /* \"#utility.yul\":27230:27239   */\n      dup4\n        /* \"#utility.yul\":27226:27243   */\n      add\n        /* \"#utility.yul\":27219:27266   */\n      mstore\n        /* \"#utility.yul\":27283:27414   */\n      tag_680\n        /* \"#utility.yul\":27409:27413   */\n      dup2\n        /* \"#utility.yul\":27283:27414   */\n      tag_414\n      jump\t// in\n    tag_680:\n        /* \"#utility.yul\":27275:27414   */\n      swap1\n      pop\n        /* \"#utility.yul\":27002:27421   */\n      swap2\n      swap1\n      pop\n      jump\t// out\n        /* \"#utility.yul\":27427:27869   */\n    tag_338:\n        /* \"#utility.yul\":27576:27580   */\n      0x00\n        /* \"#utility.yul\":27614:27616   */\n      0x60\n        /* \"#utility.yul\":27603:27612   */\n      dup3\n        /* \"#utility.yul\":27599:27617   */\n      add\n        /* \"#utility.yul\":27591:27617   */\n      swap1\n      pop\n        /* \"#utility.yul\":27627:27698   */\n      tag_682\n        /* \"#utility.yul\":27695:27696   */\n      0x00\n        /* \"#utility.yul\":27684:27693   */\n      dup4\n        /* \"#utility.yul\":27680:27697   */\n      add\n        /* \"#utility.yul\":27671:27677   */\n      dup7\n        /* \"#utility.yul\":27627:27698   */\n      tag_369\n      jump\t// in\n    tag_682:\n        /* \"#utility.yul\":27708:27780   */\n      tag_683\n        /* \"#utility.yul\":27776:27778   */\n      0x20\n        /* \"#utility.yul\":27765:27774   */\n      dup4\n        /* \"#utility.yul\":27761:27779   */\n      add\n        /* \"#utility.yul\":27752:27758   */\n      dup6\n        /* \"#utility.yul\":27708:27780   */\n      tag_369\n      jump\t// in\n    tag_683:\n        /* \"#utility.yul\":27790:27862   */\n      tag_684\n        /* \"#utility.yul\":27858:27860   */\n      0x40\n        /* \"#utility.yul\":27847:27856   */\n      dup4\n        /* \"#utility.yul\":27843:27861   */\n      add\n        /* \"#utility.yul\":27834:27840   */\n      dup5\n        /* \"#utility.yul\":27790:27862   */\n      tag_345\n      jump\t// in\n    tag_684:\n        /* \"#utility.yul\":27427:27869   */\n      swap5\n      swap4\n      pop\n      pop\n      pop\n      pop\n      jump\t// out\n\n    auxdata: 0xa26469706673582212209c1440d24adfccb85ac511dc0c1dd1eb7938f60286824758a5ca091d21f1cd7764736f6c634300081e0033\n}\n",
				"bytecode": {
					"linkReferences": {},
					"object": "60a060405260015f55731546bd67237122754d3f0cb761c139f81388b21073ffffffffffffffffffffffffffffffffffffffff1660809073ffffffffffffffffffffffffffffffffffffffff1681525034801561005a575f5ffd5b50608051613e1a61009d5f395f818161099a0152818161196c01528181611c4401528181612c9401528181612dcc01528181612e810152612f5c0152613e1a5ff3fe608060405260043610610129575f3560e01c806386a2cc27116100aa578063b1fb64051161006e578063b1fb6405146103a3578063c8f97366146103df578063d3851f4c14610407578063d3aa699e14610443578063de75a5c014610482578063e9906f2e146104be57610129565b806386a2cc27146102dd578063894da478146102f957806389fb268214610321578063a0743f221461035d578063b1724b461461037957610129565b806362c5424a116100f157806362c5424a146101fd5780636b1da3641461022557806371d946b4146102635780637cf2ed221461028b578063813abc2d146102a157610129565b806301c11d961461012d57806310782f8f14610157578063150b7a02146101815780634bb278f3146101bd5780635e7721f7146101d3575b5f5ffd5b348015610138575f5ffd5b506101416104c8565b60405161014e91906130a2565b60405180910390f35b348015610162575f5ffd5b5061016b6104d8565b60405161017891906130a2565b60405180910390f35b34801561018c575f5ffd5b506101a760048036038101906101a291906131a8565b6104de565b6040516101b49190613266565b60405180910390f35b3480156101c8575f5ffd5b506101d16104f2565b005b3480156101de575f5ffd5b506101e7610998565b6040516101f491906132da565b60405180910390f35b348015610208575f5ffd5b50610223600480360381019061021e9190613326565b6109bc565b005b348015610230575f5ffd5b5061024b60048036038101906102469190613364565b610ead565b60405161025a939291906133c0565b60405180910390f35b34801561026e575f5ffd5b5061028960048036038101906102849190613364565b610f0c565b005b348015610296575f5ffd5b5061029f611161565b005b3480156102ac575f5ffd5b506102c760048036038101906102c291906133f5565b6113b6565b6040516102d491906130a2565b60405180910390f35b6102f760048036038101906102f29190613433565b61140f565b005b348015610304575f5ffd5b5061031f600480360381019061031a9190613488565b61175c565b005b34801561032c575f5ffd5b50610347600480360381019061034291906133f5565b611cf1565b604051610354919061350e565b60405180910390f35b61037760048036038101906103729190613364565b611d49565b005b348015610384575f5ffd5b5061038d61209a565b60405161039a91906130a2565b60405180910390f35b3480156103ae575f5ffd5b506103c960048036038101906103c49190613364565b6120a1565b6040516103d69190613597565b60405180910390f35b3480156103ea575f5ffd5b5061040560048036038101906104009190613364565b61237c565b005b348015610412575f5ffd5b5061042d600480360381019061042891906133f5565b612741565b60405161043a91906135b7565b60405180910390f35b34801561044e575f5ffd5b5061046960048036038101906104649190613364565b6127ad565b60405161047994939291906135d0565b60405180910390f35b34801561048d575f5ffd5b506104a860048036038101906104a391906133f5565b612830565b6040516104b591906130a2565b60405180910390f35b6104c6612889565b005b6b033b2e3c9fd0803ce800000081565b60015481565b5f63150b7a0260e01b905095945050505050565b5f6104fb612bda565b90508060050160109054906101000a900467ffffffffffffffff1667ffffffffffffffff16421015610558576040517ee8f46600000000000000000000000000000000000000000000000000000000815260040160405180910390fd5b8060020160149054906101000a900460ff16156105aa576040517f08c379a00000000000000000000000000000000000000000000000000000000081526004016105a19061365d565b60405180910390fd5b60018160020160146101000a81548160ff0219169083151502179055505f73ffffffffffffffffffffffffffffffffffffffff16816002015f9054906101000a900473ffffffffffffffffffffffffffffffffffffffff1673ffffffffffffffffffffffffffffffffffffffff16036106a9575f816009018190555060018160020160156101000a81548160ff02191690831515021790555061067430826001015f9054906101000a900473ffffffffffffffffffffffffffffffffffffffff16835f0154612c7b565b6001547fa761d07fdb0a6897f18726f15d43008d6c30ce08e44a91775cfd2ef3b61cdad060405160405180910390a250610996565b5f81600301548260080154106106c35781600801546106c9565b81600301545b90505f82600a015f846002015f9054906101000a900473ffffffffffffffffffffffffffffffffffffffff1673ffffffffffffffffffffffffffffffffffffffff1673ffffffffffffffffffffffffffffffffffffffff1681526020019081526020015f206002015490505f83600a015f856001015f9054906101000a900473ffffffffffffffffffffffffffffffffffffffff1673ffffffffffffffffffffffffffffffffffffffff1673ffffffffffffffffffffffffffffffffffffffff1681526020019081526020015f206002015490508183106107cd575f82846107b191906136a8565b90508085600901819055505f8390505f93508092505050610801565b81831015610800575f83836107e291906136a8565b90505f856009018190555080925083826107fc91906136db565b9150505b5b8184600a015f866002015f9054906101000a900473ffffffffffffffffffffffffffffffffffffffff1673ffffffffffffffffffffffffffffffffffffffff1673ffffffffffffffffffffffffffffffffffffffff1681526020019081526020015f20600201819055508084600a015f866001015f9054906101000a900473ffffffffffffffffffffffffffffffffffffffff1673ffffffffffffffffffffffffffffffffffffffff1673ffffffffffffffffffffffffffffffffffffffff1681526020019081526020015f2060020181905550836006015f9054906101000a900467ffffffffffffffff16426108f8919061370e565b8460060160086101000a81548167ffffffffffffffff021916908367ffffffffffffffff1602179055506001547f5ab4254a16d8f1486e035342f3b6736a5efdc0b79886e7525b374bb0ec9ebee1856002015f9054906101000a900473ffffffffffffffffffffffffffffffffffffffff168660070154876008015488600901546040516109899493929190613749565b60405180910390a2505050505b565b7f000000000000000000000000000000000000000000000000000000000000000081565b5f6109c5612bda565b90505f4290508160050160089054906101000a900467ffffffffffffffff1667ffffffffffffffff16811080610a1d57508160050160109054906101000a900467ffffffffffffffff1667ffffffffffffffff168110155b15610a54576040517f74683d7100000000000000000000000000000000000000000000000000000000815260040160405180910390fd5b5f82600a015f3373ffffffffffffffffffffffffffffffffffffffff1673ffffffffffffffffffffffffffffffffffffffff1681526020019081526020015f206003015414610acf576040517f157330ee00000000000000000000000000000000000000000000000000000000815260040160405180910390fd5b5f82600a015f3373ffffffffffffffffffffffffffffffffffffffff1673ffffffffffffffffffffffffffffffffffffffff1681526020019081526020015f205f015490505f5f1b8103610b4f576040517fc06789fa00000000000000000000000000000000000000000000000000000000815260040160405180910390fd5b808585604051602001610b639291906137cc565b6040516020818303038152906040528051906020012014610bb0576040517fc06789fa00000000000000000000000000000000000000000000000000000000815260040160405180910390fd5b8483600a015f3373ffffffffffffffffffffffffffffffffffffffff1673ffffffffffffffffffffffffffffffffffffffff1681526020019081526020015f20600301819055508260030154851015610c35576040517f6b317d5600000000000000000000000000000000000000000000000000000000815260040160405180910390fd5b8260070154851115610cf5575f73ffffffffffffffffffffffffffffffffffffffff16836002015f9054906101000a900473ffffffffffffffffffffffffffffffffffffffff1673ffffffffffffffffffffffffffffffffffffffff1614610ca557826007015483600801819055505b84836007018190555033836002015f6101000a81548173ffffffffffffffffffffffffffffffffffffffff021916908373ffffffffffffffffffffffffffffffffffffffff160217905550610e55565b826007015485148015610de8575082600a015f846002015f9054906101000a900473ffffffffffffffffffffffffffffffffffffffff1673ffffffffffffffffffffffffffffffffffffffff1673ffffffffffffffffffffffffffffffffffffffff1681526020019081526020015f206001015f9054906101000a900467ffffffffffffffff1667ffffffffffffffff1683600a015f3373ffffffffffffffffffffffffffffffffffffffff1673ffffffffffffffffffffffffffffffffffffffff1681526020019081526020015f206001015f9054906101000a900467ffffffffffffffff1667ffffffffffffffff16105b15610e3d5784836007018190555033836002015f6101000a81548173ffffffffffffffffffffffffffffffffffffffff021916908373ffffffffffffffffffffffffffffffffffffffff160217905550610e54565b8260080154851115610e53578483600801819055505b5b5b3373ffffffffffffffffffffffffffffffffffffffff166001547f86d2fbc9069d34216ebc65b38ce840528d3f8cac0c86d2aaa7ab6a9db8bc35d387604051610e9e91906130a2565b60405180910390a35050505050565b5f5f5f5f610eba85612fe9565b9050806002015f9054906101000a900473ffffffffffffffffffffffffffffffffffffffff1681600901548260060160089054906101000a900467ffffffffffffffff16935093509350509193909250565b60025f5403610f50576040517f08c379a0000000000000000000000000000000000000000000000000000000008152600401610f4790613841565b60405180910390fd5b60025f819055505f610f6182612fe9565b90508060020160149054906101000a900460ff16610fab576040517fd3018d1800000000000000000000000000000000000000000000000000000000815260040160405180910390fd5b5f81600a015f3373ffffffffffffffffffffffffffffffffffffffff1673ffffffffffffffffffffffffffffffffffffffff1681526020019081526020015f206002015490505f810361102a576040517f3a6a68b100000000000000000000000000000000000000000000000000000000815260040160405180910390fd5b5f82600a015f3373ffffffffffffffffffffffffffffffffffffffff1673ffffffffffffffffffffffffffffffffffffffff1681526020019081526020015f20600201819055505f3373ffffffffffffffffffffffffffffffffffffffff16826040516110969061388c565b5f6040518083038185875af1925050503d805f81146110d0576040519150601f19603f3d011682016040523d82523d5f602084013e6110d5565b606091505b5050905080611110576040517f750b219c00000000000000000000000000000000000000000000000000000000815260040160405180910390fd5b3373ffffffffffffffffffffffffffffffffffffffff16847f47f74a265269aa6e5423fbcd9a74b3c8771a0c3a9c7cdfb7ebe375b288c06b4e60405160405180910390a350505060015f8190555050565b60025f54036111a5576040517f08c379a000000000000000000000000000000000000000000000000000000000815260040161119c90613841565b60405180910390fd5b60025f819055505f6111b5612bda565b90508060020160149054906101000a900460ff166111ff576040517fd3018d1800000000000000000000000000000000000000000000000000000000815260040160405180910390fd5b5f81600a015f3373ffffffffffffffffffffffffffffffffffffffff1673ffffffffffffffffffffffffffffffffffffffff1681526020019081526020015f206002015490505f810361127e576040517f3a6a68b100000000000000000000000000000000000000000000000000000000815260040160405180910390fd5b5f82600a015f3373ffffffffffffffffffffffffffffffffffffffff1673ffffffffffffffffffffffffffffffffffffffff1681526020019081526020015f20600201819055505f3373ffffffffffffffffffffffffffffffffffffffff16826040516112ea9061388c565b5f6040518083038185875af1925050503d805f8114611324576040519150601f19603f3d011682016040523d82523d5f602084013e611329565b606091505b5050905080611364576040517f750b219c00000000000000000000000000000000000000000000000000000000815260040160405180910390fd5b3373ffffffffffffffffffffffffffffffffffffffff166001547f47f74a265269aa6e5423fbcd9a74b3c8771a0c3a9c7cdfb7ebe375b288c06b4e60405160405180910390a350505060015f81905550565b5f5f6113c184612fe9565b905080600a015f8473ffffffffffffffffffffffffffffffffffffffff1673ffffffffffffffffffffffffffffffffffffffff1681526020019081526020015f206003015491505092915050565b5f611418612bda565b90508060050160089054906101000a900467ffffffffffffffff1667ffffffffffffffff164210158061146b5750806005015f9054906101000a900467ffffffffffffffff1667ffffffffffffffff1642105b156114a2576040517fabfb7dc300000000000000000000000000000000000000000000000000000000815260040160405180910390fd5b5f5f1b82036114dd576040517fc06789fa00000000000000000000000000000000000000000000000000000000815260040160405180910390fd5b806001015f9054906101000a900473ffffffffffffffffffffffffffffffffffffffff1673ffffffffffffffffffffffffffffffffffffffff163373ffffffffffffffffffffffffffffffffffffffff1603611565576040517fef02588900000000000000000000000000000000000000000000000000000000815260040160405180910390fd5b806004015434146115a2576040517f603e3d3600000000000000000000000000000000000000000000000000000000815260040160405180910390fd5b806004015481600a015f3373ffffffffffffffffffffffffffffffffffffffff1673ffffffffffffffffffffffffffffffffffffffff1681526020019081526020015f206002015f8282546115f791906136db565b9250508190555060018160050160188282829054906101000a900467ffffffffffffffff16611626919061370e565b92506101000a81548167ffffffffffffffff021916908367ffffffffffffffff1602179055508060050160189054906101000a900467ffffffffffffffff1681600a015f3373ffffffffffffffffffffffffffffffffffffffff1673ffffffffffffffffffffffffffffffffffffffff1681526020019081526020015f206001015f6101000a81548167ffffffffffffffff021916908367ffffffffffffffff1602179055508181600a015f3373ffffffffffffffffffffffffffffffffffffffff1673ffffffffffffffffffffffffffffffffffffffff1681526020019081526020015f205f01819055503373ffffffffffffffffffffffffffffffffffffffff166001547f0934ea4de468dcd0d9a335c5f97aa77955310c29631c93fbd01d95a00242ec4160405160405180910390a35050565b5f600154146117ce575f60025f60015481526020019081526020015f2090508060020160159054906101000a900460ff166117cc576040517f08c379a00000000000000000000000000000000000000000000000000000000081526004016117c3906138ea565b60405180910390fd5b505b5f8367ffffffffffffffff161180156117f3575062278d008367ffffffffffffffff16105b611832576040517f08c379a000000000000000000000000000000000000000000000000000000000815260040161182990613952565b60405180910390fd5b5f8267ffffffffffffffff16118015611857575062278d008267ffffffffffffffff16105b611896576040517f08c379a000000000000000000000000000000000000000000000000000000000815260040161188d906139ba565b60405180910390fd5b5f8167ffffffffffffffff161180156118bb575062278d008167ffffffffffffffff16105b6118fa576040517f08c379a00000000000000000000000000000000000000000000000000000000081526004016118f190613a22565b60405180910390fd5b5f8411801561191457506b033b2e3c9fd0803ce800000084105b611953576040517f08c379a000000000000000000000000000000000000000000000000000000000815260040161194a90613a8a565b60405180910390fd5b3373ffffffffffffffffffffffffffffffffffffffff167f000000000000000000000000000000000000000000000000000000000000000073ffffffffffffffffffffffffffffffffffffffff16636352211e876040518263ffffffff1660e01b81526004016119c391906130a2565b602060405180830381865afa1580156119de573d5f5f3e3d5ffd5b505050506040513d601f19601f82011682018060405250810190611a029190613abc565b73ffffffffffffffffffffffffffffffffffffffff1614611a58576040517f08c379a0000000000000000000000000000000000000000000000000000000008152600401611a4f90613b31565b60405180910390fd5b611a63333087612c7b565b6001805f828254611a7491906136db565b925050819055505f60025f60015481526020019081526020015f20905085815f018190555033816001015f6101000a81548173ffffffffffffffffffffffffffffffffffffffff021916908373ffffffffffffffffffffffffffffffffffffffff1602179055508481600301819055506b033b2e3c9fd0803ce8000000600286611afe9190613b7c565b10611b15576b033b2e3c9fd0803ce8000000611b23565b600285611b229190613b7c565b5b81600401819055505f42905080826005015f6101000a81548167ffffffffffffffff021916908367ffffffffffffffff1602179055508481611b65919061370e565b8260050160086101000a81548167ffffffffffffffff021916908367ffffffffffffffff160217905550838260050160089054906101000a900467ffffffffffffffff16611bb3919061370e565b8260050160106101000a81548167ffffffffffffffff021916908367ffffffffffffffff16021790555082826006015f6101000a81548167ffffffffffffffff021916908367ffffffffffffffff1602179055503373ffffffffffffffffffffffffffffffffffffffff166001547f086b19d6a6b02147fc1e9f2538ae5b1ff124ee6827666573f5f59710a6bd5ebb7f00000000000000000000000000000000000000000000000000000000000000008a8a8760040154886005015f9054906101000a900467ffffffffffffffff168960050160089054906101000a900467ffffffffffffffff168a60050160109054906101000a900467ffffffffffffffff168b6006015f9054906101000a900467ffffffffffffffff16604051611ce0989796959493929190613bdc565b60405180910390a350505050505050565b5f5f611cfc84612fe9565b905080600a015f8473ffffffffffffffffffffffffffffffffffffffff1673ffffffffffffffffffffffffffffffffffffffff1681526020019081526020015f205f015491505092915050565b60025f5403611d8d576040517f08c379a0000000000000000000000000000000000000000000000000000000008152600401611d8490613841565b60405180910390fd5b60025f819055505f611d9e82612fe9565b90508060020160149054906101000a900460ff16611de8576040517fd3018d1800000000000000000000000000000000000000000000000000000000815260040160405180910390fd5b3373ffffffffffffffffffffffffffffffffffffffff16816002015f9054906101000a900473ffffffffffffffffffffffffffffffffffffffff1673ffffffffffffffffffffffffffffffffffffffff1614611e70576040517f618c724200000000000000000000000000000000000000000000000000000000815260040160405180910390fd5b8060020160159054906101000a900460ff1615611eb9576040517f44a5ddcc00000000000000000000000000000000000000000000000000000000815260040160405180910390fd5b8060060160089054906101000a900467ffffffffffffffff1667ffffffffffffffff1642118015611eee57505f816009015414155b15611f25576040517f58459e8800000000000000000000000000000000000000000000000000000000815260040160405180910390fd5b80600901543414611f62576040517f788a686f00000000000000000000000000000000000000000000000000000000815260040160405180910390fd5b5f816009015414611ff2575f81600901819055503481600a015f836001015f9054906101000a900473ffffffffffffffffffffffffffffffffffffffff1673ffffffffffffffffffffffffffffffffffffffff1673ffffffffffffffffffffffffffffffffffffffff1681526020019081526020015f206002015f828254611fea91906136db565b925050819055505b60018160020160156101000a81548160ff02191690831515021790555061204030826002015f9054906101000a900473ffffffffffffffffffffffffffffffffffffffff16835f0154612c7b565b3373ffffffffffffffffffffffffffffffffffffffff16827fd33ef6ab06e6bf8672161aa6abe1ec1791c393d62213ebd89c67f611e538e5753460405161208791906130a2565b60405180910390a35060015f8190555050565b62278d0081565b60605f6120ad83612fe9565b90505f429050816005015f9054906101000a900467ffffffffffffffff1667ffffffffffffffff1681101561211b576040518060400160405280600781526020017f50454e44494e470000000000000000000000000000000000000000000000000081525092505050612377565b8160050160089054906101000a900467ffffffffffffffff1667ffffffffffffffff16811015612184576040518060400160405280600681526020017f434f4d4d4954000000000000000000000000000000000000000000000000000081525092505050612377565b8160050160109054906101000a900467ffffffffffffffff1667ffffffffffffffff168110156121ed576040518060400160405280600681526020017f52455645414c000000000000000000000000000000000000000000000000000081525092505050612377565b8160020160149054906101000a900460ff16612242576040518060400160405280601081526020017f46494e414c495a455f50454e44494e470000000000000000000000000000000081525092505050612377565b8160020160149054906101000a900460ff16801561226f57508160020160159054906101000a900460ff16155b80156122ca57505f73ffffffffffffffffffffffffffffffffffffffff16826002015f9054906101000a900473ffffffffffffffffffffffffffffffffffffffff1673ffffffffffffffffffffffffffffffffffffffff1614155b80156122f857508160060160089054906101000a900467ffffffffffffffff1667ffffffffffffffff168111155b1561233c576040518060400160405280600d81526020017f41574149545f5041594d454e540000000000000000000000000000000000000081525092505050612377565b6040518060400160405280600581526020017f454e444544000000000000000000000000000000000000000000000000000000815250925050505b919050565b60025f54036123c0576040517f08c379a00000000000000000000000000000000000000000000000000000000081526004016123b790613841565b60405180910390fd5b60025f819055505f6123d182612fe9565b90508060020160149054906101000a900460ff1661241b576040517fd3018d1800000000000000000000000000000000000000000000000000000000815260040160405180910390fd5b8060060160089054906101000a900467ffffffffffffffff1667ffffffffffffffff164211612476576040517fd3018d1800000000000000000000000000000000000000000000000000000000815260040160405180910390fd5b806001015f9054906101000a900473ffffffffffffffffffffffffffffffffffffffff1673ffffffffffffffffffffffffffffffffffffffff163373ffffffffffffffffffffffffffffffffffffffff16146124fe576040517f44a5ddcc00000000000000000000000000000000000000000000000000000000815260040160405180910390fd5b8060020160159054906101000a900460ff1615612547576040517f44a5ddcc00000000000000000000000000000000000000000000000000000000815260040160405180910390fd5b60018160020160156101000a81548160ff02191690831515021790555061259530826001015f9054906101000a900473ffffffffffffffffffffffffffffffffffffffff16835f0154612c7b565b5f81600a015f836002015f9054906101000a900473ffffffffffffffffffffffffffffffffffffffff1673ffffffffffffffffffffffffffffffffffffffff1673ffffffffffffffffffffffffffffffffffffffff1681526020019081526020015f206002015490505f82600a015f846002015f9054906101000a900473ffffffffffffffffffffffffffffffffffffffff1673ffffffffffffffffffffffffffffffffffffffff1673ffffffffffffffffffffffffffffffffffffffff1681526020019081526020015f20600201819055505f3373ffffffffffffffffffffffffffffffffffffffff168260405161268d9061388c565b5f6040518083038185875af1925050503d805f81146126c7576040519150601f19603f3d011682016040523d82523d5f602084013e6126cc565b606091505b5050905080612707576040517f750b219c00000000000000000000000000000000000000000000000000000000815260040160405180910390fd5b837f55c90d9726ff7562e2dda9743c070ab007dd986e4c0a42bcf578362c435a4d8960405160405180910390a250505060015f8190555050565b5f5f61274c84612fe9565b905080600a015f8473ffffffffffffffffffffffffffffffffffffffff1673ffffffffffffffffffffffffffffffffffffffff1681526020019081526020015f206001015f9054906101000a900467ffffffffffffffff1691505092915050565b5f5f5f5f5f6127bb86612fe9565b9050806005015f9054906101000a900467ffffffffffffffff168160050160089054906101000a900467ffffffffffffffff168260050160109054906101000a900467ffffffffffffffff168360060160089054906101000a900467ffffffffffffffff169450945094509450509193509193565b5f5f61283b84612fe9565b905080600a015f8473ffffffffffffffffffffffffffffffffffffffff1673ffffffffffffffffffffffffffffffffffffffff1681526020019081526020015f206002015491505092915050565b60025f54036128cd576040517f08c379a00000000000000000000000000000000000000000000000000000000081526004016128c490613841565b60405180910390fd5b60025f819055505f6128dd612bda565b90508060020160149054906101000a900460ff16612927576040517fd3018d1800000000000000000000000000000000000000000000000000000000815260040160405180910390fd5b3373ffffffffffffffffffffffffffffffffffffffff16816002015f9054906101000a900473ffffffffffffffffffffffffffffffffffffffff1673ffffffffffffffffffffffffffffffffffffffff16146129af576040517f618c724200000000000000000000000000000000000000000000000000000000815260040160405180910390fd5b8060020160159054906101000a900460ff16156129f8576040517f44a5ddcc00000000000000000000000000000000000000000000000000000000815260040160405180910390fd5b8060060160089054906101000a900467ffffffffffffffff1667ffffffffffffffff1642118015612a2d57505f816009015414155b15612a64576040517f58459e8800000000000000000000000000000000000000000000000000000000815260040160405180910390fd5b80600901543414612aa1576040517f788a686f00000000000000000000000000000000000000000000000000000000815260040160405180910390fd5b5f816009015414612b31575f81600901819055503481600a015f836001015f9054906101000a900473ffffffffffffffffffffffffffffffffffffffff1673ffffffffffffffffffffffffffffffffffffffff1673ffffffffffffffffffffffffffffffffffffffff1681526020019081526020015f206002015f828254612b2991906136db565b925050819055505b60018160020160156101000a81548160ff021916908315150217905550612b7f30826002015f9054906101000a900473ffffffffffffffffffffffffffffffffffffffff16835f0154612c7b565b3373ffffffffffffffffffffffffffffffffffffffff166001547fd33ef6ab06e6bf8672161aa6abe1ec1791c393d62213ebd89c67f611e538e57534604051612bc891906130a2565b60405180910390a35060015f81905550565b5f60025f60015481526020019081526020015f2090505f73ffffffffffffffffffffffffffffffffffffffff16816001015f9054906101000a900473ffffffffffffffffffffffffffffffffffffffff1673ffffffffffffffffffffffffffffffffffffffff1603612c78576040517f568ca25700000000000000000000000000000000000000000000000000000000815260040160405180910390fd5b90565b8273ffffffffffffffffffffffffffffffffffffffff167f000000000000000000000000000000000000000000000000000000000000000073ffffffffffffffffffffffffffffffffffffffff16636352211e836040518263ffffffff1660e01b8152600401612ceb91906130a2565b602060405180830381865afa158015612d06573d5f5f3e3d5ffd5b505050506040513d601f19601f82011682018060405250810190612d2a9190613abc565b73ffffffffffffffffffffffffffffffffffffffff1614612d80576040517f08c379a0000000000000000000000000000000000000000000000000000000008152600401612d7790613ca2565b60405180910390fd5b3073ffffffffffffffffffffffffffffffffffffffff168273ffffffffffffffffffffffffffffffffffffffff1603612f5a573073ffffffffffffffffffffffffffffffffffffffff167f000000000000000000000000000000000000000000000000000000000000000073ffffffffffffffffffffffffffffffffffffffff1663081812fc836040518263ffffffff1660e01b8152600401612e2391906130a2565b602060405180830381865afa158015612e3e573d5f5f3e3d5ffd5b505050506040513d601f19601f82011682018060405250810190612e629190613abc565b73ffffffffffffffffffffffffffffffffffffffff161480612f1a57507f000000000000000000000000000000000000000000000000000000000000000073ffffffffffffffffffffffffffffffffffffffff1663e985e9c584306040518363ffffffff1660e01b8152600401612eda929190613cc0565b602060405180830381865afa158015612ef5573d5f5f3e3d5ffd5b505050506040513d601f19601f82011682018060405250810190612f199190613d1c565b5b612f59576040517f08c379a0000000000000000000000000000000000000000000000000000000008152600401612f5090613d91565b60405180910390fd5b5b7f000000000000000000000000000000000000000000000000000000000000000073ffffffffffffffffffffffffffffffffffffffff166342842e0e8484846040518463ffffffff1660e01b8152600401612fb793929190613daf565b5f604051808303815f87803b158015612fce575f5ffd5b505af1158015612fe0573d5f5f3e3d5ffd5b50505050505050565b5f60025f8381526020019081526020015f2090505f73ffffffffffffffffffffffffffffffffffffffff16816001015f9054906101000a900473ffffffffffffffffffffffffffffffffffffffff1673ffffffffffffffffffffffffffffffffffffffff1603613085576040517f568ca25700000000000000000000000000000000000000000000000000000000815260040160405180910390fd5b919050565b5f819050919050565b61309c8161308a565b82525050565b5f6020820190506130b55f830184613093565b92915050565b5f5ffd5b5f5ffd5b5f73ffffffffffffffffffffffffffffffffffffffff82169050919050565b5f6130ec826130c3565b9050919050565b6130fc816130e2565b8114613106575f5ffd5b50565b5f81359050613117816130f3565b92915050565b6131268161308a565b8114613130575f5ffd5b50565b5f813590506131418161311d565b92915050565b5f5ffd5b5f5ffd5b5f5ffd5b5f5f83601f84011261316857613167613147565b5b8235905067ffffffffffffffff8111156131855761318461314b565b5b6020830191508360018202830111156131a1576131a061314f565b5b9250929050565b5f5f5f5f5f608086880312156131c1576131c06130bb565b5b5f6131ce88828901613109565b95505060206131df88828901613109565b94505060406131f088828901613133565b935050606086013567ffffffffffffffff811115613211576132106130bf565b5b61321d88828901613153565b92509250509295509295909350565b5f7fffffffff0000000000000000000000000000000000000000000000000000000082169050919050565b6132608161322c565b82525050565b5f6020820190506132795f830184613257565b92915050565b5f819050919050565b5f6132a261329d613298846130c3565b61327f565b6130c3565b9050919050565b5f6132b382613288565b9050919050565b5f6132c4826132a9565b9050919050565b6132d4816132ba565b82525050565b5f6020820190506132ed5f8301846132cb565b92915050565b5f819050919050565b613305816132f3565b811461330f575f5ffd5b50565b5f81359050613320816132fc565b92915050565b5f5f6040838503121561333c5761333b6130bb565b5b5f61334985828601613133565b925050602061335a85828601613312565b9150509250929050565b5f60208284031215613379576133786130bb565b5b5f61338684828501613133565b91505092915050565b613398816130e2565b82525050565b5f67ffffffffffffffff82169050919050565b6133ba8161339e565b82525050565b5f6060820190506133d35f83018661338f565b6133e06020830185613093565b6133ed60408301846133b1565b949350505050565b5f5f6040838503121561340b5761340a6130bb565b5b5f61341885828601613133565b925050602061342985828601613109565b9150509250929050565b5f60208284031215613448576134476130bb565b5b5f61345584828501613312565b91505092915050565b6134678161339e565b8114613471575f5ffd5b50565b5f813590506134828161345e565b92915050565b5f5f5f5f5f60a086880312156134a1576134a06130bb565b5b5f6134ae88828901613133565b95505060206134bf88828901613133565b94505060406134d088828901613474565b93505060606134e188828901613474565b92505060806134f288828901613474565b9150509295509295909350565b613508816132f3565b82525050565b5f6020820190506135215f8301846134ff565b92915050565b5f81519050919050565b5f82825260208201905092915050565b8281835e5f83830152505050565b5f601f19601f8301169050919050565b5f61356982613527565b6135738185613531565b9350613583818560208601613541565b61358c8161354f565b840191505092915050565b5f6020820190508181035f8301526135af818461355f565b905092915050565b5f6020820190506135ca5f8301846133b1565b92915050565b5f6080820190506135e35f8301876133b1565b6135f060208301866133b1565b6135fd60408301856133b1565b61360a60608301846133b1565b95945050505050565b7f616c72656164792066696e616c697a65640000000000000000000000000000005f82015250565b5f613647601183613531565b915061365282613613565b602082019050919050565b5f6020820190508181035f8301526136748161363b565b9050919050565b7f4e487b71000000000000000000000000000000000000000000000000000000005f52601160045260245ffd5b5f6136b28261308a565b91506136bd8361308a565b92508282039050818111156136d5576136d461367b565b5b92915050565b5f6136e58261308a565b91506136f08361308a565b92508282019050808211156137085761370761367b565b5b92915050565b5f6137188261339e565b91506137238361339e565b9250828201905067ffffffffffffffff8111156137435761374261367b565b5b92915050565b5f60808201905061375c5f83018761338f565b6137696020830186613093565b6137766040830185613093565b6137836060830184613093565b95945050505050565b5f819050919050565b6137a66137a18261308a565b61378c565b82525050565b5f819050919050565b6137c66137c1826132f3565b6137ac565b82525050565b5f6137d78285613795565b6020820191506137e782846137b5565b6020820191508190509392505050565b7f5245454e5452414e4359000000000000000000000000000000000000000000005f82015250565b5f61382b600a83613531565b9150613836826137f7565b602082019050919050565b5f6020820190508181035f8301526138588161381f565b9050919050565b5f81905092915050565b50565b5f6138775f8361385f565b915061388282613869565b5f82019050919050565b5f6138968261386c565b9150819050919050565b7f70726576696f7573206e6f7420656e64656400000000000000000000000000005f82015250565b5f6138d4601283613531565b91506138df826138a0565b602082019050919050565b5f6020820190508181035f830152613901816138c8565b9050919050565b7f434f4e4649473a2062616420636f6d6d6974206475726174696f6e73000000005f82015250565b5f61393c601c83613531565b915061394782613908565b602082019050919050565b5f6020820190508181035f83015261396981613930565b9050919050565b7f434f4e4649473a206261642072657665616c206475726174696f6e73000000005f82015250565b5f6139a4601c83613531565b91506139af82613970565b602082019050919050565b5f6020820190508181035f8301526139d181613998565b9050919050565b7f434f4e4649473a2062616420736574746c65206475726174696f6e73000000005f82015250565b5f613a0c601c83613531565b9150613a17826139d8565b602082019050919050565b5f6020820190508181035f830152613a3981613a00565b9050919050565b7f434f4e4649473a206261642072657365727665207072696365000000000000005f82015250565b5f613a74601983613531565b9150613a7f82613a40565b602082019050919050565b5f6020820190508181035f830152613aa181613a68565b9050919050565b5f81519050613ab6816130f3565b92915050565b5f60208284031215613ad157613ad06130bb565b5b5f613ade84828501613aa8565b91505092915050565b7f6e6f74206f776e657200000000000000000000000000000000000000000000005f82015250565b5f613b1b600983613531565b9150613b2682613ae7565b602082019050919050565b5f6020820190508181035f830152613b4881613b0f565b9050919050565b7f4e487b71000000000000000000000000000000000000000000000000000000005f52601260045260245ffd5b5f613b868261308a565b9150613b918361308a565b925082613ba157613ba0613b4f565b5b828204905092915050565b5f613bc6613bc1613bbc8461339e565b61327f565b61308a565b9050919050565b613bd681613bac565b82525050565b5f61010082019050613bf05f83018b61338f565b613bfd602083018a613093565b613c0a6040830189613093565b613c176060830188613093565b613c246080830187613bcd565b613c3160a08301866133b1565b613c3e60c08301856133b1565b613c4b60e08301846133b1565b9998505050505050505050565b7f4e46543a206e6f74206f776e65720000000000000000000000000000000000005f82015250565b5f613c8c600e83613531565b9150613c9782613c58565b602082019050919050565b5f6020820190508181035f830152613cb981613c80565b9050919050565b5f604082019050613cd35f83018561338f565b613ce0602083018461338f565b9392505050565b5f8115159050919050565b613cfb81613ce7565b8114613d05575f5ffd5b50565b5f81519050613d1681613cf2565b92915050565b5f60208284031215613d3157613d306130bb565b5b5f613d3e84828501613d08565b91505092915050565b7f4e46543a206e6f7420617070726f7665640000000000000000000000000000005f82015250565b5f613d7b601183613531565b9150613d8682613d47565b602082019050919050565b5f6020820190508181035f830152613da881613d6f565b9050919050565b5f606082019050613dc25f83018661338f565b613dcf602083018561338f565b613ddc6040830184613093565b94935050505056fea26469706673582212209c1440d24adfccb85ac511dc0c1dd1eb7938f60286824758a5ca091d21f1cd7764736f6c634300081e0033",
					"opcodes": "PUSH1 0xA0 PUSH1 0x40 MSTORE PUSH1 0x1 PUSH0 SSTORE PUSH20 0x1546BD67237122754D3F0CB761C139F81388B210 PUSH20 0xFFFFFFFFFFFFFFFFFFFFFFFFFFFFFFFFFFFFFFFF AND PUSH1 0x80 SWAP1 PUSH20 0xFFFFFFFFFFFFFFFFFFFFFFFFFFFFFFFFFFFFFFFF AND DUP2 MSTORE POP CALLVALUE DUP1 ISZERO PUSH2 0x5A JUMPI PUSH0 PUSH0 REVERT JUMPDEST POP PUSH1 0x80 MLOAD PUSH2 0x3E1A PUSH2 0x9D PUSH0 CODECOPY PUSH0 DUP2 DUP2 PUSH2 0x99A ADD MSTORE DUP2 DUP2 PUSH2 0x196C ADD MSTORE DUP2 DUP2 PUSH2 0x1C44 ADD MSTORE DUP2 DUP2 PUSH2 0x2C94 ADD MSTORE DUP2 DUP2 PUSH2 0x2DCC ADD MSTORE DUP2 DUP2 PUSH2 0x2E81 ADD MSTORE PUSH2 0x2F5C ADD MSTORE PUSH2 0x3E1A PUSH0 RETURN INVALID PUSH1 0x80 PUSH1 0x40 MSTORE PUSH1 0x4 CALLDATASIZE LT PUSH2 0x129 JUMPI PUSH0 CALLDATALOAD PUSH1 0xE0 SHR DUP1 PUSH4 0x86A2CC27 GT PUSH2 0xAA JUMPI DUP1 PUSH4 0xB1FB6405 GT PUSH2 0x6E JUMPI DUP1 PUSH4 0xB1FB6405 EQ PUSH2 0x3A3 JUMPI DUP1 PUSH4 0xC8F97366 EQ PUSH2 0x3DF JUMPI DUP1 PUSH4 0xD3851F4C EQ PUSH2 0x407 JUMPI DUP1 PUSH4 0xD3AA699E EQ PUSH2 0x443 JUMPI DUP1 PUSH4 0xDE75A5C0 EQ PUSH2 0x482 JUMPI DUP1 PUSH4 0xE9906F2E EQ PUSH2 0x4BE JUMPI PUSH2 0x129 JUMP JUMPDEST DUP1 PUSH4 0x86A2CC27 EQ PUSH2 0x2DD JUMPI DUP1 PUSH4 0x894DA478 EQ PUSH2 0x2F9 JUMPI DUP1 PUSH4 0x89FB2682 EQ PUSH2 0x321 JUMPI DUP1 PUSH4 0xA0743F22 EQ PUSH2 0x35D JUMPI DUP1 PUSH4 0xB1724B46 EQ PUSH2 0x379 JUMPI PUSH2 0x129 JUMP JUMPDEST DUP1 PUSH4 0x62C5424A GT PUSH2 0xF1 JUMPI DUP1 PUSH4 0x62C5424A EQ PUSH2 0x1FD JUMPI DUP1 PUSH4 0x6B1DA364 EQ PUSH2 0x225 JUMPI DUP1 PUSH4 0x71D946B4 EQ PUSH2 0x263 JUMPI DUP1 PUSH4 0x7CF2ED22 EQ PUSH2 0x28B JUMPI DUP1 PUSH4 0x813ABC2D EQ PUSH2 0x2A1 JUMPI PUSH2 0x129 JUMP JUMPDEST DUP1 PUSH4 0x1C11D96 EQ PUSH2 0x12D JUMPI DUP1 PUSH4 0x10782F8F EQ PUSH2 0x157 JUMPI DUP1 PUSH4 0x150B7A02 EQ PUSH2 0x181 JUMPI DUP1 PUSH4 0x4BB278F3 EQ PUSH2 0x1BD JUMPI DUP1 PUSH4 0x5E7721F7 EQ PUSH2 0x1D3 JUMPI JUMPDEST PUSH0 PUSH0 REVERT JUMPDEST CALLVALUE DUP1 ISZERO PUSH2 0x138 JUMPI PUSH0 PUSH0 REVERT JUMPDEST POP PUSH2 0x141 PUSH2 0x4C8 JUMP JUMPDEST PUSH1 0x40 MLOAD PUSH2 0x14E SWAP2 SWAP1 PUSH2 0x30A2 JUMP JUMPDEST PUSH1 0x40 MLOAD DUP1 SWAP2 SUB SWAP1 RETURN JUMPDEST CALLVALUE DUP1 ISZERO PUSH2 0x162 JUMPI PUSH0 PUSH0 REVERT JUMPDEST POP PUSH2 0x16B PUSH2 0x4D8 JUMP JUMPDEST PUSH1 0x40 MLOAD PUSH2 0x178 SWAP2 SWAP1 PUSH2 0x30A2 JUMP JUMPDEST PUSH1 0x40 MLOAD DUP1 SWAP2 SUB SWAP1 RETURN JUMPDEST CALLVALUE DUP1 ISZERO PUSH2 0x18C JUMPI PUSH0 PUSH0 REVERT JUMPDEST POP PUSH2 0x1A7 PUSH1 0x4 DUP1 CALLDATASIZE SUB DUP2 ADD SWAP1 PUSH2 0x1A2 SWAP2 SWAP1 PUSH2 0x31A8 JUMP JUMPDEST PUSH2 0x4DE JUMP JUMPDEST PUSH1 0x40 MLOAD PUSH2 0x1B4 SWAP2 SWAP1 PUSH2 0x3266 JUMP JUMPDEST PUSH1 0x40 MLOAD DUP1 SWAP2 SUB SWAP1 RETURN JUMPDEST CALLVALUE DUP1 ISZERO PUSH2 0x1C8 JUMPI PUSH0 PUSH0 REVERT JUMPDEST POP PUSH2 0x1D1 PUSH2 0x4F2 JUMP JUMPDEST STOP JUMPDEST CALLVALUE DUP1 ISZERO PUSH2 0x1DE JUMPI PUSH0 PUSH0 REVERT JUMPDEST POP PUSH2 0x1E7 PUSH2 0x998 JUMP JUMPDEST PUSH1 0x40 MLOAD PUSH2 0x1F4 SWAP2 SWAP1 PUSH2 0x32DA JUMP JUMPDEST PUSH1 0x40 MLOAD DUP1 SWAP2 SUB SWAP1 RETURN JUMPDEST CALLVALUE DUP1 ISZERO PUSH2 0x208 JUMPI PUSH0 PUSH0 REVERT JUMPDEST POP PUSH2 0x223 PUSH1 0x4 DUP1 CALLDATASIZE SUB DUP2 ADD SWAP1 PUSH2 0x21E SWAP2 SWAP1 PUSH2 0x3326 JUMP JUMPDEST PUSH2 0x9BC JUMP JUMPDEST STOP JUMPDEST CALLVALUE DUP1 ISZERO PUSH2 0x230 JUMPI PUSH0 PUSH0 REVERT JUMPDEST POP PUSH2 0x24B PUSH1 0x4 DUP1 CALLDATASIZE SUB DUP2 ADD SWAP1 PUSH2 0x246 SWAP2 SWAP1 PUSH2 0x3364 JUMP JUMPDEST PUSH2 0xEAD JUMP JUMPDEST PUSH1 0x40 MLOAD PUSH2 0x25A SWAP4 SWAP3 SWAP2 SWAP1 PUSH2 0x33C0 JUMP JUMPDEST PUSH1 0x40 MLOAD DUP1 SWAP2 SUB SWAP1 RETURN JUMPDEST CALLVALUE DUP1 ISZERO PUSH2 0x26E JUMPI PUSH0 PUSH0 REVERT JUMPDEST POP PUSH2 0x289 PUSH1 0x4 DUP1 CALLDATASIZE SUB DUP2 ADD SWAP1 PUSH2 0x284 SWAP2 SWAP1 PUSH2 0x3364 JUMP JUMPDEST PUSH2 0xF0C JUMP JUMPDEST STOP JUMPDEST CALLVALUE DUP1 ISZERO PUSH2 0x296 JUMPI PUSH0 PUSH0 REVERT JUMPDEST POP PUSH2 0x29F PUSH2 0x1161 JUMP JUMPDEST STOP JUMPDEST CALLVALUE DUP1 ISZERO PUSH2 0x2AC JUMPI PUSH0 PUSH0 REVERT JUMPDEST POP PUSH2 0x2C7 PUSH1 0x4 DUP1 CALLDATASIZE SUB DUP2 ADD SWAP1 PUSH2 0x2C2 SWAP2 SWAP1 PUSH2 0x33F5 JUMP JUMPDEST PUSH2 0x13B6 JUMP JUMPDEST PUSH1 0x40 MLOAD PUSH2 0x2D4 SWAP2 SWAP1 PUSH2 0x30A2 JUMP JUMPDEST PUSH1 0x40 MLOAD DUP1 SWAP2 SUB SWAP1 RETURN JUMPDEST PUSH2 0x2F7 PUSH1 0x4 DUP1 CALLDATASIZE SUB DUP2 ADD SWAP1 PUSH2 0x2F2 SWAP2 SWAP1 PUSH2 0x3433 JUMP JUMPDEST PUSH2 0x140F JUMP JUMPDEST STOP JUMPDEST CALLVALUE DUP1 ISZERO PUSH2 0x304 JUMPI PUSH0 PUSH0 REVERT JUMPDEST POP PUSH2 0x31F PUSH1 0x4 DUP1 CALLDATASIZE SUB DUP2 ADD SWAP1 PUSH2 0x31A SWAP2 SWAP1 PUSH2 0x3488 JUMP JUMPDEST PUSH2 0x175C JUMP JUMPDEST STOP JUMPDEST CALLVALUE DUP1 ISZERO PUSH2 0x32C JUMPI PUSH0 PUSH0 REVERT JUMPDEST POP PUSH2 0x347 PUSH1 0x4 DUP1 CALLDATASIZE SUB DUP2 ADD SWAP1 PUSH2 0x342 SWAP2 SWAP1 PUSH2 0x33F5 JUMP JUMPDEST PUSH2 0x1CF1 JUMP JUMPDEST PUSH1 0x40 MLOAD PUSH2 0x354 SWAP2 SWAP1 PUSH2 0x350E JUMP JUMPDEST PUSH1 0x40 MLOAD DUP1 SWAP2 SUB SWAP1 RETURN JUMPDEST PUSH2 0x377 PUSH1 0x4 DUP1 CALLDATASIZE SUB DUP2 ADD SWAP1 PUSH2 0x372 SWAP2 SWAP1 PUSH2 0x3364 JUMP JUMPDEST PUSH2 0x1D49 JUMP JUMPDEST STOP JUMPDEST CALLVALUE DUP1 ISZERO PUSH2 0x384 JUMPI PUSH0 PUSH0 REVERT JUMPDEST POP PUSH2 0x38D PUSH2 0x209A JUMP JUMPDEST PUSH1 0x40 MLOAD PUSH2 0x39A SWAP2 SWAP1 PUSH2 0x30A2 JUMP JUMPDEST PUSH1 0x40 MLOAD DUP1 SWAP2 SUB SWAP1 RETURN JUMPDEST CALLVALUE DUP1 ISZERO PUSH2 0x3AE JUMPI PUSH0 PUSH0 REVERT JUMPDEST POP PUSH2 0x3C9 PUSH1 0x4 DUP1 CALLDATASIZE SUB DUP2 ADD SWAP1 PUSH2 0x3C4 SWAP2 SWAP1 PUSH2 0x3364 JUMP JUMPDEST PUSH2 0x20A1 JUMP JUMPDEST PUSH1 0x40 MLOAD PUSH2 0x3D6 SWAP2 SWAP1 PUSH2 0x3597 JUMP JUMPDEST PUSH1 0x40 MLOAD DUP1 SWAP2 SUB SWAP1 RETURN JUMPDEST CALLVALUE DUP1 ISZERO PUSH2 0x3EA JUMPI PUSH0 PUSH0 REVERT JUMPDEST POP PUSH2 0x405 PUSH1 0x4 DUP1 CALLDATASIZE SUB DUP2 ADD SWAP1 PUSH2 0x400 SWAP2 SWAP1 PUSH2 0x3364 JUMP JUMPDEST PUSH2 0x237C JUMP JUMPDEST STOP JUMPDEST CALLVALUE DUP1 ISZERO PUSH2 0x412 JUMPI PUSH0 PUSH0 REVERT JUMPDEST POP PUSH2 0x42D PUSH1 0x4 DUP1 CALLDATASIZE SUB DUP2 ADD SWAP1 PUSH2 0x428 SWAP2 SWAP1 PUSH2 0x33F5 JUMP JUMPDEST PUSH2 0x2741 JUMP JUMPDEST PUSH1 0x40 MLOAD PUSH2 0x43A SWAP2 SWAP1 PUSH2 0x35B7 JUMP JUMPDEST PUSH1 0x40 MLOAD DUP1 SWAP2 SUB SWAP1 RETURN JUMPDEST CALLVALUE DUP1 ISZERO PUSH2 0x44E JUMPI PUSH0 PUSH0 REVERT JUMPDEST POP PUSH2 0x469 PUSH1 0x4 DUP1 CALLDATASIZE SUB DUP2 ADD SWAP1 PUSH2 0x464 SWAP2 SWAP1 PUSH2 0x3364 JUMP JUMPDEST PUSH2 0x27AD JUMP JUMPDEST PUSH1 0x40 MLOAD PUSH2 0x479 SWAP5 SWAP4 SWAP3 SWAP2 SWAP1 PUSH2 0x35D0 JUMP JUMPDEST PUSH1 0x40 MLOAD DUP1 SWAP2 SUB SWAP1 RETURN JUMPDEST CALLVALUE DUP1 ISZERO PUSH2 0x48D JUMPI PUSH0 PUSH0 REVERT JUMPDEST POP PUSH2 0x4A8 PUSH1 0x4 DUP1 CALLDATASIZE SUB DUP2 ADD SWAP1 PUSH2 0x4A3 SWAP2 SWAP1 PUSH2 0x33F5 JUMP JUMPDEST PUSH2 0x2830 JUMP JUMPDEST PUSH1 0x40 MLOAD PUSH2 0x4B5 SWAP2 SWAP1 PUSH2 0x30A2 JUMP JUMPDEST PUSH1 0x40 MLOAD DUP1 SWAP2 SUB SWAP1 RETURN JUMPDEST PUSH2 0x4C6 PUSH2 0x2889 JUMP JUMPDEST STOP JUMPDEST PUSH12 0x33B2E3C9FD0803CE8000000 DUP2 JUMP JUMPDEST PUSH1 0x1 SLOAD DUP2 JUMP JUMPDEST PUSH0 PUSH4 0x150B7A02 PUSH1 0xE0 SHL SWAP1 POP SWAP6 SWAP5 POP POP POP POP POP JUMP JUMPDEST PUSH0 PUSH2 0x4FB PUSH2 0x2BDA JUMP JUMPDEST SWAP1 POP DUP1 PUSH1 0x5 ADD PUSH1 0x10 SWAP1 SLOAD SWAP1 PUSH2 0x100 EXP SWAP1 DIV PUSH8 0xFFFFFFFFFFFFFFFF AND PUSH8 0xFFFFFFFFFFFFFFFF AND TIMESTAMP LT ISZERO PUSH2 0x558 JUMPI PUSH1 0x40 MLOAD PUSH31 0xE8F46600000000000000000000000000000000000000000000000000000000 DUP2 MSTORE PUSH1 0x4 ADD PUSH1 0x40 MLOAD DUP1 SWAP2 SUB SWAP1 REVERT JUMPDEST DUP1 PUSH1 0x2 ADD PUSH1 0x14 SWAP1 SLOAD SWAP1 PUSH2 0x100 EXP SWAP1 DIV PUSH1 0xFF AND ISZERO PUSH2 0x5AA JUMPI PUSH1 0x40 MLOAD PUSH32 0x8C379A000000000000000000000000000000000000000000000000000000000 DUP2 MSTORE PUSH1 0x4 ADD PUSH2 0x5A1 SWAP1 PUSH2 0x365D JUMP JUMPDEST PUSH1 0x40 MLOAD DUP1 SWAP2 SUB SWAP1 REVERT JUMPDEST PUSH1 0x1 DUP2 PUSH1 0x2 ADD PUSH1 0x14 PUSH2 0x100 EXP DUP2 SLOAD DUP2 PUSH1 0xFF MUL NOT AND SWAP1 DUP4 ISZERO ISZERO MUL OR SWAP1 SSTORE POP PUSH0 PUSH20 0xFFFFFFFFFFFFFFFFFFFFFFFFFFFFFFFFFFFFFFFF AND DUP2 PUSH1 0x2 ADD PUSH0 SWAP1 SLOAD SWAP1 PUSH2 0x100 EXP SWAP1 DIV PUSH20 0xFFFFFFFFFFFFFFFFFFFFFFFFFFFFFFFFFFFFFFFF AND PUSH20 0xFFFFFFFFFFFFFFFFFFFFFFFFFFFFFFFFFFFFFFFF AND SUB PUSH2 0x6A9 JUMPI PUSH0 DUP2 PUSH1 0x9 ADD DUP2 SWAP1 SSTORE POP PUSH1 0x1 DUP2 PUSH1 0x2 ADD PUSH1 0x15 PUSH2 0x100 EXP DUP2 SLOAD DUP2 PUSH1 0xFF MUL NOT AND SWAP1 DUP4 ISZERO ISZERO MUL OR SWAP1 SSTORE POP PUSH2 0x674 ADDRESS DUP3 PUSH1 0x1 ADD PUSH0 SWAP1 SLOAD SWAP1 PUSH2 0x100 EXP SWAP1 DIV PUSH20 0xFFFFFFFFFFFFFFFFFFFFFFFFFFFFFFFFFFFFFFFF AND DUP4 PUSH0 ADD SLOAD PUSH2 0x2C7B JUMP JUMPDEST PUSH1 0x1 SLOAD PUSH32 0xA761D07FDB0A6897F18726F15D43008D6C30CE08E44A91775CFD2EF3B61CDAD0 PUSH1 0x40 MLOAD PUSH1 0x40 MLOAD DUP1 SWAP2 SUB SWAP1 LOG2 POP PUSH2 0x996 JUMP JUMPDEST PUSH0 DUP2 PUSH1 0x3 ADD SLOAD DUP3 PUSH1 0x8 ADD SLOAD LT PUSH2 0x6C3 JUMPI DUP2 PUSH1 0x8 ADD SLOAD PUSH2 0x6C9 JUMP JUMPDEST DUP2 PUSH1 0x3 ADD SLOAD JUMPDEST SWAP1 POP PUSH0 DUP3 PUSH1 0xA ADD PUSH0 DUP5 PUSH1 0x2 ADD PUSH0 SWAP1 SLOAD SWAP1 PUSH2 0x100 EXP SWAP1 DIV PUSH20 0xFFFFFFFFFFFFFFFFFFFFFFFFFFFFFFFFFFFFFFFF AND PUSH20 0xFFFFFFFFFFFFFFFFFFFFFFFFFFFFFFFFFFFFFFFF AND PUSH20 0xFFFFFFFFFFFFFFFFFFFFFFFFFFFFFFFFFFFFFFFF AND DUP2 MSTORE PUSH1 0x20 ADD SWAP1 DUP2 MSTORE PUSH1 0x20 ADD PUSH0 KECCAK256 PUSH1 0x2 ADD SLOAD SWAP1 POP PUSH0 DUP4 PUSH1 0xA ADD PUSH0 DUP6 PUSH1 0x1 ADD PUSH0 SWAP1 SLOAD SWAP1 PUSH2 0x100 EXP SWAP1 DIV PUSH20 0xFFFFFFFFFFFFFFFFFFFFFFFFFFFFFFFFFFFFFFFF AND PUSH20 0xFFFFFFFFFFFFFFFFFFFFFFFFFFFFFFFFFFFFFFFF AND PUSH20 0xFFFFFFFFFFFFFFFFFFFFFFFFFFFFFFFFFFFFFFFF AND DUP2 MSTORE PUSH1 0x20 ADD SWAP1 DUP2 MSTORE PUSH1 0x20 ADD PUSH0 KECCAK256 PUSH1 0x2 ADD SLOAD SWAP1 POP DUP2 DUP4 LT PUSH2 0x7CD JUMPI PUSH0 DUP3 DUP5 PUSH2 0x7B1 SWAP2 SWAP1 PUSH2 0x36A8 JUMP JUMPDEST SWAP1 POP DUP1 DUP6 PUSH1 0x9 ADD DUP2 SWAP1 SSTORE POP PUSH0 DUP4 SWAP1 POP PUSH0 SWAP4 POP DUP1 SWAP3 POP POP POP PUSH2 0x801 JUMP JUMPDEST DUP2 DUP4 LT ISZERO PUSH2 0x800 JUMPI PUSH0 DUP4 DUP4 PUSH2 0x7E2 SWAP2 SWAP1 PUSH2 0x36A8 JUMP JUMPDEST SWAP1 POP PUSH0 DUP6 PUSH1 0x9 ADD DUP2 SWAP1 SSTORE POP DUP1 SWAP3 POP DUP4 DUP3 PUSH2 0x7FC SWAP2 SWAP1 PUSH2 0x36DB JUMP JUMPDEST SWAP2 POP POP JUMPDEST JUMPDEST DUP2 DUP5 PUSH1 0xA ADD PUSH0 DUP7 PUSH1 0x2 ADD PUSH0 SWAP1 SLOAD SWAP1 PUSH2 0x100 EXP SWAP1 DIV PUSH20 0xFFFFFFFFFFFFFFFFFFFFFFFFFFFFFFFFFFFFFFFF AND PUSH20 0xFFFFFFFFFFFFFFFFFFFFFFFFFFFFFFFFFFFFFFFF AND PUSH20 0xFFFFFFFFFFFFFFFFFFFFFFFFFFFFFFFFFFFFFFFF AND DUP2 MSTORE PUSH1 0x20 ADD SWAP1 DUP2 MSTORE PUSH1 0x20 ADD PUSH0 KECCAK256 PUSH1 0x2 ADD DUP2 SWAP1 SSTORE POP DUP1 DUP5 PUSH1 0xA ADD PUSH0 DUP7 PUSH1 0x1 ADD PUSH0 SWAP1 SLOAD SWAP1 PUSH2 0x100 EXP SWAP1 DIV PUSH20 0xFFFFFFFFFFFFFFFFFFFFFFFFFFFFFFFFFFFFFFFF AND PUSH20 0xFFFFFFFFFFFFFFFFFFFFFFFFFFFFFFFFFFFFFFFF AND PUSH20 0xFFFFFFFFFFFFFFFFFFFFFFFFFFFFFFFFFFFFFFFF AND DUP2 MSTORE PUSH1 0x20 ADD SWAP1 DUP2 MSTORE PUSH1 0x20 ADD PUSH0 KECCAK256 PUSH1 0x2 ADD DUP2 SWAP1 SSTORE POP DUP4 PUSH1 0x6 ADD PUSH0 SWAP1 SLOAD SWAP1 PUSH2 0x100 EXP SWAP1 DIV PUSH8 0xFFFFFFFFFFFFFFFF AND TIMESTAMP PUSH2 0x8F8 SWAP2 SWAP1 PUSH2 0x370E JUMP JUMPDEST DUP5 PUSH1 0x6 ADD PUSH1 0x8 PUSH2 0x100 EXP DUP2 SLOAD DUP2 PUSH8 0xFFFFFFFFFFFFFFFF MUL NOT AND SWAP1 DUP4 PUSH8 0xFFFFFFFFFFFFFFFF AND MUL OR SWAP1 SSTORE POP PUSH1 0x1 SLOAD PUSH32 0x5AB4254A16D8F1486E035342F3B6736A5EFDC0B79886E7525B374BB0EC9EBEE1 DUP6 PUSH1 0x2 ADD PUSH0 SWAP1 SLOAD SWAP1 PUSH2 0x100 EXP SWAP1 DIV PUSH20 0xFFFFFFFFFFFFFFFFFFFFFFFFFFFFFFFFFFFFFFFF AND DUP7 PUSH1 0x7 ADD SLOAD DUP8 PUSH1 0x8 ADD SLOAD DUP9 PUSH1 0x9 ADD SLOAD PUSH1 0x40 MLOAD PUSH2 0x989 SWAP5 SWAP4 SWAP3 SWAP2 SWAP1 PUSH2 0x3749 JUMP JUMPDEST PUSH1 0x40 MLOAD DUP1 SWAP2 SUB SWAP1 LOG2 POP POP POP POP JUMPDEST JUMP JUMPDEST PUSH32 0x0 DUP2 JUMP JUMPDEST PUSH0 PUSH2 0x9C5 PUSH2 0x2BDA JUMP JUMPDEST SWAP1 POP PUSH0 TIMESTAMP SWAP1 POP DUP2 PUSH1 0x5 ADD PUSH1 0x8 SWAP1 SLOAD SWAP1 PUSH2 0x100 EXP SWAP1 DIV PUSH8 0xFFFFFFFFFFFFFFFF AND PUSH8 0xFFFFFFFFFFFFFFFF AND DUP2 LT DUP1 PUSH2 0xA1D JUMPI POP DUP2 PUSH1 0x5 ADD PUSH1 0x10 SWAP1 SLOAD SWAP1 PUSH2 0x100 EXP SWAP1 DIV PUSH8 0xFFFFFFFFFFFFFFFF AND PUSH8 0xFFFFFFFFFFFFFFFF AND DUP2 LT ISZERO JUMPDEST ISZERO PUSH2 0xA54 JUMPI PUSH1 0x40 MLOAD PUSH32 0x74683D7100000000000000000000000000000000000000000000000000000000 DUP2 MSTORE PUSH1 0x4 ADD PUSH1 0x40 MLOAD DUP1 SWAP2 SUB SWAP1 REVERT JUMPDEST PUSH0 DUP3 PUSH1 0xA ADD PUSH0 CALLER PUSH20 0xFFFFFFFFFFFFFFFFFFFFFFFFFFFFFFFFFFFFFFFF AND PUSH20 0xFFFFFFFFFFFFFFFFFFFFFFFFFFFFFFFFFFFFFFFF AND DUP2 MSTORE PUSH1 0x20 ADD SWAP1 DUP2 MSTORE PUSH1 0x20 ADD PUSH0 KECCAK256 PUSH1 0x3 ADD SLOAD EQ PUSH2 0xACF JUMPI PUSH1 0x40 MLOAD PUSH32 0x157330EE00000000000000000000000000000000000000000000000000000000 DUP2 MSTORE PUSH1 0x4 ADD PUSH1 0x40 MLOAD DUP1 SWAP2 SUB SWAP1 REVERT JUMPDEST PUSH0 DUP3 PUSH1 0xA ADD PUSH0 CALLER PUSH20 0xFFFFFFFFFFFFFFFFFFFFFFFFFFFFFFFFFFFFFFFF AND PUSH20 0xFFFFFFFFFFFFFFFFFFFFFFFFFFFFFFFFFFFFFFFF AND DUP2 MSTORE PUSH1 0x20 ADD SWAP1 DUP2 MSTORE PUSH1 0x20 ADD PUSH0 KECCAK256 PUSH0 ADD SLOAD SWAP1 POP PUSH0 PUSH0 SHL DUP2 SUB PUSH2 0xB4F JUMPI PUSH1 0x40 MLOAD PUSH32 0xC06789FA00000000000000000000000000000000000000000000000000000000 DUP2 MSTORE PUSH1 0x4 ADD PUSH1 0x40 MLOAD DUP1 SWAP2 SUB SWAP1 REVERT JUMPDEST DUP1 DUP6 DUP6 PUSH1 0x40 MLOAD PUSH1 0x20 ADD PUSH2 0xB63 SWAP3 SWAP2 SWAP1 PUSH2 0x37CC JUMP JUMPDEST PUSH1 0x40 MLOAD PUSH1 0x20 DUP2 DUP4 SUB SUB DUP2 MSTORE SWAP1 PUSH1 0x40 MSTORE DUP1 MLOAD SWAP1 PUSH1 0x20 ADD KECCAK256 EQ PUSH2 0xBB0 JUMPI PUSH1 0x40 MLOAD PUSH32 0xC06789FA00000000000000000000000000000000000000000000000000000000 DUP2 MSTORE PUSH1 0x4 ADD PUSH1 0x40 MLOAD DUP1 SWAP2 SUB SWAP1 REVERT JUMPDEST DUP5 DUP4 PUSH1 0xA ADD PUSH0 CALLER PUSH20 0xFFFFFFFFFFFFFFFFFFFFFFFFFFFFFFFFFFFFFFFF AND PUSH20 0xFFFFFFFFFFFFFFFFFFFFFFFFFFFFFFFFFFFFFFFF AND DUP2 MSTORE PUSH1 0x20 ADD SWAP1 DUP2 MSTORE PUSH1 0x20 ADD PUSH0 KECCAK256 PUSH1 0x3 ADD DUP2 SWAP1 SSTORE POP DUP3 PUSH1 0x3 ADD SLOAD DUP6 LT ISZERO PUSH2 0xC35 JUMPI PUSH1 0x40 MLOAD PUSH32 0x6B317D5600000000000000000000000000000000000000000000000000000000 DUP2 MSTORE PUSH1 0x4 ADD PUSH1 0x40 MLOAD DUP1 SWAP2 SUB SWAP1 REVERT JUMPDEST DUP3 PUSH1 0x7 ADD SLOAD DUP6 GT ISZERO PUSH2 0xCF5 JUMPI PUSH0 PUSH20 0xFFFFFFFFFFFFFFFFFFFFFFFFFFFFFFFFFFFFFFFF AND DUP4 PUSH1 0x2 ADD PUSH0 SWAP1 SLOAD SWAP1 PUSH2 0x100 EXP SWAP1 DIV PUSH20 0xFFFFFFFFFFFFFFFFFFFFFFFFFFFFFFFFFFFFFFFF AND PUSH20 0xFFFFFFFFFFFFFFFFFFFFFFFFFFFFFFFFFFFFFFFF AND EQ PUSH2 0xCA5 JUMPI DUP3 PUSH1 0x7 ADD SLOAD DUP4 PUSH1 0x8 ADD DUP2 SWAP1 SSTORE POP JUMPDEST DUP5 DUP4 PUSH1 0x7 ADD DUP2 SWAP1 SSTORE POP CALLER DUP4 PUSH1 0x2 ADD PUSH0 PUSH2 0x100 EXP DUP2 SLOAD DUP2 PUSH20 0xFFFFFFFFFFFFFFFFFFFFFFFFFFFFFFFFFFFFFFFF MUL NOT AND SWAP1 DUP4 PUSH20 0xFFFFFFFFFFFFFFFFFFFFFFFFFFFFFFFFFFFFFFFF AND MUL OR SWAP1 SSTORE POP PUSH2 0xE55 JUMP JUMPDEST DUP3 PUSH1 0x7 ADD SLOAD DUP6 EQ DUP1 ISZERO PUSH2 0xDE8 JUMPI POP DUP3 PUSH1 0xA ADD PUSH0 DUP5 PUSH1 0x2 ADD PUSH0 SWAP1 SLOAD SWAP1 PUSH2 0x100 EXP SWAP1 DIV PUSH20 0xFFFFFFFFFFFFFFFFFFFFFFFFFFFFFFFFFFFFFFFF AND PUSH20 0xFFFFFFFFFFFFFFFFFFFFFFFFFFFFFFFFFFFFFFFF AND PUSH20 0xFFFFFFFFFFFFFFFFFFFFFFFFFFFFFFFFFFFFFFFF AND DUP2 MSTORE PUSH1 0x20 ADD SWAP1 DUP2 MSTORE PUSH1 0x20 ADD PUSH0 KECCAK256 PUSH1 0x1 ADD PUSH0 SWAP1 SLOAD SWAP1 PUSH2 0x100 EXP SWAP1 DIV PUSH8 0xFFFFFFFFFFFFFFFF AND PUSH8 0xFFFFFFFFFFFFFFFF AND DUP4 PUSH1 0xA ADD PUSH0 CALLER PUSH20 0xFFFFFFFFFFFFFFFFFFFFFFFFFFFFFFFFFFFFFFFF AND PUSH20 0xFFFFFFFFFFFFFFFFFFFFFFFFFFFFFFFFFFFFFFFF AND DUP2 MSTORE PUSH1 0x20 ADD SWAP1 DUP2 MSTORE PUSH1 0x20 ADD PUSH0 KECCAK256 PUSH1 0x1 ADD PUSH0 SWAP1 SLOAD SWAP1 PUSH2 0x100 EXP SWAP1 DIV PUSH8 0xFFFFFFFFFFFFFFFF AND PUSH8 0xFFFFFFFFFFFFFFFF AND LT JUMPDEST ISZERO PUSH2 0xE3D JUMPI DUP5 DUP4 PUSH1 0x7 ADD DUP2 SWAP1 SSTORE POP CALLER DUP4 PUSH1 0x2 ADD PUSH0 PUSH2 0x100 EXP DUP2 SLOAD DUP2 PUSH20 0xFFFFFFFFFFFFFFFFFFFFFFFFFFFFFFFFFFFFFFFF MUL NOT AND SWAP1 DUP4 PUSH20 0xFFFFFFFFFFFFFFFFFFFFFFFFFFFFFFFFFFFFFFFF AND MUL OR SWAP1 SSTORE POP PUSH2 0xE54 JUMP JUMPDEST DUP3 PUSH1 0x8 ADD SLOAD DUP6 GT ISZERO PUSH2 0xE53 JUMPI DUP5 DUP4 PUSH1 0x8 ADD DUP2 SWAP1 SSTORE POP JUMPDEST JUMPDEST JUMPDEST CALLER PUSH20 0xFFFFFFFFFFFFFFFFFFFFFFFFFFFFFFFFFFFFFFFF AND PUSH1 0x1 SLOAD PUSH32 0x86D2FBC9069D34216EBC65B38CE840528D3F8CAC0C86D2AAA7AB6A9DB8BC35D3 DUP8 PUSH1 0x40 MLOAD PUSH2 0xE9E SWAP2 SWAP1 PUSH2 0x30A2 JUMP JUMPDEST PUSH1 0x40 MLOAD DUP1 SWAP2 SUB SWAP1 LOG3 POP POP POP POP POP JUMP JUMPDEST PUSH0 PUSH0 PUSH0 PUSH0 PUSH2 0xEBA DUP6 PUSH2 0x2FE9 JUMP JUMPDEST SWAP1 POP DUP1 PUSH1 0x2 ADD PUSH0 SWAP1 SLOAD SWAP1 PUSH2 0x100 EXP SWAP1 DIV PUSH20 0xFFFFFFFFFFFFFFFFFFFFFFFFFFFFFFFFFFFFFFFF AND DUP2 PUSH1 0x9 ADD SLOAD DUP3 PUSH1 0x6 ADD PUSH1 0x8 SWAP1 SLOAD SWAP1 PUSH2 0x100 EXP SWAP1 DIV PUSH8 0xFFFFFFFFFFFFFFFF AND SWAP4 POP SWAP4 POP SWAP4 POP POP SWAP2 SWAP4 SWAP1 SWAP3 POP JUMP JUMPDEST PUSH1 0x2 PUSH0 SLOAD SUB PUSH2 0xF50 JUMPI PUSH1 0x40 MLOAD PUSH32 0x8C379A000000000000000000000000000000000000000000000000000000000 DUP2 MSTORE PUSH1 0x4 ADD PUSH2 0xF47 SWAP1 PUSH2 0x3841 JUMP JUMPDEST PUSH1 0x40 MLOAD DUP1 SWAP2 SUB SWAP1 REVERT JUMPDEST PUSH1 0x2 PUSH0 DUP2 SWAP1 SSTORE POP PUSH0 PUSH2 0xF61 DUP3 PUSH2 0x2FE9 JUMP JUMPDEST SWAP1 POP DUP1 PUSH1 0x2 ADD PUSH1 0x14 SWAP1 SLOAD SWAP1 PUSH2 0x100 EXP SWAP1 DIV PUSH1 0xFF AND PUSH2 0xFAB JUMPI PUSH1 0x40 MLOAD PUSH32 0xD3018D1800000000000000000000000000000000000000000000000000000000 DUP2 MSTORE PUSH1 0x4 ADD PUSH1 0x40 MLOAD DUP1 SWAP2 SUB SWAP1 REVERT JUMPDEST PUSH0 DUP2 PUSH1 0xA ADD PUSH0 CALLER PUSH20 0xFFFFFFFFFFFFFFFFFFFFFFFFFFFFFFFFFFFFFFFF AND PUSH20 0xFFFFFFFFFFFFFFFFFFFFFFFFFFFFFFFFFFFFFFFF AND DUP2 MSTORE PUSH1 0x20 ADD SWAP1 DUP2 MSTORE PUSH1 0x20 ADD PUSH0 KECCAK256 PUSH1 0x2 ADD SLOAD SWAP1 POP PUSH0 DUP2 SUB PUSH2 0x102A JUMPI PUSH1 0x40 MLOAD PUSH32 0x3A6A68B100000000000000000000000000000000000000000000000000000000 DUP2 MSTORE PUSH1 0x4 ADD PUSH1 0x40 MLOAD DUP1 SWAP2 SUB SWAP1 REVERT JUMPDEST PUSH0 DUP3 PUSH1 0xA ADD PUSH0 CALLER PUSH20 0xFFFFFFFFFFFFFFFFFFFFFFFFFFFFFFFFFFFFFFFF AND PUSH20 0xFFFFFFFFFFFFFFFFFFFFFFFFFFFFFFFFFFFFFFFF AND DUP2 MSTORE PUSH1 0x20 ADD SWAP1 DUP2 MSTORE PUSH1 0x20 ADD PUSH0 KECCAK256 PUSH1 0x2 ADD DUP2 SWAP1 SSTORE POP PUSH0 CALLER PUSH20 0xFFFFFFFFFFFFFFFFFFFFFFFFFFFFFFFFFFFFFFFF AND DUP3 PUSH1 0x40 MLOAD PUSH2 0x1096 SWAP1 PUSH2 0x388C JUMP JUMPDEST PUSH0 PUSH1 0x40 MLOAD DUP1 DUP4 SUB DUP2 DUP6 DUP8 GAS CALL SWAP3 POP POP POP RETURNDATASIZE DUP1 PUSH0 DUP2 EQ PUSH2 0x10D0 JUMPI PUSH1 0x40 MLOAD SWAP2 POP PUSH1 0x1F NOT PUSH1 0x3F RETURNDATASIZE ADD AND DUP3 ADD PUSH1 0x40 MSTORE RETURNDATASIZE DUP3 MSTORE RETURNDATASIZE PUSH0 PUSH1 0x20 DUP5 ADD RETURNDATACOPY PUSH2 0x10D5 JUMP JUMPDEST PUSH1 0x60 SWAP2 POP JUMPDEST POP POP SWAP1 POP DUP1 PUSH2 0x1110 JUMPI PUSH1 0x40 MLOAD PUSH32 0x750B219C00000000000000000000000000000000000000000000000000000000 DUP2 MSTORE PUSH1 0x4 ADD PUSH1 0x40 MLOAD DUP1 SWAP2 SUB SWAP1 REVERT JUMPDEST CALLER PUSH20 0xFFFFFFFFFFFFFFFFFFFFFFFFFFFFFFFFFFFFFFFF AND DUP5 PUSH32 0x47F74A265269AA6E5423FBCD9A74B3C8771A0C3A9C7CDFB7EBE375B288C06B4E PUSH1 0x40 MLOAD PUSH1 0x40 MLOAD DUP1 SWAP2 SUB SWAP1 LOG3 POP POP POP PUSH1 0x1 PUSH0 DUP2 SWAP1 SSTORE POP POP JUMP JUMPDEST PUSH1 0x2 PUSH0 SLOAD SUB PUSH2 0x11A5 JUMPI PUSH1 0x40 MLOAD PUSH32 0x8C379A000000000000000000000000000000000000000000000000000000000 DUP2 MSTORE PUSH1 0x4 ADD PUSH2 0x119C SWAP1 PUSH2 0x3841 JUMP JUMPDEST PUSH1 0x40 MLOAD DUP1 SWAP2 SUB SWAP1 REVERT JUMPDEST PUSH1 0x2 PUSH0 DUP2 SWAP1 SSTORE POP PUSH0 PUSH2 0x11B5 PUSH2 0x2BDA JUMP JUMPDEST SWAP1 POP DUP1 PUSH1 0x2 ADD PUSH1 0x14 SWAP1 SLOAD SWAP1 PUSH2 0x100 EXP SWAP1 DIV PUSH1 0xFF AND PUSH2 0x11FF JUMPI PUSH1 0x40 MLOAD PUSH32 0xD3018D1800000000000000000000000000000000000000000000000000000000 DUP2 MSTORE PUSH1 0x4 ADD PUSH1 0x40 MLOAD DUP1 SWAP2 SUB SWAP1 REVERT JUMPDEST PUSH0 DUP2 PUSH1 0xA ADD PUSH0 CALLER PUSH20 0xFFFFFFFFFFFFFFFFFFFFFFFFFFFFFFFFFFFFFFFF AND PUSH20 0xFFFFFFFFFFFFFFFFFFFFFFFFFFFFFFFFFFFFFFFF AND DUP2 MSTORE PUSH1 0x20 ADD SWAP1 DUP2 MSTORE PUSH1 0x20 ADD PUSH0 KECCAK256 PUSH1 0x2 ADD SLOAD SWAP1 POP PUSH0 DUP2 SUB PUSH2 0x127E JUMPI PUSH1 0x40 MLOAD PUSH32 0x3A6A68B100000000000000000000000000000000000000000000000000000000 DUP2 MSTORE PUSH1 0x4 ADD PUSH1 0x40 MLOAD DUP1 SWAP2 SUB SWAP1 REVERT JUMPDEST PUSH0 DUP3 PUSH1 0xA ADD PUSH0 CALLER PUSH20 0xFFFFFFFFFFFFFFFFFFFFFFFFFFFFFFFFFFFFFFFF AND PUSH20 0xFFFFFFFFFFFFFFFFFFFFFFFFFFFFFFFFFFFFFFFF AND DUP2 MSTORE PUSH1 0x20 ADD SWAP1 DUP2 MSTORE PUSH1 0x20 ADD PUSH0 KECCAK256 PUSH1 0x2 ADD DUP2 SWAP1 SSTORE POP PUSH0 CALLER PUSH20 0xFFFFFFFFFFFFFFFFFFFFFFFFFFFFFFFFFFFFFFFF AND DUP3 PUSH1 0x40 MLOAD PUSH2 0x12EA SWAP1 PUSH2 0x388C JUMP JUMPDEST PUSH0 PUSH1 0x40 MLOAD DUP1 DUP4 SUB DUP2 DUP6 DUP8 GAS CALL SWAP3 POP POP POP RETURNDATASIZE DUP1 PUSH0 DUP2 EQ PUSH2 0x1324 JUMPI PUSH1 0x40 MLOAD SWAP2 POP PUSH1 0x1F NOT PUSH1 0x3F RETURNDATASIZE ADD AND DUP3 ADD PUSH1 0x40 MSTORE RETURNDATASIZE DUP3 MSTORE RETURNDATASIZE PUSH0 PUSH1 0x20 DUP5 ADD RETURNDATACOPY PUSH2 0x1329 JUMP JUMPDEST PUSH1 0x60 SWAP2 POP JUMPDEST POP POP SWAP1 POP DUP1 PUSH2 0x1364 JUMPI PUSH1 0x40 MLOAD PUSH32 0x750B219C00000000000000000000000000000000000000000000000000000000 DUP2 MSTORE PUSH1 0x4 ADD PUSH1 0x40 MLOAD DUP1 SWAP2 SUB SWAP1 REVERT JUMPDEST CALLER PUSH20 0xFFFFFFFFFFFFFFFFFFFFFFFFFFFFFFFFFFFFFFFF AND PUSH1 0x1 SLOAD PUSH32 0x47F74A265269AA6E5423FBCD9A74B3C8771A0C3A9C7CDFB7EBE375B288C06B4E PUSH1 0x40 MLOAD PUSH1 0x40 MLOAD DUP1 SWAP2 SUB SWAP1 LOG3 POP POP POP PUSH1 0x1 PUSH0 DUP2 SWAP1 SSTORE POP JUMP JUMPDEST PUSH0 PUSH0 PUSH2 0x13C1 DUP5 PUSH2 0x2FE9 JUMP JUMPDEST SWAP1 POP DUP1 PUSH1 0xA ADD PUSH0 DUP5 PUSH20 0xFFFFFFFFFFFFFFFFFFFFFFFFFFFFFFFFFFFFFFFF AND PUSH20 0xFFFFFFFFFFFFFFFFFFFFFFFFFFFFFFFFFFFFFFFF AND DUP2 MSTORE PUSH1 0x20 ADD SWAP1 DUP2 MSTORE PUSH1 0x20 ADD PUSH0 KECCAK256 PUSH1 0x3 ADD SLOAD SWAP2 POP POP SWAP3 SWAP2 POP POP JUMP JUMPDEST PUSH0 PUSH2 0x1418 PUSH2 0x2BDA JUMP JUMPDEST SWAP1 POP DUP1 PUSH1 0x5 ADD PUSH1 0x8 SWAP1 SLOAD SWAP1 PUSH2 0x100 EXP SWAP1 DIV PUSH8 0xFFFFFFFFFFFFFFFF AND PUSH8 0xFFFFFFFFFFFFFFFF AND TIMESTAMP LT ISZERO DUP1 PUSH2 0x146B JUMPI POP DUP1 PUSH1 0x5 ADD PUSH0 SWAP1 SLOAD SWAP1 PUSH2 0x100 EXP SWAP1 DIV PUSH8 0xFFFFFFFFFFFFFFFF AND PUSH8 0xFFFFFFFFFFFFFFFF AND TIMESTAMP LT JUMPDEST ISZERO PUSH2 0x14A2 JUMPI PUSH1 0x40 MLOAD PUSH32 0xABFB7DC300000000000000000000000000000000000000000000000000000000 DUP2 MSTORE PUSH1 0x4 ADD PUSH1 0x40 MLOAD DUP1 SWAP2 SUB SWAP1 REVERT JUMPDEST PUSH0 PUSH0 SHL DUP3 SUB PUSH2 0x14DD JUMPI PUSH1 0x40 MLOAD PUSH32 0xC06789FA00000000000000000000000000000000000000000000000000000000 DUP2 MSTORE PUSH1 0x4 ADD PUSH1 0x40 MLOAD DUP1 SWAP2 SUB SWAP1 REVERT JUMPDEST DUP1 PUSH1 0x1 ADD PUSH0 SWAP1 SLOAD SWAP1 PUSH2 0x100 EXP SWAP1 DIV PUSH20 0xFFFFFFFFFFFFFFFFFFFFFFFFFFFFFFFFFFFFFFFF AND PUSH20 0xFFFFFFFFFFFFFFFFFFFFFFFFFFFFFFFFFFFFFFFF AND CALLER PUSH20 0xFFFFFFFFFFFFFFFFFFFFFFFFFFFFFFFFFFFFFFFF AND SUB PUSH2 0x1565 JUMPI PUSH1 0x40 MLOAD PUSH32 0xEF02588900000000000000000000000000000000000000000000000000000000 DUP2 MSTORE PUSH1 0x4 ADD PUSH1 0x40 MLOAD DUP1 SWAP2 SUB SWAP1 REVERT JUMPDEST DUP1 PUSH1 0x4 ADD SLOAD CALLVALUE EQ PUSH2 0x15A2 JUMPI PUSH1 0x40 MLOAD PUSH32 0x603E3D3600000000000000000000000000000000000000000000000000000000 DUP2 MSTORE PUSH1 0x4 ADD PUSH1 0x40 MLOAD DUP1 SWAP2 SUB SWAP1 REVERT JUMPDEST DUP1 PUSH1 0x4 ADD SLOAD DUP2 PUSH1 0xA ADD PUSH0 CALLER PUSH20 0xFFFFFFFFFFFFFFFFFFFFFFFFFFFFFFFFFFFFFFFF AND PUSH20 0xFFFFFFFFFFFFFFFFFFFFFFFFFFFFFFFFFFFFFFFF AND DUP2 MSTORE PUSH1 0x20 ADD SWAP1 DUP2 MSTORE PUSH1 0x20 ADD PUSH0 KECCAK256 PUSH1 0x2 ADD PUSH0 DUP3 DUP3 SLOAD PUSH2 0x15F7 SWAP2 SWAP1 PUSH2 0x36DB JUMP JUMPDEST SWAP3 POP POP DUP2 SWAP1 SSTORE POP PUSH1 0x1 DUP2 PUSH1 0x5 ADD PUSH1 0x18 DUP3 DUP3 DUP3 SWAP1 SLOAD SWAP1 PUSH2 0x100 EXP SWAP1 DIV PUSH8 0xFFFFFFFFFFFFFFFF AND PUSH2 0x1626 SWAP2 SWAP1 PUSH2 0x370E JUMP JUMPDEST SWAP3 POP PUSH2 0x100 EXP DUP2 SLOAD DUP2 PUSH8 0xFFFFFFFFFFFFFFFF MUL NOT AND SWAP1 DUP4 PUSH8 0xFFFFFFFFFFFFFFFF AND MUL OR SWAP1 SSTORE POP DUP1 PUSH1 0x5 ADD PUSH1 0x18 SWAP1 SLOAD SWAP1 PUSH2 0x100 EXP SWAP1 DIV PUSH8 0xFFFFFFFFFFFFFFFF AND DUP2 PUSH1 0xA ADD PUSH0 CALLER PUSH20 0xFFFFFFFFFFFFFFFFFFFFFFFFFFFFFFFFFFFFFFFF AND PUSH20 0xFFFFFFFFFFFFFFFFFFFFFFFFFFFFFFFFFFFFFFFF AND DUP2 MSTORE PUSH1 0x20 ADD SWAP1 DUP2 MSTORE PUSH1 0x20 ADD PUSH0 KECCAK256 PUSH1 0x1 ADD PUSH0 PUSH2 0x100 EXP DUP2 SLOAD DUP2 PUSH8 0xFFFFFFFFFFFFFFFF MUL NOT AND SWAP1 DUP4 PUSH8 0xFFFFFFFFFFFFFFFF AND MUL OR SWAP1 SSTORE POP DUP2 DUP2 PUSH1 0xA ADD PUSH0 CALLER PUSH20 0xFFFFFFFFFFFFFFFFFFFFFFFFFFFFFFFFFFFFFFFF AND PUSH20 0xFFFFFFFFFFFFFFFFFFFFFFFFFFFFFFFFFFFFFFFF AND DUP2 MSTORE PUSH1 0x20 ADD SWAP1 DUP2 MSTORE PUSH1 0x20 ADD PUSH0 KECCAK256 PUSH0 ADD DUP2 SWAP1 SSTORE POP CALLER PUSH20 0xFFFFFFFFFFFFFFFFFFFFFFFFFFFFFFFFFFFFFFFF AND PUSH1 0x1 SLOAD PUSH32 0x934EA4DE468DCD0D9A335C5F97AA77955310C29631C93FBD01D95A00242EC41 PUSH1 0x40 MLOAD PUSH1 0x40 MLOAD DUP1 SWAP2 SUB SWAP1 LOG3 POP POP JUMP JUMPDEST PUSH0 PUSH1 0x1 SLOAD EQ PUSH2 0x17CE JUMPI PUSH0 PUSH1 0x2 PUSH0 PUSH1 0x1 SLOAD DUP2 MSTORE PUSH1 0x20 ADD SWAP1 DUP2 MSTORE PUSH1 0x20 ADD PUSH0 KECCAK256 SWAP1 POP DUP1 PUSH1 0x2 ADD PUSH1 0x15 SWAP1 SLOAD SWAP1 PUSH2 0x100 EXP SWAP1 DIV PUSH1 0xFF AND PUSH2 0x17CC JUMPI PUSH1 0x40 MLOAD PUSH32 0x8C379A000000000000000000000000000000000000000000000000000000000 DUP2 MSTORE PUSH1 0x4 ADD PUSH2 0x17C3 SWAP1 PUSH2 0x38EA JUMP JUMPDEST PUSH1 0x40 MLOAD DUP1 SWAP2 SUB SWAP1 REVERT JUMPDEST POP JUMPDEST PUSH0 DUP4 PUSH8 0xFFFFFFFFFFFFFFFF AND GT DUP1 ISZERO PUSH2 0x17F3 JUMPI POP PUSH3 0x278D00 DUP4 PUSH8 0xFFFFFFFFFFFFFFFF AND LT JUMPDEST PUSH2 0x1832 JUMPI PUSH1 0x40 MLOAD PUSH32 0x8C379A000000000000000000000000000000000000000000000000000000000 DUP2 MSTORE PUSH1 0x4 ADD PUSH2 0x1829 SWAP1 PUSH2 0x3952 JUMP JUMPDEST PUSH1 0x40 MLOAD DUP1 SWAP2 SUB SWAP1 REVERT JUMPDEST PUSH0 DUP3 PUSH8 0xFFFFFFFFFFFFFFFF AND GT DUP1 ISZERO PUSH2 0x1857 JUMPI POP PUSH3 0x278D00 DUP3 PUSH8 0xFFFFFFFFFFFFFFFF AND LT JUMPDEST PUSH2 0x1896 JUMPI PUSH1 0x40 MLOAD PUSH32 0x8C379A000000000000000000000000000000000000000000000000000000000 DUP2 MSTORE PUSH1 0x4 ADD PUSH2 0x188D SWAP1 PUSH2 0x39BA JUMP JUMPDEST PUSH1 0x40 MLOAD DUP1 SWAP2 SUB SWAP1 REVERT JUMPDEST PUSH0 DUP2 PUSH8 0xFFFFFFFFFFFFFFFF AND GT DUP1 ISZERO PUSH2 0x18BB JUMPI POP PUSH3 0x278D00 DUP2 PUSH8 0xFFFFFFFFFFFFFFFF AND LT JUMPDEST PUSH2 0x18FA JUMPI PUSH1 0x40 MLOAD PUSH32 0x8C379A000000000000000000000000000000000000000000000000000000000 DUP2 MSTORE PUSH1 0x4 ADD PUSH2 0x18F1 SWAP1 PUSH2 0x3A22 JUMP JUMPDEST PUSH1 0x40 MLOAD DUP1 SWAP2 SUB SWAP1 REVERT JUMPDEST PUSH0 DUP5 GT DUP1 ISZERO PUSH2 0x1914 JUMPI POP PUSH12 0x33B2E3C9FD0803CE8000000 DUP5 LT JUMPDEST PUSH2 0x1953 JUMPI PUSH1 0x40 MLOAD PUSH32 0x8C379A000000000000000000000000000000000000000000000000000000000 DUP2 MSTORE PUSH1 0x4 ADD PUSH2 0x194A SWAP1 PUSH2 0x3A8A JUMP JUMPDEST PUSH1 0x40 MLOAD DUP1 SWAP2 SUB SWAP1 REVERT JUMPDEST CALLER PUSH20 0xFFFFFFFFFFFFFFFFFFFFFFFFFFFFFFFFFFFFFFFF AND PUSH32 0x0 PUSH20 0xFFFFFFFFFFFFFFFFFFFFFFFFFFFFFFFFFFFFFFFF AND PUSH4 0x6352211E DUP8 PUSH1 0x40 MLOAD DUP3 PUSH4 0xFFFFFFFF AND PUSH1 0xE0 SHL DUP2 MSTORE PUSH1 0x4 ADD PUSH2 0x19C3 SWAP2 SWAP1 PUSH2 0x30A2 JUMP JUMPDEST PUSH1 0x20 PUSH1 0x40 MLOAD DUP1 DUP4 SUB DUP2 DUP7 GAS STATICCALL ISZERO DUP1 ISZERO PUSH2 0x19DE JUMPI RETURNDATASIZE PUSH0 PUSH0 RETURNDATACOPY RETURNDATASIZE PUSH0 REVERT JUMPDEST POP POP POP POP PUSH1 0x40 MLOAD RETURNDATASIZE PUSH1 0x1F NOT PUSH1 0x1F DUP3 ADD AND DUP3 ADD DUP1 PUSH1 0x40 MSTORE POP DUP2 ADD SWAP1 PUSH2 0x1A02 SWAP2 SWAP1 PUSH2 0x3ABC JUMP JUMPDEST PUSH20 0xFFFFFFFFFFFFFFFFFFFFFFFFFFFFFFFFFFFFFFFF AND EQ PUSH2 0x1A58 JUMPI PUSH1 0x40 MLOAD PUSH32 0x8C379A000000000000000000000000000000000000000000000000000000000 DUP2 MSTORE PUSH1 0x4 ADD PUSH2 0x1A4F SWAP1 PUSH2 0x3B31 JUMP JUMPDEST PUSH1 0x40 MLOAD DUP1 SWAP2 SUB SWAP1 REVERT JUMPDEST PUSH2 0x1A63 CALLER ADDRESS DUP8 PUSH2 0x2C7B JUMP JUMPDEST PUSH1 0x1 DUP1 PUSH0 DUP3 DUP3 SLOAD PUSH2 0x1A74 SWAP2 SWAP1 PUSH2 0x36DB JUMP JUMPDEST SWAP3 POP POP DUP2 SWAP1 SSTORE POP PUSH0 PUSH1 0x2 PUSH0 PUSH1 0x1 SLOAD DUP2 MSTORE PUSH1 0x20 ADD SWAP1 DUP2 MSTORE PUSH1 0x20 ADD PUSH0 KECCAK256 SWAP1 POP DUP6 DUP2 PUSH0 ADD DUP2 SWAP1 SSTORE POP CALLER DUP2 PUSH1 0x1 ADD PUSH0 PUSH2 0x100 EXP DUP2 SLOAD DUP2 PUSH20 0xFFFFFFFFFFFFFFFFFFFFFFFFFFFFFFFFFFFFFFFF MUL NOT AND SWAP1 DUP4 PUSH20 0xFFFFFFFFFFFFFFFFFFFFFFFFFFFFFFFFFFFFFFFF AND MUL OR SWAP1 SSTORE POP DUP5 DUP2 PUSH1 0x3 ADD DUP2 SWAP1 SSTORE POP PUSH12 0x33B2E3C9FD0803CE8000000 PUSH1 0x2 DUP7 PUSH2 0x1AFE SWAP2 SWAP1 PUSH2 0x3B7C JUMP JUMPDEST LT PUSH2 0x1B15 JUMPI PUSH12 0x33B2E3C9FD0803CE8000000 PUSH2 0x1B23 JUMP JUMPDEST PUSH1 0x2 DUP6 PUSH2 0x1B22 SWAP2 SWAP1 PUSH2 0x3B7C JUMP JUMPDEST JUMPDEST DUP2 PUSH1 0x4 ADD DUP2 SWAP1 SSTORE POP PUSH0 TIMESTAMP SWAP1 POP DUP1 DUP3 PUSH1 0x5 ADD PUSH0 PUSH2 0x100 EXP DUP2 SLOAD DUP2 PUSH8 0xFFFFFFFFFFFFFFFF MUL NOT AND SWAP1 DUP4 PUSH8 0xFFFFFFFFFFFFFFFF AND MUL OR SWAP1 SSTORE POP DUP5 DUP2 PUSH2 0x1B65 SWAP2 SWAP1 PUSH2 0x370E JUMP JUMPDEST DUP3 PUSH1 0x5 ADD PUSH1 0x8 PUSH2 0x100 EXP DUP2 SLOAD DUP2 PUSH8 0xFFFFFFFFFFFFFFFF MUL NOT AND SWAP1 DUP4 PUSH8 0xFFFFFFFFFFFFFFFF AND MUL OR SWAP1 SSTORE POP DUP4 DUP3 PUSH1 0x5 ADD PUSH1 0x8 SWAP1 SLOAD SWAP1 PUSH2 0x100 EXP SWAP1 DIV PUSH8 0xFFFFFFFFFFFFFFFF AND PUSH2 0x1BB3 SWAP2 SWAP1 PUSH2 0x370E JUMP JUMPDEST DUP3 PUSH1 0x5 ADD PUSH1 0x10 PUSH2 0x100 EXP DUP2 SLOAD DUP2 PUSH8 0xFFFFFFFFFFFFFFFF MUL NOT AND SWAP1 DUP4 PUSH8 0xFFFFFFFFFFFFFFFF AND MUL OR SWAP1 SSTORE POP DUP3 DUP3 PUSH1 0x6 ADD PUSH0 PUSH2 0x100 EXP DUP2 SLOAD DUP2 PUSH8 0xFFFFFFFFFFFFFFFF MUL NOT AND SWAP1 DUP4 PUSH8 0xFFFFFFFFFFFFFFFF AND MUL OR SWAP1 SSTORE POP CALLER PUSH20 0xFFFFFFFFFFFFFFFFFFFFFFFFFFFFFFFFFFFFFFFF AND PUSH1 0x1 SLOAD PUSH32 0x86B19D6A6B02147FC1E9F2538AE5B1FF124EE6827666573F5F59710A6BD5EBB PUSH32 0x0 DUP11 DUP11 DUP8 PUSH1 0x4 ADD SLOAD DUP9 PUSH1 0x5 ADD PUSH0 SWAP1 SLOAD SWAP1 PUSH2 0x100 EXP SWAP1 DIV PUSH8 0xFFFFFFFFFFFFFFFF AND DUP10 PUSH1 0x5 ADD PUSH1 0x8 SWAP1 SLOAD SWAP1 PUSH2 0x100 EXP SWAP1 DIV PUSH8 0xFFFFFFFFFFFFFFFF AND DUP11 PUSH1 0x5 ADD PUSH1 0x10 SWAP1 SLOAD SWAP1 PUSH2 0x100 EXP SWAP1 DIV PUSH8 0xFFFFFFFFFFFFFFFF AND DUP12 PUSH1 0x6 ADD PUSH0 SWAP1 SLOAD SWAP1 PUSH2 0x100 EXP SWAP1 DIV PUSH8 0xFFFFFFFFFFFFFFFF AND PUSH1 0x40 MLOAD PUSH2 0x1CE0 SWAP9 SWAP8 SWAP7 SWAP6 SWAP5 SWAP4 SWAP3 SWAP2 SWAP1 PUSH2 0x3BDC JUMP JUMPDEST PUSH1 0x40 MLOAD DUP1 SWAP2 SUB SWAP1 LOG3 POP POP POP POP POP POP POP JUMP JUMPDEST PUSH0 PUSH0 PUSH2 0x1CFC DUP5 PUSH2 0x2FE9 JUMP JUMPDEST SWAP1 POP DUP1 PUSH1 0xA ADD PUSH0 DUP5 PUSH20 0xFFFFFFFFFFFFFFFFFFFFFFFFFFFFFFFFFFFFFFFF AND PUSH20 0xFFFFFFFFFFFFFFFFFFFFFFFFFFFFFFFFFFFFFFFF AND DUP2 MSTORE PUSH1 0x20 ADD SWAP1 DUP2 MSTORE PUSH1 0x20 ADD PUSH0 KECCAK256 PUSH0 ADD SLOAD SWAP2 POP POP SWAP3 SWAP2 POP POP JUMP JUMPDEST PUSH1 0x2 PUSH0 SLOAD SUB PUSH2 0x1D8D JUMPI PUSH1 0x40 MLOAD PUSH32 0x8C379A000000000000000000000000000000000000000000000000000000000 DUP2 MSTORE PUSH1 0x4 ADD PUSH2 0x1D84 SWAP1 PUSH2 0x3841 JUMP JUMPDEST PUSH1 0x40 MLOAD DUP1 SWAP2 SUB SWAP1 REVERT JUMPDEST PUSH1 0x2 PUSH0 DUP2 SWAP1 SSTORE POP PUSH0 PUSH2 0x1D9E DUP3 PUSH2 0x2FE9 JUMP JUMPDEST SWAP1 POP DUP1 PUSH1 0x2 ADD PUSH1 0x14 SWAP1 SLOAD SWAP1 PUSH2 0x100 EXP SWAP1 DIV PUSH1 0xFF AND PUSH2 0x1DE8 JUMPI PUSH1 0x40 MLOAD PUSH32 0xD3018D1800000000000000000000000000000000000000000000000000000000 DUP2 MSTORE PUSH1 0x4 ADD PUSH1 0x40 MLOAD DUP1 SWAP2 SUB SWAP1 REVERT JUMPDEST CALLER PUSH20 0xFFFFFFFFFFFFFFFFFFFFFFFFFFFFFFFFFFFFFFFF AND DUP2 PUSH1 0x2 ADD PUSH0 SWAP1 SLOAD SWAP1 PUSH2 0x100 EXP SWAP1 DIV PUSH20 0xFFFFFFFFFFFFFFFFFFFFFFFFFFFFFFFFFFFFFFFF AND PUSH20 0xFFFFFFFFFFFFFFFFFFFFFFFFFFFFFFFFFFFFFFFF AND EQ PUSH2 0x1E70 JUMPI PUSH1 0x40 MLOAD PUSH32 0x618C724200000000000000000000000000000000000000000000000000000000 DUP2 MSTORE PUSH1 0x4 ADD PUSH1 0x40 MLOAD DUP1 SWAP2 SUB SWAP1 REVERT JUMPDEST DUP1 PUSH1 0x2 ADD PUSH1 0x15 SWAP1 SLOAD SWAP1 PUSH2 0x100 EXP SWAP1 DIV PUSH1 0xFF AND ISZERO PUSH2 0x1EB9 JUMPI PUSH1 0x40 MLOAD PUSH32 0x44A5DDCC00000000000000000000000000000000000000000000000000000000 DUP2 MSTORE PUSH1 0x4 ADD PUSH1 0x40 MLOAD DUP1 SWAP2 SUB SWAP1 REVERT JUMPDEST DUP1 PUSH1 0x6 ADD PUSH1 0x8 SWAP1 SLOAD SWAP1 PUSH2 0x100 EXP SWAP1 DIV PUSH8 0xFFFFFFFFFFFFFFFF AND PUSH8 0xFFFFFFFFFFFFFFFF AND TIMESTAMP GT DUP1 ISZERO PUSH2 0x1EEE JUMPI POP PUSH0 DUP2 PUSH1 0x9 ADD SLOAD EQ ISZERO JUMPDEST ISZERO PUSH2 0x1F25 JUMPI PUSH1 0x40 MLOAD PUSH32 0x58459E8800000000000000000000000000000000000000000000000000000000 DUP2 MSTORE PUSH1 0x4 ADD PUSH1 0x40 MLOAD DUP1 SWAP2 SUB SWAP1 REVERT JUMPDEST DUP1 PUSH1 0x9 ADD SLOAD CALLVALUE EQ PUSH2 0x1F62 JUMPI PUSH1 0x40 MLOAD PUSH32 0x788A686F00000000000000000000000000000000000000000000000000000000 DUP2 MSTORE PUSH1 0x4 ADD PUSH1 0x40 MLOAD DUP1 SWAP2 SUB SWAP1 REVERT JUMPDEST PUSH0 DUP2 PUSH1 0x9 ADD SLOAD EQ PUSH2 0x1FF2 JUMPI PUSH0 DUP2 PUSH1 0x9 ADD DUP2 SWAP1 SSTORE POP CALLVALUE DUP2 PUSH1 0xA ADD PUSH0 DUP4 PUSH1 0x1 ADD PUSH0 SWAP1 SLOAD SWAP1 PUSH2 0x100 EXP SWAP1 DIV PUSH20 0xFFFFFFFFFFFFFFFFFFFFFFFFFFFFFFFFFFFFFFFF AND PUSH20 0xFFFFFFFFFFFFFFFFFFFFFFFFFFFFFFFFFFFFFFFF AND PUSH20 0xFFFFFFFFFFFFFFFFFFFFFFFFFFFFFFFFFFFFFFFF AND DUP2 MSTORE PUSH1 0x20 ADD SWAP1 DUP2 MSTORE PUSH1 0x20 ADD PUSH0 KECCAK256 PUSH1 0x2 ADD PUSH0 DUP3 DUP3 SLOAD PUSH2 0x1FEA SWAP2 SWAP1 PUSH2 0x36DB JUMP JUMPDEST SWAP3 POP POP DUP2 SWAP1 SSTORE POP JUMPDEST PUSH1 0x1 DUP2 PUSH1 0x2 ADD PUSH1 0x15 PUSH2 0x100 EXP DUP2 SLOAD DUP2 PUSH1 0xFF MUL NOT AND SWAP1 DUP4 ISZERO ISZERO MUL OR SWAP1 SSTORE POP PUSH2 0x2040 ADDRESS DUP3 PUSH1 0x2 ADD PUSH0 SWAP1 SLOAD SWAP1 PUSH2 0x100 EXP SWAP1 DIV PUSH20 0xFFFFFFFFFFFFFFFFFFFFFFFFFFFFFFFFFFFFFFFF AND DUP4 PUSH0 ADD SLOAD PUSH2 0x2C7B JUMP JUMPDEST CALLER PUSH20 0xFFFFFFFFFFFFFFFFFFFFFFFFFFFFFFFFFFFFFFFF AND DUP3 PUSH32 0xD33EF6AB06E6BF8672161AA6ABE1EC1791C393D62213EBD89C67F611E538E575 CALLVALUE PUSH1 0x40 MLOAD PUSH2 0x2087 SWAP2 SWAP1 PUSH2 0x30A2 JUMP JUMPDEST PUSH1 0x40 MLOAD DUP1 SWAP2 SUB SWAP1 LOG3 POP PUSH1 0x1 PUSH0 DUP2 SWAP1 SSTORE POP POP JUMP JUMPDEST PUSH3 0x278D00 DUP2 JUMP JUMPDEST PUSH1 0x60 PUSH0 PUSH2 0x20AD DUP4 PUSH2 0x2FE9 JUMP JUMPDEST SWAP1 POP PUSH0 TIMESTAMP SWAP1 POP DUP2 PUSH1 0x5 ADD PUSH0 SWAP1 SLOAD SWAP1 PUSH2 0x100 EXP SWAP1 DIV PUSH8 0xFFFFFFFFFFFFFFFF AND PUSH8 0xFFFFFFFFFFFFFFFF AND DUP2 LT ISZERO PUSH2 0x211B JUMPI PUSH1 0x40 MLOAD DUP1 PUSH1 0x40 ADD PUSH1 0x40 MSTORE DUP1 PUSH1 0x7 DUP2 MSTORE PUSH1 0x20 ADD PUSH32 0x50454E44494E4700000000000000000000000000000000000000000000000000 DUP2 MSTORE POP SWAP3 POP POP POP PUSH2 0x2377 JUMP JUMPDEST DUP2 PUSH1 0x5 ADD PUSH1 0x8 SWAP1 SLOAD SWAP1 PUSH2 0x100 EXP SWAP1 DIV PUSH8 0xFFFFFFFFFFFFFFFF AND PUSH8 0xFFFFFFFFFFFFFFFF AND DUP2 LT ISZERO PUSH2 0x2184 JUMPI PUSH1 0x40 MLOAD DUP1 PUSH1 0x40 ADD PUSH1 0x40 MSTORE DUP1 PUSH1 0x6 DUP2 MSTORE PUSH1 0x20 ADD PUSH32 0x434F4D4D49540000000000000000000000000000000000000000000000000000 DUP2 MSTORE POP SWAP3 POP POP POP PUSH2 0x2377 JUMP JUMPDEST DUP2 PUSH1 0x5 ADD PUSH1 0x10 SWAP1 SLOAD SWAP1 PUSH2 0x100 EXP SWAP1 DIV PUSH8 0xFFFFFFFFFFFFFFFF AND PUSH8 0xFFFFFFFFFFFFFFFF AND DUP2 LT ISZERO PUSH2 0x21ED JUMPI PUSH1 0x40 MLOAD DUP1 PUSH1 0x40 ADD PUSH1 0x40 MSTORE DUP1 PUSH1 0x6 DUP2 MSTORE PUSH1 0x20 ADD PUSH32 0x52455645414C0000000000000000000000000000000000000000000000000000 DUP2 MSTORE POP SWAP3 POP POP POP PUSH2 0x2377 JUMP JUMPDEST DUP2 PUSH1 0x2 ADD PUSH1 0x14 SWAP1 SLOAD SWAP1 PUSH2 0x100 EXP SWAP1 DIV PUSH1 0xFF AND PUSH2 0x2242 JUMPI PUSH1 0x40 MLOAD DUP1 PUSH1 0x40 ADD PUSH1 0x40 MSTORE DUP1 PUSH1 0x10 DUP2 MSTORE PUSH1 0x20 ADD PUSH32 0x46494E414C495A455F50454E44494E4700000000000000000000000000000000 DUP2 MSTORE POP SWAP3 POP POP POP PUSH2 0x2377 JUMP JUMPDEST DUP2 PUSH1 0x2 ADD PUSH1 0x14 SWAP1 SLOAD SWAP1 PUSH2 0x100 EXP SWAP1 DIV PUSH1 0xFF AND DUP1 ISZERO PUSH2 0x226F JUMPI POP DUP2 PUSH1 0x2 ADD PUSH1 0x15 SWAP1 SLOAD SWAP1 PUSH2 0x100 EXP SWAP1 DIV PUSH1 0xFF AND ISZERO JUMPDEST DUP1 ISZERO PUSH2 0x22CA JUMPI POP PUSH0 PUSH20 0xFFFFFFFFFFFFFFFFFFFFFFFFFFFFFFFFFFFFFFFF AND DUP3 PUSH1 0x2 ADD PUSH0 SWAP1 SLOAD SWAP1 PUSH2 0x100 EXP SWAP1 DIV PUSH20 0xFFFFFFFFFFFFFFFFFFFFFFFFFFFFFFFFFFFFFFFF AND PUSH20 0xFFFFFFFFFFFFFFFFFFFFFFFFFFFFFFFFFFFFFFFF AND EQ ISZERO JUMPDEST DUP1 ISZERO PUSH2 0x22F8 JUMPI POP DUP2 PUSH1 0x6 ADD PUSH1 0x8 SWAP1 SLOAD SWAP1 PUSH2 0x100 EXP SWAP1 DIV PUSH8 0xFFFFFFFFFFFFFFFF AND PUSH8 0xFFFFFFFFFFFFFFFF AND DUP2 GT ISZERO JUMPDEST ISZERO PUSH2 0x233C JUMPI PUSH1 0x40 MLOAD DUP1 PUSH1 0x40 ADD PUSH1 0x40 MSTORE DUP1 PUSH1 0xD DUP2 MSTORE PUSH1 0x20 ADD PUSH32 0x41574149545F5041594D454E5400000000000000000000000000000000000000 DUP2 MSTORE POP SWAP3 POP POP POP PUSH2 0x2377 JUMP JUMPDEST PUSH1 0x40 MLOAD DUP1 PUSH1 0x40 ADD PUSH1 0x40 MSTORE DUP1 PUSH1 0x5 DUP2 MSTORE PUSH1 0x20 ADD PUSH32 0x454E444544000000000000000000000000000000000000000000000000000000 DUP2 MSTORE POP SWAP3 POP POP POP JUMPDEST SWAP2 SWAP1 POP JUMP JUMPDEST PUSH1 0x2 PUSH0 SLOAD SUB PUSH2 0x23C0 JUMPI PUSH1 0x40 MLOAD PUSH32 0x8C379A000000000000000000000000000000000000000000000000000000000 DUP2 MSTORE PUSH1 0x4 ADD PUSH2 0x23B7 SWAP1 PUSH2 0x3841 JUMP JUMPDEST PUSH1 0x40 MLOAD DUP1 SWAP2 SUB SWAP1 REVERT JUMPDEST PUSH1 0x2 PUSH0 DUP2 SWAP1 SSTORE POP PUSH0 PUSH2 0x23D1 DUP3 PUSH2 0x2FE9 JUMP JUMPDEST SWAP1 POP DUP1 PUSH1 0x2 ADD PUSH1 0x14 SWAP1 SLOAD SWAP1 PUSH2 0x100 EXP SWAP1 DIV PUSH1 0xFF AND PUSH2 0x241B JUMPI PUSH1 0x40 MLOAD PUSH32 0xD3018D1800000000000000000000000000000000000000000000000000000000 DUP2 MSTORE PUSH1 0x4 ADD PUSH1 0x40 MLOAD DUP1 SWAP2 SUB SWAP1 REVERT JUMPDEST DUP1 PUSH1 0x6 ADD PUSH1 0x8 SWAP1 SLOAD SWAP1 PUSH2 0x100 EXP SWAP1 DIV PUSH8 0xFFFFFFFFFFFFFFFF AND PUSH8 0xFFFFFFFFFFFFFFFF AND TIMESTAMP GT PUSH2 0x2476 JUMPI PUSH1 0x40 MLOAD PUSH32 0xD3018D1800000000000000000000000000000000000000000000000000000000 DUP2 MSTORE PUSH1 0x4 ADD PUSH1 0x40 MLOAD DUP1 SWAP2 SUB SWAP1 REVERT JUMPDEST DUP1 PUSH1 0x1 ADD PUSH0 SWAP1 SLOAD SWAP1 PUSH2 0x100 EXP SWAP1 DIV PUSH20 0xFFFFFFFFFFFFFFFFFFFFFFFFFFFFFFFFFFFFFFFF AND PUSH20 0xFFFFFFFFFFFFFFFFFFFFFFFFFFFFFFFFFFFFFFFF AND CALLER PUSH20 0xFFFFFFFFFFFFFFFFFFFFFFFFFFFFFFFFFFFFFFFF AND EQ PUSH2 0x24FE JUMPI PUSH1 0x40 MLOAD PUSH32 0x44A5DDCC00000000000000000000000000000000000000000000000000000000 DUP2 MSTORE PUSH1 0x4 ADD PUSH1 0x40 MLOAD DUP1 SWAP2 SUB SWAP1 REVERT JUMPDEST DUP1 PUSH1 0x2 ADD PUSH1 0x15 SWAP1 SLOAD SWAP1 PUSH2 0x100 EXP SWAP1 DIV PUSH1 0xFF AND ISZERO PUSH2 0x2547 JUMPI PUSH1 0x40 MLOAD PUSH32 0x44A5DDCC00000000000000000000000000000000000000000000000000000000 DUP2 MSTORE PUSH1 0x4 ADD PUSH1 0x40 MLOAD DUP1 SWAP2 SUB SWAP1 REVERT JUMPDEST PUSH1 0x1 DUP2 PUSH1 0x2 ADD PUSH1 0x15 PUSH2 0x100 EXP DUP2 SLOAD DUP2 PUSH1 0xFF MUL NOT AND SWAP1 DUP4 ISZERO ISZERO MUL OR SWAP1 SSTORE POP PUSH2 0x2595 ADDRESS DUP3 PUSH1 0x1 ADD PUSH0 SWAP1 SLOAD SWAP1 PUSH2 0x100 EXP SWAP1 DIV PUSH20 0xFFFFFFFFFFFFFFFFFFFFFFFFFFFFFFFFFFFFFFFF AND DUP4 PUSH0 ADD SLOAD PUSH2 0x2C7B JUMP JUMPDEST PUSH0 DUP2 PUSH1 0xA ADD PUSH0 DUP4 PUSH1 0x2 ADD PUSH0 SWAP1 SLOAD SWAP1 PUSH2 0x100 EXP SWAP1 DIV PUSH20 0xFFFFFFFFFFFFFFFFFFFFFFFFFFFFFFFFFFFFFFFF AND PUSH20 0xFFFFFFFFFFFFFFFFFFFFFFFFFFFFFFFFFFFFFFFF AND PUSH20 0xFFFFFFFFFFFFFFFFFFFFFFFFFFFFFFFFFFFFFFFF AND DUP2 MSTORE PUSH1 0x20 ADD SWAP1 DUP2 MSTORE PUSH1 0x20 ADD PUSH0 KECCAK256 PUSH1 0x2 ADD SLOAD SWAP1 POP PUSH0 DUP3 PUSH1 0xA ADD PUSH0 DUP5 PUSH1 0x2 ADD PUSH0 SWAP1 SLOAD SWAP1 PUSH2 0x100 EXP SWAP1 DIV PUSH20 0xFFFFFFFFFFFFFFFFFFFFFFFFFFFFFFFFFFFFFFFF AND PUSH20 0xFFFFFFFFFFFFFFFFFFFFFFFFFFFFFFFFFFFFFFFF AND PUSH20 0xFFFFFFFFFFFFFFFFFFFFFFFFFFFFFFFFFFFFFFFF AND DUP2 MSTORE PUSH1 0x20 ADD SWAP1 DUP2 MSTORE PUSH1 0x20 ADD PUSH0 KECCAK256 PUSH1 0x2 ADD DUP2 SWAP1 SSTORE POP PUSH0 CALLER PUSH20 0xFFFFFFFFFFFFFFFFFFFFFFFFFFFFFFFFFFFFFFFF AND DUP3 PUSH1 0x40 MLOAD PUSH2 0x268D SWAP1 PUSH2 0x388C JUMP JUMPDEST PUSH0 PUSH1 0x40 MLOAD DUP1 DUP4 SUB DUP2 DUP6 DUP8 GAS CALL SWAP3 POP POP POP RETURNDATASIZE DUP1 PUSH0 DUP2 EQ PUSH2 0x26C7 JUMPI PUSH1 0x40 MLOAD SWAP2 POP PUSH1 0x1F NOT PUSH1 0x3F RETURNDATASIZE ADD AND DUP3 ADD PUSH1 0x40 MSTORE RETURNDATASIZE DUP3 MSTORE RETURNDATASIZE PUSH0 PUSH1 0x20 DUP5 ADD RETURNDATACOPY PUSH2 0x26CC JUMP JUMPDEST PUSH1 0x60 SWAP2 POP JUMPDEST POP POP SWAP1 POP DUP1 PUSH2 0x2707 JUMPI PUSH1 0x40 MLOAD PUSH32 0x750B219C00000000000000000000000000000000000000000000000000000000 DUP2 MSTORE PUSH1 0x4 ADD PUSH1 0x40 MLOAD DUP1 SWAP2 SUB SWAP1 REVERT JUMPDEST DUP4 PUSH32 0x55C90D9726FF7562E2DDA9743C070AB007DD986E4C0A42BCF578362C435A4D89 PUSH1 0x40 MLOAD PUSH1 0x40 MLOAD DUP1 SWAP2 SUB SWAP1 LOG2 POP POP POP PUSH1 0x1 PUSH0 DUP2 SWAP1 SSTORE POP POP JUMP JUMPDEST PUSH0 PUSH0 PUSH2 0x274C DUP5 PUSH2 0x2FE9 JUMP JUMPDEST SWAP1 POP DUP1 PUSH1 0xA ADD PUSH0 DUP5 PUSH20 0xFFFFFFFFFFFFFFFFFFFFFFFFFFFFFFFFFFFFFFFF AND PUSH20 0xFFFFFFFFFFFFFFFFFFFFFFFFFFFFFFFFFFFFFFFF AND DUP2 MSTORE PUSH1 0x20 ADD SWAP1 DUP2 MSTORE PUSH1 0x20 ADD PUSH0 KECCAK256 PUSH1 0x1 ADD PUSH0 SWAP1 SLOAD SWAP1 PUSH2 0x100 EXP SWAP1 DIV PUSH8 0xFFFFFFFFFFFFFFFF AND SWAP2 POP POP SWAP3 SWAP2 POP POP JUMP JUMPDEST PUSH0 PUSH0 PUSH0 PUSH0 PUSH0 PUSH2 0x27BB DUP7 PUSH2 0x2FE9 JUMP JUMPDEST SWAP1 POP DUP1 PUSH1 0x5 ADD PUSH0 SWAP1 SLOAD SWAP1 PUSH2 0x100 EXP SWAP1 DIV PUSH8 0xFFFFFFFFFFFFFFFF AND DUP2 PUSH1 0x5 ADD PUSH1 0x8 SWAP1 SLOAD SWAP1 PUSH2 0x100 EXP SWAP1 DIV PUSH8 0xFFFFFFFFFFFFFFFF AND DUP3 PUSH1 0x5 ADD PUSH1 0x10 SWAP1 SLOAD SWAP1 PUSH2 0x100 EXP SWAP1 DIV PUSH8 0xFFFFFFFFFFFFFFFF AND DUP4 PUSH1 0x6 ADD PUSH1 0x8 SWAP1 SLOAD SWAP1 PUSH2 0x100 EXP SWAP1 DIV PUSH8 0xFFFFFFFFFFFFFFFF AND SWAP5 POP SWAP5 POP SWAP5 POP SWAP5 POP POP SWAP2 SWAP4 POP SWAP2 SWAP4 JUMP JUMPDEST PUSH0 PUSH0 PUSH2 0x283B DUP5 PUSH2 0x2FE9 JUMP JUMPDEST SWAP1 POP DUP1 PUSH1 0xA ADD PUSH0 DUP5 PUSH20 0xFFFFFFFFFFFFFFFFFFFFFFFFFFFFFFFFFFFFFFFF AND PUSH20 0xFFFFFFFFFFFFFFFFFFFFFFFFFFFFFFFFFFFFFFFF AND DUP2 MSTORE PUSH1 0x20 ADD SWAP1 DUP2 MSTORE PUSH1 0x20 ADD PUSH0 KECCAK256 PUSH1 0x2 ADD SLOAD SWAP2 POP POP SWAP3 SWAP2 POP POP JUMP JUMPDEST PUSH1 0x2 PUSH0 SLOAD SUB PUSH2 0x28CD JUMPI PUSH1 0x40 MLOAD PUSH32 0x8C379A000000000000000000000000000000000000000000000000000000000 DUP2 MSTORE PUSH1 0x4 ADD PUSH2 0x28C4 SWAP1 PUSH2 0x3841 JUMP JUMPDEST PUSH1 0x40 MLOAD DUP1 SWAP2 SUB SWAP1 REVERT JUMPDEST PUSH1 0x2 PUSH0 DUP2 SWAP1 SSTORE POP PUSH0 PUSH2 0x28DD PUSH2 0x2BDA JUMP JUMPDEST SWAP1 POP DUP1 PUSH1 0x2 ADD PUSH1 0x14 SWAP1 SLOAD SWAP1 PUSH2 0x100 EXP SWAP1 DIV PUSH1 0xFF AND PUSH2 0x2927 JUMPI PUSH1 0x40 MLOAD PUSH32 0xD3018D1800000000000000000000000000000000000000000000000000000000 DUP2 MSTORE PUSH1 0x4 ADD PUSH1 0x40 MLOAD DUP1 SWAP2 SUB SWAP1 REVERT JUMPDEST CALLER PUSH20 0xFFFFFFFFFFFFFFFFFFFFFFFFFFFFFFFFFFFFFFFF AND DUP2 PUSH1 0x2 ADD PUSH0 SWAP1 SLOAD SWAP1 PUSH2 0x100 EXP SWAP1 DIV PUSH20 0xFFFFFFFFFFFFFFFFFFFFFFFFFFFFFFFFFFFFFFFF AND PUSH20 0xFFFFFFFFFFFFFFFFFFFFFFFFFFFFFFFFFFFFFFFF AND EQ PUSH2 0x29AF JUMPI PUSH1 0x40 MLOAD PUSH32 0x618C724200000000000000000000000000000000000000000000000000000000 DUP2 MSTORE PUSH1 0x4 ADD PUSH1 0x40 MLOAD DUP1 SWAP2 SUB SWAP1 REVERT JUMPDEST DUP1 PUSH1 0x2 ADD PUSH1 0x15 SWAP1 SLOAD SWAP1 PUSH2 0x100 EXP SWAP1 DIV PUSH1 0xFF AND ISZERO PUSH2 0x29F8 JUMPI PUSH1 0x40 MLOAD PUSH32 0x44A5DDCC00000000000000000000000000000000000000000000000000000000 DUP2 MSTORE PUSH1 0x4 ADD PUSH1 0x40 MLOAD DUP1 SWAP2 SUB SWAP1 REVERT JUMPDEST DUP1 PUSH1 0x6 ADD PUSH1 0x8 SWAP1 SLOAD SWAP1 PUSH2 0x100 EXP SWAP1 DIV PUSH8 0xFFFFFFFFFFFFFFFF AND PUSH8 0xFFFFFFFFFFFFFFFF AND TIMESTAMP GT DUP1 ISZERO PUSH2 0x2A2D JUMPI POP PUSH0 DUP2 PUSH1 0x9 ADD SLOAD EQ ISZERO JUMPDEST ISZERO PUSH2 0x2A64 JUMPI PUSH1 0x40 MLOAD PUSH32 0x58459E8800000000000000000000000000000000000000000000000000000000 DUP2 MSTORE PUSH1 0x4 ADD PUSH1 0x40 MLOAD DUP1 SWAP2 SUB SWAP1 REVERT JUMPDEST DUP1 PUSH1 0x9 ADD SLOAD CALLVALUE EQ PUSH2 0x2AA1 JUMPI PUSH1 0x40 MLOAD PUSH32 0x788A686F00000000000000000000000000000000000000000000000000000000 DUP2 MSTORE PUSH1 0x4 ADD PUSH1 0x40 MLOAD DUP1 SWAP2 SUB SWAP1 REVERT JUMPDEST PUSH0 DUP2 PUSH1 0x9 ADD SLOAD EQ PUSH2 0x2B31 JUMPI PUSH0 DUP2 PUSH1 0x9 ADD DUP2 SWAP1 SSTORE POP CALLVALUE DUP2 PUSH1 0xA ADD PUSH0 DUP4 PUSH1 0x1 ADD PUSH0 SWAP1 SLOAD SWAP1 PUSH2 0x100 EXP SWAP1 DIV PUSH20 0xFFFFFFFFFFFFFFFFFFFFFFFFFFFFFFFFFFFFFFFF AND PUSH20 0xFFFFFFFFFFFFFFFFFFFFFFFFFFFFFFFFFFFFFFFF AND PUSH20 0xFFFFFFFFFFFFFFFFFFFFFFFFFFFFFFFFFFFFFFFF AND DUP2 MSTORE PUSH1 0x20 ADD SWAP1 DUP2 MSTORE PUSH1 0x20 ADD PUSH0 KECCAK256 PUSH1 0x2 ADD PUSH0 DUP3 DUP3 SLOAD PUSH2 0x2B29 SWAP2 SWAP1 PUSH2 0x36DB JUMP JUMPDEST SWAP3 POP POP DUP2 SWAP1 SSTORE POP JUMPDEST PUSH1 0x1 DUP2 PUSH1 0x2 ADD PUSH1 0x15 PUSH2 0x100 EXP DUP2 SLOAD DUP2 PUSH1 0xFF MUL NOT AND SWAP1 DUP4 ISZERO ISZERO MUL OR SWAP1 SSTORE POP PUSH2 0x2B7F ADDRESS DUP3 PUSH1 0x2 ADD PUSH0 SWAP1 SLOAD SWAP1 PUSH2 0x100 EXP SWAP1 DIV PUSH20 0xFFFFFFFFFFFFFFFFFFFFFFFFFFFFFFFFFFFFFFFF AND DUP4 PUSH0 ADD SLOAD PUSH2 0x2C7B JUMP JUMPDEST CALLER PUSH20 0xFFFFFFFFFFFFFFFFFFFFFFFFFFFFFFFFFFFFFFFF AND PUSH1 0x1 SLOAD PUSH32 0xD33EF6AB06E6BF8672161AA6ABE1EC1791C393D62213EBD89C67F611E538E575 CALLVALUE PUSH1 0x40 MLOAD PUSH2 0x2BC8 SWAP2 SWAP1 PUSH2 0x30A2 JUMP JUMPDEST PUSH1 0x40 MLOAD DUP1 SWAP2 SUB SWAP1 LOG3 POP PUSH1 0x1 PUSH0 DUP2 SWAP1 SSTORE POP JUMP JUMPDEST PUSH0 PUSH1 0x2 PUSH0 PUSH1 0x1 SLOAD DUP2 MSTORE PUSH1 0x20 ADD SWAP1 DUP2 MSTORE PUSH1 0x20 ADD PUSH0 KECCAK256 SWAP1 POP PUSH0 PUSH20 0xFFFFFFFFFFFFFFFFFFFFFFFFFFFFFFFFFFFFFFFF AND DUP2 PUSH1 0x1 ADD PUSH0 SWAP1 SLOAD SWAP1 PUSH2 0x100 EXP SWAP1 DIV PUSH20 0xFFFFFFFFFFFFFFFFFFFFFFFFFFFFFFFFFFFFFFFF AND PUSH20 0xFFFFFFFFFFFFFFFFFFFFFFFFFFFFFFFFFFFFFFFF AND SUB PUSH2 0x2C78 JUMPI PUSH1 0x40 MLOAD PUSH32 0x568CA25700000000000000000000000000000000000000000000000000000000 DUP2 MSTORE PUSH1 0x4 ADD PUSH1 0x40 MLOAD DUP1 SWAP2 SUB SWAP1 REVERT JUMPDEST SWAP1 JUMP JUMPDEST DUP3 PUSH20 0xFFFFFFFFFFFFFFFFFFFFFFFFFFFFFFFFFFFFFFFF AND PUSH32 0x0 PUSH20 0xFFFFFFFFFFFFFFFFFFFFFFFFFFFFFFFFFFFFFFFF AND PUSH4 0x6352211E DUP4 PUSH1 0x40 MLOAD DUP3 PUSH4 0xFFFFFFFF AND PUSH1 0xE0 SHL DUP2 MSTORE PUSH1 0x4 ADD PUSH2 0x2CEB SWAP2 SWAP1 PUSH2 0x30A2 JUMP JUMPDEST PUSH1 0x20 PUSH1 0x40 MLOAD DUP1 DUP4 SUB DUP2 DUP7 GAS STATICCALL ISZERO DUP1 ISZERO PUSH2 0x2D06 JUMPI RETURNDATASIZE PUSH0 PUSH0 RETURNDATACOPY RETURNDATASIZE PUSH0 REVERT JUMPDEST POP POP POP POP PUSH1 0x40 MLOAD RETURNDATASIZE PUSH1 0x1F NOT PUSH1 0x1F DUP3 ADD AND DUP3 ADD DUP1 PUSH1 0x40 MSTORE POP DUP2 ADD SWAP1 PUSH2 0x2D2A SWAP2 SWAP1 PUSH2 0x3ABC JUMP JUMPDEST PUSH20 0xFFFFFFFFFFFFFFFFFFFFFFFFFFFFFFFFFFFFFFFF AND EQ PUSH2 0x2D80 JUMPI PUSH1 0x40 MLOAD PUSH32 0x8C379A000000000000000000000000000000000000000000000000000000000 DUP2 MSTORE PUSH1 0x4 ADD PUSH2 0x2D77 SWAP1 PUSH2 0x3CA2 JUMP JUMPDEST PUSH1 0x40 MLOAD DUP1 SWAP2 SUB SWAP1 REVERT JUMPDEST ADDRESS PUSH20 0xFFFFFFFFFFFFFFFFFFFFFFFFFFFFFFFFFFFFFFFF AND DUP3 PUSH20 0xFFFFFFFFFFFFFFFFFFFFFFFFFFFFFFFFFFFFFFFF AND SUB PUSH2 0x2F5A JUMPI ADDRESS PUSH20 0xFFFFFFFFFFFFFFFFFFFFFFFFFFFFFFFFFFFFFFFF AND PUSH32 0x0 PUSH20 0xFFFFFFFFFFFFFFFFFFFFFFFFFFFFFFFFFFFFFFFF AND PUSH4 0x81812FC DUP4 PUSH1 0x40 MLOAD DUP3 PUSH4 0xFFFFFFFF AND PUSH1 0xE0 SHL DUP2 MSTORE PUSH1 0x4 ADD PUSH2 0x2E23 SWAP2 SWAP1 PUSH2 0x30A2 JUMP JUMPDEST PUSH1 0x20 PUSH1 0x40 MLOAD DUP1 DUP4 SUB DUP2 DUP7 GAS STATICCALL ISZERO DUP1 ISZERO PUSH2 0x2E3E JUMPI RETURNDATASIZE PUSH0 PUSH0 RETURNDATACOPY RETURNDATASIZE PUSH0 REVERT JUMPDEST POP POP POP POP PUSH1 0x40 MLOAD RETURNDATASIZE PUSH1 0x1F NOT PUSH1 0x1F DUP3 ADD AND DUP3 ADD DUP1 PUSH1 0x40 MSTORE POP DUP2 ADD SWAP1 PUSH2 0x2E62 SWAP2 SWAP1 PUSH2 0x3ABC JUMP JUMPDEST PUSH20 0xFFFFFFFFFFFFFFFFFFFFFFFFFFFFFFFFFFFFFFFF AND EQ DUP1 PUSH2 0x2F1A JUMPI POP PUSH32 0x0 PUSH20 0xFFFFFFFFFFFFFFFFFFFFFFFFFFFFFFFFFFFFFFFF AND PUSH4 0xE985E9C5 DUP5 ADDRESS PUSH1 0x40 MLOAD DUP4 PUSH4 0xFFFFFFFF AND PUSH1 0xE0 SHL DUP2 MSTORE PUSH1 0x4 ADD PUSH2 0x2EDA SWAP3 SWAP2 SWAP1 PUSH2 0x3CC0 JUMP JUMPDEST PUSH1 0x20 PUSH1 0x40 MLOAD DUP1 DUP4 SUB DUP2 DUP7 GAS STATICCALL ISZERO DUP1 ISZERO PUSH2 0x2EF5 JUMPI RETURNDATASIZE PUSH0 PUSH0 RETURNDATACOPY RETURNDATASIZE PUSH0 REVERT JUMPDEST POP POP POP POP PUSH1 0x40 MLOAD RETURNDATASIZE PUSH1 0x1F NOT PUSH1 0x1F DUP3 ADD AND DUP3 ADD DUP1 PUSH1 0x40 MSTORE POP DUP2 ADD SWAP1 PUSH2 0x2F19 SWAP2 SWAP1 PUSH2 0x3D1C JUMP JUMPDEST JUMPDEST PUSH2 0x2F59 JUMPI PUSH1 0x40 MLOAD PUSH32 0x8C379A000000000000000000000000000000000000000000000000000000000 DUP2 MSTORE PUSH1 0x4 ADD PUSH2 0x2F50 SWAP1 PUSH2 0x3D91 JUMP JUMPDEST PUSH1 0x40 MLOAD DUP1 SWAP2 SUB SWAP1 REVERT JUMPDEST JUMPDEST PUSH32 0x0 PUSH20 0xFFFFFFFFFFFFFFFFFFFFFFFFFFFFFFFFFFFFFFFF AND PUSH4 0x42842E0E DUP5 DUP5 DUP5 PUSH1 0x40 MLOAD DUP5 PUSH4 0xFFFFFFFF AND PUSH1 0xE0 SHL DUP2 MSTORE PUSH1 0x4 ADD PUSH2 0x2FB7 SWAP4 SWAP3 SWAP2 SWAP1 PUSH2 0x3DAF JUMP JUMPDEST PUSH0 PUSH1 0x40 MLOAD DUP1 DUP4 SUB DUP2 PUSH0 DUP8 DUP1 EXTCODESIZE ISZERO DUP1 ISZERO PUSH2 0x2FCE JUMPI PUSH0 PUSH0 REVERT JUMPDEST POP GAS CALL ISZERO DUP1 ISZERO PUSH2 0x2FE0 JUMPI RETURNDATASIZE PUSH0 PUSH0 RETURNDATACOPY RETURNDATASIZE PUSH0 REVERT JUMPDEST POP POP POP POP POP POP POP JUMP JUMPDEST PUSH0 PUSH1 0x2 PUSH0 DUP4 DUP2 MSTORE PUSH1 0x20 ADD SWAP1 DUP2 MSTORE PUSH1 0x20 ADD PUSH0 KECCAK256 SWAP1 POP PUSH0 PUSH20 0xFFFFFFFFFFFFFFFFFFFFFFFFFFFFFFFFFFFFFFFF AND DUP2 PUSH1 0x1 ADD PUSH0 SWAP1 SLOAD SWAP1 PUSH2 0x100 EXP SWAP1 DIV PUSH20 0xFFFFFFFFFFFFFFFFFFFFFFFFFFFFFFFFFFFFFFFF AND PUSH20 0xFFFFFFFFFFFFFFFFFFFFFFFFFFFFFFFFFFFFFFFF AND SUB PUSH2 0x3085 JUMPI PUSH1 0x40 MLOAD PUSH32 0x568CA25700000000000000000000000000000000000000000000000000000000 DUP2 MSTORE PUSH1 0x4 ADD PUSH1 0x40 MLOAD DUP1 SWAP2 SUB SWAP1 REVERT JUMPDEST SWAP2 SWAP1 POP JUMP JUMPDEST PUSH0 DUP2 SWAP1 POP SWAP2 SWAP1 POP JUMP JUMPDEST PUSH2 0x309C DUP2 PUSH2 0x308A JUMP JUMPDEST DUP3 MSTORE POP POP JUMP JUMPDEST PUSH0 PUSH1 0x20 DUP3 ADD SWAP1 POP PUSH2 0x30B5 PUSH0 DUP4 ADD DUP5 PUSH2 0x3093 JUMP JUMPDEST SWAP3 SWAP2 POP POP JUMP JUMPDEST PUSH0 PUSH0 REVERT JUMPDEST PUSH0 PUSH0 REVERT JUMPDEST PUSH0 PUSH20 0xFFFFFFFFFFFFFFFFFFFFFFFFFFFFFFFFFFFFFFFF DUP3 AND SWAP1 POP SWAP2 SWAP1 POP JUMP JUMPDEST PUSH0 PUSH2 0x30EC DUP3 PUSH2 0x30C3 JUMP JUMPDEST SWAP1 POP SWAP2 SWAP1 POP JUMP JUMPDEST PUSH2 0x30FC DUP2 PUSH2 0x30E2 JUMP JUMPDEST DUP2 EQ PUSH2 0x3106 JUMPI PUSH0 PUSH0 REVERT JUMPDEST POP JUMP JUMPDEST PUSH0 DUP2 CALLDATALOAD SWAP1 POP PUSH2 0x3117 DUP2 PUSH2 0x30F3 JUMP JUMPDEST SWAP3 SWAP2 POP POP JUMP JUMPDEST PUSH2 0x3126 DUP2 PUSH2 0x308A JUMP JUMPDEST DUP2 EQ PUSH2 0x3130 JUMPI PUSH0 PUSH0 REVERT JUMPDEST POP JUMP JUMPDEST PUSH0 DUP2 CALLDATALOAD SWAP1 POP PUSH2 0x3141 DUP2 PUSH2 0x311D JUMP JUMPDEST SWAP3 SWAP2 POP POP JUMP JUMPDEST PUSH0 PUSH0 REVERT JUMPDEST PUSH0 PUSH0 REVERT JUMPDEST PUSH0 PUSH0 REVERT JUMPDEST PUSH0 PUSH0 DUP4 PUSH1 0x1F DUP5 ADD SLT PUSH2 0x3168 JUMPI PUSH2 0x3167 PUSH2 0x3147 JUMP JUMPDEST JUMPDEST DUP3 CALLDATALOAD SWAP1 POP PUSH8 0xFFFFFFFFFFFFFFFF DUP2 GT ISZERO PUSH2 0x3185 JUMPI PUSH2 0x3184 PUSH2 0x314B JUMP JUMPDEST JUMPDEST PUSH1 0x20 DUP4 ADD SWAP2 POP DUP4 PUSH1 0x1 DUP3 MUL DUP4 ADD GT ISZERO PUSH2 0x31A1 JUMPI PUSH2 0x31A0 PUSH2 0x314F JUMP JUMPDEST JUMPDEST SWAP3 POP SWAP3 SWAP1 POP JUMP JUMPDEST PUSH0 PUSH0 PUSH0 PUSH0 PUSH0 PUSH1 0x80 DUP7 DUP9 SUB SLT ISZERO PUSH2 0x31C1 JUMPI PUSH2 0x31C0 PUSH2 0x30BB JUMP JUMPDEST JUMPDEST PUSH0 PUSH2 0x31CE DUP9 DUP3 DUP10 ADD PUSH2 0x3109 JUMP JUMPDEST SWAP6 POP POP PUSH1 0x20 PUSH2 0x31DF DUP9 DUP3 DUP10 ADD PUSH2 0x3109 JUMP JUMPDEST SWAP5 POP POP PUSH1 0x40 PUSH2 0x31F0 DUP9 DUP3 DUP10 ADD PUSH2 0x3133 JUMP JUMPDEST SWAP4 POP POP PUSH1 0x60 DUP7 ADD CALLDATALOAD PUSH8 0xFFFFFFFFFFFFFFFF DUP2 GT ISZERO PUSH2 0x3211 JUMPI PUSH2 0x3210 PUSH2 0x30BF JUMP JUMPDEST JUMPDEST PUSH2 0x321D DUP9 DUP3 DUP10 ADD PUSH2 0x3153 JUMP JUMPDEST SWAP3 POP SWAP3 POP POP SWAP3 SWAP6 POP SWAP3 SWAP6 SWAP1 SWAP4 POP JUMP JUMPDEST PUSH0 PUSH32 0xFFFFFFFF00000000000000000000000000000000000000000000000000000000 DUP3 AND SWAP1 POP SWAP2 SWAP1 POP JUMP JUMPDEST PUSH2 0x3260 DUP2 PUSH2 0x322C JUMP JUMPDEST DUP3 MSTORE POP POP JUMP JUMPDEST PUSH0 PUSH1 0x20 DUP3 ADD SWAP1 POP PUSH2 0x3279 PUSH0 DUP4 ADD DUP5 PUSH2 0x3257 JUMP JUMPDEST SWAP3 SWAP2 POP POP JUMP JUMPDEST PUSH0 DUP2 SWAP1 POP SWAP2 SWAP1 POP JUMP JUMPDEST PUSH0 PUSH2 0x32A2 PUSH2 0x329D PUSH2 0x3298 DUP5 PUSH2 0x30C3 JUMP JUMPDEST PUSH2 0x327F JUMP JUMPDEST PUSH2 0x30C3 JUMP JUMPDEST SWAP1 POP SWAP2 SWAP1 POP JUMP JUMPDEST PUSH0 PUSH2 0x32B3 DUP3 PUSH2 0x3288 JUMP JUMPDEST SWAP1 POP SWAP2 SWAP1 POP JUMP JUMPDEST PUSH0 PUSH2 0x32C4 DUP3 PUSH2 0x32A9 JUMP JUMPDEST SWAP1 POP SWAP2 SWAP1 POP JUMP JUMPDEST PUSH2 0x32D4 DUP2 PUSH2 0x32BA JUMP JUMPDEST DUP3 MSTORE POP POP JUMP JUMPDEST PUSH0 PUSH1 0x20 DUP3 ADD SWAP1 POP PUSH2 0x32ED PUSH0 DUP4 ADD DUP5 PUSH2 0x32CB JUMP JUMPDEST SWAP3 SWAP2 POP POP JUMP JUMPDEST PUSH0 DUP2 SWAP1 POP SWAP2 SWAP1 POP JUMP JUMPDEST PUSH2 0x3305 DUP2 PUSH2 0x32F3 JUMP JUMPDEST DUP2 EQ PUSH2 0x330F JUMPI PUSH0 PUSH0 REVERT JUMPDEST POP JUMP JUMPDEST PUSH0 DUP2 CALLDATALOAD SWAP1 POP PUSH2 0x3320 DUP2 PUSH2 0x32FC JUMP JUMPDEST SWAP3 SWAP2 POP POP JUMP JUMPDEST PUSH0 PUSH0 PUSH1 0x40 DUP4 DUP6 SUB SLT ISZERO PUSH2 0x333C JUMPI PUSH2 0x333B PUSH2 0x30BB JUMP JUMPDEST JUMPDEST PUSH0 PUSH2 0x3349 DUP6 DUP3 DUP7 ADD PUSH2 0x3133 JUMP JUMPDEST SWAP3 POP POP PUSH1 0x20 PUSH2 0x335A DUP6 DUP3 DUP7 ADD PUSH2 0x3312 JUMP JUMPDEST SWAP2 POP POP SWAP3 POP SWAP3 SWAP1 POP JUMP JUMPDEST PUSH0 PUSH1 0x20 DUP3 DUP5 SUB SLT ISZERO PUSH2 0x3379 JUMPI PUSH2 0x3378 PUSH2 0x30BB JUMP JUMPDEST JUMPDEST PUSH0 PUSH2 0x3386 DUP5 DUP3 DUP6 ADD PUSH2 0x3133 JUMP JUMPDEST SWAP2 POP POP SWAP3 SWAP2 POP POP JUMP JUMPDEST PUSH2 0x3398 DUP2 PUSH2 0x30E2 JUMP JUMPDEST DUP3 MSTORE POP POP JUMP JUMPDEST PUSH0 PUSH8 0xFFFFFFFFFFFFFFFF DUP3 AND SWAP1 POP SWAP2 SWAP1 POP JUMP JUMPDEST PUSH2 0x33BA DUP2 PUSH2 0x339E JUMP JUMPDEST DUP3 MSTORE POP POP JUMP JUMPDEST PUSH0 PUSH1 0x60 DUP3 ADD SWAP1 POP PUSH2 0x33D3 PUSH0 DUP4 ADD DUP7 PUSH2 0x338F JUMP JUMPDEST PUSH2 0x33E0 PUSH1 0x20 DUP4 ADD DUP6 PUSH2 0x3093 JUMP JUMPDEST PUSH2 0x33ED PUSH1 0x40 DUP4 ADD DUP5 PUSH2 0x33B1 JUMP JUMPDEST SWAP5 SWAP4 POP POP POP POP JUMP JUMPDEST PUSH0 PUSH0 PUSH1 0x40 DUP4 DUP6 SUB SLT ISZERO PUSH2 0x340B JUMPI PUSH2 0x340A PUSH2 0x30BB JUMP JUMPDEST JUMPDEST PUSH0 PUSH2 0x3418 DUP6 DUP3 DUP7 ADD PUSH2 0x3133 JUMP JUMPDEST SWAP3 POP POP PUSH1 0x20 PUSH2 0x3429 DUP6 DUP3 DUP7 ADD PUSH2 0x3109 JUMP JUMPDEST SWAP2 POP POP SWAP3 POP SWAP3 SWAP1 POP JUMP JUMPDEST PUSH0 PUSH1 0x20 DUP3 DUP5 SUB SLT ISZERO PUSH2 0x3448 JUMPI PUSH2 0x3447 PUSH2 0x30BB JUMP JUMPDEST JUMPDEST PUSH0 PUSH2 0x3455 DUP5 DUP3 DUP6 ADD PUSH2 0x3312 JUMP JUMPDEST SWAP2 POP POP SWAP3 SWAP2 POP POP JUMP JUMPDEST PUSH2 0x3467 DUP2 PUSH2 0x339E JUMP JUMPDEST DUP2 EQ PUSH2 0x3471 JUMPI PUSH0 PUSH0 REVERT JUMPDEST POP JUMP JUMPDEST PUSH0 DUP2 CALLDATALOAD SWAP1 POP PUSH2 0x3482 DUP2 PUSH2 0x345E JUMP JUMPDEST SWAP3 SWAP2 POP POP JUMP JUMPDEST PUSH0 PUSH0 PUSH0 PUSH0 PUSH0 PUSH1 0xA0 DUP7 DUP9 SUB SLT ISZERO PUSH2 0x34A1 JUMPI PUSH2 0x34A0 PUSH2 0x30BB JUMP JUMPDEST JUMPDEST PUSH0 PUSH2 0x34AE DUP9 DUP3 DUP10 ADD PUSH2 0x3133 JUMP JUMPDEST SWAP6 POP POP PUSH1 0x20 PUSH2 0x34BF DUP9 DUP3 DUP10 ADD PUSH2 0x3133 JUMP JUMPDEST SWAP5 POP POP PUSH1 0x40 PUSH2 0x34D0 DUP9 DUP3 DUP10 ADD PUSH2 0x3474 JUMP JUMPDEST SWAP4 POP POP PUSH1 0x60 PUSH2 0x34E1 DUP9 DUP3 DUP10 ADD PUSH2 0x3474 JUMP JUMPDEST SWAP3 POP POP PUSH1 0x80 PUSH2 0x34F2 DUP9 DUP3 DUP10 ADD PUSH2 0x3474 JUMP JUMPDEST SWAP2 POP POP SWAP3 SWAP6 POP SWAP3 SWAP6 SWAP1 SWAP4 POP JUMP JUMPDEST PUSH2 0x3508 DUP2 PUSH2 0x32F3 JUMP JUMPDEST DUP3 MSTORE POP POP JUMP JUMPDEST PUSH0 PUSH1 0x20 DUP3 ADD SWAP1 POP PUSH2 0x3521 PUSH0 DUP4 ADD DUP5 PUSH2 0x34FF JUMP JUMPDEST SWAP3 SWAP2 POP POP JUMP JUMPDEST PUSH0 DUP2 MLOAD SWAP1 POP SWAP2 SWAP1 POP JUMP JUMPDEST PUSH0 DUP3 DUP3 MSTORE PUSH1 0x20 DUP3 ADD SWAP1 POP SWAP3 SWAP2 POP POP JUMP JUMPDEST DUP3 DUP2 DUP4 MCOPY PUSH0 DUP4 DUP4 ADD MSTORE POP POP POP JUMP JUMPDEST PUSH0 PUSH1 0x1F NOT PUSH1 0x1F DUP4 ADD AND SWAP1 POP SWAP2 SWAP1 POP JUMP JUMPDEST PUSH0 PUSH2 0x3569 DUP3 PUSH2 0x3527 JUMP JUMPDEST PUSH2 0x3573 DUP2 DUP6 PUSH2 0x3531 JUMP JUMPDEST SWAP4 POP PUSH2 0x3583 DUP2 DUP6 PUSH1 0x20 DUP7 ADD PUSH2 0x3541 JUMP JUMPDEST PUSH2 0x358C DUP2 PUSH2 0x354F JUMP JUMPDEST DUP5 ADD SWAP2 POP POP SWAP3 SWAP2 POP POP JUMP JUMPDEST PUSH0 PUSH1 0x20 DUP3 ADD SWAP1 POP DUP2 DUP2 SUB PUSH0 DUP4 ADD MSTORE PUSH2 0x35AF DUP2 DUP5 PUSH2 0x355F JUMP JUMPDEST SWAP1 POP SWAP3 SWAP2 POP POP JUMP JUMPDEST PUSH0 PUSH1 0x20 DUP3 ADD SWAP1 POP PUSH2 0x35CA PUSH0 DUP4 ADD DUP5 PUSH2 0x33B1 JUMP JUMPDEST SWAP3 SWAP2 POP POP JUMP JUMPDEST PUSH0 PUSH1 0x80 DUP3 ADD SWAP1 POP PUSH2 0x35E3 PUSH0 DUP4 ADD DUP8 PUSH2 0x33B1 JUMP JUMPDEST PUSH2 0x35F0 PUSH1 0x20 DUP4 ADD DUP7 PUSH2 0x33B1 JUMP JUMPDEST PUSH2 0x35FD PUSH1 0x40 DUP4 ADD DUP6 PUSH2 0x33B1 JUMP JUMPDEST PUSH2 0x360A PUSH1 0x60 DUP4 ADD DUP5 PUSH2 0x33B1 JUMP JUMPDEST SWAP6 SWAP5 POP POP POP POP POP JUMP JUMPDEST PUSH32 0x616C72656164792066696E616C697A6564000000000000000000000000000000 PUSH0 DUP3 ADD MSTORE POP JUMP JUMPDEST PUSH0 PUSH2 0x3647 PUSH1 0x11 DUP4 PUSH2 0x3531 JUMP JUMPDEST SWAP2 POP PUSH2 0x3652 DUP3 PUSH2 0x3613 JUMP JUMPDEST PUSH1 0x20 DUP3 ADD SWAP1 POP SWAP2 SWAP1 POP JUMP JUMPDEST PUSH0 PUSH1 0x20 DUP3 ADD SWAP1 POP DUP2 DUP2 SUB PUSH0 DUP4 ADD MSTORE PUSH2 0x3674 DUP2 PUSH2 0x363B JUMP JUMPDEST SWAP1 POP SWAP2 SWAP1 POP JUMP JUMPDEST PUSH32 0x4E487B7100000000000000000000000000000000000000000000000000000000 PUSH0 MSTORE PUSH1 0x11 PUSH1 0x4 MSTORE PUSH1 0x24 PUSH0 REVERT JUMPDEST PUSH0 PUSH2 0x36B2 DUP3 PUSH2 0x308A JUMP JUMPDEST SWAP2 POP PUSH2 0x36BD DUP4 PUSH2 0x308A JUMP JUMPDEST SWAP3 POP DUP3 DUP3 SUB SWAP1 POP DUP2 DUP2 GT ISZERO PUSH2 0x36D5 JUMPI PUSH2 0x36D4 PUSH2 0x367B JUMP JUMPDEST JUMPDEST SWAP3 SWAP2 POP POP JUMP JUMPDEST PUSH0 PUSH2 0x36E5 DUP3 PUSH2 0x308A JUMP JUMPDEST SWAP2 POP PUSH2 0x36F0 DUP4 PUSH2 0x308A JUMP JUMPDEST SWAP3 POP DUP3 DUP3 ADD SWAP1 POP DUP1 DUP3 GT ISZERO PUSH2 0x3708 JUMPI PUSH2 0x3707 PUSH2 0x367B JUMP JUMPDEST JUMPDEST SWAP3 SWAP2 POP POP JUMP JUMPDEST PUSH0 PUSH2 0x3718 DUP3 PUSH2 0x339E JUMP JUMPDEST SWAP2 POP PUSH2 0x3723 DUP4 PUSH2 0x339E JUMP JUMPDEST SWAP3 POP DUP3 DUP3 ADD SWAP1 POP PUSH8 0xFFFFFFFFFFFFFFFF DUP2 GT ISZERO PUSH2 0x3743 JUMPI PUSH2 0x3742 PUSH2 0x367B JUMP JUMPDEST JUMPDEST SWAP3 SWAP2 POP POP JUMP JUMPDEST PUSH0 PUSH1 0x80 DUP3 ADD SWAP1 POP PUSH2 0x375C PUSH0 DUP4 ADD DUP8 PUSH2 0x338F JUMP JUMPDEST PUSH2 0x3769 PUSH1 0x20 DUP4 ADD DUP7 PUSH2 0x3093 JUMP JUMPDEST PUSH2 0x3776 PUSH1 0x40 DUP4 ADD DUP6 PUSH2 0x3093 JUMP JUMPDEST PUSH2 0x3783 PUSH1 0x60 DUP4 ADD DUP5 PUSH2 0x3093 JUMP JUMPDEST SWAP6 SWAP5 POP POP POP POP POP JUMP JUMPDEST PUSH0 DUP2 SWAP1 POP SWAP2 SWAP1 POP JUMP JUMPDEST PUSH2 0x37A6 PUSH2 0x37A1 DUP3 PUSH2 0x308A JUMP JUMPDEST PUSH2 0x378C JUMP JUMPDEST DUP3 MSTORE POP POP JUMP JUMPDEST PUSH0 DUP2 SWAP1 POP SWAP2 SWAP1 POP JUMP JUMPDEST PUSH2 0x37C6 PUSH2 0x37C1 DUP3 PUSH2 0x32F3 JUMP JUMPDEST PUSH2 0x37AC JUMP JUMPDEST DUP3 MSTORE POP POP JUMP JUMPDEST PUSH0 PUSH2 0x37D7 DUP3 DUP6 PUSH2 0x3795 JUMP JUMPDEST PUSH1 0x20 DUP3 ADD SWAP2 POP PUSH2 0x37E7 DUP3 DUP5 PUSH2 0x37B5 JUMP JUMPDEST PUSH1 0x20 DUP3 ADD SWAP2 POP DUP2 SWAP1 POP SWAP4 SWAP3 POP POP POP JUMP JUMPDEST PUSH32 0x5245454E5452414E435900000000000000000000000000000000000000000000 PUSH0 DUP3 ADD MSTORE POP JUMP JUMPDEST PUSH0 PUSH2 0x382B PUSH1 0xA DUP4 PUSH2 0x3531 JUMP JUMPDEST SWAP2 POP PUSH2 0x3836 DUP3 PUSH2 0x37F7 JUMP JUMPDEST PUSH1 0x20 DUP3 ADD SWAP1 POP SWAP2 SWAP1 POP JUMP JUMPDEST PUSH0 PUSH1 0x20 DUP3 ADD SWAP1 POP DUP2 DUP2 SUB PUSH0 DUP4 ADD MSTORE PUSH2 0x3858 DUP2 PUSH2 0x381F JUMP JUMPDEST SWAP1 POP SWAP2 SWAP1 POP JUMP JUMPDEST PUSH0 DUP2 SWAP1 POP SWAP3 SWAP2 POP POP JUMP JUMPDEST POP JUMP JUMPDEST PUSH0 PUSH2 0x3877 PUSH0 DUP4 PUSH2 0x385F JUMP JUMPDEST SWAP2 POP PUSH2 0x3882 DUP3 PUSH2 0x3869 JUMP JUMPDEST PUSH0 DUP3 ADD SWAP1 POP SWAP2 SWAP1 POP JUMP JUMPDEST PUSH0 PUSH2 0x3896 DUP3 PUSH2 0x386C JUMP JUMPDEST SWAP2 POP DUP2 SWAP1 POP SWAP2 SWAP1 POP JUMP JUMPDEST PUSH32 0x70726576696F7573206E6F7420656E6465640000000000000000000000000000 PUSH0 DUP3 ADD MSTORE POP JUMP JUMPDEST PUSH0 PUSH2 0x38D4 PUSH1 0x12 DUP4 PUSH2 0x3531 JUMP JUMPDEST SWAP2 POP PUSH2 0x38DF DUP3 PUSH2 0x38A0 JUMP JUMPDEST PUSH1 0x20 DUP3 ADD SWAP1 POP SWAP2 SWAP1 POP JUMP JUMPDEST PUSH0 PUSH1 0x20 DUP3 ADD SWAP1 POP DUP2 DUP2 SUB PUSH0 DUP4 ADD MSTORE PUSH2 0x3901 DUP2 PUSH2 0x38C8 JUMP JUMPDEST SWAP1 POP SWAP2 SWAP1 POP JUMP JUMPDEST PUSH32 0x434F4E4649473A2062616420636F6D6D6974206475726174696F6E7300000000 PUSH0 DUP3 ADD MSTORE POP JUMP JUMPDEST PUSH0 PUSH2 0x393C PUSH1 0x1C DUP4 PUSH2 0x3531 JUMP JUMPDEST SWAP2 POP PUSH2 0x3947 DUP3 PUSH2 0x3908 JUMP JUMPDEST PUSH1 0x20 DUP3 ADD SWAP1 POP SWAP2 SWAP1 POP JUMP JUMPDEST PUSH0 PUSH1 0x20 DUP3 ADD SWAP1 POP DUP2 DUP2 SUB PUSH0 DUP4 ADD MSTORE PUSH2 0x3969 DUP2 PUSH2 0x3930 JUMP JUMPDEST SWAP1 POP SWAP2 SWAP1 POP JUMP JUMPDEST PUSH32 0x434F4E4649473A206261642072657665616C206475726174696F6E7300000000 PUSH0 DUP3 ADD MSTORE POP JUMP JUMPDEST PUSH0 PUSH2 0x39A4 PUSH1 0x1C DUP4 PUSH2 0x3531 JUMP JUMPDEST SWAP2 POP PUSH2 0x39AF DUP3 PUSH2 0x3970 JUMP JUMPDEST PUSH1 0x20 DUP3 ADD SWAP1 POP SWAP2 SWAP1 POP JUMP JUMPDEST PUSH0 PUSH1 0x20 DUP3 ADD SWAP1 POP DUP2 DUP2 SUB PUSH0 DUP4 ADD MSTORE PUSH2 0x39D1 DUP2 PUSH2 0x3998 JUMP JUMPDEST SWAP1 POP SWAP2 SWAP1 POP JUMP JUMPDEST PUSH32 0x434F4E4649473A2062616420736574746C65206475726174696F6E7300000000 PUSH0 DUP3 ADD MSTORE POP JUMP JUMPDEST PUSH0 PUSH2 0x3A0C PUSH1 0x1C DUP4 PUSH2 0x3531 JUMP JUMPDEST SWAP2 POP PUSH2 0x3A17 DUP3 PUSH2 0x39D8 JUMP JUMPDEST PUSH1 0x20 DUP3 ADD SWAP1 POP SWAP2 SWAP1 POP JUMP JUMPDEST PUSH0 PUSH1 0x20 DUP3 ADD SWAP1 POP DUP2 DUP2 SUB PUSH0 DUP4 ADD MSTORE PUSH2 0x3A39 DUP2 PUSH2 0x3A00 JUMP JUMPDEST SWAP1 POP SWAP2 SWAP1 POP JUMP JUMPDEST PUSH32 0x434F4E4649473A20626164207265736572766520707269636500000000000000 PUSH0 DUP3 ADD MSTORE POP JUMP JUMPDEST PUSH0 PUSH2 0x3A74 PUSH1 0x19 DUP4 PUSH2 0x3531 JUMP JUMPDEST SWAP2 POP PUSH2 0x3A7F DUP3 PUSH2 0x3A40 JUMP JUMPDEST PUSH1 0x20 DUP3 ADD SWAP1 POP SWAP2 SWAP1 POP JUMP JUMPDEST PUSH0 PUSH1 0x20 DUP3 ADD SWAP1 POP DUP2 DUP2 SUB PUSH0 DUP4 ADD MSTORE PUSH2 0x3AA1 DUP2 PUSH2 0x3A68 JUMP JUMPDEST SWAP1 POP SWAP2 SWAP1 POP JUMP JUMPDEST PUSH0 DUP2 MLOAD SWAP1 POP PUSH2 0x3AB6 DUP2 PUSH2 0x30F3 JUMP JUMPDEST SWAP3 SWAP2 POP POP JUMP JUMPDEST PUSH0 PUSH1 0x20 DUP3 DUP5 SUB SLT ISZERO PUSH2 0x3AD1 JUMPI PUSH2 0x3AD0 PUSH2 0x30BB JUMP JUMPDEST JUMPDEST PUSH0 PUSH2 0x3ADE DUP5 DUP3 DUP6 ADD PUSH2 0x3AA8 JUMP JUMPDEST SWAP2 POP POP SWAP3 SWAP2 POP POP JUMP JUMPDEST PUSH32 0x6E6F74206F776E65720000000000000000000000000000000000000000000000 PUSH0 DUP3 ADD MSTORE POP JUMP JUMPDEST PUSH0 PUSH2 0x3B1B PUSH1 0x9 DUP4 PUSH2 0x3531 JUMP JUMPDEST SWAP2 POP PUSH2 0x3B26 DUP3 PUSH2 0x3AE7 JUMP JUMPDEST PUSH1 0x20 DUP3 ADD SWAP1 POP SWAP2 SWAP1 POP JUMP JUMPDEST PUSH0 PUSH1 0x20 DUP3 ADD SWAP1 POP DUP2 DUP2 SUB PUSH0 DUP4 ADD MSTORE PUSH2 0x3B48 DUP2 PUSH2 0x3B0F JUMP JUMPDEST SWAP1 POP SWAP2 SWAP1 POP JUMP JUMPDEST PUSH32 0x4E487B7100000000000000000000000000000000000000000000000000000000 PUSH0 MSTORE PUSH1 0x12 PUSH1 0x4 MSTORE PUSH1 0x24 PUSH0 REVERT JUMPDEST PUSH0 PUSH2 0x3B86 DUP3 PUSH2 0x308A JUMP JUMPDEST SWAP2 POP PUSH2 0x3B91 DUP4 PUSH2 0x308A JUMP JUMPDEST SWAP3 POP DUP3 PUSH2 0x3BA1 JUMPI PUSH2 0x3BA0 PUSH2 0x3B4F JUMP JUMPDEST JUMPDEST DUP3 DUP3 DIV SWAP1 POP SWAP3 SWAP2 POP POP JUMP JUMPDEST PUSH0 PUSH2 0x3BC6 PUSH2 0x3BC1 PUSH2 0x3BBC DUP5 PUSH2 0x339E JUMP JUMPDEST PUSH2 0x327F JUMP JUMPDEST PUSH2 0x308A JUMP JUMPDEST SWAP1 POP SWAP2 SWAP1 POP JUMP JUMPDEST PUSH2 0x3BD6 DUP2 PUSH2 0x3BAC JUMP JUMPDEST DUP3 MSTORE POP POP JUMP JUMPDEST PUSH0 PUSH2 0x100 DUP3 ADD SWAP1 POP PUSH2 0x3BF0 PUSH0 DUP4 ADD DUP12 PUSH2 0x338F JUMP JUMPDEST PUSH2 0x3BFD PUSH1 0x20 DUP4 ADD DUP11 PUSH2 0x3093 JUMP JUMPDEST PUSH2 0x3C0A PUSH1 0x40 DUP4 ADD DUP10 PUSH2 0x3093 JUMP JUMPDEST PUSH2 0x3C17 PUSH1 0x60 DUP4 ADD DUP9 PUSH2 0x3093 JUMP JUMPDEST PUSH2 0x3C24 PUSH1 0x80 DUP4 ADD DUP8 PUSH2 0x3BCD JUMP JUMPDEST PUSH2 0x3C31 PUSH1 0xA0 DUP4 ADD DUP7 PUSH2 0x33B1 JUMP JUMPDEST PUSH2 0x3C3E PUSH1 0xC0 DUP4 ADD DUP6 PUSH2 0x33B1 JUMP JUMPDEST PUSH2 0x3C4B PUSH1 0xE0 DUP4 ADD DUP5 PUSH2 0x33B1 JUMP JUMPDEST SWAP10 SWAP9 POP POP POP POP POP POP POP POP POP JUMP JUMPDEST PUSH32 0x4E46543A206E6F74206F776E6572000000000000000000000000000000000000 PUSH0 DUP3 ADD MSTORE POP JUMP JUMPDEST PUSH0 PUSH2 0x3C8C PUSH1 0xE DUP4 PUSH2 0x3531 JUMP JUMPDEST SWAP2 POP PUSH2 0x3C97 DUP3 PUSH2 0x3C58 JUMP JUMPDEST PUSH1 0x20 DUP3 ADD SWAP1 POP SWAP2 SWAP1 POP JUMP JUMPDEST PUSH0 PUSH1 0x20 DUP3 ADD SWAP1 POP DUP2 DUP2 SUB PUSH0 DUP4 ADD MSTORE PUSH2 0x3CB9 DUP2 PUSH2 0x3C80 JUMP JUMPDEST SWAP1 POP SWAP2 SWAP1 POP JUMP JUMPDEST PUSH0 PUSH1 0x40 DUP3 ADD SWAP1 POP PUSH2 0x3CD3 PUSH0 DUP4 ADD DUP6 PUSH2 0x338F JUMP JUMPDEST PUSH2 0x3CE0 PUSH1 0x20 DUP4 ADD DUP5 PUSH2 0x338F JUMP JUMPDEST SWAP4 SWAP3 POP POP POP JUMP JUMPDEST PUSH0 DUP2 ISZERO ISZERO SWAP1 POP SWAP2 SWAP1 POP JUMP JUMPDEST PUSH2 0x3CFB DUP2 PUSH2 0x3CE7 JUMP JUMPDEST DUP2 EQ PUSH2 0x3D05 JUMPI PUSH0 PUSH0 REVERT JUMPDEST POP JUMP JUMPDEST PUSH0 DUP2 MLOAD SWAP1 POP PUSH2 0x3D16 DUP2 PUSH2 0x3CF2 JUMP JUMPDEST SWAP3 SWAP2 POP POP JUMP JUMPDEST PUSH0 PUSH1 0x20 DUP3 DUP5 SUB SLT ISZERO PUSH2 0x3D31 JUMPI PUSH2 0x3D30 PUSH2 0x30BB JUMP JUMPDEST JUMPDEST PUSH0 PUSH2 0x3D3E DUP5 DUP3 DUP6 ADD PUSH2 0x3D08 JUMP JUMPDEST SWAP2 POP POP SWAP3 SWAP2 POP POP JUMP JUMPDEST PUSH32 0x4E46543A206E6F7420617070726F766564000000000000000000000000000000 PUSH0 DUP3 ADD MSTORE POP JUMP JUMPDEST PUSH0 PUSH2 0x3D7B PUSH1 0x11 DUP4 PUSH2 0x3531 JUMP JUMPDEST SWAP2 POP PUSH2 0x3D86 DUP3 PUSH2 0x3D47 JUMP JUMPDEST PUSH1 0x20 DUP3 ADD SWAP1 POP SWAP2 SWAP1 POP JUMP JUMPDEST PUSH0 PUSH1 0x20 DUP3 ADD SWAP1 POP DUP2 DUP2 SUB PUSH0 DUP4 ADD MSTORE PUSH2 0x3DA8 DUP2 PUSH2 0x3D6F JUMP JUMPDEST SWAP1 POP SWAP2 SWAP1 POP JUMP JUMPDEST PUSH0 PUSH1 0x60 DUP3 ADD SWAP1 POP PUSH2 0x3DC2 PUSH0 DUP4 ADD DUP7 PUSH2 0x338F JUMP JUMPDEST PUSH2 0x3DCF PUSH1 0x20 DUP4 ADD DUP6 PUSH2 0x338F JUMP JUMPDEST PUSH2 0x3DDC PUSH1 0x40 DUP4 ADD DUP5 PUSH2 0x3093 JUMP JUMPDEST SWAP5 SWAP4 POP POP POP POP JUMP INVALID LOG2 PUSH5 0x6970667358 0x22 SLT KECCAK256 SWAP13 EQ BLOCKHASH 0xD2 BLOBBASEFEE 0xDF 0xCC 0xB8 GAS 0xC5 GT 0xDC 0xC SAR DATALOADN 0xEB79 CODESIZE 0xF6 MUL DUP7 DUP3 SELFBALANCE PC 0xA5 0xCA MULMOD SAR 0x21 CALL 0xCD PUSH24 0x64736F6C634300081E003300000000000000000000000000 "
				},
				"gasEstimates": {
					"creation": {
						"codeDepositCost": "3179600",
						"executionCost": "infinite",
						"totalCost": "infinite"
					},
					"external": {
						"MAX_DURATION()": "436",
						"MAX_PRICE()": "349",
						"auctionId()": "2471",
						"classNFT()": "infinite",
						"commitBid(bytes32)": "infinite",
						"currentPhase(uint256)": "infinite",
						"finalize()": "infinite",
						"getCommitSeq(uint256,address)": "5423",
						"getCommitment(uint256,address)": "5382",
						"getDepositAmount(uint256,address)": "infinite",
						"getRevealedAmount(uint256,address)": "infinite",
						"getTimes(uint256)": "infinite",
						"getWinnerInfo(uint256)": "infinite",
						"onERC721Received(address,address,uint256,bytes)": "infinite",
						"payAndClaim()": "infinite",
						"payAndClaim(uint256)": "infinite",
						"revealBid(uint256,bytes32)": "infinite",
						"sellerReclaimNFT(uint256)": "infinite",
						"startAuction(uint256,uint256,uint64,uint64,uint64)": "infinite",
						"withdrawDeposits()": "infinite",
						"withdrawDeposits(uint256)": "infinite"
					},
					"internal": {
						"_requireActiveAuction()": "infinite",
						"_requireAuction(uint256)": "infinite",
						"_safeTransferNFT(address,address,uint256)": "infinite"
					}
				},
				"methodIdentifiers": {
					"MAX_DURATION()": "b1724b46",
					"MAX_PRICE()": "01c11d96",
					"auctionId()": "10782f8f",
					"classNFT()": "5e7721f7",
					"commitBid(bytes32)": "86a2cc27",
					"currentPhase(uint256)": "b1fb6405",
					"finalize()": "4bb278f3",
					"getCommitSeq(uint256,address)": "d3851f4c",
					"getCommitment(uint256,address)": "89fb2682",
					"getDepositAmount(uint256,address)": "de75a5c0",
					"getRevealedAmount(uint256,address)": "813abc2d",
					"getTimes(uint256)": "d3aa699e",
					"getWinnerInfo(uint256)": "6b1da364",
					"onERC721Received(address,address,uint256,bytes)": "150b7a02",
					"payAndClaim()": "e9906f2e",
					"payAndClaim(uint256)": "a0743f22",
					"revealBid(uint256,bytes32)": "62c5424a",
					"sellerReclaimNFT(uint256)": "c8f97366",
					"startAuction(uint256,uint256,uint64,uint64,uint64)": "894da478",
					"withdrawDeposits()": "7cf2ed22",
					"withdrawDeposits(uint256)": "71d946b4"
				}
			},
			"storageLayout": {
				"storage": [
					{
						"astId": 104,
						"contract": "AuctionContract.sol:VickreyAuctionHouse",
						"label": "_status",
						"offset": 0,
						"slot": "0",
						"type": "t_uint256"
					},
					{
						"astId": 190,
						"contract": "AuctionContract.sol:VickreyAuctionHouse",
						"label": "auctionId",
						"offset": 0,
						"slot": "1",
						"type": "t_uint256"
					},
					{
						"astId": 195,
						"contract": "AuctionContract.sol:VickreyAuctionHouse",
						"label": "_auctions",
						"offset": 0,
						"slot": "2",
						"type": "t_mapping(t_uint256,t_struct(Auction)188_storage)"
					}
				],
				"types": {
					"t_address": {
						"encoding": "inplace",
						"label": "address",
						"numberOfBytes": "20"
					},
					"t_bool": {
						"encoding": "inplace",
						"label": "bool",
						"numberOfBytes": "1"
					},
					"t_bytes32": {
						"encoding": "inplace",
						"label": "bytes32",
						"numberOfBytes": "32"
					},
					"t_mapping(t_address,t_struct(Bidder)150_storage)": {
						"encoding": "mapping",
						"key": "t_address",
						"label": "mapping(address => struct VickreyAuctionHouse.Bidder)",
						"numberOfBytes": "32",
						"value": "t_struct(Bidder)150_storage"
					},
					"t_mapping(t_uint256,t_struct(Auction)188_storage)": {
						"encoding": "mapping",
						"key": "t_uint256",
						"label": "mapping(uint256 => struct VickreyAuctionHouse.Auction)",
						"numberOfBytes": "32",
						"value": "t_struct(Auction)188_storage"
					},
					"t_struct(Auction)188_storage": {
						"encoding": "inplace",
						"label": "struct VickreyAuctionHouse.Auction",
						"members": [
							{
								"astId": 152,
								"contract": "AuctionContract.sol:VickreyAuctionHouse",
								"label": "tokenId",
								"offset": 0,
								"slot": "0",
								"type": "t_uint256"
							},
							{
								"astId": 154,
								"contract": "AuctionContract.sol:VickreyAuctionHouse",
								"label": "seller",
								"offset": 0,
								"slot": "1",
								"type": "t_address"
							},
							{
								"astId": 156,
								"contract": "AuctionContract.sol:VickreyAuctionHouse",
								"label": "highestBidder",
								"offset": 0,
								"slot": "2",
								"type": "t_address"
							},
							{
								"astId": 158,
								"contract": "AuctionContract.sol:VickreyAuctionHouse",
								"label": "finalized",
								"offset": 20,
								"slot": "2",
								"type": "t_bool"
							},
							{
								"astId": 160,
								"contract": "AuctionContract.sol:VickreyAuctionHouse",
								"label": "settled",
								"offset": 21,
								"slot": "2",
								"type": "t_bool"
							},
							{
								"astId": 162,
								"contract": "AuctionContract.sol:VickreyAuctionHouse",
								"label": "reservePrice",
								"offset": 0,
								"slot": "3",
								"type": "t_uint256"
							},
							{
								"astId": 164,
								"contract": "AuctionContract.sol:VickreyAuctionHouse",
								"label": "depositPrice",
								"offset": 0,
								"slot": "4",
								"type": "t_uint256"
							},
							{
								"astId": 166,
								"contract": "AuctionContract.sol:VickreyAuctionHouse",
								"label": "startStamp",
								"offset": 0,
								"slot": "5",
								"type": "t_uint64"
							},
							{
								"astId": 168,
								"contract": "AuctionContract.sol:VickreyAuctionHouse",
								"label": "commitEnd",
								"offset": 8,
								"slot": "5",
								"type": "t_uint64"
							},
							{
								"astId": 170,
								"contract": "AuctionContract.sol:VickreyAuctionHouse",
								"label": "revealEnd",
								"offset": 16,
								"slot": "5",
								"type": "t_uint64"
							},
							{
								"astId": 172,
								"contract": "AuctionContract.sol:VickreyAuctionHouse",
								"label": "commitSeqCounter",
								"offset": 24,
								"slot": "5",
								"type": "t_uint64"
							},
							{
								"astId": 174,
								"contract": "AuctionContract.sol:VickreyAuctionHouse",
								"label": "settleDuration",
								"offset": 0,
								"slot": "6",
								"type": "t_uint64"
							},
							{
								"astId": 176,
								"contract": "AuctionContract.sol:VickreyAuctionHouse",
								"label": "settleDeadline",
								"offset": 8,
								"slot": "6",
								"type": "t_uint64"
							},
							{
								"astId": 178,
								"contract": "AuctionContract.sol:VickreyAuctionHouse",
								"label": "highestBid",
								"offset": 0,
								"slot": "7",
								"type": "t_uint256"
							},
							{
								"astId": 180,
								"contract": "AuctionContract.sol:VickreyAuctionHouse",
								"label": "secondBid",
								"offset": 0,
								"slot": "8",
								"type": "t_uint256"
							},
							{
								"astId": 182,
								"contract": "AuctionContract.sol:VickreyAuctionHouse",
								"label": "clearingPrice",
								"offset": 0,
								"slot": "9",
								"type": "t_uint256"
							},
							{
								"astId": 187,
								"contract": "AuctionContract.sol:VickreyAuctionHouse",
								"label": "bidders",
								"offset": 0,
								"slot": "10",
								"type": "t_mapping(t_address,t_struct(Bidder)150_storage)"
							}
						],
						"numberOfBytes": "352"
					},
					"t_struct(Bidder)150_storage": {
						"encoding": "inplace",
						"label": "struct VickreyAuctionHouse.Bidder",
						"members": [
							{
								"astId": 143,
								"contract": "AuctionContract.sol:VickreyAuctionHouse",
								"label": "commitment",
								"offset": 0,
								"slot": "0",
								"type": "t_bytes32"
							},
							{
								"astId": 145,
								"contract": "AuctionContract.sol:VickreyAuctionHouse",
								"label": "commitSeq",
								"offset": 0,
								"slot": "1",
								"type": "t_uint64"
							},
							{
								"astId": 147,
								"contract": "AuctionContract.sol:VickreyAuctionHouse",
								"label": "deposit",
								"offset": 0,
								"slot": "2",
								"type": "t_uint256"
							},
							{
								"astId": 149,
								"contract": "AuctionContract.sol:VickreyAuctionHouse",
								"label": "revealed",
								"offset": 0,
								"slot": "3",
								"type": "t_uint256"
							}
						],
						"numberOfBytes": "128"
					},
					"t_uint256": {
						"encoding": "inplace",
						"label": "uint256",
						"numberOfBytes": "32"
					},
					"t_uint64": {
						"encoding": "inplace",
						"label": "uint64",
						"numberOfBytes": "8"
					}
				}
			},
			"userdoc": {
				"kind": "user",
				"methods": {
					"commitBid(bytes32)": {
						"notice": "Commit a bid hash during commit phase. One (the last) commit is valid per address"
					},
					"finalize()": {
						"notice": "Finalize result after reveal ends: compute clearing price or mark unsold.         Sets a payment deadline for the winner to pay and claim."
					},
					"payAndClaim()": {
						"notice": "Winner pays the clearing price and claims the NFT.     1) there is amount to pay ==> must before the deadline     2) all amount paid ==> claim anytime (forever reserved)"
					},
					"revealBid(uint256,bytes32)": {
						"notice": "Reveal your bid during reveal phase."
					},
					"sellerReclaimNFT(uint256)": {
						"notice": "If winner not settle up before settle deadline, auction passed and return the NFT"
					},
					"startAuction(uint256,uint256,uint64,uint64,uint64)": {
						"notice": "Start a new auction. Seller must own the NFT and approve this contract; NFT is escrowed in."
					}
				},
				"version": 1
			}
		}
	}
}