{
	"AuctionContract.sol": {
		"VickreyAuctionHouse": {
			"abi": [
				{
					"inputs": [],
					"name": "AuctionActive",
					"type": "error"
				},
				{
					"inputs": [],
					"name": "ExactDepositRequired",
					"type": "error"
				},
				{
					"inputs": [],
					"name": "InvalidCommitment",
					"type": "error"
				},
				{
					"inputs": [],
					"name": "InvalidRevealedPrice",
					"type": "error"
				},
				{
					"inputs": [],
					"name": "NFTNotEscrowed",
					"type": "error"
				},
				{
					"inputs": [],
					"name": "NoActiveAuction",
					"type": "error"
				},
				{
					"inputs": [],
					"name": "NoDeposit",
					"type": "error"
				},
				{
					"inputs": [],
					"name": "NoEthAllowed",
					"type": "error"
				},
				{
					"inputs": [],
					"name": "NotEnded",
					"type": "error"
				},
				{
					"inputs": [],
					"name": "NotFinalizable",
					"type": "error"
				},
				{
					"inputs": [],
					"name": "NotInCommitPhase",
					"type": "error"
				},
				{
					"inputs": [],
					"name": "NotInRevealPhase",
					"type": "error"
				},
				{
					"inputs": [],
					"name": "NotSeller",
					"type": "error"
				},
				{
					"inputs": [],
					"name": "NotWinner",
					"type": "error"
				},
				{
					"inputs": [],
					"name": "PaymentClosed",
					"type": "error"
				},
				{
					"inputs": [],
					"name": "RevealAlreadyDone",
					"type": "error"
				},
				{
					"inputs": [],
					"name": "WithdrawFailed",
					"type": "error"
				},
				{
					"inputs": [],
					"name": "WrongPayment",
					"type": "error"
				},
				{
					"anonymous": false,
					"inputs": [
						{
							"indexed": true,
							"internalType": "uint256",
							"name": "id",
							"type": "uint256"
						},
						{
							"indexed": true,
							"internalType": "address",
							"name": "seller",
							"type": "address"
						},
						{
							"indexed": true,
							"internalType": "address",
							"name": "nft",
							"type": "address"
						},
						{
							"indexed": false,
							"internalType": "uint256",
							"name": "tokenId",
							"type": "uint256"
						},
						{
							"indexed": false,
							"internalType": "uint256",
							"name": "reservePrice",
							"type": "uint256"
						},
						{
							"indexed": false,
							"internalType": "uint256",
							"name": "startStamp",
							"type": "uint256"
						},
						{
							"indexed": false,
							"internalType": "uint64",
							"name": "commitEnd",
							"type": "uint64"
						},
						{
							"indexed": false,
							"internalType": "uint64",
							"name": "revealEnd",
							"type": "uint64"
						},
						{
							"indexed": false,
							"internalType": "uint64",
							"name": "settleDuration",
							"type": "uint64"
						}
					],
					"name": "AuctionStarted",
					"type": "event"
				},
				{
					"anonymous": false,
					"inputs": [
						{
							"indexed": true,
							"internalType": "uint256",
							"name": "id",
							"type": "uint256"
						},
						{
							"indexed": true,
							"internalType": "address",
							"name": "bidder",
							"type": "address"
						}
					],
					"name": "BidCommitted",
					"type": "event"
				},
				{
					"anonymous": false,
					"inputs": [
						{
							"indexed": true,
							"internalType": "uint256",
							"name": "id",
							"type": "uint256"
						},
						{
							"indexed": true,
							"internalType": "address",
							"name": "bidder",
							"type": "address"
						},
						{
							"indexed": false,
							"internalType": "uint256",
							"name": "amount",
							"type": "uint256"
						}
					],
					"name": "BidRevealed",
					"type": "event"
				},
				{
					"anonymous": false,
					"inputs": [
						{
							"indexed": true,
							"internalType": "uint256",
							"name": "id",
							"type": "uint256"
						},
						{
							"indexed": false,
							"internalType": "address",
							"name": "winner",
							"type": "address"
						},
						{
							"indexed": false,
							"internalType": "uint256",
							"name": "highest",
							"type": "uint256"
						},
						{
							"indexed": false,
							"internalType": "uint256",
							"name": "second",
							"type": "uint256"
						},
						{
							"indexed": false,
							"internalType": "uint256",
							"name": "clearingPrice",
							"type": "uint256"
						}
					],
					"name": "Finalized",
					"type": "event"
				},
				{
					"anonymous": false,
					"inputs": [
						{
							"indexed": true,
							"internalType": "uint256",
							"name": "id",
							"type": "uint256"
						}
					],
					"name": "SellerReclaimed",
					"type": "event"
				},
				{
					"anonymous": false,
					"inputs": [
						{
							"indexed": true,
							"internalType": "uint256",
							"name": "id",
							"type": "uint256"
						}
					],
					"name": "Unsold",
					"type": "event"
				},
				{
					"anonymous": false,
					"inputs": [
						{
							"indexed": true,
							"internalType": "uint256",
							"name": "id",
							"type": "uint256"
						},
						{
							"indexed": true,
							"internalType": "address",
							"name": "winner",
							"type": "address"
						},
						{
							"indexed": false,
							"internalType": "uint256",
							"name": "price",
							"type": "uint256"
						}
					],
					"name": "WinnerPaidAndClaimed",
					"type": "event"
				},
				{
					"anonymous": false,
					"inputs": [
						{
							"indexed": true,
							"internalType": "uint256",
							"name": "id",
							"type": "uint256"
						},
						{
							"indexed": true,
							"internalType": "address",
							"name": "bidder",
							"type": "address"
						}
					],
					"name": "WithDrawnDeposit",
					"type": "event"
				},
				{
					"inputs": [],
					"name": "CLASS_NFT",
					"outputs": [
						{
							"internalType": "address",
							"name": "",
							"type": "address"
						}
					],
					"stateMutability": "view",
					"type": "function"
				},
				{
					"inputs": [],
					"name": "MAX_DURATION",
					"outputs": [
						{
							"internalType": "uint256",
							"name": "",
							"type": "uint256"
						}
					],
					"stateMutability": "view",
					"type": "function"
				},
				{
					"inputs": [],
					"name": "MAX_PRICE",
					"outputs": [
						{
							"internalType": "uint256",
							"name": "",
							"type": "uint256"
						}
					],
					"stateMutability": "view",
					"type": "function"
				},
				{
					"inputs": [],
					"name": "auctionId",
					"outputs": [
						{
							"internalType": "uint256",
							"name": "",
							"type": "uint256"
						}
					],
					"stateMutability": "view",
					"type": "function"
				},
				{
					"inputs": [],
					"name": "classNFT",
					"outputs": [
						{
							"internalType": "contract IERC721",
							"name": "",
							"type": "address"
						}
					],
					"stateMutability": "view",
					"type": "function"
				},
				{
					"inputs": [
						{
							"internalType": "bytes32",
							"name": "commitment",
							"type": "bytes32"
						}
					],
					"name": "commitBid",
					"outputs": [],
					"stateMutability": "payable",
					"type": "function"
				},
				{
					"inputs": [
						{
							"internalType": "uint256",
							"name": "id",
							"type": "uint256"
						}
					],
					"name": "currentPhase",
					"outputs": [
						{
							"internalType": "string",
							"name": "",
							"type": "string"
						}
					],
					"stateMutability": "view",
					"type": "function"
				},
				{
					"inputs": [],
					"name": "finalize",
					"outputs": [],
					"stateMutability": "nonpayable",
					"type": "function"
				},
				{
					"inputs": [
						{
							"internalType": "uint256",
							"name": "id",
							"type": "uint256"
						},
						{
							"internalType": "address",
							"name": "bidder",
							"type": "address"
						}
					],
					"name": "getCommitSeq",
					"outputs": [
						{
							"internalType": "uint64",
							"name": "",
							"type": "uint64"
						}
					],
					"stateMutability": "view",
					"type": "function"
				},
				{
					"inputs": [
						{
							"internalType": "uint256",
							"name": "id",
							"type": "uint256"
						},
						{
							"internalType": "address",
							"name": "bidder",
							"type": "address"
						}
					],
					"name": "getCommitment",
					"outputs": [
						{
							"internalType": "bytes32",
							"name": "",
							"type": "bytes32"
						}
					],
					"stateMutability": "view",
					"type": "function"
				},
				{
					"inputs": [
						{
							"internalType": "uint256",
							"name": "id",
							"type": "uint256"
						},
						{
							"internalType": "address",
							"name": "bidder",
							"type": "address"
						}
					],
					"name": "getDepositAmount",
					"outputs": [
						{
							"internalType": "uint256",
							"name": "",
							"type": "uint256"
						}
					],
					"stateMutability": "view",
					"type": "function"
				},
				{
					"inputs": [
						{
							"internalType": "uint256",
							"name": "id",
							"type": "uint256"
						},
						{
							"internalType": "address",
							"name": "bidder",
							"type": "address"
						}
					],
					"name": "getRevealedAmount",
					"outputs": [
						{
							"internalType": "uint256",
							"name": "",
							"type": "uint256"
						}
					],
					"stateMutability": "view",
					"type": "function"
				},
				{
					"inputs": [
						{
							"internalType": "uint256",
							"name": "id",
							"type": "uint256"
						}
					],
					"name": "getTimes",
					"outputs": [
						{
							"internalType": "uint64",
							"name": "commitEnd",
							"type": "uint64"
						},
						{
							"internalType": "uint64",
							"name": "revealEnd",
							"type": "uint64"
						},
						{
							"internalType": "uint64",
							"name": "settleDeadline",
							"type": "uint64"
						}
					],
					"stateMutability": "view",
					"type": "function"
				},
				{
					"inputs": [
						{
							"internalType": "uint256",
							"name": "id",
							"type": "uint256"
						}
					],
					"name": "getWinnerInfo",
					"outputs": [
						{
							"internalType": "address",
							"name": "winner",
							"type": "address"
						},
						{
							"internalType": "uint256",
							"name": "price",
							"type": "uint256"
						},
						{
							"internalType": "uint64",
							"name": "payDeadline",
							"type": "uint64"
						}
					],
					"stateMutability": "view",
					"type": "function"
				},
				{
					"inputs": [],
					"name": "payAndClaim",
					"outputs": [],
					"stateMutability": "payable",
					"type": "function"
				},
				{
					"inputs": [
						{
							"internalType": "uint256",
							"name": "amount",
							"type": "uint256"
						},
						{
							"internalType": "bytes32",
							"name": "salt",
							"type": "bytes32"
						}
					],
					"name": "revealBid",
					"outputs": [],
					"stateMutability": "nonpayable",
					"type": "function"
				},
				{
					"inputs": [
						{
							"internalType": "uint256",
							"name": "id",
							"type": "uint256"
						}
					],
					"name": "sellerReclaimNFT",
					"outputs": [],
					"stateMutability": "nonpayable",
					"type": "function"
				},
				{
					"inputs": [
						{
							"internalType": "uint256",
							"name": "tokenId",
							"type": "uint256"
						},
						{
							"internalType": "uint256",
							"name": "reservePrice",
							"type": "uint256"
						},
						{
							"internalType": "uint64",
							"name": "commitDurationSeconds",
							"type": "uint64"
						},
						{
							"internalType": "uint64",
							"name": "revealDurationSeconds",
							"type": "uint64"
						},
						{
							"internalType": "uint64",
							"name": "settleDurationSeconds",
							"type": "uint64"
						}
					],
					"name": "startAuction",
					"outputs": [],
					"stateMutability": "nonpayable",
					"type": "function"
				},
				{
					"inputs": [
						{
							"internalType": "uint256",
							"name": "id",
							"type": "uint256"
						}
					],
					"name": "withdrawDeposits",
					"outputs": [],
					"stateMutability": "nonpayable",
					"type": "function"
				},
				{
					"inputs": [],
					"name": "withdrawDeposits",
					"outputs": [],
					"stateMutability": "nonpayable",
					"type": "function"
				}
			],
			"devdoc": {
				"kind": "dev",
				"methods": {
					"commitBid(bytes32)": {
						"params": {
							"commitment": "keccak256(abi.encodePacked(amount, salt))"
						}
					},
					"revealBid(uint256,bytes32)": {
						"params": {
							"amount": "Bid amount in wei.",
							"salt": "The random secret used in commit."
						}
					},
					"startAuction(uint256,uint256,uint64,uint64,uint64)": {
						"params": {
							"commitDurationSeconds": "Commit phase duration in seconds.",
							"reservePrice": "Minimum acceptable price (wei).",
							"revealDurationSeconds": "Reveal phase duration in seconds.",
							"tokenId": "Token id in the fixed ClassNFT."
						}
					}
				},
				"version": 1
			},
			"evm": {
				"assembly": "    /* \"AuctionContract.sol\":699:16841  contract VickreyAuctionHouse {... */\n  mstore(0x40, 0xa0)\n    /* \"AuctionContract.sol\":1729:1730  1 */\n  0x01\n    /* \"AuctionContract.sol\":1781:1819  uint256 private _status = _NOT_ENTERED */\n  0x00\n  sstore\n    /* \"AuctionContract.sol\":1585:1627  0x1546Bd67237122754D3F0cB761c139f81388b210 */\n  0x1546bd67237122754d3f0cb761c139f81388b210\n    /* \"AuctionContract.sol\":3551:3605  IERC721 public immutable classNFT = IERC721(CLASS_NFT) */\n  0xffffffffffffffffffffffffffffffffffffffff\n  and\n  0x80\n  swap1\n  0xffffffffffffffffffffffffffffffffffffffff\n  and\n  dup2\n  mstore\n  pop\n    /* \"AuctionContract.sol\":699:16841  contract VickreyAuctionHouse {... */\n  callvalue\n  dup1\n  iszero\n  tag_1\n  jumpi\n  revert(0x00, 0x00)\ntag_1:\n  pop\n  mload(0x80)\n  codecopy(0x00, dataOffset(sub_0), dataSize(sub_0))\n  0x00\n  assignImmutable(\"0xbf08d8a2d7c7780024ba6e6dbe12d3d5a5a747ea3071fca63d8a2ede50d3472a\")\n  return(0x00, dataSize(sub_0))\nstop\n\nsub_0: assembly {\n        /* \"AuctionContract.sol\":699:16841  contract VickreyAuctionHouse {... */\n      mstore(0x40, 0x80)\n      jumpi(tag_1, lt(calldatasize, 0x04))\n      shr(0xe0, calldataload(0x00))\n      dup1\n      0x86a2cc27\n      gt\n      tag_22\n      jumpi\n      dup1\n      0xc8f97366\n      gt\n      tag_23\n      jumpi\n      dup1\n      0xc8f97366\n      eq\n      tag_17\n      jumpi\n      dup1\n      0xd3851f4c\n      eq\n      tag_18\n      jumpi\n      dup1\n      0xd3aa699e\n      eq\n      tag_19\n      jumpi\n      dup1\n      0xde75a5c0\n      eq\n      tag_20\n      jumpi\n      dup1\n      0xe9906f2e\n      eq\n      tag_21\n      jumpi\n      jump(tag_1)\n    tag_23:\n      dup1\n      0x86a2cc27\n      eq\n      tag_12\n      jumpi\n      dup1\n      0x894da478\n      eq\n      tag_13\n      jumpi\n      dup1\n      0x89fb2682\n      eq\n      tag_14\n      jumpi\n      dup1\n      0xb1724b46\n      eq\n      tag_15\n      jumpi\n      dup1\n      0xb1fb6405\n      eq\n      tag_16\n      jumpi\n      jump(tag_1)\n    tag_22:\n      dup1\n      0x62c5424a\n      gt\n      tag_24\n      jumpi\n      dup1\n      0x62c5424a\n      eq\n      tag_7\n      jumpi\n      dup1\n      0x6b1da364\n      eq\n      tag_8\n      jumpi\n      dup1\n      0x71d946b4\n      eq\n      tag_9\n      jumpi\n      dup1\n      0x7cf2ed22\n      eq\n      tag_10\n      jumpi\n      dup1\n      0x813abc2d\n      eq\n      tag_11\n      jumpi\n      jump(tag_1)\n    tag_24:\n      dup1\n      0x01c11d96\n      eq\n      tag_2\n      jumpi\n      dup1\n      0x10782f8f\n      eq\n      tag_3\n      jumpi\n      dup1\n      0x31768238\n      eq\n      tag_4\n      jumpi\n      dup1\n      0x4bb278f3\n      eq\n      tag_5\n      jumpi\n      dup1\n      0x5e7721f7\n      eq\n      tag_6\n      jumpi\n    tag_1:\n      revert(0x00, 0x00)\n        /* \"AuctionContract.sol\":1405:1445  uint256 public constant MAX_PRICE = 1e27 */\n    tag_2:\n      callvalue\n      dup1\n      iszero\n      tag_25\n      jumpi\n      revert(0x00, 0x00)\n    tag_25:\n      pop\n      tag_26\n      tag_27\n      jump\t// in\n    tag_26:\n      mload(0x40)\n      tag_28\n      swap2\n      swap1\n      tag_29\n      jump\t// in\n    tag_28:\n      mload(0x40)\n      dup1\n      swap2\n      sub\n      swap1\n      return\n        /* \"AuctionContract.sol\":3388:3412  uint256 public auctionId */\n    tag_3:\n      callvalue\n      dup1\n      iszero\n      tag_30\n      jumpi\n      revert(0x00, 0x00)\n    tag_30:\n      pop\n      tag_31\n      tag_32\n      jump\t// in\n    tag_31:\n      mload(0x40)\n      tag_33\n      swap2\n      swap1\n      tag_29\n      jump\t// in\n    tag_33:\n      mload(0x40)\n      dup1\n      swap2\n      sub\n      swap1\n      return\n        /* \"AuctionContract.sol\":1549:1627  address public constant CLASS_NFT = 0x1546Bd67237122754D3F0cB761c139f81388b210 */\n    tag_4:\n      callvalue\n      dup1\n      iszero\n      tag_34\n      jumpi\n      revert(0x00, 0x00)\n    tag_34:\n      pop\n      tag_35\n      tag_36\n      jump\t// in\n    tag_35:\n      mload(0x40)\n      tag_37\n      swap2\n      swap1\n      tag_38\n      jump\t// in\n    tag_37:\n      mload(0x40)\n      dup1\n      swap2\n      sub\n      swap1\n      return\n        /* \"AuctionContract.sol\":11169:12261  function finalize() external {... */\n    tag_5:\n      callvalue\n      dup1\n      iszero\n      tag_39\n      jumpi\n      revert(0x00, 0x00)\n    tag_39:\n      pop\n      tag_40\n      tag_41\n      jump\t// in\n    tag_40:\n      stop\n        /* \"AuctionContract.sol\":3551:3605  IERC721 public immutable classNFT = IERC721(CLASS_NFT) */\n    tag_6:\n      callvalue\n      dup1\n      iszero\n      tag_42\n      jumpi\n      revert(0x00, 0x00)\n    tag_42:\n      pop\n      tag_43\n      tag_44\n      jump\t// in\n    tag_43:\n      mload(0x40)\n      tag_45\n      swap2\n      swap1\n      tag_46\n      jump\t// in\n    tag_45:\n      mload(0x40)\n      dup1\n      swap2\n      sub\n      swap1\n      return\n        /* \"AuctionContract.sol\":9272:10996  function revealBid(uint256 amount, bytes32 salt) external {... */\n    tag_7:\n      callvalue\n      dup1\n      iszero\n      tag_47\n      jumpi\n      revert(0x00, 0x00)\n    tag_47:\n      pop\n      tag_48\n      0x04\n      dup1\n      calldatasize\n      sub\n      dup2\n      add\n      swap1\n      tag_49\n      swap2\n      swap1\n      tag_50\n      jump\t// in\n    tag_49:\n      tag_51\n      jump\t// in\n    tag_48:\n      stop\n        /* \"AuctionContract.sol\":5066:5303  function getWinnerInfo(uint256 id) external view returns (address winner, uint256 price, uint64 payDeadline) {... */\n    tag_8:\n      callvalue\n      dup1\n      iszero\n      tag_52\n      jumpi\n      revert(0x00, 0x00)\n    tag_52:\n      pop\n      tag_53\n      0x04\n      dup1\n      calldatasize\n      sub\n      dup2\n      add\n      swap1\n      tag_54\n      swap2\n      swap1\n      tag_55\n      jump\t// in\n    tag_54:\n      tag_56\n      jump\t// in\n    tag_53:\n      mload(0x40)\n      tag_57\n      swap4\n      swap3\n      swap2\n      swap1\n      tag_58\n      jump\t// in\n    tag_57:\n      mload(0x40)\n      dup1\n      swap2\n      sub\n      swap1\n      return\n        /* \"AuctionContract.sol\":14509:15034  function withdrawDeposits(uint256 id) external nonReentrant{... */\n    tag_9:\n      callvalue\n      dup1\n      iszero\n      tag_59\n      jumpi\n      revert(0x00, 0x00)\n    tag_59:\n      pop\n      tag_60\n      0x04\n      dup1\n      calldatasize\n      sub\n      dup2\n      add\n      swap1\n      tag_61\n      swap2\n      swap1\n      tag_55\n      jump\t// in\n    tag_61:\n      tag_62\n      jump\t// in\n    tag_60:\n      stop\n        /* \"AuctionContract.sol\":13982:14501  function withdrawDeposits() external nonReentrant{... */\n    tag_10:\n      callvalue\n      dup1\n      iszero\n      tag_63\n      jumpi\n      revert(0x00, 0x00)\n    tag_63:\n      pop\n      tag_64\n      tag_65\n      jump\t// in\n    tag_64:\n      stop\n        /* \"AuctionContract.sol\":16651:16838  function getRevealedAmount(uint256 id, address bidder) external view returns (uint256) {... */\n    tag_11:\n      callvalue\n      dup1\n      iszero\n      tag_66\n      jumpi\n      revert(0x00, 0x00)\n    tag_66:\n      pop\n      tag_67\n      0x04\n      dup1\n      calldatasize\n      sub\n      dup2\n      add\n      swap1\n      tag_68\n      swap2\n      swap1\n      tag_69\n      jump\t// in\n    tag_68:\n      tag_70\n      jump\t// in\n    tag_67:\n      mload(0x40)\n      tag_71\n      swap2\n      swap1\n      tag_29\n      jump\t// in\n    tag_71:\n      mload(0x40)\n      dup1\n      swap2\n      sub\n      swap1\n      return\n        /* \"AuctionContract.sol\":8007:9113  function commitBid(bytes32 commitment) external payable{... */\n    tag_12:\n      tag_72\n      0x04\n      dup1\n      calldatasize\n      sub\n      dup2\n      add\n      swap1\n      tag_73\n      swap2\n      swap1\n      tag_74\n      jump\t// in\n    tag_73:\n      tag_75\n      jump\t// in\n    tag_72:\n      stop\n        /* \"AuctionContract.sol\":5998:7831  function startAuction(... */\n    tag_13:\n      callvalue\n      dup1\n      iszero\n      tag_76\n      jumpi\n      revert(0x00, 0x00)\n    tag_76:\n      pop\n      tag_77\n      0x04\n      dup1\n      calldatasize\n      sub\n      dup2\n      add\n      swap1\n      tag_78\n      swap2\n      swap1\n      tag_79\n      jump\t// in\n    tag_78:\n      tag_80\n      jump\t// in\n    tag_77:\n      stop\n        /* \"AuctionContract.sol\":16086:16266  function getCommitment(uint256 id, address bidder) external view returns (bytes32) {... */\n    tag_14:\n      callvalue\n      dup1\n      iszero\n      tag_81\n      jumpi\n      revert(0x00, 0x00)\n    tag_81:\n      pop\n      tag_82\n      0x04\n      dup1\n      calldatasize\n      sub\n      dup2\n      add\n      swap1\n      tag_83\n      swap2\n      swap1\n      tag_69\n      jump\t// in\n    tag_83:\n      tag_84\n      jump\t// in\n    tag_82:\n      mload(0x40)\n      tag_85\n      swap2\n      swap1\n      tag_86\n      jump\t// in\n    tag_85:\n      mload(0x40)\n      dup1\n      swap2\n      sub\n      swap1\n      return\n        /* \"AuctionContract.sol\":1340:1386  uint256 public constant MAX_DURATION = 2592000 */\n    tag_15:\n      callvalue\n      dup1\n      iszero\n      tag_87\n      jumpi\n      revert(0x00, 0x00)\n    tag_87:\n      pop\n      tag_88\n      tag_89\n      jump\t// in\n    tag_88:\n      mload(0x40)\n      tag_90\n      swap2\n      swap1\n      tag_29\n      jump\t// in\n    tag_90:\n      mload(0x40)\n      dup1\n      swap2\n      sub\n      swap1\n      return\n        /* \"AuctionContract.sol\":4546:5058  function currentPhase(uint256 id) public view returns (string memory) {... */\n    tag_16:\n      callvalue\n      dup1\n      iszero\n      tag_91\n      jumpi\n      revert(0x00, 0x00)\n    tag_91:\n      pop\n      tag_92\n      0x04\n      dup1\n      calldatasize\n      sub\n      dup2\n      add\n      swap1\n      tag_93\n      swap2\n      swap1\n      tag_55\n      jump\t// in\n    tag_93:\n      tag_94\n      jump\t// in\n    tag_92:\n      mload(0x40)\n      tag_95\n      swap2\n      swap1\n      tag_96\n      jump\t// in\n    tag_95:\n      mload(0x40)\n      dup1\n      swap2\n      sub\n      swap1\n      return\n        /* \"AuctionContract.sol\":13272:13974  function sellerReclaimNFT(uint256 id) external {... */\n    tag_17:\n      callvalue\n      dup1\n      iszero\n      tag_97\n      jumpi\n      revert(0x00, 0x00)\n    tag_97:\n      pop\n      tag_98\n      0x04\n      dup1\n      calldatasize\n      sub\n      dup2\n      add\n      swap1\n      tag_99\n      swap2\n      swap1\n      tag_55\n      jump\t// in\n    tag_99:\n      tag_100\n      jump\t// in\n    tag_98:\n      stop\n        /* \"AuctionContract.sol\":16274:16450  function getCommitSeq(uint256 id, address bidder) external view returns (uint64) {... */\n    tag_18:\n      callvalue\n      dup1\n      iszero\n      tag_101\n      jumpi\n      revert(0x00, 0x00)\n    tag_101:\n      pop\n      tag_102\n      0x04\n      dup1\n      calldatasize\n      sub\n      dup2\n      add\n      swap1\n      tag_103\n      swap2\n      swap1\n      tag_69\n      jump\t// in\n    tag_103:\n      tag_104\n      jump\t// in\n    tag_102:\n      mload(0x40)\n      tag_105\n      swap2\n      swap1\n      tag_106\n      jump\t// in\n    tag_105:\n      mload(0x40)\n      dup1\n      swap2\n      sub\n      swap1\n      return\n        /* \"AuctionContract.sol\":5347:5579  function getTimes(uint256 id) external view returns (uint64 commitEnd, uint64 revealEnd, uint64 settleDeadline) {... */\n    tag_19:\n      callvalue\n      dup1\n      iszero\n      tag_107\n      jumpi\n      revert(0x00, 0x00)\n    tag_107:\n      pop\n      tag_108\n      0x04\n      dup1\n      calldatasize\n      sub\n      dup2\n      add\n      swap1\n      tag_109\n      swap2\n      swap1\n      tag_55\n      jump\t// in\n    tag_109:\n      tag_110\n      jump\t// in\n    tag_108:\n      mload(0x40)\n      tag_111\n      swap4\n      swap3\n      swap2\n      swap1\n      tag_112\n      jump\t// in\n    tag_111:\n      mload(0x40)\n      dup1\n      swap2\n      sub\n      swap1\n      return\n        /* \"AuctionContract.sol\":16458:16643  function getDepositAmount(uint256 id, address bidder) external view returns (uint256) {... */\n    tag_20:\n      callvalue\n      dup1\n      iszero\n      tag_113\n      jumpi\n      revert(0x00, 0x00)\n    tag_113:\n      pop\n      tag_114\n      0x04\n      dup1\n      calldatasize\n      sub\n      dup2\n      add\n      swap1\n      tag_115\n      swap2\n      swap1\n      tag_69\n      jump\t// in\n    tag_115:\n      tag_116\n      jump\t// in\n    tag_114:\n      mload(0x40)\n      tag_117\n      swap2\n      swap1\n      tag_29\n      jump\t// in\n    tag_117:\n      mload(0x40)\n      dup1\n      swap2\n      sub\n      swap1\n      return\n        /* \"AuctionContract.sol\":12360:13165  function payAndClaim() external payable nonReentrant {... */\n    tag_21:\n      tag_118\n      tag_119\n      jump\t// in\n    tag_118:\n      stop\n        /* \"AuctionContract.sol\":1405:1445  uint256 public constant MAX_PRICE = 1e27 */\n    tag_27:\n        /* \"AuctionContract.sol\":1441:1445  1e27 */\n      0x033b2e3c9fd0803ce8000000\n        /* \"AuctionContract.sol\":1405:1445  uint256 public constant MAX_PRICE = 1e27 */\n      dup2\n      jump\t// out\n        /* \"AuctionContract.sol\":3388:3412  uint256 public auctionId */\n    tag_32:\n      sload(0x01)\n      dup2\n      jump\t// out\n        /* \"AuctionContract.sol\":1549:1627  address public constant CLASS_NFT = 0x1546Bd67237122754D3F0cB761c139f81388b210 */\n    tag_36:\n        /* \"AuctionContract.sol\":1585:1627  0x1546Bd67237122754D3F0cB761c139f81388b210 */\n      0x1546bd67237122754d3f0cb761c139f81388b210\n        /* \"AuctionContract.sol\":1549:1627  address public constant CLASS_NFT = 0x1546Bd67237122754D3F0cB761c139f81388b210 */\n      dup2\n      jump\t// out\n        /* \"AuctionContract.sol\":11169:12261  function finalize() external {... */\n    tag_41:\n        /* \"AuctionContract.sol\":11209:11226  Auction storage A */\n      0x00\n        /* \"AuctionContract.sol\":11229:11252  _requireActiveAuction() */\n      tag_121\n        /* \"AuctionContract.sol\":11229:11250  _requireActiveAuction */\n      tag_122\n        /* \"AuctionContract.sol\":11229:11252  _requireActiveAuction() */\n      jump\t// in\n    tag_121:\n        /* \"AuctionContract.sol\":11209:11252  Auction storage A = _requireActiveAuction() */\n      swap1\n      pop\n        /* \"AuctionContract.sol\":11285:11286  A */\n      dup1\n        /* \"AuctionContract.sol\":11285:11296  A.revealEnd */\n      0x03\n      add\n      0x10\n      swap1\n      sload\n      swap1\n      0x0100\n      exp\n      swap1\n      div\n      0xffffffffffffffff\n      and\n        /* \"AuctionContract.sol\":11267:11296  block.timestamp < A.revealEnd */\n      0xffffffffffffffff\n      and\n        /* \"AuctionContract.sol\":11267:11282  block.timestamp */\n      timestamp\n        /* \"AuctionContract.sol\":11267:11296  block.timestamp < A.revealEnd */\n      lt\n        /* \"AuctionContract.sol\":11263:11321  if (block.timestamp < A.revealEnd) revert NotFinalizable() */\n      iszero\n      tag_123\n      jumpi\n        /* \"AuctionContract.sol\":11305:11321  NotFinalizable() */\n      mload(0x40)\n      0xe8f46600000000000000000000000000000000000000000000000000000000\n      dup2\n      mstore\n      0x04\n      add\n      mload(0x40)\n      dup1\n      swap2\n      sub\n      swap1\n      revert\n        /* \"AuctionContract.sol\":11263:11321  if (block.timestamp < A.revealEnd) revert NotFinalizable() */\n    tag_123:\n        /* \"AuctionContract.sol\":11341:11342  A */\n      dup1\n        /* \"AuctionContract.sol\":11341:11352  A.finalized */\n      0x08\n      add\n      0x00\n      swap1\n      sload\n      swap1\n      0x0100\n      exp\n      swap1\n      div\n      0xff\n      and\n        /* \"AuctionContract.sol\":11340:11352  !A.finalized */\n      iszero\n        /* \"AuctionContract.sol\":11332:11374  require(!A.finalized, \"already finalized\") */\n      tag_124\n      jumpi\n      mload(0x40)\n      0x08c379a000000000000000000000000000000000000000000000000000000000\n      dup2\n      mstore\n      0x04\n      add\n      tag_125\n      swap1\n      tag_126\n      jump\t// in\n    tag_125:\n      mload(0x40)\n      dup1\n      swap2\n      sub\n      swap1\n      revert\n    tag_124:\n        /* \"AuctionContract.sol\":11486:11487  0 */\n      0x00\n        /* \"AuctionContract.sol\":11459:11488  A.highestBidder == address(0) */\n      0xffffffffffffffffffffffffffffffffffffffff\n      and\n        /* \"AuctionContract.sol\":11459:11460  A */\n      dup2\n        /* \"AuctionContract.sol\":11459:11474  A.highestBidder */\n      0x04\n      add\n      0x08\n      swap1\n      sload\n      swap1\n      0x0100\n      exp\n      swap1\n      div\n      0xffffffffffffffffffffffffffffffffffffffff\n      and\n        /* \"AuctionContract.sol\":11459:11488  A.highestBidder == address(0) */\n      0xffffffffffffffffffffffffffffffffffffffff\n      and\n      sub\n        /* \"AuctionContract.sol\":11455:11801  if (A.highestBidder == address(0)) {... */\n      tag_127\n      jumpi\n        /* \"AuctionContract.sol\":11519:11523  true */\n      0x01\n        /* \"AuctionContract.sol\":11505:11506  A */\n      dup2\n        /* \"AuctionContract.sol\":11505:11516  A.finalized */\n      0x08\n      add\n      0x00\n        /* \"AuctionContract.sol\":11505:11523  A.finalized = true */\n      0x0100\n      exp\n      dup2\n      sload\n      dup2\n      0xff\n      mul\n      not\n      and\n      swap1\n      dup4\n      iszero\n      iszero\n      mul\n      or\n      swap1\n      sstore\n      pop\n        /* \"AuctionContract.sol\":11550:11554  true */\n      0x01\n        /* \"AuctionContract.sol\":11538:11539  A */\n      dup2\n        /* \"AuctionContract.sol\":11538:11547  A.settled */\n      0x08\n      add\n      0x01\n        /* \"AuctionContract.sol\":11538:11554  A.settled = true */\n      0x0100\n      exp\n      dup2\n      sload\n      dup2\n      0xff\n      mul\n      not\n      and\n      swap1\n      dup4\n      iszero\n      iszero\n      mul\n      or\n      swap1\n      sstore\n      pop\n        /* \"AuctionContract.sol\":11587:11588  0 */\n      0x00\n        /* \"AuctionContract.sol\":11569:11570  A */\n      dup2\n        /* \"AuctionContract.sol\":11569:11584  A.clearingPrice */\n      0x07\n      add\n        /* \"AuctionContract.sol\":11569:11588  A.clearingPrice = 0 */\n      dup2\n      swap1\n      sstore\n      pop\n        /* \"AuctionContract.sol\":11603:11655  _safeTransferNFT(address(this), A.seller, A.tokenId) */\n      tag_128\n        /* \"AuctionContract.sol\":11628:11632  this */\n      address\n        /* \"AuctionContract.sol\":11635:11636  A */\n      dup3\n        /* \"AuctionContract.sol\":11635:11643  A.seller */\n      0x01\n      add\n      0x00\n      swap1\n      sload\n      swap1\n      0x0100\n      exp\n      swap1\n      div\n      0xffffffffffffffffffffffffffffffffffffffff\n      and\n        /* \"AuctionContract.sol\":11645:11646  A */\n      dup4\n        /* \"AuctionContract.sol\":11645:11654  A.tokenId */\n      0x00\n      add\n      sload\n        /* \"AuctionContract.sol\":11603:11619  _safeTransferNFT */\n      tag_129\n        /* \"AuctionContract.sol\":11603:11655  _safeTransferNFT(address(this), A.seller, A.tokenId) */\n      jump\t// in\n    tag_128:\n        /* \"AuctionContract.sol\":11758:11767  auctionId */\n      sload(0x01)\n        /* \"AuctionContract.sol\":11751:11768  Unsold(auctionId) */\n      0xa761d07fdb0a6897f18726f15d43008d6c30ce08e44a91775cfd2ef3b61cdad0\n      mload(0x40)\n      mload(0x40)\n      dup1\n      swap2\n      sub\n      swap1\n      log2\n        /* \"AuctionContract.sol\":11783:11790  return; */\n      pop\n      jump(tag_120)\n        /* \"AuctionContract.sol\":11455:11801  if (A.highestBidder == address(0)) {... */\n    tag_127:\n        /* \"AuctionContract.sol\":11875:11891  uint256 clearing */\n      0x00\n        /* \"AuctionContract.sol\":11909:11910  A */\n      dup2\n        /* \"AuctionContract.sol\":11909:11923  A.reservePrice */\n      0x02\n      add\n      sload\n        /* \"AuctionContract.sol\":11895:11896  A */\n      dup3\n        /* \"AuctionContract.sol\":11895:11906  A.secondBid */\n      0x06\n      add\n      sload\n        /* \"AuctionContract.sol\":11895:11923  A.secondBid < A.reservePrice */\n      lt\n        /* \"AuctionContract.sol\":11894:11953  (A.secondBid < A.reservePrice) ? A.reservePrice:A.secondBid */\n      tag_130\n      jumpi\n        /* \"AuctionContract.sol\":11942:11943  A */\n      dup2\n        /* \"AuctionContract.sol\":11942:11953  A.secondBid */\n      0x06\n      add\n      sload\n        /* \"AuctionContract.sol\":11894:11953  (A.secondBid < A.reservePrice) ? A.reservePrice:A.secondBid */\n      jump(tag_131)\n    tag_130:\n        /* \"AuctionContract.sol\":11927:11928  A */\n      dup2\n        /* \"AuctionContract.sol\":11927:11941  A.reservePrice */\n      0x02\n      add\n      sload\n        /* \"AuctionContract.sol\":11894:11953  (A.secondBid < A.reservePrice) ? A.reservePrice:A.secondBid */\n    tag_131:\n        /* \"AuctionContract.sol\":11875:11953  uint256 clearing = (A.secondBid < A.reservePrice) ? A.reservePrice:A.secondBid */\n      swap1\n      pop\n        /* \"AuctionContract.sol\":11995:11996  A */\n      dup2\n        /* \"AuctionContract.sol\":11995:12010  A.depositAmount */\n      0x0b\n      add\n        /* \"AuctionContract.sol\":11995:12027  A.depositAmount[A.highestBidder] */\n      0x00\n        /* \"AuctionContract.sol\":12011:12012  A */\n      dup4\n        /* \"AuctionContract.sol\":12011:12026  A.highestBidder */\n      0x04\n      add\n      0x08\n      swap1\n      sload\n      swap1\n      0x0100\n      exp\n      swap1\n      div\n      0xffffffffffffffffffffffffffffffffffffffff\n      and\n        /* \"AuctionContract.sol\":11995:12027  A.depositAmount[A.highestBidder] */\n      0xffffffffffffffffffffffffffffffffffffffff\n      and\n      0xffffffffffffffffffffffffffffffffffffffff\n      and\n      dup2\n      mstore\n      0x20\n      add\n      swap1\n      dup2\n      mstore\n      0x20\n      add\n      0x00\n      keccak256\n      sload\n        /* \"AuctionContract.sol\":11984:11992  clearing */\n      dup2\n        /* \"AuctionContract.sol\":11984:12027  clearing - A.depositAmount[A.highestBidder] */\n      tag_132\n      swap2\n      swap1\n      tag_133\n      jump\t// in\n    tag_132:\n        /* \"AuctionContract.sol\":11966:11967  A */\n      dup3\n        /* \"AuctionContract.sol\":11966:11981  A.clearingPrice */\n      0x07\n      add\n        /* \"AuctionContract.sol\":11966:12027  A.clearingPrice = clearing - A.depositAmount[A.highestBidder] */\n      dup2\n      swap1\n      sstore\n      pop\n        /* \"AuctionContract.sol\":12052:12056  true */\n      0x01\n        /* \"AuctionContract.sol\":12038:12039  A */\n      dup3\n        /* \"AuctionContract.sol\":12038:12049  A.finalized */\n      0x08\n      add\n      0x00\n        /* \"AuctionContract.sol\":12038:12056  A.finalized = true */\n      0x0100\n      exp\n      dup2\n      sload\n      dup2\n      0xff\n      mul\n      not\n      and\n      swap1\n      dup4\n      iszero\n      iszero\n      mul\n      or\n      swap1\n      sstore\n      pop\n        /* \"AuctionContract.sol\":12145:12146  A */\n      dup2\n        /* \"AuctionContract.sol\":12145:12161  A.settleDuration */\n      0x03\n      add\n      0x18\n      swap1\n      sload\n      swap1\n      0x0100\n      exp\n      swap1\n      div\n      0xffffffffffffffff\n      and\n        /* \"AuctionContract.sol\":12126:12141  block.timestamp */\n      timestamp\n        /* \"AuctionContract.sol\":12119:12161  uint64(block.timestamp) + A.settleDuration */\n      tag_134\n      swap2\n      swap1\n      tag_135\n      jump\t// in\n    tag_134:\n        /* \"AuctionContract.sol\":12100:12101  A */\n      dup3\n        /* \"AuctionContract.sol\":12100:12116  A.settleDeadline */\n      0x04\n      add\n      0x00\n        /* \"AuctionContract.sol\":12100:12161  A.settleDeadline = uint64(block.timestamp) + A.settleDuration */\n      0x0100\n      exp\n      dup2\n      sload\n      dup2\n      0xffffffffffffffff\n      mul\n      not\n      and\n      swap1\n      dup4\n      0xffffffffffffffff\n      and\n      mul\n      or\n      swap1\n      sstore\n      pop\n        /* \"AuctionContract.sol\":12189:12198  auctionId */\n      sload(0x01)\n        /* \"AuctionContract.sol\":12179:12253  Finalized(auctionId, A.highestBidder, A.highestBid, A.secondBid, clearing) */\n      0x5ab4254a16d8f1486e035342f3b6736a5efdc0b79886e7525b374bb0ec9ebee1\n        /* \"AuctionContract.sol\":12200:12201  A */\n      dup4\n        /* \"AuctionContract.sol\":12200:12215  A.highestBidder */\n      0x04\n      add\n      0x08\n      swap1\n      sload\n      swap1\n      0x0100\n      exp\n      swap1\n      div\n      0xffffffffffffffffffffffffffffffffffffffff\n      and\n        /* \"AuctionContract.sol\":12217:12218  A */\n      dup5\n        /* \"AuctionContract.sol\":12217:12229  A.highestBid */\n      0x05\n      add\n      sload\n        /* \"AuctionContract.sol\":12231:12232  A */\n      dup6\n        /* \"AuctionContract.sol\":12231:12242  A.secondBid */\n      0x06\n      add\n      sload\n        /* \"AuctionContract.sol\":12244:12252  clearing */\n      dup6\n        /* \"AuctionContract.sol\":12179:12253  Finalized(auctionId, A.highestBidder, A.highestBid, A.secondBid, clearing) */\n      mload(0x40)\n      tag_136\n      swap5\n      swap4\n      swap3\n      swap2\n      swap1\n      tag_137\n      jump\t// in\n    tag_136:\n      mload(0x40)\n      dup1\n      swap2\n      sub\n      swap1\n      log2\n        /* \"AuctionContract.sol\":11198:12261  {... */\n      pop\n      pop\n        /* \"AuctionContract.sol\":11169:12261  function finalize() external {... */\n    tag_120:\n      jump\t// out\n        /* \"AuctionContract.sol\":3551:3605  IERC721 public immutable classNFT = IERC721(CLASS_NFT) */\n    tag_44:\n      immutable(\"0xbf08d8a2d7c7780024ba6e6dbe12d3d5a5a747ea3071fca63d8a2ede50d3472a\")\n      dup2\n      jump\t// out\n        /* \"AuctionContract.sol\":9272:10996  function revealBid(uint256 amount, bytes32 salt) external {... */\n    tag_51:\n        /* \"AuctionContract.sol\":9341:9358  Auction storage A */\n      0x00\n        /* \"AuctionContract.sol\":9361:9384  _requireActiveAuction() */\n      tag_139\n        /* \"AuctionContract.sol\":9361:9382  _requireActiveAuction */\n      tag_122\n        /* \"AuctionContract.sol\":9361:9384  _requireActiveAuction() */\n      jump\t// in\n    tag_139:\n        /* \"AuctionContract.sol\":9341:9384  Auction storage A = _requireActiveAuction() */\n      swap1\n      pop\n        /* \"AuctionContract.sol\":9395:9404  uint256 t */\n      0x00\n        /* \"AuctionContract.sol\":9407:9422  block.timestamp */\n      timestamp\n        /* \"AuctionContract.sol\":9395:9422  uint256 t = block.timestamp */\n      swap1\n      pop\n        /* \"AuctionContract.sol\":9441:9442  A */\n      dup2\n        /* \"AuctionContract.sol\":9441:9452  A.commitEnd */\n      0x03\n      add\n      0x08\n      swap1\n      sload\n      swap1\n      0x0100\n      exp\n      swap1\n      div\n      0xffffffffffffffff\n      and\n        /* \"AuctionContract.sol\":9437:9452  t < A.commitEnd */\n      0xffffffffffffffff\n      and\n        /* \"AuctionContract.sol\":9437:9438  t */\n      dup2\n        /* \"AuctionContract.sol\":9437:9452  t < A.commitEnd */\n      lt\n        /* \"AuctionContract.sol\":9437:9472  t < A.commitEnd || t >= A.revealEnd */\n      dup1\n      tag_140\n      jumpi\n      pop\n        /* \"AuctionContract.sol\":9461:9462  A */\n      dup2\n        /* \"AuctionContract.sol\":9461:9472  A.revealEnd */\n      0x03\n      add\n      0x10\n      swap1\n      sload\n      swap1\n      0x0100\n      exp\n      swap1\n      div\n      0xffffffffffffffff\n      and\n        /* \"AuctionContract.sol\":9456:9472  t >= A.revealEnd */\n      0xffffffffffffffff\n      and\n        /* \"AuctionContract.sol\":9456:9457  t */\n      dup2\n        /* \"AuctionContract.sol\":9456:9472  t >= A.revealEnd */\n      lt\n      iszero\n        /* \"AuctionContract.sol\":9437:9472  t < A.commitEnd || t >= A.revealEnd */\n    tag_140:\n        /* \"AuctionContract.sol\":9433:9499  if (t < A.commitEnd || t >= A.revealEnd) revert NotInRevealPhase() */\n      iszero\n      tag_141\n      jumpi\n        /* \"AuctionContract.sol\":9481:9499  NotInRevealPhase() */\n      mload(0x40)\n      0x74683d7100000000000000000000000000000000000000000000000000000000\n      dup2\n      mstore\n      0x04\n      add\n      mload(0x40)\n      dup1\n      swap2\n      sub\n      swap1\n      revert\n        /* \"AuctionContract.sol\":9433:9499  if (t < A.commitEnd || t >= A.revealEnd) revert NotInRevealPhase() */\n    tag_141:\n        /* \"AuctionContract.sol\":9548:9549  0 */\n      0x00\n        /* \"AuctionContract.sol\":9516:9517  A */\n      dup3\n        /* \"AuctionContract.sol\":9516:9532  A.revealedAmount */\n      0x0c\n      add\n        /* \"AuctionContract.sol\":9516:9544  A.revealedAmount[msg.sender] */\n      0x00\n        /* \"AuctionContract.sol\":9533:9543  msg.sender */\n      caller\n        /* \"AuctionContract.sol\":9516:9544  A.revealedAmount[msg.sender] */\n      0xffffffffffffffffffffffffffffffffffffffff\n      and\n      0xffffffffffffffffffffffffffffffffffffffff\n      and\n      dup2\n      mstore\n      0x20\n      add\n      swap1\n      dup2\n      mstore\n      0x20\n      add\n      0x00\n      keccak256\n      sload\n        /* \"AuctionContract.sol\":9516:9549  A.revealedAmount[msg.sender] != 0 */\n      eq\n        /* \"AuctionContract.sol\":9512:9577  if (A.revealedAmount[msg.sender] != 0) revert RevealAlreadyDone() */\n      tag_142\n      jumpi\n        /* \"AuctionContract.sol\":9558:9577  RevealAlreadyDone() */\n      mload(0x40)\n      0x157330ee00000000000000000000000000000000000000000000000000000000\n      dup2\n      mstore\n      0x04\n      add\n      mload(0x40)\n      dup1\n      swap2\n      sub\n      swap1\n      revert\n        /* \"AuctionContract.sol\":9512:9577  if (A.revealedAmount[msg.sender] != 0) revert RevealAlreadyDone() */\n    tag_142:\n        /* \"AuctionContract.sol\":9590:9599  bytes32 c */\n      0x00\n        /* \"AuctionContract.sol\":9602:9603  A */\n      dup3\n        /* \"AuctionContract.sol\":9602:9615  A.commitments */\n      0x09\n      add\n        /* \"AuctionContract.sol\":9602:9627  A.commitments[msg.sender] */\n      0x00\n        /* \"AuctionContract.sol\":9616:9626  msg.sender */\n      caller\n        /* \"AuctionContract.sol\":9602:9627  A.commitments[msg.sender] */\n      0xffffffffffffffffffffffffffffffffffffffff\n      and\n      0xffffffffffffffffffffffffffffffffffffffff\n      and\n      dup2\n      mstore\n      0x20\n      add\n      swap1\n      dup2\n      mstore\n      0x20\n      add\n      0x00\n      keccak256\n      sload\n        /* \"AuctionContract.sol\":9590:9627  bytes32 c = A.commitments[msg.sender] */\n      swap1\n      pop\n        /* \"AuctionContract.sol\":9655:9656  0 */\n      0x00\n        /* \"AuctionContract.sol\":9647:9657  bytes32(0) */\n      0x00\n      shl\n        /* \"AuctionContract.sol\":9642:9643  c */\n      dup2\n        /* \"AuctionContract.sol\":9642:9657  c == bytes32(0) */\n      sub\n        /* \"AuctionContract.sol\":9638:9685  if (c == bytes32(0)) revert InvalidCommitment() */\n      tag_143\n      jumpi\n        /* \"AuctionContract.sol\":9666:9685  InvalidCommitment() */\n      mload(0x40)\n      0xc06789fa00000000000000000000000000000000000000000000000000000000\n      dup2\n      mstore\n      0x04\n      add\n      mload(0x40)\n      dup1\n      swap2\n      sub\n      swap1\n      revert\n        /* \"AuctionContract.sol\":9638:9685  if (c == bytes32(0)) revert InvalidCommitment() */\n    tag_143:\n        /* \"AuctionContract.sol\":9745:9746  c */\n      dup1\n        /* \"AuctionContract.sol\":9727:9733  amount */\n      dup6\n        /* \"AuctionContract.sol\":9735:9739  salt */\n      dup6\n        /* \"AuctionContract.sol\":9710:9740  abi.encodePacked(amount, salt) */\n      add(0x20, mload(0x40))\n      tag_144\n      swap3\n      swap2\n      swap1\n      tag_145\n      jump\t// in\n    tag_144:\n      mload(0x40)\n      0x20\n      dup2\n      dup4\n      sub\n      sub\n      dup2\n      mstore\n      swap1\n      0x40\n      mstore\n        /* \"AuctionContract.sol\":9700:9741  keccak256(abi.encodePacked(amount, salt)) */\n      dup1\n      mload\n      swap1\n      0x20\n      add\n      keccak256\n        /* \"AuctionContract.sol\":9700:9746  keccak256(abi.encodePacked(amount, salt)) != c */\n      eq\n        /* \"AuctionContract.sol\":9696:9774  if (keccak256(abi.encodePacked(amount, salt)) != c) revert InvalidCommitment() */\n      tag_146\n      jumpi\n        /* \"AuctionContract.sol\":9755:9774  InvalidCommitment() */\n      mload(0x40)\n      0xc06789fa00000000000000000000000000000000000000000000000000000000\n      dup2\n      mstore\n      0x04\n      add\n      mload(0x40)\n      dup1\n      swap2\n      sub\n      swap1\n      revert\n        /* \"AuctionContract.sol\":9696:9774  if (keccak256(abi.encodePacked(amount, salt)) != c) revert InvalidCommitment() */\n    tag_146:\n        /* \"AuctionContract.sol\":9883:9889  amount */\n      dup5\n        /* \"AuctionContract.sol\":9852:9853  A */\n      dup4\n        /* \"AuctionContract.sol\":9852:9868  A.revealedAmount */\n      0x0c\n      add\n        /* \"AuctionContract.sol\":9852:9880  A.revealedAmount[msg.sender] */\n      0x00\n        /* \"AuctionContract.sol\":9869:9879  msg.sender */\n      caller\n        /* \"AuctionContract.sol\":9852:9880  A.revealedAmount[msg.sender] */\n      0xffffffffffffffffffffffffffffffffffffffff\n      and\n      0xffffffffffffffffffffffffffffffffffffffff\n      and\n      dup2\n      mstore\n      0x20\n      add\n      swap1\n      dup2\n      mstore\n      0x20\n      add\n      0x00\n      keccak256\n        /* \"AuctionContract.sol\":9852:9889  A.revealedAmount[msg.sender] = amount */\n      dup2\n      swap1\n      sstore\n      pop\n        /* \"AuctionContract.sol\":9960:9961  A */\n      dup3\n        /* \"AuctionContract.sol\":9960:9974  A.reservePrice */\n      0x02\n      add\n      sload\n        /* \"AuctionContract.sol\":9951:9957  amount */\n      dup6\n        /* \"AuctionContract.sol\":9951:9974  amount < A.reservePrice */\n      lt\n        /* \"AuctionContract.sol\":9947:10005  if (amount < A.reservePrice) revert InvalidRevealedPrice() */\n      iszero\n      tag_147\n      jumpi\n        /* \"AuctionContract.sol\":9983:10005  InvalidRevealedPrice() */\n      mload(0x40)\n      0x6b317d5600000000000000000000000000000000000000000000000000000000\n      dup2\n      mstore\n      0x04\n      add\n      mload(0x40)\n      dup1\n      swap2\n      sub\n      swap1\n      revert\n        /* \"AuctionContract.sol\":9947:10005  if (amount < A.reservePrice) revert InvalidRevealedPrice() */\n    tag_147:\n        /* \"AuctionContract.sol\":10245:10246  A */\n      dup3\n        /* \"AuctionContract.sol\":10245:10257  A.highestBid */\n      0x05\n      add\n      sload\n        /* \"AuctionContract.sol\":10236:10242  amount */\n      dup6\n        /* \"AuctionContract.sol\":10236:10257  amount > A.highestBid */\n      gt\n        /* \"AuctionContract.sol\":10232:10931  if (amount > A.highestBid) {... */\n      iszero\n      tag_148\n      jumpi\n        /* \"AuctionContract.sol\":10360:10361  0 */\n      0x00\n        /* \"AuctionContract.sol\":10333:10362  A.highestBidder != address(0) */\n      0xffffffffffffffffffffffffffffffffffffffff\n      and\n        /* \"AuctionContract.sol\":10333:10334  A */\n      dup4\n        /* \"AuctionContract.sol\":10333:10348  A.highestBidder */\n      0x04\n      add\n      0x08\n      swap1\n      sload\n      swap1\n      0x0100\n      exp\n      swap1\n      div\n      0xffffffffffffffffffffffffffffffffffffffff\n      and\n        /* \"AuctionContract.sol\":10333:10362  A.highestBidder != address(0) */\n      0xffffffffffffffffffffffffffffffffffffffff\n      and\n      eq\n        /* \"AuctionContract.sol\":10329:10425  if (A.highestBidder != address(0)) {... */\n      tag_149\n      jumpi\n        /* \"AuctionContract.sol\":10397:10398  A */\n      dup3\n        /* \"AuctionContract.sol\":10397:10409  A.highestBid */\n      0x05\n      add\n      sload\n        /* \"AuctionContract.sol\":10383:10384  A */\n      dup4\n        /* \"AuctionContract.sol\":10383:10394  A.secondBid */\n      0x06\n      add\n        /* \"AuctionContract.sol\":10383:10409  A.secondBid = A.highestBid */\n      dup2\n      swap1\n      sstore\n      pop\n        /* \"AuctionContract.sol\":10329:10425  if (A.highestBidder != address(0)) {... */\n    tag_149:\n        /* \"AuctionContract.sol\":10454:10460  amount */\n      dup5\n        /* \"AuctionContract.sol\":10439:10440  A */\n      dup4\n        /* \"AuctionContract.sol\":10439:10451  A.highestBid */\n      0x05\n      add\n        /* \"AuctionContract.sol\":10439:10460  A.highestBid = amount */\n      dup2\n      swap1\n      sstore\n      pop\n        /* \"AuctionContract.sol\":10493:10503  msg.sender */\n      caller\n        /* \"AuctionContract.sol\":10475:10476  A */\n      dup4\n        /* \"AuctionContract.sol\":10475:10490  A.highestBidder */\n      0x04\n      add\n      0x08\n        /* \"AuctionContract.sol\":10475:10503  A.highestBidder = msg.sender */\n      0x0100\n      exp\n      dup2\n      sload\n      dup2\n      0xffffffffffffffffffffffffffffffffffffffff\n      mul\n      not\n      and\n      swap1\n      dup4\n      0xffffffffffffffffffffffffffffffffffffffff\n      and\n      mul\n      or\n      swap1\n      sstore\n      pop\n        /* \"AuctionContract.sol\":10232:10931  if (amount > A.highestBid) {... */\n      jump(tag_150)\n    tag_148:\n        /* \"AuctionContract.sol\":10535:10536  A */\n      dup3\n        /* \"AuctionContract.sol\":10535:10547  A.highestBid */\n      0x05\n      add\n      sload\n        /* \"AuctionContract.sol\":10525:10531  amount */\n      dup6\n        /* \"AuctionContract.sol\":10525:10547  amount == A.highestBid */\n      eq\n        /* \"AuctionContract.sol\":10525:10605  amount == A.highestBid && A.commitSeq[msg.sender] < A.commitSeq[A.highestBidder] */\n      dup1\n      iszero\n      tag_151\n      jumpi\n      pop\n        /* \"AuctionContract.sol\":10577:10578  A */\n      dup3\n        /* \"AuctionContract.sol\":10577:10588  A.commitSeq */\n      0x0a\n      add\n        /* \"AuctionContract.sol\":10577:10605  A.commitSeq[A.highestBidder] */\n      0x00\n        /* \"AuctionContract.sol\":10589:10590  A */\n      dup5\n        /* \"AuctionContract.sol\":10589:10604  A.highestBidder */\n      0x04\n      add\n      0x08\n      swap1\n      sload\n      swap1\n      0x0100\n      exp\n      swap1\n      div\n      0xffffffffffffffffffffffffffffffffffffffff\n      and\n        /* \"AuctionContract.sol\":10577:10605  A.commitSeq[A.highestBidder] */\n      0xffffffffffffffffffffffffffffffffffffffff\n      and\n      0xffffffffffffffffffffffffffffffffffffffff\n      and\n      dup2\n      mstore\n      0x20\n      add\n      swap1\n      dup2\n      mstore\n      0x20\n      add\n      0x00\n      keccak256\n      0x00\n      swap1\n      sload\n      swap1\n      0x0100\n      exp\n      swap1\n      div\n      0xffffffffffffffff\n      and\n        /* \"AuctionContract.sol\":10551:10605  A.commitSeq[msg.sender] < A.commitSeq[A.highestBidder] */\n      0xffffffffffffffff\n      and\n        /* \"AuctionContract.sol\":10551:10552  A */\n      dup4\n        /* \"AuctionContract.sol\":10551:10562  A.commitSeq */\n      0x0a\n      add\n        /* \"AuctionContract.sol\":10551:10574  A.commitSeq[msg.sender] */\n      0x00\n        /* \"AuctionContract.sol\":10563:10573  msg.sender */\n      caller\n        /* \"AuctionContract.sol\":10551:10574  A.commitSeq[msg.sender] */\n      0xffffffffffffffffffffffffffffffffffffffff\n      and\n      0xffffffffffffffffffffffffffffffffffffffff\n      and\n      dup2\n      mstore\n      0x20\n      add\n      swap1\n      dup2\n      mstore\n      0x20\n      add\n      0x00\n      keccak256\n      0x00\n      swap1\n      sload\n      swap1\n      0x0100\n      exp\n      swap1\n      div\n      0xffffffffffffffff\n      and\n        /* \"AuctionContract.sol\":10551:10605  A.commitSeq[msg.sender] < A.commitSeq[A.highestBidder] */\n      0xffffffffffffffff\n      and\n      lt\n        /* \"AuctionContract.sol\":10525:10605  amount == A.highestBid && A.commitSeq[msg.sender] < A.commitSeq[A.highestBidder] */\n    tag_151:\n        /* \"AuctionContract.sol\":10521:10931  if (amount == A.highestBid && A.commitSeq[msg.sender] < A.commitSeq[A.highestBidder]) {... */\n      iszero\n      tag_152\n      jumpi\n        /* \"AuctionContract.sol\":10750:10756  amount */\n      dup5\n        /* \"AuctionContract.sol\":10735:10736  A */\n      dup4\n        /* \"AuctionContract.sol\":10735:10747  A.highestBid */\n      0x05\n      add\n        /* \"AuctionContract.sol\":10735:10756  A.highestBid = amount */\n      dup2\n      swap1\n      sstore\n      pop\n        /* \"AuctionContract.sol\":10789:10799  msg.sender */\n      caller\n        /* \"AuctionContract.sol\":10771:10772  A */\n      dup4\n        /* \"AuctionContract.sol\":10771:10786  A.highestBidder */\n      0x04\n      add\n      0x08\n        /* \"AuctionContract.sol\":10771:10799  A.highestBidder = msg.sender */\n      0x0100\n      exp\n      dup2\n      sload\n      dup2\n      0xffffffffffffffffffffffffffffffffffffffff\n      mul\n      not\n      and\n      swap1\n      dup4\n      0xffffffffffffffffffffffffffffffffffffffff\n      and\n      mul\n      or\n      swap1\n      sstore\n      pop\n        /* \"AuctionContract.sol\":10521:10931  if (amount == A.highestBid && A.commitSeq[msg.sender] < A.commitSeq[A.highestBidder]) {... */\n      jump(tag_153)\n    tag_152:\n        /* \"AuctionContract.sol\":10830:10831  A */\n      dup3\n        /* \"AuctionContract.sol\":10830:10841  A.secondBid */\n      0x06\n      add\n      sload\n        /* \"AuctionContract.sol\":10821:10827  amount */\n      dup6\n        /* \"AuctionContract.sol\":10821:10841  amount > A.secondBid */\n      gt\n        /* \"AuctionContract.sol\":10817:10931  if (amount > A.secondBid) {... */\n      iszero\n      tag_154\n      jumpi\n        /* \"AuctionContract.sol\":10913:10919  amount */\n      dup5\n        /* \"AuctionContract.sol\":10899:10900  A */\n      dup4\n        /* \"AuctionContract.sol\":10899:10910  A.secondBid */\n      0x06\n      add\n        /* \"AuctionContract.sol\":10899:10919  A.secondBid = amount */\n      dup2\n      swap1\n      sstore\n      pop\n        /* \"AuctionContract.sol\":10817:10931  if (amount > A.secondBid) {... */\n    tag_154:\n        /* \"AuctionContract.sol\":10521:10931  if (amount == A.highestBid && A.commitSeq[msg.sender] < A.commitSeq[A.highestBidder]) {... */\n    tag_153:\n        /* \"AuctionContract.sol\":10232:10931  if (amount > A.highestBid) {... */\n    tag_150:\n        /* \"AuctionContract.sol\":10969:10979  msg.sender */\n      caller\n        /* \"AuctionContract.sol\":10946:10988  BidRevealed(auctionId, msg.sender, amount) */\n      0xffffffffffffffffffffffffffffffffffffffff\n      and\n        /* \"AuctionContract.sol\":10958:10967  auctionId */\n      sload(0x01)\n        /* \"AuctionContract.sol\":10946:10988  BidRevealed(auctionId, msg.sender, amount) */\n      0x86d2fbc9069d34216ebc65b38ce840528d3f8cac0c86d2aaa7ab6a9db8bc35d3\n        /* \"AuctionContract.sol\":10981:10987  amount */\n      dup8\n        /* \"AuctionContract.sol\":10946:10988  BidRevealed(auctionId, msg.sender, amount) */\n      mload(0x40)\n      tag_155\n      swap2\n      swap1\n      tag_29\n      jump\t// in\n    tag_155:\n      mload(0x40)\n      dup1\n      swap2\n      sub\n      swap1\n      log3\n        /* \"AuctionContract.sol\":9330:10996  {... */\n      pop\n      pop\n      pop\n        /* \"AuctionContract.sol\":9272:10996  function revealBid(uint256 amount, bytes32 salt) external {... */\n      pop\n      pop\n      jump\t// out\n        /* \"AuctionContract.sol\":5066:5303  function getWinnerInfo(uint256 id) external view returns (address winner, uint256 price, uint64 payDeadline) {... */\n    tag_56:\n        /* \"AuctionContract.sol\":5124:5138  address winner */\n      0x00\n        /* \"AuctionContract.sol\":5140:5153  uint256 price */\n      0x00\n        /* \"AuctionContract.sol\":5155:5173  uint64 payDeadline */\n      0x00\n        /* \"AuctionContract.sol\":5186:5203  Auction storage A */\n      0x00\n        /* \"AuctionContract.sol\":5206:5225  _requireAuction(id) */\n      tag_157\n        /* \"AuctionContract.sol\":5222:5224  id */\n      dup6\n        /* \"AuctionContract.sol\":5206:5221  _requireAuction */\n      tag_158\n        /* \"AuctionContract.sol\":5206:5225  _requireAuction(id) */\n      jump\t// in\n    tag_157:\n        /* \"AuctionContract.sol\":5186:5225  Auction storage A = _requireAuction(id) */\n      swap1\n      pop\n        /* \"AuctionContract.sol\":5244:5245  A */\n      dup1\n        /* \"AuctionContract.sol\":5244:5259  A.highestBidder */\n      0x04\n      add\n      0x08\n      swap1\n      sload\n      swap1\n      0x0100\n      exp\n      swap1\n      div\n      0xffffffffffffffffffffffffffffffffffffffff\n      and\n        /* \"AuctionContract.sol\":5261:5262  A */\n      dup2\n        /* \"AuctionContract.sol\":5261:5276  A.clearingPrice */\n      0x07\n      add\n      sload\n        /* \"AuctionContract.sol\":5278:5279  A */\n      dup3\n        /* \"AuctionContract.sol\":5278:5294  A.settleDeadline */\n      0x04\n      add\n      0x00\n      swap1\n      sload\n      swap1\n      0x0100\n      exp\n      swap1\n      div\n      0xffffffffffffffff\n      and\n        /* \"AuctionContract.sol\":5236:5295  return (A.highestBidder, A.clearingPrice, A.settleDeadline) */\n      swap4\n      pop\n      swap4\n      pop\n      swap4\n      pop\n      pop\n        /* \"AuctionContract.sol\":5066:5303  function getWinnerInfo(uint256 id) external view returns (address winner, uint256 price, uint64 payDeadline) {... */\n      swap2\n      swap4\n      swap1\n      swap3\n      pop\n      jump\t// out\n        /* \"AuctionContract.sol\":14509:15034  function withdrawDeposits(uint256 id) external nonReentrant{... */\n    tag_62:\n        /* \"AuctionContract.sol\":1773:1774  2 */\n      0x02\n        /* \"AuctionContract.sol\":1869:1876  _status */\n      sload(0x00)\n        /* \"AuctionContract.sol\":1869:1888  _status != _ENTERED */\n      sub\n        /* \"AuctionContract.sol\":1861:1903  require(_status != _ENTERED, \"REENTRANCY\") */\n      tag_160\n      jumpi\n      mload(0x40)\n      0x08c379a000000000000000000000000000000000000000000000000000000000\n      dup2\n      mstore\n      0x04\n      add\n      tag_161\n      swap1\n      tag_162\n      jump\t// in\n    tag_161:\n      mload(0x40)\n      dup1\n      swap2\n      sub\n      swap1\n      revert\n    tag_160:\n        /* \"AuctionContract.sol\":1773:1774  2 */\n      0x02\n        /* \"AuctionContract.sol\":1914:1921  _status */\n      0x00\n        /* \"AuctionContract.sol\":1914:1932  _status = _ENTERED */\n      dup2\n      swap1\n      sstore\n      pop\n        /* \"AuctionContract.sol\":14579:14596  Auction storage A */\n      0x00\n        /* \"AuctionContract.sol\":14599:14618  _requireAuction(id) */\n      tag_164\n        /* \"AuctionContract.sol\":14615:14617  id */\n      dup3\n        /* \"AuctionContract.sol\":14599:14614  _requireAuction */\n      tag_158\n        /* \"AuctionContract.sol\":14599:14618  _requireAuction(id) */\n      jump\t// in\n    tag_164:\n        /* \"AuctionContract.sol\":14579:14618  Auction storage A = _requireAuction(id) */\n      swap1\n      pop\n        /* \"AuctionContract.sol\":14634:14635  A */\n      dup1\n        /* \"AuctionContract.sol\":14634:14645  A.finalized */\n      0x08\n      add\n      0x00\n      swap1\n      sload\n      swap1\n      0x0100\n      exp\n      swap1\n      div\n      0xff\n      and\n        /* \"AuctionContract.sol\":14629:14664  if (!A.finalized) revert NotEnded() */\n      tag_165\n      jumpi\n        /* \"AuctionContract.sol\":14654:14664  NotEnded() */\n      mload(0x40)\n      0xd3018d1800000000000000000000000000000000000000000000000000000000\n      dup2\n      mstore\n      0x04\n      add\n      mload(0x40)\n      dup1\n      swap2\n      sub\n      swap1\n      revert\n        /* \"AuctionContract.sol\":14629:14664  if (!A.finalized) revert NotEnded() */\n    tag_165:\n        /* \"AuctionContract.sol\":14693:14694  A */\n      dup1\n        /* \"AuctionContract.sol\":14693:14708  A.highestBidder */\n      0x04\n      add\n      0x08\n      swap1\n      sload\n      swap1\n      0x0100\n      exp\n      swap1\n      div\n      0xffffffffffffffffffffffffffffffffffffffff\n      and\n        /* \"AuctionContract.sol\":14679:14708  msg.sender == A.highestBidder */\n      0xffffffffffffffffffffffffffffffffffffffff\n      and\n        /* \"AuctionContract.sol\":14679:14689  msg.sender */\n      caller\n        /* \"AuctionContract.sol\":14679:14708  msg.sender == A.highestBidder */\n      0xffffffffffffffffffffffffffffffffffffffff\n      and\n      sub\n        /* \"AuctionContract.sol\":14675:14728  if (msg.sender == A.highestBidder) revert NoDeposit() */\n      tag_166\n      jumpi\n        /* \"AuctionContract.sol\":14717:14728  NoDeposit() */\n      mload(0x40)\n      0x3a6a68b100000000000000000000000000000000000000000000000000000000\n      dup2\n      mstore\n      0x04\n      add\n      mload(0x40)\n      dup1\n      swap2\n      sub\n      swap1\n      revert\n        /* \"AuctionContract.sol\":14675:14728  if (msg.sender == A.highestBidder) revert NoDeposit() */\n    tag_166:\n        /* \"AuctionContract.sol\":14774:14775  0 */\n      0x00\n        /* \"AuctionContract.sol\":14743:14744  A */\n      dup2\n        /* \"AuctionContract.sol\":14743:14758  A.depositAmount */\n      0x0b\n      add\n        /* \"AuctionContract.sol\":14743:14770  A.depositAmount[msg.sender] */\n      0x00\n        /* \"AuctionContract.sol\":14759:14769  msg.sender */\n      caller\n        /* \"AuctionContract.sol\":14743:14770  A.depositAmount[msg.sender] */\n      0xffffffffffffffffffffffffffffffffffffffff\n      and\n      0xffffffffffffffffffffffffffffffffffffffff\n      and\n      dup2\n      mstore\n      0x20\n      add\n      swap1\n      dup2\n      mstore\n      0x20\n      add\n      0x00\n      keccak256\n      sload\n        /* \"AuctionContract.sol\":14743:14775  A.depositAmount[msg.sender] == 0 */\n      sub\n        /* \"AuctionContract.sol\":14739:14795  if (A.depositAmount[msg.sender] == 0) revert NoDeposit() */\n      tag_167\n      jumpi\n        /* \"AuctionContract.sol\":14784:14795  NoDeposit() */\n      mload(0x40)\n      0x3a6a68b100000000000000000000000000000000000000000000000000000000\n      dup2\n      mstore\n      0x04\n      add\n      mload(0x40)\n      dup1\n      swap2\n      sub\n      swap1\n      revert\n        /* \"AuctionContract.sol\":14739:14795  if (A.depositAmount[msg.sender] == 0) revert NoDeposit() */\n    tag_167:\n        /* \"AuctionContract.sol\":14809:14816  bool ok */\n      0x00\n        /* \"AuctionContract.sol\":14822:14832  msg.sender */\n      caller\n        /* \"AuctionContract.sol\":14822:14837  msg.sender.call */\n      0xffffffffffffffffffffffffffffffffffffffff\n      and\n        /* \"AuctionContract.sol\":14845:14846  A */\n      dup3\n        /* \"AuctionContract.sol\":14845:14860  A.depositAmount */\n      0x0b\n      add\n        /* \"AuctionContract.sol\":14845:14872  A.depositAmount[msg.sender] */\n      0x00\n        /* \"AuctionContract.sol\":14861:14871  msg.sender */\n      caller\n        /* \"AuctionContract.sol\":14845:14872  A.depositAmount[msg.sender] */\n      0xffffffffffffffffffffffffffffffffffffffff\n      and\n      0xffffffffffffffffffffffffffffffffffffffff\n      and\n      dup2\n      mstore\n      0x20\n      add\n      swap1\n      dup2\n      mstore\n      0x20\n      add\n      0x00\n      keccak256\n      sload\n        /* \"AuctionContract.sol\":14822:14877  msg.sender.call{value: A.depositAmount[msg.sender]}(\"\") */\n      mload(0x40)\n      tag_168\n      swap1\n      tag_169\n      jump\t// in\n    tag_168:\n      0x00\n      mload(0x40)\n      dup1\n      dup4\n      sub\n      dup2\n      dup6\n      dup8\n      gas\n      call\n      swap3\n      pop\n      pop\n      pop\n      returndatasize\n      dup1\n      0x00\n      dup2\n      eq\n      tag_172\n      jumpi\n      mload(0x40)\n      swap2\n      pop\n      and(add(returndatasize, 0x3f), not(0x1f))\n      dup3\n      add\n      0x40\n      mstore\n      returndatasize\n      dup3\n      mstore\n      returndatasize\n      0x00\n      0x20\n      dup5\n      add\n      returndatacopy\n      jump(tag_171)\n    tag_172:\n      0x60\n      swap2\n      pop\n    tag_171:\n      pop\n        /* \"AuctionContract.sol\":14808:14877  (bool ok, ) = msg.sender.call{value: A.depositAmount[msg.sender]}(\"\") */\n      pop\n      swap1\n      pop\n        /* \"AuctionContract.sol\":14891:14893  ok */\n      dup1\n        /* \"AuctionContract.sol\":14888:14919  if(ok)  revert WithdrawFailed() */\n      iszero\n      tag_173\n      jumpi\n        /* \"AuctionContract.sol\":14903:14919  WithdrawFailed() */\n      mload(0x40)\n      0x750b219c00000000000000000000000000000000000000000000000000000000\n      dup2\n      mstore\n      0x04\n      add\n      mload(0x40)\n      dup1\n      swap2\n      sub\n      swap1\n      revert\n        /* \"AuctionContract.sol\":14888:14919  if(ok)  revert WithdrawFailed() */\n    tag_173:\n        /* \"AuctionContract.sol\":14960:14961  0 */\n      0x00\n        /* \"AuctionContract.sol\":14930:14931  A */\n      dup3\n        /* \"AuctionContract.sol\":14930:14945  A.depositAmount */\n      0x0b\n      add\n        /* \"AuctionContract.sol\":14930:14957  A.depositAmount[msg.sender] */\n      0x00\n        /* \"AuctionContract.sol\":14946:14956  msg.sender */\n      caller\n        /* \"AuctionContract.sol\":14930:14957  A.depositAmount[msg.sender] */\n      0xffffffffffffffffffffffffffffffffffffffff\n      and\n      0xffffffffffffffffffffffffffffffffffffffff\n      and\n      dup2\n      mstore\n      0x20\n      add\n      swap1\n      dup2\n      mstore\n      0x20\n      add\n      0x00\n      keccak256\n        /* \"AuctionContract.sol\":14930:14961  A.depositAmount[msg.sender] = 0 */\n      dup2\n      swap1\n      sstore\n      pop\n        /* \"AuctionContract.sol\":15015:15025  msg.sender */\n      caller\n        /* \"AuctionContract.sol\":14987:15026  WithDrawnDeposit(auctionId, msg.sender) */\n      0xffffffffffffffffffffffffffffffffffffffff\n      and\n        /* \"AuctionContract.sol\":15004:15013  auctionId */\n      sload(0x01)\n        /* \"AuctionContract.sol\":14987:15026  WithDrawnDeposit(auctionId, msg.sender) */\n      0x47f74a265269aa6e5423fbcd9a74b3c8771a0c3a9c7cdfb7ebe375b288c06b4e\n      mload(0x40)\n      mload(0x40)\n      dup1\n      swap2\n      sub\n      swap1\n      log3\n        /* \"AuctionContract.sol\":14568:15034  {... */\n      pop\n      pop\n        /* \"AuctionContract.sol\":1729:1730  1 */\n      0x01\n        /* \"AuctionContract.sol\":1955:1962  _status */\n      0x00\n        /* \"AuctionContract.sol\":1955:1977  _status = _NOT_ENTERED */\n      dup2\n      swap1\n      sstore\n      pop\n        /* \"AuctionContract.sol\":14509:15034  function withdrawDeposits(uint256 id) external nonReentrant{... */\n      pop\n      jump\t// out\n        /* \"AuctionContract.sol\":13982:14501  function withdrawDeposits() external nonReentrant{... */\n    tag_65:\n        /* \"AuctionContract.sol\":1773:1774  2 */\n      0x02\n        /* \"AuctionContract.sol\":1869:1876  _status */\n      sload(0x00)\n        /* \"AuctionContract.sol\":1869:1888  _status != _ENTERED */\n      sub\n        /* \"AuctionContract.sol\":1861:1903  require(_status != _ENTERED, \"REENTRANCY\") */\n      tag_175\n      jumpi\n      mload(0x40)\n      0x08c379a000000000000000000000000000000000000000000000000000000000\n      dup2\n      mstore\n      0x04\n      add\n      tag_176\n      swap1\n      tag_162\n      jump\t// in\n    tag_176:\n      mload(0x40)\n      dup1\n      swap2\n      sub\n      swap1\n      revert\n    tag_175:\n        /* \"AuctionContract.sol\":1773:1774  2 */\n      0x02\n        /* \"AuctionContract.sol\":1914:1921  _status */\n      0x00\n        /* \"AuctionContract.sol\":1914:1932  _status = _ENTERED */\n      dup2\n      swap1\n      sstore\n      pop\n        /* \"AuctionContract.sol\":14042:14059  Auction storage A */\n      0x00\n        /* \"AuctionContract.sol\":14062:14085  _requireActiveAuction() */\n      tag_178\n        /* \"AuctionContract.sol\":14062:14083  _requireActiveAuction */\n      tag_122\n        /* \"AuctionContract.sol\":14062:14085  _requireActiveAuction() */\n      jump\t// in\n    tag_178:\n        /* \"AuctionContract.sol\":14042:14085  Auction storage A = _requireActiveAuction() */\n      swap1\n      pop\n        /* \"AuctionContract.sol\":14101:14102  A */\n      dup1\n        /* \"AuctionContract.sol\":14101:14112  A.finalized */\n      0x08\n      add\n      0x00\n      swap1\n      sload\n      swap1\n      0x0100\n      exp\n      swap1\n      div\n      0xff\n      and\n        /* \"AuctionContract.sol\":14096:14131  if (!A.finalized) revert NotEnded() */\n      tag_179\n      jumpi\n        /* \"AuctionContract.sol\":14121:14131  NotEnded() */\n      mload(0x40)\n      0xd3018d1800000000000000000000000000000000000000000000000000000000\n      dup2\n      mstore\n      0x04\n      add\n      mload(0x40)\n      dup1\n      swap2\n      sub\n      swap1\n      revert\n        /* \"AuctionContract.sol\":14096:14131  if (!A.finalized) revert NotEnded() */\n    tag_179:\n        /* \"AuctionContract.sol\":14160:14161  A */\n      dup1\n        /* \"AuctionContract.sol\":14160:14175  A.highestBidder */\n      0x04\n      add\n      0x08\n      swap1\n      sload\n      swap1\n      0x0100\n      exp\n      swap1\n      div\n      0xffffffffffffffffffffffffffffffffffffffff\n      and\n        /* \"AuctionContract.sol\":14146:14175  msg.sender == A.highestBidder */\n      0xffffffffffffffffffffffffffffffffffffffff\n      and\n        /* \"AuctionContract.sol\":14146:14156  msg.sender */\n      caller\n        /* \"AuctionContract.sol\":14146:14175  msg.sender == A.highestBidder */\n      0xffffffffffffffffffffffffffffffffffffffff\n      and\n      sub\n        /* \"AuctionContract.sol\":14142:14195  if (msg.sender == A.highestBidder) revert NoDeposit() */\n      tag_180\n      jumpi\n        /* \"AuctionContract.sol\":14184:14195  NoDeposit() */\n      mload(0x40)\n      0x3a6a68b100000000000000000000000000000000000000000000000000000000\n      dup2\n      mstore\n      0x04\n      add\n      mload(0x40)\n      dup1\n      swap2\n      sub\n      swap1\n      revert\n        /* \"AuctionContract.sol\":14142:14195  if (msg.sender == A.highestBidder) revert NoDeposit() */\n    tag_180:\n        /* \"AuctionContract.sol\":14241:14242  0 */\n      0x00\n        /* \"AuctionContract.sol\":14210:14211  A */\n      dup2\n        /* \"AuctionContract.sol\":14210:14225  A.depositAmount */\n      0x0b\n      add\n        /* \"AuctionContract.sol\":14210:14237  A.depositAmount[msg.sender] */\n      0x00\n        /* \"AuctionContract.sol\":14226:14236  msg.sender */\n      caller\n        /* \"AuctionContract.sol\":14210:14237  A.depositAmount[msg.sender] */\n      0xffffffffffffffffffffffffffffffffffffffff\n      and\n      0xffffffffffffffffffffffffffffffffffffffff\n      and\n      dup2\n      mstore\n      0x20\n      add\n      swap1\n      dup2\n      mstore\n      0x20\n      add\n      0x00\n      keccak256\n      sload\n        /* \"AuctionContract.sol\":14210:14242  A.depositAmount[msg.sender] == 0 */\n      sub\n        /* \"AuctionContract.sol\":14206:14262  if (A.depositAmount[msg.sender] == 0) revert NoDeposit() */\n      tag_181\n      jumpi\n        /* \"AuctionContract.sol\":14251:14262  NoDeposit() */\n      mload(0x40)\n      0x3a6a68b100000000000000000000000000000000000000000000000000000000\n      dup2\n      mstore\n      0x04\n      add\n      mload(0x40)\n      dup1\n      swap2\n      sub\n      swap1\n      revert\n        /* \"AuctionContract.sol\":14206:14262  if (A.depositAmount[msg.sender] == 0) revert NoDeposit() */\n    tag_181:\n        /* \"AuctionContract.sol\":14276:14283  bool ok */\n      0x00\n        /* \"AuctionContract.sol\":14289:14299  msg.sender */\n      caller\n        /* \"AuctionContract.sol\":14289:14304  msg.sender.call */\n      0xffffffffffffffffffffffffffffffffffffffff\n      and\n        /* \"AuctionContract.sol\":14312:14313  A */\n      dup3\n        /* \"AuctionContract.sol\":14312:14327  A.depositAmount */\n      0x0b\n      add\n        /* \"AuctionContract.sol\":14312:14339  A.depositAmount[msg.sender] */\n      0x00\n        /* \"AuctionContract.sol\":14328:14338  msg.sender */\n      caller\n        /* \"AuctionContract.sol\":14312:14339  A.depositAmount[msg.sender] */\n      0xffffffffffffffffffffffffffffffffffffffff\n      and\n      0xffffffffffffffffffffffffffffffffffffffff\n      and\n      dup2\n      mstore\n      0x20\n      add\n      swap1\n      dup2\n      mstore\n      0x20\n      add\n      0x00\n      keccak256\n      sload\n        /* \"AuctionContract.sol\":14289:14344  msg.sender.call{value: A.depositAmount[msg.sender]}(\"\") */\n      mload(0x40)\n      tag_182\n      swap1\n      tag_169\n      jump\t// in\n    tag_182:\n      0x00\n      mload(0x40)\n      dup1\n      dup4\n      sub\n      dup2\n      dup6\n      dup8\n      gas\n      call\n      swap3\n      pop\n      pop\n      pop\n      returndatasize\n      dup1\n      0x00\n      dup2\n      eq\n      tag_185\n      jumpi\n      mload(0x40)\n      swap2\n      pop\n      and(add(returndatasize, 0x3f), not(0x1f))\n      dup3\n      add\n      0x40\n      mstore\n      returndatasize\n      dup3\n      mstore\n      returndatasize\n      0x00\n      0x20\n      dup5\n      add\n      returndatacopy\n      jump(tag_184)\n    tag_185:\n      0x60\n      swap2\n      pop\n    tag_184:\n      pop\n        /* \"AuctionContract.sol\":14275:14344  (bool ok, ) = msg.sender.call{value: A.depositAmount[msg.sender]}(\"\") */\n      pop\n      swap1\n      pop\n        /* \"AuctionContract.sol\":14358:14360  ok */\n      dup1\n        /* \"AuctionContract.sol\":14355:14386  if(ok)  revert WithdrawFailed() */\n      iszero\n      tag_186\n      jumpi\n        /* \"AuctionContract.sol\":14370:14386  WithdrawFailed() */\n      mload(0x40)\n      0x750b219c00000000000000000000000000000000000000000000000000000000\n      dup2\n      mstore\n      0x04\n      add\n      mload(0x40)\n      dup1\n      swap2\n      sub\n      swap1\n      revert\n        /* \"AuctionContract.sol\":14355:14386  if(ok)  revert WithdrawFailed() */\n    tag_186:\n        /* \"AuctionContract.sol\":14427:14428  0 */\n      0x00\n        /* \"AuctionContract.sol\":14397:14398  A */\n      dup3\n        /* \"AuctionContract.sol\":14397:14412  A.depositAmount */\n      0x0b\n      add\n        /* \"AuctionContract.sol\":14397:14424  A.depositAmount[msg.sender] */\n      0x00\n        /* \"AuctionContract.sol\":14413:14423  msg.sender */\n      caller\n        /* \"AuctionContract.sol\":14397:14424  A.depositAmount[msg.sender] */\n      0xffffffffffffffffffffffffffffffffffffffff\n      and\n      0xffffffffffffffffffffffffffffffffffffffff\n      and\n      dup2\n      mstore\n      0x20\n      add\n      swap1\n      dup2\n      mstore\n      0x20\n      add\n      0x00\n      keccak256\n        /* \"AuctionContract.sol\":14397:14428  A.depositAmount[msg.sender] = 0 */\n      dup2\n      swap1\n      sstore\n      pop\n        /* \"AuctionContract.sol\":14482:14492  msg.sender */\n      caller\n        /* \"AuctionContract.sol\":14454:14493  WithDrawnDeposit(auctionId, msg.sender) */\n      0xffffffffffffffffffffffffffffffffffffffff\n      and\n        /* \"AuctionContract.sol\":14471:14480  auctionId */\n      sload(0x01)\n        /* \"AuctionContract.sol\":14454:14493  WithDrawnDeposit(auctionId, msg.sender) */\n      0x47f74a265269aa6e5423fbcd9a74b3c8771a0c3a9c7cdfb7ebe375b288c06b4e\n      mload(0x40)\n      mload(0x40)\n      dup1\n      swap2\n      sub\n      swap1\n      log3\n        /* \"AuctionContract.sol\":14031:14501  {... */\n      pop\n      pop\n        /* \"AuctionContract.sol\":1729:1730  1 */\n      0x01\n        /* \"AuctionContract.sol\":1955:1962  _status */\n      0x00\n        /* \"AuctionContract.sol\":1955:1977  _status = _NOT_ENTERED */\n      dup2\n      swap1\n      sstore\n      pop\n        /* \"AuctionContract.sol\":13982:14501  function withdrawDeposits() external nonReentrant{... */\n      jump\t// out\n        /* \"AuctionContract.sol\":16651:16838  function getRevealedAmount(uint256 id, address bidder) external view returns (uint256) {... */\n    tag_70:\n        /* \"AuctionContract.sol\":16729:16736  uint256 */\n      0x00\n        /* \"AuctionContract.sol\":16749:16766  Auction storage A */\n      0x00\n        /* \"AuctionContract.sol\":16769:16788  _requireAuction(id) */\n      tag_188\n        /* \"AuctionContract.sol\":16785:16787  id */\n      dup5\n        /* \"AuctionContract.sol\":16769:16784  _requireAuction */\n      tag_158\n        /* \"AuctionContract.sol\":16769:16788  _requireAuction(id) */\n      jump\t// in\n    tag_188:\n        /* \"AuctionContract.sol\":16749:16788  Auction storage A = _requireAuction(id) */\n      swap1\n      pop\n        /* \"AuctionContract.sol\":16806:16807  A */\n      dup1\n        /* \"AuctionContract.sol\":16806:16822  A.revealedAmount */\n      0x0c\n      add\n        /* \"AuctionContract.sol\":16806:16830  A.revealedAmount[bidder] */\n      0x00\n        /* \"AuctionContract.sol\":16823:16829  bidder */\n      dup5\n        /* \"AuctionContract.sol\":16806:16830  A.revealedAmount[bidder] */\n      0xffffffffffffffffffffffffffffffffffffffff\n      and\n      0xffffffffffffffffffffffffffffffffffffffff\n      and\n      dup2\n      mstore\n      0x20\n      add\n      swap1\n      dup2\n      mstore\n      0x20\n      add\n      0x00\n      keccak256\n      sload\n        /* \"AuctionContract.sol\":16799:16830  return A.revealedAmount[bidder] */\n      swap2\n      pop\n      pop\n        /* \"AuctionContract.sol\":16651:16838  function getRevealedAmount(uint256 id, address bidder) external view returns (uint256) {... */\n      swap3\n      swap2\n      pop\n      pop\n      jump\t// out\n        /* \"AuctionContract.sol\":8007:9113  function commitBid(bytes32 commitment) external payable{... */\n    tag_75:\n        /* \"AuctionContract.sol\":8073:8090  Auction storage A */\n      0x00\n        /* \"AuctionContract.sol\":8093:8116  _requireActiveAuction() */\n      tag_190\n        /* \"AuctionContract.sol\":8093:8114  _requireActiveAuction */\n      tag_122\n        /* \"AuctionContract.sol\":8093:8116  _requireActiveAuction() */\n      jump\t// in\n    tag_190:\n        /* \"AuctionContract.sol\":8073:8116  Auction storage A = _requireActiveAuction() */\n      swap1\n      pop\n        /* \"AuctionContract.sol\":8200:8201  A */\n      dup1\n        /* \"AuctionContract.sol\":8200:8211  A.commitEnd */\n      0x03\n      add\n      0x08\n      swap1\n      sload\n      swap1\n      0x0100\n      exp\n      swap1\n      div\n      0xffffffffffffffff\n      and\n        /* \"AuctionContract.sol\":8181:8211  block.timestamp >= A.commitEnd */\n      0xffffffffffffffff\n      and\n        /* \"AuctionContract.sol\":8181:8196  block.timestamp */\n      timestamp\n        /* \"AuctionContract.sol\":8181:8211  block.timestamp >= A.commitEnd */\n      lt\n      iszero\n        /* \"AuctionContract.sol\":8181:8245  block.timestamp >= A.commitEnd || block.timestamp < A.startStamp */\n      dup1\n      tag_191\n      jumpi\n      pop\n        /* \"AuctionContract.sol\":8233:8234  A */\n      dup1\n        /* \"AuctionContract.sol\":8233:8245  A.startStamp */\n      0x03\n      add\n      0x00\n      swap1\n      sload\n      swap1\n      0x0100\n      exp\n      swap1\n      div\n      0xffffffffffffffff\n      and\n        /* \"AuctionContract.sol\":8215:8245  block.timestamp < A.startStamp */\n      0xffffffffffffffff\n      and\n        /* \"AuctionContract.sol\":8215:8230  block.timestamp */\n      timestamp\n        /* \"AuctionContract.sol\":8215:8245  block.timestamp < A.startStamp */\n      lt\n        /* \"AuctionContract.sol\":8181:8245  block.timestamp >= A.commitEnd || block.timestamp < A.startStamp */\n    tag_191:\n        /* \"AuctionContract.sol\":8177:8272  if (block.timestamp >= A.commitEnd || block.timestamp < A.startStamp) revert NotInCommitPhase() */\n      iszero\n      tag_192\n      jumpi\n        /* \"AuctionContract.sol\":8254:8272  NotInCommitPhase() */\n      mload(0x40)\n      0xabfb7dc300000000000000000000000000000000000000000000000000000000\n      dup2\n      mstore\n      0x04\n      add\n      mload(0x40)\n      dup1\n      swap2\n      sub\n      swap1\n      revert\n        /* \"AuctionContract.sol\":8177:8272  if (block.timestamp >= A.commitEnd || block.timestamp < A.startStamp) revert NotInCommitPhase() */\n    tag_192:\n        /* \"AuctionContract.sol\":8340:8341  0 */\n      0x00\n        /* \"AuctionContract.sol\":8332:8342  bytes32(0) */\n      0x00\n      shl\n        /* \"AuctionContract.sol\":8318:8328  commitment */\n      dup3\n        /* \"AuctionContract.sol\":8318:8342  commitment == bytes32(0) */\n      sub\n        /* \"AuctionContract.sol\":8314:8370  if (commitment == bytes32(0)) revert InvalidCommitment() */\n      tag_193\n      jumpi\n        /* \"AuctionContract.sol\":8351:8370  InvalidCommitment() */\n      mload(0x40)\n      0xc06789fa00000000000000000000000000000000000000000000000000000000\n      dup2\n      mstore\n      0x04\n      add\n      mload(0x40)\n      dup1\n      swap2\n      sub\n      swap1\n      revert\n        /* \"AuctionContract.sol\":8314:8370  if (commitment == bytes32(0)) revert InvalidCommitment() */\n    tag_193:\n        /* \"AuctionContract.sol\":8482:8483  0 */\n      0x00\n        /* \"AuctionContract.sol\":8474:8484  bytes32(0) */\n      0x00\n      shl\n        /* \"AuctionContract.sol\":8445:8446  A */\n      dup2\n        /* \"AuctionContract.sol\":8445:8458  A.commitments */\n      0x09\n      add\n        /* \"AuctionContract.sol\":8445:8470  A.commitments[msg.sender] */\n      0x00\n        /* \"AuctionContract.sol\":8459:8469  msg.sender */\n      caller\n        /* \"AuctionContract.sol\":8445:8470  A.commitments[msg.sender] */\n      0xffffffffffffffffffffffffffffffffffffffff\n      and\n      0xffffffffffffffffffffffffffffffffffffffff\n      and\n      dup2\n      mstore\n      0x20\n      add\n      swap1\n      dup2\n      mstore\n      0x20\n      add\n      0x00\n      keccak256\n      sload\n        /* \"AuctionContract.sol\":8445:8484  A.commitments[msg.sender] == bytes32(0) */\n      sub\n        /* \"AuctionContract.sol\":8441:8850  if (A.commitments[msg.sender] == bytes32(0)) {... */\n      tag_194\n      jumpi\n        /* \"AuctionContract.sol\":8518:8519  A */\n      dup1\n        /* \"AuctionContract.sol\":8518:8532  A.reservePrice */\n      0x02\n      add\n      sload\n        /* \"AuctionContract.sol\":8505:8514  msg.value */\n      callvalue\n        /* \"AuctionContract.sol\":8505:8532  msg.value == A.reservePrice */\n      sub\n        /* \"AuctionContract.sol\":8501:8563  if (msg.value == A.reservePrice) revert ExactDepositRequired() */\n      tag_195\n      jumpi\n        /* \"AuctionContract.sol\":8541:8563  ExactDepositRequired() */\n      mload(0x40)\n      0x603e3d3600000000000000000000000000000000000000000000000000000000\n      dup2\n      mstore\n      0x04\n      add\n      mload(0x40)\n      dup1\n      swap2\n      sub\n      swap1\n      revert\n        /* \"AuctionContract.sol\":8501:8563  if (msg.value == A.reservePrice) revert ExactDepositRequired() */\n    tag_195:\n        /* \"AuctionContract.sol\":8608:8609  A */\n      dup1\n        /* \"AuctionContract.sol\":8608:8622  A.reservePrice */\n      0x02\n      add\n      sload\n        /* \"AuctionContract.sol\":8578:8579  A */\n      dup2\n        /* \"AuctionContract.sol\":8578:8593  A.depositAmount */\n      0x0b\n      add\n        /* \"AuctionContract.sol\":8578:8605  A.depositAmount[msg.sender] */\n      0x00\n        /* \"AuctionContract.sol\":8594:8604  msg.sender */\n      caller\n        /* \"AuctionContract.sol\":8578:8605  A.depositAmount[msg.sender] */\n      0xffffffffffffffffffffffffffffffffffffffff\n      and\n      0xffffffffffffffffffffffffffffffffffffffff\n      and\n      dup2\n      mstore\n      0x20\n      add\n      swap1\n      dup2\n      mstore\n      0x20\n      add\n      0x00\n      keccak256\n        /* \"AuctionContract.sol\":8578:8622  A.depositAmount[msg.sender] = A.reservePrice */\n      dup2\n      swap1\n      sstore\n      pop\n        /* \"AuctionContract.sol\":8441:8850  if (A.commitments[msg.sender] == bytes32(0)) {... */\n      jump(tag_196)\n    tag_194:\n        /* \"AuctionContract.sol\":8814:8815  0 */\n      0x00\n        /* \"AuctionContract.sol\":8801:8810  msg.value */\n      callvalue\n        /* \"AuctionContract.sol\":8801:8815  msg.value != 0 */\n      eq\n        /* \"AuctionContract.sol\":8798:8838  if(msg.value != 0) revert NoEthAllowed() */\n      tag_197\n      jumpi\n        /* \"AuctionContract.sol\":8824:8838  NoEthAllowed() */\n      mload(0x40)\n      0x7f4316f300000000000000000000000000000000000000000000000000000000\n      dup2\n      mstore\n      0x04\n      add\n      mload(0x40)\n      dup1\n      swap2\n      sub\n      swap1\n      revert\n        /* \"AuctionContract.sol\":8798:8838  if(msg.value != 0) revert NoEthAllowed() */\n    tag_197:\n        /* \"AuctionContract.sol\":8441:8850  if (A.commitments[msg.sender] == bytes32(0)) {... */\n    tag_196:\n        /* \"AuctionContract.sol\":8918:8928  commitment */\n      dup2\n        /* \"AuctionContract.sol\":8890:8891  A */\n      dup2\n        /* \"AuctionContract.sol\":8890:8903  A.commitments */\n      0x09\n      add\n        /* \"AuctionContract.sol\":8890:8915  A.commitments[msg.sender] */\n      0x00\n        /* \"AuctionContract.sol\":8904:8914  msg.sender */\n      caller\n        /* \"AuctionContract.sol\":8890:8915  A.commitments[msg.sender] */\n      0xffffffffffffffffffffffffffffffffffffffff\n      and\n      0xffffffffffffffffffffffffffffffffffffffff\n      and\n      dup2\n      mstore\n      0x20\n      add\n      swap1\n      dup2\n      mstore\n      0x20\n      add\n      0x00\n      keccak256\n        /* \"AuctionContract.sol\":8890:8928  A.commitments[msg.sender] = commitment */\n      dup2\n      swap1\n      sstore\n      pop\n        /* \"AuctionContract.sol\":8996:8997  1 */\n      0x01\n        /* \"AuctionContract.sol\":8974:8975  A */\n      dup2\n        /* \"AuctionContract.sol\":8974:8992  A.commitSeqCounter */\n      0x0d\n      add\n      0x00\n        /* \"AuctionContract.sol\":8974:8997  A.commitSeqCounter += 1 */\n      dup3\n      dup3\n      dup3\n      swap1\n      sload\n      swap1\n      0x0100\n      exp\n      swap1\n      div\n      0xffffffffffffffff\n      and\n      tag_198\n      swap2\n      swap1\n      tag_135\n      jump\t// in\n    tag_198:\n      swap3\n      pop\n      0x0100\n      exp\n      dup2\n      sload\n      dup2\n      0xffffffffffffffff\n      mul\n      not\n      and\n      swap1\n      dup4\n      0xffffffffffffffff\n      and\n      mul\n      or\n      swap1\n      sstore\n      pop\n        /* \"AuctionContract.sol\":9034:9035  A */\n      dup1\n        /* \"AuctionContract.sol\":9034:9052  A.commitSeqCounter */\n      0x0d\n      add\n      0x00\n      swap1\n      sload\n      swap1\n      0x0100\n      exp\n      swap1\n      div\n      0xffffffffffffffff\n      and\n        /* \"AuctionContract.sol\":9008:9009  A */\n      dup2\n        /* \"AuctionContract.sol\":9008:9019  A.commitSeq */\n      0x0a\n      add\n        /* \"AuctionContract.sol\":9008:9031  A.commitSeq[msg.sender] */\n      0x00\n        /* \"AuctionContract.sol\":9020:9030  msg.sender */\n      caller\n        /* \"AuctionContract.sol\":9008:9031  A.commitSeq[msg.sender] */\n      0xffffffffffffffffffffffffffffffffffffffff\n      and\n      0xffffffffffffffffffffffffffffffffffffffff\n      and\n      dup2\n      mstore\n      0x20\n      add\n      swap1\n      dup2\n      mstore\n      0x20\n      add\n      0x00\n      keccak256\n      0x00\n        /* \"AuctionContract.sol\":9008:9052  A.commitSeq[msg.sender] = A.commitSeqCounter */\n      0x0100\n      exp\n      dup2\n      sload\n      dup2\n      0xffffffffffffffff\n      mul\n      not\n      and\n      swap1\n      dup4\n      0xffffffffffffffff\n      and\n      mul\n      or\n      swap1\n      sstore\n      pop\n        /* \"AuctionContract.sol\":9094:9104  msg.sender */\n      caller\n        /* \"AuctionContract.sol\":9070:9105  BidCommitted(auctionId, msg.sender) */\n      0xffffffffffffffffffffffffffffffffffffffff\n      and\n        /* \"AuctionContract.sol\":9083:9092  auctionId */\n      sload(0x01)\n        /* \"AuctionContract.sol\":9070:9105  BidCommitted(auctionId, msg.sender) */\n      0x0934ea4de468dcd0d9a335c5f97aa77955310c29631c93fbd01d95a00242ec41\n      mload(0x40)\n      mload(0x40)\n      dup1\n      swap2\n      sub\n      swap1\n      log3\n        /* \"AuctionContract.sol\":8062:9113  {... */\n      pop\n        /* \"AuctionContract.sol\":8007:9113  function commitBid(bytes32 commitment) external payable{... */\n      pop\n      jump\t// out\n        /* \"AuctionContract.sol\":5998:7831  function startAuction(... */\n    tag_80:\n        /* \"AuctionContract.sol\":6308:6309  0 */\n      0x00\n        /* \"AuctionContract.sol\":6295:6304  auctionId */\n      sload(0x01)\n        /* \"AuctionContract.sol\":6295:6309  auctionId != 0 */\n      eq\n        /* \"AuctionContract.sol\":6291:6439  if (auctionId != 0) {... */\n      tag_200\n      jumpi\n        /* \"AuctionContract.sol\":6326:6346  Auction storage prev */\n      0x00\n        /* \"AuctionContract.sol\":6349:6358  _auctions */\n      0x02\n        /* \"AuctionContract.sol\":6349:6369  _auctions[auctionId] */\n      0x00\n        /* \"AuctionContract.sol\":6359:6368  auctionId */\n      sload(0x01)\n        /* \"AuctionContract.sol\":6349:6369  _auctions[auctionId] */\n      dup2\n      mstore\n      0x20\n      add\n      swap1\n      dup2\n      mstore\n      0x20\n      add\n      0x00\n      keccak256\n        /* \"AuctionContract.sol\":6326:6369  Auction storage prev = _auctions[auctionId] */\n      swap1\n      pop\n        /* \"AuctionContract.sol\":6392:6396  prev */\n      dup1\n        /* \"AuctionContract.sol\":6392:6404  prev.settled */\n      0x08\n      add\n      0x01\n      swap1\n      sload\n      swap1\n      0x0100\n      exp\n      swap1\n      div\n      0xff\n      and\n        /* \"AuctionContract.sol\":6384:6427  require(prev.settled, \"previous not ended\") */\n      tag_201\n      jumpi\n      mload(0x40)\n      0x08c379a000000000000000000000000000000000000000000000000000000000\n      dup2\n      mstore\n      0x04\n      add\n      tag_202\n      swap1\n      tag_203\n      jump\t// in\n    tag_202:\n      mload(0x40)\n      dup1\n      swap2\n      sub\n      swap1\n      revert\n    tag_201:\n        /* \"AuctionContract.sol\":6311:6439  {... */\n      pop\n        /* \"AuctionContract.sol\":6291:6439  if (auctionId != 0) {... */\n    tag_200:\n        /* \"AuctionContract.sol\":6508:6509  0 */\n      0x00\n        /* \"AuctionContract.sol\":6484:6505  commitDurationSeconds */\n      dup4\n        /* \"AuctionContract.sol\":6484:6509  commitDurationSeconds > 0 */\n      0xffffffffffffffff\n      and\n      gt\n        /* \"AuctionContract.sol\":6484:6549  commitDurationSeconds > 0 && commitDurationSeconds < MAX_DURATION */\n      dup1\n      iszero\n      tag_204\n      jumpi\n      pop\n        /* \"AuctionContract.sol\":1379:1386  2592000 */\n      0x278d00\n        /* \"AuctionContract.sol\":6513:6534  commitDurationSeconds */\n      dup4\n        /* \"AuctionContract.sol\":6513:6549  commitDurationSeconds < MAX_DURATION */\n      0xffffffffffffffff\n      and\n      lt\n        /* \"AuctionContract.sol\":6484:6549  commitDurationSeconds > 0 && commitDurationSeconds < MAX_DURATION */\n    tag_204:\n        /* \"AuctionContract.sol\":6476:6582  require(commitDurationSeconds > 0 && commitDurationSeconds < MAX_DURATION, \"CONFIG: bad commit durations\") */\n      tag_205\n      jumpi\n      mload(0x40)\n      0x08c379a000000000000000000000000000000000000000000000000000000000\n      dup2\n      mstore\n      0x04\n      add\n      tag_206\n      swap1\n      tag_207\n      jump\t// in\n    tag_206:\n      mload(0x40)\n      dup1\n      swap2\n      sub\n      swap1\n      revert\n    tag_205:\n        /* \"AuctionContract.sol\":6625:6626  0 */\n      0x00\n        /* \"AuctionContract.sol\":6601:6622  revealDurationSeconds */\n      dup3\n        /* \"AuctionContract.sol\":6601:6626  revealDurationSeconds > 0 */\n      0xffffffffffffffff\n      and\n      gt\n        /* \"AuctionContract.sol\":6601:6666  revealDurationSeconds > 0 && revealDurationSeconds < MAX_DURATION */\n      dup1\n      iszero\n      tag_208\n      jumpi\n      pop\n        /* \"AuctionContract.sol\":1379:1386  2592000 */\n      0x278d00\n        /* \"AuctionContract.sol\":6630:6651  revealDurationSeconds */\n      dup3\n        /* \"AuctionContract.sol\":6630:6666  revealDurationSeconds < MAX_DURATION */\n      0xffffffffffffffff\n      and\n      lt\n        /* \"AuctionContract.sol\":6601:6666  revealDurationSeconds > 0 && revealDurationSeconds < MAX_DURATION */\n    tag_208:\n        /* \"AuctionContract.sol\":6593:6699  require(revealDurationSeconds > 0 && revealDurationSeconds < MAX_DURATION, \"CONFIG: bad reveal durations\") */\n      tag_209\n      jumpi\n      mload(0x40)\n      0x08c379a000000000000000000000000000000000000000000000000000000000\n      dup2\n      mstore\n      0x04\n      add\n      tag_210\n      swap1\n      tag_211\n      jump\t// in\n    tag_210:\n      mload(0x40)\n      dup1\n      swap2\n      sub\n      swap1\n      revert\n    tag_209:\n        /* \"AuctionContract.sol\":6734:6735  0 */\n      0x00\n        /* \"AuctionContract.sol\":6718:6730  reservePrice */\n      dup5\n        /* \"AuctionContract.sol\":6718:6735  reservePrice >= 0 */\n      lt\n      iszero\n        /* \"AuctionContract.sol\":6718:6763  reservePrice >= 0 && reservePrice < MAX_PRICE */\n      dup1\n      iszero\n      tag_212\n      jumpi\n      pop\n        /* \"AuctionContract.sol\":1441:1445  1e27 */\n      0x033b2e3c9fd0803ce8000000\n        /* \"AuctionContract.sol\":6739:6751  reservePrice */\n      dup5\n        /* \"AuctionContract.sol\":6739:6763  reservePrice < MAX_PRICE */\n      lt\n        /* \"AuctionContract.sol\":6718:6763  reservePrice >= 0 && reservePrice < MAX_PRICE */\n    tag_212:\n        /* \"AuctionContract.sol\":6710:6793  require(reservePrice >= 0 && reservePrice < MAX_PRICE, \"CONFIG: bad reserve price\") */\n      tag_213\n      jumpi\n      mload(0x40)\n      0x08c379a000000000000000000000000000000000000000000000000000000000\n      dup2\n      mstore\n      0x04\n      add\n      tag_214\n      swap1\n      tag_215\n      jump\t// in\n    tag_214:\n      mload(0x40)\n      dup1\n      swap2\n      sub\n      swap1\n      revert\n    tag_213:\n        /* \"AuctionContract.sol\":6866:6876  msg.sender */\n      caller\n        /* \"AuctionContract.sol\":6837:6876  classNFT.ownerOf(tokenId) == msg.sender */\n      0xffffffffffffffffffffffffffffffffffffffff\n      and\n        /* \"AuctionContract.sol\":6837:6845  classNFT */\n      immutable(\"0xbf08d8a2d7c7780024ba6e6dbe12d3d5a5a747ea3071fca63d8a2ede50d3472a\")\n        /* \"AuctionContract.sol\":6837:6853  classNFT.ownerOf */\n      0xffffffffffffffffffffffffffffffffffffffff\n      and\n      0x6352211e\n        /* \"AuctionContract.sol\":6854:6861  tokenId */\n      dup8\n        /* \"AuctionContract.sol\":6837:6862  classNFT.ownerOf(tokenId) */\n      mload(0x40)\n      dup3\n      0xffffffff\n      and\n      0xe0\n      shl\n      dup2\n      mstore\n      0x04\n      add\n      tag_216\n      swap2\n      swap1\n      tag_29\n      jump\t// in\n    tag_216:\n      0x20\n      mload(0x40)\n      dup1\n      dup4\n      sub\n      dup2\n      dup7\n      gas\n      staticcall\n      iszero\n      dup1\n      iszero\n      tag_218\n      jumpi\n      returndatacopy(0x00, 0x00, returndatasize)\n      revert(0x00, returndatasize)\n    tag_218:\n      pop\n      pop\n      pop\n      pop\n      mload(0x40)\n      returndatasize\n      not(0x1f)\n      0x1f\n      dup3\n      add\n      and\n      dup3\n      add\n      dup1\n      0x40\n      mstore\n      pop\n      dup2\n      add\n      swap1\n      tag_219\n      swap2\n      swap1\n      tag_220\n      jump\t// in\n    tag_219:\n        /* \"AuctionContract.sol\":6837:6876  classNFT.ownerOf(tokenId) == msg.sender */\n      0xffffffffffffffffffffffffffffffffffffffff\n      and\n      eq\n        /* \"AuctionContract.sol\":6829:6890  require(classNFT.ownerOf(tokenId) == msg.sender, \"not owner\") */\n      tag_221\n      jumpi\n      mload(0x40)\n      0x08c379a000000000000000000000000000000000000000000000000000000000\n      dup2\n      mstore\n      0x04\n      add\n      tag_222\n      swap1\n      tag_223\n      jump\t// in\n    tag_222:\n      mload(0x40)\n      dup1\n      swap2\n      sub\n      swap1\n      revert\n    tag_221:\n        /* \"AuctionContract.sol\":6977:7029  _safeTransferNFT(msg.sender, address(this), tokenId) */\n      tag_224\n        /* \"AuctionContract.sol\":6994:7004  msg.sender */\n      caller\n        /* \"AuctionContract.sol\":7014:7018  this */\n      address\n        /* \"AuctionContract.sol\":7021:7028  tokenId */\n      dup8\n        /* \"AuctionContract.sol\":6977:6993  _safeTransferNFT */\n      tag_129\n        /* \"AuctionContract.sol\":6977:7029  _safeTransferNFT(msg.sender, address(this), tokenId) */\n      jump\t// in\n    tag_224:\n        /* \"AuctionContract.sol\":7082:7083  1 */\n      0x01\n        /* \"AuctionContract.sol\":7069:7078  auctionId */\n      dup1\n      0x00\n        /* \"AuctionContract.sol\":7069:7083  auctionId += 1 */\n      dup3\n      dup3\n      sload\n      tag_225\n      swap2\n      swap1\n      tag_226\n      jump\t// in\n    tag_225:\n      swap3\n      pop\n      pop\n      dup2\n      swap1\n      sstore\n      pop\n        /* \"AuctionContract.sol\":7094:7111  Auction storage A */\n      0x00\n        /* \"AuctionContract.sol\":7114:7123  _auctions */\n      0x02\n        /* \"AuctionContract.sol\":7114:7134  _auctions[auctionId] */\n      0x00\n        /* \"AuctionContract.sol\":7124:7133  auctionId */\n      sload(0x01)\n        /* \"AuctionContract.sol\":7114:7134  _auctions[auctionId] */\n      dup2\n      mstore\n      0x20\n      add\n      swap1\n      dup2\n      mstore\n      0x20\n      add\n      0x00\n      keccak256\n        /* \"AuctionContract.sol\":7094:7134  Auction storage A = _auctions[auctionId] */\n      swap1\n      pop\n        /* \"AuctionContract.sol\":7187:7194  tokenId */\n      dup6\n        /* \"AuctionContract.sol\":7175:7176  A */\n      dup2\n        /* \"AuctionContract.sol\":7175:7184  A.tokenId */\n      0x00\n      add\n        /* \"AuctionContract.sol\":7175:7194  A.tokenId = tokenId */\n      dup2\n      swap1\n      sstore\n      pop\n        /* \"AuctionContract.sol\":7216:7226  msg.sender */\n      caller\n        /* \"AuctionContract.sol\":7205:7206  A */\n      dup2\n        /* \"AuctionContract.sol\":7205:7213  A.seller */\n      0x01\n      add\n      0x00\n        /* \"AuctionContract.sol\":7205:7226  A.seller = msg.sender */\n      0x0100\n      exp\n      dup2\n      sload\n      dup2\n      0xffffffffffffffffffffffffffffffffffffffff\n      mul\n      not\n      and\n      swap1\n      dup4\n      0xffffffffffffffffffffffffffffffffffffffff\n      and\n      mul\n      or\n      swap1\n      sstore\n      pop\n        /* \"AuctionContract.sol\":7254:7266  reservePrice */\n      dup5\n        /* \"AuctionContract.sol\":7237:7238  A */\n      dup2\n        /* \"AuctionContract.sol\":7237:7251  A.reservePrice */\n      0x02\n      add\n        /* \"AuctionContract.sol\":7237:7266  A.reservePrice = reservePrice */\n      dup2\n      swap1\n      sstore\n      pop\n        /* \"AuctionContract.sol\":7434:7446  uint64 nowTs */\n      0x00\n        /* \"AuctionContract.sol\":7456:7471  block.timestamp */\n      timestamp\n        /* \"AuctionContract.sol\":7434:7472  uint64 nowTs = uint64(block.timestamp) */\n      swap1\n      pop\n        /* \"AuctionContract.sol\":7498:7503  nowTs */\n      dup1\n        /* \"AuctionContract.sol\":7483:7484  A */\n      dup3\n        /* \"AuctionContract.sol\":7483:7495  A.startStamp */\n      0x03\n      add\n      0x00\n        /* \"AuctionContract.sol\":7483:7503  A.startStamp = nowTs */\n      0x0100\n      exp\n      dup2\n      sload\n      dup2\n      0xffffffffffffffff\n      mul\n      not\n      and\n      swap1\n      dup4\n      0xffffffffffffffff\n      and\n      mul\n      or\n      swap1\n      sstore\n      pop\n        /* \"AuctionContract.sol\":7536:7557  commitDurationSeconds */\n      dup5\n        /* \"AuctionContract.sol\":7528:7533  nowTs */\n      dup2\n        /* \"AuctionContract.sol\":7528:7557  nowTs + commitDurationSeconds */\n      tag_227\n      swap2\n      swap1\n      tag_135\n      jump\t// in\n    tag_227:\n        /* \"AuctionContract.sol\":7514:7515  A */\n      dup3\n        /* \"AuctionContract.sol\":7514:7525  A.commitEnd */\n      0x03\n      add\n      0x08\n        /* \"AuctionContract.sol\":7514:7557  A.commitEnd = nowTs + commitDurationSeconds */\n      0x0100\n      exp\n      dup2\n      sload\n      dup2\n      0xffffffffffffffff\n      mul\n      not\n      and\n      swap1\n      dup4\n      0xffffffffffffffff\n      and\n      mul\n      or\n      swap1\n      sstore\n      pop\n        /* \"AuctionContract.sol\":7596:7617  revealDurationSeconds */\n      dup4\n        /* \"AuctionContract.sol\":7582:7583  A */\n      dup3\n        /* \"AuctionContract.sol\":7582:7593  A.commitEnd */\n      0x03\n      add\n      0x08\n      swap1\n      sload\n      swap1\n      0x0100\n      exp\n      swap1\n      div\n      0xffffffffffffffff\n      and\n        /* \"AuctionContract.sol\":7582:7617  A.commitEnd + revealDurationSeconds */\n      tag_228\n      swap2\n      swap1\n      tag_135\n      jump\t// in\n    tag_228:\n        /* \"AuctionContract.sol\":7568:7569  A */\n      dup3\n        /* \"AuctionContract.sol\":7568:7579  A.revealEnd */\n      0x03\n      add\n      0x10\n        /* \"AuctionContract.sol\":7568:7617  A.revealEnd = A.commitEnd + revealDurationSeconds */\n      0x0100\n      exp\n      dup2\n      sload\n      dup2\n      0xffffffffffffffff\n      mul\n      not\n      and\n      swap1\n      dup4\n      0xffffffffffffffff\n      and\n      mul\n      or\n      swap1\n      sstore\n      pop\n        /* \"AuctionContract.sol\":7647:7668  settleDurationSeconds */\n      dup3\n        /* \"AuctionContract.sol\":7628:7629  A */\n      dup3\n        /* \"AuctionContract.sol\":7628:7644  A.settleDuration */\n      0x03\n      add\n      0x18\n        /* \"AuctionContract.sol\":7628:7668  A.settleDuration = settleDurationSeconds */\n      0x0100\n      exp\n      dup2\n      sload\n      dup2\n      0xffffffffffffffff\n      mul\n      not\n      and\n      swap1\n      dup4\n      0xffffffffffffffff\n      and\n      mul\n      or\n      swap1\n      sstore\n      pop\n        /* \"AuctionContract.sol\":7732:7740  classNFT */\n      immutable(\"0xbf08d8a2d7c7780024ba6e6dbe12d3d5a5a747ea3071fca63d8a2ede50d3472a\")\n        /* \"AuctionContract.sol\":7686:7823  AuctionStarted(auctionId, msg.sender, address(classNFT), tokenId, reservePrice, A.startStamp, A.commitEnd, A.revealEnd, A.settleDuration) */\n      0xffffffffffffffffffffffffffffffffffffffff\n      and\n        /* \"AuctionContract.sol\":7712:7722  msg.sender */\n      caller\n        /* \"AuctionContract.sol\":7686:7823  AuctionStarted(auctionId, msg.sender, address(classNFT), tokenId, reservePrice, A.startStamp, A.commitEnd, A.revealEnd, A.settleDuration) */\n      0xffffffffffffffffffffffffffffffffffffffff\n      and\n        /* \"AuctionContract.sol\":7701:7710  auctionId */\n      sload(0x01)\n        /* \"AuctionContract.sol\":7686:7823  AuctionStarted(auctionId, msg.sender, address(classNFT), tokenId, reservePrice, A.startStamp, A.commitEnd, A.revealEnd, A.settleDuration) */\n      0x7abf6ab8b302120b3c02e57915d50f8896518cb2ff56f4f58d92a463a12d1649\n        /* \"AuctionContract.sol\":7743:7750  tokenId */\n      dup11\n        /* \"AuctionContract.sol\":7752:7764  reservePrice */\n      dup11\n        /* \"AuctionContract.sol\":7766:7767  A */\n      dup8\n        /* \"AuctionContract.sol\":7766:7778  A.startStamp */\n      0x03\n      add\n      0x00\n      swap1\n      sload\n      swap1\n      0x0100\n      exp\n      swap1\n      div\n      0xffffffffffffffff\n      and\n        /* \"AuctionContract.sol\":7780:7781  A */\n      dup9\n        /* \"AuctionContract.sol\":7780:7791  A.commitEnd */\n      0x03\n      add\n      0x08\n      swap1\n      sload\n      swap1\n      0x0100\n      exp\n      swap1\n      div\n      0xffffffffffffffff\n      and\n        /* \"AuctionContract.sol\":7793:7794  A */\n      dup10\n        /* \"AuctionContract.sol\":7793:7804  A.revealEnd */\n      0x03\n      add\n      0x10\n      swap1\n      sload\n      swap1\n      0x0100\n      exp\n      swap1\n      div\n      0xffffffffffffffff\n      and\n        /* \"AuctionContract.sol\":7806:7807  A */\n      dup11\n        /* \"AuctionContract.sol\":7806:7822  A.settleDuration */\n      0x03\n      add\n      0x18\n      swap1\n      sload\n      swap1\n      0x0100\n      exp\n      swap1\n      div\n      0xffffffffffffffff\n      and\n        /* \"AuctionContract.sol\":7686:7823  AuctionStarted(auctionId, msg.sender, address(classNFT), tokenId, reservePrice, A.startStamp, A.commitEnd, A.revealEnd, A.settleDuration) */\n      mload(0x40)\n      tag_229\n      swap7\n      swap6\n      swap5\n      swap4\n      swap3\n      swap2\n      swap1\n      tag_230\n      jump\t// in\n    tag_229:\n      mload(0x40)\n      dup1\n      swap2\n      sub\n      swap1\n      log4\n        /* \"AuctionContract.sol\":6210:7831  {... */\n      pop\n      pop\n        /* \"AuctionContract.sol\":5998:7831  function startAuction(... */\n      pop\n      pop\n      pop\n      pop\n      pop\n      jump\t// out\n        /* \"AuctionContract.sol\":16086:16266  function getCommitment(uint256 id, address bidder) external view returns (bytes32) {... */\n    tag_84:\n        /* \"AuctionContract.sol\":16160:16167  bytes32 */\n      0x00\n        /* \"AuctionContract.sol\":16180:16197  Auction storage A */\n      0x00\n        /* \"AuctionContract.sol\":16200:16219  _requireAuction(id) */\n      tag_232\n        /* \"AuctionContract.sol\":16216:16218  id */\n      dup5\n        /* \"AuctionContract.sol\":16200:16215  _requireAuction */\n      tag_158\n        /* \"AuctionContract.sol\":16200:16219  _requireAuction(id) */\n      jump\t// in\n    tag_232:\n        /* \"AuctionContract.sol\":16180:16219  Auction storage A = _requireAuction(id) */\n      swap1\n      pop\n        /* \"AuctionContract.sol\":16237:16238  A */\n      dup1\n        /* \"AuctionContract.sol\":16237:16250  A.commitments */\n      0x09\n      add\n        /* \"AuctionContract.sol\":16237:16258  A.commitments[bidder] */\n      0x00\n        /* \"AuctionContract.sol\":16251:16257  bidder */\n      dup5\n        /* \"AuctionContract.sol\":16237:16258  A.commitments[bidder] */\n      0xffffffffffffffffffffffffffffffffffffffff\n      and\n      0xffffffffffffffffffffffffffffffffffffffff\n      and\n      dup2\n      mstore\n      0x20\n      add\n      swap1\n      dup2\n      mstore\n      0x20\n      add\n      0x00\n      keccak256\n      sload\n        /* \"AuctionContract.sol\":16230:16258  return A.commitments[bidder] */\n      swap2\n      pop\n      pop\n        /* \"AuctionContract.sol\":16086:16266  function getCommitment(uint256 id, address bidder) external view returns (bytes32) {... */\n      swap3\n      swap2\n      pop\n      pop\n      jump\t// out\n        /* \"AuctionContract.sol\":1340:1386  uint256 public constant MAX_DURATION = 2592000 */\n    tag_89:\n        /* \"AuctionContract.sol\":1379:1386  2592000 */\n      0x278d00\n        /* \"AuctionContract.sol\":1340:1386  uint256 public constant MAX_DURATION = 2592000 */\n      dup2\n      jump\t// out\n        /* \"AuctionContract.sol\":4546:5058  function currentPhase(uint256 id) public view returns (string memory) {... */\n    tag_94:\n        /* \"AuctionContract.sol\":4601:4614  string memory */\n      0x60\n        /* \"AuctionContract.sol\":4627:4644  Auction storage A */\n      0x00\n        /* \"AuctionContract.sol\":4647:4666  _requireAuction(id) */\n      tag_234\n        /* \"AuctionContract.sol\":4663:4665  id */\n      dup4\n        /* \"AuctionContract.sol\":4647:4662  _requireAuction */\n      tag_158\n        /* \"AuctionContract.sol\":4647:4666  _requireAuction(id) */\n      jump\t// in\n    tag_234:\n        /* \"AuctionContract.sol\":4627:4666  Auction storage A = _requireAuction(id) */\n      swap1\n      pop\n        /* \"AuctionContract.sol\":4677:4686  uint256 t */\n      0x00\n        /* \"AuctionContract.sol\":4689:4704  block.timestamp */\n      timestamp\n        /* \"AuctionContract.sol\":4677:4704  uint256 t = block.timestamp */\n      swap1\n      pop\n        /* \"AuctionContract.sol\":4723:4724  A */\n      dup2\n        /* \"AuctionContract.sol\":4723:4734  A.commitEnd */\n      0x03\n      add\n      0x08\n      swap1\n      sload\n      swap1\n      0x0100\n      exp\n      swap1\n      div\n      0xffffffffffffffff\n      and\n        /* \"AuctionContract.sol\":4719:4734  t < A.commitEnd */\n      0xffffffffffffffff\n      and\n        /* \"AuctionContract.sol\":4719:4720  t */\n      dup2\n        /* \"AuctionContract.sol\":4719:4734  t < A.commitEnd */\n      lt\n        /* \"AuctionContract.sol\":4715:4751  if (t < A.commitEnd) return \"COMMIT\" */\n      iszero\n      tag_235\n      jumpi\n        /* \"AuctionContract.sol\":4736:4751  return \"COMMIT\" */\n      mload(0x40)\n      dup1\n      0x40\n      add\n      0x40\n      mstore\n      dup1\n      0x06\n      dup2\n      mstore\n      0x20\n      add\n      0x434f4d4d49540000000000000000000000000000000000000000000000000000\n      dup2\n      mstore\n      pop\n      swap3\n      pop\n      pop\n      pop\n      jump(tag_233)\n        /* \"AuctionContract.sol\":4715:4751  if (t < A.commitEnd) return \"COMMIT\" */\n    tag_235:\n        /* \"AuctionContract.sol\":4770:4771  A */\n      dup2\n        /* \"AuctionContract.sol\":4770:4781  A.revealEnd */\n      0x03\n      add\n      0x10\n      swap1\n      sload\n      swap1\n      0x0100\n      exp\n      swap1\n      div\n      0xffffffffffffffff\n      and\n        /* \"AuctionContract.sol\":4766:4781  t < A.revealEnd */\n      0xffffffffffffffff\n      and\n        /* \"AuctionContract.sol\":4766:4767  t */\n      dup2\n        /* \"AuctionContract.sol\":4766:4781  t < A.revealEnd */\n      lt\n        /* \"AuctionContract.sol\":4762:4798  if (t < A.revealEnd) return \"REVEAL\" */\n      iszero\n      tag_236\n      jumpi\n        /* \"AuctionContract.sol\":4783:4798  return \"REVEAL\" */\n      mload(0x40)\n      dup1\n      0x40\n      add\n      0x40\n      mstore\n      dup1\n      0x06\n      dup2\n      mstore\n      0x20\n      add\n      0x52455645414c0000000000000000000000000000000000000000000000000000\n      dup2\n      mstore\n      pop\n      swap3\n      pop\n      pop\n      pop\n      jump(tag_233)\n        /* \"AuctionContract.sol\":4762:4798  if (t < A.revealEnd) return \"REVEAL\" */\n    tag_236:\n        /* \"AuctionContract.sol\":4814:4815  A */\n      dup2\n        /* \"AuctionContract.sol\":4814:4825  A.finalized */\n      0x08\n      add\n      0x00\n      swap1\n      sload\n      swap1\n      0x0100\n      exp\n      swap1\n      div\n      0xff\n      and\n        /* \"AuctionContract.sol\":4809:4852  if (!A.finalized) return \"FINALIZE_PENDING\" */\n      tag_237\n      jumpi\n        /* \"AuctionContract.sol\":4827:4852  return \"FINALIZE_PENDING\" */\n      mload(0x40)\n      dup1\n      0x40\n      add\n      0x40\n      mstore\n      dup1\n      0x10\n      dup2\n      mstore\n      0x20\n      add\n      0x46494e414c495a455f50454e44494e4700000000000000000000000000000000\n      dup2\n      mstore\n      pop\n      swap3\n      pop\n      pop\n      pop\n      jump(tag_233)\n        /* \"AuctionContract.sol\":4809:4852  if (!A.finalized) return \"FINALIZE_PENDING\" */\n    tag_237:\n        /* \"AuctionContract.sol\":4867:4868  A */\n      dup2\n        /* \"AuctionContract.sol\":4867:4878  A.finalized */\n      0x08\n      add\n      0x00\n      swap1\n      sload\n      swap1\n      0x0100\n      exp\n      swap1\n      div\n      0xff\n      and\n        /* \"AuctionContract.sol\":4867:4892  A.finalized && !A.settled */\n      dup1\n      iszero\n      tag_238\n      jumpi\n      pop\n        /* \"AuctionContract.sol\":4883:4884  A */\n      dup2\n        /* \"AuctionContract.sol\":4883:4892  A.settled */\n      0x08\n      add\n      0x01\n      swap1\n      sload\n      swap1\n      0x0100\n      exp\n      swap1\n      div\n      0xff\n      and\n        /* \"AuctionContract.sol\":4882:4892  !A.settled */\n      iszero\n        /* \"AuctionContract.sol\":4867:4892  A.finalized && !A.settled */\n    tag_238:\n        /* \"AuctionContract.sol\":4867:4925  A.finalized && !A.settled && A.highestBidder != address(0) */\n      dup1\n      iszero\n      tag_239\n      jumpi\n      pop\n        /* \"AuctionContract.sol\":4923:4924  0 */\n      0x00\n        /* \"AuctionContract.sol\":4896:4925  A.highestBidder != address(0) */\n      0xffffffffffffffffffffffffffffffffffffffff\n      and\n        /* \"AuctionContract.sol\":4896:4897  A */\n      dup3\n        /* \"AuctionContract.sol\":4896:4911  A.highestBidder */\n      0x04\n      add\n      0x08\n      swap1\n      sload\n      swap1\n      0x0100\n      exp\n      swap1\n      div\n      0xffffffffffffffffffffffffffffffffffffffff\n      and\n        /* \"AuctionContract.sol\":4896:4925  A.highestBidder != address(0) */\n      0xffffffffffffffffffffffffffffffffffffffff\n      and\n      eq\n      iszero\n        /* \"AuctionContract.sol\":4867:4925  A.finalized && !A.settled && A.highestBidder != address(0) */\n    tag_239:\n        /* \"AuctionContract.sol\":4867:4950  A.finalized && !A.settled && A.highestBidder != address(0) && t <= A.settleDeadline */\n      dup1\n      iszero\n      tag_240\n      jumpi\n      pop\n        /* \"AuctionContract.sol\":4934:4935  A */\n      dup2\n        /* \"AuctionContract.sol\":4934:4950  A.settleDeadline */\n      0x04\n      add\n      0x00\n      swap1\n      sload\n      swap1\n      0x0100\n      exp\n      swap1\n      div\n      0xffffffffffffffff\n      and\n        /* \"AuctionContract.sol\":4929:4950  t <= A.settleDeadline */\n      0xffffffffffffffff\n      and\n        /* \"AuctionContract.sol\":4929:4930  t */\n      dup2\n        /* \"AuctionContract.sol\":4929:4950  t <= A.settleDeadline */\n      gt\n      iszero\n        /* \"AuctionContract.sol\":4867:4950  A.finalized && !A.settled && A.highestBidder != address(0) && t <= A.settleDeadline */\n    tag_240:\n        /* \"AuctionContract.sol\":4863:4974  if (A.finalized && !A.settled && A.highestBidder != address(0) && t <= A.settleDeadline) return \"AWAIT_PAYMENT\" */\n      iszero\n      tag_241\n      jumpi\n        /* \"AuctionContract.sol\":4952:4974  return \"AWAIT_PAYMENT\" */\n      mload(0x40)\n      dup1\n      0x40\n      add\n      0x40\n      mstore\n      dup1\n      0x0d\n      dup2\n      mstore\n      0x20\n      add\n      0x41574149545f5041594d454e5400000000000000000000000000000000000000\n      dup2\n      mstore\n      pop\n      swap3\n      pop\n      pop\n      pop\n      jump(tag_233)\n        /* \"AuctionContract.sol\":4863:4974  if (A.finalized && !A.settled && A.highestBidder != address(0) && t <= A.settleDeadline) return \"AWAIT_PAYMENT\" */\n    tag_241:\n        /* \"AuctionContract.sol\":4990:4991  A */\n      dup2\n        /* \"AuctionContract.sol\":4990:4999  A.settled */\n      0x08\n      add\n      0x01\n      swap1\n      sload\n      swap1\n      0x0100\n      exp\n      swap1\n      div\n      0xff\n      and\n        /* \"AuctionContract.sol\":4985:5025  if (!A.settled) return \"SETTLEMENT_OPEN\" */\n      tag_242\n      jumpi\n        /* \"AuctionContract.sol\":5001:5025  return \"SETTLEMENT_OPEN\" */\n      mload(0x40)\n      dup1\n      0x40\n      add\n      0x40\n      mstore\n      dup1\n      0x0f\n      dup2\n      mstore\n      0x20\n      add\n      0x534554544c454d454e545f4f50454e0000000000000000000000000000000000\n      dup2\n      mstore\n      pop\n      swap3\n      pop\n      pop\n      pop\n      jump(tag_233)\n        /* \"AuctionContract.sol\":4985:5025  if (!A.settled) return \"SETTLEMENT_OPEN\" */\n    tag_242:\n        /* \"AuctionContract.sol\":5036:5050  return \"ENDED\" */\n      mload(0x40)\n      dup1\n      0x40\n      add\n      0x40\n      mstore\n      dup1\n      0x05\n      dup2\n      mstore\n      0x20\n      add\n      0x454e444544000000000000000000000000000000000000000000000000000000\n      dup2\n      mstore\n      pop\n      swap3\n      pop\n      pop\n      pop\n        /* \"AuctionContract.sol\":4546:5058  function currentPhase(uint256 id) public view returns (string memory) {... */\n    tag_233:\n      swap2\n      swap1\n      pop\n      jump\t// out\n        /* \"AuctionContract.sol\":13272:13974  function sellerReclaimNFT(uint256 id) external {... */\n    tag_100:\n        /* \"AuctionContract.sol\":13330:13347  Auction storage A */\n      0x00\n        /* \"AuctionContract.sol\":13350:13369  _requireAuction(id) */\n      tag_244\n        /* \"AuctionContract.sol\":13366:13368  id */\n      dup3\n        /* \"AuctionContract.sol\":13350:13365  _requireAuction */\n      tag_158\n        /* \"AuctionContract.sol\":13350:13369  _requireAuction(id) */\n      jump\t// in\n    tag_244:\n        /* \"AuctionContract.sol\":13330:13369  Auction storage A = _requireAuction(id) */\n      swap1\n      pop\n        /* \"AuctionContract.sol\":13385:13386  A */\n      dup1\n        /* \"AuctionContract.sol\":13385:13396  A.finalized */\n      0x08\n      add\n      0x00\n      swap1\n      sload\n      swap1\n      0x0100\n      exp\n      swap1\n      div\n      0xff\n      and\n        /* \"AuctionContract.sol\":13380:13415  if (!A.finalized) revert NotEnded() */\n      tag_245\n      jumpi\n        /* \"AuctionContract.sol\":13405:13415  NotEnded() */\n      mload(0x40)\n      0xd3018d1800000000000000000000000000000000000000000000000000000000\n      dup2\n      mstore\n      0x04\n      add\n      mload(0x40)\n      dup1\n      swap2\n      sub\n      swap1\n      revert\n        /* \"AuctionContract.sol\":13380:13415  if (!A.finalized) revert NotEnded() */\n    tag_245:\n        /* \"AuctionContract.sol\":13444:13445  A */\n      dup1\n        /* \"AuctionContract.sol\":13444:13452  A.seller */\n      0x01\n      add\n      0x00\n      swap1\n      sload\n      swap1\n      0x0100\n      exp\n      swap1\n      div\n      0xffffffffffffffffffffffffffffffffffffffff\n      and\n        /* \"AuctionContract.sol\":13430:13452  msg.sender != A.seller */\n      0xffffffffffffffffffffffffffffffffffffffff\n      and\n        /* \"AuctionContract.sol\":13430:13440  msg.sender */\n      caller\n        /* \"AuctionContract.sol\":13430:13452  msg.sender != A.seller */\n      0xffffffffffffffffffffffffffffffffffffffff\n      and\n      eq\n        /* \"AuctionContract.sol\":13426:13472  if (msg.sender != A.seller) revert NotSeller() */\n      tag_246\n      jumpi\n        /* \"AuctionContract.sol\":13461:13472  NotSeller() */\n      mload(0x40)\n      0x5ec8235100000000000000000000000000000000000000000000000000000000\n      dup2\n      mstore\n      0x04\n      add\n      mload(0x40)\n      dup1\n      swap2\n      sub\n      swap1\n      revert\n        /* \"AuctionContract.sol\":13426:13472  if (msg.sender != A.seller) revert NotSeller() */\n    tag_246:\n        /* \"AuctionContract.sol\":13509:13510  A */\n      dup1\n        /* \"AuctionContract.sol\":13509:13525  A.settleDeadline */\n      0x04\n      add\n      0x00\n      swap1\n      sload\n      swap1\n      0x0100\n      exp\n      swap1\n      div\n      0xffffffffffffffff\n      and\n        /* \"AuctionContract.sol\":13491:13525  block.timestamp > A.settleDeadline */\n      0xffffffffffffffff\n      and\n        /* \"AuctionContract.sol\":13491:13506  block.timestamp */\n      timestamp\n        /* \"AuctionContract.sol\":13491:13525  block.timestamp > A.settleDeadline */\n      gt\n        /* \"AuctionContract.sol\":13483:13550  require(block.timestamp > A.settleDeadline, \"still payable window\") */\n      tag_247\n      jumpi\n      mload(0x40)\n      0x08c379a000000000000000000000000000000000000000000000000000000000\n      dup2\n      mstore\n      0x04\n      add\n      tag_248\n      swap1\n      tag_249\n      jump\t// in\n    tag_248:\n      mload(0x40)\n      dup1\n      swap2\n      sub\n      swap1\n      revert\n    tag_247:\n        /* \"AuctionContract.sol\":13606:13610  true */\n      0x01\n        /* \"AuctionContract.sol\":13594:13595  A */\n      dup2\n        /* \"AuctionContract.sol\":13594:13603  A.settled */\n      0x08\n      add\n      0x01\n        /* \"AuctionContract.sol\":13594:13610  A.settled = true */\n      0x0100\n      exp\n      dup2\n      sload\n      dup2\n      0xff\n      mul\n      not\n      and\n      swap1\n      dup4\n      iszero\n      iszero\n      mul\n      or\n      swap1\n      sstore\n      pop\n        /* \"AuctionContract.sol\":13621:13673  _safeTransferNFT(address(this), A.seller, A.tokenId) */\n      tag_250\n        /* \"AuctionContract.sol\":13646:13650  this */\n      address\n        /* \"AuctionContract.sol\":13653:13654  A */\n      dup3\n        /* \"AuctionContract.sol\":13653:13661  A.seller */\n      0x01\n      add\n      0x00\n      swap1\n      sload\n      swap1\n      0x0100\n      exp\n      swap1\n      div\n      0xffffffffffffffffffffffffffffffffffffffff\n      and\n        /* \"AuctionContract.sol\":13663:13664  A */\n      dup4\n        /* \"AuctionContract.sol\":13663:13672  A.tokenId */\n      0x00\n      add\n      sload\n        /* \"AuctionContract.sol\":13621:13637  _safeTransferNFT */\n      tag_129\n        /* \"AuctionContract.sol\":13621:13673  _safeTransferNFT(address(this), A.seller, A.tokenId) */\n      jump\t// in\n    tag_250:\n        /* \"AuctionContract.sol\":13726:13740  uint256 amount */\n      0x00\n        /* \"AuctionContract.sol\":13743:13744  A */\n      dup2\n        /* \"AuctionContract.sol\":13743:13758  A.depositAmount */\n      0x0b\n      add\n        /* \"AuctionContract.sol\":13743:13775  A.depositAmount[A.highestBidder] */\n      0x00\n        /* \"AuctionContract.sol\":13759:13760  A */\n      dup4\n        /* \"AuctionContract.sol\":13759:13774  A.highestBidder */\n      0x04\n      add\n      0x08\n      swap1\n      sload\n      swap1\n      0x0100\n      exp\n      swap1\n      div\n      0xffffffffffffffffffffffffffffffffffffffff\n      and\n        /* \"AuctionContract.sol\":13743:13775  A.depositAmount[A.highestBidder] */\n      0xffffffffffffffffffffffffffffffffffffffff\n      and\n      0xffffffffffffffffffffffffffffffffffffffff\n      and\n      dup2\n      mstore\n      0x20\n      add\n      swap1\n      dup2\n      mstore\n      0x20\n      add\n      0x00\n      keccak256\n      sload\n        /* \"AuctionContract.sol\":13726:13775  uint256 amount = A.depositAmount[A.highestBidder] */\n      swap1\n      pop\n        /* \"AuctionContract.sol\":13821:13822  0 */\n      0x00\n        /* \"AuctionContract.sol\":13786:13787  A */\n      dup3\n        /* \"AuctionContract.sol\":13786:13801  A.depositAmount */\n      0x0b\n      add\n        /* \"AuctionContract.sol\":13786:13818  A.depositAmount[A.highestBidder] */\n      0x00\n        /* \"AuctionContract.sol\":13802:13803  A */\n      dup5\n        /* \"AuctionContract.sol\":13802:13817  A.highestBidder */\n      0x04\n      add\n      0x08\n      swap1\n      sload\n      swap1\n      0x0100\n      exp\n      swap1\n      div\n      0xffffffffffffffffffffffffffffffffffffffff\n      and\n        /* \"AuctionContract.sol\":13786:13818  A.depositAmount[A.highestBidder] */\n      0xffffffffffffffffffffffffffffffffffffffff\n      and\n      0xffffffffffffffffffffffffffffffffffffffff\n      and\n      dup2\n      mstore\n      0x20\n      add\n      swap1\n      dup2\n      mstore\n      0x20\n      add\n      0x00\n      keccak256\n        /* \"AuctionContract.sol\":13786:13822  A.depositAmount[A.highestBidder] = 0 */\n      dup2\n      swap1\n      sstore\n      pop\n        /* \"AuctionContract.sol\":13834:13841  bool ok */\n      0x00\n        /* \"AuctionContract.sol\":13847:13857  msg.sender */\n      caller\n        /* \"AuctionContract.sol\":13847:13862  msg.sender.call */\n      0xffffffffffffffffffffffffffffffffffffffff\n      and\n        /* \"AuctionContract.sol\":13870:13876  amount */\n      dup3\n        /* \"AuctionContract.sol\":13847:13881  msg.sender.call{value: amount}(\"\") */\n      mload(0x40)\n      tag_251\n      swap1\n      tag_169\n      jump\t// in\n    tag_251:\n      0x00\n      mload(0x40)\n      dup1\n      dup4\n      sub\n      dup2\n      dup6\n      dup8\n      gas\n      call\n      swap3\n      pop\n      pop\n      pop\n      returndatasize\n      dup1\n      0x00\n      dup2\n      eq\n      tag_254\n      jumpi\n      mload(0x40)\n      swap2\n      pop\n      and(add(returndatasize, 0x3f), not(0x1f))\n      dup3\n      add\n      0x40\n      mstore\n      returndatasize\n      dup3\n      mstore\n      returndatasize\n      0x00\n      0x20\n      dup5\n      add\n      returndatacopy\n      jump(tag_253)\n    tag_254:\n      0x60\n      swap2\n      pop\n    tag_253:\n      pop\n        /* \"AuctionContract.sol\":13833:13881  (bool ok, ) = msg.sender.call{value: amount}(\"\") */\n      pop\n      swap1\n      pop\n        /* \"AuctionContract.sol\":13900:13902  ok */\n      dup1\n        /* \"AuctionContract.sol\":13892:13922  require(ok, \"withdraw failed\") */\n      tag_255\n      jumpi\n      mload(0x40)\n      0x08c379a000000000000000000000000000000000000000000000000000000000\n      dup2\n      mstore\n      0x04\n      add\n      tag_256\n      swap1\n      tag_257\n      jump\t// in\n    tag_256:\n      mload(0x40)\n      dup1\n      swap2\n      sub\n      swap1\n      revert\n    tag_255:\n        /* \"AuctionContract.sol\":13956:13965  auctionId */\n      sload(0x01)\n        /* \"AuctionContract.sol\":13940:13966  SellerReclaimed(auctionId) */\n      0x55c90d9726ff7562e2dda9743c070ab007dd986e4c0a42bcf578362c435a4d89\n      mload(0x40)\n      mload(0x40)\n      dup1\n      swap2\n      sub\n      swap1\n      log2\n        /* \"AuctionContract.sol\":13319:13974  {... */\n      pop\n      pop\n      pop\n        /* \"AuctionContract.sol\":13272:13974  function sellerReclaimNFT(uint256 id) external {... */\n      pop\n      jump\t// out\n        /* \"AuctionContract.sol\":16274:16450  function getCommitSeq(uint256 id, address bidder) external view returns (uint64) {... */\n    tag_104:\n        /* \"AuctionContract.sol\":16347:16353  uint64 */\n      0x00\n        /* \"AuctionContract.sol\":16366:16383  Auction storage A */\n      0x00\n        /* \"AuctionContract.sol\":16386:16405  _requireAuction(id) */\n      tag_259\n        /* \"AuctionContract.sol\":16402:16404  id */\n      dup5\n        /* \"AuctionContract.sol\":16386:16401  _requireAuction */\n      tag_158\n        /* \"AuctionContract.sol\":16386:16405  _requireAuction(id) */\n      jump\t// in\n    tag_259:\n        /* \"AuctionContract.sol\":16366:16405  Auction storage A = _requireAuction(id) */\n      swap1\n      pop\n        /* \"AuctionContract.sol\":16423:16424  A */\n      dup1\n        /* \"AuctionContract.sol\":16423:16434  A.commitSeq */\n      0x0a\n      add\n        /* \"AuctionContract.sol\":16423:16442  A.commitSeq[bidder] */\n      0x00\n        /* \"AuctionContract.sol\":16435:16441  bidder */\n      dup5\n        /* \"AuctionContract.sol\":16423:16442  A.commitSeq[bidder] */\n      0xffffffffffffffffffffffffffffffffffffffff\n      and\n      0xffffffffffffffffffffffffffffffffffffffff\n      and\n      dup2\n      mstore\n      0x20\n      add\n      swap1\n      dup2\n      mstore\n      0x20\n      add\n      0x00\n      keccak256\n      0x00\n      swap1\n      sload\n      swap1\n      0x0100\n      exp\n      swap1\n      div\n      0xffffffffffffffff\n      and\n        /* \"AuctionContract.sol\":16416:16442  return A.commitSeq[bidder] */\n      swap2\n      pop\n      pop\n        /* \"AuctionContract.sol\":16274:16450  function getCommitSeq(uint256 id, address bidder) external view returns (uint64) {... */\n      swap3\n      swap2\n      pop\n      pop\n      jump\t// out\n        /* \"AuctionContract.sol\":5347:5579  function getTimes(uint256 id) external view returns (uint64 commitEnd, uint64 revealEnd, uint64 settleDeadline) {... */\n    tag_110:\n        /* \"AuctionContract.sol\":5400:5416  uint64 commitEnd */\n      0x00\n        /* \"AuctionContract.sol\":5418:5434  uint64 revealEnd */\n      0x00\n        /* \"AuctionContract.sol\":5436:5457  uint64 settleDeadline */\n      0x00\n        /* \"AuctionContract.sol\":5470:5487  Auction storage A */\n      0x00\n        /* \"AuctionContract.sol\":5490:5509  _requireAuction(id) */\n      tag_261\n        /* \"AuctionContract.sol\":5506:5508  id */\n      dup6\n        /* \"AuctionContract.sol\":5490:5505  _requireAuction */\n      tag_158\n        /* \"AuctionContract.sol\":5490:5509  _requireAuction(id) */\n      jump\t// in\n    tag_261:\n        /* \"AuctionContract.sol\":5470:5509  Auction storage A = _requireAuction(id) */\n      swap1\n      pop\n        /* \"AuctionContract.sol\":5528:5529  A */\n      dup1\n        /* \"AuctionContract.sol\":5528:5539  A.commitEnd */\n      0x03\n      add\n      0x08\n      swap1\n      sload\n      swap1\n      0x0100\n      exp\n      swap1\n      div\n      0xffffffffffffffff\n      and\n        /* \"AuctionContract.sol\":5541:5542  A */\n      dup2\n        /* \"AuctionContract.sol\":5541:5552  A.revealEnd */\n      0x03\n      add\n      0x10\n      swap1\n      sload\n      swap1\n      0x0100\n      exp\n      swap1\n      div\n      0xffffffffffffffff\n      and\n        /* \"AuctionContract.sol\":5554:5555  A */\n      dup3\n        /* \"AuctionContract.sol\":5554:5570  A.settleDeadline */\n      0x04\n      add\n      0x00\n      swap1\n      sload\n      swap1\n      0x0100\n      exp\n      swap1\n      div\n      0xffffffffffffffff\n      and\n        /* \"AuctionContract.sol\":5520:5571  return (A.commitEnd, A.revealEnd, A.settleDeadline) */\n      swap4\n      pop\n      swap4\n      pop\n      swap4\n      pop\n      pop\n        /* \"AuctionContract.sol\":5347:5579  function getTimes(uint256 id) external view returns (uint64 commitEnd, uint64 revealEnd, uint64 settleDeadline) {... */\n      swap2\n      swap4\n      swap1\n      swap3\n      pop\n      jump\t// out\n        /* \"AuctionContract.sol\":16458:16643  function getDepositAmount(uint256 id, address bidder) external view returns (uint256) {... */\n    tag_116:\n        /* \"AuctionContract.sol\":16535:16542  uint256 */\n      0x00\n        /* \"AuctionContract.sol\":16555:16572  Auction storage A */\n      0x00\n        /* \"AuctionContract.sol\":16575:16594  _requireAuction(id) */\n      tag_263\n        /* \"AuctionContract.sol\":16591:16593  id */\n      dup5\n        /* \"AuctionContract.sol\":16575:16590  _requireAuction */\n      tag_158\n        /* \"AuctionContract.sol\":16575:16594  _requireAuction(id) */\n      jump\t// in\n    tag_263:\n        /* \"AuctionContract.sol\":16555:16594  Auction storage A = _requireAuction(id) */\n      swap1\n      pop\n        /* \"AuctionContract.sol\":16612:16613  A */\n      dup1\n        /* \"AuctionContract.sol\":16612:16627  A.depositAmount */\n      0x0b\n      add\n        /* \"AuctionContract.sol\":16612:16635  A.depositAmount[bidder] */\n      0x00\n        /* \"AuctionContract.sol\":16628:16634  bidder */\n      dup5\n        /* \"AuctionContract.sol\":16612:16635  A.depositAmount[bidder] */\n      0xffffffffffffffffffffffffffffffffffffffff\n      and\n      0xffffffffffffffffffffffffffffffffffffffff\n      and\n      dup2\n      mstore\n      0x20\n      add\n      swap1\n      dup2\n      mstore\n      0x20\n      add\n      0x00\n      keccak256\n      sload\n        /* \"AuctionContract.sol\":16605:16635  return A.depositAmount[bidder] */\n      swap2\n      pop\n      pop\n        /* \"AuctionContract.sol\":16458:16643  function getDepositAmount(uint256 id, address bidder) external view returns (uint256) {... */\n      swap3\n      swap2\n      pop\n      pop\n      jump\t// out\n        /* \"AuctionContract.sol\":12360:13165  function payAndClaim() external payable nonReentrant {... */\n    tag_119:\n        /* \"AuctionContract.sol\":1773:1774  2 */\n      0x02\n        /* \"AuctionContract.sol\":1869:1876  _status */\n      sload(0x00)\n        /* \"AuctionContract.sol\":1869:1888  _status != _ENTERED */\n      sub\n        /* \"AuctionContract.sol\":1861:1903  require(_status != _ENTERED, \"REENTRANCY\") */\n      tag_265\n      jumpi\n      mload(0x40)\n      0x08c379a000000000000000000000000000000000000000000000000000000000\n      dup2\n      mstore\n      0x04\n      add\n      tag_266\n      swap1\n      tag_162\n      jump\t// in\n    tag_266:\n      mload(0x40)\n      dup1\n      swap2\n      sub\n      swap1\n      revert\n    tag_265:\n        /* \"AuctionContract.sol\":1773:1774  2 */\n      0x02\n        /* \"AuctionContract.sol\":1914:1921  _status */\n      0x00\n        /* \"AuctionContract.sol\":1914:1932  _status = _ENTERED */\n      dup2\n      swap1\n      sstore\n      pop\n        /* \"AuctionContract.sol\":12424:12441  Auction storage A */\n      0x00\n        /* \"AuctionContract.sol\":12444:12467  _requireActiveAuction() */\n      tag_268\n        /* \"AuctionContract.sol\":12444:12465  _requireActiveAuction */\n      tag_122\n        /* \"AuctionContract.sol\":12444:12467  _requireActiveAuction() */\n      jump\t// in\n    tag_268:\n        /* \"AuctionContract.sol\":12424:12467  Auction storage A = _requireActiveAuction() */\n      swap1\n      pop\n        /* \"AuctionContract.sol\":12521:12522  A */\n      dup1\n        /* \"AuctionContract.sol\":12521:12532  A.finalized */\n      0x08\n      add\n      0x00\n      swap1\n      sload\n      swap1\n      0x0100\n      exp\n      swap1\n      div\n      0xff\n      and\n        /* \"AuctionContract.sol\":12516:12551  if (!A.finalized) revert NotEnded() */\n      tag_269\n      jumpi\n        /* \"AuctionContract.sol\":12541:12551  NotEnded() */\n      mload(0x40)\n      0xd3018d1800000000000000000000000000000000000000000000000000000000\n      dup2\n      mstore\n      0x04\n      add\n      mload(0x40)\n      dup1\n      swap2\n      sub\n      swap1\n      revert\n        /* \"AuctionContract.sol\":12516:12551  if (!A.finalized) revert NotEnded() */\n    tag_269:\n        /* \"AuctionContract.sol\":12585:12595  msg.sender */\n      caller\n        /* \"AuctionContract.sol\":12566:12595  A.highestBidder != msg.sender */\n      0xffffffffffffffffffffffffffffffffffffffff\n      and\n        /* \"AuctionContract.sol\":12566:12567  A */\n      dup2\n        /* \"AuctionContract.sol\":12566:12581  A.highestBidder */\n      0x04\n      add\n      0x08\n      swap1\n      sload\n      swap1\n      0x0100\n      exp\n      swap1\n      div\n      0xffffffffffffffffffffffffffffffffffffffff\n      and\n        /* \"AuctionContract.sol\":12566:12595  A.highestBidder != msg.sender */\n      0xffffffffffffffffffffffffffffffffffffffff\n      and\n      eq\n        /* \"AuctionContract.sol\":12562:12615  if (A.highestBidder != msg.sender) revert NotWinner() */\n      tag_270\n      jumpi\n        /* \"AuctionContract.sol\":12604:12615  NotWinner() */\n      mload(0x40)\n      0x618c724200000000000000000000000000000000000000000000000000000000\n      dup2\n      mstore\n      0x04\n      add\n      mload(0x40)\n      dup1\n      swap2\n      sub\n      swap1\n      revert\n        /* \"AuctionContract.sol\":12562:12615  if (A.highestBidder != msg.sender) revert NotWinner() */\n    tag_270:\n        /* \"AuctionContract.sol\":12648:12649  A */\n      dup1\n        /* \"AuctionContract.sol\":12648:12664  A.settleDeadline */\n      0x04\n      add\n      0x00\n      swap1\n      sload\n      swap1\n      0x0100\n      exp\n      swap1\n      div\n      0xffffffffffffffff\n      and\n        /* \"AuctionContract.sol\":12630:12664  block.timestamp > A.settleDeadline */\n      0xffffffffffffffff\n      and\n        /* \"AuctionContract.sol\":12630:12645  block.timestamp */\n      timestamp\n        /* \"AuctionContract.sol\":12630:12664  block.timestamp > A.settleDeadline */\n      gt\n        /* \"AuctionContract.sol\":12630:12685  block.timestamp > A.settleDeadline || A.settled == true */\n      dup1\n      tag_271\n      jumpi\n      pop\n        /* \"AuctionContract.sol\":12681:12685  true */\n      0x01\n        /* \"AuctionContract.sol\":12668:12685  A.settled == true */\n      iszero\n      iszero\n        /* \"AuctionContract.sol\":12668:12669  A */\n      dup2\n        /* \"AuctionContract.sol\":12668:12677  A.settled */\n      0x08\n      add\n      0x01\n      swap1\n      sload\n      swap1\n      0x0100\n      exp\n      swap1\n      div\n      0xff\n      and\n        /* \"AuctionContract.sol\":12668:12685  A.settled == true */\n      iszero\n      iszero\n      eq\n        /* \"AuctionContract.sol\":12630:12685  block.timestamp > A.settleDeadline || A.settled == true */\n    tag_271:\n        /* \"AuctionContract.sol\":12626:12709  if (block.timestamp > A.settleDeadline || A.settled == true) revert PaymentClosed() */\n      iszero\n      tag_272\n      jumpi\n        /* \"AuctionContract.sol\":12694:12709  PaymentClosed() */\n      mload(0x40)\n      0x58459e8800000000000000000000000000000000000000000000000000000000\n      dup2\n      mstore\n      0x04\n      add\n      mload(0x40)\n      dup1\n      swap2\n      sub\n      swap1\n      revert\n        /* \"AuctionContract.sol\":12626:12709  if (block.timestamp > A.settleDeadline || A.settled == true) revert PaymentClosed() */\n    tag_272:\n        /* \"AuctionContract.sol\":12737:12738  A */\n      dup1\n        /* \"AuctionContract.sol\":12737:12752  A.clearingPrice */\n      0x07\n      add\n      sload\n        /* \"AuctionContract.sol\":12724:12733  msg.value */\n      callvalue\n        /* \"AuctionContract.sol\":12724:12752  msg.value != A.clearingPrice */\n      eq\n        /* \"AuctionContract.sol\":12720:12775  if (msg.value != A.clearingPrice) revert WrongPayment() */\n      tag_273\n      jumpi\n        /* \"AuctionContract.sol\":12761:12775  WrongPayment() */\n      mload(0x40)\n      0x788a686f00000000000000000000000000000000000000000000000000000000\n      dup2\n      mstore\n      0x04\n      add\n      mload(0x40)\n      dup1\n      swap2\n      sub\n      swap1\n      revert\n        /* \"AuctionContract.sol\":12720:12775  if (msg.value != A.clearingPrice) revert WrongPayment() */\n    tag_273:\n        /* \"AuctionContract.sol\":12820:12824  true */\n      0x01\n        /* \"AuctionContract.sol\":12808:12809  A */\n      dup2\n        /* \"AuctionContract.sol\":12808:12817  A.settled */\n      0x08\n      add\n      0x01\n        /* \"AuctionContract.sol\":12808:12824  A.settled = true */\n      0x0100\n      exp\n      dup2\n      sload\n      dup2\n      0xff\n      mul\n      not\n      and\n      swap1\n      dup4\n      iszero\n      iszero\n      mul\n      or\n      swap1\n      sstore\n      pop\n        /* \"AuctionContract.sol\":12889:12896  bool ok */\n      0x00\n        /* \"AuctionContract.sol\":12902:12903  A */\n      dup2\n        /* \"AuctionContract.sol\":12902:12910  A.seller */\n      0x01\n      add\n      0x00\n      swap1\n      sload\n      swap1\n      0x0100\n      exp\n      swap1\n      div\n      0xffffffffffffffffffffffffffffffffffffffff\n      and\n        /* \"AuctionContract.sol\":12902:12915  A.seller.call */\n      0xffffffffffffffffffffffffffffffffffffffff\n      and\n        /* \"AuctionContract.sol\":12923:12932  msg.value */\n      callvalue\n        /* \"AuctionContract.sol\":12902:12937  A.seller.call{value: msg.value}(\"\") */\n      mload(0x40)\n      tag_274\n      swap1\n      tag_169\n      jump\t// in\n    tag_274:\n      0x00\n      mload(0x40)\n      dup1\n      dup4\n      sub\n      dup2\n      dup6\n      dup8\n      gas\n      call\n      swap3\n      pop\n      pop\n      pop\n      returndatasize\n      dup1\n      0x00\n      dup2\n      eq\n      tag_277\n      jumpi\n      mload(0x40)\n      swap2\n      pop\n      and(add(returndatasize, 0x3f), not(0x1f))\n      dup3\n      add\n      0x40\n      mstore\n      returndatasize\n      dup3\n      mstore\n      returndatasize\n      0x00\n      0x20\n      dup5\n      add\n      returndatacopy\n      jump(tag_276)\n    tag_277:\n      0x60\n      swap2\n      pop\n    tag_276:\n      pop\n        /* \"AuctionContract.sol\":12888:12937  (bool ok, ) = A.seller.call{value: msg.value}(\"\") */\n      pop\n      swap1\n      pop\n        /* \"AuctionContract.sol\":12956:12958  ok */\n      dup1\n        /* \"AuctionContract.sol\":12948:12980  require(ok, \"pay seller failed\") */\n      tag_278\n      jumpi\n      mload(0x40)\n      0x08c379a000000000000000000000000000000000000000000000000000000000\n      dup2\n      mstore\n      0x04\n      add\n      tag_279\n      swap1\n      tag_280\n      jump\t// in\n    tag_279:\n      mload(0x40)\n      dup1\n      swap2\n      sub\n      swap1\n      revert\n    tag_278:\n        /* \"AuctionContract.sol\":13031:13085  _safeTransferNFT(address(this), msg.sender, A.tokenId) */\n      tag_281\n        /* \"AuctionContract.sol\":13056:13060  this */\n      address\n        /* \"AuctionContract.sol\":13063:13073  msg.sender */\n      caller\n        /* \"AuctionContract.sol\":13075:13076  A */\n      dup5\n        /* \"AuctionContract.sol\":13075:13084  A.tokenId */\n      0x00\n      add\n      sload\n        /* \"AuctionContract.sol\":13031:13047  _safeTransferNFT */\n      tag_129\n        /* \"AuctionContract.sol\":13031:13085  _safeTransferNFT(address(this), msg.sender, A.tokenId) */\n      jump\t// in\n    tag_281:\n        /* \"AuctionContract.sol\":13135:13145  msg.sender */\n      caller\n        /* \"AuctionContract.sol\":13103:13157  WinnerPaidAndClaimed(auctionId, msg.sender, msg.value) */\n      0xffffffffffffffffffffffffffffffffffffffff\n      and\n        /* \"AuctionContract.sol\":13124:13133  auctionId */\n      sload(0x01)\n        /* \"AuctionContract.sol\":13103:13157  WinnerPaidAndClaimed(auctionId, msg.sender, msg.value) */\n      0xd33ef6ab06e6bf8672161aa6abe1ec1791c393d62213ebd89c67f611e538e575\n        /* \"AuctionContract.sol\":13147:13156  msg.value */\n      callvalue\n        /* \"AuctionContract.sol\":13103:13157  WinnerPaidAndClaimed(auctionId, msg.sender, msg.value) */\n      mload(0x40)\n      tag_282\n      swap2\n      swap1\n      tag_29\n      jump\t// in\n    tag_282:\n      mload(0x40)\n      dup1\n      swap2\n      sub\n      swap1\n      log3\n        /* \"AuctionContract.sol\":12413:13165  {... */\n      pop\n      pop\n        /* \"AuctionContract.sol\":1729:1730  1 */\n      0x01\n        /* \"AuctionContract.sol\":1955:1962  _status */\n      0x00\n        /* \"AuctionContract.sol\":1955:1977  _status = _NOT_ENTERED */\n      dup2\n      swap1\n      sstore\n      pop\n        /* \"AuctionContract.sol\":12360:13165  function payAndClaim() external payable nonReentrant {... */\n      jump\t// out\n        /* \"AuctionContract.sol\":15273:15454  function _requireActiveAuction() internal view returns (Auction storage A) {... */\n    tag_122:\n        /* \"AuctionContract.sol\":15329:15346  Auction storage A */\n      0x00\n        /* \"AuctionContract.sol\":15363:15372  _auctions */\n      0x02\n        /* \"AuctionContract.sol\":15363:15383  _auctions[auctionId] */\n      0x00\n        /* \"AuctionContract.sol\":15373:15382  auctionId */\n      sload(0x01)\n        /* \"AuctionContract.sol\":15363:15383  _auctions[auctionId] */\n      dup2\n      mstore\n      0x20\n      add\n      swap1\n      dup2\n      mstore\n      0x20\n      add\n      0x00\n      keccak256\n        /* \"AuctionContract.sol\":15359:15383  A = _auctions[auctionId] */\n      swap1\n      pop\n        /* \"AuctionContract.sol\":15418:15419  0 */\n      0x00\n        /* \"AuctionContract.sol\":15398:15420  A.seller == address(0) */\n      0xffffffffffffffffffffffffffffffffffffffff\n      and\n        /* \"AuctionContract.sol\":15398:15399  A */\n      dup2\n        /* \"AuctionContract.sol\":15398:15406  A.seller */\n      0x01\n      add\n      0x00\n      swap1\n      sload\n      swap1\n      0x0100\n      exp\n      swap1\n      div\n      0xffffffffffffffffffffffffffffffffffffffff\n      and\n        /* \"AuctionContract.sol\":15398:15420  A.seller == address(0) */\n      0xffffffffffffffffffffffffffffffffffffffff\n      and\n      sub\n        /* \"AuctionContract.sol\":15394:15446  if (A.seller == address(0)) revert NoActiveAuction() */\n      tag_284\n      jumpi\n        /* \"AuctionContract.sol\":15429:15446  NoActiveAuction() */\n      mload(0x40)\n      0x568ca25700000000000000000000000000000000000000000000000000000000\n      dup2\n      mstore\n      0x04\n      add\n      mload(0x40)\n      dup1\n      swap2\n      sub\n      swap1\n      revert\n        /* \"AuctionContract.sol\":15394:15446  if (A.seller == address(0)) revert NoActiveAuction() */\n    tag_284:\n        /* \"AuctionContract.sol\":15273:15454  function _requireActiveAuction() internal view returns (Auction storage A) {... */\n      swap1\n      jump\t// out\n        /* \"AuctionContract.sol\":15563:16021  function _safeTransferNFT(address from, address to, uint256 tokenId) internal {... */\n    tag_129:\n        /* \"AuctionContract.sol\":15689:15693  from */\n      dup3\n        /* \"AuctionContract.sol\":15660:15693  classNFT.ownerOf(tokenId) == from */\n      0xffffffffffffffffffffffffffffffffffffffff\n      and\n        /* \"AuctionContract.sol\":15660:15668  classNFT */\n      immutable(\"0xbf08d8a2d7c7780024ba6e6dbe12d3d5a5a747ea3071fca63d8a2ede50d3472a\")\n        /* \"AuctionContract.sol\":15660:15676  classNFT.ownerOf */\n      0xffffffffffffffffffffffffffffffffffffffff\n      and\n      0x6352211e\n        /* \"AuctionContract.sol\":15677:15684  tokenId */\n      dup4\n        /* \"AuctionContract.sol\":15660:15685  classNFT.ownerOf(tokenId) */\n      mload(0x40)\n      dup3\n      0xffffffff\n      and\n      0xe0\n      shl\n      dup2\n      mstore\n      0x04\n      add\n      tag_286\n      swap2\n      swap1\n      tag_29\n      jump\t// in\n    tag_286:\n      0x20\n      mload(0x40)\n      dup1\n      dup4\n      sub\n      dup2\n      dup7\n      gas\n      staticcall\n      iszero\n      dup1\n      iszero\n      tag_288\n      jumpi\n      returndatacopy(0x00, 0x00, returndatasize)\n      revert(0x00, returndatasize)\n    tag_288:\n      pop\n      pop\n      pop\n      pop\n      mload(0x40)\n      returndatasize\n      not(0x1f)\n      0x1f\n      dup3\n      add\n      and\n      dup3\n      add\n      dup1\n      0x40\n      mstore\n      pop\n      dup2\n      add\n      swap1\n      tag_289\n      swap2\n      swap1\n      tag_220\n      jump\t// in\n    tag_289:\n        /* \"AuctionContract.sol\":15660:15693  classNFT.ownerOf(tokenId) == from */\n      0xffffffffffffffffffffffffffffffffffffffff\n      and\n      eq\n        /* \"AuctionContract.sol\":15652:15712  require(classNFT.ownerOf(tokenId) == from, \"NFT: not owner\") */\n      tag_290\n      jumpi\n      mload(0x40)\n      0x08c379a000000000000000000000000000000000000000000000000000000000\n      dup2\n      mstore\n      0x04\n      add\n      tag_291\n      swap1\n      tag_292\n      jump\t// in\n    tag_291:\n      mload(0x40)\n      dup1\n      swap2\n      sub\n      swap1\n      revert\n    tag_290:\n        /* \"AuctionContract.sol\":15845:15849  this */\n      address\n        /* \"AuctionContract.sol\":15804:15850  classNFT.getApproved(tokenId) == address(this) */\n      0xffffffffffffffffffffffffffffffffffffffff\n      and\n        /* \"AuctionContract.sol\":15804:15812  classNFT */\n      immutable(\"0xbf08d8a2d7c7780024ba6e6dbe12d3d5a5a747ea3071fca63d8a2ede50d3472a\")\n        /* \"AuctionContract.sol\":15804:15824  classNFT.getApproved */\n      0xffffffffffffffffffffffffffffffffffffffff\n      and\n      0x081812fc\n        /* \"AuctionContract.sol\":15825:15832  tokenId */\n      dup4\n        /* \"AuctionContract.sol\":15804:15833  classNFT.getApproved(tokenId) */\n      mload(0x40)\n      dup3\n      0xffffffff\n      and\n      0xe0\n      shl\n      dup2\n      mstore\n      0x04\n      add\n      tag_293\n      swap2\n      swap1\n      tag_29\n      jump\t// in\n    tag_293:\n      0x20\n      mload(0x40)\n      dup1\n      dup4\n      sub\n      dup2\n      dup7\n      gas\n      staticcall\n      iszero\n      dup1\n      iszero\n      tag_295\n      jumpi\n      returndatacopy(0x00, 0x00, returndatasize)\n      revert(0x00, returndatasize)\n    tag_295:\n      pop\n      pop\n      pop\n      pop\n      mload(0x40)\n      returndatasize\n      not(0x1f)\n      0x1f\n      dup3\n      add\n      and\n      dup3\n      add\n      dup1\n      0x40\n      mstore\n      pop\n      dup2\n      add\n      swap1\n      tag_296\n      swap2\n      swap1\n      tag_220\n      jump\t// in\n    tag_296:\n        /* \"AuctionContract.sol\":15804:15850  classNFT.getApproved(tokenId) == address(this) */\n      0xffffffffffffffffffffffffffffffffffffffff\n      and\n      eq\n        /* \"AuctionContract.sol\":15804:15913  classNFT.getApproved(tokenId) == address(this) ||... */\n      dup1\n      tag_297\n      jumpi\n      pop\n        /* \"AuctionContract.sol\":15867:15875  classNFT */\n      immutable(\"0xbf08d8a2d7c7780024ba6e6dbe12d3d5a5a747ea3071fca63d8a2ede50d3472a\")\n        /* \"AuctionContract.sol\":15867:15892  classNFT.isApprovedForAll */\n      0xffffffffffffffffffffffffffffffffffffffff\n      and\n      0xe985e9c5\n        /* \"AuctionContract.sol\":15893:15897  from */\n      dup5\n        /* \"AuctionContract.sol\":15907:15911  this */\n      address\n        /* \"AuctionContract.sol\":15867:15913  classNFT.isApprovedForAll(from, address(this)) */\n      mload(0x40)\n      dup4\n      0xffffffff\n      and\n      0xe0\n      shl\n      dup2\n      mstore\n      0x04\n      add\n      tag_298\n      swap3\n      swap2\n      swap1\n      tag_299\n      jump\t// in\n    tag_298:\n      0x20\n      mload(0x40)\n      dup1\n      dup4\n      sub\n      dup2\n      dup7\n      gas\n      staticcall\n      iszero\n      dup1\n      iszero\n      tag_301\n      jumpi\n      returndatacopy(0x00, 0x00, returndatasize)\n      revert(0x00, returndatasize)\n    tag_301:\n      pop\n      pop\n      pop\n      pop\n      mload(0x40)\n      returndatasize\n      not(0x1f)\n      0x1f\n      dup3\n      add\n      and\n      dup3\n      add\n      dup1\n      0x40\n      mstore\n      pop\n      dup2\n      add\n      swap1\n      tag_302\n      swap2\n      swap1\n      tag_303\n      jump\t// in\n    tag_302:\n        /* \"AuctionContract.sol\":15804:15913  classNFT.getApproved(tokenId) == address(this) ||... */\n    tag_297:\n        /* \"AuctionContract.sol\":15782:15958  require(... */\n      tag_304\n      jumpi\n      mload(0x40)\n      0x08c379a000000000000000000000000000000000000000000000000000000000\n      dup2\n      mstore\n      0x04\n      add\n      tag_305\n      swap1\n      tag_306\n      jump\t// in\n    tag_305:\n      mload(0x40)\n      dup1\n      swap2\n      sub\n      swap1\n      revert\n    tag_304:\n        /* \"AuctionContract.sol\":15969:15977  classNFT */\n      immutable(\"0xbf08d8a2d7c7780024ba6e6dbe12d3d5a5a747ea3071fca63d8a2ede50d3472a\")\n        /* \"AuctionContract.sol\":15969:15994  classNFT.safeTransferFrom */\n      0xffffffffffffffffffffffffffffffffffffffff\n      and\n      0x42842e0e\n        /* \"AuctionContract.sol\":15995:15999  from */\n      dup5\n        /* \"AuctionContract.sol\":16001:16003  to */\n      dup5\n        /* \"AuctionContract.sol\":16005:16012  tokenId */\n      dup5\n        /* \"AuctionContract.sol\":15969:16013  classNFT.safeTransferFrom(from, to, tokenId) */\n      mload(0x40)\n      dup5\n      0xffffffff\n      and\n      0xe0\n      shl\n      dup2\n      mstore\n      0x04\n      add\n      tag_307\n      swap4\n      swap3\n      swap2\n      swap1\n      tag_308\n      jump\t// in\n    tag_307:\n      0x00\n      mload(0x40)\n      dup1\n      dup4\n      sub\n      dup2\n      0x00\n      dup8\n      dup1\n      extcodesize\n      iszero\n      dup1\n      iszero\n      tag_309\n      jumpi\n      revert(0x00, 0x00)\n    tag_309:\n      pop\n      gas\n      call\n      iszero\n      dup1\n      iszero\n      tag_311\n      jumpi\n      returndatacopy(0x00, 0x00, returndatasize)\n      revert(0x00, returndatasize)\n    tag_311:\n      pop\n      pop\n      pop\n      pop\n        /* \"AuctionContract.sol\":15563:16021  function _safeTransferNFT(address from, address to, uint256 tokenId) internal {... */\n      pop\n      pop\n      pop\n      jump\t// out\n        /* \"AuctionContract.sol\":15087:15265  function _requireAuction(uint256 id) internal view returns (Auction storage A) {... */\n    tag_158:\n        /* \"AuctionContract.sol\":15147:15164  Auction storage A */\n      0x00\n        /* \"AuctionContract.sol\":15181:15190  _auctions */\n      0x02\n        /* \"AuctionContract.sol\":15181:15194  _auctions[id] */\n      0x00\n        /* \"AuctionContract.sol\":15191:15193  id */\n      dup4\n        /* \"AuctionContract.sol\":15181:15194  _auctions[id] */\n      dup2\n      mstore\n      0x20\n      add\n      swap1\n      dup2\n      mstore\n      0x20\n      add\n      0x00\n      keccak256\n        /* \"AuctionContract.sol\":15177:15194  A = _auctions[id] */\n      swap1\n      pop\n        /* \"AuctionContract.sol\":15229:15230  0 */\n      0x00\n        /* \"AuctionContract.sol\":15209:15231  A.seller == address(0) */\n      0xffffffffffffffffffffffffffffffffffffffff\n      and\n        /* \"AuctionContract.sol\":15209:15210  A */\n      dup2\n        /* \"AuctionContract.sol\":15209:15217  A.seller */\n      0x01\n      add\n      0x00\n      swap1\n      sload\n      swap1\n      0x0100\n      exp\n      swap1\n      div\n      0xffffffffffffffffffffffffffffffffffffffff\n      and\n        /* \"AuctionContract.sol\":15209:15231  A.seller == address(0) */\n      0xffffffffffffffffffffffffffffffffffffffff\n      and\n      sub\n        /* \"AuctionContract.sol\":15205:15257  if (A.seller == address(0)) revert NoActiveAuction() */\n      tag_313\n      jumpi\n        /* \"AuctionContract.sol\":15240:15257  NoActiveAuction() */\n      mload(0x40)\n      0x568ca25700000000000000000000000000000000000000000000000000000000\n      dup2\n      mstore\n      0x04\n      add\n      mload(0x40)\n      dup1\n      swap2\n      sub\n      swap1\n      revert\n        /* \"AuctionContract.sol\":15205:15257  if (A.seller == address(0)) revert NoActiveAuction() */\n    tag_313:\n        /* \"AuctionContract.sol\":15087:15265  function _requireAuction(uint256 id) internal view returns (Auction storage A) {... */\n      swap2\n      swap1\n      pop\n      jump\t// out\n        /* \"#utility.yul\":7:84   */\n    tag_314:\n        /* \"#utility.yul\":44:51   */\n      0x00\n        /* \"#utility.yul\":73:78   */\n      dup2\n        /* \"#utility.yul\":62:78   */\n      swap1\n      pop\n        /* \"#utility.yul\":7:84   */\n      swap2\n      swap1\n      pop\n      jump\t// out\n        /* \"#utility.yul\":90:208   */\n    tag_315:\n        /* \"#utility.yul\":177:201   */\n      tag_385\n        /* \"#utility.yul\":195:200   */\n      dup2\n        /* \"#utility.yul\":177:201   */\n      tag_314\n      jump\t// in\n    tag_385:\n        /* \"#utility.yul\":172:175   */\n      dup3\n        /* \"#utility.yul\":165:202   */\n      mstore\n        /* \"#utility.yul\":90:208   */\n      pop\n      pop\n      jump\t// out\n        /* \"#utility.yul\":214:436   */\n    tag_29:\n        /* \"#utility.yul\":307:311   */\n      0x00\n        /* \"#utility.yul\":345:347   */\n      0x20\n        /* \"#utility.yul\":334:343   */\n      dup3\n        /* \"#utility.yul\":330:348   */\n      add\n        /* \"#utility.yul\":322:348   */\n      swap1\n      pop\n        /* \"#utility.yul\":358:429   */\n      tag_387\n        /* \"#utility.yul\":426:427   */\n      0x00\n        /* \"#utility.yul\":415:424   */\n      dup4\n        /* \"#utility.yul\":411:428   */\n      add\n        /* \"#utility.yul\":402:408   */\n      dup5\n        /* \"#utility.yul\":358:429   */\n      tag_315\n      jump\t// in\n    tag_387:\n        /* \"#utility.yul\":214:436   */\n      swap3\n      swap2\n      pop\n      pop\n      jump\t// out\n        /* \"#utility.yul\":442:568   */\n    tag_316:\n        /* \"#utility.yul\":479:486   */\n      0x00\n        /* \"#utility.yul\":519:561   */\n      0xffffffffffffffffffffffffffffffffffffffff\n        /* \"#utility.yul\":512:517   */\n      dup3\n        /* \"#utility.yul\":508:562   */\n      and\n        /* \"#utility.yul\":497:562   */\n      swap1\n      pop\n        /* \"#utility.yul\":442:568   */\n      swap2\n      swap1\n      pop\n      jump\t// out\n        /* \"#utility.yul\":574:670   */\n    tag_317:\n        /* \"#utility.yul\":611:618   */\n      0x00\n        /* \"#utility.yul\":640:664   */\n      tag_390\n        /* \"#utility.yul\":658:663   */\n      dup3\n        /* \"#utility.yul\":640:664   */\n      tag_316\n      jump\t// in\n    tag_390:\n        /* \"#utility.yul\":629:664   */\n      swap1\n      pop\n        /* \"#utility.yul\":574:670   */\n      swap2\n      swap1\n      pop\n      jump\t// out\n        /* \"#utility.yul\":676:794   */\n    tag_318:\n        /* \"#utility.yul\":763:787   */\n      tag_392\n        /* \"#utility.yul\":781:786   */\n      dup2\n        /* \"#utility.yul\":763:787   */\n      tag_317\n      jump\t// in\n    tag_392:\n        /* \"#utility.yul\":758:761   */\n      dup3\n        /* \"#utility.yul\":751:788   */\n      mstore\n        /* \"#utility.yul\":676:794   */\n      pop\n      pop\n      jump\t// out\n        /* \"#utility.yul\":800:1022   */\n    tag_38:\n        /* \"#utility.yul\":893:897   */\n      0x00\n        /* \"#utility.yul\":931:933   */\n      0x20\n        /* \"#utility.yul\":920:929   */\n      dup3\n        /* \"#utility.yul\":916:934   */\n      add\n        /* \"#utility.yul\":908:934   */\n      swap1\n      pop\n        /* \"#utility.yul\":944:1015   */\n      tag_394\n        /* \"#utility.yul\":1012:1013   */\n      0x00\n        /* \"#utility.yul\":1001:1010   */\n      dup4\n        /* \"#utility.yul\":997:1014   */\n      add\n        /* \"#utility.yul\":988:994   */\n      dup5\n        /* \"#utility.yul\":944:1015   */\n      tag_318\n      jump\t// in\n    tag_394:\n        /* \"#utility.yul\":800:1022   */\n      swap3\n      swap2\n      pop\n      pop\n      jump\t// out\n        /* \"#utility.yul\":1028:1088   */\n    tag_319:\n        /* \"#utility.yul\":1056:1059   */\n      0x00\n        /* \"#utility.yul\":1077:1082   */\n      dup2\n        /* \"#utility.yul\":1070:1082   */\n      swap1\n      pop\n        /* \"#utility.yul\":1028:1088   */\n      swap2\n      swap1\n      pop\n      jump\t// out\n        /* \"#utility.yul\":1094:1236   */\n    tag_320:\n        /* \"#utility.yul\":1144:1153   */\n      0x00\n        /* \"#utility.yul\":1177:1230   */\n      tag_397\n        /* \"#utility.yul\":1195:1229   */\n      tag_398\n        /* \"#utility.yul\":1204:1228   */\n      tag_399\n        /* \"#utility.yul\":1222:1227   */\n      dup5\n        /* \"#utility.yul\":1204:1228   */\n      tag_316\n      jump\t// in\n    tag_399:\n        /* \"#utility.yul\":1195:1229   */\n      tag_319\n      jump\t// in\n    tag_398:\n        /* \"#utility.yul\":1177:1230   */\n      tag_316\n      jump\t// in\n    tag_397:\n        /* \"#utility.yul\":1164:1230   */\n      swap1\n      pop\n        /* \"#utility.yul\":1094:1236   */\n      swap2\n      swap1\n      pop\n      jump\t// out\n        /* \"#utility.yul\":1242:1368   */\n    tag_321:\n        /* \"#utility.yul\":1292:1301   */\n      0x00\n        /* \"#utility.yul\":1325:1362   */\n      tag_401\n        /* \"#utility.yul\":1356:1361   */\n      dup3\n        /* \"#utility.yul\":1325:1362   */\n      tag_320\n      jump\t// in\n    tag_401:\n        /* \"#utility.yul\":1312:1362   */\n      swap1\n      pop\n        /* \"#utility.yul\":1242:1368   */\n      swap2\n      swap1\n      pop\n      jump\t// out\n        /* \"#utility.yul\":1374:1514   */\n    tag_322:\n        /* \"#utility.yul\":1438:1447   */\n      0x00\n        /* \"#utility.yul\":1471:1508   */\n      tag_403\n        /* \"#utility.yul\":1502:1507   */\n      dup3\n        /* \"#utility.yul\":1471:1508   */\n      tag_321\n      jump\t// in\n    tag_403:\n        /* \"#utility.yul\":1458:1508   */\n      swap1\n      pop\n        /* \"#utility.yul\":1374:1514   */\n      swap2\n      swap1\n      pop\n      jump\t// out\n        /* \"#utility.yul\":1520:1679   */\n    tag_323:\n        /* \"#utility.yul\":1621:1672   */\n      tag_405\n        /* \"#utility.yul\":1666:1671   */\n      dup2\n        /* \"#utility.yul\":1621:1672   */\n      tag_322\n      jump\t// in\n    tag_405:\n        /* \"#utility.yul\":1616:1619   */\n      dup3\n        /* \"#utility.yul\":1609:1673   */\n      mstore\n        /* \"#utility.yul\":1520:1679   */\n      pop\n      pop\n      jump\t// out\n        /* \"#utility.yul\":1685:1935   */\n    tag_46:\n        /* \"#utility.yul\":1792:1796   */\n      0x00\n        /* \"#utility.yul\":1830:1832   */\n      0x20\n        /* \"#utility.yul\":1819:1828   */\n      dup3\n        /* \"#utility.yul\":1815:1833   */\n      add\n        /* \"#utility.yul\":1807:1833   */\n      swap1\n      pop\n        /* \"#utility.yul\":1843:1928   */\n      tag_407\n        /* \"#utility.yul\":1925:1926   */\n      0x00\n        /* \"#utility.yul\":1914:1923   */\n      dup4\n        /* \"#utility.yul\":1910:1927   */\n      add\n        /* \"#utility.yul\":1901:1907   */\n      dup5\n        /* \"#utility.yul\":1843:1928   */\n      tag_323\n      jump\t// in\n    tag_407:\n        /* \"#utility.yul\":1685:1935   */\n      swap3\n      swap2\n      pop\n      pop\n      jump\t// out\n        /* \"#utility.yul\":2022:2139   */\n    tag_325:\n        /* \"#utility.yul\":2131:2132   */\n      0x00\n        /* \"#utility.yul\":2128:2129   */\n      0x00\n        /* \"#utility.yul\":2121:2133   */\n      revert\n        /* \"#utility.yul\":2268:2390   */\n    tag_327:\n        /* \"#utility.yul\":2341:2365   */\n      tag_412\n        /* \"#utility.yul\":2359:2364   */\n      dup2\n        /* \"#utility.yul\":2341:2365   */\n      tag_314\n      jump\t// in\n    tag_412:\n        /* \"#utility.yul\":2334:2339   */\n      dup2\n        /* \"#utility.yul\":2331:2366   */\n      eq\n        /* \"#utility.yul\":2321:2384   */\n      tag_413\n      jumpi\n        /* \"#utility.yul\":2380:2381   */\n      0x00\n        /* \"#utility.yul\":2377:2378   */\n      0x00\n        /* \"#utility.yul\":2370:2382   */\n      revert\n        /* \"#utility.yul\":2321:2384   */\n    tag_413:\n        /* \"#utility.yul\":2268:2390   */\n      pop\n      jump\t// out\n        /* \"#utility.yul\":2396:2535   */\n    tag_328:\n        /* \"#utility.yul\":2442:2447   */\n      0x00\n        /* \"#utility.yul\":2480:2486   */\n      dup2\n        /* \"#utility.yul\":2467:2487   */\n      calldataload\n        /* \"#utility.yul\":2458:2487   */\n      swap1\n      pop\n        /* \"#utility.yul\":2496:2529   */\n      tag_415\n        /* \"#utility.yul\":2523:2528   */\n      dup2\n        /* \"#utility.yul\":2496:2529   */\n      tag_327\n      jump\t// in\n    tag_415:\n        /* \"#utility.yul\":2396:2535   */\n      swap3\n      swap2\n      pop\n      pop\n      jump\t// out\n        /* \"#utility.yul\":2541:2618   */\n    tag_329:\n        /* \"#utility.yul\":2578:2585   */\n      0x00\n        /* \"#utility.yul\":2607:2612   */\n      dup2\n        /* \"#utility.yul\":2596:2612   */\n      swap1\n      pop\n        /* \"#utility.yul\":2541:2618   */\n      swap2\n      swap1\n      pop\n      jump\t// out\n        /* \"#utility.yul\":2624:2746   */\n    tag_330:\n        /* \"#utility.yul\":2697:2721   */\n      tag_418\n        /* \"#utility.yul\":2715:2720   */\n      dup2\n        /* \"#utility.yul\":2697:2721   */\n      tag_329\n      jump\t// in\n    tag_418:\n        /* \"#utility.yul\":2690:2695   */\n      dup2\n        /* \"#utility.yul\":2687:2722   */\n      eq\n        /* \"#utility.yul\":2677:2740   */\n      tag_419\n      jumpi\n        /* \"#utility.yul\":2736:2737   */\n      0x00\n        /* \"#utility.yul\":2733:2734   */\n      0x00\n        /* \"#utility.yul\":2726:2738   */\n      revert\n        /* \"#utility.yul\":2677:2740   */\n    tag_419:\n        /* \"#utility.yul\":2624:2746   */\n      pop\n      jump\t// out\n        /* \"#utility.yul\":2752:2891   */\n    tag_331:\n        /* \"#utility.yul\":2798:2803   */\n      0x00\n        /* \"#utility.yul\":2836:2842   */\n      dup2\n        /* \"#utility.yul\":2823:2843   */\n      calldataload\n        /* \"#utility.yul\":2814:2843   */\n      swap1\n      pop\n        /* \"#utility.yul\":2852:2885   */\n      tag_421\n        /* \"#utility.yul\":2879:2884   */\n      dup2\n        /* \"#utility.yul\":2852:2885   */\n      tag_330\n      jump\t// in\n    tag_421:\n        /* \"#utility.yul\":2752:2891   */\n      swap3\n      swap2\n      pop\n      pop\n      jump\t// out\n        /* \"#utility.yul\":2897:3371   */\n    tag_50:\n        /* \"#utility.yul\":2965:2971   */\n      0x00\n        /* \"#utility.yul\":2973:2979   */\n      0x00\n        /* \"#utility.yul\":3022:3024   */\n      0x40\n        /* \"#utility.yul\":3010:3019   */\n      dup4\n        /* \"#utility.yul\":3001:3008   */\n      dup6\n        /* \"#utility.yul\":2997:3020   */\n      sub\n        /* \"#utility.yul\":2993:3025   */\n      slt\n        /* \"#utility.yul\":2990:3109   */\n      iszero\n      tag_423\n      jumpi\n        /* \"#utility.yul\":3028:3107   */\n      tag_424\n      tag_325\n      jump\t// in\n    tag_424:\n        /* \"#utility.yul\":2990:3109   */\n    tag_423:\n        /* \"#utility.yul\":3148:3149   */\n      0x00\n        /* \"#utility.yul\":3173:3226   */\n      tag_425\n        /* \"#utility.yul\":3218:3225   */\n      dup6\n        /* \"#utility.yul\":3209:3215   */\n      dup3\n        /* \"#utility.yul\":3198:3207   */\n      dup7\n        /* \"#utility.yul\":3194:3216   */\n      add\n        /* \"#utility.yul\":3173:3226   */\n      tag_328\n      jump\t// in\n    tag_425:\n        /* \"#utility.yul\":3163:3226   */\n      swap3\n      pop\n        /* \"#utility.yul\":3119:3236   */\n      pop\n        /* \"#utility.yul\":3275:3277   */\n      0x20\n        /* \"#utility.yul\":3301:3354   */\n      tag_426\n        /* \"#utility.yul\":3346:3353   */\n      dup6\n        /* \"#utility.yul\":3337:3343   */\n      dup3\n        /* \"#utility.yul\":3326:3335   */\n      dup7\n        /* \"#utility.yul\":3322:3344   */\n      add\n        /* \"#utility.yul\":3301:3354   */\n      tag_331\n      jump\t// in\n    tag_426:\n        /* \"#utility.yul\":3291:3354   */\n      swap2\n      pop\n        /* \"#utility.yul\":3246:3364   */\n      pop\n        /* \"#utility.yul\":2897:3371   */\n      swap3\n      pop\n      swap3\n      swap1\n      pop\n      jump\t// out\n        /* \"#utility.yul\":3377:3706   */\n    tag_55:\n        /* \"#utility.yul\":3436:3442   */\n      0x00\n        /* \"#utility.yul\":3485:3487   */\n      0x20\n        /* \"#utility.yul\":3473:3482   */\n      dup3\n        /* \"#utility.yul\":3464:3471   */\n      dup5\n        /* \"#utility.yul\":3460:3483   */\n      sub\n        /* \"#utility.yul\":3456:3488   */\n      slt\n        /* \"#utility.yul\":3453:3572   */\n      iszero\n      tag_428\n      jumpi\n        /* \"#utility.yul\":3491:3570   */\n      tag_429\n      tag_325\n      jump\t// in\n    tag_429:\n        /* \"#utility.yul\":3453:3572   */\n    tag_428:\n        /* \"#utility.yul\":3611:3612   */\n      0x00\n        /* \"#utility.yul\":3636:3689   */\n      tag_430\n        /* \"#utility.yul\":3681:3688   */\n      dup5\n        /* \"#utility.yul\":3672:3678   */\n      dup3\n        /* \"#utility.yul\":3661:3670   */\n      dup6\n        /* \"#utility.yul\":3657:3679   */\n      add\n        /* \"#utility.yul\":3636:3689   */\n      tag_328\n      jump\t// in\n    tag_430:\n        /* \"#utility.yul\":3626:3689   */\n      swap2\n      pop\n        /* \"#utility.yul\":3582:3699   */\n      pop\n        /* \"#utility.yul\":3377:3706   */\n      swap3\n      swap2\n      pop\n      pop\n      jump\t// out\n        /* \"#utility.yul\":3712:3813   */\n    tag_332:\n        /* \"#utility.yul\":3748:3755   */\n      0x00\n        /* \"#utility.yul\":3788:3806   */\n      0xffffffffffffffff\n        /* \"#utility.yul\":3781:3786   */\n      dup3\n        /* \"#utility.yul\":3777:3807   */\n      and\n        /* \"#utility.yul\":3766:3807   */\n      swap1\n      pop\n        /* \"#utility.yul\":3712:3813   */\n      swap2\n      swap1\n      pop\n      jump\t// out\n        /* \"#utility.yul\":3819:3934   */\n    tag_333:\n        /* \"#utility.yul\":3904:3927   */\n      tag_433\n        /* \"#utility.yul\":3921:3926   */\n      dup2\n        /* \"#utility.yul\":3904:3927   */\n      tag_332\n      jump\t// in\n    tag_433:\n        /* \"#utility.yul\":3899:3902   */\n      dup3\n        /* \"#utility.yul\":3892:3928   */\n      mstore\n        /* \"#utility.yul\":3819:3934   */\n      pop\n      pop\n      jump\t// out\n        /* \"#utility.yul\":3940:4378   */\n    tag_58:\n        /* \"#utility.yul\":4087:4091   */\n      0x00\n        /* \"#utility.yul\":4125:4127   */\n      0x60\n        /* \"#utility.yul\":4114:4123   */\n      dup3\n        /* \"#utility.yul\":4110:4128   */\n      add\n        /* \"#utility.yul\":4102:4128   */\n      swap1\n      pop\n        /* \"#utility.yul\":4138:4209   */\n      tag_435\n        /* \"#utility.yul\":4206:4207   */\n      0x00\n        /* \"#utility.yul\":4195:4204   */\n      dup4\n        /* \"#utility.yul\":4191:4208   */\n      add\n        /* \"#utility.yul\":4182:4188   */\n      dup7\n        /* \"#utility.yul\":4138:4209   */\n      tag_318\n      jump\t// in\n    tag_435:\n        /* \"#utility.yul\":4219:4291   */\n      tag_436\n        /* \"#utility.yul\":4287:4289   */\n      0x20\n        /* \"#utility.yul\":4276:4285   */\n      dup4\n        /* \"#utility.yul\":4272:4290   */\n      add\n        /* \"#utility.yul\":4263:4269   */\n      dup6\n        /* \"#utility.yul\":4219:4291   */\n      tag_315\n      jump\t// in\n    tag_436:\n        /* \"#utility.yul\":4301:4371   */\n      tag_437\n        /* \"#utility.yul\":4367:4369   */\n      0x40\n        /* \"#utility.yul\":4356:4365   */\n      dup4\n        /* \"#utility.yul\":4352:4370   */\n      add\n        /* \"#utility.yul\":4343:4349   */\n      dup5\n        /* \"#utility.yul\":4301:4371   */\n      tag_333\n      jump\t// in\n    tag_437:\n        /* \"#utility.yul\":3940:4378   */\n      swap5\n      swap4\n      pop\n      pop\n      pop\n      pop\n      jump\t// out\n        /* \"#utility.yul\":4384:4506   */\n    tag_334:\n        /* \"#utility.yul\":4457:4481   */\n      tag_439\n        /* \"#utility.yul\":4475:4480   */\n      dup2\n        /* \"#utility.yul\":4457:4481   */\n      tag_317\n      jump\t// in\n    tag_439:\n        /* \"#utility.yul\":4450:4455   */\n      dup2\n        /* \"#utility.yul\":4447:4482   */\n      eq\n        /* \"#utility.yul\":4437:4500   */\n      tag_440\n      jumpi\n        /* \"#utility.yul\":4496:4497   */\n      0x00\n        /* \"#utility.yul\":4493:4494   */\n      0x00\n        /* \"#utility.yul\":4486:4498   */\n      revert\n        /* \"#utility.yul\":4437:4500   */\n    tag_440:\n        /* \"#utility.yul\":4384:4506   */\n      pop\n      jump\t// out\n        /* \"#utility.yul\":4512:4651   */\n    tag_335:\n        /* \"#utility.yul\":4558:4563   */\n      0x00\n        /* \"#utility.yul\":4596:4602   */\n      dup2\n        /* \"#utility.yul\":4583:4603   */\n      calldataload\n        /* \"#utility.yul\":4574:4603   */\n      swap1\n      pop\n        /* \"#utility.yul\":4612:4645   */\n      tag_442\n        /* \"#utility.yul\":4639:4644   */\n      dup2\n        /* \"#utility.yul\":4612:4645   */\n      tag_334\n      jump\t// in\n    tag_442:\n        /* \"#utility.yul\":4512:4651   */\n      swap3\n      swap2\n      pop\n      pop\n      jump\t// out\n        /* \"#utility.yul\":4657:5131   */\n    tag_69:\n        /* \"#utility.yul\":4725:4731   */\n      0x00\n        /* \"#utility.yul\":4733:4739   */\n      0x00\n        /* \"#utility.yul\":4782:4784   */\n      0x40\n        /* \"#utility.yul\":4770:4779   */\n      dup4\n        /* \"#utility.yul\":4761:4768   */\n      dup6\n        /* \"#utility.yul\":4757:4780   */\n      sub\n        /* \"#utility.yul\":4753:4785   */\n      slt\n        /* \"#utility.yul\":4750:4869   */\n      iszero\n      tag_444\n      jumpi\n        /* \"#utility.yul\":4788:4867   */\n      tag_445\n      tag_325\n      jump\t// in\n    tag_445:\n        /* \"#utility.yul\":4750:4869   */\n    tag_444:\n        /* \"#utility.yul\":4908:4909   */\n      0x00\n        /* \"#utility.yul\":4933:4986   */\n      tag_446\n        /* \"#utility.yul\":4978:4985   */\n      dup6\n        /* \"#utility.yul\":4969:4975   */\n      dup3\n        /* \"#utility.yul\":4958:4967   */\n      dup7\n        /* \"#utility.yul\":4954:4976   */\n      add\n        /* \"#utility.yul\":4933:4986   */\n      tag_328\n      jump\t// in\n    tag_446:\n        /* \"#utility.yul\":4923:4986   */\n      swap3\n      pop\n        /* \"#utility.yul\":4879:4996   */\n      pop\n        /* \"#utility.yul\":5035:5037   */\n      0x20\n        /* \"#utility.yul\":5061:5114   */\n      tag_447\n        /* \"#utility.yul\":5106:5113   */\n      dup6\n        /* \"#utility.yul\":5097:5103   */\n      dup3\n        /* \"#utility.yul\":5086:5095   */\n      dup7\n        /* \"#utility.yul\":5082:5104   */\n      add\n        /* \"#utility.yul\":5061:5114   */\n      tag_335\n      jump\t// in\n    tag_447:\n        /* \"#utility.yul\":5051:5114   */\n      swap2\n      pop\n        /* \"#utility.yul\":5006:5124   */\n      pop\n        /* \"#utility.yul\":4657:5131   */\n      swap3\n      pop\n      swap3\n      swap1\n      pop\n      jump\t// out\n        /* \"#utility.yul\":5137:5466   */\n    tag_74:\n        /* \"#utility.yul\":5196:5202   */\n      0x00\n        /* \"#utility.yul\":5245:5247   */\n      0x20\n        /* \"#utility.yul\":5233:5242   */\n      dup3\n        /* \"#utility.yul\":5224:5231   */\n      dup5\n        /* \"#utility.yul\":5220:5243   */\n      sub\n        /* \"#utility.yul\":5216:5248   */\n      slt\n        /* \"#utility.yul\":5213:5332   */\n      iszero\n      tag_449\n      jumpi\n        /* \"#utility.yul\":5251:5330   */\n      tag_450\n      tag_325\n      jump\t// in\n    tag_450:\n        /* \"#utility.yul\":5213:5332   */\n    tag_449:\n        /* \"#utility.yul\":5371:5372   */\n      0x00\n        /* \"#utility.yul\":5396:5449   */\n      tag_451\n        /* \"#utility.yul\":5441:5448   */\n      dup5\n        /* \"#utility.yul\":5432:5438   */\n      dup3\n        /* \"#utility.yul\":5421:5430   */\n      dup6\n        /* \"#utility.yul\":5417:5439   */\n      add\n        /* \"#utility.yul\":5396:5449   */\n      tag_331\n      jump\t// in\n    tag_451:\n        /* \"#utility.yul\":5386:5449   */\n      swap2\n      pop\n        /* \"#utility.yul\":5342:5459   */\n      pop\n        /* \"#utility.yul\":5137:5466   */\n      swap3\n      swap2\n      pop\n      pop\n      jump\t// out\n        /* \"#utility.yul\":5472:5592   */\n    tag_336:\n        /* \"#utility.yul\":5544:5567   */\n      tag_453\n        /* \"#utility.yul\":5561:5566   */\n      dup2\n        /* \"#utility.yul\":5544:5567   */\n      tag_332\n      jump\t// in\n    tag_453:\n        /* \"#utility.yul\":5537:5542   */\n      dup2\n        /* \"#utility.yul\":5534:5568   */\n      eq\n        /* \"#utility.yul\":5524:5586   */\n      tag_454\n      jumpi\n        /* \"#utility.yul\":5582:5583   */\n      0x00\n        /* \"#utility.yul\":5579:5580   */\n      0x00\n        /* \"#utility.yul\":5572:5584   */\n      revert\n        /* \"#utility.yul\":5524:5586   */\n    tag_454:\n        /* \"#utility.yul\":5472:5592   */\n      pop\n      jump\t// out\n        /* \"#utility.yul\":5598:5735   */\n    tag_337:\n        /* \"#utility.yul\":5643:5648   */\n      0x00\n        /* \"#utility.yul\":5681:5687   */\n      dup2\n        /* \"#utility.yul\":5668:5688   */\n      calldataload\n        /* \"#utility.yul\":5659:5688   */\n      swap1\n      pop\n        /* \"#utility.yul\":5697:5729   */\n      tag_456\n        /* \"#utility.yul\":5723:5728   */\n      dup2\n        /* \"#utility.yul\":5697:5729   */\n      tag_336\n      jump\t// in\n    tag_456:\n        /* \"#utility.yul\":5598:5735   */\n      swap3\n      swap2\n      pop\n      pop\n      jump\t// out\n        /* \"#utility.yul\":5741:6646   */\n    tag_79:\n        /* \"#utility.yul\":5833:5839   */\n      0x00\n        /* \"#utility.yul\":5841:5847   */\n      0x00\n        /* \"#utility.yul\":5849:5855   */\n      0x00\n        /* \"#utility.yul\":5857:5863   */\n      0x00\n        /* \"#utility.yul\":5865:5871   */\n      0x00\n        /* \"#utility.yul\":5914:5917   */\n      0xa0\n        /* \"#utility.yul\":5902:5911   */\n      dup7\n        /* \"#utility.yul\":5893:5900   */\n      dup9\n        /* \"#utility.yul\":5889:5912   */\n      sub\n        /* \"#utility.yul\":5885:5918   */\n      slt\n        /* \"#utility.yul\":5882:6002   */\n      iszero\n      tag_458\n      jumpi\n        /* \"#utility.yul\":5921:6000   */\n      tag_459\n      tag_325\n      jump\t// in\n    tag_459:\n        /* \"#utility.yul\":5882:6002   */\n    tag_458:\n        /* \"#utility.yul\":6041:6042   */\n      0x00\n        /* \"#utility.yul\":6066:6119   */\n      tag_460\n        /* \"#utility.yul\":6111:6118   */\n      dup9\n        /* \"#utility.yul\":6102:6108   */\n      dup3\n        /* \"#utility.yul\":6091:6100   */\n      dup10\n        /* \"#utility.yul\":6087:6109   */\n      add\n        /* \"#utility.yul\":6066:6119   */\n      tag_328\n      jump\t// in\n    tag_460:\n        /* \"#utility.yul\":6056:6119   */\n      swap6\n      pop\n        /* \"#utility.yul\":6012:6129   */\n      pop\n        /* \"#utility.yul\":6168:6170   */\n      0x20\n        /* \"#utility.yul\":6194:6247   */\n      tag_461\n        /* \"#utility.yul\":6239:6246   */\n      dup9\n        /* \"#utility.yul\":6230:6236   */\n      dup3\n        /* \"#utility.yul\":6219:6228   */\n      dup10\n        /* \"#utility.yul\":6215:6237   */\n      add\n        /* \"#utility.yul\":6194:6247   */\n      tag_328\n      jump\t// in\n    tag_461:\n        /* \"#utility.yul\":6184:6247   */\n      swap5\n      pop\n        /* \"#utility.yul\":6139:6257   */\n      pop\n        /* \"#utility.yul\":6296:6298   */\n      0x40\n        /* \"#utility.yul\":6322:6374   */\n      tag_462\n        /* \"#utility.yul\":6366:6373   */\n      dup9\n        /* \"#utility.yul\":6357:6363   */\n      dup3\n        /* \"#utility.yul\":6346:6355   */\n      dup10\n        /* \"#utility.yul\":6342:6364   */\n      add\n        /* \"#utility.yul\":6322:6374   */\n      tag_337\n      jump\t// in\n    tag_462:\n        /* \"#utility.yul\":6312:6374   */\n      swap4\n      pop\n        /* \"#utility.yul\":6267:6384   */\n      pop\n        /* \"#utility.yul\":6423:6425   */\n      0x60\n        /* \"#utility.yul\":6449:6501   */\n      tag_463\n        /* \"#utility.yul\":6493:6500   */\n      dup9\n        /* \"#utility.yul\":6484:6490   */\n      dup3\n        /* \"#utility.yul\":6473:6482   */\n      dup10\n        /* \"#utility.yul\":6469:6491   */\n      add\n        /* \"#utility.yul\":6449:6501   */\n      tag_337\n      jump\t// in\n    tag_463:\n        /* \"#utility.yul\":6439:6501   */\n      swap3\n      pop\n        /* \"#utility.yul\":6394:6511   */\n      pop\n        /* \"#utility.yul\":6550:6553   */\n      0x80\n        /* \"#utility.yul\":6577:6629   */\n      tag_464\n        /* \"#utility.yul\":6621:6628   */\n      dup9\n        /* \"#utility.yul\":6612:6618   */\n      dup3\n        /* \"#utility.yul\":6601:6610   */\n      dup10\n        /* \"#utility.yul\":6597:6619   */\n      add\n        /* \"#utility.yul\":6577:6629   */\n      tag_337\n      jump\t// in\n    tag_464:\n        /* \"#utility.yul\":6567:6629   */\n      swap2\n      pop\n        /* \"#utility.yul\":6521:6639   */\n      pop\n        /* \"#utility.yul\":5741:6646   */\n      swap3\n      swap6\n      pop\n      swap3\n      swap6\n      swap1\n      swap4\n      pop\n      jump\t// out\n        /* \"#utility.yul\":6652:6770   */\n    tag_338:\n        /* \"#utility.yul\":6739:6763   */\n      tag_466\n        /* \"#utility.yul\":6757:6762   */\n      dup2\n        /* \"#utility.yul\":6739:6763   */\n      tag_329\n      jump\t// in\n    tag_466:\n        /* \"#utility.yul\":6734:6737   */\n      dup3\n        /* \"#utility.yul\":6727:6764   */\n      mstore\n        /* \"#utility.yul\":6652:6770   */\n      pop\n      pop\n      jump\t// out\n        /* \"#utility.yul\":6776:6998   */\n    tag_86:\n        /* \"#utility.yul\":6869:6873   */\n      0x00\n        /* \"#utility.yul\":6907:6909   */\n      0x20\n        /* \"#utility.yul\":6896:6905   */\n      dup3\n        /* \"#utility.yul\":6892:6910   */\n      add\n        /* \"#utility.yul\":6884:6910   */\n      swap1\n      pop\n        /* \"#utility.yul\":6920:6991   */\n      tag_468\n        /* \"#utility.yul\":6988:6989   */\n      0x00\n        /* \"#utility.yul\":6977:6986   */\n      dup4\n        /* \"#utility.yul\":6973:6990   */\n      add\n        /* \"#utility.yul\":6964:6970   */\n      dup5\n        /* \"#utility.yul\":6920:6991   */\n      tag_338\n      jump\t// in\n    tag_468:\n        /* \"#utility.yul\":6776:6998   */\n      swap3\n      swap2\n      pop\n      pop\n      jump\t// out\n        /* \"#utility.yul\":7004:7103   */\n    tag_339:\n        /* \"#utility.yul\":7056:7062   */\n      0x00\n        /* \"#utility.yul\":7090:7095   */\n      dup2\n        /* \"#utility.yul\":7084:7096   */\n      mload\n        /* \"#utility.yul\":7074:7096   */\n      swap1\n      pop\n        /* \"#utility.yul\":7004:7103   */\n      swap2\n      swap1\n      pop\n      jump\t// out\n        /* \"#utility.yul\":7109:7278   */\n    tag_340:\n        /* \"#utility.yul\":7193:7204   */\n      0x00\n        /* \"#utility.yul\":7227:7233   */\n      dup3\n        /* \"#utility.yul\":7222:7225   */\n      dup3\n        /* \"#utility.yul\":7215:7234   */\n      mstore\n        /* \"#utility.yul\":7267:7271   */\n      0x20\n        /* \"#utility.yul\":7262:7265   */\n      dup3\n        /* \"#utility.yul\":7258:7272   */\n      add\n        /* \"#utility.yul\":7243:7272   */\n      swap1\n      pop\n        /* \"#utility.yul\":7109:7278   */\n      swap3\n      swap2\n      pop\n      pop\n      jump\t// out\n        /* \"#utility.yul\":7284:7423   */\n    tag_341:\n        /* \"#utility.yul\":7373:7379   */\n      dup3\n        /* \"#utility.yul\":7368:7371   */\n      dup2\n        /* \"#utility.yul\":7363:7366   */\n      dup4\n        /* \"#utility.yul\":7357:7380   */\n      mcopy\n        /* \"#utility.yul\":7414:7415   */\n      0x00\n        /* \"#utility.yul\":7405:7411   */\n      dup4\n        /* \"#utility.yul\":7400:7403   */\n      dup4\n        /* \"#utility.yul\":7396:7412   */\n      add\n        /* \"#utility.yul\":7389:7416   */\n      mstore\n        /* \"#utility.yul\":7284:7423   */\n      pop\n      pop\n      pop\n      jump\t// out\n        /* \"#utility.yul\":7429:7531   */\n    tag_342:\n        /* \"#utility.yul\":7470:7476   */\n      0x00\n        /* \"#utility.yul\":7521:7523   */\n      0x1f\n        /* \"#utility.yul\":7517:7524   */\n      not\n        /* \"#utility.yul\":7512:7514   */\n      0x1f\n        /* \"#utility.yul\":7505:7510   */\n      dup4\n        /* \"#utility.yul\":7501:7515   */\n      add\n        /* \"#utility.yul\":7497:7525   */\n      and\n        /* \"#utility.yul\":7487:7525   */\n      swap1\n      pop\n        /* \"#utility.yul\":7429:7531   */\n      swap2\n      swap1\n      pop\n      jump\t// out\n        /* \"#utility.yul\":7537:7914   */\n    tag_343:\n        /* \"#utility.yul\":7625:7628   */\n      0x00\n        /* \"#utility.yul\":7653:7692   */\n      tag_474\n        /* \"#utility.yul\":7686:7691   */\n      dup3\n        /* \"#utility.yul\":7653:7692   */\n      tag_339\n      jump\t// in\n    tag_474:\n        /* \"#utility.yul\":7708:7779   */\n      tag_475\n        /* \"#utility.yul\":7772:7778   */\n      dup2\n        /* \"#utility.yul\":7767:7770   */\n      dup6\n        /* \"#utility.yul\":7708:7779   */\n      tag_340\n      jump\t// in\n    tag_475:\n        /* \"#utility.yul\":7701:7779   */\n      swap4\n      pop\n        /* \"#utility.yul\":7788:7853   */\n      tag_476\n        /* \"#utility.yul\":7846:7852   */\n      dup2\n        /* \"#utility.yul\":7841:7844   */\n      dup6\n        /* \"#utility.yul\":7834:7838   */\n      0x20\n        /* \"#utility.yul\":7827:7832   */\n      dup7\n        /* \"#utility.yul\":7823:7839   */\n      add\n        /* \"#utility.yul\":7788:7853   */\n      tag_341\n      jump\t// in\n    tag_476:\n        /* \"#utility.yul\":7878:7907   */\n      tag_477\n        /* \"#utility.yul\":7900:7906   */\n      dup2\n        /* \"#utility.yul\":7878:7907   */\n      tag_342\n      jump\t// in\n    tag_477:\n        /* \"#utility.yul\":7873:7876   */\n      dup5\n        /* \"#utility.yul\":7869:7908   */\n      add\n        /* \"#utility.yul\":7862:7908   */\n      swap2\n      pop\n        /* \"#utility.yul\":7629:7914   */\n      pop\n        /* \"#utility.yul\":7537:7914   */\n      swap3\n      swap2\n      pop\n      pop\n      jump\t// out\n        /* \"#utility.yul\":7920:8233   */\n    tag_96:\n        /* \"#utility.yul\":8033:8037   */\n      0x00\n        /* \"#utility.yul\":8071:8073   */\n      0x20\n        /* \"#utility.yul\":8060:8069   */\n      dup3\n        /* \"#utility.yul\":8056:8074   */\n      add\n        /* \"#utility.yul\":8048:8074   */\n      swap1\n      pop\n        /* \"#utility.yul\":8120:8129   */\n      dup2\n        /* \"#utility.yul\":8114:8118   */\n      dup2\n        /* \"#utility.yul\":8110:8130   */\n      sub\n        /* \"#utility.yul\":8106:8107   */\n      0x00\n        /* \"#utility.yul\":8095:8104   */\n      dup4\n        /* \"#utility.yul\":8091:8108   */\n      add\n        /* \"#utility.yul\":8084:8131   */\n      mstore\n        /* \"#utility.yul\":8148:8226   */\n      tag_479\n        /* \"#utility.yul\":8221:8225   */\n      dup2\n        /* \"#utility.yul\":8212:8218   */\n      dup5\n        /* \"#utility.yul\":8148:8226   */\n      tag_343\n      jump\t// in\n    tag_479:\n        /* \"#utility.yul\":8140:8226   */\n      swap1\n      pop\n        /* \"#utility.yul\":7920:8233   */\n      swap3\n      swap2\n      pop\n      pop\n      jump\t// out\n        /* \"#utility.yul\":8239:8457   */\n    tag_106:\n        /* \"#utility.yul\":8330:8334   */\n      0x00\n        /* \"#utility.yul\":8368:8370   */\n      0x20\n        /* \"#utility.yul\":8357:8366   */\n      dup3\n        /* \"#utility.yul\":8353:8371   */\n      add\n        /* \"#utility.yul\":8345:8371   */\n      swap1\n      pop\n        /* \"#utility.yul\":8381:8450   */\n      tag_481\n        /* \"#utility.yul\":8447:8448   */\n      0x00\n        /* \"#utility.yul\":8436:8445   */\n      dup4\n        /* \"#utility.yul\":8432:8449   */\n      add\n        /* \"#utility.yul\":8423:8429   */\n      dup5\n        /* \"#utility.yul\":8381:8450   */\n      tag_333\n      jump\t// in\n    tag_481:\n        /* \"#utility.yul\":8239:8457   */\n      swap3\n      swap2\n      pop\n      pop\n      jump\t// out\n        /* \"#utility.yul\":8463:8893   */\n    tag_112:\n        /* \"#utility.yul\":8606:8610   */\n      0x00\n        /* \"#utility.yul\":8644:8646   */\n      0x60\n        /* \"#utility.yul\":8633:8642   */\n      dup3\n        /* \"#utility.yul\":8629:8647   */\n      add\n        /* \"#utility.yul\":8621:8647   */\n      swap1\n      pop\n        /* \"#utility.yul\":8657:8726   */\n      tag_483\n        /* \"#utility.yul\":8723:8724   */\n      0x00\n        /* \"#utility.yul\":8712:8721   */\n      dup4\n        /* \"#utility.yul\":8708:8725   */\n      add\n        /* \"#utility.yul\":8699:8705   */\n      dup7\n        /* \"#utility.yul\":8657:8726   */\n      tag_333\n      jump\t// in\n    tag_483:\n        /* \"#utility.yul\":8736:8806   */\n      tag_484\n        /* \"#utility.yul\":8802:8804   */\n      0x20\n        /* \"#utility.yul\":8791:8800   */\n      dup4\n        /* \"#utility.yul\":8787:8805   */\n      add\n        /* \"#utility.yul\":8778:8784   */\n      dup6\n        /* \"#utility.yul\":8736:8806   */\n      tag_333\n      jump\t// in\n    tag_484:\n        /* \"#utility.yul\":8816:8886   */\n      tag_485\n        /* \"#utility.yul\":8882:8884   */\n      0x40\n        /* \"#utility.yul\":8871:8880   */\n      dup4\n        /* \"#utility.yul\":8867:8885   */\n      add\n        /* \"#utility.yul\":8858:8864   */\n      dup5\n        /* \"#utility.yul\":8816:8886   */\n      tag_333\n      jump\t// in\n    tag_485:\n        /* \"#utility.yul\":8463:8893   */\n      swap5\n      swap4\n      pop\n      pop\n      pop\n      pop\n      jump\t// out\n        /* \"#utility.yul\":8899:9066   */\n    tag_344:\n        /* \"#utility.yul\":9039:9058   */\n      0x616c72656164792066696e616c697a6564000000000000000000000000000000\n        /* \"#utility.yul\":9035:9036   */\n      0x00\n        /* \"#utility.yul\":9027:9033   */\n      dup3\n        /* \"#utility.yul\":9023:9037   */\n      add\n        /* \"#utility.yul\":9016:9059   */\n      mstore\n        /* \"#utility.yul\":8899:9066   */\n      pop\n      jump\t// out\n        /* \"#utility.yul\":9072:9438   */\n    tag_345:\n        /* \"#utility.yul\":9214:9217   */\n      0x00\n        /* \"#utility.yul\":9235:9302   */\n      tag_488\n        /* \"#utility.yul\":9299:9301   */\n      0x11\n        /* \"#utility.yul\":9294:9297   */\n      dup4\n        /* \"#utility.yul\":9235:9302   */\n      tag_340\n      jump\t// in\n    tag_488:\n        /* \"#utility.yul\":9228:9302   */\n      swap2\n      pop\n        /* \"#utility.yul\":9311:9404   */\n      tag_489\n        /* \"#utility.yul\":9400:9403   */\n      dup3\n        /* \"#utility.yul\":9311:9404   */\n      tag_344\n      jump\t// in\n    tag_489:\n        /* \"#utility.yul\":9429:9431   */\n      0x20\n        /* \"#utility.yul\":9424:9427   */\n      dup3\n        /* \"#utility.yul\":9420:9432   */\n      add\n        /* \"#utility.yul\":9413:9432   */\n      swap1\n      pop\n        /* \"#utility.yul\":9072:9438   */\n      swap2\n      swap1\n      pop\n      jump\t// out\n        /* \"#utility.yul\":9444:9863   */\n    tag_126:\n        /* \"#utility.yul\":9610:9614   */\n      0x00\n        /* \"#utility.yul\":9648:9650   */\n      0x20\n        /* \"#utility.yul\":9637:9646   */\n      dup3\n        /* \"#utility.yul\":9633:9651   */\n      add\n        /* \"#utility.yul\":9625:9651   */\n      swap1\n      pop\n        /* \"#utility.yul\":9697:9706   */\n      dup2\n        /* \"#utility.yul\":9691:9695   */\n      dup2\n        /* \"#utility.yul\":9687:9707   */\n      sub\n        /* \"#utility.yul\":9683:9684   */\n      0x00\n        /* \"#utility.yul\":9672:9681   */\n      dup4\n        /* \"#utility.yul\":9668:9685   */\n      add\n        /* \"#utility.yul\":9661:9708   */\n      mstore\n        /* \"#utility.yul\":9725:9856   */\n      tag_491\n        /* \"#utility.yul\":9851:9855   */\n      dup2\n        /* \"#utility.yul\":9725:9856   */\n      tag_345\n      jump\t// in\n    tag_491:\n        /* \"#utility.yul\":9717:9856   */\n      swap1\n      pop\n        /* \"#utility.yul\":9444:9863   */\n      swap2\n      swap1\n      pop\n      jump\t// out\n        /* \"#utility.yul\":9869:10049   */\n    tag_346:\n        /* \"#utility.yul\":9917:9994   */\n      0x4e487b7100000000000000000000000000000000000000000000000000000000\n        /* \"#utility.yul\":9914:9915   */\n      0x00\n        /* \"#utility.yul\":9907:9995   */\n      mstore\n        /* \"#utility.yul\":10014:10018   */\n      0x11\n        /* \"#utility.yul\":10011:10012   */\n      0x04\n        /* \"#utility.yul\":10004:10019   */\n      mstore\n        /* \"#utility.yul\":10038:10042   */\n      0x24\n        /* \"#utility.yul\":10035:10036   */\n      0x00\n        /* \"#utility.yul\":10028:10043   */\n      revert\n        /* \"#utility.yul\":10055:10249   */\n    tag_133:\n        /* \"#utility.yul\":10095:10099   */\n      0x00\n        /* \"#utility.yul\":10115:10135   */\n      tag_494\n        /* \"#utility.yul\":10133:10134   */\n      dup3\n        /* \"#utility.yul\":10115:10135   */\n      tag_314\n      jump\t// in\n    tag_494:\n        /* \"#utility.yul\":10110:10135   */\n      swap2\n      pop\n        /* \"#utility.yul\":10149:10169   */\n      tag_495\n        /* \"#utility.yul\":10167:10168   */\n      dup4\n        /* \"#utility.yul\":10149:10169   */\n      tag_314\n      jump\t// in\n    tag_495:\n        /* \"#utility.yul\":10144:10169   */\n      swap3\n      pop\n        /* \"#utility.yul\":10193:10194   */\n      dup3\n        /* \"#utility.yul\":10190:10191   */\n      dup3\n        /* \"#utility.yul\":10186:10195   */\n      sub\n        /* \"#utility.yul\":10178:10195   */\n      swap1\n      pop\n        /* \"#utility.yul\":10217:10218   */\n      dup2\n        /* \"#utility.yul\":10211:10215   */\n      dup2\n        /* \"#utility.yul\":10208:10219   */\n      gt\n        /* \"#utility.yul\":10205:10242   */\n      iszero\n      tag_496\n      jumpi\n        /* \"#utility.yul\":10222:10240   */\n      tag_497\n      tag_346\n      jump\t// in\n    tag_497:\n        /* \"#utility.yul\":10205:10242   */\n    tag_496:\n        /* \"#utility.yul\":10055:10249   */\n      swap3\n      swap2\n      pop\n      pop\n      jump\t// out\n        /* \"#utility.yul\":10255:10460   */\n    tag_135:\n        /* \"#utility.yul\":10294:10297   */\n      0x00\n        /* \"#utility.yul\":10313:10332   */\n      tag_499\n        /* \"#utility.yul\":10330:10331   */\n      dup3\n        /* \"#utility.yul\":10313:10332   */\n      tag_332\n      jump\t// in\n    tag_499:\n        /* \"#utility.yul\":10308:10332   */\n      swap2\n      pop\n        /* \"#utility.yul\":10346:10365   */\n      tag_500\n        /* \"#utility.yul\":10363:10364   */\n      dup4\n        /* \"#utility.yul\":10346:10365   */\n      tag_332\n      jump\t// in\n    tag_500:\n        /* \"#utility.yul\":10341:10365   */\n      swap3\n      pop\n        /* \"#utility.yul\":10388:10389   */\n      dup3\n        /* \"#utility.yul\":10385:10386   */\n      dup3\n        /* \"#utility.yul\":10381:10390   */\n      add\n        /* \"#utility.yul\":10374:10390   */\n      swap1\n      pop\n        /* \"#utility.yul\":10411:10429   */\n      0xffffffffffffffff\n        /* \"#utility.yul\":10406:10409   */\n      dup2\n        /* \"#utility.yul\":10403:10430   */\n      gt\n        /* \"#utility.yul\":10400:10453   */\n      iszero\n      tag_501\n      jumpi\n        /* \"#utility.yul\":10433:10451   */\n      tag_502\n      tag_346\n      jump\t// in\n    tag_502:\n        /* \"#utility.yul\":10400:10453   */\n    tag_501:\n        /* \"#utility.yul\":10255:10460   */\n      swap3\n      swap2\n      pop\n      pop\n      jump\t// out\n        /* \"#utility.yul\":10466:11019   */\n    tag_137:\n        /* \"#utility.yul\":10643:10647   */\n      0x00\n        /* \"#utility.yul\":10681:10684   */\n      0x80\n        /* \"#utility.yul\":10670:10679   */\n      dup3\n        /* \"#utility.yul\":10666:10685   */\n      add\n        /* \"#utility.yul\":10658:10685   */\n      swap1\n      pop\n        /* \"#utility.yul\":10695:10766   */\n      tag_504\n        /* \"#utility.yul\":10763:10764   */\n      0x00\n        /* \"#utility.yul\":10752:10761   */\n      dup4\n        /* \"#utility.yul\":10748:10765   */\n      add\n        /* \"#utility.yul\":10739:10745   */\n      dup8\n        /* \"#utility.yul\":10695:10766   */\n      tag_318\n      jump\t// in\n    tag_504:\n        /* \"#utility.yul\":10776:10848   */\n      tag_505\n        /* \"#utility.yul\":10844:10846   */\n      0x20\n        /* \"#utility.yul\":10833:10842   */\n      dup4\n        /* \"#utility.yul\":10829:10847   */\n      add\n        /* \"#utility.yul\":10820:10826   */\n      dup7\n        /* \"#utility.yul\":10776:10848   */\n      tag_315\n      jump\t// in\n    tag_505:\n        /* \"#utility.yul\":10858:10930   */\n      tag_506\n        /* \"#utility.yul\":10926:10928   */\n      0x40\n        /* \"#utility.yul\":10915:10924   */\n      dup4\n        /* \"#utility.yul\":10911:10929   */\n      add\n        /* \"#utility.yul\":10902:10908   */\n      dup6\n        /* \"#utility.yul\":10858:10930   */\n      tag_315\n      jump\t// in\n    tag_506:\n        /* \"#utility.yul\":10940:11012   */\n      tag_507\n        /* \"#utility.yul\":11008:11010   */\n      0x60\n        /* \"#utility.yul\":10997:11006   */\n      dup4\n        /* \"#utility.yul\":10993:11011   */\n      add\n        /* \"#utility.yul\":10984:10990   */\n      dup5\n        /* \"#utility.yul\":10940:11012   */\n      tag_315\n      jump\t// in\n    tag_507:\n        /* \"#utility.yul\":10466:11019   */\n      swap6\n      swap5\n      pop\n      pop\n      pop\n      pop\n      pop\n      jump\t// out\n        /* \"#utility.yul\":11025:11104   */\n    tag_347:\n        /* \"#utility.yul\":11064:11071   */\n      0x00\n        /* \"#utility.yul\":11093:11098   */\n      dup2\n        /* \"#utility.yul\":11082:11098   */\n      swap1\n      pop\n        /* \"#utility.yul\":11025:11104   */\n      swap2\n      swap1\n      pop\n      jump\t// out\n        /* \"#utility.yul\":11110:11267   */\n    tag_348:\n        /* \"#utility.yul\":11215:11260   */\n      tag_510\n        /* \"#utility.yul\":11235:11259   */\n      tag_511\n        /* \"#utility.yul\":11253:11258   */\n      dup3\n        /* \"#utility.yul\":11235:11259   */\n      tag_314\n      jump\t// in\n    tag_511:\n        /* \"#utility.yul\":11215:11260   */\n      tag_347\n      jump\t// in\n    tag_510:\n        /* \"#utility.yul\":11210:11213   */\n      dup3\n        /* \"#utility.yul\":11203:11261   */\n      mstore\n        /* \"#utility.yul\":11110:11267   */\n      pop\n      pop\n      jump\t// out\n        /* \"#utility.yul\":11273:11352   */\n    tag_349:\n        /* \"#utility.yul\":11312:11319   */\n      0x00\n        /* \"#utility.yul\":11341:11346   */\n      dup2\n        /* \"#utility.yul\":11330:11346   */\n      swap1\n      pop\n        /* \"#utility.yul\":11273:11352   */\n      swap2\n      swap1\n      pop\n      jump\t// out\n        /* \"#utility.yul\":11358:11515   */\n    tag_350:\n        /* \"#utility.yul\":11463:11508   */\n      tag_514\n        /* \"#utility.yul\":11483:11507   */\n      tag_515\n        /* \"#utility.yul\":11501:11506   */\n      dup3\n        /* \"#utility.yul\":11483:11507   */\n      tag_329\n      jump\t// in\n    tag_515:\n        /* \"#utility.yul\":11463:11508   */\n      tag_349\n      jump\t// in\n    tag_514:\n        /* \"#utility.yul\":11458:11461   */\n      dup3\n        /* \"#utility.yul\":11451:11509   */\n      mstore\n        /* \"#utility.yul\":11358:11515   */\n      pop\n      pop\n      jump\t// out\n        /* \"#utility.yul\":11521:11918   */\n    tag_145:\n        /* \"#utility.yul\":11661:11664   */\n      0x00\n        /* \"#utility.yul\":11676:11751   */\n      tag_517\n        /* \"#utility.yul\":11747:11750   */\n      dup3\n        /* \"#utility.yul\":11738:11744   */\n      dup6\n        /* \"#utility.yul\":11676:11751   */\n      tag_348\n      jump\t// in\n    tag_517:\n        /* \"#utility.yul\":11776:11778   */\n      0x20\n        /* \"#utility.yul\":11771:11774   */\n      dup3\n        /* \"#utility.yul\":11767:11779   */\n      add\n        /* \"#utility.yul\":11760:11779   */\n      swap2\n      pop\n        /* \"#utility.yul\":11789:11864   */\n      tag_518\n        /* \"#utility.yul\":11860:11863   */\n      dup3\n        /* \"#utility.yul\":11851:11857   */\n      dup5\n        /* \"#utility.yul\":11789:11864   */\n      tag_350\n      jump\t// in\n    tag_518:\n        /* \"#utility.yul\":11889:11891   */\n      0x20\n        /* \"#utility.yul\":11884:11887   */\n      dup3\n        /* \"#utility.yul\":11880:11892   */\n      add\n        /* \"#utility.yul\":11873:11892   */\n      swap2\n      pop\n        /* \"#utility.yul\":11909:11912   */\n      dup2\n        /* \"#utility.yul\":11902:11912   */\n      swap1\n      pop\n        /* \"#utility.yul\":11521:11918   */\n      swap4\n      swap3\n      pop\n      pop\n      pop\n      jump\t// out\n        /* \"#utility.yul\":11924:12084   */\n    tag_351:\n        /* \"#utility.yul\":12064:12076   */\n      0x5245454e5452414e435900000000000000000000000000000000000000000000\n        /* \"#utility.yul\":12060:12061   */\n      0x00\n        /* \"#utility.yul\":12052:12058   */\n      dup3\n        /* \"#utility.yul\":12048:12062   */\n      add\n        /* \"#utility.yul\":12041:12077   */\n      mstore\n        /* \"#utility.yul\":11924:12084   */\n      pop\n      jump\t// out\n        /* \"#utility.yul\":12090:12456   */\n    tag_352:\n        /* \"#utility.yul\":12232:12235   */\n      0x00\n        /* \"#utility.yul\":12253:12320   */\n      tag_521\n        /* \"#utility.yul\":12317:12319   */\n      0x0a\n        /* \"#utility.yul\":12312:12315   */\n      dup4\n        /* \"#utility.yul\":12253:12320   */\n      tag_340\n      jump\t// in\n    tag_521:\n        /* \"#utility.yul\":12246:12320   */\n      swap2\n      pop\n        /* \"#utility.yul\":12329:12422   */\n      tag_522\n        /* \"#utility.yul\":12418:12421   */\n      dup3\n        /* \"#utility.yul\":12329:12422   */\n      tag_351\n      jump\t// in\n    tag_522:\n        /* \"#utility.yul\":12447:12449   */\n      0x20\n        /* \"#utility.yul\":12442:12445   */\n      dup3\n        /* \"#utility.yul\":12438:12450   */\n      add\n        /* \"#utility.yul\":12431:12450   */\n      swap1\n      pop\n        /* \"#utility.yul\":12090:12456   */\n      swap2\n      swap1\n      pop\n      jump\t// out\n        /* \"#utility.yul\":12462:12881   */\n    tag_162:\n        /* \"#utility.yul\":12628:12632   */\n      0x00\n        /* \"#utility.yul\":12666:12668   */\n      0x20\n        /* \"#utility.yul\":12655:12664   */\n      dup3\n        /* \"#utility.yul\":12651:12669   */\n      add\n        /* \"#utility.yul\":12643:12669   */\n      swap1\n      pop\n        /* \"#utility.yul\":12715:12724   */\n      dup2\n        /* \"#utility.yul\":12709:12713   */\n      dup2\n        /* \"#utility.yul\":12705:12725   */\n      sub\n        /* \"#utility.yul\":12701:12702   */\n      0x00\n        /* \"#utility.yul\":12690:12699   */\n      dup4\n        /* \"#utility.yul\":12686:12703   */\n      add\n        /* \"#utility.yul\":12679:12726   */\n      mstore\n        /* \"#utility.yul\":12743:12874   */\n      tag_524\n        /* \"#utility.yul\":12869:12873   */\n      dup2\n        /* \"#utility.yul\":12743:12874   */\n      tag_352\n      jump\t// in\n    tag_524:\n        /* \"#utility.yul\":12735:12874   */\n      swap1\n      pop\n        /* \"#utility.yul\":12462:12881   */\n      swap2\n      swap1\n      pop\n      jump\t// out\n        /* \"#utility.yul\":12887:13034   */\n    tag_353:\n        /* \"#utility.yul\":12988:12999   */\n      0x00\n        /* \"#utility.yul\":13025:13028   */\n      dup2\n        /* \"#utility.yul\":13010:13028   */\n      swap1\n      pop\n        /* \"#utility.yul\":12887:13034   */\n      swap3\n      swap2\n      pop\n      pop\n      jump\t// out\n        /* \"#utility.yul\":13040:13154   */\n    tag_354:\n      pop\n      jump\t// out\n        /* \"#utility.yul\":13160:13558   */\n    tag_355:\n        /* \"#utility.yul\":13319:13322   */\n      0x00\n        /* \"#utility.yul\":13340:13423   */\n      tag_528\n        /* \"#utility.yul\":13421:13422   */\n      0x00\n        /* \"#utility.yul\":13416:13419   */\n      dup4\n        /* \"#utility.yul\":13340:13423   */\n      tag_353\n      jump\t// in\n    tag_528:\n        /* \"#utility.yul\":13333:13423   */\n      swap2\n      pop\n        /* \"#utility.yul\":13432:13525   */\n      tag_529\n        /* \"#utility.yul\":13521:13524   */\n      dup3\n        /* \"#utility.yul\":13432:13525   */\n      tag_354\n      jump\t// in\n    tag_529:\n        /* \"#utility.yul\":13550:13551   */\n      0x00\n        /* \"#utility.yul\":13545:13548   */\n      dup3\n        /* \"#utility.yul\":13541:13552   */\n      add\n        /* \"#utility.yul\":13534:13552   */\n      swap1\n      pop\n        /* \"#utility.yul\":13160:13558   */\n      swap2\n      swap1\n      pop\n      jump\t// out\n        /* \"#utility.yul\":13564:13943   */\n    tag_169:\n        /* \"#utility.yul\":13748:13751   */\n      0x00\n        /* \"#utility.yul\":13770:13917   */\n      tag_531\n        /* \"#utility.yul\":13913:13916   */\n      dup3\n        /* \"#utility.yul\":13770:13917   */\n      tag_355\n      jump\t// in\n    tag_531:\n        /* \"#utility.yul\":13763:13917   */\n      swap2\n      pop\n        /* \"#utility.yul\":13934:13937   */\n      dup2\n        /* \"#utility.yul\":13927:13937   */\n      swap1\n      pop\n        /* \"#utility.yul\":13564:13943   */\n      swap2\n      swap1\n      pop\n      jump\t// out\n        /* \"#utility.yul\":13949:14117   */\n    tag_356:\n        /* \"#utility.yul\":14089:14109   */\n      0x70726576696f7573206e6f7420656e6465640000000000000000000000000000\n        /* \"#utility.yul\":14085:14086   */\n      0x00\n        /* \"#utility.yul\":14077:14083   */\n      dup3\n        /* \"#utility.yul\":14073:14087   */\n      add\n        /* \"#utility.yul\":14066:14110   */\n      mstore\n        /* \"#utility.yul\":13949:14117   */\n      pop\n      jump\t// out\n        /* \"#utility.yul\":14123:14489   */\n    tag_357:\n        /* \"#utility.yul\":14265:14268   */\n      0x00\n        /* \"#utility.yul\":14286:14353   */\n      tag_534\n        /* \"#utility.yul\":14350:14352   */\n      0x12\n        /* \"#utility.yul\":14345:14348   */\n      dup4\n        /* \"#utility.yul\":14286:14353   */\n      tag_340\n      jump\t// in\n    tag_534:\n        /* \"#utility.yul\":14279:14353   */\n      swap2\n      pop\n        /* \"#utility.yul\":14362:14455   */\n      tag_535\n        /* \"#utility.yul\":14451:14454   */\n      dup3\n        /* \"#utility.yul\":14362:14455   */\n      tag_356\n      jump\t// in\n    tag_535:\n        /* \"#utility.yul\":14480:14482   */\n      0x20\n        /* \"#utility.yul\":14475:14478   */\n      dup3\n        /* \"#utility.yul\":14471:14483   */\n      add\n        /* \"#utility.yul\":14464:14483   */\n      swap1\n      pop\n        /* \"#utility.yul\":14123:14489   */\n      swap2\n      swap1\n      pop\n      jump\t// out\n        /* \"#utility.yul\":14495:14914   */\n    tag_203:\n        /* \"#utility.yul\":14661:14665   */\n      0x00\n        /* \"#utility.yul\":14699:14701   */\n      0x20\n        /* \"#utility.yul\":14688:14697   */\n      dup3\n        /* \"#utility.yul\":14684:14702   */\n      add\n        /* \"#utility.yul\":14676:14702   */\n      swap1\n      pop\n        /* \"#utility.yul\":14748:14757   */\n      dup2\n        /* \"#utility.yul\":14742:14746   */\n      dup2\n        /* \"#utility.yul\":14738:14758   */\n      sub\n        /* \"#utility.yul\":14734:14735   */\n      0x00\n        /* \"#utility.yul\":14723:14732   */\n      dup4\n        /* \"#utility.yul\":14719:14736   */\n      add\n        /* \"#utility.yul\":14712:14759   */\n      mstore\n        /* \"#utility.yul\":14776:14907   */\n      tag_537\n        /* \"#utility.yul\":14902:14906   */\n      dup2\n        /* \"#utility.yul\":14776:14907   */\n      tag_357\n      jump\t// in\n    tag_537:\n        /* \"#utility.yul\":14768:14907   */\n      swap1\n      pop\n        /* \"#utility.yul\":14495:14914   */\n      swap2\n      swap1\n      pop\n      jump\t// out\n        /* \"#utility.yul\":14920:15098   */\n    tag_358:\n        /* \"#utility.yul\":15060:15090   */\n      0x434f4e4649473a2062616420636f6d6d6974206475726174696f6e7300000000\n        /* \"#utility.yul\":15056:15057   */\n      0x00\n        /* \"#utility.yul\":15048:15054   */\n      dup3\n        /* \"#utility.yul\":15044:15058   */\n      add\n        /* \"#utility.yul\":15037:15091   */\n      mstore\n        /* \"#utility.yul\":14920:15098   */\n      pop\n      jump\t// out\n        /* \"#utility.yul\":15104:15470   */\n    tag_359:\n        /* \"#utility.yul\":15246:15249   */\n      0x00\n        /* \"#utility.yul\":15267:15334   */\n      tag_540\n        /* \"#utility.yul\":15331:15333   */\n      0x1c\n        /* \"#utility.yul\":15326:15329   */\n      dup4\n        /* \"#utility.yul\":15267:15334   */\n      tag_340\n      jump\t// in\n    tag_540:\n        /* \"#utility.yul\":15260:15334   */\n      swap2\n      pop\n        /* \"#utility.yul\":15343:15436   */\n      tag_541\n        /* \"#utility.yul\":15432:15435   */\n      dup3\n        /* \"#utility.yul\":15343:15436   */\n      tag_358\n      jump\t// in\n    tag_541:\n        /* \"#utility.yul\":15461:15463   */\n      0x20\n        /* \"#utility.yul\":15456:15459   */\n      dup3\n        /* \"#utility.yul\":15452:15464   */\n      add\n        /* \"#utility.yul\":15445:15464   */\n      swap1\n      pop\n        /* \"#utility.yul\":15104:15470   */\n      swap2\n      swap1\n      pop\n      jump\t// out\n        /* \"#utility.yul\":15476:15895   */\n    tag_207:\n        /* \"#utility.yul\":15642:15646   */\n      0x00\n        /* \"#utility.yul\":15680:15682   */\n      0x20\n        /* \"#utility.yul\":15669:15678   */\n      dup3\n        /* \"#utility.yul\":15665:15683   */\n      add\n        /* \"#utility.yul\":15657:15683   */\n      swap1\n      pop\n        /* \"#utility.yul\":15729:15738   */\n      dup2\n        /* \"#utility.yul\":15723:15727   */\n      dup2\n        /* \"#utility.yul\":15719:15739   */\n      sub\n        /* \"#utility.yul\":15715:15716   */\n      0x00\n        /* \"#utility.yul\":15704:15713   */\n      dup4\n        /* \"#utility.yul\":15700:15717   */\n      add\n        /* \"#utility.yul\":15693:15740   */\n      mstore\n        /* \"#utility.yul\":15757:15888   */\n      tag_543\n        /* \"#utility.yul\":15883:15887   */\n      dup2\n        /* \"#utility.yul\":15757:15888   */\n      tag_359\n      jump\t// in\n    tag_543:\n        /* \"#utility.yul\":15749:15888   */\n      swap1\n      pop\n        /* \"#utility.yul\":15476:15895   */\n      swap2\n      swap1\n      pop\n      jump\t// out\n        /* \"#utility.yul\":15901:16079   */\n    tag_360:\n        /* \"#utility.yul\":16041:16071   */\n      0x434f4e4649473a206261642072657665616c206475726174696f6e7300000000\n        /* \"#utility.yul\":16037:16038   */\n      0x00\n        /* \"#utility.yul\":16029:16035   */\n      dup3\n        /* \"#utility.yul\":16025:16039   */\n      add\n        /* \"#utility.yul\":16018:16072   */\n      mstore\n        /* \"#utility.yul\":15901:16079   */\n      pop\n      jump\t// out\n        /* \"#utility.yul\":16085:16451   */\n    tag_361:\n        /* \"#utility.yul\":16227:16230   */\n      0x00\n        /* \"#utility.yul\":16248:16315   */\n      tag_546\n        /* \"#utility.yul\":16312:16314   */\n      0x1c\n        /* \"#utility.yul\":16307:16310   */\n      dup4\n        /* \"#utility.yul\":16248:16315   */\n      tag_340\n      jump\t// in\n    tag_546:\n        /* \"#utility.yul\":16241:16315   */\n      swap2\n      pop\n        /* \"#utility.yul\":16324:16417   */\n      tag_547\n        /* \"#utility.yul\":16413:16416   */\n      dup3\n        /* \"#utility.yul\":16324:16417   */\n      tag_360\n      jump\t// in\n    tag_547:\n        /* \"#utility.yul\":16442:16444   */\n      0x20\n        /* \"#utility.yul\":16437:16440   */\n      dup3\n        /* \"#utility.yul\":16433:16445   */\n      add\n        /* \"#utility.yul\":16426:16445   */\n      swap1\n      pop\n        /* \"#utility.yul\":16085:16451   */\n      swap2\n      swap1\n      pop\n      jump\t// out\n        /* \"#utility.yul\":16457:16876   */\n    tag_211:\n        /* \"#utility.yul\":16623:16627   */\n      0x00\n        /* \"#utility.yul\":16661:16663   */\n      0x20\n        /* \"#utility.yul\":16650:16659   */\n      dup3\n        /* \"#utility.yul\":16646:16664   */\n      add\n        /* \"#utility.yul\":16638:16664   */\n      swap1\n      pop\n        /* \"#utility.yul\":16710:16719   */\n      dup2\n        /* \"#utility.yul\":16704:16708   */\n      dup2\n        /* \"#utility.yul\":16700:16720   */\n      sub\n        /* \"#utility.yul\":16696:16697   */\n      0x00\n        /* \"#utility.yul\":16685:16694   */\n      dup4\n        /* \"#utility.yul\":16681:16698   */\n      add\n        /* \"#utility.yul\":16674:16721   */\n      mstore\n        /* \"#utility.yul\":16738:16869   */\n      tag_549\n        /* \"#utility.yul\":16864:16868   */\n      dup2\n        /* \"#utility.yul\":16738:16869   */\n      tag_361\n      jump\t// in\n    tag_549:\n        /* \"#utility.yul\":16730:16869   */\n      swap1\n      pop\n        /* \"#utility.yul\":16457:16876   */\n      swap2\n      swap1\n      pop\n      jump\t// out\n        /* \"#utility.yul\":16882:17057   */\n    tag_362:\n        /* \"#utility.yul\":17022:17049   */\n      0x434f4e4649473a20626164207265736572766520707269636500000000000000\n        /* \"#utility.yul\":17018:17019   */\n      0x00\n        /* \"#utility.yul\":17010:17016   */\n      dup3\n        /* \"#utility.yul\":17006:17020   */\n      add\n        /* \"#utility.yul\":16999:17050   */\n      mstore\n        /* \"#utility.yul\":16882:17057   */\n      pop\n      jump\t// out\n        /* \"#utility.yul\":17063:17429   */\n    tag_363:\n        /* \"#utility.yul\":17205:17208   */\n      0x00\n        /* \"#utility.yul\":17226:17293   */\n      tag_552\n        /* \"#utility.yul\":17290:17292   */\n      0x19\n        /* \"#utility.yul\":17285:17288   */\n      dup4\n        /* \"#utility.yul\":17226:17293   */\n      tag_340\n      jump\t// in\n    tag_552:\n        /* \"#utility.yul\":17219:17293   */\n      swap2\n      pop\n        /* \"#utility.yul\":17302:17395   */\n      tag_553\n        /* \"#utility.yul\":17391:17394   */\n      dup3\n        /* \"#utility.yul\":17302:17395   */\n      tag_362\n      jump\t// in\n    tag_553:\n        /* \"#utility.yul\":17420:17422   */\n      0x20\n        /* \"#utility.yul\":17415:17418   */\n      dup3\n        /* \"#utility.yul\":17411:17423   */\n      add\n        /* \"#utility.yul\":17404:17423   */\n      swap1\n      pop\n        /* \"#utility.yul\":17063:17429   */\n      swap2\n      swap1\n      pop\n      jump\t// out\n        /* \"#utility.yul\":17435:17854   */\n    tag_215:\n        /* \"#utility.yul\":17601:17605   */\n      0x00\n        /* \"#utility.yul\":17639:17641   */\n      0x20\n        /* \"#utility.yul\":17628:17637   */\n      dup3\n        /* \"#utility.yul\":17624:17642   */\n      add\n        /* \"#utility.yul\":17616:17642   */\n      swap1\n      pop\n        /* \"#utility.yul\":17688:17697   */\n      dup2\n        /* \"#utility.yul\":17682:17686   */\n      dup2\n        /* \"#utility.yul\":17678:17698   */\n      sub\n        /* \"#utility.yul\":17674:17675   */\n      0x00\n        /* \"#utility.yul\":17663:17672   */\n      dup4\n        /* \"#utility.yul\":17659:17676   */\n      add\n        /* \"#utility.yul\":17652:17699   */\n      mstore\n        /* \"#utility.yul\":17716:17847   */\n      tag_555\n        /* \"#utility.yul\":17842:17846   */\n      dup2\n        /* \"#utility.yul\":17716:17847   */\n      tag_363\n      jump\t// in\n    tag_555:\n        /* \"#utility.yul\":17708:17847   */\n      swap1\n      pop\n        /* \"#utility.yul\":17435:17854   */\n      swap2\n      swap1\n      pop\n      jump\t// out\n        /* \"#utility.yul\":17860:18003   */\n    tag_364:\n        /* \"#utility.yul\":17917:17922   */\n      0x00\n        /* \"#utility.yul\":17948:17954   */\n      dup2\n        /* \"#utility.yul\":17942:17955   */\n      mload\n        /* \"#utility.yul\":17933:17955   */\n      swap1\n      pop\n        /* \"#utility.yul\":17964:17997   */\n      tag_557\n        /* \"#utility.yul\":17991:17996   */\n      dup2\n        /* \"#utility.yul\":17964:17997   */\n      tag_334\n      jump\t// in\n    tag_557:\n        /* \"#utility.yul\":17860:18003   */\n      swap3\n      swap2\n      pop\n      pop\n      jump\t// out\n        /* \"#utility.yul\":18009:18360   */\n    tag_220:\n        /* \"#utility.yul\":18079:18085   */\n      0x00\n        /* \"#utility.yul\":18128:18130   */\n      0x20\n        /* \"#utility.yul\":18116:18125   */\n      dup3\n        /* \"#utility.yul\":18107:18114   */\n      dup5\n        /* \"#utility.yul\":18103:18126   */\n      sub\n        /* \"#utility.yul\":18099:18131   */\n      slt\n        /* \"#utility.yul\":18096:18215   */\n      iszero\n      tag_559\n      jumpi\n        /* \"#utility.yul\":18134:18213   */\n      tag_560\n      tag_325\n      jump\t// in\n    tag_560:\n        /* \"#utility.yul\":18096:18215   */\n    tag_559:\n        /* \"#utility.yul\":18254:18255   */\n      0x00\n        /* \"#utility.yul\":18279:18343   */\n      tag_561\n        /* \"#utility.yul\":18335:18342   */\n      dup5\n        /* \"#utility.yul\":18326:18332   */\n      dup3\n        /* \"#utility.yul\":18315:18324   */\n      dup6\n        /* \"#utility.yul\":18311:18333   */\n      add\n        /* \"#utility.yul\":18279:18343   */\n      tag_364\n      jump\t// in\n    tag_561:\n        /* \"#utility.yul\":18269:18343   */\n      swap2\n      pop\n        /* \"#utility.yul\":18225:18353   */\n      pop\n        /* \"#utility.yul\":18009:18360   */\n      swap3\n      swap2\n      pop\n      pop\n      jump\t// out\n        /* \"#utility.yul\":18366:18525   */\n    tag_365:\n        /* \"#utility.yul\":18506:18517   */\n      0x6e6f74206f776e65720000000000000000000000000000000000000000000000\n        /* \"#utility.yul\":18502:18503   */\n      0x00\n        /* \"#utility.yul\":18494:18500   */\n      dup3\n        /* \"#utility.yul\":18490:18504   */\n      add\n        /* \"#utility.yul\":18483:18518   */\n      mstore\n        /* \"#utility.yul\":18366:18525   */\n      pop\n      jump\t// out\n        /* \"#utility.yul\":18531:18896   */\n    tag_366:\n        /* \"#utility.yul\":18673:18676   */\n      0x00\n        /* \"#utility.yul\":18694:18760   */\n      tag_564\n        /* \"#utility.yul\":18758:18759   */\n      0x09\n        /* \"#utility.yul\":18753:18756   */\n      dup4\n        /* \"#utility.yul\":18694:18760   */\n      tag_340\n      jump\t// in\n    tag_564:\n        /* \"#utility.yul\":18687:18760   */\n      swap2\n      pop\n        /* \"#utility.yul\":18769:18862   */\n      tag_565\n        /* \"#utility.yul\":18858:18861   */\n      dup3\n        /* \"#utility.yul\":18769:18862   */\n      tag_365\n      jump\t// in\n    tag_565:\n        /* \"#utility.yul\":18887:18889   */\n      0x20\n        /* \"#utility.yul\":18882:18885   */\n      dup3\n        /* \"#utility.yul\":18878:18890   */\n      add\n        /* \"#utility.yul\":18871:18890   */\n      swap1\n      pop\n        /* \"#utility.yul\":18531:18896   */\n      swap2\n      swap1\n      pop\n      jump\t// out\n        /* \"#utility.yul\":18902:19321   */\n    tag_223:\n        /* \"#utility.yul\":19068:19072   */\n      0x00\n        /* \"#utility.yul\":19106:19108   */\n      0x20\n        /* \"#utility.yul\":19095:19104   */\n      dup3\n        /* \"#utility.yul\":19091:19109   */\n      add\n        /* \"#utility.yul\":19083:19109   */\n      swap1\n      pop\n        /* \"#utility.yul\":19155:19164   */\n      dup2\n        /* \"#utility.yul\":19149:19153   */\n      dup2\n        /* \"#utility.yul\":19145:19165   */\n      sub\n        /* \"#utility.yul\":19141:19142   */\n      0x00\n        /* \"#utility.yul\":19130:19139   */\n      dup4\n        /* \"#utility.yul\":19126:19143   */\n      add\n        /* \"#utility.yul\":19119:19166   */\n      mstore\n        /* \"#utility.yul\":19183:19314   */\n      tag_567\n        /* \"#utility.yul\":19309:19313   */\n      dup2\n        /* \"#utility.yul\":19183:19314   */\n      tag_366\n      jump\t// in\n    tag_567:\n        /* \"#utility.yul\":19175:19314   */\n      swap1\n      pop\n        /* \"#utility.yul\":18902:19321   */\n      swap2\n      swap1\n      pop\n      jump\t// out\n        /* \"#utility.yul\":19327:19518   */\n    tag_226:\n        /* \"#utility.yul\":19367:19370   */\n      0x00\n        /* \"#utility.yul\":19386:19406   */\n      tag_569\n        /* \"#utility.yul\":19404:19405   */\n      dup3\n        /* \"#utility.yul\":19386:19406   */\n      tag_314\n      jump\t// in\n    tag_569:\n        /* \"#utility.yul\":19381:19406   */\n      swap2\n      pop\n        /* \"#utility.yul\":19420:19440   */\n      tag_570\n        /* \"#utility.yul\":19438:19439   */\n      dup4\n        /* \"#utility.yul\":19420:19440   */\n      tag_314\n      jump\t// in\n    tag_570:\n        /* \"#utility.yul\":19415:19440   */\n      swap3\n      pop\n        /* \"#utility.yul\":19463:19464   */\n      dup3\n        /* \"#utility.yul\":19460:19461   */\n      dup3\n        /* \"#utility.yul\":19456:19465   */\n      add\n        /* \"#utility.yul\":19449:19465   */\n      swap1\n      pop\n        /* \"#utility.yul\":19484:19487   */\n      dup1\n        /* \"#utility.yul\":19481:19482   */\n      dup3\n        /* \"#utility.yul\":19478:19488   */\n      gt\n        /* \"#utility.yul\":19475:19511   */\n      iszero\n      tag_571\n      jumpi\n        /* \"#utility.yul\":19491:19509   */\n      tag_572\n      tag_346\n      jump\t// in\n    tag_572:\n        /* \"#utility.yul\":19475:19511   */\n    tag_571:\n        /* \"#utility.yul\":19327:19518   */\n      swap3\n      swap2\n      pop\n      pop\n      jump\t// out\n        /* \"#utility.yul\":19524:19664   */\n    tag_367:\n        /* \"#utility.yul\":19573:19582   */\n      0x00\n        /* \"#utility.yul\":19606:19658   */\n      tag_574\n        /* \"#utility.yul\":19624:19657   */\n      tag_575\n        /* \"#utility.yul\":19633:19656   */\n      tag_576\n        /* \"#utility.yul\":19650:19655   */\n      dup5\n        /* \"#utility.yul\":19633:19656   */\n      tag_332\n      jump\t// in\n    tag_576:\n        /* \"#utility.yul\":19624:19657   */\n      tag_319\n      jump\t// in\n    tag_575:\n        /* \"#utility.yul\":19606:19658   */\n      tag_314\n      jump\t// in\n    tag_574:\n        /* \"#utility.yul\":19593:19658   */\n      swap1\n      pop\n        /* \"#utility.yul\":19524:19664   */\n      swap2\n      swap1\n      pop\n      jump\t// out\n        /* \"#utility.yul\":19670:19799   */\n    tag_368:\n        /* \"#utility.yul\":19756:19792   */\n      tag_578\n        /* \"#utility.yul\":19786:19791   */\n      dup2\n        /* \"#utility.yul\":19756:19792   */\n      tag_367\n      jump\t// in\n    tag_578:\n        /* \"#utility.yul\":19751:19754   */\n      dup3\n        /* \"#utility.yul\":19744:19793   */\n      mstore\n        /* \"#utility.yul\":19670:19799   */\n      pop\n      pop\n      jump\t// out\n        /* \"#utility.yul\":19805:20566   */\n    tag_230:\n        /* \"#utility.yul\":20031:20035   */\n      0x00\n        /* \"#utility.yul\":20069:20072   */\n      0xc0\n        /* \"#utility.yul\":20058:20067   */\n      dup3\n        /* \"#utility.yul\":20054:20073   */\n      add\n        /* \"#utility.yul\":20046:20073   */\n      swap1\n      pop\n        /* \"#utility.yul\":20083:20154   */\n      tag_580\n        /* \"#utility.yul\":20151:20152   */\n      0x00\n        /* \"#utility.yul\":20140:20149   */\n      dup4\n        /* \"#utility.yul\":20136:20153   */\n      add\n        /* \"#utility.yul\":20127:20133   */\n      dup10\n        /* \"#utility.yul\":20083:20154   */\n      tag_315\n      jump\t// in\n    tag_580:\n        /* \"#utility.yul\":20164:20236   */\n      tag_581\n        /* \"#utility.yul\":20232:20234   */\n      0x20\n        /* \"#utility.yul\":20221:20230   */\n      dup4\n        /* \"#utility.yul\":20217:20235   */\n      add\n        /* \"#utility.yul\":20208:20214   */\n      dup9\n        /* \"#utility.yul\":20164:20236   */\n      tag_315\n      jump\t// in\n    tag_581:\n        /* \"#utility.yul\":20246:20317   */\n      tag_582\n        /* \"#utility.yul\":20313:20315   */\n      0x40\n        /* \"#utility.yul\":20302:20311   */\n      dup4\n        /* \"#utility.yul\":20298:20316   */\n      add\n        /* \"#utility.yul\":20289:20295   */\n      dup8\n        /* \"#utility.yul\":20246:20317   */\n      tag_368\n      jump\t// in\n    tag_582:\n        /* \"#utility.yul\":20327:20397   */\n      tag_583\n        /* \"#utility.yul\":20393:20395   */\n      0x60\n        /* \"#utility.yul\":20382:20391   */\n      dup4\n        /* \"#utility.yul\":20378:20396   */\n      add\n        /* \"#utility.yul\":20369:20375   */\n      dup7\n        /* \"#utility.yul\":20327:20397   */\n      tag_333\n      jump\t// in\n    tag_583:\n        /* \"#utility.yul\":20407:20478   */\n      tag_584\n        /* \"#utility.yul\":20473:20476   */\n      0x80\n        /* \"#utility.yul\":20462:20471   */\n      dup4\n        /* \"#utility.yul\":20458:20477   */\n      add\n        /* \"#utility.yul\":20449:20455   */\n      dup6\n        /* \"#utility.yul\":20407:20478   */\n      tag_333\n      jump\t// in\n    tag_584:\n        /* \"#utility.yul\":20488:20559   */\n      tag_585\n        /* \"#utility.yul\":20554:20557   */\n      0xa0\n        /* \"#utility.yul\":20543:20552   */\n      dup4\n        /* \"#utility.yul\":20539:20558   */\n      add\n        /* \"#utility.yul\":20530:20536   */\n      dup5\n        /* \"#utility.yul\":20488:20559   */\n      tag_333\n      jump\t// in\n    tag_585:\n        /* \"#utility.yul\":19805:20566   */\n      swap8\n      swap7\n      pop\n      pop\n      pop\n      pop\n      pop\n      pop\n      pop\n      jump\t// out\n        /* \"#utility.yul\":20572:20742   */\n    tag_369:\n        /* \"#utility.yul\":20712:20734   */\n      0x7374696c6c2070617961626c652077696e646f77000000000000000000000000\n        /* \"#utility.yul\":20708:20709   */\n      0x00\n        /* \"#utility.yul\":20700:20706   */\n      dup3\n        /* \"#utility.yul\":20696:20710   */\n      add\n        /* \"#utility.yul\":20689:20735   */\n      mstore\n        /* \"#utility.yul\":20572:20742   */\n      pop\n      jump\t// out\n        /* \"#utility.yul\":20748:21114   */\n    tag_370:\n        /* \"#utility.yul\":20890:20893   */\n      0x00\n        /* \"#utility.yul\":20911:20978   */\n      tag_588\n        /* \"#utility.yul\":20975:20977   */\n      0x14\n        /* \"#utility.yul\":20970:20973   */\n      dup4\n        /* \"#utility.yul\":20911:20978   */\n      tag_340\n      jump\t// in\n    tag_588:\n        /* \"#utility.yul\":20904:20978   */\n      swap2\n      pop\n        /* \"#utility.yul\":20987:21080   */\n      tag_589\n        /* \"#utility.yul\":21076:21079   */\n      dup3\n        /* \"#utility.yul\":20987:21080   */\n      tag_369\n      jump\t// in\n    tag_589:\n        /* \"#utility.yul\":21105:21107   */\n      0x20\n        /* \"#utility.yul\":21100:21103   */\n      dup3\n        /* \"#utility.yul\":21096:21108   */\n      add\n        /* \"#utility.yul\":21089:21108   */\n      swap1\n      pop\n        /* \"#utility.yul\":20748:21114   */\n      swap2\n      swap1\n      pop\n      jump\t// out\n        /* \"#utility.yul\":21120:21539   */\n    tag_249:\n        /* \"#utility.yul\":21286:21290   */\n      0x00\n        /* \"#utility.yul\":21324:21326   */\n      0x20\n        /* \"#utility.yul\":21313:21322   */\n      dup3\n        /* \"#utility.yul\":21309:21327   */\n      add\n        /* \"#utility.yul\":21301:21327   */\n      swap1\n      pop\n        /* \"#utility.yul\":21373:21382   */\n      dup2\n        /* \"#utility.yul\":21367:21371   */\n      dup2\n        /* \"#utility.yul\":21363:21383   */\n      sub\n        /* \"#utility.yul\":21359:21360   */\n      0x00\n        /* \"#utility.yul\":21348:21357   */\n      dup4\n        /* \"#utility.yul\":21344:21361   */\n      add\n        /* \"#utility.yul\":21337:21384   */\n      mstore\n        /* \"#utility.yul\":21401:21532   */\n      tag_591\n        /* \"#utility.yul\":21527:21531   */\n      dup2\n        /* \"#utility.yul\":21401:21532   */\n      tag_370\n      jump\t// in\n    tag_591:\n        /* \"#utility.yul\":21393:21532   */\n      swap1\n      pop\n        /* \"#utility.yul\":21120:21539   */\n      swap2\n      swap1\n      pop\n      jump\t// out\n        /* \"#utility.yul\":21545:21710   */\n    tag_371:\n        /* \"#utility.yul\":21685:21702   */\n      0x7769746864726177206661696c65640000000000000000000000000000000000\n        /* \"#utility.yul\":21681:21682   */\n      0x00\n        /* \"#utility.yul\":21673:21679   */\n      dup3\n        /* \"#utility.yul\":21669:21683   */\n      add\n        /* \"#utility.yul\":21662:21703   */\n      mstore\n        /* \"#utility.yul\":21545:21710   */\n      pop\n      jump\t// out\n        /* \"#utility.yul\":21716:22082   */\n    tag_372:\n        /* \"#utility.yul\":21858:21861   */\n      0x00\n        /* \"#utility.yul\":21879:21946   */\n      tag_594\n        /* \"#utility.yul\":21943:21945   */\n      0x0f\n        /* \"#utility.yul\":21938:21941   */\n      dup4\n        /* \"#utility.yul\":21879:21946   */\n      tag_340\n      jump\t// in\n    tag_594:\n        /* \"#utility.yul\":21872:21946   */\n      swap2\n      pop\n        /* \"#utility.yul\":21955:22048   */\n      tag_595\n        /* \"#utility.yul\":22044:22047   */\n      dup3\n        /* \"#utility.yul\":21955:22048   */\n      tag_371\n      jump\t// in\n    tag_595:\n        /* \"#utility.yul\":22073:22075   */\n      0x20\n        /* \"#utility.yul\":22068:22071   */\n      dup3\n        /* \"#utility.yul\":22064:22076   */\n      add\n        /* \"#utility.yul\":22057:22076   */\n      swap1\n      pop\n        /* \"#utility.yul\":21716:22082   */\n      swap2\n      swap1\n      pop\n      jump\t// out\n        /* \"#utility.yul\":22088:22507   */\n    tag_257:\n        /* \"#utility.yul\":22254:22258   */\n      0x00\n        /* \"#utility.yul\":22292:22294   */\n      0x20\n        /* \"#utility.yul\":22281:22290   */\n      dup3\n        /* \"#utility.yul\":22277:22295   */\n      add\n        /* \"#utility.yul\":22269:22295   */\n      swap1\n      pop\n        /* \"#utility.yul\":22341:22350   */\n      dup2\n        /* \"#utility.yul\":22335:22339   */\n      dup2\n        /* \"#utility.yul\":22331:22351   */\n      sub\n        /* \"#utility.yul\":22327:22328   */\n      0x00\n        /* \"#utility.yul\":22316:22325   */\n      dup4\n        /* \"#utility.yul\":22312:22329   */\n      add\n        /* \"#utility.yul\":22305:22352   */\n      mstore\n        /* \"#utility.yul\":22369:22500   */\n      tag_597\n        /* \"#utility.yul\":22495:22499   */\n      dup2\n        /* \"#utility.yul\":22369:22500   */\n      tag_372\n      jump\t// in\n    tag_597:\n        /* \"#utility.yul\":22361:22500   */\n      swap1\n      pop\n        /* \"#utility.yul\":22088:22507   */\n      swap2\n      swap1\n      pop\n      jump\t// out\n        /* \"#utility.yul\":22513:22680   */\n    tag_373:\n        /* \"#utility.yul\":22653:22672   */\n      0x7061792073656c6c6572206661696c6564000000000000000000000000000000\n        /* \"#utility.yul\":22649:22650   */\n      0x00\n        /* \"#utility.yul\":22641:22647   */\n      dup3\n        /* \"#utility.yul\":22637:22651   */\n      add\n        /* \"#utility.yul\":22630:22673   */\n      mstore\n        /* \"#utility.yul\":22513:22680   */\n      pop\n      jump\t// out\n        /* \"#utility.yul\":22686:23052   */\n    tag_374:\n        /* \"#utility.yul\":22828:22831   */\n      0x00\n        /* \"#utility.yul\":22849:22916   */\n      tag_600\n        /* \"#utility.yul\":22913:22915   */\n      0x11\n        /* \"#utility.yul\":22908:22911   */\n      dup4\n        /* \"#utility.yul\":22849:22916   */\n      tag_340\n      jump\t// in\n    tag_600:\n        /* \"#utility.yul\":22842:22916   */\n      swap2\n      pop\n        /* \"#utility.yul\":22925:23018   */\n      tag_601\n        /* \"#utility.yul\":23014:23017   */\n      dup3\n        /* \"#utility.yul\":22925:23018   */\n      tag_373\n      jump\t// in\n    tag_601:\n        /* \"#utility.yul\":23043:23045   */\n      0x20\n        /* \"#utility.yul\":23038:23041   */\n      dup3\n        /* \"#utility.yul\":23034:23046   */\n      add\n        /* \"#utility.yul\":23027:23046   */\n      swap1\n      pop\n        /* \"#utility.yul\":22686:23052   */\n      swap2\n      swap1\n      pop\n      jump\t// out\n        /* \"#utility.yul\":23058:23477   */\n    tag_280:\n        /* \"#utility.yul\":23224:23228   */\n      0x00\n        /* \"#utility.yul\":23262:23264   */\n      0x20\n        /* \"#utility.yul\":23251:23260   */\n      dup3\n        /* \"#utility.yul\":23247:23265   */\n      add\n        /* \"#utility.yul\":23239:23265   */\n      swap1\n      pop\n        /* \"#utility.yul\":23311:23320   */\n      dup2\n        /* \"#utility.yul\":23305:23309   */\n      dup2\n        /* \"#utility.yul\":23301:23321   */\n      sub\n        /* \"#utility.yul\":23297:23298   */\n      0x00\n        /* \"#utility.yul\":23286:23295   */\n      dup4\n        /* \"#utility.yul\":23282:23299   */\n      add\n        /* \"#utility.yul\":23275:23322   */\n      mstore\n        /* \"#utility.yul\":23339:23470   */\n      tag_603\n        /* \"#utility.yul\":23465:23469   */\n      dup2\n        /* \"#utility.yul\":23339:23470   */\n      tag_374\n      jump\t// in\n    tag_603:\n        /* \"#utility.yul\":23331:23470   */\n      swap1\n      pop\n        /* \"#utility.yul\":23058:23477   */\n      swap2\n      swap1\n      pop\n      jump\t// out\n        /* \"#utility.yul\":23483:23647   */\n    tag_375:\n        /* \"#utility.yul\":23623:23639   */\n      0x4e46543a206e6f74206f776e6572000000000000000000000000000000000000\n        /* \"#utility.yul\":23619:23620   */\n      0x00\n        /* \"#utility.yul\":23611:23617   */\n      dup3\n        /* \"#utility.yul\":23607:23621   */\n      add\n        /* \"#utility.yul\":23600:23640   */\n      mstore\n        /* \"#utility.yul\":23483:23647   */\n      pop\n      jump\t// out\n        /* \"#utility.yul\":23653:24019   */\n    tag_376:\n        /* \"#utility.yul\":23795:23798   */\n      0x00\n        /* \"#utility.yul\":23816:23883   */\n      tag_606\n        /* \"#utility.yul\":23880:23882   */\n      0x0e\n        /* \"#utility.yul\":23875:23878   */\n      dup4\n        /* \"#utility.yul\":23816:23883   */\n      tag_340\n      jump\t// in\n    tag_606:\n        /* \"#utility.yul\":23809:23883   */\n      swap2\n      pop\n        /* \"#utility.yul\":23892:23985   */\n      tag_607\n        /* \"#utility.yul\":23981:23984   */\n      dup3\n        /* \"#utility.yul\":23892:23985   */\n      tag_375\n      jump\t// in\n    tag_607:\n        /* \"#utility.yul\":24010:24012   */\n      0x20\n        /* \"#utility.yul\":24005:24008   */\n      dup3\n        /* \"#utility.yul\":24001:24013   */\n      add\n        /* \"#utility.yul\":23994:24013   */\n      swap1\n      pop\n        /* \"#utility.yul\":23653:24019   */\n      swap2\n      swap1\n      pop\n      jump\t// out\n        /* \"#utility.yul\":24025:24444   */\n    tag_292:\n        /* \"#utility.yul\":24191:24195   */\n      0x00\n        /* \"#utility.yul\":24229:24231   */\n      0x20\n        /* \"#utility.yul\":24218:24227   */\n      dup3\n        /* \"#utility.yul\":24214:24232   */\n      add\n        /* \"#utility.yul\":24206:24232   */\n      swap1\n      pop\n        /* \"#utility.yul\":24278:24287   */\n      dup2\n        /* \"#utility.yul\":24272:24276   */\n      dup2\n        /* \"#utility.yul\":24268:24288   */\n      sub\n        /* \"#utility.yul\":24264:24265   */\n      0x00\n        /* \"#utility.yul\":24253:24262   */\n      dup4\n        /* \"#utility.yul\":24249:24266   */\n      add\n        /* \"#utility.yul\":24242:24289   */\n      mstore\n        /* \"#utility.yul\":24306:24437   */\n      tag_609\n        /* \"#utility.yul\":24432:24436   */\n      dup2\n        /* \"#utility.yul\":24306:24437   */\n      tag_376\n      jump\t// in\n    tag_609:\n        /* \"#utility.yul\":24298:24437   */\n      swap1\n      pop\n        /* \"#utility.yul\":24025:24444   */\n      swap2\n      swap1\n      pop\n      jump\t// out\n        /* \"#utility.yul\":24450:24782   */\n    tag_299:\n        /* \"#utility.yul\":24571:24575   */\n      0x00\n        /* \"#utility.yul\":24609:24611   */\n      0x40\n        /* \"#utility.yul\":24598:24607   */\n      dup3\n        /* \"#utility.yul\":24594:24612   */\n      add\n        /* \"#utility.yul\":24586:24612   */\n      swap1\n      pop\n        /* \"#utility.yul\":24622:24693   */\n      tag_611\n        /* \"#utility.yul\":24690:24691   */\n      0x00\n        /* \"#utility.yul\":24679:24688   */\n      dup4\n        /* \"#utility.yul\":24675:24692   */\n      add\n        /* \"#utility.yul\":24666:24672   */\n      dup6\n        /* \"#utility.yul\":24622:24693   */\n      tag_318\n      jump\t// in\n    tag_611:\n        /* \"#utility.yul\":24703:24775   */\n      tag_612\n        /* \"#utility.yul\":24771:24773   */\n      0x20\n        /* \"#utility.yul\":24760:24769   */\n      dup4\n        /* \"#utility.yul\":24756:24774   */\n      add\n        /* \"#utility.yul\":24747:24753   */\n      dup5\n        /* \"#utility.yul\":24703:24775   */\n      tag_318\n      jump\t// in\n    tag_612:\n        /* \"#utility.yul\":24450:24782   */\n      swap4\n      swap3\n      pop\n      pop\n      pop\n      jump\t// out\n        /* \"#utility.yul\":24788:24878   */\n    tag_377:\n        /* \"#utility.yul\":24822:24829   */\n      0x00\n        /* \"#utility.yul\":24865:24870   */\n      dup2\n        /* \"#utility.yul\":24858:24871   */\n      iszero\n        /* \"#utility.yul\":24851:24872   */\n      iszero\n        /* \"#utility.yul\":24840:24872   */\n      swap1\n      pop\n        /* \"#utility.yul\":24788:24878   */\n      swap2\n      swap1\n      pop\n      jump\t// out\n        /* \"#utility.yul\":24884:25000   */\n    tag_378:\n        /* \"#utility.yul\":24954:24975   */\n      tag_615\n        /* \"#utility.yul\":24969:24974   */\n      dup2\n        /* \"#utility.yul\":24954:24975   */\n      tag_377\n      jump\t// in\n    tag_615:\n        /* \"#utility.yul\":24947:24952   */\n      dup2\n        /* \"#utility.yul\":24944:24976   */\n      eq\n        /* \"#utility.yul\":24934:24994   */\n      tag_616\n      jumpi\n        /* \"#utility.yul\":24990:24991   */\n      0x00\n        /* \"#utility.yul\":24987:24988   */\n      0x00\n        /* \"#utility.yul\":24980:24992   */\n      revert\n        /* \"#utility.yul\":24934:24994   */\n    tag_616:\n        /* \"#utility.yul\":24884:25000   */\n      pop\n      jump\t// out\n        /* \"#utility.yul\":25006:25143   */\n    tag_379:\n        /* \"#utility.yul\":25060:25065   */\n      0x00\n        /* \"#utility.yul\":25091:25097   */\n      dup2\n        /* \"#utility.yul\":25085:25098   */\n      mload\n        /* \"#utility.yul\":25076:25098   */\n      swap1\n      pop\n        /* \"#utility.yul\":25107:25137   */\n      tag_618\n        /* \"#utility.yul\":25131:25136   */\n      dup2\n        /* \"#utility.yul\":25107:25137   */\n      tag_378\n      jump\t// in\n    tag_618:\n        /* \"#utility.yul\":25006:25143   */\n      swap3\n      swap2\n      pop\n      pop\n      jump\t// out\n        /* \"#utility.yul\":25149:25494   */\n    tag_303:\n        /* \"#utility.yul\":25216:25222   */\n      0x00\n        /* \"#utility.yul\":25265:25267   */\n      0x20\n        /* \"#utility.yul\":25253:25262   */\n      dup3\n        /* \"#utility.yul\":25244:25251   */\n      dup5\n        /* \"#utility.yul\":25240:25263   */\n      sub\n        /* \"#utility.yul\":25236:25268   */\n      slt\n        /* \"#utility.yul\":25233:25352   */\n      iszero\n      tag_620\n      jumpi\n        /* \"#utility.yul\":25271:25350   */\n      tag_621\n      tag_325\n      jump\t// in\n    tag_621:\n        /* \"#utility.yul\":25233:25352   */\n    tag_620:\n        /* \"#utility.yul\":25391:25392   */\n      0x00\n        /* \"#utility.yul\":25416:25477   */\n      tag_622\n        /* \"#utility.yul\":25469:25476   */\n      dup5\n        /* \"#utility.yul\":25460:25466   */\n      dup3\n        /* \"#utility.yul\":25449:25458   */\n      dup6\n        /* \"#utility.yul\":25445:25467   */\n      add\n        /* \"#utility.yul\":25416:25477   */\n      tag_379\n      jump\t// in\n    tag_622:\n        /* \"#utility.yul\":25406:25477   */\n      swap2\n      pop\n        /* \"#utility.yul\":25362:25487   */\n      pop\n        /* \"#utility.yul\":25149:25494   */\n      swap3\n      swap2\n      pop\n      pop\n      jump\t// out\n        /* \"#utility.yul\":25500:25667   */\n    tag_380:\n        /* \"#utility.yul\":25640:25659   */\n      0x4e46543a206e6f7420617070726f766564000000000000000000000000000000\n        /* \"#utility.yul\":25636:25637   */\n      0x00\n        /* \"#utility.yul\":25628:25634   */\n      dup3\n        /* \"#utility.yul\":25624:25638   */\n      add\n        /* \"#utility.yul\":25617:25660   */\n      mstore\n        /* \"#utility.yul\":25500:25667   */\n      pop\n      jump\t// out\n        /* \"#utility.yul\":25673:26039   */\n    tag_381:\n        /* \"#utility.yul\":25815:25818   */\n      0x00\n        /* \"#utility.yul\":25836:25903   */\n      tag_625\n        /* \"#utility.yul\":25900:25902   */\n      0x11\n        /* \"#utility.yul\":25895:25898   */\n      dup4\n        /* \"#utility.yul\":25836:25903   */\n      tag_340\n      jump\t// in\n    tag_625:\n        /* \"#utility.yul\":25829:25903   */\n      swap2\n      pop\n        /* \"#utility.yul\":25912:26005   */\n      tag_626\n        /* \"#utility.yul\":26001:26004   */\n      dup3\n        /* \"#utility.yul\":25912:26005   */\n      tag_380\n      jump\t// in\n    tag_626:\n        /* \"#utility.yul\":26030:26032   */\n      0x20\n        /* \"#utility.yul\":26025:26028   */\n      dup3\n        /* \"#utility.yul\":26021:26033   */\n      add\n        /* \"#utility.yul\":26014:26033   */\n      swap1\n      pop\n        /* \"#utility.yul\":25673:26039   */\n      swap2\n      swap1\n      pop\n      jump\t// out\n        /* \"#utility.yul\":26045:26464   */\n    tag_306:\n        /* \"#utility.yul\":26211:26215   */\n      0x00\n        /* \"#utility.yul\":26249:26251   */\n      0x20\n        /* \"#utility.yul\":26238:26247   */\n      dup3\n        /* \"#utility.yul\":26234:26252   */\n      add\n        /* \"#utility.yul\":26226:26252   */\n      swap1\n      pop\n        /* \"#utility.yul\":26298:26307   */\n      dup2\n        /* \"#utility.yul\":26292:26296   */\n      dup2\n        /* \"#utility.yul\":26288:26308   */\n      sub\n        /* \"#utility.yul\":26284:26285   */\n      0x00\n        /* \"#utility.yul\":26273:26282   */\n      dup4\n        /* \"#utility.yul\":26269:26286   */\n      add\n        /* \"#utility.yul\":26262:26309   */\n      mstore\n        /* \"#utility.yul\":26326:26457   */\n      tag_628\n        /* \"#utility.yul\":26452:26456   */\n      dup2\n        /* \"#utility.yul\":26326:26457   */\n      tag_381\n      jump\t// in\n    tag_628:\n        /* \"#utility.yul\":26318:26457   */\n      swap1\n      pop\n        /* \"#utility.yul\":26045:26464   */\n      swap2\n      swap1\n      pop\n      jump\t// out\n        /* \"#utility.yul\":26470:26912   */\n    tag_308:\n        /* \"#utility.yul\":26619:26623   */\n      0x00\n        /* \"#utility.yul\":26657:26659   */\n      0x60\n        /* \"#utility.yul\":26646:26655   */\n      dup3\n        /* \"#utility.yul\":26642:26660   */\n      add\n        /* \"#utility.yul\":26634:26660   */\n      swap1\n      pop\n        /* \"#utility.yul\":26670:26741   */\n      tag_630\n        /* \"#utility.yul\":26738:26739   */\n      0x00\n        /* \"#utility.yul\":26727:26736   */\n      dup4\n        /* \"#utility.yul\":26723:26740   */\n      add\n        /* \"#utility.yul\":26714:26720   */\n      dup7\n        /* \"#utility.yul\":26670:26741   */\n      tag_318\n      jump\t// in\n    tag_630:\n        /* \"#utility.yul\":26751:26823   */\n      tag_631\n        /* \"#utility.yul\":26819:26821   */\n      0x20\n        /* \"#utility.yul\":26808:26817   */\n      dup4\n        /* \"#utility.yul\":26804:26822   */\n      add\n        /* \"#utility.yul\":26795:26801   */\n      dup6\n        /* \"#utility.yul\":26751:26823   */\n      tag_318\n      jump\t// in\n    tag_631:\n        /* \"#utility.yul\":26833:26905   */\n      tag_632\n        /* \"#utility.yul\":26901:26903   */\n      0x40\n        /* \"#utility.yul\":26890:26899   */\n      dup4\n        /* \"#utility.yul\":26886:26904   */\n      add\n        /* \"#utility.yul\":26877:26883   */\n      dup5\n        /* \"#utility.yul\":26833:26905   */\n      tag_315\n      jump\t// in\n    tag_632:\n        /* \"#utility.yul\":26470:26912   */\n      swap5\n      swap4\n      pop\n      pop\n      pop\n      pop\n      jump\t// out\n\n    auxdata: 0xa264697066735822122044c744ece69828faa84f60afb6fad3f0bc19c86e450cdb559fde39f87fa3bfd864736f6c634300081e0033\n}\n",
				"bytecode": {
					"linkReferences": {},
					"object": "60a060405260015f55731546bd67237122754d3f0cb761c139f81388b21073ffffffffffffffffffffffffffffffffffffffff1660809073ffffffffffffffffffffffffffffffffffffffff1681525034801561005a575f5ffd5b506080516137da61009d5f395f81816107e7015281816118a901528181611b0001528181612763015281816128680152818161291d01526129f701526137da5ff3fe60806040526004361061011e575f3560e01c806386a2cc271161009f578063c8f9736611610063578063c8f97366146103a6578063d3851f4c146103ce578063d3aa699e1461040a578063de75a5c014610448578063e9906f2e146104845761011e565b806386a2cc27146102c0578063894da478146102dc57806389fb268214610304578063b1724b4614610340578063b1fb64051461036a5761011e565b806362c5424a116100e657806362c5424a146101e05780636b1da3641461020857806371d946b4146102465780637cf2ed221461026e578063813abc2d146102845761011e565b806301c11d961461012257806310782f8f1461014c57806331768238146101765780634bb278f3146101a05780635e7721f7146101b6575b5f5ffd5b34801561012d575f5ffd5b5061013661048e565b6040516101439190612b3d565b60405180910390f35b348015610157575f5ffd5b5061016061049e565b60405161016d9190612b3d565b60405180910390f35b348015610181575f5ffd5b5061018a6104a4565b6040516101979190612b95565b60405180910390f35b3480156101ab575f5ffd5b506101b46104bc565b005b3480156101c1575f5ffd5b506101ca6107e5565b6040516101d79190612c09565b60405180910390f35b3480156101eb575f5ffd5b5061020660048036038101906102019190612c83565b610809565b005b348015610213575f5ffd5b5061022e60048036038101906102299190612cc1565b610cf0565b60405161023d93929190612d0e565b60405180910390f35b348015610251575f5ffd5b5061026c60048036038101906102679190612cc1565b610d4f565b005b348015610279575f5ffd5b50610282611063565b005b34801561028f575f5ffd5b506102aa60048036038101906102a59190612d6d565b611375565b6040516102b79190612b3d565b60405180910390f35b6102da60048036038101906102d59190612dab565b6113cb565b005b3480156102e7575f5ffd5b5061030260048036038101906102fd9190612e00565b6116fc565b005b34801561030f575f5ffd5b5061032a60048036038101906103259190612d6d565b611bf8565b6040516103379190612e86565b60405180910390f35b34801561034b575f5ffd5b50610354611c4e565b6040516103619190612b3d565b60405180910390f35b348015610375575f5ffd5b50610390600480360381019061038b9190612cc1565b611c55565b60405161039d9190612f0f565b60405180910390f35b3480156103b1575f5ffd5b506103cc60048036038101906103c79190612cc1565b611f1b565b005b3480156103d9575f5ffd5b506103f460048036038101906103ef9190612d6d565b612253565b6040516104019190612f2f565b60405180910390f35b348015610415575f5ffd5b50610430600480360381019061042b9190612cc1565b6122bc565b60405161043f93929190612f48565b60405180910390f35b348015610453575f5ffd5b5061046e60048036038101906104699190612d6d565b612323565b60405161047b9190612b3d565b60405180910390f35b61048c612379565b005b6b033b2e3c9fd0803ce800000081565b60015481565b731546bd67237122754d3f0cb761c139f81388b21081565b5f6104c56126a9565b90508060030160109054906101000a900467ffffffffffffffff1667ffffffffffffffff16421015610522576040517ee8f46600000000000000000000000000000000000000000000000000000000815260040160405180910390fd5b806008015f9054906101000a900460ff1615610573576040517f08c379a000000000000000000000000000000000000000000000000000000000815260040161056a90612fc7565b60405180910390fd5b5f73ffffffffffffffffffffffffffffffffffffffff168160040160089054906101000a900473ffffffffffffffffffffffffffffffffffffffff1673ffffffffffffffffffffffffffffffffffffffff1603610672576001816008015f6101000a81548160ff02191690831515021790555060018160080160016101000a81548160ff0219169083151502179055505f816007018190555061063d30826001015f9054906101000a900473ffffffffffffffffffffffffffffffffffffffff16835f015461274a565b6001547fa761d07fdb0a6897f18726f15d43008d6c30ce08e44a91775cfd2ef3b61cdad060405160405180910390a2506107e3565b5f816002015482600601541061068c578160060154610692565b81600201545b905081600b015f8360040160089054906101000a900473ffffffffffffffffffffffffffffffffffffffff1673ffffffffffffffffffffffffffffffffffffffff1673ffffffffffffffffffffffffffffffffffffffff1681526020019081526020015f2054816107039190613012565b82600701819055506001826008015f6101000a81548160ff0219169083151502179055508160030160189054906101000a900467ffffffffffffffff164261074b9190613045565b826004015f6101000a81548167ffffffffffffffff021916908367ffffffffffffffff1602179055506001547f5ab4254a16d8f1486e035342f3b6736a5efdc0b79886e7525b374bb0ec9ebee18360040160089054906101000a900473ffffffffffffffffffffffffffffffffffffffff1684600501548560060154856040516107d89493929190613080565b60405180910390a250505b565b7f000000000000000000000000000000000000000000000000000000000000000081565b5f6108126126a9565b90505f4290508160030160089054906101000a900467ffffffffffffffff1667ffffffffffffffff1681108061086a57508160030160109054906101000a900467ffffffffffffffff1667ffffffffffffffff168110155b156108a1576040517f74683d7100000000000000000000000000000000000000000000000000000000815260040160405180910390fd5b5f82600c015f3373ffffffffffffffffffffffffffffffffffffffff1673ffffffffffffffffffffffffffffffffffffffff1681526020019081526020015f205414610919576040517f157330ee00000000000000000000000000000000000000000000000000000000815260040160405180910390fd5b5f826009015f3373ffffffffffffffffffffffffffffffffffffffff1673ffffffffffffffffffffffffffffffffffffffff1681526020019081526020015f205490505f5f1b8103610997576040517fc06789fa00000000000000000000000000000000000000000000000000000000815260040160405180910390fd5b8085856040516020016109ab929190613103565b60405160208183030381529060405280519060200120146109f8576040517fc06789fa00000000000000000000000000000000000000000000000000000000815260040160405180910390fd5b8483600c015f3373ffffffffffffffffffffffffffffffffffffffff1673ffffffffffffffffffffffffffffffffffffffff1681526020019081526020015f20819055508260020154851015610a7a576040517f6b317d5600000000000000000000000000000000000000000000000000000000815260040160405180910390fd5b8260050154851115610b3c575f73ffffffffffffffffffffffffffffffffffffffff168360040160089054906101000a900473ffffffffffffffffffffffffffffffffffffffff1673ffffffffffffffffffffffffffffffffffffffff1614610aeb57826005015483600601819055505b848360050181905550338360040160086101000a81548173ffffffffffffffffffffffffffffffffffffffff021916908373ffffffffffffffffffffffffffffffffffffffff160217905550610c98565b826005015485148015610c2a575082600a015f8460040160089054906101000a900473ffffffffffffffffffffffffffffffffffffffff1673ffffffffffffffffffffffffffffffffffffffff1673ffffffffffffffffffffffffffffffffffffffff1681526020019081526020015f205f9054906101000a900467ffffffffffffffff1667ffffffffffffffff1683600a015f3373ffffffffffffffffffffffffffffffffffffffff1673ffffffffffffffffffffffffffffffffffffffff1681526020019081526020015f205f9054906101000a900467ffffffffffffffff1667ffffffffffffffff16105b15610c8057848360050181905550338360040160086101000a81548173ffffffffffffffffffffffffffffffffffffffff021916908373ffffffffffffffffffffffffffffffffffffffff160217905550610c97565b8260060154851115610c96578483600601819055505b5b5b3373ffffffffffffffffffffffffffffffffffffffff166001547f86d2fbc9069d34216ebc65b38ce840528d3f8cac0c86d2aaa7ab6a9db8bc35d387604051610ce19190612b3d565b60405180910390a35050505050565b5f5f5f5f610cfd85612a84565b90508060040160089054906101000a900473ffffffffffffffffffffffffffffffffffffffff168160070154826004015f9054906101000a900467ffffffffffffffff16935093509350509193909250565b60025f5403610d93576040517f08c379a0000000000000000000000000000000000000000000000000000000008152600401610d8a90613178565b60405180910390fd5b60025f819055505f610da482612a84565b9050806008015f9054906101000a900460ff16610ded576040517fd3018d1800000000000000000000000000000000000000000000000000000000815260040160405180910390fd5b8060040160089054906101000a900473ffffffffffffffffffffffffffffffffffffffff1673ffffffffffffffffffffffffffffffffffffffff163373ffffffffffffffffffffffffffffffffffffffff1603610e76576040517f3a6a68b100000000000000000000000000000000000000000000000000000000815260040160405180910390fd5b5f81600b015f3373ffffffffffffffffffffffffffffffffffffffff1673ffffffffffffffffffffffffffffffffffffffff1681526020019081526020015f205403610eee576040517f3a6a68b100000000000000000000000000000000000000000000000000000000815260040160405180910390fd5b5f3373ffffffffffffffffffffffffffffffffffffffff1682600b015f3373ffffffffffffffffffffffffffffffffffffffff1673ffffffffffffffffffffffffffffffffffffffff1681526020019081526020015f2054604051610f52906131c3565b5f6040518083038185875af1925050503d805f8114610f8c576040519150601f19603f3d011682016040523d82523d5f602084013e610f91565b606091505b505090508015610fcd576040517f750b219c00000000000000000000000000000000000000000000000000000000815260040160405180910390fd5b5f82600b015f3373ffffffffffffffffffffffffffffffffffffffff1673ffffffffffffffffffffffffffffffffffffffff1681526020019081526020015f20819055503373ffffffffffffffffffffffffffffffffffffffff166001547f47f74a265269aa6e5423fbcd9a74b3c8771a0c3a9c7cdfb7ebe375b288c06b4e60405160405180910390a3505060015f8190555050565b60025f54036110a7576040517f08c379a000000000000000000000000000000000000000000000000000000000815260040161109e90613178565b60405180910390fd5b60025f819055505f6110b76126a9565b9050806008015f9054906101000a900460ff16611100576040517fd3018d1800000000000000000000000000000000000000000000000000000000815260040160405180910390fd5b8060040160089054906101000a900473ffffffffffffffffffffffffffffffffffffffff1673ffffffffffffffffffffffffffffffffffffffff163373ffffffffffffffffffffffffffffffffffffffff1603611189576040517f3a6a68b100000000000000000000000000000000000000000000000000000000815260040160405180910390fd5b5f81600b015f3373ffffffffffffffffffffffffffffffffffffffff1673ffffffffffffffffffffffffffffffffffffffff1681526020019081526020015f205403611201576040517f3a6a68b100000000000000000000000000000000000000000000000000000000815260040160405180910390fd5b5f3373ffffffffffffffffffffffffffffffffffffffff1682600b015f3373ffffffffffffffffffffffffffffffffffffffff1673ffffffffffffffffffffffffffffffffffffffff1681526020019081526020015f2054604051611265906131c3565b5f6040518083038185875af1925050503d805f811461129f576040519150601f19603f3d011682016040523d82523d5f602084013e6112a4565b606091505b5050905080156112e0576040517f750b219c00000000000000000000000000000000000000000000000000000000815260040160405180910390fd5b5f82600b015f3373ffffffffffffffffffffffffffffffffffffffff1673ffffffffffffffffffffffffffffffffffffffff1681526020019081526020015f20819055503373ffffffffffffffffffffffffffffffffffffffff166001547f47f74a265269aa6e5423fbcd9a74b3c8771a0c3a9c7cdfb7ebe375b288c06b4e60405160405180910390a3505060015f81905550565b5f5f61138084612a84565b905080600c015f8473ffffffffffffffffffffffffffffffffffffffff1673ffffffffffffffffffffffffffffffffffffffff1681526020019081526020015f205491505092915050565b5f6113d46126a9565b90508060030160089054906101000a900467ffffffffffffffff1667ffffffffffffffff16421015806114275750806003015f9054906101000a900467ffffffffffffffff1667ffffffffffffffff1642105b1561145e576040517fabfb7dc300000000000000000000000000000000000000000000000000000000815260040160405180910390fd5b5f5f1b8203611499576040517fc06789fa00000000000000000000000000000000000000000000000000000000815260040160405180910390fd5b5f5f1b816009015f3373ffffffffffffffffffffffffffffffffffffffff1673ffffffffffffffffffffffffffffffffffffffff1681526020019081526020015f20540361156b578060020154340361151e576040517f603e3d3600000000000000000000000000000000000000000000000000000000815260040160405180910390fd5b806002015481600b015f3373ffffffffffffffffffffffffffffffffffffffff1673ffffffffffffffffffffffffffffffffffffffff1681526020019081526020015f20819055506115a5565b5f34146115a4576040517f7f4316f300000000000000000000000000000000000000000000000000000000815260040160405180910390fd5b5b81816009015f3373ffffffffffffffffffffffffffffffffffffffff1673ffffffffffffffffffffffffffffffffffffffff1681526020019081526020015f2081905550600181600d015f8282829054906101000a900467ffffffffffffffff166116109190613045565b92506101000a81548167ffffffffffffffff021916908367ffffffffffffffff16021790555080600d015f9054906101000a900467ffffffffffffffff1681600a015f3373ffffffffffffffffffffffffffffffffffffffff1673ffffffffffffffffffffffffffffffffffffffff1681526020019081526020015f205f6101000a81548167ffffffffffffffff021916908367ffffffffffffffff1602179055503373ffffffffffffffffffffffffffffffffffffffff166001547f0934ea4de468dcd0d9a335c5f97aa77955310c29631c93fbd01d95a00242ec4160405160405180910390a35050565b5f6001541461176e575f60025f60015481526020019081526020015f2090508060080160019054906101000a900460ff1661176c576040517f08c379a000000000000000000000000000000000000000000000000000000000815260040161176390613221565b60405180910390fd5b505b5f8367ffffffffffffffff16118015611793575062278d008367ffffffffffffffff16105b6117d2576040517f08c379a00000000000000000000000000000000000000000000000000000000081526004016117c990613289565b60405180910390fd5b5f8267ffffffffffffffff161180156117f7575062278d008267ffffffffffffffff16105b611836576040517f08c379a000000000000000000000000000000000000000000000000000000000815260040161182d906132f1565b60405180910390fd5b5f841015801561185157506b033b2e3c9fd0803ce800000084105b611890576040517f08c379a000000000000000000000000000000000000000000000000000000000815260040161188790613359565b60405180910390fd5b3373ffffffffffffffffffffffffffffffffffffffff167f000000000000000000000000000000000000000000000000000000000000000073ffffffffffffffffffffffffffffffffffffffff16636352211e876040518263ffffffff1660e01b81526004016119009190612b3d565b602060405180830381865afa15801561191b573d5f5f3e3d5ffd5b505050506040513d601f19601f8201168201806040525081019061193f919061338b565b73ffffffffffffffffffffffffffffffffffffffff1614611995576040517f08c379a000000000000000000000000000000000000000000000000000000000815260040161198c90613400565b60405180910390fd5b6119a033308761274a565b6001805f8282546119b1919061341e565b925050819055505f60025f60015481526020019081526020015f20905085815f018190555033816001015f6101000a81548173ffffffffffffffffffffffffffffffffffffffff021916908373ffffffffffffffffffffffffffffffffffffffff1602179055508481600201819055505f42905080826003015f6101000a81548167ffffffffffffffff021916908367ffffffffffffffff1602179055508481611a5b9190613045565b8260030160086101000a81548167ffffffffffffffff021916908367ffffffffffffffff160217905550838260030160089054906101000a900467ffffffffffffffff16611aa99190613045565b8260030160106101000a81548167ffffffffffffffff021916908367ffffffffffffffff160217905550828260030160186101000a81548167ffffffffffffffff021916908367ffffffffffffffff1602179055507f000000000000000000000000000000000000000000000000000000000000000073ffffffffffffffffffffffffffffffffffffffff163373ffffffffffffffffffffffffffffffffffffffff166001547f7abf6ab8b302120b3c02e57915d50f8896518cb2ff56f4f58d92a463a12d16498a8a876003015f9054906101000a900467ffffffffffffffff168860030160089054906101000a900467ffffffffffffffff168960030160109054906101000a900467ffffffffffffffff168a60030160189054906101000a900467ffffffffffffffff16604051611be796959493929190613481565b60405180910390a450505050505050565b5f5f611c0384612a84565b9050806009015f8473ffffffffffffffffffffffffffffffffffffffff1673ffffffffffffffffffffffffffffffffffffffff1681526020019081526020015f205491505092915050565b62278d0081565b60605f611c6183612a84565b90505f4290508160030160089054906101000a900467ffffffffffffffff1667ffffffffffffffff16811015611cd0576040518060400160405280600681526020017f434f4d4d4954000000000000000000000000000000000000000000000000000081525092505050611f16565b8160030160109054906101000a900467ffffffffffffffff1667ffffffffffffffff16811015611d39576040518060400160405280600681526020017f52455645414c000000000000000000000000000000000000000000000000000081525092505050611f16565b816008015f9054906101000a900460ff16611d8d576040518060400160405280601081526020017f46494e414c495a455f50454e44494e470000000000000000000000000000000081525092505050611f16565b816008015f9054906101000a900460ff168015611db957508160080160019054906101000a900460ff16155b8015611e1557505f73ffffffffffffffffffffffffffffffffffffffff168260040160089054906101000a900473ffffffffffffffffffffffffffffffffffffffff1673ffffffffffffffffffffffffffffffffffffffff1614155b8015611e425750816004015f9054906101000a900467ffffffffffffffff1667ffffffffffffffff168111155b15611e86576040518060400160405280600d81526020017f41574149545f5041594d454e540000000000000000000000000000000000000081525092505050611f16565b8160080160019054906101000a900460ff16611edb576040518060400160405280600f81526020017f534554544c454d454e545f4f50454e000000000000000000000000000000000081525092505050611f16565b6040518060400160405280600581526020017f454e444544000000000000000000000000000000000000000000000000000000815250925050505b919050565b5f611f2582612a84565b9050806008015f9054906101000a900460ff16611f6e576040517fd3018d1800000000000000000000000000000000000000000000000000000000815260040160405180910390fd5b806001015f9054906101000a900473ffffffffffffffffffffffffffffffffffffffff1673ffffffffffffffffffffffffffffffffffffffff163373ffffffffffffffffffffffffffffffffffffffff1614611ff6576040517f5ec8235100000000000000000000000000000000000000000000000000000000815260040160405180910390fd5b806004015f9054906101000a900467ffffffffffffffff1667ffffffffffffffff164211612059576040517f08c379a00000000000000000000000000000000000000000000000000000000081526004016120509061352a565b60405180910390fd5b60018160080160016101000a81548160ff0219169083151502179055506120a730826001015f9054906101000a900473ffffffffffffffffffffffffffffffffffffffff16835f015461274a565b5f81600b015f8360040160089054906101000a900473ffffffffffffffffffffffffffffffffffffffff1673ffffffffffffffffffffffffffffffffffffffff1673ffffffffffffffffffffffffffffffffffffffff1681526020019081526020015f205490505f82600b015f8460040160089054906101000a900473ffffffffffffffffffffffffffffffffffffffff1673ffffffffffffffffffffffffffffffffffffffff1673ffffffffffffffffffffffffffffffffffffffff1681526020019081526020015f20819055505f3373ffffffffffffffffffffffffffffffffffffffff168260405161219b906131c3565b5f6040518083038185875af1925050503d805f81146121d5576040519150601f19603f3d011682016040523d82523d5f602084013e6121da565b606091505b505090508061221e576040517f08c379a000000000000000000000000000000000000000000000000000000000815260040161221590613592565b60405180910390fd5b6001547f55c90d9726ff7562e2dda9743c070ab007dd986e4c0a42bcf578362c435a4d8960405160405180910390a250505050565b5f5f61225e84612a84565b905080600a015f8473ffffffffffffffffffffffffffffffffffffffff1673ffffffffffffffffffffffffffffffffffffffff1681526020019081526020015f205f9054906101000a900467ffffffffffffffff1691505092915050565b5f5f5f5f6122c985612a84565b90508060030160089054906101000a900467ffffffffffffffff168160030160109054906101000a900467ffffffffffffffff16826004015f9054906101000a900467ffffffffffffffff16935093509350509193909250565b5f5f61232e84612a84565b905080600b015f8473ffffffffffffffffffffffffffffffffffffffff1673ffffffffffffffffffffffffffffffffffffffff1681526020019081526020015f205491505092915050565b60025f54036123bd576040517f08c379a00000000000000000000000000000000000000000000000000000000081526004016123b490613178565b60405180910390fd5b60025f819055505f6123cd6126a9565b9050806008015f9054906101000a900460ff16612416576040517fd3018d1800000000000000000000000000000000000000000000000000000000815260040160405180910390fd5b3373ffffffffffffffffffffffffffffffffffffffff168160040160089054906101000a900473ffffffffffffffffffffffffffffffffffffffff1673ffffffffffffffffffffffffffffffffffffffff161461249f576040517f618c724200000000000000000000000000000000000000000000000000000000815260040160405180910390fd5b806004015f9054906101000a900467ffffffffffffffff1667ffffffffffffffff164211806124e35750600115158160080160019054906101000a900460ff161515145b1561251a576040517f58459e8800000000000000000000000000000000000000000000000000000000815260040160405180910390fd5b80600701543414612557576040517f788a686f00000000000000000000000000000000000000000000000000000000815260040160405180910390fd5b60018160080160016101000a81548160ff0219169083151502179055505f816001015f9054906101000a900473ffffffffffffffffffffffffffffffffffffffff1673ffffffffffffffffffffffffffffffffffffffff16346040516125bc906131c3565b5f6040518083038185875af1925050503d805f81146125f6576040519150601f19603f3d011682016040523d82523d5f602084013e6125fb565b606091505b505090508061263f576040517f08c379a0000000000000000000000000000000000000000000000000000000008152600401612636906135fa565b60405180910390fd5b61264d3033845f015461274a565b3373ffffffffffffffffffffffffffffffffffffffff166001547fd33ef6ab06e6bf8672161aa6abe1ec1791c393d62213ebd89c67f611e538e575346040516126969190612b3d565b60405180910390a3505060015f81905550565b5f60025f60015481526020019081526020015f2090505f73ffffffffffffffffffffffffffffffffffffffff16816001015f9054906101000a900473ffffffffffffffffffffffffffffffffffffffff1673ffffffffffffffffffffffffffffffffffffffff1603612747576040517f568ca25700000000000000000000000000000000000000000000000000000000815260040160405180910390fd5b90565b8273ffffffffffffffffffffffffffffffffffffffff167f000000000000000000000000000000000000000000000000000000000000000073ffffffffffffffffffffffffffffffffffffffff16636352211e836040518263ffffffff1660e01b81526004016127ba9190612b3d565b602060405180830381865afa1580156127d5573d5f5f3e3d5ffd5b505050506040513d601f19601f820116820180604052508101906127f9919061338b565b73ffffffffffffffffffffffffffffffffffffffff161461284f576040517f08c379a000000000000000000000000000000000000000000000000000000000815260040161284690613662565b60405180910390fd5b3073ffffffffffffffffffffffffffffffffffffffff167f000000000000000000000000000000000000000000000000000000000000000073ffffffffffffffffffffffffffffffffffffffff1663081812fc836040518263ffffffff1660e01b81526004016128bf9190612b3d565b602060405180830381865afa1580156128da573d5f5f3e3d5ffd5b505050506040513d601f19601f820116820180604052508101906128fe919061338b565b73ffffffffffffffffffffffffffffffffffffffff1614806129b657507f000000000000000000000000000000000000000000000000000000000000000073ffffffffffffffffffffffffffffffffffffffff1663e985e9c584306040518363ffffffff1660e01b8152600401612976929190613680565b602060405180830381865afa158015612991573d5f5f3e3d5ffd5b505050506040513d601f19601f820116820180604052508101906129b591906136dc565b5b6129f5576040517f08c379a00000000000000000000000000000000000000000000000000000000081526004016129ec90613751565b60405180910390fd5b7f000000000000000000000000000000000000000000000000000000000000000073ffffffffffffffffffffffffffffffffffffffff166342842e0e8484846040518463ffffffff1660e01b8152600401612a529392919061376f565b5f604051808303815f87803b158015612a69575f5ffd5b505af1158015612a7b573d5f5f3e3d5ffd5b50505050505050565b5f60025f8381526020019081526020015f2090505f73ffffffffffffffffffffffffffffffffffffffff16816001015f9054906101000a900473ffffffffffffffffffffffffffffffffffffffff1673ffffffffffffffffffffffffffffffffffffffff1603612b20576040517f568ca25700000000000000000000000000000000000000000000000000000000815260040160405180910390fd5b919050565b5f819050919050565b612b3781612b25565b82525050565b5f602082019050612b505f830184612b2e565b92915050565b5f73ffffffffffffffffffffffffffffffffffffffff82169050919050565b5f612b7f82612b56565b9050919050565b612b8f81612b75565b82525050565b5f602082019050612ba85f830184612b86565b92915050565b5f819050919050565b5f612bd1612bcc612bc784612b56565b612bae565b612b56565b9050919050565b5f612be282612bb7565b9050919050565b5f612bf382612bd8565b9050919050565b612c0381612be9565b82525050565b5f602082019050612c1c5f830184612bfa565b92915050565b5f5ffd5b612c2f81612b25565b8114612c39575f5ffd5b50565b5f81359050612c4a81612c26565b92915050565b5f819050919050565b612c6281612c50565b8114612c6c575f5ffd5b50565b5f81359050612c7d81612c59565b92915050565b5f5f60408385031215612c9957612c98612c22565b5b5f612ca685828601612c3c565b9250506020612cb785828601612c6f565b9150509250929050565b5f60208284031215612cd657612cd5612c22565b5b5f612ce384828501612c3c565b91505092915050565b5f67ffffffffffffffff82169050919050565b612d0881612cec565b82525050565b5f606082019050612d215f830186612b86565b612d2e6020830185612b2e565b612d3b6040830184612cff565b949350505050565b612d4c81612b75565b8114612d56575f5ffd5b50565b5f81359050612d6781612d43565b92915050565b5f5f60408385031215612d8357612d82612c22565b5b5f612d9085828601612c3c565b9250506020612da185828601612d59565b9150509250929050565b5f60208284031215612dc057612dbf612c22565b5b5f612dcd84828501612c6f565b91505092915050565b612ddf81612cec565b8114612de9575f5ffd5b50565b5f81359050612dfa81612dd6565b92915050565b5f5f5f5f5f60a08688031215612e1957612e18612c22565b5b5f612e2688828901612c3c565b9550506020612e3788828901612c3c565b9450506040612e4888828901612dec565b9350506060612e5988828901612dec565b9250506080612e6a88828901612dec565b9150509295509295909350565b612e8081612c50565b82525050565b5f602082019050612e995f830184612e77565b92915050565b5f81519050919050565b5f82825260208201905092915050565b8281835e5f83830152505050565b5f601f19601f8301169050919050565b5f612ee182612e9f565b612eeb8185612ea9565b9350612efb818560208601612eb9565b612f0481612ec7565b840191505092915050565b5f6020820190508181035f830152612f278184612ed7565b905092915050565b5f602082019050612f425f830184612cff565b92915050565b5f606082019050612f5b5f830186612cff565b612f686020830185612cff565b612f756040830184612cff565b949350505050565b7f616c72656164792066696e616c697a65640000000000000000000000000000005f82015250565b5f612fb1601183612ea9565b9150612fbc82612f7d565b602082019050919050565b5f6020820190508181035f830152612fde81612fa5565b9050919050565b7f4e487b71000000000000000000000000000000000000000000000000000000005f52601160045260245ffd5b5f61301c82612b25565b915061302783612b25565b925082820390508181111561303f5761303e612fe5565b5b92915050565b5f61304f82612cec565b915061305a83612cec565b9250828201905067ffffffffffffffff81111561307a57613079612fe5565b5b92915050565b5f6080820190506130935f830187612b86565b6130a06020830186612b2e565b6130ad6040830185612b2e565b6130ba6060830184612b2e565b95945050505050565b5f819050919050565b6130dd6130d882612b25565b6130c3565b82525050565b5f819050919050565b6130fd6130f882612c50565b6130e3565b82525050565b5f61310e82856130cc565b60208201915061311e82846130ec565b6020820191508190509392505050565b7f5245454e5452414e4359000000000000000000000000000000000000000000005f82015250565b5f613162600a83612ea9565b915061316d8261312e565b602082019050919050565b5f6020820190508181035f83015261318f81613156565b9050919050565b5f81905092915050565b50565b5f6131ae5f83613196565b91506131b9826131a0565b5f82019050919050565b5f6131cd826131a3565b9150819050919050565b7f70726576696f7573206e6f7420656e64656400000000000000000000000000005f82015250565b5f61320b601283612ea9565b9150613216826131d7565b602082019050919050565b5f6020820190508181035f830152613238816131ff565b9050919050565b7f434f4e4649473a2062616420636f6d6d6974206475726174696f6e73000000005f82015250565b5f613273601c83612ea9565b915061327e8261323f565b602082019050919050565b5f6020820190508181035f8301526132a081613267565b9050919050565b7f434f4e4649473a206261642072657665616c206475726174696f6e73000000005f82015250565b5f6132db601c83612ea9565b91506132e6826132a7565b602082019050919050565b5f6020820190508181035f830152613308816132cf565b9050919050565b7f434f4e4649473a206261642072657365727665207072696365000000000000005f82015250565b5f613343601983612ea9565b915061334e8261330f565b602082019050919050565b5f6020820190508181035f83015261337081613337565b9050919050565b5f8151905061338581612d43565b92915050565b5f602082840312156133a05761339f612c22565b5b5f6133ad84828501613377565b91505092915050565b7f6e6f74206f776e657200000000000000000000000000000000000000000000005f82015250565b5f6133ea600983612ea9565b91506133f5826133b6565b602082019050919050565b5f6020820190508181035f830152613417816133de565b9050919050565b5f61342882612b25565b915061343383612b25565b925082820190508082111561344b5761344a612fe5565b5b92915050565b5f61346b61346661346184612cec565b612bae565b612b25565b9050919050565b61347b81613451565b82525050565b5f60c0820190506134945f830189612b2e565b6134a16020830188612b2e565b6134ae6040830187613472565b6134bb6060830186612cff565b6134c86080830185612cff565b6134d560a0830184612cff565b979650505050505050565b7f7374696c6c2070617961626c652077696e646f770000000000000000000000005f82015250565b5f613514601483612ea9565b915061351f826134e0565b602082019050919050565b5f6020820190508181035f83015261354181613508565b9050919050565b7f7769746864726177206661696c656400000000000000000000000000000000005f82015250565b5f61357c600f83612ea9565b915061358782613548565b602082019050919050565b5f6020820190508181035f8301526135a981613570565b9050919050565b7f7061792073656c6c6572206661696c65640000000000000000000000000000005f82015250565b5f6135e4601183612ea9565b91506135ef826135b0565b602082019050919050565b5f6020820190508181035f830152613611816135d8565b9050919050565b7f4e46543a206e6f74206f776e65720000000000000000000000000000000000005f82015250565b5f61364c600e83612ea9565b915061365782613618565b602082019050919050565b5f6020820190508181035f83015261367981613640565b9050919050565b5f6040820190506136935f830185612b86565b6136a06020830184612b86565b9392505050565b5f8115159050919050565b6136bb816136a7565b81146136c5575f5ffd5b50565b5f815190506136d6816136b2565b92915050565b5f602082840312156136f1576136f0612c22565b5b5f6136fe848285016136c8565b91505092915050565b7f4e46543a206e6f7420617070726f7665640000000000000000000000000000005f82015250565b5f61373b601183612ea9565b915061374682613707565b602082019050919050565b5f6020820190508181035f8301526137688161372f565b9050919050565b5f6060820190506137825f830186612b86565b61378f6020830185612b86565b61379c6040830184612b2e565b94935050505056fea264697066735822122044c744ece69828faa84f60afb6fad3f0bc19c86e450cdb559fde39f87fa3bfd864736f6c634300081e0033",
					"opcodes": "PUSH1 0xA0 PUSH1 0x40 MSTORE PUSH1 0x1 PUSH0 SSTORE PUSH20 0x1546BD67237122754D3F0CB761C139F81388B210 PUSH20 0xFFFFFFFFFFFFFFFFFFFFFFFFFFFFFFFFFFFFFFFF AND PUSH1 0x80 SWAP1 PUSH20 0xFFFFFFFFFFFFFFFFFFFFFFFFFFFFFFFFFFFFFFFF AND DUP2 MSTORE POP CALLVALUE DUP1 ISZERO PUSH2 0x5A JUMPI PUSH0 PUSH0 REVERT JUMPDEST POP PUSH1 0x80 MLOAD PUSH2 0x37DA PUSH2 0x9D PUSH0 CODECOPY PUSH0 DUP2 DUP2 PUSH2 0x7E7 ADD MSTORE DUP2 DUP2 PUSH2 0x18A9 ADD MSTORE DUP2 DUP2 PUSH2 0x1B00 ADD MSTORE DUP2 DUP2 PUSH2 0x2763 ADD MSTORE DUP2 DUP2 PUSH2 0x2868 ADD MSTORE DUP2 DUP2 PUSH2 0x291D ADD MSTORE PUSH2 0x29F7 ADD MSTORE PUSH2 0x37DA PUSH0 RETURN INVALID PUSH1 0x80 PUSH1 0x40 MSTORE PUSH1 0x4 CALLDATASIZE LT PUSH2 0x11E JUMPI PUSH0 CALLDATALOAD PUSH1 0xE0 SHR DUP1 PUSH4 0x86A2CC27 GT PUSH2 0x9F JUMPI DUP1 PUSH4 0xC8F97366 GT PUSH2 0x63 JUMPI DUP1 PUSH4 0xC8F97366 EQ PUSH2 0x3A6 JUMPI DUP1 PUSH4 0xD3851F4C EQ PUSH2 0x3CE JUMPI DUP1 PUSH4 0xD3AA699E EQ PUSH2 0x40A JUMPI DUP1 PUSH4 0xDE75A5C0 EQ PUSH2 0x448 JUMPI DUP1 PUSH4 0xE9906F2E EQ PUSH2 0x484 JUMPI PUSH2 0x11E JUMP JUMPDEST DUP1 PUSH4 0x86A2CC27 EQ PUSH2 0x2C0 JUMPI DUP1 PUSH4 0x894DA478 EQ PUSH2 0x2DC JUMPI DUP1 PUSH4 0x89FB2682 EQ PUSH2 0x304 JUMPI DUP1 PUSH4 0xB1724B46 EQ PUSH2 0x340 JUMPI DUP1 PUSH4 0xB1FB6405 EQ PUSH2 0x36A JUMPI PUSH2 0x11E JUMP JUMPDEST DUP1 PUSH4 0x62C5424A GT PUSH2 0xE6 JUMPI DUP1 PUSH4 0x62C5424A EQ PUSH2 0x1E0 JUMPI DUP1 PUSH4 0x6B1DA364 EQ PUSH2 0x208 JUMPI DUP1 PUSH4 0x71D946B4 EQ PUSH2 0x246 JUMPI DUP1 PUSH4 0x7CF2ED22 EQ PUSH2 0x26E JUMPI DUP1 PUSH4 0x813ABC2D EQ PUSH2 0x284 JUMPI PUSH2 0x11E JUMP JUMPDEST DUP1 PUSH4 0x1C11D96 EQ PUSH2 0x122 JUMPI DUP1 PUSH4 0x10782F8F EQ PUSH2 0x14C JUMPI DUP1 PUSH4 0x31768238 EQ PUSH2 0x176 JUMPI DUP1 PUSH4 0x4BB278F3 EQ PUSH2 0x1A0 JUMPI DUP1 PUSH4 0x5E7721F7 EQ PUSH2 0x1B6 JUMPI JUMPDEST PUSH0 PUSH0 REVERT JUMPDEST CALLVALUE DUP1 ISZERO PUSH2 0x12D JUMPI PUSH0 PUSH0 REVERT JUMPDEST POP PUSH2 0x136 PUSH2 0x48E JUMP JUMPDEST PUSH1 0x40 MLOAD PUSH2 0x143 SWAP2 SWAP1 PUSH2 0x2B3D JUMP JUMPDEST PUSH1 0x40 MLOAD DUP1 SWAP2 SUB SWAP1 RETURN JUMPDEST CALLVALUE DUP1 ISZERO PUSH2 0x157 JUMPI PUSH0 PUSH0 REVERT JUMPDEST POP PUSH2 0x160 PUSH2 0x49E JUMP JUMPDEST PUSH1 0x40 MLOAD PUSH2 0x16D SWAP2 SWAP1 PUSH2 0x2B3D JUMP JUMPDEST PUSH1 0x40 MLOAD DUP1 SWAP2 SUB SWAP1 RETURN JUMPDEST CALLVALUE DUP1 ISZERO PUSH2 0x181 JUMPI PUSH0 PUSH0 REVERT JUMPDEST POP PUSH2 0x18A PUSH2 0x4A4 JUMP JUMPDEST PUSH1 0x40 MLOAD PUSH2 0x197 SWAP2 SWAP1 PUSH2 0x2B95 JUMP JUMPDEST PUSH1 0x40 MLOAD DUP1 SWAP2 SUB SWAP1 RETURN JUMPDEST CALLVALUE DUP1 ISZERO PUSH2 0x1AB JUMPI PUSH0 PUSH0 REVERT JUMPDEST POP PUSH2 0x1B4 PUSH2 0x4BC JUMP JUMPDEST STOP JUMPDEST CALLVALUE DUP1 ISZERO PUSH2 0x1C1 JUMPI PUSH0 PUSH0 REVERT JUMPDEST POP PUSH2 0x1CA PUSH2 0x7E5 JUMP JUMPDEST PUSH1 0x40 MLOAD PUSH2 0x1D7 SWAP2 SWAP1 PUSH2 0x2C09 JUMP JUMPDEST PUSH1 0x40 MLOAD DUP1 SWAP2 SUB SWAP1 RETURN JUMPDEST CALLVALUE DUP1 ISZERO PUSH2 0x1EB JUMPI PUSH0 PUSH0 REVERT JUMPDEST POP PUSH2 0x206 PUSH1 0x4 DUP1 CALLDATASIZE SUB DUP2 ADD SWAP1 PUSH2 0x201 SWAP2 SWAP1 PUSH2 0x2C83 JUMP JUMPDEST PUSH2 0x809 JUMP JUMPDEST STOP JUMPDEST CALLVALUE DUP1 ISZERO PUSH2 0x213 JUMPI PUSH0 PUSH0 REVERT JUMPDEST POP PUSH2 0x22E PUSH1 0x4 DUP1 CALLDATASIZE SUB DUP2 ADD SWAP1 PUSH2 0x229 SWAP2 SWAP1 PUSH2 0x2CC1 JUMP JUMPDEST PUSH2 0xCF0 JUMP JUMPDEST PUSH1 0x40 MLOAD PUSH2 0x23D SWAP4 SWAP3 SWAP2 SWAP1 PUSH2 0x2D0E JUMP JUMPDEST PUSH1 0x40 MLOAD DUP1 SWAP2 SUB SWAP1 RETURN JUMPDEST CALLVALUE DUP1 ISZERO PUSH2 0x251 JUMPI PUSH0 PUSH0 REVERT JUMPDEST POP PUSH2 0x26C PUSH1 0x4 DUP1 CALLDATASIZE SUB DUP2 ADD SWAP1 PUSH2 0x267 SWAP2 SWAP1 PUSH2 0x2CC1 JUMP JUMPDEST PUSH2 0xD4F JUMP JUMPDEST STOP JUMPDEST CALLVALUE DUP1 ISZERO PUSH2 0x279 JUMPI PUSH0 PUSH0 REVERT JUMPDEST POP PUSH2 0x282 PUSH2 0x1063 JUMP JUMPDEST STOP JUMPDEST CALLVALUE DUP1 ISZERO PUSH2 0x28F JUMPI PUSH0 PUSH0 REVERT JUMPDEST POP PUSH2 0x2AA PUSH1 0x4 DUP1 CALLDATASIZE SUB DUP2 ADD SWAP1 PUSH2 0x2A5 SWAP2 SWAP1 PUSH2 0x2D6D JUMP JUMPDEST PUSH2 0x1375 JUMP JUMPDEST PUSH1 0x40 MLOAD PUSH2 0x2B7 SWAP2 SWAP1 PUSH2 0x2B3D JUMP JUMPDEST PUSH1 0x40 MLOAD DUP1 SWAP2 SUB SWAP1 RETURN JUMPDEST PUSH2 0x2DA PUSH1 0x4 DUP1 CALLDATASIZE SUB DUP2 ADD SWAP1 PUSH2 0x2D5 SWAP2 SWAP1 PUSH2 0x2DAB JUMP JUMPDEST PUSH2 0x13CB JUMP JUMPDEST STOP JUMPDEST CALLVALUE DUP1 ISZERO PUSH2 0x2E7 JUMPI PUSH0 PUSH0 REVERT JUMPDEST POP PUSH2 0x302 PUSH1 0x4 DUP1 CALLDATASIZE SUB DUP2 ADD SWAP1 PUSH2 0x2FD SWAP2 SWAP1 PUSH2 0x2E00 JUMP JUMPDEST PUSH2 0x16FC JUMP JUMPDEST STOP JUMPDEST CALLVALUE DUP1 ISZERO PUSH2 0x30F JUMPI PUSH0 PUSH0 REVERT JUMPDEST POP PUSH2 0x32A PUSH1 0x4 DUP1 CALLDATASIZE SUB DUP2 ADD SWAP1 PUSH2 0x325 SWAP2 SWAP1 PUSH2 0x2D6D JUMP JUMPDEST PUSH2 0x1BF8 JUMP JUMPDEST PUSH1 0x40 MLOAD PUSH2 0x337 SWAP2 SWAP1 PUSH2 0x2E86 JUMP JUMPDEST PUSH1 0x40 MLOAD DUP1 SWAP2 SUB SWAP1 RETURN JUMPDEST CALLVALUE DUP1 ISZERO PUSH2 0x34B JUMPI PUSH0 PUSH0 REVERT JUMPDEST POP PUSH2 0x354 PUSH2 0x1C4E JUMP JUMPDEST PUSH1 0x40 MLOAD PUSH2 0x361 SWAP2 SWAP1 PUSH2 0x2B3D JUMP JUMPDEST PUSH1 0x40 MLOAD DUP1 SWAP2 SUB SWAP1 RETURN JUMPDEST CALLVALUE DUP1 ISZERO PUSH2 0x375 JUMPI PUSH0 PUSH0 REVERT JUMPDEST POP PUSH2 0x390 PUSH1 0x4 DUP1 CALLDATASIZE SUB DUP2 ADD SWAP1 PUSH2 0x38B SWAP2 SWAP1 PUSH2 0x2CC1 JUMP JUMPDEST PUSH2 0x1C55 JUMP JUMPDEST PUSH1 0x40 MLOAD PUSH2 0x39D SWAP2 SWAP1 PUSH2 0x2F0F JUMP JUMPDEST PUSH1 0x40 MLOAD DUP1 SWAP2 SUB SWAP1 RETURN JUMPDEST CALLVALUE DUP1 ISZERO PUSH2 0x3B1 JUMPI PUSH0 PUSH0 REVERT JUMPDEST POP PUSH2 0x3CC PUSH1 0x4 DUP1 CALLDATASIZE SUB DUP2 ADD SWAP1 PUSH2 0x3C7 SWAP2 SWAP1 PUSH2 0x2CC1 JUMP JUMPDEST PUSH2 0x1F1B JUMP JUMPDEST STOP JUMPDEST CALLVALUE DUP1 ISZERO PUSH2 0x3D9 JUMPI PUSH0 PUSH0 REVERT JUMPDEST POP PUSH2 0x3F4 PUSH1 0x4 DUP1 CALLDATASIZE SUB DUP2 ADD SWAP1 PUSH2 0x3EF SWAP2 SWAP1 PUSH2 0x2D6D JUMP JUMPDEST PUSH2 0x2253 JUMP JUMPDEST PUSH1 0x40 MLOAD PUSH2 0x401 SWAP2 SWAP1 PUSH2 0x2F2F JUMP JUMPDEST PUSH1 0x40 MLOAD DUP1 SWAP2 SUB SWAP1 RETURN JUMPDEST CALLVALUE DUP1 ISZERO PUSH2 0x415 JUMPI PUSH0 PUSH0 REVERT JUMPDEST POP PUSH2 0x430 PUSH1 0x4 DUP1 CALLDATASIZE SUB DUP2 ADD SWAP1 PUSH2 0x42B SWAP2 SWAP1 PUSH2 0x2CC1 JUMP JUMPDEST PUSH2 0x22BC JUMP JUMPDEST PUSH1 0x40 MLOAD PUSH2 0x43F SWAP4 SWAP3 SWAP2 SWAP1 PUSH2 0x2F48 JUMP JUMPDEST PUSH1 0x40 MLOAD DUP1 SWAP2 SUB SWAP1 RETURN JUMPDEST CALLVALUE DUP1 ISZERO PUSH2 0x453 JUMPI PUSH0 PUSH0 REVERT JUMPDEST POP PUSH2 0x46E PUSH1 0x4 DUP1 CALLDATASIZE SUB DUP2 ADD SWAP1 PUSH2 0x469 SWAP2 SWAP1 PUSH2 0x2D6D JUMP JUMPDEST PUSH2 0x2323 JUMP JUMPDEST PUSH1 0x40 MLOAD PUSH2 0x47B SWAP2 SWAP1 PUSH2 0x2B3D JUMP JUMPDEST PUSH1 0x40 MLOAD DUP1 SWAP2 SUB SWAP1 RETURN JUMPDEST PUSH2 0x48C PUSH2 0x2379 JUMP JUMPDEST STOP JUMPDEST PUSH12 0x33B2E3C9FD0803CE8000000 DUP2 JUMP JUMPDEST PUSH1 0x1 SLOAD DUP2 JUMP JUMPDEST PUSH20 0x1546BD67237122754D3F0CB761C139F81388B210 DUP2 JUMP JUMPDEST PUSH0 PUSH2 0x4C5 PUSH2 0x26A9 JUMP JUMPDEST SWAP1 POP DUP1 PUSH1 0x3 ADD PUSH1 0x10 SWAP1 SLOAD SWAP1 PUSH2 0x100 EXP SWAP1 DIV PUSH8 0xFFFFFFFFFFFFFFFF AND PUSH8 0xFFFFFFFFFFFFFFFF AND TIMESTAMP LT ISZERO PUSH2 0x522 JUMPI PUSH1 0x40 MLOAD PUSH31 0xE8F46600000000000000000000000000000000000000000000000000000000 DUP2 MSTORE PUSH1 0x4 ADD PUSH1 0x40 MLOAD DUP1 SWAP2 SUB SWAP1 REVERT JUMPDEST DUP1 PUSH1 0x8 ADD PUSH0 SWAP1 SLOAD SWAP1 PUSH2 0x100 EXP SWAP1 DIV PUSH1 0xFF AND ISZERO PUSH2 0x573 JUMPI PUSH1 0x40 MLOAD PUSH32 0x8C379A000000000000000000000000000000000000000000000000000000000 DUP2 MSTORE PUSH1 0x4 ADD PUSH2 0x56A SWAP1 PUSH2 0x2FC7 JUMP JUMPDEST PUSH1 0x40 MLOAD DUP1 SWAP2 SUB SWAP1 REVERT JUMPDEST PUSH0 PUSH20 0xFFFFFFFFFFFFFFFFFFFFFFFFFFFFFFFFFFFFFFFF AND DUP2 PUSH1 0x4 ADD PUSH1 0x8 SWAP1 SLOAD SWAP1 PUSH2 0x100 EXP SWAP1 DIV PUSH20 0xFFFFFFFFFFFFFFFFFFFFFFFFFFFFFFFFFFFFFFFF AND PUSH20 0xFFFFFFFFFFFFFFFFFFFFFFFFFFFFFFFFFFFFFFFF AND SUB PUSH2 0x672 JUMPI PUSH1 0x1 DUP2 PUSH1 0x8 ADD PUSH0 PUSH2 0x100 EXP DUP2 SLOAD DUP2 PUSH1 0xFF MUL NOT AND SWAP1 DUP4 ISZERO ISZERO MUL OR SWAP1 SSTORE POP PUSH1 0x1 DUP2 PUSH1 0x8 ADD PUSH1 0x1 PUSH2 0x100 EXP DUP2 SLOAD DUP2 PUSH1 0xFF MUL NOT AND SWAP1 DUP4 ISZERO ISZERO MUL OR SWAP1 SSTORE POP PUSH0 DUP2 PUSH1 0x7 ADD DUP2 SWAP1 SSTORE POP PUSH2 0x63D ADDRESS DUP3 PUSH1 0x1 ADD PUSH0 SWAP1 SLOAD SWAP1 PUSH2 0x100 EXP SWAP1 DIV PUSH20 0xFFFFFFFFFFFFFFFFFFFFFFFFFFFFFFFFFFFFFFFF AND DUP4 PUSH0 ADD SLOAD PUSH2 0x274A JUMP JUMPDEST PUSH1 0x1 SLOAD PUSH32 0xA761D07FDB0A6897F18726F15D43008D6C30CE08E44A91775CFD2EF3B61CDAD0 PUSH1 0x40 MLOAD PUSH1 0x40 MLOAD DUP1 SWAP2 SUB SWAP1 LOG2 POP PUSH2 0x7E3 JUMP JUMPDEST PUSH0 DUP2 PUSH1 0x2 ADD SLOAD DUP3 PUSH1 0x6 ADD SLOAD LT PUSH2 0x68C JUMPI DUP2 PUSH1 0x6 ADD SLOAD PUSH2 0x692 JUMP JUMPDEST DUP2 PUSH1 0x2 ADD SLOAD JUMPDEST SWAP1 POP DUP2 PUSH1 0xB ADD PUSH0 DUP4 PUSH1 0x4 ADD PUSH1 0x8 SWAP1 SLOAD SWAP1 PUSH2 0x100 EXP SWAP1 DIV PUSH20 0xFFFFFFFFFFFFFFFFFFFFFFFFFFFFFFFFFFFFFFFF AND PUSH20 0xFFFFFFFFFFFFFFFFFFFFFFFFFFFFFFFFFFFFFFFF AND PUSH20 0xFFFFFFFFFFFFFFFFFFFFFFFFFFFFFFFFFFFFFFFF AND DUP2 MSTORE PUSH1 0x20 ADD SWAP1 DUP2 MSTORE PUSH1 0x20 ADD PUSH0 KECCAK256 SLOAD DUP2 PUSH2 0x703 SWAP2 SWAP1 PUSH2 0x3012 JUMP JUMPDEST DUP3 PUSH1 0x7 ADD DUP2 SWAP1 SSTORE POP PUSH1 0x1 DUP3 PUSH1 0x8 ADD PUSH0 PUSH2 0x100 EXP DUP2 SLOAD DUP2 PUSH1 0xFF MUL NOT AND SWAP1 DUP4 ISZERO ISZERO MUL OR SWAP1 SSTORE POP DUP2 PUSH1 0x3 ADD PUSH1 0x18 SWAP1 SLOAD SWAP1 PUSH2 0x100 EXP SWAP1 DIV PUSH8 0xFFFFFFFFFFFFFFFF AND TIMESTAMP PUSH2 0x74B SWAP2 SWAP1 PUSH2 0x3045 JUMP JUMPDEST DUP3 PUSH1 0x4 ADD PUSH0 PUSH2 0x100 EXP DUP2 SLOAD DUP2 PUSH8 0xFFFFFFFFFFFFFFFF MUL NOT AND SWAP1 DUP4 PUSH8 0xFFFFFFFFFFFFFFFF AND MUL OR SWAP1 SSTORE POP PUSH1 0x1 SLOAD PUSH32 0x5AB4254A16D8F1486E035342F3B6736A5EFDC0B79886E7525B374BB0EC9EBEE1 DUP4 PUSH1 0x4 ADD PUSH1 0x8 SWAP1 SLOAD SWAP1 PUSH2 0x100 EXP SWAP1 DIV PUSH20 0xFFFFFFFFFFFFFFFFFFFFFFFFFFFFFFFFFFFFFFFF AND DUP5 PUSH1 0x5 ADD SLOAD DUP6 PUSH1 0x6 ADD SLOAD DUP6 PUSH1 0x40 MLOAD PUSH2 0x7D8 SWAP5 SWAP4 SWAP3 SWAP2 SWAP1 PUSH2 0x3080 JUMP JUMPDEST PUSH1 0x40 MLOAD DUP1 SWAP2 SUB SWAP1 LOG2 POP POP JUMPDEST JUMP JUMPDEST PUSH32 0x0 DUP2 JUMP JUMPDEST PUSH0 PUSH2 0x812 PUSH2 0x26A9 JUMP JUMPDEST SWAP1 POP PUSH0 TIMESTAMP SWAP1 POP DUP2 PUSH1 0x3 ADD PUSH1 0x8 SWAP1 SLOAD SWAP1 PUSH2 0x100 EXP SWAP1 DIV PUSH8 0xFFFFFFFFFFFFFFFF AND PUSH8 0xFFFFFFFFFFFFFFFF AND DUP2 LT DUP1 PUSH2 0x86A JUMPI POP DUP2 PUSH1 0x3 ADD PUSH1 0x10 SWAP1 SLOAD SWAP1 PUSH2 0x100 EXP SWAP1 DIV PUSH8 0xFFFFFFFFFFFFFFFF AND PUSH8 0xFFFFFFFFFFFFFFFF AND DUP2 LT ISZERO JUMPDEST ISZERO PUSH2 0x8A1 JUMPI PUSH1 0x40 MLOAD PUSH32 0x74683D7100000000000000000000000000000000000000000000000000000000 DUP2 MSTORE PUSH1 0x4 ADD PUSH1 0x40 MLOAD DUP1 SWAP2 SUB SWAP1 REVERT JUMPDEST PUSH0 DUP3 PUSH1 0xC ADD PUSH0 CALLER PUSH20 0xFFFFFFFFFFFFFFFFFFFFFFFFFFFFFFFFFFFFFFFF AND PUSH20 0xFFFFFFFFFFFFFFFFFFFFFFFFFFFFFFFFFFFFFFFF AND DUP2 MSTORE PUSH1 0x20 ADD SWAP1 DUP2 MSTORE PUSH1 0x20 ADD PUSH0 KECCAK256 SLOAD EQ PUSH2 0x919 JUMPI PUSH1 0x40 MLOAD PUSH32 0x157330EE00000000000000000000000000000000000000000000000000000000 DUP2 MSTORE PUSH1 0x4 ADD PUSH1 0x40 MLOAD DUP1 SWAP2 SUB SWAP1 REVERT JUMPDEST PUSH0 DUP3 PUSH1 0x9 ADD PUSH0 CALLER PUSH20 0xFFFFFFFFFFFFFFFFFFFFFFFFFFFFFFFFFFFFFFFF AND PUSH20 0xFFFFFFFFFFFFFFFFFFFFFFFFFFFFFFFFFFFFFFFF AND DUP2 MSTORE PUSH1 0x20 ADD SWAP1 DUP2 MSTORE PUSH1 0x20 ADD PUSH0 KECCAK256 SLOAD SWAP1 POP PUSH0 PUSH0 SHL DUP2 SUB PUSH2 0x997 JUMPI PUSH1 0x40 MLOAD PUSH32 0xC06789FA00000000000000000000000000000000000000000000000000000000 DUP2 MSTORE PUSH1 0x4 ADD PUSH1 0x40 MLOAD DUP1 SWAP2 SUB SWAP1 REVERT JUMPDEST DUP1 DUP6 DUP6 PUSH1 0x40 MLOAD PUSH1 0x20 ADD PUSH2 0x9AB SWAP3 SWAP2 SWAP1 PUSH2 0x3103 JUMP JUMPDEST PUSH1 0x40 MLOAD PUSH1 0x20 DUP2 DUP4 SUB SUB DUP2 MSTORE SWAP1 PUSH1 0x40 MSTORE DUP1 MLOAD SWAP1 PUSH1 0x20 ADD KECCAK256 EQ PUSH2 0x9F8 JUMPI PUSH1 0x40 MLOAD PUSH32 0xC06789FA00000000000000000000000000000000000000000000000000000000 DUP2 MSTORE PUSH1 0x4 ADD PUSH1 0x40 MLOAD DUP1 SWAP2 SUB SWAP1 REVERT JUMPDEST DUP5 DUP4 PUSH1 0xC ADD PUSH0 CALLER PUSH20 0xFFFFFFFFFFFFFFFFFFFFFFFFFFFFFFFFFFFFFFFF AND PUSH20 0xFFFFFFFFFFFFFFFFFFFFFFFFFFFFFFFFFFFFFFFF AND DUP2 MSTORE PUSH1 0x20 ADD SWAP1 DUP2 MSTORE PUSH1 0x20 ADD PUSH0 KECCAK256 DUP2 SWAP1 SSTORE POP DUP3 PUSH1 0x2 ADD SLOAD DUP6 LT ISZERO PUSH2 0xA7A JUMPI PUSH1 0x40 MLOAD PUSH32 0x6B317D5600000000000000000000000000000000000000000000000000000000 DUP2 MSTORE PUSH1 0x4 ADD PUSH1 0x40 MLOAD DUP1 SWAP2 SUB SWAP1 REVERT JUMPDEST DUP3 PUSH1 0x5 ADD SLOAD DUP6 GT ISZERO PUSH2 0xB3C JUMPI PUSH0 PUSH20 0xFFFFFFFFFFFFFFFFFFFFFFFFFFFFFFFFFFFFFFFF AND DUP4 PUSH1 0x4 ADD PUSH1 0x8 SWAP1 SLOAD SWAP1 PUSH2 0x100 EXP SWAP1 DIV PUSH20 0xFFFFFFFFFFFFFFFFFFFFFFFFFFFFFFFFFFFFFFFF AND PUSH20 0xFFFFFFFFFFFFFFFFFFFFFFFFFFFFFFFFFFFFFFFF AND EQ PUSH2 0xAEB JUMPI DUP3 PUSH1 0x5 ADD SLOAD DUP4 PUSH1 0x6 ADD DUP2 SWAP1 SSTORE POP JUMPDEST DUP5 DUP4 PUSH1 0x5 ADD DUP2 SWAP1 SSTORE POP CALLER DUP4 PUSH1 0x4 ADD PUSH1 0x8 PUSH2 0x100 EXP DUP2 SLOAD DUP2 PUSH20 0xFFFFFFFFFFFFFFFFFFFFFFFFFFFFFFFFFFFFFFFF MUL NOT AND SWAP1 DUP4 PUSH20 0xFFFFFFFFFFFFFFFFFFFFFFFFFFFFFFFFFFFFFFFF AND MUL OR SWAP1 SSTORE POP PUSH2 0xC98 JUMP JUMPDEST DUP3 PUSH1 0x5 ADD SLOAD DUP6 EQ DUP1 ISZERO PUSH2 0xC2A JUMPI POP DUP3 PUSH1 0xA ADD PUSH0 DUP5 PUSH1 0x4 ADD PUSH1 0x8 SWAP1 SLOAD SWAP1 PUSH2 0x100 EXP SWAP1 DIV PUSH20 0xFFFFFFFFFFFFFFFFFFFFFFFFFFFFFFFFFFFFFFFF AND PUSH20 0xFFFFFFFFFFFFFFFFFFFFFFFFFFFFFFFFFFFFFFFF AND PUSH20 0xFFFFFFFFFFFFFFFFFFFFFFFFFFFFFFFFFFFFFFFF AND DUP2 MSTORE PUSH1 0x20 ADD SWAP1 DUP2 MSTORE PUSH1 0x20 ADD PUSH0 KECCAK256 PUSH0 SWAP1 SLOAD SWAP1 PUSH2 0x100 EXP SWAP1 DIV PUSH8 0xFFFFFFFFFFFFFFFF AND PUSH8 0xFFFFFFFFFFFFFFFF AND DUP4 PUSH1 0xA ADD PUSH0 CALLER PUSH20 0xFFFFFFFFFFFFFFFFFFFFFFFFFFFFFFFFFFFFFFFF AND PUSH20 0xFFFFFFFFFFFFFFFFFFFFFFFFFFFFFFFFFFFFFFFF AND DUP2 MSTORE PUSH1 0x20 ADD SWAP1 DUP2 MSTORE PUSH1 0x20 ADD PUSH0 KECCAK256 PUSH0 SWAP1 SLOAD SWAP1 PUSH2 0x100 EXP SWAP1 DIV PUSH8 0xFFFFFFFFFFFFFFFF AND PUSH8 0xFFFFFFFFFFFFFFFF AND LT JUMPDEST ISZERO PUSH2 0xC80 JUMPI DUP5 DUP4 PUSH1 0x5 ADD DUP2 SWAP1 SSTORE POP CALLER DUP4 PUSH1 0x4 ADD PUSH1 0x8 PUSH2 0x100 EXP DUP2 SLOAD DUP2 PUSH20 0xFFFFFFFFFFFFFFFFFFFFFFFFFFFFFFFFFFFFFFFF MUL NOT AND SWAP1 DUP4 PUSH20 0xFFFFFFFFFFFFFFFFFFFFFFFFFFFFFFFFFFFFFFFF AND MUL OR SWAP1 SSTORE POP PUSH2 0xC97 JUMP JUMPDEST DUP3 PUSH1 0x6 ADD SLOAD DUP6 GT ISZERO PUSH2 0xC96 JUMPI DUP5 DUP4 PUSH1 0x6 ADD DUP2 SWAP1 SSTORE POP JUMPDEST JUMPDEST JUMPDEST CALLER PUSH20 0xFFFFFFFFFFFFFFFFFFFFFFFFFFFFFFFFFFFFFFFF AND PUSH1 0x1 SLOAD PUSH32 0x86D2FBC9069D34216EBC65B38CE840528D3F8CAC0C86D2AAA7AB6A9DB8BC35D3 DUP8 PUSH1 0x40 MLOAD PUSH2 0xCE1 SWAP2 SWAP1 PUSH2 0x2B3D JUMP JUMPDEST PUSH1 0x40 MLOAD DUP1 SWAP2 SUB SWAP1 LOG3 POP POP POP POP POP JUMP JUMPDEST PUSH0 PUSH0 PUSH0 PUSH0 PUSH2 0xCFD DUP6 PUSH2 0x2A84 JUMP JUMPDEST SWAP1 POP DUP1 PUSH1 0x4 ADD PUSH1 0x8 SWAP1 SLOAD SWAP1 PUSH2 0x100 EXP SWAP1 DIV PUSH20 0xFFFFFFFFFFFFFFFFFFFFFFFFFFFFFFFFFFFFFFFF AND DUP2 PUSH1 0x7 ADD SLOAD DUP3 PUSH1 0x4 ADD PUSH0 SWAP1 SLOAD SWAP1 PUSH2 0x100 EXP SWAP1 DIV PUSH8 0xFFFFFFFFFFFFFFFF AND SWAP4 POP SWAP4 POP SWAP4 POP POP SWAP2 SWAP4 SWAP1 SWAP3 POP JUMP JUMPDEST PUSH1 0x2 PUSH0 SLOAD SUB PUSH2 0xD93 JUMPI PUSH1 0x40 MLOAD PUSH32 0x8C379A000000000000000000000000000000000000000000000000000000000 DUP2 MSTORE PUSH1 0x4 ADD PUSH2 0xD8A SWAP1 PUSH2 0x3178 JUMP JUMPDEST PUSH1 0x40 MLOAD DUP1 SWAP2 SUB SWAP1 REVERT JUMPDEST PUSH1 0x2 PUSH0 DUP2 SWAP1 SSTORE POP PUSH0 PUSH2 0xDA4 DUP3 PUSH2 0x2A84 JUMP JUMPDEST SWAP1 POP DUP1 PUSH1 0x8 ADD PUSH0 SWAP1 SLOAD SWAP1 PUSH2 0x100 EXP SWAP1 DIV PUSH1 0xFF AND PUSH2 0xDED JUMPI PUSH1 0x40 MLOAD PUSH32 0xD3018D1800000000000000000000000000000000000000000000000000000000 DUP2 MSTORE PUSH1 0x4 ADD PUSH1 0x40 MLOAD DUP1 SWAP2 SUB SWAP1 REVERT JUMPDEST DUP1 PUSH1 0x4 ADD PUSH1 0x8 SWAP1 SLOAD SWAP1 PUSH2 0x100 EXP SWAP1 DIV PUSH20 0xFFFFFFFFFFFFFFFFFFFFFFFFFFFFFFFFFFFFFFFF AND PUSH20 0xFFFFFFFFFFFFFFFFFFFFFFFFFFFFFFFFFFFFFFFF AND CALLER PUSH20 0xFFFFFFFFFFFFFFFFFFFFFFFFFFFFFFFFFFFFFFFF AND SUB PUSH2 0xE76 JUMPI PUSH1 0x40 MLOAD PUSH32 0x3A6A68B100000000000000000000000000000000000000000000000000000000 DUP2 MSTORE PUSH1 0x4 ADD PUSH1 0x40 MLOAD DUP1 SWAP2 SUB SWAP1 REVERT JUMPDEST PUSH0 DUP2 PUSH1 0xB ADD PUSH0 CALLER PUSH20 0xFFFFFFFFFFFFFFFFFFFFFFFFFFFFFFFFFFFFFFFF AND PUSH20 0xFFFFFFFFFFFFFFFFFFFFFFFFFFFFFFFFFFFFFFFF AND DUP2 MSTORE PUSH1 0x20 ADD SWAP1 DUP2 MSTORE PUSH1 0x20 ADD PUSH0 KECCAK256 SLOAD SUB PUSH2 0xEEE JUMPI PUSH1 0x40 MLOAD PUSH32 0x3A6A68B100000000000000000000000000000000000000000000000000000000 DUP2 MSTORE PUSH1 0x4 ADD PUSH1 0x40 MLOAD DUP1 SWAP2 SUB SWAP1 REVERT JUMPDEST PUSH0 CALLER PUSH20 0xFFFFFFFFFFFFFFFFFFFFFFFFFFFFFFFFFFFFFFFF AND DUP3 PUSH1 0xB ADD PUSH0 CALLER PUSH20 0xFFFFFFFFFFFFFFFFFFFFFFFFFFFFFFFFFFFFFFFF AND PUSH20 0xFFFFFFFFFFFFFFFFFFFFFFFFFFFFFFFFFFFFFFFF AND DUP2 MSTORE PUSH1 0x20 ADD SWAP1 DUP2 MSTORE PUSH1 0x20 ADD PUSH0 KECCAK256 SLOAD PUSH1 0x40 MLOAD PUSH2 0xF52 SWAP1 PUSH2 0x31C3 JUMP JUMPDEST PUSH0 PUSH1 0x40 MLOAD DUP1 DUP4 SUB DUP2 DUP6 DUP8 GAS CALL SWAP3 POP POP POP RETURNDATASIZE DUP1 PUSH0 DUP2 EQ PUSH2 0xF8C JUMPI PUSH1 0x40 MLOAD SWAP2 POP PUSH1 0x1F NOT PUSH1 0x3F RETURNDATASIZE ADD AND DUP3 ADD PUSH1 0x40 MSTORE RETURNDATASIZE DUP3 MSTORE RETURNDATASIZE PUSH0 PUSH1 0x20 DUP5 ADD RETURNDATACOPY PUSH2 0xF91 JUMP JUMPDEST PUSH1 0x60 SWAP2 POP JUMPDEST POP POP SWAP1 POP DUP1 ISZERO PUSH2 0xFCD JUMPI PUSH1 0x40 MLOAD PUSH32 0x750B219C00000000000000000000000000000000000000000000000000000000 DUP2 MSTORE PUSH1 0x4 ADD PUSH1 0x40 MLOAD DUP1 SWAP2 SUB SWAP1 REVERT JUMPDEST PUSH0 DUP3 PUSH1 0xB ADD PUSH0 CALLER PUSH20 0xFFFFFFFFFFFFFFFFFFFFFFFFFFFFFFFFFFFFFFFF AND PUSH20 0xFFFFFFFFFFFFFFFFFFFFFFFFFFFFFFFFFFFFFFFF AND DUP2 MSTORE PUSH1 0x20 ADD SWAP1 DUP2 MSTORE PUSH1 0x20 ADD PUSH0 KECCAK256 DUP2 SWAP1 SSTORE POP CALLER PUSH20 0xFFFFFFFFFFFFFFFFFFFFFFFFFFFFFFFFFFFFFFFF AND PUSH1 0x1 SLOAD PUSH32 0x47F74A265269AA6E5423FBCD9A74B3C8771A0C3A9C7CDFB7EBE375B288C06B4E PUSH1 0x40 MLOAD PUSH1 0x40 MLOAD DUP1 SWAP2 SUB SWAP1 LOG3 POP POP PUSH1 0x1 PUSH0 DUP2 SWAP1 SSTORE POP POP JUMP JUMPDEST PUSH1 0x2 PUSH0 SLOAD SUB PUSH2 0x10A7 JUMPI PUSH1 0x40 MLOAD PUSH32 0x8C379A000000000000000000000000000000000000000000000000000000000 DUP2 MSTORE PUSH1 0x4 ADD PUSH2 0x109E SWAP1 PUSH2 0x3178 JUMP JUMPDEST PUSH1 0x40 MLOAD DUP1 SWAP2 SUB SWAP1 REVERT JUMPDEST PUSH1 0x2 PUSH0 DUP2 SWAP1 SSTORE POP PUSH0 PUSH2 0x10B7 PUSH2 0x26A9 JUMP JUMPDEST SWAP1 POP DUP1 PUSH1 0x8 ADD PUSH0 SWAP1 SLOAD SWAP1 PUSH2 0x100 EXP SWAP1 DIV PUSH1 0xFF AND PUSH2 0x1100 JUMPI PUSH1 0x40 MLOAD PUSH32 0xD3018D1800000000000000000000000000000000000000000000000000000000 DUP2 MSTORE PUSH1 0x4 ADD PUSH1 0x40 MLOAD DUP1 SWAP2 SUB SWAP1 REVERT JUMPDEST DUP1 PUSH1 0x4 ADD PUSH1 0x8 SWAP1 SLOAD SWAP1 PUSH2 0x100 EXP SWAP1 DIV PUSH20 0xFFFFFFFFFFFFFFFFFFFFFFFFFFFFFFFFFFFFFFFF AND PUSH20 0xFFFFFFFFFFFFFFFFFFFFFFFFFFFFFFFFFFFFFFFF AND CALLER PUSH20 0xFFFFFFFFFFFFFFFFFFFFFFFFFFFFFFFFFFFFFFFF AND SUB PUSH2 0x1189 JUMPI PUSH1 0x40 MLOAD PUSH32 0x3A6A68B100000000000000000000000000000000000000000000000000000000 DUP2 MSTORE PUSH1 0x4 ADD PUSH1 0x40 MLOAD DUP1 SWAP2 SUB SWAP1 REVERT JUMPDEST PUSH0 DUP2 PUSH1 0xB ADD PUSH0 CALLER PUSH20 0xFFFFFFFFFFFFFFFFFFFFFFFFFFFFFFFFFFFFFFFF AND PUSH20 0xFFFFFFFFFFFFFFFFFFFFFFFFFFFFFFFFFFFFFFFF AND DUP2 MSTORE PUSH1 0x20 ADD SWAP1 DUP2 MSTORE PUSH1 0x20 ADD PUSH0 KECCAK256 SLOAD SUB PUSH2 0x1201 JUMPI PUSH1 0x40 MLOAD PUSH32 0x3A6A68B100000000000000000000000000000000000000000000000000000000 DUP2 MSTORE PUSH1 0x4 ADD PUSH1 0x40 MLOAD DUP1 SWAP2 SUB SWAP1 REVERT JUMPDEST PUSH0 CALLER PUSH20 0xFFFFFFFFFFFFFFFFFFFFFFFFFFFFFFFFFFFFFFFF AND DUP3 PUSH1 0xB ADD PUSH0 CALLER PUSH20 0xFFFFFFFFFFFFFFFFFFFFFFFFFFFFFFFFFFFFFFFF AND PUSH20 0xFFFFFFFFFFFFFFFFFFFFFFFFFFFFFFFFFFFFFFFF AND DUP2 MSTORE PUSH1 0x20 ADD SWAP1 DUP2 MSTORE PUSH1 0x20 ADD PUSH0 KECCAK256 SLOAD PUSH1 0x40 MLOAD PUSH2 0x1265 SWAP1 PUSH2 0x31C3 JUMP JUMPDEST PUSH0 PUSH1 0x40 MLOAD DUP1 DUP4 SUB DUP2 DUP6 DUP8 GAS CALL SWAP3 POP POP POP RETURNDATASIZE DUP1 PUSH0 DUP2 EQ PUSH2 0x129F JUMPI PUSH1 0x40 MLOAD SWAP2 POP PUSH1 0x1F NOT PUSH1 0x3F RETURNDATASIZE ADD AND DUP3 ADD PUSH1 0x40 MSTORE RETURNDATASIZE DUP3 MSTORE RETURNDATASIZE PUSH0 PUSH1 0x20 DUP5 ADD RETURNDATACOPY PUSH2 0x12A4 JUMP JUMPDEST PUSH1 0x60 SWAP2 POP JUMPDEST POP POP SWAP1 POP DUP1 ISZERO PUSH2 0x12E0 JUMPI PUSH1 0x40 MLOAD PUSH32 0x750B219C00000000000000000000000000000000000000000000000000000000 DUP2 MSTORE PUSH1 0x4 ADD PUSH1 0x40 MLOAD DUP1 SWAP2 SUB SWAP1 REVERT JUMPDEST PUSH0 DUP3 PUSH1 0xB ADD PUSH0 CALLER PUSH20 0xFFFFFFFFFFFFFFFFFFFFFFFFFFFFFFFFFFFFFFFF AND PUSH20 0xFFFFFFFFFFFFFFFFFFFFFFFFFFFFFFFFFFFFFFFF AND DUP2 MSTORE PUSH1 0x20 ADD SWAP1 DUP2 MSTORE PUSH1 0x20 ADD PUSH0 KECCAK256 DUP2 SWAP1 SSTORE POP CALLER PUSH20 0xFFFFFFFFFFFFFFFFFFFFFFFFFFFFFFFFFFFFFFFF AND PUSH1 0x1 SLOAD PUSH32 0x47F74A265269AA6E5423FBCD9A74B3C8771A0C3A9C7CDFB7EBE375B288C06B4E PUSH1 0x40 MLOAD PUSH1 0x40 MLOAD DUP1 SWAP2 SUB SWAP1 LOG3 POP POP PUSH1 0x1 PUSH0 DUP2 SWAP1 SSTORE POP JUMP JUMPDEST PUSH0 PUSH0 PUSH2 0x1380 DUP5 PUSH2 0x2A84 JUMP JUMPDEST SWAP1 POP DUP1 PUSH1 0xC ADD PUSH0 DUP5 PUSH20 0xFFFFFFFFFFFFFFFFFFFFFFFFFFFFFFFFFFFFFFFF AND PUSH20 0xFFFFFFFFFFFFFFFFFFFFFFFFFFFFFFFFFFFFFFFF AND DUP2 MSTORE PUSH1 0x20 ADD SWAP1 DUP2 MSTORE PUSH1 0x20 ADD PUSH0 KECCAK256 SLOAD SWAP2 POP POP SWAP3 SWAP2 POP POP JUMP JUMPDEST PUSH0 PUSH2 0x13D4 PUSH2 0x26A9 JUMP JUMPDEST SWAP1 POP DUP1 PUSH1 0x3 ADD PUSH1 0x8 SWAP1 SLOAD SWAP1 PUSH2 0x100 EXP SWAP1 DIV PUSH8 0xFFFFFFFFFFFFFFFF AND PUSH8 0xFFFFFFFFFFFFFFFF AND TIMESTAMP LT ISZERO DUP1 PUSH2 0x1427 JUMPI POP DUP1 PUSH1 0x3 ADD PUSH0 SWAP1 SLOAD SWAP1 PUSH2 0x100 EXP SWAP1 DIV PUSH8 0xFFFFFFFFFFFFFFFF AND PUSH8 0xFFFFFFFFFFFFFFFF AND TIMESTAMP LT JUMPDEST ISZERO PUSH2 0x145E JUMPI PUSH1 0x40 MLOAD PUSH32 0xABFB7DC300000000000000000000000000000000000000000000000000000000 DUP2 MSTORE PUSH1 0x4 ADD PUSH1 0x40 MLOAD DUP1 SWAP2 SUB SWAP1 REVERT JUMPDEST PUSH0 PUSH0 SHL DUP3 SUB PUSH2 0x1499 JUMPI PUSH1 0x40 MLOAD PUSH32 0xC06789FA00000000000000000000000000000000000000000000000000000000 DUP2 MSTORE PUSH1 0x4 ADD PUSH1 0x40 MLOAD DUP1 SWAP2 SUB SWAP1 REVERT JUMPDEST PUSH0 PUSH0 SHL DUP2 PUSH1 0x9 ADD PUSH0 CALLER PUSH20 0xFFFFFFFFFFFFFFFFFFFFFFFFFFFFFFFFFFFFFFFF AND PUSH20 0xFFFFFFFFFFFFFFFFFFFFFFFFFFFFFFFFFFFFFFFF AND DUP2 MSTORE PUSH1 0x20 ADD SWAP1 DUP2 MSTORE PUSH1 0x20 ADD PUSH0 KECCAK256 SLOAD SUB PUSH2 0x156B JUMPI DUP1 PUSH1 0x2 ADD SLOAD CALLVALUE SUB PUSH2 0x151E JUMPI PUSH1 0x40 MLOAD PUSH32 0x603E3D3600000000000000000000000000000000000000000000000000000000 DUP2 MSTORE PUSH1 0x4 ADD PUSH1 0x40 MLOAD DUP1 SWAP2 SUB SWAP1 REVERT JUMPDEST DUP1 PUSH1 0x2 ADD SLOAD DUP2 PUSH1 0xB ADD PUSH0 CALLER PUSH20 0xFFFFFFFFFFFFFFFFFFFFFFFFFFFFFFFFFFFFFFFF AND PUSH20 0xFFFFFFFFFFFFFFFFFFFFFFFFFFFFFFFFFFFFFFFF AND DUP2 MSTORE PUSH1 0x20 ADD SWAP1 DUP2 MSTORE PUSH1 0x20 ADD PUSH0 KECCAK256 DUP2 SWAP1 SSTORE POP PUSH2 0x15A5 JUMP JUMPDEST PUSH0 CALLVALUE EQ PUSH2 0x15A4 JUMPI PUSH1 0x40 MLOAD PUSH32 0x7F4316F300000000000000000000000000000000000000000000000000000000 DUP2 MSTORE PUSH1 0x4 ADD PUSH1 0x40 MLOAD DUP1 SWAP2 SUB SWAP1 REVERT JUMPDEST JUMPDEST DUP2 DUP2 PUSH1 0x9 ADD PUSH0 CALLER PUSH20 0xFFFFFFFFFFFFFFFFFFFFFFFFFFFFFFFFFFFFFFFF AND PUSH20 0xFFFFFFFFFFFFFFFFFFFFFFFFFFFFFFFFFFFFFFFF AND DUP2 MSTORE PUSH1 0x20 ADD SWAP1 DUP2 MSTORE PUSH1 0x20 ADD PUSH0 KECCAK256 DUP2 SWAP1 SSTORE POP PUSH1 0x1 DUP2 PUSH1 0xD ADD PUSH0 DUP3 DUP3 DUP3 SWAP1 SLOAD SWAP1 PUSH2 0x100 EXP SWAP1 DIV PUSH8 0xFFFFFFFFFFFFFFFF AND PUSH2 0x1610 SWAP2 SWAP1 PUSH2 0x3045 JUMP JUMPDEST SWAP3 POP PUSH2 0x100 EXP DUP2 SLOAD DUP2 PUSH8 0xFFFFFFFFFFFFFFFF MUL NOT AND SWAP1 DUP4 PUSH8 0xFFFFFFFFFFFFFFFF AND MUL OR SWAP1 SSTORE POP DUP1 PUSH1 0xD ADD PUSH0 SWAP1 SLOAD SWAP1 PUSH2 0x100 EXP SWAP1 DIV PUSH8 0xFFFFFFFFFFFFFFFF AND DUP2 PUSH1 0xA ADD PUSH0 CALLER PUSH20 0xFFFFFFFFFFFFFFFFFFFFFFFFFFFFFFFFFFFFFFFF AND PUSH20 0xFFFFFFFFFFFFFFFFFFFFFFFFFFFFFFFFFFFFFFFF AND DUP2 MSTORE PUSH1 0x20 ADD SWAP1 DUP2 MSTORE PUSH1 0x20 ADD PUSH0 KECCAK256 PUSH0 PUSH2 0x100 EXP DUP2 SLOAD DUP2 PUSH8 0xFFFFFFFFFFFFFFFF MUL NOT AND SWAP1 DUP4 PUSH8 0xFFFFFFFFFFFFFFFF AND MUL OR SWAP1 SSTORE POP CALLER PUSH20 0xFFFFFFFFFFFFFFFFFFFFFFFFFFFFFFFFFFFFFFFF AND PUSH1 0x1 SLOAD PUSH32 0x934EA4DE468DCD0D9A335C5F97AA77955310C29631C93FBD01D95A00242EC41 PUSH1 0x40 MLOAD PUSH1 0x40 MLOAD DUP1 SWAP2 SUB SWAP1 LOG3 POP POP JUMP JUMPDEST PUSH0 PUSH1 0x1 SLOAD EQ PUSH2 0x176E JUMPI PUSH0 PUSH1 0x2 PUSH0 PUSH1 0x1 SLOAD DUP2 MSTORE PUSH1 0x20 ADD SWAP1 DUP2 MSTORE PUSH1 0x20 ADD PUSH0 KECCAK256 SWAP1 POP DUP1 PUSH1 0x8 ADD PUSH1 0x1 SWAP1 SLOAD SWAP1 PUSH2 0x100 EXP SWAP1 DIV PUSH1 0xFF AND PUSH2 0x176C JUMPI PUSH1 0x40 MLOAD PUSH32 0x8C379A000000000000000000000000000000000000000000000000000000000 DUP2 MSTORE PUSH1 0x4 ADD PUSH2 0x1763 SWAP1 PUSH2 0x3221 JUMP JUMPDEST PUSH1 0x40 MLOAD DUP1 SWAP2 SUB SWAP1 REVERT JUMPDEST POP JUMPDEST PUSH0 DUP4 PUSH8 0xFFFFFFFFFFFFFFFF AND GT DUP1 ISZERO PUSH2 0x1793 JUMPI POP PUSH3 0x278D00 DUP4 PUSH8 0xFFFFFFFFFFFFFFFF AND LT JUMPDEST PUSH2 0x17D2 JUMPI PUSH1 0x40 MLOAD PUSH32 0x8C379A000000000000000000000000000000000000000000000000000000000 DUP2 MSTORE PUSH1 0x4 ADD PUSH2 0x17C9 SWAP1 PUSH2 0x3289 JUMP JUMPDEST PUSH1 0x40 MLOAD DUP1 SWAP2 SUB SWAP1 REVERT JUMPDEST PUSH0 DUP3 PUSH8 0xFFFFFFFFFFFFFFFF AND GT DUP1 ISZERO PUSH2 0x17F7 JUMPI POP PUSH3 0x278D00 DUP3 PUSH8 0xFFFFFFFFFFFFFFFF AND LT JUMPDEST PUSH2 0x1836 JUMPI PUSH1 0x40 MLOAD PUSH32 0x8C379A000000000000000000000000000000000000000000000000000000000 DUP2 MSTORE PUSH1 0x4 ADD PUSH2 0x182D SWAP1 PUSH2 0x32F1 JUMP JUMPDEST PUSH1 0x40 MLOAD DUP1 SWAP2 SUB SWAP1 REVERT JUMPDEST PUSH0 DUP5 LT ISZERO DUP1 ISZERO PUSH2 0x1851 JUMPI POP PUSH12 0x33B2E3C9FD0803CE8000000 DUP5 LT JUMPDEST PUSH2 0x1890 JUMPI PUSH1 0x40 MLOAD PUSH32 0x8C379A000000000000000000000000000000000000000000000000000000000 DUP2 MSTORE PUSH1 0x4 ADD PUSH2 0x1887 SWAP1 PUSH2 0x3359 JUMP JUMPDEST PUSH1 0x40 MLOAD DUP1 SWAP2 SUB SWAP1 REVERT JUMPDEST CALLER PUSH20 0xFFFFFFFFFFFFFFFFFFFFFFFFFFFFFFFFFFFFFFFF AND PUSH32 0x0 PUSH20 0xFFFFFFFFFFFFFFFFFFFFFFFFFFFFFFFFFFFFFFFF AND PUSH4 0x6352211E DUP8 PUSH1 0x40 MLOAD DUP3 PUSH4 0xFFFFFFFF AND PUSH1 0xE0 SHL DUP2 MSTORE PUSH1 0x4 ADD PUSH2 0x1900 SWAP2 SWAP1 PUSH2 0x2B3D JUMP JUMPDEST PUSH1 0x20 PUSH1 0x40 MLOAD DUP1 DUP4 SUB DUP2 DUP7 GAS STATICCALL ISZERO DUP1 ISZERO PUSH2 0x191B JUMPI RETURNDATASIZE PUSH0 PUSH0 RETURNDATACOPY RETURNDATASIZE PUSH0 REVERT JUMPDEST POP POP POP POP PUSH1 0x40 MLOAD RETURNDATASIZE PUSH1 0x1F NOT PUSH1 0x1F DUP3 ADD AND DUP3 ADD DUP1 PUSH1 0x40 MSTORE POP DUP2 ADD SWAP1 PUSH2 0x193F SWAP2 SWAP1 PUSH2 0x338B JUMP JUMPDEST PUSH20 0xFFFFFFFFFFFFFFFFFFFFFFFFFFFFFFFFFFFFFFFF AND EQ PUSH2 0x1995 JUMPI PUSH1 0x40 MLOAD PUSH32 0x8C379A000000000000000000000000000000000000000000000000000000000 DUP2 MSTORE PUSH1 0x4 ADD PUSH2 0x198C SWAP1 PUSH2 0x3400 JUMP JUMPDEST PUSH1 0x40 MLOAD DUP1 SWAP2 SUB SWAP1 REVERT JUMPDEST PUSH2 0x19A0 CALLER ADDRESS DUP8 PUSH2 0x274A JUMP JUMPDEST PUSH1 0x1 DUP1 PUSH0 DUP3 DUP3 SLOAD PUSH2 0x19B1 SWAP2 SWAP1 PUSH2 0x341E JUMP JUMPDEST SWAP3 POP POP DUP2 SWAP1 SSTORE POP PUSH0 PUSH1 0x2 PUSH0 PUSH1 0x1 SLOAD DUP2 MSTORE PUSH1 0x20 ADD SWAP1 DUP2 MSTORE PUSH1 0x20 ADD PUSH0 KECCAK256 SWAP1 POP DUP6 DUP2 PUSH0 ADD DUP2 SWAP1 SSTORE POP CALLER DUP2 PUSH1 0x1 ADD PUSH0 PUSH2 0x100 EXP DUP2 SLOAD DUP2 PUSH20 0xFFFFFFFFFFFFFFFFFFFFFFFFFFFFFFFFFFFFFFFF MUL NOT AND SWAP1 DUP4 PUSH20 0xFFFFFFFFFFFFFFFFFFFFFFFFFFFFFFFFFFFFFFFF AND MUL OR SWAP1 SSTORE POP DUP5 DUP2 PUSH1 0x2 ADD DUP2 SWAP1 SSTORE POP PUSH0 TIMESTAMP SWAP1 POP DUP1 DUP3 PUSH1 0x3 ADD PUSH0 PUSH2 0x100 EXP DUP2 SLOAD DUP2 PUSH8 0xFFFFFFFFFFFFFFFF MUL NOT AND SWAP1 DUP4 PUSH8 0xFFFFFFFFFFFFFFFF AND MUL OR SWAP1 SSTORE POP DUP5 DUP2 PUSH2 0x1A5B SWAP2 SWAP1 PUSH2 0x3045 JUMP JUMPDEST DUP3 PUSH1 0x3 ADD PUSH1 0x8 PUSH2 0x100 EXP DUP2 SLOAD DUP2 PUSH8 0xFFFFFFFFFFFFFFFF MUL NOT AND SWAP1 DUP4 PUSH8 0xFFFFFFFFFFFFFFFF AND MUL OR SWAP1 SSTORE POP DUP4 DUP3 PUSH1 0x3 ADD PUSH1 0x8 SWAP1 SLOAD SWAP1 PUSH2 0x100 EXP SWAP1 DIV PUSH8 0xFFFFFFFFFFFFFFFF AND PUSH2 0x1AA9 SWAP2 SWAP1 PUSH2 0x3045 JUMP JUMPDEST DUP3 PUSH1 0x3 ADD PUSH1 0x10 PUSH2 0x100 EXP DUP2 SLOAD DUP2 PUSH8 0xFFFFFFFFFFFFFFFF MUL NOT AND SWAP1 DUP4 PUSH8 0xFFFFFFFFFFFFFFFF AND MUL OR SWAP1 SSTORE POP DUP3 DUP3 PUSH1 0x3 ADD PUSH1 0x18 PUSH2 0x100 EXP DUP2 SLOAD DUP2 PUSH8 0xFFFFFFFFFFFFFFFF MUL NOT AND SWAP1 DUP4 PUSH8 0xFFFFFFFFFFFFFFFF AND MUL OR SWAP1 SSTORE POP PUSH32 0x0 PUSH20 0xFFFFFFFFFFFFFFFFFFFFFFFFFFFFFFFFFFFFFFFF AND CALLER PUSH20 0xFFFFFFFFFFFFFFFFFFFFFFFFFFFFFFFFFFFFFFFF AND PUSH1 0x1 SLOAD PUSH32 0x7ABF6AB8B302120B3C02E57915D50F8896518CB2FF56F4F58D92A463A12D1649 DUP11 DUP11 DUP8 PUSH1 0x3 ADD PUSH0 SWAP1 SLOAD SWAP1 PUSH2 0x100 EXP SWAP1 DIV PUSH8 0xFFFFFFFFFFFFFFFF AND DUP9 PUSH1 0x3 ADD PUSH1 0x8 SWAP1 SLOAD SWAP1 PUSH2 0x100 EXP SWAP1 DIV PUSH8 0xFFFFFFFFFFFFFFFF AND DUP10 PUSH1 0x3 ADD PUSH1 0x10 SWAP1 SLOAD SWAP1 PUSH2 0x100 EXP SWAP1 DIV PUSH8 0xFFFFFFFFFFFFFFFF AND DUP11 PUSH1 0x3 ADD PUSH1 0x18 SWAP1 SLOAD SWAP1 PUSH2 0x100 EXP SWAP1 DIV PUSH8 0xFFFFFFFFFFFFFFFF AND PUSH1 0x40 MLOAD PUSH2 0x1BE7 SWAP7 SWAP6 SWAP5 SWAP4 SWAP3 SWAP2 SWAP1 PUSH2 0x3481 JUMP JUMPDEST PUSH1 0x40 MLOAD DUP1 SWAP2 SUB SWAP1 LOG4 POP POP POP POP POP POP POP JUMP JUMPDEST PUSH0 PUSH0 PUSH2 0x1C03 DUP5 PUSH2 0x2A84 JUMP JUMPDEST SWAP1 POP DUP1 PUSH1 0x9 ADD PUSH0 DUP5 PUSH20 0xFFFFFFFFFFFFFFFFFFFFFFFFFFFFFFFFFFFFFFFF AND PUSH20 0xFFFFFFFFFFFFFFFFFFFFFFFFFFFFFFFFFFFFFFFF AND DUP2 MSTORE PUSH1 0x20 ADD SWAP1 DUP2 MSTORE PUSH1 0x20 ADD PUSH0 KECCAK256 SLOAD SWAP2 POP POP SWAP3 SWAP2 POP POP JUMP JUMPDEST PUSH3 0x278D00 DUP2 JUMP JUMPDEST PUSH1 0x60 PUSH0 PUSH2 0x1C61 DUP4 PUSH2 0x2A84 JUMP JUMPDEST SWAP1 POP PUSH0 TIMESTAMP SWAP1 POP DUP2 PUSH1 0x3 ADD PUSH1 0x8 SWAP1 SLOAD SWAP1 PUSH2 0x100 EXP SWAP1 DIV PUSH8 0xFFFFFFFFFFFFFFFF AND PUSH8 0xFFFFFFFFFFFFFFFF AND DUP2 LT ISZERO PUSH2 0x1CD0 JUMPI PUSH1 0x40 MLOAD DUP1 PUSH1 0x40 ADD PUSH1 0x40 MSTORE DUP1 PUSH1 0x6 DUP2 MSTORE PUSH1 0x20 ADD PUSH32 0x434F4D4D49540000000000000000000000000000000000000000000000000000 DUP2 MSTORE POP SWAP3 POP POP POP PUSH2 0x1F16 JUMP JUMPDEST DUP2 PUSH1 0x3 ADD PUSH1 0x10 SWAP1 SLOAD SWAP1 PUSH2 0x100 EXP SWAP1 DIV PUSH8 0xFFFFFFFFFFFFFFFF AND PUSH8 0xFFFFFFFFFFFFFFFF AND DUP2 LT ISZERO PUSH2 0x1D39 JUMPI PUSH1 0x40 MLOAD DUP1 PUSH1 0x40 ADD PUSH1 0x40 MSTORE DUP1 PUSH1 0x6 DUP2 MSTORE PUSH1 0x20 ADD PUSH32 0x52455645414C0000000000000000000000000000000000000000000000000000 DUP2 MSTORE POP SWAP3 POP POP POP PUSH2 0x1F16 JUMP JUMPDEST DUP2 PUSH1 0x8 ADD PUSH0 SWAP1 SLOAD SWAP1 PUSH2 0x100 EXP SWAP1 DIV PUSH1 0xFF AND PUSH2 0x1D8D JUMPI PUSH1 0x40 MLOAD DUP1 PUSH1 0x40 ADD PUSH1 0x40 MSTORE DUP1 PUSH1 0x10 DUP2 MSTORE PUSH1 0x20 ADD PUSH32 0x46494E414C495A455F50454E44494E4700000000000000000000000000000000 DUP2 MSTORE POP SWAP3 POP POP POP PUSH2 0x1F16 JUMP JUMPDEST DUP2 PUSH1 0x8 ADD PUSH0 SWAP1 SLOAD SWAP1 PUSH2 0x100 EXP SWAP1 DIV PUSH1 0xFF AND DUP1 ISZERO PUSH2 0x1DB9 JUMPI POP DUP2 PUSH1 0x8 ADD PUSH1 0x1 SWAP1 SLOAD SWAP1 PUSH2 0x100 EXP SWAP1 DIV PUSH1 0xFF AND ISZERO JUMPDEST DUP1 ISZERO PUSH2 0x1E15 JUMPI POP PUSH0 PUSH20 0xFFFFFFFFFFFFFFFFFFFFFFFFFFFFFFFFFFFFFFFF AND DUP3 PUSH1 0x4 ADD PUSH1 0x8 SWAP1 SLOAD SWAP1 PUSH2 0x100 EXP SWAP1 DIV PUSH20 0xFFFFFFFFFFFFFFFFFFFFFFFFFFFFFFFFFFFFFFFF AND PUSH20 0xFFFFFFFFFFFFFFFFFFFFFFFFFFFFFFFFFFFFFFFF AND EQ ISZERO JUMPDEST DUP1 ISZERO PUSH2 0x1E42 JUMPI POP DUP2 PUSH1 0x4 ADD PUSH0 SWAP1 SLOAD SWAP1 PUSH2 0x100 EXP SWAP1 DIV PUSH8 0xFFFFFFFFFFFFFFFF AND PUSH8 0xFFFFFFFFFFFFFFFF AND DUP2 GT ISZERO JUMPDEST ISZERO PUSH2 0x1E86 JUMPI PUSH1 0x40 MLOAD DUP1 PUSH1 0x40 ADD PUSH1 0x40 MSTORE DUP1 PUSH1 0xD DUP2 MSTORE PUSH1 0x20 ADD PUSH32 0x41574149545F5041594D454E5400000000000000000000000000000000000000 DUP2 MSTORE POP SWAP3 POP POP POP PUSH2 0x1F16 JUMP JUMPDEST DUP2 PUSH1 0x8 ADD PUSH1 0x1 SWAP1 SLOAD SWAP1 PUSH2 0x100 EXP SWAP1 DIV PUSH1 0xFF AND PUSH2 0x1EDB JUMPI PUSH1 0x40 MLOAD DUP1 PUSH1 0x40 ADD PUSH1 0x40 MSTORE DUP1 PUSH1 0xF DUP2 MSTORE PUSH1 0x20 ADD PUSH32 0x534554544C454D454E545F4F50454E0000000000000000000000000000000000 DUP2 MSTORE POP SWAP3 POP POP POP PUSH2 0x1F16 JUMP JUMPDEST PUSH1 0x40 MLOAD DUP1 PUSH1 0x40 ADD PUSH1 0x40 MSTORE DUP1 PUSH1 0x5 DUP2 MSTORE PUSH1 0x20 ADD PUSH32 0x454E444544000000000000000000000000000000000000000000000000000000 DUP2 MSTORE POP SWAP3 POP POP POP JUMPDEST SWAP2 SWAP1 POP JUMP JUMPDEST PUSH0 PUSH2 0x1F25 DUP3 PUSH2 0x2A84 JUMP JUMPDEST SWAP1 POP DUP1 PUSH1 0x8 ADD PUSH0 SWAP1 SLOAD SWAP1 PUSH2 0x100 EXP SWAP1 DIV PUSH1 0xFF AND PUSH2 0x1F6E JUMPI PUSH1 0x40 MLOAD PUSH32 0xD3018D1800000000000000000000000000000000000000000000000000000000 DUP2 MSTORE PUSH1 0x4 ADD PUSH1 0x40 MLOAD DUP1 SWAP2 SUB SWAP1 REVERT JUMPDEST DUP1 PUSH1 0x1 ADD PUSH0 SWAP1 SLOAD SWAP1 PUSH2 0x100 EXP SWAP1 DIV PUSH20 0xFFFFFFFFFFFFFFFFFFFFFFFFFFFFFFFFFFFFFFFF AND PUSH20 0xFFFFFFFFFFFFFFFFFFFFFFFFFFFFFFFFFFFFFFFF AND CALLER PUSH20 0xFFFFFFFFFFFFFFFFFFFFFFFFFFFFFFFFFFFFFFFF AND EQ PUSH2 0x1FF6 JUMPI PUSH1 0x40 MLOAD PUSH32 0x5EC8235100000000000000000000000000000000000000000000000000000000 DUP2 MSTORE PUSH1 0x4 ADD PUSH1 0x40 MLOAD DUP1 SWAP2 SUB SWAP1 REVERT JUMPDEST DUP1 PUSH1 0x4 ADD PUSH0 SWAP1 SLOAD SWAP1 PUSH2 0x100 EXP SWAP1 DIV PUSH8 0xFFFFFFFFFFFFFFFF AND PUSH8 0xFFFFFFFFFFFFFFFF AND TIMESTAMP GT PUSH2 0x2059 JUMPI PUSH1 0x40 MLOAD PUSH32 0x8C379A000000000000000000000000000000000000000000000000000000000 DUP2 MSTORE PUSH1 0x4 ADD PUSH2 0x2050 SWAP1 PUSH2 0x352A JUMP JUMPDEST PUSH1 0x40 MLOAD DUP1 SWAP2 SUB SWAP1 REVERT JUMPDEST PUSH1 0x1 DUP2 PUSH1 0x8 ADD PUSH1 0x1 PUSH2 0x100 EXP DUP2 SLOAD DUP2 PUSH1 0xFF MUL NOT AND SWAP1 DUP4 ISZERO ISZERO MUL OR SWAP1 SSTORE POP PUSH2 0x20A7 ADDRESS DUP3 PUSH1 0x1 ADD PUSH0 SWAP1 SLOAD SWAP1 PUSH2 0x100 EXP SWAP1 DIV PUSH20 0xFFFFFFFFFFFFFFFFFFFFFFFFFFFFFFFFFFFFFFFF AND DUP4 PUSH0 ADD SLOAD PUSH2 0x274A JUMP JUMPDEST PUSH0 DUP2 PUSH1 0xB ADD PUSH0 DUP4 PUSH1 0x4 ADD PUSH1 0x8 SWAP1 SLOAD SWAP1 PUSH2 0x100 EXP SWAP1 DIV PUSH20 0xFFFFFFFFFFFFFFFFFFFFFFFFFFFFFFFFFFFFFFFF AND PUSH20 0xFFFFFFFFFFFFFFFFFFFFFFFFFFFFFFFFFFFFFFFF AND PUSH20 0xFFFFFFFFFFFFFFFFFFFFFFFFFFFFFFFFFFFFFFFF AND DUP2 MSTORE PUSH1 0x20 ADD SWAP1 DUP2 MSTORE PUSH1 0x20 ADD PUSH0 KECCAK256 SLOAD SWAP1 POP PUSH0 DUP3 PUSH1 0xB ADD PUSH0 DUP5 PUSH1 0x4 ADD PUSH1 0x8 SWAP1 SLOAD SWAP1 PUSH2 0x100 EXP SWAP1 DIV PUSH20 0xFFFFFFFFFFFFFFFFFFFFFFFFFFFFFFFFFFFFFFFF AND PUSH20 0xFFFFFFFFFFFFFFFFFFFFFFFFFFFFFFFFFFFFFFFF AND PUSH20 0xFFFFFFFFFFFFFFFFFFFFFFFFFFFFFFFFFFFFFFFF AND DUP2 MSTORE PUSH1 0x20 ADD SWAP1 DUP2 MSTORE PUSH1 0x20 ADD PUSH0 KECCAK256 DUP2 SWAP1 SSTORE POP PUSH0 CALLER PUSH20 0xFFFFFFFFFFFFFFFFFFFFFFFFFFFFFFFFFFFFFFFF AND DUP3 PUSH1 0x40 MLOAD PUSH2 0x219B SWAP1 PUSH2 0x31C3 JUMP JUMPDEST PUSH0 PUSH1 0x40 MLOAD DUP1 DUP4 SUB DUP2 DUP6 DUP8 GAS CALL SWAP3 POP POP POP RETURNDATASIZE DUP1 PUSH0 DUP2 EQ PUSH2 0x21D5 JUMPI PUSH1 0x40 MLOAD SWAP2 POP PUSH1 0x1F NOT PUSH1 0x3F RETURNDATASIZE ADD AND DUP3 ADD PUSH1 0x40 MSTORE RETURNDATASIZE DUP3 MSTORE RETURNDATASIZE PUSH0 PUSH1 0x20 DUP5 ADD RETURNDATACOPY PUSH2 0x21DA JUMP JUMPDEST PUSH1 0x60 SWAP2 POP JUMPDEST POP POP SWAP1 POP DUP1 PUSH2 0x221E JUMPI PUSH1 0x40 MLOAD PUSH32 0x8C379A000000000000000000000000000000000000000000000000000000000 DUP2 MSTORE PUSH1 0x4 ADD PUSH2 0x2215 SWAP1 PUSH2 0x3592 JUMP JUMPDEST PUSH1 0x40 MLOAD DUP1 SWAP2 SUB SWAP1 REVERT JUMPDEST PUSH1 0x1 SLOAD PUSH32 0x55C90D9726FF7562E2DDA9743C070AB007DD986E4C0A42BCF578362C435A4D89 PUSH1 0x40 MLOAD PUSH1 0x40 MLOAD DUP1 SWAP2 SUB SWAP1 LOG2 POP POP POP POP JUMP JUMPDEST PUSH0 PUSH0 PUSH2 0x225E DUP5 PUSH2 0x2A84 JUMP JUMPDEST SWAP1 POP DUP1 PUSH1 0xA ADD PUSH0 DUP5 PUSH20 0xFFFFFFFFFFFFFFFFFFFFFFFFFFFFFFFFFFFFFFFF AND PUSH20 0xFFFFFFFFFFFFFFFFFFFFFFFFFFFFFFFFFFFFFFFF AND DUP2 MSTORE PUSH1 0x20 ADD SWAP1 DUP2 MSTORE PUSH1 0x20 ADD PUSH0 KECCAK256 PUSH0 SWAP1 SLOAD SWAP1 PUSH2 0x100 EXP SWAP1 DIV PUSH8 0xFFFFFFFFFFFFFFFF AND SWAP2 POP POP SWAP3 SWAP2 POP POP JUMP JUMPDEST PUSH0 PUSH0 PUSH0 PUSH0 PUSH2 0x22C9 DUP6 PUSH2 0x2A84 JUMP JUMPDEST SWAP1 POP DUP1 PUSH1 0x3 ADD PUSH1 0x8 SWAP1 SLOAD SWAP1 PUSH2 0x100 EXP SWAP1 DIV PUSH8 0xFFFFFFFFFFFFFFFF AND DUP2 PUSH1 0x3 ADD PUSH1 0x10 SWAP1 SLOAD SWAP1 PUSH2 0x100 EXP SWAP1 DIV PUSH8 0xFFFFFFFFFFFFFFFF AND DUP3 PUSH1 0x4 ADD PUSH0 SWAP1 SLOAD SWAP1 PUSH2 0x100 EXP SWAP1 DIV PUSH8 0xFFFFFFFFFFFFFFFF AND SWAP4 POP SWAP4 POP SWAP4 POP POP SWAP2 SWAP4 SWAP1 SWAP3 POP JUMP JUMPDEST PUSH0 PUSH0 PUSH2 0x232E DUP5 PUSH2 0x2A84 JUMP JUMPDEST SWAP1 POP DUP1 PUSH1 0xB ADD PUSH0 DUP5 PUSH20 0xFFFFFFFFFFFFFFFFFFFFFFFFFFFFFFFFFFFFFFFF AND PUSH20 0xFFFFFFFFFFFFFFFFFFFFFFFFFFFFFFFFFFFFFFFF AND DUP2 MSTORE PUSH1 0x20 ADD SWAP1 DUP2 MSTORE PUSH1 0x20 ADD PUSH0 KECCAK256 SLOAD SWAP2 POP POP SWAP3 SWAP2 POP POP JUMP JUMPDEST PUSH1 0x2 PUSH0 SLOAD SUB PUSH2 0x23BD JUMPI PUSH1 0x40 MLOAD PUSH32 0x8C379A000000000000000000000000000000000000000000000000000000000 DUP2 MSTORE PUSH1 0x4 ADD PUSH2 0x23B4 SWAP1 PUSH2 0x3178 JUMP JUMPDEST PUSH1 0x40 MLOAD DUP1 SWAP2 SUB SWAP1 REVERT JUMPDEST PUSH1 0x2 PUSH0 DUP2 SWAP1 SSTORE POP PUSH0 PUSH2 0x23CD PUSH2 0x26A9 JUMP JUMPDEST SWAP1 POP DUP1 PUSH1 0x8 ADD PUSH0 SWAP1 SLOAD SWAP1 PUSH2 0x100 EXP SWAP1 DIV PUSH1 0xFF AND PUSH2 0x2416 JUMPI PUSH1 0x40 MLOAD PUSH32 0xD3018D1800000000000000000000000000000000000000000000000000000000 DUP2 MSTORE PUSH1 0x4 ADD PUSH1 0x40 MLOAD DUP1 SWAP2 SUB SWAP1 REVERT JUMPDEST CALLER PUSH20 0xFFFFFFFFFFFFFFFFFFFFFFFFFFFFFFFFFFFFFFFF AND DUP2 PUSH1 0x4 ADD PUSH1 0x8 SWAP1 SLOAD SWAP1 PUSH2 0x100 EXP SWAP1 DIV PUSH20 0xFFFFFFFFFFFFFFFFFFFFFFFFFFFFFFFFFFFFFFFF AND PUSH20 0xFFFFFFFFFFFFFFFFFFFFFFFFFFFFFFFFFFFFFFFF AND EQ PUSH2 0x249F JUMPI PUSH1 0x40 MLOAD PUSH32 0x618C724200000000000000000000000000000000000000000000000000000000 DUP2 MSTORE PUSH1 0x4 ADD PUSH1 0x40 MLOAD DUP1 SWAP2 SUB SWAP1 REVERT JUMPDEST DUP1 PUSH1 0x4 ADD PUSH0 SWAP1 SLOAD SWAP1 PUSH2 0x100 EXP SWAP1 DIV PUSH8 0xFFFFFFFFFFFFFFFF AND PUSH8 0xFFFFFFFFFFFFFFFF AND TIMESTAMP GT DUP1 PUSH2 0x24E3 JUMPI POP PUSH1 0x1 ISZERO ISZERO DUP2 PUSH1 0x8 ADD PUSH1 0x1 SWAP1 SLOAD SWAP1 PUSH2 0x100 EXP SWAP1 DIV PUSH1 0xFF AND ISZERO ISZERO EQ JUMPDEST ISZERO PUSH2 0x251A JUMPI PUSH1 0x40 MLOAD PUSH32 0x58459E8800000000000000000000000000000000000000000000000000000000 DUP2 MSTORE PUSH1 0x4 ADD PUSH1 0x40 MLOAD DUP1 SWAP2 SUB SWAP1 REVERT JUMPDEST DUP1 PUSH1 0x7 ADD SLOAD CALLVALUE EQ PUSH2 0x2557 JUMPI PUSH1 0x40 MLOAD PUSH32 0x788A686F00000000000000000000000000000000000000000000000000000000 DUP2 MSTORE PUSH1 0x4 ADD PUSH1 0x40 MLOAD DUP1 SWAP2 SUB SWAP1 REVERT JUMPDEST PUSH1 0x1 DUP2 PUSH1 0x8 ADD PUSH1 0x1 PUSH2 0x100 EXP DUP2 SLOAD DUP2 PUSH1 0xFF MUL NOT AND SWAP1 DUP4 ISZERO ISZERO MUL OR SWAP1 SSTORE POP PUSH0 DUP2 PUSH1 0x1 ADD PUSH0 SWAP1 SLOAD SWAP1 PUSH2 0x100 EXP SWAP1 DIV PUSH20 0xFFFFFFFFFFFFFFFFFFFFFFFFFFFFFFFFFFFFFFFF AND PUSH20 0xFFFFFFFFFFFFFFFFFFFFFFFFFFFFFFFFFFFFFFFF AND CALLVALUE PUSH1 0x40 MLOAD PUSH2 0x25BC SWAP1 PUSH2 0x31C3 JUMP JUMPDEST PUSH0 PUSH1 0x40 MLOAD DUP1 DUP4 SUB DUP2 DUP6 DUP8 GAS CALL SWAP3 POP POP POP RETURNDATASIZE DUP1 PUSH0 DUP2 EQ PUSH2 0x25F6 JUMPI PUSH1 0x40 MLOAD SWAP2 POP PUSH1 0x1F NOT PUSH1 0x3F RETURNDATASIZE ADD AND DUP3 ADD PUSH1 0x40 MSTORE RETURNDATASIZE DUP3 MSTORE RETURNDATASIZE PUSH0 PUSH1 0x20 DUP5 ADD RETURNDATACOPY PUSH2 0x25FB JUMP JUMPDEST PUSH1 0x60 SWAP2 POP JUMPDEST POP POP SWAP1 POP DUP1 PUSH2 0x263F JUMPI PUSH1 0x40 MLOAD PUSH32 0x8C379A000000000000000000000000000000000000000000000000000000000 DUP2 MSTORE PUSH1 0x4 ADD PUSH2 0x2636 SWAP1 PUSH2 0x35FA JUMP JUMPDEST PUSH1 0x40 MLOAD DUP1 SWAP2 SUB SWAP1 REVERT JUMPDEST PUSH2 0x264D ADDRESS CALLER DUP5 PUSH0 ADD SLOAD PUSH2 0x274A JUMP JUMPDEST CALLER PUSH20 0xFFFFFFFFFFFFFFFFFFFFFFFFFFFFFFFFFFFFFFFF AND PUSH1 0x1 SLOAD PUSH32 0xD33EF6AB06E6BF8672161AA6ABE1EC1791C393D62213EBD89C67F611E538E575 CALLVALUE PUSH1 0x40 MLOAD PUSH2 0x2696 SWAP2 SWAP1 PUSH2 0x2B3D JUMP JUMPDEST PUSH1 0x40 MLOAD DUP1 SWAP2 SUB SWAP1 LOG3 POP POP PUSH1 0x1 PUSH0 DUP2 SWAP1 SSTORE POP JUMP JUMPDEST PUSH0 PUSH1 0x2 PUSH0 PUSH1 0x1 SLOAD DUP2 MSTORE PUSH1 0x20 ADD SWAP1 DUP2 MSTORE PUSH1 0x20 ADD PUSH0 KECCAK256 SWAP1 POP PUSH0 PUSH20 0xFFFFFFFFFFFFFFFFFFFFFFFFFFFFFFFFFFFFFFFF AND DUP2 PUSH1 0x1 ADD PUSH0 SWAP1 SLOAD SWAP1 PUSH2 0x100 EXP SWAP1 DIV PUSH20 0xFFFFFFFFFFFFFFFFFFFFFFFFFFFFFFFFFFFFFFFF AND PUSH20 0xFFFFFFFFFFFFFFFFFFFFFFFFFFFFFFFFFFFFFFFF AND SUB PUSH2 0x2747 JUMPI PUSH1 0x40 MLOAD PUSH32 0x568CA25700000000000000000000000000000000000000000000000000000000 DUP2 MSTORE PUSH1 0x4 ADD PUSH1 0x40 MLOAD DUP1 SWAP2 SUB SWAP1 REVERT JUMPDEST SWAP1 JUMP JUMPDEST DUP3 PUSH20 0xFFFFFFFFFFFFFFFFFFFFFFFFFFFFFFFFFFFFFFFF AND PUSH32 0x0 PUSH20 0xFFFFFFFFFFFFFFFFFFFFFFFFFFFFFFFFFFFFFFFF AND PUSH4 0x6352211E DUP4 PUSH1 0x40 MLOAD DUP3 PUSH4 0xFFFFFFFF AND PUSH1 0xE0 SHL DUP2 MSTORE PUSH1 0x4 ADD PUSH2 0x27BA SWAP2 SWAP1 PUSH2 0x2B3D JUMP JUMPDEST PUSH1 0x20 PUSH1 0x40 MLOAD DUP1 DUP4 SUB DUP2 DUP7 GAS STATICCALL ISZERO DUP1 ISZERO PUSH2 0x27D5 JUMPI RETURNDATASIZE PUSH0 PUSH0 RETURNDATACOPY RETURNDATASIZE PUSH0 REVERT JUMPDEST POP POP POP POP PUSH1 0x40 MLOAD RETURNDATASIZE PUSH1 0x1F NOT PUSH1 0x1F DUP3 ADD AND DUP3 ADD DUP1 PUSH1 0x40 MSTORE POP DUP2 ADD SWAP1 PUSH2 0x27F9 SWAP2 SWAP1 PUSH2 0x338B JUMP JUMPDEST PUSH20 0xFFFFFFFFFFFFFFFFFFFFFFFFFFFFFFFFFFFFFFFF AND EQ PUSH2 0x284F JUMPI PUSH1 0x40 MLOAD PUSH32 0x8C379A000000000000000000000000000000000000000000000000000000000 DUP2 MSTORE PUSH1 0x4 ADD PUSH2 0x2846 SWAP1 PUSH2 0x3662 JUMP JUMPDEST PUSH1 0x40 MLOAD DUP1 SWAP2 SUB SWAP1 REVERT JUMPDEST ADDRESS PUSH20 0xFFFFFFFFFFFFFFFFFFFFFFFFFFFFFFFFFFFFFFFF AND PUSH32 0x0 PUSH20 0xFFFFFFFFFFFFFFFFFFFFFFFFFFFFFFFFFFFFFFFF AND PUSH4 0x81812FC DUP4 PUSH1 0x40 MLOAD DUP3 PUSH4 0xFFFFFFFF AND PUSH1 0xE0 SHL DUP2 MSTORE PUSH1 0x4 ADD PUSH2 0x28BF SWAP2 SWAP1 PUSH2 0x2B3D JUMP JUMPDEST PUSH1 0x20 PUSH1 0x40 MLOAD DUP1 DUP4 SUB DUP2 DUP7 GAS STATICCALL ISZERO DUP1 ISZERO PUSH2 0x28DA JUMPI RETURNDATASIZE PUSH0 PUSH0 RETURNDATACOPY RETURNDATASIZE PUSH0 REVERT JUMPDEST POP POP POP POP PUSH1 0x40 MLOAD RETURNDATASIZE PUSH1 0x1F NOT PUSH1 0x1F DUP3 ADD AND DUP3 ADD DUP1 PUSH1 0x40 MSTORE POP DUP2 ADD SWAP1 PUSH2 0x28FE SWAP2 SWAP1 PUSH2 0x338B JUMP JUMPDEST PUSH20 0xFFFFFFFFFFFFFFFFFFFFFFFFFFFFFFFFFFFFFFFF AND EQ DUP1 PUSH2 0x29B6 JUMPI POP PUSH32 0x0 PUSH20 0xFFFFFFFFFFFFFFFFFFFFFFFFFFFFFFFFFFFFFFFF AND PUSH4 0xE985E9C5 DUP5 ADDRESS PUSH1 0x40 MLOAD DUP4 PUSH4 0xFFFFFFFF AND PUSH1 0xE0 SHL DUP2 MSTORE PUSH1 0x4 ADD PUSH2 0x2976 SWAP3 SWAP2 SWAP1 PUSH2 0x3680 JUMP JUMPDEST PUSH1 0x20 PUSH1 0x40 MLOAD DUP1 DUP4 SUB DUP2 DUP7 GAS STATICCALL ISZERO DUP1 ISZERO PUSH2 0x2991 JUMPI RETURNDATASIZE PUSH0 PUSH0 RETURNDATACOPY RETURNDATASIZE PUSH0 REVERT JUMPDEST POP POP POP POP PUSH1 0x40 MLOAD RETURNDATASIZE PUSH1 0x1F NOT PUSH1 0x1F DUP3 ADD AND DUP3 ADD DUP1 PUSH1 0x40 MSTORE POP DUP2 ADD SWAP1 PUSH2 0x29B5 SWAP2 SWAP1 PUSH2 0x36DC JUMP JUMPDEST JUMPDEST PUSH2 0x29F5 JUMPI PUSH1 0x40 MLOAD PUSH32 0x8C379A000000000000000000000000000000000000000000000000000000000 DUP2 MSTORE PUSH1 0x4 ADD PUSH2 0x29EC SWAP1 PUSH2 0x3751 JUMP JUMPDEST PUSH1 0x40 MLOAD DUP1 SWAP2 SUB SWAP1 REVERT JUMPDEST PUSH32 0x0 PUSH20 0xFFFFFFFFFFFFFFFFFFFFFFFFFFFFFFFFFFFFFFFF AND PUSH4 0x42842E0E DUP5 DUP5 DUP5 PUSH1 0x40 MLOAD DUP5 PUSH4 0xFFFFFFFF AND PUSH1 0xE0 SHL DUP2 MSTORE PUSH1 0x4 ADD PUSH2 0x2A52 SWAP4 SWAP3 SWAP2 SWAP1 PUSH2 0x376F JUMP JUMPDEST PUSH0 PUSH1 0x40 MLOAD DUP1 DUP4 SUB DUP2 PUSH0 DUP8 DUP1 EXTCODESIZE ISZERO DUP1 ISZERO PUSH2 0x2A69 JUMPI PUSH0 PUSH0 REVERT JUMPDEST POP GAS CALL ISZERO DUP1 ISZERO PUSH2 0x2A7B JUMPI RETURNDATASIZE PUSH0 PUSH0 RETURNDATACOPY RETURNDATASIZE PUSH0 REVERT JUMPDEST POP POP POP POP POP POP POP JUMP JUMPDEST PUSH0 PUSH1 0x2 PUSH0 DUP4 DUP2 MSTORE PUSH1 0x20 ADD SWAP1 DUP2 MSTORE PUSH1 0x20 ADD PUSH0 KECCAK256 SWAP1 POP PUSH0 PUSH20 0xFFFFFFFFFFFFFFFFFFFFFFFFFFFFFFFFFFFFFFFF AND DUP2 PUSH1 0x1 ADD PUSH0 SWAP1 SLOAD SWAP1 PUSH2 0x100 EXP SWAP1 DIV PUSH20 0xFFFFFFFFFFFFFFFFFFFFFFFFFFFFFFFFFFFFFFFF AND PUSH20 0xFFFFFFFFFFFFFFFFFFFFFFFFFFFFFFFFFFFFFFFF AND SUB PUSH2 0x2B20 JUMPI PUSH1 0x40 MLOAD PUSH32 0x568CA25700000000000000000000000000000000000000000000000000000000 DUP2 MSTORE PUSH1 0x4 ADD PUSH1 0x40 MLOAD DUP1 SWAP2 SUB SWAP1 REVERT JUMPDEST SWAP2 SWAP1 POP JUMP JUMPDEST PUSH0 DUP2 SWAP1 POP SWAP2 SWAP1 POP JUMP JUMPDEST PUSH2 0x2B37 DUP2 PUSH2 0x2B25 JUMP JUMPDEST DUP3 MSTORE POP POP JUMP JUMPDEST PUSH0 PUSH1 0x20 DUP3 ADD SWAP1 POP PUSH2 0x2B50 PUSH0 DUP4 ADD DUP5 PUSH2 0x2B2E JUMP JUMPDEST SWAP3 SWAP2 POP POP JUMP JUMPDEST PUSH0 PUSH20 0xFFFFFFFFFFFFFFFFFFFFFFFFFFFFFFFFFFFFFFFF DUP3 AND SWAP1 POP SWAP2 SWAP1 POP JUMP JUMPDEST PUSH0 PUSH2 0x2B7F DUP3 PUSH2 0x2B56 JUMP JUMPDEST SWAP1 POP SWAP2 SWAP1 POP JUMP JUMPDEST PUSH2 0x2B8F DUP2 PUSH2 0x2B75 JUMP JUMPDEST DUP3 MSTORE POP POP JUMP JUMPDEST PUSH0 PUSH1 0x20 DUP3 ADD SWAP1 POP PUSH2 0x2BA8 PUSH0 DUP4 ADD DUP5 PUSH2 0x2B86 JUMP JUMPDEST SWAP3 SWAP2 POP POP JUMP JUMPDEST PUSH0 DUP2 SWAP1 POP SWAP2 SWAP1 POP JUMP JUMPDEST PUSH0 PUSH2 0x2BD1 PUSH2 0x2BCC PUSH2 0x2BC7 DUP5 PUSH2 0x2B56 JUMP JUMPDEST PUSH2 0x2BAE JUMP JUMPDEST PUSH2 0x2B56 JUMP JUMPDEST SWAP1 POP SWAP2 SWAP1 POP JUMP JUMPDEST PUSH0 PUSH2 0x2BE2 DUP3 PUSH2 0x2BB7 JUMP JUMPDEST SWAP1 POP SWAP2 SWAP1 POP JUMP JUMPDEST PUSH0 PUSH2 0x2BF3 DUP3 PUSH2 0x2BD8 JUMP JUMPDEST SWAP1 POP SWAP2 SWAP1 POP JUMP JUMPDEST PUSH2 0x2C03 DUP2 PUSH2 0x2BE9 JUMP JUMPDEST DUP3 MSTORE POP POP JUMP JUMPDEST PUSH0 PUSH1 0x20 DUP3 ADD SWAP1 POP PUSH2 0x2C1C PUSH0 DUP4 ADD DUP5 PUSH2 0x2BFA JUMP JUMPDEST SWAP3 SWAP2 POP POP JUMP JUMPDEST PUSH0 PUSH0 REVERT JUMPDEST PUSH2 0x2C2F DUP2 PUSH2 0x2B25 JUMP JUMPDEST DUP2 EQ PUSH2 0x2C39 JUMPI PUSH0 PUSH0 REVERT JUMPDEST POP JUMP JUMPDEST PUSH0 DUP2 CALLDATALOAD SWAP1 POP PUSH2 0x2C4A DUP2 PUSH2 0x2C26 JUMP JUMPDEST SWAP3 SWAP2 POP POP JUMP JUMPDEST PUSH0 DUP2 SWAP1 POP SWAP2 SWAP1 POP JUMP JUMPDEST PUSH2 0x2C62 DUP2 PUSH2 0x2C50 JUMP JUMPDEST DUP2 EQ PUSH2 0x2C6C JUMPI PUSH0 PUSH0 REVERT JUMPDEST POP JUMP JUMPDEST PUSH0 DUP2 CALLDATALOAD SWAP1 POP PUSH2 0x2C7D DUP2 PUSH2 0x2C59 JUMP JUMPDEST SWAP3 SWAP2 POP POP JUMP JUMPDEST PUSH0 PUSH0 PUSH1 0x40 DUP4 DUP6 SUB SLT ISZERO PUSH2 0x2C99 JUMPI PUSH2 0x2C98 PUSH2 0x2C22 JUMP JUMPDEST JUMPDEST PUSH0 PUSH2 0x2CA6 DUP6 DUP3 DUP7 ADD PUSH2 0x2C3C JUMP JUMPDEST SWAP3 POP POP PUSH1 0x20 PUSH2 0x2CB7 DUP6 DUP3 DUP7 ADD PUSH2 0x2C6F JUMP JUMPDEST SWAP2 POP POP SWAP3 POP SWAP3 SWAP1 POP JUMP JUMPDEST PUSH0 PUSH1 0x20 DUP3 DUP5 SUB SLT ISZERO PUSH2 0x2CD6 JUMPI PUSH2 0x2CD5 PUSH2 0x2C22 JUMP JUMPDEST JUMPDEST PUSH0 PUSH2 0x2CE3 DUP5 DUP3 DUP6 ADD PUSH2 0x2C3C JUMP JUMPDEST SWAP2 POP POP SWAP3 SWAP2 POP POP JUMP JUMPDEST PUSH0 PUSH8 0xFFFFFFFFFFFFFFFF DUP3 AND SWAP1 POP SWAP2 SWAP1 POP JUMP JUMPDEST PUSH2 0x2D08 DUP2 PUSH2 0x2CEC JUMP JUMPDEST DUP3 MSTORE POP POP JUMP JUMPDEST PUSH0 PUSH1 0x60 DUP3 ADD SWAP1 POP PUSH2 0x2D21 PUSH0 DUP4 ADD DUP7 PUSH2 0x2B86 JUMP JUMPDEST PUSH2 0x2D2E PUSH1 0x20 DUP4 ADD DUP6 PUSH2 0x2B2E JUMP JUMPDEST PUSH2 0x2D3B PUSH1 0x40 DUP4 ADD DUP5 PUSH2 0x2CFF JUMP JUMPDEST SWAP5 SWAP4 POP POP POP POP JUMP JUMPDEST PUSH2 0x2D4C DUP2 PUSH2 0x2B75 JUMP JUMPDEST DUP2 EQ PUSH2 0x2D56 JUMPI PUSH0 PUSH0 REVERT JUMPDEST POP JUMP JUMPDEST PUSH0 DUP2 CALLDATALOAD SWAP1 POP PUSH2 0x2D67 DUP2 PUSH2 0x2D43 JUMP JUMPDEST SWAP3 SWAP2 POP POP JUMP JUMPDEST PUSH0 PUSH0 PUSH1 0x40 DUP4 DUP6 SUB SLT ISZERO PUSH2 0x2D83 JUMPI PUSH2 0x2D82 PUSH2 0x2C22 JUMP JUMPDEST JUMPDEST PUSH0 PUSH2 0x2D90 DUP6 DUP3 DUP7 ADD PUSH2 0x2C3C JUMP JUMPDEST SWAP3 POP POP PUSH1 0x20 PUSH2 0x2DA1 DUP6 DUP3 DUP7 ADD PUSH2 0x2D59 JUMP JUMPDEST SWAP2 POP POP SWAP3 POP SWAP3 SWAP1 POP JUMP JUMPDEST PUSH0 PUSH1 0x20 DUP3 DUP5 SUB SLT ISZERO PUSH2 0x2DC0 JUMPI PUSH2 0x2DBF PUSH2 0x2C22 JUMP JUMPDEST JUMPDEST PUSH0 PUSH2 0x2DCD DUP5 DUP3 DUP6 ADD PUSH2 0x2C6F JUMP JUMPDEST SWAP2 POP POP SWAP3 SWAP2 POP POP JUMP JUMPDEST PUSH2 0x2DDF DUP2 PUSH2 0x2CEC JUMP JUMPDEST DUP2 EQ PUSH2 0x2DE9 JUMPI PUSH0 PUSH0 REVERT JUMPDEST POP JUMP JUMPDEST PUSH0 DUP2 CALLDATALOAD SWAP1 POP PUSH2 0x2DFA DUP2 PUSH2 0x2DD6 JUMP JUMPDEST SWAP3 SWAP2 POP POP JUMP JUMPDEST PUSH0 PUSH0 PUSH0 PUSH0 PUSH0 PUSH1 0xA0 DUP7 DUP9 SUB SLT ISZERO PUSH2 0x2E19 JUMPI PUSH2 0x2E18 PUSH2 0x2C22 JUMP JUMPDEST JUMPDEST PUSH0 PUSH2 0x2E26 DUP9 DUP3 DUP10 ADD PUSH2 0x2C3C JUMP JUMPDEST SWAP6 POP POP PUSH1 0x20 PUSH2 0x2E37 DUP9 DUP3 DUP10 ADD PUSH2 0x2C3C JUMP JUMPDEST SWAP5 POP POP PUSH1 0x40 PUSH2 0x2E48 DUP9 DUP3 DUP10 ADD PUSH2 0x2DEC JUMP JUMPDEST SWAP4 POP POP PUSH1 0x60 PUSH2 0x2E59 DUP9 DUP3 DUP10 ADD PUSH2 0x2DEC JUMP JUMPDEST SWAP3 POP POP PUSH1 0x80 PUSH2 0x2E6A DUP9 DUP3 DUP10 ADD PUSH2 0x2DEC JUMP JUMPDEST SWAP2 POP POP SWAP3 SWAP6 POP SWAP3 SWAP6 SWAP1 SWAP4 POP JUMP JUMPDEST PUSH2 0x2E80 DUP2 PUSH2 0x2C50 JUMP JUMPDEST DUP3 MSTORE POP POP JUMP JUMPDEST PUSH0 PUSH1 0x20 DUP3 ADD SWAP1 POP PUSH2 0x2E99 PUSH0 DUP4 ADD DUP5 PUSH2 0x2E77 JUMP JUMPDEST SWAP3 SWAP2 POP POP JUMP JUMPDEST PUSH0 DUP2 MLOAD SWAP1 POP SWAP2 SWAP1 POP JUMP JUMPDEST PUSH0 DUP3 DUP3 MSTORE PUSH1 0x20 DUP3 ADD SWAP1 POP SWAP3 SWAP2 POP POP JUMP JUMPDEST DUP3 DUP2 DUP4 MCOPY PUSH0 DUP4 DUP4 ADD MSTORE POP POP POP JUMP JUMPDEST PUSH0 PUSH1 0x1F NOT PUSH1 0x1F DUP4 ADD AND SWAP1 POP SWAP2 SWAP1 POP JUMP JUMPDEST PUSH0 PUSH2 0x2EE1 DUP3 PUSH2 0x2E9F JUMP JUMPDEST PUSH2 0x2EEB DUP2 DUP6 PUSH2 0x2EA9 JUMP JUMPDEST SWAP4 POP PUSH2 0x2EFB DUP2 DUP6 PUSH1 0x20 DUP7 ADD PUSH2 0x2EB9 JUMP JUMPDEST PUSH2 0x2F04 DUP2 PUSH2 0x2EC7 JUMP JUMPDEST DUP5 ADD SWAP2 POP POP SWAP3 SWAP2 POP POP JUMP JUMPDEST PUSH0 PUSH1 0x20 DUP3 ADD SWAP1 POP DUP2 DUP2 SUB PUSH0 DUP4 ADD MSTORE PUSH2 0x2F27 DUP2 DUP5 PUSH2 0x2ED7 JUMP JUMPDEST SWAP1 POP SWAP3 SWAP2 POP POP JUMP JUMPDEST PUSH0 PUSH1 0x20 DUP3 ADD SWAP1 POP PUSH2 0x2F42 PUSH0 DUP4 ADD DUP5 PUSH2 0x2CFF JUMP JUMPDEST SWAP3 SWAP2 POP POP JUMP JUMPDEST PUSH0 PUSH1 0x60 DUP3 ADD SWAP1 POP PUSH2 0x2F5B PUSH0 DUP4 ADD DUP7 PUSH2 0x2CFF JUMP JUMPDEST PUSH2 0x2F68 PUSH1 0x20 DUP4 ADD DUP6 PUSH2 0x2CFF JUMP JUMPDEST PUSH2 0x2F75 PUSH1 0x40 DUP4 ADD DUP5 PUSH2 0x2CFF JUMP JUMPDEST SWAP5 SWAP4 POP POP POP POP JUMP JUMPDEST PUSH32 0x616C72656164792066696E616C697A6564000000000000000000000000000000 PUSH0 DUP3 ADD MSTORE POP JUMP JUMPDEST PUSH0 PUSH2 0x2FB1 PUSH1 0x11 DUP4 PUSH2 0x2EA9 JUMP JUMPDEST SWAP2 POP PUSH2 0x2FBC DUP3 PUSH2 0x2F7D JUMP JUMPDEST PUSH1 0x20 DUP3 ADD SWAP1 POP SWAP2 SWAP1 POP JUMP JUMPDEST PUSH0 PUSH1 0x20 DUP3 ADD SWAP1 POP DUP2 DUP2 SUB PUSH0 DUP4 ADD MSTORE PUSH2 0x2FDE DUP2 PUSH2 0x2FA5 JUMP JUMPDEST SWAP1 POP SWAP2 SWAP1 POP JUMP JUMPDEST PUSH32 0x4E487B7100000000000000000000000000000000000000000000000000000000 PUSH0 MSTORE PUSH1 0x11 PUSH1 0x4 MSTORE PUSH1 0x24 PUSH0 REVERT JUMPDEST PUSH0 PUSH2 0x301C DUP3 PUSH2 0x2B25 JUMP JUMPDEST SWAP2 POP PUSH2 0x3027 DUP4 PUSH2 0x2B25 JUMP JUMPDEST SWAP3 POP DUP3 DUP3 SUB SWAP1 POP DUP2 DUP2 GT ISZERO PUSH2 0x303F JUMPI PUSH2 0x303E PUSH2 0x2FE5 JUMP JUMPDEST JUMPDEST SWAP3 SWAP2 POP POP JUMP JUMPDEST PUSH0 PUSH2 0x304F DUP3 PUSH2 0x2CEC JUMP JUMPDEST SWAP2 POP PUSH2 0x305A DUP4 PUSH2 0x2CEC JUMP JUMPDEST SWAP3 POP DUP3 DUP3 ADD SWAP1 POP PUSH8 0xFFFFFFFFFFFFFFFF DUP2 GT ISZERO PUSH2 0x307A JUMPI PUSH2 0x3079 PUSH2 0x2FE5 JUMP JUMPDEST JUMPDEST SWAP3 SWAP2 POP POP JUMP JUMPDEST PUSH0 PUSH1 0x80 DUP3 ADD SWAP1 POP PUSH2 0x3093 PUSH0 DUP4 ADD DUP8 PUSH2 0x2B86 JUMP JUMPDEST PUSH2 0x30A0 PUSH1 0x20 DUP4 ADD DUP7 PUSH2 0x2B2E JUMP JUMPDEST PUSH2 0x30AD PUSH1 0x40 DUP4 ADD DUP6 PUSH2 0x2B2E JUMP JUMPDEST PUSH2 0x30BA PUSH1 0x60 DUP4 ADD DUP5 PUSH2 0x2B2E JUMP JUMPDEST SWAP6 SWAP5 POP POP POP POP POP JUMP JUMPDEST PUSH0 DUP2 SWAP1 POP SWAP2 SWAP1 POP JUMP JUMPDEST PUSH2 0x30DD PUSH2 0x30D8 DUP3 PUSH2 0x2B25 JUMP JUMPDEST PUSH2 0x30C3 JUMP JUMPDEST DUP3 MSTORE POP POP JUMP JUMPDEST PUSH0 DUP2 SWAP1 POP SWAP2 SWAP1 POP JUMP JUMPDEST PUSH2 0x30FD PUSH2 0x30F8 DUP3 PUSH2 0x2C50 JUMP JUMPDEST PUSH2 0x30E3 JUMP JUMPDEST DUP3 MSTORE POP POP JUMP JUMPDEST PUSH0 PUSH2 0x310E DUP3 DUP6 PUSH2 0x30CC JUMP JUMPDEST PUSH1 0x20 DUP3 ADD SWAP2 POP PUSH2 0x311E DUP3 DUP5 PUSH2 0x30EC JUMP JUMPDEST PUSH1 0x20 DUP3 ADD SWAP2 POP DUP2 SWAP1 POP SWAP4 SWAP3 POP POP POP JUMP JUMPDEST PUSH32 0x5245454E5452414E435900000000000000000000000000000000000000000000 PUSH0 DUP3 ADD MSTORE POP JUMP JUMPDEST PUSH0 PUSH2 0x3162 PUSH1 0xA DUP4 PUSH2 0x2EA9 JUMP JUMPDEST SWAP2 POP PUSH2 0x316D DUP3 PUSH2 0x312E JUMP JUMPDEST PUSH1 0x20 DUP3 ADD SWAP1 POP SWAP2 SWAP1 POP JUMP JUMPDEST PUSH0 PUSH1 0x20 DUP3 ADD SWAP1 POP DUP2 DUP2 SUB PUSH0 DUP4 ADD MSTORE PUSH2 0x318F DUP2 PUSH2 0x3156 JUMP JUMPDEST SWAP1 POP SWAP2 SWAP1 POP JUMP JUMPDEST PUSH0 DUP2 SWAP1 POP SWAP3 SWAP2 POP POP JUMP JUMPDEST POP JUMP JUMPDEST PUSH0 PUSH2 0x31AE PUSH0 DUP4 PUSH2 0x3196 JUMP JUMPDEST SWAP2 POP PUSH2 0x31B9 DUP3 PUSH2 0x31A0 JUMP JUMPDEST PUSH0 DUP3 ADD SWAP1 POP SWAP2 SWAP1 POP JUMP JUMPDEST PUSH0 PUSH2 0x31CD DUP3 PUSH2 0x31A3 JUMP JUMPDEST SWAP2 POP DUP2 SWAP1 POP SWAP2 SWAP1 POP JUMP JUMPDEST PUSH32 0x70726576696F7573206E6F7420656E6465640000000000000000000000000000 PUSH0 DUP3 ADD MSTORE POP JUMP JUMPDEST PUSH0 PUSH2 0x320B PUSH1 0x12 DUP4 PUSH2 0x2EA9 JUMP JUMPDEST SWAP2 POP PUSH2 0x3216 DUP3 PUSH2 0x31D7 JUMP JUMPDEST PUSH1 0x20 DUP3 ADD SWAP1 POP SWAP2 SWAP1 POP JUMP JUMPDEST PUSH0 PUSH1 0x20 DUP3 ADD SWAP1 POP DUP2 DUP2 SUB PUSH0 DUP4 ADD MSTORE PUSH2 0x3238 DUP2 PUSH2 0x31FF JUMP JUMPDEST SWAP1 POP SWAP2 SWAP1 POP JUMP JUMPDEST PUSH32 0x434F4E4649473A2062616420636F6D6D6974206475726174696F6E7300000000 PUSH0 DUP3 ADD MSTORE POP JUMP JUMPDEST PUSH0 PUSH2 0x3273 PUSH1 0x1C DUP4 PUSH2 0x2EA9 JUMP JUMPDEST SWAP2 POP PUSH2 0x327E DUP3 PUSH2 0x323F JUMP JUMPDEST PUSH1 0x20 DUP3 ADD SWAP1 POP SWAP2 SWAP1 POP JUMP JUMPDEST PUSH0 PUSH1 0x20 DUP3 ADD SWAP1 POP DUP2 DUP2 SUB PUSH0 DUP4 ADD MSTORE PUSH2 0x32A0 DUP2 PUSH2 0x3267 JUMP JUMPDEST SWAP1 POP SWAP2 SWAP1 POP JUMP JUMPDEST PUSH32 0x434F4E4649473A206261642072657665616C206475726174696F6E7300000000 PUSH0 DUP3 ADD MSTORE POP JUMP JUMPDEST PUSH0 PUSH2 0x32DB PUSH1 0x1C DUP4 PUSH2 0x2EA9 JUMP JUMPDEST SWAP2 POP PUSH2 0x32E6 DUP3 PUSH2 0x32A7 JUMP JUMPDEST PUSH1 0x20 DUP3 ADD SWAP1 POP SWAP2 SWAP1 POP JUMP JUMPDEST PUSH0 PUSH1 0x20 DUP3 ADD SWAP1 POP DUP2 DUP2 SUB PUSH0 DUP4 ADD MSTORE PUSH2 0x3308 DUP2 PUSH2 0x32CF JUMP JUMPDEST SWAP1 POP SWAP2 SWAP1 POP JUMP JUMPDEST PUSH32 0x434F4E4649473A20626164207265736572766520707269636500000000000000 PUSH0 DUP3 ADD MSTORE POP JUMP JUMPDEST PUSH0 PUSH2 0x3343 PUSH1 0x19 DUP4 PUSH2 0x2EA9 JUMP JUMPDEST SWAP2 POP PUSH2 0x334E DUP3 PUSH2 0x330F JUMP JUMPDEST PUSH1 0x20 DUP3 ADD SWAP1 POP SWAP2 SWAP1 POP JUMP JUMPDEST PUSH0 PUSH1 0x20 DUP3 ADD SWAP1 POP DUP2 DUP2 SUB PUSH0 DUP4 ADD MSTORE PUSH2 0x3370 DUP2 PUSH2 0x3337 JUMP JUMPDEST SWAP1 POP SWAP2 SWAP1 POP JUMP JUMPDEST PUSH0 DUP2 MLOAD SWAP1 POP PUSH2 0x3385 DUP2 PUSH2 0x2D43 JUMP JUMPDEST SWAP3 SWAP2 POP POP JUMP JUMPDEST PUSH0 PUSH1 0x20 DUP3 DUP5 SUB SLT ISZERO PUSH2 0x33A0 JUMPI PUSH2 0x339F PUSH2 0x2C22 JUMP JUMPDEST JUMPDEST PUSH0 PUSH2 0x33AD DUP5 DUP3 DUP6 ADD PUSH2 0x3377 JUMP JUMPDEST SWAP2 POP POP SWAP3 SWAP2 POP POP JUMP JUMPDEST PUSH32 0x6E6F74206F776E65720000000000000000000000000000000000000000000000 PUSH0 DUP3 ADD MSTORE POP JUMP JUMPDEST PUSH0 PUSH2 0x33EA PUSH1 0x9 DUP4 PUSH2 0x2EA9 JUMP JUMPDEST SWAP2 POP PUSH2 0x33F5 DUP3 PUSH2 0x33B6 JUMP JUMPDEST PUSH1 0x20 DUP3 ADD SWAP1 POP SWAP2 SWAP1 POP JUMP JUMPDEST PUSH0 PUSH1 0x20 DUP3 ADD SWAP1 POP DUP2 DUP2 SUB PUSH0 DUP4 ADD MSTORE PUSH2 0x3417 DUP2 PUSH2 0x33DE JUMP JUMPDEST SWAP1 POP SWAP2 SWAP1 POP JUMP JUMPDEST PUSH0 PUSH2 0x3428 DUP3 PUSH2 0x2B25 JUMP JUMPDEST SWAP2 POP PUSH2 0x3433 DUP4 PUSH2 0x2B25 JUMP JUMPDEST SWAP3 POP DUP3 DUP3 ADD SWAP1 POP DUP1 DUP3 GT ISZERO PUSH2 0x344B JUMPI PUSH2 0x344A PUSH2 0x2FE5 JUMP JUMPDEST JUMPDEST SWAP3 SWAP2 POP POP JUMP JUMPDEST PUSH0 PUSH2 0x346B PUSH2 0x3466 PUSH2 0x3461 DUP5 PUSH2 0x2CEC JUMP JUMPDEST PUSH2 0x2BAE JUMP JUMPDEST PUSH2 0x2B25 JUMP JUMPDEST SWAP1 POP SWAP2 SWAP1 POP JUMP JUMPDEST PUSH2 0x347B DUP2 PUSH2 0x3451 JUMP JUMPDEST DUP3 MSTORE POP POP JUMP JUMPDEST PUSH0 PUSH1 0xC0 DUP3 ADD SWAP1 POP PUSH2 0x3494 PUSH0 DUP4 ADD DUP10 PUSH2 0x2B2E JUMP JUMPDEST PUSH2 0x34A1 PUSH1 0x20 DUP4 ADD DUP9 PUSH2 0x2B2E JUMP JUMPDEST PUSH2 0x34AE PUSH1 0x40 DUP4 ADD DUP8 PUSH2 0x3472 JUMP JUMPDEST PUSH2 0x34BB PUSH1 0x60 DUP4 ADD DUP7 PUSH2 0x2CFF JUMP JUMPDEST PUSH2 0x34C8 PUSH1 0x80 DUP4 ADD DUP6 PUSH2 0x2CFF JUMP JUMPDEST PUSH2 0x34D5 PUSH1 0xA0 DUP4 ADD DUP5 PUSH2 0x2CFF JUMP JUMPDEST SWAP8 SWAP7 POP POP POP POP POP POP POP JUMP JUMPDEST PUSH32 0x7374696C6C2070617961626C652077696E646F77000000000000000000000000 PUSH0 DUP3 ADD MSTORE POP JUMP JUMPDEST PUSH0 PUSH2 0x3514 PUSH1 0x14 DUP4 PUSH2 0x2EA9 JUMP JUMPDEST SWAP2 POP PUSH2 0x351F DUP3 PUSH2 0x34E0 JUMP JUMPDEST PUSH1 0x20 DUP3 ADD SWAP1 POP SWAP2 SWAP1 POP JUMP JUMPDEST PUSH0 PUSH1 0x20 DUP3 ADD SWAP1 POP DUP2 DUP2 SUB PUSH0 DUP4 ADD MSTORE PUSH2 0x3541 DUP2 PUSH2 0x3508 JUMP JUMPDEST SWAP1 POP SWAP2 SWAP1 POP JUMP JUMPDEST PUSH32 0x7769746864726177206661696C65640000000000000000000000000000000000 PUSH0 DUP3 ADD MSTORE POP JUMP JUMPDEST PUSH0 PUSH2 0x357C PUSH1 0xF DUP4 PUSH2 0x2EA9 JUMP JUMPDEST SWAP2 POP PUSH2 0x3587 DUP3 PUSH2 0x3548 JUMP JUMPDEST PUSH1 0x20 DUP3 ADD SWAP1 POP SWAP2 SWAP1 POP JUMP JUMPDEST PUSH0 PUSH1 0x20 DUP3 ADD SWAP1 POP DUP2 DUP2 SUB PUSH0 DUP4 ADD MSTORE PUSH2 0x35A9 DUP2 PUSH2 0x3570 JUMP JUMPDEST SWAP1 POP SWAP2 SWAP1 POP JUMP JUMPDEST PUSH32 0x7061792073656C6C6572206661696C6564000000000000000000000000000000 PUSH0 DUP3 ADD MSTORE POP JUMP JUMPDEST PUSH0 PUSH2 0x35E4 PUSH1 0x11 DUP4 PUSH2 0x2EA9 JUMP JUMPDEST SWAP2 POP PUSH2 0x35EF DUP3 PUSH2 0x35B0 JUMP JUMPDEST PUSH1 0x20 DUP3 ADD SWAP1 POP SWAP2 SWAP1 POP JUMP JUMPDEST PUSH0 PUSH1 0x20 DUP3 ADD SWAP1 POP DUP2 DUP2 SUB PUSH0 DUP4 ADD MSTORE PUSH2 0x3611 DUP2 PUSH2 0x35D8 JUMP JUMPDEST SWAP1 POP SWAP2 SWAP1 POP JUMP JUMPDEST PUSH32 0x4E46543A206E6F74206F776E6572000000000000000000000000000000000000 PUSH0 DUP3 ADD MSTORE POP JUMP JUMPDEST PUSH0 PUSH2 0x364C PUSH1 0xE DUP4 PUSH2 0x2EA9 JUMP JUMPDEST SWAP2 POP PUSH2 0x3657 DUP3 PUSH2 0x3618 JUMP JUMPDEST PUSH1 0x20 DUP3 ADD SWAP1 POP SWAP2 SWAP1 POP JUMP JUMPDEST PUSH0 PUSH1 0x20 DUP3 ADD SWAP1 POP DUP2 DUP2 SUB PUSH0 DUP4 ADD MSTORE PUSH2 0x3679 DUP2 PUSH2 0x3640 JUMP JUMPDEST SWAP1 POP SWAP2 SWAP1 POP JUMP JUMPDEST PUSH0 PUSH1 0x40 DUP3 ADD SWAP1 POP PUSH2 0x3693 PUSH0 DUP4 ADD DUP6 PUSH2 0x2B86 JUMP JUMPDEST PUSH2 0x36A0 PUSH1 0x20 DUP4 ADD DUP5 PUSH2 0x2B86 JUMP JUMPDEST SWAP4 SWAP3 POP POP POP JUMP JUMPDEST PUSH0 DUP2 ISZERO ISZERO SWAP1 POP SWAP2 SWAP1 POP JUMP JUMPDEST PUSH2 0x36BB DUP2 PUSH2 0x36A7 JUMP JUMPDEST DUP2 EQ PUSH2 0x36C5 JUMPI PUSH0 PUSH0 REVERT JUMPDEST POP JUMP JUMPDEST PUSH0 DUP2 MLOAD SWAP1 POP PUSH2 0x36D6 DUP2 PUSH2 0x36B2 JUMP JUMPDEST SWAP3 SWAP2 POP POP JUMP JUMPDEST PUSH0 PUSH1 0x20 DUP3 DUP5 SUB SLT ISZERO PUSH2 0x36F1 JUMPI PUSH2 0x36F0 PUSH2 0x2C22 JUMP JUMPDEST JUMPDEST PUSH0 PUSH2 0x36FE DUP5 DUP3 DUP6 ADD PUSH2 0x36C8 JUMP JUMPDEST SWAP2 POP POP SWAP3 SWAP2 POP POP JUMP JUMPDEST PUSH32 0x4E46543A206E6F7420617070726F766564000000000000000000000000000000 PUSH0 DUP3 ADD MSTORE POP JUMP JUMPDEST PUSH0 PUSH2 0x373B PUSH1 0x11 DUP4 PUSH2 0x2EA9 JUMP JUMPDEST SWAP2 POP PUSH2 0x3746 DUP3 PUSH2 0x3707 JUMP JUMPDEST PUSH1 0x20 DUP3 ADD SWAP1 POP SWAP2 SWAP1 POP JUMP JUMPDEST PUSH0 PUSH1 0x20 DUP3 ADD SWAP1 POP DUP2 DUP2 SUB PUSH0 DUP4 ADD MSTORE PUSH2 0x3768 DUP2 PUSH2 0x372F JUMP JUMPDEST SWAP1 POP SWAP2 SWAP1 POP JUMP JUMPDEST PUSH0 PUSH1 0x60 DUP3 ADD SWAP1 POP PUSH2 0x3782 PUSH0 DUP4 ADD DUP7 PUSH2 0x2B86 JUMP JUMPDEST PUSH2 0x378F PUSH1 0x20 DUP4 ADD DUP6 PUSH2 0x2B86 JUMP JUMPDEST PUSH2 0x379C PUSH1 0x40 DUP4 ADD DUP5 PUSH2 0x2B2E JUMP JUMPDEST SWAP5 SWAP4 POP POP POP POP JUMP INVALID LOG2 PUSH5 0x6970667358 0x22 SLT KECCAK256 PREVRANDAO 0xC7 PREVRANDAO EOFCREATE 0xE6 SWAP9 0x28 STATICCALL 0xA8 0x4F PUSH1 0xAF 0xB6 STATICCALL 0xD3 CREATE 0xBC NOT 0xC8 PUSH15 0x450CDB559FDE39F87FA3BFD864736F PUSH13 0x634300081E0033000000000000 "
				},
				"gasEstimates": {
					"creation": {
						"codeDepositCost": "2859600",
						"executionCost": "infinite",
						"totalCost": "infinite"
					},
					"external": {
						"CLASS_NFT()": "441",
						"MAX_DURATION()": "414",
						"MAX_PRICE()": "349",
						"auctionId()": "2471",
						"classNFT()": "infinite",
						"commitBid(bytes32)": "infinite",
						"currentPhase(uint256)": "infinite",
						"finalize()": "infinite",
						"getCommitSeq(uint256,address)": "5395",
						"getCommitment(uint256,address)": "5377",
						"getDepositAmount(uint256,address)": "infinite",
						"getRevealedAmount(uint256,address)": "infinite",
						"getTimes(uint256)": "infinite",
						"getWinnerInfo(uint256)": "infinite",
						"payAndClaim()": "infinite",
						"revealBid(uint256,bytes32)": "infinite",
						"sellerReclaimNFT(uint256)": "infinite",
						"startAuction(uint256,uint256,uint64,uint64,uint64)": "infinite",
						"withdrawDeposits()": "infinite",
						"withdrawDeposits(uint256)": "infinite"
					},
					"internal": {
						"_requireActiveAuction()": "infinite",
						"_requireAuction(uint256)": "infinite",
						"_safeTransferNFT(address,address,uint256)": "infinite"
					}
				},
				"methodIdentifiers": {
					"CLASS_NFT()": "31768238",
					"MAX_DURATION()": "b1724b46",
					"MAX_PRICE()": "01c11d96",
					"auctionId()": "10782f8f",
					"classNFT()": "5e7721f7",
					"commitBid(bytes32)": "86a2cc27",
					"currentPhase(uint256)": "b1fb6405",
					"finalize()": "4bb278f3",
					"getCommitSeq(uint256,address)": "d3851f4c",
					"getCommitment(uint256,address)": "89fb2682",
					"getDepositAmount(uint256,address)": "de75a5c0",
					"getRevealedAmount(uint256,address)": "813abc2d",
					"getTimes(uint256)": "d3aa699e",
					"getWinnerInfo(uint256)": "6b1da364",
					"payAndClaim()": "e9906f2e",
					"revealBid(uint256,bytes32)": "62c5424a",
					"sellerReclaimNFT(uint256)": "c8f97366",
					"startAuction(uint256,uint256,uint64,uint64,uint64)": "894da478",
					"withdrawDeposits()": "7cf2ed22",
					"withdrawDeposits(uint256)": "71d946b4"
				}
			},
			"storageLayout": {
				"storage": [
					{
						"astId": 89,
						"contract": "AuctionContract.sol:VickreyAuctionHouse",
						"label": "_status",
						"offset": 0,
						"slot": "0",
						"type": "t_uint256"
					},
					{
						"astId": 157,
						"contract": "AuctionContract.sol:VickreyAuctionHouse",
						"label": "auctionId",
						"offset": 0,
						"slot": "1",
						"type": "t_uint256"
					},
					{
						"astId": 162,
						"contract": "AuctionContract.sol:VickreyAuctionHouse",
						"label": "_auctions",
						"offset": 0,
						"slot": "2",
						"type": "t_mapping(t_uint256,t_struct(Auction)155_storage)"
					}
				],
				"types": {
					"t_address": {
						"encoding": "inplace",
						"label": "address",
						"numberOfBytes": "20"
					},
					"t_bool": {
						"encoding": "inplace",
						"label": "bool",
						"numberOfBytes": "1"
					},
					"t_bytes32": {
						"encoding": "inplace",
						"label": "bytes32",
						"numberOfBytes": "32"
					},
					"t_mapping(t_address,t_bytes32)": {
						"encoding": "mapping",
						"key": "t_address",
						"label": "mapping(address => bytes32)",
						"numberOfBytes": "32",
						"value": "t_bytes32"
					},
					"t_mapping(t_address,t_uint256)": {
						"encoding": "mapping",
						"key": "t_address",
						"label": "mapping(address => uint256)",
						"numberOfBytes": "32",
						"value": "t_uint256"
					},
					"t_mapping(t_address,t_uint64)": {
						"encoding": "mapping",
						"key": "t_address",
						"label": "mapping(address => uint64)",
						"numberOfBytes": "32",
						"value": "t_uint64"
					},
					"t_mapping(t_uint256,t_struct(Auction)155_storage)": {
						"encoding": "mapping",
						"key": "t_uint256",
						"label": "mapping(uint256 => struct VickreyAuctionHouse.Auction)",
						"numberOfBytes": "32",
						"value": "t_struct(Auction)155_storage"
					},
					"t_struct(Auction)155_storage": {
						"encoding": "inplace",
						"label": "struct VickreyAuctionHouse.Auction",
						"members": [
							{
								"astId": 110,
								"contract": "AuctionContract.sol:VickreyAuctionHouse",
								"label": "tokenId",
								"offset": 0,
								"slot": "0",
								"type": "t_uint256"
							},
							{
								"astId": 112,
								"contract": "AuctionContract.sol:VickreyAuctionHouse",
								"label": "seller",
								"offset": 0,
								"slot": "1",
								"type": "t_address"
							},
							{
								"astId": 114,
								"contract": "AuctionContract.sol:VickreyAuctionHouse",
								"label": "reservePrice",
								"offset": 0,
								"slot": "2",
								"type": "t_uint256"
							},
							{
								"astId": 116,
								"contract": "AuctionContract.sol:VickreyAuctionHouse",
								"label": "startStamp",
								"offset": 0,
								"slot": "3",
								"type": "t_uint64"
							},
							{
								"astId": 118,
								"contract": "AuctionContract.sol:VickreyAuctionHouse",
								"label": "commitEnd",
								"offset": 8,
								"slot": "3",
								"type": "t_uint64"
							},
							{
								"astId": 120,
								"contract": "AuctionContract.sol:VickreyAuctionHouse",
								"label": "revealEnd",
								"offset": 16,
								"slot": "3",
								"type": "t_uint64"
							},
							{
								"astId": 122,
								"contract": "AuctionContract.sol:VickreyAuctionHouse",
								"label": "settleDuration",
								"offset": 24,
								"slot": "3",
								"type": "t_uint64"
							},
							{
								"astId": 124,
								"contract": "AuctionContract.sol:VickreyAuctionHouse",
								"label": "settleDeadline",
								"offset": 0,
								"slot": "4",
								"type": "t_uint64"
							},
							{
								"astId": 126,
								"contract": "AuctionContract.sol:VickreyAuctionHouse",
								"label": "highestBidder",
								"offset": 8,
								"slot": "4",
								"type": "t_address"
							},
							{
								"astId": 128,
								"contract": "AuctionContract.sol:VickreyAuctionHouse",
								"label": "highestBid",
								"offset": 0,
								"slot": "5",
								"type": "t_uint256"
							},
							{
								"astId": 130,
								"contract": "AuctionContract.sol:VickreyAuctionHouse",
								"label": "secondBid",
								"offset": 0,
								"slot": "6",
								"type": "t_uint256"
							},
							{
								"astId": 132,
								"contract": "AuctionContract.sol:VickreyAuctionHouse",
								"label": "clearingPrice",
								"offset": 0,
								"slot": "7",
								"type": "t_uint256"
							},
							{
								"astId": 134,
								"contract": "AuctionContract.sol:VickreyAuctionHouse",
								"label": "finalized",
								"offset": 0,
								"slot": "8",
								"type": "t_bool"
							},
							{
								"astId": 136,
								"contract": "AuctionContract.sol:VickreyAuctionHouse",
								"label": "settled",
								"offset": 1,
								"slot": "8",
								"type": "t_bool"
							},
							{
								"astId": 140,
								"contract": "AuctionContract.sol:VickreyAuctionHouse",
								"label": "commitments",
								"offset": 0,
								"slot": "9",
								"type": "t_mapping(t_address,t_bytes32)"
							},
							{
								"astId": 144,
								"contract": "AuctionContract.sol:VickreyAuctionHouse",
								"label": "commitSeq",
								"offset": 0,
								"slot": "10",
								"type": "t_mapping(t_address,t_uint64)"
							},
							{
								"astId": 148,
								"contract": "AuctionContract.sol:VickreyAuctionHouse",
								"label": "depositAmount",
								"offset": 0,
								"slot": "11",
								"type": "t_mapping(t_address,t_uint256)"
							},
							{
								"astId": 152,
								"contract": "AuctionContract.sol:VickreyAuctionHouse",
								"label": "revealedAmount",
								"offset": 0,
								"slot": "12",
								"type": "t_mapping(t_address,t_uint256)"
							},
							{
								"astId": 154,
								"contract": "AuctionContract.sol:VickreyAuctionHouse",
								"label": "commitSeqCounter",
								"offset": 0,
								"slot": "13",
								"type": "t_uint64"
							}
						],
						"numberOfBytes": "448"
					},
					"t_uint256": {
						"encoding": "inplace",
						"label": "uint256",
						"numberOfBytes": "32"
					},
					"t_uint64": {
						"encoding": "inplace",
						"label": "uint64",
						"numberOfBytes": "8"
					}
				}
			},
			"userdoc": {
				"kind": "user",
				"methods": {
					"commitBid(bytes32)": {
						"notice": "Commit a bid hash during commit phase. One (the last) commit is valid per address"
					},
					"finalize()": {
						"notice": "Finalize result after reveal ends: compute clearing price or mark unsold.         Sets a payment deadline for the winner to pay and claim."
					},
					"payAndClaim()": {
						"notice": "Winner pays the clearing price and claims the NFT; seller receives funds."
					},
					"revealBid(uint256,bytes32)": {
						"notice": "Reveal your bid during reveal phase."
					},
					"sellerReclaimNFT(uint256)": {
						"notice": "If winner not settle up before settle deadline, auctoin passed and return the NFT"
					},
					"startAuction(uint256,uint256,uint64,uint64,uint64)": {
						"notice": "Start a new auction. Seller must own the NFT and approve this contract; NFT is escrowed in."
					}
				},
				"version": 1
			}
		}
	}
}