{
	"AuctionContract.sol": {
		"VickreyAuctionHouse": {
			"abi": [
				{
					"inputs": [],
					"name": "AuctionActive",
					"type": "error"
				},
				{
					"inputs": [],
					"name": "ExactDepositRequired",
					"type": "error"
				},
				{
					"inputs": [],
					"name": "InvalidCommitment",
					"type": "error"
				},
				{
					"inputs": [],
					"name": "InvalidRevealedPrice",
					"type": "error"
				},
				{
					"inputs": [],
					"name": "NFTNotEscrowed",
					"type": "error"
				},
				{
					"inputs": [],
					"name": "NoActiveAuction",
					"type": "error"
				},
				{
					"inputs": [],
					"name": "NoClaimable",
					"type": "error"
				},
				{
					"inputs": [],
					"name": "NoDeposit",
					"type": "error"
				},
				{
					"inputs": [],
					"name": "NoEthAllowed",
					"type": "error"
				},
				{
					"inputs": [],
					"name": "NotEnded",
					"type": "error"
				},
				{
					"inputs": [],
					"name": "NotFinalizable",
					"type": "error"
				},
				{
					"inputs": [],
					"name": "NotInCommitPhase",
					"type": "error"
				},
				{
					"inputs": [],
					"name": "NotInRevealPhase",
					"type": "error"
				},
				{
					"inputs": [],
					"name": "NotSeller",
					"type": "error"
				},
				{
					"inputs": [],
					"name": "NotWinner",
					"type": "error"
				},
				{
					"inputs": [],
					"name": "PaymentClosed",
					"type": "error"
				},
				{
					"inputs": [],
					"name": "RevealAlreadyDone",
					"type": "error"
				},
				{
					"inputs": [],
					"name": "SellerCannotBid",
					"type": "error"
				},
				{
					"inputs": [],
					"name": "WithdrawFailed",
					"type": "error"
				},
				{
					"inputs": [],
					"name": "WrongPayment",
					"type": "error"
				},
				{
					"anonymous": false,
					"inputs": [
						{
							"indexed": true,
							"internalType": "uint256",
							"name": "id",
							"type": "uint256"
						},
						{
							"indexed": true,
							"internalType": "address",
							"name": "seller",
							"type": "address"
						},
						{
							"indexed": true,
							"internalType": "address",
							"name": "nft",
							"type": "address"
						},
						{
							"indexed": false,
							"internalType": "uint256",
							"name": "tokenId",
							"type": "uint256"
						},
						{
							"indexed": false,
							"internalType": "uint256",
							"name": "reservePrice",
							"type": "uint256"
						},
						{
							"indexed": false,
							"internalType": "uint256",
							"name": "depositPrice",
							"type": "uint256"
						},
						{
							"indexed": false,
							"internalType": "uint256",
							"name": "startStamp",
							"type": "uint256"
						},
						{
							"indexed": false,
							"internalType": "uint64",
							"name": "commitEnd",
							"type": "uint64"
						},
						{
							"indexed": false,
							"internalType": "uint64",
							"name": "revealEnd",
							"type": "uint64"
						},
						{
							"indexed": false,
							"internalType": "uint64",
							"name": "settleDuration",
							"type": "uint64"
						}
					],
					"name": "AuctionStarted",
					"type": "event"
				},
				{
					"anonymous": false,
					"inputs": [
						{
							"indexed": true,
							"internalType": "uint256",
							"name": "id",
							"type": "uint256"
						},
						{
							"indexed": true,
							"internalType": "address",
							"name": "bidder",
							"type": "address"
						}
					],
					"name": "BidCommitted",
					"type": "event"
				},
				{
					"anonymous": false,
					"inputs": [
						{
							"indexed": true,
							"internalType": "uint256",
							"name": "id",
							"type": "uint256"
						},
						{
							"indexed": true,
							"internalType": "address",
							"name": "bidder",
							"type": "address"
						},
						{
							"indexed": false,
							"internalType": "uint256",
							"name": "amount",
							"type": "uint256"
						}
					],
					"name": "BidRevealed",
					"type": "event"
				},
				{
					"anonymous": false,
					"inputs": [
						{
							"indexed": true,
							"internalType": "uint256",
							"name": "id",
							"type": "uint256"
						},
						{
							"indexed": false,
							"internalType": "address",
							"name": "winner",
							"type": "address"
						},
						{
							"indexed": false,
							"internalType": "uint256",
							"name": "highest",
							"type": "uint256"
						},
						{
							"indexed": false,
							"internalType": "uint256",
							"name": "second",
							"type": "uint256"
						},
						{
							"indexed": false,
							"internalType": "uint256",
							"name": "clearingPrice",
							"type": "uint256"
						}
					],
					"name": "Finalized",
					"type": "event"
				},
				{
					"anonymous": false,
					"inputs": [
						{
							"indexed": true,
							"internalType": "uint256",
							"name": "id",
							"type": "uint256"
						}
					],
					"name": "SellerReclaimed",
					"type": "event"
				},
				{
					"anonymous": false,
					"inputs": [
						{
							"indexed": true,
							"internalType": "uint256",
							"name": "id",
							"type": "uint256"
						}
					],
					"name": "Unsold",
					"type": "event"
				},
				{
					"anonymous": false,
					"inputs": [
						{
							"indexed": true,
							"internalType": "uint256",
							"name": "id",
							"type": "uint256"
						},
						{
							"indexed": true,
							"internalType": "address",
							"name": "winner",
							"type": "address"
						},
						{
							"indexed": false,
							"internalType": "uint256",
							"name": "price",
							"type": "uint256"
						}
					],
					"name": "WinnerPaidAndClaimed",
					"type": "event"
				},
				{
					"anonymous": false,
					"inputs": [
						{
							"indexed": true,
							"internalType": "uint256",
							"name": "id",
							"type": "uint256"
						},
						{
							"indexed": true,
							"internalType": "address",
							"name": "bidder",
							"type": "address"
						}
					],
					"name": "WithDrawnDeposit",
					"type": "event"
				},
				{
					"inputs": [],
					"name": "MAX_DURATION",
					"outputs": [
						{
							"internalType": "uint256",
							"name": "",
							"type": "uint256"
						}
					],
					"stateMutability": "view",
					"type": "function"
				},
				{
					"inputs": [],
					"name": "MAX_PRICE",
					"outputs": [
						{
							"internalType": "uint256",
							"name": "",
							"type": "uint256"
						}
					],
					"stateMutability": "view",
					"type": "function"
				},
				{
					"inputs": [],
					"name": "auctionId",
					"outputs": [
						{
							"internalType": "uint256",
							"name": "",
							"type": "uint256"
						}
					],
					"stateMutability": "view",
					"type": "function"
				},
				{
					"inputs": [],
					"name": "classNFT",
					"outputs": [
						{
							"internalType": "contract IERC721",
							"name": "",
							"type": "address"
						}
					],
					"stateMutability": "view",
					"type": "function"
				},
				{
					"inputs": [
						{
							"internalType": "bytes32",
							"name": "commitment",
							"type": "bytes32"
						}
					],
					"name": "commitBid",
					"outputs": [],
					"stateMutability": "payable",
					"type": "function"
				},
				{
					"inputs": [
						{
							"internalType": "uint256",
							"name": "id",
							"type": "uint256"
						}
					],
					"name": "currentPhase",
					"outputs": [
						{
							"internalType": "string",
							"name": "",
							"type": "string"
						}
					],
					"stateMutability": "view",
					"type": "function"
				},
				{
					"inputs": [],
					"name": "finalize",
					"outputs": [],
					"stateMutability": "nonpayable",
					"type": "function"
				},
				{
					"inputs": [
						{
							"internalType": "uint256",
							"name": "id",
							"type": "uint256"
						},
						{
							"internalType": "address",
							"name": "bidder",
							"type": "address"
						}
					],
					"name": "getCommitSeq",
					"outputs": [
						{
							"internalType": "uint64",
							"name": "",
							"type": "uint64"
						}
					],
					"stateMutability": "view",
					"type": "function"
				},
				{
					"inputs": [
						{
							"internalType": "uint256",
							"name": "id",
							"type": "uint256"
						},
						{
							"internalType": "address",
							"name": "bidder",
							"type": "address"
						}
					],
					"name": "getCommitment",
					"outputs": [
						{
							"internalType": "bytes32",
							"name": "",
							"type": "bytes32"
						}
					],
					"stateMutability": "view",
					"type": "function"
				},
				{
					"inputs": [
						{
							"internalType": "uint256",
							"name": "id",
							"type": "uint256"
						},
						{
							"internalType": "address",
							"name": "bidder",
							"type": "address"
						}
					],
					"name": "getDepositAmount",
					"outputs": [
						{
							"internalType": "uint256",
							"name": "",
							"type": "uint256"
						}
					],
					"stateMutability": "view",
					"type": "function"
				},
				{
					"inputs": [
						{
							"internalType": "uint256",
							"name": "id",
							"type": "uint256"
						},
						{
							"internalType": "address",
							"name": "bidder",
							"type": "address"
						}
					],
					"name": "getRevealedAmount",
					"outputs": [
						{
							"internalType": "uint256",
							"name": "",
							"type": "uint256"
						}
					],
					"stateMutability": "view",
					"type": "function"
				},
				{
					"inputs": [
						{
							"internalType": "uint256",
							"name": "id",
							"type": "uint256"
						}
					],
					"name": "getTimes",
					"outputs": [
						{
							"internalType": "uint64",
							"name": "startStamp",
							"type": "uint64"
						},
						{
							"internalType": "uint64",
							"name": "commitEnd",
							"type": "uint64"
						},
						{
							"internalType": "uint64",
							"name": "revealEnd",
							"type": "uint64"
						},
						{
							"internalType": "uint64",
							"name": "settleDeadline",
							"type": "uint64"
						}
					],
					"stateMutability": "view",
					"type": "function"
				},
				{
					"inputs": [
						{
							"internalType": "uint256",
							"name": "id",
							"type": "uint256"
						}
					],
					"name": "getWinnerInfo",
					"outputs": [
						{
							"internalType": "address",
							"name": "winner",
							"type": "address"
						},
						{
							"internalType": "uint256",
							"name": "price",
							"type": "uint256"
						},
						{
							"internalType": "uint64",
							"name": "payDeadline",
							"type": "uint64"
						}
					],
					"stateMutability": "view",
					"type": "function"
				},
				{
					"inputs": [
						{
							"internalType": "address",
							"name": "",
							"type": "address"
						},
						{
							"internalType": "address",
							"name": "",
							"type": "address"
						},
						{
							"internalType": "uint256",
							"name": "",
							"type": "uint256"
						},
						{
							"internalType": "bytes",
							"name": "",
							"type": "bytes"
						}
					],
					"name": "onERC721Received",
					"outputs": [
						{
							"internalType": "bytes4",
							"name": "",
							"type": "bytes4"
						}
					],
					"stateMutability": "pure",
					"type": "function"
				},
				{
					"inputs": [
						{
							"internalType": "uint256",
							"name": "id",
							"type": "uint256"
						}
					],
					"name": "payAndClaim",
					"outputs": [],
					"stateMutability": "payable",
					"type": "function"
				},
				{
					"inputs": [],
					"name": "payAndClaim",
					"outputs": [],
					"stateMutability": "payable",
					"type": "function"
				},
				{
					"inputs": [
						{
							"internalType": "uint256",
							"name": "amount",
							"type": "uint256"
						},
						{
							"internalType": "bytes32",
							"name": "salt",
							"type": "bytes32"
						}
					],
					"name": "revealBid",
					"outputs": [],
					"stateMutability": "nonpayable",
					"type": "function"
				},
				{
					"inputs": [
						{
							"internalType": "uint256",
							"name": "id",
							"type": "uint256"
						}
					],
					"name": "sellerReclaimNFT",
					"outputs": [],
					"stateMutability": "nonpayable",
					"type": "function"
				},
				{
					"inputs": [
						{
							"internalType": "uint256",
							"name": "tokenId",
							"type": "uint256"
						},
						{
							"internalType": "uint256",
							"name": "reservePrice",
							"type": "uint256"
						},
						{
							"internalType": "uint64",
							"name": "commitDurationSeconds",
							"type": "uint64"
						},
						{
							"internalType": "uint64",
							"name": "revealDurationSeconds",
							"type": "uint64"
						},
						{
							"internalType": "uint64",
							"name": "settleDurationSeconds",
							"type": "uint64"
						}
					],
					"name": "startAuction",
					"outputs": [],
					"stateMutability": "nonpayable",
					"type": "function"
				},
				{
					"inputs": [
						{
							"internalType": "uint256",
							"name": "id",
							"type": "uint256"
						}
					],
					"name": "withdrawDeposits",
					"outputs": [],
					"stateMutability": "nonpayable",
					"type": "function"
				},
				{
					"inputs": [],
					"name": "withdrawDeposits",
					"outputs": [],
					"stateMutability": "nonpayable",
					"type": "function"
				}
			],
			"devdoc": {
				"kind": "dev",
				"methods": {
					"commitBid(bytes32)": {
						"params": {
							"commitment": "keccak256(abi.encodePacked(amount, salt))"
						}
					},
					"revealBid(uint256,bytes32)": {
						"params": {
							"amount": "Bid amount in wei.",
							"salt": "The random secret used in commit."
						}
					},
					"startAuction(uint256,uint256,uint64,uint64,uint64)": {
						"params": {
							"commitDurationSeconds": "Commit phase duration in seconds.",
							"reservePrice": "Minimum acceptable price (wei).",
							"revealDurationSeconds": "Reveal phase duration in seconds.",
							"tokenId": "Token id in the fixed ClassNFT."
						}
					}
				},
				"version": 1
			},
			"evm": {
				"assembly": "    /* \"AuctionContract.sol\":831:19620  contract VickreyAuctionHouse {... */\n  mstore(0x40, 0xa0)\n    /* \"AuctionContract.sol\":1832:1833  1 */\n  0x01\n    /* \"AuctionContract.sol\":1884:1922  uint256 private _status = _NOT_ENTERED */\n  0x00\n  sstore\n    /* \"AuctionContract.sol\":3886:3928  0x1546Bd67237122754D3F0cB761c139f81388b210 */\n  0x1546bd67237122754d3f0cb761c139f81388b210\n    /* \"AuctionContract.sol\":3842:3929  IERC721 public immutable classNFT = IERC721(0x1546Bd67237122754D3F0cB761c139f81388b210) */\n  0xffffffffffffffffffffffffffffffffffffffff\n  and\n  0x80\n  swap1\n  0xffffffffffffffffffffffffffffffffffffffff\n  and\n  dup2\n  mstore\n  pop\n    /* \"AuctionContract.sol\":831:19620  contract VickreyAuctionHouse {... */\n  callvalue\n  dup1\n  iszero\n  tag_1\n  jumpi\n  revert(0x00, 0x00)\ntag_1:\n  pop\n  mload(0x80)\n  codecopy(0x00, dataOffset(sub_0), dataSize(sub_0))\n  0x00\n  assignImmutable(\"0x4e5869b372f44a1c9aa0923bc94152ac1c74ce415b48c7d3f09c31f435665329\")\n  return(0x00, dataSize(sub_0))\nstop\n\nsub_0: assembly {\n        /* \"AuctionContract.sol\":831:19620  contract VickreyAuctionHouse {... */\n      mstore(0x40, 0x80)\n      jumpi(tag_1, lt(calldatasize, 0x04))\n      shr(0xe0, calldataload(0x00))\n      dup1\n      0x86a2cc27\n      gt\n      tag_23\n      jumpi\n      dup1\n      0xb1fb6405\n      gt\n      tag_24\n      jumpi\n      dup1\n      0xb1fb6405\n      eq\n      tag_17\n      jumpi\n      dup1\n      0xc8f97366\n      eq\n      tag_18\n      jumpi\n      dup1\n      0xd3851f4c\n      eq\n      tag_19\n      jumpi\n      dup1\n      0xd3aa699e\n      eq\n      tag_20\n      jumpi\n      dup1\n      0xde75a5c0\n      eq\n      tag_21\n      jumpi\n      dup1\n      0xe9906f2e\n      eq\n      tag_22\n      jumpi\n      jump(tag_1)\n    tag_24:\n      dup1\n      0x86a2cc27\n      eq\n      tag_12\n      jumpi\n      dup1\n      0x894da478\n      eq\n      tag_13\n      jumpi\n      dup1\n      0x89fb2682\n      eq\n      tag_14\n      jumpi\n      dup1\n      0xa0743f22\n      eq\n      tag_15\n      jumpi\n      dup1\n      0xb1724b46\n      eq\n      tag_16\n      jumpi\n      jump(tag_1)\n    tag_23:\n      dup1\n      0x62c5424a\n      gt\n      tag_25\n      jumpi\n      dup1\n      0x62c5424a\n      eq\n      tag_7\n      jumpi\n      dup1\n      0x6b1da364\n      eq\n      tag_8\n      jumpi\n      dup1\n      0x71d946b4\n      eq\n      tag_9\n      jumpi\n      dup1\n      0x7cf2ed22\n      eq\n      tag_10\n      jumpi\n      dup1\n      0x813abc2d\n      eq\n      tag_11\n      jumpi\n      jump(tag_1)\n    tag_25:\n      dup1\n      0x01c11d96\n      eq\n      tag_2\n      jumpi\n      dup1\n      0x10782f8f\n      eq\n      tag_3\n      jumpi\n      dup1\n      0x150b7a02\n      eq\n      tag_4\n      jumpi\n      dup1\n      0x4bb278f3\n      eq\n      tag_5\n      jumpi\n      dup1\n      0x5e7721f7\n      eq\n      tag_6\n      jumpi\n    tag_1:\n      revert(0x00, 0x00)\n        /* \"AuctionContract.sol\":1593:1633  uint256 public constant MAX_PRICE = 1e27 */\n    tag_2:\n      callvalue\n      dup1\n      iszero\n      tag_26\n      jumpi\n      revert(0x00, 0x00)\n    tag_26:\n      pop\n      tag_27\n      tag_28\n      jump\t// in\n    tag_27:\n      mload(0x40)\n      tag_29\n      swap2\n      swap1\n      tag_30\n      jump\t// in\n    tag_29:\n      mload(0x40)\n      dup1\n      swap2\n      sub\n      swap1\n      return\n        /* \"AuctionContract.sol\":3679:3703  uint256 public auctionId */\n    tag_3:\n      callvalue\n      dup1\n      iszero\n      tag_31\n      jumpi\n      revert(0x00, 0x00)\n    tag_31:\n      pop\n      tag_32\n      tag_33\n      jump\t// in\n    tag_32:\n      mload(0x40)\n      tag_34\n      swap2\n      swap1\n      tag_30\n      jump\t// in\n    tag_34:\n      mload(0x40)\n      dup1\n      swap2\n      sub\n      swap1\n      return\n        /* \"AuctionContract.sol\":2096:2263  function onERC721Received(address, address, uint256, bytes calldata) external pure returns (bytes4) {... */\n    tag_4:\n      callvalue\n      dup1\n      iszero\n      tag_35\n      jumpi\n      revert(0x00, 0x00)\n    tag_35:\n      pop\n      tag_36\n      0x04\n      dup1\n      calldatasize\n      sub\n      dup2\n      add\n      swap1\n      tag_37\n      swap2\n      swap1\n      tag_38\n      jump\t// in\n    tag_37:\n      tag_39\n      jump\t// in\n    tag_36:\n      mload(0x40)\n      tag_40\n      swap2\n      swap1\n      tag_41\n      jump\t// in\n    tag_40:\n      mload(0x40)\n      dup1\n      swap2\n      sub\n      swap1\n      return\n        /* \"AuctionContract.sol\":10890:12726  function finalize() external {... */\n    tag_5:\n      callvalue\n      dup1\n      iszero\n      tag_42\n      jumpi\n      revert(0x00, 0x00)\n    tag_42:\n      pop\n      tag_43\n      tag_44\n      jump\t// in\n    tag_43:\n      stop\n        /* \"AuctionContract.sol\":3842:3929  IERC721 public immutable classNFT = IERC721(0x1546Bd67237122754D3F0cB761c139f81388b210) */\n    tag_6:\n      callvalue\n      dup1\n      iszero\n      tag_45\n      jumpi\n      revert(0x00, 0x00)\n    tag_45:\n      pop\n      tag_46\n      tag_47\n      jump\t// in\n    tag_46:\n      mload(0x40)\n      tag_48\n      swap2\n      swap1\n      tag_49\n      jump\t// in\n    tag_48:\n      mload(0x40)\n      dup1\n      swap2\n      sub\n      swap1\n      return\n        /* \"AuctionContract.sol\":9016:10717  function revealBid(uint256 amount, bytes32 salt) external {... */\n    tag_7:\n      callvalue\n      dup1\n      iszero\n      tag_50\n      jumpi\n      revert(0x00, 0x00)\n    tag_50:\n      pop\n      tag_51\n      0x04\n      dup1\n      calldatasize\n      sub\n      dup2\n      add\n      swap1\n      tag_52\n      swap2\n      swap1\n      tag_53\n      jump\t// in\n    tag_52:\n      tag_54\n      jump\t// in\n    tag_51:\n      stop\n        /* \"AuctionContract.sol\":18931:19306  function getWinnerInfo(uint256 id) external view returns (address winner, uint256 price, uint64 payDeadline) {... */\n    tag_8:\n      callvalue\n      dup1\n      iszero\n      tag_55\n      jumpi\n      revert(0x00, 0x00)\n    tag_55:\n      pop\n      tag_56\n      0x04\n      dup1\n      calldatasize\n      sub\n      dup2\n      add\n      swap1\n      tag_57\n      swap2\n      swap1\n      tag_58\n      jump\t// in\n    tag_57:\n      tag_59\n      jump\t// in\n    tag_56:\n      mload(0x40)\n      tag_60\n      swap4\n      swap3\n      swap2\n      swap1\n      tag_61\n      jump\t// in\n    tag_60:\n      mload(0x40)\n      dup1\n      swap2\n      sub\n      swap1\n      return\n        /* \"AuctionContract.sol\":16144:16640  function withdrawDeposits(uint256 id) external nonReentrant{... */\n    tag_9:\n      callvalue\n      dup1\n      iszero\n      tag_62\n      jumpi\n      revert(0x00, 0x00)\n    tag_62:\n      pop\n      tag_63\n      0x04\n      dup1\n      calldatasize\n      sub\n      dup2\n      add\n      swap1\n      tag_64\n      swap2\n      swap1\n      tag_58\n      jump\t// in\n    tag_64:\n      tag_65\n      jump\t// in\n    tag_63:\n      stop\n        /* \"AuctionContract.sol\":15646:16136  function withdrawDeposits() external nonReentrant{... */\n    tag_10:\n      callvalue\n      dup1\n      iszero\n      tag_66\n      jumpi\n      revert(0x00, 0x00)\n    tag_66:\n      pop\n      tag_67\n      tag_68\n      jump\t// in\n    tag_67:\n      stop\n        /* \"AuctionContract.sol\":18267:18454  function getRevealedAmount(uint256 id, address bidder) external view returns (uint256) {... */\n    tag_11:\n      callvalue\n      dup1\n      iszero\n      tag_69\n      jumpi\n      revert(0x00, 0x00)\n    tag_69:\n      pop\n      tag_70\n      0x04\n      dup1\n      calldatasize\n      sub\n      dup2\n      add\n      swap1\n      tag_71\n      swap2\n      swap1\n      tag_72\n      jump\t// in\n    tag_71:\n      tag_73\n      jump\t// in\n    tag_70:\n      mload(0x40)\n      tag_74\n      swap2\n      swap1\n      tag_30\n      jump\t// in\n    tag_74:\n      mload(0x40)\n      dup1\n      swap2\n      sub\n      swap1\n      return\n        /* \"AuctionContract.sol\":7483:8857  function commitBid(bytes32 commitment) external payable{... */\n    tag_12:\n      tag_75\n      0x04\n      dup1\n      calldatasize\n      sub\n      dup2\n      add\n      swap1\n      tag_76\n      swap2\n      swap1\n      tag_77\n      jump\t// in\n    tag_76:\n      tag_78\n      jump\t// in\n    tag_75:\n      stop\n        /* \"AuctionContract.sol\":5364:7307  function startAuction(... */\n    tag_13:\n      callvalue\n      dup1\n      iszero\n      tag_79\n      jumpi\n      revert(0x00, 0x00)\n    tag_79:\n      pop\n      tag_80\n      0x04\n      dup1\n      calldatasize\n      sub\n      dup2\n      add\n      swap1\n      tag_81\n      swap2\n      swap1\n      tag_82\n      jump\t// in\n    tag_81:\n      tag_83\n      jump\t// in\n    tag_80:\n      stop\n        /* \"AuctionContract.sol\":17702:17882  function getCommitment(uint256 id, address bidder) external view returns (bytes32) {... */\n    tag_14:\n      callvalue\n      dup1\n      iszero\n      tag_84\n      jumpi\n      revert(0x00, 0x00)\n    tag_84:\n      pop\n      tag_85\n      0x04\n      dup1\n      calldatasize\n      sub\n      dup2\n      add\n      swap1\n      tag_86\n      swap2\n      swap1\n      tag_72\n      jump\t// in\n    tag_86:\n      tag_87\n      jump\t// in\n    tag_85:\n      mload(0x40)\n      tag_88\n      swap2\n      swap1\n      tag_89\n      jump\t// in\n    tag_88:\n      mload(0x40)\n      dup1\n      swap2\n      sub\n      swap1\n      return\n        /* \"AuctionContract.sol\":13813:14789  function payAndClaim(uint256 id) external payable nonReentrant {... */\n    tag_15:\n      tag_90\n      0x04\n      dup1\n      calldatasize\n      sub\n      dup2\n      add\n      swap1\n      tag_91\n      swap2\n      swap1\n      tag_58\n      jump\t// in\n    tag_91:\n      tag_92\n      jump\t// in\n    tag_90:\n      stop\n        /* \"AuctionContract.sol\":1528:1574  uint256 public constant MAX_DURATION = 2592000 */\n    tag_16:\n      callvalue\n      dup1\n      iszero\n      tag_93\n      jumpi\n      revert(0x00, 0x00)\n    tag_93:\n      pop\n      tag_94\n      tag_95\n      jump\t// in\n    tag_94:\n      mload(0x40)\n      tag_96\n      swap2\n      swap1\n      tag_30\n      jump\t// in\n    tag_96:\n      mload(0x40)\n      dup1\n      swap2\n      sub\n      swap1\n      return\n        /* \"AuctionContract.sol\":18462:18923  function currentPhase(uint256 id) public view returns (string memory) {... */\n    tag_17:\n      callvalue\n      dup1\n      iszero\n      tag_97\n      jumpi\n      revert(0x00, 0x00)\n    tag_97:\n      pop\n      tag_98\n      0x04\n      dup1\n      calldatasize\n      sub\n      dup2\n      add\n      swap1\n      tag_99\n      swap2\n      swap1\n      tag_58\n      jump\t// in\n    tag_99:\n      tag_100\n      jump\t// in\n    tag_98:\n      mload(0x40)\n      tag_101\n      swap2\n      swap1\n      tag_102\n      jump\t// in\n    tag_101:\n      mload(0x40)\n      dup1\n      swap2\n      sub\n      swap1\n      return\n        /* \"AuctionContract.sol\":14896:15638  function sellerReclaimNFT(uint256 id) external {... */\n    tag_18:\n      callvalue\n      dup1\n      iszero\n      tag_103\n      jumpi\n      revert(0x00, 0x00)\n    tag_103:\n      pop\n      tag_104\n      0x04\n      dup1\n      calldatasize\n      sub\n      dup2\n      add\n      swap1\n      tag_105\n      swap2\n      swap1\n      tag_58\n      jump\t// in\n    tag_105:\n      tag_106\n      jump\t// in\n    tag_104:\n      stop\n        /* \"AuctionContract.sol\":17890:18066  function getCommitSeq(uint256 id, address bidder) external view returns (uint64) {... */\n    tag_19:\n      callvalue\n      dup1\n      iszero\n      tag_107\n      jumpi\n      revert(0x00, 0x00)\n    tag_107:\n      pop\n      tag_108\n      0x04\n      dup1\n      calldatasize\n      sub\n      dup2\n      add\n      swap1\n      tag_109\n      swap2\n      swap1\n      tag_72\n      jump\t// in\n    tag_109:\n      tag_110\n      jump\t// in\n    tag_108:\n      mload(0x40)\n      tag_111\n      swap2\n      swap1\n      tag_112\n      jump\t// in\n    tag_111:\n      mload(0x40)\n      dup1\n      swap2\n      sub\n      swap1\n      return\n        /* \"AuctionContract.sol\":19350:19615  function getTimes(uint256 id) external view returns (uint64 startStamp, uint64 commitEnd, uint64 revealEnd, uint64 settleDeadline) {... */\n    tag_20:\n      callvalue\n      dup1\n      iszero\n      tag_113\n      jumpi\n      revert(0x00, 0x00)\n    tag_113:\n      pop\n      tag_114\n      0x04\n      dup1\n      calldatasize\n      sub\n      dup2\n      add\n      swap1\n      tag_115\n      swap2\n      swap1\n      tag_58\n      jump\t// in\n    tag_115:\n      tag_116\n      jump\t// in\n    tag_114:\n      mload(0x40)\n      tag_117\n      swap5\n      swap4\n      swap3\n      swap2\n      swap1\n      tag_118\n      jump\t// in\n    tag_117:\n      mload(0x40)\n      dup1\n      swap2\n      sub\n      swap1\n      return\n        /* \"AuctionContract.sol\":18074:18259  function getDepositAmount(uint256 id, address bidder) external view returns (uint256) {... */\n    tag_21:\n      callvalue\n      dup1\n      iszero\n      tag_119\n      jumpi\n      revert(0x00, 0x00)\n    tag_119:\n      pop\n      tag_120\n      0x04\n      dup1\n      calldatasize\n      sub\n      dup2\n      add\n      swap1\n      tag_121\n      swap2\n      swap1\n      tag_72\n      jump\t// in\n    tag_121:\n      tag_122\n      jump\t// in\n    tag_120:\n      mload(0x40)\n      tag_123\n      swap2\n      swap1\n      tag_30\n      jump\t// in\n    tag_123:\n      mload(0x40)\n      dup1\n      swap2\n      sub\n      swap1\n      return\n        /* \"AuctionContract.sol\":12939:13774  function payAndClaim() external payable nonReentrant {... */\n    tag_22:\n      tag_124\n      tag_125\n      jump\t// in\n    tag_124:\n      stop\n        /* \"AuctionContract.sol\":1593:1633  uint256 public constant MAX_PRICE = 1e27 */\n    tag_28:\n        /* \"AuctionContract.sol\":1629:1633  1e27 */\n      0x033b2e3c9fd0803ce8000000\n        /* \"AuctionContract.sol\":1593:1633  uint256 public constant MAX_PRICE = 1e27 */\n      dup2\n      jump\t// out\n        /* \"AuctionContract.sol\":3679:3703  uint256 public auctionId */\n    tag_33:\n      sload(0x01)\n      dup2\n      jump\t// out\n        /* \"AuctionContract.sol\":2096:2263  function onERC721Received(address, address, uint256, bytes calldata) external pure returns (bytes4) {... */\n    tag_39:\n        /* \"AuctionContract.sol\":2188:2194  bytes4 */\n      0x00\n        /* \"AuctionContract.sol\":2214:2255  IERC721Receiver.onERC721Received.selector */\n      shl(0xe0, 0x150b7a02)\n        /* \"AuctionContract.sol\":2207:2255  return IERC721Receiver.onERC721Received.selector */\n      swap1\n      pop\n        /* \"AuctionContract.sol\":2096:2263  function onERC721Received(address, address, uint256, bytes calldata) external pure returns (bytes4) {... */\n      swap6\n      swap5\n      pop\n      pop\n      pop\n      pop\n      pop\n      jump\t// out\n        /* \"AuctionContract.sol\":10890:12726  function finalize() external {... */\n    tag_44:\n        /* \"AuctionContract.sol\":10930:10947  Auction storage A */\n      0x00\n        /* \"AuctionContract.sol\":10950:10973  _requireActiveAuction() */\n      tag_128\n        /* \"AuctionContract.sol\":10950:10971  _requireActiveAuction */\n      tag_129\n        /* \"AuctionContract.sol\":10950:10973  _requireActiveAuction() */\n      jump\t// in\n    tag_128:\n        /* \"AuctionContract.sol\":10930:10973  Auction storage A = _requireActiveAuction() */\n      swap1\n      pop\n        /* \"AuctionContract.sol\":11006:11007  A */\n      dup1\n        /* \"AuctionContract.sol\":11006:11017  A.revealEnd */\n      0x04\n      add\n      0x10\n      swap1\n      sload\n      swap1\n      0x0100\n      exp\n      swap1\n      div\n      0xffffffffffffffff\n      and\n        /* \"AuctionContract.sol\":10988:11017  block.timestamp < A.revealEnd */\n      0xffffffffffffffff\n      and\n        /* \"AuctionContract.sol\":10988:11003  block.timestamp */\n      timestamp\n        /* \"AuctionContract.sol\":10988:11017  block.timestamp < A.revealEnd */\n      lt\n        /* \"AuctionContract.sol\":10984:11042  if (block.timestamp < A.revealEnd) revert NotFinalizable() */\n      iszero\n      tag_130\n      jumpi\n        /* \"AuctionContract.sol\":11026:11042  NotFinalizable() */\n      mload(0x40)\n      0xe8f46600000000000000000000000000000000000000000000000000000000\n      dup2\n      mstore\n      0x04\n      add\n      mload(0x40)\n      dup1\n      swap2\n      sub\n      swap1\n      revert\n        /* \"AuctionContract.sol\":10984:11042  if (block.timestamp < A.revealEnd) revert NotFinalizable() */\n    tag_130:\n        /* \"AuctionContract.sol\":11062:11063  A */\n      dup1\n        /* \"AuctionContract.sol\":11062:11073  A.finalized */\n      0x09\n      add\n      0x00\n      swap1\n      sload\n      swap1\n      0x0100\n      exp\n      swap1\n      div\n      0xff\n      and\n        /* \"AuctionContract.sol\":11061:11073  !A.finalized */\n      iszero\n        /* \"AuctionContract.sol\":11053:11095  require(!A.finalized, \"already finalized\") */\n      tag_131\n      jumpi\n      mload(0x40)\n      0x08c379a000000000000000000000000000000000000000000000000000000000\n      dup2\n      mstore\n      0x04\n      add\n      tag_132\n      swap1\n      tag_133\n      jump\t// in\n    tag_132:\n      mload(0x40)\n      dup1\n      swap2\n      sub\n      swap1\n      revert\n    tag_131:\n        /* \"AuctionContract.sol\":11138:11142  true */\n      0x01\n        /* \"AuctionContract.sol\":11124:11125  A */\n      dup2\n        /* \"AuctionContract.sol\":11124:11135  A.finalized */\n      0x09\n      add\n      0x00\n        /* \"AuctionContract.sol\":11124:11142  A.finalized = true */\n      0x0100\n      exp\n      dup2\n      sload\n      dup2\n      0xff\n      mul\n      not\n      and\n      swap1\n      dup4\n      iszero\n      iszero\n      mul\n      or\n      swap1\n      sstore\n      pop\n        /* \"AuctionContract.sol\":11254:11255  0 */\n      0x00\n        /* \"AuctionContract.sol\":11227:11256  A.highestBidder == address(0) */\n      0xffffffffffffffffffffffffffffffffffffffff\n      and\n        /* \"AuctionContract.sol\":11227:11228  A */\n      dup2\n        /* \"AuctionContract.sol\":11227:11242  A.highestBidder */\n      0x05\n      add\n      0x08\n      swap1\n      sload\n      swap1\n      0x0100\n      exp\n      swap1\n      div\n      0xffffffffffffffffffffffffffffffffffffffff\n      and\n        /* \"AuctionContract.sol\":11227:11256  A.highestBidder == address(0) */\n      0xffffffffffffffffffffffffffffffffffffffff\n      and\n      sub\n        /* \"AuctionContract.sol\":11223:11536  if (A.highestBidder == address(0)) {... */\n      tag_134\n      jumpi\n        /* \"AuctionContract.sol\":11291:11292  0 */\n      0x00\n        /* \"AuctionContract.sol\":11273:11274  A */\n      dup2\n        /* \"AuctionContract.sol\":11273:11288  A.clearingPrice */\n      0x08\n      add\n        /* \"AuctionContract.sol\":11273:11292  A.clearingPrice = 0 */\n      dup2\n      swap1\n      sstore\n      pop\n        /* \"AuctionContract.sol\":11319:11323  true */\n      0x01\n        /* \"AuctionContract.sol\":11307:11308  A */\n      dup2\n        /* \"AuctionContract.sol\":11307:11316  A.settled */\n      0x09\n      add\n      0x01\n        /* \"AuctionContract.sol\":11307:11323  A.settled = true */\n      0x0100\n      exp\n      dup2\n      sload\n      dup2\n      0xff\n      mul\n      not\n      and\n      swap1\n      dup4\n      iszero\n      iszero\n      mul\n      or\n      swap1\n      sstore\n      pop\n        /* \"AuctionContract.sol\":11338:11390  _safeTransferNFT(address(this), A.seller, A.tokenId) */\n      tag_135\n        /* \"AuctionContract.sol\":11363:11367  this */\n      address\n        /* \"AuctionContract.sol\":11370:11371  A */\n      dup3\n        /* \"AuctionContract.sol\":11370:11378  A.seller */\n      0x01\n      add\n      0x00\n      swap1\n      sload\n      swap1\n      0x0100\n      exp\n      swap1\n      div\n      0xffffffffffffffffffffffffffffffffffffffff\n      and\n        /* \"AuctionContract.sol\":11380:11381  A */\n      dup4\n        /* \"AuctionContract.sol\":11380:11389  A.tokenId */\n      0x00\n      add\n      sload\n        /* \"AuctionContract.sol\":11338:11354  _safeTransferNFT */\n      tag_136\n        /* \"AuctionContract.sol\":11338:11390  _safeTransferNFT(address(this), A.seller, A.tokenId) */\n      jump\t// in\n    tag_135:\n        /* \"AuctionContract.sol\":11493:11502  auctionId */\n      sload(0x01)\n        /* \"AuctionContract.sol\":11486:11503  Unsold(auctionId) */\n      0xa761d07fdb0a6897f18726f15d43008d6c30ce08e44a91775cfd2ef3b61cdad0\n      mload(0x40)\n      mload(0x40)\n      dup1\n      swap2\n      sub\n      swap1\n      log2\n        /* \"AuctionContract.sol\":11518:11525  return; */\n      pop\n      jump(tag_127)\n        /* \"AuctionContract.sol\":11223:11536  if (A.highestBidder == address(0)) {... */\n    tag_134:\n        /* \"AuctionContract.sol\":11610:11627  uint256 dealPrice */\n      0x00\n        /* \"AuctionContract.sol\":11645:11646  A */\n      dup2\n        /* \"AuctionContract.sol\":11645:11659  A.reservePrice */\n      0x02\n      add\n      sload\n        /* \"AuctionContract.sol\":11631:11632  A */\n      dup3\n        /* \"AuctionContract.sol\":11631:11642  A.secondBid */\n      0x07\n      add\n      sload\n        /* \"AuctionContract.sol\":11631:11659  A.secondBid < A.reservePrice */\n      lt\n        /* \"AuctionContract.sol\":11630:11689  (A.secondBid < A.reservePrice) ? A.reservePrice:A.secondBid */\n      tag_137\n      jumpi\n        /* \"AuctionContract.sol\":11678:11679  A */\n      dup2\n        /* \"AuctionContract.sol\":11678:11689  A.secondBid */\n      0x07\n      add\n      sload\n        /* \"AuctionContract.sol\":11630:11689  (A.secondBid < A.reservePrice) ? A.reservePrice:A.secondBid */\n      jump(tag_138)\n    tag_137:\n        /* \"AuctionContract.sol\":11663:11664  A */\n      dup2\n        /* \"AuctionContract.sol\":11663:11677  A.reservePrice */\n      0x02\n      add\n      sload\n        /* \"AuctionContract.sol\":11630:11689  (A.secondBid < A.reservePrice) ? A.reservePrice:A.secondBid */\n    tag_138:\n        /* \"AuctionContract.sol\":11610:11689  uint256 dealPrice = (A.secondBid < A.reservePrice) ? A.reservePrice:A.secondBid */\n      swap1\n      pop\n        /* \"AuctionContract.sol\":11775:11776  A */\n      dup2\n        /* \"AuctionContract.sol\":11775:11790  A.depositAmount */\n      0x0c\n      add\n        /* \"AuctionContract.sol\":11775:11807  A.depositAmount[A.highestBidder] */\n      0x00\n        /* \"AuctionContract.sol\":11791:11792  A */\n      dup4\n        /* \"AuctionContract.sol\":11791:11806  A.highestBidder */\n      0x05\n      add\n      0x08\n      swap1\n      sload\n      swap1\n      0x0100\n      exp\n      swap1\n      div\n      0xffffffffffffffffffffffffffffffffffffffff\n      and\n        /* \"AuctionContract.sol\":11775:11807  A.depositAmount[A.highestBidder] */\n      0xffffffffffffffffffffffffffffffffffffffff\n      and\n      0xffffffffffffffffffffffffffffffffffffffff\n      and\n      dup2\n      mstore\n      0x20\n      add\n      swap1\n      dup2\n      mstore\n      0x20\n      add\n      0x00\n      keccak256\n      sload\n        /* \"AuctionContract.sol\":11762:11771  dealPrice */\n      dup2\n        /* \"AuctionContract.sol\":11762:11807  dealPrice >= A.depositAmount[A.highestBidder] */\n      lt\n        /* \"AuctionContract.sol\":11759:12515  if(dealPrice >= A.depositAmount[A.highestBidder]){... */\n      tag_139\n      jumpi\n        /* \"AuctionContract.sol\":11823:11839  uint256 clearing */\n      0x00\n        /* \"AuctionContract.sol\":11854:11855  A */\n      dup3\n        /* \"AuctionContract.sol\":11854:11869  A.depositAmount */\n      0x0c\n      add\n        /* \"AuctionContract.sol\":11854:11886  A.depositAmount[A.highestBidder] */\n      0x00\n        /* \"AuctionContract.sol\":11870:11871  A */\n      dup5\n        /* \"AuctionContract.sol\":11870:11885  A.highestBidder */\n      0x05\n      add\n      0x08\n      swap1\n      sload\n      swap1\n      0x0100\n      exp\n      swap1\n      div\n      0xffffffffffffffffffffffffffffffffffffffff\n      and\n        /* \"AuctionContract.sol\":11854:11886  A.depositAmount[A.highestBidder] */\n      0xffffffffffffffffffffffffffffffffffffffff\n      and\n      0xffffffffffffffffffffffffffffffffffffffff\n      and\n      dup2\n      mstore\n      0x20\n      add\n      swap1\n      dup2\n      mstore\n      0x20\n      add\n      0x00\n      keccak256\n      sload\n        /* \"AuctionContract.sol\":11842:11851  dealPrice */\n      dup3\n        /* \"AuctionContract.sol\":11842:11886  dealPrice - A.depositAmount[A.highestBidder] */\n      tag_140\n      swap2\n      swap1\n      tag_141\n      jump\t// in\n    tag_140:\n        /* \"AuctionContract.sol\":11823:11886  uint256 clearing = dealPrice - A.depositAmount[A.highestBidder] */\n      swap1\n      pop\n        /* \"AuctionContract.sol\":11919:11927  clearing */\n      dup1\n        /* \"AuctionContract.sol\":11901:11902  A */\n      dup4\n        /* \"AuctionContract.sol\":11901:11916  A.clearingPrice */\n      0x08\n      add\n        /* \"AuctionContract.sol\":11901:11927  A.clearingPrice = clearing */\n      dup2\n      swap1\n      sstore\n      pop\n        /* \"AuctionContract.sol\":12008:12019  uint256 pay */\n      0x00\n        /* \"AuctionContract.sol\":12022:12023  A */\n      dup4\n        /* \"AuctionContract.sol\":12022:12037  A.depositAmount */\n      0x0c\n      add\n        /* \"AuctionContract.sol\":12022:12054  A.depositAmount[A.highestBidder] */\n      0x00\n        /* \"AuctionContract.sol\":12038:12039  A */\n      dup6\n        /* \"AuctionContract.sol\":12038:12053  A.highestBidder */\n      0x05\n      add\n      0x08\n      swap1\n      sload\n      swap1\n      0x0100\n      exp\n      swap1\n      div\n      0xffffffffffffffffffffffffffffffffffffffff\n      and\n        /* \"AuctionContract.sol\":12022:12054  A.depositAmount[A.highestBidder] */\n      0xffffffffffffffffffffffffffffffffffffffff\n      and\n      0xffffffffffffffffffffffffffffffffffffffff\n      and\n      dup2\n      mstore\n      0x20\n      add\n      swap1\n      dup2\n      mstore\n      0x20\n      add\n      0x00\n      keccak256\n      sload\n        /* \"AuctionContract.sol\":12008:12054  uint256 pay = A.depositAmount[A.highestBidder] */\n      swap1\n      pop\n        /* \"AuctionContract.sol\":12104:12105  0 */\n      0x00\n        /* \"AuctionContract.sol\":12069:12070  A */\n      dup5\n        /* \"AuctionContract.sol\":12069:12084  A.depositAmount */\n      0x0c\n      add\n        /* \"AuctionContract.sol\":12069:12101  A.depositAmount[A.highestBidder] */\n      0x00\n        /* \"AuctionContract.sol\":12085:12086  A */\n      dup7\n        /* \"AuctionContract.sol\":12085:12100  A.highestBidder */\n      0x05\n      add\n      0x08\n      swap1\n      sload\n      swap1\n      0x0100\n      exp\n      swap1\n      div\n      0xffffffffffffffffffffffffffffffffffffffff\n      and\n        /* \"AuctionContract.sol\":12069:12101  A.depositAmount[A.highestBidder] */\n      0xffffffffffffffffffffffffffffffffffffffff\n      and\n      0xffffffffffffffffffffffffffffffffffffffff\n      and\n      dup2\n      mstore\n      0x20\n      add\n      swap1\n      dup2\n      mstore\n      0x20\n      add\n      0x00\n      keccak256\n        /* \"AuctionContract.sol\":12069:12105  A.depositAmount[A.highestBidder] = 0 */\n      dup2\n      swap1\n      sstore\n      pop\n        /* \"AuctionContract.sol\":12148:12151  pay */\n      dup1\n        /* \"AuctionContract.sol\":12120:12121  A */\n      dup5\n        /* \"AuctionContract.sol\":12120:12135  A.depositAmount */\n      0x0c\n      add\n        /* \"AuctionContract.sol\":12120:12145  A.depositAmount[A.seller] */\n      0x00\n        /* \"AuctionContract.sol\":12136:12137  A */\n      dup7\n        /* \"AuctionContract.sol\":12136:12144  A.seller */\n      0x01\n      add\n      0x00\n      swap1\n      sload\n      swap1\n      0x0100\n      exp\n      swap1\n      div\n      0xffffffffffffffffffffffffffffffffffffffff\n      and\n        /* \"AuctionContract.sol\":12120:12145  A.depositAmount[A.seller] */\n      0xffffffffffffffffffffffffffffffffffffffff\n      and\n      0xffffffffffffffffffffffffffffffffffffffff\n      and\n      dup2\n      mstore\n      0x20\n      add\n      swap1\n      dup2\n      mstore\n      0x20\n      add\n      0x00\n      keccak256\n        /* \"AuctionContract.sol\":12120:12151  A.depositAmount[A.seller] = pay */\n      dup2\n      swap1\n      sstore\n      pop\n        /* \"AuctionContract.sol\":11808:12163  {... */\n      pop\n      pop\n        /* \"AuctionContract.sol\":11759:12515  if(dealPrice >= A.depositAmount[A.highestBidder]){... */\n      jump(tag_142)\n    tag_139:\n        /* \"AuctionContract.sol\":12244:12245  A */\n      dup2\n        /* \"AuctionContract.sol\":12244:12259  A.depositAmount */\n      0x0c\n      add\n        /* \"AuctionContract.sol\":12244:12276  A.depositAmount[A.highestBidder] */\n      0x00\n        /* \"AuctionContract.sol\":12260:12261  A */\n      dup4\n        /* \"AuctionContract.sol\":12260:12275  A.highestBidder */\n      0x05\n      add\n      0x08\n      swap1\n      sload\n      swap1\n      0x0100\n      exp\n      swap1\n      div\n      0xffffffffffffffffffffffffffffffffffffffff\n      and\n        /* \"AuctionContract.sol\":12244:12276  A.depositAmount[A.highestBidder] */\n      0xffffffffffffffffffffffffffffffffffffffff\n      and\n      0xffffffffffffffffffffffffffffffffffffffff\n      and\n      dup2\n      mstore\n      0x20\n      add\n      swap1\n      dup2\n      mstore\n      0x20\n      add\n      0x00\n      keccak256\n      sload\n        /* \"AuctionContract.sol\":12232:12241  dealPrice */\n      dup2\n        /* \"AuctionContract.sol\":12232:12276  dealPrice < A.depositAmount[A.highestBidder] */\n      lt\n        /* \"AuctionContract.sol\":12228:12515  if (dealPrice < A.depositAmount[A.highestBidder]){... */\n      iszero\n      tag_143\n      jumpi\n        /* \"AuctionContract.sol\":12292:12310  uint256 toWithdraw */\n      0x00\n        /* \"AuctionContract.sol\":12348:12357  dealPrice */\n      dup2\n        /* \"AuctionContract.sol\":12313:12314  A */\n      dup4\n        /* \"AuctionContract.sol\":12313:12328  A.depositAmount */\n      0x0c\n      add\n        /* \"AuctionContract.sol\":12313:12345  A.depositAmount[A.highestBidder] */\n      0x00\n        /* \"AuctionContract.sol\":12329:12330  A */\n      dup6\n        /* \"AuctionContract.sol\":12329:12344  A.highestBidder */\n      0x05\n      add\n      0x08\n      swap1\n      sload\n      swap1\n      0x0100\n      exp\n      swap1\n      div\n      0xffffffffffffffffffffffffffffffffffffffff\n      and\n        /* \"AuctionContract.sol\":12313:12345  A.depositAmount[A.highestBidder] */\n      0xffffffffffffffffffffffffffffffffffffffff\n      and\n      0xffffffffffffffffffffffffffffffffffffffff\n      and\n      dup2\n      mstore\n      0x20\n      add\n      swap1\n      dup2\n      mstore\n      0x20\n      add\n      0x00\n      keccak256\n      sload\n        /* \"AuctionContract.sol\":12313:12357  A.depositAmount[A.highestBidder] - dealPrice */\n      tag_144\n      swap2\n      swap1\n      tag_141\n      jump\t// in\n    tag_144:\n        /* \"AuctionContract.sol\":12292:12357  uint256 toWithdraw = A.depositAmount[A.highestBidder] - dealPrice */\n      swap1\n      pop\n        /* \"AuctionContract.sol\":12390:12391  0 */\n      0x00\n        /* \"AuctionContract.sol\":12372:12373  A */\n      dup4\n        /* \"AuctionContract.sol\":12372:12387  A.clearingPrice */\n      0x08\n      add\n        /* \"AuctionContract.sol\":12372:12391  A.clearingPrice = 0 */\n      dup2\n      swap1\n      sstore\n      pop\n        /* \"AuctionContract.sol\":12441:12451  toWithdraw */\n      dup1\n        /* \"AuctionContract.sol\":12406:12407  A */\n      dup4\n        /* \"AuctionContract.sol\":12406:12421  A.depositAmount */\n      0x0c\n      add\n        /* \"AuctionContract.sol\":12406:12438  A.depositAmount[A.highestBidder] */\n      0x00\n        /* \"AuctionContract.sol\":12422:12423  A */\n      dup6\n        /* \"AuctionContract.sol\":12422:12437  A.highestBidder */\n      0x05\n      add\n      0x08\n      swap1\n      sload\n      swap1\n      0x0100\n      exp\n      swap1\n      div\n      0xffffffffffffffffffffffffffffffffffffffff\n      and\n        /* \"AuctionContract.sol\":12406:12438  A.depositAmount[A.highestBidder] */\n      0xffffffffffffffffffffffffffffffffffffffff\n      and\n      0xffffffffffffffffffffffffffffffffffffffff\n      and\n      dup2\n      mstore\n      0x20\n      add\n      swap1\n      dup2\n      mstore\n      0x20\n      add\n      0x00\n      keccak256\n        /* \"AuctionContract.sol\":12406:12451  A.depositAmount[A.highestBidder] = toWithdraw */\n      dup2\n      swap1\n      sstore\n      pop\n        /* \"AuctionContract.sol\":12494:12503  dealPrice */\n      dup2\n        /* \"AuctionContract.sol\":12466:12467  A */\n      dup4\n        /* \"AuctionContract.sol\":12466:12481  A.depositAmount */\n      0x0c\n      add\n        /* \"AuctionContract.sol\":12466:12491  A.depositAmount[A.seller] */\n      0x00\n        /* \"AuctionContract.sol\":12482:12483  A */\n      dup6\n        /* \"AuctionContract.sol\":12482:12490  A.seller */\n      0x01\n      add\n      0x00\n      swap1\n      sload\n      swap1\n      0x0100\n      exp\n      swap1\n      div\n      0xffffffffffffffffffffffffffffffffffffffff\n      and\n        /* \"AuctionContract.sol\":12466:12491  A.depositAmount[A.seller] */\n      0xffffffffffffffffffffffffffffffffffffffff\n      and\n      0xffffffffffffffffffffffffffffffffffffffff\n      and\n      dup2\n      mstore\n      0x20\n      add\n      swap1\n      dup2\n      mstore\n      0x20\n      add\n      0x00\n      keccak256\n        /* \"AuctionContract.sol\":12466:12503  A.depositAmount[A.seller] = dealPrice */\n      dup2\n      swap1\n      sstore\n      pop\n        /* \"AuctionContract.sol\":12277:12515  {... */\n      pop\n        /* \"AuctionContract.sol\":12228:12515  if (dealPrice < A.depositAmount[A.highestBidder]){... */\n    tag_143:\n        /* \"AuctionContract.sol\":11759:12515  if(dealPrice >= A.depositAmount[A.highestBidder]){... */\n    tag_142:\n        /* \"AuctionContract.sol\":12603:12604  A */\n      dup2\n        /* \"AuctionContract.sol\":12603:12619  A.settleDuration */\n      0x04\n      add\n      0x18\n      swap1\n      sload\n      swap1\n      0x0100\n      exp\n      swap1\n      div\n      0xffffffffffffffff\n      and\n        /* \"AuctionContract.sol\":12584:12599  block.timestamp */\n      timestamp\n        /* \"AuctionContract.sol\":12577:12619  uint64(block.timestamp) + A.settleDuration */\n      tag_145\n      swap2\n      swap1\n      tag_146\n      jump\t// in\n    tag_145:\n        /* \"AuctionContract.sol\":12558:12559  A */\n      dup3\n        /* \"AuctionContract.sol\":12558:12574  A.settleDeadline */\n      0x05\n      add\n      0x00\n        /* \"AuctionContract.sol\":12558:12619  A.settleDeadline = uint64(block.timestamp) + A.settleDuration */\n      0x0100\n      exp\n      dup2\n      sload\n      dup2\n      0xffffffffffffffff\n      mul\n      not\n      and\n      swap1\n      dup4\n      0xffffffffffffffff\n      and\n      mul\n      or\n      swap1\n      sstore\n      pop\n        /* \"AuctionContract.sol\":12647:12656  auctionId */\n      sload(0x01)\n        /* \"AuctionContract.sol\":12637:12718  Finalized(auctionId, A.highestBidder, A.highestBid, A.secondBid, A.clearingPrice) */\n      0x5ab4254a16d8f1486e035342f3b6736a5efdc0b79886e7525b374bb0ec9ebee1\n        /* \"AuctionContract.sol\":12658:12659  A */\n      dup4\n        /* \"AuctionContract.sol\":12658:12673  A.highestBidder */\n      0x05\n      add\n      0x08\n      swap1\n      sload\n      swap1\n      0x0100\n      exp\n      swap1\n      div\n      0xffffffffffffffffffffffffffffffffffffffff\n      and\n        /* \"AuctionContract.sol\":12675:12676  A */\n      dup5\n        /* \"AuctionContract.sol\":12675:12687  A.highestBid */\n      0x06\n      add\n      sload\n        /* \"AuctionContract.sol\":12689:12690  A */\n      dup6\n        /* \"AuctionContract.sol\":12689:12700  A.secondBid */\n      0x07\n      add\n      sload\n        /* \"AuctionContract.sol\":12702:12703  A */\n      dup7\n        /* \"AuctionContract.sol\":12702:12717  A.clearingPrice */\n      0x08\n      add\n      sload\n        /* \"AuctionContract.sol\":12637:12718  Finalized(auctionId, A.highestBidder, A.highestBid, A.secondBid, A.clearingPrice) */\n      mload(0x40)\n      tag_147\n      swap5\n      swap4\n      swap3\n      swap2\n      swap1\n      tag_148\n      jump\t// in\n    tag_147:\n      mload(0x40)\n      dup1\n      swap2\n      sub\n      swap1\n      log2\n        /* \"AuctionContract.sol\":10919:12726  {... */\n      pop\n      pop\n        /* \"AuctionContract.sol\":10890:12726  function finalize() external {... */\n    tag_127:\n      jump\t// out\n        /* \"AuctionContract.sol\":3842:3929  IERC721 public immutable classNFT = IERC721(0x1546Bd67237122754D3F0cB761c139f81388b210) */\n    tag_47:\n      immutable(\"0x4e5869b372f44a1c9aa0923bc94152ac1c74ce415b48c7d3f09c31f435665329\")\n      dup2\n      jump\t// out\n        /* \"AuctionContract.sol\":9016:10717  function revealBid(uint256 amount, bytes32 salt) external {... */\n    tag_54:\n        /* \"AuctionContract.sol\":9085:9102  Auction storage A */\n      0x00\n        /* \"AuctionContract.sol\":9105:9128  _requireActiveAuction() */\n      tag_150\n        /* \"AuctionContract.sol\":9105:9126  _requireActiveAuction */\n      tag_129\n        /* \"AuctionContract.sol\":9105:9128  _requireActiveAuction() */\n      jump\t// in\n    tag_150:\n        /* \"AuctionContract.sol\":9085:9128  Auction storage A = _requireActiveAuction() */\n      swap1\n      pop\n        /* \"AuctionContract.sol\":9139:9148  uint256 t */\n      0x00\n        /* \"AuctionContract.sol\":9151:9166  block.timestamp */\n      timestamp\n        /* \"AuctionContract.sol\":9139:9166  uint256 t = block.timestamp */\n      swap1\n      pop\n        /* \"AuctionContract.sol\":9185:9186  A */\n      dup2\n        /* \"AuctionContract.sol\":9185:9196  A.commitEnd */\n      0x04\n      add\n      0x08\n      swap1\n      sload\n      swap1\n      0x0100\n      exp\n      swap1\n      div\n      0xffffffffffffffff\n      and\n        /* \"AuctionContract.sol\":9181:9196  t < A.commitEnd */\n      0xffffffffffffffff\n      and\n        /* \"AuctionContract.sol\":9181:9182  t */\n      dup2\n        /* \"AuctionContract.sol\":9181:9196  t < A.commitEnd */\n      lt\n        /* \"AuctionContract.sol\":9181:9216  t < A.commitEnd || t >= A.revealEnd */\n      dup1\n      tag_151\n      jumpi\n      pop\n        /* \"AuctionContract.sol\":9205:9206  A */\n      dup2\n        /* \"AuctionContract.sol\":9205:9216  A.revealEnd */\n      0x04\n      add\n      0x10\n      swap1\n      sload\n      swap1\n      0x0100\n      exp\n      swap1\n      div\n      0xffffffffffffffff\n      and\n        /* \"AuctionContract.sol\":9200:9216  t >= A.revealEnd */\n      0xffffffffffffffff\n      and\n        /* \"AuctionContract.sol\":9200:9201  t */\n      dup2\n        /* \"AuctionContract.sol\":9200:9216  t >= A.revealEnd */\n      lt\n      iszero\n        /* \"AuctionContract.sol\":9181:9216  t < A.commitEnd || t >= A.revealEnd */\n    tag_151:\n        /* \"AuctionContract.sol\":9177:9243  if (t < A.commitEnd || t >= A.revealEnd) revert NotInRevealPhase() */\n      iszero\n      tag_152\n      jumpi\n        /* \"AuctionContract.sol\":9225:9243  NotInRevealPhase() */\n      mload(0x40)\n      0x74683d7100000000000000000000000000000000000000000000000000000000\n      dup2\n      mstore\n      0x04\n      add\n      mload(0x40)\n      dup1\n      swap2\n      sub\n      swap1\n      revert\n        /* \"AuctionContract.sol\":9177:9243  if (t < A.commitEnd || t >= A.revealEnd) revert NotInRevealPhase() */\n    tag_152:\n        /* \"AuctionContract.sol\":9292:9293  0 */\n      0x00\n        /* \"AuctionContract.sol\":9260:9261  A */\n      dup3\n        /* \"AuctionContract.sol\":9260:9276  A.revealedAmount */\n      0x0d\n      add\n        /* \"AuctionContract.sol\":9260:9288  A.revealedAmount[msg.sender] */\n      0x00\n        /* \"AuctionContract.sol\":9277:9287  msg.sender */\n      caller\n        /* \"AuctionContract.sol\":9260:9288  A.revealedAmount[msg.sender] */\n      0xffffffffffffffffffffffffffffffffffffffff\n      and\n      0xffffffffffffffffffffffffffffffffffffffff\n      and\n      dup2\n      mstore\n      0x20\n      add\n      swap1\n      dup2\n      mstore\n      0x20\n      add\n      0x00\n      keccak256\n      sload\n        /* \"AuctionContract.sol\":9260:9293  A.revealedAmount[msg.sender] != 0 */\n      eq\n        /* \"AuctionContract.sol\":9256:9321  if (A.revealedAmount[msg.sender] != 0) revert RevealAlreadyDone() */\n      tag_153\n      jumpi\n        /* \"AuctionContract.sol\":9302:9321  RevealAlreadyDone() */\n      mload(0x40)\n      0x157330ee00000000000000000000000000000000000000000000000000000000\n      dup2\n      mstore\n      0x04\n      add\n      mload(0x40)\n      dup1\n      swap2\n      sub\n      swap1\n      revert\n        /* \"AuctionContract.sol\":9256:9321  if (A.revealedAmount[msg.sender] != 0) revert RevealAlreadyDone() */\n    tag_153:\n        /* \"AuctionContract.sol\":9370:9379  bytes32 c */\n      0x00\n        /* \"AuctionContract.sol\":9382:9383  A */\n      dup3\n        /* \"AuctionContract.sol\":9382:9395  A.commitments */\n      0x0a\n      add\n        /* \"AuctionContract.sol\":9382:9407  A.commitments[msg.sender] */\n      0x00\n        /* \"AuctionContract.sol\":9396:9406  msg.sender */\n      caller\n        /* \"AuctionContract.sol\":9382:9407  A.commitments[msg.sender] */\n      0xffffffffffffffffffffffffffffffffffffffff\n      and\n      0xffffffffffffffffffffffffffffffffffffffff\n      and\n      dup2\n      mstore\n      0x20\n      add\n      swap1\n      dup2\n      mstore\n      0x20\n      add\n      0x00\n      keccak256\n      sload\n        /* \"AuctionContract.sol\":9370:9407  bytes32 c = A.commitments[msg.sender] */\n      swap1\n      pop\n        /* \"AuctionContract.sol\":9435:9436  0 */\n      0x00\n        /* \"AuctionContract.sol\":9427:9437  bytes32(0) */\n      0x00\n      shl\n        /* \"AuctionContract.sol\":9422:9423  c */\n      dup2\n        /* \"AuctionContract.sol\":9422:9437  c == bytes32(0) */\n      sub\n        /* \"AuctionContract.sol\":9418:9465  if (c == bytes32(0)) revert InvalidCommitment() */\n      tag_154\n      jumpi\n        /* \"AuctionContract.sol\":9446:9465  InvalidCommitment() */\n      mload(0x40)\n      0xc06789fa00000000000000000000000000000000000000000000000000000000\n      dup2\n      mstore\n      0x04\n      add\n      mload(0x40)\n      dup1\n      swap2\n      sub\n      swap1\n      revert\n        /* \"AuctionContract.sol\":9418:9465  if (c == bytes32(0)) revert InvalidCommitment() */\n    tag_154:\n        /* \"AuctionContract.sol\":9525:9526  c */\n      dup1\n        /* \"AuctionContract.sol\":9507:9513  amount */\n      dup6\n        /* \"AuctionContract.sol\":9515:9519  salt */\n      dup6\n        /* \"AuctionContract.sol\":9490:9520  abi.encodePacked(amount, salt) */\n      add(0x20, mload(0x40))\n      tag_155\n      swap3\n      swap2\n      swap1\n      tag_156\n      jump\t// in\n    tag_155:\n      mload(0x40)\n      0x20\n      dup2\n      dup4\n      sub\n      sub\n      dup2\n      mstore\n      swap1\n      0x40\n      mstore\n        /* \"AuctionContract.sol\":9480:9521  keccak256(abi.encodePacked(amount, salt)) */\n      dup1\n      mload\n      swap1\n      0x20\n      add\n      keccak256\n        /* \"AuctionContract.sol\":9480:9526  keccak256(abi.encodePacked(amount, salt)) != c */\n      eq\n        /* \"AuctionContract.sol\":9476:9554  if (keccak256(abi.encodePacked(amount, salt)) != c) revert InvalidCommitment() */\n      tag_157\n      jumpi\n        /* \"AuctionContract.sol\":9535:9554  InvalidCommitment() */\n      mload(0x40)\n      0xc06789fa00000000000000000000000000000000000000000000000000000000\n      dup2\n      mstore\n      0x04\n      add\n      mload(0x40)\n      dup1\n      swap2\n      sub\n      swap1\n      revert\n        /* \"AuctionContract.sol\":9476:9554  if (keccak256(abi.encodePacked(amount, salt)) != c) revert InvalidCommitment() */\n    tag_157:\n        /* \"AuctionContract.sol\":9663:9669  amount */\n      dup5\n        /* \"AuctionContract.sol\":9632:9633  A */\n      dup4\n        /* \"AuctionContract.sol\":9632:9648  A.revealedAmount */\n      0x0d\n      add\n        /* \"AuctionContract.sol\":9632:9660  A.revealedAmount[msg.sender] */\n      0x00\n        /* \"AuctionContract.sol\":9649:9659  msg.sender */\n      caller\n        /* \"AuctionContract.sol\":9632:9660  A.revealedAmount[msg.sender] */\n      0xffffffffffffffffffffffffffffffffffffffff\n      and\n      0xffffffffffffffffffffffffffffffffffffffff\n      and\n      dup2\n      mstore\n      0x20\n      add\n      swap1\n      dup2\n      mstore\n      0x20\n      add\n      0x00\n      keccak256\n        /* \"AuctionContract.sol\":9632:9669  A.revealedAmount[msg.sender] = amount */\n      dup2\n      swap1\n      sstore\n      pop\n        /* \"AuctionContract.sol\":9740:9741  A */\n      dup3\n        /* \"AuctionContract.sol\":9740:9754  A.reservePrice */\n      0x02\n      add\n      sload\n        /* \"AuctionContract.sol\":9731:9737  amount */\n      dup6\n        /* \"AuctionContract.sol\":9731:9754  amount < A.reservePrice */\n      lt\n        /* \"AuctionContract.sol\":9727:9785  if (amount < A.reservePrice) revert InvalidRevealedPrice() */\n      iszero\n      tag_158\n      jumpi\n        /* \"AuctionContract.sol\":9763:9785  InvalidRevealedPrice() */\n      mload(0x40)\n      0x6b317d5600000000000000000000000000000000000000000000000000000000\n      dup2\n      mstore\n      0x04\n      add\n      mload(0x40)\n      dup1\n      swap2\n      sub\n      swap1\n      revert\n        /* \"AuctionContract.sol\":9727:9785  if (amount < A.reservePrice) revert InvalidRevealedPrice() */\n    tag_158:\n        /* \"AuctionContract.sol\":10025:10026  A */\n      dup3\n        /* \"AuctionContract.sol\":10025:10037  A.highestBid */\n      0x06\n      add\n      sload\n        /* \"AuctionContract.sol\":10016:10022  amount */\n      dup6\n        /* \"AuctionContract.sol\":10016:10037  amount > A.highestBid */\n      gt\n        /* \"AuctionContract.sol\":10012:10652  if (amount > A.highestBid) {... */\n      iszero\n      tag_159\n      jumpi\n        /* \"AuctionContract.sol\":10140:10141  0 */\n      0x00\n        /* \"AuctionContract.sol\":10113:10142  A.highestBidder != address(0) */\n      0xffffffffffffffffffffffffffffffffffffffff\n      and\n        /* \"AuctionContract.sol\":10113:10114  A */\n      dup4\n        /* \"AuctionContract.sol\":10113:10128  A.highestBidder */\n      0x05\n      add\n      0x08\n      swap1\n      sload\n      swap1\n      0x0100\n      exp\n      swap1\n      div\n      0xffffffffffffffffffffffffffffffffffffffff\n      and\n        /* \"AuctionContract.sol\":10113:10142  A.highestBidder != address(0) */\n      0xffffffffffffffffffffffffffffffffffffffff\n      and\n      eq\n        /* \"AuctionContract.sol\":10109:10205  if (A.highestBidder != address(0)) {... */\n      tag_160\n      jumpi\n        /* \"AuctionContract.sol\":10177:10178  A */\n      dup3\n        /* \"AuctionContract.sol\":10177:10189  A.highestBid */\n      0x06\n      add\n      sload\n        /* \"AuctionContract.sol\":10163:10164  A */\n      dup4\n        /* \"AuctionContract.sol\":10163:10174  A.secondBid */\n      0x07\n      add\n        /* \"AuctionContract.sol\":10163:10189  A.secondBid = A.highestBid */\n      dup2\n      swap1\n      sstore\n      pop\n        /* \"AuctionContract.sol\":10109:10205  if (A.highestBidder != address(0)) {... */\n    tag_160:\n        /* \"AuctionContract.sol\":10234:10240  amount */\n      dup5\n        /* \"AuctionContract.sol\":10219:10220  A */\n      dup4\n        /* \"AuctionContract.sol\":10219:10231  A.highestBid */\n      0x06\n      add\n        /* \"AuctionContract.sol\":10219:10240  A.highestBid = amount */\n      dup2\n      swap1\n      sstore\n      pop\n        /* \"AuctionContract.sol\":10273:10283  msg.sender */\n      caller\n        /* \"AuctionContract.sol\":10255:10256  A */\n      dup4\n        /* \"AuctionContract.sol\":10255:10270  A.highestBidder */\n      0x05\n      add\n      0x08\n        /* \"AuctionContract.sol\":10255:10283  A.highestBidder = msg.sender */\n      0x0100\n      exp\n      dup2\n      sload\n      dup2\n      0xffffffffffffffffffffffffffffffffffffffff\n      mul\n      not\n      and\n      swap1\n      dup4\n      0xffffffffffffffffffffffffffffffffffffffff\n      and\n      mul\n      or\n      swap1\n      sstore\n      pop\n        /* \"AuctionContract.sol\":10012:10652  if (amount > A.highestBid) {... */\n      jump(tag_161)\n    tag_159:\n        /* \"AuctionContract.sol\":10315:10316  A */\n      dup3\n        /* \"AuctionContract.sol\":10315:10327  A.highestBid */\n      0x06\n      add\n      sload\n        /* \"AuctionContract.sol\":10305:10311  amount */\n      dup6\n        /* \"AuctionContract.sol\":10305:10327  amount == A.highestBid */\n      eq\n        /* \"AuctionContract.sol\":10305:10385  amount == A.highestBid && A.commitSeq[msg.sender] < A.commitSeq[A.highestBidder] */\n      dup1\n      iszero\n      tag_162\n      jumpi\n      pop\n        /* \"AuctionContract.sol\":10357:10358  A */\n      dup3\n        /* \"AuctionContract.sol\":10357:10368  A.commitSeq */\n      0x0b\n      add\n        /* \"AuctionContract.sol\":10357:10385  A.commitSeq[A.highestBidder] */\n      0x00\n        /* \"AuctionContract.sol\":10369:10370  A */\n      dup5\n        /* \"AuctionContract.sol\":10369:10384  A.highestBidder */\n      0x05\n      add\n      0x08\n      swap1\n      sload\n      swap1\n      0x0100\n      exp\n      swap1\n      div\n      0xffffffffffffffffffffffffffffffffffffffff\n      and\n        /* \"AuctionContract.sol\":10357:10385  A.commitSeq[A.highestBidder] */\n      0xffffffffffffffffffffffffffffffffffffffff\n      and\n      0xffffffffffffffffffffffffffffffffffffffff\n      and\n      dup2\n      mstore\n      0x20\n      add\n      swap1\n      dup2\n      mstore\n      0x20\n      add\n      0x00\n      keccak256\n      0x00\n      swap1\n      sload\n      swap1\n      0x0100\n      exp\n      swap1\n      div\n      0xffffffffffffffff\n      and\n        /* \"AuctionContract.sol\":10331:10385  A.commitSeq[msg.sender] < A.commitSeq[A.highestBidder] */\n      0xffffffffffffffff\n      and\n        /* \"AuctionContract.sol\":10331:10332  A */\n      dup4\n        /* \"AuctionContract.sol\":10331:10342  A.commitSeq */\n      0x0b\n      add\n        /* \"AuctionContract.sol\":10331:10354  A.commitSeq[msg.sender] */\n      0x00\n        /* \"AuctionContract.sol\":10343:10353  msg.sender */\n      caller\n        /* \"AuctionContract.sol\":10331:10354  A.commitSeq[msg.sender] */\n      0xffffffffffffffffffffffffffffffffffffffff\n      and\n      0xffffffffffffffffffffffffffffffffffffffff\n      and\n      dup2\n      mstore\n      0x20\n      add\n      swap1\n      dup2\n      mstore\n      0x20\n      add\n      0x00\n      keccak256\n      0x00\n      swap1\n      sload\n      swap1\n      0x0100\n      exp\n      swap1\n      div\n      0xffffffffffffffff\n      and\n        /* \"AuctionContract.sol\":10331:10385  A.commitSeq[msg.sender] < A.commitSeq[A.highestBidder] */\n      0xffffffffffffffff\n      and\n      lt\n        /* \"AuctionContract.sol\":10305:10385  amount == A.highestBid && A.commitSeq[msg.sender] < A.commitSeq[A.highestBidder] */\n    tag_162:\n        /* \"AuctionContract.sol\":10301:10652  if (amount == A.highestBid && A.commitSeq[msg.sender] < A.commitSeq[A.highestBidder]) {... */\n      iszero\n      tag_163\n      jumpi\n        /* \"AuctionContract.sol\":10471:10477  amount */\n      dup5\n        /* \"AuctionContract.sol\":10456:10457  A */\n      dup4\n        /* \"AuctionContract.sol\":10456:10468  A.highestBid */\n      0x06\n      add\n        /* \"AuctionContract.sol\":10456:10477  A.highestBid = amount */\n      dup2\n      swap1\n      sstore\n      pop\n        /* \"AuctionContract.sol\":10510:10520  msg.sender */\n      caller\n        /* \"AuctionContract.sol\":10492:10493  A */\n      dup4\n        /* \"AuctionContract.sol\":10492:10507  A.highestBidder */\n      0x05\n      add\n      0x08\n        /* \"AuctionContract.sol\":10492:10520  A.highestBidder = msg.sender */\n      0x0100\n      exp\n      dup2\n      sload\n      dup2\n      0xffffffffffffffffffffffffffffffffffffffff\n      mul\n      not\n      and\n      swap1\n      dup4\n      0xffffffffffffffffffffffffffffffffffffffff\n      and\n      mul\n      or\n      swap1\n      sstore\n      pop\n        /* \"AuctionContract.sol\":10301:10652  if (amount == A.highestBid && A.commitSeq[msg.sender] < A.commitSeq[A.highestBidder]) {... */\n      jump(tag_164)\n    tag_163:\n        /* \"AuctionContract.sol\":10551:10552  A */\n      dup3\n        /* \"AuctionContract.sol\":10551:10562  A.secondBid */\n      0x07\n      add\n      sload\n        /* \"AuctionContract.sol\":10542:10548  amount */\n      dup6\n        /* \"AuctionContract.sol\":10542:10562  amount > A.secondBid */\n      gt\n        /* \"AuctionContract.sol\":10538:10652  if (amount > A.secondBid) {... */\n      iszero\n      tag_165\n      jumpi\n        /* \"AuctionContract.sol\":10634:10640  amount */\n      dup5\n        /* \"AuctionContract.sol\":10620:10621  A */\n      dup4\n        /* \"AuctionContract.sol\":10620:10631  A.secondBid */\n      0x07\n      add\n        /* \"AuctionContract.sol\":10620:10640  A.secondBid = amount */\n      dup2\n      swap1\n      sstore\n      pop\n        /* \"AuctionContract.sol\":10538:10652  if (amount > A.secondBid) {... */\n    tag_165:\n        /* \"AuctionContract.sol\":10301:10652  if (amount == A.highestBid && A.commitSeq[msg.sender] < A.commitSeq[A.highestBidder]) {... */\n    tag_164:\n        /* \"AuctionContract.sol\":10012:10652  if (amount > A.highestBid) {... */\n    tag_161:\n        /* \"AuctionContract.sol\":10690:10700  msg.sender */\n      caller\n        /* \"AuctionContract.sol\":10667:10709  BidRevealed(auctionId, msg.sender, amount) */\n      0xffffffffffffffffffffffffffffffffffffffff\n      and\n        /* \"AuctionContract.sol\":10679:10688  auctionId */\n      sload(0x01)\n        /* \"AuctionContract.sol\":10667:10709  BidRevealed(auctionId, msg.sender, amount) */\n      0x86d2fbc9069d34216ebc65b38ce840528d3f8cac0c86d2aaa7ab6a9db8bc35d3\n        /* \"AuctionContract.sol\":10702:10708  amount */\n      dup8\n        /* \"AuctionContract.sol\":10667:10709  BidRevealed(auctionId, msg.sender, amount) */\n      mload(0x40)\n      tag_166\n      swap2\n      swap1\n      tag_30\n      jump\t// in\n    tag_166:\n      mload(0x40)\n      dup1\n      swap2\n      sub\n      swap1\n      log3\n        /* \"AuctionContract.sol\":9074:10717  {... */\n      pop\n      pop\n      pop\n        /* \"AuctionContract.sol\":9016:10717  function revealBid(uint256 amount, bytes32 salt) external {... */\n      pop\n      pop\n      jump\t// out\n        /* \"AuctionContract.sol\":18931:19306  function getWinnerInfo(uint256 id) external view returns (address winner, uint256 price, uint64 payDeadline) {... */\n    tag_59:\n        /* \"AuctionContract.sol\":18989:19003  address winner */\n      0x00\n        /* \"AuctionContract.sol\":19005:19018  uint256 price */\n      0x00\n        /* \"AuctionContract.sol\":19020:19038  uint64 payDeadline */\n      0x00\n        /* \"AuctionContract.sol\":19051:19068  Auction storage A */\n      0x00\n        /* \"AuctionContract.sol\":19071:19090  _requireAuction(id) */\n      tag_168\n        /* \"AuctionContract.sol\":19087:19089  id */\n      dup6\n        /* \"AuctionContract.sol\":19071:19086  _requireAuction */\n      tag_169\n        /* \"AuctionContract.sol\":19071:19090  _requireAuction(id) */\n      jump\t// in\n    tag_168:\n        /* \"AuctionContract.sol\":19051:19090  Auction storage A = _requireAuction(id) */\n      swap1\n      pop\n        /* \"AuctionContract.sol\":19247:19248  A */\n      dup1\n        /* \"AuctionContract.sol\":19247:19262  A.highestBidder */\n      0x05\n      add\n      0x08\n      swap1\n      sload\n      swap1\n      0x0100\n      exp\n      swap1\n      div\n      0xffffffffffffffffffffffffffffffffffffffff\n      and\n        /* \"AuctionContract.sol\":19264:19265  A */\n      dup2\n        /* \"AuctionContract.sol\":19264:19279  A.clearingPrice */\n      0x08\n      add\n      sload\n        /* \"AuctionContract.sol\":19281:19282  A */\n      dup3\n        /* \"AuctionContract.sol\":19281:19297  A.settleDeadline */\n      0x05\n      add\n      0x00\n      swap1\n      sload\n      swap1\n      0x0100\n      exp\n      swap1\n      div\n      0xffffffffffffffff\n      and\n        /* \"AuctionContract.sol\":19239:19298  return (A.highestBidder, A.clearingPrice, A.settleDeadline) */\n      swap4\n      pop\n      swap4\n      pop\n      swap4\n      pop\n      pop\n        /* \"AuctionContract.sol\":18931:19306  function getWinnerInfo(uint256 id) external view returns (address winner, uint256 price, uint64 payDeadline) {... */\n      swap2\n      swap4\n      swap1\n      swap3\n      pop\n      jump\t// out\n        /* \"AuctionContract.sol\":16144:16640  function withdrawDeposits(uint256 id) external nonReentrant{... */\n    tag_65:\n        /* \"AuctionContract.sol\":1876:1877  2 */\n      0x02\n        /* \"AuctionContract.sol\":1972:1979  _status */\n      sload(0x00)\n        /* \"AuctionContract.sol\":1972:1991  _status != _ENTERED */\n      sub\n        /* \"AuctionContract.sol\":1964:2006  require(_status != _ENTERED, \"REENTRANCY\") */\n      tag_171\n      jumpi\n      mload(0x40)\n      0x08c379a000000000000000000000000000000000000000000000000000000000\n      dup2\n      mstore\n      0x04\n      add\n      tag_172\n      swap1\n      tag_173\n      jump\t// in\n    tag_172:\n      mload(0x40)\n      dup1\n      swap2\n      sub\n      swap1\n      revert\n    tag_171:\n        /* \"AuctionContract.sol\":1876:1877  2 */\n      0x02\n        /* \"AuctionContract.sol\":2017:2024  _status */\n      0x00\n        /* \"AuctionContract.sol\":2017:2035  _status = _ENTERED */\n      dup2\n      swap1\n      sstore\n      pop\n        /* \"AuctionContract.sol\":16214:16231  Auction storage A */\n      0x00\n        /* \"AuctionContract.sol\":16234:16253  _requireAuction(id) */\n      tag_175\n        /* \"AuctionContract.sol\":16250:16252  id */\n      dup3\n        /* \"AuctionContract.sol\":16234:16249  _requireAuction */\n      tag_169\n        /* \"AuctionContract.sol\":16234:16253  _requireAuction(id) */\n      jump\t// in\n    tag_175:\n        /* \"AuctionContract.sol\":16214:16253  Auction storage A = _requireAuction(id) */\n      swap1\n      pop\n        /* \"AuctionContract.sol\":16269:16270  A */\n      dup1\n        /* \"AuctionContract.sol\":16269:16280  A.finalized */\n      0x09\n      add\n      0x00\n      swap1\n      sload\n      swap1\n      0x0100\n      exp\n      swap1\n      div\n      0xff\n      and\n        /* \"AuctionContract.sol\":16264:16299  if (!A.finalized) revert NotEnded() */\n      tag_176\n      jumpi\n        /* \"AuctionContract.sol\":16289:16299  NotEnded() */\n      mload(0x40)\n      0xd3018d1800000000000000000000000000000000000000000000000000000000\n      dup2\n      mstore\n      0x04\n      add\n      mload(0x40)\n      dup1\n      swap2\n      sub\n      swap1\n      revert\n        /* \"AuctionContract.sol\":16264:16299  if (!A.finalized) revert NotEnded() */\n    tag_176:\n        /* \"AuctionContract.sol\":16345:16346  0 */\n      0x00\n        /* \"AuctionContract.sol\":16314:16315  A */\n      dup2\n        /* \"AuctionContract.sol\":16314:16329  A.depositAmount */\n      0x0c\n      add\n        /* \"AuctionContract.sol\":16314:16341  A.depositAmount[msg.sender] */\n      0x00\n        /* \"AuctionContract.sol\":16330:16340  msg.sender */\n      caller\n        /* \"AuctionContract.sol\":16314:16341  A.depositAmount[msg.sender] */\n      0xffffffffffffffffffffffffffffffffffffffff\n      and\n      0xffffffffffffffffffffffffffffffffffffffff\n      and\n      dup2\n      mstore\n      0x20\n      add\n      swap1\n      dup2\n      mstore\n      0x20\n      add\n      0x00\n      keccak256\n      sload\n        /* \"AuctionContract.sol\":16314:16346  A.depositAmount[msg.sender] == 0 */\n      sub\n        /* \"AuctionContract.sol\":16310:16366  if (A.depositAmount[msg.sender] == 0) revert NoDeposit() */\n      tag_177\n      jumpi\n        /* \"AuctionContract.sol\":16355:16366  NoDeposit() */\n      mload(0x40)\n      0x3a6a68b100000000000000000000000000000000000000000000000000000000\n      dup2\n      mstore\n      0x04\n      add\n      mload(0x40)\n      dup1\n      swap2\n      sub\n      swap1\n      revert\n        /* \"AuctionContract.sol\":16310:16366  if (A.depositAmount[msg.sender] == 0) revert NoDeposit() */\n    tag_177:\n        /* \"AuctionContract.sol\":16379:16393  uint256 amount */\n      0x00\n        /* \"AuctionContract.sol\":16396:16397  A */\n      dup2\n        /* \"AuctionContract.sol\":16396:16411  A.depositAmount */\n      0x0c\n      add\n        /* \"AuctionContract.sol\":16396:16423  A.depositAmount[msg.sender] */\n      0x00\n        /* \"AuctionContract.sol\":16412:16422  msg.sender */\n      caller\n        /* \"AuctionContract.sol\":16396:16423  A.depositAmount[msg.sender] */\n      0xffffffffffffffffffffffffffffffffffffffff\n      and\n      0xffffffffffffffffffffffffffffffffffffffff\n      and\n      dup2\n      mstore\n      0x20\n      add\n      swap1\n      dup2\n      mstore\n      0x20\n      add\n      0x00\n      keccak256\n      sload\n        /* \"AuctionContract.sol\":16379:16423  uint256 amount = A.depositAmount[msg.sender] */\n      swap1\n      pop\n        /* \"AuctionContract.sol\":16464:16465  0 */\n      0x00\n        /* \"AuctionContract.sol\":16434:16435  A */\n      dup3\n        /* \"AuctionContract.sol\":16434:16449  A.depositAmount */\n      0x0c\n      add\n        /* \"AuctionContract.sol\":16434:16461  A.depositAmount[msg.sender] */\n      0x00\n        /* \"AuctionContract.sol\":16450:16460  msg.sender */\n      caller\n        /* \"AuctionContract.sol\":16434:16461  A.depositAmount[msg.sender] */\n      0xffffffffffffffffffffffffffffffffffffffff\n      and\n      0xffffffffffffffffffffffffffffffffffffffff\n      and\n      dup2\n      mstore\n      0x20\n      add\n      swap1\n      dup2\n      mstore\n      0x20\n      add\n      0x00\n      keccak256\n        /* \"AuctionContract.sol\":16434:16465  A.depositAmount[msg.sender] = 0 */\n      dup2\n      swap1\n      sstore\n      pop\n        /* \"AuctionContract.sol\":16477:16484  bool ok */\n      0x00\n        /* \"AuctionContract.sol\":16490:16500  msg.sender */\n      caller\n        /* \"AuctionContract.sol\":16490:16505  msg.sender.call */\n      0xffffffffffffffffffffffffffffffffffffffff\n      and\n        /* \"AuctionContract.sol\":16513:16519  amount */\n      dup3\n        /* \"AuctionContract.sol\":16490:16524  msg.sender.call{value: amount}(\"\") */\n      mload(0x40)\n      tag_178\n      swap1\n      tag_179\n      jump\t// in\n    tag_178:\n      0x00\n      mload(0x40)\n      dup1\n      dup4\n      sub\n      dup2\n      dup6\n      dup8\n      gas\n      call\n      swap3\n      pop\n      pop\n      pop\n      returndatasize\n      dup1\n      0x00\n      dup2\n      eq\n      tag_182\n      jumpi\n      mload(0x40)\n      swap2\n      pop\n      and(add(returndatasize, 0x3f), not(0x1f))\n      dup3\n      add\n      0x40\n      mstore\n      returndatasize\n      dup3\n      mstore\n      returndatasize\n      0x00\n      0x20\n      dup5\n      add\n      returndatacopy\n      jump(tag_181)\n    tag_182:\n      0x60\n      swap2\n      pop\n    tag_181:\n      pop\n        /* \"AuctionContract.sol\":16476:16524  (bool ok, ) = msg.sender.call{value: amount}(\"\") */\n      pop\n      swap1\n      pop\n        /* \"AuctionContract.sol\":16539:16541  ok */\n      dup1\n        /* \"AuctionContract.sol\":16535:16567  if(!ok)  revert WithdrawFailed() */\n      tag_183\n      jumpi\n        /* \"AuctionContract.sol\":16551:16567  WithdrawFailed() */\n      mload(0x40)\n      0x750b219c00000000000000000000000000000000000000000000000000000000\n      dup2\n      mstore\n      0x04\n      add\n      mload(0x40)\n      dup1\n      swap2\n      sub\n      swap1\n      revert\n        /* \"AuctionContract.sol\":16535:16567  if(!ok)  revert WithdrawFailed() */\n    tag_183:\n        /* \"AuctionContract.sol\":16621:16631  msg.sender */\n      caller\n        /* \"AuctionContract.sol\":16593:16632  WithDrawnDeposit(auctionId, msg.sender) */\n      0xffffffffffffffffffffffffffffffffffffffff\n      and\n        /* \"AuctionContract.sol\":16610:16619  auctionId */\n      sload(0x01)\n        /* \"AuctionContract.sol\":16593:16632  WithDrawnDeposit(auctionId, msg.sender) */\n      0x47f74a265269aa6e5423fbcd9a74b3c8771a0c3a9c7cdfb7ebe375b288c06b4e\n      mload(0x40)\n      mload(0x40)\n      dup1\n      swap2\n      sub\n      swap1\n      log3\n        /* \"AuctionContract.sol\":16203:16640  {... */\n      pop\n      pop\n      pop\n        /* \"AuctionContract.sol\":1832:1833  1 */\n      0x01\n        /* \"AuctionContract.sol\":2058:2065  _status */\n      0x00\n        /* \"AuctionContract.sol\":2058:2080  _status = _NOT_ENTERED */\n      dup2\n      swap1\n      sstore\n      pop\n        /* \"AuctionContract.sol\":16144:16640  function withdrawDeposits(uint256 id) external nonReentrant{... */\n      pop\n      jump\t// out\n        /* \"AuctionContract.sol\":15646:16136  function withdrawDeposits() external nonReentrant{... */\n    tag_68:\n        /* \"AuctionContract.sol\":1876:1877  2 */\n      0x02\n        /* \"AuctionContract.sol\":1972:1979  _status */\n      sload(0x00)\n        /* \"AuctionContract.sol\":1972:1991  _status != _ENTERED */\n      sub\n        /* \"AuctionContract.sol\":1964:2006  require(_status != _ENTERED, \"REENTRANCY\") */\n      tag_185\n      jumpi\n      mload(0x40)\n      0x08c379a000000000000000000000000000000000000000000000000000000000\n      dup2\n      mstore\n      0x04\n      add\n      tag_186\n      swap1\n      tag_173\n      jump\t// in\n    tag_186:\n      mload(0x40)\n      dup1\n      swap2\n      sub\n      swap1\n      revert\n    tag_185:\n        /* \"AuctionContract.sol\":1876:1877  2 */\n      0x02\n        /* \"AuctionContract.sol\":2017:2024  _status */\n      0x00\n        /* \"AuctionContract.sol\":2017:2035  _status = _ENTERED */\n      dup2\n      swap1\n      sstore\n      pop\n        /* \"AuctionContract.sol\":15706:15723  Auction storage A */\n      0x00\n        /* \"AuctionContract.sol\":15726:15749  _requireActiveAuction() */\n      tag_188\n        /* \"AuctionContract.sol\":15726:15747  _requireActiveAuction */\n      tag_129\n        /* \"AuctionContract.sol\":15726:15749  _requireActiveAuction() */\n      jump\t// in\n    tag_188:\n        /* \"AuctionContract.sol\":15706:15749  Auction storage A = _requireActiveAuction() */\n      swap1\n      pop\n        /* \"AuctionContract.sol\":15765:15766  A */\n      dup1\n        /* \"AuctionContract.sol\":15765:15776  A.finalized */\n      0x09\n      add\n      0x00\n      swap1\n      sload\n      swap1\n      0x0100\n      exp\n      swap1\n      div\n      0xff\n      and\n        /* \"AuctionContract.sol\":15760:15795  if (!A.finalized) revert NotEnded() */\n      tag_189\n      jumpi\n        /* \"AuctionContract.sol\":15785:15795  NotEnded() */\n      mload(0x40)\n      0xd3018d1800000000000000000000000000000000000000000000000000000000\n      dup2\n      mstore\n      0x04\n      add\n      mload(0x40)\n      dup1\n      swap2\n      sub\n      swap1\n      revert\n        /* \"AuctionContract.sol\":15760:15795  if (!A.finalized) revert NotEnded() */\n    tag_189:\n        /* \"AuctionContract.sol\":15841:15842  0 */\n      0x00\n        /* \"AuctionContract.sol\":15810:15811  A */\n      dup2\n        /* \"AuctionContract.sol\":15810:15825  A.depositAmount */\n      0x0c\n      add\n        /* \"AuctionContract.sol\":15810:15837  A.depositAmount[msg.sender] */\n      0x00\n        /* \"AuctionContract.sol\":15826:15836  msg.sender */\n      caller\n        /* \"AuctionContract.sol\":15810:15837  A.depositAmount[msg.sender] */\n      0xffffffffffffffffffffffffffffffffffffffff\n      and\n      0xffffffffffffffffffffffffffffffffffffffff\n      and\n      dup2\n      mstore\n      0x20\n      add\n      swap1\n      dup2\n      mstore\n      0x20\n      add\n      0x00\n      keccak256\n      sload\n        /* \"AuctionContract.sol\":15810:15842  A.depositAmount[msg.sender] == 0 */\n      sub\n        /* \"AuctionContract.sol\":15806:15862  if (A.depositAmount[msg.sender] == 0) revert NoDeposit() */\n      tag_190\n      jumpi\n        /* \"AuctionContract.sol\":15851:15862  NoDeposit() */\n      mload(0x40)\n      0x3a6a68b100000000000000000000000000000000000000000000000000000000\n      dup2\n      mstore\n      0x04\n      add\n      mload(0x40)\n      dup1\n      swap2\n      sub\n      swap1\n      revert\n        /* \"AuctionContract.sol\":15806:15862  if (A.depositAmount[msg.sender] == 0) revert NoDeposit() */\n    tag_190:\n        /* \"AuctionContract.sol\":15875:15889  uint256 amount */\n      0x00\n        /* \"AuctionContract.sol\":15892:15893  A */\n      dup2\n        /* \"AuctionContract.sol\":15892:15907  A.depositAmount */\n      0x0c\n      add\n        /* \"AuctionContract.sol\":15892:15919  A.depositAmount[msg.sender] */\n      0x00\n        /* \"AuctionContract.sol\":15908:15918  msg.sender */\n      caller\n        /* \"AuctionContract.sol\":15892:15919  A.depositAmount[msg.sender] */\n      0xffffffffffffffffffffffffffffffffffffffff\n      and\n      0xffffffffffffffffffffffffffffffffffffffff\n      and\n      dup2\n      mstore\n      0x20\n      add\n      swap1\n      dup2\n      mstore\n      0x20\n      add\n      0x00\n      keccak256\n      sload\n        /* \"AuctionContract.sol\":15875:15919  uint256 amount = A.depositAmount[msg.sender] */\n      swap1\n      pop\n        /* \"AuctionContract.sol\":15960:15961  0 */\n      0x00\n        /* \"AuctionContract.sol\":15930:15931  A */\n      dup3\n        /* \"AuctionContract.sol\":15930:15945  A.depositAmount */\n      0x0c\n      add\n        /* \"AuctionContract.sol\":15930:15957  A.depositAmount[msg.sender] */\n      0x00\n        /* \"AuctionContract.sol\":15946:15956  msg.sender */\n      caller\n        /* \"AuctionContract.sol\":15930:15957  A.depositAmount[msg.sender] */\n      0xffffffffffffffffffffffffffffffffffffffff\n      and\n      0xffffffffffffffffffffffffffffffffffffffff\n      and\n      dup2\n      mstore\n      0x20\n      add\n      swap1\n      dup2\n      mstore\n      0x20\n      add\n      0x00\n      keccak256\n        /* \"AuctionContract.sol\":15930:15961  A.depositAmount[msg.sender] = 0 */\n      dup2\n      swap1\n      sstore\n      pop\n        /* \"AuctionContract.sol\":15973:15980  bool ok */\n      0x00\n        /* \"AuctionContract.sol\":15986:15996  msg.sender */\n      caller\n        /* \"AuctionContract.sol\":15986:16001  msg.sender.call */\n      0xffffffffffffffffffffffffffffffffffffffff\n      and\n        /* \"AuctionContract.sol\":16009:16015  amount */\n      dup3\n        /* \"AuctionContract.sol\":15986:16020  msg.sender.call{value: amount}(\"\") */\n      mload(0x40)\n      tag_191\n      swap1\n      tag_179\n      jump\t// in\n    tag_191:\n      0x00\n      mload(0x40)\n      dup1\n      dup4\n      sub\n      dup2\n      dup6\n      dup8\n      gas\n      call\n      swap3\n      pop\n      pop\n      pop\n      returndatasize\n      dup1\n      0x00\n      dup2\n      eq\n      tag_194\n      jumpi\n      mload(0x40)\n      swap2\n      pop\n      and(add(returndatasize, 0x3f), not(0x1f))\n      dup3\n      add\n      0x40\n      mstore\n      returndatasize\n      dup3\n      mstore\n      returndatasize\n      0x00\n      0x20\n      dup5\n      add\n      returndatacopy\n      jump(tag_193)\n    tag_194:\n      0x60\n      swap2\n      pop\n    tag_193:\n      pop\n        /* \"AuctionContract.sol\":15972:16020  (bool ok, ) = msg.sender.call{value: amount}(\"\") */\n      pop\n      swap1\n      pop\n        /* \"AuctionContract.sol\":16035:16037  ok */\n      dup1\n        /* \"AuctionContract.sol\":16031:16063  if(!ok)  revert WithdrawFailed() */\n      tag_195\n      jumpi\n        /* \"AuctionContract.sol\":16047:16063  WithdrawFailed() */\n      mload(0x40)\n      0x750b219c00000000000000000000000000000000000000000000000000000000\n      dup2\n      mstore\n      0x04\n      add\n      mload(0x40)\n      dup1\n      swap2\n      sub\n      swap1\n      revert\n        /* \"AuctionContract.sol\":16031:16063  if(!ok)  revert WithdrawFailed() */\n    tag_195:\n        /* \"AuctionContract.sol\":16117:16127  msg.sender */\n      caller\n        /* \"AuctionContract.sol\":16089:16128  WithDrawnDeposit(auctionId, msg.sender) */\n      0xffffffffffffffffffffffffffffffffffffffff\n      and\n        /* \"AuctionContract.sol\":16106:16115  auctionId */\n      sload(0x01)\n        /* \"AuctionContract.sol\":16089:16128  WithDrawnDeposit(auctionId, msg.sender) */\n      0x47f74a265269aa6e5423fbcd9a74b3c8771a0c3a9c7cdfb7ebe375b288c06b4e\n      mload(0x40)\n      mload(0x40)\n      dup1\n      swap2\n      sub\n      swap1\n      log3\n        /* \"AuctionContract.sol\":15695:16136  {... */\n      pop\n      pop\n      pop\n        /* \"AuctionContract.sol\":1832:1833  1 */\n      0x01\n        /* \"AuctionContract.sol\":2058:2065  _status */\n      0x00\n        /* \"AuctionContract.sol\":2058:2080  _status = _NOT_ENTERED */\n      dup2\n      swap1\n      sstore\n      pop\n        /* \"AuctionContract.sol\":15646:16136  function withdrawDeposits() external nonReentrant{... */\n      jump\t// out\n        /* \"AuctionContract.sol\":18267:18454  function getRevealedAmount(uint256 id, address bidder) external view returns (uint256) {... */\n    tag_73:\n        /* \"AuctionContract.sol\":18345:18352  uint256 */\n      0x00\n        /* \"AuctionContract.sol\":18365:18382  Auction storage A */\n      0x00\n        /* \"AuctionContract.sol\":18385:18404  _requireAuction(id) */\n      tag_197\n        /* \"AuctionContract.sol\":18401:18403  id */\n      dup5\n        /* \"AuctionContract.sol\":18385:18400  _requireAuction */\n      tag_169\n        /* \"AuctionContract.sol\":18385:18404  _requireAuction(id) */\n      jump\t// in\n    tag_197:\n        /* \"AuctionContract.sol\":18365:18404  Auction storage A = _requireAuction(id) */\n      swap1\n      pop\n        /* \"AuctionContract.sol\":18422:18423  A */\n      dup1\n        /* \"AuctionContract.sol\":18422:18438  A.revealedAmount */\n      0x0d\n      add\n        /* \"AuctionContract.sol\":18422:18446  A.revealedAmount[bidder] */\n      0x00\n        /* \"AuctionContract.sol\":18439:18445  bidder */\n      dup5\n        /* \"AuctionContract.sol\":18422:18446  A.revealedAmount[bidder] */\n      0xffffffffffffffffffffffffffffffffffffffff\n      and\n      0xffffffffffffffffffffffffffffffffffffffff\n      and\n      dup2\n      mstore\n      0x20\n      add\n      swap1\n      dup2\n      mstore\n      0x20\n      add\n      0x00\n      keccak256\n      sload\n        /* \"AuctionContract.sol\":18415:18446  return A.revealedAmount[bidder] */\n      swap2\n      pop\n      pop\n        /* \"AuctionContract.sol\":18267:18454  function getRevealedAmount(uint256 id, address bidder) external view returns (uint256) {... */\n      swap3\n      swap2\n      pop\n      pop\n      jump\t// out\n        /* \"AuctionContract.sol\":7483:8857  function commitBid(bytes32 commitment) external payable{... */\n    tag_78:\n        /* \"AuctionContract.sol\":7549:7566  Auction storage A */\n      0x00\n        /* \"AuctionContract.sol\":7569:7592  _requireActiveAuction() */\n      tag_199\n        /* \"AuctionContract.sol\":7569:7590  _requireActiveAuction */\n      tag_129\n        /* \"AuctionContract.sol\":7569:7592  _requireActiveAuction() */\n      jump\t// in\n    tag_199:\n        /* \"AuctionContract.sol\":7549:7592  Auction storage A = _requireActiveAuction() */\n      swap1\n      pop\n        /* \"AuctionContract.sol\":7676:7677  A */\n      dup1\n        /* \"AuctionContract.sol\":7676:7687  A.commitEnd */\n      0x04\n      add\n      0x08\n      swap1\n      sload\n      swap1\n      0x0100\n      exp\n      swap1\n      div\n      0xffffffffffffffff\n      and\n        /* \"AuctionContract.sol\":7657:7687  block.timestamp >= A.commitEnd */\n      0xffffffffffffffff\n      and\n        /* \"AuctionContract.sol\":7657:7672  block.timestamp */\n      timestamp\n        /* \"AuctionContract.sol\":7657:7687  block.timestamp >= A.commitEnd */\n      lt\n      iszero\n        /* \"AuctionContract.sol\":7657:7721  block.timestamp >= A.commitEnd || block.timestamp < A.startStamp */\n      dup1\n      tag_200\n      jumpi\n      pop\n        /* \"AuctionContract.sol\":7709:7710  A */\n      dup1\n        /* \"AuctionContract.sol\":7709:7721  A.startStamp */\n      0x04\n      add\n      0x00\n      swap1\n      sload\n      swap1\n      0x0100\n      exp\n      swap1\n      div\n      0xffffffffffffffff\n      and\n        /* \"AuctionContract.sol\":7691:7721  block.timestamp < A.startStamp */\n      0xffffffffffffffff\n      and\n        /* \"AuctionContract.sol\":7691:7706  block.timestamp */\n      timestamp\n        /* \"AuctionContract.sol\":7691:7721  block.timestamp < A.startStamp */\n      lt\n        /* \"AuctionContract.sol\":7657:7721  block.timestamp >= A.commitEnd || block.timestamp < A.startStamp */\n    tag_200:\n        /* \"AuctionContract.sol\":7653:7748  if (block.timestamp >= A.commitEnd || block.timestamp < A.startStamp) revert NotInCommitPhase() */\n      iszero\n      tag_201\n      jumpi\n        /* \"AuctionContract.sol\":7730:7748  NotInCommitPhase() */\n      mload(0x40)\n      0xabfb7dc300000000000000000000000000000000000000000000000000000000\n      dup2\n      mstore\n      0x04\n      add\n      mload(0x40)\n      dup1\n      swap2\n      sub\n      swap1\n      revert\n        /* \"AuctionContract.sol\":7653:7748  if (block.timestamp >= A.commitEnd || block.timestamp < A.startStamp) revert NotInCommitPhase() */\n    tag_201:\n        /* \"AuctionContract.sol\":7816:7817  0 */\n      0x00\n        /* \"AuctionContract.sol\":7808:7818  bytes32(0) */\n      0x00\n      shl\n        /* \"AuctionContract.sol\":7794:7804  commitment */\n      dup3\n        /* \"AuctionContract.sol\":7794:7818  commitment == bytes32(0) */\n      sub\n        /* \"AuctionContract.sol\":7790:7846  if (commitment == bytes32(0)) revert InvalidCommitment() */\n      tag_202\n      jumpi\n        /* \"AuctionContract.sol\":7827:7846  InvalidCommitment() */\n      mload(0x40)\n      0xc06789fa00000000000000000000000000000000000000000000000000000000\n      dup2\n      mstore\n      0x04\n      add\n      mload(0x40)\n      dup1\n      swap2\n      sub\n      swap1\n      revert\n        /* \"AuctionContract.sol\":7790:7846  if (commitment == bytes32(0)) revert InvalidCommitment() */\n    tag_202:\n        /* \"AuctionContract.sol\":7913:7914  A */\n      dup1\n        /* \"AuctionContract.sol\":7913:7921  A.seller */\n      0x01\n      add\n      0x00\n      swap1\n      sload\n      swap1\n      0x0100\n      exp\n      swap1\n      div\n      0xffffffffffffffffffffffffffffffffffffffff\n      and\n        /* \"AuctionContract.sol\":7899:7921  msg.sender == A.seller */\n      0xffffffffffffffffffffffffffffffffffffffff\n      and\n        /* \"AuctionContract.sol\":7899:7909  msg.sender */\n      caller\n        /* \"AuctionContract.sol\":7899:7921  msg.sender == A.seller */\n      0xffffffffffffffffffffffffffffffffffffffff\n      and\n      sub\n        /* \"AuctionContract.sol\":7895:7947  if (msg.sender == A.seller) revert SellerCannotBid() */\n      tag_203\n      jumpi\n        /* \"AuctionContract.sol\":7930:7947  SellerCannotBid() */\n      mload(0x40)\n      0xef02588900000000000000000000000000000000000000000000000000000000\n      dup2\n      mstore\n      0x04\n      add\n      mload(0x40)\n      dup1\n      swap2\n      sub\n      swap1\n      revert\n        /* \"AuctionContract.sol\":7895:7947  if (msg.sender == A.seller) revert SellerCannotBid() */\n    tag_203:\n        /* \"AuctionContract.sol\":8041:8042  A */\n      dup1\n        /* \"AuctionContract.sol\":8041:8055  A.depositPrice */\n      0x03\n      add\n      sload\n        /* \"AuctionContract.sol\":8028:8037  msg.value */\n      callvalue\n        /* \"AuctionContract.sol\":8028:8055  msg.value != A.depositPrice */\n      eq\n        /* \"AuctionContract.sol\":8024:8086  if (msg.value != A.depositPrice) revert ExactDepositRequired() */\n      tag_204\n      jumpi\n        /* \"AuctionContract.sol\":8064:8086  ExactDepositRequired() */\n      mload(0x40)\n      0x603e3d3600000000000000000000000000000000000000000000000000000000\n      dup2\n      mstore\n      0x04\n      add\n      mload(0x40)\n      dup1\n      swap2\n      sub\n      swap1\n      revert\n        /* \"AuctionContract.sol\":8024:8086  if (msg.value != A.depositPrice) revert ExactDepositRequired() */\n    tag_204:\n        /* \"AuctionContract.sol\":8128:8129  A */\n      dup1\n        /* \"AuctionContract.sol\":8128:8142  A.depositPrice */\n      0x03\n      add\n      sload\n        /* \"AuctionContract.sol\":8097:8098  A */\n      dup2\n        /* \"AuctionContract.sol\":8097:8112  A.depositAmount */\n      0x0c\n      add\n        /* \"AuctionContract.sol\":8097:8124  A.depositAmount[msg.sender] */\n      0x00\n        /* \"AuctionContract.sol\":8113:8123  msg.sender */\n      caller\n        /* \"AuctionContract.sol\":8097:8124  A.depositAmount[msg.sender] */\n      0xffffffffffffffffffffffffffffffffffffffff\n      and\n      0xffffffffffffffffffffffffffffffffffffffff\n      and\n      dup2\n      mstore\n      0x20\n      add\n      swap1\n      dup2\n      mstore\n      0x20\n      add\n      0x00\n      keccak256\n      0x00\n        /* \"AuctionContract.sol\":8097:8142  A.depositAmount[msg.sender] += A.depositPrice */\n      dup3\n      dup3\n      sload\n      tag_205\n      swap2\n      swap1\n      tag_206\n      jump\t// in\n    tag_205:\n      swap3\n      pop\n      pop\n      dup2\n      swap1\n      sstore\n      pop\n        /* \"AuctionContract.sol\":8661:8662  1 */\n      0x01\n        /* \"AuctionContract.sol\":8639:8640  A */\n      dup2\n        /* \"AuctionContract.sol\":8639:8657  A.commitSeqCounter */\n      0x0e\n      add\n      0x00\n        /* \"AuctionContract.sol\":8639:8662  A.commitSeqCounter += 1 */\n      dup3\n      dup3\n      dup3\n      swap1\n      sload\n      swap1\n      0x0100\n      exp\n      swap1\n      div\n      0xffffffffffffffff\n      and\n      tag_207\n      swap2\n      swap1\n      tag_146\n      jump\t// in\n    tag_207:\n      swap3\n      pop\n      0x0100\n      exp\n      dup2\n      sload\n      dup2\n      0xffffffffffffffff\n      mul\n      not\n      and\n      swap1\n      dup4\n      0xffffffffffffffff\n      and\n      mul\n      or\n      swap1\n      sstore\n      pop\n        /* \"AuctionContract.sol\":8699:8700  A */\n      dup1\n        /* \"AuctionContract.sol\":8699:8717  A.commitSeqCounter */\n      0x0e\n      add\n      0x00\n      swap1\n      sload\n      swap1\n      0x0100\n      exp\n      swap1\n      div\n      0xffffffffffffffff\n      and\n        /* \"AuctionContract.sol\":8673:8674  A */\n      dup2\n        /* \"AuctionContract.sol\":8673:8684  A.commitSeq */\n      0x0b\n      add\n        /* \"AuctionContract.sol\":8673:8696  A.commitSeq[msg.sender] */\n      0x00\n        /* \"AuctionContract.sol\":8685:8695  msg.sender */\n      caller\n        /* \"AuctionContract.sol\":8673:8696  A.commitSeq[msg.sender] */\n      0xffffffffffffffffffffffffffffffffffffffff\n      and\n      0xffffffffffffffffffffffffffffffffffffffff\n      and\n      dup2\n      mstore\n      0x20\n      add\n      swap1\n      dup2\n      mstore\n      0x20\n      add\n      0x00\n      keccak256\n      0x00\n        /* \"AuctionContract.sol\":8673:8717  A.commitSeq[msg.sender] = A.commitSeqCounter */\n      0x0100\n      exp\n      dup2\n      sload\n      dup2\n      0xffffffffffffffff\n      mul\n      not\n      and\n      swap1\n      dup4\n      0xffffffffffffffff\n      and\n      mul\n      or\n      swap1\n      sstore\n      pop\n        /* \"AuctionContract.sol\":8786:8796  commitment */\n      dup2\n        /* \"AuctionContract.sol\":8758:8759  A */\n      dup2\n        /* \"AuctionContract.sol\":8758:8771  A.commitments */\n      0x0a\n      add\n        /* \"AuctionContract.sol\":8758:8783  A.commitments[msg.sender] */\n      0x00\n        /* \"AuctionContract.sol\":8772:8782  msg.sender */\n      caller\n        /* \"AuctionContract.sol\":8758:8783  A.commitments[msg.sender] */\n      0xffffffffffffffffffffffffffffffffffffffff\n      and\n      0xffffffffffffffffffffffffffffffffffffffff\n      and\n      dup2\n      mstore\n      0x20\n      add\n      swap1\n      dup2\n      mstore\n      0x20\n      add\n      0x00\n      keccak256\n        /* \"AuctionContract.sol\":8758:8796  A.commitments[msg.sender] = commitment */\n      dup2\n      swap1\n      sstore\n      pop\n        /* \"AuctionContract.sol\":8838:8848  msg.sender */\n      caller\n        /* \"AuctionContract.sol\":8814:8849  BidCommitted(auctionId, msg.sender) */\n      0xffffffffffffffffffffffffffffffffffffffff\n      and\n        /* \"AuctionContract.sol\":8827:8836  auctionId */\n      sload(0x01)\n        /* \"AuctionContract.sol\":8814:8849  BidCommitted(auctionId, msg.sender) */\n      0x0934ea4de468dcd0d9a335c5f97aa77955310c29631c93fbd01d95a00242ec41\n      mload(0x40)\n      mload(0x40)\n      dup1\n      swap2\n      sub\n      swap1\n      log3\n        /* \"AuctionContract.sol\":7538:8857  {... */\n      pop\n        /* \"AuctionContract.sol\":7483:8857  function commitBid(bytes32 commitment) external payable{... */\n      pop\n      jump\t// out\n        /* \"AuctionContract.sol\":5364:7307  function startAuction(... */\n    tag_83:\n        /* \"AuctionContract.sol\":5674:5675  0 */\n      0x00\n        /* \"AuctionContract.sol\":5661:5670  auctionId */\n      sload(0x01)\n        /* \"AuctionContract.sol\":5661:5675  auctionId != 0 */\n      eq\n        /* \"AuctionContract.sol\":5657:5805  if (auctionId != 0) {... */\n      tag_209\n      jumpi\n        /* \"AuctionContract.sol\":5692:5712  Auction storage prev */\n      0x00\n        /* \"AuctionContract.sol\":5715:5724  _auctions */\n      0x02\n        /* \"AuctionContract.sol\":5715:5735  _auctions[auctionId] */\n      0x00\n        /* \"AuctionContract.sol\":5725:5734  auctionId */\n      sload(0x01)\n        /* \"AuctionContract.sol\":5715:5735  _auctions[auctionId] */\n      dup2\n      mstore\n      0x20\n      add\n      swap1\n      dup2\n      mstore\n      0x20\n      add\n      0x00\n      keccak256\n        /* \"AuctionContract.sol\":5692:5735  Auction storage prev = _auctions[auctionId] */\n      swap1\n      pop\n        /* \"AuctionContract.sol\":5758:5762  prev */\n      dup1\n        /* \"AuctionContract.sol\":5758:5770  prev.settled */\n      0x09\n      add\n      0x01\n      swap1\n      sload\n      swap1\n      0x0100\n      exp\n      swap1\n      div\n      0xff\n      and\n        /* \"AuctionContract.sol\":5750:5793  require(prev.settled, \"previous not ended\") */\n      tag_210\n      jumpi\n      mload(0x40)\n      0x08c379a000000000000000000000000000000000000000000000000000000000\n      dup2\n      mstore\n      0x04\n      add\n      tag_211\n      swap1\n      tag_212\n      jump\t// in\n    tag_211:\n      mload(0x40)\n      dup1\n      swap2\n      sub\n      swap1\n      revert\n    tag_210:\n        /* \"AuctionContract.sol\":5677:5805  {... */\n      pop\n        /* \"AuctionContract.sol\":5657:5805  if (auctionId != 0) {... */\n    tag_209:\n        /* \"AuctionContract.sol\":5874:5875  0 */\n      0x00\n        /* \"AuctionContract.sol\":5850:5871  commitDurationSeconds */\n      dup4\n        /* \"AuctionContract.sol\":5850:5875  commitDurationSeconds > 0 */\n      0xffffffffffffffff\n      and\n      gt\n        /* \"AuctionContract.sol\":5850:5915  commitDurationSeconds > 0 && commitDurationSeconds < MAX_DURATION */\n      dup1\n      iszero\n      tag_213\n      jumpi\n      pop\n        /* \"AuctionContract.sol\":1567:1574  2592000 */\n      0x278d00\n        /* \"AuctionContract.sol\":5879:5900  commitDurationSeconds */\n      dup4\n        /* \"AuctionContract.sol\":5879:5915  commitDurationSeconds < MAX_DURATION */\n      0xffffffffffffffff\n      and\n      lt\n        /* \"AuctionContract.sol\":5850:5915  commitDurationSeconds > 0 && commitDurationSeconds < MAX_DURATION */\n    tag_213:\n        /* \"AuctionContract.sol\":5842:5948  require(commitDurationSeconds > 0 && commitDurationSeconds < MAX_DURATION, \"CONFIG: bad commit durations\") */\n      tag_214\n      jumpi\n      mload(0x40)\n      0x08c379a000000000000000000000000000000000000000000000000000000000\n      dup2\n      mstore\n      0x04\n      add\n      tag_215\n      swap1\n      tag_216\n      jump\t// in\n    tag_215:\n      mload(0x40)\n      dup1\n      swap2\n      sub\n      swap1\n      revert\n    tag_214:\n        /* \"AuctionContract.sol\":5991:5992  0 */\n      0x00\n        /* \"AuctionContract.sol\":5967:5988  revealDurationSeconds */\n      dup3\n        /* \"AuctionContract.sol\":5967:5992  revealDurationSeconds > 0 */\n      0xffffffffffffffff\n      and\n      gt\n        /* \"AuctionContract.sol\":5967:6032  revealDurationSeconds > 0 && revealDurationSeconds < MAX_DURATION */\n      dup1\n      iszero\n      tag_217\n      jumpi\n      pop\n        /* \"AuctionContract.sol\":1567:1574  2592000 */\n      0x278d00\n        /* \"AuctionContract.sol\":5996:6017  revealDurationSeconds */\n      dup3\n        /* \"AuctionContract.sol\":5996:6032  revealDurationSeconds < MAX_DURATION */\n      0xffffffffffffffff\n      and\n      lt\n        /* \"AuctionContract.sol\":5967:6032  revealDurationSeconds > 0 && revealDurationSeconds < MAX_DURATION */\n    tag_217:\n        /* \"AuctionContract.sol\":5959:6065  require(revealDurationSeconds > 0 && revealDurationSeconds < MAX_DURATION, \"CONFIG: bad reveal durations\") */\n      tag_218\n      jumpi\n      mload(0x40)\n      0x08c379a000000000000000000000000000000000000000000000000000000000\n      dup2\n      mstore\n      0x04\n      add\n      tag_219\n      swap1\n      tag_220\n      jump\t// in\n    tag_219:\n      mload(0x40)\n      dup1\n      swap2\n      sub\n      swap1\n      revert\n    tag_218:\n        /* \"AuctionContract.sol\":6108:6109  0 */\n      0x00\n        /* \"AuctionContract.sol\":6084:6105  settleDurationSeconds */\n      dup2\n        /* \"AuctionContract.sol\":6084:6109  settleDurationSeconds > 0 */\n      0xffffffffffffffff\n      and\n      gt\n        /* \"AuctionContract.sol\":6084:6149  settleDurationSeconds > 0 && settleDurationSeconds < MAX_DURATION */\n      dup1\n      iszero\n      tag_221\n      jumpi\n      pop\n        /* \"AuctionContract.sol\":1567:1574  2592000 */\n      0x278d00\n        /* \"AuctionContract.sol\":6113:6134  settleDurationSeconds */\n      dup2\n        /* \"AuctionContract.sol\":6113:6149  settleDurationSeconds < MAX_DURATION */\n      0xffffffffffffffff\n      and\n      lt\n        /* \"AuctionContract.sol\":6084:6149  settleDurationSeconds > 0 && settleDurationSeconds < MAX_DURATION */\n    tag_221:\n        /* \"AuctionContract.sol\":6076:6182  require(settleDurationSeconds > 0 && settleDurationSeconds < MAX_DURATION, \"CONFIG: bad settle durations\") */\n      tag_222\n      jumpi\n      mload(0x40)\n      0x08c379a000000000000000000000000000000000000000000000000000000000\n      dup2\n      mstore\n      0x04\n      add\n      tag_223\n      swap1\n      tag_224\n      jump\t// in\n    tag_223:\n      mload(0x40)\n      dup1\n      swap2\n      sub\n      swap1\n      revert\n    tag_222:\n        /* \"AuctionContract.sol\":6217:6218  0 */\n      0x00\n        /* \"AuctionContract.sol\":6201:6213  reservePrice */\n      dup5\n        /* \"AuctionContract.sol\":6201:6218  reservePrice >= 0 */\n      lt\n      iszero\n        /* \"AuctionContract.sol\":6201:6246  reservePrice >= 0 && reservePrice < MAX_PRICE */\n      dup1\n      iszero\n      tag_225\n      jumpi\n      pop\n        /* \"AuctionContract.sol\":1629:1633  1e27 */\n      0x033b2e3c9fd0803ce8000000\n        /* \"AuctionContract.sol\":6222:6234  reservePrice */\n      dup5\n        /* \"AuctionContract.sol\":6222:6246  reservePrice < MAX_PRICE */\n      lt\n        /* \"AuctionContract.sol\":6201:6246  reservePrice >= 0 && reservePrice < MAX_PRICE */\n    tag_225:\n        /* \"AuctionContract.sol\":6193:6276  require(reservePrice >= 0 && reservePrice < MAX_PRICE, \"CONFIG: bad reserve price\") */\n      tag_226\n      jumpi\n      mload(0x40)\n      0x08c379a000000000000000000000000000000000000000000000000000000000\n      dup2\n      mstore\n      0x04\n      add\n      tag_227\n      swap1\n      tag_228\n      jump\t// in\n    tag_227:\n      mload(0x40)\n      dup1\n      swap2\n      sub\n      swap1\n      revert\n    tag_226:\n        /* \"AuctionContract.sol\":6349:6359  msg.sender */\n      caller\n        /* \"AuctionContract.sol\":6320:6359  classNFT.ownerOf(tokenId) == msg.sender */\n      0xffffffffffffffffffffffffffffffffffffffff\n      and\n        /* \"AuctionContract.sol\":6320:6328  classNFT */\n      immutable(\"0x4e5869b372f44a1c9aa0923bc94152ac1c74ce415b48c7d3f09c31f435665329\")\n        /* \"AuctionContract.sol\":6320:6336  classNFT.ownerOf */\n      0xffffffffffffffffffffffffffffffffffffffff\n      and\n      0x6352211e\n        /* \"AuctionContract.sol\":6337:6344  tokenId */\n      dup8\n        /* \"AuctionContract.sol\":6320:6345  classNFT.ownerOf(tokenId) */\n      mload(0x40)\n      dup3\n      0xffffffff\n      and\n      0xe0\n      shl\n      dup2\n      mstore\n      0x04\n      add\n      tag_229\n      swap2\n      swap1\n      tag_30\n      jump\t// in\n    tag_229:\n      0x20\n      mload(0x40)\n      dup1\n      dup4\n      sub\n      dup2\n      dup7\n      gas\n      staticcall\n      iszero\n      dup1\n      iszero\n      tag_231\n      jumpi\n      returndatacopy(0x00, 0x00, returndatasize)\n      revert(0x00, returndatasize)\n    tag_231:\n      pop\n      pop\n      pop\n      pop\n      mload(0x40)\n      returndatasize\n      not(0x1f)\n      0x1f\n      dup3\n      add\n      and\n      dup3\n      add\n      dup1\n      0x40\n      mstore\n      pop\n      dup2\n      add\n      swap1\n      tag_232\n      swap2\n      swap1\n      tag_233\n      jump\t// in\n    tag_232:\n        /* \"AuctionContract.sol\":6320:6359  classNFT.ownerOf(tokenId) == msg.sender */\n      0xffffffffffffffffffffffffffffffffffffffff\n      and\n      eq\n        /* \"AuctionContract.sol\":6312:6373  require(classNFT.ownerOf(tokenId) == msg.sender, \"not owner\") */\n      tag_234\n      jumpi\n      mload(0x40)\n      0x08c379a000000000000000000000000000000000000000000000000000000000\n      dup2\n      mstore\n      0x04\n      add\n      tag_235\n      swap1\n      tag_236\n      jump\t// in\n    tag_235:\n      mload(0x40)\n      dup1\n      swap2\n      sub\n      swap1\n      revert\n    tag_234:\n        /* \"AuctionContract.sol\":6460:6512  _safeTransferNFT(msg.sender, address(this), tokenId) */\n      tag_237\n        /* \"AuctionContract.sol\":6477:6487  msg.sender */\n      caller\n        /* \"AuctionContract.sol\":6497:6501  this */\n      address\n        /* \"AuctionContract.sol\":6504:6511  tokenId */\n      dup8\n        /* \"AuctionContract.sol\":6460:6476  _safeTransferNFT */\n      tag_136\n        /* \"AuctionContract.sol\":6460:6512  _safeTransferNFT(msg.sender, address(this), tokenId) */\n      jump\t// in\n    tag_237:\n        /* \"AuctionContract.sol\":6565:6566  1 */\n      0x01\n        /* \"AuctionContract.sol\":6552:6561  auctionId */\n      dup1\n      0x00\n        /* \"AuctionContract.sol\":6552:6566  auctionId += 1 */\n      dup3\n      dup3\n      sload\n      tag_238\n      swap2\n      swap1\n      tag_206\n      jump\t// in\n    tag_238:\n      swap3\n      pop\n      pop\n      dup2\n      swap1\n      sstore\n      pop\n        /* \"AuctionContract.sol\":6577:6594  Auction storage A */\n      0x00\n        /* \"AuctionContract.sol\":6597:6606  _auctions */\n      0x02\n        /* \"AuctionContract.sol\":6597:6617  _auctions[auctionId] */\n      0x00\n        /* \"AuctionContract.sol\":6607:6616  auctionId */\n      sload(0x01)\n        /* \"AuctionContract.sol\":6597:6617  _auctions[auctionId] */\n      dup2\n      mstore\n      0x20\n      add\n      swap1\n      dup2\n      mstore\n      0x20\n      add\n      0x00\n      keccak256\n        /* \"AuctionContract.sol\":6577:6617  Auction storage A = _auctions[auctionId] */\n      swap1\n      pop\n        /* \"AuctionContract.sol\":6670:6677  tokenId */\n      dup6\n        /* \"AuctionContract.sol\":6658:6659  A */\n      dup2\n        /* \"AuctionContract.sol\":6658:6667  A.tokenId */\n      0x00\n      add\n        /* \"AuctionContract.sol\":6658:6677  A.tokenId = tokenId */\n      dup2\n      swap1\n      sstore\n      pop\n        /* \"AuctionContract.sol\":6699:6709  msg.sender */\n      caller\n        /* \"AuctionContract.sol\":6688:6689  A */\n      dup2\n        /* \"AuctionContract.sol\":6688:6696  A.seller */\n      0x01\n      add\n      0x00\n        /* \"AuctionContract.sol\":6688:6709  A.seller = msg.sender */\n      0x0100\n      exp\n      dup2\n      sload\n      dup2\n      0xffffffffffffffffffffffffffffffffffffffff\n      mul\n      not\n      and\n      swap1\n      dup4\n      0xffffffffffffffffffffffffffffffffffffffff\n      and\n      mul\n      or\n      swap1\n      sstore\n      pop\n        /* \"AuctionContract.sol\":6737:6749  reservePrice */\n      dup5\n        /* \"AuctionContract.sol\":6720:6721  A */\n      dup2\n        /* \"AuctionContract.sol\":6720:6734  A.reservePrice */\n      0x02\n      add\n        /* \"AuctionContract.sol\":6720:6749  A.reservePrice = reservePrice */\n      dup2\n      swap1\n      sstore\n      pop\n        /* \"AuctionContract.sol\":1629:1633  1e27 */\n      0x033b2e3c9fd0803ce8000000\n        /* \"AuctionContract.sol\":6835:6836  2 */\n      0x02\n        /* \"AuctionContract.sol\":6820:6832  reservePrice */\n      dup7\n        /* \"AuctionContract.sol\":6820:6836  reservePrice / 2 */\n      tag_239\n      swap2\n      swap1\n      tag_240\n      jump\t// in\n    tag_239:\n        /* \"AuctionContract.sol\":6819:6849  (reservePrice / 2) < MAX_PRICE */\n      lt\n        /* \"AuctionContract.sol\":6819:6880  (reservePrice / 2) < MAX_PRICE ? (reservePrice / 2):MAX_PRICE */\n      tag_241\n      jumpi\n        /* \"AuctionContract.sol\":1629:1633  1e27 */\n      0x033b2e3c9fd0803ce8000000\n        /* \"AuctionContract.sol\":6819:6880  (reservePrice / 2) < MAX_PRICE ? (reservePrice / 2):MAX_PRICE */\n      jump(tag_242)\n    tag_241:\n        /* \"AuctionContract.sol\":6868:6869  2 */\n      0x02\n        /* \"AuctionContract.sol\":6853:6865  reservePrice */\n      dup6\n        /* \"AuctionContract.sol\":6853:6869  reservePrice / 2 */\n      tag_243\n      swap2\n      swap1\n      tag_240\n      jump\t// in\n    tag_243:\n        /* \"AuctionContract.sol\":6819:6880  (reservePrice / 2) < MAX_PRICE ? (reservePrice / 2):MAX_PRICE */\n    tag_242:\n        /* \"AuctionContract.sol\":6800:6801  A */\n      dup2\n        /* \"AuctionContract.sol\":6800:6814  A.depositPrice */\n      0x03\n      add\n        /* \"AuctionContract.sol\":6800:6881  A.depositPrice =  ((reservePrice / 2) < MAX_PRICE ? (reservePrice / 2):MAX_PRICE) */\n      dup2\n      swap1\n      sstore\n      pop\n        /* \"AuctionContract.sol\":6894:6906  uint64 nowTs */\n      0x00\n        /* \"AuctionContract.sol\":6916:6931  block.timestamp */\n      timestamp\n        /* \"AuctionContract.sol\":6894:6932  uint64 nowTs = uint64(block.timestamp) */\n      swap1\n      pop\n        /* \"AuctionContract.sol\":6958:6963  nowTs */\n      dup1\n        /* \"AuctionContract.sol\":6943:6944  A */\n      dup3\n        /* \"AuctionContract.sol\":6943:6955  A.startStamp */\n      0x04\n      add\n      0x00\n        /* \"AuctionContract.sol\":6943:6963  A.startStamp = nowTs */\n      0x0100\n      exp\n      dup2\n      sload\n      dup2\n      0xffffffffffffffff\n      mul\n      not\n      and\n      swap1\n      dup4\n      0xffffffffffffffff\n      and\n      mul\n      or\n      swap1\n      sstore\n      pop\n        /* \"AuctionContract.sol\":6996:7017  commitDurationSeconds */\n      dup5\n        /* \"AuctionContract.sol\":6988:6993  nowTs */\n      dup2\n        /* \"AuctionContract.sol\":6988:7017  nowTs + commitDurationSeconds */\n      tag_244\n      swap2\n      swap1\n      tag_146\n      jump\t// in\n    tag_244:\n        /* \"AuctionContract.sol\":6974:6975  A */\n      dup3\n        /* \"AuctionContract.sol\":6974:6985  A.commitEnd */\n      0x04\n      add\n      0x08\n        /* \"AuctionContract.sol\":6974:7017  A.commitEnd = nowTs + commitDurationSeconds */\n      0x0100\n      exp\n      dup2\n      sload\n      dup2\n      0xffffffffffffffff\n      mul\n      not\n      and\n      swap1\n      dup4\n      0xffffffffffffffff\n      and\n      mul\n      or\n      swap1\n      sstore\n      pop\n        /* \"AuctionContract.sol\":7056:7077  revealDurationSeconds */\n      dup4\n        /* \"AuctionContract.sol\":7042:7043  A */\n      dup3\n        /* \"AuctionContract.sol\":7042:7053  A.commitEnd */\n      0x04\n      add\n      0x08\n      swap1\n      sload\n      swap1\n      0x0100\n      exp\n      swap1\n      div\n      0xffffffffffffffff\n      and\n        /* \"AuctionContract.sol\":7042:7077  A.commitEnd + revealDurationSeconds */\n      tag_245\n      swap2\n      swap1\n      tag_146\n      jump\t// in\n    tag_245:\n        /* \"AuctionContract.sol\":7028:7029  A */\n      dup3\n        /* \"AuctionContract.sol\":7028:7039  A.revealEnd */\n      0x04\n      add\n      0x10\n        /* \"AuctionContract.sol\":7028:7077  A.revealEnd = A.commitEnd + revealDurationSeconds */\n      0x0100\n      exp\n      dup2\n      sload\n      dup2\n      0xffffffffffffffff\n      mul\n      not\n      and\n      swap1\n      dup4\n      0xffffffffffffffff\n      and\n      mul\n      or\n      swap1\n      sstore\n      pop\n        /* \"AuctionContract.sol\":7107:7128  settleDurationSeconds */\n      dup3\n        /* \"AuctionContract.sol\":7088:7089  A */\n      dup3\n        /* \"AuctionContract.sol\":7088:7104  A.settleDuration */\n      0x04\n      add\n      0x18\n        /* \"AuctionContract.sol\":7088:7128  A.settleDuration = settleDurationSeconds */\n      0x0100\n      exp\n      dup2\n      sload\n      dup2\n      0xffffffffffffffff\n      mul\n      not\n      and\n      swap1\n      dup4\n      0xffffffffffffffff\n      and\n      mul\n      or\n      swap1\n      sstore\n      pop\n        /* \"AuctionContract.sol\":7192:7200  classNFT */\n      immutable(\"0x4e5869b372f44a1c9aa0923bc94152ac1c74ce415b48c7d3f09c31f435665329\")\n        /* \"AuctionContract.sol\":7146:7299  AuctionStarted(auctionId, msg.sender, address(classNFT), tokenId, reservePrice, A.depositPrice, A.startStamp, A.commitEnd, A.revealEnd, A.settleDuration) */\n      0xffffffffffffffffffffffffffffffffffffffff\n      and\n        /* \"AuctionContract.sol\":7172:7182  msg.sender */\n      caller\n        /* \"AuctionContract.sol\":7146:7299  AuctionStarted(auctionId, msg.sender, address(classNFT), tokenId, reservePrice, A.depositPrice, A.startStamp, A.commitEnd, A.revealEnd, A.settleDuration) */\n      0xffffffffffffffffffffffffffffffffffffffff\n      and\n        /* \"AuctionContract.sol\":7161:7170  auctionId */\n      sload(0x01)\n        /* \"AuctionContract.sol\":7146:7299  AuctionStarted(auctionId, msg.sender, address(classNFT), tokenId, reservePrice, A.depositPrice, A.startStamp, A.commitEnd, A.revealEnd, A.settleDuration) */\n      0x086b19d6a6b02147fc1e9f2538ae5b1ff124ee6827666573f5f59710a6bd5ebb\n        /* \"AuctionContract.sol\":7203:7210  tokenId */\n      dup11\n        /* \"AuctionContract.sol\":7212:7224  reservePrice */\n      dup11\n        /* \"AuctionContract.sol\":7226:7227  A */\n      dup8\n        /* \"AuctionContract.sol\":7226:7240  A.depositPrice */\n      0x03\n      add\n      sload\n        /* \"AuctionContract.sol\":7242:7243  A */\n      dup9\n        /* \"AuctionContract.sol\":7242:7254  A.startStamp */\n      0x04\n      add\n      0x00\n      swap1\n      sload\n      swap1\n      0x0100\n      exp\n      swap1\n      div\n      0xffffffffffffffff\n      and\n        /* \"AuctionContract.sol\":7256:7257  A */\n      dup10\n        /* \"AuctionContract.sol\":7256:7267  A.commitEnd */\n      0x04\n      add\n      0x08\n      swap1\n      sload\n      swap1\n      0x0100\n      exp\n      swap1\n      div\n      0xffffffffffffffff\n      and\n        /* \"AuctionContract.sol\":7269:7270  A */\n      dup11\n        /* \"AuctionContract.sol\":7269:7280  A.revealEnd */\n      0x04\n      add\n      0x10\n      swap1\n      sload\n      swap1\n      0x0100\n      exp\n      swap1\n      div\n      0xffffffffffffffff\n      and\n        /* \"AuctionContract.sol\":7282:7283  A */\n      dup12\n        /* \"AuctionContract.sol\":7282:7298  A.settleDuration */\n      0x04\n      add\n      0x18\n      swap1\n      sload\n      swap1\n      0x0100\n      exp\n      swap1\n      div\n      0xffffffffffffffff\n      and\n        /* \"AuctionContract.sol\":7146:7299  AuctionStarted(auctionId, msg.sender, address(classNFT), tokenId, reservePrice, A.depositPrice, A.startStamp, A.commitEnd, A.revealEnd, A.settleDuration) */\n      mload(0x40)\n      tag_246\n      swap8\n      swap7\n      swap6\n      swap5\n      swap4\n      swap3\n      swap2\n      swap1\n      tag_247\n      jump\t// in\n    tag_246:\n      mload(0x40)\n      dup1\n      swap2\n      sub\n      swap1\n      log4\n        /* \"AuctionContract.sol\":5576:7307  {... */\n      pop\n      pop\n        /* \"AuctionContract.sol\":5364:7307  function startAuction(... */\n      pop\n      pop\n      pop\n      pop\n      pop\n      jump\t// out\n        /* \"AuctionContract.sol\":17702:17882  function getCommitment(uint256 id, address bidder) external view returns (bytes32) {... */\n    tag_87:\n        /* \"AuctionContract.sol\":17776:17783  bytes32 */\n      0x00\n        /* \"AuctionContract.sol\":17796:17813  Auction storage A */\n      0x00\n        /* \"AuctionContract.sol\":17816:17835  _requireAuction(id) */\n      tag_249\n        /* \"AuctionContract.sol\":17832:17834  id */\n      dup5\n        /* \"AuctionContract.sol\":17816:17831  _requireAuction */\n      tag_169\n        /* \"AuctionContract.sol\":17816:17835  _requireAuction(id) */\n      jump\t// in\n    tag_249:\n        /* \"AuctionContract.sol\":17796:17835  Auction storage A = _requireAuction(id) */\n      swap1\n      pop\n        /* \"AuctionContract.sol\":17853:17854  A */\n      dup1\n        /* \"AuctionContract.sol\":17853:17866  A.commitments */\n      0x0a\n      add\n        /* \"AuctionContract.sol\":17853:17874  A.commitments[bidder] */\n      0x00\n        /* \"AuctionContract.sol\":17867:17873  bidder */\n      dup5\n        /* \"AuctionContract.sol\":17853:17874  A.commitments[bidder] */\n      0xffffffffffffffffffffffffffffffffffffffff\n      and\n      0xffffffffffffffffffffffffffffffffffffffff\n      and\n      dup2\n      mstore\n      0x20\n      add\n      swap1\n      dup2\n      mstore\n      0x20\n      add\n      0x00\n      keccak256\n      sload\n        /* \"AuctionContract.sol\":17846:17874  return A.commitments[bidder] */\n      swap2\n      pop\n      pop\n        /* \"AuctionContract.sol\":17702:17882  function getCommitment(uint256 id, address bidder) external view returns (bytes32) {... */\n      swap3\n      swap2\n      pop\n      pop\n      jump\t// out\n        /* \"AuctionContract.sol\":13813:14789  function payAndClaim(uint256 id) external payable nonReentrant {... */\n    tag_92:\n        /* \"AuctionContract.sol\":1876:1877  2 */\n      0x02\n        /* \"AuctionContract.sol\":1972:1979  _status */\n      sload(0x00)\n        /* \"AuctionContract.sol\":1972:1991  _status != _ENTERED */\n      sub\n        /* \"AuctionContract.sol\":1964:2006  require(_status != _ENTERED, \"REENTRANCY\") */\n      tag_251\n      jumpi\n      mload(0x40)\n      0x08c379a000000000000000000000000000000000000000000000000000000000\n      dup2\n      mstore\n      0x04\n      add\n      tag_252\n      swap1\n      tag_173\n      jump\t// in\n    tag_252:\n      mload(0x40)\n      dup1\n      swap2\n      sub\n      swap1\n      revert\n    tag_251:\n        /* \"AuctionContract.sol\":1876:1877  2 */\n      0x02\n        /* \"AuctionContract.sol\":2017:2024  _status */\n      0x00\n        /* \"AuctionContract.sol\":2017:2035  _status = _ENTERED */\n      dup2\n      swap1\n      sstore\n      pop\n        /* \"AuctionContract.sol\":13887:13904  Auction storage A */\n      0x00\n        /* \"AuctionContract.sol\":13907:13926  _requireAuction(id) */\n      tag_254\n        /* \"AuctionContract.sol\":13923:13925  id */\n      dup3\n        /* \"AuctionContract.sol\":13907:13922  _requireAuction */\n      tag_169\n        /* \"AuctionContract.sol\":13907:13926  _requireAuction(id) */\n      jump\t// in\n    tag_254:\n        /* \"AuctionContract.sol\":13887:13926  Auction storage A = _requireAuction(id) */\n      swap1\n      pop\n        /* \"AuctionContract.sol\":13942:13943  A */\n      dup1\n        /* \"AuctionContract.sol\":13942:13953  A.finalized */\n      0x09\n      add\n      0x00\n      swap1\n      sload\n      swap1\n      0x0100\n      exp\n      swap1\n      div\n      0xff\n      and\n        /* \"AuctionContract.sol\":13937:13972  if (!A.finalized) revert NotEnded() */\n      tag_255\n      jumpi\n        /* \"AuctionContract.sol\":13962:13972  NotEnded() */\n      mload(0x40)\n      0xd3018d1800000000000000000000000000000000000000000000000000000000\n      dup2\n      mstore\n      0x04\n      add\n      mload(0x40)\n      dup1\n      swap2\n      sub\n      swap1\n      revert\n        /* \"AuctionContract.sol\":13937:13972  if (!A.finalized) revert NotEnded() */\n    tag_255:\n        /* \"AuctionContract.sol\":14006:14016  msg.sender */\n      caller\n        /* \"AuctionContract.sol\":13987:14016  A.highestBidder != msg.sender */\n      0xffffffffffffffffffffffffffffffffffffffff\n      and\n        /* \"AuctionContract.sol\":13987:13988  A */\n      dup2\n        /* \"AuctionContract.sol\":13987:14002  A.highestBidder */\n      0x05\n      add\n      0x08\n      swap1\n      sload\n      swap1\n      0x0100\n      exp\n      swap1\n      div\n      0xffffffffffffffffffffffffffffffffffffffff\n      and\n        /* \"AuctionContract.sol\":13987:14016  A.highestBidder != msg.sender */\n      0xffffffffffffffffffffffffffffffffffffffff\n      and\n      eq\n        /* \"AuctionContract.sol\":13983:14036  if (A.highestBidder != msg.sender) revert NotWinner() */\n      tag_256\n      jumpi\n        /* \"AuctionContract.sol\":14025:14036  NotWinner() */\n      mload(0x40)\n      0x618c724200000000000000000000000000000000000000000000000000000000\n      dup2\n      mstore\n      0x04\n      add\n      mload(0x40)\n      dup1\n      swap2\n      sub\n      swap1\n      revert\n        /* \"AuctionContract.sol\":13983:14036  if (A.highestBidder != msg.sender) revert NotWinner() */\n    tag_256:\n        /* \"AuctionContract.sol\":14051:14052  A */\n      dup1\n        /* \"AuctionContract.sol\":14051:14060  A.settled */\n      0x09\n      add\n      0x01\n      swap1\n      sload\n      swap1\n      0x0100\n      exp\n      swap1\n      div\n      0xff\n      and\n        /* \"AuctionContract.sol\":14047:14082  if (A.settled) revert NoClaimable() */\n      iszero\n      tag_257\n      jumpi\n        /* \"AuctionContract.sol\":14069:14082  NoClaimable() */\n      mload(0x40)\n      0x44a5ddcc00000000000000000000000000000000000000000000000000000000\n      dup2\n      mstore\n      0x04\n      add\n      mload(0x40)\n      dup1\n      swap2\n      sub\n      swap1\n      revert\n        /* \"AuctionContract.sol\":14047:14082  if (A.settled) revert NoClaimable() */\n    tag_257:\n        /* \"AuctionContract.sol\":14250:14251  A */\n      dup1\n        /* \"AuctionContract.sol\":14250:14266  A.settleDeadline */\n      0x05\n      add\n      0x00\n      swap1\n      sload\n      swap1\n      0x0100\n      exp\n      swap1\n      div\n      0xffffffffffffffff\n      and\n        /* \"AuctionContract.sol\":14232:14266  block.timestamp > A.settleDeadline */\n      0xffffffffffffffff\n      and\n        /* \"AuctionContract.sol\":14232:14247  block.timestamp */\n      timestamp\n        /* \"AuctionContract.sol\":14232:14266  block.timestamp > A.settleDeadline */\n      gt\n        /* \"AuctionContract.sol\":14232:14290  block.timestamp > A.settleDeadline && A.clearingPrice != 0 */\n      dup1\n      iszero\n      tag_258\n      jumpi\n      pop\n        /* \"AuctionContract.sol\":14289:14290  0 */\n      0x00\n        /* \"AuctionContract.sol\":14270:14271  A */\n      dup2\n        /* \"AuctionContract.sol\":14270:14285  A.clearingPrice */\n      0x08\n      add\n      sload\n        /* \"AuctionContract.sol\":14270:14290  A.clearingPrice != 0 */\n      eq\n      iszero\n        /* \"AuctionContract.sol\":14232:14290  block.timestamp > A.settleDeadline && A.clearingPrice != 0 */\n    tag_258:\n        /* \"AuctionContract.sol\":14228:14314  if (block.timestamp > A.settleDeadline && A.clearingPrice != 0) revert PaymentClosed() */\n      iszero\n      tag_259\n      jumpi\n        /* \"AuctionContract.sol\":14299:14314  PaymentClosed() */\n      mload(0x40)\n      0x58459e8800000000000000000000000000000000000000000000000000000000\n      dup2\n      mstore\n      0x04\n      add\n      mload(0x40)\n      dup1\n      swap2\n      sub\n      swap1\n      revert\n        /* \"AuctionContract.sol\":14228:14314  if (block.timestamp > A.settleDeadline && A.clearingPrice != 0) revert PaymentClosed() */\n    tag_259:\n        /* \"AuctionContract.sol\":14342:14343  A */\n      dup1\n        /* \"AuctionContract.sol\":14342:14357  A.clearingPrice */\n      0x08\n      add\n      sload\n        /* \"AuctionContract.sol\":14329:14338  msg.value */\n      callvalue\n        /* \"AuctionContract.sol\":14329:14357  msg.value != A.clearingPrice */\n      eq\n        /* \"AuctionContract.sol\":14325:14380  if (msg.value != A.clearingPrice) revert WrongPayment() */\n      tag_260\n      jumpi\n        /* \"AuctionContract.sol\":14366:14380  WrongPayment() */\n      mload(0x40)\n      0x788a686f00000000000000000000000000000000000000000000000000000000\n      dup2\n      mstore\n      0x04\n      add\n      mload(0x40)\n      dup1\n      swap2\n      sub\n      swap1\n      revert\n        /* \"AuctionContract.sol\":14325:14380  if (msg.value != A.clearingPrice) revert WrongPayment() */\n    tag_260:\n        /* \"AuctionContract.sol\":14475:14476  0 */\n      0x00\n        /* \"AuctionContract.sol\":14456:14457  A */\n      dup2\n        /* \"AuctionContract.sol\":14456:14471  A.clearingPrice */\n      0x08\n      add\n      sload\n        /* \"AuctionContract.sol\":14456:14476  A.clearingPrice != 0 */\n      eq\n        /* \"AuctionContract.sol\":14452:14576  if (A.clearingPrice != 0){... */\n      tag_261\n      jumpi\n        /* \"AuctionContract.sol\":14510:14511  0 */\n      0x00\n        /* \"AuctionContract.sol\":14492:14493  A */\n      dup2\n        /* \"AuctionContract.sol\":14492:14507  A.clearingPrice */\n      0x08\n      add\n        /* \"AuctionContract.sol\":14492:14511  A.clearingPrice = 0 */\n      dup2\n      swap1\n      sstore\n      pop\n        /* \"AuctionContract.sol\":14555:14564  msg.value */\n      callvalue\n        /* \"AuctionContract.sol\":14526:14527  A */\n      dup2\n        /* \"AuctionContract.sol\":14526:14541  A.depositAmount */\n      0x0c\n      add\n        /* \"AuctionContract.sol\":14526:14551  A.depositAmount[A.seller] */\n      0x00\n        /* \"AuctionContract.sol\":14542:14543  A */\n      dup4\n        /* \"AuctionContract.sol\":14542:14550  A.seller */\n      0x01\n      add\n      0x00\n      swap1\n      sload\n      swap1\n      0x0100\n      exp\n      swap1\n      div\n      0xffffffffffffffffffffffffffffffffffffffff\n      and\n        /* \"AuctionContract.sol\":14526:14551  A.depositAmount[A.seller] */\n      0xffffffffffffffffffffffffffffffffffffffff\n      and\n      0xffffffffffffffffffffffffffffffffffffffff\n      and\n      dup2\n      mstore\n      0x20\n      add\n      swap1\n      dup2\n      mstore\n      0x20\n      add\n      0x00\n      keccak256\n      0x00\n        /* \"AuctionContract.sol\":14526:14564  A.depositAmount[A.seller] += msg.value */\n      dup3\n      dup3\n      sload\n      tag_262\n      swap2\n      swap1\n      tag_206\n      jump\t// in\n    tag_262:\n      swap3\n      pop\n      pop\n      dup2\n      swap1\n      sstore\n      pop\n        /* \"AuctionContract.sol\":14452:14576  if (A.clearingPrice != 0){... */\n    tag_261:\n        /* \"AuctionContract.sol\":14635:14639  true */\n      0x01\n        /* \"AuctionContract.sol\":14623:14624  A */\n      dup2\n        /* \"AuctionContract.sol\":14623:14632  A.settled */\n      0x09\n      add\n      0x01\n        /* \"AuctionContract.sol\":14623:14639  A.settled = true */\n      0x0100\n      exp\n      dup2\n      sload\n      dup2\n      0xff\n      mul\n      not\n      and\n      swap1\n      dup4\n      iszero\n      iszero\n      mul\n      or\n      swap1\n      sstore\n      pop\n        /* \"AuctionContract.sol\":14650:14709  _safeTransferNFT(address(this), A.highestBidder, A.tokenId) */\n      tag_263\n        /* \"AuctionContract.sol\":14675:14679  this */\n      address\n        /* \"AuctionContract.sol\":14682:14683  A */\n      dup3\n        /* \"AuctionContract.sol\":14682:14697  A.highestBidder */\n      0x05\n      add\n      0x08\n      swap1\n      sload\n      swap1\n      0x0100\n      exp\n      swap1\n      div\n      0xffffffffffffffffffffffffffffffffffffffff\n      and\n        /* \"AuctionContract.sol\":14699:14700  A */\n      dup4\n        /* \"AuctionContract.sol\":14699:14708  A.tokenId */\n      0x00\n      add\n      sload\n        /* \"AuctionContract.sol\":14650:14666  _safeTransferNFT */\n      tag_136\n        /* \"AuctionContract.sol\":14650:14709  _safeTransferNFT(address(this), A.highestBidder, A.tokenId) */\n      jump\t// in\n    tag_263:\n        /* \"AuctionContract.sol\":14759:14769  msg.sender */\n      caller\n        /* \"AuctionContract.sol\":14727:14781  WinnerPaidAndClaimed(auctionId, msg.sender, msg.value) */\n      0xffffffffffffffffffffffffffffffffffffffff\n      and\n        /* \"AuctionContract.sol\":14748:14757  auctionId */\n      sload(0x01)\n        /* \"AuctionContract.sol\":14727:14781  WinnerPaidAndClaimed(auctionId, msg.sender, msg.value) */\n      0xd33ef6ab06e6bf8672161aa6abe1ec1791c393d62213ebd89c67f611e538e575\n        /* \"AuctionContract.sol\":14771:14780  msg.value */\n      callvalue\n        /* \"AuctionContract.sol\":14727:14781  WinnerPaidAndClaimed(auctionId, msg.sender, msg.value) */\n      mload(0x40)\n      tag_264\n      swap2\n      swap1\n      tag_30\n      jump\t// in\n    tag_264:\n      mload(0x40)\n      dup1\n      swap2\n      sub\n      swap1\n      log3\n        /* \"AuctionContract.sol\":13876:14789  {... */\n      pop\n        /* \"AuctionContract.sol\":1832:1833  1 */\n      0x01\n        /* \"AuctionContract.sol\":2058:2065  _status */\n      0x00\n        /* \"AuctionContract.sol\":2058:2080  _status = _NOT_ENTERED */\n      dup2\n      swap1\n      sstore\n      pop\n        /* \"AuctionContract.sol\":13813:14789  function payAndClaim(uint256 id) external payable nonReentrant {... */\n      pop\n      jump\t// out\n        /* \"AuctionContract.sol\":1528:1574  uint256 public constant MAX_DURATION = 2592000 */\n    tag_95:\n        /* \"AuctionContract.sol\":1567:1574  2592000 */\n      0x278d00\n        /* \"AuctionContract.sol\":1528:1574  uint256 public constant MAX_DURATION = 2592000 */\n      dup2\n      jump\t// out\n        /* \"AuctionContract.sol\":18462:18923  function currentPhase(uint256 id) public view returns (string memory) {... */\n    tag_100:\n        /* \"AuctionContract.sol\":18517:18530  string memory */\n      0x60\n        /* \"AuctionContract.sol\":18543:18560  Auction storage A */\n      0x00\n        /* \"AuctionContract.sol\":18563:18582  _requireAuction(id) */\n      tag_266\n        /* \"AuctionContract.sol\":18579:18581  id */\n      dup4\n        /* \"AuctionContract.sol\":18563:18578  _requireAuction */\n      tag_169\n        /* \"AuctionContract.sol\":18563:18582  _requireAuction(id) */\n      jump\t// in\n    tag_266:\n        /* \"AuctionContract.sol\":18543:18582  Auction storage A = _requireAuction(id) */\n      swap1\n      pop\n        /* \"AuctionContract.sol\":18593:18602  uint256 t */\n      0x00\n        /* \"AuctionContract.sol\":18605:18620  block.timestamp */\n      timestamp\n        /* \"AuctionContract.sol\":18593:18620  uint256 t = block.timestamp */\n      swap1\n      pop\n        /* \"AuctionContract.sol\":18639:18640  A */\n      dup2\n        /* \"AuctionContract.sol\":18639:18650  A.commitEnd */\n      0x04\n      add\n      0x08\n      swap1\n      sload\n      swap1\n      0x0100\n      exp\n      swap1\n      div\n      0xffffffffffffffff\n      and\n        /* \"AuctionContract.sol\":18635:18650  t < A.commitEnd */\n      0xffffffffffffffff\n      and\n        /* \"AuctionContract.sol\":18635:18636  t */\n      dup2\n        /* \"AuctionContract.sol\":18635:18650  t < A.commitEnd */\n      lt\n        /* \"AuctionContract.sol\":18631:18667  if (t < A.commitEnd) return \"COMMIT\" */\n      iszero\n      tag_267\n      jumpi\n        /* \"AuctionContract.sol\":18652:18667  return \"COMMIT\" */\n      mload(0x40)\n      dup1\n      0x40\n      add\n      0x40\n      mstore\n      dup1\n      0x06\n      dup2\n      mstore\n      0x20\n      add\n      0x434f4d4d49540000000000000000000000000000000000000000000000000000\n      dup2\n      mstore\n      pop\n      swap3\n      pop\n      pop\n      pop\n      jump(tag_265)\n        /* \"AuctionContract.sol\":18631:18667  if (t < A.commitEnd) return \"COMMIT\" */\n    tag_267:\n        /* \"AuctionContract.sol\":18686:18687  A */\n      dup2\n        /* \"AuctionContract.sol\":18686:18697  A.revealEnd */\n      0x04\n      add\n      0x10\n      swap1\n      sload\n      swap1\n      0x0100\n      exp\n      swap1\n      div\n      0xffffffffffffffff\n      and\n        /* \"AuctionContract.sol\":18682:18697  t < A.revealEnd */\n      0xffffffffffffffff\n      and\n        /* \"AuctionContract.sol\":18682:18683  t */\n      dup2\n        /* \"AuctionContract.sol\":18682:18697  t < A.revealEnd */\n      lt\n        /* \"AuctionContract.sol\":18678:18714  if (t < A.revealEnd) return \"REVEAL\" */\n      iszero\n      tag_268\n      jumpi\n        /* \"AuctionContract.sol\":18699:18714  return \"REVEAL\" */\n      mload(0x40)\n      dup1\n      0x40\n      add\n      0x40\n      mstore\n      dup1\n      0x06\n      dup2\n      mstore\n      0x20\n      add\n      0x52455645414c0000000000000000000000000000000000000000000000000000\n      dup2\n      mstore\n      pop\n      swap3\n      pop\n      pop\n      pop\n      jump(tag_265)\n        /* \"AuctionContract.sol\":18678:18714  if (t < A.revealEnd) return \"REVEAL\" */\n    tag_268:\n        /* \"AuctionContract.sol\":18730:18731  A */\n      dup2\n        /* \"AuctionContract.sol\":18730:18741  A.finalized */\n      0x09\n      add\n      0x00\n      swap1\n      sload\n      swap1\n      0x0100\n      exp\n      swap1\n      div\n      0xff\n      and\n        /* \"AuctionContract.sol\":18725:18768  if (!A.finalized) return \"FINALIZE_PENDING\" */\n      tag_269\n      jumpi\n        /* \"AuctionContract.sol\":18743:18768  return \"FINALIZE_PENDING\" */\n      mload(0x40)\n      dup1\n      0x40\n      add\n      0x40\n      mstore\n      dup1\n      0x10\n      dup2\n      mstore\n      0x20\n      add\n      0x46494e414c495a455f50454e44494e4700000000000000000000000000000000\n      dup2\n      mstore\n      pop\n      swap3\n      pop\n      pop\n      pop\n      jump(tag_265)\n        /* \"AuctionContract.sol\":18725:18768  if (!A.finalized) return \"FINALIZE_PENDING\" */\n    tag_269:\n        /* \"AuctionContract.sol\":18783:18784  A */\n      dup2\n        /* \"AuctionContract.sol\":18783:18794  A.finalized */\n      0x09\n      add\n      0x00\n      swap1\n      sload\n      swap1\n      0x0100\n      exp\n      swap1\n      div\n      0xff\n      and\n        /* \"AuctionContract.sol\":18783:18808  A.finalized && !A.settled */\n      dup1\n      iszero\n      tag_270\n      jumpi\n      pop\n        /* \"AuctionContract.sol\":18799:18800  A */\n      dup2\n        /* \"AuctionContract.sol\":18799:18808  A.settled */\n      0x09\n      add\n      0x01\n      swap1\n      sload\n      swap1\n      0x0100\n      exp\n      swap1\n      div\n      0xff\n      and\n        /* \"AuctionContract.sol\":18798:18808  !A.settled */\n      iszero\n        /* \"AuctionContract.sol\":18783:18808  A.finalized && !A.settled */\n    tag_270:\n        /* \"AuctionContract.sol\":18783:18841  A.finalized && !A.settled && A.highestBidder != address(0) */\n      dup1\n      iszero\n      tag_271\n      jumpi\n      pop\n        /* \"AuctionContract.sol\":18839:18840  0 */\n      0x00\n        /* \"AuctionContract.sol\":18812:18841  A.highestBidder != address(0) */\n      0xffffffffffffffffffffffffffffffffffffffff\n      and\n        /* \"AuctionContract.sol\":18812:18813  A */\n      dup3\n        /* \"AuctionContract.sol\":18812:18827  A.highestBidder */\n      0x05\n      add\n      0x08\n      swap1\n      sload\n      swap1\n      0x0100\n      exp\n      swap1\n      div\n      0xffffffffffffffffffffffffffffffffffffffff\n      and\n        /* \"AuctionContract.sol\":18812:18841  A.highestBidder != address(0) */\n      0xffffffffffffffffffffffffffffffffffffffff\n      and\n      eq\n      iszero\n        /* \"AuctionContract.sol\":18783:18841  A.finalized && !A.settled && A.highestBidder != address(0) */\n    tag_271:\n        /* \"AuctionContract.sol\":18783:18866  A.finalized && !A.settled && A.highestBidder != address(0) && t <= A.settleDeadline */\n      dup1\n      iszero\n      tag_272\n      jumpi\n      pop\n        /* \"AuctionContract.sol\":18850:18851  A */\n      dup2\n        /* \"AuctionContract.sol\":18850:18866  A.settleDeadline */\n      0x05\n      add\n      0x00\n      swap1\n      sload\n      swap1\n      0x0100\n      exp\n      swap1\n      div\n      0xffffffffffffffff\n      and\n        /* \"AuctionContract.sol\":18845:18866  t <= A.settleDeadline */\n      0xffffffffffffffff\n      and\n        /* \"AuctionContract.sol\":18845:18846  t */\n      dup2\n        /* \"AuctionContract.sol\":18845:18866  t <= A.settleDeadline */\n      gt\n      iszero\n        /* \"AuctionContract.sol\":18783:18866  A.finalized && !A.settled && A.highestBidder != address(0) && t <= A.settleDeadline */\n    tag_272:\n        /* \"AuctionContract.sol\":18779:18890  if (A.finalized && !A.settled && A.highestBidder != address(0) && t <= A.settleDeadline) return \"AWAIT_PAYMENT\" */\n      iszero\n      tag_273\n      jumpi\n        /* \"AuctionContract.sol\":18868:18890  return \"AWAIT_PAYMENT\" */\n      mload(0x40)\n      dup1\n      0x40\n      add\n      0x40\n      mstore\n      dup1\n      0x0d\n      dup2\n      mstore\n      0x20\n      add\n      0x41574149545f5041594d454e5400000000000000000000000000000000000000\n      dup2\n      mstore\n      pop\n      swap3\n      pop\n      pop\n      pop\n      jump(tag_265)\n        /* \"AuctionContract.sol\":18779:18890  if (A.finalized && !A.settled && A.highestBidder != address(0) && t <= A.settleDeadline) return \"AWAIT_PAYMENT\" */\n    tag_273:\n        /* \"AuctionContract.sol\":18901:18915  return \"ENDED\" */\n      mload(0x40)\n      dup1\n      0x40\n      add\n      0x40\n      mstore\n      dup1\n      0x05\n      dup2\n      mstore\n      0x20\n      add\n      0x454e444544000000000000000000000000000000000000000000000000000000\n      dup2\n      mstore\n      pop\n      swap3\n      pop\n      pop\n      pop\n        /* \"AuctionContract.sol\":18462:18923  function currentPhase(uint256 id) public view returns (string memory) {... */\n    tag_265:\n      swap2\n      swap1\n      pop\n      jump\t// out\n        /* \"AuctionContract.sol\":14896:15638  function sellerReclaimNFT(uint256 id) external {... */\n    tag_106:\n        /* \"AuctionContract.sol\":14954:14971  Auction storage A */\n      0x00\n        /* \"AuctionContract.sol\":14974:14993  _requireAuction(id) */\n      tag_275\n        /* \"AuctionContract.sol\":14990:14992  id */\n      dup3\n        /* \"AuctionContract.sol\":14974:14989  _requireAuction */\n      tag_169\n        /* \"AuctionContract.sol\":14974:14993  _requireAuction(id) */\n      jump\t// in\n    tag_275:\n        /* \"AuctionContract.sol\":14954:14993  Auction storage A = _requireAuction(id) */\n      swap1\n      pop\n        /* \"AuctionContract.sol\":15009:15010  A */\n      dup1\n        /* \"AuctionContract.sol\":15009:15020  A.finalized */\n      0x09\n      add\n      0x00\n      swap1\n      sload\n      swap1\n      0x0100\n      exp\n      swap1\n      div\n      0xff\n      and\n        /* \"AuctionContract.sol\":15004:15039  if (!A.finalized) revert NotEnded() */\n      tag_276\n      jumpi\n        /* \"AuctionContract.sol\":15029:15039  NotEnded() */\n      mload(0x40)\n      0xd3018d1800000000000000000000000000000000000000000000000000000000\n      dup2\n      mstore\n      0x04\n      add\n      mload(0x40)\n      dup1\n      swap2\n      sub\n      swap1\n      revert\n        /* \"AuctionContract.sol\":15004:15039  if (!A.finalized) revert NotEnded() */\n    tag_276:\n        /* \"AuctionContract.sol\":15073:15074  A */\n      dup1\n        /* \"AuctionContract.sol\":15073:15089  A.settleDeadline */\n      0x05\n      add\n      0x00\n      swap1\n      sload\n      swap1\n      0x0100\n      exp\n      swap1\n      div\n      0xffffffffffffffff\n      and\n        /* \"AuctionContract.sol\":15054:15089  block.timestamp <= A.settleDeadline */\n      0xffffffffffffffff\n      and\n        /* \"AuctionContract.sol\":15054:15069  block.timestamp */\n      timestamp\n        /* \"AuctionContract.sol\":15054:15089  block.timestamp <= A.settleDeadline */\n      gt\n        /* \"AuctionContract.sol\":15050:15108  if (block.timestamp <= A.settleDeadline) revert NotEnded() */\n      tag_277\n      jumpi\n        /* \"AuctionContract.sol\":15098:15108  NotEnded() */\n      mload(0x40)\n      0xd3018d1800000000000000000000000000000000000000000000000000000000\n      dup2\n      mstore\n      0x04\n      add\n      mload(0x40)\n      dup1\n      swap2\n      sub\n      swap1\n      revert\n        /* \"AuctionContract.sol\":15050:15108  if (block.timestamp <= A.settleDeadline) revert NotEnded() */\n    tag_277:\n        /* \"AuctionContract.sol\":15137:15138  A */\n      dup1\n        /* \"AuctionContract.sol\":15137:15145  A.seller */\n      0x01\n      add\n      0x00\n      swap1\n      sload\n      swap1\n      0x0100\n      exp\n      swap1\n      div\n      0xffffffffffffffffffffffffffffffffffffffff\n      and\n        /* \"AuctionContract.sol\":15123:15145  msg.sender != A.seller */\n      0xffffffffffffffffffffffffffffffffffffffff\n      and\n        /* \"AuctionContract.sol\":15123:15133  msg.sender */\n      caller\n        /* \"AuctionContract.sol\":15123:15145  msg.sender != A.seller */\n      0xffffffffffffffffffffffffffffffffffffffff\n      and\n      eq\n        /* \"AuctionContract.sol\":15119:15167  if (msg.sender != A.seller) revert NoClaimable() */\n      tag_278\n      jumpi\n        /* \"AuctionContract.sol\":15154:15167  NoClaimable() */\n      mload(0x40)\n      0x44a5ddcc00000000000000000000000000000000000000000000000000000000\n      dup2\n      mstore\n      0x04\n      add\n      mload(0x40)\n      dup1\n      swap2\n      sub\n      swap1\n      revert\n        /* \"AuctionContract.sol\":15119:15167  if (msg.sender != A.seller) revert NoClaimable() */\n    tag_278:\n        /* \"AuctionContract.sol\":15182:15183  A */\n      dup1\n        /* \"AuctionContract.sol\":15182:15191  A.settled */\n      0x09\n      add\n      0x01\n      swap1\n      sload\n      swap1\n      0x0100\n      exp\n      swap1\n      div\n      0xff\n      and\n        /* \"AuctionContract.sol\":15178:15213  if (A.settled) revert NoClaimable() */\n      iszero\n      tag_279\n      jumpi\n        /* \"AuctionContract.sol\":15200:15213  NoClaimable() */\n      mload(0x40)\n      0x44a5ddcc00000000000000000000000000000000000000000000000000000000\n      dup2\n      mstore\n      0x04\n      add\n      mload(0x40)\n      dup1\n      swap2\n      sub\n      swap1\n      revert\n        /* \"AuctionContract.sol\":15178:15213  if (A.settled) revert NoClaimable() */\n    tag_279:\n        /* \"AuctionContract.sol\":15269:15273  true */\n      0x01\n        /* \"AuctionContract.sol\":15257:15258  A */\n      dup2\n        /* \"AuctionContract.sol\":15257:15266  A.settled */\n      0x09\n      add\n      0x01\n        /* \"AuctionContract.sol\":15257:15273  A.settled = true */\n      0x0100\n      exp\n      dup2\n      sload\n      dup2\n      0xff\n      mul\n      not\n      and\n      swap1\n      dup4\n      iszero\n      iszero\n      mul\n      or\n      swap1\n      sstore\n      pop\n        /* \"AuctionContract.sol\":15284:15336  _safeTransferNFT(address(this), A.seller, A.tokenId) */\n      tag_280\n        /* \"AuctionContract.sol\":15309:15313  this */\n      address\n        /* \"AuctionContract.sol\":15316:15317  A */\n      dup3\n        /* \"AuctionContract.sol\":15316:15324  A.seller */\n      0x01\n      add\n      0x00\n      swap1\n      sload\n      swap1\n      0x0100\n      exp\n      swap1\n      div\n      0xffffffffffffffffffffffffffffffffffffffff\n      and\n        /* \"AuctionContract.sol\":15326:15327  A */\n      dup4\n        /* \"AuctionContract.sol\":15326:15335  A.tokenId */\n      0x00\n      add\n      sload\n        /* \"AuctionContract.sol\":15284:15300  _safeTransferNFT */\n      tag_136\n        /* \"AuctionContract.sol\":15284:15336  _safeTransferNFT(address(this), A.seller, A.tokenId) */\n      jump\t// in\n    tag_280:\n        /* \"AuctionContract.sol\":15389:15403  uint256 amount */\n      0x00\n        /* \"AuctionContract.sol\":15406:15407  A */\n      dup2\n        /* \"AuctionContract.sol\":15406:15421  A.depositAmount */\n      0x0c\n      add\n        /* \"AuctionContract.sol\":15406:15438  A.depositAmount[A.highestBidder] */\n      0x00\n        /* \"AuctionContract.sol\":15422:15423  A */\n      dup4\n        /* \"AuctionContract.sol\":15422:15437  A.highestBidder */\n      0x05\n      add\n      0x08\n      swap1\n      sload\n      swap1\n      0x0100\n      exp\n      swap1\n      div\n      0xffffffffffffffffffffffffffffffffffffffff\n      and\n        /* \"AuctionContract.sol\":15406:15438  A.depositAmount[A.highestBidder] */\n      0xffffffffffffffffffffffffffffffffffffffff\n      and\n      0xffffffffffffffffffffffffffffffffffffffff\n      and\n      dup2\n      mstore\n      0x20\n      add\n      swap1\n      dup2\n      mstore\n      0x20\n      add\n      0x00\n      keccak256\n      sload\n        /* \"AuctionContract.sol\":15389:15438  uint256 amount = A.depositAmount[A.highestBidder] */\n      swap1\n      pop\n        /* \"AuctionContract.sol\":15484:15485  0 */\n      0x00\n        /* \"AuctionContract.sol\":15449:15450  A */\n      dup3\n        /* \"AuctionContract.sol\":15449:15464  A.depositAmount */\n      0x0c\n      add\n        /* \"AuctionContract.sol\":15449:15481  A.depositAmount[A.highestBidder] */\n      0x00\n        /* \"AuctionContract.sol\":15465:15466  A */\n      dup5\n        /* \"AuctionContract.sol\":15465:15480  A.highestBidder */\n      0x05\n      add\n      0x08\n      swap1\n      sload\n      swap1\n      0x0100\n      exp\n      swap1\n      div\n      0xffffffffffffffffffffffffffffffffffffffff\n      and\n        /* \"AuctionContract.sol\":15449:15481  A.depositAmount[A.highestBidder] */\n      0xffffffffffffffffffffffffffffffffffffffff\n      and\n      0xffffffffffffffffffffffffffffffffffffffff\n      and\n      dup2\n      mstore\n      0x20\n      add\n      swap1\n      dup2\n      mstore\n      0x20\n      add\n      0x00\n      keccak256\n        /* \"AuctionContract.sol\":15449:15485  A.depositAmount[A.highestBidder] = 0 */\n      dup2\n      swap1\n      sstore\n      pop\n        /* \"AuctionContract.sol\":15497:15504  bool ok */\n      0x00\n        /* \"AuctionContract.sol\":15510:15520  msg.sender */\n      caller\n        /* \"AuctionContract.sol\":15510:15525  msg.sender.call */\n      0xffffffffffffffffffffffffffffffffffffffff\n      and\n        /* \"AuctionContract.sol\":15533:15539  amount */\n      dup3\n        /* \"AuctionContract.sol\":15510:15544  msg.sender.call{value: amount}(\"\") */\n      mload(0x40)\n      tag_281\n      swap1\n      tag_179\n      jump\t// in\n    tag_281:\n      0x00\n      mload(0x40)\n      dup1\n      dup4\n      sub\n      dup2\n      dup6\n      dup8\n      gas\n      call\n      swap3\n      pop\n      pop\n      pop\n      returndatasize\n      dup1\n      0x00\n      dup2\n      eq\n      tag_284\n      jumpi\n      mload(0x40)\n      swap2\n      pop\n      and(add(returndatasize, 0x3f), not(0x1f))\n      dup3\n      add\n      0x40\n      mstore\n      returndatasize\n      dup3\n      mstore\n      returndatasize\n      0x00\n      0x20\n      dup5\n      add\n      returndatacopy\n      jump(tag_283)\n    tag_284:\n      0x60\n      swap2\n      pop\n    tag_283:\n      pop\n        /* \"AuctionContract.sol\":15496:15544  (bool ok, ) = msg.sender.call{value: amount}(\"\") */\n      pop\n      swap1\n      pop\n        /* \"AuctionContract.sol\":15559:15561  ok */\n      dup1\n        /* \"AuctionContract.sol\":15555:15586  if(!ok) revert WithdrawFailed() */\n      tag_285\n      jumpi\n        /* \"AuctionContract.sol\":15570:15586  WithdrawFailed() */\n      mload(0x40)\n      0x750b219c00000000000000000000000000000000000000000000000000000000\n      dup2\n      mstore\n      0x04\n      add\n      mload(0x40)\n      dup1\n      swap2\n      sub\n      swap1\n      revert\n        /* \"AuctionContract.sol\":15555:15586  if(!ok) revert WithdrawFailed() */\n    tag_285:\n        /* \"AuctionContract.sol\":15620:15629  auctionId */\n      sload(0x01)\n        /* \"AuctionContract.sol\":15604:15630  SellerReclaimed(auctionId) */\n      0x55c90d9726ff7562e2dda9743c070ab007dd986e4c0a42bcf578362c435a4d89\n      mload(0x40)\n      mload(0x40)\n      dup1\n      swap2\n      sub\n      swap1\n      log2\n        /* \"AuctionContract.sol\":14943:15638  {... */\n      pop\n      pop\n      pop\n        /* \"AuctionContract.sol\":14896:15638  function sellerReclaimNFT(uint256 id) external {... */\n      pop\n      jump\t// out\n        /* \"AuctionContract.sol\":17890:18066  function getCommitSeq(uint256 id, address bidder) external view returns (uint64) {... */\n    tag_110:\n        /* \"AuctionContract.sol\":17963:17969  uint64 */\n      0x00\n        /* \"AuctionContract.sol\":17982:17999  Auction storage A */\n      0x00\n        /* \"AuctionContract.sol\":18002:18021  _requireAuction(id) */\n      tag_287\n        /* \"AuctionContract.sol\":18018:18020  id */\n      dup5\n        /* \"AuctionContract.sol\":18002:18017  _requireAuction */\n      tag_169\n        /* \"AuctionContract.sol\":18002:18021  _requireAuction(id) */\n      jump\t// in\n    tag_287:\n        /* \"AuctionContract.sol\":17982:18021  Auction storage A = _requireAuction(id) */\n      swap1\n      pop\n        /* \"AuctionContract.sol\":18039:18040  A */\n      dup1\n        /* \"AuctionContract.sol\":18039:18050  A.commitSeq */\n      0x0b\n      add\n        /* \"AuctionContract.sol\":18039:18058  A.commitSeq[bidder] */\n      0x00\n        /* \"AuctionContract.sol\":18051:18057  bidder */\n      dup5\n        /* \"AuctionContract.sol\":18039:18058  A.commitSeq[bidder] */\n      0xffffffffffffffffffffffffffffffffffffffff\n      and\n      0xffffffffffffffffffffffffffffffffffffffff\n      and\n      dup2\n      mstore\n      0x20\n      add\n      swap1\n      dup2\n      mstore\n      0x20\n      add\n      0x00\n      keccak256\n      0x00\n      swap1\n      sload\n      swap1\n      0x0100\n      exp\n      swap1\n      div\n      0xffffffffffffffff\n      and\n        /* \"AuctionContract.sol\":18032:18058  return A.commitSeq[bidder] */\n      swap2\n      pop\n      pop\n        /* \"AuctionContract.sol\":17890:18066  function getCommitSeq(uint256 id, address bidder) external view returns (uint64) {... */\n      swap3\n      swap2\n      pop\n      pop\n      jump\t// out\n        /* \"AuctionContract.sol\":19350:19615  function getTimes(uint256 id) external view returns (uint64 startStamp, uint64 commitEnd, uint64 revealEnd, uint64 settleDeadline) {... */\n    tag_116:\n        /* \"AuctionContract.sol\":19403:19420  uint64 startStamp */\n      0x00\n        /* \"AuctionContract.sol\":19422:19438  uint64 commitEnd */\n      0x00\n        /* \"AuctionContract.sol\":19440:19456  uint64 revealEnd */\n      0x00\n        /* \"AuctionContract.sol\":19458:19479  uint64 settleDeadline */\n      0x00\n        /* \"AuctionContract.sol\":19492:19509  Auction storage A */\n      0x00\n        /* \"AuctionContract.sol\":19512:19531  _requireAuction(id) */\n      tag_289\n        /* \"AuctionContract.sol\":19528:19530  id */\n      dup7\n        /* \"AuctionContract.sol\":19512:19527  _requireAuction */\n      tag_169\n        /* \"AuctionContract.sol\":19512:19531  _requireAuction(id) */\n      jump\t// in\n    tag_289:\n        /* \"AuctionContract.sol\":19492:19531  Auction storage A = _requireAuction(id) */\n      swap1\n      pop\n        /* \"AuctionContract.sol\":19550:19551  A */\n      dup1\n        /* \"AuctionContract.sol\":19550:19562  A.startStamp */\n      0x04\n      add\n      0x00\n      swap1\n      sload\n      swap1\n      0x0100\n      exp\n      swap1\n      div\n      0xffffffffffffffff\n      and\n        /* \"AuctionContract.sol\":19564:19565  A */\n      dup2\n        /* \"AuctionContract.sol\":19564:19575  A.commitEnd */\n      0x04\n      add\n      0x08\n      swap1\n      sload\n      swap1\n      0x0100\n      exp\n      swap1\n      div\n      0xffffffffffffffff\n      and\n        /* \"AuctionContract.sol\":19577:19578  A */\n      dup3\n        /* \"AuctionContract.sol\":19577:19588  A.revealEnd */\n      0x04\n      add\n      0x10\n      swap1\n      sload\n      swap1\n      0x0100\n      exp\n      swap1\n      div\n      0xffffffffffffffff\n      and\n        /* \"AuctionContract.sol\":19590:19591  A */\n      dup4\n        /* \"AuctionContract.sol\":19590:19606  A.settleDeadline */\n      0x05\n      add\n      0x00\n      swap1\n      sload\n      swap1\n      0x0100\n      exp\n      swap1\n      div\n      0xffffffffffffffff\n      and\n        /* \"AuctionContract.sol\":19542:19607  return (A.startStamp, A.commitEnd, A.revealEnd, A.settleDeadline) */\n      swap5\n      pop\n      swap5\n      pop\n      swap5\n      pop\n      swap5\n      pop\n      pop\n        /* \"AuctionContract.sol\":19350:19615  function getTimes(uint256 id) external view returns (uint64 startStamp, uint64 commitEnd, uint64 revealEnd, uint64 settleDeadline) {... */\n      swap2\n      swap4\n      pop\n      swap2\n      swap4\n      jump\t// out\n        /* \"AuctionContract.sol\":18074:18259  function getDepositAmount(uint256 id, address bidder) external view returns (uint256) {... */\n    tag_122:\n        /* \"AuctionContract.sol\":18151:18158  uint256 */\n      0x00\n        /* \"AuctionContract.sol\":18171:18188  Auction storage A */\n      0x00\n        /* \"AuctionContract.sol\":18191:18210  _requireAuction(id) */\n      tag_291\n        /* \"AuctionContract.sol\":18207:18209  id */\n      dup5\n        /* \"AuctionContract.sol\":18191:18206  _requireAuction */\n      tag_169\n        /* \"AuctionContract.sol\":18191:18210  _requireAuction(id) */\n      jump\t// in\n    tag_291:\n        /* \"AuctionContract.sol\":18171:18210  Auction storage A = _requireAuction(id) */\n      swap1\n      pop\n        /* \"AuctionContract.sol\":18228:18229  A */\n      dup1\n        /* \"AuctionContract.sol\":18228:18243  A.depositAmount */\n      0x0c\n      add\n        /* \"AuctionContract.sol\":18228:18251  A.depositAmount[bidder] */\n      0x00\n        /* \"AuctionContract.sol\":18244:18250  bidder */\n      dup5\n        /* \"AuctionContract.sol\":18228:18251  A.depositAmount[bidder] */\n      0xffffffffffffffffffffffffffffffffffffffff\n      and\n      0xffffffffffffffffffffffffffffffffffffffff\n      and\n      dup2\n      mstore\n      0x20\n      add\n      swap1\n      dup2\n      mstore\n      0x20\n      add\n      0x00\n      keccak256\n      sload\n        /* \"AuctionContract.sol\":18221:18251  return A.depositAmount[bidder] */\n      swap2\n      pop\n      pop\n        /* \"AuctionContract.sol\":18074:18259  function getDepositAmount(uint256 id, address bidder) external view returns (uint256) {... */\n      swap3\n      swap2\n      pop\n      pop\n      jump\t// out\n        /* \"AuctionContract.sol\":12939:13774  function payAndClaim() external payable nonReentrant {... */\n    tag_125:\n        /* \"AuctionContract.sol\":1876:1877  2 */\n      0x02\n        /* \"AuctionContract.sol\":1972:1979  _status */\n      sload(0x00)\n        /* \"AuctionContract.sol\":1972:1991  _status != _ENTERED */\n      sub\n        /* \"AuctionContract.sol\":1964:2006  require(_status != _ENTERED, \"REENTRANCY\") */\n      tag_293\n      jumpi\n      mload(0x40)\n      0x08c379a000000000000000000000000000000000000000000000000000000000\n      dup2\n      mstore\n      0x04\n      add\n      tag_294\n      swap1\n      tag_173\n      jump\t// in\n    tag_294:\n      mload(0x40)\n      dup1\n      swap2\n      sub\n      swap1\n      revert\n    tag_293:\n        /* \"AuctionContract.sol\":1876:1877  2 */\n      0x02\n        /* \"AuctionContract.sol\":2017:2024  _status */\n      0x00\n        /* \"AuctionContract.sol\":2017:2035  _status = _ENTERED */\n      dup2\n      swap1\n      sstore\n      pop\n        /* \"AuctionContract.sol\":13003:13020  Auction storage A */\n      0x00\n        /* \"AuctionContract.sol\":13023:13046  _requireActiveAuction() */\n      tag_296\n        /* \"AuctionContract.sol\":13023:13044  _requireActiveAuction */\n      tag_129\n        /* \"AuctionContract.sol\":13023:13046  _requireActiveAuction() */\n      jump\t// in\n    tag_296:\n        /* \"AuctionContract.sol\":13003:13046  Auction storage A = _requireActiveAuction() */\n      swap1\n      pop\n        /* \"AuctionContract.sol\":13062:13063  A */\n      dup1\n        /* \"AuctionContract.sol\":13062:13073  A.finalized */\n      0x09\n      add\n      0x00\n      swap1\n      sload\n      swap1\n      0x0100\n      exp\n      swap1\n      div\n      0xff\n      and\n        /* \"AuctionContract.sol\":13057:13092  if (!A.finalized) revert NotEnded() */\n      tag_297\n      jumpi\n        /* \"AuctionContract.sol\":13082:13092  NotEnded() */\n      mload(0x40)\n      0xd3018d1800000000000000000000000000000000000000000000000000000000\n      dup2\n      mstore\n      0x04\n      add\n      mload(0x40)\n      dup1\n      swap2\n      sub\n      swap1\n      revert\n        /* \"AuctionContract.sol\":13057:13092  if (!A.finalized) revert NotEnded() */\n    tag_297:\n        /* \"AuctionContract.sol\":13126:13136  msg.sender */\n      caller\n        /* \"AuctionContract.sol\":13107:13136  A.highestBidder != msg.sender */\n      0xffffffffffffffffffffffffffffffffffffffff\n      and\n        /* \"AuctionContract.sol\":13107:13108  A */\n      dup2\n        /* \"AuctionContract.sol\":13107:13122  A.highestBidder */\n      0x05\n      add\n      0x08\n      swap1\n      sload\n      swap1\n      0x0100\n      exp\n      swap1\n      div\n      0xffffffffffffffffffffffffffffffffffffffff\n      and\n        /* \"AuctionContract.sol\":13107:13136  A.highestBidder != msg.sender */\n      0xffffffffffffffffffffffffffffffffffffffff\n      and\n      eq\n        /* \"AuctionContract.sol\":13103:13156  if (A.highestBidder != msg.sender) revert NotWinner() */\n      tag_298\n      jumpi\n        /* \"AuctionContract.sol\":13145:13156  NotWinner() */\n      mload(0x40)\n      0x618c724200000000000000000000000000000000000000000000000000000000\n      dup2\n      mstore\n      0x04\n      add\n      mload(0x40)\n      dup1\n      swap2\n      sub\n      swap1\n      revert\n        /* \"AuctionContract.sol\":13103:13156  if (A.highestBidder != msg.sender) revert NotWinner() */\n    tag_298:\n        /* \"AuctionContract.sol\":13171:13172  A */\n      dup1\n        /* \"AuctionContract.sol\":13171:13180  A.settled */\n      0x09\n      add\n      0x01\n      swap1\n      sload\n      swap1\n      0x0100\n      exp\n      swap1\n      div\n      0xff\n      and\n        /* \"AuctionContract.sol\":13167:13202  if (A.settled) revert NoClaimable() */\n      iszero\n      tag_299\n      jumpi\n        /* \"AuctionContract.sol\":13189:13202  NoClaimable() */\n      mload(0x40)\n      0x44a5ddcc00000000000000000000000000000000000000000000000000000000\n      dup2\n      mstore\n      0x04\n      add\n      mload(0x40)\n      dup1\n      swap2\n      sub\n      swap1\n      revert\n        /* \"AuctionContract.sol\":13167:13202  if (A.settled) revert NoClaimable() */\n    tag_299:\n        /* \"AuctionContract.sol\":13235:13236  A */\n      dup1\n        /* \"AuctionContract.sol\":13235:13251  A.settleDeadline */\n      0x05\n      add\n      0x00\n      swap1\n      sload\n      swap1\n      0x0100\n      exp\n      swap1\n      div\n      0xffffffffffffffff\n      and\n        /* \"AuctionContract.sol\":13217:13251  block.timestamp > A.settleDeadline */\n      0xffffffffffffffff\n      and\n        /* \"AuctionContract.sol\":13217:13232  block.timestamp */\n      timestamp\n        /* \"AuctionContract.sol\":13217:13251  block.timestamp > A.settleDeadline */\n      gt\n        /* \"AuctionContract.sol\":13217:13275  block.timestamp > A.settleDeadline && A.clearingPrice != 0 */\n      dup1\n      iszero\n      tag_300\n      jumpi\n      pop\n        /* \"AuctionContract.sol\":13274:13275  0 */\n      0x00\n        /* \"AuctionContract.sol\":13255:13256  A */\n      dup2\n        /* \"AuctionContract.sol\":13255:13270  A.clearingPrice */\n      0x08\n      add\n      sload\n        /* \"AuctionContract.sol\":13255:13275  A.clearingPrice != 0 */\n      eq\n      iszero\n        /* \"AuctionContract.sol\":13217:13275  block.timestamp > A.settleDeadline && A.clearingPrice != 0 */\n    tag_300:\n        /* \"AuctionContract.sol\":13213:13299  if (block.timestamp > A.settleDeadline && A.clearingPrice != 0) revert PaymentClosed() */\n      iszero\n      tag_301\n      jumpi\n        /* \"AuctionContract.sol\":13284:13299  PaymentClosed() */\n      mload(0x40)\n      0x58459e8800000000000000000000000000000000000000000000000000000000\n      dup2\n      mstore\n      0x04\n      add\n      mload(0x40)\n      dup1\n      swap2\n      sub\n      swap1\n      revert\n        /* \"AuctionContract.sol\":13213:13299  if (block.timestamp > A.settleDeadline && A.clearingPrice != 0) revert PaymentClosed() */\n    tag_301:\n        /* \"AuctionContract.sol\":13327:13328  A */\n      dup1\n        /* \"AuctionContract.sol\":13327:13342  A.clearingPrice */\n      0x08\n      add\n      sload\n        /* \"AuctionContract.sol\":13314:13323  msg.value */\n      callvalue\n        /* \"AuctionContract.sol\":13314:13342  msg.value != A.clearingPrice */\n      eq\n        /* \"AuctionContract.sol\":13310:13365  if (msg.value != A.clearingPrice) revert WrongPayment() */\n      tag_302\n      jumpi\n        /* \"AuctionContract.sol\":13351:13365  WrongPayment() */\n      mload(0x40)\n      0x788a686f00000000000000000000000000000000000000000000000000000000\n      dup2\n      mstore\n      0x04\n      add\n      mload(0x40)\n      dup1\n      swap2\n      sub\n      swap1\n      revert\n        /* \"AuctionContract.sol\":13310:13365  if (msg.value != A.clearingPrice) revert WrongPayment() */\n    tag_302:\n        /* \"AuctionContract.sol\":13460:13461  0 */\n      0x00\n        /* \"AuctionContract.sol\":13441:13442  A */\n      dup2\n        /* \"AuctionContract.sol\":13441:13456  A.clearingPrice */\n      0x08\n      add\n      sload\n        /* \"AuctionContract.sol\":13441:13461  A.clearingPrice != 0 */\n      eq\n        /* \"AuctionContract.sol\":13437:13561  if (A.clearingPrice != 0){... */\n      tag_303\n      jumpi\n        /* \"AuctionContract.sol\":13495:13496  0 */\n      0x00\n        /* \"AuctionContract.sol\":13477:13478  A */\n      dup2\n        /* \"AuctionContract.sol\":13477:13492  A.clearingPrice */\n      0x08\n      add\n        /* \"AuctionContract.sol\":13477:13496  A.clearingPrice = 0 */\n      dup2\n      swap1\n      sstore\n      pop\n        /* \"AuctionContract.sol\":13540:13549  msg.value */\n      callvalue\n        /* \"AuctionContract.sol\":13511:13512  A */\n      dup2\n        /* \"AuctionContract.sol\":13511:13526  A.depositAmount */\n      0x0c\n      add\n        /* \"AuctionContract.sol\":13511:13536  A.depositAmount[A.seller] */\n      0x00\n        /* \"AuctionContract.sol\":13527:13528  A */\n      dup4\n        /* \"AuctionContract.sol\":13527:13535  A.seller */\n      0x01\n      add\n      0x00\n      swap1\n      sload\n      swap1\n      0x0100\n      exp\n      swap1\n      div\n      0xffffffffffffffffffffffffffffffffffffffff\n      and\n        /* \"AuctionContract.sol\":13511:13536  A.depositAmount[A.seller] */\n      0xffffffffffffffffffffffffffffffffffffffff\n      and\n      0xffffffffffffffffffffffffffffffffffffffff\n      and\n      dup2\n      mstore\n      0x20\n      add\n      swap1\n      dup2\n      mstore\n      0x20\n      add\n      0x00\n      keccak256\n      0x00\n        /* \"AuctionContract.sol\":13511:13549  A.depositAmount[A.seller] += msg.value */\n      dup3\n      dup3\n      sload\n      tag_304\n      swap2\n      swap1\n      tag_206\n      jump\t// in\n    tag_304:\n      swap3\n      pop\n      pop\n      dup2\n      swap1\n      sstore\n      pop\n        /* \"AuctionContract.sol\":13437:13561  if (A.clearingPrice != 0){... */\n    tag_303:\n        /* \"AuctionContract.sol\":13620:13624  true */\n      0x01\n        /* \"AuctionContract.sol\":13608:13609  A */\n      dup2\n        /* \"AuctionContract.sol\":13608:13617  A.settled */\n      0x09\n      add\n      0x01\n        /* \"AuctionContract.sol\":13608:13624  A.settled = true */\n      0x0100\n      exp\n      dup2\n      sload\n      dup2\n      0xff\n      mul\n      not\n      and\n      swap1\n      dup4\n      iszero\n      iszero\n      mul\n      or\n      swap1\n      sstore\n      pop\n        /* \"AuctionContract.sol\":13635:13694  _safeTransferNFT(address(this), A.highestBidder, A.tokenId) */\n      tag_305\n        /* \"AuctionContract.sol\":13660:13664  this */\n      address\n        /* \"AuctionContract.sol\":13667:13668  A */\n      dup3\n        /* \"AuctionContract.sol\":13667:13682  A.highestBidder */\n      0x05\n      add\n      0x08\n      swap1\n      sload\n      swap1\n      0x0100\n      exp\n      swap1\n      div\n      0xffffffffffffffffffffffffffffffffffffffff\n      and\n        /* \"AuctionContract.sol\":13684:13685  A */\n      dup4\n        /* \"AuctionContract.sol\":13684:13693  A.tokenId */\n      0x00\n      add\n      sload\n        /* \"AuctionContract.sol\":13635:13651  _safeTransferNFT */\n      tag_136\n        /* \"AuctionContract.sol\":13635:13694  _safeTransferNFT(address(this), A.highestBidder, A.tokenId) */\n      jump\t// in\n    tag_305:\n        /* \"AuctionContract.sol\":13744:13754  msg.sender */\n      caller\n        /* \"AuctionContract.sol\":13712:13766  WinnerPaidAndClaimed(auctionId, msg.sender, msg.value) */\n      0xffffffffffffffffffffffffffffffffffffffff\n      and\n        /* \"AuctionContract.sol\":13733:13742  auctionId */\n      sload(0x01)\n        /* \"AuctionContract.sol\":13712:13766  WinnerPaidAndClaimed(auctionId, msg.sender, msg.value) */\n      0xd33ef6ab06e6bf8672161aa6abe1ec1791c393d62213ebd89c67f611e538e575\n        /* \"AuctionContract.sol\":13756:13765  msg.value */\n      callvalue\n        /* \"AuctionContract.sol\":13712:13766  WinnerPaidAndClaimed(auctionId, msg.sender, msg.value) */\n      mload(0x40)\n      tag_306\n      swap2\n      swap1\n      tag_30\n      jump\t// in\n    tag_306:\n      mload(0x40)\n      dup1\n      swap2\n      sub\n      swap1\n      log3\n        /* \"AuctionContract.sol\":12992:13774  {... */\n      pop\n        /* \"AuctionContract.sol\":1832:1833  1 */\n      0x01\n        /* \"AuctionContract.sol\":2058:2065  _status */\n      0x00\n        /* \"AuctionContract.sol\":2058:2080  _status = _NOT_ENTERED */\n      dup2\n      swap1\n      sstore\n      pop\n        /* \"AuctionContract.sol\":12939:13774  function payAndClaim() external payable nonReentrant {... */\n      jump\t// out\n        /* \"AuctionContract.sol\":16879:17060  function _requireActiveAuction() internal view returns (Auction storage A) {... */\n    tag_129:\n        /* \"AuctionContract.sol\":16935:16952  Auction storage A */\n      0x00\n        /* \"AuctionContract.sol\":16969:16978  _auctions */\n      0x02\n        /* \"AuctionContract.sol\":16969:16989  _auctions[auctionId] */\n      0x00\n        /* \"AuctionContract.sol\":16979:16988  auctionId */\n      sload(0x01)\n        /* \"AuctionContract.sol\":16969:16989  _auctions[auctionId] */\n      dup2\n      mstore\n      0x20\n      add\n      swap1\n      dup2\n      mstore\n      0x20\n      add\n      0x00\n      keccak256\n        /* \"AuctionContract.sol\":16965:16989  A = _auctions[auctionId] */\n      swap1\n      pop\n        /* \"AuctionContract.sol\":17024:17025  0 */\n      0x00\n        /* \"AuctionContract.sol\":17004:17026  A.seller == address(0) */\n      0xffffffffffffffffffffffffffffffffffffffff\n      and\n        /* \"AuctionContract.sol\":17004:17005  A */\n      dup2\n        /* \"AuctionContract.sol\":17004:17012  A.seller */\n      0x01\n      add\n      0x00\n      swap1\n      sload\n      swap1\n      0x0100\n      exp\n      swap1\n      div\n      0xffffffffffffffffffffffffffffffffffffffff\n      and\n        /* \"AuctionContract.sol\":17004:17026  A.seller == address(0) */\n      0xffffffffffffffffffffffffffffffffffffffff\n      and\n      sub\n        /* \"AuctionContract.sol\":17000:17052  if (A.seller == address(0)) revert NoActiveAuction() */\n      tag_308\n      jumpi\n        /* \"AuctionContract.sol\":17035:17052  NoActiveAuction() */\n      mload(0x40)\n      0x568ca25700000000000000000000000000000000000000000000000000000000\n      dup2\n      mstore\n      0x04\n      add\n      mload(0x40)\n      dup1\n      swap2\n      sub\n      swap1\n      revert\n        /* \"AuctionContract.sol\":17000:17052  if (A.seller == address(0)) revert NoActiveAuction() */\n    tag_308:\n        /* \"AuctionContract.sol\":16879:17060  function _requireActiveAuction() internal view returns (Auction storage A) {... */\n      swap1\n      jump\t// out\n        /* \"AuctionContract.sol\":17169:17637  function _safeTransferNFT(address from, address to, uint256 tokenId) internal {... */\n    tag_136:\n        /* \"AuctionContract.sol\":17295:17299  from */\n      dup3\n        /* \"AuctionContract.sol\":17266:17299  classNFT.ownerOf(tokenId) == from */\n      0xffffffffffffffffffffffffffffffffffffffff\n      and\n        /* \"AuctionContract.sol\":17266:17274  classNFT */\n      immutable(\"0x4e5869b372f44a1c9aa0923bc94152ac1c74ce415b48c7d3f09c31f435665329\")\n        /* \"AuctionContract.sol\":17266:17282  classNFT.ownerOf */\n      0xffffffffffffffffffffffffffffffffffffffff\n      and\n      0x6352211e\n        /* \"AuctionContract.sol\":17283:17290  tokenId */\n      dup4\n        /* \"AuctionContract.sol\":17266:17291  classNFT.ownerOf(tokenId) */\n      mload(0x40)\n      dup3\n      0xffffffff\n      and\n      0xe0\n      shl\n      dup2\n      mstore\n      0x04\n      add\n      tag_310\n      swap2\n      swap1\n      tag_30\n      jump\t// in\n    tag_310:\n      0x20\n      mload(0x40)\n      dup1\n      dup4\n      sub\n      dup2\n      dup7\n      gas\n      staticcall\n      iszero\n      dup1\n      iszero\n      tag_312\n      jumpi\n      returndatacopy(0x00, 0x00, returndatasize)\n      revert(0x00, returndatasize)\n    tag_312:\n      pop\n      pop\n      pop\n      pop\n      mload(0x40)\n      returndatasize\n      not(0x1f)\n      0x1f\n      dup3\n      add\n      and\n      dup3\n      add\n      dup1\n      0x40\n      mstore\n      pop\n      dup2\n      add\n      swap1\n      tag_313\n      swap2\n      swap1\n      tag_233\n      jump\t// in\n    tag_313:\n        /* \"AuctionContract.sol\":17266:17299  classNFT.ownerOf(tokenId) == from */\n      0xffffffffffffffffffffffffffffffffffffffff\n      and\n      eq\n        /* \"AuctionContract.sol\":17258:17318  require(classNFT.ownerOf(tokenId) == from, \"NFT: not owner\") */\n      tag_314\n      jumpi\n      mload(0x40)\n      0x08c379a000000000000000000000000000000000000000000000000000000000\n      dup2\n      mstore\n      0x04\n      add\n      tag_315\n      swap1\n      tag_316\n      jump\t// in\n    tag_315:\n      mload(0x40)\n      dup1\n      swap2\n      sub\n      swap1\n      revert\n    tag_314:\n        /* \"AuctionContract.sol\":17347:17351  this */\n      address\n        /* \"AuctionContract.sol\":17333:17352  to == address(this) */\n      0xffffffffffffffffffffffffffffffffffffffff\n      and\n        /* \"AuctionContract.sol\":17333:17335  to */\n      dup3\n        /* \"AuctionContract.sol\":17333:17352  to == address(this) */\n      0xffffffffffffffffffffffffffffffffffffffff\n      and\n      sub\n        /* \"AuctionContract.sol\":17329:17573  if (to == address(this)) {... */\n      tag_317\n      jumpi\n        /* \"AuctionContract.sol\":17436:17440  this */\n      address\n        /* \"AuctionContract.sol\":17395:17441  classNFT.getApproved(tokenId) == address(this) */\n      0xffffffffffffffffffffffffffffffffffffffff\n      and\n        /* \"AuctionContract.sol\":17395:17403  classNFT */\n      immutable(\"0x4e5869b372f44a1c9aa0923bc94152ac1c74ce415b48c7d3f09c31f435665329\")\n        /* \"AuctionContract.sol\":17395:17415  classNFT.getApproved */\n      0xffffffffffffffffffffffffffffffffffffffff\n      and\n      0x081812fc\n        /* \"AuctionContract.sol\":17416:17423  tokenId */\n      dup4\n        /* \"AuctionContract.sol\":17395:17424  classNFT.getApproved(tokenId) */\n      mload(0x40)\n      dup3\n      0xffffffff\n      and\n      0xe0\n      shl\n      dup2\n      mstore\n      0x04\n      add\n      tag_318\n      swap2\n      swap1\n      tag_30\n      jump\t// in\n    tag_318:\n      0x20\n      mload(0x40)\n      dup1\n      dup4\n      sub\n      dup2\n      dup7\n      gas\n      staticcall\n      iszero\n      dup1\n      iszero\n      tag_320\n      jumpi\n      returndatacopy(0x00, 0x00, returndatasize)\n      revert(0x00, returndatasize)\n    tag_320:\n      pop\n      pop\n      pop\n      pop\n      mload(0x40)\n      returndatasize\n      not(0x1f)\n      0x1f\n      dup3\n      add\n      and\n      dup3\n      add\n      dup1\n      0x40\n      mstore\n      pop\n      dup2\n      add\n      swap1\n      tag_321\n      swap2\n      swap1\n      tag_233\n      jump\t// in\n    tag_321:\n        /* \"AuctionContract.sol\":17395:17441  classNFT.getApproved(tokenId) == address(this) */\n      0xffffffffffffffffffffffffffffffffffffffff\n      and\n      eq\n        /* \"AuctionContract.sol\":17395:17508  classNFT.getApproved(tokenId) == address(this) ||... */\n      dup1\n      tag_322\n      jumpi\n      pop\n        /* \"AuctionContract.sol\":17462:17470  classNFT */\n      immutable(\"0x4e5869b372f44a1c9aa0923bc94152ac1c74ce415b48c7d3f09c31f435665329\")\n        /* \"AuctionContract.sol\":17462:17487  classNFT.isApprovedForAll */\n      0xffffffffffffffffffffffffffffffffffffffff\n      and\n      0xe985e9c5\n        /* \"AuctionContract.sol\":17488:17492  from */\n      dup5\n        /* \"AuctionContract.sol\":17502:17506  this */\n      address\n        /* \"AuctionContract.sol\":17462:17508  classNFT.isApprovedForAll(from, address(this)) */\n      mload(0x40)\n      dup4\n      0xffffffff\n      and\n      0xe0\n      shl\n      dup2\n      mstore\n      0x04\n      add\n      tag_323\n      swap3\n      swap2\n      swap1\n      tag_324\n      jump\t// in\n    tag_323:\n      0x20\n      mload(0x40)\n      dup1\n      dup4\n      sub\n      dup2\n      dup7\n      gas\n      staticcall\n      iszero\n      dup1\n      iszero\n      tag_326\n      jumpi\n      returndatacopy(0x00, 0x00, returndatasize)\n      revert(0x00, returndatasize)\n    tag_326:\n      pop\n      pop\n      pop\n      pop\n      mload(0x40)\n      returndatasize\n      not(0x1f)\n      0x1f\n      dup3\n      add\n      and\n      dup3\n      add\n      dup1\n      0x40\n      mstore\n      pop\n      dup2\n      add\n      swap1\n      tag_327\n      swap2\n      swap1\n      tag_328\n      jump\t// in\n    tag_327:\n        /* \"AuctionContract.sol\":17395:17508  classNFT.getApproved(tokenId) == address(this) ||... */\n    tag_322:\n        /* \"AuctionContract.sol\":17369:17561  require(... */\n      tag_329\n      jumpi\n      mload(0x40)\n      0x08c379a000000000000000000000000000000000000000000000000000000000\n      dup2\n      mstore\n      0x04\n      add\n      tag_330\n      swap1\n      tag_331\n      jump\t// in\n    tag_330:\n      mload(0x40)\n      dup1\n      swap2\n      sub\n      swap1\n      revert\n    tag_329:\n        /* \"AuctionContract.sol\":17329:17573  if (to == address(this)) {... */\n    tag_317:\n        /* \"AuctionContract.sol\":17585:17593  classNFT */\n      immutable(\"0x4e5869b372f44a1c9aa0923bc94152ac1c74ce415b48c7d3f09c31f435665329\")\n        /* \"AuctionContract.sol\":17585:17610  classNFT.safeTransferFrom */\n      0xffffffffffffffffffffffffffffffffffffffff\n      and\n      0x42842e0e\n        /* \"AuctionContract.sol\":17611:17615  from */\n      dup5\n        /* \"AuctionContract.sol\":17617:17619  to */\n      dup5\n        /* \"AuctionContract.sol\":17621:17628  tokenId */\n      dup5\n        /* \"AuctionContract.sol\":17585:17629  classNFT.safeTransferFrom(from, to, tokenId) */\n      mload(0x40)\n      dup5\n      0xffffffff\n      and\n      0xe0\n      shl\n      dup2\n      mstore\n      0x04\n      add\n      tag_332\n      swap4\n      swap3\n      swap2\n      swap1\n      tag_333\n      jump\t// in\n    tag_332:\n      0x00\n      mload(0x40)\n      dup1\n      dup4\n      sub\n      dup2\n      0x00\n      dup8\n      dup1\n      extcodesize\n      iszero\n      dup1\n      iszero\n      tag_334\n      jumpi\n      revert(0x00, 0x00)\n    tag_334:\n      pop\n      gas\n      call\n      iszero\n      dup1\n      iszero\n      tag_336\n      jumpi\n      returndatacopy(0x00, 0x00, returndatasize)\n      revert(0x00, returndatasize)\n    tag_336:\n      pop\n      pop\n      pop\n      pop\n        /* \"AuctionContract.sol\":17169:17637  function _safeTransferNFT(address from, address to, uint256 tokenId) internal {... */\n      pop\n      pop\n      pop\n      jump\t// out\n        /* \"AuctionContract.sol\":16693:16871  function _requireAuction(uint256 id) internal view returns (Auction storage A) {... */\n    tag_169:\n        /* \"AuctionContract.sol\":16753:16770  Auction storage A */\n      0x00\n        /* \"AuctionContract.sol\":16787:16796  _auctions */\n      0x02\n        /* \"AuctionContract.sol\":16787:16800  _auctions[id] */\n      0x00\n        /* \"AuctionContract.sol\":16797:16799  id */\n      dup4\n        /* \"AuctionContract.sol\":16787:16800  _auctions[id] */\n      dup2\n      mstore\n      0x20\n      add\n      swap1\n      dup2\n      mstore\n      0x20\n      add\n      0x00\n      keccak256\n        /* \"AuctionContract.sol\":16783:16800  A = _auctions[id] */\n      swap1\n      pop\n        /* \"AuctionContract.sol\":16835:16836  0 */\n      0x00\n        /* \"AuctionContract.sol\":16815:16837  A.seller == address(0) */\n      0xffffffffffffffffffffffffffffffffffffffff\n      and\n        /* \"AuctionContract.sol\":16815:16816  A */\n      dup2\n        /* \"AuctionContract.sol\":16815:16823  A.seller */\n      0x01\n      add\n      0x00\n      swap1\n      sload\n      swap1\n      0x0100\n      exp\n      swap1\n      div\n      0xffffffffffffffffffffffffffffffffffffffff\n      and\n        /* \"AuctionContract.sol\":16815:16837  A.seller == address(0) */\n      0xffffffffffffffffffffffffffffffffffffffff\n      and\n      sub\n        /* \"AuctionContract.sol\":16811:16863  if (A.seller == address(0)) revert NoActiveAuction() */\n      tag_338\n      jumpi\n        /* \"AuctionContract.sol\":16846:16863  NoActiveAuction() */\n      mload(0x40)\n      0x568ca25700000000000000000000000000000000000000000000000000000000\n      dup2\n      mstore\n      0x04\n      add\n      mload(0x40)\n      dup1\n      swap2\n      sub\n      swap1\n      revert\n        /* \"AuctionContract.sol\":16811:16863  if (A.seller == address(0)) revert NoActiveAuction() */\n    tag_338:\n        /* \"AuctionContract.sol\":16693:16871  function _requireAuction(uint256 id) internal view returns (Auction storage A) {... */\n      swap2\n      swap1\n      pop\n      jump\t// out\n        /* \"#utility.yul\":7:84   */\n    tag_339:\n        /* \"#utility.yul\":44:51   */\n      0x00\n        /* \"#utility.yul\":73:78   */\n      dup2\n        /* \"#utility.yul\":62:78   */\n      swap1\n      pop\n        /* \"#utility.yul\":7:84   */\n      swap2\n      swap1\n      pop\n      jump\t// out\n        /* \"#utility.yul\":90:208   */\n    tag_340:\n        /* \"#utility.yul\":177:201   */\n      tag_413\n        /* \"#utility.yul\":195:200   */\n      dup2\n        /* \"#utility.yul\":177:201   */\n      tag_339\n      jump\t// in\n    tag_413:\n        /* \"#utility.yul\":172:175   */\n      dup3\n        /* \"#utility.yul\":165:202   */\n      mstore\n        /* \"#utility.yul\":90:208   */\n      pop\n      pop\n      jump\t// out\n        /* \"#utility.yul\":214:436   */\n    tag_30:\n        /* \"#utility.yul\":307:311   */\n      0x00\n        /* \"#utility.yul\":345:347   */\n      0x20\n        /* \"#utility.yul\":334:343   */\n      dup3\n        /* \"#utility.yul\":330:348   */\n      add\n        /* \"#utility.yul\":322:348   */\n      swap1\n      pop\n        /* \"#utility.yul\":358:429   */\n      tag_415\n        /* \"#utility.yul\":426:427   */\n      0x00\n        /* \"#utility.yul\":415:424   */\n      dup4\n        /* \"#utility.yul\":411:428   */\n      add\n        /* \"#utility.yul\":402:408   */\n      dup5\n        /* \"#utility.yul\":358:429   */\n      tag_340\n      jump\t// in\n    tag_415:\n        /* \"#utility.yul\":214:436   */\n      swap3\n      swap2\n      pop\n      pop\n      jump\t// out\n        /* \"#utility.yul\":523:640   */\n    tag_342:\n        /* \"#utility.yul\":632:633   */\n      0x00\n        /* \"#utility.yul\":629:630   */\n      0x00\n        /* \"#utility.yul\":622:634   */\n      revert\n        /* \"#utility.yul\":646:763   */\n    tag_343:\n        /* \"#utility.yul\":755:756   */\n      0x00\n        /* \"#utility.yul\":752:753   */\n      0x00\n        /* \"#utility.yul\":745:757   */\n      revert\n        /* \"#utility.yul\":769:895   */\n    tag_344:\n        /* \"#utility.yul\":806:813   */\n      0x00\n        /* \"#utility.yul\":846:888   */\n      0xffffffffffffffffffffffffffffffffffffffff\n        /* \"#utility.yul\":839:844   */\n      dup3\n        /* \"#utility.yul\":835:889   */\n      and\n        /* \"#utility.yul\":824:889   */\n      swap1\n      pop\n        /* \"#utility.yul\":769:895   */\n      swap2\n      swap1\n      pop\n      jump\t// out\n        /* \"#utility.yul\":901:997   */\n    tag_345:\n        /* \"#utility.yul\":938:945   */\n      0x00\n        /* \"#utility.yul\":967:991   */\n      tag_421\n        /* \"#utility.yul\":985:990   */\n      dup3\n        /* \"#utility.yul\":967:991   */\n      tag_344\n      jump\t// in\n    tag_421:\n        /* \"#utility.yul\":956:991   */\n      swap1\n      pop\n        /* \"#utility.yul\":901:997   */\n      swap2\n      swap1\n      pop\n      jump\t// out\n        /* \"#utility.yul\":1003:1125   */\n    tag_346:\n        /* \"#utility.yul\":1076:1100   */\n      tag_423\n        /* \"#utility.yul\":1094:1099   */\n      dup2\n        /* \"#utility.yul\":1076:1100   */\n      tag_345\n      jump\t// in\n    tag_423:\n        /* \"#utility.yul\":1069:1074   */\n      dup2\n        /* \"#utility.yul\":1066:1101   */\n      eq\n        /* \"#utility.yul\":1056:1119   */\n      tag_424\n      jumpi\n        /* \"#utility.yul\":1115:1116   */\n      0x00\n        /* \"#utility.yul\":1112:1113   */\n      0x00\n        /* \"#utility.yul\":1105:1117   */\n      revert\n        /* \"#utility.yul\":1056:1119   */\n    tag_424:\n        /* \"#utility.yul\":1003:1125   */\n      pop\n      jump\t// out\n        /* \"#utility.yul\":1131:1270   */\n    tag_347:\n        /* \"#utility.yul\":1177:1182   */\n      0x00\n        /* \"#utility.yul\":1215:1221   */\n      dup2\n        /* \"#utility.yul\":1202:1222   */\n      calldataload\n        /* \"#utility.yul\":1193:1222   */\n      swap1\n      pop\n        /* \"#utility.yul\":1231:1264   */\n      tag_426\n        /* \"#utility.yul\":1258:1263   */\n      dup2\n        /* \"#utility.yul\":1231:1264   */\n      tag_346\n      jump\t// in\n    tag_426:\n        /* \"#utility.yul\":1131:1270   */\n      swap3\n      swap2\n      pop\n      pop\n      jump\t// out\n        /* \"#utility.yul\":1276:1398   */\n    tag_348:\n        /* \"#utility.yul\":1349:1373   */\n      tag_428\n        /* \"#utility.yul\":1367:1372   */\n      dup2\n        /* \"#utility.yul\":1349:1373   */\n      tag_339\n      jump\t// in\n    tag_428:\n        /* \"#utility.yul\":1342:1347   */\n      dup2\n        /* \"#utility.yul\":1339:1374   */\n      eq\n        /* \"#utility.yul\":1329:1392   */\n      tag_429\n      jumpi\n        /* \"#utility.yul\":1388:1389   */\n      0x00\n        /* \"#utility.yul\":1385:1386   */\n      0x00\n        /* \"#utility.yul\":1378:1390   */\n      revert\n        /* \"#utility.yul\":1329:1392   */\n    tag_429:\n        /* \"#utility.yul\":1276:1398   */\n      pop\n      jump\t// out\n        /* \"#utility.yul\":1404:1543   */\n    tag_349:\n        /* \"#utility.yul\":1450:1455   */\n      0x00\n        /* \"#utility.yul\":1488:1494   */\n      dup2\n        /* \"#utility.yul\":1475:1495   */\n      calldataload\n        /* \"#utility.yul\":1466:1495   */\n      swap1\n      pop\n        /* \"#utility.yul\":1504:1537   */\n      tag_431\n        /* \"#utility.yul\":1531:1536   */\n      dup2\n        /* \"#utility.yul\":1504:1537   */\n      tag_348\n      jump\t// in\n    tag_431:\n        /* \"#utility.yul\":1404:1543   */\n      swap3\n      swap2\n      pop\n      pop\n      jump\t// out\n        /* \"#utility.yul\":1549:1666   */\n    tag_350:\n        /* \"#utility.yul\":1658:1659   */\n      0x00\n        /* \"#utility.yul\":1655:1656   */\n      0x00\n        /* \"#utility.yul\":1648:1660   */\n      revert\n        /* \"#utility.yul\":1672:1789   */\n    tag_351:\n        /* \"#utility.yul\":1781:1782   */\n      0x00\n        /* \"#utility.yul\":1778:1779   */\n      0x00\n        /* \"#utility.yul\":1771:1783   */\n      revert\n        /* \"#utility.yul\":1795:1912   */\n    tag_352:\n        /* \"#utility.yul\":1904:1905   */\n      0x00\n        /* \"#utility.yul\":1901:1902   */\n      0x00\n        /* \"#utility.yul\":1894:1906   */\n      revert\n        /* \"#utility.yul\":1931:2483   */\n    tag_353:\n        /* \"#utility.yul\":1988:1996   */\n      0x00\n        /* \"#utility.yul\":1998:2004   */\n      0x00\n        /* \"#utility.yul\":2048:2051   */\n      dup4\n        /* \"#utility.yul\":2041:2045   */\n      0x1f\n        /* \"#utility.yul\":2033:2039   */\n      dup5\n        /* \"#utility.yul\":2029:2046   */\n      add\n        /* \"#utility.yul\":2025:2052   */\n      slt\n        /* \"#utility.yul\":2015:2137   */\n      tag_436\n      jumpi\n        /* \"#utility.yul\":2056:2135   */\n      tag_437\n      tag_350\n      jump\t// in\n    tag_437:\n        /* \"#utility.yul\":2015:2137   */\n    tag_436:\n        /* \"#utility.yul\":2169:2175   */\n      dup3\n        /* \"#utility.yul\":2156:2176   */\n      calldataload\n        /* \"#utility.yul\":2146:2176   */\n      swap1\n      pop\n        /* \"#utility.yul\":2199:2217   */\n      0xffffffffffffffff\n        /* \"#utility.yul\":2191:2197   */\n      dup2\n        /* \"#utility.yul\":2188:2218   */\n      gt\n        /* \"#utility.yul\":2185:2302   */\n      iszero\n      tag_438\n      jumpi\n        /* \"#utility.yul\":2221:2300   */\n      tag_439\n      tag_351\n      jump\t// in\n    tag_439:\n        /* \"#utility.yul\":2185:2302   */\n    tag_438:\n        /* \"#utility.yul\":2335:2339   */\n      0x20\n        /* \"#utility.yul\":2327:2333   */\n      dup4\n        /* \"#utility.yul\":2323:2340   */\n      add\n        /* \"#utility.yul\":2311:2340   */\n      swap2\n      pop\n        /* \"#utility.yul\":2389:2392   */\n      dup4\n        /* \"#utility.yul\":2381:2385   */\n      0x01\n        /* \"#utility.yul\":2373:2379   */\n      dup3\n        /* \"#utility.yul\":2369:2386   */\n      mul\n        /* \"#utility.yul\":2359:2367   */\n      dup4\n        /* \"#utility.yul\":2355:2387   */\n      add\n        /* \"#utility.yul\":2352:2393   */\n      gt\n        /* \"#utility.yul\":2349:2477   */\n      iszero\n      tag_440\n      jumpi\n        /* \"#utility.yul\":2396:2475   */\n      tag_441\n      tag_352\n      jump\t// in\n    tag_441:\n        /* \"#utility.yul\":2349:2477   */\n    tag_440:\n        /* \"#utility.yul\":1931:2483   */\n      swap3\n      pop\n      swap3\n      swap1\n      pop\n      jump\t// out\n        /* \"#utility.yul\":2489:3452   */\n    tag_38:\n        /* \"#utility.yul\":2586:2592   */\n      0x00\n        /* \"#utility.yul\":2594:2600   */\n      0x00\n        /* \"#utility.yul\":2602:2608   */\n      0x00\n        /* \"#utility.yul\":2610:2616   */\n      0x00\n        /* \"#utility.yul\":2618:2624   */\n      0x00\n        /* \"#utility.yul\":2667:2670   */\n      0x80\n        /* \"#utility.yul\":2655:2664   */\n      dup7\n        /* \"#utility.yul\":2646:2653   */\n      dup9\n        /* \"#utility.yul\":2642:2665   */\n      sub\n        /* \"#utility.yul\":2638:2671   */\n      slt\n        /* \"#utility.yul\":2635:2755   */\n      iszero\n      tag_443\n      jumpi\n        /* \"#utility.yul\":2674:2753   */\n      tag_444\n      tag_342\n      jump\t// in\n    tag_444:\n        /* \"#utility.yul\":2635:2755   */\n    tag_443:\n        /* \"#utility.yul\":2794:2795   */\n      0x00\n        /* \"#utility.yul\":2819:2872   */\n      tag_445\n        /* \"#utility.yul\":2864:2871   */\n      dup9\n        /* \"#utility.yul\":2855:2861   */\n      dup3\n        /* \"#utility.yul\":2844:2853   */\n      dup10\n        /* \"#utility.yul\":2840:2862   */\n      add\n        /* \"#utility.yul\":2819:2872   */\n      tag_347\n      jump\t// in\n    tag_445:\n        /* \"#utility.yul\":2809:2872   */\n      swap6\n      pop\n        /* \"#utility.yul\":2765:2882   */\n      pop\n        /* \"#utility.yul\":2921:2923   */\n      0x20\n        /* \"#utility.yul\":2947:3000   */\n      tag_446\n        /* \"#utility.yul\":2992:2999   */\n      dup9\n        /* \"#utility.yul\":2983:2989   */\n      dup3\n        /* \"#utility.yul\":2972:2981   */\n      dup10\n        /* \"#utility.yul\":2968:2990   */\n      add\n        /* \"#utility.yul\":2947:3000   */\n      tag_347\n      jump\t// in\n    tag_446:\n        /* \"#utility.yul\":2937:3000   */\n      swap5\n      pop\n        /* \"#utility.yul\":2892:3010   */\n      pop\n        /* \"#utility.yul\":3049:3051   */\n      0x40\n        /* \"#utility.yul\":3075:3128   */\n      tag_447\n        /* \"#utility.yul\":3120:3127   */\n      dup9\n        /* \"#utility.yul\":3111:3117   */\n      dup3\n        /* \"#utility.yul\":3100:3109   */\n      dup10\n        /* \"#utility.yul\":3096:3118   */\n      add\n        /* \"#utility.yul\":3075:3128   */\n      tag_349\n      jump\t// in\n    tag_447:\n        /* \"#utility.yul\":3065:3128   */\n      swap4\n      pop\n        /* \"#utility.yul\":3020:3138   */\n      pop\n        /* \"#utility.yul\":3205:3207   */\n      0x60\n        /* \"#utility.yul\":3194:3203   */\n      dup7\n        /* \"#utility.yul\":3190:3208   */\n      add\n        /* \"#utility.yul\":3177:3209   */\n      calldataload\n        /* \"#utility.yul\":3236:3254   */\n      0xffffffffffffffff\n        /* \"#utility.yul\":3228:3234   */\n      dup2\n        /* \"#utility.yul\":3225:3255   */\n      gt\n        /* \"#utility.yul\":3222:3339   */\n      iszero\n      tag_448\n      jumpi\n        /* \"#utility.yul\":3258:3337   */\n      tag_449\n      tag_343\n      jump\t// in\n    tag_449:\n        /* \"#utility.yul\":3222:3339   */\n    tag_448:\n        /* \"#utility.yul\":3371:3435   */\n      tag_450\n        /* \"#utility.yul\":3427:3434   */\n      dup9\n        /* \"#utility.yul\":3418:3424   */\n      dup3\n        /* \"#utility.yul\":3407:3416   */\n      dup10\n        /* \"#utility.yul\":3403:3425   */\n      add\n        /* \"#utility.yul\":3371:3435   */\n      tag_353\n      jump\t// in\n    tag_450:\n        /* \"#utility.yul\":3353:3435   */\n      swap3\n      pop\n      swap3\n      pop\n        /* \"#utility.yul\":3148:3445   */\n      pop\n        /* \"#utility.yul\":2489:3452   */\n      swap3\n      swap6\n      pop\n      swap3\n      swap6\n      swap1\n      swap4\n      pop\n      jump\t// out\n        /* \"#utility.yul\":3458:3607   */\n    tag_354:\n        /* \"#utility.yul\":3494:3501   */\n      0x00\n        /* \"#utility.yul\":3534:3600   */\n      0xffffffff00000000000000000000000000000000000000000000000000000000\n        /* \"#utility.yul\":3527:3532   */\n      dup3\n        /* \"#utility.yul\":3523:3601   */\n      and\n        /* \"#utility.yul\":3512:3601   */\n      swap1\n      pop\n        /* \"#utility.yul\":3458:3607   */\n      swap2\n      swap1\n      pop\n      jump\t// out\n        /* \"#utility.yul\":3613:3728   */\n    tag_355:\n        /* \"#utility.yul\":3698:3721   */\n      tag_453\n        /* \"#utility.yul\":3715:3720   */\n      dup2\n        /* \"#utility.yul\":3698:3721   */\n      tag_354\n      jump\t// in\n    tag_453:\n        /* \"#utility.yul\":3693:3696   */\n      dup3\n        /* \"#utility.yul\":3686:3722   */\n      mstore\n        /* \"#utility.yul\":3613:3728   */\n      pop\n      pop\n      jump\t// out\n        /* \"#utility.yul\":3734:3952   */\n    tag_41:\n        /* \"#utility.yul\":3825:3829   */\n      0x00\n        /* \"#utility.yul\":3863:3865   */\n      0x20\n        /* \"#utility.yul\":3852:3861   */\n      dup3\n        /* \"#utility.yul\":3848:3866   */\n      add\n        /* \"#utility.yul\":3840:3866   */\n      swap1\n      pop\n        /* \"#utility.yul\":3876:3945   */\n      tag_455\n        /* \"#utility.yul\":3942:3943   */\n      0x00\n        /* \"#utility.yul\":3931:3940   */\n      dup4\n        /* \"#utility.yul\":3927:3944   */\n      add\n        /* \"#utility.yul\":3918:3924   */\n      dup5\n        /* \"#utility.yul\":3876:3945   */\n      tag_355\n      jump\t// in\n    tag_455:\n        /* \"#utility.yul\":3734:3952   */\n      swap3\n      swap2\n      pop\n      pop\n      jump\t// out\n        /* \"#utility.yul\":3958:4018   */\n    tag_356:\n        /* \"#utility.yul\":3986:3989   */\n      0x00\n        /* \"#utility.yul\":4007:4012   */\n      dup2\n        /* \"#utility.yul\":4000:4012   */\n      swap1\n      pop\n        /* \"#utility.yul\":3958:4018   */\n      swap2\n      swap1\n      pop\n      jump\t// out\n        /* \"#utility.yul\":4024:4166   */\n    tag_357:\n        /* \"#utility.yul\":4074:4083   */\n      0x00\n        /* \"#utility.yul\":4107:4160   */\n      tag_458\n        /* \"#utility.yul\":4125:4159   */\n      tag_459\n        /* \"#utility.yul\":4134:4158   */\n      tag_460\n        /* \"#utility.yul\":4152:4157   */\n      dup5\n        /* \"#utility.yul\":4134:4158   */\n      tag_344\n      jump\t// in\n    tag_460:\n        /* \"#utility.yul\":4125:4159   */\n      tag_356\n      jump\t// in\n    tag_459:\n        /* \"#utility.yul\":4107:4160   */\n      tag_344\n      jump\t// in\n    tag_458:\n        /* \"#utility.yul\":4094:4160   */\n      swap1\n      pop\n        /* \"#utility.yul\":4024:4166   */\n      swap2\n      swap1\n      pop\n      jump\t// out\n        /* \"#utility.yul\":4172:4298   */\n    tag_358:\n        /* \"#utility.yul\":4222:4231   */\n      0x00\n        /* \"#utility.yul\":4255:4292   */\n      tag_462\n        /* \"#utility.yul\":4286:4291   */\n      dup3\n        /* \"#utility.yul\":4255:4292   */\n      tag_357\n      jump\t// in\n    tag_462:\n        /* \"#utility.yul\":4242:4292   */\n      swap1\n      pop\n        /* \"#utility.yul\":4172:4298   */\n      swap2\n      swap1\n      pop\n      jump\t// out\n        /* \"#utility.yul\":4304:4444   */\n    tag_359:\n        /* \"#utility.yul\":4368:4377   */\n      0x00\n        /* \"#utility.yul\":4401:4438   */\n      tag_464\n        /* \"#utility.yul\":4432:4437   */\n      dup3\n        /* \"#utility.yul\":4401:4438   */\n      tag_358\n      jump\t// in\n    tag_464:\n        /* \"#utility.yul\":4388:4438   */\n      swap1\n      pop\n        /* \"#utility.yul\":4304:4444   */\n      swap2\n      swap1\n      pop\n      jump\t// out\n        /* \"#utility.yul\":4450:4609   */\n    tag_360:\n        /* \"#utility.yul\":4551:4602   */\n      tag_466\n        /* \"#utility.yul\":4596:4601   */\n      dup2\n        /* \"#utility.yul\":4551:4602   */\n      tag_359\n      jump\t// in\n    tag_466:\n        /* \"#utility.yul\":4546:4549   */\n      dup3\n        /* \"#utility.yul\":4539:4603   */\n      mstore\n        /* \"#utility.yul\":4450:4609   */\n      pop\n      pop\n      jump\t// out\n        /* \"#utility.yul\":4615:4865   */\n    tag_49:\n        /* \"#utility.yul\":4722:4726   */\n      0x00\n        /* \"#utility.yul\":4760:4762   */\n      0x20\n        /* \"#utility.yul\":4749:4758   */\n      dup3\n        /* \"#utility.yul\":4745:4763   */\n      add\n        /* \"#utility.yul\":4737:4763   */\n      swap1\n      pop\n        /* \"#utility.yul\":4773:4858   */\n      tag_468\n        /* \"#utility.yul\":4855:4856   */\n      0x00\n        /* \"#utility.yul\":4844:4853   */\n      dup4\n        /* \"#utility.yul\":4840:4857   */\n      add\n        /* \"#utility.yul\":4831:4837   */\n      dup5\n        /* \"#utility.yul\":4773:4858   */\n      tag_360\n      jump\t// in\n    tag_468:\n        /* \"#utility.yul\":4615:4865   */\n      swap3\n      swap2\n      pop\n      pop\n      jump\t// out\n        /* \"#utility.yul\":4871:4948   */\n    tag_361:\n        /* \"#utility.yul\":4908:4915   */\n      0x00\n        /* \"#utility.yul\":4937:4942   */\n      dup2\n        /* \"#utility.yul\":4926:4942   */\n      swap1\n      pop\n        /* \"#utility.yul\":4871:4948   */\n      swap2\n      swap1\n      pop\n      jump\t// out\n        /* \"#utility.yul\":4954:5076   */\n    tag_362:\n        /* \"#utility.yul\":5027:5051   */\n      tag_471\n        /* \"#utility.yul\":5045:5050   */\n      dup2\n        /* \"#utility.yul\":5027:5051   */\n      tag_361\n      jump\t// in\n    tag_471:\n        /* \"#utility.yul\":5020:5025   */\n      dup2\n        /* \"#utility.yul\":5017:5052   */\n      eq\n        /* \"#utility.yul\":5007:5070   */\n      tag_472\n      jumpi\n        /* \"#utility.yul\":5066:5067   */\n      0x00\n        /* \"#utility.yul\":5063:5064   */\n      0x00\n        /* \"#utility.yul\":5056:5068   */\n      revert\n        /* \"#utility.yul\":5007:5070   */\n    tag_472:\n        /* \"#utility.yul\":4954:5076   */\n      pop\n      jump\t// out\n        /* \"#utility.yul\":5082:5221   */\n    tag_363:\n        /* \"#utility.yul\":5128:5133   */\n      0x00\n        /* \"#utility.yul\":5166:5172   */\n      dup2\n        /* \"#utility.yul\":5153:5173   */\n      calldataload\n        /* \"#utility.yul\":5144:5173   */\n      swap1\n      pop\n        /* \"#utility.yul\":5182:5215   */\n      tag_474\n        /* \"#utility.yul\":5209:5214   */\n      dup2\n        /* \"#utility.yul\":5182:5215   */\n      tag_362\n      jump\t// in\n    tag_474:\n        /* \"#utility.yul\":5082:5221   */\n      swap3\n      swap2\n      pop\n      pop\n      jump\t// out\n        /* \"#utility.yul\":5227:5701   */\n    tag_53:\n        /* \"#utility.yul\":5295:5301   */\n      0x00\n        /* \"#utility.yul\":5303:5309   */\n      0x00\n        /* \"#utility.yul\":5352:5354   */\n      0x40\n        /* \"#utility.yul\":5340:5349   */\n      dup4\n        /* \"#utility.yul\":5331:5338   */\n      dup6\n        /* \"#utility.yul\":5327:5350   */\n      sub\n        /* \"#utility.yul\":5323:5355   */\n      slt\n        /* \"#utility.yul\":5320:5439   */\n      iszero\n      tag_476\n      jumpi\n        /* \"#utility.yul\":5358:5437   */\n      tag_477\n      tag_342\n      jump\t// in\n    tag_477:\n        /* \"#utility.yul\":5320:5439   */\n    tag_476:\n        /* \"#utility.yul\":5478:5479   */\n      0x00\n        /* \"#utility.yul\":5503:5556   */\n      tag_478\n        /* \"#utility.yul\":5548:5555   */\n      dup6\n        /* \"#utility.yul\":5539:5545   */\n      dup3\n        /* \"#utility.yul\":5528:5537   */\n      dup7\n        /* \"#utility.yul\":5524:5546   */\n      add\n        /* \"#utility.yul\":5503:5556   */\n      tag_349\n      jump\t// in\n    tag_478:\n        /* \"#utility.yul\":5493:5556   */\n      swap3\n      pop\n        /* \"#utility.yul\":5449:5566   */\n      pop\n        /* \"#utility.yul\":5605:5607   */\n      0x20\n        /* \"#utility.yul\":5631:5684   */\n      tag_479\n        /* \"#utility.yul\":5676:5683   */\n      dup6\n        /* \"#utility.yul\":5667:5673   */\n      dup3\n        /* \"#utility.yul\":5656:5665   */\n      dup7\n        /* \"#utility.yul\":5652:5674   */\n      add\n        /* \"#utility.yul\":5631:5684   */\n      tag_363\n      jump\t// in\n    tag_479:\n        /* \"#utility.yul\":5621:5684   */\n      swap2\n      pop\n        /* \"#utility.yul\":5576:5694   */\n      pop\n        /* \"#utility.yul\":5227:5701   */\n      swap3\n      pop\n      swap3\n      swap1\n      pop\n      jump\t// out\n        /* \"#utility.yul\":5707:6036   */\n    tag_58:\n        /* \"#utility.yul\":5766:5772   */\n      0x00\n        /* \"#utility.yul\":5815:5817   */\n      0x20\n        /* \"#utility.yul\":5803:5812   */\n      dup3\n        /* \"#utility.yul\":5794:5801   */\n      dup5\n        /* \"#utility.yul\":5790:5813   */\n      sub\n        /* \"#utility.yul\":5786:5818   */\n      slt\n        /* \"#utility.yul\":5783:5902   */\n      iszero\n      tag_481\n      jumpi\n        /* \"#utility.yul\":5821:5900   */\n      tag_482\n      tag_342\n      jump\t// in\n    tag_482:\n        /* \"#utility.yul\":5783:5902   */\n    tag_481:\n        /* \"#utility.yul\":5941:5942   */\n      0x00\n        /* \"#utility.yul\":5966:6019   */\n      tag_483\n        /* \"#utility.yul\":6011:6018   */\n      dup5\n        /* \"#utility.yul\":6002:6008   */\n      dup3\n        /* \"#utility.yul\":5991:6000   */\n      dup6\n        /* \"#utility.yul\":5987:6009   */\n      add\n        /* \"#utility.yul\":5966:6019   */\n      tag_349\n      jump\t// in\n    tag_483:\n        /* \"#utility.yul\":5956:6019   */\n      swap2\n      pop\n        /* \"#utility.yul\":5912:6029   */\n      pop\n        /* \"#utility.yul\":5707:6036   */\n      swap3\n      swap2\n      pop\n      pop\n      jump\t// out\n        /* \"#utility.yul\":6042:6160   */\n    tag_364:\n        /* \"#utility.yul\":6129:6153   */\n      tag_485\n        /* \"#utility.yul\":6147:6152   */\n      dup2\n        /* \"#utility.yul\":6129:6153   */\n      tag_345\n      jump\t// in\n    tag_485:\n        /* \"#utility.yul\":6124:6127   */\n      dup3\n        /* \"#utility.yul\":6117:6154   */\n      mstore\n        /* \"#utility.yul\":6042:6160   */\n      pop\n      pop\n      jump\t// out\n        /* \"#utility.yul\":6166:6267   */\n    tag_365:\n        /* \"#utility.yul\":6202:6209   */\n      0x00\n        /* \"#utility.yul\":6242:6260   */\n      0xffffffffffffffff\n        /* \"#utility.yul\":6235:6240   */\n      dup3\n        /* \"#utility.yul\":6231:6261   */\n      and\n        /* \"#utility.yul\":6220:6261   */\n      swap1\n      pop\n        /* \"#utility.yul\":6166:6267   */\n      swap2\n      swap1\n      pop\n      jump\t// out\n        /* \"#utility.yul\":6273:6388   */\n    tag_366:\n        /* \"#utility.yul\":6358:6381   */\n      tag_488\n        /* \"#utility.yul\":6375:6380   */\n      dup2\n        /* \"#utility.yul\":6358:6381   */\n      tag_365\n      jump\t// in\n    tag_488:\n        /* \"#utility.yul\":6353:6356   */\n      dup3\n        /* \"#utility.yul\":6346:6382   */\n      mstore\n        /* \"#utility.yul\":6273:6388   */\n      pop\n      pop\n      jump\t// out\n        /* \"#utility.yul\":6394:6832   */\n    tag_61:\n        /* \"#utility.yul\":6541:6545   */\n      0x00\n        /* \"#utility.yul\":6579:6581   */\n      0x60\n        /* \"#utility.yul\":6568:6577   */\n      dup3\n        /* \"#utility.yul\":6564:6582   */\n      add\n        /* \"#utility.yul\":6556:6582   */\n      swap1\n      pop\n        /* \"#utility.yul\":6592:6663   */\n      tag_490\n        /* \"#utility.yul\":6660:6661   */\n      0x00\n        /* \"#utility.yul\":6649:6658   */\n      dup4\n        /* \"#utility.yul\":6645:6662   */\n      add\n        /* \"#utility.yul\":6636:6642   */\n      dup7\n        /* \"#utility.yul\":6592:6663   */\n      tag_364\n      jump\t// in\n    tag_490:\n        /* \"#utility.yul\":6673:6745   */\n      tag_491\n        /* \"#utility.yul\":6741:6743   */\n      0x20\n        /* \"#utility.yul\":6730:6739   */\n      dup4\n        /* \"#utility.yul\":6726:6744   */\n      add\n        /* \"#utility.yul\":6717:6723   */\n      dup6\n        /* \"#utility.yul\":6673:6745   */\n      tag_340\n      jump\t// in\n    tag_491:\n        /* \"#utility.yul\":6755:6825   */\n      tag_492\n        /* \"#utility.yul\":6821:6823   */\n      0x40\n        /* \"#utility.yul\":6810:6819   */\n      dup4\n        /* \"#utility.yul\":6806:6824   */\n      add\n        /* \"#utility.yul\":6797:6803   */\n      dup5\n        /* \"#utility.yul\":6755:6825   */\n      tag_366\n      jump\t// in\n    tag_492:\n        /* \"#utility.yul\":6394:6832   */\n      swap5\n      swap4\n      pop\n      pop\n      pop\n      pop\n      jump\t// out\n        /* \"#utility.yul\":6838:7312   */\n    tag_72:\n        /* \"#utility.yul\":6906:6912   */\n      0x00\n        /* \"#utility.yul\":6914:6920   */\n      0x00\n        /* \"#utility.yul\":6963:6965   */\n      0x40\n        /* \"#utility.yul\":6951:6960   */\n      dup4\n        /* \"#utility.yul\":6942:6949   */\n      dup6\n        /* \"#utility.yul\":6938:6961   */\n      sub\n        /* \"#utility.yul\":6934:6966   */\n      slt\n        /* \"#utility.yul\":6931:7050   */\n      iszero\n      tag_494\n      jumpi\n        /* \"#utility.yul\":6969:7048   */\n      tag_495\n      tag_342\n      jump\t// in\n    tag_495:\n        /* \"#utility.yul\":6931:7050   */\n    tag_494:\n        /* \"#utility.yul\":7089:7090   */\n      0x00\n        /* \"#utility.yul\":7114:7167   */\n      tag_496\n        /* \"#utility.yul\":7159:7166   */\n      dup6\n        /* \"#utility.yul\":7150:7156   */\n      dup3\n        /* \"#utility.yul\":7139:7148   */\n      dup7\n        /* \"#utility.yul\":7135:7157   */\n      add\n        /* \"#utility.yul\":7114:7167   */\n      tag_349\n      jump\t// in\n    tag_496:\n        /* \"#utility.yul\":7104:7167   */\n      swap3\n      pop\n        /* \"#utility.yul\":7060:7177   */\n      pop\n        /* \"#utility.yul\":7216:7218   */\n      0x20\n        /* \"#utility.yul\":7242:7295   */\n      tag_497\n        /* \"#utility.yul\":7287:7294   */\n      dup6\n        /* \"#utility.yul\":7278:7284   */\n      dup3\n        /* \"#utility.yul\":7267:7276   */\n      dup7\n        /* \"#utility.yul\":7263:7285   */\n      add\n        /* \"#utility.yul\":7242:7295   */\n      tag_347\n      jump\t// in\n    tag_497:\n        /* \"#utility.yul\":7232:7295   */\n      swap2\n      pop\n        /* \"#utility.yul\":7187:7305   */\n      pop\n        /* \"#utility.yul\":6838:7312   */\n      swap3\n      pop\n      swap3\n      swap1\n      pop\n      jump\t// out\n        /* \"#utility.yul\":7318:7647   */\n    tag_77:\n        /* \"#utility.yul\":7377:7383   */\n      0x00\n        /* \"#utility.yul\":7426:7428   */\n      0x20\n        /* \"#utility.yul\":7414:7423   */\n      dup3\n        /* \"#utility.yul\":7405:7412   */\n      dup5\n        /* \"#utility.yul\":7401:7424   */\n      sub\n        /* \"#utility.yul\":7397:7429   */\n      slt\n        /* \"#utility.yul\":7394:7513   */\n      iszero\n      tag_499\n      jumpi\n        /* \"#utility.yul\":7432:7511   */\n      tag_500\n      tag_342\n      jump\t// in\n    tag_500:\n        /* \"#utility.yul\":7394:7513   */\n    tag_499:\n        /* \"#utility.yul\":7552:7553   */\n      0x00\n        /* \"#utility.yul\":7577:7630   */\n      tag_501\n        /* \"#utility.yul\":7622:7629   */\n      dup5\n        /* \"#utility.yul\":7613:7619   */\n      dup3\n        /* \"#utility.yul\":7602:7611   */\n      dup6\n        /* \"#utility.yul\":7598:7620   */\n      add\n        /* \"#utility.yul\":7577:7630   */\n      tag_363\n      jump\t// in\n    tag_501:\n        /* \"#utility.yul\":7567:7630   */\n      swap2\n      pop\n        /* \"#utility.yul\":7523:7640   */\n      pop\n        /* \"#utility.yul\":7318:7647   */\n      swap3\n      swap2\n      pop\n      pop\n      jump\t// out\n        /* \"#utility.yul\":7653:7773   */\n    tag_367:\n        /* \"#utility.yul\":7725:7748   */\n      tag_503\n        /* \"#utility.yul\":7742:7747   */\n      dup2\n        /* \"#utility.yul\":7725:7748   */\n      tag_365\n      jump\t// in\n    tag_503:\n        /* \"#utility.yul\":7718:7723   */\n      dup2\n        /* \"#utility.yul\":7715:7749   */\n      eq\n        /* \"#utility.yul\":7705:7767   */\n      tag_504\n      jumpi\n        /* \"#utility.yul\":7763:7764   */\n      0x00\n        /* \"#utility.yul\":7760:7761   */\n      0x00\n        /* \"#utility.yul\":7753:7765   */\n      revert\n        /* \"#utility.yul\":7705:7767   */\n    tag_504:\n        /* \"#utility.yul\":7653:7773   */\n      pop\n      jump\t// out\n        /* \"#utility.yul\":7779:7916   */\n    tag_368:\n        /* \"#utility.yul\":7824:7829   */\n      0x00\n        /* \"#utility.yul\":7862:7868   */\n      dup2\n        /* \"#utility.yul\":7849:7869   */\n      calldataload\n        /* \"#utility.yul\":7840:7869   */\n      swap1\n      pop\n        /* \"#utility.yul\":7878:7910   */\n      tag_506\n        /* \"#utility.yul\":7904:7909   */\n      dup2\n        /* \"#utility.yul\":7878:7910   */\n      tag_367\n      jump\t// in\n    tag_506:\n        /* \"#utility.yul\":7779:7916   */\n      swap3\n      swap2\n      pop\n      pop\n      jump\t// out\n        /* \"#utility.yul\":7922:8827   */\n    tag_82:\n        /* \"#utility.yul\":8014:8020   */\n      0x00\n        /* \"#utility.yul\":8022:8028   */\n      0x00\n        /* \"#utility.yul\":8030:8036   */\n      0x00\n        /* \"#utility.yul\":8038:8044   */\n      0x00\n        /* \"#utility.yul\":8046:8052   */\n      0x00\n        /* \"#utility.yul\":8095:8098   */\n      0xa0\n        /* \"#utility.yul\":8083:8092   */\n      dup7\n        /* \"#utility.yul\":8074:8081   */\n      dup9\n        /* \"#utility.yul\":8070:8093   */\n      sub\n        /* \"#utility.yul\":8066:8099   */\n      slt\n        /* \"#utility.yul\":8063:8183   */\n      iszero\n      tag_508\n      jumpi\n        /* \"#utility.yul\":8102:8181   */\n      tag_509\n      tag_342\n      jump\t// in\n    tag_509:\n        /* \"#utility.yul\":8063:8183   */\n    tag_508:\n        /* \"#utility.yul\":8222:8223   */\n      0x00\n        /* \"#utility.yul\":8247:8300   */\n      tag_510\n        /* \"#utility.yul\":8292:8299   */\n      dup9\n        /* \"#utility.yul\":8283:8289   */\n      dup3\n        /* \"#utility.yul\":8272:8281   */\n      dup10\n        /* \"#utility.yul\":8268:8290   */\n      add\n        /* \"#utility.yul\":8247:8300   */\n      tag_349\n      jump\t// in\n    tag_510:\n        /* \"#utility.yul\":8237:8300   */\n      swap6\n      pop\n        /* \"#utility.yul\":8193:8310   */\n      pop\n        /* \"#utility.yul\":8349:8351   */\n      0x20\n        /* \"#utility.yul\":8375:8428   */\n      tag_511\n        /* \"#utility.yul\":8420:8427   */\n      dup9\n        /* \"#utility.yul\":8411:8417   */\n      dup3\n        /* \"#utility.yul\":8400:8409   */\n      dup10\n        /* \"#utility.yul\":8396:8418   */\n      add\n        /* \"#utility.yul\":8375:8428   */\n      tag_349\n      jump\t// in\n    tag_511:\n        /* \"#utility.yul\":8365:8428   */\n      swap5\n      pop\n        /* \"#utility.yul\":8320:8438   */\n      pop\n        /* \"#utility.yul\":8477:8479   */\n      0x40\n        /* \"#utility.yul\":8503:8555   */\n      tag_512\n        /* \"#utility.yul\":8547:8554   */\n      dup9\n        /* \"#utility.yul\":8538:8544   */\n      dup3\n        /* \"#utility.yul\":8527:8536   */\n      dup10\n        /* \"#utility.yul\":8523:8545   */\n      add\n        /* \"#utility.yul\":8503:8555   */\n      tag_368\n      jump\t// in\n    tag_512:\n        /* \"#utility.yul\":8493:8555   */\n      swap4\n      pop\n        /* \"#utility.yul\":8448:8565   */\n      pop\n        /* \"#utility.yul\":8604:8606   */\n      0x60\n        /* \"#utility.yul\":8630:8682   */\n      tag_513\n        /* \"#utility.yul\":8674:8681   */\n      dup9\n        /* \"#utility.yul\":8665:8671   */\n      dup3\n        /* \"#utility.yul\":8654:8663   */\n      dup10\n        /* \"#utility.yul\":8650:8672   */\n      add\n        /* \"#utility.yul\":8630:8682   */\n      tag_368\n      jump\t// in\n    tag_513:\n        /* \"#utility.yul\":8620:8682   */\n      swap3\n      pop\n        /* \"#utility.yul\":8575:8692   */\n      pop\n        /* \"#utility.yul\":8731:8734   */\n      0x80\n        /* \"#utility.yul\":8758:8810   */\n      tag_514\n        /* \"#utility.yul\":8802:8809   */\n      dup9\n        /* \"#utility.yul\":8793:8799   */\n      dup3\n        /* \"#utility.yul\":8782:8791   */\n      dup10\n        /* \"#utility.yul\":8778:8800   */\n      add\n        /* \"#utility.yul\":8758:8810   */\n      tag_368\n      jump\t// in\n    tag_514:\n        /* \"#utility.yul\":8748:8810   */\n      swap2\n      pop\n        /* \"#utility.yul\":8702:8820   */\n      pop\n        /* \"#utility.yul\":7922:8827   */\n      swap3\n      swap6\n      pop\n      swap3\n      swap6\n      swap1\n      swap4\n      pop\n      jump\t// out\n        /* \"#utility.yul\":8833:8951   */\n    tag_369:\n        /* \"#utility.yul\":8920:8944   */\n      tag_516\n        /* \"#utility.yul\":8938:8943   */\n      dup2\n        /* \"#utility.yul\":8920:8944   */\n      tag_361\n      jump\t// in\n    tag_516:\n        /* \"#utility.yul\":8915:8918   */\n      dup3\n        /* \"#utility.yul\":8908:8945   */\n      mstore\n        /* \"#utility.yul\":8833:8951   */\n      pop\n      pop\n      jump\t// out\n        /* \"#utility.yul\":8957:9179   */\n    tag_89:\n        /* \"#utility.yul\":9050:9054   */\n      0x00\n        /* \"#utility.yul\":9088:9090   */\n      0x20\n        /* \"#utility.yul\":9077:9086   */\n      dup3\n        /* \"#utility.yul\":9073:9091   */\n      add\n        /* \"#utility.yul\":9065:9091   */\n      swap1\n      pop\n        /* \"#utility.yul\":9101:9172   */\n      tag_518\n        /* \"#utility.yul\":9169:9170   */\n      0x00\n        /* \"#utility.yul\":9158:9167   */\n      dup4\n        /* \"#utility.yul\":9154:9171   */\n      add\n        /* \"#utility.yul\":9145:9151   */\n      dup5\n        /* \"#utility.yul\":9101:9172   */\n      tag_369\n      jump\t// in\n    tag_518:\n        /* \"#utility.yul\":8957:9179   */\n      swap3\n      swap2\n      pop\n      pop\n      jump\t// out\n        /* \"#utility.yul\":9185:9284   */\n    tag_370:\n        /* \"#utility.yul\":9237:9243   */\n      0x00\n        /* \"#utility.yul\":9271:9276   */\n      dup2\n        /* \"#utility.yul\":9265:9277   */\n      mload\n        /* \"#utility.yul\":9255:9277   */\n      swap1\n      pop\n        /* \"#utility.yul\":9185:9284   */\n      swap2\n      swap1\n      pop\n      jump\t// out\n        /* \"#utility.yul\":9290:9459   */\n    tag_371:\n        /* \"#utility.yul\":9374:9385   */\n      0x00\n        /* \"#utility.yul\":9408:9414   */\n      dup3\n        /* \"#utility.yul\":9403:9406   */\n      dup3\n        /* \"#utility.yul\":9396:9415   */\n      mstore\n        /* \"#utility.yul\":9448:9452   */\n      0x20\n        /* \"#utility.yul\":9443:9446   */\n      dup3\n        /* \"#utility.yul\":9439:9453   */\n      add\n        /* \"#utility.yul\":9424:9453   */\n      swap1\n      pop\n        /* \"#utility.yul\":9290:9459   */\n      swap3\n      swap2\n      pop\n      pop\n      jump\t// out\n        /* \"#utility.yul\":9465:9604   */\n    tag_372:\n        /* \"#utility.yul\":9554:9560   */\n      dup3\n        /* \"#utility.yul\":9549:9552   */\n      dup2\n        /* \"#utility.yul\":9544:9547   */\n      dup4\n        /* \"#utility.yul\":9538:9561   */\n      mcopy\n        /* \"#utility.yul\":9595:9596   */\n      0x00\n        /* \"#utility.yul\":9586:9592   */\n      dup4\n        /* \"#utility.yul\":9581:9584   */\n      dup4\n        /* \"#utility.yul\":9577:9593   */\n      add\n        /* \"#utility.yul\":9570:9597   */\n      mstore\n        /* \"#utility.yul\":9465:9604   */\n      pop\n      pop\n      pop\n      jump\t// out\n        /* \"#utility.yul\":9610:9712   */\n    tag_373:\n        /* \"#utility.yul\":9651:9657   */\n      0x00\n        /* \"#utility.yul\":9702:9704   */\n      0x1f\n        /* \"#utility.yul\":9698:9705   */\n      not\n        /* \"#utility.yul\":9693:9695   */\n      0x1f\n        /* \"#utility.yul\":9686:9691   */\n      dup4\n        /* \"#utility.yul\":9682:9696   */\n      add\n        /* \"#utility.yul\":9678:9706   */\n      and\n        /* \"#utility.yul\":9668:9706   */\n      swap1\n      pop\n        /* \"#utility.yul\":9610:9712   */\n      swap2\n      swap1\n      pop\n      jump\t// out\n        /* \"#utility.yul\":9718:10095   */\n    tag_374:\n        /* \"#utility.yul\":9806:9809   */\n      0x00\n        /* \"#utility.yul\":9834:9873   */\n      tag_524\n        /* \"#utility.yul\":9867:9872   */\n      dup3\n        /* \"#utility.yul\":9834:9873   */\n      tag_370\n      jump\t// in\n    tag_524:\n        /* \"#utility.yul\":9889:9960   */\n      tag_525\n        /* \"#utility.yul\":9953:9959   */\n      dup2\n        /* \"#utility.yul\":9948:9951   */\n      dup6\n        /* \"#utility.yul\":9889:9960   */\n      tag_371\n      jump\t// in\n    tag_525:\n        /* \"#utility.yul\":9882:9960   */\n      swap4\n      pop\n        /* \"#utility.yul\":9969:10034   */\n      tag_526\n        /* \"#utility.yul\":10027:10033   */\n      dup2\n        /* \"#utility.yul\":10022:10025   */\n      dup6\n        /* \"#utility.yul\":10015:10019   */\n      0x20\n        /* \"#utility.yul\":10008:10013   */\n      dup7\n        /* \"#utility.yul\":10004:10020   */\n      add\n        /* \"#utility.yul\":9969:10034   */\n      tag_372\n      jump\t// in\n    tag_526:\n        /* \"#utility.yul\":10059:10088   */\n      tag_527\n        /* \"#utility.yul\":10081:10087   */\n      dup2\n        /* \"#utility.yul\":10059:10088   */\n      tag_373\n      jump\t// in\n    tag_527:\n        /* \"#utility.yul\":10054:10057   */\n      dup5\n        /* \"#utility.yul\":10050:10089   */\n      add\n        /* \"#utility.yul\":10043:10089   */\n      swap2\n      pop\n        /* \"#utility.yul\":9810:10095   */\n      pop\n        /* \"#utility.yul\":9718:10095   */\n      swap3\n      swap2\n      pop\n      pop\n      jump\t// out\n        /* \"#utility.yul\":10101:10414   */\n    tag_102:\n        /* \"#utility.yul\":10214:10218   */\n      0x00\n        /* \"#utility.yul\":10252:10254   */\n      0x20\n        /* \"#utility.yul\":10241:10250   */\n      dup3\n        /* \"#utility.yul\":10237:10255   */\n      add\n        /* \"#utility.yul\":10229:10255   */\n      swap1\n      pop\n        /* \"#utility.yul\":10301:10310   */\n      dup2\n        /* \"#utility.yul\":10295:10299   */\n      dup2\n        /* \"#utility.yul\":10291:10311   */\n      sub\n        /* \"#utility.yul\":10287:10288   */\n      0x00\n        /* \"#utility.yul\":10276:10285   */\n      dup4\n        /* \"#utility.yul\":10272:10289   */\n      add\n        /* \"#utility.yul\":10265:10312   */\n      mstore\n        /* \"#utility.yul\":10329:10407   */\n      tag_529\n        /* \"#utility.yul\":10402:10406   */\n      dup2\n        /* \"#utility.yul\":10393:10399   */\n      dup5\n        /* \"#utility.yul\":10329:10407   */\n      tag_374\n      jump\t// in\n    tag_529:\n        /* \"#utility.yul\":10321:10407   */\n      swap1\n      pop\n        /* \"#utility.yul\":10101:10414   */\n      swap3\n      swap2\n      pop\n      pop\n      jump\t// out\n        /* \"#utility.yul\":10420:10638   */\n    tag_112:\n        /* \"#utility.yul\":10511:10515   */\n      0x00\n        /* \"#utility.yul\":10549:10551   */\n      0x20\n        /* \"#utility.yul\":10538:10547   */\n      dup3\n        /* \"#utility.yul\":10534:10552   */\n      add\n        /* \"#utility.yul\":10526:10552   */\n      swap1\n      pop\n        /* \"#utility.yul\":10562:10631   */\n      tag_531\n        /* \"#utility.yul\":10628:10629   */\n      0x00\n        /* \"#utility.yul\":10617:10626   */\n      dup4\n        /* \"#utility.yul\":10613:10630   */\n      add\n        /* \"#utility.yul\":10604:10610   */\n      dup5\n        /* \"#utility.yul\":10562:10631   */\n      tag_366\n      jump\t// in\n    tag_531:\n        /* \"#utility.yul\":10420:10638   */\n      swap3\n      swap2\n      pop\n      pop\n      jump\t// out\n        /* \"#utility.yul\":10644:11181   */\n    tag_118:\n        /* \"#utility.yul\":10813:10817   */\n      0x00\n        /* \"#utility.yul\":10851:10854   */\n      0x80\n        /* \"#utility.yul\":10840:10849   */\n      dup3\n        /* \"#utility.yul\":10836:10855   */\n      add\n        /* \"#utility.yul\":10828:10855   */\n      swap1\n      pop\n        /* \"#utility.yul\":10865:10934   */\n      tag_533\n        /* \"#utility.yul\":10931:10932   */\n      0x00\n        /* \"#utility.yul\":10920:10929   */\n      dup4\n        /* \"#utility.yul\":10916:10933   */\n      add\n        /* \"#utility.yul\":10907:10913   */\n      dup8\n        /* \"#utility.yul\":10865:10934   */\n      tag_366\n      jump\t// in\n    tag_533:\n        /* \"#utility.yul\":10944:11014   */\n      tag_534\n        /* \"#utility.yul\":11010:11012   */\n      0x20\n        /* \"#utility.yul\":10999:11008   */\n      dup4\n        /* \"#utility.yul\":10995:11013   */\n      add\n        /* \"#utility.yul\":10986:10992   */\n      dup7\n        /* \"#utility.yul\":10944:11014   */\n      tag_366\n      jump\t// in\n    tag_534:\n        /* \"#utility.yul\":11024:11094   */\n      tag_535\n        /* \"#utility.yul\":11090:11092   */\n      0x40\n        /* \"#utility.yul\":11079:11088   */\n      dup4\n        /* \"#utility.yul\":11075:11093   */\n      add\n        /* \"#utility.yul\":11066:11072   */\n      dup6\n        /* \"#utility.yul\":11024:11094   */\n      tag_366\n      jump\t// in\n    tag_535:\n        /* \"#utility.yul\":11104:11174   */\n      tag_536\n        /* \"#utility.yul\":11170:11172   */\n      0x60\n        /* \"#utility.yul\":11159:11168   */\n      dup4\n        /* \"#utility.yul\":11155:11173   */\n      add\n        /* \"#utility.yul\":11146:11152   */\n      dup5\n        /* \"#utility.yul\":11104:11174   */\n      tag_366\n      jump\t// in\n    tag_536:\n        /* \"#utility.yul\":10644:11181   */\n      swap6\n      swap5\n      pop\n      pop\n      pop\n      pop\n      pop\n      jump\t// out\n        /* \"#utility.yul\":11187:11354   */\n    tag_375:\n        /* \"#utility.yul\":11327:11346   */\n      0x616c72656164792066696e616c697a6564000000000000000000000000000000\n        /* \"#utility.yul\":11323:11324   */\n      0x00\n        /* \"#utility.yul\":11315:11321   */\n      dup3\n        /* \"#utility.yul\":11311:11325   */\n      add\n        /* \"#utility.yul\":11304:11347   */\n      mstore\n        /* \"#utility.yul\":11187:11354   */\n      pop\n      jump\t// out\n        /* \"#utility.yul\":11360:11726   */\n    tag_376:\n        /* \"#utility.yul\":11502:11505   */\n      0x00\n        /* \"#utility.yul\":11523:11590   */\n      tag_539\n        /* \"#utility.yul\":11587:11589   */\n      0x11\n        /* \"#utility.yul\":11582:11585   */\n      dup4\n        /* \"#utility.yul\":11523:11590   */\n      tag_371\n      jump\t// in\n    tag_539:\n        /* \"#utility.yul\":11516:11590   */\n      swap2\n      pop\n        /* \"#utility.yul\":11599:11692   */\n      tag_540\n        /* \"#utility.yul\":11688:11691   */\n      dup3\n        /* \"#utility.yul\":11599:11692   */\n      tag_375\n      jump\t// in\n    tag_540:\n        /* \"#utility.yul\":11717:11719   */\n      0x20\n        /* \"#utility.yul\":11712:11715   */\n      dup3\n        /* \"#utility.yul\":11708:11720   */\n      add\n        /* \"#utility.yul\":11701:11720   */\n      swap1\n      pop\n        /* \"#utility.yul\":11360:11726   */\n      swap2\n      swap1\n      pop\n      jump\t// out\n        /* \"#utility.yul\":11732:12151   */\n    tag_133:\n        /* \"#utility.yul\":11898:11902   */\n      0x00\n        /* \"#utility.yul\":11936:11938   */\n      0x20\n        /* \"#utility.yul\":11925:11934   */\n      dup3\n        /* \"#utility.yul\":11921:11939   */\n      add\n        /* \"#utility.yul\":11913:11939   */\n      swap1\n      pop\n        /* \"#utility.yul\":11985:11994   */\n      dup2\n        /* \"#utility.yul\":11979:11983   */\n      dup2\n        /* \"#utility.yul\":11975:11995   */\n      sub\n        /* \"#utility.yul\":11971:11972   */\n      0x00\n        /* \"#utility.yul\":11960:11969   */\n      dup4\n        /* \"#utility.yul\":11956:11973   */\n      add\n        /* \"#utility.yul\":11949:11996   */\n      mstore\n        /* \"#utility.yul\":12013:12144   */\n      tag_542\n        /* \"#utility.yul\":12139:12143   */\n      dup2\n        /* \"#utility.yul\":12013:12144   */\n      tag_376\n      jump\t// in\n    tag_542:\n        /* \"#utility.yul\":12005:12144   */\n      swap1\n      pop\n        /* \"#utility.yul\":11732:12151   */\n      swap2\n      swap1\n      pop\n      jump\t// out\n        /* \"#utility.yul\":12157:12337   */\n    tag_377:\n        /* \"#utility.yul\":12205:12282   */\n      0x4e487b7100000000000000000000000000000000000000000000000000000000\n        /* \"#utility.yul\":12202:12203   */\n      0x00\n        /* \"#utility.yul\":12195:12283   */\n      mstore\n        /* \"#utility.yul\":12302:12306   */\n      0x11\n        /* \"#utility.yul\":12299:12300   */\n      0x04\n        /* \"#utility.yul\":12292:12307   */\n      mstore\n        /* \"#utility.yul\":12326:12330   */\n      0x24\n        /* \"#utility.yul\":12323:12324   */\n      0x00\n        /* \"#utility.yul\":12316:12331   */\n      revert\n        /* \"#utility.yul\":12343:12537   */\n    tag_141:\n        /* \"#utility.yul\":12383:12387   */\n      0x00\n        /* \"#utility.yul\":12403:12423   */\n      tag_545\n        /* \"#utility.yul\":12421:12422   */\n      dup3\n        /* \"#utility.yul\":12403:12423   */\n      tag_339\n      jump\t// in\n    tag_545:\n        /* \"#utility.yul\":12398:12423   */\n      swap2\n      pop\n        /* \"#utility.yul\":12437:12457   */\n      tag_546\n        /* \"#utility.yul\":12455:12456   */\n      dup4\n        /* \"#utility.yul\":12437:12457   */\n      tag_339\n      jump\t// in\n    tag_546:\n        /* \"#utility.yul\":12432:12457   */\n      swap3\n      pop\n        /* \"#utility.yul\":12481:12482   */\n      dup3\n        /* \"#utility.yul\":12478:12479   */\n      dup3\n        /* \"#utility.yul\":12474:12483   */\n      sub\n        /* \"#utility.yul\":12466:12483   */\n      swap1\n      pop\n        /* \"#utility.yul\":12505:12506   */\n      dup2\n        /* \"#utility.yul\":12499:12503   */\n      dup2\n        /* \"#utility.yul\":12496:12507   */\n      gt\n        /* \"#utility.yul\":12493:12530   */\n      iszero\n      tag_547\n      jumpi\n        /* \"#utility.yul\":12510:12528   */\n      tag_548\n      tag_377\n      jump\t// in\n    tag_548:\n        /* \"#utility.yul\":12493:12530   */\n    tag_547:\n        /* \"#utility.yul\":12343:12537   */\n      swap3\n      swap2\n      pop\n      pop\n      jump\t// out\n        /* \"#utility.yul\":12543:12748   */\n    tag_146:\n        /* \"#utility.yul\":12582:12585   */\n      0x00\n        /* \"#utility.yul\":12601:12620   */\n      tag_550\n        /* \"#utility.yul\":12618:12619   */\n      dup3\n        /* \"#utility.yul\":12601:12620   */\n      tag_365\n      jump\t// in\n    tag_550:\n        /* \"#utility.yul\":12596:12620   */\n      swap2\n      pop\n        /* \"#utility.yul\":12634:12653   */\n      tag_551\n        /* \"#utility.yul\":12651:12652   */\n      dup4\n        /* \"#utility.yul\":12634:12653   */\n      tag_365\n      jump\t// in\n    tag_551:\n        /* \"#utility.yul\":12629:12653   */\n      swap3\n      pop\n        /* \"#utility.yul\":12676:12677   */\n      dup3\n        /* \"#utility.yul\":12673:12674   */\n      dup3\n        /* \"#utility.yul\":12669:12678   */\n      add\n        /* \"#utility.yul\":12662:12678   */\n      swap1\n      pop\n        /* \"#utility.yul\":12699:12717   */\n      0xffffffffffffffff\n        /* \"#utility.yul\":12694:12697   */\n      dup2\n        /* \"#utility.yul\":12691:12718   */\n      gt\n        /* \"#utility.yul\":12688:12741   */\n      iszero\n      tag_552\n      jumpi\n        /* \"#utility.yul\":12721:12739   */\n      tag_553\n      tag_377\n      jump\t// in\n    tag_553:\n        /* \"#utility.yul\":12688:12741   */\n    tag_552:\n        /* \"#utility.yul\":12543:12748   */\n      swap3\n      swap2\n      pop\n      pop\n      jump\t// out\n        /* \"#utility.yul\":12754:13307   */\n    tag_148:\n        /* \"#utility.yul\":12931:12935   */\n      0x00\n        /* \"#utility.yul\":12969:12972   */\n      0x80\n        /* \"#utility.yul\":12958:12967   */\n      dup3\n        /* \"#utility.yul\":12954:12973   */\n      add\n        /* \"#utility.yul\":12946:12973   */\n      swap1\n      pop\n        /* \"#utility.yul\":12983:13054   */\n      tag_555\n        /* \"#utility.yul\":13051:13052   */\n      0x00\n        /* \"#utility.yul\":13040:13049   */\n      dup4\n        /* \"#utility.yul\":13036:13053   */\n      add\n        /* \"#utility.yul\":13027:13033   */\n      dup8\n        /* \"#utility.yul\":12983:13054   */\n      tag_364\n      jump\t// in\n    tag_555:\n        /* \"#utility.yul\":13064:13136   */\n      tag_556\n        /* \"#utility.yul\":13132:13134   */\n      0x20\n        /* \"#utility.yul\":13121:13130   */\n      dup4\n        /* \"#utility.yul\":13117:13135   */\n      add\n        /* \"#utility.yul\":13108:13114   */\n      dup7\n        /* \"#utility.yul\":13064:13136   */\n      tag_340\n      jump\t// in\n    tag_556:\n        /* \"#utility.yul\":13146:13218   */\n      tag_557\n        /* \"#utility.yul\":13214:13216   */\n      0x40\n        /* \"#utility.yul\":13203:13212   */\n      dup4\n        /* \"#utility.yul\":13199:13217   */\n      add\n        /* \"#utility.yul\":13190:13196   */\n      dup6\n        /* \"#utility.yul\":13146:13218   */\n      tag_340\n      jump\t// in\n    tag_557:\n        /* \"#utility.yul\":13228:13300   */\n      tag_558\n        /* \"#utility.yul\":13296:13298   */\n      0x60\n        /* \"#utility.yul\":13285:13294   */\n      dup4\n        /* \"#utility.yul\":13281:13299   */\n      add\n        /* \"#utility.yul\":13272:13278   */\n      dup5\n        /* \"#utility.yul\":13228:13300   */\n      tag_340\n      jump\t// in\n    tag_558:\n        /* \"#utility.yul\":12754:13307   */\n      swap6\n      swap5\n      pop\n      pop\n      pop\n      pop\n      pop\n      jump\t// out\n        /* \"#utility.yul\":13313:13392   */\n    tag_378:\n        /* \"#utility.yul\":13352:13359   */\n      0x00\n        /* \"#utility.yul\":13381:13386   */\n      dup2\n        /* \"#utility.yul\":13370:13386   */\n      swap1\n      pop\n        /* \"#utility.yul\":13313:13392   */\n      swap2\n      swap1\n      pop\n      jump\t// out\n        /* \"#utility.yul\":13398:13555   */\n    tag_379:\n        /* \"#utility.yul\":13503:13548   */\n      tag_561\n        /* \"#utility.yul\":13523:13547   */\n      tag_562\n        /* \"#utility.yul\":13541:13546   */\n      dup3\n        /* \"#utility.yul\":13523:13547   */\n      tag_339\n      jump\t// in\n    tag_562:\n        /* \"#utility.yul\":13503:13548   */\n      tag_378\n      jump\t// in\n    tag_561:\n        /* \"#utility.yul\":13498:13501   */\n      dup3\n        /* \"#utility.yul\":13491:13549   */\n      mstore\n        /* \"#utility.yul\":13398:13555   */\n      pop\n      pop\n      jump\t// out\n        /* \"#utility.yul\":13561:13640   */\n    tag_380:\n        /* \"#utility.yul\":13600:13607   */\n      0x00\n        /* \"#utility.yul\":13629:13634   */\n      dup2\n        /* \"#utility.yul\":13618:13634   */\n      swap1\n      pop\n        /* \"#utility.yul\":13561:13640   */\n      swap2\n      swap1\n      pop\n      jump\t// out\n        /* \"#utility.yul\":13646:13803   */\n    tag_381:\n        /* \"#utility.yul\":13751:13796   */\n      tag_565\n        /* \"#utility.yul\":13771:13795   */\n      tag_566\n        /* \"#utility.yul\":13789:13794   */\n      dup3\n        /* \"#utility.yul\":13771:13795   */\n      tag_361\n      jump\t// in\n    tag_566:\n        /* \"#utility.yul\":13751:13796   */\n      tag_380\n      jump\t// in\n    tag_565:\n        /* \"#utility.yul\":13746:13749   */\n      dup3\n        /* \"#utility.yul\":13739:13797   */\n      mstore\n        /* \"#utility.yul\":13646:13803   */\n      pop\n      pop\n      jump\t// out\n        /* \"#utility.yul\":13809:14206   */\n    tag_156:\n        /* \"#utility.yul\":13949:13952   */\n      0x00\n        /* \"#utility.yul\":13964:14039   */\n      tag_568\n        /* \"#utility.yul\":14035:14038   */\n      dup3\n        /* \"#utility.yul\":14026:14032   */\n      dup6\n        /* \"#utility.yul\":13964:14039   */\n      tag_379\n      jump\t// in\n    tag_568:\n        /* \"#utility.yul\":14064:14066   */\n      0x20\n        /* \"#utility.yul\":14059:14062   */\n      dup3\n        /* \"#utility.yul\":14055:14067   */\n      add\n        /* \"#utility.yul\":14048:14067   */\n      swap2\n      pop\n        /* \"#utility.yul\":14077:14152   */\n      tag_569\n        /* \"#utility.yul\":14148:14151   */\n      dup3\n        /* \"#utility.yul\":14139:14145   */\n      dup5\n        /* \"#utility.yul\":14077:14152   */\n      tag_381\n      jump\t// in\n    tag_569:\n        /* \"#utility.yul\":14177:14179   */\n      0x20\n        /* \"#utility.yul\":14172:14175   */\n      dup3\n        /* \"#utility.yul\":14168:14180   */\n      add\n        /* \"#utility.yul\":14161:14180   */\n      swap2\n      pop\n        /* \"#utility.yul\":14197:14200   */\n      dup2\n        /* \"#utility.yul\":14190:14200   */\n      swap1\n      pop\n        /* \"#utility.yul\":13809:14206   */\n      swap4\n      swap3\n      pop\n      pop\n      pop\n      jump\t// out\n        /* \"#utility.yul\":14212:14372   */\n    tag_382:\n        /* \"#utility.yul\":14352:14364   */\n      0x5245454e5452414e435900000000000000000000000000000000000000000000\n        /* \"#utility.yul\":14348:14349   */\n      0x00\n        /* \"#utility.yul\":14340:14346   */\n      dup3\n        /* \"#utility.yul\":14336:14350   */\n      add\n        /* \"#utility.yul\":14329:14365   */\n      mstore\n        /* \"#utility.yul\":14212:14372   */\n      pop\n      jump\t// out\n        /* \"#utility.yul\":14378:14744   */\n    tag_383:\n        /* \"#utility.yul\":14520:14523   */\n      0x00\n        /* \"#utility.yul\":14541:14608   */\n      tag_572\n        /* \"#utility.yul\":14605:14607   */\n      0x0a\n        /* \"#utility.yul\":14600:14603   */\n      dup4\n        /* \"#utility.yul\":14541:14608   */\n      tag_371\n      jump\t// in\n    tag_572:\n        /* \"#utility.yul\":14534:14608   */\n      swap2\n      pop\n        /* \"#utility.yul\":14617:14710   */\n      tag_573\n        /* \"#utility.yul\":14706:14709   */\n      dup3\n        /* \"#utility.yul\":14617:14710   */\n      tag_382\n      jump\t// in\n    tag_573:\n        /* \"#utility.yul\":14735:14737   */\n      0x20\n        /* \"#utility.yul\":14730:14733   */\n      dup3\n        /* \"#utility.yul\":14726:14738   */\n      add\n        /* \"#utility.yul\":14719:14738   */\n      swap1\n      pop\n        /* \"#utility.yul\":14378:14744   */\n      swap2\n      swap1\n      pop\n      jump\t// out\n        /* \"#utility.yul\":14750:15169   */\n    tag_173:\n        /* \"#utility.yul\":14916:14920   */\n      0x00\n        /* \"#utility.yul\":14954:14956   */\n      0x20\n        /* \"#utility.yul\":14943:14952   */\n      dup3\n        /* \"#utility.yul\":14939:14957   */\n      add\n        /* \"#utility.yul\":14931:14957   */\n      swap1\n      pop\n        /* \"#utility.yul\":15003:15012   */\n      dup2\n        /* \"#utility.yul\":14997:15001   */\n      dup2\n        /* \"#utility.yul\":14993:15013   */\n      sub\n        /* \"#utility.yul\":14989:14990   */\n      0x00\n        /* \"#utility.yul\":14978:14987   */\n      dup4\n        /* \"#utility.yul\":14974:14991   */\n      add\n        /* \"#utility.yul\":14967:15014   */\n      mstore\n        /* \"#utility.yul\":15031:15162   */\n      tag_575\n        /* \"#utility.yul\":15157:15161   */\n      dup2\n        /* \"#utility.yul\":15031:15162   */\n      tag_383\n      jump\t// in\n    tag_575:\n        /* \"#utility.yul\":15023:15162   */\n      swap1\n      pop\n        /* \"#utility.yul\":14750:15169   */\n      swap2\n      swap1\n      pop\n      jump\t// out\n        /* \"#utility.yul\":15175:15322   */\n    tag_384:\n        /* \"#utility.yul\":15276:15287   */\n      0x00\n        /* \"#utility.yul\":15313:15316   */\n      dup2\n        /* \"#utility.yul\":15298:15316   */\n      swap1\n      pop\n        /* \"#utility.yul\":15175:15322   */\n      swap3\n      swap2\n      pop\n      pop\n      jump\t// out\n        /* \"#utility.yul\":15328:15442   */\n    tag_385:\n      pop\n      jump\t// out\n        /* \"#utility.yul\":15448:15846   */\n    tag_386:\n        /* \"#utility.yul\":15607:15610   */\n      0x00\n        /* \"#utility.yul\":15628:15711   */\n      tag_579\n        /* \"#utility.yul\":15709:15710   */\n      0x00\n        /* \"#utility.yul\":15704:15707   */\n      dup4\n        /* \"#utility.yul\":15628:15711   */\n      tag_384\n      jump\t// in\n    tag_579:\n        /* \"#utility.yul\":15621:15711   */\n      swap2\n      pop\n        /* \"#utility.yul\":15720:15813   */\n      tag_580\n        /* \"#utility.yul\":15809:15812   */\n      dup3\n        /* \"#utility.yul\":15720:15813   */\n      tag_385\n      jump\t// in\n    tag_580:\n        /* \"#utility.yul\":15838:15839   */\n      0x00\n        /* \"#utility.yul\":15833:15836   */\n      dup3\n        /* \"#utility.yul\":15829:15840   */\n      add\n        /* \"#utility.yul\":15822:15840   */\n      swap1\n      pop\n        /* \"#utility.yul\":15448:15846   */\n      swap2\n      swap1\n      pop\n      jump\t// out\n        /* \"#utility.yul\":15852:16231   */\n    tag_179:\n        /* \"#utility.yul\":16036:16039   */\n      0x00\n        /* \"#utility.yul\":16058:16205   */\n      tag_582\n        /* \"#utility.yul\":16201:16204   */\n      dup3\n        /* \"#utility.yul\":16058:16205   */\n      tag_386\n      jump\t// in\n    tag_582:\n        /* \"#utility.yul\":16051:16205   */\n      swap2\n      pop\n        /* \"#utility.yul\":16222:16225   */\n      dup2\n        /* \"#utility.yul\":16215:16225   */\n      swap1\n      pop\n        /* \"#utility.yul\":15852:16231   */\n      swap2\n      swap1\n      pop\n      jump\t// out\n        /* \"#utility.yul\":16237:16428   */\n    tag_206:\n        /* \"#utility.yul\":16277:16280   */\n      0x00\n        /* \"#utility.yul\":16296:16316   */\n      tag_584\n        /* \"#utility.yul\":16314:16315   */\n      dup3\n        /* \"#utility.yul\":16296:16316   */\n      tag_339\n      jump\t// in\n    tag_584:\n        /* \"#utility.yul\":16291:16316   */\n      swap2\n      pop\n        /* \"#utility.yul\":16330:16350   */\n      tag_585\n        /* \"#utility.yul\":16348:16349   */\n      dup4\n        /* \"#utility.yul\":16330:16350   */\n      tag_339\n      jump\t// in\n    tag_585:\n        /* \"#utility.yul\":16325:16350   */\n      swap3\n      pop\n        /* \"#utility.yul\":16373:16374   */\n      dup3\n        /* \"#utility.yul\":16370:16371   */\n      dup3\n        /* \"#utility.yul\":16366:16375   */\n      add\n        /* \"#utility.yul\":16359:16375   */\n      swap1\n      pop\n        /* \"#utility.yul\":16394:16397   */\n      dup1\n        /* \"#utility.yul\":16391:16392   */\n      dup3\n        /* \"#utility.yul\":16388:16398   */\n      gt\n        /* \"#utility.yul\":16385:16421   */\n      iszero\n      tag_586\n      jumpi\n        /* \"#utility.yul\":16401:16419   */\n      tag_587\n      tag_377\n      jump\t// in\n    tag_587:\n        /* \"#utility.yul\":16385:16421   */\n    tag_586:\n        /* \"#utility.yul\":16237:16428   */\n      swap3\n      swap2\n      pop\n      pop\n      jump\t// out\n        /* \"#utility.yul\":16434:16602   */\n    tag_387:\n        /* \"#utility.yul\":16574:16594   */\n      0x70726576696f7573206e6f7420656e6465640000000000000000000000000000\n        /* \"#utility.yul\":16570:16571   */\n      0x00\n        /* \"#utility.yul\":16562:16568   */\n      dup3\n        /* \"#utility.yul\":16558:16572   */\n      add\n        /* \"#utility.yul\":16551:16595   */\n      mstore\n        /* \"#utility.yul\":16434:16602   */\n      pop\n      jump\t// out\n        /* \"#utility.yul\":16608:16974   */\n    tag_388:\n        /* \"#utility.yul\":16750:16753   */\n      0x00\n        /* \"#utility.yul\":16771:16838   */\n      tag_590\n        /* \"#utility.yul\":16835:16837   */\n      0x12\n        /* \"#utility.yul\":16830:16833   */\n      dup4\n        /* \"#utility.yul\":16771:16838   */\n      tag_371\n      jump\t// in\n    tag_590:\n        /* \"#utility.yul\":16764:16838   */\n      swap2\n      pop\n        /* \"#utility.yul\":16847:16940   */\n      tag_591\n        /* \"#utility.yul\":16936:16939   */\n      dup3\n        /* \"#utility.yul\":16847:16940   */\n      tag_387\n      jump\t// in\n    tag_591:\n        /* \"#utility.yul\":16965:16967   */\n      0x20\n        /* \"#utility.yul\":16960:16963   */\n      dup3\n        /* \"#utility.yul\":16956:16968   */\n      add\n        /* \"#utility.yul\":16949:16968   */\n      swap1\n      pop\n        /* \"#utility.yul\":16608:16974   */\n      swap2\n      swap1\n      pop\n      jump\t// out\n        /* \"#utility.yul\":16980:17399   */\n    tag_212:\n        /* \"#utility.yul\":17146:17150   */\n      0x00\n        /* \"#utility.yul\":17184:17186   */\n      0x20\n        /* \"#utility.yul\":17173:17182   */\n      dup3\n        /* \"#utility.yul\":17169:17187   */\n      add\n        /* \"#utility.yul\":17161:17187   */\n      swap1\n      pop\n        /* \"#utility.yul\":17233:17242   */\n      dup2\n        /* \"#utility.yul\":17227:17231   */\n      dup2\n        /* \"#utility.yul\":17223:17243   */\n      sub\n        /* \"#utility.yul\":17219:17220   */\n      0x00\n        /* \"#utility.yul\":17208:17217   */\n      dup4\n        /* \"#utility.yul\":17204:17221   */\n      add\n        /* \"#utility.yul\":17197:17244   */\n      mstore\n        /* \"#utility.yul\":17261:17392   */\n      tag_593\n        /* \"#utility.yul\":17387:17391   */\n      dup2\n        /* \"#utility.yul\":17261:17392   */\n      tag_388\n      jump\t// in\n    tag_593:\n        /* \"#utility.yul\":17253:17392   */\n      swap1\n      pop\n        /* \"#utility.yul\":16980:17399   */\n      swap2\n      swap1\n      pop\n      jump\t// out\n        /* \"#utility.yul\":17405:17583   */\n    tag_389:\n        /* \"#utility.yul\":17545:17575   */\n      0x434f4e4649473a2062616420636f6d6d6974206475726174696f6e7300000000\n        /* \"#utility.yul\":17541:17542   */\n      0x00\n        /* \"#utility.yul\":17533:17539   */\n      dup3\n        /* \"#utility.yul\":17529:17543   */\n      add\n        /* \"#utility.yul\":17522:17576   */\n      mstore\n        /* \"#utility.yul\":17405:17583   */\n      pop\n      jump\t// out\n        /* \"#utility.yul\":17589:17955   */\n    tag_390:\n        /* \"#utility.yul\":17731:17734   */\n      0x00\n        /* \"#utility.yul\":17752:17819   */\n      tag_596\n        /* \"#utility.yul\":17816:17818   */\n      0x1c\n        /* \"#utility.yul\":17811:17814   */\n      dup4\n        /* \"#utility.yul\":17752:17819   */\n      tag_371\n      jump\t// in\n    tag_596:\n        /* \"#utility.yul\":17745:17819   */\n      swap2\n      pop\n        /* \"#utility.yul\":17828:17921   */\n      tag_597\n        /* \"#utility.yul\":17917:17920   */\n      dup3\n        /* \"#utility.yul\":17828:17921   */\n      tag_389\n      jump\t// in\n    tag_597:\n        /* \"#utility.yul\":17946:17948   */\n      0x20\n        /* \"#utility.yul\":17941:17944   */\n      dup3\n        /* \"#utility.yul\":17937:17949   */\n      add\n        /* \"#utility.yul\":17930:17949   */\n      swap1\n      pop\n        /* \"#utility.yul\":17589:17955   */\n      swap2\n      swap1\n      pop\n      jump\t// out\n        /* \"#utility.yul\":17961:18380   */\n    tag_216:\n        /* \"#utility.yul\":18127:18131   */\n      0x00\n        /* \"#utility.yul\":18165:18167   */\n      0x20\n        /* \"#utility.yul\":18154:18163   */\n      dup3\n        /* \"#utility.yul\":18150:18168   */\n      add\n        /* \"#utility.yul\":18142:18168   */\n      swap1\n      pop\n        /* \"#utility.yul\":18214:18223   */\n      dup2\n        /* \"#utility.yul\":18208:18212   */\n      dup2\n        /* \"#utility.yul\":18204:18224   */\n      sub\n        /* \"#utility.yul\":18200:18201   */\n      0x00\n        /* \"#utility.yul\":18189:18198   */\n      dup4\n        /* \"#utility.yul\":18185:18202   */\n      add\n        /* \"#utility.yul\":18178:18225   */\n      mstore\n        /* \"#utility.yul\":18242:18373   */\n      tag_599\n        /* \"#utility.yul\":18368:18372   */\n      dup2\n        /* \"#utility.yul\":18242:18373   */\n      tag_390\n      jump\t// in\n    tag_599:\n        /* \"#utility.yul\":18234:18373   */\n      swap1\n      pop\n        /* \"#utility.yul\":17961:18380   */\n      swap2\n      swap1\n      pop\n      jump\t// out\n        /* \"#utility.yul\":18386:18564   */\n    tag_391:\n        /* \"#utility.yul\":18526:18556   */\n      0x434f4e4649473a206261642072657665616c206475726174696f6e7300000000\n        /* \"#utility.yul\":18522:18523   */\n      0x00\n        /* \"#utility.yul\":18514:18520   */\n      dup3\n        /* \"#utility.yul\":18510:18524   */\n      add\n        /* \"#utility.yul\":18503:18557   */\n      mstore\n        /* \"#utility.yul\":18386:18564   */\n      pop\n      jump\t// out\n        /* \"#utility.yul\":18570:18936   */\n    tag_392:\n        /* \"#utility.yul\":18712:18715   */\n      0x00\n        /* \"#utility.yul\":18733:18800   */\n      tag_602\n        /* \"#utility.yul\":18797:18799   */\n      0x1c\n        /* \"#utility.yul\":18792:18795   */\n      dup4\n        /* \"#utility.yul\":18733:18800   */\n      tag_371\n      jump\t// in\n    tag_602:\n        /* \"#utility.yul\":18726:18800   */\n      swap2\n      pop\n        /* \"#utility.yul\":18809:18902   */\n      tag_603\n        /* \"#utility.yul\":18898:18901   */\n      dup3\n        /* \"#utility.yul\":18809:18902   */\n      tag_391\n      jump\t// in\n    tag_603:\n        /* \"#utility.yul\":18927:18929   */\n      0x20\n        /* \"#utility.yul\":18922:18925   */\n      dup3\n        /* \"#utility.yul\":18918:18930   */\n      add\n        /* \"#utility.yul\":18911:18930   */\n      swap1\n      pop\n        /* \"#utility.yul\":18570:18936   */\n      swap2\n      swap1\n      pop\n      jump\t// out\n        /* \"#utility.yul\":18942:19361   */\n    tag_220:\n        /* \"#utility.yul\":19108:19112   */\n      0x00\n        /* \"#utility.yul\":19146:19148   */\n      0x20\n        /* \"#utility.yul\":19135:19144   */\n      dup3\n        /* \"#utility.yul\":19131:19149   */\n      add\n        /* \"#utility.yul\":19123:19149   */\n      swap1\n      pop\n        /* \"#utility.yul\":19195:19204   */\n      dup2\n        /* \"#utility.yul\":19189:19193   */\n      dup2\n        /* \"#utility.yul\":19185:19205   */\n      sub\n        /* \"#utility.yul\":19181:19182   */\n      0x00\n        /* \"#utility.yul\":19170:19179   */\n      dup4\n        /* \"#utility.yul\":19166:19183   */\n      add\n        /* \"#utility.yul\":19159:19206   */\n      mstore\n        /* \"#utility.yul\":19223:19354   */\n      tag_605\n        /* \"#utility.yul\":19349:19353   */\n      dup2\n        /* \"#utility.yul\":19223:19354   */\n      tag_392\n      jump\t// in\n    tag_605:\n        /* \"#utility.yul\":19215:19354   */\n      swap1\n      pop\n        /* \"#utility.yul\":18942:19361   */\n      swap2\n      swap1\n      pop\n      jump\t// out\n        /* \"#utility.yul\":19367:19545   */\n    tag_393:\n        /* \"#utility.yul\":19507:19537   */\n      0x434f4e4649473a2062616420736574746c65206475726174696f6e7300000000\n        /* \"#utility.yul\":19503:19504   */\n      0x00\n        /* \"#utility.yul\":19495:19501   */\n      dup3\n        /* \"#utility.yul\":19491:19505   */\n      add\n        /* \"#utility.yul\":19484:19538   */\n      mstore\n        /* \"#utility.yul\":19367:19545   */\n      pop\n      jump\t// out\n        /* \"#utility.yul\":19551:19917   */\n    tag_394:\n        /* \"#utility.yul\":19693:19696   */\n      0x00\n        /* \"#utility.yul\":19714:19781   */\n      tag_608\n        /* \"#utility.yul\":19778:19780   */\n      0x1c\n        /* \"#utility.yul\":19773:19776   */\n      dup4\n        /* \"#utility.yul\":19714:19781   */\n      tag_371\n      jump\t// in\n    tag_608:\n        /* \"#utility.yul\":19707:19781   */\n      swap2\n      pop\n        /* \"#utility.yul\":19790:19883   */\n      tag_609\n        /* \"#utility.yul\":19879:19882   */\n      dup3\n        /* \"#utility.yul\":19790:19883   */\n      tag_393\n      jump\t// in\n    tag_609:\n        /* \"#utility.yul\":19908:19910   */\n      0x20\n        /* \"#utility.yul\":19903:19906   */\n      dup3\n        /* \"#utility.yul\":19899:19911   */\n      add\n        /* \"#utility.yul\":19892:19911   */\n      swap1\n      pop\n        /* \"#utility.yul\":19551:19917   */\n      swap2\n      swap1\n      pop\n      jump\t// out\n        /* \"#utility.yul\":19923:20342   */\n    tag_224:\n        /* \"#utility.yul\":20089:20093   */\n      0x00\n        /* \"#utility.yul\":20127:20129   */\n      0x20\n        /* \"#utility.yul\":20116:20125   */\n      dup3\n        /* \"#utility.yul\":20112:20130   */\n      add\n        /* \"#utility.yul\":20104:20130   */\n      swap1\n      pop\n        /* \"#utility.yul\":20176:20185   */\n      dup2\n        /* \"#utility.yul\":20170:20174   */\n      dup2\n        /* \"#utility.yul\":20166:20186   */\n      sub\n        /* \"#utility.yul\":20162:20163   */\n      0x00\n        /* \"#utility.yul\":20151:20160   */\n      dup4\n        /* \"#utility.yul\":20147:20164   */\n      add\n        /* \"#utility.yul\":20140:20187   */\n      mstore\n        /* \"#utility.yul\":20204:20335   */\n      tag_611\n        /* \"#utility.yul\":20330:20334   */\n      dup2\n        /* \"#utility.yul\":20204:20335   */\n      tag_394\n      jump\t// in\n    tag_611:\n        /* \"#utility.yul\":20196:20335   */\n      swap1\n      pop\n        /* \"#utility.yul\":19923:20342   */\n      swap2\n      swap1\n      pop\n      jump\t// out\n        /* \"#utility.yul\":20348:20523   */\n    tag_395:\n        /* \"#utility.yul\":20488:20515   */\n      0x434f4e4649473a20626164207265736572766520707269636500000000000000\n        /* \"#utility.yul\":20484:20485   */\n      0x00\n        /* \"#utility.yul\":20476:20482   */\n      dup3\n        /* \"#utility.yul\":20472:20486   */\n      add\n        /* \"#utility.yul\":20465:20516   */\n      mstore\n        /* \"#utility.yul\":20348:20523   */\n      pop\n      jump\t// out\n        /* \"#utility.yul\":20529:20895   */\n    tag_396:\n        /* \"#utility.yul\":20671:20674   */\n      0x00\n        /* \"#utility.yul\":20692:20759   */\n      tag_614\n        /* \"#utility.yul\":20756:20758   */\n      0x19\n        /* \"#utility.yul\":20751:20754   */\n      dup4\n        /* \"#utility.yul\":20692:20759   */\n      tag_371\n      jump\t// in\n    tag_614:\n        /* \"#utility.yul\":20685:20759   */\n      swap2\n      pop\n        /* \"#utility.yul\":20768:20861   */\n      tag_615\n        /* \"#utility.yul\":20857:20860   */\n      dup3\n        /* \"#utility.yul\":20768:20861   */\n      tag_395\n      jump\t// in\n    tag_615:\n        /* \"#utility.yul\":20886:20888   */\n      0x20\n        /* \"#utility.yul\":20881:20884   */\n      dup3\n        /* \"#utility.yul\":20877:20889   */\n      add\n        /* \"#utility.yul\":20870:20889   */\n      swap1\n      pop\n        /* \"#utility.yul\":20529:20895   */\n      swap2\n      swap1\n      pop\n      jump\t// out\n        /* \"#utility.yul\":20901:21320   */\n    tag_228:\n        /* \"#utility.yul\":21067:21071   */\n      0x00\n        /* \"#utility.yul\":21105:21107   */\n      0x20\n        /* \"#utility.yul\":21094:21103   */\n      dup3\n        /* \"#utility.yul\":21090:21108   */\n      add\n        /* \"#utility.yul\":21082:21108   */\n      swap1\n      pop\n        /* \"#utility.yul\":21154:21163   */\n      dup2\n        /* \"#utility.yul\":21148:21152   */\n      dup2\n        /* \"#utility.yul\":21144:21164   */\n      sub\n        /* \"#utility.yul\":21140:21141   */\n      0x00\n        /* \"#utility.yul\":21129:21138   */\n      dup4\n        /* \"#utility.yul\":21125:21142   */\n      add\n        /* \"#utility.yul\":21118:21165   */\n      mstore\n        /* \"#utility.yul\":21182:21313   */\n      tag_617\n        /* \"#utility.yul\":21308:21312   */\n      dup2\n        /* \"#utility.yul\":21182:21313   */\n      tag_396\n      jump\t// in\n    tag_617:\n        /* \"#utility.yul\":21174:21313   */\n      swap1\n      pop\n        /* \"#utility.yul\":20901:21320   */\n      swap2\n      swap1\n      pop\n      jump\t// out\n        /* \"#utility.yul\":21326:21469   */\n    tag_397:\n        /* \"#utility.yul\":21383:21388   */\n      0x00\n        /* \"#utility.yul\":21414:21420   */\n      dup2\n        /* \"#utility.yul\":21408:21421   */\n      mload\n        /* \"#utility.yul\":21399:21421   */\n      swap1\n      pop\n        /* \"#utility.yul\":21430:21463   */\n      tag_619\n        /* \"#utility.yul\":21457:21462   */\n      dup2\n        /* \"#utility.yul\":21430:21463   */\n      tag_346\n      jump\t// in\n    tag_619:\n        /* \"#utility.yul\":21326:21469   */\n      swap3\n      swap2\n      pop\n      pop\n      jump\t// out\n        /* \"#utility.yul\":21475:21826   */\n    tag_233:\n        /* \"#utility.yul\":21545:21551   */\n      0x00\n        /* \"#utility.yul\":21594:21596   */\n      0x20\n        /* \"#utility.yul\":21582:21591   */\n      dup3\n        /* \"#utility.yul\":21573:21580   */\n      dup5\n        /* \"#utility.yul\":21569:21592   */\n      sub\n        /* \"#utility.yul\":21565:21597   */\n      slt\n        /* \"#utility.yul\":21562:21681   */\n      iszero\n      tag_621\n      jumpi\n        /* \"#utility.yul\":21600:21679   */\n      tag_622\n      tag_342\n      jump\t// in\n    tag_622:\n        /* \"#utility.yul\":21562:21681   */\n    tag_621:\n        /* \"#utility.yul\":21720:21721   */\n      0x00\n        /* \"#utility.yul\":21745:21809   */\n      tag_623\n        /* \"#utility.yul\":21801:21808   */\n      dup5\n        /* \"#utility.yul\":21792:21798   */\n      dup3\n        /* \"#utility.yul\":21781:21790   */\n      dup6\n        /* \"#utility.yul\":21777:21799   */\n      add\n        /* \"#utility.yul\":21745:21809   */\n      tag_397\n      jump\t// in\n    tag_623:\n        /* \"#utility.yul\":21735:21809   */\n      swap2\n      pop\n        /* \"#utility.yul\":21691:21819   */\n      pop\n        /* \"#utility.yul\":21475:21826   */\n      swap3\n      swap2\n      pop\n      pop\n      jump\t// out\n        /* \"#utility.yul\":21832:21991   */\n    tag_398:\n        /* \"#utility.yul\":21972:21983   */\n      0x6e6f74206f776e65720000000000000000000000000000000000000000000000\n        /* \"#utility.yul\":21968:21969   */\n      0x00\n        /* \"#utility.yul\":21960:21966   */\n      dup3\n        /* \"#utility.yul\":21956:21970   */\n      add\n        /* \"#utility.yul\":21949:21984   */\n      mstore\n        /* \"#utility.yul\":21832:21991   */\n      pop\n      jump\t// out\n        /* \"#utility.yul\":21997:22362   */\n    tag_399:\n        /* \"#utility.yul\":22139:22142   */\n      0x00\n        /* \"#utility.yul\":22160:22226   */\n      tag_626\n        /* \"#utility.yul\":22224:22225   */\n      0x09\n        /* \"#utility.yul\":22219:22222   */\n      dup4\n        /* \"#utility.yul\":22160:22226   */\n      tag_371\n      jump\t// in\n    tag_626:\n        /* \"#utility.yul\":22153:22226   */\n      swap2\n      pop\n        /* \"#utility.yul\":22235:22328   */\n      tag_627\n        /* \"#utility.yul\":22324:22327   */\n      dup3\n        /* \"#utility.yul\":22235:22328   */\n      tag_398\n      jump\t// in\n    tag_627:\n        /* \"#utility.yul\":22353:22355   */\n      0x20\n        /* \"#utility.yul\":22348:22351   */\n      dup3\n        /* \"#utility.yul\":22344:22356   */\n      add\n        /* \"#utility.yul\":22337:22356   */\n      swap1\n      pop\n        /* \"#utility.yul\":21997:22362   */\n      swap2\n      swap1\n      pop\n      jump\t// out\n        /* \"#utility.yul\":22368:22787   */\n    tag_236:\n        /* \"#utility.yul\":22534:22538   */\n      0x00\n        /* \"#utility.yul\":22572:22574   */\n      0x20\n        /* \"#utility.yul\":22561:22570   */\n      dup3\n        /* \"#utility.yul\":22557:22575   */\n      add\n        /* \"#utility.yul\":22549:22575   */\n      swap1\n      pop\n        /* \"#utility.yul\":22621:22630   */\n      dup2\n        /* \"#utility.yul\":22615:22619   */\n      dup2\n        /* \"#utility.yul\":22611:22631   */\n      sub\n        /* \"#utility.yul\":22607:22608   */\n      0x00\n        /* \"#utility.yul\":22596:22605   */\n      dup4\n        /* \"#utility.yul\":22592:22609   */\n      add\n        /* \"#utility.yul\":22585:22632   */\n      mstore\n        /* \"#utility.yul\":22649:22780   */\n      tag_629\n        /* \"#utility.yul\":22775:22779   */\n      dup2\n        /* \"#utility.yul\":22649:22780   */\n      tag_399\n      jump\t// in\n    tag_629:\n        /* \"#utility.yul\":22641:22780   */\n      swap1\n      pop\n        /* \"#utility.yul\":22368:22787   */\n      swap2\n      swap1\n      pop\n      jump\t// out\n        /* \"#utility.yul\":22793:22973   */\n    tag_400:\n        /* \"#utility.yul\":22841:22918   */\n      0x4e487b7100000000000000000000000000000000000000000000000000000000\n        /* \"#utility.yul\":22838:22839   */\n      0x00\n        /* \"#utility.yul\":22831:22919   */\n      mstore\n        /* \"#utility.yul\":22938:22942   */\n      0x12\n        /* \"#utility.yul\":22935:22936   */\n      0x04\n        /* \"#utility.yul\":22928:22943   */\n      mstore\n        /* \"#utility.yul\":22962:22966   */\n      0x24\n        /* \"#utility.yul\":22959:22960   */\n      0x00\n        /* \"#utility.yul\":22952:22967   */\n      revert\n        /* \"#utility.yul\":22979:23164   */\n    tag_240:\n        /* \"#utility.yul\":23019:23020   */\n      0x00\n        /* \"#utility.yul\":23036:23056   */\n      tag_632\n        /* \"#utility.yul\":23054:23055   */\n      dup3\n        /* \"#utility.yul\":23036:23056   */\n      tag_339\n      jump\t// in\n    tag_632:\n        /* \"#utility.yul\":23031:23056   */\n      swap2\n      pop\n        /* \"#utility.yul\":23070:23090   */\n      tag_633\n        /* \"#utility.yul\":23088:23089   */\n      dup4\n        /* \"#utility.yul\":23070:23090   */\n      tag_339\n      jump\t// in\n    tag_633:\n        /* \"#utility.yul\":23065:23090   */\n      swap3\n      pop\n        /* \"#utility.yul\":23109:23110   */\n      dup3\n        /* \"#utility.yul\":23099:23134   */\n      tag_634\n      jumpi\n        /* \"#utility.yul\":23114:23132   */\n      tag_635\n      tag_400\n      jump\t// in\n    tag_635:\n        /* \"#utility.yul\":23099:23134   */\n    tag_634:\n        /* \"#utility.yul\":23156:23157   */\n      dup3\n        /* \"#utility.yul\":23153:23154   */\n      dup3\n        /* \"#utility.yul\":23149:23158   */\n      div\n        /* \"#utility.yul\":23144:23158   */\n      swap1\n      pop\n        /* \"#utility.yul\":22979:23164   */\n      swap3\n      swap2\n      pop\n      pop\n      jump\t// out\n        /* \"#utility.yul\":23170:23310   */\n    tag_401:\n        /* \"#utility.yul\":23219:23228   */\n      0x00\n        /* \"#utility.yul\":23252:23304   */\n      tag_637\n        /* \"#utility.yul\":23270:23303   */\n      tag_638\n        /* \"#utility.yul\":23279:23302   */\n      tag_639\n        /* \"#utility.yul\":23296:23301   */\n      dup5\n        /* \"#utility.yul\":23279:23302   */\n      tag_365\n      jump\t// in\n    tag_639:\n        /* \"#utility.yul\":23270:23303   */\n      tag_356\n      jump\t// in\n    tag_638:\n        /* \"#utility.yul\":23252:23304   */\n      tag_339\n      jump\t// in\n    tag_637:\n        /* \"#utility.yul\":23239:23304   */\n      swap1\n      pop\n        /* \"#utility.yul\":23170:23310   */\n      swap2\n      swap1\n      pop\n      jump\t// out\n        /* \"#utility.yul\":23316:23445   */\n    tag_402:\n        /* \"#utility.yul\":23402:23438   */\n      tag_641\n        /* \"#utility.yul\":23432:23437   */\n      dup2\n        /* \"#utility.yul\":23402:23438   */\n      tag_401\n      jump\t// in\n    tag_641:\n        /* \"#utility.yul\":23397:23400   */\n      dup3\n        /* \"#utility.yul\":23390:23439   */\n      mstore\n        /* \"#utility.yul\":23316:23445   */\n      pop\n      pop\n      jump\t// out\n        /* \"#utility.yul\":23451:24323   */\n    tag_247:\n        /* \"#utility.yul\":23705:23709   */\n      0x00\n        /* \"#utility.yul\":23743:23746   */\n      0xe0\n        /* \"#utility.yul\":23732:23741   */\n      dup3\n        /* \"#utility.yul\":23728:23747   */\n      add\n        /* \"#utility.yul\":23720:23747   */\n      swap1\n      pop\n        /* \"#utility.yul\":23757:23828   */\n      tag_643\n        /* \"#utility.yul\":23825:23826   */\n      0x00\n        /* \"#utility.yul\":23814:23823   */\n      dup4\n        /* \"#utility.yul\":23810:23827   */\n      add\n        /* \"#utility.yul\":23801:23807   */\n      dup11\n        /* \"#utility.yul\":23757:23828   */\n      tag_340\n      jump\t// in\n    tag_643:\n        /* \"#utility.yul\":23838:23910   */\n      tag_644\n        /* \"#utility.yul\":23906:23908   */\n      0x20\n        /* \"#utility.yul\":23895:23904   */\n      dup4\n        /* \"#utility.yul\":23891:23909   */\n      add\n        /* \"#utility.yul\":23882:23888   */\n      dup10\n        /* \"#utility.yul\":23838:23910   */\n      tag_340\n      jump\t// in\n    tag_644:\n        /* \"#utility.yul\":23920:23992   */\n      tag_645\n        /* \"#utility.yul\":23988:23990   */\n      0x40\n        /* \"#utility.yul\":23977:23986   */\n      dup4\n        /* \"#utility.yul\":23973:23991   */\n      add\n        /* \"#utility.yul\":23964:23970   */\n      dup9\n        /* \"#utility.yul\":23920:23992   */\n      tag_340\n      jump\t// in\n    tag_645:\n        /* \"#utility.yul\":24002:24073   */\n      tag_646\n        /* \"#utility.yul\":24069:24071   */\n      0x60\n        /* \"#utility.yul\":24058:24067   */\n      dup4\n        /* \"#utility.yul\":24054:24072   */\n      add\n        /* \"#utility.yul\":24045:24051   */\n      dup8\n        /* \"#utility.yul\":24002:24073   */\n      tag_402\n      jump\t// in\n    tag_646:\n        /* \"#utility.yul\":24083:24154   */\n      tag_647\n        /* \"#utility.yul\":24149:24152   */\n      0x80\n        /* \"#utility.yul\":24138:24147   */\n      dup4\n        /* \"#utility.yul\":24134:24153   */\n      add\n        /* \"#utility.yul\":24125:24131   */\n      dup7\n        /* \"#utility.yul\":24083:24154   */\n      tag_366\n      jump\t// in\n    tag_647:\n        /* \"#utility.yul\":24164:24235   */\n      tag_648\n        /* \"#utility.yul\":24230:24233   */\n      0xa0\n        /* \"#utility.yul\":24219:24228   */\n      dup4\n        /* \"#utility.yul\":24215:24234   */\n      add\n        /* \"#utility.yul\":24206:24212   */\n      dup6\n        /* \"#utility.yul\":24164:24235   */\n      tag_366\n      jump\t// in\n    tag_648:\n        /* \"#utility.yul\":24245:24316   */\n      tag_649\n        /* \"#utility.yul\":24311:24314   */\n      0xc0\n        /* \"#utility.yul\":24300:24309   */\n      dup4\n        /* \"#utility.yul\":24296:24315   */\n      add\n        /* \"#utility.yul\":24287:24293   */\n      dup5\n        /* \"#utility.yul\":24245:24316   */\n      tag_366\n      jump\t// in\n    tag_649:\n        /* \"#utility.yul\":23451:24323   */\n      swap9\n      swap8\n      pop\n      pop\n      pop\n      pop\n      pop\n      pop\n      pop\n      pop\n      jump\t// out\n        /* \"#utility.yul\":24329:24493   */\n    tag_403:\n        /* \"#utility.yul\":24469:24485   */\n      0x4e46543a206e6f74206f776e6572000000000000000000000000000000000000\n        /* \"#utility.yul\":24465:24466   */\n      0x00\n        /* \"#utility.yul\":24457:24463   */\n      dup3\n        /* \"#utility.yul\":24453:24467   */\n      add\n        /* \"#utility.yul\":24446:24486   */\n      mstore\n        /* \"#utility.yul\":24329:24493   */\n      pop\n      jump\t// out\n        /* \"#utility.yul\":24499:24865   */\n    tag_404:\n        /* \"#utility.yul\":24641:24644   */\n      0x00\n        /* \"#utility.yul\":24662:24729   */\n      tag_652\n        /* \"#utility.yul\":24726:24728   */\n      0x0e\n        /* \"#utility.yul\":24721:24724   */\n      dup4\n        /* \"#utility.yul\":24662:24729   */\n      tag_371\n      jump\t// in\n    tag_652:\n        /* \"#utility.yul\":24655:24729   */\n      swap2\n      pop\n        /* \"#utility.yul\":24738:24831   */\n      tag_653\n        /* \"#utility.yul\":24827:24830   */\n      dup3\n        /* \"#utility.yul\":24738:24831   */\n      tag_403\n      jump\t// in\n    tag_653:\n        /* \"#utility.yul\":24856:24858   */\n      0x20\n        /* \"#utility.yul\":24851:24854   */\n      dup3\n        /* \"#utility.yul\":24847:24859   */\n      add\n        /* \"#utility.yul\":24840:24859   */\n      swap1\n      pop\n        /* \"#utility.yul\":24499:24865   */\n      swap2\n      swap1\n      pop\n      jump\t// out\n        /* \"#utility.yul\":24871:25290   */\n    tag_316:\n        /* \"#utility.yul\":25037:25041   */\n      0x00\n        /* \"#utility.yul\":25075:25077   */\n      0x20\n        /* \"#utility.yul\":25064:25073   */\n      dup3\n        /* \"#utility.yul\":25060:25078   */\n      add\n        /* \"#utility.yul\":25052:25078   */\n      swap1\n      pop\n        /* \"#utility.yul\":25124:25133   */\n      dup2\n        /* \"#utility.yul\":25118:25122   */\n      dup2\n        /* \"#utility.yul\":25114:25134   */\n      sub\n        /* \"#utility.yul\":25110:25111   */\n      0x00\n        /* \"#utility.yul\":25099:25108   */\n      dup4\n        /* \"#utility.yul\":25095:25112   */\n      add\n        /* \"#utility.yul\":25088:25135   */\n      mstore\n        /* \"#utility.yul\":25152:25283   */\n      tag_655\n        /* \"#utility.yul\":25278:25282   */\n      dup2\n        /* \"#utility.yul\":25152:25283   */\n      tag_404\n      jump\t// in\n    tag_655:\n        /* \"#utility.yul\":25144:25283   */\n      swap1\n      pop\n        /* \"#utility.yul\":24871:25290   */\n      swap2\n      swap1\n      pop\n      jump\t// out\n        /* \"#utility.yul\":25296:25628   */\n    tag_324:\n        /* \"#utility.yul\":25417:25421   */\n      0x00\n        /* \"#utility.yul\":25455:25457   */\n      0x40\n        /* \"#utility.yul\":25444:25453   */\n      dup3\n        /* \"#utility.yul\":25440:25458   */\n      add\n        /* \"#utility.yul\":25432:25458   */\n      swap1\n      pop\n        /* \"#utility.yul\":25468:25539   */\n      tag_657\n        /* \"#utility.yul\":25536:25537   */\n      0x00\n        /* \"#utility.yul\":25525:25534   */\n      dup4\n        /* \"#utility.yul\":25521:25538   */\n      add\n        /* \"#utility.yul\":25512:25518   */\n      dup6\n        /* \"#utility.yul\":25468:25539   */\n      tag_364\n      jump\t// in\n    tag_657:\n        /* \"#utility.yul\":25549:25621   */\n      tag_658\n        /* \"#utility.yul\":25617:25619   */\n      0x20\n        /* \"#utility.yul\":25606:25615   */\n      dup4\n        /* \"#utility.yul\":25602:25620   */\n      add\n        /* \"#utility.yul\":25593:25599   */\n      dup5\n        /* \"#utility.yul\":25549:25621   */\n      tag_364\n      jump\t// in\n    tag_658:\n        /* \"#utility.yul\":25296:25628   */\n      swap4\n      swap3\n      pop\n      pop\n      pop\n      jump\t// out\n        /* \"#utility.yul\":25634:25724   */\n    tag_405:\n        /* \"#utility.yul\":25668:25675   */\n      0x00\n        /* \"#utility.yul\":25711:25716   */\n      dup2\n        /* \"#utility.yul\":25704:25717   */\n      iszero\n        /* \"#utility.yul\":25697:25718   */\n      iszero\n        /* \"#utility.yul\":25686:25718   */\n      swap1\n      pop\n        /* \"#utility.yul\":25634:25724   */\n      swap2\n      swap1\n      pop\n      jump\t// out\n        /* \"#utility.yul\":25730:25846   */\n    tag_406:\n        /* \"#utility.yul\":25800:25821   */\n      tag_661\n        /* \"#utility.yul\":25815:25820   */\n      dup2\n        /* \"#utility.yul\":25800:25821   */\n      tag_405\n      jump\t// in\n    tag_661:\n        /* \"#utility.yul\":25793:25798   */\n      dup2\n        /* \"#utility.yul\":25790:25822   */\n      eq\n        /* \"#utility.yul\":25780:25840   */\n      tag_662\n      jumpi\n        /* \"#utility.yul\":25836:25837   */\n      0x00\n        /* \"#utility.yul\":25833:25834   */\n      0x00\n        /* \"#utility.yul\":25826:25838   */\n      revert\n        /* \"#utility.yul\":25780:25840   */\n    tag_662:\n        /* \"#utility.yul\":25730:25846   */\n      pop\n      jump\t// out\n        /* \"#utility.yul\":25852:25989   */\n    tag_407:\n        /* \"#utility.yul\":25906:25911   */\n      0x00\n        /* \"#utility.yul\":25937:25943   */\n      dup2\n        /* \"#utility.yul\":25931:25944   */\n      mload\n        /* \"#utility.yul\":25922:25944   */\n      swap1\n      pop\n        /* \"#utility.yul\":25953:25983   */\n      tag_664\n        /* \"#utility.yul\":25977:25982   */\n      dup2\n        /* \"#utility.yul\":25953:25983   */\n      tag_406\n      jump\t// in\n    tag_664:\n        /* \"#utility.yul\":25852:25989   */\n      swap3\n      swap2\n      pop\n      pop\n      jump\t// out\n        /* \"#utility.yul\":25995:26340   */\n    tag_328:\n        /* \"#utility.yul\":26062:26068   */\n      0x00\n        /* \"#utility.yul\":26111:26113   */\n      0x20\n        /* \"#utility.yul\":26099:26108   */\n      dup3\n        /* \"#utility.yul\":26090:26097   */\n      dup5\n        /* \"#utility.yul\":26086:26109   */\n      sub\n        /* \"#utility.yul\":26082:26114   */\n      slt\n        /* \"#utility.yul\":26079:26198   */\n      iszero\n      tag_666\n      jumpi\n        /* \"#utility.yul\":26117:26196   */\n      tag_667\n      tag_342\n      jump\t// in\n    tag_667:\n        /* \"#utility.yul\":26079:26198   */\n    tag_666:\n        /* \"#utility.yul\":26237:26238   */\n      0x00\n        /* \"#utility.yul\":26262:26323   */\n      tag_668\n        /* \"#utility.yul\":26315:26322   */\n      dup5\n        /* \"#utility.yul\":26306:26312   */\n      dup3\n        /* \"#utility.yul\":26295:26304   */\n      dup6\n        /* \"#utility.yul\":26291:26313   */\n      add\n        /* \"#utility.yul\":26262:26323   */\n      tag_407\n      jump\t// in\n    tag_668:\n        /* \"#utility.yul\":26252:26323   */\n      swap2\n      pop\n        /* \"#utility.yul\":26208:26333   */\n      pop\n        /* \"#utility.yul\":25995:26340   */\n      swap3\n      swap2\n      pop\n      pop\n      jump\t// out\n        /* \"#utility.yul\":26346:26513   */\n    tag_408:\n        /* \"#utility.yul\":26486:26505   */\n      0x4e46543a206e6f7420617070726f766564000000000000000000000000000000\n        /* \"#utility.yul\":26482:26483   */\n      0x00\n        /* \"#utility.yul\":26474:26480   */\n      dup3\n        /* \"#utility.yul\":26470:26484   */\n      add\n        /* \"#utility.yul\":26463:26506   */\n      mstore\n        /* \"#utility.yul\":26346:26513   */\n      pop\n      jump\t// out\n        /* \"#utility.yul\":26519:26885   */\n    tag_409:\n        /* \"#utility.yul\":26661:26664   */\n      0x00\n        /* \"#utility.yul\":26682:26749   */\n      tag_671\n        /* \"#utility.yul\":26746:26748   */\n      0x11\n        /* \"#utility.yul\":26741:26744   */\n      dup4\n        /* \"#utility.yul\":26682:26749   */\n      tag_371\n      jump\t// in\n    tag_671:\n        /* \"#utility.yul\":26675:26749   */\n      swap2\n      pop\n        /* \"#utility.yul\":26758:26851   */\n      tag_672\n        /* \"#utility.yul\":26847:26850   */\n      dup3\n        /* \"#utility.yul\":26758:26851   */\n      tag_408\n      jump\t// in\n    tag_672:\n        /* \"#utility.yul\":26876:26878   */\n      0x20\n        /* \"#utility.yul\":26871:26874   */\n      dup3\n        /* \"#utility.yul\":26867:26879   */\n      add\n        /* \"#utility.yul\":26860:26879   */\n      swap1\n      pop\n        /* \"#utility.yul\":26519:26885   */\n      swap2\n      swap1\n      pop\n      jump\t// out\n        /* \"#utility.yul\":26891:27310   */\n    tag_331:\n        /* \"#utility.yul\":27057:27061   */\n      0x00\n        /* \"#utility.yul\":27095:27097   */\n      0x20\n        /* \"#utility.yul\":27084:27093   */\n      dup3\n        /* \"#utility.yul\":27080:27098   */\n      add\n        /* \"#utility.yul\":27072:27098   */\n      swap1\n      pop\n        /* \"#utility.yul\":27144:27153   */\n      dup2\n        /* \"#utility.yul\":27138:27142   */\n      dup2\n        /* \"#utility.yul\":27134:27154   */\n      sub\n        /* \"#utility.yul\":27130:27131   */\n      0x00\n        /* \"#utility.yul\":27119:27128   */\n      dup4\n        /* \"#utility.yul\":27115:27132   */\n      add\n        /* \"#utility.yul\":27108:27155   */\n      mstore\n        /* \"#utility.yul\":27172:27303   */\n      tag_674\n        /* \"#utility.yul\":27298:27302   */\n      dup2\n        /* \"#utility.yul\":27172:27303   */\n      tag_409\n      jump\t// in\n    tag_674:\n        /* \"#utility.yul\":27164:27303   */\n      swap1\n      pop\n        /* \"#utility.yul\":26891:27310   */\n      swap2\n      swap1\n      pop\n      jump\t// out\n        /* \"#utility.yul\":27316:27758   */\n    tag_333:\n        /* \"#utility.yul\":27465:27469   */\n      0x00\n        /* \"#utility.yul\":27503:27505   */\n      0x60\n        /* \"#utility.yul\":27492:27501   */\n      dup3\n        /* \"#utility.yul\":27488:27506   */\n      add\n        /* \"#utility.yul\":27480:27506   */\n      swap1\n      pop\n        /* \"#utility.yul\":27516:27587   */\n      tag_676\n        /* \"#utility.yul\":27584:27585   */\n      0x00\n        /* \"#utility.yul\":27573:27582   */\n      dup4\n        /* \"#utility.yul\":27569:27586   */\n      add\n        /* \"#utility.yul\":27560:27566   */\n      dup7\n        /* \"#utility.yul\":27516:27587   */\n      tag_364\n      jump\t// in\n    tag_676:\n        /* \"#utility.yul\":27597:27669   */\n      tag_677\n        /* \"#utility.yul\":27665:27667   */\n      0x20\n        /* \"#utility.yul\":27654:27663   */\n      dup4\n        /* \"#utility.yul\":27650:27668   */\n      add\n        /* \"#utility.yul\":27641:27647   */\n      dup6\n        /* \"#utility.yul\":27597:27669   */\n      tag_364\n      jump\t// in\n    tag_677:\n        /* \"#utility.yul\":27679:27751   */\n      tag_678\n        /* \"#utility.yul\":27747:27749   */\n      0x40\n        /* \"#utility.yul\":27736:27745   */\n      dup4\n        /* \"#utility.yul\":27732:27750   */\n      add\n        /* \"#utility.yul\":27723:27729   */\n      dup5\n        /* \"#utility.yul\":27679:27751   */\n      tag_340\n      jump\t// in\n    tag_678:\n        /* \"#utility.yul\":27316:27758   */\n      swap5\n      swap4\n      pop\n      pop\n      pop\n      pop\n      jump\t// out\n\n    auxdata: 0xa26469706673582212205424b2b6db1667dbffc38759bf81c323179e852951cb1475f89a1757ec43dc7b64736f6c634300081e0033\n}\n",
				"bytecode": {
					"linkReferences": {},
					"object": "60a060405260015f55731546bd67237122754d3f0cb761c139f81388b21073ffffffffffffffffffffffffffffffffffffffff1660809073ffffffffffffffffffffffffffffffffffffffff1681525034801561005a575f5ffd5b50608051613f7f61009d5f395f8181610b6801528181611b9601528181611e3401528181612e0801528181612f4001528181612ff501526130d00152613f7f5ff3fe608060405260043610610129575f3560e01c806386a2cc27116100aa578063b1fb64051161006e578063b1fb6405146103a3578063c8f97366146103df578063d3851f4c14610407578063d3aa699e14610443578063de75a5c014610482578063e9906f2e146104be57610129565b806386a2cc27146102dd578063894da478146102f957806389fb268214610321578063a0743f221461035d578063b1724b461461037957610129565b806362c5424a116100f157806362c5424a146101fd5780636b1da3641461022557806371d946b4146102635780637cf2ed221461028b578063813abc2d146102a157610129565b806301c11d961461012d57806310782f8f14610157578063150b7a02146101815780634bb278f3146101bd5780635e7721f7146101d3575b5f5ffd5b348015610138575f5ffd5b506101416104c8565b60405161014e9190613216565b60405180910390f35b348015610162575f5ffd5b5061016b6104d8565b6040516101789190613216565b60405180910390f35b34801561018c575f5ffd5b506101a760048036038101906101a2919061331c565b6104de565b6040516101b491906133da565b60405180910390f35b3480156101c8575f5ffd5b506101d16104f2565b005b3480156101de575f5ffd5b506101e7610b66565b6040516101f4919061344e565b60405180910390f35b348015610208575f5ffd5b50610223600480360381019061021e919061349a565b610b8a565b005b348015610230575f5ffd5b5061024b600480360381019061024691906134d8565b611071565b60405161025a93929190613534565b60405180910390f35b34801561026e575f5ffd5b50610289600480360381019061028491906134d8565b6110d0565b005b348015610296575f5ffd5b5061029f61135f565b005b3480156102ac575f5ffd5b506102c760048036038101906102c29190613569565b6115ec565b6040516102d49190613216565b60405180910390f35b6102f760048036038101906102f291906135a7565b611642565b005b348015610304575f5ffd5b5061031f600480360381019061031a91906135fc565b611985565b005b34801561032c575f5ffd5b5061034760048036038101906103429190613569565b611f32565b6040516103549190613682565b60405180910390f35b610377600480360381019061037291906134d8565b611f88565b005b348015610384575f5ffd5b5061038d6122d8565b60405161039a9190613216565b60405180910390f35b3480156103ae575f5ffd5b506103c960048036038101906103c491906134d8565b6122df565b6040516103d6919061370b565b60405180910390f35b3480156103ea575f5ffd5b50610405600480360381019061040091906134d8565b612550565b005b348015610412575f5ffd5b5061042d60048036038101906104289190613569565b6128bf565b60405161043a919061372b565b60405180910390f35b34801561044e575f5ffd5b50610469600480360381019061046491906134d8565b612928565b6040516104799493929190613744565b60405180910390f35b34801561048d575f5ffd5b506104a860048036038101906104a39190613569565b6129aa565b6040516104b59190613216565b60405180910390f35b6104c6612a00565b005b6b033b2e3c9fd0803ce800000081565b60015481565b5f63150b7a0260e01b905095945050505050565b5f6104fb612d4e565b90508060040160109054906101000a900467ffffffffffffffff1667ffffffffffffffff16421015610558576040517ee8f46600000000000000000000000000000000000000000000000000000000815260040160405180910390fd5b806009015f9054906101000a900460ff16156105a9576040517f08c379a00000000000000000000000000000000000000000000000000000000081526004016105a0906137d1565b60405180910390fd5b6001816009015f6101000a81548160ff0219169083151502179055505f73ffffffffffffffffffffffffffffffffffffffff168160050160089054906101000a900473ffffffffffffffffffffffffffffffffffffffff1673ffffffffffffffffffffffffffffffffffffffff16036106a8575f816008018190555060018160090160016101000a81548160ff02191690831515021790555061067330826001015f9054906101000a900473ffffffffffffffffffffffffffffffffffffffff16835f0154612def565b6001547fa761d07fdb0a6897f18726f15d43008d6c30ce08e44a91775cfd2ef3b61cdad060405160405180910390a250610b64565b5f81600201548260070154106106c25781600701546106c8565b81600201545b905081600c015f8360050160089054906101000a900473ffffffffffffffffffffffffffffffffffffffff1673ffffffffffffffffffffffffffffffffffffffff1673ffffffffffffffffffffffffffffffffffffffff1681526020019081526020015f205481106108ec575f82600c015f8460050160089054906101000a900473ffffffffffffffffffffffffffffffffffffffff1673ffffffffffffffffffffffffffffffffffffffff1673ffffffffffffffffffffffffffffffffffffffff1681526020019081526020015f2054826107a4919061381c565b90508083600801819055505f83600c015f8560050160089054906101000a900473ffffffffffffffffffffffffffffffffffffffff1673ffffffffffffffffffffffffffffffffffffffff1673ffffffffffffffffffffffffffffffffffffffff1681526020019081526020015f205490505f84600c015f8660050160089054906101000a900473ffffffffffffffffffffffffffffffffffffffff1673ffffffffffffffffffffffffffffffffffffffff1673ffffffffffffffffffffffffffffffffffffffff1681526020019081526020015f20819055508084600c015f866001015f9054906101000a900473ffffffffffffffffffffffffffffffffffffffff1673ffffffffffffffffffffffffffffffffffffffff1673ffffffffffffffffffffffffffffffffffffffff1681526020019081526020015f20819055505050610aa4565b81600c015f8360050160089054906101000a900473ffffffffffffffffffffffffffffffffffffffff1673ffffffffffffffffffffffffffffffffffffffff1673ffffffffffffffffffffffffffffffffffffffff1681526020019081526020015f2054811015610aa3575f8183600c015f8560050160089054906101000a900473ffffffffffffffffffffffffffffffffffffffff1673ffffffffffffffffffffffffffffffffffffffff1673ffffffffffffffffffffffffffffffffffffffff1681526020019081526020015f20546109c7919061381c565b90505f83600801819055508083600c015f8560050160089054906101000a900473ffffffffffffffffffffffffffffffffffffffff1673ffffffffffffffffffffffffffffffffffffffff1673ffffffffffffffffffffffffffffffffffffffff1681526020019081526020015f20819055508183600c015f856001015f9054906101000a900473ffffffffffffffffffffffffffffffffffffffff1673ffffffffffffffffffffffffffffffffffffffff1673ffffffffffffffffffffffffffffffffffffffff1681526020019081526020015f2081905550505b5b8160040160189054906101000a900467ffffffffffffffff1642610ac8919061384f565b826005015f6101000a81548167ffffffffffffffff021916908367ffffffffffffffff1602179055506001547f5ab4254a16d8f1486e035342f3b6736a5efdc0b79886e7525b374bb0ec9ebee18360050160089054906101000a900473ffffffffffffffffffffffffffffffffffffffff16846006015485600701548660080154604051610b59949392919061388a565b60405180910390a250505b565b7f000000000000000000000000000000000000000000000000000000000000000081565b5f610b93612d4e565b90505f4290508160040160089054906101000a900467ffffffffffffffff1667ffffffffffffffff16811080610beb57508160040160109054906101000a900467ffffffffffffffff1667ffffffffffffffff168110155b15610c22576040517f74683d7100000000000000000000000000000000000000000000000000000000815260040160405180910390fd5b5f82600d015f3373ffffffffffffffffffffffffffffffffffffffff1673ffffffffffffffffffffffffffffffffffffffff1681526020019081526020015f205414610c9a576040517f157330ee00000000000000000000000000000000000000000000000000000000815260040160405180910390fd5b5f82600a015f3373ffffffffffffffffffffffffffffffffffffffff1673ffffffffffffffffffffffffffffffffffffffff1681526020019081526020015f205490505f5f1b8103610d18576040517fc06789fa00000000000000000000000000000000000000000000000000000000815260040160405180910390fd5b808585604051602001610d2c92919061390d565b6040516020818303038152906040528051906020012014610d79576040517fc06789fa00000000000000000000000000000000000000000000000000000000815260040160405180910390fd5b8483600d015f3373ffffffffffffffffffffffffffffffffffffffff1673ffffffffffffffffffffffffffffffffffffffff1681526020019081526020015f20819055508260020154851015610dfb576040517f6b317d5600000000000000000000000000000000000000000000000000000000815260040160405180910390fd5b8260060154851115610ebd575f73ffffffffffffffffffffffffffffffffffffffff168360050160089054906101000a900473ffffffffffffffffffffffffffffffffffffffff1673ffffffffffffffffffffffffffffffffffffffff1614610e6c57826006015483600701819055505b848360060181905550338360050160086101000a81548173ffffffffffffffffffffffffffffffffffffffff021916908373ffffffffffffffffffffffffffffffffffffffff160217905550611019565b826006015485148015610fab575082600b015f8460050160089054906101000a900473ffffffffffffffffffffffffffffffffffffffff1673ffffffffffffffffffffffffffffffffffffffff1673ffffffffffffffffffffffffffffffffffffffff1681526020019081526020015f205f9054906101000a900467ffffffffffffffff1667ffffffffffffffff1683600b015f3373ffffffffffffffffffffffffffffffffffffffff1673ffffffffffffffffffffffffffffffffffffffff1681526020019081526020015f205f9054906101000a900467ffffffffffffffff1667ffffffffffffffff16105b1561100157848360060181905550338360050160086101000a81548173ffffffffffffffffffffffffffffffffffffffff021916908373ffffffffffffffffffffffffffffffffffffffff160217905550611018565b8260070154851115611017578483600701819055505b5b5b3373ffffffffffffffffffffffffffffffffffffffff166001547f86d2fbc9069d34216ebc65b38ce840528d3f8cac0c86d2aaa7ab6a9db8bc35d3876040516110629190613216565b60405180910390a35050505050565b5f5f5f5f61107e8561315d565b90508060050160089054906101000a900473ffffffffffffffffffffffffffffffffffffffff168160080154826005015f9054906101000a900467ffffffffffffffff16935093509350509193909250565b60025f5403611114576040517f08c379a000000000000000000000000000000000000000000000000000000000815260040161110b90613982565b60405180910390fd5b60025f819055505f6111258261315d565b9050806009015f9054906101000a900460ff1661116e576040517fd3018d1800000000000000000000000000000000000000000000000000000000815260040160405180910390fd5b5f81600c015f3373ffffffffffffffffffffffffffffffffffffffff1673ffffffffffffffffffffffffffffffffffffffff1681526020019081526020015f2054036111e6576040517f3a6a68b100000000000000000000000000000000000000000000000000000000815260040160405180910390fd5b5f81600c015f3373ffffffffffffffffffffffffffffffffffffffff1673ffffffffffffffffffffffffffffffffffffffff1681526020019081526020015f205490505f82600c015f3373ffffffffffffffffffffffffffffffffffffffff1673ffffffffffffffffffffffffffffffffffffffff1681526020019081526020015f20819055505f3373ffffffffffffffffffffffffffffffffffffffff1682604051611292906139cd565b5f6040518083038185875af1925050503d805f81146112cc576040519150601f19603f3d011682016040523d82523d5f602084013e6112d1565b606091505b505090508061130c576040517f750b219c00000000000000000000000000000000000000000000000000000000815260040160405180910390fd5b3373ffffffffffffffffffffffffffffffffffffffff166001547f47f74a265269aa6e5423fbcd9a74b3c8771a0c3a9c7cdfb7ebe375b288c06b4e60405160405180910390a350505060015f8190555050565b60025f54036113a3576040517f08c379a000000000000000000000000000000000000000000000000000000000815260040161139a90613982565b60405180910390fd5b60025f819055505f6113b3612d4e565b9050806009015f9054906101000a900460ff166113fc576040517fd3018d1800000000000000000000000000000000000000000000000000000000815260040160405180910390fd5b5f81600c015f3373ffffffffffffffffffffffffffffffffffffffff1673ffffffffffffffffffffffffffffffffffffffff1681526020019081526020015f205403611474576040517f3a6a68b100000000000000000000000000000000000000000000000000000000815260040160405180910390fd5b5f81600c015f3373ffffffffffffffffffffffffffffffffffffffff1673ffffffffffffffffffffffffffffffffffffffff1681526020019081526020015f205490505f82600c015f3373ffffffffffffffffffffffffffffffffffffffff1673ffffffffffffffffffffffffffffffffffffffff1681526020019081526020015f20819055505f3373ffffffffffffffffffffffffffffffffffffffff1682604051611520906139cd565b5f6040518083038185875af1925050503d805f811461155a576040519150601f19603f3d011682016040523d82523d5f602084013e61155f565b606091505b505090508061159a576040517f750b219c00000000000000000000000000000000000000000000000000000000815260040160405180910390fd5b3373ffffffffffffffffffffffffffffffffffffffff166001547f47f74a265269aa6e5423fbcd9a74b3c8771a0c3a9c7cdfb7ebe375b288c06b4e60405160405180910390a350505060015f81905550565b5f5f6115f78461315d565b905080600d015f8473ffffffffffffffffffffffffffffffffffffffff1673ffffffffffffffffffffffffffffffffffffffff1681526020019081526020015f205491505092915050565b5f61164b612d4e565b90508060040160089054906101000a900467ffffffffffffffff1667ffffffffffffffff164210158061169e5750806004015f9054906101000a900467ffffffffffffffff1667ffffffffffffffff1642105b156116d5576040517fabfb7dc300000000000000000000000000000000000000000000000000000000815260040160405180910390fd5b5f5f1b8203611710576040517fc06789fa00000000000000000000000000000000000000000000000000000000815260040160405180910390fd5b806001015f9054906101000a900473ffffffffffffffffffffffffffffffffffffffff1673ffffffffffffffffffffffffffffffffffffffff163373ffffffffffffffffffffffffffffffffffffffff1603611798576040517fef02588900000000000000000000000000000000000000000000000000000000815260040160405180910390fd5b806003015434146117d5576040517f603e3d3600000000000000000000000000000000000000000000000000000000815260040160405180910390fd5b806003015481600c015f3373ffffffffffffffffffffffffffffffffffffffff1673ffffffffffffffffffffffffffffffffffffffff1681526020019081526020015f205f82825461182791906139e1565b92505081905550600181600e015f8282829054906101000a900467ffffffffffffffff16611855919061384f565b92506101000a81548167ffffffffffffffff021916908367ffffffffffffffff16021790555080600e015f9054906101000a900467ffffffffffffffff1681600b015f3373ffffffffffffffffffffffffffffffffffffffff1673ffffffffffffffffffffffffffffffffffffffff1681526020019081526020015f205f6101000a81548167ffffffffffffffff021916908367ffffffffffffffff1602179055508181600a015f3373ffffffffffffffffffffffffffffffffffffffff1673ffffffffffffffffffffffffffffffffffffffff1681526020019081526020015f20819055503373ffffffffffffffffffffffffffffffffffffffff166001547f0934ea4de468dcd0d9a335c5f97aa77955310c29631c93fbd01d95a00242ec4160405160405180910390a35050565b5f600154146119f7575f60025f60015481526020019081526020015f2090508060090160019054906101000a900460ff166119f5576040517f08c379a00000000000000000000000000000000000000000000000000000000081526004016119ec90613a5e565b60405180910390fd5b505b5f8367ffffffffffffffff16118015611a1c575062278d008367ffffffffffffffff16105b611a5b576040517f08c379a0000000000000000000000000000000000000000000000000000000008152600401611a5290613ac6565b60405180910390fd5b5f8267ffffffffffffffff16118015611a80575062278d008267ffffffffffffffff16105b611abf576040517f08c379a0000000000000000000000000000000000000000000000000000000008152600401611ab690613b2e565b60405180910390fd5b5f8167ffffffffffffffff16118015611ae4575062278d008167ffffffffffffffff16105b611b23576040517f08c379a0000000000000000000000000000000000000000000000000000000008152600401611b1a90613b96565b60405180910390fd5b5f8410158015611b3e57506b033b2e3c9fd0803ce800000084105b611b7d576040517f08c379a0000000000000000000000000000000000000000000000000000000008152600401611b7490613bfe565b60405180910390fd5b3373ffffffffffffffffffffffffffffffffffffffff167f000000000000000000000000000000000000000000000000000000000000000073ffffffffffffffffffffffffffffffffffffffff16636352211e876040518263ffffffff1660e01b8152600401611bed9190613216565b602060405180830381865afa158015611c08573d5f5f3e3d5ffd5b505050506040513d601f19601f82011682018060405250810190611c2c9190613c30565b73ffffffffffffffffffffffffffffffffffffffff1614611c82576040517f08c379a0000000000000000000000000000000000000000000000000000000008152600401611c7990613ca5565b60405180910390fd5b611c8d333087612def565b6001805f828254611c9e91906139e1565b925050819055505f60025f60015481526020019081526020015f20905085815f018190555033816001015f6101000a81548173ffffffffffffffffffffffffffffffffffffffff021916908373ffffffffffffffffffffffffffffffffffffffff1602179055508481600201819055506b033b2e3c9fd0803ce8000000600286611d289190613cf0565b10611d3f576b033b2e3c9fd0803ce8000000611d4d565b600285611d4c9190613cf0565b5b81600301819055505f42905080826004015f6101000a81548167ffffffffffffffff021916908367ffffffffffffffff1602179055508481611d8f919061384f565b8260040160086101000a81548167ffffffffffffffff021916908367ffffffffffffffff160217905550838260040160089054906101000a900467ffffffffffffffff16611ddd919061384f565b8260040160106101000a81548167ffffffffffffffff021916908367ffffffffffffffff160217905550828260040160186101000a81548167ffffffffffffffff021916908367ffffffffffffffff1602179055507f000000000000000000000000000000000000000000000000000000000000000073ffffffffffffffffffffffffffffffffffffffff163373ffffffffffffffffffffffffffffffffffffffff166001547f086b19d6a6b02147fc1e9f2538ae5b1ff124ee6827666573f5f59710a6bd5ebb8a8a8760030154886004015f9054906101000a900467ffffffffffffffff168960040160089054906101000a900467ffffffffffffffff168a60040160109054906101000a900467ffffffffffffffff168b60040160189054906101000a900467ffffffffffffffff16604051611f219796959493929190613d50565b60405180910390a450505050505050565b5f5f611f3d8461315d565b905080600a015f8473ffffffffffffffffffffffffffffffffffffffff1673ffffffffffffffffffffffffffffffffffffffff1681526020019081526020015f205491505092915050565b60025f5403611fcc576040517f08c379a0000000000000000000000000000000000000000000000000000000008152600401611fc390613982565b60405180910390fd5b60025f819055505f611fdd8261315d565b9050806009015f9054906101000a900460ff16612026576040517fd3018d1800000000000000000000000000000000000000000000000000000000815260040160405180910390fd5b3373ffffffffffffffffffffffffffffffffffffffff168160050160089054906101000a900473ffffffffffffffffffffffffffffffffffffffff1673ffffffffffffffffffffffffffffffffffffffff16146120af576040517f618c724200000000000000000000000000000000000000000000000000000000815260040160405180910390fd5b8060090160019054906101000a900460ff16156120f8576040517f44a5ddcc00000000000000000000000000000000000000000000000000000000815260040160405180910390fd5b806005015f9054906101000a900467ffffffffffffffff1667ffffffffffffffff164211801561212c57505f816008015414155b15612163576040517f58459e8800000000000000000000000000000000000000000000000000000000815260040160405180910390fd5b806008015434146121a0576040517f788a686f00000000000000000000000000000000000000000000000000000000815260040160405180910390fd5b5f81600801541461222d575f81600801819055503481600c015f836001015f9054906101000a900473ffffffffffffffffffffffffffffffffffffffff1673ffffffffffffffffffffffffffffffffffffffff1673ffffffffffffffffffffffffffffffffffffffff1681526020019081526020015f205f82825461222591906139e1565b925050819055505b60018160090160016101000a81548160ff02191690831515021790555061227c308260050160089054906101000a900473ffffffffffffffffffffffffffffffffffffffff16835f0154612def565b3373ffffffffffffffffffffffffffffffffffffffff166001547fd33ef6ab06e6bf8672161aa6abe1ec1791c393d62213ebd89c67f611e538e575346040516122c59190613216565b60405180910390a35060015f8190555050565b62278d0081565b60605f6122eb8361315d565b90505f4290508160040160089054906101000a900467ffffffffffffffff1667ffffffffffffffff1681101561235a576040518060400160405280600681526020017f434f4d4d495400000000000000000000000000000000000000000000000000008152509250505061254b565b8160040160109054906101000a900467ffffffffffffffff1667ffffffffffffffff168110156123c3576040518060400160405280600681526020017f52455645414c00000000000000000000000000000000000000000000000000008152509250505061254b565b816009015f9054906101000a900460ff16612417576040518060400160405280601081526020017f46494e414c495a455f50454e44494e47000000000000000000000000000000008152509250505061254b565b816009015f9054906101000a900460ff16801561244357508160090160019054906101000a900460ff16155b801561249f57505f73ffffffffffffffffffffffffffffffffffffffff168260050160089054906101000a900473ffffffffffffffffffffffffffffffffffffffff1673ffffffffffffffffffffffffffffffffffffffff1614155b80156124cc5750816005015f9054906101000a900467ffffffffffffffff1667ffffffffffffffff168111155b15612510576040518060400160405280600d81526020017f41574149545f5041594d454e54000000000000000000000000000000000000008152509250505061254b565b6040518060400160405280600581526020017f454e444544000000000000000000000000000000000000000000000000000000815250925050505b919050565b5f61255a8261315d565b9050806009015f9054906101000a900460ff166125a3576040517fd3018d1800000000000000000000000000000000000000000000000000000000815260040160405180910390fd5b806005015f9054906101000a900467ffffffffffffffff1667ffffffffffffffff1642116125fd576040517fd3018d1800000000000000000000000000000000000000000000000000000000815260040160405180910390fd5b806001015f9054906101000a900473ffffffffffffffffffffffffffffffffffffffff1673ffffffffffffffffffffffffffffffffffffffff163373ffffffffffffffffffffffffffffffffffffffff1614612685576040517f44a5ddcc00000000000000000000000000000000000000000000000000000000815260040160405180910390fd5b8060090160019054906101000a900460ff16156126ce576040517f44a5ddcc00000000000000000000000000000000000000000000000000000000815260040160405180910390fd5b60018160090160016101000a81548160ff02191690831515021790555061271c30826001015f9054906101000a900473ffffffffffffffffffffffffffffffffffffffff16835f0154612def565b5f81600c015f8360050160089054906101000a900473ffffffffffffffffffffffffffffffffffffffff1673ffffffffffffffffffffffffffffffffffffffff1673ffffffffffffffffffffffffffffffffffffffff1681526020019081526020015f205490505f82600c015f8460050160089054906101000a900473ffffffffffffffffffffffffffffffffffffffff1673ffffffffffffffffffffffffffffffffffffffff1673ffffffffffffffffffffffffffffffffffffffff1681526020019081526020015f20819055505f3373ffffffffffffffffffffffffffffffffffffffff1682604051612810906139cd565b5f6040518083038185875af1925050503d805f811461284a576040519150601f19603f3d011682016040523d82523d5f602084013e61284f565b606091505b505090508061288a576040517f750b219c00000000000000000000000000000000000000000000000000000000815260040160405180910390fd5b6001547f55c90d9726ff7562e2dda9743c070ab007dd986e4c0a42bcf578362c435a4d8960405160405180910390a250505050565b5f5f6128ca8461315d565b905080600b015f8473ffffffffffffffffffffffffffffffffffffffff1673ffffffffffffffffffffffffffffffffffffffff1681526020019081526020015f205f9054906101000a900467ffffffffffffffff1691505092915050565b5f5f5f5f5f6129368661315d565b9050806004015f9054906101000a900467ffffffffffffffff168160040160089054906101000a900467ffffffffffffffff168260040160109054906101000a900467ffffffffffffffff16836005015f9054906101000a900467ffffffffffffffff169450945094509450509193509193565b5f5f6129b58461315d565b905080600c015f8473ffffffffffffffffffffffffffffffffffffffff1673ffffffffffffffffffffffffffffffffffffffff1681526020019081526020015f205491505092915050565b60025f5403612a44576040517f08c379a0000000000000000000000000000000000000000000000000000000008152600401612a3b90613982565b60405180910390fd5b60025f819055505f612a54612d4e565b9050806009015f9054906101000a900460ff16612a9d576040517fd3018d1800000000000000000000000000000000000000000000000000000000815260040160405180910390fd5b3373ffffffffffffffffffffffffffffffffffffffff168160050160089054906101000a900473ffffffffffffffffffffffffffffffffffffffff1673ffffffffffffffffffffffffffffffffffffffff1614612b26576040517f618c724200000000000000000000000000000000000000000000000000000000815260040160405180910390fd5b8060090160019054906101000a900460ff1615612b6f576040517f44a5ddcc00000000000000000000000000000000000000000000000000000000815260040160405180910390fd5b806005015f9054906101000a900467ffffffffffffffff1667ffffffffffffffff1642118015612ba357505f816008015414155b15612bda576040517f58459e8800000000000000000000000000000000000000000000000000000000815260040160405180910390fd5b80600801543414612c17576040517f788a686f00000000000000000000000000000000000000000000000000000000815260040160405180910390fd5b5f816008015414612ca4575f81600801819055503481600c015f836001015f9054906101000a900473ffffffffffffffffffffffffffffffffffffffff1673ffffffffffffffffffffffffffffffffffffffff1673ffffffffffffffffffffffffffffffffffffffff1681526020019081526020015f205f828254612c9c91906139e1565b925050819055505b60018160090160016101000a81548160ff021916908315150217905550612cf3308260050160089054906101000a900473ffffffffffffffffffffffffffffffffffffffff16835f0154612def565b3373ffffffffffffffffffffffffffffffffffffffff166001547fd33ef6ab06e6bf8672161aa6abe1ec1791c393d62213ebd89c67f611e538e57534604051612d3c9190613216565b60405180910390a35060015f81905550565b5f60025f60015481526020019081526020015f2090505f73ffffffffffffffffffffffffffffffffffffffff16816001015f9054906101000a900473ffffffffffffffffffffffffffffffffffffffff1673ffffffffffffffffffffffffffffffffffffffff1603612dec576040517f568ca25700000000000000000000000000000000000000000000000000000000815260040160405180910390fd5b90565b8273ffffffffffffffffffffffffffffffffffffffff167f000000000000000000000000000000000000000000000000000000000000000073ffffffffffffffffffffffffffffffffffffffff16636352211e836040518263ffffffff1660e01b8152600401612e5f9190613216565b602060405180830381865afa158015612e7a573d5f5f3e3d5ffd5b505050506040513d601f19601f82011682018060405250810190612e9e9190613c30565b73ffffffffffffffffffffffffffffffffffffffff1614612ef4576040517f08c379a0000000000000000000000000000000000000000000000000000000008152600401612eeb90613e07565b60405180910390fd5b3073ffffffffffffffffffffffffffffffffffffffff168273ffffffffffffffffffffffffffffffffffffffff16036130ce573073ffffffffffffffffffffffffffffffffffffffff167f000000000000000000000000000000000000000000000000000000000000000073ffffffffffffffffffffffffffffffffffffffff1663081812fc836040518263ffffffff1660e01b8152600401612f979190613216565b602060405180830381865afa158015612fb2573d5f5f3e3d5ffd5b505050506040513d601f19601f82011682018060405250810190612fd69190613c30565b73ffffffffffffffffffffffffffffffffffffffff16148061308e57507f000000000000000000000000000000000000000000000000000000000000000073ffffffffffffffffffffffffffffffffffffffff1663e985e9c584306040518363ffffffff1660e01b815260040161304e929190613e25565b602060405180830381865afa158015613069573d5f5f3e3d5ffd5b505050506040513d601f19601f8201168201806040525081019061308d9190613e81565b5b6130cd576040517f08c379a00000000000000000000000000000000000000000000000000000000081526004016130c490613ef6565b60405180910390fd5b5b7f000000000000000000000000000000000000000000000000000000000000000073ffffffffffffffffffffffffffffffffffffffff166342842e0e8484846040518463ffffffff1660e01b815260040161312b93929190613f14565b5f604051808303815f87803b158015613142575f5ffd5b505af1158015613154573d5f5f3e3d5ffd5b50505050505050565b5f60025f8381526020019081526020015f2090505f73ffffffffffffffffffffffffffffffffffffffff16816001015f9054906101000a900473ffffffffffffffffffffffffffffffffffffffff1673ffffffffffffffffffffffffffffffffffffffff16036131f9576040517f568ca25700000000000000000000000000000000000000000000000000000000815260040160405180910390fd5b919050565b5f819050919050565b613210816131fe565b82525050565b5f6020820190506132295f830184613207565b92915050565b5f5ffd5b5f5ffd5b5f73ffffffffffffffffffffffffffffffffffffffff82169050919050565b5f61326082613237565b9050919050565b61327081613256565b811461327a575f5ffd5b50565b5f8135905061328b81613267565b92915050565b61329a816131fe565b81146132a4575f5ffd5b50565b5f813590506132b581613291565b92915050565b5f5ffd5b5f5ffd5b5f5ffd5b5f5f83601f8401126132dc576132db6132bb565b5b8235905067ffffffffffffffff8111156132f9576132f86132bf565b5b602083019150836001820283011115613315576133146132c3565b5b9250929050565b5f5f5f5f5f608086880312156133355761333461322f565b5b5f6133428882890161327d565b95505060206133538882890161327d565b9450506040613364888289016132a7565b935050606086013567ffffffffffffffff81111561338557613384613233565b5b613391888289016132c7565b92509250509295509295909350565b5f7fffffffff0000000000000000000000000000000000000000000000000000000082169050919050565b6133d4816133a0565b82525050565b5f6020820190506133ed5f8301846133cb565b92915050565b5f819050919050565b5f61341661341161340c84613237565b6133f3565b613237565b9050919050565b5f613427826133fc565b9050919050565b5f6134388261341d565b9050919050565b6134488161342e565b82525050565b5f6020820190506134615f83018461343f565b92915050565b5f819050919050565b61347981613467565b8114613483575f5ffd5b50565b5f8135905061349481613470565b92915050565b5f5f604083850312156134b0576134af61322f565b5b5f6134bd858286016132a7565b92505060206134ce85828601613486565b9150509250929050565b5f602082840312156134ed576134ec61322f565b5b5f6134fa848285016132a7565b91505092915050565b61350c81613256565b82525050565b5f67ffffffffffffffff82169050919050565b61352e81613512565b82525050565b5f6060820190506135475f830186613503565b6135546020830185613207565b6135616040830184613525565b949350505050565b5f5f6040838503121561357f5761357e61322f565b5b5f61358c858286016132a7565b925050602061359d8582860161327d565b9150509250929050565b5f602082840312156135bc576135bb61322f565b5b5f6135c984828501613486565b91505092915050565b6135db81613512565b81146135e5575f5ffd5b50565b5f813590506135f6816135d2565b92915050565b5f5f5f5f5f60a086880312156136155761361461322f565b5b5f613622888289016132a7565b9550506020613633888289016132a7565b9450506040613644888289016135e8565b9350506060613655888289016135e8565b9250506080613666888289016135e8565b9150509295509295909350565b61367c81613467565b82525050565b5f6020820190506136955f830184613673565b92915050565b5f81519050919050565b5f82825260208201905092915050565b8281835e5f83830152505050565b5f601f19601f8301169050919050565b5f6136dd8261369b565b6136e781856136a5565b93506136f78185602086016136b5565b613700816136c3565b840191505092915050565b5f6020820190508181035f83015261372381846136d3565b905092915050565b5f60208201905061373e5f830184613525565b92915050565b5f6080820190506137575f830187613525565b6137646020830186613525565b6137716040830185613525565b61377e6060830184613525565b95945050505050565b7f616c72656164792066696e616c697a65640000000000000000000000000000005f82015250565b5f6137bb6011836136a5565b91506137c682613787565b602082019050919050565b5f6020820190508181035f8301526137e8816137af565b9050919050565b7f4e487b71000000000000000000000000000000000000000000000000000000005f52601160045260245ffd5b5f613826826131fe565b9150613831836131fe565b9250828203905081811115613849576138486137ef565b5b92915050565b5f61385982613512565b915061386483613512565b9250828201905067ffffffffffffffff811115613884576138836137ef565b5b92915050565b5f60808201905061389d5f830187613503565b6138aa6020830186613207565b6138b76040830185613207565b6138c46060830184613207565b95945050505050565b5f819050919050565b6138e76138e2826131fe565b6138cd565b82525050565b5f819050919050565b61390761390282613467565b6138ed565b82525050565b5f61391882856138d6565b60208201915061392882846138f6565b6020820191508190509392505050565b7f5245454e5452414e4359000000000000000000000000000000000000000000005f82015250565b5f61396c600a836136a5565b915061397782613938565b602082019050919050565b5f6020820190508181035f83015261399981613960565b9050919050565b5f81905092915050565b50565b5f6139b85f836139a0565b91506139c3826139aa565b5f82019050919050565b5f6139d7826139ad565b9150819050919050565b5f6139eb826131fe565b91506139f6836131fe565b9250828201905080821115613a0e57613a0d6137ef565b5b92915050565b7f70726576696f7573206e6f7420656e64656400000000000000000000000000005f82015250565b5f613a486012836136a5565b9150613a5382613a14565b602082019050919050565b5f6020820190508181035f830152613a7581613a3c565b9050919050565b7f434f4e4649473a2062616420636f6d6d6974206475726174696f6e73000000005f82015250565b5f613ab0601c836136a5565b9150613abb82613a7c565b602082019050919050565b5f6020820190508181035f830152613add81613aa4565b9050919050565b7f434f4e4649473a206261642072657665616c206475726174696f6e73000000005f82015250565b5f613b18601c836136a5565b9150613b2382613ae4565b602082019050919050565b5f6020820190508181035f830152613b4581613b0c565b9050919050565b7f434f4e4649473a2062616420736574746c65206475726174696f6e73000000005f82015250565b5f613b80601c836136a5565b9150613b8b82613b4c565b602082019050919050565b5f6020820190508181035f830152613bad81613b74565b9050919050565b7f434f4e4649473a206261642072657365727665207072696365000000000000005f82015250565b5f613be86019836136a5565b9150613bf382613bb4565b602082019050919050565b5f6020820190508181035f830152613c1581613bdc565b9050919050565b5f81519050613c2a81613267565b92915050565b5f60208284031215613c4557613c4461322f565b5b5f613c5284828501613c1c565b91505092915050565b7f6e6f74206f776e657200000000000000000000000000000000000000000000005f82015250565b5f613c8f6009836136a5565b9150613c9a82613c5b565b602082019050919050565b5f6020820190508181035f830152613cbc81613c83565b9050919050565b7f4e487b71000000000000000000000000000000000000000000000000000000005f52601260045260245ffd5b5f613cfa826131fe565b9150613d05836131fe565b925082613d1557613d14613cc3565b5b828204905092915050565b5f613d3a613d35613d3084613512565b6133f3565b6131fe565b9050919050565b613d4a81613d20565b82525050565b5f60e082019050613d635f83018a613207565b613d706020830189613207565b613d7d6040830188613207565b613d8a6060830187613d41565b613d976080830186613525565b613da460a0830185613525565b613db160c0830184613525565b98975050505050505050565b7f4e46543a206e6f74206f776e65720000000000000000000000000000000000005f82015250565b5f613df1600e836136a5565b9150613dfc82613dbd565b602082019050919050565b5f6020820190508181035f830152613e1e81613de5565b9050919050565b5f604082019050613e385f830185613503565b613e456020830184613503565b9392505050565b5f8115159050919050565b613e6081613e4c565b8114613e6a575f5ffd5b50565b5f81519050613e7b81613e57565b92915050565b5f60208284031215613e9657613e9561322f565b5b5f613ea384828501613e6d565b91505092915050565b7f4e46543a206e6f7420617070726f7665640000000000000000000000000000005f82015250565b5f613ee06011836136a5565b9150613eeb82613eac565b602082019050919050565b5f6020820190508181035f830152613f0d81613ed4565b9050919050565b5f606082019050613f275f830186613503565b613f346020830185613503565b613f416040830184613207565b94935050505056fea26469706673582212205424b2b6db1667dbffc38759bf81c323179e852951cb1475f89a1757ec43dc7b64736f6c634300081e0033",
					"opcodes": "PUSH1 0xA0 PUSH1 0x40 MSTORE PUSH1 0x1 PUSH0 SSTORE PUSH20 0x1546BD67237122754D3F0CB761C139F81388B210 PUSH20 0xFFFFFFFFFFFFFFFFFFFFFFFFFFFFFFFFFFFFFFFF AND PUSH1 0x80 SWAP1 PUSH20 0xFFFFFFFFFFFFFFFFFFFFFFFFFFFFFFFFFFFFFFFF AND DUP2 MSTORE POP CALLVALUE DUP1 ISZERO PUSH2 0x5A JUMPI PUSH0 PUSH0 REVERT JUMPDEST POP PUSH1 0x80 MLOAD PUSH2 0x3F7F PUSH2 0x9D PUSH0 CODECOPY PUSH0 DUP2 DUP2 PUSH2 0xB68 ADD MSTORE DUP2 DUP2 PUSH2 0x1B96 ADD MSTORE DUP2 DUP2 PUSH2 0x1E34 ADD MSTORE DUP2 DUP2 PUSH2 0x2E08 ADD MSTORE DUP2 DUP2 PUSH2 0x2F40 ADD MSTORE DUP2 DUP2 PUSH2 0x2FF5 ADD MSTORE PUSH2 0x30D0 ADD MSTORE PUSH2 0x3F7F PUSH0 RETURN INVALID PUSH1 0x80 PUSH1 0x40 MSTORE PUSH1 0x4 CALLDATASIZE LT PUSH2 0x129 JUMPI PUSH0 CALLDATALOAD PUSH1 0xE0 SHR DUP1 PUSH4 0x86A2CC27 GT PUSH2 0xAA JUMPI DUP1 PUSH4 0xB1FB6405 GT PUSH2 0x6E JUMPI DUP1 PUSH4 0xB1FB6405 EQ PUSH2 0x3A3 JUMPI DUP1 PUSH4 0xC8F97366 EQ PUSH2 0x3DF JUMPI DUP1 PUSH4 0xD3851F4C EQ PUSH2 0x407 JUMPI DUP1 PUSH4 0xD3AA699E EQ PUSH2 0x443 JUMPI DUP1 PUSH4 0xDE75A5C0 EQ PUSH2 0x482 JUMPI DUP1 PUSH4 0xE9906F2E EQ PUSH2 0x4BE JUMPI PUSH2 0x129 JUMP JUMPDEST DUP1 PUSH4 0x86A2CC27 EQ PUSH2 0x2DD JUMPI DUP1 PUSH4 0x894DA478 EQ PUSH2 0x2F9 JUMPI DUP1 PUSH4 0x89FB2682 EQ PUSH2 0x321 JUMPI DUP1 PUSH4 0xA0743F22 EQ PUSH2 0x35D JUMPI DUP1 PUSH4 0xB1724B46 EQ PUSH2 0x379 JUMPI PUSH2 0x129 JUMP JUMPDEST DUP1 PUSH4 0x62C5424A GT PUSH2 0xF1 JUMPI DUP1 PUSH4 0x62C5424A EQ PUSH2 0x1FD JUMPI DUP1 PUSH4 0x6B1DA364 EQ PUSH2 0x225 JUMPI DUP1 PUSH4 0x71D946B4 EQ PUSH2 0x263 JUMPI DUP1 PUSH4 0x7CF2ED22 EQ PUSH2 0x28B JUMPI DUP1 PUSH4 0x813ABC2D EQ PUSH2 0x2A1 JUMPI PUSH2 0x129 JUMP JUMPDEST DUP1 PUSH4 0x1C11D96 EQ PUSH2 0x12D JUMPI DUP1 PUSH4 0x10782F8F EQ PUSH2 0x157 JUMPI DUP1 PUSH4 0x150B7A02 EQ PUSH2 0x181 JUMPI DUP1 PUSH4 0x4BB278F3 EQ PUSH2 0x1BD JUMPI DUP1 PUSH4 0x5E7721F7 EQ PUSH2 0x1D3 JUMPI JUMPDEST PUSH0 PUSH0 REVERT JUMPDEST CALLVALUE DUP1 ISZERO PUSH2 0x138 JUMPI PUSH0 PUSH0 REVERT JUMPDEST POP PUSH2 0x141 PUSH2 0x4C8 JUMP JUMPDEST PUSH1 0x40 MLOAD PUSH2 0x14E SWAP2 SWAP1 PUSH2 0x3216 JUMP JUMPDEST PUSH1 0x40 MLOAD DUP1 SWAP2 SUB SWAP1 RETURN JUMPDEST CALLVALUE DUP1 ISZERO PUSH2 0x162 JUMPI PUSH0 PUSH0 REVERT JUMPDEST POP PUSH2 0x16B PUSH2 0x4D8 JUMP JUMPDEST PUSH1 0x40 MLOAD PUSH2 0x178 SWAP2 SWAP1 PUSH2 0x3216 JUMP JUMPDEST PUSH1 0x40 MLOAD DUP1 SWAP2 SUB SWAP1 RETURN JUMPDEST CALLVALUE DUP1 ISZERO PUSH2 0x18C JUMPI PUSH0 PUSH0 REVERT JUMPDEST POP PUSH2 0x1A7 PUSH1 0x4 DUP1 CALLDATASIZE SUB DUP2 ADD SWAP1 PUSH2 0x1A2 SWAP2 SWAP1 PUSH2 0x331C JUMP JUMPDEST PUSH2 0x4DE JUMP JUMPDEST PUSH1 0x40 MLOAD PUSH2 0x1B4 SWAP2 SWAP1 PUSH2 0x33DA JUMP JUMPDEST PUSH1 0x40 MLOAD DUP1 SWAP2 SUB SWAP1 RETURN JUMPDEST CALLVALUE DUP1 ISZERO PUSH2 0x1C8 JUMPI PUSH0 PUSH0 REVERT JUMPDEST POP PUSH2 0x1D1 PUSH2 0x4F2 JUMP JUMPDEST STOP JUMPDEST CALLVALUE DUP1 ISZERO PUSH2 0x1DE JUMPI PUSH0 PUSH0 REVERT JUMPDEST POP PUSH2 0x1E7 PUSH2 0xB66 JUMP JUMPDEST PUSH1 0x40 MLOAD PUSH2 0x1F4 SWAP2 SWAP1 PUSH2 0x344E JUMP JUMPDEST PUSH1 0x40 MLOAD DUP1 SWAP2 SUB SWAP1 RETURN JUMPDEST CALLVALUE DUP1 ISZERO PUSH2 0x208 JUMPI PUSH0 PUSH0 REVERT JUMPDEST POP PUSH2 0x223 PUSH1 0x4 DUP1 CALLDATASIZE SUB DUP2 ADD SWAP1 PUSH2 0x21E SWAP2 SWAP1 PUSH2 0x349A JUMP JUMPDEST PUSH2 0xB8A JUMP JUMPDEST STOP JUMPDEST CALLVALUE DUP1 ISZERO PUSH2 0x230 JUMPI PUSH0 PUSH0 REVERT JUMPDEST POP PUSH2 0x24B PUSH1 0x4 DUP1 CALLDATASIZE SUB DUP2 ADD SWAP1 PUSH2 0x246 SWAP2 SWAP1 PUSH2 0x34D8 JUMP JUMPDEST PUSH2 0x1071 JUMP JUMPDEST PUSH1 0x40 MLOAD PUSH2 0x25A SWAP4 SWAP3 SWAP2 SWAP1 PUSH2 0x3534 JUMP JUMPDEST PUSH1 0x40 MLOAD DUP1 SWAP2 SUB SWAP1 RETURN JUMPDEST CALLVALUE DUP1 ISZERO PUSH2 0x26E JUMPI PUSH0 PUSH0 REVERT JUMPDEST POP PUSH2 0x289 PUSH1 0x4 DUP1 CALLDATASIZE SUB DUP2 ADD SWAP1 PUSH2 0x284 SWAP2 SWAP1 PUSH2 0x34D8 JUMP JUMPDEST PUSH2 0x10D0 JUMP JUMPDEST STOP JUMPDEST CALLVALUE DUP1 ISZERO PUSH2 0x296 JUMPI PUSH0 PUSH0 REVERT JUMPDEST POP PUSH2 0x29F PUSH2 0x135F JUMP JUMPDEST STOP JUMPDEST CALLVALUE DUP1 ISZERO PUSH2 0x2AC JUMPI PUSH0 PUSH0 REVERT JUMPDEST POP PUSH2 0x2C7 PUSH1 0x4 DUP1 CALLDATASIZE SUB DUP2 ADD SWAP1 PUSH2 0x2C2 SWAP2 SWAP1 PUSH2 0x3569 JUMP JUMPDEST PUSH2 0x15EC JUMP JUMPDEST PUSH1 0x40 MLOAD PUSH2 0x2D4 SWAP2 SWAP1 PUSH2 0x3216 JUMP JUMPDEST PUSH1 0x40 MLOAD DUP1 SWAP2 SUB SWAP1 RETURN JUMPDEST PUSH2 0x2F7 PUSH1 0x4 DUP1 CALLDATASIZE SUB DUP2 ADD SWAP1 PUSH2 0x2F2 SWAP2 SWAP1 PUSH2 0x35A7 JUMP JUMPDEST PUSH2 0x1642 JUMP JUMPDEST STOP JUMPDEST CALLVALUE DUP1 ISZERO PUSH2 0x304 JUMPI PUSH0 PUSH0 REVERT JUMPDEST POP PUSH2 0x31F PUSH1 0x4 DUP1 CALLDATASIZE SUB DUP2 ADD SWAP1 PUSH2 0x31A SWAP2 SWAP1 PUSH2 0x35FC JUMP JUMPDEST PUSH2 0x1985 JUMP JUMPDEST STOP JUMPDEST CALLVALUE DUP1 ISZERO PUSH2 0x32C JUMPI PUSH0 PUSH0 REVERT JUMPDEST POP PUSH2 0x347 PUSH1 0x4 DUP1 CALLDATASIZE SUB DUP2 ADD SWAP1 PUSH2 0x342 SWAP2 SWAP1 PUSH2 0x3569 JUMP JUMPDEST PUSH2 0x1F32 JUMP JUMPDEST PUSH1 0x40 MLOAD PUSH2 0x354 SWAP2 SWAP1 PUSH2 0x3682 JUMP JUMPDEST PUSH1 0x40 MLOAD DUP1 SWAP2 SUB SWAP1 RETURN JUMPDEST PUSH2 0x377 PUSH1 0x4 DUP1 CALLDATASIZE SUB DUP2 ADD SWAP1 PUSH2 0x372 SWAP2 SWAP1 PUSH2 0x34D8 JUMP JUMPDEST PUSH2 0x1F88 JUMP JUMPDEST STOP JUMPDEST CALLVALUE DUP1 ISZERO PUSH2 0x384 JUMPI PUSH0 PUSH0 REVERT JUMPDEST POP PUSH2 0x38D PUSH2 0x22D8 JUMP JUMPDEST PUSH1 0x40 MLOAD PUSH2 0x39A SWAP2 SWAP1 PUSH2 0x3216 JUMP JUMPDEST PUSH1 0x40 MLOAD DUP1 SWAP2 SUB SWAP1 RETURN JUMPDEST CALLVALUE DUP1 ISZERO PUSH2 0x3AE JUMPI PUSH0 PUSH0 REVERT JUMPDEST POP PUSH2 0x3C9 PUSH1 0x4 DUP1 CALLDATASIZE SUB DUP2 ADD SWAP1 PUSH2 0x3C4 SWAP2 SWAP1 PUSH2 0x34D8 JUMP JUMPDEST PUSH2 0x22DF JUMP JUMPDEST PUSH1 0x40 MLOAD PUSH2 0x3D6 SWAP2 SWAP1 PUSH2 0x370B JUMP JUMPDEST PUSH1 0x40 MLOAD DUP1 SWAP2 SUB SWAP1 RETURN JUMPDEST CALLVALUE DUP1 ISZERO PUSH2 0x3EA JUMPI PUSH0 PUSH0 REVERT JUMPDEST POP PUSH2 0x405 PUSH1 0x4 DUP1 CALLDATASIZE SUB DUP2 ADD SWAP1 PUSH2 0x400 SWAP2 SWAP1 PUSH2 0x34D8 JUMP JUMPDEST PUSH2 0x2550 JUMP JUMPDEST STOP JUMPDEST CALLVALUE DUP1 ISZERO PUSH2 0x412 JUMPI PUSH0 PUSH0 REVERT JUMPDEST POP PUSH2 0x42D PUSH1 0x4 DUP1 CALLDATASIZE SUB DUP2 ADD SWAP1 PUSH2 0x428 SWAP2 SWAP1 PUSH2 0x3569 JUMP JUMPDEST PUSH2 0x28BF JUMP JUMPDEST PUSH1 0x40 MLOAD PUSH2 0x43A SWAP2 SWAP1 PUSH2 0x372B JUMP JUMPDEST PUSH1 0x40 MLOAD DUP1 SWAP2 SUB SWAP1 RETURN JUMPDEST CALLVALUE DUP1 ISZERO PUSH2 0x44E JUMPI PUSH0 PUSH0 REVERT JUMPDEST POP PUSH2 0x469 PUSH1 0x4 DUP1 CALLDATASIZE SUB DUP2 ADD SWAP1 PUSH2 0x464 SWAP2 SWAP1 PUSH2 0x34D8 JUMP JUMPDEST PUSH2 0x2928 JUMP JUMPDEST PUSH1 0x40 MLOAD PUSH2 0x479 SWAP5 SWAP4 SWAP3 SWAP2 SWAP1 PUSH2 0x3744 JUMP JUMPDEST PUSH1 0x40 MLOAD DUP1 SWAP2 SUB SWAP1 RETURN JUMPDEST CALLVALUE DUP1 ISZERO PUSH2 0x48D JUMPI PUSH0 PUSH0 REVERT JUMPDEST POP PUSH2 0x4A8 PUSH1 0x4 DUP1 CALLDATASIZE SUB DUP2 ADD SWAP1 PUSH2 0x4A3 SWAP2 SWAP1 PUSH2 0x3569 JUMP JUMPDEST PUSH2 0x29AA JUMP JUMPDEST PUSH1 0x40 MLOAD PUSH2 0x4B5 SWAP2 SWAP1 PUSH2 0x3216 JUMP JUMPDEST PUSH1 0x40 MLOAD DUP1 SWAP2 SUB SWAP1 RETURN JUMPDEST PUSH2 0x4C6 PUSH2 0x2A00 JUMP JUMPDEST STOP JUMPDEST PUSH12 0x33B2E3C9FD0803CE8000000 DUP2 JUMP JUMPDEST PUSH1 0x1 SLOAD DUP2 JUMP JUMPDEST PUSH0 PUSH4 0x150B7A02 PUSH1 0xE0 SHL SWAP1 POP SWAP6 SWAP5 POP POP POP POP POP JUMP JUMPDEST PUSH0 PUSH2 0x4FB PUSH2 0x2D4E JUMP JUMPDEST SWAP1 POP DUP1 PUSH1 0x4 ADD PUSH1 0x10 SWAP1 SLOAD SWAP1 PUSH2 0x100 EXP SWAP1 DIV PUSH8 0xFFFFFFFFFFFFFFFF AND PUSH8 0xFFFFFFFFFFFFFFFF AND TIMESTAMP LT ISZERO PUSH2 0x558 JUMPI PUSH1 0x40 MLOAD PUSH31 0xE8F46600000000000000000000000000000000000000000000000000000000 DUP2 MSTORE PUSH1 0x4 ADD PUSH1 0x40 MLOAD DUP1 SWAP2 SUB SWAP1 REVERT JUMPDEST DUP1 PUSH1 0x9 ADD PUSH0 SWAP1 SLOAD SWAP1 PUSH2 0x100 EXP SWAP1 DIV PUSH1 0xFF AND ISZERO PUSH2 0x5A9 JUMPI PUSH1 0x40 MLOAD PUSH32 0x8C379A000000000000000000000000000000000000000000000000000000000 DUP2 MSTORE PUSH1 0x4 ADD PUSH2 0x5A0 SWAP1 PUSH2 0x37D1 JUMP JUMPDEST PUSH1 0x40 MLOAD DUP1 SWAP2 SUB SWAP1 REVERT JUMPDEST PUSH1 0x1 DUP2 PUSH1 0x9 ADD PUSH0 PUSH2 0x100 EXP DUP2 SLOAD DUP2 PUSH1 0xFF MUL NOT AND SWAP1 DUP4 ISZERO ISZERO MUL OR SWAP1 SSTORE POP PUSH0 PUSH20 0xFFFFFFFFFFFFFFFFFFFFFFFFFFFFFFFFFFFFFFFF AND DUP2 PUSH1 0x5 ADD PUSH1 0x8 SWAP1 SLOAD SWAP1 PUSH2 0x100 EXP SWAP1 DIV PUSH20 0xFFFFFFFFFFFFFFFFFFFFFFFFFFFFFFFFFFFFFFFF AND PUSH20 0xFFFFFFFFFFFFFFFFFFFFFFFFFFFFFFFFFFFFFFFF AND SUB PUSH2 0x6A8 JUMPI PUSH0 DUP2 PUSH1 0x8 ADD DUP2 SWAP1 SSTORE POP PUSH1 0x1 DUP2 PUSH1 0x9 ADD PUSH1 0x1 PUSH2 0x100 EXP DUP2 SLOAD DUP2 PUSH1 0xFF MUL NOT AND SWAP1 DUP4 ISZERO ISZERO MUL OR SWAP1 SSTORE POP PUSH2 0x673 ADDRESS DUP3 PUSH1 0x1 ADD PUSH0 SWAP1 SLOAD SWAP1 PUSH2 0x100 EXP SWAP1 DIV PUSH20 0xFFFFFFFFFFFFFFFFFFFFFFFFFFFFFFFFFFFFFFFF AND DUP4 PUSH0 ADD SLOAD PUSH2 0x2DEF JUMP JUMPDEST PUSH1 0x1 SLOAD PUSH32 0xA761D07FDB0A6897F18726F15D43008D6C30CE08E44A91775CFD2EF3B61CDAD0 PUSH1 0x40 MLOAD PUSH1 0x40 MLOAD DUP1 SWAP2 SUB SWAP1 LOG2 POP PUSH2 0xB64 JUMP JUMPDEST PUSH0 DUP2 PUSH1 0x2 ADD SLOAD DUP3 PUSH1 0x7 ADD SLOAD LT PUSH2 0x6C2 JUMPI DUP2 PUSH1 0x7 ADD SLOAD PUSH2 0x6C8 JUMP JUMPDEST DUP2 PUSH1 0x2 ADD SLOAD JUMPDEST SWAP1 POP DUP2 PUSH1 0xC ADD PUSH0 DUP4 PUSH1 0x5 ADD PUSH1 0x8 SWAP1 SLOAD SWAP1 PUSH2 0x100 EXP SWAP1 DIV PUSH20 0xFFFFFFFFFFFFFFFFFFFFFFFFFFFFFFFFFFFFFFFF AND PUSH20 0xFFFFFFFFFFFFFFFFFFFFFFFFFFFFFFFFFFFFFFFF AND PUSH20 0xFFFFFFFFFFFFFFFFFFFFFFFFFFFFFFFFFFFFFFFF AND DUP2 MSTORE PUSH1 0x20 ADD SWAP1 DUP2 MSTORE PUSH1 0x20 ADD PUSH0 KECCAK256 SLOAD DUP2 LT PUSH2 0x8EC JUMPI PUSH0 DUP3 PUSH1 0xC ADD PUSH0 DUP5 PUSH1 0x5 ADD PUSH1 0x8 SWAP1 SLOAD SWAP1 PUSH2 0x100 EXP SWAP1 DIV PUSH20 0xFFFFFFFFFFFFFFFFFFFFFFFFFFFFFFFFFFFFFFFF AND PUSH20 0xFFFFFFFFFFFFFFFFFFFFFFFFFFFFFFFFFFFFFFFF AND PUSH20 0xFFFFFFFFFFFFFFFFFFFFFFFFFFFFFFFFFFFFFFFF AND DUP2 MSTORE PUSH1 0x20 ADD SWAP1 DUP2 MSTORE PUSH1 0x20 ADD PUSH0 KECCAK256 SLOAD DUP3 PUSH2 0x7A4 SWAP2 SWAP1 PUSH2 0x381C JUMP JUMPDEST SWAP1 POP DUP1 DUP4 PUSH1 0x8 ADD DUP2 SWAP1 SSTORE POP PUSH0 DUP4 PUSH1 0xC ADD PUSH0 DUP6 PUSH1 0x5 ADD PUSH1 0x8 SWAP1 SLOAD SWAP1 PUSH2 0x100 EXP SWAP1 DIV PUSH20 0xFFFFFFFFFFFFFFFFFFFFFFFFFFFFFFFFFFFFFFFF AND PUSH20 0xFFFFFFFFFFFFFFFFFFFFFFFFFFFFFFFFFFFFFFFF AND PUSH20 0xFFFFFFFFFFFFFFFFFFFFFFFFFFFFFFFFFFFFFFFF AND DUP2 MSTORE PUSH1 0x20 ADD SWAP1 DUP2 MSTORE PUSH1 0x20 ADD PUSH0 KECCAK256 SLOAD SWAP1 POP PUSH0 DUP5 PUSH1 0xC ADD PUSH0 DUP7 PUSH1 0x5 ADD PUSH1 0x8 SWAP1 SLOAD SWAP1 PUSH2 0x100 EXP SWAP1 DIV PUSH20 0xFFFFFFFFFFFFFFFFFFFFFFFFFFFFFFFFFFFFFFFF AND PUSH20 0xFFFFFFFFFFFFFFFFFFFFFFFFFFFFFFFFFFFFFFFF AND PUSH20 0xFFFFFFFFFFFFFFFFFFFFFFFFFFFFFFFFFFFFFFFF AND DUP2 MSTORE PUSH1 0x20 ADD SWAP1 DUP2 MSTORE PUSH1 0x20 ADD PUSH0 KECCAK256 DUP2 SWAP1 SSTORE POP DUP1 DUP5 PUSH1 0xC ADD PUSH0 DUP7 PUSH1 0x1 ADD PUSH0 SWAP1 SLOAD SWAP1 PUSH2 0x100 EXP SWAP1 DIV PUSH20 0xFFFFFFFFFFFFFFFFFFFFFFFFFFFFFFFFFFFFFFFF AND PUSH20 0xFFFFFFFFFFFFFFFFFFFFFFFFFFFFFFFFFFFFFFFF AND PUSH20 0xFFFFFFFFFFFFFFFFFFFFFFFFFFFFFFFFFFFFFFFF AND DUP2 MSTORE PUSH1 0x20 ADD SWAP1 DUP2 MSTORE PUSH1 0x20 ADD PUSH0 KECCAK256 DUP2 SWAP1 SSTORE POP POP POP PUSH2 0xAA4 JUMP JUMPDEST DUP2 PUSH1 0xC ADD PUSH0 DUP4 PUSH1 0x5 ADD PUSH1 0x8 SWAP1 SLOAD SWAP1 PUSH2 0x100 EXP SWAP1 DIV PUSH20 0xFFFFFFFFFFFFFFFFFFFFFFFFFFFFFFFFFFFFFFFF AND PUSH20 0xFFFFFFFFFFFFFFFFFFFFFFFFFFFFFFFFFFFFFFFF AND PUSH20 0xFFFFFFFFFFFFFFFFFFFFFFFFFFFFFFFFFFFFFFFF AND DUP2 MSTORE PUSH1 0x20 ADD SWAP1 DUP2 MSTORE PUSH1 0x20 ADD PUSH0 KECCAK256 SLOAD DUP2 LT ISZERO PUSH2 0xAA3 JUMPI PUSH0 DUP2 DUP4 PUSH1 0xC ADD PUSH0 DUP6 PUSH1 0x5 ADD PUSH1 0x8 SWAP1 SLOAD SWAP1 PUSH2 0x100 EXP SWAP1 DIV PUSH20 0xFFFFFFFFFFFFFFFFFFFFFFFFFFFFFFFFFFFFFFFF AND PUSH20 0xFFFFFFFFFFFFFFFFFFFFFFFFFFFFFFFFFFFFFFFF AND PUSH20 0xFFFFFFFFFFFFFFFFFFFFFFFFFFFFFFFFFFFFFFFF AND DUP2 MSTORE PUSH1 0x20 ADD SWAP1 DUP2 MSTORE PUSH1 0x20 ADD PUSH0 KECCAK256 SLOAD PUSH2 0x9C7 SWAP2 SWAP1 PUSH2 0x381C JUMP JUMPDEST SWAP1 POP PUSH0 DUP4 PUSH1 0x8 ADD DUP2 SWAP1 SSTORE POP DUP1 DUP4 PUSH1 0xC ADD PUSH0 DUP6 PUSH1 0x5 ADD PUSH1 0x8 SWAP1 SLOAD SWAP1 PUSH2 0x100 EXP SWAP1 DIV PUSH20 0xFFFFFFFFFFFFFFFFFFFFFFFFFFFFFFFFFFFFFFFF AND PUSH20 0xFFFFFFFFFFFFFFFFFFFFFFFFFFFFFFFFFFFFFFFF AND PUSH20 0xFFFFFFFFFFFFFFFFFFFFFFFFFFFFFFFFFFFFFFFF AND DUP2 MSTORE PUSH1 0x20 ADD SWAP1 DUP2 MSTORE PUSH1 0x20 ADD PUSH0 KECCAK256 DUP2 SWAP1 SSTORE POP DUP2 DUP4 PUSH1 0xC ADD PUSH0 DUP6 PUSH1 0x1 ADD PUSH0 SWAP1 SLOAD SWAP1 PUSH2 0x100 EXP SWAP1 DIV PUSH20 0xFFFFFFFFFFFFFFFFFFFFFFFFFFFFFFFFFFFFFFFF AND PUSH20 0xFFFFFFFFFFFFFFFFFFFFFFFFFFFFFFFFFFFFFFFF AND PUSH20 0xFFFFFFFFFFFFFFFFFFFFFFFFFFFFFFFFFFFFFFFF AND DUP2 MSTORE PUSH1 0x20 ADD SWAP1 DUP2 MSTORE PUSH1 0x20 ADD PUSH0 KECCAK256 DUP2 SWAP1 SSTORE POP POP JUMPDEST JUMPDEST DUP2 PUSH1 0x4 ADD PUSH1 0x18 SWAP1 SLOAD SWAP1 PUSH2 0x100 EXP SWAP1 DIV PUSH8 0xFFFFFFFFFFFFFFFF AND TIMESTAMP PUSH2 0xAC8 SWAP2 SWAP1 PUSH2 0x384F JUMP JUMPDEST DUP3 PUSH1 0x5 ADD PUSH0 PUSH2 0x100 EXP DUP2 SLOAD DUP2 PUSH8 0xFFFFFFFFFFFFFFFF MUL NOT AND SWAP1 DUP4 PUSH8 0xFFFFFFFFFFFFFFFF AND MUL OR SWAP1 SSTORE POP PUSH1 0x1 SLOAD PUSH32 0x5AB4254A16D8F1486E035342F3B6736A5EFDC0B79886E7525B374BB0EC9EBEE1 DUP4 PUSH1 0x5 ADD PUSH1 0x8 SWAP1 SLOAD SWAP1 PUSH2 0x100 EXP SWAP1 DIV PUSH20 0xFFFFFFFFFFFFFFFFFFFFFFFFFFFFFFFFFFFFFFFF AND DUP5 PUSH1 0x6 ADD SLOAD DUP6 PUSH1 0x7 ADD SLOAD DUP7 PUSH1 0x8 ADD SLOAD PUSH1 0x40 MLOAD PUSH2 0xB59 SWAP5 SWAP4 SWAP3 SWAP2 SWAP1 PUSH2 0x388A JUMP JUMPDEST PUSH1 0x40 MLOAD DUP1 SWAP2 SUB SWAP1 LOG2 POP POP JUMPDEST JUMP JUMPDEST PUSH32 0x0 DUP2 JUMP JUMPDEST PUSH0 PUSH2 0xB93 PUSH2 0x2D4E JUMP JUMPDEST SWAP1 POP PUSH0 TIMESTAMP SWAP1 POP DUP2 PUSH1 0x4 ADD PUSH1 0x8 SWAP1 SLOAD SWAP1 PUSH2 0x100 EXP SWAP1 DIV PUSH8 0xFFFFFFFFFFFFFFFF AND PUSH8 0xFFFFFFFFFFFFFFFF AND DUP2 LT DUP1 PUSH2 0xBEB JUMPI POP DUP2 PUSH1 0x4 ADD PUSH1 0x10 SWAP1 SLOAD SWAP1 PUSH2 0x100 EXP SWAP1 DIV PUSH8 0xFFFFFFFFFFFFFFFF AND PUSH8 0xFFFFFFFFFFFFFFFF AND DUP2 LT ISZERO JUMPDEST ISZERO PUSH2 0xC22 JUMPI PUSH1 0x40 MLOAD PUSH32 0x74683D7100000000000000000000000000000000000000000000000000000000 DUP2 MSTORE PUSH1 0x4 ADD PUSH1 0x40 MLOAD DUP1 SWAP2 SUB SWAP1 REVERT JUMPDEST PUSH0 DUP3 PUSH1 0xD ADD PUSH0 CALLER PUSH20 0xFFFFFFFFFFFFFFFFFFFFFFFFFFFFFFFFFFFFFFFF AND PUSH20 0xFFFFFFFFFFFFFFFFFFFFFFFFFFFFFFFFFFFFFFFF AND DUP2 MSTORE PUSH1 0x20 ADD SWAP1 DUP2 MSTORE PUSH1 0x20 ADD PUSH0 KECCAK256 SLOAD EQ PUSH2 0xC9A JUMPI PUSH1 0x40 MLOAD PUSH32 0x157330EE00000000000000000000000000000000000000000000000000000000 DUP2 MSTORE PUSH1 0x4 ADD PUSH1 0x40 MLOAD DUP1 SWAP2 SUB SWAP1 REVERT JUMPDEST PUSH0 DUP3 PUSH1 0xA ADD PUSH0 CALLER PUSH20 0xFFFFFFFFFFFFFFFFFFFFFFFFFFFFFFFFFFFFFFFF AND PUSH20 0xFFFFFFFFFFFFFFFFFFFFFFFFFFFFFFFFFFFFFFFF AND DUP2 MSTORE PUSH1 0x20 ADD SWAP1 DUP2 MSTORE PUSH1 0x20 ADD PUSH0 KECCAK256 SLOAD SWAP1 POP PUSH0 PUSH0 SHL DUP2 SUB PUSH2 0xD18 JUMPI PUSH1 0x40 MLOAD PUSH32 0xC06789FA00000000000000000000000000000000000000000000000000000000 DUP2 MSTORE PUSH1 0x4 ADD PUSH1 0x40 MLOAD DUP1 SWAP2 SUB SWAP1 REVERT JUMPDEST DUP1 DUP6 DUP6 PUSH1 0x40 MLOAD PUSH1 0x20 ADD PUSH2 0xD2C SWAP3 SWAP2 SWAP1 PUSH2 0x390D JUMP JUMPDEST PUSH1 0x40 MLOAD PUSH1 0x20 DUP2 DUP4 SUB SUB DUP2 MSTORE SWAP1 PUSH1 0x40 MSTORE DUP1 MLOAD SWAP1 PUSH1 0x20 ADD KECCAK256 EQ PUSH2 0xD79 JUMPI PUSH1 0x40 MLOAD PUSH32 0xC06789FA00000000000000000000000000000000000000000000000000000000 DUP2 MSTORE PUSH1 0x4 ADD PUSH1 0x40 MLOAD DUP1 SWAP2 SUB SWAP1 REVERT JUMPDEST DUP5 DUP4 PUSH1 0xD ADD PUSH0 CALLER PUSH20 0xFFFFFFFFFFFFFFFFFFFFFFFFFFFFFFFFFFFFFFFF AND PUSH20 0xFFFFFFFFFFFFFFFFFFFFFFFFFFFFFFFFFFFFFFFF AND DUP2 MSTORE PUSH1 0x20 ADD SWAP1 DUP2 MSTORE PUSH1 0x20 ADD PUSH0 KECCAK256 DUP2 SWAP1 SSTORE POP DUP3 PUSH1 0x2 ADD SLOAD DUP6 LT ISZERO PUSH2 0xDFB JUMPI PUSH1 0x40 MLOAD PUSH32 0x6B317D5600000000000000000000000000000000000000000000000000000000 DUP2 MSTORE PUSH1 0x4 ADD PUSH1 0x40 MLOAD DUP1 SWAP2 SUB SWAP1 REVERT JUMPDEST DUP3 PUSH1 0x6 ADD SLOAD DUP6 GT ISZERO PUSH2 0xEBD JUMPI PUSH0 PUSH20 0xFFFFFFFFFFFFFFFFFFFFFFFFFFFFFFFFFFFFFFFF AND DUP4 PUSH1 0x5 ADD PUSH1 0x8 SWAP1 SLOAD SWAP1 PUSH2 0x100 EXP SWAP1 DIV PUSH20 0xFFFFFFFFFFFFFFFFFFFFFFFFFFFFFFFFFFFFFFFF AND PUSH20 0xFFFFFFFFFFFFFFFFFFFFFFFFFFFFFFFFFFFFFFFF AND EQ PUSH2 0xE6C JUMPI DUP3 PUSH1 0x6 ADD SLOAD DUP4 PUSH1 0x7 ADD DUP2 SWAP1 SSTORE POP JUMPDEST DUP5 DUP4 PUSH1 0x6 ADD DUP2 SWAP1 SSTORE POP CALLER DUP4 PUSH1 0x5 ADD PUSH1 0x8 PUSH2 0x100 EXP DUP2 SLOAD DUP2 PUSH20 0xFFFFFFFFFFFFFFFFFFFFFFFFFFFFFFFFFFFFFFFF MUL NOT AND SWAP1 DUP4 PUSH20 0xFFFFFFFFFFFFFFFFFFFFFFFFFFFFFFFFFFFFFFFF AND MUL OR SWAP1 SSTORE POP PUSH2 0x1019 JUMP JUMPDEST DUP3 PUSH1 0x6 ADD SLOAD DUP6 EQ DUP1 ISZERO PUSH2 0xFAB JUMPI POP DUP3 PUSH1 0xB ADD PUSH0 DUP5 PUSH1 0x5 ADD PUSH1 0x8 SWAP1 SLOAD SWAP1 PUSH2 0x100 EXP SWAP1 DIV PUSH20 0xFFFFFFFFFFFFFFFFFFFFFFFFFFFFFFFFFFFFFFFF AND PUSH20 0xFFFFFFFFFFFFFFFFFFFFFFFFFFFFFFFFFFFFFFFF AND PUSH20 0xFFFFFFFFFFFFFFFFFFFFFFFFFFFFFFFFFFFFFFFF AND DUP2 MSTORE PUSH1 0x20 ADD SWAP1 DUP2 MSTORE PUSH1 0x20 ADD PUSH0 KECCAK256 PUSH0 SWAP1 SLOAD SWAP1 PUSH2 0x100 EXP SWAP1 DIV PUSH8 0xFFFFFFFFFFFFFFFF AND PUSH8 0xFFFFFFFFFFFFFFFF AND DUP4 PUSH1 0xB ADD PUSH0 CALLER PUSH20 0xFFFFFFFFFFFFFFFFFFFFFFFFFFFFFFFFFFFFFFFF AND PUSH20 0xFFFFFFFFFFFFFFFFFFFFFFFFFFFFFFFFFFFFFFFF AND DUP2 MSTORE PUSH1 0x20 ADD SWAP1 DUP2 MSTORE PUSH1 0x20 ADD PUSH0 KECCAK256 PUSH0 SWAP1 SLOAD SWAP1 PUSH2 0x100 EXP SWAP1 DIV PUSH8 0xFFFFFFFFFFFFFFFF AND PUSH8 0xFFFFFFFFFFFFFFFF AND LT JUMPDEST ISZERO PUSH2 0x1001 JUMPI DUP5 DUP4 PUSH1 0x6 ADD DUP2 SWAP1 SSTORE POP CALLER DUP4 PUSH1 0x5 ADD PUSH1 0x8 PUSH2 0x100 EXP DUP2 SLOAD DUP2 PUSH20 0xFFFFFFFFFFFFFFFFFFFFFFFFFFFFFFFFFFFFFFFF MUL NOT AND SWAP1 DUP4 PUSH20 0xFFFFFFFFFFFFFFFFFFFFFFFFFFFFFFFFFFFFFFFF AND MUL OR SWAP1 SSTORE POP PUSH2 0x1018 JUMP JUMPDEST DUP3 PUSH1 0x7 ADD SLOAD DUP6 GT ISZERO PUSH2 0x1017 JUMPI DUP5 DUP4 PUSH1 0x7 ADD DUP2 SWAP1 SSTORE POP JUMPDEST JUMPDEST JUMPDEST CALLER PUSH20 0xFFFFFFFFFFFFFFFFFFFFFFFFFFFFFFFFFFFFFFFF AND PUSH1 0x1 SLOAD PUSH32 0x86D2FBC9069D34216EBC65B38CE840528D3F8CAC0C86D2AAA7AB6A9DB8BC35D3 DUP8 PUSH1 0x40 MLOAD PUSH2 0x1062 SWAP2 SWAP1 PUSH2 0x3216 JUMP JUMPDEST PUSH1 0x40 MLOAD DUP1 SWAP2 SUB SWAP1 LOG3 POP POP POP POP POP JUMP JUMPDEST PUSH0 PUSH0 PUSH0 PUSH0 PUSH2 0x107E DUP6 PUSH2 0x315D JUMP JUMPDEST SWAP1 POP DUP1 PUSH1 0x5 ADD PUSH1 0x8 SWAP1 SLOAD SWAP1 PUSH2 0x100 EXP SWAP1 DIV PUSH20 0xFFFFFFFFFFFFFFFFFFFFFFFFFFFFFFFFFFFFFFFF AND DUP2 PUSH1 0x8 ADD SLOAD DUP3 PUSH1 0x5 ADD PUSH0 SWAP1 SLOAD SWAP1 PUSH2 0x100 EXP SWAP1 DIV PUSH8 0xFFFFFFFFFFFFFFFF AND SWAP4 POP SWAP4 POP SWAP4 POP POP SWAP2 SWAP4 SWAP1 SWAP3 POP JUMP JUMPDEST PUSH1 0x2 PUSH0 SLOAD SUB PUSH2 0x1114 JUMPI PUSH1 0x40 MLOAD PUSH32 0x8C379A000000000000000000000000000000000000000000000000000000000 DUP2 MSTORE PUSH1 0x4 ADD PUSH2 0x110B SWAP1 PUSH2 0x3982 JUMP JUMPDEST PUSH1 0x40 MLOAD DUP1 SWAP2 SUB SWAP1 REVERT JUMPDEST PUSH1 0x2 PUSH0 DUP2 SWAP1 SSTORE POP PUSH0 PUSH2 0x1125 DUP3 PUSH2 0x315D JUMP JUMPDEST SWAP1 POP DUP1 PUSH1 0x9 ADD PUSH0 SWAP1 SLOAD SWAP1 PUSH2 0x100 EXP SWAP1 DIV PUSH1 0xFF AND PUSH2 0x116E JUMPI PUSH1 0x40 MLOAD PUSH32 0xD3018D1800000000000000000000000000000000000000000000000000000000 DUP2 MSTORE PUSH1 0x4 ADD PUSH1 0x40 MLOAD DUP1 SWAP2 SUB SWAP1 REVERT JUMPDEST PUSH0 DUP2 PUSH1 0xC ADD PUSH0 CALLER PUSH20 0xFFFFFFFFFFFFFFFFFFFFFFFFFFFFFFFFFFFFFFFF AND PUSH20 0xFFFFFFFFFFFFFFFFFFFFFFFFFFFFFFFFFFFFFFFF AND DUP2 MSTORE PUSH1 0x20 ADD SWAP1 DUP2 MSTORE PUSH1 0x20 ADD PUSH0 KECCAK256 SLOAD SUB PUSH2 0x11E6 JUMPI PUSH1 0x40 MLOAD PUSH32 0x3A6A68B100000000000000000000000000000000000000000000000000000000 DUP2 MSTORE PUSH1 0x4 ADD PUSH1 0x40 MLOAD DUP1 SWAP2 SUB SWAP1 REVERT JUMPDEST PUSH0 DUP2 PUSH1 0xC ADD PUSH0 CALLER PUSH20 0xFFFFFFFFFFFFFFFFFFFFFFFFFFFFFFFFFFFFFFFF AND PUSH20 0xFFFFFFFFFFFFFFFFFFFFFFFFFFFFFFFFFFFFFFFF AND DUP2 MSTORE PUSH1 0x20 ADD SWAP1 DUP2 MSTORE PUSH1 0x20 ADD PUSH0 KECCAK256 SLOAD SWAP1 POP PUSH0 DUP3 PUSH1 0xC ADD PUSH0 CALLER PUSH20 0xFFFFFFFFFFFFFFFFFFFFFFFFFFFFFFFFFFFFFFFF AND PUSH20 0xFFFFFFFFFFFFFFFFFFFFFFFFFFFFFFFFFFFFFFFF AND DUP2 MSTORE PUSH1 0x20 ADD SWAP1 DUP2 MSTORE PUSH1 0x20 ADD PUSH0 KECCAK256 DUP2 SWAP1 SSTORE POP PUSH0 CALLER PUSH20 0xFFFFFFFFFFFFFFFFFFFFFFFFFFFFFFFFFFFFFFFF AND DUP3 PUSH1 0x40 MLOAD PUSH2 0x1292 SWAP1 PUSH2 0x39CD JUMP JUMPDEST PUSH0 PUSH1 0x40 MLOAD DUP1 DUP4 SUB DUP2 DUP6 DUP8 GAS CALL SWAP3 POP POP POP RETURNDATASIZE DUP1 PUSH0 DUP2 EQ PUSH2 0x12CC JUMPI PUSH1 0x40 MLOAD SWAP2 POP PUSH1 0x1F NOT PUSH1 0x3F RETURNDATASIZE ADD AND DUP3 ADD PUSH1 0x40 MSTORE RETURNDATASIZE DUP3 MSTORE RETURNDATASIZE PUSH0 PUSH1 0x20 DUP5 ADD RETURNDATACOPY PUSH2 0x12D1 JUMP JUMPDEST PUSH1 0x60 SWAP2 POP JUMPDEST POP POP SWAP1 POP DUP1 PUSH2 0x130C JUMPI PUSH1 0x40 MLOAD PUSH32 0x750B219C00000000000000000000000000000000000000000000000000000000 DUP2 MSTORE PUSH1 0x4 ADD PUSH1 0x40 MLOAD DUP1 SWAP2 SUB SWAP1 REVERT JUMPDEST CALLER PUSH20 0xFFFFFFFFFFFFFFFFFFFFFFFFFFFFFFFFFFFFFFFF AND PUSH1 0x1 SLOAD PUSH32 0x47F74A265269AA6E5423FBCD9A74B3C8771A0C3A9C7CDFB7EBE375B288C06B4E PUSH1 0x40 MLOAD PUSH1 0x40 MLOAD DUP1 SWAP2 SUB SWAP1 LOG3 POP POP POP PUSH1 0x1 PUSH0 DUP2 SWAP1 SSTORE POP POP JUMP JUMPDEST PUSH1 0x2 PUSH0 SLOAD SUB PUSH2 0x13A3 JUMPI PUSH1 0x40 MLOAD PUSH32 0x8C379A000000000000000000000000000000000000000000000000000000000 DUP2 MSTORE PUSH1 0x4 ADD PUSH2 0x139A SWAP1 PUSH2 0x3982 JUMP JUMPDEST PUSH1 0x40 MLOAD DUP1 SWAP2 SUB SWAP1 REVERT JUMPDEST PUSH1 0x2 PUSH0 DUP2 SWAP1 SSTORE POP PUSH0 PUSH2 0x13B3 PUSH2 0x2D4E JUMP JUMPDEST SWAP1 POP DUP1 PUSH1 0x9 ADD PUSH0 SWAP1 SLOAD SWAP1 PUSH2 0x100 EXP SWAP1 DIV PUSH1 0xFF AND PUSH2 0x13FC JUMPI PUSH1 0x40 MLOAD PUSH32 0xD3018D1800000000000000000000000000000000000000000000000000000000 DUP2 MSTORE PUSH1 0x4 ADD PUSH1 0x40 MLOAD DUP1 SWAP2 SUB SWAP1 REVERT JUMPDEST PUSH0 DUP2 PUSH1 0xC ADD PUSH0 CALLER PUSH20 0xFFFFFFFFFFFFFFFFFFFFFFFFFFFFFFFFFFFFFFFF AND PUSH20 0xFFFFFFFFFFFFFFFFFFFFFFFFFFFFFFFFFFFFFFFF AND DUP2 MSTORE PUSH1 0x20 ADD SWAP1 DUP2 MSTORE PUSH1 0x20 ADD PUSH0 KECCAK256 SLOAD SUB PUSH2 0x1474 JUMPI PUSH1 0x40 MLOAD PUSH32 0x3A6A68B100000000000000000000000000000000000000000000000000000000 DUP2 MSTORE PUSH1 0x4 ADD PUSH1 0x40 MLOAD DUP1 SWAP2 SUB SWAP1 REVERT JUMPDEST PUSH0 DUP2 PUSH1 0xC ADD PUSH0 CALLER PUSH20 0xFFFFFFFFFFFFFFFFFFFFFFFFFFFFFFFFFFFFFFFF AND PUSH20 0xFFFFFFFFFFFFFFFFFFFFFFFFFFFFFFFFFFFFFFFF AND DUP2 MSTORE PUSH1 0x20 ADD SWAP1 DUP2 MSTORE PUSH1 0x20 ADD PUSH0 KECCAK256 SLOAD SWAP1 POP PUSH0 DUP3 PUSH1 0xC ADD PUSH0 CALLER PUSH20 0xFFFFFFFFFFFFFFFFFFFFFFFFFFFFFFFFFFFFFFFF AND PUSH20 0xFFFFFFFFFFFFFFFFFFFFFFFFFFFFFFFFFFFFFFFF AND DUP2 MSTORE PUSH1 0x20 ADD SWAP1 DUP2 MSTORE PUSH1 0x20 ADD PUSH0 KECCAK256 DUP2 SWAP1 SSTORE POP PUSH0 CALLER PUSH20 0xFFFFFFFFFFFFFFFFFFFFFFFFFFFFFFFFFFFFFFFF AND DUP3 PUSH1 0x40 MLOAD PUSH2 0x1520 SWAP1 PUSH2 0x39CD JUMP JUMPDEST PUSH0 PUSH1 0x40 MLOAD DUP1 DUP4 SUB DUP2 DUP6 DUP8 GAS CALL SWAP3 POP POP POP RETURNDATASIZE DUP1 PUSH0 DUP2 EQ PUSH2 0x155A JUMPI PUSH1 0x40 MLOAD SWAP2 POP PUSH1 0x1F NOT PUSH1 0x3F RETURNDATASIZE ADD AND DUP3 ADD PUSH1 0x40 MSTORE RETURNDATASIZE DUP3 MSTORE RETURNDATASIZE PUSH0 PUSH1 0x20 DUP5 ADD RETURNDATACOPY PUSH2 0x155F JUMP JUMPDEST PUSH1 0x60 SWAP2 POP JUMPDEST POP POP SWAP1 POP DUP1 PUSH2 0x159A JUMPI PUSH1 0x40 MLOAD PUSH32 0x750B219C00000000000000000000000000000000000000000000000000000000 DUP2 MSTORE PUSH1 0x4 ADD PUSH1 0x40 MLOAD DUP1 SWAP2 SUB SWAP1 REVERT JUMPDEST CALLER PUSH20 0xFFFFFFFFFFFFFFFFFFFFFFFFFFFFFFFFFFFFFFFF AND PUSH1 0x1 SLOAD PUSH32 0x47F74A265269AA6E5423FBCD9A74B3C8771A0C3A9C7CDFB7EBE375B288C06B4E PUSH1 0x40 MLOAD PUSH1 0x40 MLOAD DUP1 SWAP2 SUB SWAP1 LOG3 POP POP POP PUSH1 0x1 PUSH0 DUP2 SWAP1 SSTORE POP JUMP JUMPDEST PUSH0 PUSH0 PUSH2 0x15F7 DUP5 PUSH2 0x315D JUMP JUMPDEST SWAP1 POP DUP1 PUSH1 0xD ADD PUSH0 DUP5 PUSH20 0xFFFFFFFFFFFFFFFFFFFFFFFFFFFFFFFFFFFFFFFF AND PUSH20 0xFFFFFFFFFFFFFFFFFFFFFFFFFFFFFFFFFFFFFFFF AND DUP2 MSTORE PUSH1 0x20 ADD SWAP1 DUP2 MSTORE PUSH1 0x20 ADD PUSH0 KECCAK256 SLOAD SWAP2 POP POP SWAP3 SWAP2 POP POP JUMP JUMPDEST PUSH0 PUSH2 0x164B PUSH2 0x2D4E JUMP JUMPDEST SWAP1 POP DUP1 PUSH1 0x4 ADD PUSH1 0x8 SWAP1 SLOAD SWAP1 PUSH2 0x100 EXP SWAP1 DIV PUSH8 0xFFFFFFFFFFFFFFFF AND PUSH8 0xFFFFFFFFFFFFFFFF AND TIMESTAMP LT ISZERO DUP1 PUSH2 0x169E JUMPI POP DUP1 PUSH1 0x4 ADD PUSH0 SWAP1 SLOAD SWAP1 PUSH2 0x100 EXP SWAP1 DIV PUSH8 0xFFFFFFFFFFFFFFFF AND PUSH8 0xFFFFFFFFFFFFFFFF AND TIMESTAMP LT JUMPDEST ISZERO PUSH2 0x16D5 JUMPI PUSH1 0x40 MLOAD PUSH32 0xABFB7DC300000000000000000000000000000000000000000000000000000000 DUP2 MSTORE PUSH1 0x4 ADD PUSH1 0x40 MLOAD DUP1 SWAP2 SUB SWAP1 REVERT JUMPDEST PUSH0 PUSH0 SHL DUP3 SUB PUSH2 0x1710 JUMPI PUSH1 0x40 MLOAD PUSH32 0xC06789FA00000000000000000000000000000000000000000000000000000000 DUP2 MSTORE PUSH1 0x4 ADD PUSH1 0x40 MLOAD DUP1 SWAP2 SUB SWAP1 REVERT JUMPDEST DUP1 PUSH1 0x1 ADD PUSH0 SWAP1 SLOAD SWAP1 PUSH2 0x100 EXP SWAP1 DIV PUSH20 0xFFFFFFFFFFFFFFFFFFFFFFFFFFFFFFFFFFFFFFFF AND PUSH20 0xFFFFFFFFFFFFFFFFFFFFFFFFFFFFFFFFFFFFFFFF AND CALLER PUSH20 0xFFFFFFFFFFFFFFFFFFFFFFFFFFFFFFFFFFFFFFFF AND SUB PUSH2 0x1798 JUMPI PUSH1 0x40 MLOAD PUSH32 0xEF02588900000000000000000000000000000000000000000000000000000000 DUP2 MSTORE PUSH1 0x4 ADD PUSH1 0x40 MLOAD DUP1 SWAP2 SUB SWAP1 REVERT JUMPDEST DUP1 PUSH1 0x3 ADD SLOAD CALLVALUE EQ PUSH2 0x17D5 JUMPI PUSH1 0x40 MLOAD PUSH32 0x603E3D3600000000000000000000000000000000000000000000000000000000 DUP2 MSTORE PUSH1 0x4 ADD PUSH1 0x40 MLOAD DUP1 SWAP2 SUB SWAP1 REVERT JUMPDEST DUP1 PUSH1 0x3 ADD SLOAD DUP2 PUSH1 0xC ADD PUSH0 CALLER PUSH20 0xFFFFFFFFFFFFFFFFFFFFFFFFFFFFFFFFFFFFFFFF AND PUSH20 0xFFFFFFFFFFFFFFFFFFFFFFFFFFFFFFFFFFFFFFFF AND DUP2 MSTORE PUSH1 0x20 ADD SWAP1 DUP2 MSTORE PUSH1 0x20 ADD PUSH0 KECCAK256 PUSH0 DUP3 DUP3 SLOAD PUSH2 0x1827 SWAP2 SWAP1 PUSH2 0x39E1 JUMP JUMPDEST SWAP3 POP POP DUP2 SWAP1 SSTORE POP PUSH1 0x1 DUP2 PUSH1 0xE ADD PUSH0 DUP3 DUP3 DUP3 SWAP1 SLOAD SWAP1 PUSH2 0x100 EXP SWAP1 DIV PUSH8 0xFFFFFFFFFFFFFFFF AND PUSH2 0x1855 SWAP2 SWAP1 PUSH2 0x384F JUMP JUMPDEST SWAP3 POP PUSH2 0x100 EXP DUP2 SLOAD DUP2 PUSH8 0xFFFFFFFFFFFFFFFF MUL NOT AND SWAP1 DUP4 PUSH8 0xFFFFFFFFFFFFFFFF AND MUL OR SWAP1 SSTORE POP DUP1 PUSH1 0xE ADD PUSH0 SWAP1 SLOAD SWAP1 PUSH2 0x100 EXP SWAP1 DIV PUSH8 0xFFFFFFFFFFFFFFFF AND DUP2 PUSH1 0xB ADD PUSH0 CALLER PUSH20 0xFFFFFFFFFFFFFFFFFFFFFFFFFFFFFFFFFFFFFFFF AND PUSH20 0xFFFFFFFFFFFFFFFFFFFFFFFFFFFFFFFFFFFFFFFF AND DUP2 MSTORE PUSH1 0x20 ADD SWAP1 DUP2 MSTORE PUSH1 0x20 ADD PUSH0 KECCAK256 PUSH0 PUSH2 0x100 EXP DUP2 SLOAD DUP2 PUSH8 0xFFFFFFFFFFFFFFFF MUL NOT AND SWAP1 DUP4 PUSH8 0xFFFFFFFFFFFFFFFF AND MUL OR SWAP1 SSTORE POP DUP2 DUP2 PUSH1 0xA ADD PUSH0 CALLER PUSH20 0xFFFFFFFFFFFFFFFFFFFFFFFFFFFFFFFFFFFFFFFF AND PUSH20 0xFFFFFFFFFFFFFFFFFFFFFFFFFFFFFFFFFFFFFFFF AND DUP2 MSTORE PUSH1 0x20 ADD SWAP1 DUP2 MSTORE PUSH1 0x20 ADD PUSH0 KECCAK256 DUP2 SWAP1 SSTORE POP CALLER PUSH20 0xFFFFFFFFFFFFFFFFFFFFFFFFFFFFFFFFFFFFFFFF AND PUSH1 0x1 SLOAD PUSH32 0x934EA4DE468DCD0D9A335C5F97AA77955310C29631C93FBD01D95A00242EC41 PUSH1 0x40 MLOAD PUSH1 0x40 MLOAD DUP1 SWAP2 SUB SWAP1 LOG3 POP POP JUMP JUMPDEST PUSH0 PUSH1 0x1 SLOAD EQ PUSH2 0x19F7 JUMPI PUSH0 PUSH1 0x2 PUSH0 PUSH1 0x1 SLOAD DUP2 MSTORE PUSH1 0x20 ADD SWAP1 DUP2 MSTORE PUSH1 0x20 ADD PUSH0 KECCAK256 SWAP1 POP DUP1 PUSH1 0x9 ADD PUSH1 0x1 SWAP1 SLOAD SWAP1 PUSH2 0x100 EXP SWAP1 DIV PUSH1 0xFF AND PUSH2 0x19F5 JUMPI PUSH1 0x40 MLOAD PUSH32 0x8C379A000000000000000000000000000000000000000000000000000000000 DUP2 MSTORE PUSH1 0x4 ADD PUSH2 0x19EC SWAP1 PUSH2 0x3A5E JUMP JUMPDEST PUSH1 0x40 MLOAD DUP1 SWAP2 SUB SWAP1 REVERT JUMPDEST POP JUMPDEST PUSH0 DUP4 PUSH8 0xFFFFFFFFFFFFFFFF AND GT DUP1 ISZERO PUSH2 0x1A1C JUMPI POP PUSH3 0x278D00 DUP4 PUSH8 0xFFFFFFFFFFFFFFFF AND LT JUMPDEST PUSH2 0x1A5B JUMPI PUSH1 0x40 MLOAD PUSH32 0x8C379A000000000000000000000000000000000000000000000000000000000 DUP2 MSTORE PUSH1 0x4 ADD PUSH2 0x1A52 SWAP1 PUSH2 0x3AC6 JUMP JUMPDEST PUSH1 0x40 MLOAD DUP1 SWAP2 SUB SWAP1 REVERT JUMPDEST PUSH0 DUP3 PUSH8 0xFFFFFFFFFFFFFFFF AND GT DUP1 ISZERO PUSH2 0x1A80 JUMPI POP PUSH3 0x278D00 DUP3 PUSH8 0xFFFFFFFFFFFFFFFF AND LT JUMPDEST PUSH2 0x1ABF JUMPI PUSH1 0x40 MLOAD PUSH32 0x8C379A000000000000000000000000000000000000000000000000000000000 DUP2 MSTORE PUSH1 0x4 ADD PUSH2 0x1AB6 SWAP1 PUSH2 0x3B2E JUMP JUMPDEST PUSH1 0x40 MLOAD DUP1 SWAP2 SUB SWAP1 REVERT JUMPDEST PUSH0 DUP2 PUSH8 0xFFFFFFFFFFFFFFFF AND GT DUP1 ISZERO PUSH2 0x1AE4 JUMPI POP PUSH3 0x278D00 DUP2 PUSH8 0xFFFFFFFFFFFFFFFF AND LT JUMPDEST PUSH2 0x1B23 JUMPI PUSH1 0x40 MLOAD PUSH32 0x8C379A000000000000000000000000000000000000000000000000000000000 DUP2 MSTORE PUSH1 0x4 ADD PUSH2 0x1B1A SWAP1 PUSH2 0x3B96 JUMP JUMPDEST PUSH1 0x40 MLOAD DUP1 SWAP2 SUB SWAP1 REVERT JUMPDEST PUSH0 DUP5 LT ISZERO DUP1 ISZERO PUSH2 0x1B3E JUMPI POP PUSH12 0x33B2E3C9FD0803CE8000000 DUP5 LT JUMPDEST PUSH2 0x1B7D JUMPI PUSH1 0x40 MLOAD PUSH32 0x8C379A000000000000000000000000000000000000000000000000000000000 DUP2 MSTORE PUSH1 0x4 ADD PUSH2 0x1B74 SWAP1 PUSH2 0x3BFE JUMP JUMPDEST PUSH1 0x40 MLOAD DUP1 SWAP2 SUB SWAP1 REVERT JUMPDEST CALLER PUSH20 0xFFFFFFFFFFFFFFFFFFFFFFFFFFFFFFFFFFFFFFFF AND PUSH32 0x0 PUSH20 0xFFFFFFFFFFFFFFFFFFFFFFFFFFFFFFFFFFFFFFFF AND PUSH4 0x6352211E DUP8 PUSH1 0x40 MLOAD DUP3 PUSH4 0xFFFFFFFF AND PUSH1 0xE0 SHL DUP2 MSTORE PUSH1 0x4 ADD PUSH2 0x1BED SWAP2 SWAP1 PUSH2 0x3216 JUMP JUMPDEST PUSH1 0x20 PUSH1 0x40 MLOAD DUP1 DUP4 SUB DUP2 DUP7 GAS STATICCALL ISZERO DUP1 ISZERO PUSH2 0x1C08 JUMPI RETURNDATASIZE PUSH0 PUSH0 RETURNDATACOPY RETURNDATASIZE PUSH0 REVERT JUMPDEST POP POP POP POP PUSH1 0x40 MLOAD RETURNDATASIZE PUSH1 0x1F NOT PUSH1 0x1F DUP3 ADD AND DUP3 ADD DUP1 PUSH1 0x40 MSTORE POP DUP2 ADD SWAP1 PUSH2 0x1C2C SWAP2 SWAP1 PUSH2 0x3C30 JUMP JUMPDEST PUSH20 0xFFFFFFFFFFFFFFFFFFFFFFFFFFFFFFFFFFFFFFFF AND EQ PUSH2 0x1C82 JUMPI PUSH1 0x40 MLOAD PUSH32 0x8C379A000000000000000000000000000000000000000000000000000000000 DUP2 MSTORE PUSH1 0x4 ADD PUSH2 0x1C79 SWAP1 PUSH2 0x3CA5 JUMP JUMPDEST PUSH1 0x40 MLOAD DUP1 SWAP2 SUB SWAP1 REVERT JUMPDEST PUSH2 0x1C8D CALLER ADDRESS DUP8 PUSH2 0x2DEF JUMP JUMPDEST PUSH1 0x1 DUP1 PUSH0 DUP3 DUP3 SLOAD PUSH2 0x1C9E SWAP2 SWAP1 PUSH2 0x39E1 JUMP JUMPDEST SWAP3 POP POP DUP2 SWAP1 SSTORE POP PUSH0 PUSH1 0x2 PUSH0 PUSH1 0x1 SLOAD DUP2 MSTORE PUSH1 0x20 ADD SWAP1 DUP2 MSTORE PUSH1 0x20 ADD PUSH0 KECCAK256 SWAP1 POP DUP6 DUP2 PUSH0 ADD DUP2 SWAP1 SSTORE POP CALLER DUP2 PUSH1 0x1 ADD PUSH0 PUSH2 0x100 EXP DUP2 SLOAD DUP2 PUSH20 0xFFFFFFFFFFFFFFFFFFFFFFFFFFFFFFFFFFFFFFFF MUL NOT AND SWAP1 DUP4 PUSH20 0xFFFFFFFFFFFFFFFFFFFFFFFFFFFFFFFFFFFFFFFF AND MUL OR SWAP1 SSTORE POP DUP5 DUP2 PUSH1 0x2 ADD DUP2 SWAP1 SSTORE POP PUSH12 0x33B2E3C9FD0803CE8000000 PUSH1 0x2 DUP7 PUSH2 0x1D28 SWAP2 SWAP1 PUSH2 0x3CF0 JUMP JUMPDEST LT PUSH2 0x1D3F JUMPI PUSH12 0x33B2E3C9FD0803CE8000000 PUSH2 0x1D4D JUMP JUMPDEST PUSH1 0x2 DUP6 PUSH2 0x1D4C SWAP2 SWAP1 PUSH2 0x3CF0 JUMP JUMPDEST JUMPDEST DUP2 PUSH1 0x3 ADD DUP2 SWAP1 SSTORE POP PUSH0 TIMESTAMP SWAP1 POP DUP1 DUP3 PUSH1 0x4 ADD PUSH0 PUSH2 0x100 EXP DUP2 SLOAD DUP2 PUSH8 0xFFFFFFFFFFFFFFFF MUL NOT AND SWAP1 DUP4 PUSH8 0xFFFFFFFFFFFFFFFF AND MUL OR SWAP1 SSTORE POP DUP5 DUP2 PUSH2 0x1D8F SWAP2 SWAP1 PUSH2 0x384F JUMP JUMPDEST DUP3 PUSH1 0x4 ADD PUSH1 0x8 PUSH2 0x100 EXP DUP2 SLOAD DUP2 PUSH8 0xFFFFFFFFFFFFFFFF MUL NOT AND SWAP1 DUP4 PUSH8 0xFFFFFFFFFFFFFFFF AND MUL OR SWAP1 SSTORE POP DUP4 DUP3 PUSH1 0x4 ADD PUSH1 0x8 SWAP1 SLOAD SWAP1 PUSH2 0x100 EXP SWAP1 DIV PUSH8 0xFFFFFFFFFFFFFFFF AND PUSH2 0x1DDD SWAP2 SWAP1 PUSH2 0x384F JUMP JUMPDEST DUP3 PUSH1 0x4 ADD PUSH1 0x10 PUSH2 0x100 EXP DUP2 SLOAD DUP2 PUSH8 0xFFFFFFFFFFFFFFFF MUL NOT AND SWAP1 DUP4 PUSH8 0xFFFFFFFFFFFFFFFF AND MUL OR SWAP1 SSTORE POP DUP3 DUP3 PUSH1 0x4 ADD PUSH1 0x18 PUSH2 0x100 EXP DUP2 SLOAD DUP2 PUSH8 0xFFFFFFFFFFFFFFFF MUL NOT AND SWAP1 DUP4 PUSH8 0xFFFFFFFFFFFFFFFF AND MUL OR SWAP1 SSTORE POP PUSH32 0x0 PUSH20 0xFFFFFFFFFFFFFFFFFFFFFFFFFFFFFFFFFFFFFFFF AND CALLER PUSH20 0xFFFFFFFFFFFFFFFFFFFFFFFFFFFFFFFFFFFFFFFF AND PUSH1 0x1 SLOAD PUSH32 0x86B19D6A6B02147FC1E9F2538AE5B1FF124EE6827666573F5F59710A6BD5EBB DUP11 DUP11 DUP8 PUSH1 0x3 ADD SLOAD DUP9 PUSH1 0x4 ADD PUSH0 SWAP1 SLOAD SWAP1 PUSH2 0x100 EXP SWAP1 DIV PUSH8 0xFFFFFFFFFFFFFFFF AND DUP10 PUSH1 0x4 ADD PUSH1 0x8 SWAP1 SLOAD SWAP1 PUSH2 0x100 EXP SWAP1 DIV PUSH8 0xFFFFFFFFFFFFFFFF AND DUP11 PUSH1 0x4 ADD PUSH1 0x10 SWAP1 SLOAD SWAP1 PUSH2 0x100 EXP SWAP1 DIV PUSH8 0xFFFFFFFFFFFFFFFF AND DUP12 PUSH1 0x4 ADD PUSH1 0x18 SWAP1 SLOAD SWAP1 PUSH2 0x100 EXP SWAP1 DIV PUSH8 0xFFFFFFFFFFFFFFFF AND PUSH1 0x40 MLOAD PUSH2 0x1F21 SWAP8 SWAP7 SWAP6 SWAP5 SWAP4 SWAP3 SWAP2 SWAP1 PUSH2 0x3D50 JUMP JUMPDEST PUSH1 0x40 MLOAD DUP1 SWAP2 SUB SWAP1 LOG4 POP POP POP POP POP POP POP JUMP JUMPDEST PUSH0 PUSH0 PUSH2 0x1F3D DUP5 PUSH2 0x315D JUMP JUMPDEST SWAP1 POP DUP1 PUSH1 0xA ADD PUSH0 DUP5 PUSH20 0xFFFFFFFFFFFFFFFFFFFFFFFFFFFFFFFFFFFFFFFF AND PUSH20 0xFFFFFFFFFFFFFFFFFFFFFFFFFFFFFFFFFFFFFFFF AND DUP2 MSTORE PUSH1 0x20 ADD SWAP1 DUP2 MSTORE PUSH1 0x20 ADD PUSH0 KECCAK256 SLOAD SWAP2 POP POP SWAP3 SWAP2 POP POP JUMP JUMPDEST PUSH1 0x2 PUSH0 SLOAD SUB PUSH2 0x1FCC JUMPI PUSH1 0x40 MLOAD PUSH32 0x8C379A000000000000000000000000000000000000000000000000000000000 DUP2 MSTORE PUSH1 0x4 ADD PUSH2 0x1FC3 SWAP1 PUSH2 0x3982 JUMP JUMPDEST PUSH1 0x40 MLOAD DUP1 SWAP2 SUB SWAP1 REVERT JUMPDEST PUSH1 0x2 PUSH0 DUP2 SWAP1 SSTORE POP PUSH0 PUSH2 0x1FDD DUP3 PUSH2 0x315D JUMP JUMPDEST SWAP1 POP DUP1 PUSH1 0x9 ADD PUSH0 SWAP1 SLOAD SWAP1 PUSH2 0x100 EXP SWAP1 DIV PUSH1 0xFF AND PUSH2 0x2026 JUMPI PUSH1 0x40 MLOAD PUSH32 0xD3018D1800000000000000000000000000000000000000000000000000000000 DUP2 MSTORE PUSH1 0x4 ADD PUSH1 0x40 MLOAD DUP1 SWAP2 SUB SWAP1 REVERT JUMPDEST CALLER PUSH20 0xFFFFFFFFFFFFFFFFFFFFFFFFFFFFFFFFFFFFFFFF AND DUP2 PUSH1 0x5 ADD PUSH1 0x8 SWAP1 SLOAD SWAP1 PUSH2 0x100 EXP SWAP1 DIV PUSH20 0xFFFFFFFFFFFFFFFFFFFFFFFFFFFFFFFFFFFFFFFF AND PUSH20 0xFFFFFFFFFFFFFFFFFFFFFFFFFFFFFFFFFFFFFFFF AND EQ PUSH2 0x20AF JUMPI PUSH1 0x40 MLOAD PUSH32 0x618C724200000000000000000000000000000000000000000000000000000000 DUP2 MSTORE PUSH1 0x4 ADD PUSH1 0x40 MLOAD DUP1 SWAP2 SUB SWAP1 REVERT JUMPDEST DUP1 PUSH1 0x9 ADD PUSH1 0x1 SWAP1 SLOAD SWAP1 PUSH2 0x100 EXP SWAP1 DIV PUSH1 0xFF AND ISZERO PUSH2 0x20F8 JUMPI PUSH1 0x40 MLOAD PUSH32 0x44A5DDCC00000000000000000000000000000000000000000000000000000000 DUP2 MSTORE PUSH1 0x4 ADD PUSH1 0x40 MLOAD DUP1 SWAP2 SUB SWAP1 REVERT JUMPDEST DUP1 PUSH1 0x5 ADD PUSH0 SWAP1 SLOAD SWAP1 PUSH2 0x100 EXP SWAP1 DIV PUSH8 0xFFFFFFFFFFFFFFFF AND PUSH8 0xFFFFFFFFFFFFFFFF AND TIMESTAMP GT DUP1 ISZERO PUSH2 0x212C JUMPI POP PUSH0 DUP2 PUSH1 0x8 ADD SLOAD EQ ISZERO JUMPDEST ISZERO PUSH2 0x2163 JUMPI PUSH1 0x40 MLOAD PUSH32 0x58459E8800000000000000000000000000000000000000000000000000000000 DUP2 MSTORE PUSH1 0x4 ADD PUSH1 0x40 MLOAD DUP1 SWAP2 SUB SWAP1 REVERT JUMPDEST DUP1 PUSH1 0x8 ADD SLOAD CALLVALUE EQ PUSH2 0x21A0 JUMPI PUSH1 0x40 MLOAD PUSH32 0x788A686F00000000000000000000000000000000000000000000000000000000 DUP2 MSTORE PUSH1 0x4 ADD PUSH1 0x40 MLOAD DUP1 SWAP2 SUB SWAP1 REVERT JUMPDEST PUSH0 DUP2 PUSH1 0x8 ADD SLOAD EQ PUSH2 0x222D JUMPI PUSH0 DUP2 PUSH1 0x8 ADD DUP2 SWAP1 SSTORE POP CALLVALUE DUP2 PUSH1 0xC ADD PUSH0 DUP4 PUSH1 0x1 ADD PUSH0 SWAP1 SLOAD SWAP1 PUSH2 0x100 EXP SWAP1 DIV PUSH20 0xFFFFFFFFFFFFFFFFFFFFFFFFFFFFFFFFFFFFFFFF AND PUSH20 0xFFFFFFFFFFFFFFFFFFFFFFFFFFFFFFFFFFFFFFFF AND PUSH20 0xFFFFFFFFFFFFFFFFFFFFFFFFFFFFFFFFFFFFFFFF AND DUP2 MSTORE PUSH1 0x20 ADD SWAP1 DUP2 MSTORE PUSH1 0x20 ADD PUSH0 KECCAK256 PUSH0 DUP3 DUP3 SLOAD PUSH2 0x2225 SWAP2 SWAP1 PUSH2 0x39E1 JUMP JUMPDEST SWAP3 POP POP DUP2 SWAP1 SSTORE POP JUMPDEST PUSH1 0x1 DUP2 PUSH1 0x9 ADD PUSH1 0x1 PUSH2 0x100 EXP DUP2 SLOAD DUP2 PUSH1 0xFF MUL NOT AND SWAP1 DUP4 ISZERO ISZERO MUL OR SWAP1 SSTORE POP PUSH2 0x227C ADDRESS DUP3 PUSH1 0x5 ADD PUSH1 0x8 SWAP1 SLOAD SWAP1 PUSH2 0x100 EXP SWAP1 DIV PUSH20 0xFFFFFFFFFFFFFFFFFFFFFFFFFFFFFFFFFFFFFFFF AND DUP4 PUSH0 ADD SLOAD PUSH2 0x2DEF JUMP JUMPDEST CALLER PUSH20 0xFFFFFFFFFFFFFFFFFFFFFFFFFFFFFFFFFFFFFFFF AND PUSH1 0x1 SLOAD PUSH32 0xD33EF6AB06E6BF8672161AA6ABE1EC1791C393D62213EBD89C67F611E538E575 CALLVALUE PUSH1 0x40 MLOAD PUSH2 0x22C5 SWAP2 SWAP1 PUSH2 0x3216 JUMP JUMPDEST PUSH1 0x40 MLOAD DUP1 SWAP2 SUB SWAP1 LOG3 POP PUSH1 0x1 PUSH0 DUP2 SWAP1 SSTORE POP POP JUMP JUMPDEST PUSH3 0x278D00 DUP2 JUMP JUMPDEST PUSH1 0x60 PUSH0 PUSH2 0x22EB DUP4 PUSH2 0x315D JUMP JUMPDEST SWAP1 POP PUSH0 TIMESTAMP SWAP1 POP DUP2 PUSH1 0x4 ADD PUSH1 0x8 SWAP1 SLOAD SWAP1 PUSH2 0x100 EXP SWAP1 DIV PUSH8 0xFFFFFFFFFFFFFFFF AND PUSH8 0xFFFFFFFFFFFFFFFF AND DUP2 LT ISZERO PUSH2 0x235A JUMPI PUSH1 0x40 MLOAD DUP1 PUSH1 0x40 ADD PUSH1 0x40 MSTORE DUP1 PUSH1 0x6 DUP2 MSTORE PUSH1 0x20 ADD PUSH32 0x434F4D4D49540000000000000000000000000000000000000000000000000000 DUP2 MSTORE POP SWAP3 POP POP POP PUSH2 0x254B JUMP JUMPDEST DUP2 PUSH1 0x4 ADD PUSH1 0x10 SWAP1 SLOAD SWAP1 PUSH2 0x100 EXP SWAP1 DIV PUSH8 0xFFFFFFFFFFFFFFFF AND PUSH8 0xFFFFFFFFFFFFFFFF AND DUP2 LT ISZERO PUSH2 0x23C3 JUMPI PUSH1 0x40 MLOAD DUP1 PUSH1 0x40 ADD PUSH1 0x40 MSTORE DUP1 PUSH1 0x6 DUP2 MSTORE PUSH1 0x20 ADD PUSH32 0x52455645414C0000000000000000000000000000000000000000000000000000 DUP2 MSTORE POP SWAP3 POP POP POP PUSH2 0x254B JUMP JUMPDEST DUP2 PUSH1 0x9 ADD PUSH0 SWAP1 SLOAD SWAP1 PUSH2 0x100 EXP SWAP1 DIV PUSH1 0xFF AND PUSH2 0x2417 JUMPI PUSH1 0x40 MLOAD DUP1 PUSH1 0x40 ADD PUSH1 0x40 MSTORE DUP1 PUSH1 0x10 DUP2 MSTORE PUSH1 0x20 ADD PUSH32 0x46494E414C495A455F50454E44494E4700000000000000000000000000000000 DUP2 MSTORE POP SWAP3 POP POP POP PUSH2 0x254B JUMP JUMPDEST DUP2 PUSH1 0x9 ADD PUSH0 SWAP1 SLOAD SWAP1 PUSH2 0x100 EXP SWAP1 DIV PUSH1 0xFF AND DUP1 ISZERO PUSH2 0x2443 JUMPI POP DUP2 PUSH1 0x9 ADD PUSH1 0x1 SWAP1 SLOAD SWAP1 PUSH2 0x100 EXP SWAP1 DIV PUSH1 0xFF AND ISZERO JUMPDEST DUP1 ISZERO PUSH2 0x249F JUMPI POP PUSH0 PUSH20 0xFFFFFFFFFFFFFFFFFFFFFFFFFFFFFFFFFFFFFFFF AND DUP3 PUSH1 0x5 ADD PUSH1 0x8 SWAP1 SLOAD SWAP1 PUSH2 0x100 EXP SWAP1 DIV PUSH20 0xFFFFFFFFFFFFFFFFFFFFFFFFFFFFFFFFFFFFFFFF AND PUSH20 0xFFFFFFFFFFFFFFFFFFFFFFFFFFFFFFFFFFFFFFFF AND EQ ISZERO JUMPDEST DUP1 ISZERO PUSH2 0x24CC JUMPI POP DUP2 PUSH1 0x5 ADD PUSH0 SWAP1 SLOAD SWAP1 PUSH2 0x100 EXP SWAP1 DIV PUSH8 0xFFFFFFFFFFFFFFFF AND PUSH8 0xFFFFFFFFFFFFFFFF AND DUP2 GT ISZERO JUMPDEST ISZERO PUSH2 0x2510 JUMPI PUSH1 0x40 MLOAD DUP1 PUSH1 0x40 ADD PUSH1 0x40 MSTORE DUP1 PUSH1 0xD DUP2 MSTORE PUSH1 0x20 ADD PUSH32 0x41574149545F5041594D454E5400000000000000000000000000000000000000 DUP2 MSTORE POP SWAP3 POP POP POP PUSH2 0x254B JUMP JUMPDEST PUSH1 0x40 MLOAD DUP1 PUSH1 0x40 ADD PUSH1 0x40 MSTORE DUP1 PUSH1 0x5 DUP2 MSTORE PUSH1 0x20 ADD PUSH32 0x454E444544000000000000000000000000000000000000000000000000000000 DUP2 MSTORE POP SWAP3 POP POP POP JUMPDEST SWAP2 SWAP1 POP JUMP JUMPDEST PUSH0 PUSH2 0x255A DUP3 PUSH2 0x315D JUMP JUMPDEST SWAP1 POP DUP1 PUSH1 0x9 ADD PUSH0 SWAP1 SLOAD SWAP1 PUSH2 0x100 EXP SWAP1 DIV PUSH1 0xFF AND PUSH2 0x25A3 JUMPI PUSH1 0x40 MLOAD PUSH32 0xD3018D1800000000000000000000000000000000000000000000000000000000 DUP2 MSTORE PUSH1 0x4 ADD PUSH1 0x40 MLOAD DUP1 SWAP2 SUB SWAP1 REVERT JUMPDEST DUP1 PUSH1 0x5 ADD PUSH0 SWAP1 SLOAD SWAP1 PUSH2 0x100 EXP SWAP1 DIV PUSH8 0xFFFFFFFFFFFFFFFF AND PUSH8 0xFFFFFFFFFFFFFFFF AND TIMESTAMP GT PUSH2 0x25FD JUMPI PUSH1 0x40 MLOAD PUSH32 0xD3018D1800000000000000000000000000000000000000000000000000000000 DUP2 MSTORE PUSH1 0x4 ADD PUSH1 0x40 MLOAD DUP1 SWAP2 SUB SWAP1 REVERT JUMPDEST DUP1 PUSH1 0x1 ADD PUSH0 SWAP1 SLOAD SWAP1 PUSH2 0x100 EXP SWAP1 DIV PUSH20 0xFFFFFFFFFFFFFFFFFFFFFFFFFFFFFFFFFFFFFFFF AND PUSH20 0xFFFFFFFFFFFFFFFFFFFFFFFFFFFFFFFFFFFFFFFF AND CALLER PUSH20 0xFFFFFFFFFFFFFFFFFFFFFFFFFFFFFFFFFFFFFFFF AND EQ PUSH2 0x2685 JUMPI PUSH1 0x40 MLOAD PUSH32 0x44A5DDCC00000000000000000000000000000000000000000000000000000000 DUP2 MSTORE PUSH1 0x4 ADD PUSH1 0x40 MLOAD DUP1 SWAP2 SUB SWAP1 REVERT JUMPDEST DUP1 PUSH1 0x9 ADD PUSH1 0x1 SWAP1 SLOAD SWAP1 PUSH2 0x100 EXP SWAP1 DIV PUSH1 0xFF AND ISZERO PUSH2 0x26CE JUMPI PUSH1 0x40 MLOAD PUSH32 0x44A5DDCC00000000000000000000000000000000000000000000000000000000 DUP2 MSTORE PUSH1 0x4 ADD PUSH1 0x40 MLOAD DUP1 SWAP2 SUB SWAP1 REVERT JUMPDEST PUSH1 0x1 DUP2 PUSH1 0x9 ADD PUSH1 0x1 PUSH2 0x100 EXP DUP2 SLOAD DUP2 PUSH1 0xFF MUL NOT AND SWAP1 DUP4 ISZERO ISZERO MUL OR SWAP1 SSTORE POP PUSH2 0x271C ADDRESS DUP3 PUSH1 0x1 ADD PUSH0 SWAP1 SLOAD SWAP1 PUSH2 0x100 EXP SWAP1 DIV PUSH20 0xFFFFFFFFFFFFFFFFFFFFFFFFFFFFFFFFFFFFFFFF AND DUP4 PUSH0 ADD SLOAD PUSH2 0x2DEF JUMP JUMPDEST PUSH0 DUP2 PUSH1 0xC ADD PUSH0 DUP4 PUSH1 0x5 ADD PUSH1 0x8 SWAP1 SLOAD SWAP1 PUSH2 0x100 EXP SWAP1 DIV PUSH20 0xFFFFFFFFFFFFFFFFFFFFFFFFFFFFFFFFFFFFFFFF AND PUSH20 0xFFFFFFFFFFFFFFFFFFFFFFFFFFFFFFFFFFFFFFFF AND PUSH20 0xFFFFFFFFFFFFFFFFFFFFFFFFFFFFFFFFFFFFFFFF AND DUP2 MSTORE PUSH1 0x20 ADD SWAP1 DUP2 MSTORE PUSH1 0x20 ADD PUSH0 KECCAK256 SLOAD SWAP1 POP PUSH0 DUP3 PUSH1 0xC ADD PUSH0 DUP5 PUSH1 0x5 ADD PUSH1 0x8 SWAP1 SLOAD SWAP1 PUSH2 0x100 EXP SWAP1 DIV PUSH20 0xFFFFFFFFFFFFFFFFFFFFFFFFFFFFFFFFFFFFFFFF AND PUSH20 0xFFFFFFFFFFFFFFFFFFFFFFFFFFFFFFFFFFFFFFFF AND PUSH20 0xFFFFFFFFFFFFFFFFFFFFFFFFFFFFFFFFFFFFFFFF AND DUP2 MSTORE PUSH1 0x20 ADD SWAP1 DUP2 MSTORE PUSH1 0x20 ADD PUSH0 KECCAK256 DUP2 SWAP1 SSTORE POP PUSH0 CALLER PUSH20 0xFFFFFFFFFFFFFFFFFFFFFFFFFFFFFFFFFFFFFFFF AND DUP3 PUSH1 0x40 MLOAD PUSH2 0x2810 SWAP1 PUSH2 0x39CD JUMP JUMPDEST PUSH0 PUSH1 0x40 MLOAD DUP1 DUP4 SUB DUP2 DUP6 DUP8 GAS CALL SWAP3 POP POP POP RETURNDATASIZE DUP1 PUSH0 DUP2 EQ PUSH2 0x284A JUMPI PUSH1 0x40 MLOAD SWAP2 POP PUSH1 0x1F NOT PUSH1 0x3F RETURNDATASIZE ADD AND DUP3 ADD PUSH1 0x40 MSTORE RETURNDATASIZE DUP3 MSTORE RETURNDATASIZE PUSH0 PUSH1 0x20 DUP5 ADD RETURNDATACOPY PUSH2 0x284F JUMP JUMPDEST PUSH1 0x60 SWAP2 POP JUMPDEST POP POP SWAP1 POP DUP1 PUSH2 0x288A JUMPI PUSH1 0x40 MLOAD PUSH32 0x750B219C00000000000000000000000000000000000000000000000000000000 DUP2 MSTORE PUSH1 0x4 ADD PUSH1 0x40 MLOAD DUP1 SWAP2 SUB SWAP1 REVERT JUMPDEST PUSH1 0x1 SLOAD PUSH32 0x55C90D9726FF7562E2DDA9743C070AB007DD986E4C0A42BCF578362C435A4D89 PUSH1 0x40 MLOAD PUSH1 0x40 MLOAD DUP1 SWAP2 SUB SWAP1 LOG2 POP POP POP POP JUMP JUMPDEST PUSH0 PUSH0 PUSH2 0x28CA DUP5 PUSH2 0x315D JUMP JUMPDEST SWAP1 POP DUP1 PUSH1 0xB ADD PUSH0 DUP5 PUSH20 0xFFFFFFFFFFFFFFFFFFFFFFFFFFFFFFFFFFFFFFFF AND PUSH20 0xFFFFFFFFFFFFFFFFFFFFFFFFFFFFFFFFFFFFFFFF AND DUP2 MSTORE PUSH1 0x20 ADD SWAP1 DUP2 MSTORE PUSH1 0x20 ADD PUSH0 KECCAK256 PUSH0 SWAP1 SLOAD SWAP1 PUSH2 0x100 EXP SWAP1 DIV PUSH8 0xFFFFFFFFFFFFFFFF AND SWAP2 POP POP SWAP3 SWAP2 POP POP JUMP JUMPDEST PUSH0 PUSH0 PUSH0 PUSH0 PUSH0 PUSH2 0x2936 DUP7 PUSH2 0x315D JUMP JUMPDEST SWAP1 POP DUP1 PUSH1 0x4 ADD PUSH0 SWAP1 SLOAD SWAP1 PUSH2 0x100 EXP SWAP1 DIV PUSH8 0xFFFFFFFFFFFFFFFF AND DUP2 PUSH1 0x4 ADD PUSH1 0x8 SWAP1 SLOAD SWAP1 PUSH2 0x100 EXP SWAP1 DIV PUSH8 0xFFFFFFFFFFFFFFFF AND DUP3 PUSH1 0x4 ADD PUSH1 0x10 SWAP1 SLOAD SWAP1 PUSH2 0x100 EXP SWAP1 DIV PUSH8 0xFFFFFFFFFFFFFFFF AND DUP4 PUSH1 0x5 ADD PUSH0 SWAP1 SLOAD SWAP1 PUSH2 0x100 EXP SWAP1 DIV PUSH8 0xFFFFFFFFFFFFFFFF AND SWAP5 POP SWAP5 POP SWAP5 POP SWAP5 POP POP SWAP2 SWAP4 POP SWAP2 SWAP4 JUMP JUMPDEST PUSH0 PUSH0 PUSH2 0x29B5 DUP5 PUSH2 0x315D JUMP JUMPDEST SWAP1 POP DUP1 PUSH1 0xC ADD PUSH0 DUP5 PUSH20 0xFFFFFFFFFFFFFFFFFFFFFFFFFFFFFFFFFFFFFFFF AND PUSH20 0xFFFFFFFFFFFFFFFFFFFFFFFFFFFFFFFFFFFFFFFF AND DUP2 MSTORE PUSH1 0x20 ADD SWAP1 DUP2 MSTORE PUSH1 0x20 ADD PUSH0 KECCAK256 SLOAD SWAP2 POP POP SWAP3 SWAP2 POP POP JUMP JUMPDEST PUSH1 0x2 PUSH0 SLOAD SUB PUSH2 0x2A44 JUMPI PUSH1 0x40 MLOAD PUSH32 0x8C379A000000000000000000000000000000000000000000000000000000000 DUP2 MSTORE PUSH1 0x4 ADD PUSH2 0x2A3B SWAP1 PUSH2 0x3982 JUMP JUMPDEST PUSH1 0x40 MLOAD DUP1 SWAP2 SUB SWAP1 REVERT JUMPDEST PUSH1 0x2 PUSH0 DUP2 SWAP1 SSTORE POP PUSH0 PUSH2 0x2A54 PUSH2 0x2D4E JUMP JUMPDEST SWAP1 POP DUP1 PUSH1 0x9 ADD PUSH0 SWAP1 SLOAD SWAP1 PUSH2 0x100 EXP SWAP1 DIV PUSH1 0xFF AND PUSH2 0x2A9D JUMPI PUSH1 0x40 MLOAD PUSH32 0xD3018D1800000000000000000000000000000000000000000000000000000000 DUP2 MSTORE PUSH1 0x4 ADD PUSH1 0x40 MLOAD DUP1 SWAP2 SUB SWAP1 REVERT JUMPDEST CALLER PUSH20 0xFFFFFFFFFFFFFFFFFFFFFFFFFFFFFFFFFFFFFFFF AND DUP2 PUSH1 0x5 ADD PUSH1 0x8 SWAP1 SLOAD SWAP1 PUSH2 0x100 EXP SWAP1 DIV PUSH20 0xFFFFFFFFFFFFFFFFFFFFFFFFFFFFFFFFFFFFFFFF AND PUSH20 0xFFFFFFFFFFFFFFFFFFFFFFFFFFFFFFFFFFFFFFFF AND EQ PUSH2 0x2B26 JUMPI PUSH1 0x40 MLOAD PUSH32 0x618C724200000000000000000000000000000000000000000000000000000000 DUP2 MSTORE PUSH1 0x4 ADD PUSH1 0x40 MLOAD DUP1 SWAP2 SUB SWAP1 REVERT JUMPDEST DUP1 PUSH1 0x9 ADD PUSH1 0x1 SWAP1 SLOAD SWAP1 PUSH2 0x100 EXP SWAP1 DIV PUSH1 0xFF AND ISZERO PUSH2 0x2B6F JUMPI PUSH1 0x40 MLOAD PUSH32 0x44A5DDCC00000000000000000000000000000000000000000000000000000000 DUP2 MSTORE PUSH1 0x4 ADD PUSH1 0x40 MLOAD DUP1 SWAP2 SUB SWAP1 REVERT JUMPDEST DUP1 PUSH1 0x5 ADD PUSH0 SWAP1 SLOAD SWAP1 PUSH2 0x100 EXP SWAP1 DIV PUSH8 0xFFFFFFFFFFFFFFFF AND PUSH8 0xFFFFFFFFFFFFFFFF AND TIMESTAMP GT DUP1 ISZERO PUSH2 0x2BA3 JUMPI POP PUSH0 DUP2 PUSH1 0x8 ADD SLOAD EQ ISZERO JUMPDEST ISZERO PUSH2 0x2BDA JUMPI PUSH1 0x40 MLOAD PUSH32 0x58459E8800000000000000000000000000000000000000000000000000000000 DUP2 MSTORE PUSH1 0x4 ADD PUSH1 0x40 MLOAD DUP1 SWAP2 SUB SWAP1 REVERT JUMPDEST DUP1 PUSH1 0x8 ADD SLOAD CALLVALUE EQ PUSH2 0x2C17 JUMPI PUSH1 0x40 MLOAD PUSH32 0x788A686F00000000000000000000000000000000000000000000000000000000 DUP2 MSTORE PUSH1 0x4 ADD PUSH1 0x40 MLOAD DUP1 SWAP2 SUB SWAP1 REVERT JUMPDEST PUSH0 DUP2 PUSH1 0x8 ADD SLOAD EQ PUSH2 0x2CA4 JUMPI PUSH0 DUP2 PUSH1 0x8 ADD DUP2 SWAP1 SSTORE POP CALLVALUE DUP2 PUSH1 0xC ADD PUSH0 DUP4 PUSH1 0x1 ADD PUSH0 SWAP1 SLOAD SWAP1 PUSH2 0x100 EXP SWAP1 DIV PUSH20 0xFFFFFFFFFFFFFFFFFFFFFFFFFFFFFFFFFFFFFFFF AND PUSH20 0xFFFFFFFFFFFFFFFFFFFFFFFFFFFFFFFFFFFFFFFF AND PUSH20 0xFFFFFFFFFFFFFFFFFFFFFFFFFFFFFFFFFFFFFFFF AND DUP2 MSTORE PUSH1 0x20 ADD SWAP1 DUP2 MSTORE PUSH1 0x20 ADD PUSH0 KECCAK256 PUSH0 DUP3 DUP3 SLOAD PUSH2 0x2C9C SWAP2 SWAP1 PUSH2 0x39E1 JUMP JUMPDEST SWAP3 POP POP DUP2 SWAP1 SSTORE POP JUMPDEST PUSH1 0x1 DUP2 PUSH1 0x9 ADD PUSH1 0x1 PUSH2 0x100 EXP DUP2 SLOAD DUP2 PUSH1 0xFF MUL NOT AND SWAP1 DUP4 ISZERO ISZERO MUL OR SWAP1 SSTORE POP PUSH2 0x2CF3 ADDRESS DUP3 PUSH1 0x5 ADD PUSH1 0x8 SWAP1 SLOAD SWAP1 PUSH2 0x100 EXP SWAP1 DIV PUSH20 0xFFFFFFFFFFFFFFFFFFFFFFFFFFFFFFFFFFFFFFFF AND DUP4 PUSH0 ADD SLOAD PUSH2 0x2DEF JUMP JUMPDEST CALLER PUSH20 0xFFFFFFFFFFFFFFFFFFFFFFFFFFFFFFFFFFFFFFFF AND PUSH1 0x1 SLOAD PUSH32 0xD33EF6AB06E6BF8672161AA6ABE1EC1791C393D62213EBD89C67F611E538E575 CALLVALUE PUSH1 0x40 MLOAD PUSH2 0x2D3C SWAP2 SWAP1 PUSH2 0x3216 JUMP JUMPDEST PUSH1 0x40 MLOAD DUP1 SWAP2 SUB SWAP1 LOG3 POP PUSH1 0x1 PUSH0 DUP2 SWAP1 SSTORE POP JUMP JUMPDEST PUSH0 PUSH1 0x2 PUSH0 PUSH1 0x1 SLOAD DUP2 MSTORE PUSH1 0x20 ADD SWAP1 DUP2 MSTORE PUSH1 0x20 ADD PUSH0 KECCAK256 SWAP1 POP PUSH0 PUSH20 0xFFFFFFFFFFFFFFFFFFFFFFFFFFFFFFFFFFFFFFFF AND DUP2 PUSH1 0x1 ADD PUSH0 SWAP1 SLOAD SWAP1 PUSH2 0x100 EXP SWAP1 DIV PUSH20 0xFFFFFFFFFFFFFFFFFFFFFFFFFFFFFFFFFFFFFFFF AND PUSH20 0xFFFFFFFFFFFFFFFFFFFFFFFFFFFFFFFFFFFFFFFF AND SUB PUSH2 0x2DEC JUMPI PUSH1 0x40 MLOAD PUSH32 0x568CA25700000000000000000000000000000000000000000000000000000000 DUP2 MSTORE PUSH1 0x4 ADD PUSH1 0x40 MLOAD DUP1 SWAP2 SUB SWAP1 REVERT JUMPDEST SWAP1 JUMP JUMPDEST DUP3 PUSH20 0xFFFFFFFFFFFFFFFFFFFFFFFFFFFFFFFFFFFFFFFF AND PUSH32 0x0 PUSH20 0xFFFFFFFFFFFFFFFFFFFFFFFFFFFFFFFFFFFFFFFF AND PUSH4 0x6352211E DUP4 PUSH1 0x40 MLOAD DUP3 PUSH4 0xFFFFFFFF AND PUSH1 0xE0 SHL DUP2 MSTORE PUSH1 0x4 ADD PUSH2 0x2E5F SWAP2 SWAP1 PUSH2 0x3216 JUMP JUMPDEST PUSH1 0x20 PUSH1 0x40 MLOAD DUP1 DUP4 SUB DUP2 DUP7 GAS STATICCALL ISZERO DUP1 ISZERO PUSH2 0x2E7A JUMPI RETURNDATASIZE PUSH0 PUSH0 RETURNDATACOPY RETURNDATASIZE PUSH0 REVERT JUMPDEST POP POP POP POP PUSH1 0x40 MLOAD RETURNDATASIZE PUSH1 0x1F NOT PUSH1 0x1F DUP3 ADD AND DUP3 ADD DUP1 PUSH1 0x40 MSTORE POP DUP2 ADD SWAP1 PUSH2 0x2E9E SWAP2 SWAP1 PUSH2 0x3C30 JUMP JUMPDEST PUSH20 0xFFFFFFFFFFFFFFFFFFFFFFFFFFFFFFFFFFFFFFFF AND EQ PUSH2 0x2EF4 JUMPI PUSH1 0x40 MLOAD PUSH32 0x8C379A000000000000000000000000000000000000000000000000000000000 DUP2 MSTORE PUSH1 0x4 ADD PUSH2 0x2EEB SWAP1 PUSH2 0x3E07 JUMP JUMPDEST PUSH1 0x40 MLOAD DUP1 SWAP2 SUB SWAP1 REVERT JUMPDEST ADDRESS PUSH20 0xFFFFFFFFFFFFFFFFFFFFFFFFFFFFFFFFFFFFFFFF AND DUP3 PUSH20 0xFFFFFFFFFFFFFFFFFFFFFFFFFFFFFFFFFFFFFFFF AND SUB PUSH2 0x30CE JUMPI ADDRESS PUSH20 0xFFFFFFFFFFFFFFFFFFFFFFFFFFFFFFFFFFFFFFFF AND PUSH32 0x0 PUSH20 0xFFFFFFFFFFFFFFFFFFFFFFFFFFFFFFFFFFFFFFFF AND PUSH4 0x81812FC DUP4 PUSH1 0x40 MLOAD DUP3 PUSH4 0xFFFFFFFF AND PUSH1 0xE0 SHL DUP2 MSTORE PUSH1 0x4 ADD PUSH2 0x2F97 SWAP2 SWAP1 PUSH2 0x3216 JUMP JUMPDEST PUSH1 0x20 PUSH1 0x40 MLOAD DUP1 DUP4 SUB DUP2 DUP7 GAS STATICCALL ISZERO DUP1 ISZERO PUSH2 0x2FB2 JUMPI RETURNDATASIZE PUSH0 PUSH0 RETURNDATACOPY RETURNDATASIZE PUSH0 REVERT JUMPDEST POP POP POP POP PUSH1 0x40 MLOAD RETURNDATASIZE PUSH1 0x1F NOT PUSH1 0x1F DUP3 ADD AND DUP3 ADD DUP1 PUSH1 0x40 MSTORE POP DUP2 ADD SWAP1 PUSH2 0x2FD6 SWAP2 SWAP1 PUSH2 0x3C30 JUMP JUMPDEST PUSH20 0xFFFFFFFFFFFFFFFFFFFFFFFFFFFFFFFFFFFFFFFF AND EQ DUP1 PUSH2 0x308E JUMPI POP PUSH32 0x0 PUSH20 0xFFFFFFFFFFFFFFFFFFFFFFFFFFFFFFFFFFFFFFFF AND PUSH4 0xE985E9C5 DUP5 ADDRESS PUSH1 0x40 MLOAD DUP4 PUSH4 0xFFFFFFFF AND PUSH1 0xE0 SHL DUP2 MSTORE PUSH1 0x4 ADD PUSH2 0x304E SWAP3 SWAP2 SWAP1 PUSH2 0x3E25 JUMP JUMPDEST PUSH1 0x20 PUSH1 0x40 MLOAD DUP1 DUP4 SUB DUP2 DUP7 GAS STATICCALL ISZERO DUP1 ISZERO PUSH2 0x3069 JUMPI RETURNDATASIZE PUSH0 PUSH0 RETURNDATACOPY RETURNDATASIZE PUSH0 REVERT JUMPDEST POP POP POP POP PUSH1 0x40 MLOAD RETURNDATASIZE PUSH1 0x1F NOT PUSH1 0x1F DUP3 ADD AND DUP3 ADD DUP1 PUSH1 0x40 MSTORE POP DUP2 ADD SWAP1 PUSH2 0x308D SWAP2 SWAP1 PUSH2 0x3E81 JUMP JUMPDEST JUMPDEST PUSH2 0x30CD JUMPI PUSH1 0x40 MLOAD PUSH32 0x8C379A000000000000000000000000000000000000000000000000000000000 DUP2 MSTORE PUSH1 0x4 ADD PUSH2 0x30C4 SWAP1 PUSH2 0x3EF6 JUMP JUMPDEST PUSH1 0x40 MLOAD DUP1 SWAP2 SUB SWAP1 REVERT JUMPDEST JUMPDEST PUSH32 0x0 PUSH20 0xFFFFFFFFFFFFFFFFFFFFFFFFFFFFFFFFFFFFFFFF AND PUSH4 0x42842E0E DUP5 DUP5 DUP5 PUSH1 0x40 MLOAD DUP5 PUSH4 0xFFFFFFFF AND PUSH1 0xE0 SHL DUP2 MSTORE PUSH1 0x4 ADD PUSH2 0x312B SWAP4 SWAP3 SWAP2 SWAP1 PUSH2 0x3F14 JUMP JUMPDEST PUSH0 PUSH1 0x40 MLOAD DUP1 DUP4 SUB DUP2 PUSH0 DUP8 DUP1 EXTCODESIZE ISZERO DUP1 ISZERO PUSH2 0x3142 JUMPI PUSH0 PUSH0 REVERT JUMPDEST POP GAS CALL ISZERO DUP1 ISZERO PUSH2 0x3154 JUMPI RETURNDATASIZE PUSH0 PUSH0 RETURNDATACOPY RETURNDATASIZE PUSH0 REVERT JUMPDEST POP POP POP POP POP POP POP JUMP JUMPDEST PUSH0 PUSH1 0x2 PUSH0 DUP4 DUP2 MSTORE PUSH1 0x20 ADD SWAP1 DUP2 MSTORE PUSH1 0x20 ADD PUSH0 KECCAK256 SWAP1 POP PUSH0 PUSH20 0xFFFFFFFFFFFFFFFFFFFFFFFFFFFFFFFFFFFFFFFF AND DUP2 PUSH1 0x1 ADD PUSH0 SWAP1 SLOAD SWAP1 PUSH2 0x100 EXP SWAP1 DIV PUSH20 0xFFFFFFFFFFFFFFFFFFFFFFFFFFFFFFFFFFFFFFFF AND PUSH20 0xFFFFFFFFFFFFFFFFFFFFFFFFFFFFFFFFFFFFFFFF AND SUB PUSH2 0x31F9 JUMPI PUSH1 0x40 MLOAD PUSH32 0x568CA25700000000000000000000000000000000000000000000000000000000 DUP2 MSTORE PUSH1 0x4 ADD PUSH1 0x40 MLOAD DUP1 SWAP2 SUB SWAP1 REVERT JUMPDEST SWAP2 SWAP1 POP JUMP JUMPDEST PUSH0 DUP2 SWAP1 POP SWAP2 SWAP1 POP JUMP JUMPDEST PUSH2 0x3210 DUP2 PUSH2 0x31FE JUMP JUMPDEST DUP3 MSTORE POP POP JUMP JUMPDEST PUSH0 PUSH1 0x20 DUP3 ADD SWAP1 POP PUSH2 0x3229 PUSH0 DUP4 ADD DUP5 PUSH2 0x3207 JUMP JUMPDEST SWAP3 SWAP2 POP POP JUMP JUMPDEST PUSH0 PUSH0 REVERT JUMPDEST PUSH0 PUSH0 REVERT JUMPDEST PUSH0 PUSH20 0xFFFFFFFFFFFFFFFFFFFFFFFFFFFFFFFFFFFFFFFF DUP3 AND SWAP1 POP SWAP2 SWAP1 POP JUMP JUMPDEST PUSH0 PUSH2 0x3260 DUP3 PUSH2 0x3237 JUMP JUMPDEST SWAP1 POP SWAP2 SWAP1 POP JUMP JUMPDEST PUSH2 0x3270 DUP2 PUSH2 0x3256 JUMP JUMPDEST DUP2 EQ PUSH2 0x327A JUMPI PUSH0 PUSH0 REVERT JUMPDEST POP JUMP JUMPDEST PUSH0 DUP2 CALLDATALOAD SWAP1 POP PUSH2 0x328B DUP2 PUSH2 0x3267 JUMP JUMPDEST SWAP3 SWAP2 POP POP JUMP JUMPDEST PUSH2 0x329A DUP2 PUSH2 0x31FE JUMP JUMPDEST DUP2 EQ PUSH2 0x32A4 JUMPI PUSH0 PUSH0 REVERT JUMPDEST POP JUMP JUMPDEST PUSH0 DUP2 CALLDATALOAD SWAP1 POP PUSH2 0x32B5 DUP2 PUSH2 0x3291 JUMP JUMPDEST SWAP3 SWAP2 POP POP JUMP JUMPDEST PUSH0 PUSH0 REVERT JUMPDEST PUSH0 PUSH0 REVERT JUMPDEST PUSH0 PUSH0 REVERT JUMPDEST PUSH0 PUSH0 DUP4 PUSH1 0x1F DUP5 ADD SLT PUSH2 0x32DC JUMPI PUSH2 0x32DB PUSH2 0x32BB JUMP JUMPDEST JUMPDEST DUP3 CALLDATALOAD SWAP1 POP PUSH8 0xFFFFFFFFFFFFFFFF DUP2 GT ISZERO PUSH2 0x32F9 JUMPI PUSH2 0x32F8 PUSH2 0x32BF JUMP JUMPDEST JUMPDEST PUSH1 0x20 DUP4 ADD SWAP2 POP DUP4 PUSH1 0x1 DUP3 MUL DUP4 ADD GT ISZERO PUSH2 0x3315 JUMPI PUSH2 0x3314 PUSH2 0x32C3 JUMP JUMPDEST JUMPDEST SWAP3 POP SWAP3 SWAP1 POP JUMP JUMPDEST PUSH0 PUSH0 PUSH0 PUSH0 PUSH0 PUSH1 0x80 DUP7 DUP9 SUB SLT ISZERO PUSH2 0x3335 JUMPI PUSH2 0x3334 PUSH2 0x322F JUMP JUMPDEST JUMPDEST PUSH0 PUSH2 0x3342 DUP9 DUP3 DUP10 ADD PUSH2 0x327D JUMP JUMPDEST SWAP6 POP POP PUSH1 0x20 PUSH2 0x3353 DUP9 DUP3 DUP10 ADD PUSH2 0x327D JUMP JUMPDEST SWAP5 POP POP PUSH1 0x40 PUSH2 0x3364 DUP9 DUP3 DUP10 ADD PUSH2 0x32A7 JUMP JUMPDEST SWAP4 POP POP PUSH1 0x60 DUP7 ADD CALLDATALOAD PUSH8 0xFFFFFFFFFFFFFFFF DUP2 GT ISZERO PUSH2 0x3385 JUMPI PUSH2 0x3384 PUSH2 0x3233 JUMP JUMPDEST JUMPDEST PUSH2 0x3391 DUP9 DUP3 DUP10 ADD PUSH2 0x32C7 JUMP JUMPDEST SWAP3 POP SWAP3 POP POP SWAP3 SWAP6 POP SWAP3 SWAP6 SWAP1 SWAP4 POP JUMP JUMPDEST PUSH0 PUSH32 0xFFFFFFFF00000000000000000000000000000000000000000000000000000000 DUP3 AND SWAP1 POP SWAP2 SWAP1 POP JUMP JUMPDEST PUSH2 0x33D4 DUP2 PUSH2 0x33A0 JUMP JUMPDEST DUP3 MSTORE POP POP JUMP JUMPDEST PUSH0 PUSH1 0x20 DUP3 ADD SWAP1 POP PUSH2 0x33ED PUSH0 DUP4 ADD DUP5 PUSH2 0x33CB JUMP JUMPDEST SWAP3 SWAP2 POP POP JUMP JUMPDEST PUSH0 DUP2 SWAP1 POP SWAP2 SWAP1 POP JUMP JUMPDEST PUSH0 PUSH2 0x3416 PUSH2 0x3411 PUSH2 0x340C DUP5 PUSH2 0x3237 JUMP JUMPDEST PUSH2 0x33F3 JUMP JUMPDEST PUSH2 0x3237 JUMP JUMPDEST SWAP1 POP SWAP2 SWAP1 POP JUMP JUMPDEST PUSH0 PUSH2 0x3427 DUP3 PUSH2 0x33FC JUMP JUMPDEST SWAP1 POP SWAP2 SWAP1 POP JUMP JUMPDEST PUSH0 PUSH2 0x3438 DUP3 PUSH2 0x341D JUMP JUMPDEST SWAP1 POP SWAP2 SWAP1 POP JUMP JUMPDEST PUSH2 0x3448 DUP2 PUSH2 0x342E JUMP JUMPDEST DUP3 MSTORE POP POP JUMP JUMPDEST PUSH0 PUSH1 0x20 DUP3 ADD SWAP1 POP PUSH2 0x3461 PUSH0 DUP4 ADD DUP5 PUSH2 0x343F JUMP JUMPDEST SWAP3 SWAP2 POP POP JUMP JUMPDEST PUSH0 DUP2 SWAP1 POP SWAP2 SWAP1 POP JUMP JUMPDEST PUSH2 0x3479 DUP2 PUSH2 0x3467 JUMP JUMPDEST DUP2 EQ PUSH2 0x3483 JUMPI PUSH0 PUSH0 REVERT JUMPDEST POP JUMP JUMPDEST PUSH0 DUP2 CALLDATALOAD SWAP1 POP PUSH2 0x3494 DUP2 PUSH2 0x3470 JUMP JUMPDEST SWAP3 SWAP2 POP POP JUMP JUMPDEST PUSH0 PUSH0 PUSH1 0x40 DUP4 DUP6 SUB SLT ISZERO PUSH2 0x34B0 JUMPI PUSH2 0x34AF PUSH2 0x322F JUMP JUMPDEST JUMPDEST PUSH0 PUSH2 0x34BD DUP6 DUP3 DUP7 ADD PUSH2 0x32A7 JUMP JUMPDEST SWAP3 POP POP PUSH1 0x20 PUSH2 0x34CE DUP6 DUP3 DUP7 ADD PUSH2 0x3486 JUMP JUMPDEST SWAP2 POP POP SWAP3 POP SWAP3 SWAP1 POP JUMP JUMPDEST PUSH0 PUSH1 0x20 DUP3 DUP5 SUB SLT ISZERO PUSH2 0x34ED JUMPI PUSH2 0x34EC PUSH2 0x322F JUMP JUMPDEST JUMPDEST PUSH0 PUSH2 0x34FA DUP5 DUP3 DUP6 ADD PUSH2 0x32A7 JUMP JUMPDEST SWAP2 POP POP SWAP3 SWAP2 POP POP JUMP JUMPDEST PUSH2 0x350C DUP2 PUSH2 0x3256 JUMP JUMPDEST DUP3 MSTORE POP POP JUMP JUMPDEST PUSH0 PUSH8 0xFFFFFFFFFFFFFFFF DUP3 AND SWAP1 POP SWAP2 SWAP1 POP JUMP JUMPDEST PUSH2 0x352E DUP2 PUSH2 0x3512 JUMP JUMPDEST DUP3 MSTORE POP POP JUMP JUMPDEST PUSH0 PUSH1 0x60 DUP3 ADD SWAP1 POP PUSH2 0x3547 PUSH0 DUP4 ADD DUP7 PUSH2 0x3503 JUMP JUMPDEST PUSH2 0x3554 PUSH1 0x20 DUP4 ADD DUP6 PUSH2 0x3207 JUMP JUMPDEST PUSH2 0x3561 PUSH1 0x40 DUP4 ADD DUP5 PUSH2 0x3525 JUMP JUMPDEST SWAP5 SWAP4 POP POP POP POP JUMP JUMPDEST PUSH0 PUSH0 PUSH1 0x40 DUP4 DUP6 SUB SLT ISZERO PUSH2 0x357F JUMPI PUSH2 0x357E PUSH2 0x322F JUMP JUMPDEST JUMPDEST PUSH0 PUSH2 0x358C DUP6 DUP3 DUP7 ADD PUSH2 0x32A7 JUMP JUMPDEST SWAP3 POP POP PUSH1 0x20 PUSH2 0x359D DUP6 DUP3 DUP7 ADD PUSH2 0x327D JUMP JUMPDEST SWAP2 POP POP SWAP3 POP SWAP3 SWAP1 POP JUMP JUMPDEST PUSH0 PUSH1 0x20 DUP3 DUP5 SUB SLT ISZERO PUSH2 0x35BC JUMPI PUSH2 0x35BB PUSH2 0x322F JUMP JUMPDEST JUMPDEST PUSH0 PUSH2 0x35C9 DUP5 DUP3 DUP6 ADD PUSH2 0x3486 JUMP JUMPDEST SWAP2 POP POP SWAP3 SWAP2 POP POP JUMP JUMPDEST PUSH2 0x35DB DUP2 PUSH2 0x3512 JUMP JUMPDEST DUP2 EQ PUSH2 0x35E5 JUMPI PUSH0 PUSH0 REVERT JUMPDEST POP JUMP JUMPDEST PUSH0 DUP2 CALLDATALOAD SWAP1 POP PUSH2 0x35F6 DUP2 PUSH2 0x35D2 JUMP JUMPDEST SWAP3 SWAP2 POP POP JUMP JUMPDEST PUSH0 PUSH0 PUSH0 PUSH0 PUSH0 PUSH1 0xA0 DUP7 DUP9 SUB SLT ISZERO PUSH2 0x3615 JUMPI PUSH2 0x3614 PUSH2 0x322F JUMP JUMPDEST JUMPDEST PUSH0 PUSH2 0x3622 DUP9 DUP3 DUP10 ADD PUSH2 0x32A7 JUMP JUMPDEST SWAP6 POP POP PUSH1 0x20 PUSH2 0x3633 DUP9 DUP3 DUP10 ADD PUSH2 0x32A7 JUMP JUMPDEST SWAP5 POP POP PUSH1 0x40 PUSH2 0x3644 DUP9 DUP3 DUP10 ADD PUSH2 0x35E8 JUMP JUMPDEST SWAP4 POP POP PUSH1 0x60 PUSH2 0x3655 DUP9 DUP3 DUP10 ADD PUSH2 0x35E8 JUMP JUMPDEST SWAP3 POP POP PUSH1 0x80 PUSH2 0x3666 DUP9 DUP3 DUP10 ADD PUSH2 0x35E8 JUMP JUMPDEST SWAP2 POP POP SWAP3 SWAP6 POP SWAP3 SWAP6 SWAP1 SWAP4 POP JUMP JUMPDEST PUSH2 0x367C DUP2 PUSH2 0x3467 JUMP JUMPDEST DUP3 MSTORE POP POP JUMP JUMPDEST PUSH0 PUSH1 0x20 DUP3 ADD SWAP1 POP PUSH2 0x3695 PUSH0 DUP4 ADD DUP5 PUSH2 0x3673 JUMP JUMPDEST SWAP3 SWAP2 POP POP JUMP JUMPDEST PUSH0 DUP2 MLOAD SWAP1 POP SWAP2 SWAP1 POP JUMP JUMPDEST PUSH0 DUP3 DUP3 MSTORE PUSH1 0x20 DUP3 ADD SWAP1 POP SWAP3 SWAP2 POP POP JUMP JUMPDEST DUP3 DUP2 DUP4 MCOPY PUSH0 DUP4 DUP4 ADD MSTORE POP POP POP JUMP JUMPDEST PUSH0 PUSH1 0x1F NOT PUSH1 0x1F DUP4 ADD AND SWAP1 POP SWAP2 SWAP1 POP JUMP JUMPDEST PUSH0 PUSH2 0x36DD DUP3 PUSH2 0x369B JUMP JUMPDEST PUSH2 0x36E7 DUP2 DUP6 PUSH2 0x36A5 JUMP JUMPDEST SWAP4 POP PUSH2 0x36F7 DUP2 DUP6 PUSH1 0x20 DUP7 ADD PUSH2 0x36B5 JUMP JUMPDEST PUSH2 0x3700 DUP2 PUSH2 0x36C3 JUMP JUMPDEST DUP5 ADD SWAP2 POP POP SWAP3 SWAP2 POP POP JUMP JUMPDEST PUSH0 PUSH1 0x20 DUP3 ADD SWAP1 POP DUP2 DUP2 SUB PUSH0 DUP4 ADD MSTORE PUSH2 0x3723 DUP2 DUP5 PUSH2 0x36D3 JUMP JUMPDEST SWAP1 POP SWAP3 SWAP2 POP POP JUMP JUMPDEST PUSH0 PUSH1 0x20 DUP3 ADD SWAP1 POP PUSH2 0x373E PUSH0 DUP4 ADD DUP5 PUSH2 0x3525 JUMP JUMPDEST SWAP3 SWAP2 POP POP JUMP JUMPDEST PUSH0 PUSH1 0x80 DUP3 ADD SWAP1 POP PUSH2 0x3757 PUSH0 DUP4 ADD DUP8 PUSH2 0x3525 JUMP JUMPDEST PUSH2 0x3764 PUSH1 0x20 DUP4 ADD DUP7 PUSH2 0x3525 JUMP JUMPDEST PUSH2 0x3771 PUSH1 0x40 DUP4 ADD DUP6 PUSH2 0x3525 JUMP JUMPDEST PUSH2 0x377E PUSH1 0x60 DUP4 ADD DUP5 PUSH2 0x3525 JUMP JUMPDEST SWAP6 SWAP5 POP POP POP POP POP JUMP JUMPDEST PUSH32 0x616C72656164792066696E616C697A6564000000000000000000000000000000 PUSH0 DUP3 ADD MSTORE POP JUMP JUMPDEST PUSH0 PUSH2 0x37BB PUSH1 0x11 DUP4 PUSH2 0x36A5 JUMP JUMPDEST SWAP2 POP PUSH2 0x37C6 DUP3 PUSH2 0x3787 JUMP JUMPDEST PUSH1 0x20 DUP3 ADD SWAP1 POP SWAP2 SWAP1 POP JUMP JUMPDEST PUSH0 PUSH1 0x20 DUP3 ADD SWAP1 POP DUP2 DUP2 SUB PUSH0 DUP4 ADD MSTORE PUSH2 0x37E8 DUP2 PUSH2 0x37AF JUMP JUMPDEST SWAP1 POP SWAP2 SWAP1 POP JUMP JUMPDEST PUSH32 0x4E487B7100000000000000000000000000000000000000000000000000000000 PUSH0 MSTORE PUSH1 0x11 PUSH1 0x4 MSTORE PUSH1 0x24 PUSH0 REVERT JUMPDEST PUSH0 PUSH2 0x3826 DUP3 PUSH2 0x31FE JUMP JUMPDEST SWAP2 POP PUSH2 0x3831 DUP4 PUSH2 0x31FE JUMP JUMPDEST SWAP3 POP DUP3 DUP3 SUB SWAP1 POP DUP2 DUP2 GT ISZERO PUSH2 0x3849 JUMPI PUSH2 0x3848 PUSH2 0x37EF JUMP JUMPDEST JUMPDEST SWAP3 SWAP2 POP POP JUMP JUMPDEST PUSH0 PUSH2 0x3859 DUP3 PUSH2 0x3512 JUMP JUMPDEST SWAP2 POP PUSH2 0x3864 DUP4 PUSH2 0x3512 JUMP JUMPDEST SWAP3 POP DUP3 DUP3 ADD SWAP1 POP PUSH8 0xFFFFFFFFFFFFFFFF DUP2 GT ISZERO PUSH2 0x3884 JUMPI PUSH2 0x3883 PUSH2 0x37EF JUMP JUMPDEST JUMPDEST SWAP3 SWAP2 POP POP JUMP JUMPDEST PUSH0 PUSH1 0x80 DUP3 ADD SWAP1 POP PUSH2 0x389D PUSH0 DUP4 ADD DUP8 PUSH2 0x3503 JUMP JUMPDEST PUSH2 0x38AA PUSH1 0x20 DUP4 ADD DUP7 PUSH2 0x3207 JUMP JUMPDEST PUSH2 0x38B7 PUSH1 0x40 DUP4 ADD DUP6 PUSH2 0x3207 JUMP JUMPDEST PUSH2 0x38C4 PUSH1 0x60 DUP4 ADD DUP5 PUSH2 0x3207 JUMP JUMPDEST SWAP6 SWAP5 POP POP POP POP POP JUMP JUMPDEST PUSH0 DUP2 SWAP1 POP SWAP2 SWAP1 POP JUMP JUMPDEST PUSH2 0x38E7 PUSH2 0x38E2 DUP3 PUSH2 0x31FE JUMP JUMPDEST PUSH2 0x38CD JUMP JUMPDEST DUP3 MSTORE POP POP JUMP JUMPDEST PUSH0 DUP2 SWAP1 POP SWAP2 SWAP1 POP JUMP JUMPDEST PUSH2 0x3907 PUSH2 0x3902 DUP3 PUSH2 0x3467 JUMP JUMPDEST PUSH2 0x38ED JUMP JUMPDEST DUP3 MSTORE POP POP JUMP JUMPDEST PUSH0 PUSH2 0x3918 DUP3 DUP6 PUSH2 0x38D6 JUMP JUMPDEST PUSH1 0x20 DUP3 ADD SWAP2 POP PUSH2 0x3928 DUP3 DUP5 PUSH2 0x38F6 JUMP JUMPDEST PUSH1 0x20 DUP3 ADD SWAP2 POP DUP2 SWAP1 POP SWAP4 SWAP3 POP POP POP JUMP JUMPDEST PUSH32 0x5245454E5452414E435900000000000000000000000000000000000000000000 PUSH0 DUP3 ADD MSTORE POP JUMP JUMPDEST PUSH0 PUSH2 0x396C PUSH1 0xA DUP4 PUSH2 0x36A5 JUMP JUMPDEST SWAP2 POP PUSH2 0x3977 DUP3 PUSH2 0x3938 JUMP JUMPDEST PUSH1 0x20 DUP3 ADD SWAP1 POP SWAP2 SWAP1 POP JUMP JUMPDEST PUSH0 PUSH1 0x20 DUP3 ADD SWAP1 POP DUP2 DUP2 SUB PUSH0 DUP4 ADD MSTORE PUSH2 0x3999 DUP2 PUSH2 0x3960 JUMP JUMPDEST SWAP1 POP SWAP2 SWAP1 POP JUMP JUMPDEST PUSH0 DUP2 SWAP1 POP SWAP3 SWAP2 POP POP JUMP JUMPDEST POP JUMP JUMPDEST PUSH0 PUSH2 0x39B8 PUSH0 DUP4 PUSH2 0x39A0 JUMP JUMPDEST SWAP2 POP PUSH2 0x39C3 DUP3 PUSH2 0x39AA JUMP JUMPDEST PUSH0 DUP3 ADD SWAP1 POP SWAP2 SWAP1 POP JUMP JUMPDEST PUSH0 PUSH2 0x39D7 DUP3 PUSH2 0x39AD JUMP JUMPDEST SWAP2 POP DUP2 SWAP1 POP SWAP2 SWAP1 POP JUMP JUMPDEST PUSH0 PUSH2 0x39EB DUP3 PUSH2 0x31FE JUMP JUMPDEST SWAP2 POP PUSH2 0x39F6 DUP4 PUSH2 0x31FE JUMP JUMPDEST SWAP3 POP DUP3 DUP3 ADD SWAP1 POP DUP1 DUP3 GT ISZERO PUSH2 0x3A0E JUMPI PUSH2 0x3A0D PUSH2 0x37EF JUMP JUMPDEST JUMPDEST SWAP3 SWAP2 POP POP JUMP JUMPDEST PUSH32 0x70726576696F7573206E6F7420656E6465640000000000000000000000000000 PUSH0 DUP3 ADD MSTORE POP JUMP JUMPDEST PUSH0 PUSH2 0x3A48 PUSH1 0x12 DUP4 PUSH2 0x36A5 JUMP JUMPDEST SWAP2 POP PUSH2 0x3A53 DUP3 PUSH2 0x3A14 JUMP JUMPDEST PUSH1 0x20 DUP3 ADD SWAP1 POP SWAP2 SWAP1 POP JUMP JUMPDEST PUSH0 PUSH1 0x20 DUP3 ADD SWAP1 POP DUP2 DUP2 SUB PUSH0 DUP4 ADD MSTORE PUSH2 0x3A75 DUP2 PUSH2 0x3A3C JUMP JUMPDEST SWAP1 POP SWAP2 SWAP1 POP JUMP JUMPDEST PUSH32 0x434F4E4649473A2062616420636F6D6D6974206475726174696F6E7300000000 PUSH0 DUP3 ADD MSTORE POP JUMP JUMPDEST PUSH0 PUSH2 0x3AB0 PUSH1 0x1C DUP4 PUSH2 0x36A5 JUMP JUMPDEST SWAP2 POP PUSH2 0x3ABB DUP3 PUSH2 0x3A7C JUMP JUMPDEST PUSH1 0x20 DUP3 ADD SWAP1 POP SWAP2 SWAP1 POP JUMP JUMPDEST PUSH0 PUSH1 0x20 DUP3 ADD SWAP1 POP DUP2 DUP2 SUB PUSH0 DUP4 ADD MSTORE PUSH2 0x3ADD DUP2 PUSH2 0x3AA4 JUMP JUMPDEST SWAP1 POP SWAP2 SWAP1 POP JUMP JUMPDEST PUSH32 0x434F4E4649473A206261642072657665616C206475726174696F6E7300000000 PUSH0 DUP3 ADD MSTORE POP JUMP JUMPDEST PUSH0 PUSH2 0x3B18 PUSH1 0x1C DUP4 PUSH2 0x36A5 JUMP JUMPDEST SWAP2 POP PUSH2 0x3B23 DUP3 PUSH2 0x3AE4 JUMP JUMPDEST PUSH1 0x20 DUP3 ADD SWAP1 POP SWAP2 SWAP1 POP JUMP JUMPDEST PUSH0 PUSH1 0x20 DUP3 ADD SWAP1 POP DUP2 DUP2 SUB PUSH0 DUP4 ADD MSTORE PUSH2 0x3B45 DUP2 PUSH2 0x3B0C JUMP JUMPDEST SWAP1 POP SWAP2 SWAP1 POP JUMP JUMPDEST PUSH32 0x434F4E4649473A2062616420736574746C65206475726174696F6E7300000000 PUSH0 DUP3 ADD MSTORE POP JUMP JUMPDEST PUSH0 PUSH2 0x3B80 PUSH1 0x1C DUP4 PUSH2 0x36A5 JUMP JUMPDEST SWAP2 POP PUSH2 0x3B8B DUP3 PUSH2 0x3B4C JUMP JUMPDEST PUSH1 0x20 DUP3 ADD SWAP1 POP SWAP2 SWAP1 POP JUMP JUMPDEST PUSH0 PUSH1 0x20 DUP3 ADD SWAP1 POP DUP2 DUP2 SUB PUSH0 DUP4 ADD MSTORE PUSH2 0x3BAD DUP2 PUSH2 0x3B74 JUMP JUMPDEST SWAP1 POP SWAP2 SWAP1 POP JUMP JUMPDEST PUSH32 0x434F4E4649473A20626164207265736572766520707269636500000000000000 PUSH0 DUP3 ADD MSTORE POP JUMP JUMPDEST PUSH0 PUSH2 0x3BE8 PUSH1 0x19 DUP4 PUSH2 0x36A5 JUMP JUMPDEST SWAP2 POP PUSH2 0x3BF3 DUP3 PUSH2 0x3BB4 JUMP JUMPDEST PUSH1 0x20 DUP3 ADD SWAP1 POP SWAP2 SWAP1 POP JUMP JUMPDEST PUSH0 PUSH1 0x20 DUP3 ADD SWAP1 POP DUP2 DUP2 SUB PUSH0 DUP4 ADD MSTORE PUSH2 0x3C15 DUP2 PUSH2 0x3BDC JUMP JUMPDEST SWAP1 POP SWAP2 SWAP1 POP JUMP JUMPDEST PUSH0 DUP2 MLOAD SWAP1 POP PUSH2 0x3C2A DUP2 PUSH2 0x3267 JUMP JUMPDEST SWAP3 SWAP2 POP POP JUMP JUMPDEST PUSH0 PUSH1 0x20 DUP3 DUP5 SUB SLT ISZERO PUSH2 0x3C45 JUMPI PUSH2 0x3C44 PUSH2 0x322F JUMP JUMPDEST JUMPDEST PUSH0 PUSH2 0x3C52 DUP5 DUP3 DUP6 ADD PUSH2 0x3C1C JUMP JUMPDEST SWAP2 POP POP SWAP3 SWAP2 POP POP JUMP JUMPDEST PUSH32 0x6E6F74206F776E65720000000000000000000000000000000000000000000000 PUSH0 DUP3 ADD MSTORE POP JUMP JUMPDEST PUSH0 PUSH2 0x3C8F PUSH1 0x9 DUP4 PUSH2 0x36A5 JUMP JUMPDEST SWAP2 POP PUSH2 0x3C9A DUP3 PUSH2 0x3C5B JUMP JUMPDEST PUSH1 0x20 DUP3 ADD SWAP1 POP SWAP2 SWAP1 POP JUMP JUMPDEST PUSH0 PUSH1 0x20 DUP3 ADD SWAP1 POP DUP2 DUP2 SUB PUSH0 DUP4 ADD MSTORE PUSH2 0x3CBC DUP2 PUSH2 0x3C83 JUMP JUMPDEST SWAP1 POP SWAP2 SWAP1 POP JUMP JUMPDEST PUSH32 0x4E487B7100000000000000000000000000000000000000000000000000000000 PUSH0 MSTORE PUSH1 0x12 PUSH1 0x4 MSTORE PUSH1 0x24 PUSH0 REVERT JUMPDEST PUSH0 PUSH2 0x3CFA DUP3 PUSH2 0x31FE JUMP JUMPDEST SWAP2 POP PUSH2 0x3D05 DUP4 PUSH2 0x31FE JUMP JUMPDEST SWAP3 POP DUP3 PUSH2 0x3D15 JUMPI PUSH2 0x3D14 PUSH2 0x3CC3 JUMP JUMPDEST JUMPDEST DUP3 DUP3 DIV SWAP1 POP SWAP3 SWAP2 POP POP JUMP JUMPDEST PUSH0 PUSH2 0x3D3A PUSH2 0x3D35 PUSH2 0x3D30 DUP5 PUSH2 0x3512 JUMP JUMPDEST PUSH2 0x33F3 JUMP JUMPDEST PUSH2 0x31FE JUMP JUMPDEST SWAP1 POP SWAP2 SWAP1 POP JUMP JUMPDEST PUSH2 0x3D4A DUP2 PUSH2 0x3D20 JUMP JUMPDEST DUP3 MSTORE POP POP JUMP JUMPDEST PUSH0 PUSH1 0xE0 DUP3 ADD SWAP1 POP PUSH2 0x3D63 PUSH0 DUP4 ADD DUP11 PUSH2 0x3207 JUMP JUMPDEST PUSH2 0x3D70 PUSH1 0x20 DUP4 ADD DUP10 PUSH2 0x3207 JUMP JUMPDEST PUSH2 0x3D7D PUSH1 0x40 DUP4 ADD DUP9 PUSH2 0x3207 JUMP JUMPDEST PUSH2 0x3D8A PUSH1 0x60 DUP4 ADD DUP8 PUSH2 0x3D41 JUMP JUMPDEST PUSH2 0x3D97 PUSH1 0x80 DUP4 ADD DUP7 PUSH2 0x3525 JUMP JUMPDEST PUSH2 0x3DA4 PUSH1 0xA0 DUP4 ADD DUP6 PUSH2 0x3525 JUMP JUMPDEST PUSH2 0x3DB1 PUSH1 0xC0 DUP4 ADD DUP5 PUSH2 0x3525 JUMP JUMPDEST SWAP9 SWAP8 POP POP POP POP POP POP POP POP JUMP JUMPDEST PUSH32 0x4E46543A206E6F74206F776E6572000000000000000000000000000000000000 PUSH0 DUP3 ADD MSTORE POP JUMP JUMPDEST PUSH0 PUSH2 0x3DF1 PUSH1 0xE DUP4 PUSH2 0x36A5 JUMP JUMPDEST SWAP2 POP PUSH2 0x3DFC DUP3 PUSH2 0x3DBD JUMP JUMPDEST PUSH1 0x20 DUP3 ADD SWAP1 POP SWAP2 SWAP1 POP JUMP JUMPDEST PUSH0 PUSH1 0x20 DUP3 ADD SWAP1 POP DUP2 DUP2 SUB PUSH0 DUP4 ADD MSTORE PUSH2 0x3E1E DUP2 PUSH2 0x3DE5 JUMP JUMPDEST SWAP1 POP SWAP2 SWAP1 POP JUMP JUMPDEST PUSH0 PUSH1 0x40 DUP3 ADD SWAP1 POP PUSH2 0x3E38 PUSH0 DUP4 ADD DUP6 PUSH2 0x3503 JUMP JUMPDEST PUSH2 0x3E45 PUSH1 0x20 DUP4 ADD DUP5 PUSH2 0x3503 JUMP JUMPDEST SWAP4 SWAP3 POP POP POP JUMP JUMPDEST PUSH0 DUP2 ISZERO ISZERO SWAP1 POP SWAP2 SWAP1 POP JUMP JUMPDEST PUSH2 0x3E60 DUP2 PUSH2 0x3E4C JUMP JUMPDEST DUP2 EQ PUSH2 0x3E6A JUMPI PUSH0 PUSH0 REVERT JUMPDEST POP JUMP JUMPDEST PUSH0 DUP2 MLOAD SWAP1 POP PUSH2 0x3E7B DUP2 PUSH2 0x3E57 JUMP JUMPDEST SWAP3 SWAP2 POP POP JUMP JUMPDEST PUSH0 PUSH1 0x20 DUP3 DUP5 SUB SLT ISZERO PUSH2 0x3E96 JUMPI PUSH2 0x3E95 PUSH2 0x322F JUMP JUMPDEST JUMPDEST PUSH0 PUSH2 0x3EA3 DUP5 DUP3 DUP6 ADD PUSH2 0x3E6D JUMP JUMPDEST SWAP2 POP POP SWAP3 SWAP2 POP POP JUMP JUMPDEST PUSH32 0x4E46543A206E6F7420617070726F766564000000000000000000000000000000 PUSH0 DUP3 ADD MSTORE POP JUMP JUMPDEST PUSH0 PUSH2 0x3EE0 PUSH1 0x11 DUP4 PUSH2 0x36A5 JUMP JUMPDEST SWAP2 POP PUSH2 0x3EEB DUP3 PUSH2 0x3EAC JUMP JUMPDEST PUSH1 0x20 DUP3 ADD SWAP1 POP SWAP2 SWAP1 POP JUMP JUMPDEST PUSH0 PUSH1 0x20 DUP3 ADD SWAP1 POP DUP2 DUP2 SUB PUSH0 DUP4 ADD MSTORE PUSH2 0x3F0D DUP2 PUSH2 0x3ED4 JUMP JUMPDEST SWAP1 POP SWAP2 SWAP1 POP JUMP JUMPDEST PUSH0 PUSH1 0x60 DUP3 ADD SWAP1 POP PUSH2 0x3F27 PUSH0 DUP4 ADD DUP7 PUSH2 0x3503 JUMP JUMPDEST PUSH2 0x3F34 PUSH1 0x20 DUP4 ADD DUP6 PUSH2 0x3503 JUMP JUMPDEST PUSH2 0x3F41 PUSH1 0x40 DUP4 ADD DUP5 PUSH2 0x3207 JUMP JUMPDEST SWAP5 SWAP4 POP POP POP POP JUMP INVALID LOG2 PUSH5 0x6970667358 0x22 SLT KECCAK256 SLOAD 0x24 0xB2 0xB6 0xDB AND PUSH8 0xDBFFC38759BF81C3 0x23 OR SWAP15 DUP6 0x29 MLOAD 0xCB EQ PUSH22 0xF89A1757EC43DC7B64736F6C634300081E0033000000 "
				},
				"gasEstimates": {
					"creation": {
						"codeDepositCost": "3251000",
						"executionCost": "infinite",
						"totalCost": "infinite"
					},
					"external": {
						"MAX_DURATION()": "436",
						"MAX_PRICE()": "349",
						"auctionId()": "2471",
						"classNFT()": "infinite",
						"commitBid(bytes32)": "infinite",
						"currentPhase(uint256)": "infinite",
						"finalize()": "infinite",
						"getCommitSeq(uint256,address)": "5417",
						"getCommitment(uint256,address)": "5377",
						"getDepositAmount(uint256,address)": "infinite",
						"getRevealedAmount(uint256,address)": "infinite",
						"getTimes(uint256)": "infinite",
						"getWinnerInfo(uint256)": "infinite",
						"onERC721Received(address,address,uint256,bytes)": "infinite",
						"payAndClaim()": "infinite",
						"payAndClaim(uint256)": "infinite",
						"revealBid(uint256,bytes32)": "infinite",
						"sellerReclaimNFT(uint256)": "infinite",
						"startAuction(uint256,uint256,uint64,uint64,uint64)": "infinite",
						"withdrawDeposits()": "infinite",
						"withdrawDeposits(uint256)": "infinite"
					},
					"internal": {
						"_requireActiveAuction()": "infinite",
						"_requireAuction(uint256)": "infinite",
						"_safeTransferNFT(address,address,uint256)": "infinite"
					}
				},
				"methodIdentifiers": {
					"MAX_DURATION()": "b1724b46",
					"MAX_PRICE()": "01c11d96",
					"auctionId()": "10782f8f",
					"classNFT()": "5e7721f7",
					"commitBid(bytes32)": "86a2cc27",
					"currentPhase(uint256)": "b1fb6405",
					"finalize()": "4bb278f3",
					"getCommitSeq(uint256,address)": "d3851f4c",
					"getCommitment(uint256,address)": "89fb2682",
					"getDepositAmount(uint256,address)": "de75a5c0",
					"getRevealedAmount(uint256,address)": "813abc2d",
					"getTimes(uint256)": "d3aa699e",
					"getWinnerInfo(uint256)": "6b1da364",
					"onERC721Received(address,address,uint256,bytes)": "150b7a02",
					"payAndClaim()": "e9906f2e",
					"payAndClaim(uint256)": "a0743f22",
					"revealBid(uint256,bytes32)": "62c5424a",
					"sellerReclaimNFT(uint256)": "c8f97366",
					"startAuction(uint256,uint256,uint64,uint64,uint64)": "894da478",
					"withdrawDeposits()": "7cf2ed22",
					"withdrawDeposits(uint256)": "71d946b4"
				}
			},
			"storageLayout": {
				"storage": [
					{
						"astId": 104,
						"contract": "AuctionContract.sol:VickreyAuctionHouse",
						"label": "_status",
						"offset": 0,
						"slot": "0",
						"type": "t_uint256"
					},
					{
						"astId": 192,
						"contract": "AuctionContract.sol:VickreyAuctionHouse",
						"label": "auctionId",
						"offset": 0,
						"slot": "1",
						"type": "t_uint256"
					},
					{
						"astId": 197,
						"contract": "AuctionContract.sol:VickreyAuctionHouse",
						"label": "_auctions",
						"offset": 0,
						"slot": "2",
						"type": "t_mapping(t_uint256,t_struct(Auction)190_storage)"
					}
				],
				"types": {
					"t_address": {
						"encoding": "inplace",
						"label": "address",
						"numberOfBytes": "20"
					},
					"t_bool": {
						"encoding": "inplace",
						"label": "bool",
						"numberOfBytes": "1"
					},
					"t_bytes32": {
						"encoding": "inplace",
						"label": "bytes32",
						"numberOfBytes": "32"
					},
					"t_mapping(t_address,t_bytes32)": {
						"encoding": "mapping",
						"key": "t_address",
						"label": "mapping(address => bytes32)",
						"numberOfBytes": "32",
						"value": "t_bytes32"
					},
					"t_mapping(t_address,t_uint256)": {
						"encoding": "mapping",
						"key": "t_address",
						"label": "mapping(address => uint256)",
						"numberOfBytes": "32",
						"value": "t_uint256"
					},
					"t_mapping(t_address,t_uint64)": {
						"encoding": "mapping",
						"key": "t_address",
						"label": "mapping(address => uint64)",
						"numberOfBytes": "32",
						"value": "t_uint64"
					},
					"t_mapping(t_uint256,t_struct(Auction)190_storage)": {
						"encoding": "mapping",
						"key": "t_uint256",
						"label": "mapping(uint256 => struct VickreyAuctionHouse.Auction)",
						"numberOfBytes": "32",
						"value": "t_struct(Auction)190_storage"
					},
					"t_struct(Auction)190_storage": {
						"encoding": "inplace",
						"label": "struct VickreyAuctionHouse.Auction",
						"members": [
							{
								"astId": 143,
								"contract": "AuctionContract.sol:VickreyAuctionHouse",
								"label": "tokenId",
								"offset": 0,
								"slot": "0",
								"type": "t_uint256"
							},
							{
								"astId": 145,
								"contract": "AuctionContract.sol:VickreyAuctionHouse",
								"label": "seller",
								"offset": 0,
								"slot": "1",
								"type": "t_address"
							},
							{
								"astId": 147,
								"contract": "AuctionContract.sol:VickreyAuctionHouse",
								"label": "reservePrice",
								"offset": 0,
								"slot": "2",
								"type": "t_uint256"
							},
							{
								"astId": 149,
								"contract": "AuctionContract.sol:VickreyAuctionHouse",
								"label": "depositPrice",
								"offset": 0,
								"slot": "3",
								"type": "t_uint256"
							},
							{
								"astId": 151,
								"contract": "AuctionContract.sol:VickreyAuctionHouse",
								"label": "startStamp",
								"offset": 0,
								"slot": "4",
								"type": "t_uint64"
							},
							{
								"astId": 153,
								"contract": "AuctionContract.sol:VickreyAuctionHouse",
								"label": "commitEnd",
								"offset": 8,
								"slot": "4",
								"type": "t_uint64"
							},
							{
								"astId": 155,
								"contract": "AuctionContract.sol:VickreyAuctionHouse",
								"label": "revealEnd",
								"offset": 16,
								"slot": "4",
								"type": "t_uint64"
							},
							{
								"astId": 157,
								"contract": "AuctionContract.sol:VickreyAuctionHouse",
								"label": "settleDuration",
								"offset": 24,
								"slot": "4",
								"type": "t_uint64"
							},
							{
								"astId": 159,
								"contract": "AuctionContract.sol:VickreyAuctionHouse",
								"label": "settleDeadline",
								"offset": 0,
								"slot": "5",
								"type": "t_uint64"
							},
							{
								"astId": 161,
								"contract": "AuctionContract.sol:VickreyAuctionHouse",
								"label": "highestBidder",
								"offset": 8,
								"slot": "5",
								"type": "t_address"
							},
							{
								"astId": 163,
								"contract": "AuctionContract.sol:VickreyAuctionHouse",
								"label": "highestBid",
								"offset": 0,
								"slot": "6",
								"type": "t_uint256"
							},
							{
								"astId": 165,
								"contract": "AuctionContract.sol:VickreyAuctionHouse",
								"label": "secondBid",
								"offset": 0,
								"slot": "7",
								"type": "t_uint256"
							},
							{
								"astId": 167,
								"contract": "AuctionContract.sol:VickreyAuctionHouse",
								"label": "clearingPrice",
								"offset": 0,
								"slot": "8",
								"type": "t_uint256"
							},
							{
								"astId": 169,
								"contract": "AuctionContract.sol:VickreyAuctionHouse",
								"label": "finalized",
								"offset": 0,
								"slot": "9",
								"type": "t_bool"
							},
							{
								"astId": 171,
								"contract": "AuctionContract.sol:VickreyAuctionHouse",
								"label": "settled",
								"offset": 1,
								"slot": "9",
								"type": "t_bool"
							},
							{
								"astId": 175,
								"contract": "AuctionContract.sol:VickreyAuctionHouse",
								"label": "commitments",
								"offset": 0,
								"slot": "10",
								"type": "t_mapping(t_address,t_bytes32)"
							},
							{
								"astId": 179,
								"contract": "AuctionContract.sol:VickreyAuctionHouse",
								"label": "commitSeq",
								"offset": 0,
								"slot": "11",
								"type": "t_mapping(t_address,t_uint64)"
							},
							{
								"astId": 183,
								"contract": "AuctionContract.sol:VickreyAuctionHouse",
								"label": "depositAmount",
								"offset": 0,
								"slot": "12",
								"type": "t_mapping(t_address,t_uint256)"
							},
							{
								"astId": 187,
								"contract": "AuctionContract.sol:VickreyAuctionHouse",
								"label": "revealedAmount",
								"offset": 0,
								"slot": "13",
								"type": "t_mapping(t_address,t_uint256)"
							},
							{
								"astId": 189,
								"contract": "AuctionContract.sol:VickreyAuctionHouse",
								"label": "commitSeqCounter",
								"offset": 0,
								"slot": "14",
								"type": "t_uint64"
							}
						],
						"numberOfBytes": "480"
					},
					"t_uint256": {
						"encoding": "inplace",
						"label": "uint256",
						"numberOfBytes": "32"
					},
					"t_uint64": {
						"encoding": "inplace",
						"label": "uint64",
						"numberOfBytes": "8"
					}
				}
			},
			"userdoc": {
				"kind": "user",
				"methods": {
					"commitBid(bytes32)": {
						"notice": "Commit a bid hash during commit phase. One (the last) commit is valid per address"
					},
					"finalize()": {
						"notice": "Finalize result after reveal ends: compute clearing price or mark unsold.         Sets a payment deadline for the winner to pay and claim."
					},
					"payAndClaim()": {
						"notice": "Winner pays the clearing price and claims the NFT.     1) there is amount to pay ==> must before the deadline     2) all amount paid ==> claim anytime (forever reserved)"
					},
					"revealBid(uint256,bytes32)": {
						"notice": "Reveal your bid during reveal phase."
					},
					"sellerReclaimNFT(uint256)": {
						"notice": "If winner not settle up before settle deadline, auction passed and return the NFT"
					},
					"startAuction(uint256,uint256,uint64,uint64,uint64)": {
						"notice": "Start a new auction. Seller must own the NFT and approve this contract; NFT is escrowed in."
					}
				},
				"version": 1
			}
		}
	}
}