{
	"data": {
		"bytecode": {
			"linkReferences": {},
			"object": "60a060405260015f55731546bd67237122754d3f0cb761c139f81388b21073ffffffffffffffffffffffffffffffffffffffff1660809073ffffffffffffffffffffffffffffffffffffffff1681525034801561005a575f5ffd5b50608051613e1a61009d5f395f818161099a0152818161196c01528181611c4401528181612c9401528181612dcc01528181612e810152612f5c0152613e1a5ff3fe608060405260043610610129575f3560e01c806386a2cc27116100aa578063b1fb64051161006e578063b1fb6405146103a3578063c8f97366146103df578063d3851f4c14610407578063d3aa699e14610443578063de75a5c014610482578063e9906f2e146104be57610129565b806386a2cc27146102dd578063894da478146102f957806389fb268214610321578063a0743f221461035d578063b1724b461461037957610129565b806362c5424a116100f157806362c5424a146101fd5780636b1da3641461022557806371d946b4146102635780637cf2ed221461028b578063813abc2d146102a157610129565b806301c11d961461012d57806310782f8f14610157578063150b7a02146101815780634bb278f3146101bd5780635e7721f7146101d3575b5f5ffd5b348015610138575f5ffd5b506101416104c8565b60405161014e91906130a2565b60405180910390f35b348015610162575f5ffd5b5061016b6104d8565b60405161017891906130a2565b60405180910390f35b34801561018c575f5ffd5b506101a760048036038101906101a291906131a8565b6104de565b6040516101b49190613266565b60405180910390f35b3480156101c8575f5ffd5b506101d16104f2565b005b3480156101de575f5ffd5b506101e7610998565b6040516101f491906132da565b60405180910390f35b348015610208575f5ffd5b50610223600480360381019061021e9190613326565b6109bc565b005b348015610230575f5ffd5b5061024b60048036038101906102469190613364565b610ead565b60405161025a939291906133c0565b60405180910390f35b34801561026e575f5ffd5b5061028960048036038101906102849190613364565b610f0c565b005b348015610296575f5ffd5b5061029f611161565b005b3480156102ac575f5ffd5b506102c760048036038101906102c291906133f5565b6113b6565b6040516102d491906130a2565b60405180910390f35b6102f760048036038101906102f29190613433565b61140f565b005b348015610304575f5ffd5b5061031f600480360381019061031a9190613488565b61175c565b005b34801561032c575f5ffd5b50610347600480360381019061034291906133f5565b611cf1565b604051610354919061350e565b60405180910390f35b61037760048036038101906103729190613364565b611d49565b005b348015610384575f5ffd5b5061038d61209a565b60405161039a91906130a2565b60405180910390f35b3480156103ae575f5ffd5b506103c960048036038101906103c49190613364565b6120a1565b6040516103d69190613597565b60405180910390f35b3480156103ea575f5ffd5b5061040560048036038101906104009190613364565b61237c565b005b348015610412575f5ffd5b5061042d600480360381019061042891906133f5565b612741565b60405161043a91906135b7565b60405180910390f35b34801561044e575f5ffd5b5061046960048036038101906104649190613364565b6127ad565b60405161047994939291906135d0565b60405180910390f35b34801561048d575f5ffd5b506104a860048036038101906104a391906133f5565b612830565b6040516104b591906130a2565b60405180910390f35b6104c6612889565b005b6b033b2e3c9fd0803ce800000081565b60015481565b5f63150b7a0260e01b905095945050505050565b5f6104fb612bda565b90508060050160109054906101000a900467ffffffffffffffff1667ffffffffffffffff16421015610558576040517ee8f46600000000000000000000000000000000000000000000000000000000815260040160405180910390fd5b8060020160149054906101000a900460ff16156105aa576040517f08c379a00000000000000000000000000000000000000000000000000000000081526004016105a19061365d565b60405180910390fd5b60018160020160146101000a81548160ff0219169083151502179055505f73ffffffffffffffffffffffffffffffffffffffff16816002015f9054906101000a900473ffffffffffffffffffffffffffffffffffffffff1673ffffffffffffffffffffffffffffffffffffffff16036106a9575f816009018190555060018160020160156101000a81548160ff02191690831515021790555061067430826001015f9054906101000a900473ffffffffffffffffffffffffffffffffffffffff16835f0154612c7b565b6001547fa761d07fdb0a6897f18726f15d43008d6c30ce08e44a91775cfd2ef3b61cdad060405160405180910390a250610996565b5f81600301548260080154106106c35781600801546106c9565b81600301545b90505f82600a015f846002015f9054906101000a900473ffffffffffffffffffffffffffffffffffffffff1673ffffffffffffffffffffffffffffffffffffffff1673ffffffffffffffffffffffffffffffffffffffff1681526020019081526020015f206002015490505f83600a015f856001015f9054906101000a900473ffffffffffffffffffffffffffffffffffffffff1673ffffffffffffffffffffffffffffffffffffffff1673ffffffffffffffffffffffffffffffffffffffff1681526020019081526020015f206002015490508183106107cd575f82846107b191906136a8565b90508085600901819055505f8390505f93508092505050610801565b81831015610800575f83836107e291906136a8565b90505f856009018190555080925083826107fc91906136db565b9150505b5b8184600a015f866002015f9054906101000a900473ffffffffffffffffffffffffffffffffffffffff1673ffffffffffffffffffffffffffffffffffffffff1673ffffffffffffffffffffffffffffffffffffffff1681526020019081526020015f20600201819055508084600a015f866001015f9054906101000a900473ffffffffffffffffffffffffffffffffffffffff1673ffffffffffffffffffffffffffffffffffffffff1673ffffffffffffffffffffffffffffffffffffffff1681526020019081526020015f2060020181905550836006015f9054906101000a900467ffffffffffffffff16426108f8919061370e565b8460060160086101000a81548167ffffffffffffffff021916908367ffffffffffffffff1602179055506001547f5ab4254a16d8f1486e035342f3b6736a5efdc0b79886e7525b374bb0ec9ebee1856002015f9054906101000a900473ffffffffffffffffffffffffffffffffffffffff168660070154876008015488600901546040516109899493929190613749565b60405180910390a2505050505b565b7f000000000000000000000000000000000000000000000000000000000000000081565b5f6109c5612bda565b90505f4290508160050160089054906101000a900467ffffffffffffffff1667ffffffffffffffff16811080610a1d57508160050160109054906101000a900467ffffffffffffffff1667ffffffffffffffff168110155b15610a54576040517f74683d7100000000000000000000000000000000000000000000000000000000815260040160405180910390fd5b5f82600a015f3373ffffffffffffffffffffffffffffffffffffffff1673ffffffffffffffffffffffffffffffffffffffff1681526020019081526020015f206003015414610acf576040517f157330ee00000000000000000000000000000000000000000000000000000000815260040160405180910390fd5b5f82600a015f3373ffffffffffffffffffffffffffffffffffffffff1673ffffffffffffffffffffffffffffffffffffffff1681526020019081526020015f205f015490505f5f1b8103610b4f576040517fc06789fa00000000000000000000000000000000000000000000000000000000815260040160405180910390fd5b808585604051602001610b639291906137cc565b6040516020818303038152906040528051906020012014610bb0576040517fc06789fa00000000000000000000000000000000000000000000000000000000815260040160405180910390fd5b8483600a015f3373ffffffffffffffffffffffffffffffffffffffff1673ffffffffffffffffffffffffffffffffffffffff1681526020019081526020015f20600301819055508260030154851015610c35576040517f6b317d5600000000000000000000000000000000000000000000000000000000815260040160405180910390fd5b8260070154851115610cf5575f73ffffffffffffffffffffffffffffffffffffffff16836002015f9054906101000a900473ffffffffffffffffffffffffffffffffffffffff1673ffffffffffffffffffffffffffffffffffffffff1614610ca557826007015483600801819055505b84836007018190555033836002015f6101000a81548173ffffffffffffffffffffffffffffffffffffffff021916908373ffffffffffffffffffffffffffffffffffffffff160217905550610e55565b826007015485148015610de8575082600a015f846002015f9054906101000a900473ffffffffffffffffffffffffffffffffffffffff1673ffffffffffffffffffffffffffffffffffffffff1673ffffffffffffffffffffffffffffffffffffffff1681526020019081526020015f206001015f9054906101000a900467ffffffffffffffff1667ffffffffffffffff1683600a015f3373ffffffffffffffffffffffffffffffffffffffff1673ffffffffffffffffffffffffffffffffffffffff1681526020019081526020015f206001015f9054906101000a900467ffffffffffffffff1667ffffffffffffffff16105b15610e3d5784836007018190555033836002015f6101000a81548173ffffffffffffffffffffffffffffffffffffffff021916908373ffffffffffffffffffffffffffffffffffffffff160217905550610e54565b8260080154851115610e53578483600801819055505b5b5b3373ffffffffffffffffffffffffffffffffffffffff166001547f86d2fbc9069d34216ebc65b38ce840528d3f8cac0c86d2aaa7ab6a9db8bc35d387604051610e9e91906130a2565b60405180910390a35050505050565b5f5f5f5f610eba85612fe9565b9050806002015f9054906101000a900473ffffffffffffffffffffffffffffffffffffffff1681600901548260060160089054906101000a900467ffffffffffffffff16935093509350509193909250565b60025f5403610f50576040517f08c379a0000000000000000000000000000000000000000000000000000000008152600401610f4790613841565b60405180910390fd5b60025f819055505f610f6182612fe9565b90508060020160149054906101000a900460ff16610fab576040517fd3018d1800000000000000000000000000000000000000000000000000000000815260040160405180910390fd5b5f81600a015f3373ffffffffffffffffffffffffffffffffffffffff1673ffffffffffffffffffffffffffffffffffffffff1681526020019081526020015f206002015490505f810361102a576040517f3a6a68b100000000000000000000000000000000000000000000000000000000815260040160405180910390fd5b5f82600a015f3373ffffffffffffffffffffffffffffffffffffffff1673ffffffffffffffffffffffffffffffffffffffff1681526020019081526020015f20600201819055505f3373ffffffffffffffffffffffffffffffffffffffff16826040516110969061388c565b5f6040518083038185875af1925050503d805f81146110d0576040519150601f19603f3d011682016040523d82523d5f602084013e6110d5565b606091505b5050905080611110576040517f750b219c00000000000000000000000000000000000000000000000000000000815260040160405180910390fd5b3373ffffffffffffffffffffffffffffffffffffffff16847f47f74a265269aa6e5423fbcd9a74b3c8771a0c3a9c7cdfb7ebe375b288c06b4e60405160405180910390a350505060015f8190555050565b60025f54036111a5576040517f08c379a000000000000000000000000000000000000000000000000000000000815260040161119c90613841565b60405180910390fd5b60025f819055505f6111b5612bda565b90508060020160149054906101000a900460ff166111ff576040517fd3018d1800000000000000000000000000000000000000000000000000000000815260040160405180910390fd5b5f81600a015f3373ffffffffffffffffffffffffffffffffffffffff1673ffffffffffffffffffffffffffffffffffffffff1681526020019081526020015f206002015490505f810361127e576040517f3a6a68b100000000000000000000000000000000000000000000000000000000815260040160405180910390fd5b5f82600a015f3373ffffffffffffffffffffffffffffffffffffffff1673ffffffffffffffffffffffffffffffffffffffff1681526020019081526020015f20600201819055505f3373ffffffffffffffffffffffffffffffffffffffff16826040516112ea9061388c565b5f6040518083038185875af1925050503d805f8114611324576040519150601f19603f3d011682016040523d82523d5f602084013e611329565b606091505b5050905080611364576040517f750b219c00000000000000000000000000000000000000000000000000000000815260040160405180910390fd5b3373ffffffffffffffffffffffffffffffffffffffff166001547f47f74a265269aa6e5423fbcd9a74b3c8771a0c3a9c7cdfb7ebe375b288c06b4e60405160405180910390a350505060015f81905550565b5f5f6113c184612fe9565b905080600a015f8473ffffffffffffffffffffffffffffffffffffffff1673ffffffffffffffffffffffffffffffffffffffff1681526020019081526020015f206003015491505092915050565b5f611418612bda565b90508060050160089054906101000a900467ffffffffffffffff1667ffffffffffffffff164210158061146b5750806005015f9054906101000a900467ffffffffffffffff1667ffffffffffffffff1642105b156114a2576040517fabfb7dc300000000000000000000000000000000000000000000000000000000815260040160405180910390fd5b5f5f1b82036114dd576040517fc06789fa00000000000000000000000000000000000000000000000000000000815260040160405180910390fd5b806001015f9054906101000a900473ffffffffffffffffffffffffffffffffffffffff1673ffffffffffffffffffffffffffffffffffffffff163373ffffffffffffffffffffffffffffffffffffffff1603611565576040517fef02588900000000000000000000000000000000000000000000000000000000815260040160405180910390fd5b806004015434146115a2576040517f603e3d3600000000000000000000000000000000000000000000000000000000815260040160405180910390fd5b806004015481600a015f3373ffffffffffffffffffffffffffffffffffffffff1673ffffffffffffffffffffffffffffffffffffffff1681526020019081526020015f206002015f8282546115f791906136db565b9250508190555060018160050160188282829054906101000a900467ffffffffffffffff16611626919061370e565b92506101000a81548167ffffffffffffffff021916908367ffffffffffffffff1602179055508060050160189054906101000a900467ffffffffffffffff1681600a015f3373ffffffffffffffffffffffffffffffffffffffff1673ffffffffffffffffffffffffffffffffffffffff1681526020019081526020015f206001015f6101000a81548167ffffffffffffffff021916908367ffffffffffffffff1602179055508181600a015f3373ffffffffffffffffffffffffffffffffffffffff1673ffffffffffffffffffffffffffffffffffffffff1681526020019081526020015f205f01819055503373ffffffffffffffffffffffffffffffffffffffff166001547f0934ea4de468dcd0d9a335c5f97aa77955310c29631c93fbd01d95a00242ec4160405160405180910390a35050565b5f600154146117ce575f60025f60015481526020019081526020015f2090508060020160159054906101000a900460ff166117cc576040517f08c379a00000000000000000000000000000000000000000000000000000000081526004016117c3906138ea565b60405180910390fd5b505b5f8367ffffffffffffffff161180156117f3575062278d008367ffffffffffffffff16105b611832576040517f08c379a000000000000000000000000000000000000000000000000000000000815260040161182990613952565b60405180910390fd5b5f8267ffffffffffffffff16118015611857575062278d008267ffffffffffffffff16105b611896576040517f08c379a000000000000000000000000000000000000000000000000000000000815260040161188d906139ba565b60405180910390fd5b5f8167ffffffffffffffff161180156118bb575062278d008167ffffffffffffffff16105b6118fa576040517f08c379a00000000000000000000000000000000000000000000000000000000081526004016118f190613a22565b60405180910390fd5b5f8411801561191457506b033b2e3c9fd0803ce800000084105b611953576040517f08c379a000000000000000000000000000000000000000000000000000000000815260040161194a90613a8a565b60405180910390fd5b3373ffffffffffffffffffffffffffffffffffffffff167f000000000000000000000000000000000000000000000000000000000000000073ffffffffffffffffffffffffffffffffffffffff16636352211e876040518263ffffffff1660e01b81526004016119c391906130a2565b602060405180830381865afa1580156119de573d5f5f3e3d5ffd5b505050506040513d601f19601f82011682018060405250810190611a029190613abc565b73ffffffffffffffffffffffffffffffffffffffff1614611a58576040517f08c379a0000000000000000000000000000000000000000000000000000000008152600401611a4f90613b31565b60405180910390fd5b611a63333087612c7b565b6001805f828254611a7491906136db565b925050819055505f60025f60015481526020019081526020015f20905085815f018190555033816001015f6101000a81548173ffffffffffffffffffffffffffffffffffffffff021916908373ffffffffffffffffffffffffffffffffffffffff1602179055508481600301819055506b033b2e3c9fd0803ce8000000600286611afe9190613b7c565b10611b15576b033b2e3c9fd0803ce8000000611b23565b600285611b229190613b7c565b5b81600401819055505f42905080826005015f6101000a81548167ffffffffffffffff021916908367ffffffffffffffff1602179055508481611b65919061370e565b8260050160086101000a81548167ffffffffffffffff021916908367ffffffffffffffff160217905550838260050160089054906101000a900467ffffffffffffffff16611bb3919061370e565b8260050160106101000a81548167ffffffffffffffff021916908367ffffffffffffffff16021790555082826006015f6101000a81548167ffffffffffffffff021916908367ffffffffffffffff1602179055503373ffffffffffffffffffffffffffffffffffffffff166001547f086b19d6a6b02147fc1e9f2538ae5b1ff124ee6827666573f5f59710a6bd5ebb7f00000000000000000000000000000000000000000000000000000000000000008a8a8760040154886005015f9054906101000a900467ffffffffffffffff168960050160089054906101000a900467ffffffffffffffff168a60050160109054906101000a900467ffffffffffffffff168b6006015f9054906101000a900467ffffffffffffffff16604051611ce0989796959493929190613bdc565b60405180910390a350505050505050565b5f5f611cfc84612fe9565b905080600a015f8473ffffffffffffffffffffffffffffffffffffffff1673ffffffffffffffffffffffffffffffffffffffff1681526020019081526020015f205f015491505092915050565b60025f5403611d8d576040517f08c379a0000000000000000000000000000000000000000000000000000000008152600401611d8490613841565b60405180910390fd5b60025f819055505f611d9e82612fe9565b90508060020160149054906101000a900460ff16611de8576040517fd3018d1800000000000000000000000000000000000000000000000000000000815260040160405180910390fd5b3373ffffffffffffffffffffffffffffffffffffffff16816002015f9054906101000a900473ffffffffffffffffffffffffffffffffffffffff1673ffffffffffffffffffffffffffffffffffffffff1614611e70576040517f618c724200000000000000000000000000000000000000000000000000000000815260040160405180910390fd5b8060020160159054906101000a900460ff1615611eb9576040517f44a5ddcc00000000000000000000000000000000000000000000000000000000815260040160405180910390fd5b8060060160089054906101000a900467ffffffffffffffff1667ffffffffffffffff1642118015611eee57505f816009015414155b15611f25576040517f58459e8800000000000000000000000000000000000000000000000000000000815260040160405180910390fd5b80600901543414611f62576040517f788a686f00000000000000000000000000000000000000000000000000000000815260040160405180910390fd5b5f816009015414611ff2575f81600901819055503481600a015f836001015f9054906101000a900473ffffffffffffffffffffffffffffffffffffffff1673ffffffffffffffffffffffffffffffffffffffff1673ffffffffffffffffffffffffffffffffffffffff1681526020019081526020015f206002015f828254611fea91906136db565b925050819055505b60018160020160156101000a81548160ff02191690831515021790555061204030826002015f9054906101000a900473ffffffffffffffffffffffffffffffffffffffff16835f0154612c7b565b3373ffffffffffffffffffffffffffffffffffffffff16827fd33ef6ab06e6bf8672161aa6abe1ec1791c393d62213ebd89c67f611e538e5753460405161208791906130a2565b60405180910390a35060015f8190555050565b62278d0081565b60605f6120ad83612fe9565b90505f429050816005015f9054906101000a900467ffffffffffffffff1667ffffffffffffffff1681101561211b576040518060400160405280600781526020017f50454e44494e470000000000000000000000000000000000000000000000000081525092505050612377565b8160050160089054906101000a900467ffffffffffffffff1667ffffffffffffffff16811015612184576040518060400160405280600681526020017f434f4d4d4954000000000000000000000000000000000000000000000000000081525092505050612377565b8160050160109054906101000a900467ffffffffffffffff1667ffffffffffffffff168110156121ed576040518060400160405280600681526020017f52455645414c000000000000000000000000000000000000000000000000000081525092505050612377565b8160020160149054906101000a900460ff16612242576040518060400160405280601081526020017f46494e414c495a455f50454e44494e470000000000000000000000000000000081525092505050612377565b8160020160149054906101000a900460ff16801561226f57508160020160159054906101000a900460ff16155b80156122ca57505f73ffffffffffffffffffffffffffffffffffffffff16826002015f9054906101000a900473ffffffffffffffffffffffffffffffffffffffff1673ffffffffffffffffffffffffffffffffffffffff1614155b80156122f857508160060160089054906101000a900467ffffffffffffffff1667ffffffffffffffff168111155b1561233c576040518060400160405280600d81526020017f41574149545f5041594d454e540000000000000000000000000000000000000081525092505050612377565b6040518060400160405280600581526020017f454e444544000000000000000000000000000000000000000000000000000000815250925050505b919050565b60025f54036123c0576040517f08c379a00000000000000000000000000000000000000000000000000000000081526004016123b790613841565b60405180910390fd5b60025f819055505f6123d182612fe9565b90508060020160149054906101000a900460ff1661241b576040517fd3018d1800000000000000000000000000000000000000000000000000000000815260040160405180910390fd5b8060060160089054906101000a900467ffffffffffffffff1667ffffffffffffffff164211612476576040517fd3018d1800000000000000000000000000000000000000000000000000000000815260040160405180910390fd5b806001015f9054906101000a900473ffffffffffffffffffffffffffffffffffffffff1673ffffffffffffffffffffffffffffffffffffffff163373ffffffffffffffffffffffffffffffffffffffff16146124fe576040517f44a5ddcc00000000000000000000000000000000000000000000000000000000815260040160405180910390fd5b8060020160159054906101000a900460ff1615612547576040517f44a5ddcc00000000000000000000000000000000000000000000000000000000815260040160405180910390fd5b60018160020160156101000a81548160ff02191690831515021790555061259530826001015f9054906101000a900473ffffffffffffffffffffffffffffffffffffffff16835f0154612c7b565b5f81600a015f836002015f9054906101000a900473ffffffffffffffffffffffffffffffffffffffff1673ffffffffffffffffffffffffffffffffffffffff1673ffffffffffffffffffffffffffffffffffffffff1681526020019081526020015f206002015490505f82600a015f846002015f9054906101000a900473ffffffffffffffffffffffffffffffffffffffff1673ffffffffffffffffffffffffffffffffffffffff1673ffffffffffffffffffffffffffffffffffffffff1681526020019081526020015f20600201819055505f3373ffffffffffffffffffffffffffffffffffffffff168260405161268d9061388c565b5f6040518083038185875af1925050503d805f81146126c7576040519150601f19603f3d011682016040523d82523d5f602084013e6126cc565b606091505b5050905080612707576040517f750b219c00000000000000000000000000000000000000000000000000000000815260040160405180910390fd5b837f55c90d9726ff7562e2dda9743c070ab007dd986e4c0a42bcf578362c435a4d8960405160405180910390a250505060015f8190555050565b5f5f61274c84612fe9565b905080600a015f8473ffffffffffffffffffffffffffffffffffffffff1673ffffffffffffffffffffffffffffffffffffffff1681526020019081526020015f206001015f9054906101000a900467ffffffffffffffff1691505092915050565b5f5f5f5f5f6127bb86612fe9565b9050806005015f9054906101000a900467ffffffffffffffff168160050160089054906101000a900467ffffffffffffffff168260050160109054906101000a900467ffffffffffffffff168360060160089054906101000a900467ffffffffffffffff169450945094509450509193509193565b5f5f61283b84612fe9565b905080600a015f8473ffffffffffffffffffffffffffffffffffffffff1673ffffffffffffffffffffffffffffffffffffffff1681526020019081526020015f206002015491505092915050565b60025f54036128cd576040517f08c379a00000000000000000000000000000000000000000000000000000000081526004016128c490613841565b60405180910390fd5b60025f819055505f6128dd612bda565b90508060020160149054906101000a900460ff16612927576040517fd3018d1800000000000000000000000000000000000000000000000000000000815260040160405180910390fd5b3373ffffffffffffffffffffffffffffffffffffffff16816002015f9054906101000a900473ffffffffffffffffffffffffffffffffffffffff1673ffffffffffffffffffffffffffffffffffffffff16146129af576040517f618c724200000000000000000000000000000000000000000000000000000000815260040160405180910390fd5b8060020160159054906101000a900460ff16156129f8576040517f44a5ddcc00000000000000000000000000000000000000000000000000000000815260040160405180910390fd5b8060060160089054906101000a900467ffffffffffffffff1667ffffffffffffffff1642118015612a2d57505f816009015414155b15612a64576040517f58459e8800000000000000000000000000000000000000000000000000000000815260040160405180910390fd5b80600901543414612aa1576040517f788a686f00000000000000000000000000000000000000000000000000000000815260040160405180910390fd5b5f816009015414612b31575f81600901819055503481600a015f836001015f9054906101000a900473ffffffffffffffffffffffffffffffffffffffff1673ffffffffffffffffffffffffffffffffffffffff1673ffffffffffffffffffffffffffffffffffffffff1681526020019081526020015f206002015f828254612b2991906136db565b925050819055505b60018160020160156101000a81548160ff021916908315150217905550612b7f30826002015f9054906101000a900473ffffffffffffffffffffffffffffffffffffffff16835f0154612c7b565b3373ffffffffffffffffffffffffffffffffffffffff166001547fd33ef6ab06e6bf8672161aa6abe1ec1791c393d62213ebd89c67f611e538e57534604051612bc891906130a2565b60405180910390a35060015f81905550565b5f60025f60015481526020019081526020015f2090505f73ffffffffffffffffffffffffffffffffffffffff16816001015f9054906101000a900473ffffffffffffffffffffffffffffffffffffffff1673ffffffffffffffffffffffffffffffffffffffff1603612c78576040517f568ca25700000000000000000000000000000000000000000000000000000000815260040160405180910390fd5b90565b8273ffffffffffffffffffffffffffffffffffffffff167f000000000000000000000000000000000000000000000000000000000000000073ffffffffffffffffffffffffffffffffffffffff16636352211e836040518263ffffffff1660e01b8152600401612ceb91906130a2565b602060405180830381865afa158015612d06573d5f5f3e3d5ffd5b505050506040513d601f19601f82011682018060405250810190612d2a9190613abc565b73ffffffffffffffffffffffffffffffffffffffff1614612d80576040517f08c379a0000000000000000000000000000000000000000000000000000000008152600401612d7790613ca2565b60405180910390fd5b3073ffffffffffffffffffffffffffffffffffffffff168273ffffffffffffffffffffffffffffffffffffffff1603612f5a573073ffffffffffffffffffffffffffffffffffffffff167f000000000000000000000000000000000000000000000000000000000000000073ffffffffffffffffffffffffffffffffffffffff1663081812fc836040518263ffffffff1660e01b8152600401612e2391906130a2565b602060405180830381865afa158015612e3e573d5f5f3e3d5ffd5b505050506040513d601f19601f82011682018060405250810190612e629190613abc565b73ffffffffffffffffffffffffffffffffffffffff161480612f1a57507f000000000000000000000000000000000000000000000000000000000000000073ffffffffffffffffffffffffffffffffffffffff1663e985e9c584306040518363ffffffff1660e01b8152600401612eda929190613cc0565b602060405180830381865afa158015612ef5573d5f5f3e3d5ffd5b505050506040513d601f19601f82011682018060405250810190612f199190613d1c565b5b612f59576040517f08c379a0000000000000000000000000000000000000000000000000000000008152600401612f5090613d91565b60405180910390fd5b5b7f000000000000000000000000000000000000000000000000000000000000000073ffffffffffffffffffffffffffffffffffffffff166342842e0e8484846040518463ffffffff1660e01b8152600401612fb793929190613daf565b5f604051808303815f87803b158015612fce575f5ffd5b505af1158015612fe0573d5f5f3e3d5ffd5b50505050505050565b5f60025f8381526020019081526020015f2090505f73ffffffffffffffffffffffffffffffffffffffff16816001015f9054906101000a900473ffffffffffffffffffffffffffffffffffffffff1673ffffffffffffffffffffffffffffffffffffffff1603613085576040517f568ca25700000000000000000000000000000000000000000000000000000000815260040160405180910390fd5b919050565b5f819050919050565b61309c8161308a565b82525050565b5f6020820190506130b55f830184613093565b92915050565b5f5ffd5b5f5ffd5b5f73ffffffffffffffffffffffffffffffffffffffff82169050919050565b5f6130ec826130c3565b9050919050565b6130fc816130e2565b8114613106575f5ffd5b50565b5f81359050613117816130f3565b92915050565b6131268161308a565b8114613130575f5ffd5b50565b5f813590506131418161311d565b92915050565b5f5ffd5b5f5ffd5b5f5ffd5b5f5f83601f84011261316857613167613147565b5b8235905067ffffffffffffffff8111156131855761318461314b565b5b6020830191508360018202830111156131a1576131a061314f565b5b9250929050565b5f5f5f5f5f608086880312156131c1576131c06130bb565b5b5f6131ce88828901613109565b95505060206131df88828901613109565b94505060406131f088828901613133565b935050606086013567ffffffffffffffff811115613211576132106130bf565b5b61321d88828901613153565b92509250509295509295909350565b5f7fffffffff0000000000000000000000000000000000000000000000000000000082169050919050565b6132608161322c565b82525050565b5f6020820190506132795f830184613257565b92915050565b5f819050919050565b5f6132a261329d613298846130c3565b61327f565b6130c3565b9050919050565b5f6132b382613288565b9050919050565b5f6132c4826132a9565b9050919050565b6132d4816132ba565b82525050565b5f6020820190506132ed5f8301846132cb565b92915050565b5f819050919050565b613305816132f3565b811461330f575f5ffd5b50565b5f81359050613320816132fc565b92915050565b5f5f6040838503121561333c5761333b6130bb565b5b5f61334985828601613133565b925050602061335a85828601613312565b9150509250929050565b5f60208284031215613379576133786130bb565b5b5f61338684828501613133565b91505092915050565b613398816130e2565b82525050565b5f67ffffffffffffffff82169050919050565b6133ba8161339e565b82525050565b5f6060820190506133d35f83018661338f565b6133e06020830185613093565b6133ed60408301846133b1565b949350505050565b5f5f6040838503121561340b5761340a6130bb565b5b5f61341885828601613133565b925050602061342985828601613109565b9150509250929050565b5f60208284031215613448576134476130bb565b5b5f61345584828501613312565b91505092915050565b6134678161339e565b8114613471575f5ffd5b50565b5f813590506134828161345e565b92915050565b5f5f5f5f5f60a086880312156134a1576134a06130bb565b5b5f6134ae88828901613133565b95505060206134bf88828901613133565b94505060406134d088828901613474565b93505060606134e188828901613474565b92505060806134f288828901613474565b9150509295509295909350565b613508816132f3565b82525050565b5f6020820190506135215f8301846134ff565b92915050565b5f81519050919050565b5f82825260208201905092915050565b8281835e5f83830152505050565b5f601f19601f8301169050919050565b5f61356982613527565b6135738185613531565b9350613583818560208601613541565b61358c8161354f565b840191505092915050565b5f6020820190508181035f8301526135af818461355f565b905092915050565b5f6020820190506135ca5f8301846133b1565b92915050565b5f6080820190506135e35f8301876133b1565b6135f060208301866133b1565b6135fd60408301856133b1565b61360a60608301846133b1565b95945050505050565b7f616c72656164792066696e616c697a65640000000000000000000000000000005f82015250565b5f613647601183613531565b915061365282613613565b602082019050919050565b5f6020820190508181035f8301526136748161363b565b9050919050565b7f4e487b71000000000000000000000000000000000000000000000000000000005f52601160045260245ffd5b5f6136b28261308a565b91506136bd8361308a565b92508282039050818111156136d5576136d461367b565b5b92915050565b5f6136e58261308a565b91506136f08361308a565b92508282019050808211156137085761370761367b565b5b92915050565b5f6137188261339e565b91506137238361339e565b9250828201905067ffffffffffffffff8111156137435761374261367b565b5b92915050565b5f60808201905061375c5f83018761338f565b6137696020830186613093565b6137766040830185613093565b6137836060830184613093565b95945050505050565b5f819050919050565b6137a66137a18261308a565b61378c565b82525050565b5f819050919050565b6137c66137c1826132f3565b6137ac565b82525050565b5f6137d78285613795565b6020820191506137e782846137b5565b6020820191508190509392505050565b7f5245454e5452414e4359000000000000000000000000000000000000000000005f82015250565b5f61382b600a83613531565b9150613836826137f7565b602082019050919050565b5f6020820190508181035f8301526138588161381f565b9050919050565b5f81905092915050565b50565b5f6138775f8361385f565b915061388282613869565b5f82019050919050565b5f6138968261386c565b9150819050919050565b7f70726576696f7573206e6f7420656e64656400000000000000000000000000005f82015250565b5f6138d4601283613531565b91506138df826138a0565b602082019050919050565b5f6020820190508181035f830152613901816138c8565b9050919050565b7f434f4e4649473a2062616420636f6d6d6974206475726174696f6e73000000005f82015250565b5f61393c601c83613531565b915061394782613908565b602082019050919050565b5f6020820190508181035f83015261396981613930565b9050919050565b7f434f4e4649473a206261642072657665616c206475726174696f6e73000000005f82015250565b5f6139a4601c83613531565b91506139af82613970565b602082019050919050565b5f6020820190508181035f8301526139d181613998565b9050919050565b7f434f4e4649473a2062616420736574746c65206475726174696f6e73000000005f82015250565b5f613a0c601c83613531565b9150613a17826139d8565b602082019050919050565b5f6020820190508181035f830152613a3981613a00565b9050919050565b7f434f4e4649473a206261642072657365727665207072696365000000000000005f82015250565b5f613a74601983613531565b9150613a7f82613a40565b602082019050919050565b5f6020820190508181035f830152613aa181613a68565b9050919050565b5f81519050613ab6816130f3565b92915050565b5f60208284031215613ad157613ad06130bb565b5b5f613ade84828501613aa8565b91505092915050565b7f6e6f74206f776e657200000000000000000000000000000000000000000000005f82015250565b5f613b1b600983613531565b9150613b2682613ae7565b602082019050919050565b5f6020820190508181035f830152613b4881613b0f565b9050919050565b7f4e487b71000000000000000000000000000000000000000000000000000000005f52601260045260245ffd5b5f613b868261308a565b9150613b918361308a565b925082613ba157613ba0613b4f565b5b828204905092915050565b5f613bc6613bc1613bbc8461339e565b61327f565b61308a565b9050919050565b613bd681613bac565b82525050565b5f61010082019050613bf05f83018b61338f565b613bfd602083018a613093565b613c0a6040830189613093565b613c176060830188613093565b613c246080830187613bcd565b613c3160a08301866133b1565b613c3e60c08301856133b1565b613c4b60e08301846133b1565b9998505050505050505050565b7f4e46543a206e6f74206f776e65720000000000000000000000000000000000005f82015250565b5f613c8c600e83613531565b9150613c9782613c58565b602082019050919050565b5f6020820190508181035f830152613cb981613c80565b9050919050565b5f604082019050613cd35f83018561338f565b613ce0602083018461338f565b9392505050565b5f8115159050919050565b613cfb81613ce7565b8114613d05575f5ffd5b50565b5f81519050613d1681613cf2565b92915050565b5f60208284031215613d3157613d306130bb565b5b5f613d3e84828501613d08565b91505092915050565b7f4e46543a206e6f7420617070726f7665640000000000000000000000000000005f82015250565b5f613d7b601183613531565b9150613d8682613d47565b602082019050919050565b5f6020820190508181035f830152613da881613d6f565b9050919050565b5f606082019050613dc25f83018661338f565b613dcf602083018561338f565b613ddc6040830184613093565b94935050505056fea26469706673582212209c1440d24adfccb85ac511dc0c1dd1eb7938f60286824758a5ca091d21f1cd7764736f6c634300081e0033",
			"opcodes": "PUSH1 0xA0 PUSH1 0x40 MSTORE PUSH1 0x1 PUSH0 SSTORE PUSH20 0x1546BD67237122754D3F0CB761C139F81388B210 PUSH20 0xFFFFFFFFFFFFFFFFFFFFFFFFFFFFFFFFFFFFFFFF AND PUSH1 0x80 SWAP1 PUSH20 0xFFFFFFFFFFFFFFFFFFFFFFFFFFFFFFFFFFFFFFFF AND DUP2 MSTORE POP CALLVALUE DUP1 ISZERO PUSH2 0x5A JUMPI PUSH0 PUSH0 REVERT JUMPDEST POP PUSH1 0x80 MLOAD PUSH2 0x3E1A PUSH2 0x9D PUSH0 CODECOPY PUSH0 DUP2 DUP2 PUSH2 0x99A ADD MSTORE DUP2 DUP2 PUSH2 0x196C ADD MSTORE DUP2 DUP2 PUSH2 0x1C44 ADD MSTORE DUP2 DUP2 PUSH2 0x2C94 ADD MSTORE DUP2 DUP2 PUSH2 0x2DCC ADD MSTORE DUP2 DUP2 PUSH2 0x2E81 ADD MSTORE PUSH2 0x2F5C ADD MSTORE PUSH2 0x3E1A PUSH0 RETURN INVALID PUSH1 0x80 PUSH1 0x40 MSTORE PUSH1 0x4 CALLDATASIZE LT PUSH2 0x129 JUMPI PUSH0 CALLDATALOAD PUSH1 0xE0 SHR DUP1 PUSH4 0x86A2CC27 GT PUSH2 0xAA JUMPI DUP1 PUSH4 0xB1FB6405 GT PUSH2 0x6E JUMPI DUP1 PUSH4 0xB1FB6405 EQ PUSH2 0x3A3 JUMPI DUP1 PUSH4 0xC8F97366 EQ PUSH2 0x3DF JUMPI DUP1 PUSH4 0xD3851F4C EQ PUSH2 0x407 JUMPI DUP1 PUSH4 0xD3AA699E EQ PUSH2 0x443 JUMPI DUP1 PUSH4 0xDE75A5C0 EQ PUSH2 0x482 JUMPI DUP1 PUSH4 0xE9906F2E EQ PUSH2 0x4BE JUMPI PUSH2 0x129 JUMP JUMPDEST DUP1 PUSH4 0x86A2CC27 EQ PUSH2 0x2DD JUMPI DUP1 PUSH4 0x894DA478 EQ PUSH2 0x2F9 JUMPI DUP1 PUSH4 0x89FB2682 EQ PUSH2 0x321 JUMPI DUP1 PUSH4 0xA0743F22 EQ PUSH2 0x35D JUMPI DUP1 PUSH4 0xB1724B46 EQ PUSH2 0x379 JUMPI PUSH2 0x129 JUMP JUMPDEST DUP1 PUSH4 0x62C5424A GT PUSH2 0xF1 JUMPI DUP1 PUSH4 0x62C5424A EQ PUSH2 0x1FD JUMPI DUP1 PUSH4 0x6B1DA364 EQ PUSH2 0x225 JUMPI DUP1 PUSH4 0x71D946B4 EQ PUSH2 0x263 JUMPI DUP1 PUSH4 0x7CF2ED22 EQ PUSH2 0x28B JUMPI DUP1 PUSH4 0x813ABC2D EQ PUSH2 0x2A1 JUMPI PUSH2 0x129 JUMP JUMPDEST DUP1 PUSH4 0x1C11D96 EQ PUSH2 0x12D JUMPI DUP1 PUSH4 0x10782F8F EQ PUSH2 0x157 JUMPI DUP1 PUSH4 0x150B7A02 EQ PUSH2 0x181 JUMPI DUP1 PUSH4 0x4BB278F3 EQ PUSH2 0x1BD JUMPI DUP1 PUSH4 0x5E7721F7 EQ PUSH2 0x1D3 JUMPI JUMPDEST PUSH0 PUSH0 REVERT JUMPDEST CALLVALUE DUP1 ISZERO PUSH2 0x138 JUMPI PUSH0 PUSH0 REVERT JUMPDEST POP PUSH2 0x141 PUSH2 0x4C8 JUMP JUMPDEST PUSH1 0x40 MLOAD PUSH2 0x14E SWAP2 SWAP1 PUSH2 0x30A2 JUMP JUMPDEST PUSH1 0x40 MLOAD DUP1 SWAP2 SUB SWAP1 RETURN JUMPDEST CALLVALUE DUP1 ISZERO PUSH2 0x162 JUMPI PUSH0 PUSH0 REVERT JUMPDEST POP PUSH2 0x16B PUSH2 0x4D8 JUMP JUMPDEST PUSH1 0x40 MLOAD PUSH2 0x178 SWAP2 SWAP1 PUSH2 0x30A2 JUMP JUMPDEST PUSH1 0x40 MLOAD DUP1 SWAP2 SUB SWAP1 RETURN JUMPDEST CALLVALUE DUP1 ISZERO PUSH2 0x18C JUMPI PUSH0 PUSH0 REVERT JUMPDEST POP PUSH2 0x1A7 PUSH1 0x4 DUP1 CALLDATASIZE SUB DUP2 ADD SWAP1 PUSH2 0x1A2 SWAP2 SWAP1 PUSH2 0x31A8 JUMP JUMPDEST PUSH2 0x4DE JUMP JUMPDEST PUSH1 0x40 MLOAD PUSH2 0x1B4 SWAP2 SWAP1 PUSH2 0x3266 JUMP JUMPDEST PUSH1 0x40 MLOAD DUP1 SWAP2 SUB SWAP1 RETURN JUMPDEST CALLVALUE DUP1 ISZERO PUSH2 0x1C8 JUMPI PUSH0 PUSH0 REVERT JUMPDEST POP PUSH2 0x1D1 PUSH2 0x4F2 JUMP JUMPDEST STOP JUMPDEST CALLVALUE DUP1 ISZERO PUSH2 0x1DE JUMPI PUSH0 PUSH0 REVERT JUMPDEST POP PUSH2 0x1E7 PUSH2 0x998 JUMP JUMPDEST PUSH1 0x40 MLOAD PUSH2 0x1F4 SWAP2 SWAP1 PUSH2 0x32DA JUMP JUMPDEST PUSH1 0x40 MLOAD DUP1 SWAP2 SUB SWAP1 RETURN JUMPDEST CALLVALUE DUP1 ISZERO PUSH2 0x208 JUMPI PUSH0 PUSH0 REVERT JUMPDEST POP PUSH2 0x223 PUSH1 0x4 DUP1 CALLDATASIZE SUB DUP2 ADD SWAP1 PUSH2 0x21E SWAP2 SWAP1 PUSH2 0x3326 JUMP JUMPDEST PUSH2 0x9BC JUMP JUMPDEST STOP JUMPDEST CALLVALUE DUP1 ISZERO PUSH2 0x230 JUMPI PUSH0 PUSH0 REVERT JUMPDEST POP PUSH2 0x24B PUSH1 0x4 DUP1 CALLDATASIZE SUB DUP2 ADD SWAP1 PUSH2 0x246 SWAP2 SWAP1 PUSH2 0x3364 JUMP JUMPDEST PUSH2 0xEAD JUMP JUMPDEST PUSH1 0x40 MLOAD PUSH2 0x25A SWAP4 SWAP3 SWAP2 SWAP1 PUSH2 0x33C0 JUMP JUMPDEST PUSH1 0x40 MLOAD DUP1 SWAP2 SUB SWAP1 RETURN JUMPDEST CALLVALUE DUP1 ISZERO PUSH2 0x26E JUMPI PUSH0 PUSH0 REVERT JUMPDEST POP PUSH2 0x289 PUSH1 0x4 DUP1 CALLDATASIZE SUB DUP2 ADD SWAP1 PUSH2 0x284 SWAP2 SWAP1 PUSH2 0x3364 JUMP JUMPDEST PUSH2 0xF0C JUMP JUMPDEST STOP JUMPDEST CALLVALUE DUP1 ISZERO PUSH2 0x296 JUMPI PUSH0 PUSH0 REVERT JUMPDEST POP PUSH2 0x29F PUSH2 0x1161 JUMP JUMPDEST STOP JUMPDEST CALLVALUE DUP1 ISZERO PUSH2 0x2AC JUMPI PUSH0 PUSH0 REVERT JUMPDEST POP PUSH2 0x2C7 PUSH1 0x4 DUP1 CALLDATASIZE SUB DUP2 ADD SWAP1 PUSH2 0x2C2 SWAP2 SWAP1 PUSH2 0x33F5 JUMP JUMPDEST PUSH2 0x13B6 JUMP JUMPDEST PUSH1 0x40 MLOAD PUSH2 0x2D4 SWAP2 SWAP1 PUSH2 0x30A2 JUMP JUMPDEST PUSH1 0x40 MLOAD DUP1 SWAP2 SUB SWAP1 RETURN JUMPDEST PUSH2 0x2F7 PUSH1 0x4 DUP1 CALLDATASIZE SUB DUP2 ADD SWAP1 PUSH2 0x2F2 SWAP2 SWAP1 PUSH2 0x3433 JUMP JUMPDEST PUSH2 0x140F JUMP JUMPDEST STOP JUMPDEST CALLVALUE DUP1 ISZERO PUSH2 0x304 JUMPI PUSH0 PUSH0 REVERT JUMPDEST POP PUSH2 0x31F PUSH1 0x4 DUP1 CALLDATASIZE SUB DUP2 ADD SWAP1 PUSH2 0x31A SWAP2 SWAP1 PUSH2 0x3488 JUMP JUMPDEST PUSH2 0x175C JUMP JUMPDEST STOP JUMPDEST CALLVALUE DUP1 ISZERO PUSH2 0x32C JUMPI PUSH0 PUSH0 REVERT JUMPDEST POP PUSH2 0x347 PUSH1 0x4 DUP1 CALLDATASIZE SUB DUP2 ADD SWAP1 PUSH2 0x342 SWAP2 SWAP1 PUSH2 0x33F5 JUMP JUMPDEST PUSH2 0x1CF1 JUMP JUMPDEST PUSH1 0x40 MLOAD PUSH2 0x354 SWAP2 SWAP1 PUSH2 0x350E JUMP JUMPDEST PUSH1 0x40 MLOAD DUP1 SWAP2 SUB SWAP1 RETURN JUMPDEST PUSH2 0x377 PUSH1 0x4 DUP1 CALLDATASIZE SUB DUP2 ADD SWAP1 PUSH2 0x372 SWAP2 SWAP1 PUSH2 0x3364 JUMP JUMPDEST PUSH2 0x1D49 JUMP JUMPDEST STOP JUMPDEST CALLVALUE DUP1 ISZERO PUSH2 0x384 JUMPI PUSH0 PUSH0 REVERT JUMPDEST POP PUSH2 0x38D PUSH2 0x209A JUMP JUMPDEST PUSH1 0x40 MLOAD PUSH2 0x39A SWAP2 SWAP1 PUSH2 0x30A2 JUMP JUMPDEST PUSH1 0x40 MLOAD DUP1 SWAP2 SUB SWAP1 RETURN JUMPDEST CALLVALUE DUP1 ISZERO PUSH2 0x3AE JUMPI PUSH0 PUSH0 REVERT JUMPDEST POP PUSH2 0x3C9 PUSH1 0x4 DUP1 CALLDATASIZE SUB DUP2 ADD SWAP1 PUSH2 0x3C4 SWAP2 SWAP1 PUSH2 0x3364 JUMP JUMPDEST PUSH2 0x20A1 JUMP JUMPDEST PUSH1 0x40 MLOAD PUSH2 0x3D6 SWAP2 SWAP1 PUSH2 0x3597 JUMP JUMPDEST PUSH1 0x40 MLOAD DUP1 SWAP2 SUB SWAP1 RETURN JUMPDEST CALLVALUE DUP1 ISZERO PUSH2 0x3EA JUMPI PUSH0 PUSH0 REVERT JUMPDEST POP PUSH2 0x405 PUSH1 0x4 DUP1 CALLDATASIZE SUB DUP2 ADD SWAP1 PUSH2 0x400 SWAP2 SWAP1 PUSH2 0x3364 JUMP JUMPDEST PUSH2 0x237C JUMP JUMPDEST STOP JUMPDEST CALLVALUE DUP1 ISZERO PUSH2 0x412 JUMPI PUSH0 PUSH0 REVERT JUMPDEST POP PUSH2 0x42D PUSH1 0x4 DUP1 CALLDATASIZE SUB DUP2 ADD SWAP1 PUSH2 0x428 SWAP2 SWAP1 PUSH2 0x33F5 JUMP JUMPDEST PUSH2 0x2741 JUMP JUMPDEST PUSH1 0x40 MLOAD PUSH2 0x43A SWAP2 SWAP1 PUSH2 0x35B7 JUMP JUMPDEST PUSH1 0x40 MLOAD DUP1 SWAP2 SUB SWAP1 RETURN JUMPDEST CALLVALUE DUP1 ISZERO PUSH2 0x44E JUMPI PUSH0 PUSH0 REVERT JUMPDEST POP PUSH2 0x469 PUSH1 0x4 DUP1 CALLDATASIZE SUB DUP2 ADD SWAP1 PUSH2 0x464 SWAP2 SWAP1 PUSH2 0x3364 JUMP JUMPDEST PUSH2 0x27AD JUMP JUMPDEST PUSH1 0x40 MLOAD PUSH2 0x479 SWAP5 SWAP4 SWAP3 SWAP2 SWAP1 PUSH2 0x35D0 JUMP JUMPDEST PUSH1 0x40 MLOAD DUP1 SWAP2 SUB SWAP1 RETURN JUMPDEST CALLVALUE DUP1 ISZERO PUSH2 0x48D JUMPI PUSH0 PUSH0 REVERT JUMPDEST POP PUSH2 0x4A8 PUSH1 0x4 DUP1 CALLDATASIZE SUB DUP2 ADD SWAP1 PUSH2 0x4A3 SWAP2 SWAP1 PUSH2 0x33F5 JUMP JUMPDEST PUSH2 0x2830 JUMP JUMPDEST PUSH1 0x40 MLOAD PUSH2 0x4B5 SWAP2 SWAP1 PUSH2 0x30A2 JUMP JUMPDEST PUSH1 0x40 MLOAD DUP1 SWAP2 SUB SWAP1 RETURN JUMPDEST PUSH2 0x4C6 PUSH2 0x2889 JUMP JUMPDEST STOP JUMPDEST PUSH12 0x33B2E3C9FD0803CE8000000 DUP2 JUMP JUMPDEST PUSH1 0x1 SLOAD DUP2 JUMP JUMPDEST PUSH0 PUSH4 0x150B7A02 PUSH1 0xE0 SHL SWAP1 POP SWAP6 SWAP5 POP POP POP POP POP JUMP JUMPDEST PUSH0 PUSH2 0x4FB PUSH2 0x2BDA JUMP JUMPDEST SWAP1 POP DUP1 PUSH1 0x5 ADD PUSH1 0x10 SWAP1 SLOAD SWAP1 PUSH2 0x100 EXP SWAP1 DIV PUSH8 0xFFFFFFFFFFFFFFFF AND PUSH8 0xFFFFFFFFFFFFFFFF AND TIMESTAMP LT ISZERO PUSH2 0x558 JUMPI PUSH1 0x40 MLOAD PUSH31 0xE8F46600000000000000000000000000000000000000000000000000000000 DUP2 MSTORE PUSH1 0x4 ADD PUSH1 0x40 MLOAD DUP1 SWAP2 SUB SWAP1 REVERT JUMPDEST DUP1 PUSH1 0x2 ADD PUSH1 0x14 SWAP1 SLOAD SWAP1 PUSH2 0x100 EXP SWAP1 DIV PUSH1 0xFF AND ISZERO PUSH2 0x5AA JUMPI PUSH1 0x40 MLOAD PUSH32 0x8C379A000000000000000000000000000000000000000000000000000000000 DUP2 MSTORE PUSH1 0x4 ADD PUSH2 0x5A1 SWAP1 PUSH2 0x365D JUMP JUMPDEST PUSH1 0x40 MLOAD DUP1 SWAP2 SUB SWAP1 REVERT JUMPDEST PUSH1 0x1 DUP2 PUSH1 0x2 ADD PUSH1 0x14 PUSH2 0x100 EXP DUP2 SLOAD DUP2 PUSH1 0xFF MUL NOT AND SWAP1 DUP4 ISZERO ISZERO MUL OR SWAP1 SSTORE POP PUSH0 PUSH20 0xFFFFFFFFFFFFFFFFFFFFFFFFFFFFFFFFFFFFFFFF AND DUP2 PUSH1 0x2 ADD PUSH0 SWAP1 SLOAD SWAP1 PUSH2 0x100 EXP SWAP1 DIV PUSH20 0xFFFFFFFFFFFFFFFFFFFFFFFFFFFFFFFFFFFFFFFF AND PUSH20 0xFFFFFFFFFFFFFFFFFFFFFFFFFFFFFFFFFFFFFFFF AND SUB PUSH2 0x6A9 JUMPI PUSH0 DUP2 PUSH1 0x9 ADD DUP2 SWAP1 SSTORE POP PUSH1 0x1 DUP2 PUSH1 0x2 ADD PUSH1 0x15 PUSH2 0x100 EXP DUP2 SLOAD DUP2 PUSH1 0xFF MUL NOT AND SWAP1 DUP4 ISZERO ISZERO MUL OR SWAP1 SSTORE POP PUSH2 0x674 ADDRESS DUP3 PUSH1 0x1 ADD PUSH0 SWAP1 SLOAD SWAP1 PUSH2 0x100 EXP SWAP1 DIV PUSH20 0xFFFFFFFFFFFFFFFFFFFFFFFFFFFFFFFFFFFFFFFF AND DUP4 PUSH0 ADD SLOAD PUSH2 0x2C7B JUMP JUMPDEST PUSH1 0x1 SLOAD PUSH32 0xA761D07FDB0A6897F18726F15D43008D6C30CE08E44A91775CFD2EF3B61CDAD0 PUSH1 0x40 MLOAD PUSH1 0x40 MLOAD DUP1 SWAP2 SUB SWAP1 LOG2 POP PUSH2 0x996 JUMP JUMPDEST PUSH0 DUP2 PUSH1 0x3 ADD SLOAD DUP3 PUSH1 0x8 ADD SLOAD LT PUSH2 0x6C3 JUMPI DUP2 PUSH1 0x8 ADD SLOAD PUSH2 0x6C9 JUMP JUMPDEST DUP2 PUSH1 0x3 ADD SLOAD JUMPDEST SWAP1 POP PUSH0 DUP3 PUSH1 0xA ADD PUSH0 DUP5 PUSH1 0x2 ADD PUSH0 SWAP1 SLOAD SWAP1 PUSH2 0x100 EXP SWAP1 DIV PUSH20 0xFFFFFFFFFFFFFFFFFFFFFFFFFFFFFFFFFFFFFFFF AND PUSH20 0xFFFFFFFFFFFFFFFFFFFFFFFFFFFFFFFFFFFFFFFF AND PUSH20 0xFFFFFFFFFFFFFFFFFFFFFFFFFFFFFFFFFFFFFFFF AND DUP2 MSTORE PUSH1 0x20 ADD SWAP1 DUP2 MSTORE PUSH1 0x20 ADD PUSH0 KECCAK256 PUSH1 0x2 ADD SLOAD SWAP1 POP PUSH0 DUP4 PUSH1 0xA ADD PUSH0 DUP6 PUSH1 0x1 ADD PUSH0 SWAP1 SLOAD SWAP1 PUSH2 0x100 EXP SWAP1 DIV PUSH20 0xFFFFFFFFFFFFFFFFFFFFFFFFFFFFFFFFFFFFFFFF AND PUSH20 0xFFFFFFFFFFFFFFFFFFFFFFFFFFFFFFFFFFFFFFFF AND PUSH20 0xFFFFFFFFFFFFFFFFFFFFFFFFFFFFFFFFFFFFFFFF AND DUP2 MSTORE PUSH1 0x20 ADD SWAP1 DUP2 MSTORE PUSH1 0x20 ADD PUSH0 KECCAK256 PUSH1 0x2 ADD SLOAD SWAP1 POP DUP2 DUP4 LT PUSH2 0x7CD JUMPI PUSH0 DUP3 DUP5 PUSH2 0x7B1 SWAP2 SWAP1 PUSH2 0x36A8 JUMP JUMPDEST SWAP1 POP DUP1 DUP6 PUSH1 0x9 ADD DUP2 SWAP1 SSTORE POP PUSH0 DUP4 SWAP1 POP PUSH0 SWAP4 POP DUP1 SWAP3 POP POP POP PUSH2 0x801 JUMP JUMPDEST DUP2 DUP4 LT ISZERO PUSH2 0x800 JUMPI PUSH0 DUP4 DUP4 PUSH2 0x7E2 SWAP2 SWAP1 PUSH2 0x36A8 JUMP JUMPDEST SWAP1 POP PUSH0 DUP6 PUSH1 0x9 ADD DUP2 SWAP1 SSTORE POP DUP1 SWAP3 POP DUP4 DUP3 PUSH2 0x7FC SWAP2 SWAP1 PUSH2 0x36DB JUMP JUMPDEST SWAP2 POP POP JUMPDEST JUMPDEST DUP2 DUP5 PUSH1 0xA ADD PUSH0 DUP7 PUSH1 0x2 ADD PUSH0 SWAP1 SLOAD SWAP1 PUSH2 0x100 EXP SWAP1 DIV PUSH20 0xFFFFFFFFFFFFFFFFFFFFFFFFFFFFFFFFFFFFFFFF AND PUSH20 0xFFFFFFFFFFFFFFFFFFFFFFFFFFFFFFFFFFFFFFFF AND PUSH20 0xFFFFFFFFFFFFFFFFFFFFFFFFFFFFFFFFFFFFFFFF AND DUP2 MSTORE PUSH1 0x20 ADD SWAP1 DUP2 MSTORE PUSH1 0x20 ADD PUSH0 KECCAK256 PUSH1 0x2 ADD DUP2 SWAP1 SSTORE POP DUP1 DUP5 PUSH1 0xA ADD PUSH0 DUP7 PUSH1 0x1 ADD PUSH0 SWAP1 SLOAD SWAP1 PUSH2 0x100 EXP SWAP1 DIV PUSH20 0xFFFFFFFFFFFFFFFFFFFFFFFFFFFFFFFFFFFFFFFF AND PUSH20 0xFFFFFFFFFFFFFFFFFFFFFFFFFFFFFFFFFFFFFFFF AND PUSH20 0xFFFFFFFFFFFFFFFFFFFFFFFFFFFFFFFFFFFFFFFF AND DUP2 MSTORE PUSH1 0x20 ADD SWAP1 DUP2 MSTORE PUSH1 0x20 ADD PUSH0 KECCAK256 PUSH1 0x2 ADD DUP2 SWAP1 SSTORE POP DUP4 PUSH1 0x6 ADD PUSH0 SWAP1 SLOAD SWAP1 PUSH2 0x100 EXP SWAP1 DIV PUSH8 0xFFFFFFFFFFFFFFFF AND TIMESTAMP PUSH2 0x8F8 SWAP2 SWAP1 PUSH2 0x370E JUMP JUMPDEST DUP5 PUSH1 0x6 ADD PUSH1 0x8 PUSH2 0x100 EXP DUP2 SLOAD DUP2 PUSH8 0xFFFFFFFFFFFFFFFF MUL NOT AND SWAP1 DUP4 PUSH8 0xFFFFFFFFFFFFFFFF AND MUL OR SWAP1 SSTORE POP PUSH1 0x1 SLOAD PUSH32 0x5AB4254A16D8F1486E035342F3B6736A5EFDC0B79886E7525B374BB0EC9EBEE1 DUP6 PUSH1 0x2 ADD PUSH0 SWAP1 SLOAD SWAP1 PUSH2 0x100 EXP SWAP1 DIV PUSH20 0xFFFFFFFFFFFFFFFFFFFFFFFFFFFFFFFFFFFFFFFF AND DUP7 PUSH1 0x7 ADD SLOAD DUP8 PUSH1 0x8 ADD SLOAD DUP9 PUSH1 0x9 ADD SLOAD PUSH1 0x40 MLOAD PUSH2 0x989 SWAP5 SWAP4 SWAP3 SWAP2 SWAP1 PUSH2 0x3749 JUMP JUMPDEST PUSH1 0x40 MLOAD DUP1 SWAP2 SUB SWAP1 LOG2 POP POP POP POP JUMPDEST JUMP JUMPDEST PUSH32 0x0 DUP2 JUMP JUMPDEST PUSH0 PUSH2 0x9C5 PUSH2 0x2BDA JUMP JUMPDEST SWAP1 POP PUSH0 TIMESTAMP SWAP1 POP DUP2 PUSH1 0x5 ADD PUSH1 0x8 SWAP1 SLOAD SWAP1 PUSH2 0x100 EXP SWAP1 DIV PUSH8 0xFFFFFFFFFFFFFFFF AND PUSH8 0xFFFFFFFFFFFFFFFF AND DUP2 LT DUP1 PUSH2 0xA1D JUMPI POP DUP2 PUSH1 0x5 ADD PUSH1 0x10 SWAP1 SLOAD SWAP1 PUSH2 0x100 EXP SWAP1 DIV PUSH8 0xFFFFFFFFFFFFFFFF AND PUSH8 0xFFFFFFFFFFFFFFFF AND DUP2 LT ISZERO JUMPDEST ISZERO PUSH2 0xA54 JUMPI PUSH1 0x40 MLOAD PUSH32 0x74683D7100000000000000000000000000000000000000000000000000000000 DUP2 MSTORE PUSH1 0x4 ADD PUSH1 0x40 MLOAD DUP1 SWAP2 SUB SWAP1 REVERT JUMPDEST PUSH0 DUP3 PUSH1 0xA ADD PUSH0 CALLER PUSH20 0xFFFFFFFFFFFFFFFFFFFFFFFFFFFFFFFFFFFFFFFF AND PUSH20 0xFFFFFFFFFFFFFFFFFFFFFFFFFFFFFFFFFFFFFFFF AND DUP2 MSTORE PUSH1 0x20 ADD SWAP1 DUP2 MSTORE PUSH1 0x20 ADD PUSH0 KECCAK256 PUSH1 0x3 ADD SLOAD EQ PUSH2 0xACF JUMPI PUSH1 0x40 MLOAD PUSH32 0x157330EE00000000000000000000000000000000000000000000000000000000 DUP2 MSTORE PUSH1 0x4 ADD PUSH1 0x40 MLOAD DUP1 SWAP2 SUB SWAP1 REVERT JUMPDEST PUSH0 DUP3 PUSH1 0xA ADD PUSH0 CALLER PUSH20 0xFFFFFFFFFFFFFFFFFFFFFFFFFFFFFFFFFFFFFFFF AND PUSH20 0xFFFFFFFFFFFFFFFFFFFFFFFFFFFFFFFFFFFFFFFF AND DUP2 MSTORE PUSH1 0x20 ADD SWAP1 DUP2 MSTORE PUSH1 0x20 ADD PUSH0 KECCAK256 PUSH0 ADD SLOAD SWAP1 POP PUSH0 PUSH0 SHL DUP2 SUB PUSH2 0xB4F JUMPI PUSH1 0x40 MLOAD PUSH32 0xC06789FA00000000000000000000000000000000000000000000000000000000 DUP2 MSTORE PUSH1 0x4 ADD PUSH1 0x40 MLOAD DUP1 SWAP2 SUB SWAP1 REVERT JUMPDEST DUP1 DUP6 DUP6 PUSH1 0x40 MLOAD PUSH1 0x20 ADD PUSH2 0xB63 SWAP3 SWAP2 SWAP1 PUSH2 0x37CC JUMP JUMPDEST PUSH1 0x40 MLOAD PUSH1 0x20 DUP2 DUP4 SUB SUB DUP2 MSTORE SWAP1 PUSH1 0x40 MSTORE DUP1 MLOAD SWAP1 PUSH1 0x20 ADD KECCAK256 EQ PUSH2 0xBB0 JUMPI PUSH1 0x40 MLOAD PUSH32 0xC06789FA00000000000000000000000000000000000000000000000000000000 DUP2 MSTORE PUSH1 0x4 ADD PUSH1 0x40 MLOAD DUP1 SWAP2 SUB SWAP1 REVERT JUMPDEST DUP5 DUP4 PUSH1 0xA ADD PUSH0 CALLER PUSH20 0xFFFFFFFFFFFFFFFFFFFFFFFFFFFFFFFFFFFFFFFF AND PUSH20 0xFFFFFFFFFFFFFFFFFFFFFFFFFFFFFFFFFFFFFFFF AND DUP2 MSTORE PUSH1 0x20 ADD SWAP1 DUP2 MSTORE PUSH1 0x20 ADD PUSH0 KECCAK256 PUSH1 0x3 ADD DUP2 SWAP1 SSTORE POP DUP3 PUSH1 0x3 ADD SLOAD DUP6 LT ISZERO PUSH2 0xC35 JUMPI PUSH1 0x40 MLOAD PUSH32 0x6B317D5600000000000000000000000000000000000000000000000000000000 DUP2 MSTORE PUSH1 0x4 ADD PUSH1 0x40 MLOAD DUP1 SWAP2 SUB SWAP1 REVERT JUMPDEST DUP3 PUSH1 0x7 ADD SLOAD DUP6 GT ISZERO PUSH2 0xCF5 JUMPI PUSH0 PUSH20 0xFFFFFFFFFFFFFFFFFFFFFFFFFFFFFFFFFFFFFFFF AND DUP4 PUSH1 0x2 ADD PUSH0 SWAP1 SLOAD SWAP1 PUSH2 0x100 EXP SWAP1 DIV PUSH20 0xFFFFFFFFFFFFFFFFFFFFFFFFFFFFFFFFFFFFFFFF AND PUSH20 0xFFFFFFFFFFFFFFFFFFFFFFFFFFFFFFFFFFFFFFFF AND EQ PUSH2 0xCA5 JUMPI DUP3 PUSH1 0x7 ADD SLOAD DUP4 PUSH1 0x8 ADD DUP2 SWAP1 SSTORE POP JUMPDEST DUP5 DUP4 PUSH1 0x7 ADD DUP2 SWAP1 SSTORE POP CALLER DUP4 PUSH1 0x2 ADD PUSH0 PUSH2 0x100 EXP DUP2 SLOAD DUP2 PUSH20 0xFFFFFFFFFFFFFFFFFFFFFFFFFFFFFFFFFFFFFFFF MUL NOT AND SWAP1 DUP4 PUSH20 0xFFFFFFFFFFFFFFFFFFFFFFFFFFFFFFFFFFFFFFFF AND MUL OR SWAP1 SSTORE POP PUSH2 0xE55 JUMP JUMPDEST DUP3 PUSH1 0x7 ADD SLOAD DUP6 EQ DUP1 ISZERO PUSH2 0xDE8 JUMPI POP DUP3 PUSH1 0xA ADD PUSH0 DUP5 PUSH1 0x2 ADD PUSH0 SWAP1 SLOAD SWAP1 PUSH2 0x100 EXP SWAP1 DIV PUSH20 0xFFFFFFFFFFFFFFFFFFFFFFFFFFFFFFFFFFFFFFFF AND PUSH20 0xFFFFFFFFFFFFFFFFFFFFFFFFFFFFFFFFFFFFFFFF AND PUSH20 0xFFFFFFFFFFFFFFFFFFFFFFFFFFFFFFFFFFFFFFFF AND DUP2 MSTORE PUSH1 0x20 ADD SWAP1 DUP2 MSTORE PUSH1 0x20 ADD PUSH0 KECCAK256 PUSH1 0x1 ADD PUSH0 SWAP1 SLOAD SWAP1 PUSH2 0x100 EXP SWAP1 DIV PUSH8 0xFFFFFFFFFFFFFFFF AND PUSH8 0xFFFFFFFFFFFFFFFF AND DUP4 PUSH1 0xA ADD PUSH0 CALLER PUSH20 0xFFFFFFFFFFFFFFFFFFFFFFFFFFFFFFFFFFFFFFFF AND PUSH20 0xFFFFFFFFFFFFFFFFFFFFFFFFFFFFFFFFFFFFFFFF AND DUP2 MSTORE PUSH1 0x20 ADD SWAP1 DUP2 MSTORE PUSH1 0x20 ADD PUSH0 KECCAK256 PUSH1 0x1 ADD PUSH0 SWAP1 SLOAD SWAP1 PUSH2 0x100 EXP SWAP1 DIV PUSH8 0xFFFFFFFFFFFFFFFF AND PUSH8 0xFFFFFFFFFFFFFFFF AND LT JUMPDEST ISZERO PUSH2 0xE3D JUMPI DUP5 DUP4 PUSH1 0x7 ADD DUP2 SWAP1 SSTORE POP CALLER DUP4 PUSH1 0x2 ADD PUSH0 PUSH2 0x100 EXP DUP2 SLOAD DUP2 PUSH20 0xFFFFFFFFFFFFFFFFFFFFFFFFFFFFFFFFFFFFFFFF MUL NOT AND SWAP1 DUP4 PUSH20 0xFFFFFFFFFFFFFFFFFFFFFFFFFFFFFFFFFFFFFFFF AND MUL OR SWAP1 SSTORE POP PUSH2 0xE54 JUMP JUMPDEST DUP3 PUSH1 0x8 ADD SLOAD DUP6 GT ISZERO PUSH2 0xE53 JUMPI DUP5 DUP4 PUSH1 0x8 ADD DUP2 SWAP1 SSTORE POP JUMPDEST JUMPDEST JUMPDEST CALLER PUSH20 0xFFFFFFFFFFFFFFFFFFFFFFFFFFFFFFFFFFFFFFFF AND PUSH1 0x1 SLOAD PUSH32 0x86D2FBC9069D34216EBC65B38CE840528D3F8CAC0C86D2AAA7AB6A9DB8BC35D3 DUP8 PUSH1 0x40 MLOAD PUSH2 0xE9E SWAP2 SWAP1 PUSH2 0x30A2 JUMP JUMPDEST PUSH1 0x40 MLOAD DUP1 SWAP2 SUB SWAP1 LOG3 POP POP POP POP POP JUMP JUMPDEST PUSH0 PUSH0 PUSH0 PUSH0 PUSH2 0xEBA DUP6 PUSH2 0x2FE9 JUMP JUMPDEST SWAP1 POP DUP1 PUSH1 0x2 ADD PUSH0 SWAP1 SLOAD SWAP1 PUSH2 0x100 EXP SWAP1 DIV PUSH20 0xFFFFFFFFFFFFFFFFFFFFFFFFFFFFFFFFFFFFFFFF AND DUP2 PUSH1 0x9 ADD SLOAD DUP3 PUSH1 0x6 ADD PUSH1 0x8 SWAP1 SLOAD SWAP1 PUSH2 0x100 EXP SWAP1 DIV PUSH8 0xFFFFFFFFFFFFFFFF AND SWAP4 POP SWAP4 POP SWAP4 POP POP SWAP2 SWAP4 SWAP1 SWAP3 POP JUMP JUMPDEST PUSH1 0x2 PUSH0 SLOAD SUB PUSH2 0xF50 JUMPI PUSH1 0x40 MLOAD PUSH32 0x8C379A000000000000000000000000000000000000000000000000000000000 DUP2 MSTORE PUSH1 0x4 ADD PUSH2 0xF47 SWAP1 PUSH2 0x3841 JUMP JUMPDEST PUSH1 0x40 MLOAD DUP1 SWAP2 SUB SWAP1 REVERT JUMPDEST PUSH1 0x2 PUSH0 DUP2 SWAP1 SSTORE POP PUSH0 PUSH2 0xF61 DUP3 PUSH2 0x2FE9 JUMP JUMPDEST SWAP1 POP DUP1 PUSH1 0x2 ADD PUSH1 0x14 SWAP1 SLOAD SWAP1 PUSH2 0x100 EXP SWAP1 DIV PUSH1 0xFF AND PUSH2 0xFAB JUMPI PUSH1 0x40 MLOAD PUSH32 0xD3018D1800000000000000000000000000000000000000000000000000000000 DUP2 MSTORE PUSH1 0x4 ADD PUSH1 0x40 MLOAD DUP1 SWAP2 SUB SWAP1 REVERT JUMPDEST PUSH0 DUP2 PUSH1 0xA ADD PUSH0 CALLER PUSH20 0xFFFFFFFFFFFFFFFFFFFFFFFFFFFFFFFFFFFFFFFF AND PUSH20 0xFFFFFFFFFFFFFFFFFFFFFFFFFFFFFFFFFFFFFFFF AND DUP2 MSTORE PUSH1 0x20 ADD SWAP1 DUP2 MSTORE PUSH1 0x20 ADD PUSH0 KECCAK256 PUSH1 0x2 ADD SLOAD SWAP1 POP PUSH0 DUP2 SUB PUSH2 0x102A JUMPI PUSH1 0x40 MLOAD PUSH32 0x3A6A68B100000000000000000000000000000000000000000000000000000000 DUP2 MSTORE PUSH1 0x4 ADD PUSH1 0x40 MLOAD DUP1 SWAP2 SUB SWAP1 REVERT JUMPDEST PUSH0 DUP3 PUSH1 0xA ADD PUSH0 CALLER PUSH20 0xFFFFFFFFFFFFFFFFFFFFFFFFFFFFFFFFFFFFFFFF AND PUSH20 0xFFFFFFFFFFFFFFFFFFFFFFFFFFFFFFFFFFFFFFFF AND DUP2 MSTORE PUSH1 0x20 ADD SWAP1 DUP2 MSTORE PUSH1 0x20 ADD PUSH0 KECCAK256 PUSH1 0x2 ADD DUP2 SWAP1 SSTORE POP PUSH0 CALLER PUSH20 0xFFFFFFFFFFFFFFFFFFFFFFFFFFFFFFFFFFFFFFFF AND DUP3 PUSH1 0x40 MLOAD PUSH2 0x1096 SWAP1 PUSH2 0x388C JUMP JUMPDEST PUSH0 PUSH1 0x40 MLOAD DUP1 DUP4 SUB DUP2 DUP6 DUP8 GAS CALL SWAP3 POP POP POP RETURNDATASIZE DUP1 PUSH0 DUP2 EQ PUSH2 0x10D0 JUMPI PUSH1 0x40 MLOAD SWAP2 POP PUSH1 0x1F NOT PUSH1 0x3F RETURNDATASIZE ADD AND DUP3 ADD PUSH1 0x40 MSTORE RETURNDATASIZE DUP3 MSTORE RETURNDATASIZE PUSH0 PUSH1 0x20 DUP5 ADD RETURNDATACOPY PUSH2 0x10D5 JUMP JUMPDEST PUSH1 0x60 SWAP2 POP JUMPDEST POP POP SWAP1 POP DUP1 PUSH2 0x1110 JUMPI PUSH1 0x40 MLOAD PUSH32 0x750B219C00000000000000000000000000000000000000000000000000000000 DUP2 MSTORE PUSH1 0x4 ADD PUSH1 0x40 MLOAD DUP1 SWAP2 SUB SWAP1 REVERT JUMPDEST CALLER PUSH20 0xFFFFFFFFFFFFFFFFFFFFFFFFFFFFFFFFFFFFFFFF AND DUP5 PUSH32 0x47F74A265269AA6E5423FBCD9A74B3C8771A0C3A9C7CDFB7EBE375B288C06B4E PUSH1 0x40 MLOAD PUSH1 0x40 MLOAD DUP1 SWAP2 SUB SWAP1 LOG3 POP POP POP PUSH1 0x1 PUSH0 DUP2 SWAP1 SSTORE POP POP JUMP JUMPDEST PUSH1 0x2 PUSH0 SLOAD SUB PUSH2 0x11A5 JUMPI PUSH1 0x40 MLOAD PUSH32 0x8C379A000000000000000000000000000000000000000000000000000000000 DUP2 MSTORE PUSH1 0x4 ADD PUSH2 0x119C SWAP1 PUSH2 0x3841 JUMP JUMPDEST PUSH1 0x40 MLOAD DUP1 SWAP2 SUB SWAP1 REVERT JUMPDEST PUSH1 0x2 PUSH0 DUP2 SWAP1 SSTORE POP PUSH0 PUSH2 0x11B5 PUSH2 0x2BDA JUMP JUMPDEST SWAP1 POP DUP1 PUSH1 0x2 ADD PUSH1 0x14 SWAP1 SLOAD SWAP1 PUSH2 0x100 EXP SWAP1 DIV PUSH1 0xFF AND PUSH2 0x11FF JUMPI PUSH1 0x40 MLOAD PUSH32 0xD3018D1800000000000000000000000000000000000000000000000000000000 DUP2 MSTORE PUSH1 0x4 ADD PUSH1 0x40 MLOAD DUP1 SWAP2 SUB SWAP1 REVERT JUMPDEST PUSH0 DUP2 PUSH1 0xA ADD PUSH0 CALLER PUSH20 0xFFFFFFFFFFFFFFFFFFFFFFFFFFFFFFFFFFFFFFFF AND PUSH20 0xFFFFFFFFFFFFFFFFFFFFFFFFFFFFFFFFFFFFFFFF AND DUP2 MSTORE PUSH1 0x20 ADD SWAP1 DUP2 MSTORE PUSH1 0x20 ADD PUSH0 KECCAK256 PUSH1 0x2 ADD SLOAD SWAP1 POP PUSH0 DUP2 SUB PUSH2 0x127E JUMPI PUSH1 0x40 MLOAD PUSH32 0x3A6A68B100000000000000000000000000000000000000000000000000000000 DUP2 MSTORE PUSH1 0x4 ADD PUSH1 0x40 MLOAD DUP1 SWAP2 SUB SWAP1 REVERT JUMPDEST PUSH0 DUP3 PUSH1 0xA ADD PUSH0 CALLER PUSH20 0xFFFFFFFFFFFFFFFFFFFFFFFFFFFFFFFFFFFFFFFF AND PUSH20 0xFFFFFFFFFFFFFFFFFFFFFFFFFFFFFFFFFFFFFFFF AND DUP2 MSTORE PUSH1 0x20 ADD SWAP1 DUP2 MSTORE PUSH1 0x20 ADD PUSH0 KECCAK256 PUSH1 0x2 ADD DUP2 SWAP1 SSTORE POP PUSH0 CALLER PUSH20 0xFFFFFFFFFFFFFFFFFFFFFFFFFFFFFFFFFFFFFFFF AND DUP3 PUSH1 0x40 MLOAD PUSH2 0x12EA SWAP1 PUSH2 0x388C JUMP JUMPDEST PUSH0 PUSH1 0x40 MLOAD DUP1 DUP4 SUB DUP2 DUP6 DUP8 GAS CALL SWAP3 POP POP POP RETURNDATASIZE DUP1 PUSH0 DUP2 EQ PUSH2 0x1324 JUMPI PUSH1 0x40 MLOAD SWAP2 POP PUSH1 0x1F NOT PUSH1 0x3F RETURNDATASIZE ADD AND DUP3 ADD PUSH1 0x40 MSTORE RETURNDATASIZE DUP3 MSTORE RETURNDATASIZE PUSH0 PUSH1 0x20 DUP5 ADD RETURNDATACOPY PUSH2 0x1329 JUMP JUMPDEST PUSH1 0x60 SWAP2 POP JUMPDEST POP POP SWAP1 POP DUP1 PUSH2 0x1364 JUMPI PUSH1 0x40 MLOAD PUSH32 0x750B219C00000000000000000000000000000000000000000000000000000000 DUP2 MSTORE PUSH1 0x4 ADD PUSH1 0x40 MLOAD DUP1 SWAP2 SUB SWAP1 REVERT JUMPDEST CALLER PUSH20 0xFFFFFFFFFFFFFFFFFFFFFFFFFFFFFFFFFFFFFFFF AND PUSH1 0x1 SLOAD PUSH32 0x47F74A265269AA6E5423FBCD9A74B3C8771A0C3A9C7CDFB7EBE375B288C06B4E PUSH1 0x40 MLOAD PUSH1 0x40 MLOAD DUP1 SWAP2 SUB SWAP1 LOG3 POP POP POP PUSH1 0x1 PUSH0 DUP2 SWAP1 SSTORE POP JUMP JUMPDEST PUSH0 PUSH0 PUSH2 0x13C1 DUP5 PUSH2 0x2FE9 JUMP JUMPDEST SWAP1 POP DUP1 PUSH1 0xA ADD PUSH0 DUP5 PUSH20 0xFFFFFFFFFFFFFFFFFFFFFFFFFFFFFFFFFFFFFFFF AND PUSH20 0xFFFFFFFFFFFFFFFFFFFFFFFFFFFFFFFFFFFFFFFF AND DUP2 MSTORE PUSH1 0x20 ADD SWAP1 DUP2 MSTORE PUSH1 0x20 ADD PUSH0 KECCAK256 PUSH1 0x3 ADD SLOAD SWAP2 POP POP SWAP3 SWAP2 POP POP JUMP JUMPDEST PUSH0 PUSH2 0x1418 PUSH2 0x2BDA JUMP JUMPDEST SWAP1 POP DUP1 PUSH1 0x5 ADD PUSH1 0x8 SWAP1 SLOAD SWAP1 PUSH2 0x100 EXP SWAP1 DIV PUSH8 0xFFFFFFFFFFFFFFFF AND PUSH8 0xFFFFFFFFFFFFFFFF AND TIMESTAMP LT ISZERO DUP1 PUSH2 0x146B JUMPI POP DUP1 PUSH1 0x5 ADD PUSH0 SWAP1 SLOAD SWAP1 PUSH2 0x100 EXP SWAP1 DIV PUSH8 0xFFFFFFFFFFFFFFFF AND PUSH8 0xFFFFFFFFFFFFFFFF AND TIMESTAMP LT JUMPDEST ISZERO PUSH2 0x14A2 JUMPI PUSH1 0x40 MLOAD PUSH32 0xABFB7DC300000000000000000000000000000000000000000000000000000000 DUP2 MSTORE PUSH1 0x4 ADD PUSH1 0x40 MLOAD DUP1 SWAP2 SUB SWAP1 REVERT JUMPDEST PUSH0 PUSH0 SHL DUP3 SUB PUSH2 0x14DD JUMPI PUSH1 0x40 MLOAD PUSH32 0xC06789FA00000000000000000000000000000000000000000000000000000000 DUP2 MSTORE PUSH1 0x4 ADD PUSH1 0x40 MLOAD DUP1 SWAP2 SUB SWAP1 REVERT JUMPDEST DUP1 PUSH1 0x1 ADD PUSH0 SWAP1 SLOAD SWAP1 PUSH2 0x100 EXP SWAP1 DIV PUSH20 0xFFFFFFFFFFFFFFFFFFFFFFFFFFFFFFFFFFFFFFFF AND PUSH20 0xFFFFFFFFFFFFFFFFFFFFFFFFFFFFFFFFFFFFFFFF AND CALLER PUSH20 0xFFFFFFFFFFFFFFFFFFFFFFFFFFFFFFFFFFFFFFFF AND SUB PUSH2 0x1565 JUMPI PUSH1 0x40 MLOAD PUSH32 0xEF02588900000000000000000000000000000000000000000000000000000000 DUP2 MSTORE PUSH1 0x4 ADD PUSH1 0x40 MLOAD DUP1 SWAP2 SUB SWAP1 REVERT JUMPDEST DUP1 PUSH1 0x4 ADD SLOAD CALLVALUE EQ PUSH2 0x15A2 JUMPI PUSH1 0x40 MLOAD PUSH32 0x603E3D3600000000000000000000000000000000000000000000000000000000 DUP2 MSTORE PUSH1 0x4 ADD PUSH1 0x40 MLOAD DUP1 SWAP2 SUB SWAP1 REVERT JUMPDEST DUP1 PUSH1 0x4 ADD SLOAD DUP2 PUSH1 0xA ADD PUSH0 CALLER PUSH20 0xFFFFFFFFFFFFFFFFFFFFFFFFFFFFFFFFFFFFFFFF AND PUSH20 0xFFFFFFFFFFFFFFFFFFFFFFFFFFFFFFFFFFFFFFFF AND DUP2 MSTORE PUSH1 0x20 ADD SWAP1 DUP2 MSTORE PUSH1 0x20 ADD PUSH0 KECCAK256 PUSH1 0x2 ADD PUSH0 DUP3 DUP3 SLOAD PUSH2 0x15F7 SWAP2 SWAP1 PUSH2 0x36DB JUMP JUMPDEST SWAP3 POP POP DUP2 SWAP1 SSTORE POP PUSH1 0x1 DUP2 PUSH1 0x5 ADD PUSH1 0x18 DUP3 DUP3 DUP3 SWAP1 SLOAD SWAP1 PUSH2 0x100 EXP SWAP1 DIV PUSH8 0xFFFFFFFFFFFFFFFF AND PUSH2 0x1626 SWAP2 SWAP1 PUSH2 0x370E JUMP JUMPDEST SWAP3 POP PUSH2 0x100 EXP DUP2 SLOAD DUP2 PUSH8 0xFFFFFFFFFFFFFFFF MUL NOT AND SWAP1 DUP4 PUSH8 0xFFFFFFFFFFFFFFFF AND MUL OR SWAP1 SSTORE POP DUP1 PUSH1 0x5 ADD PUSH1 0x18 SWAP1 SLOAD SWAP1 PUSH2 0x100 EXP SWAP1 DIV PUSH8 0xFFFFFFFFFFFFFFFF AND DUP2 PUSH1 0xA ADD PUSH0 CALLER PUSH20 0xFFFFFFFFFFFFFFFFFFFFFFFFFFFFFFFFFFFFFFFF AND PUSH20 0xFFFFFFFFFFFFFFFFFFFFFFFFFFFFFFFFFFFFFFFF AND DUP2 MSTORE PUSH1 0x20 ADD SWAP1 DUP2 MSTORE PUSH1 0x20 ADD PUSH0 KECCAK256 PUSH1 0x1 ADD PUSH0 PUSH2 0x100 EXP DUP2 SLOAD DUP2 PUSH8 0xFFFFFFFFFFFFFFFF MUL NOT AND SWAP1 DUP4 PUSH8 0xFFFFFFFFFFFFFFFF AND MUL OR SWAP1 SSTORE POP DUP2 DUP2 PUSH1 0xA ADD PUSH0 CALLER PUSH20 0xFFFFFFFFFFFFFFFFFFFFFFFFFFFFFFFFFFFFFFFF AND PUSH20 0xFFFFFFFFFFFFFFFFFFFFFFFFFFFFFFFFFFFFFFFF AND DUP2 MSTORE PUSH1 0x20 ADD SWAP1 DUP2 MSTORE PUSH1 0x20 ADD PUSH0 KECCAK256 PUSH0 ADD DUP2 SWAP1 SSTORE POP CALLER PUSH20 0xFFFFFFFFFFFFFFFFFFFFFFFFFFFFFFFFFFFFFFFF AND PUSH1 0x1 SLOAD PUSH32 0x934EA4DE468DCD0D9A335C5F97AA77955310C29631C93FBD01D95A00242EC41 PUSH1 0x40 MLOAD PUSH1 0x40 MLOAD DUP1 SWAP2 SUB SWAP1 LOG3 POP POP JUMP JUMPDEST PUSH0 PUSH1 0x1 SLOAD EQ PUSH2 0x17CE JUMPI PUSH0 PUSH1 0x2 PUSH0 PUSH1 0x1 SLOAD DUP2 MSTORE PUSH1 0x20 ADD SWAP1 DUP2 MSTORE PUSH1 0x20 ADD PUSH0 KECCAK256 SWAP1 POP DUP1 PUSH1 0x2 ADD PUSH1 0x15 SWAP1 SLOAD SWAP1 PUSH2 0x100 EXP SWAP1 DIV PUSH1 0xFF AND PUSH2 0x17CC JUMPI PUSH1 0x40 MLOAD PUSH32 0x8C379A000000000000000000000000000000000000000000000000000000000 DUP2 MSTORE PUSH1 0x4 ADD PUSH2 0x17C3 SWAP1 PUSH2 0x38EA JUMP JUMPDEST PUSH1 0x40 MLOAD DUP1 SWAP2 SUB SWAP1 REVERT JUMPDEST POP JUMPDEST PUSH0 DUP4 PUSH8 0xFFFFFFFFFFFFFFFF AND GT DUP1 ISZERO PUSH2 0x17F3 JUMPI POP PUSH3 0x278D00 DUP4 PUSH8 0xFFFFFFFFFFFFFFFF AND LT JUMPDEST PUSH2 0x1832 JUMPI PUSH1 0x40 MLOAD PUSH32 0x8C379A000000000000000000000000000000000000000000000000000000000 DUP2 MSTORE PUSH1 0x4 ADD PUSH2 0x1829 SWAP1 PUSH2 0x3952 JUMP JUMPDEST PUSH1 0x40 MLOAD DUP1 SWAP2 SUB SWAP1 REVERT JUMPDEST PUSH0 DUP3 PUSH8 0xFFFFFFFFFFFFFFFF AND GT DUP1 ISZERO PUSH2 0x1857 JUMPI POP PUSH3 0x278D00 DUP3 PUSH8 0xFFFFFFFFFFFFFFFF AND LT JUMPDEST PUSH2 0x1896 JUMPI PUSH1 0x40 MLOAD PUSH32 0x8C379A000000000000000000000000000000000000000000000000000000000 DUP2 MSTORE PUSH1 0x4 ADD PUSH2 0x188D SWAP1 PUSH2 0x39BA JUMP JUMPDEST PUSH1 0x40 MLOAD DUP1 SWAP2 SUB SWAP1 REVERT JUMPDEST PUSH0 DUP2 PUSH8 0xFFFFFFFFFFFFFFFF AND GT DUP1 ISZERO PUSH2 0x18BB JUMPI POP PUSH3 0x278D00 DUP2 PUSH8 0xFFFFFFFFFFFFFFFF AND LT JUMPDEST PUSH2 0x18FA JUMPI PUSH1 0x40 MLOAD PUSH32 0x8C379A000000000000000000000000000000000000000000000000000000000 DUP2 MSTORE PUSH1 0x4 ADD PUSH2 0x18F1 SWAP1 PUSH2 0x3A22 JUMP JUMPDEST PUSH1 0x40 MLOAD DUP1 SWAP2 SUB SWAP1 REVERT JUMPDEST PUSH0 DUP5 GT DUP1 ISZERO PUSH2 0x1914 JUMPI POP PUSH12 0x33B2E3C9FD0803CE8000000 DUP5 LT JUMPDEST PUSH2 0x1953 JUMPI PUSH1 0x40 MLOAD PUSH32 0x8C379A000000000000000000000000000000000000000000000000000000000 DUP2 MSTORE PUSH1 0x4 ADD PUSH2 0x194A SWAP1 PUSH2 0x3A8A JUMP JUMPDEST PUSH1 0x40 MLOAD DUP1 SWAP2 SUB SWAP1 REVERT JUMPDEST CALLER PUSH20 0xFFFFFFFFFFFFFFFFFFFFFFFFFFFFFFFFFFFFFFFF AND PUSH32 0x0 PUSH20 0xFFFFFFFFFFFFFFFFFFFFFFFFFFFFFFFFFFFFFFFF AND PUSH4 0x6352211E DUP8 PUSH1 0x40 MLOAD DUP3 PUSH4 0xFFFFFFFF AND PUSH1 0xE0 SHL DUP2 MSTORE PUSH1 0x4 ADD PUSH2 0x19C3 SWAP2 SWAP1 PUSH2 0x30A2 JUMP JUMPDEST PUSH1 0x20 PUSH1 0x40 MLOAD DUP1 DUP4 SUB DUP2 DUP7 GAS STATICCALL ISZERO DUP1 ISZERO PUSH2 0x19DE JUMPI RETURNDATASIZE PUSH0 PUSH0 RETURNDATACOPY RETURNDATASIZE PUSH0 REVERT JUMPDEST POP POP POP POP PUSH1 0x40 MLOAD RETURNDATASIZE PUSH1 0x1F NOT PUSH1 0x1F DUP3 ADD AND DUP3 ADD DUP1 PUSH1 0x40 MSTORE POP DUP2 ADD SWAP1 PUSH2 0x1A02 SWAP2 SWAP1 PUSH2 0x3ABC JUMP JUMPDEST PUSH20 0xFFFFFFFFFFFFFFFFFFFFFFFFFFFFFFFFFFFFFFFF AND EQ PUSH2 0x1A58 JUMPI PUSH1 0x40 MLOAD PUSH32 0x8C379A000000000000000000000000000000000000000000000000000000000 DUP2 MSTORE PUSH1 0x4 ADD PUSH2 0x1A4F SWAP1 PUSH2 0x3B31 JUMP JUMPDEST PUSH1 0x40 MLOAD DUP1 SWAP2 SUB SWAP1 REVERT JUMPDEST PUSH2 0x1A63 CALLER ADDRESS DUP8 PUSH2 0x2C7B JUMP JUMPDEST PUSH1 0x1 DUP1 PUSH0 DUP3 DUP3 SLOAD PUSH2 0x1A74 SWAP2 SWAP1 PUSH2 0x36DB JUMP JUMPDEST SWAP3 POP POP DUP2 SWAP1 SSTORE POP PUSH0 PUSH1 0x2 PUSH0 PUSH1 0x1 SLOAD DUP2 MSTORE PUSH1 0x20 ADD SWAP1 DUP2 MSTORE PUSH1 0x20 ADD PUSH0 KECCAK256 SWAP1 POP DUP6 DUP2 PUSH0 ADD DUP2 SWAP1 SSTORE POP CALLER DUP2 PUSH1 0x1 ADD PUSH0 PUSH2 0x100 EXP DUP2 SLOAD DUP2 PUSH20 0xFFFFFFFFFFFFFFFFFFFFFFFFFFFFFFFFFFFFFFFF MUL NOT AND SWAP1 DUP4 PUSH20 0xFFFFFFFFFFFFFFFFFFFFFFFFFFFFFFFFFFFFFFFF AND MUL OR SWAP1 SSTORE POP DUP5 DUP2 PUSH1 0x3 ADD DUP2 SWAP1 SSTORE POP PUSH12 0x33B2E3C9FD0803CE8000000 PUSH1 0x2 DUP7 PUSH2 0x1AFE SWAP2 SWAP1 PUSH2 0x3B7C JUMP JUMPDEST LT PUSH2 0x1B15 JUMPI PUSH12 0x33B2E3C9FD0803CE8000000 PUSH2 0x1B23 JUMP JUMPDEST PUSH1 0x2 DUP6 PUSH2 0x1B22 SWAP2 SWAP1 PUSH2 0x3B7C JUMP JUMPDEST JUMPDEST DUP2 PUSH1 0x4 ADD DUP2 SWAP1 SSTORE POP PUSH0 TIMESTAMP SWAP1 POP DUP1 DUP3 PUSH1 0x5 ADD PUSH0 PUSH2 0x100 EXP DUP2 SLOAD DUP2 PUSH8 0xFFFFFFFFFFFFFFFF MUL NOT AND SWAP1 DUP4 PUSH8 0xFFFFFFFFFFFFFFFF AND MUL OR SWAP1 SSTORE POP DUP5 DUP2 PUSH2 0x1B65 SWAP2 SWAP1 PUSH2 0x370E JUMP JUMPDEST DUP3 PUSH1 0x5 ADD PUSH1 0x8 PUSH2 0x100 EXP DUP2 SLOAD DUP2 PUSH8 0xFFFFFFFFFFFFFFFF MUL NOT AND SWAP1 DUP4 PUSH8 0xFFFFFFFFFFFFFFFF AND MUL OR SWAP1 SSTORE POP DUP4 DUP3 PUSH1 0x5 ADD PUSH1 0x8 SWAP1 SLOAD SWAP1 PUSH2 0x100 EXP SWAP1 DIV PUSH8 0xFFFFFFFFFFFFFFFF AND PUSH2 0x1BB3 SWAP2 SWAP1 PUSH2 0x370E JUMP JUMPDEST DUP3 PUSH1 0x5 ADD PUSH1 0x10 PUSH2 0x100 EXP DUP2 SLOAD DUP2 PUSH8 0xFFFFFFFFFFFFFFFF MUL NOT AND SWAP1 DUP4 PUSH8 0xFFFFFFFFFFFFFFFF AND MUL OR SWAP1 SSTORE POP DUP3 DUP3 PUSH1 0x6 ADD PUSH0 PUSH2 0x100 EXP DUP2 SLOAD DUP2 PUSH8 0xFFFFFFFFFFFFFFFF MUL NOT AND SWAP1 DUP4 PUSH8 0xFFFFFFFFFFFFFFFF AND MUL OR SWAP1 SSTORE POP CALLER PUSH20 0xFFFFFFFFFFFFFFFFFFFFFFFFFFFFFFFFFFFFFFFF AND PUSH1 0x1 SLOAD PUSH32 0x86B19D6A6B02147FC1E9F2538AE5B1FF124EE6827666573F5F59710A6BD5EBB PUSH32 0x0 DUP11 DUP11 DUP8 PUSH1 0x4 ADD SLOAD DUP9 PUSH1 0x5 ADD PUSH0 SWAP1 SLOAD SWAP1 PUSH2 0x100 EXP SWAP1 DIV PUSH8 0xFFFFFFFFFFFFFFFF AND DUP10 PUSH1 0x5 ADD PUSH1 0x8 SWAP1 SLOAD SWAP1 PUSH2 0x100 EXP SWAP1 DIV PUSH8 0xFFFFFFFFFFFFFFFF AND DUP11 PUSH1 0x5 ADD PUSH1 0x10 SWAP1 SLOAD SWAP1 PUSH2 0x100 EXP SWAP1 DIV PUSH8 0xFFFFFFFFFFFFFFFF AND DUP12 PUSH1 0x6 ADD PUSH0 SWAP1 SLOAD SWAP1 PUSH2 0x100 EXP SWAP1 DIV PUSH8 0xFFFFFFFFFFFFFFFF AND PUSH1 0x40 MLOAD PUSH2 0x1CE0 SWAP9 SWAP8 SWAP7 SWAP6 SWAP5 SWAP4 SWAP3 SWAP2 SWAP1 PUSH2 0x3BDC JUMP JUMPDEST PUSH1 0x40 MLOAD DUP1 SWAP2 SUB SWAP1 LOG3 POP POP POP POP POP POP POP JUMP JUMPDEST PUSH0 PUSH0 PUSH2 0x1CFC DUP5 PUSH2 0x2FE9 JUMP JUMPDEST SWAP1 POP DUP1 PUSH1 0xA ADD PUSH0 DUP5 PUSH20 0xFFFFFFFFFFFFFFFFFFFFFFFFFFFFFFFFFFFFFFFF AND PUSH20 0xFFFFFFFFFFFFFFFFFFFFFFFFFFFFFFFFFFFFFFFF AND DUP2 MSTORE PUSH1 0x20 ADD SWAP1 DUP2 MSTORE PUSH1 0x20 ADD PUSH0 KECCAK256 PUSH0 ADD SLOAD SWAP2 POP POP SWAP3 SWAP2 POP POP JUMP JUMPDEST PUSH1 0x2 PUSH0 SLOAD SUB PUSH2 0x1D8D JUMPI PUSH1 0x40 MLOAD PUSH32 0x8C379A000000000000000000000000000000000000000000000000000000000 DUP2 MSTORE PUSH1 0x4 ADD PUSH2 0x1D84 SWAP1 PUSH2 0x3841 JUMP JUMPDEST PUSH1 0x40 MLOAD DUP1 SWAP2 SUB SWAP1 REVERT JUMPDEST PUSH1 0x2 PUSH0 DUP2 SWAP1 SSTORE POP PUSH0 PUSH2 0x1D9E DUP3 PUSH2 0x2FE9 JUMP JUMPDEST SWAP1 POP DUP1 PUSH1 0x2 ADD PUSH1 0x14 SWAP1 SLOAD SWAP1 PUSH2 0x100 EXP SWAP1 DIV PUSH1 0xFF AND PUSH2 0x1DE8 JUMPI PUSH1 0x40 MLOAD PUSH32 0xD3018D1800000000000000000000000000000000000000000000000000000000 DUP2 MSTORE PUSH1 0x4 ADD PUSH1 0x40 MLOAD DUP1 SWAP2 SUB SWAP1 REVERT JUMPDEST CALLER PUSH20 0xFFFFFFFFFFFFFFFFFFFFFFFFFFFFFFFFFFFFFFFF AND DUP2 PUSH1 0x2 ADD PUSH0 SWAP1 SLOAD SWAP1 PUSH2 0x100 EXP SWAP1 DIV PUSH20 0xFFFFFFFFFFFFFFFFFFFFFFFFFFFFFFFFFFFFFFFF AND PUSH20 0xFFFFFFFFFFFFFFFFFFFFFFFFFFFFFFFFFFFFFFFF AND EQ PUSH2 0x1E70 JUMPI PUSH1 0x40 MLOAD PUSH32 0x618C724200000000000000000000000000000000000000000000000000000000 DUP2 MSTORE PUSH1 0x4 ADD PUSH1 0x40 MLOAD DUP1 SWAP2 SUB SWAP1 REVERT JUMPDEST DUP1 PUSH1 0x2 ADD PUSH1 0x15 SWAP1 SLOAD SWAP1 PUSH2 0x100 EXP SWAP1 DIV PUSH1 0xFF AND ISZERO PUSH2 0x1EB9 JUMPI PUSH1 0x40 MLOAD PUSH32 0x44A5DDCC00000000000000000000000000000000000000000000000000000000 DUP2 MSTORE PUSH1 0x4 ADD PUSH1 0x40 MLOAD DUP1 SWAP2 SUB SWAP1 REVERT JUMPDEST DUP1 PUSH1 0x6 ADD PUSH1 0x8 SWAP1 SLOAD SWAP1 PUSH2 0x100 EXP SWAP1 DIV PUSH8 0xFFFFFFFFFFFFFFFF AND PUSH8 0xFFFFFFFFFFFFFFFF AND TIMESTAMP GT DUP1 ISZERO PUSH2 0x1EEE JUMPI POP PUSH0 DUP2 PUSH1 0x9 ADD SLOAD EQ ISZERO JUMPDEST ISZERO PUSH2 0x1F25 JUMPI PUSH1 0x40 MLOAD PUSH32 0x58459E8800000000000000000000000000000000000000000000000000000000 DUP2 MSTORE PUSH1 0x4 ADD PUSH1 0x40 MLOAD DUP1 SWAP2 SUB SWAP1 REVERT JUMPDEST DUP1 PUSH1 0x9 ADD SLOAD CALLVALUE EQ PUSH2 0x1F62 JUMPI PUSH1 0x40 MLOAD PUSH32 0x788A686F00000000000000000000000000000000000000000000000000000000 DUP2 MSTORE PUSH1 0x4 ADD PUSH1 0x40 MLOAD DUP1 SWAP2 SUB SWAP1 REVERT JUMPDEST PUSH0 DUP2 PUSH1 0x9 ADD SLOAD EQ PUSH2 0x1FF2 JUMPI PUSH0 DUP2 PUSH1 0x9 ADD DUP2 SWAP1 SSTORE POP CALLVALUE DUP2 PUSH1 0xA ADD PUSH0 DUP4 PUSH1 0x1 ADD PUSH0 SWAP1 SLOAD SWAP1 PUSH2 0x100 EXP SWAP1 DIV PUSH20 0xFFFFFFFFFFFFFFFFFFFFFFFFFFFFFFFFFFFFFFFF AND PUSH20 0xFFFFFFFFFFFFFFFFFFFFFFFFFFFFFFFFFFFFFFFF AND PUSH20 0xFFFFFFFFFFFFFFFFFFFFFFFFFFFFFFFFFFFFFFFF AND DUP2 MSTORE PUSH1 0x20 ADD SWAP1 DUP2 MSTORE PUSH1 0x20 ADD PUSH0 KECCAK256 PUSH1 0x2 ADD PUSH0 DUP3 DUP3 SLOAD PUSH2 0x1FEA SWAP2 SWAP1 PUSH2 0x36DB JUMP JUMPDEST SWAP3 POP POP DUP2 SWAP1 SSTORE POP JUMPDEST PUSH1 0x1 DUP2 PUSH1 0x2 ADD PUSH1 0x15 PUSH2 0x100 EXP DUP2 SLOAD DUP2 PUSH1 0xFF MUL NOT AND SWAP1 DUP4 ISZERO ISZERO MUL OR SWAP1 SSTORE POP PUSH2 0x2040 ADDRESS DUP3 PUSH1 0x2 ADD PUSH0 SWAP1 SLOAD SWAP1 PUSH2 0x100 EXP SWAP1 DIV PUSH20 0xFFFFFFFFFFFFFFFFFFFFFFFFFFFFFFFFFFFFFFFF AND DUP4 PUSH0 ADD SLOAD PUSH2 0x2C7B JUMP JUMPDEST CALLER PUSH20 0xFFFFFFFFFFFFFFFFFFFFFFFFFFFFFFFFFFFFFFFF AND DUP3 PUSH32 0xD33EF6AB06E6BF8672161AA6ABE1EC1791C393D62213EBD89C67F611E538E575 CALLVALUE PUSH1 0x40 MLOAD PUSH2 0x2087 SWAP2 SWAP1 PUSH2 0x30A2 JUMP JUMPDEST PUSH1 0x40 MLOAD DUP1 SWAP2 SUB SWAP1 LOG3 POP PUSH1 0x1 PUSH0 DUP2 SWAP1 SSTORE POP POP JUMP JUMPDEST PUSH3 0x278D00 DUP2 JUMP JUMPDEST PUSH1 0x60 PUSH0 PUSH2 0x20AD DUP4 PUSH2 0x2FE9 JUMP JUMPDEST SWAP1 POP PUSH0 TIMESTAMP SWAP1 POP DUP2 PUSH1 0x5 ADD PUSH0 SWAP1 SLOAD SWAP1 PUSH2 0x100 EXP SWAP1 DIV PUSH8 0xFFFFFFFFFFFFFFFF AND PUSH8 0xFFFFFFFFFFFFFFFF AND DUP2 LT ISZERO PUSH2 0x211B JUMPI PUSH1 0x40 MLOAD DUP1 PUSH1 0x40 ADD PUSH1 0x40 MSTORE DUP1 PUSH1 0x7 DUP2 MSTORE PUSH1 0x20 ADD PUSH32 0x50454E44494E4700000000000000000000000000000000000000000000000000 DUP2 MSTORE POP SWAP3 POP POP POP PUSH2 0x2377 JUMP JUMPDEST DUP2 PUSH1 0x5 ADD PUSH1 0x8 SWAP1 SLOAD SWAP1 PUSH2 0x100 EXP SWAP1 DIV PUSH8 0xFFFFFFFFFFFFFFFF AND PUSH8 0xFFFFFFFFFFFFFFFF AND DUP2 LT ISZERO PUSH2 0x2184 JUMPI PUSH1 0x40 MLOAD DUP1 PUSH1 0x40 ADD PUSH1 0x40 MSTORE DUP1 PUSH1 0x6 DUP2 MSTORE PUSH1 0x20 ADD PUSH32 0x434F4D4D49540000000000000000000000000000000000000000000000000000 DUP2 MSTORE POP SWAP3 POP POP POP PUSH2 0x2377 JUMP JUMPDEST DUP2 PUSH1 0x5 ADD PUSH1 0x10 SWAP1 SLOAD SWAP1 PUSH2 0x100 EXP SWAP1 DIV PUSH8 0xFFFFFFFFFFFFFFFF AND PUSH8 0xFFFFFFFFFFFFFFFF AND DUP2 LT ISZERO PUSH2 0x21ED JUMPI PUSH1 0x40 MLOAD DUP1 PUSH1 0x40 ADD PUSH1 0x40 MSTORE DUP1 PUSH1 0x6 DUP2 MSTORE PUSH1 0x20 ADD PUSH32 0x52455645414C0000000000000000000000000000000000000000000000000000 DUP2 MSTORE POP SWAP3 POP POP POP PUSH2 0x2377 JUMP JUMPDEST DUP2 PUSH1 0x2 ADD PUSH1 0x14 SWAP1 SLOAD SWAP1 PUSH2 0x100 EXP SWAP1 DIV PUSH1 0xFF AND PUSH2 0x2242 JUMPI PUSH1 0x40 MLOAD DUP1 PUSH1 0x40 ADD PUSH1 0x40 MSTORE DUP1 PUSH1 0x10 DUP2 MSTORE PUSH1 0x20 ADD PUSH32 0x46494E414C495A455F50454E44494E4700000000000000000000000000000000 DUP2 MSTORE POP SWAP3 POP POP POP PUSH2 0x2377 JUMP JUMPDEST DUP2 PUSH1 0x2 ADD PUSH1 0x14 SWAP1 SLOAD SWAP1 PUSH2 0x100 EXP SWAP1 DIV PUSH1 0xFF AND DUP1 ISZERO PUSH2 0x226F JUMPI POP DUP2 PUSH1 0x2 ADD PUSH1 0x15 SWAP1 SLOAD SWAP1 PUSH2 0x100 EXP SWAP1 DIV PUSH1 0xFF AND ISZERO JUMPDEST DUP1 ISZERO PUSH2 0x22CA JUMPI POP PUSH0 PUSH20 0xFFFFFFFFFFFFFFFFFFFFFFFFFFFFFFFFFFFFFFFF AND DUP3 PUSH1 0x2 ADD PUSH0 SWAP1 SLOAD SWAP1 PUSH2 0x100 EXP SWAP1 DIV PUSH20 0xFFFFFFFFFFFFFFFFFFFFFFFFFFFFFFFFFFFFFFFF AND PUSH20 0xFFFFFFFFFFFFFFFFFFFFFFFFFFFFFFFFFFFFFFFF AND EQ ISZERO JUMPDEST DUP1 ISZERO PUSH2 0x22F8 JUMPI POP DUP2 PUSH1 0x6 ADD PUSH1 0x8 SWAP1 SLOAD SWAP1 PUSH2 0x100 EXP SWAP1 DIV PUSH8 0xFFFFFFFFFFFFFFFF AND PUSH8 0xFFFFFFFFFFFFFFFF AND DUP2 GT ISZERO JUMPDEST ISZERO PUSH2 0x233C JUMPI PUSH1 0x40 MLOAD DUP1 PUSH1 0x40 ADD PUSH1 0x40 MSTORE DUP1 PUSH1 0xD DUP2 MSTORE PUSH1 0x20 ADD PUSH32 0x41574149545F5041594D454E5400000000000000000000000000000000000000 DUP2 MSTORE POP SWAP3 POP POP POP PUSH2 0x2377 JUMP JUMPDEST PUSH1 0x40 MLOAD DUP1 PUSH1 0x40 ADD PUSH1 0x40 MSTORE DUP1 PUSH1 0x5 DUP2 MSTORE PUSH1 0x20 ADD PUSH32 0x454E444544000000000000000000000000000000000000000000000000000000 DUP2 MSTORE POP SWAP3 POP POP POP JUMPDEST SWAP2 SWAP1 POP JUMP JUMPDEST PUSH1 0x2 PUSH0 SLOAD SUB PUSH2 0x23C0 JUMPI PUSH1 0x40 MLOAD PUSH32 0x8C379A000000000000000000000000000000000000000000000000000000000 DUP2 MSTORE PUSH1 0x4 ADD PUSH2 0x23B7 SWAP1 PUSH2 0x3841 JUMP JUMPDEST PUSH1 0x40 MLOAD DUP1 SWAP2 SUB SWAP1 REVERT JUMPDEST PUSH1 0x2 PUSH0 DUP2 SWAP1 SSTORE POP PUSH0 PUSH2 0x23D1 DUP3 PUSH2 0x2FE9 JUMP JUMPDEST SWAP1 POP DUP1 PUSH1 0x2 ADD PUSH1 0x14 SWAP1 SLOAD SWAP1 PUSH2 0x100 EXP SWAP1 DIV PUSH1 0xFF AND PUSH2 0x241B JUMPI PUSH1 0x40 MLOAD PUSH32 0xD3018D1800000000000000000000000000000000000000000000000000000000 DUP2 MSTORE PUSH1 0x4 ADD PUSH1 0x40 MLOAD DUP1 SWAP2 SUB SWAP1 REVERT JUMPDEST DUP1 PUSH1 0x6 ADD PUSH1 0x8 SWAP1 SLOAD SWAP1 PUSH2 0x100 EXP SWAP1 DIV PUSH8 0xFFFFFFFFFFFFFFFF AND PUSH8 0xFFFFFFFFFFFFFFFF AND TIMESTAMP GT PUSH2 0x2476 JUMPI PUSH1 0x40 MLOAD PUSH32 0xD3018D1800000000000000000000000000000000000000000000000000000000 DUP2 MSTORE PUSH1 0x4 ADD PUSH1 0x40 MLOAD DUP1 SWAP2 SUB SWAP1 REVERT JUMPDEST DUP1 PUSH1 0x1 ADD PUSH0 SWAP1 SLOAD SWAP1 PUSH2 0x100 EXP SWAP1 DIV PUSH20 0xFFFFFFFFFFFFFFFFFFFFFFFFFFFFFFFFFFFFFFFF AND PUSH20 0xFFFFFFFFFFFFFFFFFFFFFFFFFFFFFFFFFFFFFFFF AND CALLER PUSH20 0xFFFFFFFFFFFFFFFFFFFFFFFFFFFFFFFFFFFFFFFF AND EQ PUSH2 0x24FE JUMPI PUSH1 0x40 MLOAD PUSH32 0x44A5DDCC00000000000000000000000000000000000000000000000000000000 DUP2 MSTORE PUSH1 0x4 ADD PUSH1 0x40 MLOAD DUP1 SWAP2 SUB SWAP1 REVERT JUMPDEST DUP1 PUSH1 0x2 ADD PUSH1 0x15 SWAP1 SLOAD SWAP1 PUSH2 0x100 EXP SWAP1 DIV PUSH1 0xFF AND ISZERO PUSH2 0x2547 JUMPI PUSH1 0x40 MLOAD PUSH32 0x44A5DDCC00000000000000000000000000000000000000000000000000000000 DUP2 MSTORE PUSH1 0x4 ADD PUSH1 0x40 MLOAD DUP1 SWAP2 SUB SWAP1 REVERT JUMPDEST PUSH1 0x1 DUP2 PUSH1 0x2 ADD PUSH1 0x15 PUSH2 0x100 EXP DUP2 SLOAD DUP2 PUSH1 0xFF MUL NOT AND SWAP1 DUP4 ISZERO ISZERO MUL OR SWAP1 SSTORE POP PUSH2 0x2595 ADDRESS DUP3 PUSH1 0x1 ADD PUSH0 SWAP1 SLOAD SWAP1 PUSH2 0x100 EXP SWAP1 DIV PUSH20 0xFFFFFFFFFFFFFFFFFFFFFFFFFFFFFFFFFFFFFFFF AND DUP4 PUSH0 ADD SLOAD PUSH2 0x2C7B JUMP JUMPDEST PUSH0 DUP2 PUSH1 0xA ADD PUSH0 DUP4 PUSH1 0x2 ADD PUSH0 SWAP1 SLOAD SWAP1 PUSH2 0x100 EXP SWAP1 DIV PUSH20 0xFFFFFFFFFFFFFFFFFFFFFFFFFFFFFFFFFFFFFFFF AND PUSH20 0xFFFFFFFFFFFFFFFFFFFFFFFFFFFFFFFFFFFFFFFF AND PUSH20 0xFFFFFFFFFFFFFFFFFFFFFFFFFFFFFFFFFFFFFFFF AND DUP2 MSTORE PUSH1 0x20 ADD SWAP1 DUP2 MSTORE PUSH1 0x20 ADD PUSH0 KECCAK256 PUSH1 0x2 ADD SLOAD SWAP1 POP PUSH0 DUP3 PUSH1 0xA ADD PUSH0 DUP5 PUSH1 0x2 ADD PUSH0 SWAP1 SLOAD SWAP1 PUSH2 0x100 EXP SWAP1 DIV PUSH20 0xFFFFFFFFFFFFFFFFFFFFFFFFFFFFFFFFFFFFFFFF AND PUSH20 0xFFFFFFFFFFFFFFFFFFFFFFFFFFFFFFFFFFFFFFFF AND PUSH20 0xFFFFFFFFFFFFFFFFFFFFFFFFFFFFFFFFFFFFFFFF AND DUP2 MSTORE PUSH1 0x20 ADD SWAP1 DUP2 MSTORE PUSH1 0x20 ADD PUSH0 KECCAK256 PUSH1 0x2 ADD DUP2 SWAP1 SSTORE POP PUSH0 CALLER PUSH20 0xFFFFFFFFFFFFFFFFFFFFFFFFFFFFFFFFFFFFFFFF AND DUP3 PUSH1 0x40 MLOAD PUSH2 0x268D SWAP1 PUSH2 0x388C JUMP JUMPDEST PUSH0 PUSH1 0x40 MLOAD DUP1 DUP4 SUB DUP2 DUP6 DUP8 GAS CALL SWAP3 POP POP POP RETURNDATASIZE DUP1 PUSH0 DUP2 EQ PUSH2 0x26C7 JUMPI PUSH1 0x40 MLOAD SWAP2 POP PUSH1 0x1F NOT PUSH1 0x3F RETURNDATASIZE ADD AND DUP3 ADD PUSH1 0x40 MSTORE RETURNDATASIZE DUP3 MSTORE RETURNDATASIZE PUSH0 PUSH1 0x20 DUP5 ADD RETURNDATACOPY PUSH2 0x26CC JUMP JUMPDEST PUSH1 0x60 SWAP2 POP JUMPDEST POP POP SWAP1 POP DUP1 PUSH2 0x2707 JUMPI PUSH1 0x40 MLOAD PUSH32 0x750B219C00000000000000000000000000000000000000000000000000000000 DUP2 MSTORE PUSH1 0x4 ADD PUSH1 0x40 MLOAD DUP1 SWAP2 SUB SWAP1 REVERT JUMPDEST DUP4 PUSH32 0x55C90D9726FF7562E2DDA9743C070AB007DD986E4C0A42BCF578362C435A4D89 PUSH1 0x40 MLOAD PUSH1 0x40 MLOAD DUP1 SWAP2 SUB SWAP1 LOG2 POP POP POP PUSH1 0x1 PUSH0 DUP2 SWAP1 SSTORE POP POP JUMP JUMPDEST PUSH0 PUSH0 PUSH2 0x274C DUP5 PUSH2 0x2FE9 JUMP JUMPDEST SWAP1 POP DUP1 PUSH1 0xA ADD PUSH0 DUP5 PUSH20 0xFFFFFFFFFFFFFFFFFFFFFFFFFFFFFFFFFFFFFFFF AND PUSH20 0xFFFFFFFFFFFFFFFFFFFFFFFFFFFFFFFFFFFFFFFF AND DUP2 MSTORE PUSH1 0x20 ADD SWAP1 DUP2 MSTORE PUSH1 0x20 ADD PUSH0 KECCAK256 PUSH1 0x1 ADD PUSH0 SWAP1 SLOAD SWAP1 PUSH2 0x100 EXP SWAP1 DIV PUSH8 0xFFFFFFFFFFFFFFFF AND SWAP2 POP POP SWAP3 SWAP2 POP POP JUMP JUMPDEST PUSH0 PUSH0 PUSH0 PUSH0 PUSH0 PUSH2 0x27BB DUP7 PUSH2 0x2FE9 JUMP JUMPDEST SWAP1 POP DUP1 PUSH1 0x5 ADD PUSH0 SWAP1 SLOAD SWAP1 PUSH2 0x100 EXP SWAP1 DIV PUSH8 0xFFFFFFFFFFFFFFFF AND DUP2 PUSH1 0x5 ADD PUSH1 0x8 SWAP1 SLOAD SWAP1 PUSH2 0x100 EXP SWAP1 DIV PUSH8 0xFFFFFFFFFFFFFFFF AND DUP3 PUSH1 0x5 ADD PUSH1 0x10 SWAP1 SLOAD SWAP1 PUSH2 0x100 EXP SWAP1 DIV PUSH8 0xFFFFFFFFFFFFFFFF AND DUP4 PUSH1 0x6 ADD PUSH1 0x8 SWAP1 SLOAD SWAP1 PUSH2 0x100 EXP SWAP1 DIV PUSH8 0xFFFFFFFFFFFFFFFF AND SWAP5 POP SWAP5 POP SWAP5 POP SWAP5 POP POP SWAP2 SWAP4 POP SWAP2 SWAP4 JUMP JUMPDEST PUSH0 PUSH0 PUSH2 0x283B DUP5 PUSH2 0x2FE9 JUMP JUMPDEST SWAP1 POP DUP1 PUSH1 0xA ADD PUSH0 DUP5 PUSH20 0xFFFFFFFFFFFFFFFFFFFFFFFFFFFFFFFFFFFFFFFF AND PUSH20 0xFFFFFFFFFFFFFFFFFFFFFFFFFFFFFFFFFFFFFFFF AND DUP2 MSTORE PUSH1 0x20 ADD SWAP1 DUP2 MSTORE PUSH1 0x20 ADD PUSH0 KECCAK256 PUSH1 0x2 ADD SLOAD SWAP2 POP POP SWAP3 SWAP2 POP POP JUMP JUMPDEST PUSH1 0x2 PUSH0 SLOAD SUB PUSH2 0x28CD JUMPI PUSH1 0x40 MLOAD PUSH32 0x8C379A000000000000000000000000000000000000000000000000000000000 DUP2 MSTORE PUSH1 0x4 ADD PUSH2 0x28C4 SWAP1 PUSH2 0x3841 JUMP JUMPDEST PUSH1 0x40 MLOAD DUP1 SWAP2 SUB SWAP1 REVERT JUMPDEST PUSH1 0x2 PUSH0 DUP2 SWAP1 SSTORE POP PUSH0 PUSH2 0x28DD PUSH2 0x2BDA JUMP JUMPDEST SWAP1 POP DUP1 PUSH1 0x2 ADD PUSH1 0x14 SWAP1 SLOAD SWAP1 PUSH2 0x100 EXP SWAP1 DIV PUSH1 0xFF AND PUSH2 0x2927 JUMPI PUSH1 0x40 MLOAD PUSH32 0xD3018D1800000000000000000000000000000000000000000000000000000000 DUP2 MSTORE PUSH1 0x4 ADD PUSH1 0x40 MLOAD DUP1 SWAP2 SUB SWAP1 REVERT JUMPDEST CALLER PUSH20 0xFFFFFFFFFFFFFFFFFFFFFFFFFFFFFFFFFFFFFFFF AND DUP2 PUSH1 0x2 ADD PUSH0 SWAP1 SLOAD SWAP1 PUSH2 0x100 EXP SWAP1 DIV PUSH20 0xFFFFFFFFFFFFFFFFFFFFFFFFFFFFFFFFFFFFFFFF AND PUSH20 0xFFFFFFFFFFFFFFFFFFFFFFFFFFFFFFFFFFFFFFFF AND EQ PUSH2 0x29AF JUMPI PUSH1 0x40 MLOAD PUSH32 0x618C724200000000000000000000000000000000000000000000000000000000 DUP2 MSTORE PUSH1 0x4 ADD PUSH1 0x40 MLOAD DUP1 SWAP2 SUB SWAP1 REVERT JUMPDEST DUP1 PUSH1 0x2 ADD PUSH1 0x15 SWAP1 SLOAD SWAP1 PUSH2 0x100 EXP SWAP1 DIV PUSH1 0xFF AND ISZERO PUSH2 0x29F8 JUMPI PUSH1 0x40 MLOAD PUSH32 0x44A5DDCC00000000000000000000000000000000000000000000000000000000 DUP2 MSTORE PUSH1 0x4 ADD PUSH1 0x40 MLOAD DUP1 SWAP2 SUB SWAP1 REVERT JUMPDEST DUP1 PUSH1 0x6 ADD PUSH1 0x8 SWAP1 SLOAD SWAP1 PUSH2 0x100 EXP SWAP1 DIV PUSH8 0xFFFFFFFFFFFFFFFF AND PUSH8 0xFFFFFFFFFFFFFFFF AND TIMESTAMP GT DUP1 ISZERO PUSH2 0x2A2D JUMPI POP PUSH0 DUP2 PUSH1 0x9 ADD SLOAD EQ ISZERO JUMPDEST ISZERO PUSH2 0x2A64 JUMPI PUSH1 0x40 MLOAD PUSH32 0x58459E8800000000000000000000000000000000000000000000000000000000 DUP2 MSTORE PUSH1 0x4 ADD PUSH1 0x40 MLOAD DUP1 SWAP2 SUB SWAP1 REVERT JUMPDEST DUP1 PUSH1 0x9 ADD SLOAD CALLVALUE EQ PUSH2 0x2AA1 JUMPI PUSH1 0x40 MLOAD PUSH32 0x788A686F00000000000000000000000000000000000000000000000000000000 DUP2 MSTORE PUSH1 0x4 ADD PUSH1 0x40 MLOAD DUP1 SWAP2 SUB SWAP1 REVERT JUMPDEST PUSH0 DUP2 PUSH1 0x9 ADD SLOAD EQ PUSH2 0x2B31 JUMPI PUSH0 DUP2 PUSH1 0x9 ADD DUP2 SWAP1 SSTORE POP CALLVALUE DUP2 PUSH1 0xA ADD PUSH0 DUP4 PUSH1 0x1 ADD PUSH0 SWAP1 SLOAD SWAP1 PUSH2 0x100 EXP SWAP1 DIV PUSH20 0xFFFFFFFFFFFFFFFFFFFFFFFFFFFFFFFFFFFFFFFF AND PUSH20 0xFFFFFFFFFFFFFFFFFFFFFFFFFFFFFFFFFFFFFFFF AND PUSH20 0xFFFFFFFFFFFFFFFFFFFFFFFFFFFFFFFFFFFFFFFF AND DUP2 MSTORE PUSH1 0x20 ADD SWAP1 DUP2 MSTORE PUSH1 0x20 ADD PUSH0 KECCAK256 PUSH1 0x2 ADD PUSH0 DUP3 DUP3 SLOAD PUSH2 0x2B29 SWAP2 SWAP1 PUSH2 0x36DB JUMP JUMPDEST SWAP3 POP POP DUP2 SWAP1 SSTORE POP JUMPDEST PUSH1 0x1 DUP2 PUSH1 0x2 ADD PUSH1 0x15 PUSH2 0x100 EXP DUP2 SLOAD DUP2 PUSH1 0xFF MUL NOT AND SWAP1 DUP4 ISZERO ISZERO MUL OR SWAP1 SSTORE POP PUSH2 0x2B7F ADDRESS DUP3 PUSH1 0x2 ADD PUSH0 SWAP1 SLOAD SWAP1 PUSH2 0x100 EXP SWAP1 DIV PUSH20 0xFFFFFFFFFFFFFFFFFFFFFFFFFFFFFFFFFFFFFFFF AND DUP4 PUSH0 ADD SLOAD PUSH2 0x2C7B JUMP JUMPDEST CALLER PUSH20 0xFFFFFFFFFFFFFFFFFFFFFFFFFFFFFFFFFFFFFFFF AND PUSH1 0x1 SLOAD PUSH32 0xD33EF6AB06E6BF8672161AA6ABE1EC1791C393D62213EBD89C67F611E538E575 CALLVALUE PUSH1 0x40 MLOAD PUSH2 0x2BC8 SWAP2 SWAP1 PUSH2 0x30A2 JUMP JUMPDEST PUSH1 0x40 MLOAD DUP1 SWAP2 SUB SWAP1 LOG3 POP PUSH1 0x1 PUSH0 DUP2 SWAP1 SSTORE POP JUMP JUMPDEST PUSH0 PUSH1 0x2 PUSH0 PUSH1 0x1 SLOAD DUP2 MSTORE PUSH1 0x20 ADD SWAP1 DUP2 MSTORE PUSH1 0x20 ADD PUSH0 KECCAK256 SWAP1 POP PUSH0 PUSH20 0xFFFFFFFFFFFFFFFFFFFFFFFFFFFFFFFFFFFFFFFF AND DUP2 PUSH1 0x1 ADD PUSH0 SWAP1 SLOAD SWAP1 PUSH2 0x100 EXP SWAP1 DIV PUSH20 0xFFFFFFFFFFFFFFFFFFFFFFFFFFFFFFFFFFFFFFFF AND PUSH20 0xFFFFFFFFFFFFFFFFFFFFFFFFFFFFFFFFFFFFFFFF AND SUB PUSH2 0x2C78 JUMPI PUSH1 0x40 MLOAD PUSH32 0x568CA25700000000000000000000000000000000000000000000000000000000 DUP2 MSTORE PUSH1 0x4 ADD PUSH1 0x40 MLOAD DUP1 SWAP2 SUB SWAP1 REVERT JUMPDEST SWAP1 JUMP JUMPDEST DUP3 PUSH20 0xFFFFFFFFFFFFFFFFFFFFFFFFFFFFFFFFFFFFFFFF AND PUSH32 0x0 PUSH20 0xFFFFFFFFFFFFFFFFFFFFFFFFFFFFFFFFFFFFFFFF AND PUSH4 0x6352211E DUP4 PUSH1 0x40 MLOAD DUP3 PUSH4 0xFFFFFFFF AND PUSH1 0xE0 SHL DUP2 MSTORE PUSH1 0x4 ADD PUSH2 0x2CEB SWAP2 SWAP1 PUSH2 0x30A2 JUMP JUMPDEST PUSH1 0x20 PUSH1 0x40 MLOAD DUP1 DUP4 SUB DUP2 DUP7 GAS STATICCALL ISZERO DUP1 ISZERO PUSH2 0x2D06 JUMPI RETURNDATASIZE PUSH0 PUSH0 RETURNDATACOPY RETURNDATASIZE PUSH0 REVERT JUMPDEST POP POP POP POP PUSH1 0x40 MLOAD RETURNDATASIZE PUSH1 0x1F NOT PUSH1 0x1F DUP3 ADD AND DUP3 ADD DUP1 PUSH1 0x40 MSTORE POP DUP2 ADD SWAP1 PUSH2 0x2D2A SWAP2 SWAP1 PUSH2 0x3ABC JUMP JUMPDEST PUSH20 0xFFFFFFFFFFFFFFFFFFFFFFFFFFFFFFFFFFFFFFFF AND EQ PUSH2 0x2D80 JUMPI PUSH1 0x40 MLOAD PUSH32 0x8C379A000000000000000000000000000000000000000000000000000000000 DUP2 MSTORE PUSH1 0x4 ADD PUSH2 0x2D77 SWAP1 PUSH2 0x3CA2 JUMP JUMPDEST PUSH1 0x40 MLOAD DUP1 SWAP2 SUB SWAP1 REVERT JUMPDEST ADDRESS PUSH20 0xFFFFFFFFFFFFFFFFFFFFFFFFFFFFFFFFFFFFFFFF AND DUP3 PUSH20 0xFFFFFFFFFFFFFFFFFFFFFFFFFFFFFFFFFFFFFFFF AND SUB PUSH2 0x2F5A JUMPI ADDRESS PUSH20 0xFFFFFFFFFFFFFFFFFFFFFFFFFFFFFFFFFFFFFFFF AND PUSH32 0x0 PUSH20 0xFFFFFFFFFFFFFFFFFFFFFFFFFFFFFFFFFFFFFFFF AND PUSH4 0x81812FC DUP4 PUSH1 0x40 MLOAD DUP3 PUSH4 0xFFFFFFFF AND PUSH1 0xE0 SHL DUP2 MSTORE PUSH1 0x4 ADD PUSH2 0x2E23 SWAP2 SWAP1 PUSH2 0x30A2 JUMP JUMPDEST PUSH1 0x20 PUSH1 0x40 MLOAD DUP1 DUP4 SUB DUP2 DUP7 GAS STATICCALL ISZERO DUP1 ISZERO PUSH2 0x2E3E JUMPI RETURNDATASIZE PUSH0 PUSH0 RETURNDATACOPY RETURNDATASIZE PUSH0 REVERT JUMPDEST POP POP POP POP PUSH1 0x40 MLOAD RETURNDATASIZE PUSH1 0x1F NOT PUSH1 0x1F DUP3 ADD AND DUP3 ADD DUP1 PUSH1 0x40 MSTORE POP DUP2 ADD SWAP1 PUSH2 0x2E62 SWAP2 SWAP1 PUSH2 0x3ABC JUMP JUMPDEST PUSH20 0xFFFFFFFFFFFFFFFFFFFFFFFFFFFFFFFFFFFFFFFF AND EQ DUP1 PUSH2 0x2F1A JUMPI POP PUSH32 0x0 PUSH20 0xFFFFFFFFFFFFFFFFFFFFFFFFFFFFFFFFFFFFFFFF AND PUSH4 0xE985E9C5 DUP5 ADDRESS PUSH1 0x40 MLOAD DUP4 PUSH4 0xFFFFFFFF AND PUSH1 0xE0 SHL DUP2 MSTORE PUSH1 0x4 ADD PUSH2 0x2EDA SWAP3 SWAP2 SWAP1 PUSH2 0x3CC0 JUMP JUMPDEST PUSH1 0x20 PUSH1 0x40 MLOAD DUP1 DUP4 SUB DUP2 DUP7 GAS STATICCALL ISZERO DUP1 ISZERO PUSH2 0x2EF5 JUMPI RETURNDATASIZE PUSH0 PUSH0 RETURNDATACOPY RETURNDATASIZE PUSH0 REVERT JUMPDEST POP POP POP POP PUSH1 0x40 MLOAD RETURNDATASIZE PUSH1 0x1F NOT PUSH1 0x1F DUP3 ADD AND DUP3 ADD DUP1 PUSH1 0x40 MSTORE POP DUP2 ADD SWAP1 PUSH2 0x2F19 SWAP2 SWAP1 PUSH2 0x3D1C JUMP JUMPDEST JUMPDEST PUSH2 0x2F59 JUMPI PUSH1 0x40 MLOAD PUSH32 0x8C379A000000000000000000000000000000000000000000000000000000000 DUP2 MSTORE PUSH1 0x4 ADD PUSH2 0x2F50 SWAP1 PUSH2 0x3D91 JUMP JUMPDEST PUSH1 0x40 MLOAD DUP1 SWAP2 SUB SWAP1 REVERT JUMPDEST JUMPDEST PUSH32 0x0 PUSH20 0xFFFFFFFFFFFFFFFFFFFFFFFFFFFFFFFFFFFFFFFF AND PUSH4 0x42842E0E DUP5 DUP5 DUP5 PUSH1 0x40 MLOAD DUP5 PUSH4 0xFFFFFFFF AND PUSH1 0xE0 SHL DUP2 MSTORE PUSH1 0x4 ADD PUSH2 0x2FB7 SWAP4 SWAP3 SWAP2 SWAP1 PUSH2 0x3DAF JUMP JUMPDEST PUSH0 PUSH1 0x40 MLOAD DUP1 DUP4 SUB DUP2 PUSH0 DUP8 DUP1 EXTCODESIZE ISZERO DUP1 ISZERO PUSH2 0x2FCE JUMPI PUSH0 PUSH0 REVERT JUMPDEST POP GAS CALL ISZERO DUP1 ISZERO PUSH2 0x2FE0 JUMPI RETURNDATASIZE PUSH0 PUSH0 RETURNDATACOPY RETURNDATASIZE PUSH0 REVERT JUMPDEST POP POP POP POP POP POP POP JUMP JUMPDEST PUSH0 PUSH1 0x2 PUSH0 DUP4 DUP2 MSTORE PUSH1 0x20 ADD SWAP1 DUP2 MSTORE PUSH1 0x20 ADD PUSH0 KECCAK256 SWAP1 POP PUSH0 PUSH20 0xFFFFFFFFFFFFFFFFFFFFFFFFFFFFFFFFFFFFFFFF AND DUP2 PUSH1 0x1 ADD PUSH0 SWAP1 SLOAD SWAP1 PUSH2 0x100 EXP SWAP1 DIV PUSH20 0xFFFFFFFFFFFFFFFFFFFFFFFFFFFFFFFFFFFFFFFF AND PUSH20 0xFFFFFFFFFFFFFFFFFFFFFFFFFFFFFFFFFFFFFFFF AND SUB PUSH2 0x3085 JUMPI PUSH1 0x40 MLOAD PUSH32 0x568CA25700000000000000000000000000000000000000000000000000000000 DUP2 MSTORE PUSH1 0x4 ADD PUSH1 0x40 MLOAD DUP1 SWAP2 SUB SWAP1 REVERT JUMPDEST SWAP2 SWAP1 POP JUMP JUMPDEST PUSH0 DUP2 SWAP1 POP SWAP2 SWAP1 POP JUMP JUMPDEST PUSH2 0x309C DUP2 PUSH2 0x308A JUMP JUMPDEST DUP3 MSTORE POP POP JUMP JUMPDEST PUSH0 PUSH1 0x20 DUP3 ADD SWAP1 POP PUSH2 0x30B5 PUSH0 DUP4 ADD DUP5 PUSH2 0x3093 JUMP JUMPDEST SWAP3 SWAP2 POP POP JUMP JUMPDEST PUSH0 PUSH0 REVERT JUMPDEST PUSH0 PUSH0 REVERT JUMPDEST PUSH0 PUSH20 0xFFFFFFFFFFFFFFFFFFFFFFFFFFFFFFFFFFFFFFFF DUP3 AND SWAP1 POP SWAP2 SWAP1 POP JUMP JUMPDEST PUSH0 PUSH2 0x30EC DUP3 PUSH2 0x30C3 JUMP JUMPDEST SWAP1 POP SWAP2 SWAP1 POP JUMP JUMPDEST PUSH2 0x30FC DUP2 PUSH2 0x30E2 JUMP JUMPDEST DUP2 EQ PUSH2 0x3106 JUMPI PUSH0 PUSH0 REVERT JUMPDEST POP JUMP JUMPDEST PUSH0 DUP2 CALLDATALOAD SWAP1 POP PUSH2 0x3117 DUP2 PUSH2 0x30F3 JUMP JUMPDEST SWAP3 SWAP2 POP POP JUMP JUMPDEST PUSH2 0x3126 DUP2 PUSH2 0x308A JUMP JUMPDEST DUP2 EQ PUSH2 0x3130 JUMPI PUSH0 PUSH0 REVERT JUMPDEST POP JUMP JUMPDEST PUSH0 DUP2 CALLDATALOAD SWAP1 POP PUSH2 0x3141 DUP2 PUSH2 0x311D JUMP JUMPDEST SWAP3 SWAP2 POP POP JUMP JUMPDEST PUSH0 PUSH0 REVERT JUMPDEST PUSH0 PUSH0 REVERT JUMPDEST PUSH0 PUSH0 REVERT JUMPDEST PUSH0 PUSH0 DUP4 PUSH1 0x1F DUP5 ADD SLT PUSH2 0x3168 JUMPI PUSH2 0x3167 PUSH2 0x3147 JUMP JUMPDEST JUMPDEST DUP3 CALLDATALOAD SWAP1 POP PUSH8 0xFFFFFFFFFFFFFFFF DUP2 GT ISZERO PUSH2 0x3185 JUMPI PUSH2 0x3184 PUSH2 0x314B JUMP JUMPDEST JUMPDEST PUSH1 0x20 DUP4 ADD SWAP2 POP DUP4 PUSH1 0x1 DUP3 MUL DUP4 ADD GT ISZERO PUSH2 0x31A1 JUMPI PUSH2 0x31A0 PUSH2 0x314F JUMP JUMPDEST JUMPDEST SWAP3 POP SWAP3 SWAP1 POP JUMP JUMPDEST PUSH0 PUSH0 PUSH0 PUSH0 PUSH0 PUSH1 0x80 DUP7 DUP9 SUB SLT ISZERO PUSH2 0x31C1 JUMPI PUSH2 0x31C0 PUSH2 0x30BB JUMP JUMPDEST JUMPDEST PUSH0 PUSH2 0x31CE DUP9 DUP3 DUP10 ADD PUSH2 0x3109 JUMP JUMPDEST SWAP6 POP POP PUSH1 0x20 PUSH2 0x31DF DUP9 DUP3 DUP10 ADD PUSH2 0x3109 JUMP JUMPDEST SWAP5 POP POP PUSH1 0x40 PUSH2 0x31F0 DUP9 DUP3 DUP10 ADD PUSH2 0x3133 JUMP JUMPDEST SWAP4 POP POP PUSH1 0x60 DUP7 ADD CALLDATALOAD PUSH8 0xFFFFFFFFFFFFFFFF DUP2 GT ISZERO PUSH2 0x3211 JUMPI PUSH2 0x3210 PUSH2 0x30BF JUMP JUMPDEST JUMPDEST PUSH2 0x321D DUP9 DUP3 DUP10 ADD PUSH2 0x3153 JUMP JUMPDEST SWAP3 POP SWAP3 POP POP SWAP3 SWAP6 POP SWAP3 SWAP6 SWAP1 SWAP4 POP JUMP JUMPDEST PUSH0 PUSH32 0xFFFFFFFF00000000000000000000000000000000000000000000000000000000 DUP3 AND SWAP1 POP SWAP2 SWAP1 POP JUMP JUMPDEST PUSH2 0x3260 DUP2 PUSH2 0x322C JUMP JUMPDEST DUP3 MSTORE POP POP JUMP JUMPDEST PUSH0 PUSH1 0x20 DUP3 ADD SWAP1 POP PUSH2 0x3279 PUSH0 DUP4 ADD DUP5 PUSH2 0x3257 JUMP JUMPDEST SWAP3 SWAP2 POP POP JUMP JUMPDEST PUSH0 DUP2 SWAP1 POP SWAP2 SWAP1 POP JUMP JUMPDEST PUSH0 PUSH2 0x32A2 PUSH2 0x329D PUSH2 0x3298 DUP5 PUSH2 0x30C3 JUMP JUMPDEST PUSH2 0x327F JUMP JUMPDEST PUSH2 0x30C3 JUMP JUMPDEST SWAP1 POP SWAP2 SWAP1 POP JUMP JUMPDEST PUSH0 PUSH2 0x32B3 DUP3 PUSH2 0x3288 JUMP JUMPDEST SWAP1 POP SWAP2 SWAP1 POP JUMP JUMPDEST PUSH0 PUSH2 0x32C4 DUP3 PUSH2 0x32A9 JUMP JUMPDEST SWAP1 POP SWAP2 SWAP1 POP JUMP JUMPDEST PUSH2 0x32D4 DUP2 PUSH2 0x32BA JUMP JUMPDEST DUP3 MSTORE POP POP JUMP JUMPDEST PUSH0 PUSH1 0x20 DUP3 ADD SWAP1 POP PUSH2 0x32ED PUSH0 DUP4 ADD DUP5 PUSH2 0x32CB JUMP JUMPDEST SWAP3 SWAP2 POP POP JUMP JUMPDEST PUSH0 DUP2 SWAP1 POP SWAP2 SWAP1 POP JUMP JUMPDEST PUSH2 0x3305 DUP2 PUSH2 0x32F3 JUMP JUMPDEST DUP2 EQ PUSH2 0x330F JUMPI PUSH0 PUSH0 REVERT JUMPDEST POP JUMP JUMPDEST PUSH0 DUP2 CALLDATALOAD SWAP1 POP PUSH2 0x3320 DUP2 PUSH2 0x32FC JUMP JUMPDEST SWAP3 SWAP2 POP POP JUMP JUMPDEST PUSH0 PUSH0 PUSH1 0x40 DUP4 DUP6 SUB SLT ISZERO PUSH2 0x333C JUMPI PUSH2 0x333B PUSH2 0x30BB JUMP JUMPDEST JUMPDEST PUSH0 PUSH2 0x3349 DUP6 DUP3 DUP7 ADD PUSH2 0x3133 JUMP JUMPDEST SWAP3 POP POP PUSH1 0x20 PUSH2 0x335A DUP6 DUP3 DUP7 ADD PUSH2 0x3312 JUMP JUMPDEST SWAP2 POP POP SWAP3 POP SWAP3 SWAP1 POP JUMP JUMPDEST PUSH0 PUSH1 0x20 DUP3 DUP5 SUB SLT ISZERO PUSH2 0x3379 JUMPI PUSH2 0x3378 PUSH2 0x30BB JUMP JUMPDEST JUMPDEST PUSH0 PUSH2 0x3386 DUP5 DUP3 DUP6 ADD PUSH2 0x3133 JUMP JUMPDEST SWAP2 POP POP SWAP3 SWAP2 POP POP JUMP JUMPDEST PUSH2 0x3398 DUP2 PUSH2 0x30E2 JUMP JUMPDEST DUP3 MSTORE POP POP JUMP JUMPDEST PUSH0 PUSH8 0xFFFFFFFFFFFFFFFF DUP3 AND SWAP1 POP SWAP2 SWAP1 POP JUMP JUMPDEST PUSH2 0x33BA DUP2 PUSH2 0x339E JUMP JUMPDEST DUP3 MSTORE POP POP JUMP JUMPDEST PUSH0 PUSH1 0x60 DUP3 ADD SWAP1 POP PUSH2 0x33D3 PUSH0 DUP4 ADD DUP7 PUSH2 0x338F JUMP JUMPDEST PUSH2 0x33E0 PUSH1 0x20 DUP4 ADD DUP6 PUSH2 0x3093 JUMP JUMPDEST PUSH2 0x33ED PUSH1 0x40 DUP4 ADD DUP5 PUSH2 0x33B1 JUMP JUMPDEST SWAP5 SWAP4 POP POP POP POP JUMP JUMPDEST PUSH0 PUSH0 PUSH1 0x40 DUP4 DUP6 SUB SLT ISZERO PUSH2 0x340B JUMPI PUSH2 0x340A PUSH2 0x30BB JUMP JUMPDEST JUMPDEST PUSH0 PUSH2 0x3418 DUP6 DUP3 DUP7 ADD PUSH2 0x3133 JUMP JUMPDEST SWAP3 POP POP PUSH1 0x20 PUSH2 0x3429 DUP6 DUP3 DUP7 ADD PUSH2 0x3109 JUMP JUMPDEST SWAP2 POP POP SWAP3 POP SWAP3 SWAP1 POP JUMP JUMPDEST PUSH0 PUSH1 0x20 DUP3 DUP5 SUB SLT ISZERO PUSH2 0x3448 JUMPI PUSH2 0x3447 PUSH2 0x30BB JUMP JUMPDEST JUMPDEST PUSH0 PUSH2 0x3455 DUP5 DUP3 DUP6 ADD PUSH2 0x3312 JUMP JUMPDEST SWAP2 POP POP SWAP3 SWAP2 POP POP JUMP JUMPDEST PUSH2 0x3467 DUP2 PUSH2 0x339E JUMP JUMPDEST DUP2 EQ PUSH2 0x3471 JUMPI PUSH0 PUSH0 REVERT JUMPDEST POP JUMP JUMPDEST PUSH0 DUP2 CALLDATALOAD SWAP1 POP PUSH2 0x3482 DUP2 PUSH2 0x345E JUMP JUMPDEST SWAP3 SWAP2 POP POP JUMP JUMPDEST PUSH0 PUSH0 PUSH0 PUSH0 PUSH0 PUSH1 0xA0 DUP7 DUP9 SUB SLT ISZERO PUSH2 0x34A1 JUMPI PUSH2 0x34A0 PUSH2 0x30BB JUMP JUMPDEST JUMPDEST PUSH0 PUSH2 0x34AE DUP9 DUP3 DUP10 ADD PUSH2 0x3133 JUMP JUMPDEST SWAP6 POP POP PUSH1 0x20 PUSH2 0x34BF DUP9 DUP3 DUP10 ADD PUSH2 0x3133 JUMP JUMPDEST SWAP5 POP POP PUSH1 0x40 PUSH2 0x34D0 DUP9 DUP3 DUP10 ADD PUSH2 0x3474 JUMP JUMPDEST SWAP4 POP POP PUSH1 0x60 PUSH2 0x34E1 DUP9 DUP3 DUP10 ADD PUSH2 0x3474 JUMP JUMPDEST SWAP3 POP POP PUSH1 0x80 PUSH2 0x34F2 DUP9 DUP3 DUP10 ADD PUSH2 0x3474 JUMP JUMPDEST SWAP2 POP POP SWAP3 SWAP6 POP SWAP3 SWAP6 SWAP1 SWAP4 POP JUMP JUMPDEST PUSH2 0x3508 DUP2 PUSH2 0x32F3 JUMP JUMPDEST DUP3 MSTORE POP POP JUMP JUMPDEST PUSH0 PUSH1 0x20 DUP3 ADD SWAP1 POP PUSH2 0x3521 PUSH0 DUP4 ADD DUP5 PUSH2 0x34FF JUMP JUMPDEST SWAP3 SWAP2 POP POP JUMP JUMPDEST PUSH0 DUP2 MLOAD SWAP1 POP SWAP2 SWAP1 POP JUMP JUMPDEST PUSH0 DUP3 DUP3 MSTORE PUSH1 0x20 DUP3 ADD SWAP1 POP SWAP3 SWAP2 POP POP JUMP JUMPDEST DUP3 DUP2 DUP4 MCOPY PUSH0 DUP4 DUP4 ADD MSTORE POP POP POP JUMP JUMPDEST PUSH0 PUSH1 0x1F NOT PUSH1 0x1F DUP4 ADD AND SWAP1 POP SWAP2 SWAP1 POP JUMP JUMPDEST PUSH0 PUSH2 0x3569 DUP3 PUSH2 0x3527 JUMP JUMPDEST PUSH2 0x3573 DUP2 DUP6 PUSH2 0x3531 JUMP JUMPDEST SWAP4 POP PUSH2 0x3583 DUP2 DUP6 PUSH1 0x20 DUP7 ADD PUSH2 0x3541 JUMP JUMPDEST PUSH2 0x358C DUP2 PUSH2 0x354F JUMP JUMPDEST DUP5 ADD SWAP2 POP POP SWAP3 SWAP2 POP POP JUMP JUMPDEST PUSH0 PUSH1 0x20 DUP3 ADD SWAP1 POP DUP2 DUP2 SUB PUSH0 DUP4 ADD MSTORE PUSH2 0x35AF DUP2 DUP5 PUSH2 0x355F JUMP JUMPDEST SWAP1 POP SWAP3 SWAP2 POP POP JUMP JUMPDEST PUSH0 PUSH1 0x20 DUP3 ADD SWAP1 POP PUSH2 0x35CA PUSH0 DUP4 ADD DUP5 PUSH2 0x33B1 JUMP JUMPDEST SWAP3 SWAP2 POP POP JUMP JUMPDEST PUSH0 PUSH1 0x80 DUP3 ADD SWAP1 POP PUSH2 0x35E3 PUSH0 DUP4 ADD DUP8 PUSH2 0x33B1 JUMP JUMPDEST PUSH2 0x35F0 PUSH1 0x20 DUP4 ADD DUP7 PUSH2 0x33B1 JUMP JUMPDEST PUSH2 0x35FD PUSH1 0x40 DUP4 ADD DUP6 PUSH2 0x33B1 JUMP JUMPDEST PUSH2 0x360A PUSH1 0x60 DUP4 ADD DUP5 PUSH2 0x33B1 JUMP JUMPDEST SWAP6 SWAP5 POP POP POP POP POP JUMP JUMPDEST PUSH32 0x616C72656164792066696E616C697A6564000000000000000000000000000000 PUSH0 DUP3 ADD MSTORE POP JUMP JUMPDEST PUSH0 PUSH2 0x3647 PUSH1 0x11 DUP4 PUSH2 0x3531 JUMP JUMPDEST SWAP2 POP PUSH2 0x3652 DUP3 PUSH2 0x3613 JUMP JUMPDEST PUSH1 0x20 DUP3 ADD SWAP1 POP SWAP2 SWAP1 POP JUMP JUMPDEST PUSH0 PUSH1 0x20 DUP3 ADD SWAP1 POP DUP2 DUP2 SUB PUSH0 DUP4 ADD MSTORE PUSH2 0x3674 DUP2 PUSH2 0x363B JUMP JUMPDEST SWAP1 POP SWAP2 SWAP1 POP JUMP JUMPDEST PUSH32 0x4E487B7100000000000000000000000000000000000000000000000000000000 PUSH0 MSTORE PUSH1 0x11 PUSH1 0x4 MSTORE PUSH1 0x24 PUSH0 REVERT JUMPDEST PUSH0 PUSH2 0x36B2 DUP3 PUSH2 0x308A JUMP JUMPDEST SWAP2 POP PUSH2 0x36BD DUP4 PUSH2 0x308A JUMP JUMPDEST SWAP3 POP DUP3 DUP3 SUB SWAP1 POP DUP2 DUP2 GT ISZERO PUSH2 0x36D5 JUMPI PUSH2 0x36D4 PUSH2 0x367B JUMP JUMPDEST JUMPDEST SWAP3 SWAP2 POP POP JUMP JUMPDEST PUSH0 PUSH2 0x36E5 DUP3 PUSH2 0x308A JUMP JUMPDEST SWAP2 POP PUSH2 0x36F0 DUP4 PUSH2 0x308A JUMP JUMPDEST SWAP3 POP DUP3 DUP3 ADD SWAP1 POP DUP1 DUP3 GT ISZERO PUSH2 0x3708 JUMPI PUSH2 0x3707 PUSH2 0x367B JUMP JUMPDEST JUMPDEST SWAP3 SWAP2 POP POP JUMP JUMPDEST PUSH0 PUSH2 0x3718 DUP3 PUSH2 0x339E JUMP JUMPDEST SWAP2 POP PUSH2 0x3723 DUP4 PUSH2 0x339E JUMP JUMPDEST SWAP3 POP DUP3 DUP3 ADD SWAP1 POP PUSH8 0xFFFFFFFFFFFFFFFF DUP2 GT ISZERO PUSH2 0x3743 JUMPI PUSH2 0x3742 PUSH2 0x367B JUMP JUMPDEST JUMPDEST SWAP3 SWAP2 POP POP JUMP JUMPDEST PUSH0 PUSH1 0x80 DUP3 ADD SWAP1 POP PUSH2 0x375C PUSH0 DUP4 ADD DUP8 PUSH2 0x338F JUMP JUMPDEST PUSH2 0x3769 PUSH1 0x20 DUP4 ADD DUP7 PUSH2 0x3093 JUMP JUMPDEST PUSH2 0x3776 PUSH1 0x40 DUP4 ADD DUP6 PUSH2 0x3093 JUMP JUMPDEST PUSH2 0x3783 PUSH1 0x60 DUP4 ADD DUP5 PUSH2 0x3093 JUMP JUMPDEST SWAP6 SWAP5 POP POP POP POP POP JUMP JUMPDEST PUSH0 DUP2 SWAP1 POP SWAP2 SWAP1 POP JUMP JUMPDEST PUSH2 0x37A6 PUSH2 0x37A1 DUP3 PUSH2 0x308A JUMP JUMPDEST PUSH2 0x378C JUMP JUMPDEST DUP3 MSTORE POP POP JUMP JUMPDEST PUSH0 DUP2 SWAP1 POP SWAP2 SWAP1 POP JUMP JUMPDEST PUSH2 0x37C6 PUSH2 0x37C1 DUP3 PUSH2 0x32F3 JUMP JUMPDEST PUSH2 0x37AC JUMP JUMPDEST DUP3 MSTORE POP POP JUMP JUMPDEST PUSH0 PUSH2 0x37D7 DUP3 DUP6 PUSH2 0x3795 JUMP JUMPDEST PUSH1 0x20 DUP3 ADD SWAP2 POP PUSH2 0x37E7 DUP3 DUP5 PUSH2 0x37B5 JUMP JUMPDEST PUSH1 0x20 DUP3 ADD SWAP2 POP DUP2 SWAP1 POP SWAP4 SWAP3 POP POP POP JUMP JUMPDEST PUSH32 0x5245454E5452414E435900000000000000000000000000000000000000000000 PUSH0 DUP3 ADD MSTORE POP JUMP JUMPDEST PUSH0 PUSH2 0x382B PUSH1 0xA DUP4 PUSH2 0x3531 JUMP JUMPDEST SWAP2 POP PUSH2 0x3836 DUP3 PUSH2 0x37F7 JUMP JUMPDEST PUSH1 0x20 DUP3 ADD SWAP1 POP SWAP2 SWAP1 POP JUMP JUMPDEST PUSH0 PUSH1 0x20 DUP3 ADD SWAP1 POP DUP2 DUP2 SUB PUSH0 DUP4 ADD MSTORE PUSH2 0x3858 DUP2 PUSH2 0x381F JUMP JUMPDEST SWAP1 POP SWAP2 SWAP1 POP JUMP JUMPDEST PUSH0 DUP2 SWAP1 POP SWAP3 SWAP2 POP POP JUMP JUMPDEST POP JUMP JUMPDEST PUSH0 PUSH2 0x3877 PUSH0 DUP4 PUSH2 0x385F JUMP JUMPDEST SWAP2 POP PUSH2 0x3882 DUP3 PUSH2 0x3869 JUMP JUMPDEST PUSH0 DUP3 ADD SWAP1 POP SWAP2 SWAP1 POP JUMP JUMPDEST PUSH0 PUSH2 0x3896 DUP3 PUSH2 0x386C JUMP JUMPDEST SWAP2 POP DUP2 SWAP1 POP SWAP2 SWAP1 POP JUMP JUMPDEST PUSH32 0x70726576696F7573206E6F7420656E6465640000000000000000000000000000 PUSH0 DUP3 ADD MSTORE POP JUMP JUMPDEST PUSH0 PUSH2 0x38D4 PUSH1 0x12 DUP4 PUSH2 0x3531 JUMP JUMPDEST SWAP2 POP PUSH2 0x38DF DUP3 PUSH2 0x38A0 JUMP JUMPDEST PUSH1 0x20 DUP3 ADD SWAP1 POP SWAP2 SWAP1 POP JUMP JUMPDEST PUSH0 PUSH1 0x20 DUP3 ADD SWAP1 POP DUP2 DUP2 SUB PUSH0 DUP4 ADD MSTORE PUSH2 0x3901 DUP2 PUSH2 0x38C8 JUMP JUMPDEST SWAP1 POP SWAP2 SWAP1 POP JUMP JUMPDEST PUSH32 0x434F4E4649473A2062616420636F6D6D6974206475726174696F6E7300000000 PUSH0 DUP3 ADD MSTORE POP JUMP JUMPDEST PUSH0 PUSH2 0x393C PUSH1 0x1C DUP4 PUSH2 0x3531 JUMP JUMPDEST SWAP2 POP PUSH2 0x3947 DUP3 PUSH2 0x3908 JUMP JUMPDEST PUSH1 0x20 DUP3 ADD SWAP1 POP SWAP2 SWAP1 POP JUMP JUMPDEST PUSH0 PUSH1 0x20 DUP3 ADD SWAP1 POP DUP2 DUP2 SUB PUSH0 DUP4 ADD MSTORE PUSH2 0x3969 DUP2 PUSH2 0x3930 JUMP JUMPDEST SWAP1 POP SWAP2 SWAP1 POP JUMP JUMPDEST PUSH32 0x434F4E4649473A206261642072657665616C206475726174696F6E7300000000 PUSH0 DUP3 ADD MSTORE POP JUMP JUMPDEST PUSH0 PUSH2 0x39A4 PUSH1 0x1C DUP4 PUSH2 0x3531 JUMP JUMPDEST SWAP2 POP PUSH2 0x39AF DUP3 PUSH2 0x3970 JUMP JUMPDEST PUSH1 0x20 DUP3 ADD SWAP1 POP SWAP2 SWAP1 POP JUMP JUMPDEST PUSH0 PUSH1 0x20 DUP3 ADD SWAP1 POP DUP2 DUP2 SUB PUSH0 DUP4 ADD MSTORE PUSH2 0x39D1 DUP2 PUSH2 0x3998 JUMP JUMPDEST SWAP1 POP SWAP2 SWAP1 POP JUMP JUMPDEST PUSH32 0x434F4E4649473A2062616420736574746C65206475726174696F6E7300000000 PUSH0 DUP3 ADD MSTORE POP JUMP JUMPDEST PUSH0 PUSH2 0x3A0C PUSH1 0x1C DUP4 PUSH2 0x3531 JUMP JUMPDEST SWAP2 POP PUSH2 0x3A17 DUP3 PUSH2 0x39D8 JUMP JUMPDEST PUSH1 0x20 DUP3 ADD SWAP1 POP SWAP2 SWAP1 POP JUMP JUMPDEST PUSH0 PUSH1 0x20 DUP3 ADD SWAP1 POP DUP2 DUP2 SUB PUSH0 DUP4 ADD MSTORE PUSH2 0x3A39 DUP2 PUSH2 0x3A00 JUMP JUMPDEST SWAP1 POP SWAP2 SWAP1 POP JUMP JUMPDEST PUSH32 0x434F4E4649473A20626164207265736572766520707269636500000000000000 PUSH0 DUP3 ADD MSTORE POP JUMP JUMPDEST PUSH0 PUSH2 0x3A74 PUSH1 0x19 DUP4 PUSH2 0x3531 JUMP JUMPDEST SWAP2 POP PUSH2 0x3A7F DUP3 PUSH2 0x3A40 JUMP JUMPDEST PUSH1 0x20 DUP3 ADD SWAP1 POP SWAP2 SWAP1 POP JUMP JUMPDEST PUSH0 PUSH1 0x20 DUP3 ADD SWAP1 POP DUP2 DUP2 SUB PUSH0 DUP4 ADD MSTORE PUSH2 0x3AA1 DUP2 PUSH2 0x3A68 JUMP JUMPDEST SWAP1 POP SWAP2 SWAP1 POP JUMP JUMPDEST PUSH0 DUP2 MLOAD SWAP1 POP PUSH2 0x3AB6 DUP2 PUSH2 0x30F3 JUMP JUMPDEST SWAP3 SWAP2 POP POP JUMP JUMPDEST PUSH0 PUSH1 0x20 DUP3 DUP5 SUB SLT ISZERO PUSH2 0x3AD1 JUMPI PUSH2 0x3AD0 PUSH2 0x30BB JUMP JUMPDEST JUMPDEST PUSH0 PUSH2 0x3ADE DUP5 DUP3 DUP6 ADD PUSH2 0x3AA8 JUMP JUMPDEST SWAP2 POP POP SWAP3 SWAP2 POP POP JUMP JUMPDEST PUSH32 0x6E6F74206F776E65720000000000000000000000000000000000000000000000 PUSH0 DUP3 ADD MSTORE POP JUMP JUMPDEST PUSH0 PUSH2 0x3B1B PUSH1 0x9 DUP4 PUSH2 0x3531 JUMP JUMPDEST SWAP2 POP PUSH2 0x3B26 DUP3 PUSH2 0x3AE7 JUMP JUMPDEST PUSH1 0x20 DUP3 ADD SWAP1 POP SWAP2 SWAP1 POP JUMP JUMPDEST PUSH0 PUSH1 0x20 DUP3 ADD SWAP1 POP DUP2 DUP2 SUB PUSH0 DUP4 ADD MSTORE PUSH2 0x3B48 DUP2 PUSH2 0x3B0F JUMP JUMPDEST SWAP1 POP SWAP2 SWAP1 POP JUMP JUMPDEST PUSH32 0x4E487B7100000000000000000000000000000000000000000000000000000000 PUSH0 MSTORE PUSH1 0x12 PUSH1 0x4 MSTORE PUSH1 0x24 PUSH0 REVERT JUMPDEST PUSH0 PUSH2 0x3B86 DUP3 PUSH2 0x308A JUMP JUMPDEST SWAP2 POP PUSH2 0x3B91 DUP4 PUSH2 0x308A JUMP JUMPDEST SWAP3 POP DUP3 PUSH2 0x3BA1 JUMPI PUSH2 0x3BA0 PUSH2 0x3B4F JUMP JUMPDEST JUMPDEST DUP3 DUP3 DIV SWAP1 POP SWAP3 SWAP2 POP POP JUMP JUMPDEST PUSH0 PUSH2 0x3BC6 PUSH2 0x3BC1 PUSH2 0x3BBC DUP5 PUSH2 0x339E JUMP JUMPDEST PUSH2 0x327F JUMP JUMPDEST PUSH2 0x308A JUMP JUMPDEST SWAP1 POP SWAP2 SWAP1 POP JUMP JUMPDEST PUSH2 0x3BD6 DUP2 PUSH2 0x3BAC JUMP JUMPDEST DUP3 MSTORE POP POP JUMP JUMPDEST PUSH0 PUSH2 0x100 DUP3 ADD SWAP1 POP PUSH2 0x3BF0 PUSH0 DUP4 ADD DUP12 PUSH2 0x338F JUMP JUMPDEST PUSH2 0x3BFD PUSH1 0x20 DUP4 ADD DUP11 PUSH2 0x3093 JUMP JUMPDEST PUSH2 0x3C0A PUSH1 0x40 DUP4 ADD DUP10 PUSH2 0x3093 JUMP JUMPDEST PUSH2 0x3C17 PUSH1 0x60 DUP4 ADD DUP9 PUSH2 0x3093 JUMP JUMPDEST PUSH2 0x3C24 PUSH1 0x80 DUP4 ADD DUP8 PUSH2 0x3BCD JUMP JUMPDEST PUSH2 0x3C31 PUSH1 0xA0 DUP4 ADD DUP7 PUSH2 0x33B1 JUMP JUMPDEST PUSH2 0x3C3E PUSH1 0xC0 DUP4 ADD DUP6 PUSH2 0x33B1 JUMP JUMPDEST PUSH2 0x3C4B PUSH1 0xE0 DUP4 ADD DUP5 PUSH2 0x33B1 JUMP JUMPDEST SWAP10 SWAP9 POP POP POP POP POP POP POP POP POP JUMP JUMPDEST PUSH32 0x4E46543A206E6F74206F776E6572000000000000000000000000000000000000 PUSH0 DUP3 ADD MSTORE POP JUMP JUMPDEST PUSH0 PUSH2 0x3C8C PUSH1 0xE DUP4 PUSH2 0x3531 JUMP JUMPDEST SWAP2 POP PUSH2 0x3C97 DUP3 PUSH2 0x3C58 JUMP JUMPDEST PUSH1 0x20 DUP3 ADD SWAP1 POP SWAP2 SWAP1 POP JUMP JUMPDEST PUSH0 PUSH1 0x20 DUP3 ADD SWAP1 POP DUP2 DUP2 SUB PUSH0 DUP4 ADD MSTORE PUSH2 0x3CB9 DUP2 PUSH2 0x3C80 JUMP JUMPDEST SWAP1 POP SWAP2 SWAP1 POP JUMP JUMPDEST PUSH0 PUSH1 0x40 DUP3 ADD SWAP1 POP PUSH2 0x3CD3 PUSH0 DUP4 ADD DUP6 PUSH2 0x338F JUMP JUMPDEST PUSH2 0x3CE0 PUSH1 0x20 DUP4 ADD DUP5 PUSH2 0x338F JUMP JUMPDEST SWAP4 SWAP3 POP POP POP JUMP JUMPDEST PUSH0 DUP2 ISZERO ISZERO SWAP1 POP SWAP2 SWAP1 POP JUMP JUMPDEST PUSH2 0x3CFB DUP2 PUSH2 0x3CE7 JUMP JUMPDEST DUP2 EQ PUSH2 0x3D05 JUMPI PUSH0 PUSH0 REVERT JUMPDEST POP JUMP JUMPDEST PUSH0 DUP2 MLOAD SWAP1 POP PUSH2 0x3D16 DUP2 PUSH2 0x3CF2 JUMP JUMPDEST SWAP3 SWAP2 POP POP JUMP JUMPDEST PUSH0 PUSH1 0x20 DUP3 DUP5 SUB SLT ISZERO PUSH2 0x3D31 JUMPI PUSH2 0x3D30 PUSH2 0x30BB JUMP JUMPDEST JUMPDEST PUSH0 PUSH2 0x3D3E DUP5 DUP3 DUP6 ADD PUSH2 0x3D08 JUMP JUMPDEST SWAP2 POP POP SWAP3 SWAP2 POP POP JUMP JUMPDEST PUSH32 0x4E46543A206E6F7420617070726F766564000000000000000000000000000000 PUSH0 DUP3 ADD MSTORE POP JUMP JUMPDEST PUSH0 PUSH2 0x3D7B PUSH1 0x11 DUP4 PUSH2 0x3531 JUMP JUMPDEST SWAP2 POP PUSH2 0x3D86 DUP3 PUSH2 0x3D47 JUMP JUMPDEST PUSH1 0x20 DUP3 ADD SWAP1 POP SWAP2 SWAP1 POP JUMP JUMPDEST PUSH0 PUSH1 0x20 DUP3 ADD SWAP1 POP DUP2 DUP2 SUB PUSH0 DUP4 ADD MSTORE PUSH2 0x3DA8 DUP2 PUSH2 0x3D6F JUMP JUMPDEST SWAP1 POP SWAP2 SWAP1 POP JUMP JUMPDEST PUSH0 PUSH1 0x60 DUP3 ADD SWAP1 POP PUSH2 0x3DC2 PUSH0 DUP4 ADD DUP7 PUSH2 0x338F JUMP JUMPDEST PUSH2 0x3DCF PUSH1 0x20 DUP4 ADD DUP6 PUSH2 0x338F JUMP JUMPDEST PUSH2 0x3DDC PUSH1 0x40 DUP4 ADD DUP5 PUSH2 0x3093 JUMP JUMPDEST SWAP5 SWAP4 POP POP POP POP JUMP INVALID LOG2 PUSH5 0x6970667358 0x22 SLT KECCAK256 SWAP13 EQ BLOCKHASH 0xD2 BLOBBASEFEE 0xDF 0xCC 0xB8 GAS 0xC5 GT 0xDC 0xC SAR DATALOADN 0xEB79 CODESIZE 0xF6 MUL DUP7 DUP3 SELFBALANCE PC 0xA5 0xCA MULMOD SAR 0x21 CALL 0xCD PUSH24 0x64736F6C634300081E003300000000000000000000000000 "
		},
		"gasEstimates": {
			"creation": {
				"codeDepositCost": "3179600",
				"executionCost": "infinite",
				"totalCost": "infinite"
			},
			"external": {
				"MAX_DURATION()": "436",
				"MAX_PRICE()": "349",
				"auctionId()": "2471",
				"classNFT()": "infinite",
				"commitBid(bytes32)": "infinite",
				"currentPhase(uint256)": "infinite",
				"finalize()": "infinite",
				"getCommitSeq(uint256,address)": "5423",
				"getCommitment(uint256,address)": "5382",
				"getDepositAmount(uint256,address)": "infinite",
				"getRevealedAmount(uint256,address)": "infinite",
				"getTimes(uint256)": "infinite",
				"getWinnerInfo(uint256)": "infinite",
				"onERC721Received(address,address,uint256,bytes)": "infinite",
				"payAndClaim()": "infinite",
				"payAndClaim(uint256)": "infinite",
				"revealBid(uint256,bytes32)": "infinite",
				"sellerReclaimNFT(uint256)": "infinite",
				"startAuction(uint256,uint256,uint64,uint64,uint64)": "infinite",
				"withdrawDeposits()": "infinite",
				"withdrawDeposits(uint256)": "infinite"
			},
			"internal": {
				"_requireActiveAuction()": "infinite",
				"_requireAuction(uint256)": "infinite",
				"_safeTransferNFT(address,address,uint256)": "infinite"
			}
		},
		"methodIdentifiers": {
			"MAX_DURATION()": "b1724b46",
			"MAX_PRICE()": "01c11d96",
			"auctionId()": "10782f8f",
			"classNFT()": "5e7721f7",
			"commitBid(bytes32)": "86a2cc27",
			"currentPhase(uint256)": "b1fb6405",
			"finalize()": "4bb278f3",
			"getCommitSeq(uint256,address)": "d3851f4c",
			"getCommitment(uint256,address)": "89fb2682",
			"getDepositAmount(uint256,address)": "de75a5c0",
			"getRevealedAmount(uint256,address)": "813abc2d",
			"getTimes(uint256)": "d3aa699e",
			"getWinnerInfo(uint256)": "6b1da364",
			"onERC721Received(address,address,uint256,bytes)": "150b7a02",
			"payAndClaim()": "e9906f2e",
			"payAndClaim(uint256)": "a0743f22",
			"revealBid(uint256,bytes32)": "62c5424a",
			"sellerReclaimNFT(uint256)": "c8f97366",
			"startAuction(uint256,uint256,uint64,uint64,uint64)": "894da478",
			"withdrawDeposits()": "7cf2ed22",
			"withdrawDeposits(uint256)": "71d946b4"
		}
	},
	"abi": [
		{
			"inputs": [],
			"name": "AuctionActive",
			"type": "error"
		},
		{
			"inputs": [],
			"name": "ExactDepositRequired",
			"type": "error"
		},
		{
			"inputs": [],
			"name": "InvalidCommitment",
			"type": "error"
		},
		{
			"inputs": [],
			"name": "InvalidRevealedPrice",
			"type": "error"
		},
		{
			"inputs": [],
			"name": "NFTNotEscrowed",
			"type": "error"
		},
		{
			"inputs": [],
			"name": "NoActiveAuction",
			"type": "error"
		},
		{
			"inputs": [],
			"name": "NoClaimable",
			"type": "error"
		},
		{
			"inputs": [],
			"name": "NoDeposit",
			"type": "error"
		},
		{
			"inputs": [],
			"name": "NoEthAllowed",
			"type": "error"
		},
		{
			"inputs": [],
			"name": "NotEnded",
			"type": "error"
		},
		{
			"inputs": [],
			"name": "NotFinalizable",
			"type": "error"
		},
		{
			"inputs": [],
			"name": "NotInCommitPhase",
			"type": "error"
		},
		{
			"inputs": [],
			"name": "NotInRevealPhase",
			"type": "error"
		},
		{
			"inputs": [],
			"name": "NotSeller",
			"type": "error"
		},
		{
			"inputs": [],
			"name": "NotWinner",
			"type": "error"
		},
		{
			"inputs": [],
			"name": "PaymentClosed",
			"type": "error"
		},
		{
			"inputs": [],
			"name": "RevealAlreadyDone",
			"type": "error"
		},
		{
			"inputs": [],
			"name": "SellerCannotBid",
			"type": "error"
		},
		{
			"inputs": [],
			"name": "WithdrawFailed",
			"type": "error"
		},
		{
			"inputs": [],
			"name": "WrongPayment",
			"type": "error"
		},
		{
			"anonymous": false,
			"inputs": [
				{
					"indexed": true,
					"internalType": "uint256",
					"name": "id",
					"type": "uint256"
				},
				{
					"indexed": true,
					"internalType": "address",
					"name": "seller",
					"type": "address"
				},
				{
					"indexed": false,
					"internalType": "address",
					"name": "nft",
					"type": "address"
				},
				{
					"indexed": false,
					"internalType": "uint256",
					"name": "tokenId",
					"type": "uint256"
				},
				{
					"indexed": false,
					"internalType": "uint256",
					"name": "reservePrice",
					"type": "uint256"
				},
				{
					"indexed": false,
					"internalType": "uint256",
					"name": "depositPrice",
					"type": "uint256"
				},
				{
					"indexed": false,
					"internalType": "uint256",
					"name": "startStamp",
					"type": "uint256"
				},
				{
					"indexed": false,
					"internalType": "uint64",
					"name": "commitEnd",
					"type": "uint64"
				},
				{
					"indexed": false,
					"internalType": "uint64",
					"name": "revealEnd",
					"type": "uint64"
				},
				{
					"indexed": false,
					"internalType": "uint64",
					"name": "settleDuration",
					"type": "uint64"
				}
			],
			"name": "AuctionStarted",
			"type": "event"
		},
		{
			"anonymous": false,
			"inputs": [
				{
					"indexed": true,
					"internalType": "uint256",
					"name": "id",
					"type": "uint256"
				},
				{
					"indexed": true,
					"internalType": "address",
					"name": "bidder",
					"type": "address"
				}
			],
			"name": "BidCommitted",
			"type": "event"
		},
		{
			"anonymous": false,
			"inputs": [
				{
					"indexed": true,
					"internalType": "uint256",
					"name": "id",
					"type": "uint256"
				},
				{
					"indexed": true,
					"internalType": "address",
					"name": "bidder",
					"type": "address"
				},
				{
					"indexed": false,
					"internalType": "uint256",
					"name": "amount",
					"type": "uint256"
				}
			],
			"name": "BidRevealed",
			"type": "event"
		},
		{
			"anonymous": false,
			"inputs": [
				{
					"indexed": true,
					"internalType": "uint256",
					"name": "id",
					"type": "uint256"
				},
				{
					"indexed": false,
					"internalType": "address",
					"name": "winner",
					"type": "address"
				},
				{
					"indexed": false,
					"internalType": "uint256",
					"name": "highest",
					"type": "uint256"
				},
				{
					"indexed": false,
					"internalType": "uint256",
					"name": "second",
					"type": "uint256"
				},
				{
					"indexed": false,
					"internalType": "uint256",
					"name": "clearingPrice",
					"type": "uint256"
				}
			],
			"name": "Finalized",
			"type": "event"
		},
		{
			"anonymous": false,
			"inputs": [
				{
					"indexed": true,
					"internalType": "uint256",
					"name": "id",
					"type": "uint256"
				}
			],
			"name": "SellerReclaimed",
			"type": "event"
		},
		{
			"anonymous": false,
			"inputs": [
				{
					"indexed": true,
					"internalType": "uint256",
					"name": "id",
					"type": "uint256"
				}
			],
			"name": "Unsold",
			"type": "event"
		},
		{
			"anonymous": false,
			"inputs": [
				{
					"indexed": true,
					"internalType": "uint256",
					"name": "id",
					"type": "uint256"
				},
				{
					"indexed": true,
					"internalType": "address",
					"name": "winner",
					"type": "address"
				},
				{
					"indexed": false,
					"internalType": "uint256",
					"name": "price",
					"type": "uint256"
				}
			],
			"name": "WinnerPaidAndClaimed",
			"type": "event"
		},
		{
			"anonymous": false,
			"inputs": [
				{
					"indexed": true,
					"internalType": "uint256",
					"name": "id",
					"type": "uint256"
				},
				{
					"indexed": true,
					"internalType": "address",
					"name": "bidder",
					"type": "address"
				}
			],
			"name": "WithDrawnDeposit",
			"type": "event"
		},
		{
			"inputs": [],
			"name": "MAX_DURATION",
			"outputs": [
				{
					"internalType": "uint256",
					"name": "",
					"type": "uint256"
				}
			],
			"stateMutability": "view",
			"type": "function"
		},
		{
			"inputs": [],
			"name": "MAX_PRICE",
			"outputs": [
				{
					"internalType": "uint256",
					"name": "",
					"type": "uint256"
				}
			],
			"stateMutability": "view",
			"type": "function"
		},
		{
			"inputs": [],
			"name": "auctionId",
			"outputs": [
				{
					"internalType": "uint256",
					"name": "",
					"type": "uint256"
				}
			],
			"stateMutability": "view",
			"type": "function"
		},
		{
			"inputs": [],
			"name": "classNFT",
			"outputs": [
				{
					"internalType": "contract IERC721",
					"name": "",
					"type": "address"
				}
			],
			"stateMutability": "view",
			"type": "function"
		},
		{
			"inputs": [
				{
					"internalType": "bytes32",
					"name": "commitment",
					"type": "bytes32"
				}
			],
			"name": "commitBid",
			"outputs": [],
			"stateMutability": "payable",
			"type": "function"
		},
		{
			"inputs": [
				{
					"internalType": "uint256",
					"name": "id",
					"type": "uint256"
				}
			],
			"name": "currentPhase",
			"outputs": [
				{
					"internalType": "string",
					"name": "",
					"type": "string"
				}
			],
			"stateMutability": "view",
			"type": "function"
		},
		{
			"inputs": [],
			"name": "finalize",
			"outputs": [],
			"stateMutability": "nonpayable",
			"type": "function"
		},
		{
			"inputs": [
				{
					"internalType": "uint256",
					"name": "id",
					"type": "uint256"
				},
				{
					"internalType": "address",
					"name": "bidder",
					"type": "address"
				}
			],
			"name": "getCommitSeq",
			"outputs": [
				{
					"internalType": "uint64",
					"name": "",
					"type": "uint64"
				}
			],
			"stateMutability": "view",
			"type": "function"
		},
		{
			"inputs": [
				{
					"internalType": "uint256",
					"name": "id",
					"type": "uint256"
				},
				{
					"internalType": "address",
					"name": "bidder",
					"type": "address"
				}
			],
			"name": "getCommitment",
			"outputs": [
				{
					"internalType": "bytes32",
					"name": "",
					"type": "bytes32"
				}
			],
			"stateMutability": "view",
			"type": "function"
		},
		{
			"inputs": [
				{
					"internalType": "uint256",
					"name": "id",
					"type": "uint256"
				},
				{
					"internalType": "address",
					"name": "bidder",
					"type": "address"
				}
			],
			"name": "getDepositAmount",
			"outputs": [
				{
					"internalType": "uint256",
					"name": "",
					"type": "uint256"
				}
			],
			"stateMutability": "view",
			"type": "function"
		},
		{
			"inputs": [
				{
					"internalType": "uint256",
					"name": "id",
					"type": "uint256"
				},
				{
					"internalType": "address",
					"name": "bidder",
					"type": "address"
				}
			],
			"name": "getRevealedAmount",
			"outputs": [
				{
					"internalType": "uint256",
					"name": "",
					"type": "uint256"
				}
			],
			"stateMutability": "view",
			"type": "function"
		},
		{
			"inputs": [
				{
					"internalType": "uint256",
					"name": "id",
					"type": "uint256"
				}
			],
			"name": "getTimes",
			"outputs": [
				{
					"internalType": "uint64",
					"name": "startStamp",
					"type": "uint64"
				},
				{
					"internalType": "uint64",
					"name": "commitEnd",
					"type": "uint64"
				},
				{
					"internalType": "uint64",
					"name": "revealEnd",
					"type": "uint64"
				},
				{
					"internalType": "uint64",
					"name": "settleDeadline",
					"type": "uint64"
				}
			],
			"stateMutability": "view",
			"type": "function"
		},
		{
			"inputs": [
				{
					"internalType": "uint256",
					"name": "id",
					"type": "uint256"
				}
			],
			"name": "getWinnerInfo",
			"outputs": [
				{
					"internalType": "address",
					"name": "winner",
					"type": "address"
				},
				{
					"internalType": "uint256",
					"name": "price",
					"type": "uint256"
				},
				{
					"internalType": "uint64",
					"name": "payDeadline",
					"type": "uint64"
				}
			],
			"stateMutability": "view",
			"type": "function"
		},
		{
			"inputs": [
				{
					"internalType": "address",
					"name": "",
					"type": "address"
				},
				{
					"internalType": "address",
					"name": "",
					"type": "address"
				},
				{
					"internalType": "uint256",
					"name": "",
					"type": "uint256"
				},
				{
					"internalType": "bytes",
					"name": "",
					"type": "bytes"
				}
			],
			"name": "onERC721Received",
			"outputs": [
				{
					"internalType": "bytes4",
					"name": "",
					"type": "bytes4"
				}
			],
			"stateMutability": "pure",
			"type": "function"
		},
		{
			"inputs": [
				{
					"internalType": "uint256",
					"name": "id",
					"type": "uint256"
				}
			],
			"name": "payAndClaim",
			"outputs": [],
			"stateMutability": "payable",
			"type": "function"
		},
		{
			"inputs": [],
			"name": "payAndClaim",
			"outputs": [],
			"stateMutability": "payable",
			"type": "function"
		},
		{
			"inputs": [
				{
					"internalType": "uint256",
					"name": "amount",
					"type": "uint256"
				},
				{
					"internalType": "bytes32",
					"name": "salt",
					"type": "bytes32"
				}
			],
			"name": "revealBid",
			"outputs": [],
			"stateMutability": "nonpayable",
			"type": "function"
		},
		{
			"inputs": [
				{
					"internalType": "uint256",
					"name": "id",
					"type": "uint256"
				}
			],
			"name": "sellerReclaimNFT",
			"outputs": [],
			"stateMutability": "nonpayable",
			"type": "function"
		},
		{
			"inputs": [
				{
					"internalType": "uint256",
					"name": "tokenId",
					"type": "uint256"
				},
				{
					"internalType": "uint256",
					"name": "reservePrice",
					"type": "uint256"
				},
				{
					"internalType": "uint64",
					"name": "commitDurationSeconds",
					"type": "uint64"
				},
				{
					"internalType": "uint64",
					"name": "revealDurationSeconds",
					"type": "uint64"
				},
				{
					"internalType": "uint64",
					"name": "settleDurationSeconds",
					"type": "uint64"
				}
			],
			"name": "startAuction",
			"outputs": [],
			"stateMutability": "nonpayable",
			"type": "function"
		},
		{
			"inputs": [
				{
					"internalType": "uint256",
					"name": "id",
					"type": "uint256"
				}
			],
			"name": "withdrawDeposits",
			"outputs": [],
			"stateMutability": "nonpayable",
			"type": "function"
		},
		{
			"inputs": [],
			"name": "withdrawDeposits",
			"outputs": [],
			"stateMutability": "nonpayable",
			"type": "function"
		}
	]
}