{
	"data": {
		"bytecode": {
			"linkReferences": {},
			"object": "60a060405260015f55348015610013575f5ffd5b50604051612f1b380380612f1b8339818101604052810190610035919061013b565b5f73ffffffffffffffffffffffffffffffffffffffff168173ffffffffffffffffffffffffffffffffffffffff16036100a3576040517f08c379a000000000000000000000000000000000000000000000000000000000815260040161009a906101c0565b60405180910390fd5b8073ffffffffffffffffffffffffffffffffffffffff1660808173ffffffffffffffffffffffffffffffffffffffff1681525050506101de565b5f5ffd5b5f73ffffffffffffffffffffffffffffffffffffffff82169050919050565b5f61010a826100e1565b9050919050565b61011a81610100565b8114610124575f5ffd5b50565b5f8151905061013581610111565b92915050565b5f602082840312156101505761014f6100dd565b5b5f61015d84828501610127565b91505092915050565b5f82825260208201905092915050565b7f626164204e4654000000000000000000000000000000000000000000000000005f82015250565b5f6101aa600783610166565b91506101b582610176565b602082019050919050565b5f6020820190508181035f8301526101d78161019e565b9050919050565b608051612cfb6102205f395f8181610896015281816111d8015281816112dd015281816113920152818161146c0152818161152401526116f30152612cfb5ff3fe6080604052600436106100fd575f3560e01c806386a2cc2711610094578063b1724b4611610063578063b1724b4614610315578063b1fb64051461033f578063cdf91dae1461037b578063d3aa699e146103a5578063e9906f2e146103e3576100fd565b806386a2cc271461024d578063894da4781461027557806389fb26821461029d5780638f3708e8146102d9576100fd565b80635e7721f7116100d05780635e7721f71461018157806362c5424a146101ab5780636b1da364146101d3578063813abc2d14610211576100fd565b806301c11d961461010157806310782f8f1461012b5780634bb278f3146101555780635df6ff9d1461016b575b5f5ffd5b34801561010c575f5ffd5b506101156103ed565b604051610122919061210f565b60405180910390f35b348015610136575f5ffd5b5061013f6103fd565b60405161014c919061210f565b60405180910390f35b348015610160575f5ffd5b50610169610403565b005b348015610176575f5ffd5b5061017f6106ba565b005b34801561018c575f5ffd5b50610195610894565b6040516101a291906121a2565b60405180910390f35b3480156101b6575f5ffd5b506101d160048036038101906101cc919061221c565b6108b8565b005b3480156101de575f5ffd5b506101f960048036038101906101f4919061225a565b610d1d565b604051610208939291906122c7565b60405180910390f35b34801561021c575f5ffd5b5061023760048036038101906102329190612326565b610d7c565b604051610244919061210f565b60405180910390f35b348015610258575f5ffd5b50610273600480360381019061026e9190612364565b610dd2565b005b348015610280575f5ffd5b5061029b600480360381019061029691906123b9565b61102b565b005b3480156102a8575f5ffd5b506102c360048036038101906102be9190612326565b6117f1565b6040516102d0919061243f565b60405180910390f35b3480156102e4575f5ffd5b506102ff60048036038101906102fa9190612326565b611847565b60405161030c9190612458565b60405180910390f35b348015610320575f5ffd5b506103296118b0565b604051610336919061210f565b60405180910390f35b34801561034a575f5ffd5b506103656004803603810190610360919061225a565b6118b7565b60405161037291906124e1565b60405180910390f35b348015610386575f5ffd5b5061038f611b7d565b60405161039c919061210f565b60405180910390f35b3480156103b0575f5ffd5b506103cb60048036038101906103c6919061225a565b611b88565b6040516103da93929190612501565b60405180910390f35b6103eb611bef565b005b6b033b2e3c9fd0803ce800000081565b60015481565b5f61040c611f23565b90508060050160109054906101000a900467ffffffffffffffff1667ffffffffffffffff16421015610469576040517ee8f46600000000000000000000000000000000000000000000000000000000815260040160405180910390fd5b80600a015f9054906101000a900460ff16156104ba576040517f08c379a00000000000000000000000000000000000000000000000000000000081526004016104b190612580565b60405180910390fd5b5f73ffffffffffffffffffffffffffffffffffffffff168160060160089054906101000a900473ffffffffffffffffffffffffffffffffffffffff1673ffffffffffffffffffffffffffffffffffffffff16036105bb57600181600a015f6101000a81548160ff021916908315150217905550600181600a0160016101000a81548160ff0219169083151502179055505f81600901819055506105868130836002015f9054906101000a900473ffffffffffffffffffffffffffffffffffffffff168460010154611fc4565b6001547fa761d07fdb0a6897f18726f15d43008d6c30ce08e44a91775cfd2ef3b61cdad060405160405180910390a2506106b8565b5f8160080154905081600301548110156105d757816003015490505b808260090181905550600182600a015f6101000a81548160ff0219169083151502179055508160050160189054906101000a900467ffffffffffffffff164261062091906125cb565b826006015f6101000a81548167ffffffffffffffff021916908367ffffffffffffffff1602179055506001547f5ab4254a16d8f1486e035342f3b6736a5efdc0b79886e7525b374bb0ec9ebee18360060160089054906101000a900473ffffffffffffffffffffffffffffffffffffffff1684600701548560080154856040516106ad9493929190612606565b60405180910390a250505b565b5f6106c3611f23565b905080600a015f9054906101000a900460ff1615806106f0575080600a0160019054906101000a900460ff165b15610727576040517fd3018d1800000000000000000000000000000000000000000000000000000000815260040160405180910390fd5b806002015f9054906101000a900473ffffffffffffffffffffffffffffffffffffffff1673ffffffffffffffffffffffffffffffffffffffff163373ffffffffffffffffffffffffffffffffffffffff16146107af576040517f5ec8235100000000000000000000000000000000000000000000000000000000815260040160405180910390fd5b806006015f9054906101000a900467ffffffffffffffff1667ffffffffffffffff164211610812576040517f08c379a000000000000000000000000000000000000000000000000000000000815260040161080990612693565b60405180910390fd5b600181600a0160016101000a81548160ff0219169083151502179055506108628130836002015f9054906101000a900473ffffffffffffffffffffffffffffffffffffffff168460010154611fc4565b6001547f55c90d9726ff7562e2dda9743c070ab007dd986e4c0a42bcf578362c435a4d8960405160405180910390a250565b7f000000000000000000000000000000000000000000000000000000000000000081565b5f6108c1611f23565b90505f4290508160050160089054906101000a900467ffffffffffffffff1667ffffffffffffffff1681108061091957508160050160109054906101000a900467ffffffffffffffff1667ffffffffffffffff168110155b15610950576040517f74683d7100000000000000000000000000000000000000000000000000000000815260040160405180910390fd5b5f82600e015f3373ffffffffffffffffffffffffffffffffffffffff1673ffffffffffffffffffffffffffffffffffffffff1681526020019081526020015f2054146109c8576040517f157330ee00000000000000000000000000000000000000000000000000000000815260040160405180910390fd5b5f82600b015f3373ffffffffffffffffffffffffffffffffffffffff1673ffffffffffffffffffffffffffffffffffffffff1681526020019081526020015f205490505f5f1b8103610a46576040517fc06789fa00000000000000000000000000000000000000000000000000000000815260040160405180910390fd5b808585604051602001610a5a9291906126f1565b6040516020818303038152906040528051906020012014610aa7576040517fc06789fa00000000000000000000000000000000000000000000000000000000815260040160405180910390fd5b8483600e015f3373ffffffffffffffffffffffffffffffffffffffff1673ffffffffffffffffffffffffffffffffffffffff1681526020019081526020015f208190555082600301548510610cc5578260070154851180610bf25750826007015485148015610bf1575082600c015f8460060160089054906101000a900473ffffffffffffffffffffffffffffffffffffffff1673ffffffffffffffffffffffffffffffffffffffff1673ffffffffffffffffffffffffffffffffffffffff1681526020019081526020015f205f9054906101000a900467ffffffffffffffff1667ffffffffffffffff1683600c015f3373ffffffffffffffffffffffffffffffffffffffff1673ffffffffffffffffffffffffffffffffffffffff1681526020019081526020015f205f9054906101000a900467ffffffffffffffff1667ffffffffffffffff16105b5b15610cad575f73ffffffffffffffffffffffffffffffffffffffff168360060160089054906101000a900473ffffffffffffffffffffffffffffffffffffffff1673ffffffffffffffffffffffffffffffffffffffff1614610c5c57826007015483600801819055505b848360070181905550338360060160086101000a81548173ffffffffffffffffffffffffffffffffffffffff021916908373ffffffffffffffffffffffffffffffffffffffff160217905550610cc4565b8260080154851115610cc3578483600801819055505b5b5b3373ffffffffffffffffffffffffffffffffffffffff166001547f86d2fbc9069d34216ebc65b38ce840528d3f8cac0c86d2aaa7ab6a9db8bc35d387604051610d0e919061210f565b60405180910390a35050505050565b5f5f5f5f610d2a85612056565b90508060060160089054906101000a900473ffffffffffffffffffffffffffffffffffffffff168160090154826006015f9054906101000a900467ffffffffffffffff16935093509350509193909250565b5f5f610d8784612056565b905080600e015f8473ffffffffffffffffffffffffffffffffffffffff1673ffffffffffffffffffffffffffffffffffffffff1681526020019081526020015f205491505092915050565b5f610ddb611f23565b90508060050160089054906101000a900467ffffffffffffffff1667ffffffffffffffff1642101580610e2e5750806005015f9054906101000a900467ffffffffffffffff1667ffffffffffffffff1642105b15610e65576040517fabfb7dc300000000000000000000000000000000000000000000000000000000815260040160405180910390fd5b5f5f1b81600b015f3373ffffffffffffffffffffffffffffffffffffffff1673ffffffffffffffffffffffffffffffffffffffff1681526020019081526020015f205403610f38575f5f1b81600b015f3373ffffffffffffffffffffffffffffffffffffffff1673ffffffffffffffffffffffffffffffffffffffff1681526020019081526020015f20819055505f81600d015f3373ffffffffffffffffffffffffffffffffffffffff1673ffffffffffffffffffffffffffffffffffffffff1681526020019081526020015f20819055505b8181600b015f3373ffffffffffffffffffffffffffffffffffffffff1673ffffffffffffffffffffffffffffffffffffffff1681526020019081526020015f20819055504281600c015f3373ffffffffffffffffffffffffffffffffffffffff1673ffffffffffffffffffffffffffffffffffffffff1681526020019081526020015f205f6101000a81548167ffffffffffffffff021916908367ffffffffffffffff1602179055503373ffffffffffffffffffffffffffffffffffffffff166001547f0934ea4de468dcd0d9a335c5f97aa77955310c29631c93fbd01d95a00242ec4160405160405180910390a35050565b5f6001541461109d575f60025f60015481526020019081526020015f20905080600a0160019054906101000a900460ff1661109b576040517f08c379a000000000000000000000000000000000000000000000000000000000815260040161109290612766565b60405180910390fd5b505b5f8367ffffffffffffffff161180156110c2575062278d008367ffffffffffffffff16105b611101576040517f08c379a00000000000000000000000000000000000000000000000000000000081526004016110f8906127ce565b60405180910390fd5b5f8267ffffffffffffffff16118015611126575062278d008267ffffffffffffffff16105b611165576040517f08c379a000000000000000000000000000000000000000000000000000000000815260040161115c90612836565b60405180910390fd5b5f841015801561118057506b033b2e3c9fd0803ce800000084105b6111bf576040517f08c379a00000000000000000000000000000000000000000000000000000000081526004016111b69061289e565b60405180910390fd5b3373ffffffffffffffffffffffffffffffffffffffff167f000000000000000000000000000000000000000000000000000000000000000073ffffffffffffffffffffffffffffffffffffffff16636352211e876040518263ffffffff1660e01b815260040161122f919061210f565b602060405180830381865afa15801561124a573d5f5f3e3d5ffd5b505050506040513d601f19601f8201168201806040525081019061126e91906128d0565b73ffffffffffffffffffffffffffffffffffffffff16146112c4576040517f08c379a00000000000000000000000000000000000000000000000000000000081526004016112bb90612945565b60405180910390fd5b3073ffffffffffffffffffffffffffffffffffffffff167f000000000000000000000000000000000000000000000000000000000000000073ffffffffffffffffffffffffffffffffffffffff1663081812fc876040518263ffffffff1660e01b8152600401611334919061210f565b602060405180830381865afa15801561134f573d5f5f3e3d5ffd5b505050506040513d601f19601f8201168201806040525081019061137391906128d0565b73ffffffffffffffffffffffffffffffffffffffff16148061142b57507f000000000000000000000000000000000000000000000000000000000000000073ffffffffffffffffffffffffffffffffffffffff1663e985e9c533306040518363ffffffff1660e01b81526004016113eb929190612963565b602060405180830381865afa158015611406573d5f5f3e3d5ffd5b505050506040513d601f19601f8201168201806040525081019061142a91906129bf565b5b61146a576040517f08c379a000000000000000000000000000000000000000000000000000000000815260040161146190612a34565b60405180910390fd5b7f000000000000000000000000000000000000000000000000000000000000000073ffffffffffffffffffffffffffffffffffffffff166323b872dd3330886040518463ffffffff1660e01b81526004016114c793929190612a52565b5f604051808303815f87803b1580156114de575f5ffd5b505af11580156114f0573d5f5f3e3d5ffd5b505050506001805f8282546115059190612a87565b925050819055505f60025f60015481526020019081526020015f2090507f0000000000000000000000000000000000000000000000000000000000000000815f015f6101000a81548173ffffffffffffffffffffffffffffffffffffffff021916908373ffffffffffffffffffffffffffffffffffffffff16021790555085816001018190555033816002015f6101000a81548173ffffffffffffffffffffffffffffffffffffffff021916908373ffffffffffffffffffffffffffffffffffffffff1602179055508481600301819055505f42905080826005015f6101000a81548167ffffffffffffffff021916908367ffffffffffffffff160217905550848161161191906125cb565b8260050160086101000a81548167ffffffffffffffff021916908367ffffffffffffffff160217905550838260050160089054906101000a900467ffffffffffffffff1661165f91906125cb565b8260050160106101000a81548167ffffffffffffffff021916908367ffffffffffffffff160217905550828260050160186101000a81548167ffffffffffffffff021916908367ffffffffffffffff160217905550662386f26fc10000600a876116c99190612ae7565b106116db57662386f26fc100006116e9565b600a866116e89190612ae7565b5b82600401819055507f000000000000000000000000000000000000000000000000000000000000000073ffffffffffffffffffffffffffffffffffffffff163373ffffffffffffffffffffffffffffffffffffffff166001547f086b19d6a6b02147fc1e9f2538ae5b1ff124ee6827666573f5f59710a6bd5ebb8a8a8760040154886005015f9054906101000a900467ffffffffffffffff168960050160089054906101000a900467ffffffffffffffff168a60050160109054906101000a900467ffffffffffffffff168b60050160189054906101000a900467ffffffffffffffff166040516117e09796959493929190612b47565b60405180910390a450505050505050565b5f5f6117fc84612056565b905080600b015f8473ffffffffffffffffffffffffffffffffffffffff1673ffffffffffffffffffffffffffffffffffffffff1681526020019081526020015f205491505092915050565b5f5f61185284612056565b905080600c015f8473ffffffffffffffffffffffffffffffffffffffff1673ffffffffffffffffffffffffffffffffffffffff1681526020019081526020015f205f9054906101000a900467ffffffffffffffff1691505092915050565b62278d0081565b60605f6118c383612056565b90505f4290508160050160089054906101000a900467ffffffffffffffff1667ffffffffffffffff16811015611932576040518060400160405280600681526020017f434f4d4d4954000000000000000000000000000000000000000000000000000081525092505050611b78565b8160050160109054906101000a900467ffffffffffffffff1667ffffffffffffffff1681101561199b576040518060400160405280600681526020017f52455645414c000000000000000000000000000000000000000000000000000081525092505050611b78565b81600a015f9054906101000a900460ff166119ef576040518060400160405280601081526020017f46494e414c495a455f50454e44494e470000000000000000000000000000000081525092505050611b78565b81600a015f9054906101000a900460ff168015611a1b575081600a0160019054906101000a900460ff16155b8015611a7757505f73ffffffffffffffffffffffffffffffffffffffff168260060160089054906101000a900473ffffffffffffffffffffffffffffffffffffffff1673ffffffffffffffffffffffffffffffffffffffff1614155b8015611aa45750816006015f9054906101000a900467ffffffffffffffff1667ffffffffffffffff168111155b15611ae8576040518060400160405280600d81526020017f41574149545f5041594d454e540000000000000000000000000000000000000081525092505050611b78565b81600a0160019054906101000a900460ff16611b3d576040518060400160405280600f81526020017f534554544c454d454e545f4f50454e000000000000000000000000000000000081525092505050611b78565b6040518060400160405280600581526020017f454e444544000000000000000000000000000000000000000000000000000000815250925050505b919050565b662386f26fc1000081565b5f5f5f5f611b9585612056565b90508060050160089054906101000a900467ffffffffffffffff168160050160109054906101000a900467ffffffffffffffff16826006015f9054906101000a900467ffffffffffffffff16935093509350509193909250565b60025f5403611c33576040517f08c379a0000000000000000000000000000000000000000000000000000000008152600401611c2a90612bfe565b60405180910390fd5b60025f819055505f611c43611f23565b905080600a015f9054906101000a900460ff161580611c7757506001151581600a0160019054906101000a900460ff161515145b15611cae576040517fd3018d1800000000000000000000000000000000000000000000000000000000815260040160405180910390fd5b3373ffffffffffffffffffffffffffffffffffffffff168160060160089054906101000a900473ffffffffffffffffffffffffffffffffffffffff1673ffffffffffffffffffffffffffffffffffffffff1614611d37576040517f618c724200000000000000000000000000000000000000000000000000000000815260040160405180910390fd5b806006015f9054906101000a900467ffffffffffffffff1667ffffffffffffffff16421115611d92576040517f58459e8800000000000000000000000000000000000000000000000000000000815260040160405180910390fd5b80600901543414611dcf576040517f788a686f00000000000000000000000000000000000000000000000000000000815260040160405180910390fd5b600181600a0160016101000a81548160ff0219169083151502179055505f816002015f9054906101000a900473ffffffffffffffffffffffffffffffffffffffff1673ffffffffffffffffffffffffffffffffffffffff1634604051611e3490612c49565b5f6040518083038185875af1925050503d805f8114611e6e576040519150601f19603f3d011682016040523d82523d5f602084013e611e73565b606091505b5050905080611eb7576040517f08c379a0000000000000000000000000000000000000000000000000000000008152600401611eae90612ca7565b60405180910390fd5b611ec78230338560010154611fc4565b3373ffffffffffffffffffffffffffffffffffffffff166001547fd33ef6ab06e6bf8672161aa6abe1ec1791c393d62213ebd89c67f611e538e57534604051611f10919061210f565b60405180910390a3505060015f81905550565b5f60025f60015481526020019081526020015f2090505f73ffffffffffffffffffffffffffffffffffffffff16816002015f9054906101000a900473ffffffffffffffffffffffffffffffffffffffff1673ffffffffffffffffffffffffffffffffffffffff1603611fc1576040517f568ca25700000000000000000000000000000000000000000000000000000000815260040160405180910390fd5b90565b835f015f9054906101000a900473ffffffffffffffffffffffffffffffffffffffff1673ffffffffffffffffffffffffffffffffffffffff166323b872dd8484846040518463ffffffff1660e01b815260040161202393929190612a52565b5f604051808303815f87803b15801561203a575f5ffd5b505af115801561204c573d5f5f3e3d5ffd5b5050505050505050565b5f60025f8381526020019081526020015f2090505f73ffffffffffffffffffffffffffffffffffffffff16816002015f9054906101000a900473ffffffffffffffffffffffffffffffffffffffff1673ffffffffffffffffffffffffffffffffffffffff16036120f2576040517f568ca25700000000000000000000000000000000000000000000000000000000815260040160405180910390fd5b919050565b5f819050919050565b612109816120f7565b82525050565b5f6020820190506121225f830184612100565b92915050565b5f73ffffffffffffffffffffffffffffffffffffffff82169050919050565b5f819050919050565b5f61216a61216561216084612128565b612147565b612128565b9050919050565b5f61217b82612150565b9050919050565b5f61218c82612171565b9050919050565b61219c81612182565b82525050565b5f6020820190506121b55f830184612193565b92915050565b5f5ffd5b6121c8816120f7565b81146121d2575f5ffd5b50565b5f813590506121e3816121bf565b92915050565b5f819050919050565b6121fb816121e9565b8114612205575f5ffd5b50565b5f81359050612216816121f2565b92915050565b5f5f60408385031215612232576122316121bb565b5b5f61223f858286016121d5565b925050602061225085828601612208565b9150509250929050565b5f6020828403121561226f5761226e6121bb565b5b5f61227c848285016121d5565b91505092915050565b5f61228f82612128565b9050919050565b61229f81612285565b82525050565b5f67ffffffffffffffff82169050919050565b6122c1816122a5565b82525050565b5f6060820190506122da5f830186612296565b6122e76020830185612100565b6122f460408301846122b8565b949350505050565b61230581612285565b811461230f575f5ffd5b50565b5f81359050612320816122fc565b92915050565b5f5f6040838503121561233c5761233b6121bb565b5b5f612349858286016121d5565b925050602061235a85828601612312565b9150509250929050565b5f60208284031215612379576123786121bb565b5b5f61238684828501612208565b91505092915050565b612398816122a5565b81146123a2575f5ffd5b50565b5f813590506123b38161238f565b92915050565b5f5f5f5f5f60a086880312156123d2576123d16121bb565b5b5f6123df888289016121d5565b95505060206123f0888289016121d5565b9450506040612401888289016123a5565b9350506060612412888289016123a5565b9250506080612423888289016123a5565b9150509295509295909350565b612439816121e9565b82525050565b5f6020820190506124525f830184612430565b92915050565b5f60208201905061246b5f8301846122b8565b92915050565b5f81519050919050565b5f82825260208201905092915050565b8281835e5f83830152505050565b5f601f19601f8301169050919050565b5f6124b382612471565b6124bd818561247b565b93506124cd81856020860161248b565b6124d681612499565b840191505092915050565b5f6020820190508181035f8301526124f981846124a9565b905092915050565b5f6060820190506125145f8301866122b8565b61252160208301856122b8565b61252e60408301846122b8565b949350505050565b7f616c72656164792066696e616c697a65640000000000000000000000000000005f82015250565b5f61256a60118361247b565b915061257582612536565b602082019050919050565b5f6020820190508181035f8301526125978161255e565b9050919050565b7f4e487b71000000000000000000000000000000000000000000000000000000005f52601160045260245ffd5b5f6125d5826122a5565b91506125e0836122a5565b9250828201905067ffffffffffffffff811115612600576125ff61259e565b5b92915050565b5f6080820190506126195f830187612296565b6126266020830186612100565b6126336040830185612100565b6126406060830184612100565b95945050505050565b7f7374696c6c2070617961626c652077696e646f770000000000000000000000005f82015250565b5f61267d60148361247b565b915061268882612649565b602082019050919050565b5f6020820190508181035f8301526126aa81612671565b9050919050565b5f819050919050565b6126cb6126c6826120f7565b6126b1565b82525050565b5f819050919050565b6126eb6126e6826121e9565b6126d1565b82525050565b5f6126fc82856126ba565b60208201915061270c82846126da565b6020820191508190509392505050565b7f70726576696f7573206e6f7420736574746c65640000000000000000000000005f82015250565b5f61275060148361247b565b915061275b8261271c565b602082019050919050565b5f6020820190508181035f83015261277d81612744565b9050919050565b7f434f4e4649473a2062616420636f6d6d6974206475726174696f6e73000000005f82015250565b5f6127b8601c8361247b565b91506127c382612784565b602082019050919050565b5f6020820190508181035f8301526127e5816127ac565b9050919050565b7f434f4e4649473a206261642072657665616c206475726174696f6e73000000005f82015250565b5f612820601c8361247b565b915061282b826127ec565b602082019050919050565b5f6020820190508181035f83015261284d81612814565b9050919050565b7f434f4e4649473a206261642072657365727665207072696365000000000000005f82015250565b5f61288860198361247b565b915061289382612854565b602082019050919050565b5f6020820190508181035f8301526128b58161287c565b9050919050565b5f815190506128ca816122fc565b92915050565b5f602082840312156128e5576128e46121bb565b5b5f6128f2848285016128bc565b91505092915050565b7f4e46543a206e6f74206f776e65720000000000000000000000000000000000005f82015250565b5f61292f600e8361247b565b915061293a826128fb565b602082019050919050565b5f6020820190508181035f83015261295c81612923565b9050919050565b5f6040820190506129765f830185612296565b6129836020830184612296565b9392505050565b5f8115159050919050565b61299e8161298a565b81146129a8575f5ffd5b50565b5f815190506129b981612995565b92915050565b5f602082840312156129d4576129d36121bb565b5b5f6129e1848285016129ab565b91505092915050565b7f4e46543a206e6f7420617070726f7665640000000000000000000000000000005f82015250565b5f612a1e60118361247b565b9150612a29826129ea565b602082019050919050565b5f6020820190508181035f830152612a4b81612a12565b9050919050565b5f606082019050612a655f830186612296565b612a726020830185612296565b612a7f6040830184612100565b949350505050565b5f612a91826120f7565b9150612a9c836120f7565b9250828201905080821115612ab457612ab361259e565b5b92915050565b7f4e487b71000000000000000000000000000000000000000000000000000000005f52601260045260245ffd5b5f612af1826120f7565b9150612afc836120f7565b925082612b0c57612b0b612aba565b5b828204905092915050565b5f612b31612b2c612b27846122a5565b612147565b6120f7565b9050919050565b612b4181612b17565b82525050565b5f60e082019050612b5a5f83018a612100565b612b676020830189612100565b612b746040830188612100565b612b816060830187612b38565b612b8e60808301866122b8565b612b9b60a08301856122b8565b612ba860c08301846122b8565b98975050505050505050565b7f5245454e5452414e4359000000000000000000000000000000000000000000005f82015250565b5f612be8600a8361247b565b9150612bf382612bb4565b602082019050919050565b5f6020820190508181035f830152612c1581612bdc565b9050919050565b5f81905092915050565b50565b5f612c345f83612c1c565b9150612c3f82612c26565b5f82019050919050565b5f612c5382612c29565b9150819050919050565b7f7061792073656c6c6572206661696c65640000000000000000000000000000005f82015250565b5f612c9160118361247b565b9150612c9c82612c5d565b602082019050919050565b5f6020820190508181035f830152612cbe81612c85565b905091905056fea2646970667358221220de921d90ae991527e893c0151b4cf99aa602bb044dba22d9599a2019a75167c064736f6c634300081e0033",
			"opcodes": "PUSH1 0xA0 PUSH1 0x40 MSTORE PUSH1 0x1 PUSH0 SSTORE CALLVALUE DUP1 ISZERO PUSH2 0x13 JUMPI PUSH0 PUSH0 REVERT JUMPDEST POP PUSH1 0x40 MLOAD PUSH2 0x2F1B CODESIZE SUB DUP1 PUSH2 0x2F1B DUP4 CODECOPY DUP2 DUP2 ADD PUSH1 0x40 MSTORE DUP2 ADD SWAP1 PUSH2 0x35 SWAP2 SWAP1 PUSH2 0x13B JUMP JUMPDEST PUSH0 PUSH20 0xFFFFFFFFFFFFFFFFFFFFFFFFFFFFFFFFFFFFFFFF AND DUP2 PUSH20 0xFFFFFFFFFFFFFFFFFFFFFFFFFFFFFFFFFFFFFFFF AND SUB PUSH2 0xA3 JUMPI PUSH1 0x40 MLOAD PUSH32 0x8C379A000000000000000000000000000000000000000000000000000000000 DUP2 MSTORE PUSH1 0x4 ADD PUSH2 0x9A SWAP1 PUSH2 0x1C0 JUMP JUMPDEST PUSH1 0x40 MLOAD DUP1 SWAP2 SUB SWAP1 REVERT JUMPDEST DUP1 PUSH20 0xFFFFFFFFFFFFFFFFFFFFFFFFFFFFFFFFFFFFFFFF AND PUSH1 0x80 DUP2 PUSH20 0xFFFFFFFFFFFFFFFFFFFFFFFFFFFFFFFFFFFFFFFF AND DUP2 MSTORE POP POP POP PUSH2 0x1DE JUMP JUMPDEST PUSH0 PUSH0 REVERT JUMPDEST PUSH0 PUSH20 0xFFFFFFFFFFFFFFFFFFFFFFFFFFFFFFFFFFFFFFFF DUP3 AND SWAP1 POP SWAP2 SWAP1 POP JUMP JUMPDEST PUSH0 PUSH2 0x10A DUP3 PUSH2 0xE1 JUMP JUMPDEST SWAP1 POP SWAP2 SWAP1 POP JUMP JUMPDEST PUSH2 0x11A DUP2 PUSH2 0x100 JUMP JUMPDEST DUP2 EQ PUSH2 0x124 JUMPI PUSH0 PUSH0 REVERT JUMPDEST POP JUMP JUMPDEST PUSH0 DUP2 MLOAD SWAP1 POP PUSH2 0x135 DUP2 PUSH2 0x111 JUMP JUMPDEST SWAP3 SWAP2 POP POP JUMP JUMPDEST PUSH0 PUSH1 0x20 DUP3 DUP5 SUB SLT ISZERO PUSH2 0x150 JUMPI PUSH2 0x14F PUSH2 0xDD JUMP JUMPDEST JUMPDEST PUSH0 PUSH2 0x15D DUP5 DUP3 DUP6 ADD PUSH2 0x127 JUMP JUMPDEST SWAP2 POP POP SWAP3 SWAP2 POP POP JUMP JUMPDEST PUSH0 DUP3 DUP3 MSTORE PUSH1 0x20 DUP3 ADD SWAP1 POP SWAP3 SWAP2 POP POP JUMP JUMPDEST PUSH32 0x626164204E465400000000000000000000000000000000000000000000000000 PUSH0 DUP3 ADD MSTORE POP JUMP JUMPDEST PUSH0 PUSH2 0x1AA PUSH1 0x7 DUP4 PUSH2 0x166 JUMP JUMPDEST SWAP2 POP PUSH2 0x1B5 DUP3 PUSH2 0x176 JUMP JUMPDEST PUSH1 0x20 DUP3 ADD SWAP1 POP SWAP2 SWAP1 POP JUMP JUMPDEST PUSH0 PUSH1 0x20 DUP3 ADD SWAP1 POP DUP2 DUP2 SUB PUSH0 DUP4 ADD MSTORE PUSH2 0x1D7 DUP2 PUSH2 0x19E JUMP JUMPDEST SWAP1 POP SWAP2 SWAP1 POP JUMP JUMPDEST PUSH1 0x80 MLOAD PUSH2 0x2CFB PUSH2 0x220 PUSH0 CODECOPY PUSH0 DUP2 DUP2 PUSH2 0x896 ADD MSTORE DUP2 DUP2 PUSH2 0x11D8 ADD MSTORE DUP2 DUP2 PUSH2 0x12DD ADD MSTORE DUP2 DUP2 PUSH2 0x1392 ADD MSTORE DUP2 DUP2 PUSH2 0x146C ADD MSTORE DUP2 DUP2 PUSH2 0x1524 ADD MSTORE PUSH2 0x16F3 ADD MSTORE PUSH2 0x2CFB PUSH0 RETURN INVALID PUSH1 0x80 PUSH1 0x40 MSTORE PUSH1 0x4 CALLDATASIZE LT PUSH2 0xFD JUMPI PUSH0 CALLDATALOAD PUSH1 0xE0 SHR DUP1 PUSH4 0x86A2CC27 GT PUSH2 0x94 JUMPI DUP1 PUSH4 0xB1724B46 GT PUSH2 0x63 JUMPI DUP1 PUSH4 0xB1724B46 EQ PUSH2 0x315 JUMPI DUP1 PUSH4 0xB1FB6405 EQ PUSH2 0x33F JUMPI DUP1 PUSH4 0xCDF91DAE EQ PUSH2 0x37B JUMPI DUP1 PUSH4 0xD3AA699E EQ PUSH2 0x3A5 JUMPI DUP1 PUSH4 0xE9906F2E EQ PUSH2 0x3E3 JUMPI PUSH2 0xFD JUMP JUMPDEST DUP1 PUSH4 0x86A2CC27 EQ PUSH2 0x24D JUMPI DUP1 PUSH4 0x894DA478 EQ PUSH2 0x275 JUMPI DUP1 PUSH4 0x89FB2682 EQ PUSH2 0x29D JUMPI DUP1 PUSH4 0x8F3708E8 EQ PUSH2 0x2D9 JUMPI PUSH2 0xFD JUMP JUMPDEST DUP1 PUSH4 0x5E7721F7 GT PUSH2 0xD0 JUMPI DUP1 PUSH4 0x5E7721F7 EQ PUSH2 0x181 JUMPI DUP1 PUSH4 0x62C5424A EQ PUSH2 0x1AB JUMPI DUP1 PUSH4 0x6B1DA364 EQ PUSH2 0x1D3 JUMPI DUP1 PUSH4 0x813ABC2D EQ PUSH2 0x211 JUMPI PUSH2 0xFD JUMP JUMPDEST DUP1 PUSH4 0x1C11D96 EQ PUSH2 0x101 JUMPI DUP1 PUSH4 0x10782F8F EQ PUSH2 0x12B JUMPI DUP1 PUSH4 0x4BB278F3 EQ PUSH2 0x155 JUMPI DUP1 PUSH4 0x5DF6FF9D EQ PUSH2 0x16B JUMPI JUMPDEST PUSH0 PUSH0 REVERT JUMPDEST CALLVALUE DUP1 ISZERO PUSH2 0x10C JUMPI PUSH0 PUSH0 REVERT JUMPDEST POP PUSH2 0x115 PUSH2 0x3ED JUMP JUMPDEST PUSH1 0x40 MLOAD PUSH2 0x122 SWAP2 SWAP1 PUSH2 0x210F JUMP JUMPDEST PUSH1 0x40 MLOAD DUP1 SWAP2 SUB SWAP1 RETURN JUMPDEST CALLVALUE DUP1 ISZERO PUSH2 0x136 JUMPI PUSH0 PUSH0 REVERT JUMPDEST POP PUSH2 0x13F PUSH2 0x3FD JUMP JUMPDEST PUSH1 0x40 MLOAD PUSH2 0x14C SWAP2 SWAP1 PUSH2 0x210F JUMP JUMPDEST PUSH1 0x40 MLOAD DUP1 SWAP2 SUB SWAP1 RETURN JUMPDEST CALLVALUE DUP1 ISZERO PUSH2 0x160 JUMPI PUSH0 PUSH0 REVERT JUMPDEST POP PUSH2 0x169 PUSH2 0x403 JUMP JUMPDEST STOP JUMPDEST CALLVALUE DUP1 ISZERO PUSH2 0x176 JUMPI PUSH0 PUSH0 REVERT JUMPDEST POP PUSH2 0x17F PUSH2 0x6BA JUMP JUMPDEST STOP JUMPDEST CALLVALUE DUP1 ISZERO PUSH2 0x18C JUMPI PUSH0 PUSH0 REVERT JUMPDEST POP PUSH2 0x195 PUSH2 0x894 JUMP JUMPDEST PUSH1 0x40 MLOAD PUSH2 0x1A2 SWAP2 SWAP1 PUSH2 0x21A2 JUMP JUMPDEST PUSH1 0x40 MLOAD DUP1 SWAP2 SUB SWAP1 RETURN JUMPDEST CALLVALUE DUP1 ISZERO PUSH2 0x1B6 JUMPI PUSH0 PUSH0 REVERT JUMPDEST POP PUSH2 0x1D1 PUSH1 0x4 DUP1 CALLDATASIZE SUB DUP2 ADD SWAP1 PUSH2 0x1CC SWAP2 SWAP1 PUSH2 0x221C JUMP JUMPDEST PUSH2 0x8B8 JUMP JUMPDEST STOP JUMPDEST CALLVALUE DUP1 ISZERO PUSH2 0x1DE JUMPI PUSH0 PUSH0 REVERT JUMPDEST POP PUSH2 0x1F9 PUSH1 0x4 DUP1 CALLDATASIZE SUB DUP2 ADD SWAP1 PUSH2 0x1F4 SWAP2 SWAP1 PUSH2 0x225A JUMP JUMPDEST PUSH2 0xD1D JUMP JUMPDEST PUSH1 0x40 MLOAD PUSH2 0x208 SWAP4 SWAP3 SWAP2 SWAP1 PUSH2 0x22C7 JUMP JUMPDEST PUSH1 0x40 MLOAD DUP1 SWAP2 SUB SWAP1 RETURN JUMPDEST CALLVALUE DUP1 ISZERO PUSH2 0x21C JUMPI PUSH0 PUSH0 REVERT JUMPDEST POP PUSH2 0x237 PUSH1 0x4 DUP1 CALLDATASIZE SUB DUP2 ADD SWAP1 PUSH2 0x232 SWAP2 SWAP1 PUSH2 0x2326 JUMP JUMPDEST PUSH2 0xD7C JUMP JUMPDEST PUSH1 0x40 MLOAD PUSH2 0x244 SWAP2 SWAP1 PUSH2 0x210F JUMP JUMPDEST PUSH1 0x40 MLOAD DUP1 SWAP2 SUB SWAP1 RETURN JUMPDEST CALLVALUE DUP1 ISZERO PUSH2 0x258 JUMPI PUSH0 PUSH0 REVERT JUMPDEST POP PUSH2 0x273 PUSH1 0x4 DUP1 CALLDATASIZE SUB DUP2 ADD SWAP1 PUSH2 0x26E SWAP2 SWAP1 PUSH2 0x2364 JUMP JUMPDEST PUSH2 0xDD2 JUMP JUMPDEST STOP JUMPDEST CALLVALUE DUP1 ISZERO PUSH2 0x280 JUMPI PUSH0 PUSH0 REVERT JUMPDEST POP PUSH2 0x29B PUSH1 0x4 DUP1 CALLDATASIZE SUB DUP2 ADD SWAP1 PUSH2 0x296 SWAP2 SWAP1 PUSH2 0x23B9 JUMP JUMPDEST PUSH2 0x102B JUMP JUMPDEST STOP JUMPDEST CALLVALUE DUP1 ISZERO PUSH2 0x2A8 JUMPI PUSH0 PUSH0 REVERT JUMPDEST POP PUSH2 0x2C3 PUSH1 0x4 DUP1 CALLDATASIZE SUB DUP2 ADD SWAP1 PUSH2 0x2BE SWAP2 SWAP1 PUSH2 0x2326 JUMP JUMPDEST PUSH2 0x17F1 JUMP JUMPDEST PUSH1 0x40 MLOAD PUSH2 0x2D0 SWAP2 SWAP1 PUSH2 0x243F JUMP JUMPDEST PUSH1 0x40 MLOAD DUP1 SWAP2 SUB SWAP1 RETURN JUMPDEST CALLVALUE DUP1 ISZERO PUSH2 0x2E4 JUMPI PUSH0 PUSH0 REVERT JUMPDEST POP PUSH2 0x2FF PUSH1 0x4 DUP1 CALLDATASIZE SUB DUP2 ADD SWAP1 PUSH2 0x2FA SWAP2 SWAP1 PUSH2 0x2326 JUMP JUMPDEST PUSH2 0x1847 JUMP JUMPDEST PUSH1 0x40 MLOAD PUSH2 0x30C SWAP2 SWAP1 PUSH2 0x2458 JUMP JUMPDEST PUSH1 0x40 MLOAD DUP1 SWAP2 SUB SWAP1 RETURN JUMPDEST CALLVALUE DUP1 ISZERO PUSH2 0x320 JUMPI PUSH0 PUSH0 REVERT JUMPDEST POP PUSH2 0x329 PUSH2 0x18B0 JUMP JUMPDEST PUSH1 0x40 MLOAD PUSH2 0x336 SWAP2 SWAP1 PUSH2 0x210F JUMP JUMPDEST PUSH1 0x40 MLOAD DUP1 SWAP2 SUB SWAP1 RETURN JUMPDEST CALLVALUE DUP1 ISZERO PUSH2 0x34A JUMPI PUSH0 PUSH0 REVERT JUMPDEST POP PUSH2 0x365 PUSH1 0x4 DUP1 CALLDATASIZE SUB DUP2 ADD SWAP1 PUSH2 0x360 SWAP2 SWAP1 PUSH2 0x225A JUMP JUMPDEST PUSH2 0x18B7 JUMP JUMPDEST PUSH1 0x40 MLOAD PUSH2 0x372 SWAP2 SWAP1 PUSH2 0x24E1 JUMP JUMPDEST PUSH1 0x40 MLOAD DUP1 SWAP2 SUB SWAP1 RETURN JUMPDEST CALLVALUE DUP1 ISZERO PUSH2 0x386 JUMPI PUSH0 PUSH0 REVERT JUMPDEST POP PUSH2 0x38F PUSH2 0x1B7D JUMP JUMPDEST PUSH1 0x40 MLOAD PUSH2 0x39C SWAP2 SWAP1 PUSH2 0x210F JUMP JUMPDEST PUSH1 0x40 MLOAD DUP1 SWAP2 SUB SWAP1 RETURN JUMPDEST CALLVALUE DUP1 ISZERO PUSH2 0x3B0 JUMPI PUSH0 PUSH0 REVERT JUMPDEST POP PUSH2 0x3CB PUSH1 0x4 DUP1 CALLDATASIZE SUB DUP2 ADD SWAP1 PUSH2 0x3C6 SWAP2 SWAP1 PUSH2 0x225A JUMP JUMPDEST PUSH2 0x1B88 JUMP JUMPDEST PUSH1 0x40 MLOAD PUSH2 0x3DA SWAP4 SWAP3 SWAP2 SWAP1 PUSH2 0x2501 JUMP JUMPDEST PUSH1 0x40 MLOAD DUP1 SWAP2 SUB SWAP1 RETURN JUMPDEST PUSH2 0x3EB PUSH2 0x1BEF JUMP JUMPDEST STOP JUMPDEST PUSH12 0x33B2E3C9FD0803CE8000000 DUP2 JUMP JUMPDEST PUSH1 0x1 SLOAD DUP2 JUMP JUMPDEST PUSH0 PUSH2 0x40C PUSH2 0x1F23 JUMP JUMPDEST SWAP1 POP DUP1 PUSH1 0x5 ADD PUSH1 0x10 SWAP1 SLOAD SWAP1 PUSH2 0x100 EXP SWAP1 DIV PUSH8 0xFFFFFFFFFFFFFFFF AND PUSH8 0xFFFFFFFFFFFFFFFF AND TIMESTAMP LT ISZERO PUSH2 0x469 JUMPI PUSH1 0x40 MLOAD PUSH31 0xE8F46600000000000000000000000000000000000000000000000000000000 DUP2 MSTORE PUSH1 0x4 ADD PUSH1 0x40 MLOAD DUP1 SWAP2 SUB SWAP1 REVERT JUMPDEST DUP1 PUSH1 0xA ADD PUSH0 SWAP1 SLOAD SWAP1 PUSH2 0x100 EXP SWAP1 DIV PUSH1 0xFF AND ISZERO PUSH2 0x4BA JUMPI PUSH1 0x40 MLOAD PUSH32 0x8C379A000000000000000000000000000000000000000000000000000000000 DUP2 MSTORE PUSH1 0x4 ADD PUSH2 0x4B1 SWAP1 PUSH2 0x2580 JUMP JUMPDEST PUSH1 0x40 MLOAD DUP1 SWAP2 SUB SWAP1 REVERT JUMPDEST PUSH0 PUSH20 0xFFFFFFFFFFFFFFFFFFFFFFFFFFFFFFFFFFFFFFFF AND DUP2 PUSH1 0x6 ADD PUSH1 0x8 SWAP1 SLOAD SWAP1 PUSH2 0x100 EXP SWAP1 DIV PUSH20 0xFFFFFFFFFFFFFFFFFFFFFFFFFFFFFFFFFFFFFFFF AND PUSH20 0xFFFFFFFFFFFFFFFFFFFFFFFFFFFFFFFFFFFFFFFF AND SUB PUSH2 0x5BB JUMPI PUSH1 0x1 DUP2 PUSH1 0xA ADD PUSH0 PUSH2 0x100 EXP DUP2 SLOAD DUP2 PUSH1 0xFF MUL NOT AND SWAP1 DUP4 ISZERO ISZERO MUL OR SWAP1 SSTORE POP PUSH1 0x1 DUP2 PUSH1 0xA ADD PUSH1 0x1 PUSH2 0x100 EXP DUP2 SLOAD DUP2 PUSH1 0xFF MUL NOT AND SWAP1 DUP4 ISZERO ISZERO MUL OR SWAP1 SSTORE POP PUSH0 DUP2 PUSH1 0x9 ADD DUP2 SWAP1 SSTORE POP PUSH2 0x586 DUP2 ADDRESS DUP4 PUSH1 0x2 ADD PUSH0 SWAP1 SLOAD SWAP1 PUSH2 0x100 EXP SWAP1 DIV PUSH20 0xFFFFFFFFFFFFFFFFFFFFFFFFFFFFFFFFFFFFFFFF AND DUP5 PUSH1 0x1 ADD SLOAD PUSH2 0x1FC4 JUMP JUMPDEST PUSH1 0x1 SLOAD PUSH32 0xA761D07FDB0A6897F18726F15D43008D6C30CE08E44A91775CFD2EF3B61CDAD0 PUSH1 0x40 MLOAD PUSH1 0x40 MLOAD DUP1 SWAP2 SUB SWAP1 LOG2 POP PUSH2 0x6B8 JUMP JUMPDEST PUSH0 DUP2 PUSH1 0x8 ADD SLOAD SWAP1 POP DUP2 PUSH1 0x3 ADD SLOAD DUP2 LT ISZERO PUSH2 0x5D7 JUMPI DUP2 PUSH1 0x3 ADD SLOAD SWAP1 POP JUMPDEST DUP1 DUP3 PUSH1 0x9 ADD DUP2 SWAP1 SSTORE POP PUSH1 0x1 DUP3 PUSH1 0xA ADD PUSH0 PUSH2 0x100 EXP DUP2 SLOAD DUP2 PUSH1 0xFF MUL NOT AND SWAP1 DUP4 ISZERO ISZERO MUL OR SWAP1 SSTORE POP DUP2 PUSH1 0x5 ADD PUSH1 0x18 SWAP1 SLOAD SWAP1 PUSH2 0x100 EXP SWAP1 DIV PUSH8 0xFFFFFFFFFFFFFFFF AND TIMESTAMP PUSH2 0x620 SWAP2 SWAP1 PUSH2 0x25CB JUMP JUMPDEST DUP3 PUSH1 0x6 ADD PUSH0 PUSH2 0x100 EXP DUP2 SLOAD DUP2 PUSH8 0xFFFFFFFFFFFFFFFF MUL NOT AND SWAP1 DUP4 PUSH8 0xFFFFFFFFFFFFFFFF AND MUL OR SWAP1 SSTORE POP PUSH1 0x1 SLOAD PUSH32 0x5AB4254A16D8F1486E035342F3B6736A5EFDC0B79886E7525B374BB0EC9EBEE1 DUP4 PUSH1 0x6 ADD PUSH1 0x8 SWAP1 SLOAD SWAP1 PUSH2 0x100 EXP SWAP1 DIV PUSH20 0xFFFFFFFFFFFFFFFFFFFFFFFFFFFFFFFFFFFFFFFF AND DUP5 PUSH1 0x7 ADD SLOAD DUP6 PUSH1 0x8 ADD SLOAD DUP6 PUSH1 0x40 MLOAD PUSH2 0x6AD SWAP5 SWAP4 SWAP3 SWAP2 SWAP1 PUSH2 0x2606 JUMP JUMPDEST PUSH1 0x40 MLOAD DUP1 SWAP2 SUB SWAP1 LOG2 POP POP JUMPDEST JUMP JUMPDEST PUSH0 PUSH2 0x6C3 PUSH2 0x1F23 JUMP JUMPDEST SWAP1 POP DUP1 PUSH1 0xA ADD PUSH0 SWAP1 SLOAD SWAP1 PUSH2 0x100 EXP SWAP1 DIV PUSH1 0xFF AND ISZERO DUP1 PUSH2 0x6F0 JUMPI POP DUP1 PUSH1 0xA ADD PUSH1 0x1 SWAP1 SLOAD SWAP1 PUSH2 0x100 EXP SWAP1 DIV PUSH1 0xFF AND JUMPDEST ISZERO PUSH2 0x727 JUMPI PUSH1 0x40 MLOAD PUSH32 0xD3018D1800000000000000000000000000000000000000000000000000000000 DUP2 MSTORE PUSH1 0x4 ADD PUSH1 0x40 MLOAD DUP1 SWAP2 SUB SWAP1 REVERT JUMPDEST DUP1 PUSH1 0x2 ADD PUSH0 SWAP1 SLOAD SWAP1 PUSH2 0x100 EXP SWAP1 DIV PUSH20 0xFFFFFFFFFFFFFFFFFFFFFFFFFFFFFFFFFFFFFFFF AND PUSH20 0xFFFFFFFFFFFFFFFFFFFFFFFFFFFFFFFFFFFFFFFF AND CALLER PUSH20 0xFFFFFFFFFFFFFFFFFFFFFFFFFFFFFFFFFFFFFFFF AND EQ PUSH2 0x7AF JUMPI PUSH1 0x40 MLOAD PUSH32 0x5EC8235100000000000000000000000000000000000000000000000000000000 DUP2 MSTORE PUSH1 0x4 ADD PUSH1 0x40 MLOAD DUP1 SWAP2 SUB SWAP1 REVERT JUMPDEST DUP1 PUSH1 0x6 ADD PUSH0 SWAP1 SLOAD SWAP1 PUSH2 0x100 EXP SWAP1 DIV PUSH8 0xFFFFFFFFFFFFFFFF AND PUSH8 0xFFFFFFFFFFFFFFFF AND TIMESTAMP GT PUSH2 0x812 JUMPI PUSH1 0x40 MLOAD PUSH32 0x8C379A000000000000000000000000000000000000000000000000000000000 DUP2 MSTORE PUSH1 0x4 ADD PUSH2 0x809 SWAP1 PUSH2 0x2693 JUMP JUMPDEST PUSH1 0x40 MLOAD DUP1 SWAP2 SUB SWAP1 REVERT JUMPDEST PUSH1 0x1 DUP2 PUSH1 0xA ADD PUSH1 0x1 PUSH2 0x100 EXP DUP2 SLOAD DUP2 PUSH1 0xFF MUL NOT AND SWAP1 DUP4 ISZERO ISZERO MUL OR SWAP1 SSTORE POP PUSH2 0x862 DUP2 ADDRESS DUP4 PUSH1 0x2 ADD PUSH0 SWAP1 SLOAD SWAP1 PUSH2 0x100 EXP SWAP1 DIV PUSH20 0xFFFFFFFFFFFFFFFFFFFFFFFFFFFFFFFFFFFFFFFF AND DUP5 PUSH1 0x1 ADD SLOAD PUSH2 0x1FC4 JUMP JUMPDEST PUSH1 0x1 SLOAD PUSH32 0x55C90D9726FF7562E2DDA9743C070AB007DD986E4C0A42BCF578362C435A4D89 PUSH1 0x40 MLOAD PUSH1 0x40 MLOAD DUP1 SWAP2 SUB SWAP1 LOG2 POP JUMP JUMPDEST PUSH32 0x0 DUP2 JUMP JUMPDEST PUSH0 PUSH2 0x8C1 PUSH2 0x1F23 JUMP JUMPDEST SWAP1 POP PUSH0 TIMESTAMP SWAP1 POP DUP2 PUSH1 0x5 ADD PUSH1 0x8 SWAP1 SLOAD SWAP1 PUSH2 0x100 EXP SWAP1 DIV PUSH8 0xFFFFFFFFFFFFFFFF AND PUSH8 0xFFFFFFFFFFFFFFFF AND DUP2 LT DUP1 PUSH2 0x919 JUMPI POP DUP2 PUSH1 0x5 ADD PUSH1 0x10 SWAP1 SLOAD SWAP1 PUSH2 0x100 EXP SWAP1 DIV PUSH8 0xFFFFFFFFFFFFFFFF AND PUSH8 0xFFFFFFFFFFFFFFFF AND DUP2 LT ISZERO JUMPDEST ISZERO PUSH2 0x950 JUMPI PUSH1 0x40 MLOAD PUSH32 0x74683D7100000000000000000000000000000000000000000000000000000000 DUP2 MSTORE PUSH1 0x4 ADD PUSH1 0x40 MLOAD DUP1 SWAP2 SUB SWAP1 REVERT JUMPDEST PUSH0 DUP3 PUSH1 0xE ADD PUSH0 CALLER PUSH20 0xFFFFFFFFFFFFFFFFFFFFFFFFFFFFFFFFFFFFFFFF AND PUSH20 0xFFFFFFFFFFFFFFFFFFFFFFFFFFFFFFFFFFFFFFFF AND DUP2 MSTORE PUSH1 0x20 ADD SWAP1 DUP2 MSTORE PUSH1 0x20 ADD PUSH0 KECCAK256 SLOAD EQ PUSH2 0x9C8 JUMPI PUSH1 0x40 MLOAD PUSH32 0x157330EE00000000000000000000000000000000000000000000000000000000 DUP2 MSTORE PUSH1 0x4 ADD PUSH1 0x40 MLOAD DUP1 SWAP2 SUB SWAP1 REVERT JUMPDEST PUSH0 DUP3 PUSH1 0xB ADD PUSH0 CALLER PUSH20 0xFFFFFFFFFFFFFFFFFFFFFFFFFFFFFFFFFFFFFFFF AND PUSH20 0xFFFFFFFFFFFFFFFFFFFFFFFFFFFFFFFFFFFFFFFF AND DUP2 MSTORE PUSH1 0x20 ADD SWAP1 DUP2 MSTORE PUSH1 0x20 ADD PUSH0 KECCAK256 SLOAD SWAP1 POP PUSH0 PUSH0 SHL DUP2 SUB PUSH2 0xA46 JUMPI PUSH1 0x40 MLOAD PUSH32 0xC06789FA00000000000000000000000000000000000000000000000000000000 DUP2 MSTORE PUSH1 0x4 ADD PUSH1 0x40 MLOAD DUP1 SWAP2 SUB SWAP1 REVERT JUMPDEST DUP1 DUP6 DUP6 PUSH1 0x40 MLOAD PUSH1 0x20 ADD PUSH2 0xA5A SWAP3 SWAP2 SWAP1 PUSH2 0x26F1 JUMP JUMPDEST PUSH1 0x40 MLOAD PUSH1 0x20 DUP2 DUP4 SUB SUB DUP2 MSTORE SWAP1 PUSH1 0x40 MSTORE DUP1 MLOAD SWAP1 PUSH1 0x20 ADD KECCAK256 EQ PUSH2 0xAA7 JUMPI PUSH1 0x40 MLOAD PUSH32 0xC06789FA00000000000000000000000000000000000000000000000000000000 DUP2 MSTORE PUSH1 0x4 ADD PUSH1 0x40 MLOAD DUP1 SWAP2 SUB SWAP1 REVERT JUMPDEST DUP5 DUP4 PUSH1 0xE ADD PUSH0 CALLER PUSH20 0xFFFFFFFFFFFFFFFFFFFFFFFFFFFFFFFFFFFFFFFF AND PUSH20 0xFFFFFFFFFFFFFFFFFFFFFFFFFFFFFFFFFFFFFFFF AND DUP2 MSTORE PUSH1 0x20 ADD SWAP1 DUP2 MSTORE PUSH1 0x20 ADD PUSH0 KECCAK256 DUP2 SWAP1 SSTORE POP DUP3 PUSH1 0x3 ADD SLOAD DUP6 LT PUSH2 0xCC5 JUMPI DUP3 PUSH1 0x7 ADD SLOAD DUP6 GT DUP1 PUSH2 0xBF2 JUMPI POP DUP3 PUSH1 0x7 ADD SLOAD DUP6 EQ DUP1 ISZERO PUSH2 0xBF1 JUMPI POP DUP3 PUSH1 0xC ADD PUSH0 DUP5 PUSH1 0x6 ADD PUSH1 0x8 SWAP1 SLOAD SWAP1 PUSH2 0x100 EXP SWAP1 DIV PUSH20 0xFFFFFFFFFFFFFFFFFFFFFFFFFFFFFFFFFFFFFFFF AND PUSH20 0xFFFFFFFFFFFFFFFFFFFFFFFFFFFFFFFFFFFFFFFF AND PUSH20 0xFFFFFFFFFFFFFFFFFFFFFFFFFFFFFFFFFFFFFFFF AND DUP2 MSTORE PUSH1 0x20 ADD SWAP1 DUP2 MSTORE PUSH1 0x20 ADD PUSH0 KECCAK256 PUSH0 SWAP1 SLOAD SWAP1 PUSH2 0x100 EXP SWAP1 DIV PUSH8 0xFFFFFFFFFFFFFFFF AND PUSH8 0xFFFFFFFFFFFFFFFF AND DUP4 PUSH1 0xC ADD PUSH0 CALLER PUSH20 0xFFFFFFFFFFFFFFFFFFFFFFFFFFFFFFFFFFFFFFFF AND PUSH20 0xFFFFFFFFFFFFFFFFFFFFFFFFFFFFFFFFFFFFFFFF AND DUP2 MSTORE PUSH1 0x20 ADD SWAP1 DUP2 MSTORE PUSH1 0x20 ADD PUSH0 KECCAK256 PUSH0 SWAP1 SLOAD SWAP1 PUSH2 0x100 EXP SWAP1 DIV PUSH8 0xFFFFFFFFFFFFFFFF AND PUSH8 0xFFFFFFFFFFFFFFFF AND LT JUMPDEST JUMPDEST ISZERO PUSH2 0xCAD JUMPI PUSH0 PUSH20 0xFFFFFFFFFFFFFFFFFFFFFFFFFFFFFFFFFFFFFFFF AND DUP4 PUSH1 0x6 ADD PUSH1 0x8 SWAP1 SLOAD SWAP1 PUSH2 0x100 EXP SWAP1 DIV PUSH20 0xFFFFFFFFFFFFFFFFFFFFFFFFFFFFFFFFFFFFFFFF AND PUSH20 0xFFFFFFFFFFFFFFFFFFFFFFFFFFFFFFFFFFFFFFFF AND EQ PUSH2 0xC5C JUMPI DUP3 PUSH1 0x7 ADD SLOAD DUP4 PUSH1 0x8 ADD DUP2 SWAP1 SSTORE POP JUMPDEST DUP5 DUP4 PUSH1 0x7 ADD DUP2 SWAP1 SSTORE POP CALLER DUP4 PUSH1 0x6 ADD PUSH1 0x8 PUSH2 0x100 EXP DUP2 SLOAD DUP2 PUSH20 0xFFFFFFFFFFFFFFFFFFFFFFFFFFFFFFFFFFFFFFFF MUL NOT AND SWAP1 DUP4 PUSH20 0xFFFFFFFFFFFFFFFFFFFFFFFFFFFFFFFFFFFFFFFF AND MUL OR SWAP1 SSTORE POP PUSH2 0xCC4 JUMP JUMPDEST DUP3 PUSH1 0x8 ADD SLOAD DUP6 GT ISZERO PUSH2 0xCC3 JUMPI DUP5 DUP4 PUSH1 0x8 ADD DUP2 SWAP1 SSTORE POP JUMPDEST JUMPDEST JUMPDEST CALLER PUSH20 0xFFFFFFFFFFFFFFFFFFFFFFFFFFFFFFFFFFFFFFFF AND PUSH1 0x1 SLOAD PUSH32 0x86D2FBC9069D34216EBC65B38CE840528D3F8CAC0C86D2AAA7AB6A9DB8BC35D3 DUP8 PUSH1 0x40 MLOAD PUSH2 0xD0E SWAP2 SWAP1 PUSH2 0x210F JUMP JUMPDEST PUSH1 0x40 MLOAD DUP1 SWAP2 SUB SWAP1 LOG3 POP POP POP POP POP JUMP JUMPDEST PUSH0 PUSH0 PUSH0 PUSH0 PUSH2 0xD2A DUP6 PUSH2 0x2056 JUMP JUMPDEST SWAP1 POP DUP1 PUSH1 0x6 ADD PUSH1 0x8 SWAP1 SLOAD SWAP1 PUSH2 0x100 EXP SWAP1 DIV PUSH20 0xFFFFFFFFFFFFFFFFFFFFFFFFFFFFFFFFFFFFFFFF AND DUP2 PUSH1 0x9 ADD SLOAD DUP3 PUSH1 0x6 ADD PUSH0 SWAP1 SLOAD SWAP1 PUSH2 0x100 EXP SWAP1 DIV PUSH8 0xFFFFFFFFFFFFFFFF AND SWAP4 POP SWAP4 POP SWAP4 POP POP SWAP2 SWAP4 SWAP1 SWAP3 POP JUMP JUMPDEST PUSH0 PUSH0 PUSH2 0xD87 DUP5 PUSH2 0x2056 JUMP JUMPDEST SWAP1 POP DUP1 PUSH1 0xE ADD PUSH0 DUP5 PUSH20 0xFFFFFFFFFFFFFFFFFFFFFFFFFFFFFFFFFFFFFFFF AND PUSH20 0xFFFFFFFFFFFFFFFFFFFFFFFFFFFFFFFFFFFFFFFF AND DUP2 MSTORE PUSH1 0x20 ADD SWAP1 DUP2 MSTORE PUSH1 0x20 ADD PUSH0 KECCAK256 SLOAD SWAP2 POP POP SWAP3 SWAP2 POP POP JUMP JUMPDEST PUSH0 PUSH2 0xDDB PUSH2 0x1F23 JUMP JUMPDEST SWAP1 POP DUP1 PUSH1 0x5 ADD PUSH1 0x8 SWAP1 SLOAD SWAP1 PUSH2 0x100 EXP SWAP1 DIV PUSH8 0xFFFFFFFFFFFFFFFF AND PUSH8 0xFFFFFFFFFFFFFFFF AND TIMESTAMP LT ISZERO DUP1 PUSH2 0xE2E JUMPI POP DUP1 PUSH1 0x5 ADD PUSH0 SWAP1 SLOAD SWAP1 PUSH2 0x100 EXP SWAP1 DIV PUSH8 0xFFFFFFFFFFFFFFFF AND PUSH8 0xFFFFFFFFFFFFFFFF AND TIMESTAMP LT JUMPDEST ISZERO PUSH2 0xE65 JUMPI PUSH1 0x40 MLOAD PUSH32 0xABFB7DC300000000000000000000000000000000000000000000000000000000 DUP2 MSTORE PUSH1 0x4 ADD PUSH1 0x40 MLOAD DUP1 SWAP2 SUB SWAP1 REVERT JUMPDEST PUSH0 PUSH0 SHL DUP2 PUSH1 0xB ADD PUSH0 CALLER PUSH20 0xFFFFFFFFFFFFFFFFFFFFFFFFFFFFFFFFFFFFFFFF AND PUSH20 0xFFFFFFFFFFFFFFFFFFFFFFFFFFFFFFFFFFFFFFFF AND DUP2 MSTORE PUSH1 0x20 ADD SWAP1 DUP2 MSTORE PUSH1 0x20 ADD PUSH0 KECCAK256 SLOAD SUB PUSH2 0xF38 JUMPI PUSH0 PUSH0 SHL DUP2 PUSH1 0xB ADD PUSH0 CALLER PUSH20 0xFFFFFFFFFFFFFFFFFFFFFFFFFFFFFFFFFFFFFFFF AND PUSH20 0xFFFFFFFFFFFFFFFFFFFFFFFFFFFFFFFFFFFFFFFF AND DUP2 MSTORE PUSH1 0x20 ADD SWAP1 DUP2 MSTORE PUSH1 0x20 ADD PUSH0 KECCAK256 DUP2 SWAP1 SSTORE POP PUSH0 DUP2 PUSH1 0xD ADD PUSH0 CALLER PUSH20 0xFFFFFFFFFFFFFFFFFFFFFFFFFFFFFFFFFFFFFFFF AND PUSH20 0xFFFFFFFFFFFFFFFFFFFFFFFFFFFFFFFFFFFFFFFF AND DUP2 MSTORE PUSH1 0x20 ADD SWAP1 DUP2 MSTORE PUSH1 0x20 ADD PUSH0 KECCAK256 DUP2 SWAP1 SSTORE POP JUMPDEST DUP2 DUP2 PUSH1 0xB ADD PUSH0 CALLER PUSH20 0xFFFFFFFFFFFFFFFFFFFFFFFFFFFFFFFFFFFFFFFF AND PUSH20 0xFFFFFFFFFFFFFFFFFFFFFFFFFFFFFFFFFFFFFFFF AND DUP2 MSTORE PUSH1 0x20 ADD SWAP1 DUP2 MSTORE PUSH1 0x20 ADD PUSH0 KECCAK256 DUP2 SWAP1 SSTORE POP TIMESTAMP DUP2 PUSH1 0xC ADD PUSH0 CALLER PUSH20 0xFFFFFFFFFFFFFFFFFFFFFFFFFFFFFFFFFFFFFFFF AND PUSH20 0xFFFFFFFFFFFFFFFFFFFFFFFFFFFFFFFFFFFFFFFF AND DUP2 MSTORE PUSH1 0x20 ADD SWAP1 DUP2 MSTORE PUSH1 0x20 ADD PUSH0 KECCAK256 PUSH0 PUSH2 0x100 EXP DUP2 SLOAD DUP2 PUSH8 0xFFFFFFFFFFFFFFFF MUL NOT AND SWAP1 DUP4 PUSH8 0xFFFFFFFFFFFFFFFF AND MUL OR SWAP1 SSTORE POP CALLER PUSH20 0xFFFFFFFFFFFFFFFFFFFFFFFFFFFFFFFFFFFFFFFF AND PUSH1 0x1 SLOAD PUSH32 0x934EA4DE468DCD0D9A335C5F97AA77955310C29631C93FBD01D95A00242EC41 PUSH1 0x40 MLOAD PUSH1 0x40 MLOAD DUP1 SWAP2 SUB SWAP1 LOG3 POP POP JUMP JUMPDEST PUSH0 PUSH1 0x1 SLOAD EQ PUSH2 0x109D JUMPI PUSH0 PUSH1 0x2 PUSH0 PUSH1 0x1 SLOAD DUP2 MSTORE PUSH1 0x20 ADD SWAP1 DUP2 MSTORE PUSH1 0x20 ADD PUSH0 KECCAK256 SWAP1 POP DUP1 PUSH1 0xA ADD PUSH1 0x1 SWAP1 SLOAD SWAP1 PUSH2 0x100 EXP SWAP1 DIV PUSH1 0xFF AND PUSH2 0x109B JUMPI PUSH1 0x40 MLOAD PUSH32 0x8C379A000000000000000000000000000000000000000000000000000000000 DUP2 MSTORE PUSH1 0x4 ADD PUSH2 0x1092 SWAP1 PUSH2 0x2766 JUMP JUMPDEST PUSH1 0x40 MLOAD DUP1 SWAP2 SUB SWAP1 REVERT JUMPDEST POP JUMPDEST PUSH0 DUP4 PUSH8 0xFFFFFFFFFFFFFFFF AND GT DUP1 ISZERO PUSH2 0x10C2 JUMPI POP PUSH3 0x278D00 DUP4 PUSH8 0xFFFFFFFFFFFFFFFF AND LT JUMPDEST PUSH2 0x1101 JUMPI PUSH1 0x40 MLOAD PUSH32 0x8C379A000000000000000000000000000000000000000000000000000000000 DUP2 MSTORE PUSH1 0x4 ADD PUSH2 0x10F8 SWAP1 PUSH2 0x27CE JUMP JUMPDEST PUSH1 0x40 MLOAD DUP1 SWAP2 SUB SWAP1 REVERT JUMPDEST PUSH0 DUP3 PUSH8 0xFFFFFFFFFFFFFFFF AND GT DUP1 ISZERO PUSH2 0x1126 JUMPI POP PUSH3 0x278D00 DUP3 PUSH8 0xFFFFFFFFFFFFFFFF AND LT JUMPDEST PUSH2 0x1165 JUMPI PUSH1 0x40 MLOAD PUSH32 0x8C379A000000000000000000000000000000000000000000000000000000000 DUP2 MSTORE PUSH1 0x4 ADD PUSH2 0x115C SWAP1 PUSH2 0x2836 JUMP JUMPDEST PUSH1 0x40 MLOAD DUP1 SWAP2 SUB SWAP1 REVERT JUMPDEST PUSH0 DUP5 LT ISZERO DUP1 ISZERO PUSH2 0x1180 JUMPI POP PUSH12 0x33B2E3C9FD0803CE8000000 DUP5 LT JUMPDEST PUSH2 0x11BF JUMPI PUSH1 0x40 MLOAD PUSH32 0x8C379A000000000000000000000000000000000000000000000000000000000 DUP2 MSTORE PUSH1 0x4 ADD PUSH2 0x11B6 SWAP1 PUSH2 0x289E JUMP JUMPDEST PUSH1 0x40 MLOAD DUP1 SWAP2 SUB SWAP1 REVERT JUMPDEST CALLER PUSH20 0xFFFFFFFFFFFFFFFFFFFFFFFFFFFFFFFFFFFFFFFF AND PUSH32 0x0 PUSH20 0xFFFFFFFFFFFFFFFFFFFFFFFFFFFFFFFFFFFFFFFF AND PUSH4 0x6352211E DUP8 PUSH1 0x40 MLOAD DUP3 PUSH4 0xFFFFFFFF AND PUSH1 0xE0 SHL DUP2 MSTORE PUSH1 0x4 ADD PUSH2 0x122F SWAP2 SWAP1 PUSH2 0x210F JUMP JUMPDEST PUSH1 0x20 PUSH1 0x40 MLOAD DUP1 DUP4 SUB DUP2 DUP7 GAS STATICCALL ISZERO DUP1 ISZERO PUSH2 0x124A JUMPI RETURNDATASIZE PUSH0 PUSH0 RETURNDATACOPY RETURNDATASIZE PUSH0 REVERT JUMPDEST POP POP POP POP PUSH1 0x40 MLOAD RETURNDATASIZE PUSH1 0x1F NOT PUSH1 0x1F DUP3 ADD AND DUP3 ADD DUP1 PUSH1 0x40 MSTORE POP DUP2 ADD SWAP1 PUSH2 0x126E SWAP2 SWAP1 PUSH2 0x28D0 JUMP JUMPDEST PUSH20 0xFFFFFFFFFFFFFFFFFFFFFFFFFFFFFFFFFFFFFFFF AND EQ PUSH2 0x12C4 JUMPI PUSH1 0x40 MLOAD PUSH32 0x8C379A000000000000000000000000000000000000000000000000000000000 DUP2 MSTORE PUSH1 0x4 ADD PUSH2 0x12BB SWAP1 PUSH2 0x2945 JUMP JUMPDEST PUSH1 0x40 MLOAD DUP1 SWAP2 SUB SWAP1 REVERT JUMPDEST ADDRESS PUSH20 0xFFFFFFFFFFFFFFFFFFFFFFFFFFFFFFFFFFFFFFFF AND PUSH32 0x0 PUSH20 0xFFFFFFFFFFFFFFFFFFFFFFFFFFFFFFFFFFFFFFFF AND PUSH4 0x81812FC DUP8 PUSH1 0x40 MLOAD DUP3 PUSH4 0xFFFFFFFF AND PUSH1 0xE0 SHL DUP2 MSTORE PUSH1 0x4 ADD PUSH2 0x1334 SWAP2 SWAP1 PUSH2 0x210F JUMP JUMPDEST PUSH1 0x20 PUSH1 0x40 MLOAD DUP1 DUP4 SUB DUP2 DUP7 GAS STATICCALL ISZERO DUP1 ISZERO PUSH2 0x134F JUMPI RETURNDATASIZE PUSH0 PUSH0 RETURNDATACOPY RETURNDATASIZE PUSH0 REVERT JUMPDEST POP POP POP POP PUSH1 0x40 MLOAD RETURNDATASIZE PUSH1 0x1F NOT PUSH1 0x1F DUP3 ADD AND DUP3 ADD DUP1 PUSH1 0x40 MSTORE POP DUP2 ADD SWAP1 PUSH2 0x1373 SWAP2 SWAP1 PUSH2 0x28D0 JUMP JUMPDEST PUSH20 0xFFFFFFFFFFFFFFFFFFFFFFFFFFFFFFFFFFFFFFFF AND EQ DUP1 PUSH2 0x142B JUMPI POP PUSH32 0x0 PUSH20 0xFFFFFFFFFFFFFFFFFFFFFFFFFFFFFFFFFFFFFFFF AND PUSH4 0xE985E9C5 CALLER ADDRESS PUSH1 0x40 MLOAD DUP4 PUSH4 0xFFFFFFFF AND PUSH1 0xE0 SHL DUP2 MSTORE PUSH1 0x4 ADD PUSH2 0x13EB SWAP3 SWAP2 SWAP1 PUSH2 0x2963 JUMP JUMPDEST PUSH1 0x20 PUSH1 0x40 MLOAD DUP1 DUP4 SUB DUP2 DUP7 GAS STATICCALL ISZERO DUP1 ISZERO PUSH2 0x1406 JUMPI RETURNDATASIZE PUSH0 PUSH0 RETURNDATACOPY RETURNDATASIZE PUSH0 REVERT JUMPDEST POP POP POP POP PUSH1 0x40 MLOAD RETURNDATASIZE PUSH1 0x1F NOT PUSH1 0x1F DUP3 ADD AND DUP3 ADD DUP1 PUSH1 0x40 MSTORE POP DUP2 ADD SWAP1 PUSH2 0x142A SWAP2 SWAP1 PUSH2 0x29BF JUMP JUMPDEST JUMPDEST PUSH2 0x146A JUMPI PUSH1 0x40 MLOAD PUSH32 0x8C379A000000000000000000000000000000000000000000000000000000000 DUP2 MSTORE PUSH1 0x4 ADD PUSH2 0x1461 SWAP1 PUSH2 0x2A34 JUMP JUMPDEST PUSH1 0x40 MLOAD DUP1 SWAP2 SUB SWAP1 REVERT JUMPDEST PUSH32 0x0 PUSH20 0xFFFFFFFFFFFFFFFFFFFFFFFFFFFFFFFFFFFFFFFF AND PUSH4 0x23B872DD CALLER ADDRESS DUP9 PUSH1 0x40 MLOAD DUP5 PUSH4 0xFFFFFFFF AND PUSH1 0xE0 SHL DUP2 MSTORE PUSH1 0x4 ADD PUSH2 0x14C7 SWAP4 SWAP3 SWAP2 SWAP1 PUSH2 0x2A52 JUMP JUMPDEST PUSH0 PUSH1 0x40 MLOAD DUP1 DUP4 SUB DUP2 PUSH0 DUP8 DUP1 EXTCODESIZE ISZERO DUP1 ISZERO PUSH2 0x14DE JUMPI PUSH0 PUSH0 REVERT JUMPDEST POP GAS CALL ISZERO DUP1 ISZERO PUSH2 0x14F0 JUMPI RETURNDATASIZE PUSH0 PUSH0 RETURNDATACOPY RETURNDATASIZE PUSH0 REVERT JUMPDEST POP POP POP POP PUSH1 0x1 DUP1 PUSH0 DUP3 DUP3 SLOAD PUSH2 0x1505 SWAP2 SWAP1 PUSH2 0x2A87 JUMP JUMPDEST SWAP3 POP POP DUP2 SWAP1 SSTORE POP PUSH0 PUSH1 0x2 PUSH0 PUSH1 0x1 SLOAD DUP2 MSTORE PUSH1 0x20 ADD SWAP1 DUP2 MSTORE PUSH1 0x20 ADD PUSH0 KECCAK256 SWAP1 POP PUSH32 0x0 DUP2 PUSH0 ADD PUSH0 PUSH2 0x100 EXP DUP2 SLOAD DUP2 PUSH20 0xFFFFFFFFFFFFFFFFFFFFFFFFFFFFFFFFFFFFFFFF MUL NOT AND SWAP1 DUP4 PUSH20 0xFFFFFFFFFFFFFFFFFFFFFFFFFFFFFFFFFFFFFFFF AND MUL OR SWAP1 SSTORE POP DUP6 DUP2 PUSH1 0x1 ADD DUP2 SWAP1 SSTORE POP CALLER DUP2 PUSH1 0x2 ADD PUSH0 PUSH2 0x100 EXP DUP2 SLOAD DUP2 PUSH20 0xFFFFFFFFFFFFFFFFFFFFFFFFFFFFFFFFFFFFFFFF MUL NOT AND SWAP1 DUP4 PUSH20 0xFFFFFFFFFFFFFFFFFFFFFFFFFFFFFFFFFFFFFFFF AND MUL OR SWAP1 SSTORE POP DUP5 DUP2 PUSH1 0x3 ADD DUP2 SWAP1 SSTORE POP PUSH0 TIMESTAMP SWAP1 POP DUP1 DUP3 PUSH1 0x5 ADD PUSH0 PUSH2 0x100 EXP DUP2 SLOAD DUP2 PUSH8 0xFFFFFFFFFFFFFFFF MUL NOT AND SWAP1 DUP4 PUSH8 0xFFFFFFFFFFFFFFFF AND MUL OR SWAP1 SSTORE POP DUP5 DUP2 PUSH2 0x1611 SWAP2 SWAP1 PUSH2 0x25CB JUMP JUMPDEST DUP3 PUSH1 0x5 ADD PUSH1 0x8 PUSH2 0x100 EXP DUP2 SLOAD DUP2 PUSH8 0xFFFFFFFFFFFFFFFF MUL NOT AND SWAP1 DUP4 PUSH8 0xFFFFFFFFFFFFFFFF AND MUL OR SWAP1 SSTORE POP DUP4 DUP3 PUSH1 0x5 ADD PUSH1 0x8 SWAP1 SLOAD SWAP1 PUSH2 0x100 EXP SWAP1 DIV PUSH8 0xFFFFFFFFFFFFFFFF AND PUSH2 0x165F SWAP2 SWAP1 PUSH2 0x25CB JUMP JUMPDEST DUP3 PUSH1 0x5 ADD PUSH1 0x10 PUSH2 0x100 EXP DUP2 SLOAD DUP2 PUSH8 0xFFFFFFFFFFFFFFFF MUL NOT AND SWAP1 DUP4 PUSH8 0xFFFFFFFFFFFFFFFF AND MUL OR SWAP1 SSTORE POP DUP3 DUP3 PUSH1 0x5 ADD PUSH1 0x18 PUSH2 0x100 EXP DUP2 SLOAD DUP2 PUSH8 0xFFFFFFFFFFFFFFFF MUL NOT AND SWAP1 DUP4 PUSH8 0xFFFFFFFFFFFFFFFF AND MUL OR SWAP1 SSTORE POP PUSH7 0x2386F26FC10000 PUSH1 0xA DUP8 PUSH2 0x16C9 SWAP2 SWAP1 PUSH2 0x2AE7 JUMP JUMPDEST LT PUSH2 0x16DB JUMPI PUSH7 0x2386F26FC10000 PUSH2 0x16E9 JUMP JUMPDEST PUSH1 0xA DUP7 PUSH2 0x16E8 SWAP2 SWAP1 PUSH2 0x2AE7 JUMP JUMPDEST JUMPDEST DUP3 PUSH1 0x4 ADD DUP2 SWAP1 SSTORE POP PUSH32 0x0 PUSH20 0xFFFFFFFFFFFFFFFFFFFFFFFFFFFFFFFFFFFFFFFF AND CALLER PUSH20 0xFFFFFFFFFFFFFFFFFFFFFFFFFFFFFFFFFFFFFFFF AND PUSH1 0x1 SLOAD PUSH32 0x86B19D6A6B02147FC1E9F2538AE5B1FF124EE6827666573F5F59710A6BD5EBB DUP11 DUP11 DUP8 PUSH1 0x4 ADD SLOAD DUP9 PUSH1 0x5 ADD PUSH0 SWAP1 SLOAD SWAP1 PUSH2 0x100 EXP SWAP1 DIV PUSH8 0xFFFFFFFFFFFFFFFF AND DUP10 PUSH1 0x5 ADD PUSH1 0x8 SWAP1 SLOAD SWAP1 PUSH2 0x100 EXP SWAP1 DIV PUSH8 0xFFFFFFFFFFFFFFFF AND DUP11 PUSH1 0x5 ADD PUSH1 0x10 SWAP1 SLOAD SWAP1 PUSH2 0x100 EXP SWAP1 DIV PUSH8 0xFFFFFFFFFFFFFFFF AND DUP12 PUSH1 0x5 ADD PUSH1 0x18 SWAP1 SLOAD SWAP1 PUSH2 0x100 EXP SWAP1 DIV PUSH8 0xFFFFFFFFFFFFFFFF AND PUSH1 0x40 MLOAD PUSH2 0x17E0 SWAP8 SWAP7 SWAP6 SWAP5 SWAP4 SWAP3 SWAP2 SWAP1 PUSH2 0x2B47 JUMP JUMPDEST PUSH1 0x40 MLOAD DUP1 SWAP2 SUB SWAP1 LOG4 POP POP POP POP POP POP POP JUMP JUMPDEST PUSH0 PUSH0 PUSH2 0x17FC DUP5 PUSH2 0x2056 JUMP JUMPDEST SWAP1 POP DUP1 PUSH1 0xB ADD PUSH0 DUP5 PUSH20 0xFFFFFFFFFFFFFFFFFFFFFFFFFFFFFFFFFFFFFFFF AND PUSH20 0xFFFFFFFFFFFFFFFFFFFFFFFFFFFFFFFFFFFFFFFF AND DUP2 MSTORE PUSH1 0x20 ADD SWAP1 DUP2 MSTORE PUSH1 0x20 ADD PUSH0 KECCAK256 SLOAD SWAP2 POP POP SWAP3 SWAP2 POP POP JUMP JUMPDEST PUSH0 PUSH0 PUSH2 0x1852 DUP5 PUSH2 0x2056 JUMP JUMPDEST SWAP1 POP DUP1 PUSH1 0xC ADD PUSH0 DUP5 PUSH20 0xFFFFFFFFFFFFFFFFFFFFFFFFFFFFFFFFFFFFFFFF AND PUSH20 0xFFFFFFFFFFFFFFFFFFFFFFFFFFFFFFFFFFFFFFFF AND DUP2 MSTORE PUSH1 0x20 ADD SWAP1 DUP2 MSTORE PUSH1 0x20 ADD PUSH0 KECCAK256 PUSH0 SWAP1 SLOAD SWAP1 PUSH2 0x100 EXP SWAP1 DIV PUSH8 0xFFFFFFFFFFFFFFFF AND SWAP2 POP POP SWAP3 SWAP2 POP POP JUMP JUMPDEST PUSH3 0x278D00 DUP2 JUMP JUMPDEST PUSH1 0x60 PUSH0 PUSH2 0x18C3 DUP4 PUSH2 0x2056 JUMP JUMPDEST SWAP1 POP PUSH0 TIMESTAMP SWAP1 POP DUP2 PUSH1 0x5 ADD PUSH1 0x8 SWAP1 SLOAD SWAP1 PUSH2 0x100 EXP SWAP1 DIV PUSH8 0xFFFFFFFFFFFFFFFF AND PUSH8 0xFFFFFFFFFFFFFFFF AND DUP2 LT ISZERO PUSH2 0x1932 JUMPI PUSH1 0x40 MLOAD DUP1 PUSH1 0x40 ADD PUSH1 0x40 MSTORE DUP1 PUSH1 0x6 DUP2 MSTORE PUSH1 0x20 ADD PUSH32 0x434F4D4D49540000000000000000000000000000000000000000000000000000 DUP2 MSTORE POP SWAP3 POP POP POP PUSH2 0x1B78 JUMP JUMPDEST DUP2 PUSH1 0x5 ADD PUSH1 0x10 SWAP1 SLOAD SWAP1 PUSH2 0x100 EXP SWAP1 DIV PUSH8 0xFFFFFFFFFFFFFFFF AND PUSH8 0xFFFFFFFFFFFFFFFF AND DUP2 LT ISZERO PUSH2 0x199B JUMPI PUSH1 0x40 MLOAD DUP1 PUSH1 0x40 ADD PUSH1 0x40 MSTORE DUP1 PUSH1 0x6 DUP2 MSTORE PUSH1 0x20 ADD PUSH32 0x52455645414C0000000000000000000000000000000000000000000000000000 DUP2 MSTORE POP SWAP3 POP POP POP PUSH2 0x1B78 JUMP JUMPDEST DUP2 PUSH1 0xA ADD PUSH0 SWAP1 SLOAD SWAP1 PUSH2 0x100 EXP SWAP1 DIV PUSH1 0xFF AND PUSH2 0x19EF JUMPI PUSH1 0x40 MLOAD DUP1 PUSH1 0x40 ADD PUSH1 0x40 MSTORE DUP1 PUSH1 0x10 DUP2 MSTORE PUSH1 0x20 ADD PUSH32 0x46494E414C495A455F50454E44494E4700000000000000000000000000000000 DUP2 MSTORE POP SWAP3 POP POP POP PUSH2 0x1B78 JUMP JUMPDEST DUP2 PUSH1 0xA ADD PUSH0 SWAP1 SLOAD SWAP1 PUSH2 0x100 EXP SWAP1 DIV PUSH1 0xFF AND DUP1 ISZERO PUSH2 0x1A1B JUMPI POP DUP2 PUSH1 0xA ADD PUSH1 0x1 SWAP1 SLOAD SWAP1 PUSH2 0x100 EXP SWAP1 DIV PUSH1 0xFF AND ISZERO JUMPDEST DUP1 ISZERO PUSH2 0x1A77 JUMPI POP PUSH0 PUSH20 0xFFFFFFFFFFFFFFFFFFFFFFFFFFFFFFFFFFFFFFFF AND DUP3 PUSH1 0x6 ADD PUSH1 0x8 SWAP1 SLOAD SWAP1 PUSH2 0x100 EXP SWAP1 DIV PUSH20 0xFFFFFFFFFFFFFFFFFFFFFFFFFFFFFFFFFFFFFFFF AND PUSH20 0xFFFFFFFFFFFFFFFFFFFFFFFFFFFFFFFFFFFFFFFF AND EQ ISZERO JUMPDEST DUP1 ISZERO PUSH2 0x1AA4 JUMPI POP DUP2 PUSH1 0x6 ADD PUSH0 SWAP1 SLOAD SWAP1 PUSH2 0x100 EXP SWAP1 DIV PUSH8 0xFFFFFFFFFFFFFFFF AND PUSH8 0xFFFFFFFFFFFFFFFF AND DUP2 GT ISZERO JUMPDEST ISZERO PUSH2 0x1AE8 JUMPI PUSH1 0x40 MLOAD DUP1 PUSH1 0x40 ADD PUSH1 0x40 MSTORE DUP1 PUSH1 0xD DUP2 MSTORE PUSH1 0x20 ADD PUSH32 0x41574149545F5041594D454E5400000000000000000000000000000000000000 DUP2 MSTORE POP SWAP3 POP POP POP PUSH2 0x1B78 JUMP JUMPDEST DUP2 PUSH1 0xA ADD PUSH1 0x1 SWAP1 SLOAD SWAP1 PUSH2 0x100 EXP SWAP1 DIV PUSH1 0xFF AND PUSH2 0x1B3D JUMPI PUSH1 0x40 MLOAD DUP1 PUSH1 0x40 ADD PUSH1 0x40 MSTORE DUP1 PUSH1 0xF DUP2 MSTORE PUSH1 0x20 ADD PUSH32 0x534554544C454D454E545F4F50454E0000000000000000000000000000000000 DUP2 MSTORE POP SWAP3 POP POP POP PUSH2 0x1B78 JUMP JUMPDEST PUSH1 0x40 MLOAD DUP1 PUSH1 0x40 ADD PUSH1 0x40 MSTORE DUP1 PUSH1 0x5 DUP2 MSTORE PUSH1 0x20 ADD PUSH32 0x454E444544000000000000000000000000000000000000000000000000000000 DUP2 MSTORE POP SWAP3 POP POP POP JUMPDEST SWAP2 SWAP1 POP JUMP JUMPDEST PUSH7 0x2386F26FC10000 DUP2 JUMP JUMPDEST PUSH0 PUSH0 PUSH0 PUSH0 PUSH2 0x1B95 DUP6 PUSH2 0x2056 JUMP JUMPDEST SWAP1 POP DUP1 PUSH1 0x5 ADD PUSH1 0x8 SWAP1 SLOAD SWAP1 PUSH2 0x100 EXP SWAP1 DIV PUSH8 0xFFFFFFFFFFFFFFFF AND DUP2 PUSH1 0x5 ADD PUSH1 0x10 SWAP1 SLOAD SWAP1 PUSH2 0x100 EXP SWAP1 DIV PUSH8 0xFFFFFFFFFFFFFFFF AND DUP3 PUSH1 0x6 ADD PUSH0 SWAP1 SLOAD SWAP1 PUSH2 0x100 EXP SWAP1 DIV PUSH8 0xFFFFFFFFFFFFFFFF AND SWAP4 POP SWAP4 POP SWAP4 POP POP SWAP2 SWAP4 SWAP1 SWAP3 POP JUMP JUMPDEST PUSH1 0x2 PUSH0 SLOAD SUB PUSH2 0x1C33 JUMPI PUSH1 0x40 MLOAD PUSH32 0x8C379A000000000000000000000000000000000000000000000000000000000 DUP2 MSTORE PUSH1 0x4 ADD PUSH2 0x1C2A SWAP1 PUSH2 0x2BFE JUMP JUMPDEST PUSH1 0x40 MLOAD DUP1 SWAP2 SUB SWAP1 REVERT JUMPDEST PUSH1 0x2 PUSH0 DUP2 SWAP1 SSTORE POP PUSH0 PUSH2 0x1C43 PUSH2 0x1F23 JUMP JUMPDEST SWAP1 POP DUP1 PUSH1 0xA ADD PUSH0 SWAP1 SLOAD SWAP1 PUSH2 0x100 EXP SWAP1 DIV PUSH1 0xFF AND ISZERO DUP1 PUSH2 0x1C77 JUMPI POP PUSH1 0x1 ISZERO ISZERO DUP2 PUSH1 0xA ADD PUSH1 0x1 SWAP1 SLOAD SWAP1 PUSH2 0x100 EXP SWAP1 DIV PUSH1 0xFF AND ISZERO ISZERO EQ JUMPDEST ISZERO PUSH2 0x1CAE JUMPI PUSH1 0x40 MLOAD PUSH32 0xD3018D1800000000000000000000000000000000000000000000000000000000 DUP2 MSTORE PUSH1 0x4 ADD PUSH1 0x40 MLOAD DUP1 SWAP2 SUB SWAP1 REVERT JUMPDEST CALLER PUSH20 0xFFFFFFFFFFFFFFFFFFFFFFFFFFFFFFFFFFFFFFFF AND DUP2 PUSH1 0x6 ADD PUSH1 0x8 SWAP1 SLOAD SWAP1 PUSH2 0x100 EXP SWAP1 DIV PUSH20 0xFFFFFFFFFFFFFFFFFFFFFFFFFFFFFFFFFFFFFFFF AND PUSH20 0xFFFFFFFFFFFFFFFFFFFFFFFFFFFFFFFFFFFFFFFF AND EQ PUSH2 0x1D37 JUMPI PUSH1 0x40 MLOAD PUSH32 0x618C724200000000000000000000000000000000000000000000000000000000 DUP2 MSTORE PUSH1 0x4 ADD PUSH1 0x40 MLOAD DUP1 SWAP2 SUB SWAP1 REVERT JUMPDEST DUP1 PUSH1 0x6 ADD PUSH0 SWAP1 SLOAD SWAP1 PUSH2 0x100 EXP SWAP1 DIV PUSH8 0xFFFFFFFFFFFFFFFF AND PUSH8 0xFFFFFFFFFFFFFFFF AND TIMESTAMP GT ISZERO PUSH2 0x1D92 JUMPI PUSH1 0x40 MLOAD PUSH32 0x58459E8800000000000000000000000000000000000000000000000000000000 DUP2 MSTORE PUSH1 0x4 ADD PUSH1 0x40 MLOAD DUP1 SWAP2 SUB SWAP1 REVERT JUMPDEST DUP1 PUSH1 0x9 ADD SLOAD CALLVALUE EQ PUSH2 0x1DCF JUMPI PUSH1 0x40 MLOAD PUSH32 0x788A686F00000000000000000000000000000000000000000000000000000000 DUP2 MSTORE PUSH1 0x4 ADD PUSH1 0x40 MLOAD DUP1 SWAP2 SUB SWAP1 REVERT JUMPDEST PUSH1 0x1 DUP2 PUSH1 0xA ADD PUSH1 0x1 PUSH2 0x100 EXP DUP2 SLOAD DUP2 PUSH1 0xFF MUL NOT AND SWAP1 DUP4 ISZERO ISZERO MUL OR SWAP1 SSTORE POP PUSH0 DUP2 PUSH1 0x2 ADD PUSH0 SWAP1 SLOAD SWAP1 PUSH2 0x100 EXP SWAP1 DIV PUSH20 0xFFFFFFFFFFFFFFFFFFFFFFFFFFFFFFFFFFFFFFFF AND PUSH20 0xFFFFFFFFFFFFFFFFFFFFFFFFFFFFFFFFFFFFFFFF AND CALLVALUE PUSH1 0x40 MLOAD PUSH2 0x1E34 SWAP1 PUSH2 0x2C49 JUMP JUMPDEST PUSH0 PUSH1 0x40 MLOAD DUP1 DUP4 SUB DUP2 DUP6 DUP8 GAS CALL SWAP3 POP POP POP RETURNDATASIZE DUP1 PUSH0 DUP2 EQ PUSH2 0x1E6E JUMPI PUSH1 0x40 MLOAD SWAP2 POP PUSH1 0x1F NOT PUSH1 0x3F RETURNDATASIZE ADD AND DUP3 ADD PUSH1 0x40 MSTORE RETURNDATASIZE DUP3 MSTORE RETURNDATASIZE PUSH0 PUSH1 0x20 DUP5 ADD RETURNDATACOPY PUSH2 0x1E73 JUMP JUMPDEST PUSH1 0x60 SWAP2 POP JUMPDEST POP POP SWAP1 POP DUP1 PUSH2 0x1EB7 JUMPI PUSH1 0x40 MLOAD PUSH32 0x8C379A000000000000000000000000000000000000000000000000000000000 DUP2 MSTORE PUSH1 0x4 ADD PUSH2 0x1EAE SWAP1 PUSH2 0x2CA7 JUMP JUMPDEST PUSH1 0x40 MLOAD DUP1 SWAP2 SUB SWAP1 REVERT JUMPDEST PUSH2 0x1EC7 DUP3 ADDRESS CALLER DUP6 PUSH1 0x1 ADD SLOAD PUSH2 0x1FC4 JUMP JUMPDEST CALLER PUSH20 0xFFFFFFFFFFFFFFFFFFFFFFFFFFFFFFFFFFFFFFFF AND PUSH1 0x1 SLOAD PUSH32 0xD33EF6AB06E6BF8672161AA6ABE1EC1791C393D62213EBD89C67F611E538E575 CALLVALUE PUSH1 0x40 MLOAD PUSH2 0x1F10 SWAP2 SWAP1 PUSH2 0x210F JUMP JUMPDEST PUSH1 0x40 MLOAD DUP1 SWAP2 SUB SWAP1 LOG3 POP POP PUSH1 0x1 PUSH0 DUP2 SWAP1 SSTORE POP JUMP JUMPDEST PUSH0 PUSH1 0x2 PUSH0 PUSH1 0x1 SLOAD DUP2 MSTORE PUSH1 0x20 ADD SWAP1 DUP2 MSTORE PUSH1 0x20 ADD PUSH0 KECCAK256 SWAP1 POP PUSH0 PUSH20 0xFFFFFFFFFFFFFFFFFFFFFFFFFFFFFFFFFFFFFFFF AND DUP2 PUSH1 0x2 ADD PUSH0 SWAP1 SLOAD SWAP1 PUSH2 0x100 EXP SWAP1 DIV PUSH20 0xFFFFFFFFFFFFFFFFFFFFFFFFFFFFFFFFFFFFFFFF AND PUSH20 0xFFFFFFFFFFFFFFFFFFFFFFFFFFFFFFFFFFFFFFFF AND SUB PUSH2 0x1FC1 JUMPI PUSH1 0x40 MLOAD PUSH32 0x568CA25700000000000000000000000000000000000000000000000000000000 DUP2 MSTORE PUSH1 0x4 ADD PUSH1 0x40 MLOAD DUP1 SWAP2 SUB SWAP1 REVERT JUMPDEST SWAP1 JUMP JUMPDEST DUP4 PUSH0 ADD PUSH0 SWAP1 SLOAD SWAP1 PUSH2 0x100 EXP SWAP1 DIV PUSH20 0xFFFFFFFFFFFFFFFFFFFFFFFFFFFFFFFFFFFFFFFF AND PUSH20 0xFFFFFFFFFFFFFFFFFFFFFFFFFFFFFFFFFFFFFFFF AND PUSH4 0x23B872DD DUP5 DUP5 DUP5 PUSH1 0x40 MLOAD DUP5 PUSH4 0xFFFFFFFF AND PUSH1 0xE0 SHL DUP2 MSTORE PUSH1 0x4 ADD PUSH2 0x2023 SWAP4 SWAP3 SWAP2 SWAP1 PUSH2 0x2A52 JUMP JUMPDEST PUSH0 PUSH1 0x40 MLOAD DUP1 DUP4 SUB DUP2 PUSH0 DUP8 DUP1 EXTCODESIZE ISZERO DUP1 ISZERO PUSH2 0x203A JUMPI PUSH0 PUSH0 REVERT JUMPDEST POP GAS CALL ISZERO DUP1 ISZERO PUSH2 0x204C JUMPI RETURNDATASIZE PUSH0 PUSH0 RETURNDATACOPY RETURNDATASIZE PUSH0 REVERT JUMPDEST POP POP POP POP POP POP POP POP JUMP JUMPDEST PUSH0 PUSH1 0x2 PUSH0 DUP4 DUP2 MSTORE PUSH1 0x20 ADD SWAP1 DUP2 MSTORE PUSH1 0x20 ADD PUSH0 KECCAK256 SWAP1 POP PUSH0 PUSH20 0xFFFFFFFFFFFFFFFFFFFFFFFFFFFFFFFFFFFFFFFF AND DUP2 PUSH1 0x2 ADD PUSH0 SWAP1 SLOAD SWAP1 PUSH2 0x100 EXP SWAP1 DIV PUSH20 0xFFFFFFFFFFFFFFFFFFFFFFFFFFFFFFFFFFFFFFFF AND PUSH20 0xFFFFFFFFFFFFFFFFFFFFFFFFFFFFFFFFFFFFFFFF AND SUB PUSH2 0x20F2 JUMPI PUSH1 0x40 MLOAD PUSH32 0x568CA25700000000000000000000000000000000000000000000000000000000 DUP2 MSTORE PUSH1 0x4 ADD PUSH1 0x40 MLOAD DUP1 SWAP2 SUB SWAP1 REVERT JUMPDEST SWAP2 SWAP1 POP JUMP JUMPDEST PUSH0 DUP2 SWAP1 POP SWAP2 SWAP1 POP JUMP JUMPDEST PUSH2 0x2109 DUP2 PUSH2 0x20F7 JUMP JUMPDEST DUP3 MSTORE POP POP JUMP JUMPDEST PUSH0 PUSH1 0x20 DUP3 ADD SWAP1 POP PUSH2 0x2122 PUSH0 DUP4 ADD DUP5 PUSH2 0x2100 JUMP JUMPDEST SWAP3 SWAP2 POP POP JUMP JUMPDEST PUSH0 PUSH20 0xFFFFFFFFFFFFFFFFFFFFFFFFFFFFFFFFFFFFFFFF DUP3 AND SWAP1 POP SWAP2 SWAP1 POP JUMP JUMPDEST PUSH0 DUP2 SWAP1 POP SWAP2 SWAP1 POP JUMP JUMPDEST PUSH0 PUSH2 0x216A PUSH2 0x2165 PUSH2 0x2160 DUP5 PUSH2 0x2128 JUMP JUMPDEST PUSH2 0x2147 JUMP JUMPDEST PUSH2 0x2128 JUMP JUMPDEST SWAP1 POP SWAP2 SWAP1 POP JUMP JUMPDEST PUSH0 PUSH2 0x217B DUP3 PUSH2 0x2150 JUMP JUMPDEST SWAP1 POP SWAP2 SWAP1 POP JUMP JUMPDEST PUSH0 PUSH2 0x218C DUP3 PUSH2 0x2171 JUMP JUMPDEST SWAP1 POP SWAP2 SWAP1 POP JUMP JUMPDEST PUSH2 0x219C DUP2 PUSH2 0x2182 JUMP JUMPDEST DUP3 MSTORE POP POP JUMP JUMPDEST PUSH0 PUSH1 0x20 DUP3 ADD SWAP1 POP PUSH2 0x21B5 PUSH0 DUP4 ADD DUP5 PUSH2 0x2193 JUMP JUMPDEST SWAP3 SWAP2 POP POP JUMP JUMPDEST PUSH0 PUSH0 REVERT JUMPDEST PUSH2 0x21C8 DUP2 PUSH2 0x20F7 JUMP JUMPDEST DUP2 EQ PUSH2 0x21D2 JUMPI PUSH0 PUSH0 REVERT JUMPDEST POP JUMP JUMPDEST PUSH0 DUP2 CALLDATALOAD SWAP1 POP PUSH2 0x21E3 DUP2 PUSH2 0x21BF JUMP JUMPDEST SWAP3 SWAP2 POP POP JUMP JUMPDEST PUSH0 DUP2 SWAP1 POP SWAP2 SWAP1 POP JUMP JUMPDEST PUSH2 0x21FB DUP2 PUSH2 0x21E9 JUMP JUMPDEST DUP2 EQ PUSH2 0x2205 JUMPI PUSH0 PUSH0 REVERT JUMPDEST POP JUMP JUMPDEST PUSH0 DUP2 CALLDATALOAD SWAP1 POP PUSH2 0x2216 DUP2 PUSH2 0x21F2 JUMP JUMPDEST SWAP3 SWAP2 POP POP JUMP JUMPDEST PUSH0 PUSH0 PUSH1 0x40 DUP4 DUP6 SUB SLT ISZERO PUSH2 0x2232 JUMPI PUSH2 0x2231 PUSH2 0x21BB JUMP JUMPDEST JUMPDEST PUSH0 PUSH2 0x223F DUP6 DUP3 DUP7 ADD PUSH2 0x21D5 JUMP JUMPDEST SWAP3 POP POP PUSH1 0x20 PUSH2 0x2250 DUP6 DUP3 DUP7 ADD PUSH2 0x2208 JUMP JUMPDEST SWAP2 POP POP SWAP3 POP SWAP3 SWAP1 POP JUMP JUMPDEST PUSH0 PUSH1 0x20 DUP3 DUP5 SUB SLT ISZERO PUSH2 0x226F JUMPI PUSH2 0x226E PUSH2 0x21BB JUMP JUMPDEST JUMPDEST PUSH0 PUSH2 0x227C DUP5 DUP3 DUP6 ADD PUSH2 0x21D5 JUMP JUMPDEST SWAP2 POP POP SWAP3 SWAP2 POP POP JUMP JUMPDEST PUSH0 PUSH2 0x228F DUP3 PUSH2 0x2128 JUMP JUMPDEST SWAP1 POP SWAP2 SWAP1 POP JUMP JUMPDEST PUSH2 0x229F DUP2 PUSH2 0x2285 JUMP JUMPDEST DUP3 MSTORE POP POP JUMP JUMPDEST PUSH0 PUSH8 0xFFFFFFFFFFFFFFFF DUP3 AND SWAP1 POP SWAP2 SWAP1 POP JUMP JUMPDEST PUSH2 0x22C1 DUP2 PUSH2 0x22A5 JUMP JUMPDEST DUP3 MSTORE POP POP JUMP JUMPDEST PUSH0 PUSH1 0x60 DUP3 ADD SWAP1 POP PUSH2 0x22DA PUSH0 DUP4 ADD DUP7 PUSH2 0x2296 JUMP JUMPDEST PUSH2 0x22E7 PUSH1 0x20 DUP4 ADD DUP6 PUSH2 0x2100 JUMP JUMPDEST PUSH2 0x22F4 PUSH1 0x40 DUP4 ADD DUP5 PUSH2 0x22B8 JUMP JUMPDEST SWAP5 SWAP4 POP POP POP POP JUMP JUMPDEST PUSH2 0x2305 DUP2 PUSH2 0x2285 JUMP JUMPDEST DUP2 EQ PUSH2 0x230F JUMPI PUSH0 PUSH0 REVERT JUMPDEST POP JUMP JUMPDEST PUSH0 DUP2 CALLDATALOAD SWAP1 POP PUSH2 0x2320 DUP2 PUSH2 0x22FC JUMP JUMPDEST SWAP3 SWAP2 POP POP JUMP JUMPDEST PUSH0 PUSH0 PUSH1 0x40 DUP4 DUP6 SUB SLT ISZERO PUSH2 0x233C JUMPI PUSH2 0x233B PUSH2 0x21BB JUMP JUMPDEST JUMPDEST PUSH0 PUSH2 0x2349 DUP6 DUP3 DUP7 ADD PUSH2 0x21D5 JUMP JUMPDEST SWAP3 POP POP PUSH1 0x20 PUSH2 0x235A DUP6 DUP3 DUP7 ADD PUSH2 0x2312 JUMP JUMPDEST SWAP2 POP POP SWAP3 POP SWAP3 SWAP1 POP JUMP JUMPDEST PUSH0 PUSH1 0x20 DUP3 DUP5 SUB SLT ISZERO PUSH2 0x2379 JUMPI PUSH2 0x2378 PUSH2 0x21BB JUMP JUMPDEST JUMPDEST PUSH0 PUSH2 0x2386 DUP5 DUP3 DUP6 ADD PUSH2 0x2208 JUMP JUMPDEST SWAP2 POP POP SWAP3 SWAP2 POP POP JUMP JUMPDEST PUSH2 0x2398 DUP2 PUSH2 0x22A5 JUMP JUMPDEST DUP2 EQ PUSH2 0x23A2 JUMPI PUSH0 PUSH0 REVERT JUMPDEST POP JUMP JUMPDEST PUSH0 DUP2 CALLDATALOAD SWAP1 POP PUSH2 0x23B3 DUP2 PUSH2 0x238F JUMP JUMPDEST SWAP3 SWAP2 POP POP JUMP JUMPDEST PUSH0 PUSH0 PUSH0 PUSH0 PUSH0 PUSH1 0xA0 DUP7 DUP9 SUB SLT ISZERO PUSH2 0x23D2 JUMPI PUSH2 0x23D1 PUSH2 0x21BB JUMP JUMPDEST JUMPDEST PUSH0 PUSH2 0x23DF DUP9 DUP3 DUP10 ADD PUSH2 0x21D5 JUMP JUMPDEST SWAP6 POP POP PUSH1 0x20 PUSH2 0x23F0 DUP9 DUP3 DUP10 ADD PUSH2 0x21D5 JUMP JUMPDEST SWAP5 POP POP PUSH1 0x40 PUSH2 0x2401 DUP9 DUP3 DUP10 ADD PUSH2 0x23A5 JUMP JUMPDEST SWAP4 POP POP PUSH1 0x60 PUSH2 0x2412 DUP9 DUP3 DUP10 ADD PUSH2 0x23A5 JUMP JUMPDEST SWAP3 POP POP PUSH1 0x80 PUSH2 0x2423 DUP9 DUP3 DUP10 ADD PUSH2 0x23A5 JUMP JUMPDEST SWAP2 POP POP SWAP3 SWAP6 POP SWAP3 SWAP6 SWAP1 SWAP4 POP JUMP JUMPDEST PUSH2 0x2439 DUP2 PUSH2 0x21E9 JUMP JUMPDEST DUP3 MSTORE POP POP JUMP JUMPDEST PUSH0 PUSH1 0x20 DUP3 ADD SWAP1 POP PUSH2 0x2452 PUSH0 DUP4 ADD DUP5 PUSH2 0x2430 JUMP JUMPDEST SWAP3 SWAP2 POP POP JUMP JUMPDEST PUSH0 PUSH1 0x20 DUP3 ADD SWAP1 POP PUSH2 0x246B PUSH0 DUP4 ADD DUP5 PUSH2 0x22B8 JUMP JUMPDEST SWAP3 SWAP2 POP POP JUMP JUMPDEST PUSH0 DUP2 MLOAD SWAP1 POP SWAP2 SWAP1 POP JUMP JUMPDEST PUSH0 DUP3 DUP3 MSTORE PUSH1 0x20 DUP3 ADD SWAP1 POP SWAP3 SWAP2 POP POP JUMP JUMPDEST DUP3 DUP2 DUP4 MCOPY PUSH0 DUP4 DUP4 ADD MSTORE POP POP POP JUMP JUMPDEST PUSH0 PUSH1 0x1F NOT PUSH1 0x1F DUP4 ADD AND SWAP1 POP SWAP2 SWAP1 POP JUMP JUMPDEST PUSH0 PUSH2 0x24B3 DUP3 PUSH2 0x2471 JUMP JUMPDEST PUSH2 0x24BD DUP2 DUP6 PUSH2 0x247B JUMP JUMPDEST SWAP4 POP PUSH2 0x24CD DUP2 DUP6 PUSH1 0x20 DUP7 ADD PUSH2 0x248B JUMP JUMPDEST PUSH2 0x24D6 DUP2 PUSH2 0x2499 JUMP JUMPDEST DUP5 ADD SWAP2 POP POP SWAP3 SWAP2 POP POP JUMP JUMPDEST PUSH0 PUSH1 0x20 DUP3 ADD SWAP1 POP DUP2 DUP2 SUB PUSH0 DUP4 ADD MSTORE PUSH2 0x24F9 DUP2 DUP5 PUSH2 0x24A9 JUMP JUMPDEST SWAP1 POP SWAP3 SWAP2 POP POP JUMP JUMPDEST PUSH0 PUSH1 0x60 DUP3 ADD SWAP1 POP PUSH2 0x2514 PUSH0 DUP4 ADD DUP7 PUSH2 0x22B8 JUMP JUMPDEST PUSH2 0x2521 PUSH1 0x20 DUP4 ADD DUP6 PUSH2 0x22B8 JUMP JUMPDEST PUSH2 0x252E PUSH1 0x40 DUP4 ADD DUP5 PUSH2 0x22B8 JUMP JUMPDEST SWAP5 SWAP4 POP POP POP POP JUMP JUMPDEST PUSH32 0x616C72656164792066696E616C697A6564000000000000000000000000000000 PUSH0 DUP3 ADD MSTORE POP JUMP JUMPDEST PUSH0 PUSH2 0x256A PUSH1 0x11 DUP4 PUSH2 0x247B JUMP JUMPDEST SWAP2 POP PUSH2 0x2575 DUP3 PUSH2 0x2536 JUMP JUMPDEST PUSH1 0x20 DUP3 ADD SWAP1 POP SWAP2 SWAP1 POP JUMP JUMPDEST PUSH0 PUSH1 0x20 DUP3 ADD SWAP1 POP DUP2 DUP2 SUB PUSH0 DUP4 ADD MSTORE PUSH2 0x2597 DUP2 PUSH2 0x255E JUMP JUMPDEST SWAP1 POP SWAP2 SWAP1 POP JUMP JUMPDEST PUSH32 0x4E487B7100000000000000000000000000000000000000000000000000000000 PUSH0 MSTORE PUSH1 0x11 PUSH1 0x4 MSTORE PUSH1 0x24 PUSH0 REVERT JUMPDEST PUSH0 PUSH2 0x25D5 DUP3 PUSH2 0x22A5 JUMP JUMPDEST SWAP2 POP PUSH2 0x25E0 DUP4 PUSH2 0x22A5 JUMP JUMPDEST SWAP3 POP DUP3 DUP3 ADD SWAP1 POP PUSH8 0xFFFFFFFFFFFFFFFF DUP2 GT ISZERO PUSH2 0x2600 JUMPI PUSH2 0x25FF PUSH2 0x259E JUMP JUMPDEST JUMPDEST SWAP3 SWAP2 POP POP JUMP JUMPDEST PUSH0 PUSH1 0x80 DUP3 ADD SWAP1 POP PUSH2 0x2619 PUSH0 DUP4 ADD DUP8 PUSH2 0x2296 JUMP JUMPDEST PUSH2 0x2626 PUSH1 0x20 DUP4 ADD DUP7 PUSH2 0x2100 JUMP JUMPDEST PUSH2 0x2633 PUSH1 0x40 DUP4 ADD DUP6 PUSH2 0x2100 JUMP JUMPDEST PUSH2 0x2640 PUSH1 0x60 DUP4 ADD DUP5 PUSH2 0x2100 JUMP JUMPDEST SWAP6 SWAP5 POP POP POP POP POP JUMP JUMPDEST PUSH32 0x7374696C6C2070617961626C652077696E646F77000000000000000000000000 PUSH0 DUP3 ADD MSTORE POP JUMP JUMPDEST PUSH0 PUSH2 0x267D PUSH1 0x14 DUP4 PUSH2 0x247B JUMP JUMPDEST SWAP2 POP PUSH2 0x2688 DUP3 PUSH2 0x2649 JUMP JUMPDEST PUSH1 0x20 DUP3 ADD SWAP1 POP SWAP2 SWAP1 POP JUMP JUMPDEST PUSH0 PUSH1 0x20 DUP3 ADD SWAP1 POP DUP2 DUP2 SUB PUSH0 DUP4 ADD MSTORE PUSH2 0x26AA DUP2 PUSH2 0x2671 JUMP JUMPDEST SWAP1 POP SWAP2 SWAP1 POP JUMP JUMPDEST PUSH0 DUP2 SWAP1 POP SWAP2 SWAP1 POP JUMP JUMPDEST PUSH2 0x26CB PUSH2 0x26C6 DUP3 PUSH2 0x20F7 JUMP JUMPDEST PUSH2 0x26B1 JUMP JUMPDEST DUP3 MSTORE POP POP JUMP JUMPDEST PUSH0 DUP2 SWAP1 POP SWAP2 SWAP1 POP JUMP JUMPDEST PUSH2 0x26EB PUSH2 0x26E6 DUP3 PUSH2 0x21E9 JUMP JUMPDEST PUSH2 0x26D1 JUMP JUMPDEST DUP3 MSTORE POP POP JUMP JUMPDEST PUSH0 PUSH2 0x26FC DUP3 DUP6 PUSH2 0x26BA JUMP JUMPDEST PUSH1 0x20 DUP3 ADD SWAP2 POP PUSH2 0x270C DUP3 DUP5 PUSH2 0x26DA JUMP JUMPDEST PUSH1 0x20 DUP3 ADD SWAP2 POP DUP2 SWAP1 POP SWAP4 SWAP3 POP POP POP JUMP JUMPDEST PUSH32 0x70726576696F7573206E6F7420736574746C6564000000000000000000000000 PUSH0 DUP3 ADD MSTORE POP JUMP JUMPDEST PUSH0 PUSH2 0x2750 PUSH1 0x14 DUP4 PUSH2 0x247B JUMP JUMPDEST SWAP2 POP PUSH2 0x275B DUP3 PUSH2 0x271C JUMP JUMPDEST PUSH1 0x20 DUP3 ADD SWAP1 POP SWAP2 SWAP1 POP JUMP JUMPDEST PUSH0 PUSH1 0x20 DUP3 ADD SWAP1 POP DUP2 DUP2 SUB PUSH0 DUP4 ADD MSTORE PUSH2 0x277D DUP2 PUSH2 0x2744 JUMP JUMPDEST SWAP1 POP SWAP2 SWAP1 POP JUMP JUMPDEST PUSH32 0x434F4E4649473A2062616420636F6D6D6974206475726174696F6E7300000000 PUSH0 DUP3 ADD MSTORE POP JUMP JUMPDEST PUSH0 PUSH2 0x27B8 PUSH1 0x1C DUP4 PUSH2 0x247B JUMP JUMPDEST SWAP2 POP PUSH2 0x27C3 DUP3 PUSH2 0x2784 JUMP JUMPDEST PUSH1 0x20 DUP3 ADD SWAP1 POP SWAP2 SWAP1 POP JUMP JUMPDEST PUSH0 PUSH1 0x20 DUP3 ADD SWAP1 POP DUP2 DUP2 SUB PUSH0 DUP4 ADD MSTORE PUSH2 0x27E5 DUP2 PUSH2 0x27AC JUMP JUMPDEST SWAP1 POP SWAP2 SWAP1 POP JUMP JUMPDEST PUSH32 0x434F4E4649473A206261642072657665616C206475726174696F6E7300000000 PUSH0 DUP3 ADD MSTORE POP JUMP JUMPDEST PUSH0 PUSH2 0x2820 PUSH1 0x1C DUP4 PUSH2 0x247B JUMP JUMPDEST SWAP2 POP PUSH2 0x282B DUP3 PUSH2 0x27EC JUMP JUMPDEST PUSH1 0x20 DUP3 ADD SWAP1 POP SWAP2 SWAP1 POP JUMP JUMPDEST PUSH0 PUSH1 0x20 DUP3 ADD SWAP1 POP DUP2 DUP2 SUB PUSH0 DUP4 ADD MSTORE PUSH2 0x284D DUP2 PUSH2 0x2814 JUMP JUMPDEST SWAP1 POP SWAP2 SWAP1 POP JUMP JUMPDEST PUSH32 0x434F4E4649473A20626164207265736572766520707269636500000000000000 PUSH0 DUP3 ADD MSTORE POP JUMP JUMPDEST PUSH0 PUSH2 0x2888 PUSH1 0x19 DUP4 PUSH2 0x247B JUMP JUMPDEST SWAP2 POP PUSH2 0x2893 DUP3 PUSH2 0x2854 JUMP JUMPDEST PUSH1 0x20 DUP3 ADD SWAP1 POP SWAP2 SWAP1 POP JUMP JUMPDEST PUSH0 PUSH1 0x20 DUP3 ADD SWAP1 POP DUP2 DUP2 SUB PUSH0 DUP4 ADD MSTORE PUSH2 0x28B5 DUP2 PUSH2 0x287C JUMP JUMPDEST SWAP1 POP SWAP2 SWAP1 POP JUMP JUMPDEST PUSH0 DUP2 MLOAD SWAP1 POP PUSH2 0x28CA DUP2 PUSH2 0x22FC JUMP JUMPDEST SWAP3 SWAP2 POP POP JUMP JUMPDEST PUSH0 PUSH1 0x20 DUP3 DUP5 SUB SLT ISZERO PUSH2 0x28E5 JUMPI PUSH2 0x28E4 PUSH2 0x21BB JUMP JUMPDEST JUMPDEST PUSH0 PUSH2 0x28F2 DUP5 DUP3 DUP6 ADD PUSH2 0x28BC JUMP JUMPDEST SWAP2 POP POP SWAP3 SWAP2 POP POP JUMP JUMPDEST PUSH32 0x4E46543A206E6F74206F776E6572000000000000000000000000000000000000 PUSH0 DUP3 ADD MSTORE POP JUMP JUMPDEST PUSH0 PUSH2 0x292F PUSH1 0xE DUP4 PUSH2 0x247B JUMP JUMPDEST SWAP2 POP PUSH2 0x293A DUP3 PUSH2 0x28FB JUMP JUMPDEST PUSH1 0x20 DUP3 ADD SWAP1 POP SWAP2 SWAP1 POP JUMP JUMPDEST PUSH0 PUSH1 0x20 DUP3 ADD SWAP1 POP DUP2 DUP2 SUB PUSH0 DUP4 ADD MSTORE PUSH2 0x295C DUP2 PUSH2 0x2923 JUMP JUMPDEST SWAP1 POP SWAP2 SWAP1 POP JUMP JUMPDEST PUSH0 PUSH1 0x40 DUP3 ADD SWAP1 POP PUSH2 0x2976 PUSH0 DUP4 ADD DUP6 PUSH2 0x2296 JUMP JUMPDEST PUSH2 0x2983 PUSH1 0x20 DUP4 ADD DUP5 PUSH2 0x2296 JUMP JUMPDEST SWAP4 SWAP3 POP POP POP JUMP JUMPDEST PUSH0 DUP2 ISZERO ISZERO SWAP1 POP SWAP2 SWAP1 POP JUMP JUMPDEST PUSH2 0x299E DUP2 PUSH2 0x298A JUMP JUMPDEST DUP2 EQ PUSH2 0x29A8 JUMPI PUSH0 PUSH0 REVERT JUMPDEST POP JUMP JUMPDEST PUSH0 DUP2 MLOAD SWAP1 POP PUSH2 0x29B9 DUP2 PUSH2 0x2995 JUMP JUMPDEST SWAP3 SWAP2 POP POP JUMP JUMPDEST PUSH0 PUSH1 0x20 DUP3 DUP5 SUB SLT ISZERO PUSH2 0x29D4 JUMPI PUSH2 0x29D3 PUSH2 0x21BB JUMP JUMPDEST JUMPDEST PUSH0 PUSH2 0x29E1 DUP5 DUP3 DUP6 ADD PUSH2 0x29AB JUMP JUMPDEST SWAP2 POP POP SWAP3 SWAP2 POP POP JUMP JUMPDEST PUSH32 0x4E46543A206E6F7420617070726F766564000000000000000000000000000000 PUSH0 DUP3 ADD MSTORE POP JUMP JUMPDEST PUSH0 PUSH2 0x2A1E PUSH1 0x11 DUP4 PUSH2 0x247B JUMP JUMPDEST SWAP2 POP PUSH2 0x2A29 DUP3 PUSH2 0x29EA JUMP JUMPDEST PUSH1 0x20 DUP3 ADD SWAP1 POP SWAP2 SWAP1 POP JUMP JUMPDEST PUSH0 PUSH1 0x20 DUP3 ADD SWAP1 POP DUP2 DUP2 SUB PUSH0 DUP4 ADD MSTORE PUSH2 0x2A4B DUP2 PUSH2 0x2A12 JUMP JUMPDEST SWAP1 POP SWAP2 SWAP1 POP JUMP JUMPDEST PUSH0 PUSH1 0x60 DUP3 ADD SWAP1 POP PUSH2 0x2A65 PUSH0 DUP4 ADD DUP7 PUSH2 0x2296 JUMP JUMPDEST PUSH2 0x2A72 PUSH1 0x20 DUP4 ADD DUP6 PUSH2 0x2296 JUMP JUMPDEST PUSH2 0x2A7F PUSH1 0x40 DUP4 ADD DUP5 PUSH2 0x2100 JUMP JUMPDEST SWAP5 SWAP4 POP POP POP POP JUMP JUMPDEST PUSH0 PUSH2 0x2A91 DUP3 PUSH2 0x20F7 JUMP JUMPDEST SWAP2 POP PUSH2 0x2A9C DUP4 PUSH2 0x20F7 JUMP JUMPDEST SWAP3 POP DUP3 DUP3 ADD SWAP1 POP DUP1 DUP3 GT ISZERO PUSH2 0x2AB4 JUMPI PUSH2 0x2AB3 PUSH2 0x259E JUMP JUMPDEST JUMPDEST SWAP3 SWAP2 POP POP JUMP JUMPDEST PUSH32 0x4E487B7100000000000000000000000000000000000000000000000000000000 PUSH0 MSTORE PUSH1 0x12 PUSH1 0x4 MSTORE PUSH1 0x24 PUSH0 REVERT JUMPDEST PUSH0 PUSH2 0x2AF1 DUP3 PUSH2 0x20F7 JUMP JUMPDEST SWAP2 POP PUSH2 0x2AFC DUP4 PUSH2 0x20F7 JUMP JUMPDEST SWAP3 POP DUP3 PUSH2 0x2B0C JUMPI PUSH2 0x2B0B PUSH2 0x2ABA JUMP JUMPDEST JUMPDEST DUP3 DUP3 DIV SWAP1 POP SWAP3 SWAP2 POP POP JUMP JUMPDEST PUSH0 PUSH2 0x2B31 PUSH2 0x2B2C PUSH2 0x2B27 DUP5 PUSH2 0x22A5 JUMP JUMPDEST PUSH2 0x2147 JUMP JUMPDEST PUSH2 0x20F7 JUMP JUMPDEST SWAP1 POP SWAP2 SWAP1 POP JUMP JUMPDEST PUSH2 0x2B41 DUP2 PUSH2 0x2B17 JUMP JUMPDEST DUP3 MSTORE POP POP JUMP JUMPDEST PUSH0 PUSH1 0xE0 DUP3 ADD SWAP1 POP PUSH2 0x2B5A PUSH0 DUP4 ADD DUP11 PUSH2 0x2100 JUMP JUMPDEST PUSH2 0x2B67 PUSH1 0x20 DUP4 ADD DUP10 PUSH2 0x2100 JUMP JUMPDEST PUSH2 0x2B74 PUSH1 0x40 DUP4 ADD DUP9 PUSH2 0x2100 JUMP JUMPDEST PUSH2 0x2B81 PUSH1 0x60 DUP4 ADD DUP8 PUSH2 0x2B38 JUMP JUMPDEST PUSH2 0x2B8E PUSH1 0x80 DUP4 ADD DUP7 PUSH2 0x22B8 JUMP JUMPDEST PUSH2 0x2B9B PUSH1 0xA0 DUP4 ADD DUP6 PUSH2 0x22B8 JUMP JUMPDEST PUSH2 0x2BA8 PUSH1 0xC0 DUP4 ADD DUP5 PUSH2 0x22B8 JUMP JUMPDEST SWAP9 SWAP8 POP POP POP POP POP POP POP POP JUMP JUMPDEST PUSH32 0x5245454E5452414E435900000000000000000000000000000000000000000000 PUSH0 DUP3 ADD MSTORE POP JUMP JUMPDEST PUSH0 PUSH2 0x2BE8 PUSH1 0xA DUP4 PUSH2 0x247B JUMP JUMPDEST SWAP2 POP PUSH2 0x2BF3 DUP3 PUSH2 0x2BB4 JUMP JUMPDEST PUSH1 0x20 DUP3 ADD SWAP1 POP SWAP2 SWAP1 POP JUMP JUMPDEST PUSH0 PUSH1 0x20 DUP3 ADD SWAP1 POP DUP2 DUP2 SUB PUSH0 DUP4 ADD MSTORE PUSH2 0x2C15 DUP2 PUSH2 0x2BDC JUMP JUMPDEST SWAP1 POP SWAP2 SWAP1 POP JUMP JUMPDEST PUSH0 DUP2 SWAP1 POP SWAP3 SWAP2 POP POP JUMP JUMPDEST POP JUMP JUMPDEST PUSH0 PUSH2 0x2C34 PUSH0 DUP4 PUSH2 0x2C1C JUMP JUMPDEST SWAP2 POP PUSH2 0x2C3F DUP3 PUSH2 0x2C26 JUMP JUMPDEST PUSH0 DUP3 ADD SWAP1 POP SWAP2 SWAP1 POP JUMP JUMPDEST PUSH0 PUSH2 0x2C53 DUP3 PUSH2 0x2C29 JUMP JUMPDEST SWAP2 POP DUP2 SWAP1 POP SWAP2 SWAP1 POP JUMP JUMPDEST PUSH32 0x7061792073656C6C6572206661696C6564000000000000000000000000000000 PUSH0 DUP3 ADD MSTORE POP JUMP JUMPDEST PUSH0 PUSH2 0x2C91 PUSH1 0x11 DUP4 PUSH2 0x247B JUMP JUMPDEST SWAP2 POP PUSH2 0x2C9C DUP3 PUSH2 0x2C5D JUMP JUMPDEST PUSH1 0x20 DUP3 ADD SWAP1 POP SWAP2 SWAP1 POP JUMP JUMPDEST PUSH0 PUSH1 0x20 DUP3 ADD SWAP1 POP DUP2 DUP2 SUB PUSH0 DUP4 ADD MSTORE PUSH2 0x2CBE DUP2 PUSH2 0x2C85 JUMP JUMPDEST SWAP1 POP SWAP2 SWAP1 POP JUMP INVALID LOG2 PUSH5 0x6970667358 0x22 SLT KECCAK256 0xDE SWAP3 SAR SWAP1 0xAE SWAP10 ISZERO 0x27 0xE8 SWAP4 0xC0 ISZERO SHL 0x4C EXTDELEGATECALL SWAP11 0xA6 MUL 0xBB DIV 0x4D 0xBA 0x22 0xD9 MSIZE SWAP11 KECCAK256 NOT 0xA7 MLOAD PUSH8 0xC064736F6C634300 ADDMOD 0x1E STOP CALLER "
		},
		"gasEstimates": {
			"creation": {
				"codeDepositCost": "2303000",
				"executionCost": "infinite",
				"totalCost": "infinite"
			},
			"external": {
				"MAX_DEPOSIT_PRICE()": "391",
				"MAX_DURATION()": "347",
				"MAX_PRICE()": "349",
				"auctionId()": "2471",
				"classNFT()": "infinite",
				"commitBid(bytes32)": "71861",
				"currentPhase(uint256)": "infinite",
				"finalize()": "infinite",
				"getCommitTime(uint256,address)": "5440",
				"getCommitment(uint256,address)": "5377",
				"getRevealedAmount(uint256,address)": "infinite",
				"getTimes(uint256)": "infinite",
				"getWinnerInfo(uint256)": "infinite",
				"payAndClaim()": "infinite",
				"revealBid(uint256,bytes32)": "infinite",
				"sellerReclaimIfUnpaid()": "infinite",
				"startAuction(uint256,uint256,uint64,uint64,uint64)": "infinite"
			},
			"internal": {
				"_requireActiveAuction()": "infinite",
				"_requireAuction(uint256)": "infinite",
				"_safeTransferNFT(struct VickreyAuctionHouse.Auction storage pointer,address,address,uint256)": "infinite"
			}
		},
		"methodIdentifiers": {
			"MAX_DEPOSIT_PRICE()": "cdf91dae",
			"MAX_DURATION()": "b1724b46",
			"MAX_PRICE()": "01c11d96",
			"auctionId()": "10782f8f",
			"classNFT()": "5e7721f7",
			"commitBid(bytes32)": "86a2cc27",
			"currentPhase(uint256)": "b1fb6405",
			"finalize()": "4bb278f3",
			"getCommitTime(uint256,address)": "8f3708e8",
			"getCommitment(uint256,address)": "89fb2682",
			"getRevealedAmount(uint256,address)": "813abc2d",
			"getTimes(uint256)": "d3aa699e",
			"getWinnerInfo(uint256)": "6b1da364",
			"payAndClaim()": "e9906f2e",
			"revealBid(uint256,bytes32)": "62c5424a",
			"sellerReclaimIfUnpaid()": "5df6ff9d",
			"startAuction(uint256,uint256,uint64,uint64,uint64)": "894da478"
		}
	},
	"abi": [
		{
			"inputs": [
				{
					"internalType": "address",
					"name": "classNFTAddress",
					"type": "address"
				}
			],
			"stateMutability": "nonpayable",
			"type": "constructor"
		},
		{
			"inputs": [],
			"name": "AuctionActive",
			"type": "error"
		},
		{
			"inputs": [],
			"name": "InvalidCommitment",
			"type": "error"
		},
		{
			"inputs": [],
			"name": "NFTNotEscrowed",
			"type": "error"
		},
		{
			"inputs": [],
			"name": "NoActiveAuction",
			"type": "error"
		},
		{
			"inputs": [],
			"name": "NotEnded",
			"type": "error"
		},
		{
			"inputs": [],
			"name": "NotFinalizable",
			"type": "error"
		},
		{
			"inputs": [],
			"name": "NotInCommitPhase",
			"type": "error"
		},
		{
			"inputs": [],
			"name": "NotInRevealPhase",
			"type": "error"
		},
		{
			"inputs": [],
			"name": "NotSeller",
			"type": "error"
		},
		{
			"inputs": [],
			"name": "NotWinner",
			"type": "error"
		},
		{
			"inputs": [],
			"name": "PaymentClosed",
			"type": "error"
		},
		{
			"inputs": [],
			"name": "RevealAlreadyDone",
			"type": "error"
		},
		{
			"inputs": [],
			"name": "WrongPayment",
			"type": "error"
		},
		{
			"anonymous": false,
			"inputs": [
				{
					"indexed": true,
					"internalType": "uint256",
					"name": "id",
					"type": "uint256"
				},
				{
					"indexed": true,
					"internalType": "address",
					"name": "seller",
					"type": "address"
				},
				{
					"indexed": true,
					"internalType": "address",
					"name": "nft",
					"type": "address"
				},
				{
					"indexed": false,
					"internalType": "uint256",
					"name": "tokenId",
					"type": "uint256"
				},
				{
					"indexed": false,
					"internalType": "uint256",
					"name": "reservePrice",
					"type": "uint256"
				},
				{
					"indexed": false,
					"internalType": "uint256",
					"name": "depositPrice",
					"type": "uint256"
				},
				{
					"indexed": false,
					"internalType": "uint256",
					"name": "startStamp",
					"type": "uint256"
				},
				{
					"indexed": false,
					"internalType": "uint64",
					"name": "commitEnd",
					"type": "uint64"
				},
				{
					"indexed": false,
					"internalType": "uint64",
					"name": "revealEnd",
					"type": "uint64"
				},
				{
					"indexed": false,
					"internalType": "uint64",
					"name": "settleDuration",
					"type": "uint64"
				}
			],
			"name": "AuctionStarted",
			"type": "event"
		},
		{
			"anonymous": false,
			"inputs": [
				{
					"indexed": true,
					"internalType": "uint256",
					"name": "id",
					"type": "uint256"
				},
				{
					"indexed": true,
					"internalType": "address",
					"name": "bidder",
					"type": "address"
				}
			],
			"name": "BidCommitted",
			"type": "event"
		},
		{
			"anonymous": false,
			"inputs": [
				{
					"indexed": true,
					"internalType": "uint256",
					"name": "id",
					"type": "uint256"
				},
				{
					"indexed": true,
					"internalType": "address",
					"name": "bidder",
					"type": "address"
				},
				{
					"indexed": false,
					"internalType": "uint256",
					"name": "amount",
					"type": "uint256"
				}
			],
			"name": "BidRevealed",
			"type": "event"
		},
		{
			"anonymous": false,
			"inputs": [
				{
					"indexed": true,
					"internalType": "uint256",
					"name": "id",
					"type": "uint256"
				},
				{
					"indexed": false,
					"internalType": "address",
					"name": "winner",
					"type": "address"
				},
				{
					"indexed": false,
					"internalType": "uint256",
					"name": "highest",
					"type": "uint256"
				},
				{
					"indexed": false,
					"internalType": "uint256",
					"name": "second",
					"type": "uint256"
				},
				{
					"indexed": false,
					"internalType": "uint256",
					"name": "clearingPrice",
					"type": "uint256"
				}
			],
			"name": "Finalized",
			"type": "event"
		},
		{
			"anonymous": false,
			"inputs": [
				{
					"indexed": true,
					"internalType": "uint256",
					"name": "id",
					"type": "uint256"
				}
			],
			"name": "SellerReclaimed",
			"type": "event"
		},
		{
			"anonymous": false,
			"inputs": [
				{
					"indexed": true,
					"internalType": "uint256",
					"name": "id",
					"type": "uint256"
				}
			],
			"name": "Unsold",
			"type": "event"
		},
		{
			"anonymous": false,
			"inputs": [
				{
					"indexed": true,
					"internalType": "uint256",
					"name": "id",
					"type": "uint256"
				},
				{
					"indexed": true,
					"internalType": "address",
					"name": "winner",
					"type": "address"
				},
				{
					"indexed": false,
					"internalType": "uint256",
					"name": "price",
					"type": "uint256"
				}
			],
			"name": "WinnerPaidAndClaimed",
			"type": "event"
		},
		{
			"inputs": [],
			"name": "MAX_DEPOSIT_PRICE",
			"outputs": [
				{
					"internalType": "uint256",
					"name": "",
					"type": "uint256"
				}
			],
			"stateMutability": "view",
			"type": "function"
		},
		{
			"inputs": [],
			"name": "MAX_DURATION",
			"outputs": [
				{
					"internalType": "uint256",
					"name": "",
					"type": "uint256"
				}
			],
			"stateMutability": "view",
			"type": "function"
		},
		{
			"inputs": [],
			"name": "MAX_PRICE",
			"outputs": [
				{
					"internalType": "uint256",
					"name": "",
					"type": "uint256"
				}
			],
			"stateMutability": "view",
			"type": "function"
		},
		{
			"inputs": [],
			"name": "auctionId",
			"outputs": [
				{
					"internalType": "uint256",
					"name": "",
					"type": "uint256"
				}
			],
			"stateMutability": "view",
			"type": "function"
		},
		{
			"inputs": [],
			"name": "classNFT",
			"outputs": [
				{
					"internalType": "contract IERC721",
					"name": "",
					"type": "address"
				}
			],
			"stateMutability": "view",
			"type": "function"
		},
		{
			"inputs": [
				{
					"internalType": "bytes32",
					"name": "commitment",
					"type": "bytes32"
				}
			],
			"name": "commitBid",
			"outputs": [],
			"stateMutability": "nonpayable",
			"type": "function"
		},
		{
			"inputs": [
				{
					"internalType": "uint256",
					"name": "id",
					"type": "uint256"
				}
			],
			"name": "currentPhase",
			"outputs": [
				{
					"internalType": "string",
					"name": "",
					"type": "string"
				}
			],
			"stateMutability": "view",
			"type": "function"
		},
		{
			"inputs": [],
			"name": "finalize",
			"outputs": [],
			"stateMutability": "nonpayable",
			"type": "function"
		},
		{
			"inputs": [
				{
					"internalType": "uint256",
					"name": "id",
					"type": "uint256"
				},
				{
					"internalType": "address",
					"name": "bidder",
					"type": "address"
				}
			],
			"name": "getCommitTime",
			"outputs": [
				{
					"internalType": "uint64",
					"name": "",
					"type": "uint64"
				}
			],
			"stateMutability": "view",
			"type": "function"
		},
		{
			"inputs": [
				{
					"internalType": "uint256",
					"name": "id",
					"type": "uint256"
				},
				{
					"internalType": "address",
					"name": "bidder",
					"type": "address"
				}
			],
			"name": "getCommitment",
			"outputs": [
				{
					"internalType": "bytes32",
					"name": "",
					"type": "bytes32"
				}
			],
			"stateMutability": "view",
			"type": "function"
		},
		{
			"inputs": [
				{
					"internalType": "uint256",
					"name": "id",
					"type": "uint256"
				},
				{
					"internalType": "address",
					"name": "bidder",
					"type": "address"
				}
			],
			"name": "getRevealedAmount",
			"outputs": [
				{
					"internalType": "uint256",
					"name": "",
					"type": "uint256"
				}
			],
			"stateMutability": "view",
			"type": "function"
		},
		{
			"inputs": [
				{
					"internalType": "uint256",
					"name": "id",
					"type": "uint256"
				}
			],
			"name": "getTimes",
			"outputs": [
				{
					"internalType": "uint64",
					"name": "commitEnd",
					"type": "uint64"
				},
				{
					"internalType": "uint64",
					"name": "revealEnd",
					"type": "uint64"
				},
				{
					"internalType": "uint64",
					"name": "settleDeadline",
					"type": "uint64"
				}
			],
			"stateMutability": "view",
			"type": "function"
		},
		{
			"inputs": [
				{
					"internalType": "uint256",
					"name": "id",
					"type": "uint256"
				}
			],
			"name": "getWinnerInfo",
			"outputs": [
				{
					"internalType": "address",
					"name": "winner",
					"type": "address"
				},
				{
					"internalType": "uint256",
					"name": "price",
					"type": "uint256"
				},
				{
					"internalType": "uint64",
					"name": "payDeadline",
					"type": "uint64"
				}
			],
			"stateMutability": "view",
			"type": "function"
		},
		{
			"inputs": [],
			"name": "payAndClaim",
			"outputs": [],
			"stateMutability": "payable",
			"type": "function"
		},
		{
			"inputs": [
				{
					"internalType": "uint256",
					"name": "amount",
					"type": "uint256"
				},
				{
					"internalType": "bytes32",
					"name": "salt",
					"type": "bytes32"
				}
			],
			"name": "revealBid",
			"outputs": [],
			"stateMutability": "nonpayable",
			"type": "function"
		},
		{
			"inputs": [],
			"name": "sellerReclaimIfUnpaid",
			"outputs": [],
			"stateMutability": "nonpayable",
			"type": "function"
		},
		{
			"inputs": [
				{
					"internalType": "uint256",
					"name": "tokenId",
					"type": "uint256"
				},
				{
					"internalType": "uint256",
					"name": "reservePrice",
					"type": "uint256"
				},
				{
					"internalType": "uint64",
					"name": "commitDurationSeconds",
					"type": "uint64"
				},
				{
					"internalType": "uint64",
					"name": "revealDurationSeconds",
					"type": "uint64"
				},
				{
					"internalType": "uint64",
					"name": "settleDurationSeconds",
					"type": "uint64"
				}
			],
			"name": "startAuction",
			"outputs": [],
			"stateMutability": "nonpayable",
			"type": "function"
		}
	]
}